{
  "contractName": "LastPixel",
  "abi": [
    {
      "constant": true,
      "inputs": [
        {
          "name": "",
          "type": "uint256"
        }
      ],
      "name": "colorPaintedAmt",
      "outputs": [
        {
          "name": "",
          "type": "uint256"
        }
      ],
      "payable": false,
      "stateMutability": "view",
      "type": "function"
    },
    {
      "constant": true,
      "inputs": [
        {
          "name": "",
          "type": "uint256"
        }
      ],
      "name": "colorGeneration",
      "outputs": [
        {
          "name": "",
          "type": "uint256"
        }
      ],
      "payable": false,
      "stateMutability": "view",
      "type": "function"
    },
    {
      "constant": true,
      "inputs": [],
      "name": "lastPainter",
      "outputs": [
        {
          "name": "",
          "type": "address"
        }
      ],
      "payable": false,
      "stateMutability": "view",
      "type": "function"
    },
    {
      "constant": true,
      "inputs": [
        {
          "name": "",
          "type": "uint256"
        }
      ],
      "name": "pixelSupplied",
      "outputs": [
        {
          "name": "",
          "type": "bool"
        }
      ],
      "payable": false,
      "stateMutability": "view",
      "type": "function"
    },
    {
      "constant": true,
      "inputs": [],
      "name": "timeBank",
      "outputs": [
        {
          "name": "",
          "type": "uint256"
        }
      ],
      "payable": false,
      "stateMutability": "view",
      "type": "function"
    },
    {
      "constant": true,
      "inputs": [],
      "name": "pixelTotalSupplied",
      "outputs": [
        {
          "name": "",
          "type": "uint256"
        }
      ],
      "payable": false,
      "stateMutability": "view",
      "type": "function"
    },
    {
      "constant": true,
      "inputs": [
        {
          "name": "",
          "type": "uint256"
        }
      ],
      "name": "pixelColors",
      "outputs": [
        {
          "name": "",
          "type": "uint256"
        }
      ],
      "payable": false,
      "stateMutability": "view",
      "type": "function"
    },
    {
      "constant": true,
      "inputs": [],
      "name": "pixelTokenAddr",
      "outputs": [
        {
          "name": "",
          "type": "address"
        }
      ],
      "payable": false,
      "stateMutability": "view",
      "type": "function"
    },
    {
      "constant": true,
      "inputs": [],
      "name": "colorTotalSupplied",
      "outputs": [
        {
          "name": "",
          "type": "uint256"
        }
      ],
      "payable": false,
      "stateMutability": "view",
      "type": "function"
    },
    {
      "constant": true,
      "inputs": [],
      "name": "colorBank",
      "outputs": [
        {
          "name": "",
          "type": "uint256"
        }
      ],
      "payable": false,
      "stateMutability": "view",
      "type": "function"
    },
    {
      "constant": true,
      "inputs": [
        {
          "name": "",
          "type": "uint256"
        }
      ],
      "name": "colorPaintPrice",
      "outputs": [
        {
          "name": "",
          "type": "uint256"
        }
      ],
      "payable": false,
      "stateMutability": "view",
      "type": "function"
    },
    {
      "constant": true,
      "inputs": [
        {
          "name": "",
          "type": "uint256"
        }
      ],
      "name": "colorTotalPainted",
      "outputs": [
        {
          "name": "",
          "type": "uint256"
        }
      ],
      "payable": false,
      "stateMutability": "view",
      "type": "function"
    },
    {
      "constant": true,
      "inputs": [],
      "name": "masterAddr",
      "outputs": [
        {
          "name": "",
          "type": "address"
        }
      ],
      "payable": false,
      "stateMutability": "view",
      "type": "function"
    },
    {
      "constant": true,
      "inputs": [],
      "name": "colorTokenAddr",
      "outputs": [
        {
          "name": "",
          "type": "address"
        }
      ],
      "payable": false,
      "stateMutability": "view",
      "type": "function"
    },
    {
      "inputs": [
        {
          "name": "_proxyRegistryAddress",
          "type": "address"
        }
      ],
      "payable": false,
      "stateMutability": "nonpayable",
      "type": "constructor"
    },
    {
      "constant": false,
      "inputs": [],
      "name": "buyPixel",
      "outputs": [],
      "payable": true,
      "stateMutability": "payable",
      "type": "function"
    },
    {
      "constant": false,
      "inputs": [],
      "name": "buyColor",
      "outputs": [],
      "payable": true,
      "stateMutability": "payable",
      "type": "function"
    },
    {
      "constant": false,
      "inputs": [
        {
          "name": "x",
          "type": "uint256"
        },
        {
          "name": "y",
          "type": "uint256"
        },
        {
          "name": "colorId",
          "type": "uint256"
        }
      ],
      "name": "paint",
      "outputs": [],
      "payable": true,
      "stateMutability": "payable",
      "type": "function"
    }
  ],
  "bytecode": "0x608060405260006004556000600555600061271c55600061271d55600061271e5534801561002c57600080fd5b5060405160208062006ab683398101806040528101908080519060200190929190505050336000806101000a81548173ffffffffffffffffffffffffffffffffffffffff021916908373ffffffffffffffffffffffffffffffffffffffff16021790555033600160006101000a81548173ffffffffffffffffffffffffffffffffffffffff021916908373ffffffffffffffffffffffffffffffffffffffff160217905550806100da61020f565b808273ffffffffffffffffffffffffffffffffffffffff1673ffffffffffffffffffffffffffffffffffffffff168152602001915050604051809103906000f08015801561012c573d6000803e3d6000fd5b50600260006101000a81548173ffffffffffffffffffffffffffffffffffffffff021916908373ffffffffffffffffffffffffffffffffffffffff16021790555080610176610220565b808273ffffffffffffffffffffffffffffffffffffffff1673ffffffffffffffffffffffffffffffffffffffff168152602001915050604051809103906000f0801580156101c8573d6000803e3d6000fd5b50600360006101000a81548173ffffffffffffffffffffffffffffffffffffffff021916908373ffffffffffffffffffffffffffffffffffffffff16021790555050610231565b604051612bea80620012e283390190565b604051612bea8062003ecc83390190565b6110a180620002416000396000f3006080604052600436106100f1576000357c0100000000000000000000000000000000000000000000000000000000900463ffffffff168063096d318b146100f657806310f7d5a2146101375780632af8b5661461016b57806346cfce05146101ac57806348aa1cdc146102035780634fe4915c1461024857806377da57cd1461027357806396d12bc41461029e578063a67bd4ad146102df578063b0a46efa146102e9578063b44623bb14610340578063b5ae33241461036b578063c4574ac014610375578063d23e4219146103a0578063e1e6060f146103e1578063e5ef38a614610422578063fc6333ed14610479575b600080fd5b34801561010257600080fd5b50610121600480360381019080803590602001909291905050506104d0565b6040518082815260200191505060405180910390f35b6101696004803603810190808035906020019092919080359060200190929190803590602001909291905050506104e8565b005b34801561017757600080fd5b5061019660048036038101908080359060200190929190505050610baf565b6040518082815260200191505060405180910390f35b3480156101b857600080fd5b506101c1610bc7565b604051808273ffffffffffffffffffffffffffffffffffffffff1673ffffffffffffffffffffffffffffffffffffffff16815260200191505060405180910390f35b34801561020f57600080fd5b5061022e60048036038101908080359060200190929190505050610bed565b604051808215151515815260200191505060405180910390f35b34801561025457600080fd5b5061025d610c0d565b6040518082815260200191505060405180910390f35b34801561027f57600080fd5b50610288610c14565b6040518082815260200191505060405180910390f35b3480156102aa57600080fd5b506102c960048036038101908080359060200190929190505050610c1a565b6040518082815260200191505060405180910390f35b6102e7610c35565b005b3480156102f557600080fd5b506102fe610ddc565b604051808273ffffffffffffffffffffffffffffffffffffffff1673ffffffffffffffffffffffffffffffffffffffff16815260200191505060405180910390f35b34801561034c57600080fd5b50610355610e02565b6040518082815260200191505060405180910390f35b610373610e08565b005b34801561038157600080fd5b5061038a610ff3565b6040518082815260200191505060405180910390f35b3480156103ac57600080fd5b506103cb60048036038101908080359060200190929190505050610ffa565b6040518082815260200191505060405180910390f35b3480156103ed57600080fd5b5061040c60048036038101908080359060200190929190505050611012565b6040518082815260200191505060405180910390f35b34801561042e57600080fd5b5061043761102a565b604051808273ffffffffffffffffffffffffffffffffffffffff1673ffffffffffffffffffffffffffffffffffffffff16815260200191505060405180910390f35b34801561048557600080fd5b5061048e61104f565b604051808273ffffffffffffffffffffffffffffffffffffffff1673ffffffffffffffffffffffffffffffffffffffff16815260200191505060405180910390f35b60096020528060005260406000206000915090505481565b60008060008060018710158015610500575060648711155b151561050b57600080fd5b6001861015801561051d575060648611155b151561052857600080fd5b6001851015801561053b57506004548511155b151561054657600080fd5b600860008681526020019081526020016000205461271002600760008781526020019081526020016000205411156105e857600160086000878152602001908152602001600020600082825401925050819055506069600a6000878152602001908152602001600020600082825402925050819055506064600a600087815260200190815260200160002060008282548115156105df57fe5b04925050819055505b600a6000868152602001908152602001600020543414151561060957600080fd5b85606460018903020193506000809054906101000a900473ffffffffffffffffffffffffffffffffffffffff1692506006600085815260200190815260200160002060009054906101000a900460ff161561072d57600260009054906101000a900473ffffffffffffffffffffffffffffffffffffffff1673ffffffffffffffffffffffffffffffffffffffff16636352211e856040518263ffffffff167c010000000000000000000000000000000000000000000000000000000002815260040180828152602001915050602060405180830381600087803b1580156106ef57600080fd5b505af1158015610703573d6000803e3d6000fd5b505050506040513d602081101561071957600080fd5b810190808051906020019092919050505092505b600360009054906101000a900473ffffffffffffffffffffffffffffffffffffffff1673ffffffffffffffffffffffffffffffffffffffff16636352211e866040518263ffffffff167c010000000000000000000000000000000000000000000000000000000002815260040180828152602001915050602060405180830381600087803b1580156107be57600080fd5b505af11580156107d2573d6000803e3d6000fd5b505050506040513d60208110156107e857600080fd5b810190808051906020019092919050505091508273ffffffffffffffffffffffffffffffffffffffff166108fc60143481151561082157fe5b049081150290604051600060405180830381858888f1935050505015801561084d573d6000803e3d6000fd5b508173ffffffffffffffffffffffffffffffffffffffff166108fc60143481151561087457fe5b049081150290604051600060405180830381858888f193505050501580156108a0573d6000803e3d6000fd5b506000809054906101000a900473ffffffffffffffffffffffffffffffffffffffff1673ffffffffffffffffffffffffffffffffffffffff166108fc600a348115156108e857fe5b049081150290604051600060405180830381858888f19350505050158015610914573d6000803e3d6000fd5b5060056002340281151561092457fe5b0461271d6000828254019250508190555060056002340281151561094457fe5b0461271e60008282540192505081905550600160096000600b876127118110151561096b57fe5b015481526020019081526020016000206000828254039250508190555084600b856127118110151561099957fe5b0181905550600160096000878152602001908152602001600020600082825401925050819055506001600760008781526020019081526020016000206000828254019250508190555061271060096000878152602001908152602001600020541415610abd573373ffffffffffffffffffffffffffffffffffffffff166108fc61271e549081150290604051600060405180830381858888f19350505050158015610a48573d6000803e3d6000fd5b50600190505b61271081111515610a7d576000600b8261271181101515610a6b57fe5b01819055508080600101915050610a4e565b600190505b60045481111515610ab357600060096000838152602001908152602001600020819055508080600101915050610a82565b600061271e819055505b600061271c541415610ad6574261271c81905550610b5d565b61038461271c544203101515610b5c57600160009054906101000a900473ffffffffffffffffffffffffffffffffffffffff1673ffffffffffffffffffffffffffffffffffffffff166108fc61271d549081150290604051600060405180830381858888f19350505050158015610b51573d6000803e3d6000fd5b50600061271d819055505b5b4261271c8190555033600160006101000a81548173ffffffffffffffffffffffffffffffffffffffff021916908373ffffffffffffffffffffffffffffffffffffffff16021790555050505050505050565b60086020528060005260406000206000915090505481565b600160009054906101000a900473ffffffffffffffffffffffffffffffffffffffff1681565b60066020528060005260406000206000915054906101000a900460ff1681565b61271d5481565b60055481565b600b8161271181101515610c2a57fe5b016000915090505481565b612710600554101515610c4757600080fd5b67016345785d8a00003410151515610c5e57600080fd5b600260009054906101000a900473ffffffffffffffffffffffffffffffffffffffff1673ffffffffffffffffffffffffffffffffffffffff1663755edd17336040518263ffffffff167c0100000000000000000000000000000000000000000000000000000000028152600401808273ffffffffffffffffffffffffffffffffffffffff1673ffffffffffffffffffffffffffffffffffffffff168152602001915050600060405180830381600087803b158015610d1b57600080fd5b505af1158015610d2f573d6000803e3d6000fd5b505050506001600560008282540192505081905550600160066000600554815260200190815260200160002060006101000a81548160ff0219169083151502179055506000809054906101000a900473ffffffffffffffffffffffffffffffffffffffff1673ffffffffffffffffffffffffffffffffffffffff166108fc349081150290604051600060405180830381858888f19350505050158015610dd9573d6000803e3d6000fd5b50565b600260009054906101000a900473ffffffffffffffffffffffffffffffffffffffff1681565b60045481565b6008600454101515610e1957600080fd5b68056bc75e2d631000003410151515610e3157600080fd5b600360009054906101000a900473ffffffffffffffffffffffffffffffffffffffff1673ffffffffffffffffffffffffffffffffffffffff1663755edd17336040518263ffffffff167c0100000000000000000000000000000000000000000000000000000000028152600401808273ffffffffffffffffffffffffffffffffffffffff1673ffffffffffffffffffffffffffffffffffffffff168152602001915050600060405180830381600087803b158015610eee57600080fd5b505af1158015610f02573d6000803e3d6000fd5b505050506001600460008282540192505081905550600060096000600454815260200190815260200160002081905550600160086000600454815260200190815260200160002081905550600060076000600454815260200190815260200160002081905550662386f26fc10000600a60006004548152602001908152602001600020819055506000809054906101000a900473ffffffffffffffffffffffffffffffffffffffff1673ffffffffffffffffffffffffffffffffffffffff166108fc349081150290604051600060405180830381858888f19350505050158015610ff0573d6000803e3d6000fd5b50565b61271e5481565b600a6020528060005260406000206000915090505481565b60076020528060005260406000206000915090505481565b6000809054906101000a900473ffffffffffffffffffffffffffffffffffffffff1681565b600360009054906101000a900473ffffffffffffffffffffffffffffffffffffffff16815600a165627a7a7230582044047a8e88eb3d1a283abf2086d1857b859474655772fed46090e814f5395599002960806040523480156200001157600080fd5b5060405160208062002bea833981018060405281019080805190602001909291905050506040805190810160405280600a81526020017f506978656c546f6b656e000000000000000000000000000000000000000000008152506040805190810160405280600481526020017f50584c5400000000000000000000000000000000000000000000000000000000815250828282620000e16301ffc9a77c01000000000000000000000000000000000000000000000000000000000262000295640100000000026401000000009004565b6200011e6380ac58cd7c01000000000000000000000000000000000000000000000000000000000262000295640100000000026401000000009004565b6200015b634f558e797c01000000000000000000000000000000000000000000000000000000000262000295640100000000026401000000009004565b81600590805190602001906200017392919062000353565b5080600690805190602001906200018c92919062000353565b50620001ca63780e9d637c01000000000000000000000000000000000000000000000000000000000262000295640100000000026401000000009004565b62000207635b5e139f7c01000000000000000000000000000000000000000000000000000000000262000295640100000000026401000000009004565b505033600c60006101000a81548173ffffffffffffffffffffffffffffffffffffffff021916908373ffffffffffffffffffffffffffffffffffffffff16021790555080600d60006101000a81548173ffffffffffffffffffffffffffffffffffffffff021916908373ffffffffffffffffffffffffffffffffffffffff1602179055505050505062000402565b63ffffffff7c010000000000000000000000000000000000000000000000000000000002817bffffffffffffffffffffffffffffffffffffffffffffffffffffffff191614151515620002e757600080fd5b6001600080837bffffffffffffffffffffffffffffffffffffffffffffffffffffffff19167bffffffffffffffffffffffffffffffffffffffffffffffffffffffff1916815260200190815260200160002060006101000a81548160ff02191690831515021790555050565b828054600181600116156101000203166002900490600052602060002090601f016020900481019282601f106200039657805160ff1916838001178555620003c7565b82800160010185558215620003c7579182015b82811115620003c6578251825591602001919060010190620003a9565b5b509050620003d69190620003da565b5090565b620003ff91905b80821115620003fb576000816000905550600101620003e1565b5090565b90565b6127d880620004126000396000f300608060405260043610610133576000357c0100000000000000000000000000000000000000000000000000000000900463ffffffff16806301ffc9a71461013857806306fdde031461019c578063081812fc1461022c578063095ea7b31461029957806318160ddd146102e657806319fa8f501461031157806323b872dd1461037a5780632f745c59146103e757806342842e0e146104485780634f558e79146104b55780634f6ccce7146104fa5780636352211e1461053b57806370a08231146105a8578063715018a6146105ff578063755edd17146106165780638da5cb5b1461065957806395d89b41146106b0578063a22cb46514610740578063b88d4fde1461078f578063c87b56dd14610842578063d547cfb7146108e8578063e985e9c514610978578063f2fde38b146109f3575b600080fd5b34801561014457600080fd5b5061018260048036038101908080357bffffffffffffffffffffffffffffffffffffffffffffffffffffffff19169060200190929190505050610a36565b604051808215151515815260200191505060405180910390f35b3480156101a857600080fd5b506101b1610a9d565b6040518080602001828103825283818151815260200191508051906020019080838360005b838110156101f15780820151818401526020810190506101d6565b50505050905090810190601f16801561021e5780820380516001836020036101000a031916815260200191505b509250505060405180910390f35b34801561023857600080fd5b5061025760048036038101908080359060200190929190505050610b3f565b604051808273ffffffffffffffffffffffffffffffffffffffff1673ffffffffffffffffffffffffffffffffffffffff16815260200191505060405180910390f35b3480156102a557600080fd5b506102e4600480360381019080803573ffffffffffffffffffffffffffffffffffffffff16906020019092919080359060200190929190505050610b7c565b005b3480156102f257600080fd5b506102fb610cc1565b6040518082815260200191505060405180910390f35b34801561031d57600080fd5b50610326610cce565b60405180827bffffffffffffffffffffffffffffffffffffffffffffffffffffffff19167bffffffffffffffffffffffffffffffffffffffffffffffffffffffff1916815260200191505060405180910390f35b34801561038657600080fd5b506103e5600480360381019080803573ffffffffffffffffffffffffffffffffffffffff169060200190929190803573ffffffffffffffffffffffffffffffffffffffff16906020019092919080359060200190929190505050610cf5565b005b3480156103f357600080fd5b50610432600480360381019080803573ffffffffffffffffffffffffffffffffffffffff16906020019092919080359060200190929190505050610e00565b6040518082815260200191505060405180910390f35b34801561045457600080fd5b506104b3600480360381019080803573ffffffffffffffffffffffffffffffffffffffff169060200190929190803573ffffffffffffffffffffffffffffffffffffffff16906020019092919080359060200190929190505050610e77565b005b3480156104c157600080fd5b506104e060048036038101908080359060200190929190505050610e98565b604051808215151515815260200191505060405180910390f35b34801561050657600080fd5b5061052560048036038101908080359060200190929190505050610f0a565b6040518082815260200191505060405180910390f35b34801561054757600080fd5b5061056660048036038101908080359060200190929190505050610f42565b604051808273ffffffffffffffffffffffffffffffffffffffff1673ffffffffffffffffffffffffffffffffffffffff16815260200191505060405180910390f35b3480156105b457600080fd5b506105e9600480360381019080803573ffffffffffffffffffffffffffffffffffffffff169060200190929190505050610fc0565b6040518082815260200191505060405180910390f35b34801561060b57600080fd5b50610614611044565b005b34801561062257600080fd5b50610657600480360381019080803573ffffffffffffffffffffffffffffffffffffffff169060200190929190505050611149565b005b34801561066557600080fd5b5061066e6111bf565b604051808273ffffffffffffffffffffffffffffffffffffffff1673ffffffffffffffffffffffffffffffffffffffff16815260200191505060405180910390f35b3480156106bc57600080fd5b506106c56111e5565b6040518080602001828103825283818151815260200191508051906020019080838360005b838110156107055780820151818401526020810190506106ea565b50505050905090810190601f1680156107325780820380516001836020036101000a031916815260200191505b509250505060405180910390f35b34801561074c57600080fd5b5061078d600480360381019080803573ffffffffffffffffffffffffffffffffffffffff169060200190929190803515159060200190929190505050611287565b005b34801561079b57600080fd5b50610840600480360381019080803573ffffffffffffffffffffffffffffffffffffffff169060200190929190803573ffffffffffffffffffffffffffffffffffffffff16906020019092919080359060200190929190803590602001908201803590602001908080601f01602080910402602001604051908101604052809392919081815260200183838082843782019150505050505091929192905050506113c3565b005b34801561084e57600080fd5b5061086d600480360381019080803590602001909291905050506113eb565b6040518080602001828103825283818151815260200191508051906020019080838360005b838110156108ad578082015181840152602081019050610892565b50505050905090810190601f1680156108da5780820380516001836020036101000a031916815260200191505b509250505060405180910390f35b3480156108f457600080fd5b506108fd61140d565b6040518080602001828103825283818151815260200191508051906020019080838360005b8381101561093d578082015181840152602081019050610922565b50505050905090810190601f16801561096a5780820380516001836020036101000a031916815260200191505b509250505060405180910390f35b34801561098457600080fd5b506109d9600480360381019080803573ffffffffffffffffffffffffffffffffffffffff169060200190929190803573ffffffffffffffffffffffffffffffffffffffff169060200190929190505050611425565b604051808215151515815260200191505060405180910390f35b3480156109ff57600080fd5b50610a34600480360381019080803573ffffffffffffffffffffffffffffffffffffffff169060200190929190505050611573565b005b6000806000837bffffffffffffffffffffffffffffffffffffffffffffffffffffffff19167bffffffffffffffffffffffffffffffffffffffffffffffffffffffff1916815260200190815260200160002060009054906101000a900460ff169050919050565b606060058054600181600116156101000203166002900480601f016020809104026020016040519081016040528092919081815260200182805460018160011615610100020316600290048015610b355780601f10610b0a57610100808354040283529160200191610b35565b820191906000526020600020905b815481529060010190602001808311610b1857829003601f168201915b5050505050905090565b60006002600083815260200190815260200160002060009054906101000a900473ffffffffffffffffffffffffffffffffffffffff169050919050565b6000610b8782610f42565b90508073ffffffffffffffffffffffffffffffffffffffff168373ffffffffffffffffffffffffffffffffffffffff1614151515610bc457600080fd5b8073ffffffffffffffffffffffffffffffffffffffff163373ffffffffffffffffffffffffffffffffffffffff161480610c045750610c038133611425565b5b1515610c0f57600080fd5b826002600084815260200190815260200160002060006101000a81548173ffffffffffffffffffffffffffffffffffffffff021916908373ffffffffffffffffffffffffffffffffffffffff160217905550818373ffffffffffffffffffffffffffffffffffffffff168273ffffffffffffffffffffffffffffffffffffffff167f8c5be1e5ebec7d5bd14f71427d1e84f3dd0314c0f7b2291e5b200ac8c7c3b92560405160405180910390a4505050565b6000600980549050905090565b6301ffc9a77c01000000000000000000000000000000000000000000000000000000000281565b610cff33826115db565b1515610d0a57600080fd5b600073ffffffffffffffffffffffffffffffffffffffff168373ffffffffffffffffffffffffffffffffffffffff1614151515610d4657600080fd5b600073ffffffffffffffffffffffffffffffffffffffff168273ffffffffffffffffffffffffffffffffffffffff1614151515610d8257600080fd5b610d8c8382611670565b610d968382611773565b610da0828261192f565b808273ffffffffffffffffffffffffffffffffffffffff168473ffffffffffffffffffffffffffffffffffffffff167fddf252ad1be2c89b69c2b068fc378daa952ba7f163c4a11628f55a4df523b3ef60405160405180910390a4505050565b6000610e0b83610fc0565b82101515610e1857600080fd5b600760008473ffffffffffffffffffffffffffffffffffffffff1673ffffffffffffffffffffffffffffffffffffffff16815260200190815260200160002082815481101515610e6457fe5b9060005260206000200154905092915050565b610e9383838360206040519081016040528060008152506113c3565b505050565b6000806001600084815260200190815260200160002060009054906101000a900473ffffffffffffffffffffffffffffffffffffffff169050600073ffffffffffffffffffffffffffffffffffffffff168173ffffffffffffffffffffffffffffffffffffffff161415915050919050565b6000610f14610cc1565b82101515610f2157600080fd5b600982815481101515610f3057fe5b90600052602060002001549050919050565b6000806001600084815260200190815260200160002060009054906101000a900473ffffffffffffffffffffffffffffffffffffffff169050600073ffffffffffffffffffffffffffffffffffffffff168173ffffffffffffffffffffffffffffffffffffffff1614151515610fb757600080fd5b80915050919050565b60008073ffffffffffffffffffffffffffffffffffffffff168273ffffffffffffffffffffffffffffffffffffffff1614151515610ffd57600080fd5b600360008373ffffffffffffffffffffffffffffffffffffffff1673ffffffffffffffffffffffffffffffffffffffff168152602001908152602001600020549050919050565b600c60009054906101000a900473ffffffffffffffffffffffffffffffffffffffff1673ffffffffffffffffffffffffffffffffffffffff163373ffffffffffffffffffffffffffffffffffffffff161415156110a057600080fd5b600c60009054906101000a900473ffffffffffffffffffffffffffffffffffffffff1673ffffffffffffffffffffffffffffffffffffffff167ff8df31144d9c2f0f6b59d69b8b98abd5459d07f2742c4df920b25aae33c6482060405160405180910390a26000600c60006101000a81548173ffffffffffffffffffffffffffffffffffffffff021916908373ffffffffffffffffffffffffffffffffffffffff160217905550565b6000600c60009054906101000a900473ffffffffffffffffffffffffffffffffffffffff1673ffffffffffffffffffffffffffffffffffffffff163373ffffffffffffffffffffffffffffffffffffffff161415156111a757600080fd5b6111af611a06565b90506111bb8282611a28565b5050565b600c60009054906101000a900473ffffffffffffffffffffffffffffffffffffffff1681565b606060068054600181600116156101000203166002900480601f01602080910402602001604051908101604052809291908181526020018280546001816001161561010002031660029004801561127d5780601f106112525761010080835404028352916020019161127d565b820191906000526020600020905b81548152906001019060200180831161126057829003601f168201915b5050505050905090565b3373ffffffffffffffffffffffffffffffffffffffff168273ffffffffffffffffffffffffffffffffffffffff16141515156112c257600080fd5b80600460003373ffffffffffffffffffffffffffffffffffffffff1673ffffffffffffffffffffffffffffffffffffffff16815260200190815260200160002060008473ffffffffffffffffffffffffffffffffffffffff1673ffffffffffffffffffffffffffffffffffffffff16815260200190815260200160002060006101000a81548160ff0219169083151502179055508173ffffffffffffffffffffffffffffffffffffffff163373ffffffffffffffffffffffffffffffffffffffff167f17307eab39ab6107e8899845ad3d59bd9653f200f220920489ca2b5937696c3183604051808215151515815260200191505060405180910390a35050565b6113ce848484610cf5565b6113da84848484611a7f565b15156113e557600080fd5b50505050565b60606114066113f861140d565b61140184611ca1565b611df8565b9050919050565b60606020604051908101604052806000815250905090565b600080600d60009054906101000a900473ffffffffffffffffffffffffffffffffffffffff1690508273ffffffffffffffffffffffffffffffffffffffff168173ffffffffffffffffffffffffffffffffffffffff1663c4552791866040518263ffffffff167c0100000000000000000000000000000000000000000000000000000000028152600401808273ffffffffffffffffffffffffffffffffffffffff1673ffffffffffffffffffffffffffffffffffffffff168152602001915050602060405180830381600087803b1580156114ff57600080fd5b505af1158015611513573d6000803e3d6000fd5b505050506040513d602081101561152957600080fd5b810190808051906020019092919050505073ffffffffffffffffffffffffffffffffffffffff16141561155f576001915061156c565b6115698484611e3f565b91505b5092915050565b600c60009054906101000a900473ffffffffffffffffffffffffffffffffffffffff1673ffffffffffffffffffffffffffffffffffffffff163373ffffffffffffffffffffffffffffffffffffffff161415156115cf57600080fd5b6115d881611ed3565b50565b6000806115e783610f42565b90508073ffffffffffffffffffffffffffffffffffffffff168473ffffffffffffffffffffffffffffffffffffffff16148061165657508373ffffffffffffffffffffffffffffffffffffffff1661163e84610b3f565b73ffffffffffffffffffffffffffffffffffffffff16145b8061166757506116668185611425565b5b91505092915050565b8173ffffffffffffffffffffffffffffffffffffffff1661169082610f42565b73ffffffffffffffffffffffffffffffffffffffff161415156116b257600080fd5b600073ffffffffffffffffffffffffffffffffffffffff166002600083815260200190815260200160002060009054906101000a900473ffffffffffffffffffffffffffffffffffffffff1673ffffffffffffffffffffffffffffffffffffffff1614151561176f5760006002600083815260200190815260200160002060006101000a81548173ffffffffffffffffffffffffffffffffffffffff021916908373ffffffffffffffffffffffffffffffffffffffff1602179055505b5050565b60008060006117828585611fcf565b600860008581526020019081526020016000205492506117ee6001600760008873ffffffffffffffffffffffffffffffffffffffff1673ffffffffffffffffffffffffffffffffffffffff168152602001908152602001600020805490506120fe90919063ffffffff16565b9150600760008673ffffffffffffffffffffffffffffffffffffffff1673ffffffffffffffffffffffffffffffffffffffff1681526020019081526020016000208281548110151561183c57fe5b9060005260206000200154905080600760008773ffffffffffffffffffffffffffffffffffffffff1673ffffffffffffffffffffffffffffffffffffffff1681526020019081526020016000208481548110151561189657fe5b9060005260206000200181905550600760008673ffffffffffffffffffffffffffffffffffffffff1673ffffffffffffffffffffffffffffffffffffffff1681526020019081526020016000208054809190600190036118f6919061275b565b50600060086000868152602001908152602001600020819055508260086000838152602001908152602001600020819055505050505050565b600061193b8383612117565b600760008473ffffffffffffffffffffffffffffffffffffffff1673ffffffffffffffffffffffffffffffffffffffff168152602001908152602001600020805490509050600760008473ffffffffffffffffffffffffffffffffffffffff1673ffffffffffffffffffffffffffffffffffffffff168152602001908152602001600020829080600181540180825580915050906001820390600052602060002001600090919290919091505550806008600084815260200190815260200160002081905550505050565b6000611a236001611a15610cc1565b61227190919063ffffffff16565b905090565b611a32828261228d565b600980549050600a60008381526020019081526020016000208190555060098190806001815401808255809150509060018203906000526020600020016000909192909190915055505050565b600080611aa18573ffffffffffffffffffffffffffffffffffffffff16612333565b1515611ab05760019150611c98565b8473ffffffffffffffffffffffffffffffffffffffff1663150b7a02338887876040518563ffffffff167c0100000000000000000000000000000000000000000000000000000000028152600401808573ffffffffffffffffffffffffffffffffffffffff1673ffffffffffffffffffffffffffffffffffffffff1681526020018473ffffffffffffffffffffffffffffffffffffffff1673ffffffffffffffffffffffffffffffffffffffff16815260200183815260200180602001828103825283818151815260200191508051906020019080838360005b83811015611ba5578082015181840152602081019050611b8a565b50505050905090810190601f168015611bd25780820380516001836020036101000a031916815260200191505b5095505050505050602060405180830381600087803b158015611bf457600080fd5b505af1158015611c08573d6000803e3d6000fd5b505050506040513d6020811015611c1e57600080fd5b8101908080519060200190929190505050905063150b7a027c0100000000000000000000000000000000000000000000000000000000027bffffffffffffffffffffffffffffffffffffffffffffffffffffffff1916817bffffffffffffffffffffffffffffffffffffffffffffffffffffffff19161491505b50949350505050565b60606000806060600080861415611cef576040805190810160405280600181526020017f30000000000000000000000000000000000000000000000000000000000000008152509450611def565b8593505b600084141515611d19578280600101935050600a84811515611d1157fe5b049350611cf3565b826040519080825280601f01601f191660200182016040528015611d4c5781602001602082028038833980820191505090505b5091506001830390505b600086141515611deb57600a86811515611d6c57fe5b066030017f010000000000000000000000000000000000000000000000000000000000000002828280600190039350815181101515611da757fe5b9060200101907effffffffffffffffffffffffffffffffffffffffffffffffffffffffffffff1916908160001a905350600a86811515611de357fe5b049550611d56565b8194505b50505050919050565b6060611e378383602060405190810160405280600081525060206040519081016040528060008152506020604051908101604052806000815250612346565b905092915050565b6000600460008473ffffffffffffffffffffffffffffffffffffffff1673ffffffffffffffffffffffffffffffffffffffff16815260200190815260200160002060008373ffffffffffffffffffffffffffffffffffffffff1673ffffffffffffffffffffffffffffffffffffffff16815260200190815260200160002060009054906101000a900460ff16905092915050565b600073ffffffffffffffffffffffffffffffffffffffff168173ffffffffffffffffffffffffffffffffffffffff1614151515611f0f57600080fd5b8073ffffffffffffffffffffffffffffffffffffffff16600c60009054906101000a900473ffffffffffffffffffffffffffffffffffffffff1673ffffffffffffffffffffffffffffffffffffffff167f8be0079c531659141344cd1fd0a4f28419497f9722a3daafe3b4186f6b6457e060405160405180910390a380600c60006101000a81548173ffffffffffffffffffffffffffffffffffffffff021916908373ffffffffffffffffffffffffffffffffffffffff16021790555050565b8173ffffffffffffffffffffffffffffffffffffffff16611fef82610f42565b73ffffffffffffffffffffffffffffffffffffffff1614151561201157600080fd5b6120646001600360008573ffffffffffffffffffffffffffffffffffffffff1673ffffffffffffffffffffffffffffffffffffffff168152602001908152602001600020546120fe90919063ffffffff16565b600360008473ffffffffffffffffffffffffffffffffffffffff1673ffffffffffffffffffffffffffffffffffffffff1681526020019081526020016000208190555060006001600083815260200190815260200160002060006101000a81548173ffffffffffffffffffffffffffffffffffffffff021916908373ffffffffffffffffffffffffffffffffffffffff1602179055505050565b600082821115151561210c57fe5b818303905092915050565b600073ffffffffffffffffffffffffffffffffffffffff166001600083815260200190815260200160002060009054906101000a900473ffffffffffffffffffffffffffffffffffffffff1673ffffffffffffffffffffffffffffffffffffffff1614151561218557600080fd5b816001600083815260200190815260200160002060006101000a81548173ffffffffffffffffffffffffffffffffffffffff021916908373ffffffffffffffffffffffffffffffffffffffff16021790555061222a6001600360008573ffffffffffffffffffffffffffffffffffffffff1673ffffffffffffffffffffffffffffffffffffffff1681526020019081526020016000205461227190919063ffffffff16565b600360008473ffffffffffffffffffffffffffffffffffffffff1673ffffffffffffffffffffffffffffffffffffffff168152602001908152602001600020819055505050565b6000818301905082811015151561228457fe5b80905092915050565b600073ffffffffffffffffffffffffffffffffffffffff168273ffffffffffffffffffffffffffffffffffffffff16141515156122c957600080fd5b6122d3828261192f565b808273ffffffffffffffffffffffffffffffffffffffff16600073ffffffffffffffffffffffffffffffffffffffff167fddf252ad1be2c89b69c2b068fc378daa952ba7f163c4a11628f55a4df523b3ef60405160405180910390a45050565b600080823b905060008111915050919050565b6060806060806060806060806000808e98508d97508c96508b95508a94508451865188518a518c51010101016040519080825280601f01601f1916602001820160405280156123a45781602001602082028038833980820191505090505b50935083925060009150600090505b88518110156124665788818151811015156123ca57fe5b9060200101517f010000000000000000000000000000000000000000000000000000000000000090047f010000000000000000000000000000000000000000000000000000000000000002838380600101945081518110151561242957fe5b9060200101907effffffffffffffffffffffffffffffffffffffffffffffffffffffffffffff1916908160001a90535080806001019150506123b3565b600090505b875181101561251e57878181518110151561248257fe5b9060200101517f010000000000000000000000000000000000000000000000000000000000000090047f01000000000000000000000000000000000000000000000000000000000000000283838060010194508151811015156124e157fe5b9060200101907effffffffffffffffffffffffffffffffffffffffffffffffffffffffffffff1916908160001a905350808060010191505061246b565b600090505b86518110156125d657868181518110151561253a57fe5b9060200101517f010000000000000000000000000000000000000000000000000000000000000090047f010000000000000000000000000000000000000000000000000000000000000002838380600101945081518110151561259957fe5b9060200101907effffffffffffffffffffffffffffffffffffffffffffffffffffffffffffff1916908160001a9053508080600101915050612523565b600090505b855181101561268e5785818151811015156125f257fe5b9060200101517f010000000000000000000000000000000000000000000000000000000000000090047f010000000000000000000000000000000000000000000000000000000000000002838380600101945081518110151561265157fe5b9060200101907effffffffffffffffffffffffffffffffffffffffffffffffffffffffffffff1916908160001a90535080806001019150506125db565b600090505b84518110156127465784818151811015156126aa57fe5b9060200101517f010000000000000000000000000000000000000000000000000000000000000090047f010000000000000000000000000000000000000000000000000000000000000002838380600101945081518110151561270957fe5b9060200101907effffffffffffffffffffffffffffffffffffffffffffffffffffffffffffff1916908160001a9053508080600101915050612693565b82995050505050505050505095945050505050565b815481835581811115612782578183600052602060002091820191016127819190612787565b5b505050565b6127a991905b808211156127a557600081600090555060010161278d565b5090565b905600a165627a7a72305820de1885a97ce03021a60517eee1e26838cbc1978a3d13c2ab9059653c3eeae758002960806040523480156200001157600080fd5b5060405160208062002bea833981018060405281019080805190602001909291905050506040805190810160405280600a81526020017f436f6c6f72546f6b656e000000000000000000000000000000000000000000008152506040805190810160405280600481526020017f434c525400000000000000000000000000000000000000000000000000000000815250828282620000e16301ffc9a77c01000000000000000000000000000000000000000000000000000000000262000295640100000000026401000000009004565b6200011e6380ac58cd7c01000000000000000000000000000000000000000000000000000000000262000295640100000000026401000000009004565b6200015b634f558e797c01000000000000000000000000000000000000000000000000000000000262000295640100000000026401000000009004565b81600590805190602001906200017392919062000353565b5080600690805190602001906200018c92919062000353565b50620001ca63780e9d637c01000000000000000000000000000000000000000000000000000000000262000295640100000000026401000000009004565b62000207635b5e139f7c01000000000000000000000000000000000000000000000000000000000262000295640100000000026401000000009004565b505033600c60006101000a81548173ffffffffffffffffffffffffffffffffffffffff021916908373ffffffffffffffffffffffffffffffffffffffff16021790555080600d60006101000a81548173ffffffffffffffffffffffffffffffffffffffff021916908373ffffffffffffffffffffffffffffffffffffffff1602179055505050505062000402565b63ffffffff7c010000000000000000000000000000000000000000000000000000000002817bffffffffffffffffffffffffffffffffffffffffffffffffffffffff191614151515620002e757600080fd5b6001600080837bffffffffffffffffffffffffffffffffffffffffffffffffffffffff19167bffffffffffffffffffffffffffffffffffffffffffffffffffffffff1916815260200190815260200160002060006101000a81548160ff02191690831515021790555050565b828054600181600116156101000203166002900490600052602060002090601f016020900481019282601f106200039657805160ff1916838001178555620003c7565b82800160010185558215620003c7579182015b82811115620003c6578251825591602001919060010190620003a9565b5b509050620003d69190620003da565b5090565b620003ff91905b80821115620003fb576000816000905550600101620003e1565b5090565b90565b6127d880620004126000396000f300608060405260043610610133576000357c0100000000000000000000000000000000000000000000000000000000900463ffffffff16806301ffc9a71461013857806306fdde031461019c578063081812fc1461022c578063095ea7b31461029957806318160ddd146102e657806319fa8f501461031157806323b872dd1461037a5780632f745c59146103e757806342842e0e146104485780634f558e79146104b55780634f6ccce7146104fa5780636352211e1461053b57806370a08231146105a8578063715018a6146105ff578063755edd17146106165780638da5cb5b1461065957806395d89b41146106b0578063a22cb46514610740578063b88d4fde1461078f578063c87b56dd14610842578063d547cfb7146108e8578063e985e9c514610978578063f2fde38b146109f3575b600080fd5b34801561014457600080fd5b5061018260048036038101908080357bffffffffffffffffffffffffffffffffffffffffffffffffffffffff19169060200190929190505050610a36565b604051808215151515815260200191505060405180910390f35b3480156101a857600080fd5b506101b1610a9d565b6040518080602001828103825283818151815260200191508051906020019080838360005b838110156101f15780820151818401526020810190506101d6565b50505050905090810190601f16801561021e5780820380516001836020036101000a031916815260200191505b509250505060405180910390f35b34801561023857600080fd5b5061025760048036038101908080359060200190929190505050610b3f565b604051808273ffffffffffffffffffffffffffffffffffffffff1673ffffffffffffffffffffffffffffffffffffffff16815260200191505060405180910390f35b3480156102a557600080fd5b506102e4600480360381019080803573ffffffffffffffffffffffffffffffffffffffff16906020019092919080359060200190929190505050610b7c565b005b3480156102f257600080fd5b506102fb610cc1565b6040518082815260200191505060405180910390f35b34801561031d57600080fd5b50610326610cce565b60405180827bffffffffffffffffffffffffffffffffffffffffffffffffffffffff19167bffffffffffffffffffffffffffffffffffffffffffffffffffffffff1916815260200191505060405180910390f35b34801561038657600080fd5b506103e5600480360381019080803573ffffffffffffffffffffffffffffffffffffffff169060200190929190803573ffffffffffffffffffffffffffffffffffffffff16906020019092919080359060200190929190505050610cf5565b005b3480156103f357600080fd5b50610432600480360381019080803573ffffffffffffffffffffffffffffffffffffffff16906020019092919080359060200190929190505050610e00565b6040518082815260200191505060405180910390f35b34801561045457600080fd5b506104b3600480360381019080803573ffffffffffffffffffffffffffffffffffffffff169060200190929190803573ffffffffffffffffffffffffffffffffffffffff16906020019092919080359060200190929190505050610e77565b005b3480156104c157600080fd5b506104e060048036038101908080359060200190929190505050610e98565b604051808215151515815260200191505060405180910390f35b34801561050657600080fd5b5061052560048036038101908080359060200190929190505050610f0a565b6040518082815260200191505060405180910390f35b34801561054757600080fd5b5061056660048036038101908080359060200190929190505050610f42565b604051808273ffffffffffffffffffffffffffffffffffffffff1673ffffffffffffffffffffffffffffffffffffffff16815260200191505060405180910390f35b3480156105b457600080fd5b506105e9600480360381019080803573ffffffffffffffffffffffffffffffffffffffff169060200190929190505050610fc0565b6040518082815260200191505060405180910390f35b34801561060b57600080fd5b50610614611044565b005b34801561062257600080fd5b50610657600480360381019080803573ffffffffffffffffffffffffffffffffffffffff169060200190929190505050611149565b005b34801561066557600080fd5b5061066e6111bf565b604051808273ffffffffffffffffffffffffffffffffffffffff1673ffffffffffffffffffffffffffffffffffffffff16815260200191505060405180910390f35b3480156106bc57600080fd5b506106c56111e5565b6040518080602001828103825283818151815260200191508051906020019080838360005b838110156107055780820151818401526020810190506106ea565b50505050905090810190601f1680156107325780820380516001836020036101000a031916815260200191505b509250505060405180910390f35b34801561074c57600080fd5b5061078d600480360381019080803573ffffffffffffffffffffffffffffffffffffffff169060200190929190803515159060200190929190505050611287565b005b34801561079b57600080fd5b50610840600480360381019080803573ffffffffffffffffffffffffffffffffffffffff169060200190929190803573ffffffffffffffffffffffffffffffffffffffff16906020019092919080359060200190929190803590602001908201803590602001908080601f01602080910402602001604051908101604052809392919081815260200183838082843782019150505050505091929192905050506113c3565b005b34801561084e57600080fd5b5061086d600480360381019080803590602001909291905050506113eb565b6040518080602001828103825283818151815260200191508051906020019080838360005b838110156108ad578082015181840152602081019050610892565b50505050905090810190601f1680156108da5780820380516001836020036101000a031916815260200191505b509250505060405180910390f35b3480156108f457600080fd5b506108fd61140d565b6040518080602001828103825283818151815260200191508051906020019080838360005b8381101561093d578082015181840152602081019050610922565b50505050905090810190601f16801561096a5780820380516001836020036101000a031916815260200191505b509250505060405180910390f35b34801561098457600080fd5b506109d9600480360381019080803573ffffffffffffffffffffffffffffffffffffffff169060200190929190803573ffffffffffffffffffffffffffffffffffffffff169060200190929190505050611425565b604051808215151515815260200191505060405180910390f35b3480156109ff57600080fd5b50610a34600480360381019080803573ffffffffffffffffffffffffffffffffffffffff169060200190929190505050611573565b005b6000806000837bffffffffffffffffffffffffffffffffffffffffffffffffffffffff19167bffffffffffffffffffffffffffffffffffffffffffffffffffffffff1916815260200190815260200160002060009054906101000a900460ff169050919050565b606060058054600181600116156101000203166002900480601f016020809104026020016040519081016040528092919081815260200182805460018160011615610100020316600290048015610b355780601f10610b0a57610100808354040283529160200191610b35565b820191906000526020600020905b815481529060010190602001808311610b1857829003601f168201915b5050505050905090565b60006002600083815260200190815260200160002060009054906101000a900473ffffffffffffffffffffffffffffffffffffffff169050919050565b6000610b8782610f42565b90508073ffffffffffffffffffffffffffffffffffffffff168373ffffffffffffffffffffffffffffffffffffffff1614151515610bc457600080fd5b8073ffffffffffffffffffffffffffffffffffffffff163373ffffffffffffffffffffffffffffffffffffffff161480610c045750610c038133611425565b5b1515610c0f57600080fd5b826002600084815260200190815260200160002060006101000a81548173ffffffffffffffffffffffffffffffffffffffff021916908373ffffffffffffffffffffffffffffffffffffffff160217905550818373ffffffffffffffffffffffffffffffffffffffff168273ffffffffffffffffffffffffffffffffffffffff167f8c5be1e5ebec7d5bd14f71427d1e84f3dd0314c0f7b2291e5b200ac8c7c3b92560405160405180910390a4505050565b6000600980549050905090565b6301ffc9a77c01000000000000000000000000000000000000000000000000000000000281565b610cff33826115db565b1515610d0a57600080fd5b600073ffffffffffffffffffffffffffffffffffffffff168373ffffffffffffffffffffffffffffffffffffffff1614151515610d4657600080fd5b600073ffffffffffffffffffffffffffffffffffffffff168273ffffffffffffffffffffffffffffffffffffffff1614151515610d8257600080fd5b610d8c8382611670565b610d968382611773565b610da0828261192f565b808273ffffffffffffffffffffffffffffffffffffffff168473ffffffffffffffffffffffffffffffffffffffff167fddf252ad1be2c89b69c2b068fc378daa952ba7f163c4a11628f55a4df523b3ef60405160405180910390a4505050565b6000610e0b83610fc0565b82101515610e1857600080fd5b600760008473ffffffffffffffffffffffffffffffffffffffff1673ffffffffffffffffffffffffffffffffffffffff16815260200190815260200160002082815481101515610e6457fe5b9060005260206000200154905092915050565b610e9383838360206040519081016040528060008152506113c3565b505050565b6000806001600084815260200190815260200160002060009054906101000a900473ffffffffffffffffffffffffffffffffffffffff169050600073ffffffffffffffffffffffffffffffffffffffff168173ffffffffffffffffffffffffffffffffffffffff161415915050919050565b6000610f14610cc1565b82101515610f2157600080fd5b600982815481101515610f3057fe5b90600052602060002001549050919050565b6000806001600084815260200190815260200160002060009054906101000a900473ffffffffffffffffffffffffffffffffffffffff169050600073ffffffffffffffffffffffffffffffffffffffff168173ffffffffffffffffffffffffffffffffffffffff1614151515610fb757600080fd5b80915050919050565b60008073ffffffffffffffffffffffffffffffffffffffff168273ffffffffffffffffffffffffffffffffffffffff1614151515610ffd57600080fd5b600360008373ffffffffffffffffffffffffffffffffffffffff1673ffffffffffffffffffffffffffffffffffffffff168152602001908152602001600020549050919050565b600c60009054906101000a900473ffffffffffffffffffffffffffffffffffffffff1673ffffffffffffffffffffffffffffffffffffffff163373ffffffffffffffffffffffffffffffffffffffff161415156110a057600080fd5b600c60009054906101000a900473ffffffffffffffffffffffffffffffffffffffff1673ffffffffffffffffffffffffffffffffffffffff167ff8df31144d9c2f0f6b59d69b8b98abd5459d07f2742c4df920b25aae33c6482060405160405180910390a26000600c60006101000a81548173ffffffffffffffffffffffffffffffffffffffff021916908373ffffffffffffffffffffffffffffffffffffffff160217905550565b6000600c60009054906101000a900473ffffffffffffffffffffffffffffffffffffffff1673ffffffffffffffffffffffffffffffffffffffff163373ffffffffffffffffffffffffffffffffffffffff161415156111a757600080fd5b6111af611a06565b90506111bb8282611a28565b5050565b600c60009054906101000a900473ffffffffffffffffffffffffffffffffffffffff1681565b606060068054600181600116156101000203166002900480601f01602080910402602001604051908101604052809291908181526020018280546001816001161561010002031660029004801561127d5780601f106112525761010080835404028352916020019161127d565b820191906000526020600020905b81548152906001019060200180831161126057829003601f168201915b5050505050905090565b3373ffffffffffffffffffffffffffffffffffffffff168273ffffffffffffffffffffffffffffffffffffffff16141515156112c257600080fd5b80600460003373ffffffffffffffffffffffffffffffffffffffff1673ffffffffffffffffffffffffffffffffffffffff16815260200190815260200160002060008473ffffffffffffffffffffffffffffffffffffffff1673ffffffffffffffffffffffffffffffffffffffff16815260200190815260200160002060006101000a81548160ff0219169083151502179055508173ffffffffffffffffffffffffffffffffffffffff163373ffffffffffffffffffffffffffffffffffffffff167f17307eab39ab6107e8899845ad3d59bd9653f200f220920489ca2b5937696c3183604051808215151515815260200191505060405180910390a35050565b6113ce848484610cf5565b6113da84848484611a7f565b15156113e557600080fd5b50505050565b60606114066113f861140d565b61140184611ca1565b611df8565b9050919050565b60606020604051908101604052806000815250905090565b600080600d60009054906101000a900473ffffffffffffffffffffffffffffffffffffffff1690508273ffffffffffffffffffffffffffffffffffffffff168173ffffffffffffffffffffffffffffffffffffffff1663c4552791866040518263ffffffff167c0100000000000000000000000000000000000000000000000000000000028152600401808273ffffffffffffffffffffffffffffffffffffffff1673ffffffffffffffffffffffffffffffffffffffff168152602001915050602060405180830381600087803b1580156114ff57600080fd5b505af1158015611513573d6000803e3d6000fd5b505050506040513d602081101561152957600080fd5b810190808051906020019092919050505073ffffffffffffffffffffffffffffffffffffffff16141561155f576001915061156c565b6115698484611e3f565b91505b5092915050565b600c60009054906101000a900473ffffffffffffffffffffffffffffffffffffffff1673ffffffffffffffffffffffffffffffffffffffff163373ffffffffffffffffffffffffffffffffffffffff161415156115cf57600080fd5b6115d881611ed3565b50565b6000806115e783610f42565b90508073ffffffffffffffffffffffffffffffffffffffff168473ffffffffffffffffffffffffffffffffffffffff16148061165657508373ffffffffffffffffffffffffffffffffffffffff1661163e84610b3f565b73ffffffffffffffffffffffffffffffffffffffff16145b8061166757506116668185611425565b5b91505092915050565b8173ffffffffffffffffffffffffffffffffffffffff1661169082610f42565b73ffffffffffffffffffffffffffffffffffffffff161415156116b257600080fd5b600073ffffffffffffffffffffffffffffffffffffffff166002600083815260200190815260200160002060009054906101000a900473ffffffffffffffffffffffffffffffffffffffff1673ffffffffffffffffffffffffffffffffffffffff1614151561176f5760006002600083815260200190815260200160002060006101000a81548173ffffffffffffffffffffffffffffffffffffffff021916908373ffffffffffffffffffffffffffffffffffffffff1602179055505b5050565b60008060006117828585611fcf565b600860008581526020019081526020016000205492506117ee6001600760008873ffffffffffffffffffffffffffffffffffffffff1673ffffffffffffffffffffffffffffffffffffffff168152602001908152602001600020805490506120fe90919063ffffffff16565b9150600760008673ffffffffffffffffffffffffffffffffffffffff1673ffffffffffffffffffffffffffffffffffffffff1681526020019081526020016000208281548110151561183c57fe5b9060005260206000200154905080600760008773ffffffffffffffffffffffffffffffffffffffff1673ffffffffffffffffffffffffffffffffffffffff1681526020019081526020016000208481548110151561189657fe5b9060005260206000200181905550600760008673ffffffffffffffffffffffffffffffffffffffff1673ffffffffffffffffffffffffffffffffffffffff1681526020019081526020016000208054809190600190036118f6919061275b565b50600060086000868152602001908152602001600020819055508260086000838152602001908152602001600020819055505050505050565b600061193b8383612117565b600760008473ffffffffffffffffffffffffffffffffffffffff1673ffffffffffffffffffffffffffffffffffffffff168152602001908152602001600020805490509050600760008473ffffffffffffffffffffffffffffffffffffffff1673ffffffffffffffffffffffffffffffffffffffff168152602001908152602001600020829080600181540180825580915050906001820390600052602060002001600090919290919091505550806008600084815260200190815260200160002081905550505050565b6000611a236001611a15610cc1565b61227190919063ffffffff16565b905090565b611a32828261228d565b600980549050600a60008381526020019081526020016000208190555060098190806001815401808255809150509060018203906000526020600020016000909192909190915055505050565b600080611aa18573ffffffffffffffffffffffffffffffffffffffff16612333565b1515611ab05760019150611c98565b8473ffffffffffffffffffffffffffffffffffffffff1663150b7a02338887876040518563ffffffff167c0100000000000000000000000000000000000000000000000000000000028152600401808573ffffffffffffffffffffffffffffffffffffffff1673ffffffffffffffffffffffffffffffffffffffff1681526020018473ffffffffffffffffffffffffffffffffffffffff1673ffffffffffffffffffffffffffffffffffffffff16815260200183815260200180602001828103825283818151815260200191508051906020019080838360005b83811015611ba5578082015181840152602081019050611b8a565b50505050905090810190601f168015611bd25780820380516001836020036101000a031916815260200191505b5095505050505050602060405180830381600087803b158015611bf457600080fd5b505af1158015611c08573d6000803e3d6000fd5b505050506040513d6020811015611c1e57600080fd5b8101908080519060200190929190505050905063150b7a027c0100000000000000000000000000000000000000000000000000000000027bffffffffffffffffffffffffffffffffffffffffffffffffffffffff1916817bffffffffffffffffffffffffffffffffffffffffffffffffffffffff19161491505b50949350505050565b60606000806060600080861415611cef576040805190810160405280600181526020017f30000000000000000000000000000000000000000000000000000000000000008152509450611def565b8593505b600084141515611d19578280600101935050600a84811515611d1157fe5b049350611cf3565b826040519080825280601f01601f191660200182016040528015611d4c5781602001602082028038833980820191505090505b5091506001830390505b600086141515611deb57600a86811515611d6c57fe5b066030017f010000000000000000000000000000000000000000000000000000000000000002828280600190039350815181101515611da757fe5b9060200101907effffffffffffffffffffffffffffffffffffffffffffffffffffffffffffff1916908160001a905350600a86811515611de357fe5b049550611d56565b8194505b50505050919050565b6060611e378383602060405190810160405280600081525060206040519081016040528060008152506020604051908101604052806000815250612346565b905092915050565b6000600460008473ffffffffffffffffffffffffffffffffffffffff1673ffffffffffffffffffffffffffffffffffffffff16815260200190815260200160002060008373ffffffffffffffffffffffffffffffffffffffff1673ffffffffffffffffffffffffffffffffffffffff16815260200190815260200160002060009054906101000a900460ff16905092915050565b600073ffffffffffffffffffffffffffffffffffffffff168173ffffffffffffffffffffffffffffffffffffffff1614151515611f0f57600080fd5b8073ffffffffffffffffffffffffffffffffffffffff16600c60009054906101000a900473ffffffffffffffffffffffffffffffffffffffff1673ffffffffffffffffffffffffffffffffffffffff167f8be0079c531659141344cd1fd0a4f28419497f9722a3daafe3b4186f6b6457e060405160405180910390a380600c60006101000a81548173ffffffffffffffffffffffffffffffffffffffff021916908373ffffffffffffffffffffffffffffffffffffffff16021790555050565b8173ffffffffffffffffffffffffffffffffffffffff16611fef82610f42565b73ffffffffffffffffffffffffffffffffffffffff1614151561201157600080fd5b6120646001600360008573ffffffffffffffffffffffffffffffffffffffff1673ffffffffffffffffffffffffffffffffffffffff168152602001908152602001600020546120fe90919063ffffffff16565b600360008473ffffffffffffffffffffffffffffffffffffffff1673ffffffffffffffffffffffffffffffffffffffff1681526020019081526020016000208190555060006001600083815260200190815260200160002060006101000a81548173ffffffffffffffffffffffffffffffffffffffff021916908373ffffffffffffffffffffffffffffffffffffffff1602179055505050565b600082821115151561210c57fe5b818303905092915050565b600073ffffffffffffffffffffffffffffffffffffffff166001600083815260200190815260200160002060009054906101000a900473ffffffffffffffffffffffffffffffffffffffff1673ffffffffffffffffffffffffffffffffffffffff1614151561218557600080fd5b816001600083815260200190815260200160002060006101000a81548173ffffffffffffffffffffffffffffffffffffffff021916908373ffffffffffffffffffffffffffffffffffffffff16021790555061222a6001600360008573ffffffffffffffffffffffffffffffffffffffff1673ffffffffffffffffffffffffffffffffffffffff1681526020019081526020016000205461227190919063ffffffff16565b600360008473ffffffffffffffffffffffffffffffffffffffff1673ffffffffffffffffffffffffffffffffffffffff168152602001908152602001600020819055505050565b6000818301905082811015151561228457fe5b80905092915050565b600073ffffffffffffffffffffffffffffffffffffffff168273ffffffffffffffffffffffffffffffffffffffff16141515156122c957600080fd5b6122d3828261192f565b808273ffffffffffffffffffffffffffffffffffffffff16600073ffffffffffffffffffffffffffffffffffffffff167fddf252ad1be2c89b69c2b068fc378daa952ba7f163c4a11628f55a4df523b3ef60405160405180910390a45050565b600080823b905060008111915050919050565b6060806060806060806060806000808e98508d97508c96508b95508a94508451865188518a518c51010101016040519080825280601f01601f1916602001820160405280156123a45781602001602082028038833980820191505090505b50935083925060009150600090505b88518110156124665788818151811015156123ca57fe5b9060200101517f010000000000000000000000000000000000000000000000000000000000000090047f010000000000000000000000000000000000000000000000000000000000000002838380600101945081518110151561242957fe5b9060200101907effffffffffffffffffffffffffffffffffffffffffffffffffffffffffffff1916908160001a90535080806001019150506123b3565b600090505b875181101561251e57878181518110151561248257fe5b9060200101517f010000000000000000000000000000000000000000000000000000000000000090047f01000000000000000000000000000000000000000000000000000000000000000283838060010194508151811015156124e157fe5b9060200101907effffffffffffffffffffffffffffffffffffffffffffffffffffffffffffff1916908160001a905350808060010191505061246b565b600090505b86518110156125d657868181518110151561253a57fe5b9060200101517f010000000000000000000000000000000000000000000000000000000000000090047f010000000000000000000000000000000000000000000000000000000000000002838380600101945081518110151561259957fe5b9060200101907effffffffffffffffffffffffffffffffffffffffffffffffffffffffffffff1916908160001a9053508080600101915050612523565b600090505b855181101561268e5785818151811015156125f257fe5b9060200101517f010000000000000000000000000000000000000000000000000000000000000090047f010000000000000000000000000000000000000000000000000000000000000002838380600101945081518110151561265157fe5b9060200101907effffffffffffffffffffffffffffffffffffffffffffffffffffffffffffff1916908160001a90535080806001019150506125db565b600090505b84518110156127465784818151811015156126aa57fe5b9060200101517f010000000000000000000000000000000000000000000000000000000000000090047f010000000000000000000000000000000000000000000000000000000000000002838380600101945081518110151561270957fe5b9060200101907effffffffffffffffffffffffffffffffffffffffffffffffffffffffffffff1916908160001a9053508080600101915050612693565b82995050505050505050505095945050505050565b815481835581811115612782578183600052602060002091820191016127819190612787565b5b505050565b6127a991905b808211156127a557600081600090555060010161278d565b5090565b905600a165627a7a7230582033aab2178d295694313565661fd0afd8249e747232489db067eea1eb950ba4bc0029",
  "source": "pragma solidity ^0.4.24;\n\nimport \"./PixelToken.sol\";\nimport \"./ColorToken.sol\";\n\ncontract LastPixel {\n    \n    address public masterAddr;\n    address public lastPainter;\n    PixelToken public pixelTokenAddr;\n    ColorToken public colorTokenAddr;\n\n    uint public colorTotalSupplied = 0;\n    uint public pixelTotalSupplied = 0;\n    mapping (uint256 => bool) public pixelSupplied;\n    mapping (uint256 => uint256) public colorTotalPainted;\n    mapping (uint256 => uint256) public colorGeneration;\n    mapping (uint256 => uint256) public colorPaintedAmt;\n    mapping (uint256 => uint256) public colorPaintPrice;\n    uint256[10001] public pixelColors;\n    \n    uint lastTimeStamp = 0;\n    \n    uint public timeBank = 0;\n    uint public colorBank = 0;\n    \n    constructor(address _proxyRegistryAddress) public {\n        \n        masterAddr = msg.sender;\n        lastPainter = msg.sender;\n        pixelTokenAddr = new PixelToken(_proxyRegistryAddress);\n        colorTokenAddr = new ColorToken(_proxyRegistryAddress);\n        \n    }\n    \n    function buyPixel() public payable {\n        require(pixelTotalSupplied < 10000);\n        require(msg.value >= 0.1 ether);\n        \n        pixelTokenAddr.mintTo(msg.sender);\n        pixelTotalSupplied += 1;\n        pixelSupplied[pixelTotalSupplied] = true;\n        \n        // send dividends\n        masterAddr.transfer(msg.value);\n    }\n    \n    function buyColor() public payable {\n        require(colorTotalSupplied < 8);\n        require(msg.value >= 100 ether);\n        \n        colorTokenAddr.mintTo(msg.sender);\n        colorTotalSupplied += 1;\n        colorPaintedAmt[colorTotalSupplied] = 0;\n        colorGeneration[colorTotalSupplied] = 1;\n        colorTotalPainted[colorTotalSupplied] = 0;\n        colorPaintPrice[colorTotalSupplied] = 0.01 ether;\n        \n        // send dividends\n        masterAddr.transfer(msg.value);\n    }\n    \n    function paint(uint x, uint y, uint colorId) public payable {\n        require(x >= 1 && x <= 100);\n        require(y >= 1 && y <= 100);\n        require(colorId >= 1 && colorId <= colorTotalSupplied);\n        \n        // update price\n        if (colorTotalPainted[colorId] > 10000 * colorGeneration[colorId]) {\n            colorGeneration[colorId] += 1;\n            colorPaintPrice[colorId] *= 105;\n            colorPaintPrice[colorId] /= 100;\n        }\n\n        require(msg.value == colorPaintPrice[colorId]);\n        \n        // get pixel id from x and y\n        uint pixelId = (x - 1) * 100 + y;\n        \n        address pixelOwner = masterAddr;\n        if (pixelSupplied[pixelId]) {\n            pixelOwner = pixelTokenAddr.ownerOf(pixelId);\n        }\n        address colorOwner = colorTokenAddr.ownerOf(colorId);\n        \n        // send dividends\n        pixelOwner.transfer(msg.value / 20);\n        colorOwner.transfer(msg.value / 20);\n        masterAddr.transfer(msg.value / 10);\n        \n        // update banks\n        timeBank += msg.value * 2 / 5;\n        colorBank += msg.value * 2 / 5;\n        \n        // update pixel colors\n        colorPaintedAmt[pixelColors[pixelId]] -= 1;\n        pixelColors[pixelId] = colorId;\n        colorPaintedAmt[colorId] += 1;\n        colorTotalPainted[colorId] += 1;\n        \n        // check color winner\n        if (colorPaintedAmt[colorId] == 10000) {\n            msg.sender.transfer(colorBank);\n            for (uint i = 1; i <= 10000; i++) {\n                pixelColors[i] = 0;\n            }\n            for (i = 1; i <= colorTotalSupplied; i++) {\n                colorPaintedAmt[i] = 0;\n            }\n            colorBank = 0;\n        }\n        \n        // check time winner\n        if (lastTimeStamp == 0) {\n            lastTimeStamp = now;\n        } else if (now - lastTimeStamp >= 900) {\n            lastPainter.transfer(timeBank);\n            timeBank = 0;\n        }\n        \n        lastTimeStamp = now;\n        lastPainter = msg.sender;\n    }\n    \n}\n",
  "sourcePath": "/Users/alexander/Desktop/blockchain/LastPixel/contracts/LastPixel.sol",
  "compiler": {
    "name": "solc",
    "version": "0.4.24+commit.e67f0147.Emscripten.clang"
  },
  "schemaVersion": "2.0.1",
  "updatedAt": "2018-11-08T16:24:21.815Z"
}