{
  "contractName": "LastPixel",
  "abi": [
    {
      "constant": true,
      "inputs": [
        {
          "name": "",
          "type": "uint256"
        }
      ],
      "name": "colorPaintedAmt",
      "outputs": [
        {
          "name": "",
          "type": "uint256"
        }
      ],
      "payable": false,
      "stateMutability": "view",
      "type": "function"
    },
    {
      "constant": true,
      "inputs": [
        {
          "name": "",
          "type": "uint256"
        }
      ],
      "name": "colorGeneration",
      "outputs": [
        {
          "name": "",
          "type": "uint256"
        }
      ],
      "payable": false,
      "stateMutability": "view",
      "type": "function"
    },
    {
      "constant": true,
      "inputs": [],
      "name": "lastPainter",
      "outputs": [
        {
          "name": "",
          "type": "address"
        }
      ],
      "payable": false,
      "stateMutability": "view",
      "type": "function"
    },
    {
      "constant": true,
      "inputs": [
        {
          "name": "",
          "type": "uint256"
        }
      ],
      "name": "pixelSupplied",
      "outputs": [
        {
          "name": "",
          "type": "bool"
        }
      ],
      "payable": false,
      "stateMutability": "view",
      "type": "function"
    },
    {
      "constant": true,
      "inputs": [],
      "name": "timeBank",
      "outputs": [
        {
          "name": "",
          "type": "uint256"
        }
      ],
      "payable": false,
      "stateMutability": "view",
      "type": "function"
    },
    {
      "constant": true,
      "inputs": [],
      "name": "pixelTotalSupplied",
      "outputs": [
        {
          "name": "",
          "type": "uint256"
        }
      ],
      "payable": false,
      "stateMutability": "view",
      "type": "function"
    },
    {
      "constant": true,
      "inputs": [
        {
          "name": "",
          "type": "uint256"
        }
      ],
      "name": "pixelColors",
      "outputs": [
        {
          "name": "",
          "type": "uint256"
        }
      ],
      "payable": false,
      "stateMutability": "view",
      "type": "function"
    },
    {
      "constant": true,
      "inputs": [],
      "name": "pixelTokenAddr",
      "outputs": [
        {
          "name": "",
          "type": "address"
        }
      ],
      "payable": false,
      "stateMutability": "view",
      "type": "function"
    },
    {
      "constant": true,
      "inputs": [],
      "name": "colorTotalSupplied",
      "outputs": [
        {
          "name": "",
          "type": "uint256"
        }
      ],
      "payable": false,
      "stateMutability": "view",
      "type": "function"
    },
    {
      "constant": true,
      "inputs": [],
      "name": "colorBank",
      "outputs": [
        {
          "name": "",
          "type": "uint256"
        }
      ],
      "payable": false,
      "stateMutability": "view",
      "type": "function"
    },
    {
      "constant": true,
      "inputs": [
        {
          "name": "",
          "type": "uint256"
        }
      ],
      "name": "colorPaintPrice",
      "outputs": [
        {
          "name": "",
          "type": "uint256"
        }
      ],
      "payable": false,
      "stateMutability": "view",
      "type": "function"
    },
    {
      "constant": true,
      "inputs": [
        {
          "name": "",
          "type": "uint256"
        }
      ],
      "name": "colorTotalPainted",
      "outputs": [
        {
          "name": "",
          "type": "uint256"
        }
      ],
      "payable": false,
      "stateMutability": "view",
      "type": "function"
    },
    {
      "constant": true,
      "inputs": [],
      "name": "masterAddr",
      "outputs": [
        {
          "name": "",
          "type": "address"
        }
      ],
      "payable": false,
      "stateMutability": "view",
      "type": "function"
    },
    {
      "constant": true,
      "inputs": [],
      "name": "colorTokenAddr",
      "outputs": [
        {
          "name": "",
          "type": "address"
        }
      ],
      "payable": false,
      "stateMutability": "view",
      "type": "function"
    },
    {
      "inputs": [
        {
          "name": "_pixelTokenAddr",
          "type": "address"
        },
        {
          "name": "_colorTokenAddr",
          "type": "address"
        }
      ],
      "payable": false,
      "stateMutability": "nonpayable",
      "type": "constructor"
    },
    {
      "constant": false,
      "inputs": [],
      "name": "buyPixel",
      "outputs": [],
      "payable": true,
      "stateMutability": "payable",
      "type": "function"
    },
    {
      "constant": false,
      "inputs": [],
      "name": "buyColor",
      "outputs": [],
      "payable": true,
      "stateMutability": "payable",
      "type": "function"
    },
    {
      "constant": false,
      "inputs": [
        {
          "name": "x",
          "type": "uint256"
        },
        {
          "name": "y",
          "type": "uint256"
        },
        {
          "name": "colorId",
          "type": "uint256"
        }
      ],
      "name": "paint",
      "outputs": [],
      "payable": true,
      "stateMutability": "payable",
      "type": "function"
    }
  ],
  "bytecode": "0x608060405260006004556000600555600061271c55600061271d55600061271e5534801561002c57600080fd5b506040516040806111be8339810180604052810190808051906020019092919080519060200190929190505050336000806101000a81548173ffffffffffffffffffffffffffffffffffffffff021916908373ffffffffffffffffffffffffffffffffffffffff16021790555033600160006101000a81548173ffffffffffffffffffffffffffffffffffffffff021916908373ffffffffffffffffffffffffffffffffffffffff16021790555081600260006101000a81548173ffffffffffffffffffffffffffffffffffffffff021916908373ffffffffffffffffffffffffffffffffffffffff16021790555080600360006101000a81548173ffffffffffffffffffffffffffffffffffffffff021916908373ffffffffffffffffffffffffffffffffffffffff16021790555061271060096000808152602001908152602001600020819055505050611037806101876000396000f3006080604052600436106100f1576000357c0100000000000000000000000000000000000000000000000000000000900463ffffffff168063096d318b146100f657806310f7d5a2146101375780632af8b5661461016b57806346cfce05146101ac57806348aa1cdc146102035780634fe4915c1461024857806377da57cd1461027357806396d12bc41461029e578063a67bd4ad146102df578063b0a46efa146102e9578063b44623bb14610340578063b5ae33241461036b578063c4574ac014610375578063d23e4219146103a0578063e1e6060f146103e1578063e5ef38a614610422578063fc6333ed14610479575b600080fd5b34801561010257600080fd5b50610121600480360381019080803590602001909291905050506104d0565b6040518082815260200191505060405180910390f35b6101696004803603810190808035906020019092919080359060200190929190803590602001909291905050506104e8565b005b34801561017757600080fd5b506101966004803603810190808035906020019092919050505061091d565b6040518082815260200191505060405180910390f35b3480156101b857600080fd5b506101c1610935565b604051808273ffffffffffffffffffffffffffffffffffffffff1673ffffffffffffffffffffffffffffffffffffffff16815260200191505060405180910390f35b34801561020f57600080fd5b5061022e6004803603810190808035906020019092919050505061095b565b604051808215151515815260200191505060405180910390f35b34801561025457600080fd5b5061025d61097b565b6040518082815260200191505060405180910390f35b34801561027f57600080fd5b50610288610982565b6040518082815260200191505060405180910390f35b3480156102aa57600080fd5b506102c960048036038101908080359060200190929190505050610988565b6040518082815260200191505060405180910390f35b6102e76109a3565b005b3480156102f557600080fd5b506102fe610b4a565b604051808273ffffffffffffffffffffffffffffffffffffffff1673ffffffffffffffffffffffffffffffffffffffff16815260200191505060405180910390f35b34801561034c57600080fd5b50610355610b70565b6040518082815260200191505060405180910390f35b610373610b76565b005b34801561038157600080fd5b5061038a610d61565b6040518082815260200191505060405180910390f35b3480156103ac57600080fd5b506103cb60048036038101908080359060200190929190505050610d68565b6040518082815260200191505060405180910390f35b3480156103ed57600080fd5b5061040c60048036038101908080359060200190929190505050610d80565b6040518082815260200191505060405180910390f35b34801561042e57600080fd5b50610437610d98565b604051808273ffffffffffffffffffffffffffffffffffffffff1673ffffffffffffffffffffffffffffffffffffffff16815260200191505060405180910390f35b34801561048557600080fd5b5061048e610dbd565b604051808273ffffffffffffffffffffffffffffffffffffffff1673ffffffffffffffffffffffffffffffffffffffff16815260200191505060405180910390f35b60096020528060005260406000206000915090505481565b6000806000600186101580156104ff575060648611155b151561050a57600080fd5b6001851015801561051c575060648511155b151561052757600080fd5b6001841015801561053a57506004548411155b151561054557600080fd5b61054e84610de3565b600a6000858152602001908152602001600020543414151561056f57600080fd5b84606460018803020192506000809054906101000a900473ffffffffffffffffffffffffffffffffffffffff1691506006600084815260200190815260200160002060009054906101000a900460ff161561069357600260009054906101000a900473ffffffffffffffffffffffffffffffffffffffff1673ffffffffffffffffffffffffffffffffffffffff16636352211e846040518263ffffffff167c010000000000000000000000000000000000000000000000000000000002815260040180828152602001915050602060405180830381600087803b15801561065557600080fd5b505af1158015610669573d6000803e3d6000fd5b505050506040513d602081101561067f57600080fd5b810190808051906020019092919050505091505b600360009054906101000a900473ffffffffffffffffffffffffffffffffffffffff1673ffffffffffffffffffffffffffffffffffffffff16636352211e856040518263ffffffff167c010000000000000000000000000000000000000000000000000000000002815260040180828152602001915050602060405180830381600087803b15801561072457600080fd5b505af1158015610738573d6000803e3d6000fd5b505050506040513d602081101561074e57600080fd5b810190808051906020019092919050505090508173ffffffffffffffffffffffffffffffffffffffff166108fc60143481151561078757fe5b049081150290604051600060405180830381858888f193505050501580156107b3573d6000803e3d6000fd5b508073ffffffffffffffffffffffffffffffffffffffff166108fc6014348115156107da57fe5b049081150290604051600060405180830381858888f19350505050158015610806573d6000803e3d6000fd5b506000809054906101000a900473ffffffffffffffffffffffffffffffffffffffff1673ffffffffffffffffffffffffffffffffffffffff166108fc600a3481151561084e57fe5b049081150290604051600060405180830381858888f1935050505015801561087a573d6000803e3d6000fd5b5060056002340281151561088a57fe5b0461271d600082825401925050819055506005600234028115156108aa57fe5b0461271e600082825401925050819055506108c484610e88565b6108cc610f69565b4261271c8190555033600160006101000a81548173ffffffffffffffffffffffffffffffffffffffff021916908373ffffffffffffffffffffffffffffffffffffffff160217905550505050505050565b60086020528060005260406000206000915090505481565b600160009054906101000a900473ffffffffffffffffffffffffffffffffffffffff1681565b60066020528060005260406000206000915054906101000a900460ff1681565b61271d5481565b60055481565b600b816127118110151561099857fe5b016000915090505481565b6127106005541015156109b557600080fd5b67016345785d8a000034101515156109cc57600080fd5b600260009054906101000a900473ffffffffffffffffffffffffffffffffffffffff1673ffffffffffffffffffffffffffffffffffffffff1663755edd17336040518263ffffffff167c0100000000000000000000000000000000000000000000000000000000028152600401808273ffffffffffffffffffffffffffffffffffffffff1673ffffffffffffffffffffffffffffffffffffffff168152602001915050600060405180830381600087803b158015610a8957600080fd5b505af1158015610a9d573d6000803e3d6000fd5b505050506001600560008282540192505081905550600160066000600554815260200190815260200160002060006101000a81548160ff0219169083151502179055506000809054906101000a900473ffffffffffffffffffffffffffffffffffffffff1673ffffffffffffffffffffffffffffffffffffffff166108fc349081150290604051600060405180830381858888f19350505050158015610b47573d6000803e3d6000fd5b50565b600260009054906101000a900473ffffffffffffffffffffffffffffffffffffffff1681565b60045481565b6008600454101515610b8757600080fd5b68056bc75e2d631000003410151515610b9f57600080fd5b600360009054906101000a900473ffffffffffffffffffffffffffffffffffffffff1673ffffffffffffffffffffffffffffffffffffffff1663755edd17336040518263ffffffff167c0100000000000000000000000000000000000000000000000000000000028152600401808273ffffffffffffffffffffffffffffffffffffffff1673ffffffffffffffffffffffffffffffffffffffff168152602001915050600060405180830381600087803b158015610c5c57600080fd5b505af1158015610c70573d6000803e3d6000fd5b505050506001600460008282540192505081905550600060096000600454815260200190815260200160002081905550600160086000600454815260200190815260200160002081905550600060076000600454815260200190815260200160002081905550662386f26fc10000600a60006004548152602001908152602001600020819055506000809054906101000a900473ffffffffffffffffffffffffffffffffffffffff1673ffffffffffffffffffffffffffffffffffffffff166108fc349081150290604051600060405180830381858888f19350505050158015610d5e573d6000803e3d6000fd5b50565b61271e5481565b600a6020528060005260406000206000915090505481565b60076020528060005260406000206000915090505481565b6000809054906101000a900473ffffffffffffffffffffffffffffffffffffffff1681565b600360009054906101000a900473ffffffffffffffffffffffffffffffffffffffff1681565b60086000828152602001908152602001600020546127100260076000838152602001908152602001600020541115610e8557600160086000838152602001908152602001600020600082825401925050819055506069600a6000838152602001908152602001600020600082825402925050819055506064600a60008381526020019081526020016000206000828254811515610e7c57fe5b04925050819055505b50565b600061271060096000848152602001908152602001600020541415610f65573373ffffffffffffffffffffffffffffffffffffffff166108fc61271e549081150290604051600060405180830381858888f19350505050158015610ef0573d6000803e3d6000fd5b50600190505b61271081111515610f25576000600b8261271181101515610f1357fe5b01819055508080600101915050610ef6565b600190505b60045481111515610f5b57600060096000838152602001908152602001600020819055508080600101915050610f2a565b600061271e819055505b5050565b600061271c541415610f82574261271c81905550611009565b61038461271c54420310151561100857600160009054906101000a900473ffffffffffffffffffffffffffffffffffffffff1673ffffffffffffffffffffffffffffffffffffffff166108fc61271d549081150290604051600060405180830381858888f19350505050158015610ffd573d6000803e3d6000fd5b50600061271d819055505b5b5600a165627a7a723058202c29090cd14033ce7c384b72e250a4ab5ed6f708c624b64a0d071fe89e32f9d50029",
  "source": "pragma solidity ^0.4.24;\n\nimport \"./PixelToken.sol\";\nimport \"./ColorToken.sol\";\n\ncontract LastPixel {\n    \n    address public masterAddr;\n    address public lastPainter;\n    PixelToken public pixelTokenAddr;\n    ColorToken public colorTokenAddr;\n\n    uint public colorTotalSupplied = 0;\n    uint public pixelTotalSupplied = 0;\n    mapping (uint256 => bool) public pixelSupplied;\n    mapping (uint256 => uint256) public colorTotalPainted;\n    mapping (uint256 => uint256) public colorGeneration;\n    mapping (uint256 => uint256) public colorPaintedAmt;\n    mapping (uint256 => uint256) public colorPaintPrice;\n    uint256[10001] public pixelColors;\n    \n    uint lastTimeStamp = 0;\n    \n    uint public timeBank = 0;\n    uint public colorBank = 0;\n    \n    constructor(address _pixelTokenAddr, address _colorTokenAddr) public {\n        masterAddr = msg.sender;\n        lastPainter = msg.sender;\n        pixelTokenAddr = PixelToken(_pixelTokenAddr);\n        colorTokenAddr = ColorToken(_colorTokenAddr);\n        colorPaintedAmt[0] = 10000;\n    }\n\n    function buyPixel() public payable {\n        require(pixelTotalSupplied < 10000);\n        require(msg.value >= 0.1 ether);\n        \n        pixelTokenAddr.mintTo(msg.sender);\n        pixelTotalSupplied += 1;\n        pixelSupplied[pixelTotalSupplied] = true;\n        \n        // send dividends\n        masterAddr.transfer(msg.value);\n    }\n\n    function buyColor() public payable {\n        require(colorTotalSupplied < 8);\n        require(msg.value >= 100 ether);\n        \n        colorTokenAddr.mintTo(msg.sender);\n        colorTotalSupplied += 1;\n        colorPaintedAmt[colorTotalSupplied] = 0;\n        colorGeneration[colorTotalSupplied] = 1;\n        colorTotalPainted[colorTotalSupplied] = 0;\n        colorPaintPrice[colorTotalSupplied] = 0.01 ether;\n        \n        // send dividends\n        masterAddr.transfer(msg.value);\n    }\n\n    function updatePaintPrice(uint colorId) private {\n        if (colorTotalPainted[colorId] > 10000 * colorGeneration[colorId]) {\n            colorGeneration[colorId] += 1;\n            colorPaintPrice[colorId] *= 105;\n            colorPaintPrice[colorId] /= 100;\n        }\n    }\n\n    function updatePixelColor(uint pixelId, uint colorId) private {\n        colorPaintedAmt[pixelColors[pixelId]] -= 1;\n        pixelColors[pixelId] = colorId;\n        colorPaintedAmt[colorId] += 1;\n        colorTotalPainted[colorId] += 1;\n    }\n\n    //----------------TODO-----------------\n    // bank distribution\n    function processColorBankWinner(uint colorId) private {\n        if (colorPaintedAmt[colorId] == 10000) {\n            msg.sender.transfer(colorBank);\n            for (uint i = 1; i <= 10000; i++) {\n                pixelColors[i] = 0;\n            }\n            for (i = 1; i <= colorTotalSupplied; i++) {\n                colorPaintedAmt[i] = 0;\n            }\n            colorBank = 0;\n        }\n    }\n\n    function processTimeBankWinner() private {\n        if (lastTimeStamp == 0) {\n            lastTimeStamp = now;\n        } else if (now - lastTimeStamp >= 900) {\n            lastPainter.transfer(timeBank);\n            timeBank = 0;\n        }\n    }\n\n    function paint(uint x, uint y, uint colorId) public payable {\n        require(x >= 1 && x <= 100);\n        require(y >= 1 && y <= 100);\n        require(colorId >= 1 && colorId <= colorTotalSupplied);\n        \n        updatePaintPrice(colorId);\n\n        require(msg.value == colorPaintPrice[colorId]);\n        \n        // get pixel id from x and y\n        uint pixelId = (x - 1) * 100 + y;\n        \n        // get pixel owner\n        address pixelOwner = masterAddr;\n        if (pixelSupplied[pixelId]) {\n            pixelOwner = pixelTokenAddr.ownerOf(pixelId);\n        }\n\n        // get color owner\n        address colorOwner = colorTokenAddr.ownerOf(colorId);\n        \n        // send dividends\n        pixelOwner.transfer(msg.value / 20);\n        colorOwner.transfer(msg.value / 20);\n        masterAddr.transfer(msg.value / 10);\n        \n        // update banks\n        timeBank += msg.value * 2 / 5;\n        colorBank += msg.value * 2 / 5;\n        \n        processColorBankWinner(colorId);\n        \n        processTimeBankWinner();\n        \n        lastTimeStamp = now;\n        lastPainter = msg.sender;\n    }\n\n}\n",
  "sourcePath": "/Users/alexander/Desktop/last-pixel-contracts/LastPixel/contracts/LastPixel.sol",
  "compiler": {
    "name": "solc",
    "version": "0.4.24+commit.e67f0147.Emscripten.clang"
  },
  "schemaVersion": "2.0.1",
  "updatedAt": "2018-11-09T06:12:45.451Z"
}