{
  "contractName": "ProxyRegistry",
  "abi": [
    {
      "constant": true,
      "inputs": [
        {
          "name": "",
          "type": "address"
        }
      ],
      "name": "proxies",
      "outputs": [
        {
          "name": "",
          "type": "address"
        }
      ],
      "payable": false,
      "stateMutability": "view",
      "type": "function"
    }
  ],
  "bytecode": "0x608060405234801561001057600080fd5b50610123806100206000396000f300608060405260043610603f576000357c0100000000000000000000000000000000000000000000000000000000900463ffffffff168063c4552791146044575b600080fd5b348015604f57600080fd5b506082600480360381019080803573ffffffffffffffffffffffffffffffffffffffff16906020019092919050505060c4565b604051808273ffffffffffffffffffffffffffffffffffffffff1673ffffffffffffffffffffffffffffffffffffffff16815260200191505060405180910390f35b60006020528060005260406000206000915054906101000a900473ffffffffffffffffffffffffffffffffffffffff16815600a165627a7a72305820c0910a0397d03cd4f46dee83cd7865da884cf385d6a6e97608329288883f7fed0029",
  "source": "pragma solidity ^0.4.24;\n\nimport 'zeppelin-solidity/contracts/token/ERC721/ERC721Token.sol';\nimport 'zeppelin-solidity/contracts/ownership/Ownable.sol';\nimport './Strings.sol';\n\ncontract OwnableDelegateProxy { }\n\ncontract ProxyRegistry {\n    mapping(address => OwnableDelegateProxy) public proxies;\n}\n\n/**\n * @title TradeableERC721Token\n * TradeableERC721Token - ERC721 contract that whitelists a trading address, and has minting functionality.\n */\ncontract TradeableERC721Token is ERC721Token, Ownable {\n  using Strings for string;\n\n  address proxyRegistryAddress;\n\n  constructor(string _name, string _symbol, address _proxyRegistryAddress) ERC721Token(_name, _symbol) public {\n    proxyRegistryAddress = _proxyRegistryAddress;\n  }\n\n  /**\n    * @dev Mints a token to an address with a tokenURI.\n    * @param _to address of the future owner of the token\n    */\n  function mintTo(address _to) public onlyOwner {\n    uint256 newTokenId = _getNextTokenId();\n    _mint(_to, newTokenId);\n  }\n\n  /**\n    * @dev calculates the next token ID based on totalSupply\n    * @return uint256 for the next token ID\n    */\n  function _getNextTokenId() private view returns (uint256) {\n    return totalSupply().add(1);\n  }\n\n  function baseTokenURI() public view returns (string) {\n    return \"\";\n  }\n\n  function tokenURI(uint256 _tokenId) public view returns (string) {\n    return Strings.strConcat(\n        baseTokenURI(),\n        Strings.uint2str(_tokenId)\n    );\n  }\n\n  /**\n   * Override isApprovedForAll to whitelist user's OpenSea proxy accounts to enable gas-less listings.\n   */\n  function isApprovedForAll(\n    address owner,\n    address operator\n  )\n    public\n    view\n    returns (bool)\n  {\n    // Whitelist OpenSea proxy contract for easy trading.\n    ProxyRegistry proxyRegistry = ProxyRegistry(proxyRegistryAddress);\n    if (proxyRegistry.proxies(owner) == operator) {\n        return true;\n    }\n\n    return super.isApprovedForAll(owner, operator);\n  }\n}\n",
  "sourcePath": "/Users/alexander/Desktop/last-pixel-contracts/LastPixel/contracts/tradeableERC721Token.sol",
  "compiler": {
    "name": "solc",
    "version": "0.4.24+commit.e67f0147.Emscripten.clang"
  },
  "schemaVersion": "2.0.1",
  "updatedAt": "2018-11-09T06:12:56.608Z"
}