{
  "contractName": "ColorBankDistributor",
  "abi": [
    {
      "constant": true,
      "inputs": [
        {
          "name": "",
          "type": "uint256"
        },
        {
          "name": "",
          "type": "address"
        }
      ],
      "name": "addressToTimeBankPrizeForRound",
      "outputs": [
        {
          "name": "",
          "type": "uint256"
        }
      ],
      "payable": false,
      "stateMutability": "view",
      "type": "function"
    },
    {
      "constant": true,
      "inputs": [
        {
          "name": "",
          "type": "uint256"
        },
        {
          "name": "",
          "type": "uint256"
        }
      ],
      "name": "colorToTotalPaintsForRound",
      "outputs": [
        {
          "name": "",
          "type": "uint256"
        }
      ],
      "payable": false,
      "stateMutability": "view",
      "type": "function"
    },
    {
      "constant": true,
      "inputs": [
        {
          "name": "",
          "type": "uint256"
        },
        {
          "name": "",
          "type": "uint256"
        }
      ],
      "name": "colorToPaintedPixelsAmountForRound",
      "outputs": [
        {
          "name": "",
          "type": "uint256"
        }
      ],
      "payable": false,
      "stateMutability": "view",
      "type": "function"
    },
    {
      "constant": true,
      "inputs": [
        {
          "name": "",
          "type": "uint256"
        }
      ],
      "name": "winnerOfRound",
      "outputs": [
        {
          "name": "",
          "type": "address"
        }
      ],
      "payable": false,
      "stateMutability": "view",
      "type": "function"
    },
    {
      "constant": true,
      "inputs": [
        {
          "name": "",
          "type": "uint256"
        },
        {
          "name": "",
          "type": "uint256"
        },
        {
          "name": "",
          "type": "address"
        }
      ],
      "name": "colorToAddressToTotalCounterForRound",
      "outputs": [
        {
          "name": "",
          "type": "uint256"
        }
      ],
      "payable": false,
      "stateMutability": "view",
      "type": "function"
    },
    {
      "constant": true,
      "inputs": [
        {
          "name": "",
          "type": "uint256"
        }
      ],
      "name": "teamStartedTimeForRound",
      "outputs": [
        {
          "name": "",
          "type": "uint256"
        }
      ],
      "payable": false,
      "stateMutability": "view",
      "type": "function"
    },
    {
      "constant": true,
      "inputs": [
        {
          "name": "",
          "type": "address"
        }
      ],
      "name": "lastPlayedRound",
      "outputs": [
        {
          "name": "",
          "type": "uint256"
        }
      ],
      "payable": false,
      "stateMutability": "view",
      "type": "function"
    },
    {
      "constant": true,
      "inputs": [
        {
          "name": "",
          "type": "uint256"
        }
      ],
      "name": "winnerBankForRound",
      "outputs": [
        {
          "name": "",
          "type": "uint256"
        }
      ],
      "payable": false,
      "stateMutability": "view",
      "type": "function"
    },
    {
      "constant": true,
      "inputs": [
        {
          "name": "",
          "type": "uint256"
        },
        {
          "name": "",
          "type": "uint256"
        }
      ],
      "name": "pixelToOldColorForRound",
      "outputs": [
        {
          "name": "",
          "type": "uint256"
        }
      ],
      "payable": false,
      "stateMutability": "view",
      "type": "function"
    },
    {
      "constant": true,
      "inputs": [
        {
          "name": "",
          "type": "uint256"
        }
      ],
      "name": "timeBankForRound",
      "outputs": [
        {
          "name": "",
          "type": "uint256"
        }
      ],
      "payable": false,
      "stateMutability": "view",
      "type": "function"
    },
    {
      "constant": true,
      "inputs": [
        {
          "name": "",
          "type": "uint256"
        }
      ],
      "name": "teamEndedTimeForRound",
      "outputs": [
        {
          "name": "",
          "type": "uint256"
        }
      ],
      "payable": false,
      "stateMutability": "view",
      "type": "function"
    },
    {
      "constant": true,
      "inputs": [
        {
          "name": "",
          "type": "uint256"
        },
        {
          "name": "",
          "type": "address"
        },
        {
          "name": "",
          "type": "uint256"
        }
      ],
      "name": "addressToCounterToTimestampForRound",
      "outputs": [
        {
          "name": "",
          "type": "uint256"
        }
      ],
      "payable": false,
      "stateMutability": "view",
      "type": "function"
    },
    {
      "constant": true,
      "inputs": [
        {
          "name": "",
          "type": "uint256"
        }
      ],
      "name": "lastPaintTimeForRound",
      "outputs": [
        {
          "name": "",
          "type": "uint256"
        }
      ],
      "payable": false,
      "stateMutability": "view",
      "type": "function"
    },
    {
      "constant": true,
      "inputs": [
        {
          "name": "",
          "type": "uint256"
        }
      ],
      "name": "lastPainterForRound",
      "outputs": [
        {
          "name": "",
          "type": "address"
        }
      ],
      "payable": false,
      "stateMutability": "view",
      "type": "function"
    },
    {
      "constant": true,
      "inputs": [],
      "name": "currentRound",
      "outputs": [
        {
          "name": "",
          "type": "uint256"
        }
      ],
      "payable": false,
      "stateMutability": "view",
      "type": "function"
    },
    {
      "constant": true,
      "inputs": [
        {
          "name": "",
          "type": "uint256"
        },
        {
          "name": "",
          "type": "uint256"
        }
      ],
      "name": "colorBankToColorForRound",
      "outputs": [
        {
          "name": "",
          "type": "uint256"
        }
      ],
      "payable": false,
      "stateMutability": "view",
      "type": "function"
    },
    {
      "constant": true,
      "inputs": [
        {
          "name": "",
          "type": "uint256"
        },
        {
          "name": "",
          "type": "address"
        }
      ],
      "name": "addressToColorBankPrizeForRound",
      "outputs": [
        {
          "name": "",
          "type": "uint256"
        }
      ],
      "payable": false,
      "stateMutability": "view",
      "type": "function"
    },
    {
      "constant": true,
      "inputs": [
        {
          "name": "",
          "type": "uint256"
        },
        {
          "name": "",
          "type": "address"
        }
      ],
      "name": "addressToTotalCounterForRound",
      "outputs": [
        {
          "name": "",
          "type": "uint256"
        }
      ],
      "payable": false,
      "stateMutability": "view",
      "type": "function"
    },
    {
      "constant": true,
      "inputs": [
        {
          "name": "",
          "type": "uint256"
        },
        {
          "name": "",
          "type": "address"
        },
        {
          "name": "",
          "type": "uint256"
        },
        {
          "name": "",
          "type": "uint256"
        }
      ],
      "name": "addressToColorToCounterToTimestampForRound",
      "outputs": [
        {
          "name": "",
          "type": "uint256"
        }
      ],
      "payable": false,
      "stateMutability": "view",
      "type": "function"
    },
    {
      "constant": true,
      "inputs": [
        {
          "name": "",
          "type": "uint256"
        },
        {
          "name": "",
          "type": "uint256"
        }
      ],
      "name": "pixelToColorForRound",
      "outputs": [
        {
          "name": "",
          "type": "uint256"
        }
      ],
      "payable": false,
      "stateMutability": "view",
      "type": "function"
    },
    {
      "constant": true,
      "inputs": [
        {
          "name": "",
          "type": "address"
        }
      ],
      "name": "addressToColorBankPrizeTotal",
      "outputs": [
        {
          "name": "",
          "type": "uint256"
        }
      ],
      "payable": false,
      "stateMutability": "view",
      "type": "function"
    },
    {
      "constant": true,
      "inputs": [
        {
          "name": "",
          "type": "uint256"
        }
      ],
      "name": "totalPaintsForRound",
      "outputs": [
        {
          "name": "",
          "type": "uint256"
        }
      ],
      "payable": false,
      "stateMutability": "view",
      "type": "function"
    },
    {
      "constant": true,
      "inputs": [
        {
          "name": "",
          "type": "uint256"
        }
      ],
      "name": "colorBankForRound",
      "outputs": [
        {
          "name": "",
          "type": "uint256"
        }
      ],
      "payable": false,
      "stateMutability": "view",
      "type": "function"
    },
    {
      "constant": true,
      "inputs": [
        {
          "name": "",
          "type": "address"
        },
        {
          "name": "",
          "type": "uint256"
        }
      ],
      "name": "isPrizeDistributedForRound",
      "outputs": [
        {
          "name": "",
          "type": "bool"
        }
      ],
      "payable": false,
      "stateMutability": "view",
      "type": "function"
    },
    {
      "constant": true,
      "inputs": [
        {
          "name": "",
          "type": "uint256"
        }
      ],
      "name": "winnerColorForRound",
      "outputs": [
        {
          "name": "",
          "type": "uint256"
        }
      ],
      "payable": false,
      "stateMutability": "view",
      "type": "function"
    },
    {
      "anonymous": false,
      "inputs": [
        {
          "indexed": true,
          "name": "winner",
          "type": "address"
        },
        {
          "indexed": true,
          "name": "winnerColor",
          "type": "uint256"
        },
        {
          "indexed": true,
          "name": "currentRound",
          "type": "uint256"
        }
      ],
      "name": "ColorBankPlayed",
      "type": "event"
    },
    {
      "anonymous": false,
      "inputs": [
        {
          "indexed": true,
          "name": "winner",
          "type": "address"
        },
        {
          "indexed": true,
          "name": "round",
          "type": "uint256"
        },
        {
          "indexed": true,
          "name": "amount",
          "type": "uint256"
        }
      ],
      "name": "ColorBankPrizeDistributed",
      "type": "event"
    },
    {
      "constant": false,
      "inputs": [],
      "name": "claimColorBankPrizeForLastPlayedRound",
      "outputs": [],
      "payable": false,
      "stateMutability": "nonpayable",
      "type": "function"
    }
  ],
  "bytecode": "0x608060405234801561001057600080fd5b50611320806100206000396000f300608060405260043610610154576000357c0100000000000000000000000000000000000000000000000000000000900463ffffffff16806306937b47146101595780630ba36221146101ba5780630cf9603f14610205578063102f971314610250578063187aae8e146102bd57806323a43a8e1461032857806328b290f9146103695780633d0d1a79146103c05780634b39173d146104015780634c78e4011461044c57806355457fc11461048d57806361433c5b146104ce57806373a9ee261461053957806379ecf3761461057a5780638a19c8bc146105e7578063a312072414610612578063a645867e1461065d578063ab94b584146106be578063ae2d2b601461071f578063b8232d5d14610794578063be6b4141146107df578063be7d622614610836578063c64a2e5614610877578063d7be6332146108b8578063ebf0ba031461091d578063f49916f514610934575b600080fd5b34801561016557600080fd5b506101a460048036038101908080359060200190929190803573ffffffffffffffffffffffffffffffffffffffff169060200190929190505050610975565b6040518082815260200191505060405180910390f35b3480156101c657600080fd5b506101ef600480360381019080803590602001909291908035906020019092919050505061099a565b6040518082815260200191505060405180910390f35b34801561021157600080fd5b5061023a60048036038101908080359060200190929190803590602001909291905050506109bf565b6040518082815260200191505060405180910390f35b34801561025c57600080fd5b5061027b600480360381019080803590602001909291905050506109e4565b604051808273ffffffffffffffffffffffffffffffffffffffff1673ffffffffffffffffffffffffffffffffffffffff16815260200191505060405180910390f35b3480156102c957600080fd5b506103126004803603810190808035906020019092919080359060200190929190803573ffffffffffffffffffffffffffffffffffffffff169060200190929190505050610a17565b6040518082815260200191505060405180910390f35b34801561033457600080fd5b5061035360048036038101908080359060200190929190505050610a49565b6040518082815260200191505060405180910390f35b34801561037557600080fd5b506103aa600480360381019080803573ffffffffffffffffffffffffffffffffffffffff169060200190929190505050610a61565b6040518082815260200191505060405180910390f35b3480156103cc57600080fd5b506103eb60048036038101908080359060200190929190505050610a79565b6040518082815260200191505060405180910390f35b34801561040d57600080fd5b506104366004803603810190808035906020019092919080359060200190929190505050610a91565b6040518082815260200191505060405180910390f35b34801561045857600080fd5b5061047760048036038101908080359060200190929190505050610ab6565b6040518082815260200191505060405180910390f35b34801561049957600080fd5b506104b860048036038101908080359060200190929190505050610ace565b6040518082815260200191505060405180910390f35b3480156104da57600080fd5b5061052360048036038101908080359060200190929190803573ffffffffffffffffffffffffffffffffffffffff16906020019092919080359060200190929190505050610ae6565b6040518082815260200191505060405180910390f35b34801561054557600080fd5b5061056460048036038101908080359060200190929190505050610b18565b6040518082815260200191505060405180910390f35b34801561058657600080fd5b506105a560048036038101908080359060200190929190505050610b30565b604051808273ffffffffffffffffffffffffffffffffffffffff1673ffffffffffffffffffffffffffffffffffffffff16815260200191505060405180910390f35b3480156105f357600080fd5b506105fc610b63565b6040518082815260200191505060405180910390f35b34801561061e57600080fd5b506106476004803603810190808035906020019092919080359060200190929190505050610b69565b6040518082815260200191505060405180910390f35b34801561066957600080fd5b506106a860048036038101908080359060200190929190803573ffffffffffffffffffffffffffffffffffffffff169060200190929190505050610b8e565b6040518082815260200191505060405180910390f35b3480156106ca57600080fd5b5061070960048036038101908080359060200190929190803573ffffffffffffffffffffffffffffffffffffffff169060200190929190505050610bb3565b6040518082815260200191505060405180910390f35b34801561072b57600080fd5b5061077e60048036038101908080359060200190929190803573ffffffffffffffffffffffffffffffffffffffff1690602001909291908035906020019092919080359060200190929190505050610bd8565b6040518082815260200191505060405180910390f35b3480156107a057600080fd5b506107c96004803603810190808035906020019092919080359060200190929190505050610c17565b6040518082815260200191505060405180910390f35b3480156107eb57600080fd5b50610820600480360381019080803573ffffffffffffffffffffffffffffffffffffffff169060200190929190505050610c3c565b6040518082815260200191505060405180910390f35b34801561084257600080fd5b5061086160048036038101908080359060200190929190505050610c54565b6040518082815260200191505060405180910390f35b34801561088357600080fd5b506108a260048036038101908080359060200190929190505050610c6c565b6040518082815260200191505060405180910390f35b3480156108c457600080fd5b50610903600480360381019080803573ffffffffffffffffffffffffffffffffffffffff16906020019092919080359060200190929190505050610c84565b604051808215151515815260200191505060405180910390f35b34801561092957600080fd5b50610932610cb3565b005b34801561094057600080fd5b5061095f60048036038101908080359060200190929190505050611253565b6040518082815260200191505060405180910390f35b6013602052816000526040600020602052806000526040600020600091509150505481565b600a602052816000526040600020602052806000526040600020600091509150505481565b6003602052816000526040600020602052806000526040600020600091509150505481565b60146020528060005260406000206000915054906101000a900473ffffffffffffffffffffffffffffffffffffffff1681565b600d60205282600052604060002060205281600052604060002060205280600052604060002060009250925050505481565b600b6020528060005260406000206000915090505481565b60166020528060005260406000206000915090505481565b60156020528060005260406000206000915090505481565b6002602052816000526040600020602052806000526040600020600091509150505481565b60066020528060005260406000206000915090505481565b600c6020528060005260406000206000915090505481565b601060205282600052604060002060205281600052604060002060205280600052604060002060009250925050505481565b60076020528060005260406000206000915090505481565b60086020528060005260406000206000915054906101000a900473ffffffffffffffffffffffffffffffffffffffff1681565b60175481565b6005602052816000526040600020602052806000526040600020600091509150505481565b6012602052816000526040600020602052806000526040600020600091509150505481565b600e602052816000526040600020602052806000526040600020600091509150505481565b600f6020528360005260406000206020528260005260406000206020528160005260406000206020528060005260406000206000935093505050505481565b6001602052816000526040600020602052806000526040600020600091509150505481565b60186020528060005260406000206000915090505481565b60006020528060005260406000206000915090505481565b60046020528060005260406000206000915090505481565b60116020528160005260406000206020528060005260406000206000915091509054906101000a900460ff1681565b600080600080600080600080601660003373ffffffffffffffffffffffffffffffffffffffff1673ffffffffffffffffffffffffffffffffffffffff1681526020019081526020016000205497506000601660003373ffffffffffffffffffffffffffffffffffffffff1673ffffffffffffffffffffffffffffffffffffffff16815260200190815260200160002054118015610d6357506002601560008a815260200190815260200160002054145b1515610dfd576040517f08c379a00000000000000000000000000000000000000000000000000000000081526004018080602001828103825260328152602001807f42616e6b206f6620636f6c6f7220776173206e6f7420706c6179656420696e2081526020017f796f7572206c61737420726f756e642e2e2e000000000000000000000000000081525060400191505060405180910390fd5b60096000898152602001908152602001600020549650600c6000898152602001908152602001600020549550600b6000898152602001908152602001600020549450600d6000898152602001908152602001600020600088815260200190815260200160002060003373ffffffffffffffffffffffffffffffffffffffff1673ffffffffffffffffffffffffffffffffffffffff1681526020019081526020016000205492508291505b6000821115610f5e57600f600089815260200190815260200160002060003373ffffffffffffffffffffffffffffffffffffffff1673ffffffffffffffffffffffffffffffffffffffff168152602001908152602001600020600088815260200190815260200160002060008381526020019081526020016000205490508481118015610f345750858111155b15610f5057610f4d60018561126b90919063ffffffff16565b93505b818060019003925050610ea7565b610fba600a60008a8152602001908152602001600020600089815260200190815260200160002054610fac600460008c8152602001908152602001600020548761128c90919063ffffffff16565b6112ca90919063ffffffff16565b601260008a815260200190815260200160002060003373ffffffffffffffffffffffffffffffffffffffff1673ffffffffffffffffffffffffffffffffffffffff168152602001908152602001600020600082825401925050819055506012600089815260200190815260200160002060003373ffffffffffffffffffffffffffffffffffffffff1673ffffffffffffffffffffffffffffffffffffffff16815260200190815260200160002054601860003373ffffffffffffffffffffffffffffffffffffffff1673ffffffffffffffffffffffffffffffffffffffff168152602001908152602001600020600082825401925050819055503373ffffffffffffffffffffffffffffffffffffffff166108fc601260008b815260200190815260200160002060003373ffffffffffffffffffffffffffffffffffffffff1673ffffffffffffffffffffffffffffffffffffffff168152602001908152602001600020549081150290604051600060405180830381858888f1935050505015801561114a573d6000803e3d6000fd5b506001601160003373ffffffffffffffffffffffffffffffffffffffff1673ffffffffffffffffffffffffffffffffffffffff16815260200190815260200160002060008a815260200190815260200160002060006101000a81548160ff0219169083151502179055506012600089815260200190815260200160002060003373ffffffffffffffffffffffffffffffffffffffff1673ffffffffffffffffffffffffffffffffffffffff16815260200190815260200160002054883373ffffffffffffffffffffffffffffffffffffffff167fff0e3cc6a8358bbcae69e6c859a508401151d25fe2552fc59ca6f31b37461b5060405160405180910390a45050505050505050565b60096020528060005260406000206000915090505481565b600080828401905083811015151561128257600080fd5b8091505092915050565b60008060008414156112a157600091506112c3565b82840290508284828115156112b257fe5b041415156112bf57600080fd5b8091505b5092915050565b6000806000831115156112dc57600080fd5b82848115156112e757fe5b04905080915050929150505600a165627a7a7230582059e0813859361fe42198f907e96b7b1b9f8e988abf3a6e8c66c91ae7d1dfaa110029",
  "source": "pragma solidity ^0.4.24;\n\nimport \"./RoundDataHolder.sol\";\n\ncontract ColorBankDistributor is RoundDataHolder  {\n    \n    using SafeMath for uint;\n    \n    //сколько всего банка цвета выиграл адрес (в сумме за все время) (адрес => сумма общего выигрыша)\n    mapping(address => uint) public addressToColorBankPrizeTotal; \n    \n    event ColorBankPlayed(address indexed winner, uint indexed winnerColor, uint indexed currentRound);\n    event ColorBankPrizeDistributed(address indexed winner, uint indexed round, uint indexed amount);\n    \n    //запросить приз банка цвета за послений раунд в котором пользователь принимал участие\n    function claimColorBankPrizeForLastPlayedRound() public {\n\n        //последний раунд в котором пользователь принимал участие\n        uint round = lastPlayedRound[msg.sender];\n\n        //функция может быть вызвана только если в последнем раунде был разыгран банк цвета\n        require(lastPlayedRound[msg.sender] > 0 && winnerBankForRound[round] == 2, \"Bank of color was not played in your last round...\");\n\n        //выигрышый цвет за последний раунд в котором пользователь принимал участие\n        uint winnerColor = winnerColorForRound[round];\n\n        //время завершения сбора команды приза для раунда\n        uint end = teamEndedTimeForRound[round];\n\n        //время начала сбора команды приза для раунда\n        uint start = teamStartedTimeForRound[round];\n\n        //cчетчик количества закрашиваний\n        uint counter;\n        \n        //счетчик общего количества закрашиваний выигрышным цветом для пользователя за раунд     \n        uint total = colorToAddressToTotalCounterForRound[round][winnerColor][msg.sender]; \n\n         //считаем сколько закрашиваний выигрышным цветом произвел пользователь за последние 24 часа\n        for (uint i = total; i > 0; i--) {\n            uint timeStamp = addressToColorToCounterToTimestampForRound[round][msg.sender][winnerColor][i];\n            if (timeStamp > start && timeStamp <= end)\n                counter = counter.add(1);\n        }\n\n        //устанавливаем какую часть от банка цвета выиграл адрес за последний раунд в котором принимал участие\n        addressToColorBankPrizeForRound[round][msg.sender] += counter.mul(colorBankForRound[round]).div(colorToTotalPaintsForRound[round][winnerColor]);\n\n        //добавляем полученное значение в сумму выигрышей банка цвета пользователем за все время\n        addressToColorBankPrizeTotal[msg.sender] += addressToColorBankPrizeForRound[round][msg.sender];\n\n         //переводим пользователю его выигрыш за последний раунд в котором он принимал участие\n        msg.sender.transfer(addressToColorBankPrizeForRound[round][msg.sender]);\n\n        //устанавливаем булевое значение о том, что пользователь получил свой приз за раунд\n        isPrizeDistributedForRound[msg.sender][round] = true;\n\n        //вызываем ивент - о том, что приз банка цвета распределен пользователю (адрес, раунд, выигрыш)\n        emit ColorBankPrizeDistributed(msg.sender, round, addressToColorBankPrizeForRound[round][msg.sender]);\n    }\n    \n    //функция распределения банка цвета\n    function _distributeColorBank() internal { \n\n        //время начала сбора команды раунда (24 часа назад)\n        teamStartedTimeForRound[currentRound] = now - 24 hours;\n\n        //время завершения сбора команды раунда (сейчас)\n        teamEndedTimeForRound[currentRound] = now;\n\n        //победитель текущего раунда - последний закрасивший пиксель пользователь за этот раунд\n        winnerOfRound[currentRound] = lastPainterForRound[currentRound];\n        \n        //Checks-Effects-Interactions pattern\n        uint amountToTransfer = colorBankForRound[currentRound].mul(50).div(100);\n    \n        //переводим 50% банка цвета победителю текущего раунда\n        winnerOfRound[currentRound].transfer(amountToTransfer);\n               \n        //разыгранный банк этого раунда = банк цвета (2)\n        winnerBankForRound[currentRound] = 2;\n\n        //50% банка цвета распределится между командой цвета раунда\n        colorBankForRound[currentRound] = colorBankForRound[currentRound].mul(50).div(100); \n\n        //банк времени переносится на следующий раунд\n        timeBankForRound[currentRound + 1] = timeBankForRound[currentRound];\n\n        //банк времени в текущем раунде обнуляется\n        timeBankForRound[currentRound] = 0;\n\n        //ивент - был разыгран банк времени (победитель, победивший цвет раунд)\n        emit ColorBankPlayed(winnerOfRound[currentRound], winnerColorForRound[currentRound], currentRound);\n        \n        //следующий раунд\n        currentRound = currentRound.add(1); \n    }\n}",
  "sourcePath": "/Users/Amir/last-pixel-contracts/contracts/ColorBankDistributor.sol",
  "compiler": {
    "name": "solc",
    "version": "0.4.24+commit.e67f0147.Emscripten.clang"
  },
  "schemaVersion": "2.0.1",
  "updatedAt": "2018-12-07T04:37:56.835Z"
}