{
  "contractName": "Color",
  "abi": [
    {
      "constant": true,
      "inputs": [
        {
          "name": "_tokenId",
          "type": "uint256"
        }
      ],
      "name": "ownerOf",
      "outputs": [
        {
          "name": "",
          "type": "address"
        }
      ],
      "payable": false,
      "stateMutability": "view",
      "type": "function"
    },
    {
      "constant": true,
      "inputs": [],
      "name": "totalSupply",
      "outputs": [
        {
          "name": "",
          "type": "uint256"
        }
      ],
      "payable": false,
      "stateMutability": "view",
      "type": "function"
    }
  ],
  "bytecode": "0x608060405234801561001057600080fd5b5061011f806100206000396000f3006080604052600436106049576000357c0100000000000000000000000000000000000000000000000000000000900463ffffffff16806318160ddd14604e5780636352211e146076575b600080fd5b348015605957600080fd5b50606060e0565b6040518082815260200191505060405180910390f35b348015608157600080fd5b50609e6004803603810190808035906020019092919050505060e9565b604051808273ffffffffffffffffffffffffffffffffffffffff1673ffffffffffffffffffffffffffffffffffffffff16815260200191505060405180910390f35b60006008905090565b60008090509190505600a165627a7a723058209a2e7323203eb74b5736b79cc87425a3682a1e002f3ee5970b2e115dc9efc79a0029",
  "source": "pragma solidity ^0.4.24;\n\ncontract Color {\n    \n    function ownerOf(uint _tokenId) external view returns (address) {\n        return address(0);\n    }\n\n    function totalSupply() external view returns (uint) {\n        return 8;\n    }\n}",
  "sourcePath": "/Users/Amir/last-pixel-contracts/contracts/mock/ColorNFTMock.sol",
  "compiler": {
    "name": "solc",
    "version": "0.4.25+commit.59dbf8f1.Emscripten.clang"
  },
  "schemaVersion": "2.0.2",
  "updatedAt": "2019-02-07T12:06:45.027Z"
}