{
  "contractName": "ColorBankDistributor",
  "abi": [
    {
      "constant": true,
      "inputs": [
        {
          "name": "",
          "type": "uint256"
        },
        {
          "name": "",
          "type": "address"
        }
      ],
      "name": "addressToTimeBankPrizeForRound",
      "outputs": [
        {
          "name": "",
          "type": "uint256"
        }
      ],
      "payable": false,
      "stateMutability": "view",
      "type": "function"
    },
    {
      "constant": true,
      "inputs": [
        {
          "name": "",
          "type": "uint256"
        },
        {
          "name": "",
          "type": "uint256"
        }
      ],
      "name": "colorToTotalPaintsForRound",
      "outputs": [
        {
          "name": "",
          "type": "uint256"
        }
      ],
      "payable": false,
      "stateMutability": "view",
      "type": "function"
    },
    {
      "constant": true,
      "inputs": [
        {
          "name": "",
          "type": "uint256"
        },
        {
          "name": "",
          "type": "uint256"
        }
      ],
      "name": "colorToPaintedPixelsAmountForRound",
      "outputs": [
        {
          "name": "",
          "type": "uint256"
        }
      ],
      "payable": false,
      "stateMutability": "view",
      "type": "function"
    },
    {
      "constant": true,
      "inputs": [
        {
          "name": "",
          "type": "uint256"
        }
      ],
      "name": "winnerOfRound",
      "outputs": [
        {
          "name": "",
          "type": "address"
        }
      ],
      "payable": false,
      "stateMutability": "view",
      "type": "function"
    },
    {
      "constant": true,
      "inputs": [
        {
          "name": "",
          "type": "uint256"
        },
        {
          "name": "",
          "type": "address"
        }
      ],
      "name": "hasTakenPartInRound",
      "outputs": [
        {
          "name": "",
          "type": "bool"
        }
      ],
      "payable": false,
      "stateMutability": "view",
      "type": "function"
    },
    {
      "constant": true,
      "inputs": [
        {
          "name": "",
          "type": "uint256"
        }
      ],
      "name": "teamStartedTimeForRound",
      "outputs": [
        {
          "name": "",
          "type": "uint256"
        }
      ],
      "payable": false,
      "stateMutability": "view",
      "type": "function"
    },
    {
      "constant": true,
      "inputs": [
        {
          "name": "",
          "type": "address"
        }
      ],
      "name": "lastPlayedRound",
      "outputs": [
        {
          "name": "",
          "type": "uint256"
        }
      ],
      "payable": false,
      "stateMutability": "view",
      "type": "function"
    },
    {
      "constant": true,
      "inputs": [
        {
          "name": "",
          "type": "uint256"
        }
      ],
      "name": "winnerBankForRound",
      "outputs": [
        {
          "name": "",
          "type": "uint256"
        }
      ],
      "payable": false,
      "stateMutability": "view",
      "type": "function"
    },
    {
      "constant": true,
      "inputs": [
        {
          "name": "",
          "type": "uint256"
        },
        {
          "name": "",
          "type": "uint256"
        }
      ],
      "name": "pixelToOldColorForRound",
      "outputs": [
        {
          "name": "",
          "type": "uint256"
        }
      ],
      "payable": false,
      "stateMutability": "view",
      "type": "function"
    },
    {
      "constant": true,
      "inputs": [
        {
          "name": "",
          "type": "uint256"
        }
      ],
      "name": "timeBankForRound",
      "outputs": [
        {
          "name": "",
          "type": "uint256"
        }
      ],
      "payable": false,
      "stateMutability": "view",
      "type": "function"
    },
    {
      "constant": true,
      "inputs": [
        {
          "name": "",
          "type": "uint256"
        }
      ],
      "name": "teamEndedTimeForRound",
      "outputs": [
        {
          "name": "",
          "type": "uint256"
        }
      ],
      "payable": false,
      "stateMutability": "view",
      "type": "function"
    },
    {
      "constant": true,
      "inputs": [
        {
          "name": "",
          "type": "uint256"
        }
      ],
      "name": "lastPaintedPixelForRound",
      "outputs": [
        {
          "name": "",
          "type": "uint256"
        }
      ],
      "payable": false,
      "stateMutability": "view",
      "type": "function"
    },
    {
      "constant": true,
      "inputs": [
        {
          "name": "",
          "type": "uint256"
        }
      ],
      "name": "lastPaintTimeForRound",
      "outputs": [
        {
          "name": "",
          "type": "uint256"
        }
      ],
      "payable": false,
      "stateMutability": "view",
      "type": "function"
    },
    {
      "constant": true,
      "inputs": [
        {
          "name": "",
          "type": "uint256"
        }
      ],
      "name": "lastPainterForRound",
      "outputs": [
        {
          "name": "",
          "type": "address"
        }
      ],
      "payable": false,
      "stateMutability": "view",
      "type": "function"
    },
    {
      "constant": true,
      "inputs": [],
      "name": "currentRound",
      "outputs": [
        {
          "name": "",
          "type": "uint256"
        }
      ],
      "payable": false,
      "stateMutability": "view",
      "type": "function"
    },
    {
      "constant": true,
      "inputs": [
        {
          "name": "",
          "type": "uint256"
        },
        {
          "name": "",
          "type": "uint256"
        }
      ],
      "name": "colorBankToColorForRound",
      "outputs": [
        {
          "name": "",
          "type": "uint256"
        }
      ],
      "payable": false,
      "stateMutability": "view",
      "type": "function"
    },
    {
      "constant": true,
      "inputs": [
        {
          "name": "",
          "type": "uint256"
        },
        {
          "name": "",
          "type": "address"
        }
      ],
      "name": "addressToColorBankPrizeForRound",
      "outputs": [
        {
          "name": "",
          "type": "uint256"
        }
      ],
      "payable": false,
      "stateMutability": "view",
      "type": "function"
    },
    {
      "constant": true,
      "inputs": [
        {
          "name": "",
          "type": "uint256"
        },
        {
          "name": "",
          "type": "address"
        }
      ],
      "name": "colorToUserToTotalCounter",
      "outputs": [
        {
          "name": "",
          "type": "uint256"
        }
      ],
      "payable": false,
      "stateMutability": "view",
      "type": "function"
    },
    {
      "constant": true,
      "inputs": [
        {
          "name": "",
          "type": "uint256"
        },
        {
          "name": "",
          "type": "uint256"
        }
      ],
      "name": "pixelToColorForRound",
      "outputs": [
        {
          "name": "",
          "type": "uint256"
        }
      ],
      "payable": false,
      "stateMutability": "view",
      "type": "function"
    },
    {
      "constant": true,
      "inputs": [
        {
          "name": "",
          "type": "address"
        }
      ],
      "name": "addressToColorBankPrizeTotal",
      "outputs": [
        {
          "name": "",
          "type": "uint256"
        }
      ],
      "payable": false,
      "stateMutability": "view",
      "type": "function"
    },
    {
      "constant": true,
      "inputs": [
        {
          "name": "",
          "type": "uint256"
        }
      ],
      "name": "totalPaintsForRound",
      "outputs": [
        {
          "name": "",
          "type": "uint256"
        }
      ],
      "payable": false,
      "stateMutability": "view",
      "type": "function"
    },
    {
      "constant": true,
      "inputs": [
        {
          "name": "",
          "type": "address"
        }
      ],
      "name": "userToTotalCounter",
      "outputs": [
        {
          "name": "",
          "type": "uint256"
        }
      ],
      "payable": false,
      "stateMutability": "view",
      "type": "function"
    },
    {
      "constant": true,
      "inputs": [
        {
          "name": "",
          "type": "uint256"
        }
      ],
      "name": "colorBankForRound",
      "outputs": [
        {
          "name": "",
          "type": "uint256"
        }
      ],
      "payable": false,
      "stateMutability": "view",
      "type": "function"
    },
    {
      "constant": true,
      "inputs": [
        {
          "name": "",
          "type": "address"
        },
        {
          "name": "",
          "type": "uint256"
        }
      ],
      "name": "userToCounterToTimestamp",
      "outputs": [
        {
          "name": "",
          "type": "uint256"
        }
      ],
      "payable": false,
      "stateMutability": "view",
      "type": "function"
    },
    {
      "constant": true,
      "inputs": [
        {
          "name": "",
          "type": "address"
        },
        {
          "name": "",
          "type": "uint256"
        }
      ],
      "name": "isPrizeDistributedForRound",
      "outputs": [
        {
          "name": "",
          "type": "bool"
        }
      ],
      "payable": false,
      "stateMutability": "view",
      "type": "function"
    },
    {
      "constant": true,
      "inputs": [
        {
          "name": "",
          "type": "address"
        },
        {
          "name": "",
          "type": "uint256"
        },
        {
          "name": "",
          "type": "uint256"
        }
      ],
      "name": "userToColorToCounterToTimestamp",
      "outputs": [
        {
          "name": "",
          "type": "uint256"
        }
      ],
      "payable": false,
      "stateMutability": "view",
      "type": "function"
    },
    {
      "constant": true,
      "inputs": [
        {
          "name": "",
          "type": "uint256"
        }
      ],
      "name": "winnerColorForRound",
      "outputs": [
        {
          "name": "",
          "type": "uint256"
        }
      ],
      "payable": false,
      "stateMutability": "view",
      "type": "function"
    },
    {
      "anonymous": false,
      "inputs": [
        {
          "indexed": true,
          "name": "winner",
          "type": "address"
        },
        {
          "indexed": true,
          "name": "winnerColor",
          "type": "uint256"
        },
        {
          "indexed": true,
          "name": "currentRound",
          "type": "uint256"
        }
      ],
      "name": "ColorBankPlayed",
      "type": "event"
    },
    {
      "anonymous": false,
      "inputs": [
        {
          "indexed": true,
          "name": "winner",
          "type": "address"
        },
        {
          "indexed": true,
          "name": "round",
          "type": "uint256"
        },
        {
          "indexed": true,
          "name": "amount",
          "type": "uint256"
        }
      ],
      "name": "ColorBankPrizeDistributed",
      "type": "event"
    },
    {
      "constant": false,
      "inputs": [],
      "name": "claimColorBankPrizeForLastPlayedRound",
      "outputs": [],
      "payable": false,
      "stateMutability": "nonpayable",
      "type": "function"
    }
  ],
  "bytecode": "0x608060405234801561001057600080fd5b50611440806100206000396000f30060806040526004361061016a576000357c0100000000000000000000000000000000000000000000000000000000900463ffffffff16806306937b471461016f5780630ba36221146101d05780630cf9603f1461021b578063102f9713146102665780632153fb01146102d357806323a43a8e1461033857806328b290f9146103795780633d0d1a79146103d05780634b39173d146104115780634c78e4011461045c57806355457fc11461049d578063628a71a3146104de57806373a9ee261461051f57806379ecf376146105605780638a19c8bc146105cd578063a3120724146105f8578063a645867e14610643578063abd7c8ea146106a4578063b8232d5d14610705578063be6b414114610750578063be7d6226146107a7578063c5098c87146107e8578063c64a2e561461083f578063d62da0cd14610880578063d7be6332146108e1578063e5b38f8a14610946578063ebf0ba03146109b1578063f49916f5146109c8575b600080fd5b34801561017b57600080fd5b506101ba60048036038101908080359060200190929190803573ffffffffffffffffffffffffffffffffffffffff169060200190929190505050610a09565b6040518082815260200191505060405180910390f35b3480156101dc57600080fd5b506102056004803603810190808035906020019092919080359060200190929190505050610a2e565b6040518082815260200191505060405180910390f35b34801561022757600080fd5b506102506004803603810190808035906020019092919080359060200190929190505050610a53565b6040518082815260200191505060405180910390f35b34801561027257600080fd5b5061029160048036038101908080359060200190929190505050610a78565b604051808273ffffffffffffffffffffffffffffffffffffffff1673ffffffffffffffffffffffffffffffffffffffff16815260200191505060405180910390f35b3480156102df57600080fd5b5061031e60048036038101908080359060200190929190803573ffffffffffffffffffffffffffffffffffffffff169060200190929190505050610aab565b604051808215151515815260200191505060405180910390f35b34801561034457600080fd5b5061036360048036038101908080359060200190929190505050610ada565b6040518082815260200191505060405180910390f35b34801561038557600080fd5b506103ba600480360381019080803573ffffffffffffffffffffffffffffffffffffffff169060200190929190505050610af2565b6040518082815260200191505060405180910390f35b3480156103dc57600080fd5b506103fb60048036038101908080359060200190929190505050610b0a565b6040518082815260200191505060405180910390f35b34801561041d57600080fd5b506104466004803603810190808035906020019092919080359060200190929190505050610b22565b6040518082815260200191505060405180910390f35b34801561046857600080fd5b5061048760048036038101908080359060200190929190505050610b47565b6040518082815260200191505060405180910390f35b3480156104a957600080fd5b506104c860048036038101908080359060200190929190505050610b5f565b6040518082815260200191505060405180910390f35b3480156104ea57600080fd5b5061050960048036038101908080359060200190929190505050610b77565b6040518082815260200191505060405180910390f35b34801561052b57600080fd5b5061054a60048036038101908080359060200190929190505050610b8f565b6040518082815260200191505060405180910390f35b34801561056c57600080fd5b5061058b60048036038101908080359060200190929190505050610ba7565b604051808273ffffffffffffffffffffffffffffffffffffffff1673ffffffffffffffffffffffffffffffffffffffff16815260200191505060405180910390f35b3480156105d957600080fd5b506105e2610bda565b6040518082815260200191505060405180910390f35b34801561060457600080fd5b5061062d6004803603810190808035906020019092919080359060200190929190505050610be0565b6040518082815260200191505060405180910390f35b34801561064f57600080fd5b5061068e60048036038101908080359060200190929190803573ffffffffffffffffffffffffffffffffffffffff169060200190929190505050610c05565b6040518082815260200191505060405180910390f35b3480156106b057600080fd5b506106ef60048036038101908080359060200190929190803573ffffffffffffffffffffffffffffffffffffffff169060200190929190505050610c2a565b6040518082815260200191505060405180910390f35b34801561071157600080fd5b5061073a6004803603810190808035906020019092919080359060200190929190505050610c4f565b6040518082815260200191505060405180910390f35b34801561075c57600080fd5b50610791600480360381019080803573ffffffffffffffffffffffffffffffffffffffff169060200190929190505050610c74565b6040518082815260200191505060405180910390f35b3480156107b357600080fd5b506107d260048036038101908080359060200190929190505050610c8c565b6040518082815260200191505060405180910390f35b3480156107f457600080fd5b50610829600480360381019080803573ffffffffffffffffffffffffffffffffffffffff169060200190929190505050610ca4565b6040518082815260200191505060405180910390f35b34801561084b57600080fd5b5061086a60048036038101908080359060200190929190505050610cbc565b6040518082815260200191505060405180910390f35b34801561088c57600080fd5b506108cb600480360381019080803573ffffffffffffffffffffffffffffffffffffffff16906020019092919080359060200190929190505050610cd4565b6040518082815260200191505060405180910390f35b3480156108ed57600080fd5b5061092c600480360381019080803573ffffffffffffffffffffffffffffffffffffffff16906020019092919080359060200190929190505050610cf9565b604051808215151515815260200191505060405180910390f35b34801561095257600080fd5b5061099b600480360381019080803573ffffffffffffffffffffffffffffffffffffffff1690602001909291908035906020019092919080359060200190929190505050610d28565b6040518082815260200191505060405180910390f35b3480156109bd57600080fd5b506109c6610d5a565b005b3480156109d457600080fd5b506109f360048036038101908080359060200190929190505050611373565b6040518082815260200191505060405180910390f35b6014602052816000526040600020602052806000526040600020600091509150505481565b600b602052816000526040600020602052806000526040600020600091509150505481565b6003602052816000526040600020602052806000526040600020600091509150505481565b60156020528060005260406000206000915054906101000a900473ffffffffffffffffffffffffffffffffffffffff1681565b60176020528160005260406000206020528060005260406000206000915091509054906101000a900460ff1681565b600c6020528060005260406000206000915090505481565b60186020528060005260406000206000915090505481565b60166020528060005260406000206000915090505481565b6002602052816000526040600020602052806000526040600020600091509150505481565b60066020528060005260406000206000915090505481565b600d6020528060005260406000206000915090505481565b60096020528060005260406000206000915090505481565b60076020528060005260406000206000915090505481565b60086020528060005260406000206000915054906101000a900473ffffffffffffffffffffffffffffffffffffffff1681565b60195481565b6005602052816000526040600020602052806000526040600020600091509150505481565b6013602052816000526040600020602052806000526040600020600091509150505481565b600e602052816000526040600020602052806000526040600020600091509150505481565b6001602052816000526040600020602052806000526040600020600091509150505481565b601a6020528060005260406000206000915090505481565b60006020528060005260406000206000915090505481565b600f6020528060005260406000206000915090505481565b60046020528060005260406000206000915090505481565b6011602052816000526040600020602052806000526040600020600091509150505481565b60126020528160005260406000206020528060005260406000206000915091509054906101000a900460ff1681565b601060205282600052604060002060205281600052604060002060205280600052604060002060009250925050505481565b600080600080600080600080601860003373ffffffffffffffffffffffffffffffffffffffff1673ffffffffffffffffffffffffffffffffffffffff16815260200190815260200160002054975060001515601260003373ffffffffffffffffffffffffffffffffffffffff1673ffffffffffffffffffffffffffffffffffffffff16815260200190815260200160002060008a815260200190815260200160002060009054906101000a900460ff161515148015610e2c57506002601660008a815260200190815260200160002054145b1515610ec6576040517f08c379a00000000000000000000000000000000000000000000000000000000081526004018080602001828103825260328152602001807f42616e6b206f6620636f6c6f7220776173206e6f7420706c6179656420696e2081526020017f796f7572206c61737420726f756e642e2e2e000000000000000000000000000081525060400191505060405180910390fd5b600a6000898152602001908152602001600020549650600d60008981526020019081526020016000205495506001601860003373ffffffffffffffffffffffffffffffffffffffff1673ffffffffffffffffffffffffffffffffffffffff16815260200190815260200160002054118015610f57575060016016600060018b03815260200190815260200160002054145b15610f69576201518086039450610f80565b600c60008981526020019081526020016000205494505b600e600088815260200190815260200160002060003373ffffffffffffffffffffffffffffffffffffffff1673ffffffffffffffffffffffffffffffffffffffff1681526020019081526020016000205492508291505b600082111561107e57601060003373ffffffffffffffffffffffffffffffffffffffff1673ffffffffffffffffffffffffffffffffffffffff168152602001908152602001600020600088815260200190815260200160002060008381526020019081526020016000205490508481101580156110545750858111155b156110705761106d60018561138b90919063ffffffff16565b93505b818060019003925050610fd7565b6110da600b60008a81526020019081526020016000206000898152602001908152602001600020546110cc600460008c815260200190815260200160002054876113ac90919063ffffffff16565b6113ea90919063ffffffff16565b601360008a815260200190815260200160002060003373ffffffffffffffffffffffffffffffffffffffff1673ffffffffffffffffffffffffffffffffffffffff168152602001908152602001600020600082825401925050819055506013600089815260200190815260200160002060003373ffffffffffffffffffffffffffffffffffffffff1673ffffffffffffffffffffffffffffffffffffffff16815260200190815260200160002054601a60003373ffffffffffffffffffffffffffffffffffffffff1673ffffffffffffffffffffffffffffffffffffffff168152602001908152602001600020600082825401925050819055503373ffffffffffffffffffffffffffffffffffffffff166108fc601360008b815260200190815260200160002060003373ffffffffffffffffffffffffffffffffffffffff1673ffffffffffffffffffffffffffffffffffffffff168152602001908152602001600020549081150290604051600060405180830381858888f1935050505015801561126a573d6000803e3d6000fd5b506001601260003373ffffffffffffffffffffffffffffffffffffffff1673ffffffffffffffffffffffffffffffffffffffff16815260200190815260200160002060008a815260200190815260200160002060006101000a81548160ff0219169083151502179055506013600089815260200190815260200160002060003373ffffffffffffffffffffffffffffffffffffffff1673ffffffffffffffffffffffffffffffffffffffff16815260200190815260200160002054883373ffffffffffffffffffffffffffffffffffffffff167fff0e3cc6a8358bbcae69e6c859a508401151d25fe2552fc59ca6f31b37461b5060405160405180910390a45050505050505050565b600a6020528060005260406000206000915090505481565b60008082840190508381101515156113a257600080fd5b8091505092915050565b60008060008414156113c157600091506113e3565b82840290508284828115156113d257fe5b041415156113df57600080fd5b8091505b5092915050565b6000806000831115156113fc57600080fd5b828481151561140757fe5b04905080915050929150505600a165627a7a723058208df2683be40b753f40817838bd575cac1dfe249c957d1f4a4b0201330fa7d8ba0029",
  "source": "pragma solidity ^0.4.24;\n\nimport \"./RoundDataHolder.sol\";\n\ncontract ColorBankDistributor is RoundDataHolder  {\n    \n    using SafeMath for uint;\n    \n    //сколько всего банка цвета выиграл адрес (в сумме за все время) (адрес => сумма общего выигрыша)\n    mapping(address => uint) public addressToColorBankPrizeTotal; \n    \n    event ColorBankPlayed(address indexed winner, uint indexed winnerColor, uint indexed currentRound);\n    event ColorBankPrizeDistributed(address indexed winner, uint indexed round, uint indexed amount);\n    \n    //запросить приз банка цвета за послений раунд в котором пользователь принимал участие\n    function claimColorBankPrizeForLastPlayedRound() public {\n\n        //последний раунд в котором пользователь принимал участие\n        uint round = lastPlayedRound[msg.sender];\n\n        //функция может быть вызвана только если в последнем раунде был разыгран банк цвета\n       require(isPrizeDistributedForRound[msg.sender][round] == false && winnerBankForRound[round] == 2, \"Bank of color was not played in your last round...\");\n\n        //выигрышый цвет за последний раунд в котором пользователь принимал участие\n        uint winnerColor = winnerColorForRound[round];\n\n        //время завершения сбора команды приза для раунда\n        uint end = teamEndedTimeForRound[round];\n\n        //время начала сбора команды приза для раунда\n        uint start;\n\n        if (lastPlayedRound[msg.sender] > 1 && winnerBankForRound[round - 1] == 1)\n            start = end - 24 hours;\n        else \n            start = teamStartedTimeForRound[round];\n\n        //cчетчик количества закрашиваний\n        uint counter;\n\n        \n        //счетчик общего количества закрашиваний выигрышным цветом для пользователя за раунд     \n        //uint total = colorToAddressToTotalCounterForRound[round][winnerColor][msg.sender]; \n\n        //счетчик общего количества закрашиваний выигрышным цветом для пользователя\n        uint total = colorToUserToTotalCounter[winnerColor][msg.sender];\n\n         //считаем сколько закрашиваний выигрышным цветом произвел пользователь за последние 24 часа\n        for (uint i = total; i > 0; i--) {\n            //uint timeStamp = addressToColorToCounterToTimestampForRound[round][msg.sender][winnerColor][i];\n            uint timeStamp = userToColorToCounterToTimestamp[msg.sender][winnerColor][i];\n            if (timeStamp >= start && timeStamp <= end)\n                counter = counter.add(1);\n        }\n\n        //устанавливаем какую часть от банка цвета выиграл адрес за последний раунд в котором принимал участие\n        addressToColorBankPrizeForRound[round][msg.sender] += counter.mul(colorBankForRound[round]).div(colorToTotalPaintsForRound[round][winnerColor]);\n\n        //добавляем полученное значение в сумму выигрышей банка цвета пользователем за все время\n        addressToColorBankPrizeTotal[msg.sender] += addressToColorBankPrizeForRound[round][msg.sender];\n\n         //переводим пользователю его выигрыш за последний раунд в котором он принимал участие\n        msg.sender.transfer(addressToColorBankPrizeForRound[round][msg.sender]);\n\n        //устанавливаем булевое значение о том, что пользователь получил свой приз за раунд\n        isPrizeDistributedForRound[msg.sender][round] = true;\n\n        //вызываем ивент - о том, что приз банка цвета распределен пользователю (адрес, раунд, выигрыш)\n        emit ColorBankPrizeDistributed(msg.sender, round, addressToColorBankPrizeForRound[round][msg.sender]);\n    }\n    \n    //функция распределения банка цвета\n    function _distributeColorBank() internal { \n\n        //время начала сбора команды раунда (24 часа назад)\n        teamStartedTimeForRound[currentRound] = now - 24 hours;\n\n        //время завершения сбора команды раунда (сейчас)\n        teamEndedTimeForRound[currentRound] = now;\n\n        //победитель текущего раунда - последний закрасивший пиксель пользователь за этот раунд\n        winnerOfRound[currentRound] = lastPainterForRound[currentRound];\n        \n        //Checks-Effects-Interactions pattern\n        uint amountToTransfer = colorBankForRound[currentRound].mul(50).div(100);\n    \n        //переводим 50% банка цвета победителю текущего раунда\n        winnerOfRound[currentRound].transfer(amountToTransfer);\n               \n        //разыгранный банк этого раунда = банк цвета (2)\n        winnerBankForRound[currentRound] = 2;\n\n        //50% банка цвета распределится между командой цвета раунда\n        colorBankForRound[currentRound] = colorBankForRound[currentRound].mul(50).div(100); \n\n        //банк времени переносится на следующий раунд\n        timeBankForRound[currentRound + 1] = timeBankForRound[currentRound];\n\n        //банк времени в текущем раунде обнуляется\n        timeBankForRound[currentRound] = 0;\n\n        //ивент - был разыгран банк времени (победитель, победивший цвет раунд)\n        emit ColorBankPlayed(winnerOfRound[currentRound], winnerColorForRound[currentRound], currentRound);\n        \n        //следующий раунд\n        currentRound = currentRound.add(1); \n    }\n}",
  "sourcePath": "/Users/Amir/last-pixel-contracts/contracts/ColorBankDistributor.sol",
  "compiler": {
    "name": "solc",
    "version": "0.4.24+commit.e67f0147.Emscripten.clang"
  },
  "schemaVersion": "2.0.1",
  "updatedAt": "2018-12-27T11:38:47.465Z"
}