{
  "contractName": "DividendsDistributor",
  "abi": [
    {
      "constant": true,
      "inputs": [
        {
          "name": "",
          "type": "uint256"
        }
      ],
      "name": "ownerOfColor",
      "outputs": [
        {
          "name": "",
          "type": "address"
        }
      ],
      "payable": false,
      "stateMutability": "view",
      "type": "function"
    },
    {
      "constant": true,
      "inputs": [],
      "name": "founders",
      "outputs": [
        {
          "name": "",
          "type": "address"
        }
      ],
      "payable": false,
      "stateMutability": "view",
      "type": "function"
    },
    {
      "constant": true,
      "inputs": [],
      "name": "ownerOfPixel",
      "outputs": [
        {
          "name": "",
          "type": "address"
        }
      ],
      "payable": false,
      "stateMutability": "view",
      "type": "function"
    },
    {
      "constant": true,
      "inputs": [],
      "name": "dividendsBank",
      "outputs": [
        {
          "name": "",
          "type": "uint256"
        }
      ],
      "payable": false,
      "stateMutability": "view",
      "type": "function"
    },
    {
      "constant": true,
      "inputs": [
        {
          "name": "",
          "type": "address"
        }
      ],
      "name": "withdrawalBalances",
      "outputs": [
        {
          "name": "",
          "type": "uint256"
        }
      ],
      "payable": false,
      "stateMutability": "view",
      "type": "function"
    },
    {
      "inputs": [],
      "payable": false,
      "stateMutability": "nonpayable",
      "type": "constructor"
    },
    {
      "anonymous": false,
      "inputs": [
        {
          "indexed": true,
          "name": "withdrawer",
          "type": "address"
        },
        {
          "indexed": true,
          "name": "currentBlock",
          "type": "uint256"
        },
        {
          "indexed": true,
          "name": "amount",
          "type": "uint256"
        }
      ],
      "name": "DividendsWithdrawn",
      "type": "event"
    },
    {
      "constant": false,
      "inputs": [],
      "name": "claimDividends",
      "outputs": [],
      "payable": false,
      "stateMutability": "nonpayable",
      "type": "function"
    }
  ],
  "bytecode": "0x608060405273ca35b7d915458ef540ade6068dfe2f44e8fa733c600460006101000a81548173ffffffffffffffffffffffffffffffffffffffff021916908373ffffffffffffffffffffffffffffffffffffffff160217905550735ac77c56772a1819663ae375c9a2da2de34307ef600560006101000a81548173ffffffffffffffffffffffffffffffffffffffff021916908373ffffffffffffffffffffffffffffffffffffffff1602179055503480156100ba57600080fd5b506000600190505b60088111151561013e5773bf0e4036bf968dd007f9b4a1bfda4e54c042f61260008083815260200190815260200160002060006101000a81548173ffffffffffffffffffffffffffffffffffffffff021916908373ffffffffffffffffffffffffffffffffffffffff16021790555080806001019150506100c2565b506105338061014e6000396000f300608060405260043610610078576000357c0100000000000000000000000000000000000000000000000000000000900463ffffffff1680630baaea441461007d578063411b007e146100ea578063668038e014610141578063a977e16814610158578063f5f95b3b146101af578063fb454d29146101da575b600080fd5b34801561008957600080fd5b506100a860048036038101908080359060200190929190505050610231565b604051808273ffffffffffffffffffffffffffffffffffffffff1673ffffffffffffffffffffffffffffffffffffffff16815260200191505060405180910390f35b3480156100f657600080fd5b506100ff610264565b604051808273ffffffffffffffffffffffffffffffffffffffff1673ffffffffffffffffffffffffffffffffffffffff16815260200191505060405180910390f35b34801561014d57600080fd5b5061015661028a565b005b34801561016457600080fd5b5061016d6104c3565b604051808273ffffffffffffffffffffffffffffffffffffffff1673ffffffffffffffffffffffffffffffffffffffff16815260200191505060405180910390f35b3480156101bb57600080fd5b506101c46104e9565b6040518082815260200191505060405180910390f35b3480156101e657600080fd5b5061021b600480360381019080803573ffffffffffffffffffffffffffffffffffffffff1690602001909291905050506104ef565b6040518082815260200191505060405180910390f35b60006020528060005260406000206000915054906101000a900473ffffffffffffffffffffffffffffffffffffffff1681565b600560009054906101000a900473ffffffffffffffffffffffffffffffffffffffff1681565b600080600160003373ffffffffffffffffffffffffffffffffffffffff1673ffffffffffffffffffffffffffffffffffffffff1681526020019081526020016000205414151515610369576040517f08c379a00000000000000000000000000000000000000000000000000000000081526004018080602001828103825260228152602001807f596f7572207769746864726177616c2062616c616e6365206973207a65726f2e81526020017f2e2e00000000000000000000000000000000000000000000000000000000000081525060400191505060405180910390fd5b600160003373ffffffffffffffffffffffffffffffffffffffff1673ffffffffffffffffffffffffffffffffffffffff1681526020019081526020016000205490506000600160003373ffffffffffffffffffffffffffffffffffffffff1673ffffffffffffffffffffffffffffffffffffffff168152602001908152602001600020819055503373ffffffffffffffffffffffffffffffffffffffff166108fc829081150290604051600060405180830381858888f19350505050158015610436573d6000803e3d6000fd5b5042600260003373ffffffffffffffffffffffffffffffffffffffff1673ffffffffffffffffffffffffffffffffffffffff1681526020019081526020016000208190555080423373ffffffffffffffffffffffffffffffffffffffff167f1a983dd8fc1bd566844e816cd39bafaebd6523281477df579d3252da34a251d960405160405180910390a450565b600460009054906101000a900473ffffffffffffffffffffffffffffffffffffffff1681565b60035481565b600160205280600052604060002060009150905054815600a165627a7a72305820f3d95cf577b7169d4e71b05cc9dd9e64d795499c307655100a63cb3c9c03fcf00029",
  "source": "pragma solidity ^0.4.24;\n\nimport \"../node_modules/openzeppelin-solidity/contracts/math/SafeMath.sol\";\nimport \"./IColor.sol\";\n\ncontract DividendsDistributor {\n    \n    using SafeMath for uint;\n    \n    // Color color = Color(0x7899946bc29f3ab7443903bcc03e8a38407bb44a);\n    \n    mapping (uint => address) public ownerOfColor;\n    \n    constructor() {\n\n        // for (uint i = 1; i < color.totalSupply(); i++) {\n        //     ownerOfColor[i] = color.ownerOf(i);\n        // }0xbF0e4036BF968dD007F9B4A1BFdA4e54C042F612\n\n        for (uint i = 1; i <= 8; i++) {\n            ownerOfColor[i] = 0xbF0e4036BF968dD007F9B4A1BFdA4e54C042F612;\n        }\n    }\n    \n    //балансы доступные для вывода (накопленный пассивный доход за все раунды)\n    mapping (address => uint) public withdrawalBalances; \n    \n    //время последнего вывода пассивного дохода для адреса для любого раунда (адрес => время)\n    mapping (address => uint) addressToLastWithdrawalTime; \n    \n    //банк пассивных доходов\n    uint public dividendsBank;\n    \n    event DividendsWithdrawn(address indexed withdrawer, uint indexed currentBlock, uint indexed amount);\n    \n    //функция запроса вывода дивидендов (пассивного дохода)\n    function claimDividends() external {\n\n        //функция не может быть вызвана, если баланс для вывода пользователя равен нулю\n        require(withdrawalBalances[msg.sender] != 0, \"Your withdrawal balance is zero...\");\n\n        //Checks-Effects-Interactions pattern\n        uint withdrawalAmount = withdrawalBalances[msg.sender];\n\n        //обнуляем баланс для вывода для пользователя\n        withdrawalBalances[msg.sender] = 0;\n\n        //перевести пользователю баланс для вывода\n        msg.sender.transfer(withdrawalAmount);\n        \n        //устанавливаем время последнего вывода средств для пользователя\n        addressToLastWithdrawalTime[msg.sender] = now;\n        \n        //вызываем ивент о том, что дивиденды выплачены (адрес, время вывода, количество вывода)\n        emit DividendsWithdrawn(msg.sender, now, withdrawalAmount);\n        \n    }\n\n     // захардкоженные адреса для тестирования функции claimDividens()\n    // в продакшене это будут адреса бенефециариев Цветов и Пикселей : withdrawalBalances[ownerOf(_pixel)], withdrawalBalances[ownerOf(_color)]\n    //address public ownerOfColor = 0xf106a93c5ca900bfae6345b61fcfae9d75cb031d;\n    address public ownerOfPixel = 0xca35b7d915458ef540ade6068dfe2f44e8fa733c;\n    address public founders = 0x5ac77c56772a1819663ae375c9a2da2de34307ef;\n   \n    //функция распределения дивидендов (пассивных доходов) - будет работать после подключения инстансов контрактов Цвета и Пикселя\n    function _distributeDividends(uint _color) internal {\n        \n        //require(ownerOfColor[_color] != address(0), \"There is no such color\");\n\n        //25% дивидендов распределяем организаторам (может быть смарт контракт)\n        withdrawalBalances[founders] = withdrawalBalances[founders].add(dividendsBank.mul(25).div(100)); \n    \n        //25% дивидендов распределяем бенефециарию цвета\n        withdrawalBalances[ownerOfColor[_color]] += dividendsBank.mul(25).div(100);\n    \n        //25% дивидендов распределяем бенефециарию пикселя\n        withdrawalBalances[ownerOfPixel] += dividendsBank.mul(25).div(100);\n    \n        //25% дивидендов распределяем реферреру, если он есть\n        // withdrawalBalances[referrer] += dividendsBank.mul(25).div(100);\n    }\n}",
  "sourcePath": "/Users/Amir/last-pixel-contracts/contracts/DividendsDistributor.sol",
  "compiler": {
    "name": "solc",
    "version": "0.4.24+commit.e67f0147.Emscripten.clang"
  },
  "schemaVersion": "2.0.1",
  "updatedAt": "2018-12-07T04:37:56.801Z"
}