{
  "contractName": "DividendsDistributor",
  "abi": [
    {
      "constant": true,
      "inputs": [],
      "name": "isGamePaused",
      "outputs": [
        {
          "name": "",
          "type": "bool"
        }
      ],
      "payable": false,
      "stateMutability": "view",
      "type": "function"
    },
    {
      "constant": true,
      "inputs": [
        {
          "name": "",
          "type": "uint256"
        },
        {
          "name": "",
          "type": "address"
        }
      ],
      "name": "isInTBT",
      "outputs": [
        {
          "name": "",
          "type": "bool"
        }
      ],
      "payable": false,
      "stateMutability": "view",
      "type": "function"
    },
    {
      "constant": true,
      "inputs": [
        {
          "name": "",
          "type": "bytes32"
        }
      ],
      "name": "refLinkToUser",
      "outputs": [
        {
          "name": "",
          "type": "address"
        }
      ],
      "payable": false,
      "stateMutability": "view",
      "type": "function"
    },
    {
      "constant": true,
      "inputs": [
        {
          "name": "",
          "type": "uint256"
        }
      ],
      "name": "ownerOfColor",
      "outputs": [
        {
          "name": "",
          "type": "address"
        }
      ],
      "payable": false,
      "stateMutability": "view",
      "type": "function"
    },
    {
      "constant": true,
      "inputs": [
        {
          "name": "",
          "type": "uint256"
        },
        {
          "name": "",
          "type": "uint256"
        }
      ],
      "name": "colorToPaintedPixelsAmountForRound",
      "outputs": [
        {
          "name": "",
          "type": "uint256"
        }
      ],
      "payable": false,
      "stateMutability": "view",
      "type": "function"
    },
    {
      "constant": true,
      "inputs": [],
      "name": "tbIteration",
      "outputs": [
        {
          "name": "",
          "type": "uint256"
        }
      ],
      "payable": false,
      "stateMutability": "view",
      "type": "function"
    },
    {
      "constant": true,
      "inputs": [
        {
          "name": "",
          "type": "uint256"
        }
      ],
      "name": "winnerOfRound",
      "outputs": [
        {
          "name": "",
          "type": "address"
        }
      ],
      "payable": false,
      "stateMutability": "view",
      "type": "function"
    },
    {
      "constant": true,
      "inputs": [
        {
          "name": "",
          "type": "uint256"
        }
      ],
      "name": "timeBankDrawnForRound",
      "outputs": [
        {
          "name": "",
          "type": "bool"
        }
      ],
      "payable": false,
      "stateMutability": "view",
      "type": "function"
    },
    {
      "constant": true,
      "inputs": [
        {
          "name": "",
          "type": "address"
        }
      ],
      "name": "hasReferrer",
      "outputs": [
        {
          "name": "",
          "type": "bool"
        }
      ],
      "payable": false,
      "stateMutability": "view",
      "type": "function"
    },
    {
      "constant": true,
      "inputs": [
        {
          "name": "",
          "type": "uint256"
        },
        {
          "name": "",
          "type": "uint256"
        }
      ],
      "name": "colorToTotalPaintsForCBIteration",
      "outputs": [
        {
          "name": "",
          "type": "uint256"
        }
      ],
      "payable": false,
      "stateMutability": "view",
      "type": "function"
    },
    {
      "constant": true,
      "inputs": [],
      "name": "totalColorsNumber",
      "outputs": [
        {
          "name": "",
          "type": "uint256"
        }
      ],
      "payable": false,
      "stateMutability": "view",
      "type": "function"
    },
    {
      "constant": true,
      "inputs": [
        {
          "name": "",
          "type": "address"
        }
      ],
      "name": "isRegisteredUser",
      "outputs": [
        {
          "name": "",
          "type": "bool"
        }
      ],
      "payable": false,
      "stateMutability": "view",
      "type": "function"
    },
    {
      "constant": true,
      "inputs": [
        {
          "name": "",
          "type": "uint256"
        },
        {
          "name": "",
          "type": "address"
        }
      ],
      "name": "hasPaintDiscountForColor",
      "outputs": [
        {
          "name": "",
          "type": "bool"
        }
      ],
      "payable": false,
      "stateMutability": "view",
      "type": "function"
    },
    {
      "constant": true,
      "inputs": [],
      "name": "isTBPDistributable",
      "outputs": [
        {
          "name": "",
          "type": "bool"
        }
      ],
      "payable": false,
      "stateMutability": "view",
      "type": "function"
    },
    {
      "constant": true,
      "inputs": [
        {
          "name": "",
          "type": "address"
        }
      ],
      "name": "isAdmin",
      "outputs": [
        {
          "name": "",
          "type": "bool"
        }
      ],
      "payable": false,
      "stateMutability": "view",
      "type": "function"
    },
    {
      "constant": true,
      "inputs": [
        {
          "name": "",
          "type": "uint256"
        }
      ],
      "name": "currentPaintGenForColor",
      "outputs": [
        {
          "name": "",
          "type": "uint256"
        }
      ],
      "payable": false,
      "stateMutability": "view",
      "type": "function"
    },
    {
      "constant": true,
      "inputs": [
        {
          "name": "",
          "type": "address"
        }
      ],
      "name": "lastPlayedRound",
      "outputs": [
        {
          "name": "",
          "type": "uint256"
        }
      ],
      "payable": false,
      "stateMutability": "view",
      "type": "function"
    },
    {
      "constant": true,
      "inputs": [
        {
          "name": "",
          "type": "uint256"
        },
        {
          "name": "",
          "type": "address"
        }
      ],
      "name": "moneySpentByUserForColor",
      "outputs": [
        {
          "name": "",
          "type": "uint256"
        }
      ],
      "payable": false,
      "stateMutability": "view",
      "type": "function"
    },
    {
      "constant": true,
      "inputs": [
        {
          "name": "",
          "type": "uint256"
        },
        {
          "name": "",
          "type": "uint256"
        }
      ],
      "name": "tbTeam",
      "outputs": [
        {
          "name": "",
          "type": "address"
        }
      ],
      "payable": false,
      "stateMutability": "view",
      "type": "function"
    },
    {
      "constant": true,
      "inputs": [
        {
          "name": "",
          "type": "uint256"
        },
        {
          "name": "",
          "type": "address"
        }
      ],
      "name": "painterToTBP",
      "outputs": [
        {
          "name": "",
          "type": "uint256"
        }
      ],
      "payable": false,
      "stateMutability": "view",
      "type": "function"
    },
    {
      "constant": true,
      "inputs": [
        {
          "name": "",
          "type": "uint256"
        },
        {
          "name": "",
          "type": "uint256"
        }
      ],
      "name": "paintGenToStartTimeForColor",
      "outputs": [
        {
          "name": "",
          "type": "uint256"
        }
      ],
      "payable": false,
      "stateMutability": "view",
      "type": "function"
    },
    {
      "constant": true,
      "inputs": [
        {
          "name": "",
          "type": "uint256"
        }
      ],
      "name": "callPriceForColor",
      "outputs": [
        {
          "name": "",
          "type": "uint256"
        }
      ],
      "payable": false,
      "stateMutability": "view",
      "type": "function"
    },
    {
      "constant": true,
      "inputs": [
        {
          "name": "",
          "type": "uint256"
        },
        {
          "name": "",
          "type": "address"
        }
      ],
      "name": "painterToCBP",
      "outputs": [
        {
          "name": "",
          "type": "uint256"
        }
      ],
      "payable": false,
      "stateMutability": "view",
      "type": "function"
    },
    {
      "constant": true,
      "inputs": [
        {
          "name": "",
          "type": "uint256"
        }
      ],
      "name": "winnerBankForRound",
      "outputs": [
        {
          "name": "",
          "type": "uint256"
        }
      ],
      "payable": false,
      "stateMutability": "view",
      "type": "function"
    },
    {
      "constant": true,
      "inputs": [],
      "name": "paintsCounter",
      "outputs": [
        {
          "name": "",
          "type": "uint256"
        }
      ],
      "payable": false,
      "stateMutability": "view",
      "type": "function"
    },
    {
      "constant": true,
      "inputs": [],
      "name": "founders",
      "outputs": [
        {
          "name": "",
          "type": "address"
        }
      ],
      "payable": false,
      "stateMutability": "view",
      "type": "function"
    },
    {
      "constant": true,
      "inputs": [
        {
          "name": "",
          "type": "address"
        }
      ],
      "name": "newUserToCounter",
      "outputs": [
        {
          "name": "",
          "type": "uint256"
        }
      ],
      "payable": false,
      "stateMutability": "view",
      "type": "function"
    },
    {
      "constant": true,
      "inputs": [
        {
          "name": "",
          "type": "uint256"
        },
        {
          "name": "",
          "type": "uint256"
        }
      ],
      "name": "counterToPainterForColor",
      "outputs": [
        {
          "name": "",
          "type": "address"
        }
      ],
      "payable": false,
      "stateMutability": "view",
      "type": "function"
    },
    {
      "constant": true,
      "inputs": [
        {
          "name": "",
          "type": "uint256"
        },
        {
          "name": "",
          "type": "uint256"
        }
      ],
      "name": "pixelToOldColorForRound",
      "outputs": [
        {
          "name": "",
          "type": "uint256"
        }
      ],
      "payable": false,
      "stateMutability": "view",
      "type": "function"
    },
    {
      "constant": true,
      "inputs": [
        {
          "name": "",
          "type": "uint256"
        }
      ],
      "name": "isTBPTransfered",
      "outputs": [
        {
          "name": "",
          "type": "bool"
        }
      ],
      "payable": false,
      "stateMutability": "view",
      "type": "function"
    },
    {
      "constant": true,
      "inputs": [
        {
          "name": "",
          "type": "uint256"
        }
      ],
      "name": "timeBankForRound",
      "outputs": [
        {
          "name": "",
          "type": "uint256"
        }
      ],
      "payable": false,
      "stateMutability": "view",
      "type": "function"
    },
    {
      "constant": true,
      "inputs": [
        {
          "name": "",
          "type": "address"
        }
      ],
      "name": "userToRefLink",
      "outputs": [
        {
          "name": "",
          "type": "string"
        }
      ],
      "payable": false,
      "stateMutability": "view",
      "type": "function"
    },
    {
      "constant": true,
      "inputs": [],
      "name": "claimId",
      "outputs": [
        {
          "name": "",
          "type": "uint256"
        }
      ],
      "payable": false,
      "stateMutability": "view",
      "type": "function"
    },
    {
      "constant": true,
      "inputs": [
        {
          "name": "",
          "type": "uint256"
        },
        {
          "name": "",
          "type": "uint256"
        }
      ],
      "name": "cbTeam",
      "outputs": [
        {
          "name": "",
          "type": "address"
        }
      ],
      "payable": false,
      "stateMutability": "view",
      "type": "function"
    },
    {
      "constant": true,
      "inputs": [
        {
          "name": "",
          "type": "uint256"
        },
        {
          "name": "",
          "type": "uint256"
        }
      ],
      "name": "paintGenStartedForColor",
      "outputs": [
        {
          "name": "",
          "type": "bool"
        }
      ],
      "payable": false,
      "stateMutability": "view",
      "type": "function"
    },
    {
      "constant": true,
      "inputs": [
        {
          "name": "",
          "type": "uint256"
        }
      ],
      "name": "lastPaintedPixelForRound",
      "outputs": [
        {
          "name": "",
          "type": "uint256"
        }
      ],
      "payable": false,
      "stateMutability": "view",
      "type": "function"
    },
    {
      "constant": true,
      "inputs": [
        {
          "name": "",
          "type": "uint256"
        }
      ],
      "name": "nextCallPriceForColor",
      "outputs": [
        {
          "name": "",
          "type": "uint256"
        }
      ],
      "payable": false,
      "stateMutability": "view",
      "type": "function"
    },
    {
      "constant": false,
      "inputs": [],
      "name": "renounceOwnership",
      "outputs": [],
      "payable": false,
      "stateMutability": "nonpayable",
      "type": "function"
    },
    {
      "constant": true,
      "inputs": [
        {
          "name": "",
          "type": "uint256"
        }
      ],
      "name": "lastPaintTimeForRound",
      "outputs": [
        {
          "name": "",
          "type": "uint256"
        }
      ],
      "payable": false,
      "stateMutability": "view",
      "type": "function"
    },
    {
      "constant": true,
      "inputs": [],
      "name": "isCBPDistributable",
      "outputs": [
        {
          "name": "",
          "type": "bool"
        }
      ],
      "payable": false,
      "stateMutability": "view",
      "type": "function"
    },
    {
      "constant": true,
      "inputs": [
        {
          "name": "",
          "type": "uint256"
        }
      ],
      "name": "lastPainterForRound",
      "outputs": [
        {
          "name": "",
          "type": "address"
        }
      ],
      "payable": false,
      "stateMutability": "view",
      "type": "function"
    },
    {
      "constant": true,
      "inputs": [
        {
          "name": "",
          "type": "address"
        }
      ],
      "name": "hasRefLink",
      "outputs": [
        {
          "name": "",
          "type": "bool"
        }
      ],
      "payable": false,
      "stateMutability": "view",
      "type": "function"
    },
    {
      "constant": true,
      "inputs": [
        {
          "name": "",
          "type": "address"
        },
        {
          "name": "",
          "type": "uint256"
        }
      ],
      "name": "referrerToReferrals",
      "outputs": [
        {
          "name": "",
          "type": "address"
        }
      ],
      "payable": false,
      "stateMutability": "view",
      "type": "function"
    },
    {
      "constant": true,
      "inputs": [],
      "name": "currentRound",
      "outputs": [
        {
          "name": "",
          "type": "uint256"
        }
      ],
      "payable": false,
      "stateMutability": "view",
      "type": "function"
    },
    {
      "constant": true,
      "inputs": [],
      "name": "owner",
      "outputs": [
        {
          "name": "",
          "type": "address"
        }
      ],
      "payable": false,
      "stateMutability": "view",
      "type": "function"
    },
    {
      "constant": true,
      "inputs": [
        {
          "name": "",
          "type": "uint256"
        }
      ],
      "name": "paintsCounterForColor",
      "outputs": [
        {
          "name": "",
          "type": "uint256"
        }
      ],
      "payable": false,
      "stateMutability": "view",
      "type": "function"
    },
    {
      "constant": true,
      "inputs": [],
      "name": "isOwner",
      "outputs": [
        {
          "name": "",
          "type": "bool"
        }
      ],
      "payable": false,
      "stateMutability": "view",
      "type": "function"
    },
    {
      "constant": true,
      "inputs": [
        {
          "name": "",
          "type": "uint256"
        },
        {
          "name": "",
          "type": "uint256"
        }
      ],
      "name": "pixelToPaintTimeForRound",
      "outputs": [
        {
          "name": "",
          "type": "uint256"
        }
      ],
      "payable": false,
      "stateMutability": "view",
      "type": "function"
    },
    {
      "constant": true,
      "inputs": [
        {
          "name": "",
          "type": "uint256"
        },
        {
          "name": "",
          "type": "uint256"
        }
      ],
      "name": "colorBankToColorForRound",
      "outputs": [
        {
          "name": "",
          "type": "uint256"
        }
      ],
      "payable": false,
      "stateMutability": "view",
      "type": "function"
    },
    {
      "constant": true,
      "inputs": [
        {
          "name": "",
          "type": "uint256"
        }
      ],
      "name": "claims",
      "outputs": [
        {
          "name": "id",
          "type": "uint256"
        },
        {
          "name": "claimer",
          "type": "address"
        },
        {
          "name": "isResolved",
          "type": "bool"
        },
        {
          "name": "timestamp",
          "type": "uint256"
        }
      ],
      "payable": false,
      "stateMutability": "view",
      "type": "function"
    },
    {
      "constant": true,
      "inputs": [],
      "name": "ownerOfPixel",
      "outputs": [
        {
          "name": "",
          "type": "address"
        }
      ],
      "payable": false,
      "stateMutability": "view",
      "type": "function"
    },
    {
      "constant": true,
      "inputs": [
        {
          "name": "",
          "type": "uint256"
        },
        {
          "name": "",
          "type": "address"
        }
      ],
      "name": "isInCBT",
      "outputs": [
        {
          "name": "",
          "type": "bool"
        }
      ],
      "payable": false,
      "stateMutability": "view",
      "type": "function"
    },
    {
      "constant": true,
      "inputs": [
        {
          "name": "",
          "type": "uint256"
        }
      ],
      "name": "counterToPainter",
      "outputs": [
        {
          "name": "",
          "type": "address"
        }
      ],
      "payable": false,
      "stateMutability": "view",
      "type": "function"
    },
    {
      "constant": true,
      "inputs": [
        {
          "name": "",
          "type": "uint256"
        },
        {
          "name": "",
          "type": "address"
        }
      ],
      "name": "timeBankShare",
      "outputs": [
        {
          "name": "",
          "type": "uint256"
        }
      ],
      "payable": false,
      "stateMutability": "view",
      "type": "function"
    },
    {
      "constant": true,
      "inputs": [
        {
          "name": "",
          "type": "uint256"
        },
        {
          "name": "",
          "type": "uint256"
        },
        {
          "name": "",
          "type": "address"
        }
      ],
      "name": "colorBankShare",
      "outputs": [
        {
          "name": "",
          "type": "uint256"
        }
      ],
      "payable": false,
      "stateMutability": "view",
      "type": "function"
    },
    {
      "constant": true,
      "inputs": [
        {
          "name": "",
          "type": "uint256"
        },
        {
          "name": "",
          "type": "uint256"
        }
      ],
      "name": "pixelToColorForRound",
      "outputs": [
        {
          "name": "",
          "type": "uint256"
        }
      ],
      "payable": false,
      "stateMutability": "view",
      "type": "function"
    },
    {
      "constant": true,
      "inputs": [
        {
          "name": "",
          "type": "address"
        }
      ],
      "name": "isTeamMember",
      "outputs": [
        {
          "name": "",
          "type": "bool"
        }
      ],
      "payable": false,
      "stateMutability": "view",
      "type": "function"
    },
    {
      "constant": true,
      "inputs": [
        {
          "name": "",
          "type": "uint256"
        }
      ],
      "name": "totalPaintsForRound",
      "outputs": [
        {
          "name": "",
          "type": "uint256"
        }
      ],
      "payable": false,
      "stateMutability": "view",
      "type": "function"
    },
    {
      "constant": true,
      "inputs": [
        {
          "name": "",
          "type": "uint256"
        }
      ],
      "name": "colorBankForRound",
      "outputs": [
        {
          "name": "",
          "type": "uint256"
        }
      ],
      "payable": false,
      "stateMutability": "view",
      "type": "function"
    },
    {
      "constant": true,
      "inputs": [
        {
          "name": "",
          "type": "uint256"
        },
        {
          "name": "",
          "type": "uint256"
        }
      ],
      "name": "paintGenToEndTimeForColor",
      "outputs": [
        {
          "name": "",
          "type": "uint256"
        }
      ],
      "payable": false,
      "stateMutability": "view",
      "type": "function"
    },
    {
      "constant": true,
      "inputs": [],
      "name": "uniqueUsersCount",
      "outputs": [
        {
          "name": "",
          "type": "uint256"
        }
      ],
      "payable": false,
      "stateMutability": "view",
      "type": "function"
    },
    {
      "constant": true,
      "inputs": [
        {
          "name": "",
          "type": "bytes32"
        }
      ],
      "name": "refLinkExists",
      "outputs": [
        {
          "name": "",
          "type": "bool"
        }
      ],
      "payable": false,
      "stateMutability": "view",
      "type": "function"
    },
    {
      "constant": true,
      "inputs": [
        {
          "name": "",
          "type": "uint256"
        },
        {
          "name": "",
          "type": "uint256"
        }
      ],
      "name": "paintGenToAmountForColor",
      "outputs": [
        {
          "name": "",
          "type": "uint256"
        }
      ],
      "payable": false,
      "stateMutability": "view",
      "type": "function"
    },
    {
      "constant": true,
      "inputs": [
        {
          "name": "",
          "type": "uint256"
        }
      ],
      "name": "isCBPTransfered",
      "outputs": [
        {
          "name": "",
          "type": "bool"
        }
      ],
      "payable": false,
      "stateMutability": "view",
      "type": "function"
    },
    {
      "constant": true,
      "inputs": [
        {
          "name": "",
          "type": "address"
        }
      ],
      "name": "referralToReferrer",
      "outputs": [
        {
          "name": "",
          "type": "address"
        }
      ],
      "payable": false,
      "stateMutability": "view",
      "type": "function"
    },
    {
      "constant": true,
      "inputs": [
        {
          "name": "",
          "type": "uint256"
        },
        {
          "name": "",
          "type": "address"
        }
      ],
      "name": "usersPaintDiscountForColor",
      "outputs": [
        {
          "name": "",
          "type": "uint256"
        }
      ],
      "payable": false,
      "stateMutability": "view",
      "type": "function"
    },
    {
      "constant": true,
      "inputs": [],
      "name": "maxPaintsInPool",
      "outputs": [
        {
          "name": "",
          "type": "uint256"
        }
      ],
      "payable": false,
      "stateMutability": "view",
      "type": "function"
    },
    {
      "constant": false,
      "inputs": [
        {
          "name": "newOwner",
          "type": "address"
        }
      ],
      "name": "transferOwnership",
      "outputs": [],
      "payable": false,
      "stateMutability": "nonpayable",
      "type": "function"
    },
    {
      "constant": true,
      "inputs": [
        {
          "name": "",
          "type": "uint256"
        }
      ],
      "name": "winnerColorForRound",
      "outputs": [
        {
          "name": "",
          "type": "uint256"
        }
      ],
      "payable": false,
      "stateMutability": "view",
      "type": "function"
    },
    {
      "constant": true,
      "inputs": [],
      "name": "dividendsBank",
      "outputs": [
        {
          "name": "",
          "type": "uint256"
        }
      ],
      "payable": false,
      "stateMutability": "view",
      "type": "function"
    },
    {
      "constant": true,
      "inputs": [
        {
          "name": "",
          "type": "address"
        }
      ],
      "name": "withdrawalBalances",
      "outputs": [
        {
          "name": "",
          "type": "uint256"
        }
      ],
      "payable": false,
      "stateMutability": "view",
      "type": "function"
    },
    {
      "constant": true,
      "inputs": [],
      "name": "cbIteration",
      "outputs": [
        {
          "name": "",
          "type": "uint256"
        }
      ],
      "payable": false,
      "stateMutability": "view",
      "type": "function"
    },
    {
      "inputs": [],
      "payable": false,
      "stateMutability": "nonpayable",
      "type": "constructor"
    },
    {
      "anonymous": false,
      "inputs": [
        {
          "indexed": true,
          "name": "round",
          "type": "uint256"
        },
        {
          "indexed": true,
          "name": "cbIteration",
          "type": "uint256"
        },
        {
          "indexed": true,
          "name": "winner",
          "type": "address"
        },
        {
          "indexed": false,
          "name": "prize",
          "type": "uint256"
        }
      ],
      "name": "CBPDistributed",
      "type": "event"
    },
    {
      "anonymous": false,
      "inputs": [
        {
          "indexed": true,
          "name": "withdrawer",
          "type": "address"
        },
        {
          "indexed": true,
          "name": "claimId",
          "type": "uint256"
        },
        {
          "indexed": true,
          "name": "amount",
          "type": "uint256"
        }
      ],
      "name": "DividendsWithdrawn",
      "type": "event"
    },
    {
      "anonymous": false,
      "inputs": [
        {
          "indexed": true,
          "name": "claimer",
          "type": "address"
        },
        {
          "indexed": true,
          "name": "claimId",
          "type": "uint256"
        },
        {
          "indexed": true,
          "name": "currentTime",
          "type": "uint256"
        }
      ],
      "name": "DividendsClaimed",
      "type": "event"
    },
    {
      "anonymous": false,
      "inputs": [
        {
          "indexed": true,
          "name": "pixelId",
          "type": "uint256"
        },
        {
          "indexed": false,
          "name": "colorId",
          "type": "uint256"
        },
        {
          "indexed": true,
          "name": "painter",
          "type": "address"
        },
        {
          "indexed": true,
          "name": "round",
          "type": "uint256"
        },
        {
          "indexed": false,
          "name": "timestamp",
          "type": "uint256"
        }
      ],
      "name": "Paint",
      "type": "event"
    },
    {
      "anonymous": false,
      "inputs": [
        {
          "indexed": false,
          "name": "winnerOfRound",
          "type": "address"
        },
        {
          "indexed": true,
          "name": "round",
          "type": "uint256"
        }
      ],
      "name": "ColorBankPlayed",
      "type": "event"
    },
    {
      "anonymous": false,
      "inputs": [
        {
          "indexed": false,
          "name": "winnerOfRound",
          "type": "address"
        },
        {
          "indexed": true,
          "name": "round",
          "type": "uint256"
        }
      ],
      "name": "TimeBankPlayed",
      "type": "event"
    },
    {
      "anonymous": false,
      "inputs": [
        {
          "indexed": true,
          "name": "newCallPrice",
          "type": "uint256"
        }
      ],
      "name": "CallPriceUpdated",
      "type": "event"
    },
    {
      "anonymous": false,
      "inputs": [
        {
          "indexed": true,
          "name": "round",
          "type": "uint256"
        },
        {
          "indexed": true,
          "name": "tbIteration",
          "type": "uint256"
        },
        {
          "indexed": true,
          "name": "winner",
          "type": "address"
        },
        {
          "indexed": false,
          "name": "prize",
          "type": "uint256"
        }
      ],
      "name": "TBPDistributed",
      "type": "event"
    },
    {
      "anonymous": false,
      "inputs": [
        {
          "indexed": true,
          "name": "previousOwner",
          "type": "address"
        },
        {
          "indexed": true,
          "name": "newOwner",
          "type": "address"
        }
      ],
      "name": "OwnershipTransferred",
      "type": "event"
    },
    {
      "constant": false,
      "inputs": [],
      "name": "claimDividends",
      "outputs": [],
      "payable": false,
      "stateMutability": "nonpayable",
      "type": "function"
    },
    {
      "constant": false,
      "inputs": [
        {
          "name": "_claimId",
          "type": "uint256"
        }
      ],
      "name": "approveClaim",
      "outputs": [],
      "payable": false,
      "stateMutability": "nonpayable",
      "type": "function"
    }
  ],
  "bytecode": "0x608060405273ca35b7d915458ef540ade6068dfe2f44e8fa733c604060006101000a81548173ffffffffffffffffffffffffffffffffffffffff021916908373ffffffffffffffffffffffffffffffffffffffff160217905550733e4d187df7d8a0820eaf4174d17b160157610912604160006101000a81548173ffffffffffffffffffffffffffffffffffffffff021916908373ffffffffffffffffffffffffffffffffffffffff1602179055503480156100ba57600080fd5b506000336000806101000a81548173ffffffffffffffffffffffffffffffffffffffff021916908373ffffffffffffffffffffffffffffffffffffffff1602179055506000809054906101000a900473ffffffffffffffffffffffffffffffffffffffff1673ffffffffffffffffffffffffffffffffffffffff16600073ffffffffffffffffffffffffffffffffffffffff167f8be0079c531659141344cd1fd0a4f28419497f9722a3daafe3b4186f6b6457e060405160405180910390a3600190505b6008811115156101fb5773bf0e4036bf968dd007f9b4a1bfda4e54c042f612603a600083815260200190815260200160002060006101000a81548173ffffffffffffffffffffffffffffffffffffffff021916908373ffffffffffffffffffffffffffffffffffffffff160217905550808060010191505061017e565b50612bd78061020b6000396000f300608060405260043610610364576000357c0100000000000000000000000000000000000000000000000000000000900463ffffffff1680630422ddf31461036957806305bdd0be14610398578063099b81ce146103fd5780630baaea441461046e5780630cf9603f146104db5780630f6ed86e14610526578063102f97131461055157806315682a66146105be57806318452cd81461060357806319ef6a061461065e5780631d64873b146106a95780631f5bdf5d146106d45780631f90c6ed1461072f57806321423af81461079457806324d7806c146107c357806328361f571461081e57806328b290f91461085f5780632c6c1c41146108b65780632c7a3dae1461091757806333f9c3881461098e5780633a173505146109ef5780633c6dd01314610a3a5780633ca4c18314610a7b5780633d0d1a7914610adc5780633dc3c37714610b1d578063411b007e14610b4857806341c5464e14610b9f57806342e453ec14610bf657806346e3013514610c6d5780634b39173d14610c9a5780634c438ad714610ce55780634c78e40114610d2a5780635bfcdb2714610d6b5780635c25fd1314610e275780635d63ebb214610e525780635f5d554c14610ec9578063628a71a314610f18578063668038e014610f595780636f17eb4214610f70578063715018a614610fb157806373a9ee2614610fc857806376f5d96a1461100957806379ecf376146110385780637e1e175c146110a557806387982ac3146111005780638a19c8bc1461118d5780638da5cb5b146111b85780638e2df39c1461120f5780638f32d59b146112505780638f63b7e51461127f578063a3120724146112ca578063a888c2cd14611315578063a977e1681461139b578063ab24c7d2146113f2578063ae55ce8214611457578063b0ff59d2146114c4578063b1a3883c14611525578063b8232d5d14611590578063bbe9f99d146115db578063be7d622614611636578063c64a2e5614611677578063c957387b146116b8578063c9f8234f14611703578063d4526e681461172e578063d5de47c714611777578063da68b121146117c2578063deaf0fa114611807578063eaf1c9101461188a578063eef565da146118eb578063f2fde38b14611916578063f49916f514611959578063f5f95b3b1461199a578063fb454d29146119c5578063fea11fe314611a1c575b600080fd5b34801561037557600080fd5b5061037e611a47565b604051808215151515815260200191505060405180910390f35b3480156103a457600080fd5b506103e360048036038101908080359060200190929190803573ffffffffffffffffffffffffffffffffffffffff169060200190929190505050611a5a565b604051808215151515815260200191505060405180910390f35b34801561040957600080fd5b5061042c6004803603810190808035600019169060200190929190505050611a89565b604051808273ffffffffffffffffffffffffffffffffffffffff1673ffffffffffffffffffffffffffffffffffffffff16815260200191505060405180910390f35b34801561047a57600080fd5b5061049960048036038101908080359060200190929190505050611abc565b604051808273ffffffffffffffffffffffffffffffffffffffff1673ffffffffffffffffffffffffffffffffffffffff16815260200191505060405180910390f35b3480156104e757600080fd5b506105106004803603810190808035906020019092919080359060200190929190505050611aef565b6040518082815260200191505060405180910390f35b34801561053257600080fd5b5061053b611b14565b6040518082815260200191505060405180910390f35b34801561055d57600080fd5b5061057c60048036038101908080359060200190929190505050611b1a565b604051808273ffffffffffffffffffffffffffffffffffffffff1673ffffffffffffffffffffffffffffffffffffffff16815260200191505060405180910390f35b3480156105ca57600080fd5b506105e960048036038101908080359060200190929190505050611b4d565b604051808215151515815260200191505060405180910390f35b34801561060f57600080fd5b50610644600480360381019080803573ffffffffffffffffffffffffffffffffffffffff169060200190929190505050611b6d565b604051808215151515815260200191505060405180910390f35b34801561066a57600080fd5b506106936004803603810190808035906020019092919080359060200190929190505050611b8d565b6040518082815260200191505060405180910390f35b3480156106b557600080fd5b506106be611bb2565b6040518082815260200191505060405180910390f35b3480156106e057600080fd5b50610715600480360381019080803573ffffffffffffffffffffffffffffffffffffffff169060200190929190505050611bb8565b604051808215151515815260200191505060405180910390f35b34801561073b57600080fd5b5061077a60048036038101908080359060200190929190803573ffffffffffffffffffffffffffffffffffffffff169060200190929190505050611bd8565b604051808215151515815260200191505060405180910390f35b3480156107a057600080fd5b506107a9611c07565b604051808215151515815260200191505060405180910390f35b3480156107cf57600080fd5b50610804600480360381019080803573ffffffffffffffffffffffffffffffffffffffff169060200190929190505050611c1a565b604051808215151515815260200191505060405180910390f35b34801561082a57600080fd5b5061084960048036038101908080359060200190929190505050611c3a565b6040518082815260200191505060405180910390f35b34801561086b57600080fd5b506108a0600480360381019080803573ffffffffffffffffffffffffffffffffffffffff169060200190929190505050611c52565b6040518082815260200191505060405180910390f35b3480156108c257600080fd5b5061090160048036038101908080359060200190929190803573ffffffffffffffffffffffffffffffffffffffff169060200190929190505050611c6a565b6040518082815260200191505060405180910390f35b34801561092357600080fd5b5061094c6004803603810190808035906020019092919080359060200190929190505050611c8f565b604051808273ffffffffffffffffffffffffffffffffffffffff1673ffffffffffffffffffffffffffffffffffffffff16815260200191505060405180910390f35b34801561099a57600080fd5b506109d960048036038101908080359060200190929190803573ffffffffffffffffffffffffffffffffffffffff169060200190929190505050611cdc565b6040518082815260200191505060405180910390f35b3480156109fb57600080fd5b50610a246004803603810190808035906020019092919080359060200190929190505050611d01565b6040518082815260200191505060405180910390f35b348015610a4657600080fd5b50610a6560048036038101908080359060200190929190505050611d26565b6040518082815260200191505060405180910390f35b348015610a8757600080fd5b50610ac660048036038101908080359060200190929190803573ffffffffffffffffffffffffffffffffffffffff169060200190929190505050611d3e565b6040518082815260200191505060405180910390f35b348015610ae857600080fd5b50610b0760048036038101908080359060200190929190505050611d63565b6040518082815260200191505060405180910390f35b348015610b2957600080fd5b50610b32611d7b565b6040518082815260200191505060405180910390f35b348015610b5457600080fd5b50610b5d611d81565b604051808273ffffffffffffffffffffffffffffffffffffffff1673ffffffffffffffffffffffffffffffffffffffff16815260200191505060405180910390f35b348015610bab57600080fd5b50610be0600480360381019080803573ffffffffffffffffffffffffffffffffffffffff169060200190929190505050611da7565b6040518082815260200191505060405180910390f35b348015610c0257600080fd5b50610c2b6004803603810190808035906020019092919080359060200190929190505050611dbf565b604051808273ffffffffffffffffffffffffffffffffffffffff1673ffffffffffffffffffffffffffffffffffffffff16815260200191505060405180910390f35b348015610c7957600080fd5b50610c9860048036038101908080359060200190929190505050611e01565b005b348015610ca657600080fd5b50610ccf60048036038101908080359060200190929190803590602001909291905050506120ac565b6040518082815260200191505060405180910390f35b348015610cf157600080fd5b50610d10600480360381019080803590602001909291905050506120d1565b604051808215151515815260200191505060405180910390f35b348015610d3657600080fd5b50610d55600480360381019080803590602001909291905050506120f1565b6040518082815260200191505060405180910390f35b348015610d7757600080fd5b50610dac600480360381019080803573ffffffffffffffffffffffffffffffffffffffff169060200190929190505050612109565b6040518080602001828103825283818151815260200191508051906020019080838360005b83811015610dec578082015181840152602081019050610dd1565b50505050905090810190601f168015610e195780820380516001836020036101000a031916815260200191505b509250505060405180910390f35b348015610e3357600080fd5b50610e3c6121b9565b6040518082815260200191505060405180910390f35b348015610e5e57600080fd5b50610e8760048036038101908080359060200190929190803590602001909291905050506121bf565b604051808273ffffffffffffffffffffffffffffffffffffffff1673ffffffffffffffffffffffffffffffffffffffff16815260200191505060405180910390f35b348015610ed557600080fd5b50610efe600480360381019080803590602001909291908035906020019092919050505061220c565b604051808215151515815260200191505060405180910390f35b348015610f2457600080fd5b50610f436004803603810190808035906020019092919050505061223b565b6040518082815260200191505060405180910390f35b348015610f6557600080fd5b50610f6e612253565b005b348015610f7c57600080fd5b50610f9b600480360381019080803590602001909291905050506124aa565b6040518082815260200191505060405180910390f35b348015610fbd57600080fd5b50610fc66124c2565b005b348015610fd457600080fd5b50610ff360048036038101908080359060200190929190505050612594565b6040518082815260200191505060405180910390f35b34801561101557600080fd5b5061101e6125ac565b604051808215151515815260200191505060405180910390f35b34801561104457600080fd5b50611063600480360381019080803590602001909291905050506125bf565b604051808273ffffffffffffffffffffffffffffffffffffffff1673ffffffffffffffffffffffffffffffffffffffff16815260200191505060405180910390f35b3480156110b157600080fd5b506110e6600480360381019080803573ffffffffffffffffffffffffffffffffffffffff1690602001909291905050506125f2565b604051808215151515815260200191505060405180910390f35b34801561110c57600080fd5b5061114b600480360381019080803573ffffffffffffffffffffffffffffffffffffffff16906020019092919080359060200190929190505050612612565b604051808273ffffffffffffffffffffffffffffffffffffffff1673ffffffffffffffffffffffffffffffffffffffff16815260200191505060405180910390f35b34801561119957600080fd5b506111a261265e565b6040518082815260200191505060405180910390f35b3480156111c457600080fd5b506111cd612664565b604051808273ffffffffffffffffffffffffffffffffffffffff1673ffffffffffffffffffffffffffffffffffffffff16815260200191505060405180910390f35b34801561121b57600080fd5b5061123a6004803603810190808035906020019092919050505061268d565b6040518082815260200191505060405180910390f35b34801561125c57600080fd5b506112656126a5565b604051808215151515815260200191505060405180910390f35b34801561128b57600080fd5b506112b460048036038101908080359060200190929190803590602001909291905050506126fc565b6040518082815260200191505060405180910390f35b3480156112d657600080fd5b506112ff6004803603810190808035906020019092919080359060200190929190505050612721565b6040518082815260200191505060405180910390f35b34801561132157600080fd5b5061134060048036038101908080359060200190929190505050612746565b604051808581526020018473ffffffffffffffffffffffffffffffffffffffff1673ffffffffffffffffffffffffffffffffffffffff1681526020018315151515815260200182815260200194505050505060405180910390f35b3480156113a757600080fd5b506113b06127b2565b604051808273ffffffffffffffffffffffffffffffffffffffff1673ffffffffffffffffffffffffffffffffffffffff16815260200191505060405180910390f35b3480156113fe57600080fd5b5061143d60048036038101908080359060200190929190803573ffffffffffffffffffffffffffffffffffffffff1690602001909291905050506127d8565b604051808215151515815260200191505060405180910390f35b34801561146357600080fd5b5061148260048036038101908080359060200190929190505050612807565b604051808273ffffffffffffffffffffffffffffffffffffffff1673ffffffffffffffffffffffffffffffffffffffff16815260200191505060405180910390f35b3480156114d057600080fd5b5061150f60048036038101908080359060200190929190803573ffffffffffffffffffffffffffffffffffffffff16906020019092919050505061283a565b6040518082815260200191505060405180910390f35b34801561153157600080fd5b5061157a6004803603810190808035906020019092919080359060200190929190803573ffffffffffffffffffffffffffffffffffffffff16906020019092919050505061285f565b6040518082815260200191505060405180910390f35b34801561159c57600080fd5b506115c56004803603810190808035906020019092919080359060200190929190505050612891565b6040518082815260200191505060405180910390f35b3480156115e757600080fd5b5061161c600480360381019080803573ffffffffffffffffffffffffffffffffffffffff1690602001909291905050506128b6565b604051808215151515815260200191505060405180910390f35b34801561164257600080fd5b50611661600480360381019080803590602001909291905050506128d6565b6040518082815260200191505060405180910390f35b34801561168357600080fd5b506116a2600480360381019080803590602001909291905050506128ee565b6040518082815260200191505060405180910390f35b3480156116c457600080fd5b506116ed6004803603810190808035906020019092919080359060200190929190505050612906565b6040518082815260200191505060405180910390f35b34801561170f57600080fd5b5061171861292b565b6040518082815260200191505060405180910390f35b34801561173a57600080fd5b5061175d6004803603810190808035600019169060200190929190505050612931565b604051808215151515815260200191505060405180910390f35b34801561178357600080fd5b506117ac6004803603810190808035906020019092919080359060200190929190505050612951565b6040518082815260200191505060405180910390f35b3480156117ce57600080fd5b506117ed60048036038101908080359060200190929190505050612976565b604051808215151515815260200191505060405180910390f35b34801561181357600080fd5b50611848600480360381019080803573ffffffffffffffffffffffffffffffffffffffff169060200190929190505050612996565b604051808273ffffffffffffffffffffffffffffffffffffffff1673ffffffffffffffffffffffffffffffffffffffff16815260200191505060405180910390f35b34801561189657600080fd5b506118d560048036038101908080359060200190929190803573ffffffffffffffffffffffffffffffffffffffff1690602001909291905050506129c9565b6040518082815260200191505060405180910390f35b3480156118f757600080fd5b506119006129ee565b6040518082815260200191505060405180910390f35b34801561192257600080fd5b50611957600480360381019080803573ffffffffffffffffffffffffffffffffffffffff1690602001909291905050506129f4565b005b34801561196557600080fd5b5061198460048036038101908080359060200190929190505050612a13565b6040518082815260200191505060405180910390f35b3480156119a657600080fd5b506119af612a2b565b6040518082815260200191505060405180910390f35b3480156119d157600080fd5b50611a06600480360381019080803573ffffffffffffffffffffffffffffffffffffffff169060200190929190505050612a31565b6040518082815260200191505060405180910390f35b348015611a2857600080fd5b50611a31612a49565b6040518082815260200191505060405180910390f35b604160149054906101000a900460ff1681565b60346020528160005260406000206020528060005260406000206000915091509054906101000a900460ff1681565b60236020528060005260406000206000915054906101000a900473ffffffffffffffffffffffffffffffffffffffff1681565b603a6020528060005260406000206000915054906101000a900473ffffffffffffffffffffffffffffffffffffffff1681565b6006602052816000526040600020602052806000526040600020600091509150505481565b60295481565b600f6020528060005260406000206000915054906101000a900473ffffffffffffffffffffffffffffffffffffffff1681565b60476020528060005260406000206000915054906101000a900460ff1681565b60216020528060005260406000206000915054906101000a900460ff1681565b600e602052816000526040600020602052806000526040600020600091509150505481565b60455481565b601d6020528060005260406000206000915054906101000a900460ff1681565b601b6020528160005260406000206020528060005260406000206000915091509054906101000a900460ff1681565b604160169054906101000a900460ff1681565b60426020528060005260406000206000915054906101000a900460ff1681565b60176020528060005260406000206000915090505481565b60396020528060005260406000206000915090505481565b601a602052816000526040600020602052806000526040600020600091509150505481565b603060205281600052604060002081815481101515611caa57fe5b906000526020600020016000915091509054906101000a900473ffffffffffffffffffffffffffffffffffffffff1681565b6036602052816000526040600020602052806000526040600020600091509150505481565b6014602052816000526040600020602052806000526040600020600091509150505481565b60186020528060005260406000206000915090505481565b6035602052816000526040600020602052806000526040600020600091509150505481565b60106020528060005260406000206000915090505481565b602b5481565b604160009054906101000a900473ffffffffffffffffffffffffffffffffffffffff1681565b60256020528060005260406000206000915090505481565b60326020528160005260406000206020528060005260406000206000915091509054906101000a900473ffffffffffffffffffffffffffffffffffffffff1681565b600080600060011515604260003373ffffffffffffffffffffffffffffffffffffffff1673ffffffffffffffffffffffffffffffffffffffff16815260200190815260200160002060009054906101000a900460ff161515141515611ece576040517f08c379a000000000000000000000000000000000000000000000000000000000815260040180806020018281038252601c8152602001807f596f7520646f6e277420686176652061646d696e207269676874732e0000000081525060200191505060405180910390fd5b603f84815481101515611edd57fe5b906000526020600020906003020192508260010160149054906101000a900460ff16151515611f0b57600080fd5b8260010160009054906101000a900473ffffffffffffffffffffffffffffffffffffffff169150603b60008373ffffffffffffffffffffffffffffffffffffffff1673ffffffffffffffffffffffffffffffffffffffff1681526020019081526020016000205490506000603b60008473ffffffffffffffffffffffffffffffffffffffff1673ffffffffffffffffffffffffffffffffffffffff168152602001908152602001600020819055508173ffffffffffffffffffffffffffffffffffffffff166108fc829081150290604051600060405180830381858888f19350505050158015611fff573d6000803e3d6000fd5b5042603c60008473ffffffffffffffffffffffffffffffffffffffff1673ffffffffffffffffffffffffffffffffffffffff1681526020019081526020016000208190555080848373ffffffffffffffffffffffffffffffffffffffff167f1a983dd8fc1bd566844e816cd39bafaebd6523281477df579d3252da34a251d960405160405180910390a460018360010160146101000a81548160ff02191690831515021790555050505050565b6005602052816000526040600020602052806000526040600020600091509150505481565b60386020528060005260406000206000915054906101000a900460ff1681565b60096020528060005260406000206000915090505481565b60226020528060005260406000206000915090508054600181600116156101000203166002900480601f0160208091040260200160405190810160405280929190818152602001828054600181600116156101000203166002900480156121b15780601f10612186576101008083540402835291602001916121b1565b820191906000526020600020905b81548152906001019060200180831161219457829003601f168201915b505050505081565b603e5481565b602f602052816000526040600020818154811015156121da57fe5b906000526020600020016000915091509054906101000a900473ffffffffffffffffffffffffffffffffffffffff1681565b60166020528160005260406000206020528060005260406000206000915091509054906101000a900460ff1681565b600c6020528060005260406000206000915090505481565b61225b612b6a565b6000603b60003373ffffffffffffffffffffffffffffffffffffffff1673ffffffffffffffffffffffffffffffffffffffff1681526020019081526020016000205414151515612339576040517f08c379a00000000000000000000000000000000000000000000000000000000081526004018080602001828103825260228152602001807f596f7572207769746864726177616c2062616c616e6365206973207a65726f2e81526020017f2e2e00000000000000000000000000000000000000000000000000000000000081525060400191505060405180910390fd5b61234f6001603e54612a4f90919063ffffffff16565b603e81905550603e5481600001818152505033816020019073ffffffffffffffffffffffffffffffffffffffff16908173ffffffffffffffffffffffffffffffffffffffff1681525050600081604001901515908115158152505042816060018181525050603f81908060018154018082558091505090600182039060005260206000209060030201600090919290919091506000820151816000015560208201518160010160006101000a81548173ffffffffffffffffffffffffffffffffffffffff021916908373ffffffffffffffffffffffffffffffffffffffff16021790555060408201518160010160146101000a81548160ff0219169083151502179055506060820151816002015550505042603e543373ffffffffffffffffffffffffffffffffffffffff167f4564c5b058f69e7dcd0937715686b0e7e519875481b651ebfab2eef281268f2360405160405180910390a450565b60196020528060005260406000206000915090505481565b6124ca6126a5565b15156124d557600080fd5b600073ffffffffffffffffffffffffffffffffffffffff166000809054906101000a900473ffffffffffffffffffffffffffffffffffffffff1673ffffffffffffffffffffffffffffffffffffffff167f8be0079c531659141344cd1fd0a4f28419497f9722a3daafe3b4186f6b6457e060405160405180910390a360008060006101000a81548173ffffffffffffffffffffffffffffffffffffffff021916908373ffffffffffffffffffffffffffffffffffffffff160217905550565b600a6020528060005260406000206000915090505481565b604160159054906101000a900460ff1681565b600b6020528060005260406000206000915054906101000a900473ffffffffffffffffffffffffffffffffffffffff1681565b601e6020528060005260406000206000915054906101000a900460ff1681565b602080528160005260406000208181548110151561262c57fe5b906000526020600020016000915091509054906101000a900473ffffffffffffffffffffffffffffffffffffffff1681565b60285481565b60008060009054906101000a900473ffffffffffffffffffffffffffffffffffffffff16905090565b602e6020528060005260406000206000915090505481565b60008060009054906101000a900473ffffffffffffffffffffffffffffffffffffffff1673ffffffffffffffffffffffffffffffffffffffff163373ffffffffffffffffffffffffffffffffffffffff1614905090565b6011602052816000526040600020602052806000526040600020600091509150505481565b6008602052816000526040600020602052806000526040600020600091509150505481565b603f8181548110151561275557fe5b90600052602060002090600302016000915090508060000154908060010160009054906101000a900473ffffffffffffffffffffffffffffffffffffffff16908060010160149054906101000a900460ff16908060020154905084565b604060009054906101000a900473ffffffffffffffffffffffffffffffffffffffff1681565b60336020528160005260406000206020528060005260406000206000915091509054906101000a900460ff1681565b60316020528060005260406000206000915054906101000a900473ffffffffffffffffffffffffffffffffffffffff1681565b602c602052816000526040600020602052806000526040600020600091509150505481565b602d60205282600052604060002060205281600052604060002060205280600052604060002060009250925050505481565b6004602052816000526040600020602052806000526040600020600091509150505481565b60466020528060005260406000206000915054906101000a900460ff1681565b60126020528060005260406000206000915090505481565b60076020528060005260406000206000915090505481565b6015602052816000526040600020602052806000526040600020600091509150505481565b60265481565b60246020528060005260406000206000915054906101000a900460ff1681565b6013602052816000526040600020602052806000526040600020600091509150505481565b60376020528060005260406000206000915054906101000a900460ff1681565b601f6020528060005260406000206000915054906101000a900473ffffffffffffffffffffffffffffffffffffffff1681565b601c602052816000526040600020602052806000526040600020600091509150505481565b60275481565b6129fc6126a5565b1515612a0757600080fd5b612a1081612a70565b50565b600d6020528060005260406000206000915090505481565b603d5481565b603b6020528060005260406000206000915090505481565b602a5481565b6000808284019050838110151515612a6657600080fd5b8091505092915050565b600073ffffffffffffffffffffffffffffffffffffffff168173ffffffffffffffffffffffffffffffffffffffff1614151515612aac57600080fd5b8073ffffffffffffffffffffffffffffffffffffffff166000809054906101000a900473ffffffffffffffffffffffffffffffffffffffff1673ffffffffffffffffffffffffffffffffffffffff167f8be0079c531659141344cd1fd0a4f28419497f9722a3daafe3b4186f6b6457e060405160405180910390a3806000806101000a81548173ffffffffffffffffffffffffffffffffffffffff021916908373ffffffffffffffffffffffffffffffffffffffff16021790555050565b60806040519081016040528060008152602001600073ffffffffffffffffffffffffffffffffffffffff1681526020016000151581526020016000815250905600a165627a7a723058202130dbb44cc073f5caec3e1615fac426606dcfa874f4f5727cb59c6939a3b1ed0029",
  "source": "pragma solidity ^0.4.24;\nimport \"./SafeMath.sol\";\nimport \"./IColor.sol\";\nimport \"./Modifiers.sol\";\n\ncontract DividendsDistributor is Modifiers {\n    using SafeMath for uint;\n\n    constructor() {\n\n        // for (uint i = 1; i < color.totalSupply(); i++) {\n        //     ownerOfColor[i] = color.ownerOf(i);\n        // }0xbF0e4036BF968dD007F9B4A1BFdA4e54C042F612\n\n        for (uint i = 1; i <= 8; i++) {\n            ownerOfColor[i] = 0xbF0e4036BF968dD007F9B4A1BFdA4e54C042F612;\n        }\n    }\n    \n    function claimDividends() external {\n        //    ,       \n        require(withdrawalBalances[msg.sender] != 0, \"Your withdrawal balance is zero...\");\n        claimId = claimId.add(1);\n        Claim memory c;\n        c.id = claimId;\n        c.claimer = msg.sender;\n        c.isResolved = false;\n        c.timestamp = now;\n        claims.push(c);\n        emit DividendsClaimed(msg.sender, claimId, now);\n    }\n\n    function approveClaim(uint _claimId) public onlyAdmin() {\n        \n        Claim storage claim = claims[_claimId];\n        \n        require(!claim.isResolved);\n        \n        address claimer = claim.claimer;\n\n        //Checks-Effects-Interactions pattern\n        uint withdrawalAmount = withdrawalBalances[claimer];\n\n        //     \n        withdrawalBalances[claimer] = 0;\n\n        //    \n        claimer.transfer(withdrawalAmount);\n        \n        //      \n        addressToLastWithdrawalTime[claimer] = now;\n        emit DividendsWithdrawn(claimer, _claimId, withdrawalAmount);\n\n        claim.isResolved = true;\n    }\n\n}",
  "sourcePath": "/Users/Amir/last-pixel-contracts/contracts/DividendsDistributor.sol",
  "compiler": {
    "name": "solc",
    "version": "0.4.24+commit.e67f0147.Emscripten.clang"
  },
  "schemaVersion": "2.0.1",
  "updatedAt": "2019-01-17T12:29:34.576Z"
}