{
  "contractName": "DividendsDistributor",
  "abi": [
    {
      "constant": true,
      "inputs": [
        {
          "name": "",
          "type": "uint256"
        }
      ],
      "name": "ownerOfColor",
      "outputs": [
        {
          "name": "",
          "type": "address"
        }
      ],
      "payable": false,
      "stateMutability": "view",
      "type": "function"
    },
    {
      "constant": false,
      "inputs": [
        {
          "name": "_admin",
          "type": "address"
        }
      ],
      "name": "removeAdmin",
      "outputs": [],
      "payable": false,
      "stateMutability": "nonpayable",
      "type": "function"
    },
    {
      "constant": true,
      "inputs": [
        {
          "name": "",
          "type": "address"
        }
      ],
      "name": "isAdmin",
      "outputs": [
        {
          "name": "",
          "type": "bool"
        }
      ],
      "payable": false,
      "stateMutability": "view",
      "type": "function"
    },
    {
      "constant": true,
      "inputs": [],
      "name": "founders",
      "outputs": [
        {
          "name": "",
          "type": "address"
        }
      ],
      "payable": false,
      "stateMutability": "view",
      "type": "function"
    },
    {
      "constant": true,
      "inputs": [],
      "name": "claimId",
      "outputs": [
        {
          "name": "",
          "type": "uint256"
        }
      ],
      "payable": false,
      "stateMutability": "view",
      "type": "function"
    },
    {
      "constant": false,
      "inputs": [
        {
          "name": "_new",
          "type": "address"
        }
      ],
      "name": "addAdmin",
      "outputs": [],
      "payable": false,
      "stateMutability": "nonpayable",
      "type": "function"
    },
    {
      "constant": false,
      "inputs": [],
      "name": "renounceOwnership",
      "outputs": [],
      "payable": false,
      "stateMutability": "nonpayable",
      "type": "function"
    },
    {
      "constant": true,
      "inputs": [],
      "name": "owner",
      "outputs": [
        {
          "name": "",
          "type": "address"
        }
      ],
      "payable": false,
      "stateMutability": "view",
      "type": "function"
    },
    {
      "constant": true,
      "inputs": [],
      "name": "isOwner",
      "outputs": [
        {
          "name": "",
          "type": "bool"
        }
      ],
      "payable": false,
      "stateMutability": "view",
      "type": "function"
    },
    {
      "constant": true,
      "inputs": [
        {
          "name": "",
          "type": "uint256"
        }
      ],
      "name": "claims",
      "outputs": [
        {
          "name": "id",
          "type": "uint256"
        },
        {
          "name": "claimer",
          "type": "address"
        },
        {
          "name": "isResolved",
          "type": "bool"
        },
        {
          "name": "timestamp",
          "type": "uint256"
        }
      ],
      "payable": false,
      "stateMutability": "view",
      "type": "function"
    },
    {
      "constant": true,
      "inputs": [],
      "name": "ownerOfPixel",
      "outputs": [
        {
          "name": "",
          "type": "address"
        }
      ],
      "payable": false,
      "stateMutability": "view",
      "type": "function"
    },
    {
      "constant": false,
      "inputs": [
        {
          "name": "newOwner",
          "type": "address"
        }
      ],
      "name": "transferOwnership",
      "outputs": [],
      "payable": false,
      "stateMutability": "nonpayable",
      "type": "function"
    },
    {
      "constant": true,
      "inputs": [],
      "name": "dividendsBank",
      "outputs": [
        {
          "name": "",
          "type": "uint256"
        }
      ],
      "payable": false,
      "stateMutability": "view",
      "type": "function"
    },
    {
      "constant": true,
      "inputs": [
        {
          "name": "",
          "type": "address"
        }
      ],
      "name": "withdrawalBalances",
      "outputs": [
        {
          "name": "",
          "type": "uint256"
        }
      ],
      "payable": false,
      "stateMutability": "view",
      "type": "function"
    },
    {
      "inputs": [],
      "payable": false,
      "stateMutability": "nonpayable",
      "type": "constructor"
    },
    {
      "anonymous": false,
      "inputs": [
        {
          "indexed": true,
          "name": "withdrawer",
          "type": "address"
        },
        {
          "indexed": true,
          "name": "currentTime",
          "type": "uint256"
        },
        {
          "indexed": true,
          "name": "amount",
          "type": "uint256"
        }
      ],
      "name": "DividendsWithdrawn",
      "type": "event"
    },
    {
      "anonymous": false,
      "inputs": [
        {
          "indexed": true,
          "name": "claimer",
          "type": "address"
        },
        {
          "indexed": true,
          "name": "currentTime",
          "type": "uint256"
        }
      ],
      "name": "DividendsClaimed",
      "type": "event"
    },
    {
      "anonymous": false,
      "inputs": [
        {
          "indexed": true,
          "name": "previousOwner",
          "type": "address"
        },
        {
          "indexed": true,
          "name": "newOwner",
          "type": "address"
        }
      ],
      "name": "OwnershipTransferred",
      "type": "event"
    },
    {
      "constant": false,
      "inputs": [],
      "name": "claimDividends",
      "outputs": [],
      "payable": false,
      "stateMutability": "nonpayable",
      "type": "function"
    },
    {
      "constant": false,
      "inputs": [
        {
          "name": "_claimId",
          "type": "uint256"
        }
      ],
      "name": "approveClaim",
      "outputs": [],
      "payable": false,
      "stateMutability": "nonpayable",
      "type": "function"
    }
  ],
  "bytecode": "0x608060405273ca35b7d915458ef540ade6068dfe2f44e8fa733c600860006101000a81548173ffffffffffffffffffffffffffffffffffffffff021916908373ffffffffffffffffffffffffffffffffffffffff160217905550733e4d187df7d8a0820eaf4174d17b160157610912600960006101000a81548173ffffffffffffffffffffffffffffffffffffffff021916908373ffffffffffffffffffffffffffffffffffffffff1602179055503480156100ba57600080fd5b506000336000806101000a81548173ffffffffffffffffffffffffffffffffffffffff021916908373ffffffffffffffffffffffffffffffffffffffff1602179055506000809054906101000a900473ffffffffffffffffffffffffffffffffffffffff1673ffffffffffffffffffffffffffffffffffffffff16600073ffffffffffffffffffffffffffffffffffffffff167f8be0079c531659141344cd1fd0a4f28419497f9722a3daafe3b4186f6b6457e060405160405180910390a360018060003373ffffffffffffffffffffffffffffffffffffffff1673ffffffffffffffffffffffffffffffffffffffff16815260200190815260200160002060006101000a81548160ff021916908315150217905550600190505b6008811115156102525773bf0e4036bf968dd007f9b4a1bfda4e54c042f6126002600083815260200190815260200160002060006101000a81548173ffffffffffffffffffffffffffffffffffffffff021916908373ffffffffffffffffffffffffffffffffffffffff16021790555080806001019150506101d5565b50610f40806102626000396000f3006080604052600436106100e6576000357c0100000000000000000000000000000000000000000000000000000000900463ffffffff1680630baaea44146100eb5780631785f53c1461015857806324d7806c1461019b578063411b007e146101f657806346e301351461024d5780635c25fd131461027a578063668038e0146102a557806370480275146102bc578063715018a6146102ff5780638da5cb5b146103165780638f32d59b1461036d578063a888c2cd1461039c578063a977e16814610422578063f2fde38b14610479578063f5f95b3b146104bc578063fb454d29146104e7575b600080fd5b3480156100f757600080fd5b506101166004803603810190808035906020019092919050505061053e565b604051808273ffffffffffffffffffffffffffffffffffffffff1673ffffffffffffffffffffffffffffffffffffffff16815260200191505060405180910390f35b34801561016457600080fd5b50610199600480360381019080803573ffffffffffffffffffffffffffffffffffffffff169060200190929190505050610571565b005b3480156101a757600080fd5b506101dc600480360381019080803573ffffffffffffffffffffffffffffffffffffffff1690602001909291905050506105df565b604051808215151515815260200191505060405180910390f35b34801561020257600080fd5b5061020b6105ff565b604051808273ffffffffffffffffffffffffffffffffffffffff1673ffffffffffffffffffffffffffffffffffffffff16815260200191505060405180910390f35b34801561025957600080fd5b5061027860048036038101908080359060200190929190505050610625565b005b34801561028657600080fd5b5061028f6108d0565b6040518082815260200191505060405180910390f35b3480156102b157600080fd5b506102ba6108d6565b005b3480156102c857600080fd5b506102fd600480360381019080803573ffffffffffffffffffffffffffffffffffffffff169060200190929190505050610b2a565b005b34801561030b57600080fd5b50610314610b97565b005b34801561032257600080fd5b5061032b610c69565b604051808273ffffffffffffffffffffffffffffffffffffffff1673ffffffffffffffffffffffffffffffffffffffff16815260200191505060405180910390f35b34801561037957600080fd5b50610382610c92565b604051808215151515815260200191505060405180910390f35b3480156103a857600080fd5b506103c760048036038101908080359060200190929190505050610ce9565b604051808581526020018473ffffffffffffffffffffffffffffffffffffffff1673ffffffffffffffffffffffffffffffffffffffff1681526020018315151515815260200182815260200194505050505060405180910390f35b34801561042e57600080fd5b50610437610d55565b604051808273ffffffffffffffffffffffffffffffffffffffff1673ffffffffffffffffffffffffffffffffffffffff16815260200191505060405180910390f35b34801561048557600080fd5b506104ba600480360381019080803573ffffffffffffffffffffffffffffffffffffffff169060200190929190505050610d7b565b005b3480156104c857600080fd5b506104d1610d9a565b6040518082815260200191505060405180910390f35b3480156104f357600080fd5b50610528600480360381019080803573ffffffffffffffffffffffffffffffffffffffff169060200190929190505050610da0565b6040518082815260200191505060405180910390f35b60026020528060005260406000206000915054906101000a900473ffffffffffffffffffffffffffffffffffffffff1681565b610579610c92565b151561058457600080fd5b6000600160008373ffffffffffffffffffffffffffffffffffffffff1673ffffffffffffffffffffffffffffffffffffffff16815260200190815260200160002060006101000a81548160ff02191690831515021790555050565b60016020528060005260406000206000915054906101000a900460ff1681565b600960009054906101000a900473ffffffffffffffffffffffffffffffffffffffff1681565b600080600060011515600160003373ffffffffffffffffffffffffffffffffffffffff1673ffffffffffffffffffffffffffffffffffffffff16815260200190815260200160002060009054906101000a900460ff1615151415156106f2576040517f08c379a00000000000000000000000000000000000000000000000000000000081526004018080602001828103825260208152602001807f596f7520646f6e277420686176652061646d696e2070726976696c656775657381525060200191505060405180910390fd5b60078481548110151561070157fe5b906000526020600020906003020192508260010160149054906101000a900460ff1615151561072f57600080fd5b8260010160009054906101000a900473ffffffffffffffffffffffffffffffffffffffff169150600360008373ffffffffffffffffffffffffffffffffffffffff1673ffffffffffffffffffffffffffffffffffffffff1681526020019081526020016000205490506000600360008473ffffffffffffffffffffffffffffffffffffffff1673ffffffffffffffffffffffffffffffffffffffff168152602001908152602001600020819055508173ffffffffffffffffffffffffffffffffffffffff166108fc829081150290604051600060405180830381858888f19350505050158015610823573d6000803e3d6000fd5b5042600460008473ffffffffffffffffffffffffffffffffffffffff1673ffffffffffffffffffffffffffffffffffffffff1681526020019081526020016000208190555080428373ffffffffffffffffffffffffffffffffffffffff167f1a983dd8fc1bd566844e816cd39bafaebd6523281477df579d3252da34a251d960405160405180910390a460018360010160146101000a81548160ff02191690831515021790555050505050565b60065481565b6108de610ed3565b6000600360003373ffffffffffffffffffffffffffffffffffffffff1673ffffffffffffffffffffffffffffffffffffffff16815260200190815260200160002054141515156109bc576040517f08c379a00000000000000000000000000000000000000000000000000000000081526004018080602001828103825260228152602001807f596f7572207769746864726177616c2062616c616e6365206973207a65726f2e81526020017f2e2e00000000000000000000000000000000000000000000000000000000000081525060400191505060405180910390fd5b60065481600001818152505033816020019073ffffffffffffffffffffffffffffffffffffffff16908173ffffffffffffffffffffffffffffffffffffffff1681525050600081604001901515908115158152505042816060018181525050600781908060018154018082558091505090600182039060005260206000209060030201600090919290919091506000820151816000015560208201518160010160006101000a81548173ffffffffffffffffffffffffffffffffffffffff021916908373ffffffffffffffffffffffffffffffffffffffff16021790555060408201518160010160146101000a81548160ff02191690831515021790555060608201518160020155505050610add6001600654610db890919063ffffffff16565b600681905550423373ffffffffffffffffffffffffffffffffffffffff167f16b8533c95f66ab8c192c98ddcf5031bcb3ee6f4022988bdadd57d3422da307360405160405180910390a350565b610b32610c92565b1515610b3d57600080fd5b60018060008373ffffffffffffffffffffffffffffffffffffffff1673ffffffffffffffffffffffffffffffffffffffff16815260200190815260200160002060006101000a81548160ff02191690831515021790555050565b610b9f610c92565b1515610baa57600080fd5b600073ffffffffffffffffffffffffffffffffffffffff166000809054906101000a900473ffffffffffffffffffffffffffffffffffffffff1673ffffffffffffffffffffffffffffffffffffffff167f8be0079c531659141344cd1fd0a4f28419497f9722a3daafe3b4186f6b6457e060405160405180910390a360008060006101000a81548173ffffffffffffffffffffffffffffffffffffffff021916908373ffffffffffffffffffffffffffffffffffffffff160217905550565b60008060009054906101000a900473ffffffffffffffffffffffffffffffffffffffff16905090565b60008060009054906101000a900473ffffffffffffffffffffffffffffffffffffffff1673ffffffffffffffffffffffffffffffffffffffff163373ffffffffffffffffffffffffffffffffffffffff1614905090565b600781815481101515610cf857fe5b90600052602060002090600302016000915090508060000154908060010160009054906101000a900473ffffffffffffffffffffffffffffffffffffffff16908060010160149054906101000a900460ff16908060020154905084565b600860009054906101000a900473ffffffffffffffffffffffffffffffffffffffff1681565b610d83610c92565b1515610d8e57600080fd5b610d9781610dd9565b50565b60055481565b60036020528060005260406000206000915090505481565b6000808284019050838110151515610dcf57600080fd5b8091505092915050565b600073ffffffffffffffffffffffffffffffffffffffff168173ffffffffffffffffffffffffffffffffffffffff1614151515610e1557600080fd5b8073ffffffffffffffffffffffffffffffffffffffff166000809054906101000a900473ffffffffffffffffffffffffffffffffffffffff1673ffffffffffffffffffffffffffffffffffffffff167f8be0079c531659141344cd1fd0a4f28419497f9722a3daafe3b4186f6b6457e060405160405180910390a3806000806101000a81548173ffffffffffffffffffffffffffffffffffffffff021916908373ffffffffffffffffffffffffffffffffffffffff16021790555050565b60806040519081016040528060008152602001600073ffffffffffffffffffffffffffffffffffffffff1681526020016000151581526020016000815250905600a165627a7a723058208762ada978d4c6bdbd6700607da9419a5e5ab9fc7b039946a3847cb578a91b300029",
  "source": "pragma solidity ^0.4.24;\n\nimport \"../node_modules/openzeppelin-solidity/contracts/math/SafeMath.sol\";\nimport \"./IColor.sol\";\nimport \"./Roles.sol\";\n\ncontract DividendsDistributor is Roles {\n    \n    using SafeMath for uint;\n    \n    // Color color = Color(0x7899946bc29f3ab7443903bcc03e8a38407bb44a);\n    \n    mapping (uint => address) public ownerOfColor;\n    \n    constructor() {\n\n        // for (uint i = 1; i < color.totalSupply(); i++) {\n        //     ownerOfColor[i] = color.ownerOf(i);\n        // }0xbF0e4036BF968dD007F9B4A1BFdA4e54C042F612\n\n        for (uint i = 1; i <= 8; i++) {\n            ownerOfColor[i] = 0xbF0e4036BF968dD007F9B4A1BFdA4e54C042F612;\n        }\n    }\n    \n    //балансы доступные для вывода (накопленный пассивный доход за все раунды)\n    mapping (address => uint) public withdrawalBalances; \n    \n    //время последнего вывода пассивного дохода для адреса для любого раунда (адрес => время)\n    mapping (address => uint) addressToLastWithdrawalTime; \n    \n    //банк пассивных доходов\n    uint public dividendsBank;\n    \n    event DividendsWithdrawn(address indexed withdrawer, uint indexed currentTime, uint indexed amount);\n    event DividendsClaimed(address indexed claimer, uint indexed currentTime);\n\n    struct Claim {\n        uint id;\n        address claimer;\n        bool isResolved;\n        uint timestamp;\n    }\n\n    uint public claimId;\n    Claim[] public claims;\n\n  \n    function claimDividends() external {\n        //функция не может быть вызвана, если баланс для вывода пользователя равен нулю\n        require(withdrawalBalances[msg.sender] != 0, \"Your withdrawal balance is zero...\");\n        \n        Claim memory c;\n        c.id = claimId;\n        c.claimer = msg.sender;\n        c.isResolved = false;\n        c.timestamp = now;\n        claims.push(c);\n        claimId = claimId.add(1);\n        \n        emit DividendsClaimed(msg.sender, now);\n    }\n\n    function approveClaim(uint _claimId) public onlyAdmin() {\n        \n        Claim storage claim = claims[_claimId];\n        \n        require(!claim.isResolved);\n        \n        address claimer = claim.claimer;\n\n        //Checks-Effects-Interactions pattern\n        uint withdrawalAmount = withdrawalBalances[claimer];\n\n        //обнуляем баланс для вывода для пользователя\n        withdrawalBalances[claimer] = 0;\n\n        //перевести пользователю баланс для вывода\n        claimer.transfer(withdrawalAmount);\n        \n        //устанавливаем время последнего вывода средств для пользователя\n        addressToLastWithdrawalTime[claimer] = now;\n        emit DividendsWithdrawn(claimer, now, withdrawalAmount);\n\n        claim.isResolved = true;\n    }\n\n     // захардкоженные адреса для тестирования функции claimDividens()\n    // в продакшене это будут адреса бенефециариев Цветов и Пикселей : withdrawalBalances[ownerOf(_pixel)], withdrawalBalances[ownerOf(_color)]\n    //address public ownerOfColor = 0xf106a93c5ca900bfae6345b61fcfae9d75cb031d;\n    address public ownerOfPixel = 0xca35b7d915458ef540ade6068dfe2f44e8fa733c;\n    address public founders = 0x3e4d187df7d8a0820eaf4174d17b160157610912;\n   \n    //функция распределения дивидендов (пассивных доходов) - будет работать после подключения инстансов контрактов Цвета и Пикселя\n    function _distributeDividends(uint _color) internal {\n        \n        //require(ownerOfColor[_color] != address(0), \"There is no such color\");\n\n        //25% дивидендов распределяем организаторам (может быть смарт контракт)\n        withdrawalBalances[founders] = withdrawalBalances[founders].add(dividendsBank.mul(25).div(100)); \n    \n        //25% дивидендов распределяем бенефециарию цвета\n        withdrawalBalances[ownerOfColor[_color]] += dividendsBank.mul(25).div(100);\n    \n        //25% дивидендов распределяем бенефециарию пикселя\n        withdrawalBalances[ownerOfPixel] += dividendsBank.mul(25).div(100);\n    \n        //25% дивидендов распределяем реферреру, если он есть\n        // withdrawalBalances[referrer] += dividendsBank.mul(25).div(100);\n    }\n}",
  "sourcePath": "/Users/Amir/last-pixel-contracts/contracts/DividendsDistributor.sol",
  "compiler": {
    "name": "solc",
    "version": "0.4.24+commit.e67f0147.Emscripten.clang"
  },
  "schemaVersion": "2.0.1",
  "updatedAt": "2018-12-15T17:28:11.340Z"
}