{
  "contractName": "DividendsDistributor",
  "abi": [
    {
      "constant": true,
      "inputs": [],
      "name": "dividendsBank",
      "outputs": [
        {
          "name": "",
          "type": "uint256"
        }
      ],
      "payable": false,
      "stateMutability": "view",
      "type": "function"
    },
    {
      "constant": true,
      "inputs": [
        {
          "name": "",
          "type": "address"
        }
      ],
      "name": "withdrawalBalances",
      "outputs": [
        {
          "name": "",
          "type": "uint256"
        }
      ],
      "payable": false,
      "stateMutability": "view",
      "type": "function"
    },
    {
      "anonymous": false,
      "inputs": [
        {
          "indexed": true,
          "name": "withdrawer",
          "type": "address"
        },
        {
          "indexed": true,
          "name": "currentBlock",
          "type": "uint256"
        },
        {
          "indexed": true,
          "name": "amount",
          "type": "uint256"
        }
      ],
      "name": "DividendsWithdrawn",
      "type": "event"
    },
    {
      "constant": false,
      "inputs": [],
      "name": "claimDividends",
      "outputs": [],
      "payable": false,
      "stateMutability": "nonpayable",
      "type": "function"
    }
  ],
  "bytecode": "0x608060405273f106a93c5ca900bfae6345b61fcfae9d75cb031d600360006101000a81548173ffffffffffffffffffffffffffffffffffffffff021916908373ffffffffffffffffffffffffffffffffffffffff160217905550735ac77c56772a1819663ae375c9a2da2de34307ef600460006101000a81548173ffffffffffffffffffffffffffffffffffffffff021916908373ffffffffffffffffffffffffffffffffffffffff160217905550735ac77c56772a1819663ae375c9a2da2de34307ef600560006101000a81548173ffffffffffffffffffffffffffffffffffffffff021916908373ffffffffffffffffffffffffffffffffffffffff16021790555034801561010f57600080fd5b506103758061011f6000396000f300608060405260043610610057576000357c0100000000000000000000000000000000000000000000000000000000900463ffffffff168063668038e01461005c578063f5f95b3b14610073578063fb454d291461009e575b600080fd5b34801561006857600080fd5b506100716100f5565b005b34801561007f57600080fd5b5061008861032b565b6040518082815260200191505060405180910390f35b3480156100aa57600080fd5b506100df600480360381019080803573ffffffffffffffffffffffffffffffffffffffff169060200190929190505050610331565b6040518082815260200191505060405180910390f35b6000806000803373ffffffffffffffffffffffffffffffffffffffff1673ffffffffffffffffffffffffffffffffffffffff16815260200190815260200160002054141515156101d3576040517f08c379a00000000000000000000000000000000000000000000000000000000081526004018080602001828103825260228152602001807f596f7572207769746864726177616c2062616c616e6365206973207a65726f2e81526020017f2e2e00000000000000000000000000000000000000000000000000000000000081525060400191505060405180910390fd5b6000803373ffffffffffffffffffffffffffffffffffffffff1673ffffffffffffffffffffffffffffffffffffffff16815260200190815260200160002054905060008060003373ffffffffffffffffffffffffffffffffffffffff1673ffffffffffffffffffffffffffffffffffffffff168152602001908152602001600020819055503373ffffffffffffffffffffffffffffffffffffffff166108fc829081150290604051600060405180830381858888f1935050505015801561029e573d6000803e3d6000fd5b5042600160003373ffffffffffffffffffffffffffffffffffffffff1673ffffffffffffffffffffffffffffffffffffffff1681526020019081526020016000208190555080423373ffffffffffffffffffffffffffffffffffffffff167f1a983dd8fc1bd566844e816cd39bafaebd6523281477df579d3252da34a251d960405160405180910390a450565b60025481565b600060205280600052604060002060009150905054815600a165627a7a723058202a900d7e1517cb9b59cc896a9249876c188ec4310909e551830a4bc2d62a9f520029",
  "source": "pragma solidity ^0.4.24;\nimport \"../node_modules/openzeppelin-solidity/contracts/math/SafeMath.sol\";\n\ncontract DividendsDistributor {\n    \n    using SafeMath for uint;\n    \n    //балансы доступные для вывода (накопленный пассивный доход за все раунды)\n    mapping (address => uint) public withdrawalBalances; \n    \n    //время последнего вывода пассивного дохода для адреса для любого раунда (адрес => время)\n    mapping (address => uint) addressToLastWithdrawalTime; \n    \n    //банк пассивных доходов\n    uint public dividendsBank;\n    \n    event DividendsWithdrawn(address indexed withdrawer, uint indexed currentBlock, uint indexed amount);\n    \n    //функция запроса вывода дивидендов (пассивного дохода)\n    function claimDividends() external {\n\n        //функция не может быть вызвана, если баланс для вывода пользователя равен нулю\n        require(withdrawalBalances[msg.sender] != 0, \"Your withdrawal balance is zero...\");\n\n        //Checks-Effects-Interactions pattern\n        uint withdrawalAmount = withdrawalBalances[msg.sender];\n\n        //обнуляем баланс для вывода для пользователя\n        withdrawalBalances[msg.sender] = 0;\n\n        //перевести пользователю баланс для вывода\n        msg.sender.transfer(withdrawalAmount);\n        \n        //устанавливаем время последнего вывода средств для пользователя\n        addressToLastWithdrawalTime[msg.sender] = now;\n        \n        //вызываем ивент о том, что дивиденды выплачены (адрес, время вывода, количество вывода)\n        emit DividendsWithdrawn(msg.sender, now, withdrawalAmount);\n        \n    }\n\n    \n     // захардкоженные адреса для тестирования функции claimDividens()\n    // в продакшене это будут адреса бенефециариев Цветов и Пикселей : withdrawalBalances[ownerOf(_pixel)], withdrawalBalances[ownerOf(_color)]\n    address ownerOfColor = 0xf106a93c5ca900bfae6345b61fcfae9d75cb031d;\n    address ownerOfPixel = 0x5ac77c56772a1819663ae375c9a2da2de34307ef;\n    address founders = 0x5ac77c56772a1819663ae375c9a2da2de34307ef;\n    \n    //функция распределения дивидендов (пассивных доходов) - будет работать после подключения инстансов контрактов Цвета и Пикселя\n    function _distributeDividends() internal {\n\n        //25% дивидендов распределяем организаторам (может быть смарт контракт)\n        withdrawalBalances[founders] = withdrawalBalances[founders].add(dividendsBank.mul(25).div(100)); \n    \n        //25% дивидендов распределяем бенефециарию цвета\n        withdrawalBalances[ownerOfColor] += dividendsBank.mul(25).div(100);\n    \n        //25% дивидендов распределяем бенефециарию пикселя\n        withdrawalBalances[ownerOfPixel] += dividendsBank.mul(25).div(100);\n    \n        //25% дивидендов распределяем реферреру, если он есть\n        // withdrawalBalances[referrer] += dividendsBank.mul(25).div(100);\n    }\n}",
  "sourcePath": "/Users/Amir/last-pixel-contracts/contracts/DividendsDistributor.sol",
  "compiler": {
    "name": "solc",
    "version": "0.4.24+commit.e67f0147.Emscripten.clang"
  },
  "schemaVersion": "2.0.1",
  "updatedAt": "2018-11-28T12:37:22.329Z"
}