{
  "contractName": "DividendsDistributor",
  "abi": [
    {
      "constant": true,
      "inputs": [],
      "name": "isGamePaused",
      "outputs": [
        {
          "name": "",
          "type": "bool"
        }
      ],
      "payable": false,
      "stateMutability": "view",
      "type": "function"
    },
    {
      "constant": true,
      "inputs": [
        {
          "name": "",
          "type": "uint256"
        },
        {
          "name": "",
          "type": "address"
        }
      ],
      "name": "isInTBT",
      "outputs": [
        {
          "name": "",
          "type": "bool"
        }
      ],
      "payable": false,
      "stateMutability": "view",
      "type": "function"
    },
    {
      "constant": true,
      "inputs": [
        {
          "name": "",
          "type": "bytes32"
        }
      ],
      "name": "refLinkToUser",
      "outputs": [
        {
          "name": "",
          "type": "address"
        }
      ],
      "payable": false,
      "stateMutability": "view",
      "type": "function"
    },
    {
      "constant": true,
      "inputs": [
        {
          "name": "",
          "type": "uint256"
        },
        {
          "name": "",
          "type": "uint256"
        }
      ],
      "name": "colorToTotalPaintsForRound",
      "outputs": [
        {
          "name": "",
          "type": "uint256"
        }
      ],
      "payable": false,
      "stateMutability": "view",
      "type": "function"
    },
    {
      "constant": true,
      "inputs": [
        {
          "name": "",
          "type": "uint256"
        }
      ],
      "name": "ownerOfColor",
      "outputs": [
        {
          "name": "",
          "type": "address"
        }
      ],
      "payable": false,
      "stateMutability": "view",
      "type": "function"
    },
    {
      "constant": true,
      "inputs": [
        {
          "name": "",
          "type": "uint256"
        },
        {
          "name": "",
          "type": "uint256"
        }
      ],
      "name": "colorToPaintedPixelsAmountForRound",
      "outputs": [
        {
          "name": "",
          "type": "uint256"
        }
      ],
      "payable": false,
      "stateMutability": "view",
      "type": "function"
    },
    {
      "constant": true,
      "inputs": [],
      "name": "tbIteration",
      "outputs": [
        {
          "name": "",
          "type": "uint256"
        }
      ],
      "payable": false,
      "stateMutability": "view",
      "type": "function"
    },
    {
      "constant": true,
      "inputs": [
        {
          "name": "",
          "type": "uint256"
        }
      ],
      "name": "winnerOfRound",
      "outputs": [
        {
          "name": "",
          "type": "address"
        }
      ],
      "payable": false,
      "stateMutability": "view",
      "type": "function"
    },
    {
      "constant": false,
      "inputs": [
        {
          "name": "_admin",
          "type": "address"
        }
      ],
      "name": "removeAdmin",
      "outputs": [],
      "payable": false,
      "stateMutability": "nonpayable",
      "type": "function"
    },
    {
      "constant": true,
      "inputs": [
        {
          "name": "",
          "type": "address"
        }
      ],
      "name": "hasReferrer",
      "outputs": [
        {
          "name": "",
          "type": "bool"
        }
      ],
      "payable": false,
      "stateMutability": "view",
      "type": "function"
    },
    {
      "constant": true,
      "inputs": [
        {
          "name": "",
          "type": "address"
        }
      ],
      "name": "isRegisteredUser",
      "outputs": [
        {
          "name": "",
          "type": "bool"
        }
      ],
      "payable": false,
      "stateMutability": "view",
      "type": "function"
    },
    {
      "constant": true,
      "inputs": [
        {
          "name": "",
          "type": "uint256"
        },
        {
          "name": "",
          "type": "address"
        }
      ],
      "name": "hasPaintDiscountForColor",
      "outputs": [
        {
          "name": "",
          "type": "bool"
        }
      ],
      "payable": false,
      "stateMutability": "view",
      "type": "function"
    },
    {
      "constant": true,
      "inputs": [
        {
          "name": "",
          "type": "address"
        }
      ],
      "name": "isAdmin",
      "outputs": [
        {
          "name": "",
          "type": "bool"
        }
      ],
      "payable": false,
      "stateMutability": "view",
      "type": "function"
    },
    {
      "constant": true,
      "inputs": [
        {
          "name": "",
          "type": "uint256"
        }
      ],
      "name": "currentPaintGenForColor",
      "outputs": [
        {
          "name": "",
          "type": "uint256"
        }
      ],
      "payable": false,
      "stateMutability": "view",
      "type": "function"
    },
    {
      "constant": true,
      "inputs": [
        {
          "name": "",
          "type": "address"
        }
      ],
      "name": "lastPlayedRound",
      "outputs": [
        {
          "name": "",
          "type": "uint256"
        }
      ],
      "payable": false,
      "stateMutability": "view",
      "type": "function"
    },
    {
      "constant": true,
      "inputs": [
        {
          "name": "",
          "type": "uint256"
        },
        {
          "name": "",
          "type": "address"
        }
      ],
      "name": "moneySpentByUserForColor",
      "outputs": [
        {
          "name": "",
          "type": "uint256"
        }
      ],
      "payable": false,
      "stateMutability": "view",
      "type": "function"
    },
    {
      "constant": true,
      "inputs": [
        {
          "name": "",
          "type": "uint256"
        },
        {
          "name": "",
          "type": "uint256"
        }
      ],
      "name": "tbTeam",
      "outputs": [
        {
          "name": "",
          "type": "address"
        }
      ],
      "payable": false,
      "stateMutability": "view",
      "type": "function"
    },
    {
      "constant": true,
      "inputs": [
        {
          "name": "",
          "type": "uint256"
        },
        {
          "name": "",
          "type": "address"
        }
      ],
      "name": "painterToTBP",
      "outputs": [
        {
          "name": "",
          "type": "uint256"
        }
      ],
      "payable": false,
      "stateMutability": "view",
      "type": "function"
    },
    {
      "constant": true,
      "inputs": [
        {
          "name": "",
          "type": "uint256"
        },
        {
          "name": "",
          "type": "uint256"
        }
      ],
      "name": "paintGenToStartTimeForColor",
      "outputs": [
        {
          "name": "",
          "type": "uint256"
        }
      ],
      "payable": false,
      "stateMutability": "view",
      "type": "function"
    },
    {
      "constant": true,
      "inputs": [
        {
          "name": "",
          "type": "uint256"
        }
      ],
      "name": "callPriceForColor",
      "outputs": [
        {
          "name": "",
          "type": "uint256"
        }
      ],
      "payable": false,
      "stateMutability": "view",
      "type": "function"
    },
    {
      "constant": true,
      "inputs": [
        {
          "name": "",
          "type": "uint256"
        },
        {
          "name": "",
          "type": "address"
        }
      ],
      "name": "painterToCBP",
      "outputs": [
        {
          "name": "",
          "type": "uint256"
        }
      ],
      "payable": false,
      "stateMutability": "view",
      "type": "function"
    },
    {
      "constant": true,
      "inputs": [
        {
          "name": "",
          "type": "uint256"
        }
      ],
      "name": "winnerBankForRound",
      "outputs": [
        {
          "name": "",
          "type": "uint256"
        }
      ],
      "payable": false,
      "stateMutability": "view",
      "type": "function"
    },
    {
      "constant": true,
      "inputs": [],
      "name": "paintsCounter",
      "outputs": [
        {
          "name": "",
          "type": "uint256"
        }
      ],
      "payable": false,
      "stateMutability": "view",
      "type": "function"
    },
    {
      "constant": true,
      "inputs": [],
      "name": "founders",
      "outputs": [
        {
          "name": "",
          "type": "address"
        }
      ],
      "payable": false,
      "stateMutability": "view",
      "type": "function"
    },
    {
      "constant": true,
      "inputs": [
        {
          "name": "",
          "type": "address"
        }
      ],
      "name": "newUserToCounter",
      "outputs": [
        {
          "name": "",
          "type": "uint256"
        }
      ],
      "payable": false,
      "stateMutability": "view",
      "type": "function"
    },
    {
      "constant": true,
      "inputs": [
        {
          "name": "",
          "type": "uint256"
        },
        {
          "name": "",
          "type": "uint256"
        }
      ],
      "name": "counterToPainterForColor",
      "outputs": [
        {
          "name": "",
          "type": "address"
        }
      ],
      "payable": false,
      "stateMutability": "view",
      "type": "function"
    },
    {
      "constant": true,
      "inputs": [
        {
          "name": "",
          "type": "uint256"
        },
        {
          "name": "",
          "type": "uint256"
        }
      ],
      "name": "pixelToOldColorForRound",
      "outputs": [
        {
          "name": "",
          "type": "uint256"
        }
      ],
      "payable": false,
      "stateMutability": "view",
      "type": "function"
    },
    {
      "constant": true,
      "inputs": [
        {
          "name": "",
          "type": "uint256"
        }
      ],
      "name": "isTBPTransfered",
      "outputs": [
        {
          "name": "",
          "type": "bool"
        }
      ],
      "payable": false,
      "stateMutability": "view",
      "type": "function"
    },
    {
      "constant": true,
      "inputs": [
        {
          "name": "",
          "type": "uint256"
        }
      ],
      "name": "timeBankForRound",
      "outputs": [
        {
          "name": "",
          "type": "uint256"
        }
      ],
      "payable": false,
      "stateMutability": "view",
      "type": "function"
    },
    {
      "constant": true,
      "inputs": [
        {
          "name": "",
          "type": "address"
        }
      ],
      "name": "userToRefLink",
      "outputs": [
        {
          "name": "",
          "type": "string"
        }
      ],
      "payable": false,
      "stateMutability": "view",
      "type": "function"
    },
    {
      "constant": true,
      "inputs": [],
      "name": "claimId",
      "outputs": [
        {
          "name": "",
          "type": "uint256"
        }
      ],
      "payable": false,
      "stateMutability": "view",
      "type": "function"
    },
    {
      "constant": true,
      "inputs": [
        {
          "name": "",
          "type": "uint256"
        },
        {
          "name": "",
          "type": "uint256"
        }
      ],
      "name": "cbTeam",
      "outputs": [
        {
          "name": "",
          "type": "address"
        }
      ],
      "payable": false,
      "stateMutability": "view",
      "type": "function"
    },
    {
      "constant": true,
      "inputs": [
        {
          "name": "",
          "type": "uint256"
        },
        {
          "name": "",
          "type": "uint256"
        }
      ],
      "name": "paintGenStartedForColor",
      "outputs": [
        {
          "name": "",
          "type": "bool"
        }
      ],
      "payable": false,
      "stateMutability": "view",
      "type": "function"
    },
    {
      "constant": true,
      "inputs": [
        {
          "name": "",
          "type": "uint256"
        }
      ],
      "name": "lastPaintedPixelForRound",
      "outputs": [
        {
          "name": "",
          "type": "uint256"
        }
      ],
      "payable": false,
      "stateMutability": "view",
      "type": "function"
    },
    {
      "constant": true,
      "inputs": [
        {
          "name": "",
          "type": "uint256"
        }
      ],
      "name": "nextCallPriceForColor",
      "outputs": [
        {
          "name": "",
          "type": "uint256"
        }
      ],
      "payable": false,
      "stateMutability": "view",
      "type": "function"
    },
    {
      "constant": false,
      "inputs": [
        {
          "name": "_new",
          "type": "address"
        }
      ],
      "name": "addAdmin",
      "outputs": [],
      "payable": false,
      "stateMutability": "nonpayable",
      "type": "function"
    },
    {
      "constant": false,
      "inputs": [],
      "name": "renounceOwnership",
      "outputs": [],
      "payable": false,
      "stateMutability": "nonpayable",
      "type": "function"
    },
    {
      "constant": true,
      "inputs": [
        {
          "name": "",
          "type": "uint256"
        }
      ],
      "name": "lastPaintTimeForRound",
      "outputs": [
        {
          "name": "",
          "type": "uint256"
        }
      ],
      "payable": false,
      "stateMutability": "view",
      "type": "function"
    },
    {
      "constant": true,
      "inputs": [
        {
          "name": "",
          "type": "uint256"
        }
      ],
      "name": "lastPainterForRound",
      "outputs": [
        {
          "name": "",
          "type": "address"
        }
      ],
      "payable": false,
      "stateMutability": "view",
      "type": "function"
    },
    {
      "constant": true,
      "inputs": [
        {
          "name": "",
          "type": "address"
        }
      ],
      "name": "hasRefLink",
      "outputs": [
        {
          "name": "",
          "type": "bool"
        }
      ],
      "payable": false,
      "stateMutability": "view",
      "type": "function"
    },
    {
      "constant": true,
      "inputs": [
        {
          "name": "",
          "type": "address"
        },
        {
          "name": "",
          "type": "uint256"
        }
      ],
      "name": "referrerToReferrals",
      "outputs": [
        {
          "name": "",
          "type": "address"
        }
      ],
      "payable": false,
      "stateMutability": "view",
      "type": "function"
    },
    {
      "constant": true,
      "inputs": [],
      "name": "currentRound",
      "outputs": [
        {
          "name": "",
          "type": "uint256"
        }
      ],
      "payable": false,
      "stateMutability": "view",
      "type": "function"
    },
    {
      "constant": false,
      "inputs": [],
      "name": "renounceAdmin",
      "outputs": [],
      "payable": false,
      "stateMutability": "nonpayable",
      "type": "function"
    },
    {
      "constant": true,
      "inputs": [],
      "name": "owner",
      "outputs": [
        {
          "name": "",
          "type": "address"
        }
      ],
      "payable": false,
      "stateMutability": "view",
      "type": "function"
    },
    {
      "constant": true,
      "inputs": [
        {
          "name": "",
          "type": "uint256"
        }
      ],
      "name": "paintsCounterForColor",
      "outputs": [
        {
          "name": "",
          "type": "uint256"
        }
      ],
      "payable": false,
      "stateMutability": "view",
      "type": "function"
    },
    {
      "constant": true,
      "inputs": [],
      "name": "isOwner",
      "outputs": [
        {
          "name": "",
          "type": "bool"
        }
      ],
      "payable": false,
      "stateMutability": "view",
      "type": "function"
    },
    {
      "constant": true,
      "inputs": [
        {
          "name": "",
          "type": "uint256"
        },
        {
          "name": "",
          "type": "uint256"
        }
      ],
      "name": "pixelToPaintTimeForRound",
      "outputs": [
        {
          "name": "",
          "type": "uint256"
        }
      ],
      "payable": false,
      "stateMutability": "view",
      "type": "function"
    },
    {
      "constant": true,
      "inputs": [
        {
          "name": "",
          "type": "uint256"
        },
        {
          "name": "",
          "type": "uint256"
        }
      ],
      "name": "colorBankToColorForRound",
      "outputs": [
        {
          "name": "",
          "type": "uint256"
        }
      ],
      "payable": false,
      "stateMutability": "view",
      "type": "function"
    },
    {
      "constant": true,
      "inputs": [
        {
          "name": "",
          "type": "uint256"
        }
      ],
      "name": "claims",
      "outputs": [
        {
          "name": "id",
          "type": "uint256"
        },
        {
          "name": "claimer",
          "type": "address"
        },
        {
          "name": "isResolved",
          "type": "bool"
        },
        {
          "name": "timestamp",
          "type": "uint256"
        }
      ],
      "payable": false,
      "stateMutability": "view",
      "type": "function"
    },
    {
      "constant": true,
      "inputs": [],
      "name": "ownerOfPixel",
      "outputs": [
        {
          "name": "",
          "type": "address"
        }
      ],
      "payable": false,
      "stateMutability": "view",
      "type": "function"
    },
    {
      "constant": true,
      "inputs": [
        {
          "name": "",
          "type": "uint256"
        },
        {
          "name": "",
          "type": "address"
        }
      ],
      "name": "isInCBT",
      "outputs": [
        {
          "name": "",
          "type": "bool"
        }
      ],
      "payable": false,
      "stateMutability": "view",
      "type": "function"
    },
    {
      "constant": true,
      "inputs": [
        {
          "name": "",
          "type": "uint256"
        }
      ],
      "name": "counterToPainter",
      "outputs": [
        {
          "name": "",
          "type": "address"
        }
      ],
      "payable": false,
      "stateMutability": "view",
      "type": "function"
    },
    {
      "constant": true,
      "inputs": [
        {
          "name": "",
          "type": "uint256"
        },
        {
          "name": "",
          "type": "address"
        }
      ],
      "name": "timeBankShare",
      "outputs": [
        {
          "name": "",
          "type": "uint256"
        }
      ],
      "payable": false,
      "stateMutability": "view",
      "type": "function"
    },
    {
      "constant": true,
      "inputs": [
        {
          "name": "",
          "type": "uint256"
        },
        {
          "name": "",
          "type": "uint256"
        },
        {
          "name": "",
          "type": "address"
        }
      ],
      "name": "colorBankShare",
      "outputs": [
        {
          "name": "",
          "type": "uint256"
        }
      ],
      "payable": false,
      "stateMutability": "view",
      "type": "function"
    },
    {
      "constant": true,
      "inputs": [
        {
          "name": "",
          "type": "uint256"
        },
        {
          "name": "",
          "type": "uint256"
        }
      ],
      "name": "pixelToColorForRound",
      "outputs": [
        {
          "name": "",
          "type": "uint256"
        }
      ],
      "payable": false,
      "stateMutability": "view",
      "type": "function"
    },
    {
      "constant": true,
      "inputs": [
        {
          "name": "",
          "type": "uint256"
        }
      ],
      "name": "totalPaintsForRound",
      "outputs": [
        {
          "name": "",
          "type": "uint256"
        }
      ],
      "payable": false,
      "stateMutability": "view",
      "type": "function"
    },
    {
      "constant": true,
      "inputs": [
        {
          "name": "",
          "type": "uint256"
        }
      ],
      "name": "colorBankForRound",
      "outputs": [
        {
          "name": "",
          "type": "uint256"
        }
      ],
      "payable": false,
      "stateMutability": "view",
      "type": "function"
    },
    {
      "constant": true,
      "inputs": [
        {
          "name": "",
          "type": "uint256"
        },
        {
          "name": "",
          "type": "uint256"
        }
      ],
      "name": "paintGenToEndTimeForColor",
      "outputs": [
        {
          "name": "",
          "type": "uint256"
        }
      ],
      "payable": false,
      "stateMutability": "view",
      "type": "function"
    },
    {
      "constant": true,
      "inputs": [],
      "name": "uniqueUsersCount",
      "outputs": [
        {
          "name": "",
          "type": "uint256"
        }
      ],
      "payable": false,
      "stateMutability": "view",
      "type": "function"
    },
    {
      "constant": true,
      "inputs": [
        {
          "name": "",
          "type": "bytes32"
        }
      ],
      "name": "refLinkExists",
      "outputs": [
        {
          "name": "",
          "type": "bool"
        }
      ],
      "payable": false,
      "stateMutability": "view",
      "type": "function"
    },
    {
      "constant": true,
      "inputs": [
        {
          "name": "",
          "type": "uint256"
        },
        {
          "name": "",
          "type": "uint256"
        }
      ],
      "name": "paintGenToAmountForColor",
      "outputs": [
        {
          "name": "",
          "type": "uint256"
        }
      ],
      "payable": false,
      "stateMutability": "view",
      "type": "function"
    },
    {
      "constant": true,
      "inputs": [
        {
          "name": "",
          "type": "uint256"
        }
      ],
      "name": "isCBPTransfered",
      "outputs": [
        {
          "name": "",
          "type": "bool"
        }
      ],
      "payable": false,
      "stateMutability": "view",
      "type": "function"
    },
    {
      "constant": true,
      "inputs": [
        {
          "name": "",
          "type": "address"
        }
      ],
      "name": "referralToReferrer",
      "outputs": [
        {
          "name": "",
          "type": "address"
        }
      ],
      "payable": false,
      "stateMutability": "view",
      "type": "function"
    },
    {
      "constant": true,
      "inputs": [
        {
          "name": "",
          "type": "uint256"
        },
        {
          "name": "",
          "type": "address"
        }
      ],
      "name": "usersPaintDiscountForColor",
      "outputs": [
        {
          "name": "",
          "type": "uint256"
        }
      ],
      "payable": false,
      "stateMutability": "view",
      "type": "function"
    },
    {
      "constant": true,
      "inputs": [],
      "name": "maxPaintsInPool",
      "outputs": [
        {
          "name": "",
          "type": "uint256"
        }
      ],
      "payable": false,
      "stateMutability": "view",
      "type": "function"
    },
    {
      "constant": false,
      "inputs": [
        {
          "name": "newOwner",
          "type": "address"
        }
      ],
      "name": "transferOwnership",
      "outputs": [],
      "payable": false,
      "stateMutability": "nonpayable",
      "type": "function"
    },
    {
      "constant": true,
      "inputs": [
        {
          "name": "",
          "type": "uint256"
        }
      ],
      "name": "winnerColorForRound",
      "outputs": [
        {
          "name": "",
          "type": "uint256"
        }
      ],
      "payable": false,
      "stateMutability": "view",
      "type": "function"
    },
    {
      "constant": true,
      "inputs": [],
      "name": "dividendsBank",
      "outputs": [
        {
          "name": "",
          "type": "uint256"
        }
      ],
      "payable": false,
      "stateMutability": "view",
      "type": "function"
    },
    {
      "constant": true,
      "inputs": [
        {
          "name": "",
          "type": "address"
        }
      ],
      "name": "withdrawalBalances",
      "outputs": [
        {
          "name": "",
          "type": "uint256"
        }
      ],
      "payable": false,
      "stateMutability": "view",
      "type": "function"
    },
    {
      "constant": true,
      "inputs": [],
      "name": "cbIteration",
      "outputs": [
        {
          "name": "",
          "type": "uint256"
        }
      ],
      "payable": false,
      "stateMutability": "view",
      "type": "function"
    },
    {
      "inputs": [],
      "payable": false,
      "stateMutability": "nonpayable",
      "type": "constructor"
    },
    {
      "anonymous": false,
      "inputs": [
        {
          "indexed": true,
          "name": "withdrawer",
          "type": "address"
        },
        {
          "indexed": true,
          "name": "claimId",
          "type": "uint256"
        },
        {
          "indexed": true,
          "name": "amount",
          "type": "uint256"
        }
      ],
      "name": "DividendsWithdrawn",
      "type": "event"
    },
    {
      "anonymous": false,
      "inputs": [
        {
          "indexed": true,
          "name": "claimer",
          "type": "address"
        },
        {
          "indexed": true,
          "name": "claimId",
          "type": "uint256"
        },
        {
          "indexed": true,
          "name": "currentTime",
          "type": "uint256"
        }
      ],
      "name": "DividendsClaimed",
      "type": "event"
    },
    {
      "anonymous": false,
      "inputs": [
        {
          "indexed": true,
          "name": "previousOwner",
          "type": "address"
        },
        {
          "indexed": true,
          "name": "newOwner",
          "type": "address"
        }
      ],
      "name": "OwnershipTransferred",
      "type": "event"
    },
    {
      "constant": false,
      "inputs": [],
      "name": "claimDividends",
      "outputs": [],
      "payable": false,
      "stateMutability": "nonpayable",
      "type": "function"
    },
    {
      "constant": false,
      "inputs": [
        {
          "name": "_claimId",
          "type": "uint256"
        }
      ],
      "name": "approveClaim",
      "outputs": [],
      "payable": false,
      "stateMutability": "nonpayable",
      "type": "function"
    }
  ],
  "bytecode": "0x608060405273ca35b7d915458ef540ade6068dfe2f44e8fa733c604160006101000a81548173ffffffffffffffffffffffffffffffffffffffff021916908373ffffffffffffffffffffffffffffffffffffffff160217905550733e4d187df7d8a0820eaf4174d17b160157610912604260006101000a81548173ffffffffffffffffffffffffffffffffffffffff021916908373ffffffffffffffffffffffffffffffffffffffff1602179055503480156100ba57600080fd5b506000336000806101000a81548173ffffffffffffffffffffffffffffffffffffffff021916908373ffffffffffffffffffffffffffffffffffffffff1602179055506000809054906101000a900473ffffffffffffffffffffffffffffffffffffffff1673ffffffffffffffffffffffffffffffffffffffff16600073ffffffffffffffffffffffffffffffffffffffff167f8be0079c531659141344cd1fd0a4f28419497f9722a3daafe3b4186f6b6457e060405160405180910390a360018060003373ffffffffffffffffffffffffffffffffffffffff1673ffffffffffffffffffffffffffffffffffffffff16815260200190815260200160002060006101000a81548160ff021916908315150217905550600190505b6008811115156102525773bf0e4036bf968dd007f9b4a1bfda4e54c042f612603b600083815260200190815260200160002060006101000a81548173ffffffffffffffffffffffffffffffffffffffff021916908373ffffffffffffffffffffffffffffffffffffffff16021790555080806001019150506101d5565b50612cc6806102626000396000f30060806040526004361061034e576000357c0100000000000000000000000000000000000000000000000000000000900463ffffffff1680630422ddf31461035357806305bdd0be14610382578063099b81ce146103e75780630ba36221146104585780630baaea44146104a35780630cf9603f146105105780630f6ed86e1461055b578063102f9713146105865780631785f53c146105f357806318452cd8146106365780631f5bdf5d146106915780631f90c6ed146106ec57806324d7806c1461075157806328361f57146107ac57806328b290f9146107ed5780632c6c1c41146108445780632c7a3dae146108a557806333f9c3881461091c5780633a1735051461097d5780633c6dd013146109c85780633ca4c18314610a095780633d0d1a7914610a6a5780633dc3c37714610aab578063411b007e14610ad657806341c5464e14610b2d57806342e453ec14610b8457806346e3013514610bfb5780634b39173d14610c285780634c438ad714610c735780634c78e40114610cb85780635bfcdb2714610cf95780635c25fd1314610db55780635d63ebb214610de05780635f5d554c14610e57578063628a71a314610ea6578063668038e014610ee75780636f17eb4214610efe5780637048027514610f3f578063715018a614610f8257806373a9ee2614610f9957806379ecf37614610fda5780637e1e175c1461104757806387982ac3146110a25780638a19c8bc1461112f5780638bad0c0a1461115a5780638da5cb5b146111715780638e2df39c146111c85780638f32d59b146112095780638f63b7e514611238578063a312072414611283578063a888c2cd146112ce578063a977e16814611354578063ab24c7d2146113ab578063ae55ce8214611410578063b0ff59d21461147d578063b1a3883c146114de578063b8232d5d14611549578063be7d622614611594578063c64a2e56146115d5578063c957387b14611616578063c9f8234f14611661578063d4526e681461168c578063d5de47c7146116d5578063da68b12114611720578063deaf0fa114611765578063eaf1c910146117e8578063eef565da14611849578063f2fde38b14611874578063f49916f5146118b7578063f5f95b3b146118f8578063fb454d2914611923578063fea11fe31461197a575b600080fd5b34801561035f57600080fd5b506103686119a5565b604051808215151515815260200191505060405180910390f35b34801561038e57600080fd5b506103cd60048036038101908080359060200190929190803573ffffffffffffffffffffffffffffffffffffffff1690602001909291905050506119b8565b604051808215151515815260200191505060405180910390f35b3480156103f357600080fd5b5061041660048036038101908080356000191690602001909291905050506119e7565b604051808273ffffffffffffffffffffffffffffffffffffffff1673ffffffffffffffffffffffffffffffffffffffff16815260200191505060405180910390f35b34801561046457600080fd5b5061048d6004803603810190808035906020019092919080359060200190929190505050611a1a565b6040518082815260200191505060405180910390f35b3480156104af57600080fd5b506104ce60048036038101908080359060200190929190505050611a3f565b604051808273ffffffffffffffffffffffffffffffffffffffff1673ffffffffffffffffffffffffffffffffffffffff16815260200191505060405180910390f35b34801561051c57600080fd5b506105456004803603810190808035906020019092919080359060200190929190505050611a72565b6040518082815260200191505060405180910390f35b34801561056757600080fd5b50610570611a97565b6040518082815260200191505060405180910390f35b34801561059257600080fd5b506105b160048036038101908080359060200190929190505050611a9d565b604051808273ffffffffffffffffffffffffffffffffffffffff1673ffffffffffffffffffffffffffffffffffffffff16815260200191505060405180910390f35b3480156105ff57600080fd5b50610634600480360381019080803573ffffffffffffffffffffffffffffffffffffffff169060200190929190505050611ad0565b005b34801561064257600080fd5b50610677600480360381019080803573ffffffffffffffffffffffffffffffffffffffff169060200190929190505050611b3e565b604051808215151515815260200191505060405180910390f35b34801561069d57600080fd5b506106d2600480360381019080803573ffffffffffffffffffffffffffffffffffffffff169060200190929190505050611b5e565b604051808215151515815260200191505060405180910390f35b3480156106f857600080fd5b5061073760048036038101908080359060200190929190803573ffffffffffffffffffffffffffffffffffffffff169060200190929190505050611b7e565b604051808215151515815260200191505060405180910390f35b34801561075d57600080fd5b50610792600480360381019080803573ffffffffffffffffffffffffffffffffffffffff169060200190929190505050611bad565b604051808215151515815260200191505060405180910390f35b3480156107b857600080fd5b506107d760048036038101908080359060200190929190505050611bcd565b6040518082815260200191505060405180910390f35b3480156107f957600080fd5b5061082e600480360381019080803573ffffffffffffffffffffffffffffffffffffffff169060200190929190505050611be5565b6040518082815260200191505060405180910390f35b34801561085057600080fd5b5061088f60048036038101908080359060200190929190803573ffffffffffffffffffffffffffffffffffffffff169060200190929190505050611bfd565b6040518082815260200191505060405180910390f35b3480156108b157600080fd5b506108da6004803603810190808035906020019092919080359060200190929190505050611c22565b604051808273ffffffffffffffffffffffffffffffffffffffff1673ffffffffffffffffffffffffffffffffffffffff16815260200191505060405180910390f35b34801561092857600080fd5b5061096760048036038101908080359060200190929190803573ffffffffffffffffffffffffffffffffffffffff169060200190929190505050611c6f565b6040518082815260200191505060405180910390f35b34801561098957600080fd5b506109b26004803603810190808035906020019092919080359060200190929190505050611c94565b6040518082815260200191505060405180910390f35b3480156109d457600080fd5b506109f360048036038101908080359060200190929190505050611cb9565b6040518082815260200191505060405180910390f35b348015610a1557600080fd5b50610a5460048036038101908080359060200190929190803573ffffffffffffffffffffffffffffffffffffffff169060200190929190505050611cd1565b6040518082815260200191505060405180910390f35b348015610a7657600080fd5b50610a9560048036038101908080359060200190929190505050611cf6565b6040518082815260200191505060405180910390f35b348015610ab757600080fd5b50610ac0611d0e565b6040518082815260200191505060405180910390f35b348015610ae257600080fd5b50610aeb611d14565b604051808273ffffffffffffffffffffffffffffffffffffffff1673ffffffffffffffffffffffffffffffffffffffff16815260200191505060405180910390f35b348015610b3957600080fd5b50610b6e600480360381019080803573ffffffffffffffffffffffffffffffffffffffff169060200190929190505050611d3a565b6040518082815260200191505060405180910390f35b348015610b9057600080fd5b50610bb96004803603810190808035906020019092919080359060200190929190505050611d52565b604051808273ffffffffffffffffffffffffffffffffffffffff1673ffffffffffffffffffffffffffffffffffffffff16815260200191505060405180910390f35b348015610c0757600080fd5b50610c2660048036038101908080359060200190929190505050611d94565b005b348015610c3457600080fd5b50610c5d600480360381019080803590602001909291908035906020019092919050505061203f565b6040518082815260200191505060405180910390f35b348015610c7f57600080fd5b50610c9e60048036038101908080359060200190929190505050612064565b604051808215151515815260200191505060405180910390f35b348015610cc457600080fd5b50610ce360048036038101908080359060200190929190505050612084565b6040518082815260200191505060405180910390f35b348015610d0557600080fd5b50610d3a600480360381019080803573ffffffffffffffffffffffffffffffffffffffff16906020019092919050505061209c565b6040518080602001828103825283818151815260200191508051906020019080838360005b83811015610d7a578082015181840152602081019050610d5f565b50505050905090810190601f168015610da75780820380516001836020036101000a031916815260200191505b509250505060405180910390f35b348015610dc157600080fd5b50610dca61214c565b6040518082815260200191505060405180910390f35b348015610dec57600080fd5b50610e156004803603810190808035906020019092919080359060200190929190505050612152565b604051808273ffffffffffffffffffffffffffffffffffffffff1673ffffffffffffffffffffffffffffffffffffffff16815260200191505060405180910390f35b348015610e6357600080fd5b50610e8c600480360381019080803590602001909291908035906020019092919050505061219f565b604051808215151515815260200191505060405180910390f35b348015610eb257600080fd5b50610ed1600480360381019080803590602001909291905050506121ce565b6040518082815260200191505060405180910390f35b348015610ef357600080fd5b50610efc6121e6565b005b348015610f0a57600080fd5b50610f296004803603810190808035906020019092919050505061243d565b6040518082815260200191505060405180910390f35b348015610f4b57600080fd5b50610f80600480360381019080803573ffffffffffffffffffffffffffffffffffffffff169060200190929190505050612455565b005b348015610f8e57600080fd5b50610f976124c2565b005b348015610fa557600080fd5b50610fc460048036038101908080359060200190929190505050612594565b6040518082815260200191505060405180910390f35b348015610fe657600080fd5b50611005600480360381019080803590602001909291905050506125ac565b604051808273ffffffffffffffffffffffffffffffffffffffff1673ffffffffffffffffffffffffffffffffffffffff16815260200191505060405180910390f35b34801561105357600080fd5b50611088600480360381019080803573ffffffffffffffffffffffffffffffffffffffff1690602001909291905050506125df565b604051808215151515815260200191505060405180910390f35b3480156110ae57600080fd5b506110ed600480360381019080803573ffffffffffffffffffffffffffffffffffffffff169060200190929190803590602001909291905050506125ff565b604051808273ffffffffffffffffffffffffffffffffffffffff1673ffffffffffffffffffffffffffffffffffffffff16815260200191505060405180910390f35b34801561113b57600080fd5b5061114461264c565b6040518082815260200191505060405180910390f35b34801561116657600080fd5b5061116f612652565b005b34801561117d57600080fd5b50611186612774565b604051808273ffffffffffffffffffffffffffffffffffffffff1673ffffffffffffffffffffffffffffffffffffffff16815260200191505060405180910390f35b3480156111d457600080fd5b506111f36004803603810190808035906020019092919050505061279d565b6040518082815260200191505060405180910390f35b34801561121557600080fd5b5061121e6127b5565b604051808215151515815260200191505060405180910390f35b34801561124457600080fd5b5061126d600480360381019080803590602001909291908035906020019092919050505061280c565b6040518082815260200191505060405180910390f35b34801561128f57600080fd5b506112b86004803603810190808035906020019092919080359060200190929190505050612831565b6040518082815260200191505060405180910390f35b3480156112da57600080fd5b506112f960048036038101908080359060200190929190505050612856565b604051808581526020018473ffffffffffffffffffffffffffffffffffffffff1673ffffffffffffffffffffffffffffffffffffffff1681526020018315151515815260200182815260200194505050505060405180910390f35b34801561136057600080fd5b506113696128c2565b604051808273ffffffffffffffffffffffffffffffffffffffff1673ffffffffffffffffffffffffffffffffffffffff16815260200191505060405180910390f35b3480156113b757600080fd5b506113f660048036038101908080359060200190929190803573ffffffffffffffffffffffffffffffffffffffff1690602001909291905050506128e8565b604051808215151515815260200191505060405180910390f35b34801561141c57600080fd5b5061143b60048036038101908080359060200190929190505050612917565b604051808273ffffffffffffffffffffffffffffffffffffffff1673ffffffffffffffffffffffffffffffffffffffff16815260200191505060405180910390f35b34801561148957600080fd5b506114c860048036038101908080359060200190929190803573ffffffffffffffffffffffffffffffffffffffff16906020019092919050505061294a565b6040518082815260200191505060405180910390f35b3480156114ea57600080fd5b506115336004803603810190808035906020019092919080359060200190929190803573ffffffffffffffffffffffffffffffffffffffff16906020019092919050505061296f565b6040518082815260200191505060405180910390f35b34801561155557600080fd5b5061157e60048036038101908080359060200190929190803590602001909291905050506129a1565b6040518082815260200191505060405180910390f35b3480156115a057600080fd5b506115bf600480360381019080803590602001909291905050506129c6565b6040518082815260200191505060405180910390f35b3480156115e157600080fd5b50611600600480360381019080803590602001909291905050506129de565b6040518082815260200191505060405180910390f35b34801561162257600080fd5b5061164b60048036038101908080359060200190929190803590602001909291905050506129f6565b6040518082815260200191505060405180910390f35b34801561166d57600080fd5b50611676612a1b565b6040518082815260200191505060405180910390f35b34801561169857600080fd5b506116bb6004803603810190808035600019169060200190929190505050612a21565b604051808215151515815260200191505060405180910390f35b3480156116e157600080fd5b5061170a6004803603810190808035906020019092919080359060200190929190505050612a41565b6040518082815260200191505060405180910390f35b34801561172c57600080fd5b5061174b60048036038101908080359060200190929190505050612a66565b604051808215151515815260200191505060405180910390f35b34801561177157600080fd5b506117a6600480360381019080803573ffffffffffffffffffffffffffffffffffffffff169060200190929190505050612a86565b604051808273ffffffffffffffffffffffffffffffffffffffff1673ffffffffffffffffffffffffffffffffffffffff16815260200191505060405180910390f35b3480156117f457600080fd5b5061183360048036038101908080359060200190929190803573ffffffffffffffffffffffffffffffffffffffff169060200190929190505050612ab8565b6040518082815260200191505060405180910390f35b34801561185557600080fd5b5061185e612add565b6040518082815260200191505060405180910390f35b34801561188057600080fd5b506118b5600480360381019080803573ffffffffffffffffffffffffffffffffffffffff169060200190929190505050612ae3565b005b3480156118c357600080fd5b506118e260048036038101908080359060200190929190505050612b02565b6040518082815260200191505060405180910390f35b34801561190457600080fd5b5061190d612b1a565b6040518082815260200191505060405180910390f35b34801561192f57600080fd5b50611964600480360381019080803573ffffffffffffffffffffffffffffffffffffffff169060200190929190505050612b20565b6040518082815260200191505060405180910390f35b34801561198657600080fd5b5061198f612b38565b6040518082815260200191505060405180910390f35b604260149054906101000a900460ff1681565b60356020528160005260406000206020528060005260406000206000915091509054906101000a900460ff1681565b60246020528060005260406000206000915054906101000a900473ffffffffffffffffffffffffffffffffffffffff1681565b600f602052816000526040600020602052806000526040600020600091509150505481565b603b6020528060005260406000206000915054906101000a900473ffffffffffffffffffffffffffffffffffffffff1681565b6007602052816000526040600020602052806000526040600020600091509150505481565b602a5481565b60106020528060005260406000206000915054906101000a900473ffffffffffffffffffffffffffffffffffffffff1681565b611ad86127b5565b1515611ae357600080fd5b6000600160008373ffffffffffffffffffffffffffffffffffffffff1673ffffffffffffffffffffffffffffffffffffffff16815260200190815260200160002060006101000a81548160ff02191690831515021790555050565b60226020528060005260406000206000915054906101000a900460ff1681565b601e6020528060005260406000206000915054906101000a900460ff1681565b601c6020528160005260406000206020528060005260406000206000915091509054906101000a900460ff1681565b60016020528060005260406000206000915054906101000a900460ff1681565b60186020528060005260406000206000915090505481565b603a6020528060005260406000206000915090505481565b601b602052816000526040600020602052806000526040600020600091509150505481565b603160205281600052604060002081815481101515611c3d57fe5b906000526020600020016000915091509054906101000a900473ffffffffffffffffffffffffffffffffffffffff1681565b6037602052816000526040600020602052806000526040600020600091509150505481565b6015602052816000526040600020602052806000526040600020600091509150505481565b60196020528060005260406000206000915090505481565b6036602052816000526040600020602052806000526040600020600091509150505481565b60116020528060005260406000206000915090505481565b602c5481565b604260009054906101000a900473ffffffffffffffffffffffffffffffffffffffff1681565b60266020528060005260406000206000915090505481565b60336020528160005260406000206020528060005260406000206000915091509054906101000a900473ffffffffffffffffffffffffffffffffffffffff1681565b600080600060011515600160003373ffffffffffffffffffffffffffffffffffffffff1673ffffffffffffffffffffffffffffffffffffffff16815260200190815260200160002060009054906101000a900460ff161515141515611e61576040517f08c379a00000000000000000000000000000000000000000000000000000000081526004018080602001828103825260208152602001807f596f7520646f6e277420686176652061646d696e2070726976696c656775657381525060200191505060405180910390fd5b604084815481101515611e7057fe5b906000526020600020906003020192508260010160149054906101000a900460ff16151515611e9e57600080fd5b8260010160009054906101000a900473ffffffffffffffffffffffffffffffffffffffff169150603c60008373ffffffffffffffffffffffffffffffffffffffff1673ffffffffffffffffffffffffffffffffffffffff1681526020019081526020016000205490506000603c60008473ffffffffffffffffffffffffffffffffffffffff1673ffffffffffffffffffffffffffffffffffffffff168152602001908152602001600020819055508173ffffffffffffffffffffffffffffffffffffffff166108fc829081150290604051600060405180830381858888f19350505050158015611f92573d6000803e3d6000fd5b5042603d60008473ffffffffffffffffffffffffffffffffffffffff1673ffffffffffffffffffffffffffffffffffffffff1681526020019081526020016000208190555080848373ffffffffffffffffffffffffffffffffffffffff167f1a983dd8fc1bd566844e816cd39bafaebd6523281477df579d3252da34a251d960405160405180910390a460018360010160146101000a81548160ff02191690831515021790555050505050565b6006602052816000526040600020602052806000526040600020600091509150505481565b60396020528060005260406000206000915054906101000a900460ff1681565b600a6020528060005260406000206000915090505481565b60236020528060005260406000206000915090508054600181600116156101000203166002900480601f0160208091040260200160405190810160405280929190818152602001828054600181600116156101000203166002900480156121445780601f1061211957610100808354040283529160200191612144565b820191906000526020600020905b81548152906001019060200180831161212757829003601f168201915b505050505081565b603f5481565b60306020528160005260406000208181548110151561216d57fe5b906000526020600020016000915091509054906101000a900473ffffffffffffffffffffffffffffffffffffffff1681565b60176020528160005260406000206020528060005260406000206000915091509054906101000a900460ff1681565b600d6020528060005260406000206000915090505481565b6121ee612c59565b6000603c60003373ffffffffffffffffffffffffffffffffffffffff1673ffffffffffffffffffffffffffffffffffffffff16815260200190815260200160002054141515156122cc576040517f08c379a00000000000000000000000000000000000000000000000000000000081526004018080602001828103825260228152602001807f596f7572207769746864726177616c2062616c616e6365206973207a65726f2e81526020017f2e2e00000000000000000000000000000000000000000000000000000000000081525060400191505060405180910390fd5b6122e26001603f54612b3e90919063ffffffff16565b603f81905550603f5481600001818152505033816020019073ffffffffffffffffffffffffffffffffffffffff16908173ffffffffffffffffffffffffffffffffffffffff1681525050600081604001901515908115158152505042816060018181525050604081908060018154018082558091505090600182039060005260206000209060030201600090919290919091506000820151816000015560208201518160010160006101000a81548173ffffffffffffffffffffffffffffffffffffffff021916908373ffffffffffffffffffffffffffffffffffffffff16021790555060408201518160010160146101000a81548160ff0219169083151502179055506060820151816002015550505042603f543373ffffffffffffffffffffffffffffffffffffffff167f4564c5b058f69e7dcd0937715686b0e7e519875481b651ebfab2eef281268f2360405160405180910390a450565b601a6020528060005260406000206000915090505481565b61245d6127b5565b151561246857600080fd5b60018060008373ffffffffffffffffffffffffffffffffffffffff1673ffffffffffffffffffffffffffffffffffffffff16815260200190815260200160002060006101000a81548160ff02191690831515021790555050565b6124ca6127b5565b15156124d557600080fd5b600073ffffffffffffffffffffffffffffffffffffffff166000809054906101000a900473ffffffffffffffffffffffffffffffffffffffff1673ffffffffffffffffffffffffffffffffffffffff167f8be0079c531659141344cd1fd0a4f28419497f9722a3daafe3b4186f6b6457e060405160405180910390a360008060006101000a81548173ffffffffffffffffffffffffffffffffffffffff021916908373ffffffffffffffffffffffffffffffffffffffff160217905550565b600b6020528060005260406000206000915090505481565b600c6020528060005260406000206000915054906101000a900473ffffffffffffffffffffffffffffffffffffffff1681565b601f6020528060005260406000206000915054906101000a900460ff1681565b60216020528160005260406000208181548110151561261a57fe5b906000526020600020016000915091509054906101000a900473ffffffffffffffffffffffffffffffffffffffff1681565b60295481565b60011515600160003373ffffffffffffffffffffffffffffffffffffffff1673ffffffffffffffffffffffffffffffffffffffff16815260200190815260200160002060009054906101000a900460ff16151514151561271a576040517f08c379a00000000000000000000000000000000000000000000000000000000081526004018080602001828103825260208152602001807f596f7520646f6e277420686176652061646d696e2070726976696c656775657381525060200191505060405180910390fd5b6000600160003373ffffffffffffffffffffffffffffffffffffffff1673ffffffffffffffffffffffffffffffffffffffff16815260200190815260200160002060006101000a81548160ff021916908315150217905550565b60008060009054906101000a900473ffffffffffffffffffffffffffffffffffffffff16905090565b602f6020528060005260406000206000915090505481565b60008060009054906101000a900473ffffffffffffffffffffffffffffffffffffffff1673ffffffffffffffffffffffffffffffffffffffff163373ffffffffffffffffffffffffffffffffffffffff1614905090565b6012602052816000526040600020602052806000526040600020600091509150505481565b6009602052816000526040600020602052806000526040600020600091509150505481565b60408181548110151561286557fe5b90600052602060002090600302016000915090508060000154908060010160009054906101000a900473ffffffffffffffffffffffffffffffffffffffff16908060010160149054906101000a900460ff16908060020154905084565b604160009054906101000a900473ffffffffffffffffffffffffffffffffffffffff1681565b60346020528160005260406000206020528060005260406000206000915091509054906101000a900460ff1681565b60326020528060005260406000206000915054906101000a900473ffffffffffffffffffffffffffffffffffffffff1681565b602d602052816000526040600020602052806000526040600020600091509150505481565b602e60205282600052604060002060205281600052604060002060205280600052604060002060009250925050505481565b6005602052816000526040600020602052806000526040600020600091509150505481565b60136020528060005260406000206000915090505481565b60086020528060005260406000206000915090505481565b6016602052816000526040600020602052806000526040600020600091509150505481565b60275481565b60256020528060005260406000206000915054906101000a900460ff1681565b6014602052816000526040600020602052806000526040600020600091509150505481565b60386020528060005260406000206000915054906101000a900460ff1681565b602080528060005260406000206000915054906101000a900473ffffffffffffffffffffffffffffffffffffffff1681565b601d602052816000526040600020602052806000526040600020600091509150505481565b60285481565b612aeb6127b5565b1515612af657600080fd5b612aff81612b5f565b50565b600e6020528060005260406000206000915090505481565b603e5481565b603c6020528060005260406000206000915090505481565b602b5481565b6000808284019050838110151515612b5557600080fd5b8091505092915050565b600073ffffffffffffffffffffffffffffffffffffffff168173ffffffffffffffffffffffffffffffffffffffff1614151515612b9b57600080fd5b8073ffffffffffffffffffffffffffffffffffffffff166000809054906101000a900473ffffffffffffffffffffffffffffffffffffffff1673ffffffffffffffffffffffffffffffffffffffff167f8be0079c531659141344cd1fd0a4f28419497f9722a3daafe3b4186f6b6457e060405160405180910390a3806000806101000a81548173ffffffffffffffffffffffffffffffffffffffff021916908373ffffffffffffffffffffffffffffffffffffffff16021790555050565b60806040519081016040528060008152602001600073ffffffffffffffffffffffffffffffffffffffff1681526020016000151581526020016000815250905600a165627a7a7230582079f9953365fe9e617a51d94bd7cbe67a5f3d0b65f61062949e2a82cc69b1860b0029",
  "source": "pragma solidity ^0.4.24;\n\nimport \"../node_modules/openzeppelin-solidity/contracts/math/SafeMath.sol\";\nimport \"./IColor.sol\";\nimport \"./Roles.sol\";\nimport \"./StorageV1.sol\";\n\ncontract DividendsDistributor is Roles, StorageV1 {\n    \n    using SafeMath for uint;\n\n    event DividendsWithdrawn(address indexed withdrawer, uint indexed claimId, uint indexed amount);\n    event DividendsClaimed(address indexed claimer, uint indexed claimId, uint indexed currentTime);\n    \n    constructor() {\n\n        // for (uint i = 1; i < color.totalSupply(); i++) {\n        //     ownerOfColor[i] = color.ownerOf(i);\n        // }0xbF0e4036BF968dD007F9B4A1BFdA4e54C042F612\n\n        for (uint i = 1; i <= 8; i++) {\n            ownerOfColor[i] = 0xbF0e4036BF968dD007F9B4A1BFdA4e54C042F612;\n        }\n    }\n    \n    function claimDividends() external {\n        //    ,       \n        require(withdrawalBalances[msg.sender] != 0, \"Your withdrawal balance is zero...\");\n        claimId = claimId.add(1);\n        Claim memory c;\n        c.id = claimId;\n        c.claimer = msg.sender;\n        c.isResolved = false;\n        c.timestamp = now;\n        claims.push(c);\n        emit DividendsClaimed(msg.sender, claimId, now);\n    }\n\n    function approveClaim(uint _claimId) public onlyAdmin() {\n        \n        Claim storage claim = claims[_claimId];\n        \n        require(!claim.isResolved);\n        \n        address claimer = claim.claimer;\n\n        //Checks-Effects-Interactions pattern\n        uint withdrawalAmount = withdrawalBalances[claimer];\n\n        //     \n        withdrawalBalances[claimer] = 0;\n\n        //    \n        claimer.transfer(withdrawalAmount);\n        \n        //      \n        addressToLastWithdrawalTime[claimer] = now;\n        emit DividendsWithdrawn(claimer, _claimId, withdrawalAmount);\n\n        claim.isResolved = true;\n    }\n\n   \n    //   ( ) -         \n    function _distributeDividends(uint _color) internal {\n        \n        //require(ownerOfColor[_color] != address(0), \"There is no such color\");\n\n        //25%    (   )\n        withdrawalBalances[founders] = withdrawalBalances[founders].add(dividendsBank.mul(25).div(100)); \n    \n        //25%    \n        withdrawalBalances[ownerOfColor[_color]] += dividendsBank.mul(25).div(100);\n    \n        //25%    \n        withdrawalBalances[ownerOfPixel] += dividendsBank.mul(25).div(100);\n    \n        //25%   ,   \n        // withdrawalBalances[referrer] += dividendsBank.mul(25).div(100);\n    }\n}",
  "sourcePath": "/Users/Amir/last-pixel-contracts/contracts/DividendsDistributor.sol",
  "compiler": {
    "name": "solc",
    "version": "0.4.24+commit.e67f0147.Emscripten.clang"
  },
  "schemaVersion": "2.0.1",
  "updatedAt": "2019-01-06T14:22:33.784Z"
}