{
  "contractName": "ERC1538Delegate",
  "abi": [
    {
      "constant": false,
      "inputs": [],
      "name": "renounceOwnership",
      "outputs": [],
      "payable": false,
      "stateMutability": "nonpayable",
      "type": "function"
    },
    {
      "constant": true,
      "inputs": [],
      "name": "owner",
      "outputs": [
        {
          "name": "",
          "type": "address"
        }
      ],
      "payable": false,
      "stateMutability": "view",
      "type": "function"
    },
    {
      "constant": true,
      "inputs": [],
      "name": "isOwner",
      "outputs": [
        {
          "name": "",
          "type": "bool"
        }
      ],
      "payable": false,
      "stateMutability": "view",
      "type": "function"
    },
    {
      "constant": false,
      "inputs": [
        {
          "name": "newOwner",
          "type": "address"
        }
      ],
      "name": "transferOwnership",
      "outputs": [],
      "payable": false,
      "stateMutability": "nonpayable",
      "type": "function"
    },
    {
      "anonymous": false,
      "inputs": [
        {
          "indexed": true,
          "name": "previousOwner",
          "type": "address"
        },
        {
          "indexed": true,
          "name": "newOwner",
          "type": "address"
        }
      ],
      "name": "OwnershipTransferred",
      "type": "event"
    },
    {
      "anonymous": false,
      "inputs": [
        {
          "indexed": false,
          "name": "message",
          "type": "string"
        }
      ],
      "name": "CommitMessage",
      "type": "event"
    },
    {
      "anonymous": false,
      "inputs": [
        {
          "indexed": true,
          "name": "functionId",
          "type": "bytes4"
        },
        {
          "indexed": true,
          "name": "oldDelegate",
          "type": "address"
        },
        {
          "indexed": true,
          "name": "newDelegate",
          "type": "address"
        },
        {
          "indexed": false,
          "name": "functionSignature",
          "type": "string"
        }
      ],
      "name": "FunctionUpdate",
      "type": "event"
    },
    {
      "constant": false,
      "inputs": [
        {
          "name": "_delegate",
          "type": "address"
        },
        {
          "name": "_functionSignatures",
          "type": "string"
        },
        {
          "name": "commitMessage",
          "type": "string"
        }
      ],
      "name": "updateContract",
      "outputs": [],
      "payable": false,
      "stateMutability": "nonpayable",
      "type": "function"
    }
  ],
  "bytecode": "0x6080604052336000806101000a81548173ffffffffffffffffffffffffffffffffffffffff021916908373ffffffffffffffffffffffffffffffffffffffff1602179055506000809054906101000a900473ffffffffffffffffffffffffffffffffffffffff1673ffffffffffffffffffffffffffffffffffffffff16600073ffffffffffffffffffffffffffffffffffffffff167f8be0079c531659141344cd1fd0a4f28419497f9722a3daafe3b4186f6b6457e060405160405180910390a3611257806100cf6000396000f30060806040526004361061006d576000357c0100000000000000000000000000000000000000000000000000000000900463ffffffff1680636145556714610072578063715018a6146100e55780638da5cb5b146100fc5780638f32d59b14610153578063f2fde38b14610182575b600080fd5b34801561007e57600080fd5b506100e3600480360381019080803573ffffffffffffffffffffffffffffffffffffffff1690602001909291908035906020019082018035906020019190919293919293908035906020019082018035906020019190919293919293905050506101c5565b005b3480156100f157600080fd5b506100fa610df4565b005b34801561010857600080fd5b50610111610ec6565b604051808273ffffffffffffffffffffffffffffffffffffffff1673ffffffffffffffffffffffffffffffffffffffff16815260200191505060405180910390f35b34801561015f57600080fd5b50610168610eef565b604051808215151515815260200191505060405180910390f35b34801561018e57600080fd5b506101c3600480360381019080803573ffffffffffffffffffffffffffffffffffffffff169060200190929190505050610f46565b005b600060606000806000806000806000806101dd610eef565b15156101e857600080fd5b600073ffffffffffffffffffffffffffffffffffffffff168f73ffffffffffffffffffffffffffffffffffffffff161415156102c1578e3b995060008a1115156102c0576040517f08c379a00000000000000000000000000000000000000000000000000000000081526004018080602001828103825260398152602001807f5f64656c65676174652061646472657373206973206e6f74206120636f6e747281526020017f61637420616e64206973206e6f7420616464726573732830290000000000000081525060400191505060405180910390fd5b5b8d8d8080601f016020809104026020016040519081016040528093929190818152602001838380828437820191505050505050985060208901995089965088518a0197505b878a1015610d9257895160001a92506029831415610d855789806001019a5050868a039350899650838952886040518082805190602001908083835b6020831015156103675780518252602082019150602081019050602083039250610342565b6001836020036101000a0380198251168184511680821785525050505050509050019150506040518091039020955060016000877bffffffffffffffffffffffffffffffffffffffffffffffffffffffff19167bffffffffffffffffffffffffffffffffffffffffffffffffffffffff1916815260200190815260200160002060009054906101000a900473ffffffffffffffffffffffffffffffffffffffff169450600073ffffffffffffffffffffffffffffffffffffffff168f73ffffffffffffffffffffffffffffffffffffffff161415610810576003896040518082805190602001908083835b6020831015156104775780518252602082019150602081019050602083039250610452565b6001836020036101000a038019825116818451168082178552505050505050905001915050908152602001604051809103902054915060008214151515610526576040517f08c379a00000000000000000000000000000000000000000000000000000000081526004018080602001828103825260188152602001807f46756e6374696f6e20646f6573206e6f742065786973742e000000000000000081525060200191505060405180910390fd5b818060019003925050600160028054905003905080821415156106275760028181548110151561055257fe5b9060005260206000200160028381548110151561056b57fe5b90600052602060002001908054600181600116156101000203166002900461059492919061105f565b506001820160036002838154811015156105aa57fe5b90600052602060002001604051808280546001816001161561010002031660029004801561060f5780601f106105ed57610100808354040283529182019161060f565b820191906000526020600020905b8154815290600101906020018083116105fb575b50509150509081526020016040518091039020819055505b600280548091906001900361063c91906110e6565b506003896040518082805190602001908083835b6020831015156106755780518252602082019150602081019050602083039250610650565b6001836020036101000a03801982511681845116808217855250505050505090500191505090815260200160405180910390206000905560016000877bffffffffffffffffffffffffffffffffffffffffffffffffffffffff19167bffffffffffffffffffffffffffffffffffffffffffffffffffffffff1916815260200190815260200160002060006101000a81549073ffffffffffffffffffffffffffffffffffffffff0219169055600073ffffffffffffffffffffffffffffffffffffffff168573ffffffffffffffffffffffffffffffffffffffff16877bffffffffffffffffffffffffffffffffffffffffffffffffffffffff19167f3234040ce3bd4564874e44810f198910133a1b24c4e84aac87edbf6b458f53538c6040518080602001828103825283818151815260200191508051906020019080838360005b838110156107d15780820151818401526020810190506107b6565b50505050905090810190601f1680156107fe5780820380516001836020036101000a031916815260200191505b509250505060405180910390a4610d7f565b600060038a6040518082805190602001908083835b60208310151561084a5780518252602082019150602081019050602083039250610825565b6001836020036101000a0380198251168184511680821785525050505050509050019150509081526020016040518091039020541415610b5c57600073ffffffffffffffffffffffffffffffffffffffff168573ffffffffffffffffffffffffffffffffffffffff16141515610928576040517f08c379a000000000000000000000000000000000000000000000000000000000815260040180806020018281038252600d8152602001807f46756e63496420636c6173682e0000000000000000000000000000000000000081525060200191505060405180910390fd5b8e60016000887bffffffffffffffffffffffffffffffffffffffffffffffffffffffff19167bffffffffffffffffffffffffffffffffffffffffffffffffffffffff1916815260200190815260200160002060006101000a81548173ffffffffffffffffffffffffffffffffffffffff021916908373ffffffffffffffffffffffffffffffffffffffff16021790555060028990806001815401808255809150509060018203906000526020600020016000909192909190915090805190602001906109f5929190611112565b505060028054905060038a6040518082805190602001908083835b602083101515610a355780518252602082019150602081019050602083039250610a10565b6001836020036101000a0380198251168184511680821785525050505050509050019150509081526020016040518091039020819055508e73ffffffffffffffffffffffffffffffffffffffff16600073ffffffffffffffffffffffffffffffffffffffff16877bffffffffffffffffffffffffffffffffffffffffffffffffffffffff19167f3234040ce3bd4564874e44810f198910133a1b24c4e84aac87edbf6b458f53538c6040518080602001828103825283818151815260200191508051906020019080838360005b83811015610b1d578082015181840152602081019050610b02565b50505050905090810190601f168015610b4a5780820380516001836020036101000a031916815260200191505b509250505060405180910390a4610d7e565b8e73ffffffffffffffffffffffffffffffffffffffff1660016000887bffffffffffffffffffffffffffffffffffffffffffffffffffffffff19167bffffffffffffffffffffffffffffffffffffffffffffffffffffffff1916815260200190815260200160002060009054906101000a900473ffffffffffffffffffffffffffffffffffffffff1673ffffffffffffffffffffffffffffffffffffffff16141515610d7d578e60016000887bffffffffffffffffffffffffffffffffffffffffffffffffffffffff19167bffffffffffffffffffffffffffffffffffffffffffffffffffffffff1916815260200190815260200160002060006101000a81548173ffffffffffffffffffffffffffffffffffffffff021916908373ffffffffffffffffffffffffffffffffffffffff1602179055508e73ffffffffffffffffffffffffffffffffffffffff168573ffffffffffffffffffffffffffffffffffffffff16877bffffffffffffffffffffffffffffffffffffffffffffffffffffffff19167f3234040ce3bd4564874e44810f198910133a1b24c4e84aac87edbf6b458f53538c6040518080602001828103825283818151815260200191508051906020019080838360005b83811015610d42578082015181840152602081019050610d27565b50505050905090810190601f168015610d6f5780820380516001836020036101000a031916815260200191505b509250505060405180910390a45b5b5b83890198505b89806001019a5050610306565b7faa1c0a0a78cec2470f9652e5d29540752e7a64d70f926933cebf13afaeda45de8c8c604051808060200182810382528484828181526020019250808284378201915050935050505060405180910390a1505050505050505050505050505050565b610dfc610eef565b1515610e0757600080fd5b600073ffffffffffffffffffffffffffffffffffffffff166000809054906101000a900473ffffffffffffffffffffffffffffffffffffffff1673ffffffffffffffffffffffffffffffffffffffff167f8be0079c531659141344cd1fd0a4f28419497f9722a3daafe3b4186f6b6457e060405160405180910390a360008060006101000a81548173ffffffffffffffffffffffffffffffffffffffff021916908373ffffffffffffffffffffffffffffffffffffffff160217905550565b60008060009054906101000a900473ffffffffffffffffffffffffffffffffffffffff16905090565b60008060009054906101000a900473ffffffffffffffffffffffffffffffffffffffff1673ffffffffffffffffffffffffffffffffffffffff163373ffffffffffffffffffffffffffffffffffffffff1614905090565b610f4e610eef565b1515610f5957600080fd5b610f6281610f65565b50565b600073ffffffffffffffffffffffffffffffffffffffff168173ffffffffffffffffffffffffffffffffffffffff1614151515610fa157600080fd5b8073ffffffffffffffffffffffffffffffffffffffff166000809054906101000a900473ffffffffffffffffffffffffffffffffffffffff1673ffffffffffffffffffffffffffffffffffffffff167f8be0079c531659141344cd1fd0a4f28419497f9722a3daafe3b4186f6b6457e060405160405180910390a3806000806101000a81548173ffffffffffffffffffffffffffffffffffffffff021916908373ffffffffffffffffffffffffffffffffffffffff16021790555050565b828054600181600116156101000203166002900490600052602060002090601f016020900481019282601f1061109857805485556110d5565b828001600101855582156110d557600052602060002091601f016020900482015b828111156110d45782548255916001019190600101906110b9565b5b5090506110e29190611192565b5090565b81548183558181111561110d5781836000526020600020918201910161110c91906111b7565b5b505050565b828054600181600116156101000203166002900490600052602060002090601f016020900481019282601f1061115357805160ff1916838001178555611181565b82800160010185558215611181579182015b82811115611180578251825591602001919060010190611165565b5b50905061118e9190611192565b5090565b6111b491905b808211156111b0576000816000905550600101611198565b5090565b90565b6111e091905b808211156111dc57600081816111d391906111e3565b506001016111bd565b5090565b90565b50805460018160011615610100020316600290046000825580601f106112095750611228565b601f0160209004906000526020600020908101906112279190611192565b5b505600a165627a7a7230582096f7db83548d52fbc7d2ce615dfb7fcb82ff35fefc602c6d049b6ca729eabfa30029",
  "source": "pragma solidity ^0.4.24;\npragma experimental \"v0.5.0\";\nimport \"./IERC1538.sol\";\nimport \"./StorageV0.sol\";\n\n/******************************************************************************\\\n* Implementation of ERC1538.\n* Function signatures are stored in an array so functions can be queried.\n/******************************************************************************/\n\ncontract ERC1538Delegate is IERC1538, StorageV0 {\n\n    function updateContract(address _delegate, string _functionSignatures, string commitMessage) external onlyOwner {\n        // pos is first used to check the size of the delegate contract.\n        // After that pos is the current memory location of _functionSignatures.\n        // It is used to move through the characters of _functionSignatures\n        uint256 pos;\n        if(_delegate != address(0)) {\n            assembly {\n                pos := extcodesize(_delegate)\n            }\n            require(pos > 0, \"_delegate address is not a contract and is not address(0)\");\n        }\n        // creates a bytes vesion of _functionSignatures\n        bytes memory signatures = bytes(_functionSignatures);\n        // stores the position in memory where _functionSignatures ends.\n        uint256 signaturesEnd;\n        // stores the starting position of a function signature in _functionSignatures\n        uint256 start;\n        assembly {\n            pos := add(signatures,32)\n            start := pos\n            signaturesEnd := add(pos,mload(signatures))\n        }\n        // the function id of the current function signature\n        bytes4 funcId;\n        // the delegate address that is being replaced or address(0) if removing functions\n        address oldDelegate;\n        // the length of the current function signature in _functionSignatures\n        uint256 num;\n        // the current character in _functionSignatures\n        uint256 char;\n        // the position of the current function signature in the funcSignatures array\n        uint256 index;\n        // the last position in the funcSignatures array\n        uint256 lastIndex;\n        // parse the _functionSignatures string and handle each function\n        for (; pos < signaturesEnd; pos++) {\n            assembly {char := byte(0,mload(pos))}\n            // 0x29 == )\n            if (char == 0x29) {\n                pos++;\n                num = (pos - start);\n                start = pos;\n                assembly {\n                    mstore(signatures,num)\n                }\n                funcId = bytes4(keccak256(signatures));\n                oldDelegate = delegates[funcId];\n                if(_delegate == address(0)) {\n                    index = funcSignatureToIndex[signatures];\n                    require(index != 0, \"Function does not exist.\");\n                    index--;\n                    lastIndex = funcSignatures.length - 1;\n                    if (index != lastIndex) {\n                        funcSignatures[index] = funcSignatures[lastIndex];\n                        funcSignatureToIndex[funcSignatures[lastIndex]] = index + 1;\n                    }\n                    funcSignatures.length--;\n                    delete funcSignatureToIndex[signatures];\n                    delete delegates[funcId];\n                    emit FunctionUpdate(funcId, oldDelegate, address(0), string(signatures));\n                }\n                else if (funcSignatureToIndex[signatures] == 0) {\n                    require(oldDelegate == address(0), \"FuncId clash.\");\n                    delegates[funcId] = _delegate;\n                    funcSignatures.push(signatures);\n                    funcSignatureToIndex[signatures] = funcSignatures.length;\n                    emit FunctionUpdate(funcId, address(0), _delegate, string(signatures));\n                }\n                else if (delegates[funcId] != _delegate) {\n                    delegates[funcId] = _delegate;\n                    emit FunctionUpdate(funcId, oldDelegate, _delegate, string(signatures));\n\n                }\n                assembly {signatures := add(signatures,num)}\n            }\n        }\n        emit CommitMessage(commitMessage);\n    }\n}",
  "sourcePath": "/Users/Amir/last-pixel-contracts/contracts/ERC1538Delegate.sol",
  "compiler": {
    "name": "solc",
    "version": "0.4.24+commit.e67f0147.Emscripten.clang"
  },
  "schemaVersion": "2.0.1",
  "updatedAt": "2019-01-07T14:59:01.609Z"
}