{
  "contractName": "ERC1538QueryDelegates",
  "abi": [
    {
      "constant": false,
      "inputs": [],
      "name": "renounceOwnership",
      "outputs": [],
      "payable": false,
      "stateMutability": "nonpayable",
      "type": "function"
    },
    {
      "constant": true,
      "inputs": [],
      "name": "owner",
      "outputs": [
        {
          "name": "",
          "type": "address"
        }
      ],
      "payable": false,
      "stateMutability": "view",
      "type": "function"
    },
    {
      "constant": true,
      "inputs": [],
      "name": "isOwner",
      "outputs": [
        {
          "name": "",
          "type": "bool"
        }
      ],
      "payable": false,
      "stateMutability": "view",
      "type": "function"
    },
    {
      "constant": false,
      "inputs": [
        {
          "name": "newOwner",
          "type": "address"
        }
      ],
      "name": "transferOwnership",
      "outputs": [],
      "payable": false,
      "stateMutability": "nonpayable",
      "type": "function"
    },
    {
      "anonymous": false,
      "inputs": [
        {
          "indexed": true,
          "name": "previousOwner",
          "type": "address"
        },
        {
          "indexed": true,
          "name": "newOwner",
          "type": "address"
        }
      ],
      "name": "OwnershipTransferred",
      "type": "event"
    },
    {
      "constant": true,
      "inputs": [],
      "name": "totalFunctions",
      "outputs": [
        {
          "name": "",
          "type": "uint256"
        }
      ],
      "payable": false,
      "stateMutability": "view",
      "type": "function"
    },
    {
      "constant": true,
      "inputs": [
        {
          "name": "_index",
          "type": "uint256"
        }
      ],
      "name": "functionByIndex",
      "outputs": [
        {
          "name": "functionSignature",
          "type": "string"
        },
        {
          "name": "functionId",
          "type": "bytes4"
        },
        {
          "name": "delegate",
          "type": "address"
        }
      ],
      "payable": false,
      "stateMutability": "view",
      "type": "function"
    },
    {
      "constant": true,
      "inputs": [
        {
          "name": "_functionSignature",
          "type": "string"
        }
      ],
      "name": "functionExists",
      "outputs": [
        {
          "name": "",
          "type": "bool"
        }
      ],
      "payable": false,
      "stateMutability": "view",
      "type": "function"
    },
    {
      "constant": true,
      "inputs": [],
      "name": "functionSignatures",
      "outputs": [
        {
          "name": "",
          "type": "string"
        }
      ],
      "payable": false,
      "stateMutability": "view",
      "type": "function"
    },
    {
      "constant": true,
      "inputs": [
        {
          "name": "_delegate",
          "type": "address"
        }
      ],
      "name": "delegateFunctionSignatures",
      "outputs": [
        {
          "name": "",
          "type": "string"
        }
      ],
      "payable": false,
      "stateMutability": "view",
      "type": "function"
    },
    {
      "constant": true,
      "inputs": [
        {
          "name": "_functionSignature",
          "type": "string"
        }
      ],
      "name": "delegateAddress",
      "outputs": [
        {
          "name": "",
          "type": "address"
        }
      ],
      "payable": false,
      "stateMutability": "view",
      "type": "function"
    },
    {
      "constant": true,
      "inputs": [
        {
          "name": "_functionId",
          "type": "bytes4"
        }
      ],
      "name": "functionById",
      "outputs": [
        {
          "name": "signature",
          "type": "string"
        },
        {
          "name": "delegate",
          "type": "address"
        }
      ],
      "payable": false,
      "stateMutability": "view",
      "type": "function"
    },
    {
      "constant": true,
      "inputs": [],
      "name": "delegateAddresses",
      "outputs": [
        {
          "name": "",
          "type": "address[]"
        }
      ],
      "payable": false,
      "stateMutability": "view",
      "type": "function"
    }
  ],
  "bytecode": "0x6080604052336000806101000a81548173ffffffffffffffffffffffffffffffffffffffff021916908373ffffffffffffffffffffffffffffffffffffffff1602179055506000809054906101000a900473ffffffffffffffffffffffffffffffffffffffff1673ffffffffffffffffffffffffffffffffffffffff16600073ffffffffffffffffffffffffffffffffffffffff167f8be0079c531659141344cd1fd0a4f28419497f9722a3daafe3b4186f6b6457e060405160405180910390a3611830806100cf6000396000f3006080604052600436106100ba576000357c0100000000000000000000000000000000000000000000000000000000900463ffffffff1680630164ee96146100bf5780630f0132b8146101dd57806349d0cd851461025857806351fc00ed146102e85780635bfc7f77146103a4578063715018a6146103f75780638006a5d31461040e5780638da5cb5b1461047a5780638f32d59b146104d1578063a08e8b3614610500578063a3f01e591461052b578063f2fde38b14610623575b600080fd5b3480156100cb57600080fd5b506100ea60048036038101908080359060200190929190505050610666565b6040518080602001847bffffffffffffffffffffffffffffffffffffffffffffffffffffffff19167bffffffffffffffffffffffffffffffffffffffffffffffffffffffff191681526020018373ffffffffffffffffffffffffffffffffffffffff1673ffffffffffffffffffffffffffffffffffffffff168152602001828103825285818151815260200191508051906020019080838360005b838110156101a0578082015181840152602081019050610185565b50505050905090810190601f1680156101cd5780820380516001836020036101000a031916815260200191505b5094505050505060405180910390f35b3480156101e957600080fd5b506102166004803603810190808035906020019082018035906020019190919293919293905050506108b0565b604051808273ffffffffffffffffffffffffffffffffffffffff1673ffffffffffffffffffffffffffffffffffffffff16815260200191505060405180910390f35b34801561026457600080fd5b5061026d6109e5565b6040518080602001828103825283818151815260200191508051906020019080838360005b838110156102ad578082015181840152602081019050610292565b50505050905090810190601f1680156102da5780820380516001836020036101000a031916815260200191505b509250505060405180910390f35b3480156102f457600080fd5b50610329600480360381019080803573ffffffffffffffffffffffffffffffffffffffff169060200190929190505050610c52565b6040518080602001828103825283818151815260200191508051906020019080838360005b8381101561036957808201518184015260208101905061034e565b50505050905090810190601f1680156103965780820380516001836020036101000a031916815260200191505b509250505060405180910390f35b3480156103b057600080fd5b506103dd600480360381019080803590602001908201803590602001919091929391929390505050610fe3565b604051808215151515815260200191505060405180910390f35b34801561040357600080fd5b5061040c611016565b005b34801561041a57600080fd5b506104236110e8565b6040518080602001828103825283818151815260200191508051906020019060200280838360005b8381101561046657808201518184015260208101905061044b565b505050509050019250505060405180910390f35b34801561048657600080fd5b5061048f6113d0565b604051808273ffffffffffffffffffffffffffffffffffffffff1673ffffffffffffffffffffffffffffffffffffffff16815260200191505060405180910390f35b3480156104dd57600080fd5b506104e66113f9565b604051808215151515815260200191505060405180910390f35b34801561050c57600080fd5b50610515611450565b6040518082815260200191505060405180910390f35b34801561053757600080fd5b5061057560048036038101908080357bffffffffffffffffffffffffffffffffffffffffffffffffffffffff1916906020019092919050505061145d565b60405180806020018373ffffffffffffffffffffffffffffffffffffffff1673ffffffffffffffffffffffffffffffffffffffff168152602001828103825284818151815260200191508051906020019080838360005b838110156105e75780820151818401526020810190506105cc565b50505050905090810190601f1680156106145780820380516001836020036101000a031916815260200191505b50935050505060405180910390f35b34801561062f57600080fd5b50610664600480360381019080803573ffffffffffffffffffffffffffffffffffffffff1690602001909291905050506116eb565b005b606060008060606002805490508510151561070f576040517f08c379a00000000000000000000000000000000000000000000000000000000081526004018080602001828103825260288152602001807f66756e6374696f6e5369676e61747572657320696e64657820646f6573206e6f81526020017f742065786973742e00000000000000000000000000000000000000000000000081525060400191505060405180910390fd5b60028581548110151561071e57fe5b906000526020600020018054600181600116156101000203166002900480601f0160208091040260200160405190810160405280929190818152602001828054600181600116156101000203166002900480156107bc5780601f10610791576101008083540402835291602001916107bc565b820191906000526020600020905b81548152906001019060200180831161079f57829003601f168201915b50505050509050806040518082805190602001908083835b6020831015156107f957805182526020820191506020810190506020830392506107d4565b6001836020036101000a0380198251168184511680821785525050505050509050019150506040518091039020925060016000847bffffffffffffffffffffffffffffffffffffffffffffffffffffffff19167bffffffffffffffffffffffffffffffffffffffffffffffffffffffff1916815260200190815260200160002060009054906101000a900473ffffffffffffffffffffffffffffffffffffffff169150808383829250935093509350509193909250565b60008060038484604051808383808284378201915050925050509081526020016040518091039020541415151561094f576040517f08c379a000000000000000000000000000000000000000000000000000000000815260040180806020018281038252601d8152602001807f46756e6374696f6e207369676e6174757265206e6f7420666f756e642e00000081525060200191505060405180910390fd5b6001600084846040518083838082843782019150509250505060405180910390207bffffffffffffffffffffffffffffffffffffffffffffffffffffffff19167bffffffffffffffffffffffffffffffffffffffffffffffffffffffff1916815260200190815260200160002060009054906101000a900473ffffffffffffffffffffffffffffffffffffffff16905092915050565b60606000606080600080600060606000600280549050925082604051908082528060200260200182016040528015610a3157816020015b6060815260200190600190039081610a1c5790505b5091505b82851015610b2057600285815481101515610a4c57fe5b906000526020600020018054600181600116156101000203166002900480601f016020809104026020016040519081016040528092919081815260200182805460018160011615610100020316600290048015610aea5780601f10610abf57610100808354040283529160200191610aea565b820191906000526020600020905b815481529060010190602001808311610acd57829003601f168201915b50505050509550855188019750858286815181101515610b0657fe5b906020019060200201819052508480600101955050610a35565b876040519080825280601f01601f191660200182016040528015610b535781602001602082028038833980820191505090505b509650600094505b82851015610c44578185815181101515610b7157fe5b906020019060200201519550600090505b8551811015610c37578581815181101515610b9957fe5b9060200101517f010000000000000000000000000000000000000000000000000000000000000090047f0100000000000000000000000000000000000000000000000000000000000000028785815181101515610bf257fe5b9060200101907effffffffffffffffffffffffffffffffffffffffffffffffffffffffffffff1916908160001a90535083806001019450508080600101915050610b82565b8480600101955050610b5b565b869850505050505050505090565b6060600060606000806060806000806000600280549050985088604051908082528060200260200182016040528015610c9f57816020015b6060815260200190600190039081610c8a5790505b5097505b88831015610e9e57600283815481101515610cba57fe5b906000526020600020018054600181600116156101000203166002900480601f016020809104026020016040519081016040528092919081815260200182805460018160011615610100020316600290048015610d585780601f10610d2d57610100808354040283529160200191610d58565b820191906000526020600020905b815481529060010190602001808311610d3b57829003601f168201915b5050505050935060016000856040518082805190602001908083835b602083101515610d995780518252602082019150602081019050602083039250610d74565b6001836020036101000a03801982511681845116808217855250505050505090500191505060405180910390207bffffffffffffffffffffffffffffffffffffffffffffffffffffffff19167bffffffffffffffffffffffffffffffffffffffffffffffffffffffff1916815260200190815260200160002060009054906101000a900473ffffffffffffffffffffffffffffffffffffffff1673ffffffffffffffffffffffffffffffffffffffff168b73ffffffffffffffffffffffffffffffffffffffff161415610e9157835186019550838888815181101515610e7b57fe5b9060200190602002018190525086806001019750505b8280600101935050610ca3565b856040519080825280601f01601f191660200182016040528015610ed15781602001602082028038833980820191505090505b509450600092505b8751831015610fd2578783815181101515610ef057fe5b906020019060200201519350600084511415610f0b57610fd2565b600090505b8351811015610fc5578381815181101515610f2757fe5b9060200101517f010000000000000000000000000000000000000000000000000000000000000090047f0100000000000000000000000000000000000000000000000000000000000000028583815181101515610f8057fe5b9060200101907effffffffffffffffffffffffffffffffffffffffffffffffffffffffffffff1916908160001a90535081806001019250508080600101915050610f10565b8280600101935050610ed9565b849950505050505050505050919050565b60008060038484604051808383808284378201915050925050509081526020016040518091039020541415905092915050565b61101e6113f9565b151561102957600080fd5b600073ffffffffffffffffffffffffffffffffffffffff166000809054906101000a900473ffffffffffffffffffffffffffffffffffffffff1673ffffffffffffffffffffffffffffffffffffffff167f8be0079c531659141344cd1fd0a4f28419497f9722a3daafe3b4186f6b6457e060405160405180910390a360008060006101000a81548173ffffffffffffffffffffffffffffffffffffffff021916908373ffffffffffffffffffffffffffffffffffffffff160217905550565b6060600060606000806000806000606060028054905097508760405190808252806020026020018201604052801561112f5781602001602082028038833980820191505090505b5096505b87851015611314576001600060028781548110151561114e57fe5b9060005260206000200160405180828054600181600116156101000203166002900480156111b35780601f106111915761010080835404028352918201916111b3565b820191906000526020600020905b81548152906001019060200180831161119f575b505091505060405180910390207bffffffffffffffffffffffffffffffffffffffffffffffffffffffff19167bffffffffffffffffffffffffffffffffffffffffffffffffffffffff1916815260200190815260200160002060009054906101000a900473ffffffffffffffffffffffffffffffffffffffff169250600091505b8582101561129d57868281518110151561124a57fe5b9060200190602002015173ffffffffffffffffffffffffffffffffffffffff168373ffffffffffffffffffffffffffffffffffffffff161415611290576001935061129d565b8180600101925050611234565b600015158415151415611302578287878151811015156112b957fe5b9060200190602002019073ffffffffffffffffffffffffffffffffffffffff16908173ffffffffffffffffffffffffffffffffffffffff16815250508580600101965050611307565b600093505b8480600101955050611133565b856040519080825280602002602001820160405280156113435781602001602082028038833980820191505090505b509050600094505b858510156113c257868581518110151561136157fe5b90602001906020020151818681518110151561137957fe5b9060200190602002019073ffffffffffffffffffffffffffffffffffffffff16908173ffffffffffffffffffffffffffffffffffffffff1681525050848060010195505061134b565b809850505050505050505090565b60008060009054906101000a900473ffffffffffffffffffffffffffffffffffffffff16905090565b60008060009054906101000a900473ffffffffffffffffffffffffffffffffffffffff1673ffffffffffffffffffffffffffffffffffffffff163373ffffffffffffffffffffffffffffffffffffffff1614905090565b6000600280549050905090565b6060600080600090505b6002805490508110156116775760028181548110151561148357fe5b9060005260206000200160405180828054600181600116156101000203166002900480156114e85780601f106114c65761010080835404028352918201916114e8565b820191906000526020600020905b8154815290600101906020018083116114d4575b505091505060405180910390207bffffffffffffffffffffffffffffffffffffffffffffffffffffffff1916847bffffffffffffffffffffffffffffffffffffffffffffffffffffffff1916141561166a5760028181548110151561154957fe5b9060005260206000200160016000867bffffffffffffffffffffffffffffffffffffffffffffffffffffffff19167bffffffffffffffffffffffffffffffffffffffffffffffffffffffff1916815260200190815260200160002060009054906101000a900473ffffffffffffffffffffffffffffffffffffffff16818054600181600116156101000203166002900480601f01602080910402602001604051908101604052809291908181526020018280546001816001161561010002031660029004801561165a5780601f1061162f5761010080835404028352916020019161165a565b820191906000526020600020905b81548152906001019060200180831161163d57829003601f168201915b50505050509150925092506116e5565b8080600101915050611467565b6040517f08c379a00000000000000000000000000000000000000000000000000000000081526004018080602001828103825260148152602001807f66756e6374696f6e4964206e6f7420666f756e6400000000000000000000000081525060200191505060405180910390fd5b50915091565b6116f36113f9565b15156116fe57600080fd5b6117078161170a565b50565b600073ffffffffffffffffffffffffffffffffffffffff168173ffffffffffffffffffffffffffffffffffffffff161415151561174657600080fd5b8073ffffffffffffffffffffffffffffffffffffffff166000809054906101000a900473ffffffffffffffffffffffffffffffffffffffff1673ffffffffffffffffffffffffffffffffffffffff167f8be0079c531659141344cd1fd0a4f28419497f9722a3daafe3b4186f6b6457e060405160405180910390a3806000806101000a81548173ffffffffffffffffffffffffffffffffffffffff021916908373ffffffffffffffffffffffffffffffffffffffff160217905550505600a165627a7a723058205a800bfb461491b44360c318084627b8f3bf96189bfba704a3b5c004d57fafe60029",
  "source": "pragma solidity ^0.4.24;\npragma experimental \"v0.5.0\";\n/******************************************************************************\\\n* \n* Contains functions for retrieving function signatures and delegate contract\n* addresses.\n/******************************************************************************/\n\nimport \"./StorageV0.sol\";\nimport \"./IERC1538Query.sol\";\n\ncontract ERC1538QueryDelegates is IERC1538Query, StorageV0 {\n\n    function totalFunctions() external view returns(uint256) {\n        return funcSignatures.length;\n    }\n\n    function functionByIndex(uint256 _index) external view returns(string memory functionSignature, bytes4 functionId, address delegate) {\n        require(_index < funcSignatures.length, \"functionSignatures index does not exist.\");\n        bytes memory signature = funcSignatures[_index];\n        functionId = bytes4(keccak256(signature));\n        delegate = delegates[functionId];\n        return (string(signature), functionId, delegate);\n    }\n\n    function functionExists(string _functionSignature) external view returns(bool) {\n        return funcSignatureToIndex[bytes(_functionSignature)] != 0;\n    }\n\n    function functionSignatures() external view returns(string) {\n        uint256 signaturesLength;\n        bytes memory signatures;\n        bytes memory signature;\n        uint256 functionIndex;\n        uint256 charPos;\n        uint256 funcSignaturesNum = funcSignatures.length;\n        bytes[] memory memoryFuncSignatures = new bytes[](funcSignaturesNum);\n        for(; functionIndex < funcSignaturesNum; functionIndex++) {\n            signature = funcSignatures[functionIndex];\n            signaturesLength += signature.length;\n            memoryFuncSignatures[functionIndex] = signature;\n        }\n        signatures = new bytes(signaturesLength);\n        functionIndex = 0;\n        for(; functionIndex < funcSignaturesNum; functionIndex++) {\n            signature = memoryFuncSignatures[functionIndex];\n            for(uint256 i = 0; i < signature.length; i++) {\n                signatures[charPos] = signature[i];\n                charPos++;\n            }\n        }\n        return string(signatures);\n    }\n\n    function delegateFunctionSignatures(address _delegate) external view returns(string) {\n        uint256 funcSignaturesNum = funcSignatures.length;\n        bytes[] memory delegateSignatures = new bytes[](funcSignaturesNum);\n        uint256 delegateSignaturesPos;\n        uint256 signaturesLength;\n        bytes memory signatures;\n        bytes memory signature;\n        uint256 functionIndex;\n        uint256 charPos;\n        for(; functionIndex < funcSignaturesNum; functionIndex++) {\n            signature = funcSignatures[functionIndex];\n            if(_delegate == delegates[bytes4(keccak256(signature))]) {\n                signaturesLength += signature.length;\n                delegateSignatures[delegateSignaturesPos] = signature;\n                delegateSignaturesPos++;\n            }\n\n        }\n        signatures = new bytes(signaturesLength);\n        functionIndex = 0;\n        for(; functionIndex < delegateSignatures.length; functionIndex++) {\n            signature = delegateSignatures[functionIndex];\n            if(signature.length == 0) {\n                break;\n            }\n            for(uint256 i = 0; i < signature.length; i++) {\n                signatures[charPos] = signature[i];\n                charPos++;\n            }\n        }\n        return string(signatures);\n    }\n\n    function delegateAddress(string _functionSignature) external view returns(address) {\n        require(funcSignatureToIndex[bytes(_functionSignature)] != 0, \"Function signature not found.\");\n        return delegates[bytes4(keccak256(bytes(_functionSignature)))];\n    }\n\n    function functionById(bytes4 _functionId) external view returns(string signature, address delegate) {\n        for(uint256 i = 0; i < funcSignatures.length; i++) {\n            if(_functionId == bytes4(keccak256(funcSignatures[i]))) {\n                return (string(funcSignatures[i]), delegates[_functionId]);\n            }\n        }\n        revert(\"functionId not found\");\n    }\n\n    function delegateAddresses() external view returns(address[]) {\n        uint256 funcSignaturesNum = funcSignatures.length;\n        address[] memory delegatesBucket = new address[](funcSignaturesNum);\n        uint256 numDelegates;\n        uint256 functionIndex;\n        bool foundDelegate;\n        address delegate;\n        for(; functionIndex < funcSignaturesNum; functionIndex++) {\n            delegate = delegates[bytes4(keccak256(funcSignatures[functionIndex]))];\n            for(uint256 i = 0; i < numDelegates; i++) {\n                if(delegate == delegatesBucket[i]) {\n                    foundDelegate = true;\n                    break;\n                }\n            }\n            if(foundDelegate == false) {\n                delegatesBucket[numDelegates] = delegate;\n                numDelegates++;\n            }\n            else {\n                foundDelegate = false;\n            }\n        }\n        address[] memory delegates_ = new address[](numDelegates);\n        functionIndex = 0;\n        for(; functionIndex < numDelegates; functionIndex++) {\n            delegates_[functionIndex] = delegatesBucket[functionIndex];\n        }\n        return delegates_;\n    }\n}",
  "sourcePath": "/Users/Amir/last-pixel-contracts/contracts/ERC1538QueryDelegates.sol",
  "compiler": {
    "name": "solc",
    "version": "0.4.25+commit.59dbf8f1.Emscripten.clang"
  },
  "schemaVersion": "2.0.2",
  "updatedAt": "2019-02-06T10:44:40.935Z"
}