{
  "contractName": "ERC1538Delegate",
  "abi": [
    {
      "constant": true,
      "inputs": [
        {
          "name": "_index",
          "type": "uint256"
        }
      ],
      "name": "functionByIndex",
      "outputs": [
        {
          "name": "functionSignature",
          "type": "string"
        },
        {
          "name": "functionId",
          "type": "bytes4"
        },
        {
          "name": "delegate",
          "type": "address"
        }
      ],
      "payable": false,
      "stateMutability": "view",
      "type": "function"
    },
    {
      "constant": true,
      "inputs": [
        {
          "name": "_functionSignature",
          "type": "string"
        }
      ],
      "name": "delegateAddress",
      "outputs": [
        {
          "name": "",
          "type": "address"
        }
      ],
      "payable": false,
      "stateMutability": "view",
      "type": "function"
    },
    {
      "constant": true,
      "inputs": [],
      "name": "functionSignatures",
      "outputs": [
        {
          "name": "",
          "type": "string"
        }
      ],
      "payable": false,
      "stateMutability": "view",
      "type": "function"
    },
    {
      "constant": true,
      "inputs": [
        {
          "name": "_delegate",
          "type": "address"
        }
      ],
      "name": "delegateFunctionSignatures",
      "outputs": [
        {
          "name": "",
          "type": "string"
        }
      ],
      "payable": false,
      "stateMutability": "view",
      "type": "function"
    },
    {
      "constant": true,
      "inputs": [
        {
          "name": "_functionSignature",
          "type": "string"
        }
      ],
      "name": "functionExists",
      "outputs": [
        {
          "name": "",
          "type": "bool"
        }
      ],
      "payable": false,
      "stateMutability": "view",
      "type": "function"
    },
    {
      "constant": false,
      "inputs": [],
      "name": "renounceOwnership",
      "outputs": [],
      "payable": false,
      "stateMutability": "nonpayable",
      "type": "function"
    },
    {
      "constant": true,
      "inputs": [],
      "name": "delegateAddresses",
      "outputs": [
        {
          "name": "",
          "type": "address[]"
        }
      ],
      "payable": false,
      "stateMutability": "view",
      "type": "function"
    },
    {
      "constant": true,
      "inputs": [],
      "name": "owner",
      "outputs": [
        {
          "name": "",
          "type": "address"
        }
      ],
      "payable": false,
      "stateMutability": "view",
      "type": "function"
    },
    {
      "constant": true,
      "inputs": [],
      "name": "isOwner",
      "outputs": [
        {
          "name": "",
          "type": "bool"
        }
      ],
      "payable": false,
      "stateMutability": "view",
      "type": "function"
    },
    {
      "constant": true,
      "inputs": [],
      "name": "totalFunctions",
      "outputs": [
        {
          "name": "",
          "type": "uint256"
        }
      ],
      "payable": false,
      "stateMutability": "view",
      "type": "function"
    },
    {
      "constant": true,
      "inputs": [
        {
          "name": "_functionId",
          "type": "bytes4"
        }
      ],
      "name": "functionById",
      "outputs": [
        {
          "name": "signature",
          "type": "string"
        },
        {
          "name": "delegate",
          "type": "address"
        }
      ],
      "payable": false,
      "stateMutability": "view",
      "type": "function"
    },
    {
      "constant": false,
      "inputs": [
        {
          "name": "newOwner",
          "type": "address"
        }
      ],
      "name": "transferOwnership",
      "outputs": [],
      "payable": false,
      "stateMutability": "nonpayable",
      "type": "function"
    },
    {
      "anonymous": false,
      "inputs": [
        {
          "indexed": true,
          "name": "previousOwner",
          "type": "address"
        },
        {
          "indexed": true,
          "name": "newOwner",
          "type": "address"
        }
      ],
      "name": "OwnershipTransferred",
      "type": "event"
    },
    {
      "anonymous": false,
      "inputs": [
        {
          "indexed": false,
          "name": "message",
          "type": "string"
        }
      ],
      "name": "CommitMessage",
      "type": "event"
    },
    {
      "anonymous": false,
      "inputs": [
        {
          "indexed": true,
          "name": "functionId",
          "type": "bytes4"
        },
        {
          "indexed": true,
          "name": "oldDelegate",
          "type": "address"
        },
        {
          "indexed": true,
          "name": "newDelegate",
          "type": "address"
        },
        {
          "indexed": false,
          "name": "functionSignature",
          "type": "string"
        }
      ],
      "name": "FunctionUpdate",
      "type": "event"
    },
    {
      "constant": false,
      "inputs": [
        {
          "name": "_delegate",
          "type": "address"
        },
        {
          "name": "_functionSignatures",
          "type": "string"
        },
        {
          "name": "commitMessage",
          "type": "string"
        }
      ],
      "name": "updateContract",
      "outputs": [],
      "payable": false,
      "stateMutability": "nonpayable",
      "type": "function"
    }
  ],
  "bytecode": "0x6080604052336000806101000a81548173ffffffffffffffffffffffffffffffffffffffff021916908373ffffffffffffffffffffffffffffffffffffffff1602179055506000809054906101000a900473ffffffffffffffffffffffffffffffffffffffff1673ffffffffffffffffffffffffffffffffffffffff16600073ffffffffffffffffffffffffffffffffffffffff167f8be0079c531659141344cd1fd0a4f28419497f9722a3daafe3b4186f6b6457e060405160405180910390a36126a9806100cf6000396000f3006080604052600436106100c5576000357c0100000000000000000000000000000000000000000000000000000000900463ffffffff1680630164ee96146100ca5780630f0132b8146101e857806349d0cd851461026357806351fc00ed146102f35780635bfc7f77146103af5780636145556714610402578063715018a6146104755780638006a5d31461048c5780638da5cb5b146104f85780638f32d59b1461054f578063a08e8b361461057e578063a3f01e59146105a9578063f2fde38b146106a1575b600080fd5b3480156100d657600080fd5b506100f5600480360381019080803590602001909291905050506106e4565b6040518080602001847bffffffffffffffffffffffffffffffffffffffffffffffffffffffff19167bffffffffffffffffffffffffffffffffffffffffffffffffffffffff191681526020018373ffffffffffffffffffffffffffffffffffffffff1673ffffffffffffffffffffffffffffffffffffffff168152602001828103825285818151815260200191508051906020019080838360005b838110156101ab578082015181840152602081019050610190565b50505050905090810190601f1680156101d85780820380516001836020036101000a031916815260200191505b5094505050505060405180910390f35b3480156101f457600080fd5b5061022160048036038101908080359060200190820180359060200191909192939192939050505061092e565b604051808273ffffffffffffffffffffffffffffffffffffffff1673ffffffffffffffffffffffffffffffffffffffff16815260200191505060405180910390f35b34801561026f57600080fd5b50610278610a63565b6040518080602001828103825283818151815260200191508051906020019080838360005b838110156102b857808201518184015260208101905061029d565b50505050905090810190601f1680156102e55780820380516001836020036101000a031916815260200191505b509250505060405180910390f35b3480156102ff57600080fd5b50610334600480360381019080803573ffffffffffffffffffffffffffffffffffffffff169060200190929190505050610cd0565b6040518080602001828103825283818151815260200191508051906020019080838360005b83811015610374578082015181840152602081019050610359565b50505050905090810190601f1680156103a15780820380516001836020036101000a031916815260200191505b509250505060405180910390f35b3480156103bb57600080fd5b506103e8600480360381019080803590602001908201803590602001919091929391929390505050611061565b604051808215151515815260200191505060405180910390f35b34801561040e57600080fd5b50610473600480360381019080803573ffffffffffffffffffffffffffffffffffffffff169060200190929190803590602001908201803590602001919091929391929390803590602001908201803590602001919091929391929390505050611094565b005b34801561048157600080fd5b5061048a611cc3565b005b34801561049857600080fd5b506104a1611d95565b6040518080602001828103825283818151815260200191508051906020019060200280838360005b838110156104e45780820151818401526020810190506104c9565b505050509050019250505060405180910390f35b34801561050457600080fd5b5061050d61207d565b604051808273ffffffffffffffffffffffffffffffffffffffff1673ffffffffffffffffffffffffffffffffffffffff16815260200191505060405180910390f35b34801561055b57600080fd5b506105646120a6565b604051808215151515815260200191505060405180910390f35b34801561058a57600080fd5b506105936120fd565b6040518082815260200191505060405180910390f35b3480156105b557600080fd5b506105f360048036038101908080357bffffffffffffffffffffffffffffffffffffffffffffffffffffffff1916906020019092919050505061210a565b60405180806020018373ffffffffffffffffffffffffffffffffffffffff1673ffffffffffffffffffffffffffffffffffffffff168152602001828103825284818151815260200191508051906020019080838360005b8381101561066557808201518184015260208101905061064a565b50505050905090810190601f1680156106925780820380516001836020036101000a031916815260200191505b50935050505060405180910390f35b3480156106ad57600080fd5b506106e2600480360381019080803573ffffffffffffffffffffffffffffffffffffffff169060200190929190505050612398565b005b606060008060606002805490508510151561078d576040517f08c379a00000000000000000000000000000000000000000000000000000000081526004018080602001828103825260288152602001807f66756e6374696f6e5369676e61747572657320696e64657820646f6573206e6f81526020017f742065786973742e00000000000000000000000000000000000000000000000081525060400191505060405180910390fd5b60028581548110151561079c57fe5b906000526020600020018054600181600116156101000203166002900480601f01602080910402602001604051908101604052809291908181526020018280546001816001161561010002031660029004801561083a5780601f1061080f5761010080835404028352916020019161083a565b820191906000526020600020905b81548152906001019060200180831161081d57829003601f168201915b50505050509050806040518082805190602001908083835b6020831015156108775780518252602082019150602081019050602083039250610852565b6001836020036101000a0380198251168184511680821785525050505050509050019150506040518091039020925060016000847bffffffffffffffffffffffffffffffffffffffffffffffffffffffff19167bffffffffffffffffffffffffffffffffffffffffffffffffffffffff1916815260200190815260200160002060009054906101000a900473ffffffffffffffffffffffffffffffffffffffff169150808383829250935093509350509193909250565b6000806003848460405180838380828437820191505092505050908152602001604051809103902054141515156109cd576040517f08c379a000000000000000000000000000000000000000000000000000000000815260040180806020018281038252601d8152602001807f46756e6374696f6e207369676e6174757265206e6f7420666f756e642e00000081525060200191505060405180910390fd5b6001600084846040518083838082843782019150509250505060405180910390207bffffffffffffffffffffffffffffffffffffffffffffffffffffffff19167bffffffffffffffffffffffffffffffffffffffffffffffffffffffff1916815260200190815260200160002060009054906101000a900473ffffffffffffffffffffffffffffffffffffffff16905092915050565b60606000606080600080600060606000600280549050925082604051908082528060200260200182016040528015610aaf57816020015b6060815260200190600190039081610a9a5790505b5091505b82851015610b9e57600285815481101515610aca57fe5b906000526020600020018054600181600116156101000203166002900480601f016020809104026020016040519081016040528092919081815260200182805460018160011615610100020316600290048015610b685780601f10610b3d57610100808354040283529160200191610b68565b820191906000526020600020905b815481529060010190602001808311610b4b57829003601f168201915b50505050509550855188019750858286815181101515610b8457fe5b906020019060200201819052508480600101955050610ab3565b876040519080825280601f01601f191660200182016040528015610bd15781602001602082028038833980820191505090505b509650600094505b82851015610cc2578185815181101515610bef57fe5b906020019060200201519550600090505b8551811015610cb5578581815181101515610c1757fe5b9060200101517f010000000000000000000000000000000000000000000000000000000000000090047f0100000000000000000000000000000000000000000000000000000000000000028785815181101515610c7057fe5b9060200101907effffffffffffffffffffffffffffffffffffffffffffffffffffffffffffff1916908160001a90535083806001019450508080600101915050610c00565b8480600101955050610bd9565b869850505050505050505090565b6060600060606000806060806000806000600280549050985088604051908082528060200260200182016040528015610d1d57816020015b6060815260200190600190039081610d085790505b5097505b88831015610f1c57600283815481101515610d3857fe5b906000526020600020018054600181600116156101000203166002900480601f016020809104026020016040519081016040528092919081815260200182805460018160011615610100020316600290048015610dd65780601f10610dab57610100808354040283529160200191610dd6565b820191906000526020600020905b815481529060010190602001808311610db957829003601f168201915b5050505050935060016000856040518082805190602001908083835b602083101515610e175780518252602082019150602081019050602083039250610df2565b6001836020036101000a03801982511681845116808217855250505050505090500191505060405180910390207bffffffffffffffffffffffffffffffffffffffffffffffffffffffff19167bffffffffffffffffffffffffffffffffffffffffffffffffffffffff1916815260200190815260200160002060009054906101000a900473ffffffffffffffffffffffffffffffffffffffff1673ffffffffffffffffffffffffffffffffffffffff168b73ffffffffffffffffffffffffffffffffffffffff161415610f0f57835186019550838888815181101515610ef957fe5b9060200190602002018190525086806001019750505b8280600101935050610d21565b856040519080825280601f01601f191660200182016040528015610f4f5781602001602082028038833980820191505090505b509450600092505b8751831015611050578783815181101515610f6e57fe5b906020019060200201519350600084511415610f8957611050565b600090505b8351811015611043578381815181101515610fa557fe5b9060200101517f010000000000000000000000000000000000000000000000000000000000000090047f0100000000000000000000000000000000000000000000000000000000000000028583815181101515610ffe57fe5b9060200101907effffffffffffffffffffffffffffffffffffffffffffffffffffffffffffff1916908160001a90535081806001019250508080600101915050610f8e565b8280600101935050610f57565b849950505050505050505050919050565b60008060038484604051808383808284378201915050925050509081526020016040518091039020541415905092915050565b600060606000806000806000806000806110ac6120a6565b15156110b757600080fd5b600073ffffffffffffffffffffffffffffffffffffffff168f73ffffffffffffffffffffffffffffffffffffffff16141515611190578e3b995060008a11151561118f576040517f08c379a00000000000000000000000000000000000000000000000000000000081526004018080602001828103825260398152602001807f5f64656c65676174652061646472657373206973206e6f74206120636f6e747281526020017f61637420616e64206973206e6f7420616464726573732830290000000000000081525060400191505060405180910390fd5b5b8d8d8080601f016020809104026020016040519081016040528093929190818152602001838380828437820191505050505050985060208901995089965088518a0197505b878a1015611c6157895160001a92506029831415611c545789806001019a5050868a039350899650838952886040518082805190602001908083835b6020831015156112365780518252602082019150602081019050602083039250611211565b6001836020036101000a0380198251168184511680821785525050505050509050019150506040518091039020955060016000877bffffffffffffffffffffffffffffffffffffffffffffffffffffffff19167bffffffffffffffffffffffffffffffffffffffffffffffffffffffff1916815260200190815260200160002060009054906101000a900473ffffffffffffffffffffffffffffffffffffffff169450600073ffffffffffffffffffffffffffffffffffffffff168f73ffffffffffffffffffffffffffffffffffffffff1614156116df576003896040518082805190602001908083835b6020831015156113465780518252602082019150602081019050602083039250611321565b6001836020036101000a0380198251168184511680821785525050505050509050019150509081526020016040518091039020549150600082141515156113f5576040517f08c379a00000000000000000000000000000000000000000000000000000000081526004018080602001828103825260188152602001807f46756e6374696f6e20646f6573206e6f742065786973742e000000000000000081525060200191505060405180910390fd5b818060019003925050600160028054905003905080821415156114f65760028181548110151561142157fe5b9060005260206000200160028381548110151561143a57fe5b9060005260206000200190805460018160011615610100020316600290046114639291906124b1565b5060018201600360028381548110151561147957fe5b9060005260206000200160405180828054600181600116156101000203166002900480156114de5780601f106114bc5761010080835404028352918201916114de565b820191906000526020600020905b8154815290600101906020018083116114ca575b50509150509081526020016040518091039020819055505b600280548091906001900361150b9190612538565b506003896040518082805190602001908083835b602083101515611544578051825260208201915060208101905060208303925061151f565b6001836020036101000a03801982511681845116808217855250505050505090500191505090815260200160405180910390206000905560016000877bffffffffffffffffffffffffffffffffffffffffffffffffffffffff19167bffffffffffffffffffffffffffffffffffffffffffffffffffffffff1916815260200190815260200160002060006101000a81549073ffffffffffffffffffffffffffffffffffffffff0219169055600073ffffffffffffffffffffffffffffffffffffffff168573ffffffffffffffffffffffffffffffffffffffff16877bffffffffffffffffffffffffffffffffffffffffffffffffffffffff19167f3234040ce3bd4564874e44810f198910133a1b24c4e84aac87edbf6b458f53538c6040518080602001828103825283818151815260200191508051906020019080838360005b838110156116a0578082015181840152602081019050611685565b50505050905090810190601f1680156116cd5780820380516001836020036101000a031916815260200191505b509250505060405180910390a4611c4e565b600060038a6040518082805190602001908083835b60208310151561171957805182526020820191506020810190506020830392506116f4565b6001836020036101000a0380198251168184511680821785525050505050509050019150509081526020016040518091039020541415611a2b57600073ffffffffffffffffffffffffffffffffffffffff168573ffffffffffffffffffffffffffffffffffffffff161415156117f7576040517f08c379a00000000000000000000000000000000000000000000000000000000081526004018080602001828103825260118152602001807f46756e63696f6e20696420636c6173682e00000000000000000000000000000081525060200191505060405180910390fd5b8e60016000887bffffffffffffffffffffffffffffffffffffffffffffffffffffffff19167bffffffffffffffffffffffffffffffffffffffffffffffffffffffff1916815260200190815260200160002060006101000a81548173ffffffffffffffffffffffffffffffffffffffff021916908373ffffffffffffffffffffffffffffffffffffffff16021790555060028990806001815401808255809150509060018203906000526020600020016000909192909190915090805190602001906118c4929190612564565b505060028054905060038a6040518082805190602001908083835b60208310151561190457805182526020820191506020810190506020830392506118df565b6001836020036101000a0380198251168184511680821785525050505050509050019150509081526020016040518091039020819055508e73ffffffffffffffffffffffffffffffffffffffff16600073ffffffffffffffffffffffffffffffffffffffff16877bffffffffffffffffffffffffffffffffffffffffffffffffffffffff19167f3234040ce3bd4564874e44810f198910133a1b24c4e84aac87edbf6b458f53538c6040518080602001828103825283818151815260200191508051906020019080838360005b838110156119ec5780820151818401526020810190506119d1565b50505050905090810190601f168015611a195780820380516001836020036101000a031916815260200191505b509250505060405180910390a4611c4d565b8e73ffffffffffffffffffffffffffffffffffffffff1660016000887bffffffffffffffffffffffffffffffffffffffffffffffffffffffff19167bffffffffffffffffffffffffffffffffffffffffffffffffffffffff1916815260200190815260200160002060009054906101000a900473ffffffffffffffffffffffffffffffffffffffff1673ffffffffffffffffffffffffffffffffffffffff16141515611c4c578e60016000887bffffffffffffffffffffffffffffffffffffffffffffffffffffffff19167bffffffffffffffffffffffffffffffffffffffffffffffffffffffff1916815260200190815260200160002060006101000a81548173ffffffffffffffffffffffffffffffffffffffff021916908373ffffffffffffffffffffffffffffffffffffffff1602179055508e73ffffffffffffffffffffffffffffffffffffffff168573ffffffffffffffffffffffffffffffffffffffff16877bffffffffffffffffffffffffffffffffffffffffffffffffffffffff19167f3234040ce3bd4564874e44810f198910133a1b24c4e84aac87edbf6b458f53538c6040518080602001828103825283818151815260200191508051906020019080838360005b83811015611c11578082015181840152602081019050611bf6565b50505050905090810190601f168015611c3e5780820380516001836020036101000a031916815260200191505b509250505060405180910390a45b5b5b83890198505b89806001019a50506111d5565b7faa1c0a0a78cec2470f9652e5d29540752e7a64d70f926933cebf13afaeda45de8c8c604051808060200182810382528484828181526020019250808284378201915050935050505060405180910390a1505050505050505050505050505050565b611ccb6120a6565b1515611cd657600080fd5b600073ffffffffffffffffffffffffffffffffffffffff166000809054906101000a900473ffffffffffffffffffffffffffffffffffffffff1673ffffffffffffffffffffffffffffffffffffffff167f8be0079c531659141344cd1fd0a4f28419497f9722a3daafe3b4186f6b6457e060405160405180910390a360008060006101000a81548173ffffffffffffffffffffffffffffffffffffffff021916908373ffffffffffffffffffffffffffffffffffffffff160217905550565b60606000606060008060008060006060600280549050975087604051908082528060200260200182016040528015611ddc5781602001602082028038833980820191505090505b5096505b87851015611fc15760016000600287815481101515611dfb57fe5b906000526020600020016040518082805460018160011615610100020316600290048015611e605780601f10611e3e576101008083540402835291820191611e60565b820191906000526020600020905b815481529060010190602001808311611e4c575b505091505060405180910390207bffffffffffffffffffffffffffffffffffffffffffffffffffffffff19167bffffffffffffffffffffffffffffffffffffffffffffffffffffffff1916815260200190815260200160002060009054906101000a900473ffffffffffffffffffffffffffffffffffffffff169250600091505b85821015611f4a578682815181101515611ef757fe5b9060200190602002015173ffffffffffffffffffffffffffffffffffffffff168373ffffffffffffffffffffffffffffffffffffffff161415611f3d5760019350611f4a565b8180600101925050611ee1565b600015158415151415611faf57828787815181101515611f6657fe5b9060200190602002019073ffffffffffffffffffffffffffffffffffffffff16908173ffffffffffffffffffffffffffffffffffffffff16815250508580600101965050611fb4565b600093505b8480600101955050611de0565b85604051908082528060200260200182016040528015611ff05781602001602082028038833980820191505090505b509050600094505b8585101561206f57868581518110151561200e57fe5b90602001906020020151818681518110151561202657fe5b9060200190602002019073ffffffffffffffffffffffffffffffffffffffff16908173ffffffffffffffffffffffffffffffffffffffff16815250508480600101955050611ff8565b809850505050505050505090565b60008060009054906101000a900473ffffffffffffffffffffffffffffffffffffffff16905090565b60008060009054906101000a900473ffffffffffffffffffffffffffffffffffffffff1673ffffffffffffffffffffffffffffffffffffffff163373ffffffffffffffffffffffffffffffffffffffff1614905090565b6000600280549050905090565b6060600080600090505b6002805490508110156123245760028181548110151561213057fe5b9060005260206000200160405180828054600181600116156101000203166002900480156121955780601f10612173576101008083540402835291820191612195565b820191906000526020600020905b815481529060010190602001808311612181575b505091505060405180910390207bffffffffffffffffffffffffffffffffffffffffffffffffffffffff1916847bffffffffffffffffffffffffffffffffffffffffffffffffffffffff19161415612317576002818154811015156121f657fe5b9060005260206000200160016000867bffffffffffffffffffffffffffffffffffffffffffffffffffffffff19167bffffffffffffffffffffffffffffffffffffffffffffffffffffffff1916815260200190815260200160002060009054906101000a900473ffffffffffffffffffffffffffffffffffffffff16818054600181600116156101000203166002900480601f0160208091040260200160405190810160405280929190818152602001828054600181600116156101000203166002900480156123075780601f106122dc57610100808354040283529160200191612307565b820191906000526020600020905b8154815290600101906020018083116122ea57829003601f168201915b5050505050915092509250612392565b8080600101915050612114565b6040517f08c379a00000000000000000000000000000000000000000000000000000000081526004018080602001828103825260148152602001807f66756e6374696f6e4964206e6f7420666f756e6400000000000000000000000081525060200191505060405180910390fd5b50915091565b6123a06120a6565b15156123ab57600080fd5b6123b4816123b7565b50565b600073ffffffffffffffffffffffffffffffffffffffff168173ffffffffffffffffffffffffffffffffffffffff16141515156123f357600080fd5b8073ffffffffffffffffffffffffffffffffffffffff166000809054906101000a900473ffffffffffffffffffffffffffffffffffffffff1673ffffffffffffffffffffffffffffffffffffffff167f8be0079c531659141344cd1fd0a4f28419497f9722a3daafe3b4186f6b6457e060405160405180910390a3806000806101000a81548173ffffffffffffffffffffffffffffffffffffffff021916908373ffffffffffffffffffffffffffffffffffffffff16021790555050565b828054600181600116156101000203166002900490600052602060002090601f016020900481019282601f106124ea5780548555612527565b8280016001018555821561252757600052602060002091601f016020900482015b8281111561252657825482559160010191906001019061250b565b5b50905061253491906125e4565b5090565b81548183558181111561255f5781836000526020600020918201910161255e9190612609565b5b505050565b828054600181600116156101000203166002900490600052602060002090601f016020900481019282601f106125a557805160ff19168380011785556125d3565b828001600101855582156125d3579182015b828111156125d25782518255916020019190600101906125b7565b5b5090506125e091906125e4565b5090565b61260691905b808211156126025760008160009055506001016125ea565b5090565b90565b61263291905b8082111561262e57600081816126259190612635565b5060010161260f565b5090565b90565b50805460018160011615610100020316600290046000825580601f1061265b575061267a565b601f01602090049060005260206000209081019061267991906125e4565b5b505600a165627a7a723058202d3b9c1dd2d9d3cd4107d69e7f38f9b1a4ad6be6652844ee6ea1174d8eb7c40f0029",
  "source": "pragma solidity ^0.4.24;\npragma experimental \"v0.5.0\";\nimport \"./IERC1538.sol\";\nimport \"./ERC1538QueryDelegates.sol\";\n\n/******************************************************************************\\\n* Implementation of ERC1538.\n* Function signatures are stored in an array so functions can be queried.\n/******************************************************************************/\n\ncontract ERC1538Delegate is IERC1538, ERC1538QueryDelegates {\n\n    function updateContract(address _delegate, string _functionSignatures, string commitMessage) external onlyOwner {\n        // pos is first used to check the size of the delegate contract.\n        // After that pos is the current memory location of _functionSignatures.\n        // It is used to move through the characters of _functionSignatures\n        uint256 pos;\n        if(_delegate != address(0)) {\n            assembly {\n                pos := extcodesize(_delegate)\n            }\n            require(pos > 0, \"_delegate address is not a contract and is not address(0)\");\n        }\n        // creates a bytes vesion of _functionSignatures\n        bytes memory signatures = bytes(_functionSignatures);\n        // stores the position in memory where _functionSignatures ends.\n        uint256 signaturesEnd;\n        // stores the starting position of a function signature in _functionSignatures\n        uint256 start;\n        assembly {\n            pos := add(signatures,32)\n            start := pos\n            signaturesEnd := add(pos,mload(signatures))\n        }\n        // the function id of the current function signature\n        bytes4 funcId;\n        // the delegate address that is being replaced or address(0) if removing functions\n        address oldDelegate;\n        // the length of the current function signature in _functionSignatures\n        uint256 num;\n        // the current character in _functionSignatures\n        uint256 char;\n        // the position of the current function signature in the funcSignatures array\n        uint256 index;\n        // the last position in the funcSignatures array\n        uint256 lastIndex;\n        // parse the _functionSignatures string and handle each function\n        for (; pos < signaturesEnd; pos++) {\n            assembly {char := byte(0,mload(pos))}\n            // 0x29 == )\n            if (char == 0x29) {\n                pos++;\n                num = (pos - start);\n                start = pos;\n                assembly {\n                    mstore(signatures,num)\n                }\n                funcId = bytes4(keccak256(signatures));\n                oldDelegate = delegates[funcId];\n                if(_delegate == address(0)) {\n                    index = funcSignatureToIndex[signatures];\n                    require(index != 0, \"Function does not exist.\");\n                    index--;\n                    lastIndex = funcSignatures.length - 1;\n                    if (index != lastIndex) {\n                        funcSignatures[index] = funcSignatures[lastIndex];\n                        funcSignatureToIndex[funcSignatures[lastIndex]] = index + 1;\n                    }\n                    funcSignatures.length--;\n                    delete funcSignatureToIndex[signatures];\n                    delete delegates[funcId];\n                    emit FunctionUpdate(funcId, oldDelegate, address(0), string(signatures));\n                }\n                else if (funcSignatureToIndex[signatures] == 0) {\n                    require(oldDelegate == address(0), \"Funcion id clash.\");\n                    delegates[funcId] = _delegate;\n                    funcSignatures.push(signatures);\n                    funcSignatureToIndex[signatures] = funcSignatures.length;\n                    emit FunctionUpdate(funcId, address(0), _delegate, string(signatures));\n                }\n                else if (delegates[funcId] != _delegate) {\n                    delegates[funcId] = _delegate;\n                    emit FunctionUpdate(funcId, oldDelegate, _delegate, string(signatures));\n\n                }\n                assembly {signatures := add(signatures,num)}\n            }\n        }\n        emit CommitMessage(commitMessage);\n    }\n}",
  "sourcePath": "/Users/Amir/last-pixel-contracts/contracts/ERC1538Delegate.sol",
  "compiler": {
    "name": "solc",
    "version": "0.4.24+commit.e67f0147.Emscripten.clang"
  },
  "schemaVersion": "2.0.1",
  "updatedAt": "2019-01-14T16:23:58.146Z"
}