{
  "contractName": "Game",
  "abi": [
    {
      "constant": true,
      "inputs": [],
      "name": "isGamePaused",
      "outputs": [
        {
          "name": "",
          "type": "bool"
        }
      ],
      "payable": false,
      "stateMutability": "view",
      "type": "function"
    },
    {
      "constant": true,
      "inputs": [
        {
          "name": "",
          "type": "uint256"
        },
        {
          "name": "",
          "type": "address"
        }
      ],
      "name": "isInTBT",
      "outputs": [
        {
          "name": "",
          "type": "bool"
        }
      ],
      "payable": false,
      "stateMutability": "view",
      "type": "function"
    },
    {
      "constant": true,
      "inputs": [
        {
          "name": "",
          "type": "bytes32"
        }
      ],
      "name": "refLinkToUser",
      "outputs": [
        {
          "name": "",
          "type": "address"
        }
      ],
      "payable": false,
      "stateMutability": "view",
      "type": "function"
    },
    {
      "constant": true,
      "inputs": [
        {
          "name": "",
          "type": "uint256"
        },
        {
          "name": "",
          "type": "uint256"
        }
      ],
      "name": "colorToPaintedPixelsAmountForRound",
      "outputs": [
        {
          "name": "",
          "type": "uint256"
        }
      ],
      "payable": false,
      "stateMutability": "view",
      "type": "function"
    },
    {
      "constant": true,
      "inputs": [],
      "name": "tbIteration",
      "outputs": [
        {
          "name": "",
          "type": "uint256"
        }
      ],
      "payable": false,
      "stateMutability": "view",
      "type": "function"
    },
    {
      "constant": true,
      "inputs": [
        {
          "name": "",
          "type": "uint256"
        }
      ],
      "name": "winnerOfRound",
      "outputs": [
        {
          "name": "",
          "type": "address"
        }
      ],
      "payable": false,
      "stateMutability": "view",
      "type": "function"
    },
    {
      "constant": true,
      "inputs": [
        {
          "name": "",
          "type": "address"
        }
      ],
      "name": "hasReferrer",
      "outputs": [
        {
          "name": "",
          "type": "bool"
        }
      ],
      "payable": false,
      "stateMutability": "view",
      "type": "function"
    },
    {
      "constant": true,
      "inputs": [
        {
          "name": "",
          "type": "uint256"
        },
        {
          "name": "",
          "type": "uint256"
        }
      ],
      "name": "colorToTotalPaintsForCBIteration",
      "outputs": [
        {
          "name": "",
          "type": "uint256"
        }
      ],
      "payable": false,
      "stateMutability": "view",
      "type": "function"
    },
    {
      "constant": true,
      "inputs": [],
      "name": "totalColorsNumber",
      "outputs": [
        {
          "name": "",
          "type": "uint256"
        }
      ],
      "payable": false,
      "stateMutability": "view",
      "type": "function"
    },
    {
      "constant": true,
      "inputs": [
        {
          "name": "",
          "type": "address"
        }
      ],
      "name": "isRegisteredUser",
      "outputs": [
        {
          "name": "",
          "type": "bool"
        }
      ],
      "payable": false,
      "stateMutability": "view",
      "type": "function"
    },
    {
      "constant": true,
      "inputs": [
        {
          "name": "",
          "type": "uint256"
        },
        {
          "name": "",
          "type": "address"
        }
      ],
      "name": "hasPaintDiscountForColor",
      "outputs": [
        {
          "name": "",
          "type": "bool"
        }
      ],
      "payable": false,
      "stateMutability": "view",
      "type": "function"
    },
    {
      "constant": true,
      "inputs": [],
      "name": "isTBPDistributable",
      "outputs": [
        {
          "name": "",
          "type": "bool"
        }
      ],
      "payable": false,
      "stateMutability": "view",
      "type": "function"
    },
    {
      "constant": true,
      "inputs": [
        {
          "name": "",
          "type": "address"
        }
      ],
      "name": "isAdmin",
      "outputs": [
        {
          "name": "",
          "type": "bool"
        }
      ],
      "payable": false,
      "stateMutability": "view",
      "type": "function"
    },
    {
      "constant": true,
      "inputs": [
        {
          "name": "",
          "type": "uint256"
        }
      ],
      "name": "currentPaintGenForColor",
      "outputs": [
        {
          "name": "",
          "type": "uint256"
        }
      ],
      "payable": false,
      "stateMutability": "view",
      "type": "function"
    },
    {
      "constant": true,
      "inputs": [
        {
          "name": "",
          "type": "address"
        }
      ],
      "name": "lastPlayedRound",
      "outputs": [
        {
          "name": "",
          "type": "uint256"
        }
      ],
      "payable": false,
      "stateMutability": "view",
      "type": "function"
    },
    {
      "constant": true,
      "inputs": [
        {
          "name": "",
          "type": "uint256"
        },
        {
          "name": "",
          "type": "address"
        }
      ],
      "name": "moneySpentByUserForColor",
      "outputs": [
        {
          "name": "",
          "type": "uint256"
        }
      ],
      "payable": false,
      "stateMutability": "view",
      "type": "function"
    },
    {
      "constant": true,
      "inputs": [
        {
          "name": "",
          "type": "uint256"
        },
        {
          "name": "",
          "type": "uint256"
        }
      ],
      "name": "tbTeam",
      "outputs": [
        {
          "name": "",
          "type": "address"
        }
      ],
      "payable": false,
      "stateMutability": "view",
      "type": "function"
    },
    {
      "constant": true,
      "inputs": [
        {
          "name": "",
          "type": "uint256"
        },
        {
          "name": "",
          "type": "address"
        }
      ],
      "name": "painterToTBP",
      "outputs": [
        {
          "name": "",
          "type": "uint256"
        }
      ],
      "payable": false,
      "stateMutability": "view",
      "type": "function"
    },
    {
      "constant": true,
      "inputs": [
        {
          "name": "",
          "type": "uint256"
        },
        {
          "name": "",
          "type": "uint256"
        }
      ],
      "name": "paintGenToStartTimeForColor",
      "outputs": [
        {
          "name": "",
          "type": "uint256"
        }
      ],
      "payable": false,
      "stateMutability": "view",
      "type": "function"
    },
    {
      "constant": true,
      "inputs": [
        {
          "name": "",
          "type": "uint256"
        }
      ],
      "name": "callPriceForColor",
      "outputs": [
        {
          "name": "",
          "type": "uint256"
        }
      ],
      "payable": false,
      "stateMutability": "view",
      "type": "function"
    },
    {
      "constant": true,
      "inputs": [
        {
          "name": "",
          "type": "uint256"
        },
        {
          "name": "",
          "type": "address"
        }
      ],
      "name": "painterToCBP",
      "outputs": [
        {
          "name": "",
          "type": "uint256"
        }
      ],
      "payable": false,
      "stateMutability": "view",
      "type": "function"
    },
    {
      "constant": true,
      "inputs": [
        {
          "name": "",
          "type": "uint256"
        }
      ],
      "name": "winnerBankForRound",
      "outputs": [
        {
          "name": "",
          "type": "uint256"
        }
      ],
      "payable": false,
      "stateMutability": "view",
      "type": "function"
    },
    {
      "constant": true,
      "inputs": [],
      "name": "paintsCounter",
      "outputs": [
        {
          "name": "",
          "type": "uint256"
        }
      ],
      "payable": false,
      "stateMutability": "view",
      "type": "function"
    },
    {
      "constant": true,
      "inputs": [],
      "name": "founders",
      "outputs": [
        {
          "name": "",
          "type": "address"
        }
      ],
      "payable": false,
      "stateMutability": "view",
      "type": "function"
    },
    {
      "constant": true,
      "inputs": [
        {
          "name": "",
          "type": "address"
        }
      ],
      "name": "newUserToCounter",
      "outputs": [
        {
          "name": "",
          "type": "uint256"
        }
      ],
      "payable": false,
      "stateMutability": "view",
      "type": "function"
    },
    {
      "constant": true,
      "inputs": [
        {
          "name": "",
          "type": "uint256"
        },
        {
          "name": "",
          "type": "uint256"
        }
      ],
      "name": "counterToPainterForColor",
      "outputs": [
        {
          "name": "",
          "type": "address"
        }
      ],
      "payable": false,
      "stateMutability": "view",
      "type": "function"
    },
    {
      "constant": true,
      "inputs": [
        {
          "name": "",
          "type": "uint256"
        },
        {
          "name": "",
          "type": "uint256"
        }
      ],
      "name": "pixelToOldColorForRound",
      "outputs": [
        {
          "name": "",
          "type": "uint256"
        }
      ],
      "payable": false,
      "stateMutability": "view",
      "type": "function"
    },
    {
      "constant": true,
      "inputs": [
        {
          "name": "",
          "type": "uint256"
        }
      ],
      "name": "isTBPTransfered",
      "outputs": [
        {
          "name": "",
          "type": "bool"
        }
      ],
      "payable": false,
      "stateMutability": "view",
      "type": "function"
    },
    {
      "constant": true,
      "inputs": [
        {
          "name": "",
          "type": "uint256"
        }
      ],
      "name": "timeBankForRound",
      "outputs": [
        {
          "name": "",
          "type": "uint256"
        }
      ],
      "payable": false,
      "stateMutability": "view",
      "type": "function"
    },
    {
      "constant": true,
      "inputs": [
        {
          "name": "",
          "type": "address"
        }
      ],
      "name": "userToRefLink",
      "outputs": [
        {
          "name": "",
          "type": "string"
        }
      ],
      "payable": false,
      "stateMutability": "view",
      "type": "function"
    },
    {
      "constant": true,
      "inputs": [],
      "name": "claimId",
      "outputs": [
        {
          "name": "",
          "type": "uint256"
        }
      ],
      "payable": false,
      "stateMutability": "view",
      "type": "function"
    },
    {
      "constant": true,
      "inputs": [
        {
          "name": "",
          "type": "uint256"
        },
        {
          "name": "",
          "type": "uint256"
        }
      ],
      "name": "cbTeam",
      "outputs": [
        {
          "name": "",
          "type": "address"
        }
      ],
      "payable": false,
      "stateMutability": "view",
      "type": "function"
    },
    {
      "constant": true,
      "inputs": [
        {
          "name": "",
          "type": "uint256"
        },
        {
          "name": "",
          "type": "uint256"
        }
      ],
      "name": "paintGenStartedForColor",
      "outputs": [
        {
          "name": "",
          "type": "bool"
        }
      ],
      "payable": false,
      "stateMutability": "view",
      "type": "function"
    },
    {
      "constant": true,
      "inputs": [
        {
          "name": "",
          "type": "uint256"
        }
      ],
      "name": "lastPaintedPixelForRound",
      "outputs": [
        {
          "name": "",
          "type": "uint256"
        }
      ],
      "payable": false,
      "stateMutability": "view",
      "type": "function"
    },
    {
      "constant": true,
      "inputs": [
        {
          "name": "",
          "type": "uint256"
        }
      ],
      "name": "nextCallPriceForColor",
      "outputs": [
        {
          "name": "",
          "type": "uint256"
        }
      ],
      "payable": false,
      "stateMutability": "view",
      "type": "function"
    },
    {
      "constant": false,
      "inputs": [],
      "name": "renounceOwnership",
      "outputs": [],
      "payable": false,
      "stateMutability": "nonpayable",
      "type": "function"
    },
    {
      "constant": true,
      "inputs": [
        {
          "name": "",
          "type": "uint256"
        }
      ],
      "name": "lastPaintTimeForRound",
      "outputs": [
        {
          "name": "",
          "type": "uint256"
        }
      ],
      "payable": false,
      "stateMutability": "view",
      "type": "function"
    },
    {
      "constant": true,
      "inputs": [],
      "name": "isCBPDistributable",
      "outputs": [
        {
          "name": "",
          "type": "bool"
        }
      ],
      "payable": false,
      "stateMutability": "view",
      "type": "function"
    },
    {
      "constant": true,
      "inputs": [
        {
          "name": "",
          "type": "uint256"
        }
      ],
      "name": "lastPainterForRound",
      "outputs": [
        {
          "name": "",
          "type": "address"
        }
      ],
      "payable": false,
      "stateMutability": "view",
      "type": "function"
    },
    {
      "constant": true,
      "inputs": [
        {
          "name": "",
          "type": "address"
        }
      ],
      "name": "hasRefLink",
      "outputs": [
        {
          "name": "",
          "type": "bool"
        }
      ],
      "payable": false,
      "stateMutability": "view",
      "type": "function"
    },
    {
      "constant": true,
      "inputs": [
        {
          "name": "",
          "type": "address"
        },
        {
          "name": "",
          "type": "uint256"
        }
      ],
      "name": "referrerToReferrals",
      "outputs": [
        {
          "name": "",
          "type": "address"
        }
      ],
      "payable": false,
      "stateMutability": "view",
      "type": "function"
    },
    {
      "constant": true,
      "inputs": [],
      "name": "currentRound",
      "outputs": [
        {
          "name": "",
          "type": "uint256"
        }
      ],
      "payable": false,
      "stateMutability": "view",
      "type": "function"
    },
    {
      "constant": true,
      "inputs": [],
      "name": "owner",
      "outputs": [
        {
          "name": "",
          "type": "address"
        }
      ],
      "payable": false,
      "stateMutability": "view",
      "type": "function"
    },
    {
      "constant": true,
      "inputs": [
        {
          "name": "",
          "type": "uint256"
        }
      ],
      "name": "paintsCounterForColor",
      "outputs": [
        {
          "name": "",
          "type": "uint256"
        }
      ],
      "payable": false,
      "stateMutability": "view",
      "type": "function"
    },
    {
      "constant": true,
      "inputs": [],
      "name": "isOwner",
      "outputs": [
        {
          "name": "",
          "type": "bool"
        }
      ],
      "payable": false,
      "stateMutability": "view",
      "type": "function"
    },
    {
      "constant": true,
      "inputs": [
        {
          "name": "",
          "type": "uint256"
        },
        {
          "name": "",
          "type": "uint256"
        }
      ],
      "name": "pixelToPaintTimeForRound",
      "outputs": [
        {
          "name": "",
          "type": "uint256"
        }
      ],
      "payable": false,
      "stateMutability": "view",
      "type": "function"
    },
    {
      "constant": true,
      "inputs": [
        {
          "name": "",
          "type": "uint256"
        },
        {
          "name": "",
          "type": "uint256"
        }
      ],
      "name": "colorBankToColorForRound",
      "outputs": [
        {
          "name": "",
          "type": "uint256"
        }
      ],
      "payable": false,
      "stateMutability": "view",
      "type": "function"
    },
    {
      "constant": true,
      "inputs": [
        {
          "name": "",
          "type": "uint256"
        }
      ],
      "name": "claims",
      "outputs": [
        {
          "name": "id",
          "type": "uint256"
        },
        {
          "name": "claimer",
          "type": "address"
        },
        {
          "name": "isResolved",
          "type": "bool"
        },
        {
          "name": "timestamp",
          "type": "uint256"
        }
      ],
      "payable": false,
      "stateMutability": "view",
      "type": "function"
    },
    {
      "constant": true,
      "inputs": [],
      "name": "ownerOfPixel",
      "outputs": [
        {
          "name": "",
          "type": "address"
        }
      ],
      "payable": false,
      "stateMutability": "view",
      "type": "function"
    },
    {
      "constant": true,
      "inputs": [
        {
          "name": "",
          "type": "uint256"
        },
        {
          "name": "",
          "type": "address"
        }
      ],
      "name": "isInCBT",
      "outputs": [
        {
          "name": "",
          "type": "bool"
        }
      ],
      "payable": false,
      "stateMutability": "view",
      "type": "function"
    },
    {
      "constant": true,
      "inputs": [
        {
          "name": "",
          "type": "uint256"
        }
      ],
      "name": "counterToPainter",
      "outputs": [
        {
          "name": "",
          "type": "address"
        }
      ],
      "payable": false,
      "stateMutability": "view",
      "type": "function"
    },
    {
      "constant": true,
      "inputs": [
        {
          "name": "",
          "type": "uint256"
        },
        {
          "name": "",
          "type": "address"
        }
      ],
      "name": "timeBankShare",
      "outputs": [
        {
          "name": "",
          "type": "uint256"
        }
      ],
      "payable": false,
      "stateMutability": "view",
      "type": "function"
    },
    {
      "constant": true,
      "inputs": [
        {
          "name": "",
          "type": "uint256"
        },
        {
          "name": "",
          "type": "uint256"
        },
        {
          "name": "",
          "type": "address"
        }
      ],
      "name": "colorBankShare",
      "outputs": [
        {
          "name": "",
          "type": "uint256"
        }
      ],
      "payable": false,
      "stateMutability": "view",
      "type": "function"
    },
    {
      "constant": true,
      "inputs": [
        {
          "name": "",
          "type": "uint256"
        },
        {
          "name": "",
          "type": "uint256"
        }
      ],
      "name": "pixelToColorForRound",
      "outputs": [
        {
          "name": "",
          "type": "uint256"
        }
      ],
      "payable": false,
      "stateMutability": "view",
      "type": "function"
    },
    {
      "constant": true,
      "inputs": [
        {
          "name": "",
          "type": "address"
        }
      ],
      "name": "isTeamMember",
      "outputs": [
        {
          "name": "",
          "type": "bool"
        }
      ],
      "payable": false,
      "stateMutability": "view",
      "type": "function"
    },
    {
      "constant": true,
      "inputs": [
        {
          "name": "",
          "type": "uint256"
        }
      ],
      "name": "totalPaintsForRound",
      "outputs": [
        {
          "name": "",
          "type": "uint256"
        }
      ],
      "payable": false,
      "stateMutability": "view",
      "type": "function"
    },
    {
      "constant": true,
      "inputs": [
        {
          "name": "",
          "type": "uint256"
        }
      ],
      "name": "colorBankForRound",
      "outputs": [
        {
          "name": "",
          "type": "uint256"
        }
      ],
      "payable": false,
      "stateMutability": "view",
      "type": "function"
    },
    {
      "constant": true,
      "inputs": [
        {
          "name": "",
          "type": "uint256"
        },
        {
          "name": "",
          "type": "uint256"
        }
      ],
      "name": "paintGenToEndTimeForColor",
      "outputs": [
        {
          "name": "",
          "type": "uint256"
        }
      ],
      "payable": false,
      "stateMutability": "view",
      "type": "function"
    },
    {
      "constant": true,
      "inputs": [],
      "name": "uniqueUsersCount",
      "outputs": [
        {
          "name": "",
          "type": "uint256"
        }
      ],
      "payable": false,
      "stateMutability": "view",
      "type": "function"
    },
    {
      "constant": true,
      "inputs": [
        {
          "name": "",
          "type": "bytes32"
        }
      ],
      "name": "refLinkExists",
      "outputs": [
        {
          "name": "",
          "type": "bool"
        }
      ],
      "payable": false,
      "stateMutability": "view",
      "type": "function"
    },
    {
      "constant": true,
      "inputs": [
        {
          "name": "",
          "type": "uint256"
        },
        {
          "name": "",
          "type": "uint256"
        }
      ],
      "name": "paintGenToAmountForColor",
      "outputs": [
        {
          "name": "",
          "type": "uint256"
        }
      ],
      "payable": false,
      "stateMutability": "view",
      "type": "function"
    },
    {
      "constant": true,
      "inputs": [
        {
          "name": "",
          "type": "uint256"
        }
      ],
      "name": "isCBPTransfered",
      "outputs": [
        {
          "name": "",
          "type": "bool"
        }
      ],
      "payable": false,
      "stateMutability": "view",
      "type": "function"
    },
    {
      "constant": true,
      "inputs": [
        {
          "name": "",
          "type": "address"
        }
      ],
      "name": "referralToReferrer",
      "outputs": [
        {
          "name": "",
          "type": "address"
        }
      ],
      "payable": false,
      "stateMutability": "view",
      "type": "function"
    },
    {
      "constant": true,
      "inputs": [
        {
          "name": "",
          "type": "uint256"
        },
        {
          "name": "",
          "type": "address"
        }
      ],
      "name": "usersPaintDiscountForColor",
      "outputs": [
        {
          "name": "",
          "type": "uint256"
        }
      ],
      "payable": false,
      "stateMutability": "view",
      "type": "function"
    },
    {
      "constant": true,
      "inputs": [],
      "name": "maxPaintsInPool",
      "outputs": [
        {
          "name": "",
          "type": "uint256"
        }
      ],
      "payable": false,
      "stateMutability": "view",
      "type": "function"
    },
    {
      "constant": false,
      "inputs": [
        {
          "name": "newOwner",
          "type": "address"
        }
      ],
      "name": "transferOwnership",
      "outputs": [],
      "payable": false,
      "stateMutability": "nonpayable",
      "type": "function"
    },
    {
      "constant": true,
      "inputs": [
        {
          "name": "",
          "type": "uint256"
        }
      ],
      "name": "winnerColorForRound",
      "outputs": [
        {
          "name": "",
          "type": "uint256"
        }
      ],
      "payable": false,
      "stateMutability": "view",
      "type": "function"
    },
    {
      "constant": true,
      "inputs": [],
      "name": "dividendsBank",
      "outputs": [
        {
          "name": "",
          "type": "uint256"
        }
      ],
      "payable": false,
      "stateMutability": "view",
      "type": "function"
    },
    {
      "constant": true,
      "inputs": [
        {
          "name": "",
          "type": "address"
        }
      ],
      "name": "withdrawalBalances",
      "outputs": [
        {
          "name": "",
          "type": "uint256"
        }
      ],
      "payable": false,
      "stateMutability": "view",
      "type": "function"
    },
    {
      "constant": true,
      "inputs": [],
      "name": "cbIteration",
      "outputs": [
        {
          "name": "",
          "type": "uint256"
        }
      ],
      "payable": false,
      "stateMutability": "view",
      "type": "function"
    },
    {
      "anonymous": false,
      "inputs": [
        {
          "indexed": true,
          "name": "round",
          "type": "uint256"
        },
        {
          "indexed": true,
          "name": "cbIteration",
          "type": "uint256"
        },
        {
          "indexed": true,
          "name": "winner",
          "type": "address"
        },
        {
          "indexed": false,
          "name": "prize",
          "type": "uint256"
        }
      ],
      "name": "CBPDistributed",
      "type": "event"
    },
    {
      "anonymous": false,
      "inputs": [
        {
          "indexed": true,
          "name": "withdrawer",
          "type": "address"
        },
        {
          "indexed": true,
          "name": "claimId",
          "type": "uint256"
        },
        {
          "indexed": true,
          "name": "amount",
          "type": "uint256"
        }
      ],
      "name": "DividendsWithdrawn",
      "type": "event"
    },
    {
      "anonymous": false,
      "inputs": [
        {
          "indexed": true,
          "name": "claimer",
          "type": "address"
        },
        {
          "indexed": true,
          "name": "claimId",
          "type": "uint256"
        },
        {
          "indexed": true,
          "name": "currentTime",
          "type": "uint256"
        }
      ],
      "name": "DividendsClaimed",
      "type": "event"
    },
    {
      "anonymous": false,
      "inputs": [
        {
          "indexed": true,
          "name": "pixelId",
          "type": "uint256"
        },
        {
          "indexed": false,
          "name": "colorId",
          "type": "uint256"
        },
        {
          "indexed": true,
          "name": "painter",
          "type": "address"
        },
        {
          "indexed": true,
          "name": "round",
          "type": "uint256"
        },
        {
          "indexed": false,
          "name": "timestamp",
          "type": "uint256"
        }
      ],
      "name": "Paint",
      "type": "event"
    },
    {
      "anonymous": false,
      "inputs": [
        {
          "indexed": false,
          "name": "winnerOfRound",
          "type": "address"
        },
        {
          "indexed": true,
          "name": "round",
          "type": "uint256"
        }
      ],
      "name": "ColorBankPlayed",
      "type": "event"
    },
    {
      "anonymous": false,
      "inputs": [
        {
          "indexed": false,
          "name": "winnerOfRound",
          "type": "address"
        },
        {
          "indexed": true,
          "name": "round",
          "type": "uint256"
        }
      ],
      "name": "TimeBankPlayed",
      "type": "event"
    },
    {
      "anonymous": false,
      "inputs": [
        {
          "indexed": true,
          "name": "newCallPrice",
          "type": "uint256"
        }
      ],
      "name": "CallPriceUpdated",
      "type": "event"
    },
    {
      "anonymous": false,
      "inputs": [
        {
          "indexed": true,
          "name": "round",
          "type": "uint256"
        },
        {
          "indexed": true,
          "name": "tbIteration",
          "type": "uint256"
        },
        {
          "indexed": true,
          "name": "winner",
          "type": "address"
        },
        {
          "indexed": false,
          "name": "prize",
          "type": "uint256"
        }
      ],
      "name": "TBPDistributed",
      "type": "event"
    },
    {
      "anonymous": false,
      "inputs": [
        {
          "indexed": true,
          "name": "previousOwner",
          "type": "address"
        },
        {
          "indexed": true,
          "name": "newOwner",
          "type": "address"
        }
      ],
      "name": "OwnershipTransferred",
      "type": "event"
    },
    {
      "constant": true,
      "inputs": [
        {
          "name": "_pixel",
          "type": "uint256"
        }
      ],
      "name": "getPixelColor",
      "outputs": [
        {
          "name": "",
          "type": "uint256"
        }
      ],
      "payable": false,
      "stateMutability": "view",
      "type": "function"
    },
    {
      "constant": true,
      "inputs": [
        {
          "name": "_pixels",
          "type": "uint256[]"
        },
        {
          "name": "_color",
          "type": "uint256"
        }
      ],
      "name": "estimateCallPrice",
      "outputs": [
        {
          "name": "totalCallPrice",
          "type": "uint256"
        }
      ],
      "payable": false,
      "stateMutability": "view",
      "type": "function"
    },
    {
      "constant": false,
      "inputs": [
        {
          "name": "_pixels",
          "type": "uint256[]"
        },
        {
          "name": "_color",
          "type": "uint256"
        },
        {
          "name": "_refLink",
          "type": "string"
        }
      ],
      "name": "paint",
      "outputs": [],
      "payable": true,
      "stateMutability": "payable",
      "type": "function"
    }
  ],
  "bytecode": "0x608060405273ca35b7d915458ef540ade6068dfe2f44e8fa733c603f60006101000a81548173ffffffffffffffffffffffffffffffffffffffff021916908373ffffffffffffffffffffffffffffffffffffffff160217905550733e4d187df7d8a0820eaf4174d17b160157610912604060006101000a81548173ffffffffffffffffffffffffffffffffffffffff021916908373ffffffffffffffffffffffffffffffffffffffff160217905550336000806101000a81548173ffffffffffffffffffffffffffffffffffffffff021916908373ffffffffffffffffffffffffffffffffffffffff1602179055506000809054906101000a900473ffffffffffffffffffffffffffffffffffffffff1673ffffffffffffffffffffffffffffffffffffffff16600073ffffffffffffffffffffffffffffffffffffffff167f8be0079c531659141344cd1fd0a4f28419497f9722a3daafe3b4186f6b6457e060405160405180910390a3614398806101796000396000f300608060405260043610610359576000357c0100000000000000000000000000000000000000000000000000000000900463ffffffff1680630422ddf31461035e57806305bdd0be1461038d578063099b81ce146103f25780630cf9603f146104635780630daa4206146104ae5780630f6ed86e146104fe578063102f97131461052957806318452cd81461059657806319ef6a06146105f15780631d64873b1461063c5780631f5bdf5d146106675780631f90c6ed146106c257806321423af81461072757806324d7806c1461075657806328361f57146107b157806328b290f9146107f25780632c6c1c41146108495780632c7a3dae146108aa57806333f9c388146109215780633a173505146109825780633c6dd013146109cd5780633ca4c18314610a0e5780633d0d1a7914610a6f5780633dc3c37714610ab0578063411b007e14610adb57806341c5464e14610b3257806342e453ec14610b895780634b39173d14610c005780634c438ad714610c4b5780634c78e40114610c905780635bfcdb2714610cd15780635c25fd1314610d8d5780635d63ebb214610db85780635f5d554c14610e2f578063628a71a314610e7e5780636f17eb4214610ebf578063715018a614610f0057806373a9ee2614610f1757806376f5d96a14610f5857806379ecf37614610f875780637b68a8f014610ff45780637e1e175c1461103557806387982ac3146110905780638a19c8bc1461111d5780638da5cb5b146111485780638e2df39c1461119f5780638f32d59b146111e05780638f63b7e51461120f578063a31207241461125a578063a888c2cd146112a5578063a977e1681461132b578063ab24c7d214611382578063abafb90e146113e7578063ae55ce821461146b578063b0ff59d2146114d8578063b1a3883c14611539578063b8232d5d146115a4578063bbe9f99d146115ef578063be7d62261461164a578063c64a2e561461168b578063c957387b146116cc578063c9f8234f14611717578063d4526e6814611742578063d5de47c71461178b578063da68b121146117d6578063deaf0fa11461181b578063eaf1c9101461189e578063eef565da146118ff578063f2fde38b1461192a578063f49916f51461196d578063f5f95b3b146119ae578063fb454d29146119d9578063fea11fe314611a30575b600080fd5b34801561036a57600080fd5b50610373611a5b565b604051808215151515815260200191505060405180910390f35b34801561039957600080fd5b506103d860048036038101908080359060200190929190803573ffffffffffffffffffffffffffffffffffffffff169060200190929190505050611a6e565b604051808215151515815260200191505060405180910390f35b3480156103fe57600080fd5b506104216004803603810190808035600019169060200190929190505050611a9d565b604051808273ffffffffffffffffffffffffffffffffffffffff1673ffffffffffffffffffffffffffffffffffffffff16815260200191505060405180910390f35b34801561046f57600080fd5b506104986004803603810190808035906020019092919080359060200190929190505050611ad0565b6040518082815260200191505060405180910390f35b6104fc60048036038101908080359060200190820180359060200191909192939192939080359060200190929190803590602001908201803590602001919091929391929390505050611af5565b005b34801561050a57600080fd5b50610513612408565b6040518082815260200191505060405180910390f35b34801561053557600080fd5b506105546004803603810190808035906020019092919050505061240e565b604051808273ffffffffffffffffffffffffffffffffffffffff1673ffffffffffffffffffffffffffffffffffffffff16815260200191505060405180910390f35b3480156105a257600080fd5b506105d7600480360381019080803573ffffffffffffffffffffffffffffffffffffffff169060200190929190505050612441565b604051808215151515815260200191505060405180910390f35b3480156105fd57600080fd5b506106266004803603810190808035906020019092919080359060200190929190505050612461565b6040518082815260200191505060405180910390f35b34801561064857600080fd5b50610651612486565b6040518082815260200191505060405180910390f35b34801561067357600080fd5b506106a8600480360381019080803573ffffffffffffffffffffffffffffffffffffffff16906020019092919050505061248c565b604051808215151515815260200191505060405180910390f35b3480156106ce57600080fd5b5061070d60048036038101908080359060200190929190803573ffffffffffffffffffffffffffffffffffffffff1690602001909291905050506124ac565b604051808215151515815260200191505060405180910390f35b34801561073357600080fd5b5061073c6124db565b604051808215151515815260200191505060405180910390f35b34801561076257600080fd5b50610797600480360381019080803573ffffffffffffffffffffffffffffffffffffffff1690602001909291905050506124ee565b604051808215151515815260200191505060405180910390f35b3480156107bd57600080fd5b506107dc6004803603810190808035906020019092919050505061250e565b6040518082815260200191505060405180910390f35b3480156107fe57600080fd5b50610833600480360381019080803573ffffffffffffffffffffffffffffffffffffffff169060200190929190505050612526565b6040518082815260200191505060405180910390f35b34801561085557600080fd5b5061089460048036038101908080359060200190929190803573ffffffffffffffffffffffffffffffffffffffff16906020019092919050505061253e565b6040518082815260200191505060405180910390f35b3480156108b657600080fd5b506108df6004803603810190808035906020019092919080359060200190929190505050612563565b604051808273ffffffffffffffffffffffffffffffffffffffff1673ffffffffffffffffffffffffffffffffffffffff16815260200191505060405180910390f35b34801561092d57600080fd5b5061096c60048036038101908080359060200190929190803573ffffffffffffffffffffffffffffffffffffffff1690602001909291905050506125b0565b6040518082815260200191505060405180910390f35b34801561098e57600080fd5b506109b760048036038101908080359060200190929190803590602001909291905050506125d5565b6040518082815260200191505060405180910390f35b3480156109d957600080fd5b506109f8600480360381019080803590602001909291905050506125fa565b6040518082815260200191505060405180910390f35b348015610a1a57600080fd5b50610a5960048036038101908080359060200190929190803573ffffffffffffffffffffffffffffffffffffffff169060200190929190505050612612565b6040518082815260200191505060405180910390f35b348015610a7b57600080fd5b50610a9a60048036038101908080359060200190929190505050612637565b6040518082815260200191505060405180910390f35b348015610abc57600080fd5b50610ac561264f565b6040518082815260200191505060405180910390f35b348015610ae757600080fd5b50610af0612655565b604051808273ffffffffffffffffffffffffffffffffffffffff1673ffffffffffffffffffffffffffffffffffffffff16815260200191505060405180910390f35b348015610b3e57600080fd5b50610b73600480360381019080803573ffffffffffffffffffffffffffffffffffffffff16906020019092919050505061267b565b6040518082815260200191505060405180910390f35b348015610b9557600080fd5b50610bbe6004803603810190808035906020019092919080359060200190929190505050612693565b604051808273ffffffffffffffffffffffffffffffffffffffff1673ffffffffffffffffffffffffffffffffffffffff16815260200191505060405180910390f35b348015610c0c57600080fd5b50610c3560048036038101908080359060200190929190803590602001909291905050506126d5565b6040518082815260200191505060405180910390f35b348015610c5757600080fd5b50610c76600480360381019080803590602001909291905050506126fa565b604051808215151515815260200191505060405180910390f35b348015610c9c57600080fd5b50610cbb6004803603810190808035906020019092919050505061271a565b6040518082815260200191505060405180910390f35b348015610cdd57600080fd5b50610d12600480360381019080803573ffffffffffffffffffffffffffffffffffffffff169060200190929190505050612732565b6040518080602001828103825283818151815260200191508051906020019080838360005b83811015610d52578082015181840152602081019050610d37565b50505050905090810190601f168015610d7f5780820380516001836020036101000a031916815260200191505b509250505060405180910390f35b348015610d9957600080fd5b50610da26127e2565b6040518082815260200191505060405180910390f35b348015610dc457600080fd5b50610ded60048036038101908080359060200190929190803590602001909291905050506127e8565b604051808273ffffffffffffffffffffffffffffffffffffffff1673ffffffffffffffffffffffffffffffffffffffff16815260200191505060405180910390f35b348015610e3b57600080fd5b50610e646004803603810190808035906020019092919080359060200190929190505050612835565b604051808215151515815260200191505060405180910390f35b348015610e8a57600080fd5b50610ea960048036038101908080359060200190929190505050612864565b6040518082815260200191505060405180910390f35b348015610ecb57600080fd5b50610eea6004803603810190808035906020019092919050505061287c565b6040518082815260200191505060405180910390f35b348015610f0c57600080fd5b50610f15612894565b005b348015610f2357600080fd5b50610f4260048036038101908080359060200190929190505050612966565b6040518082815260200191505060405180910390f35b348015610f6457600080fd5b50610f6d61297e565b604051808215151515815260200191505060405180910390f35b348015610f9357600080fd5b50610fb260048036038101908080359060200190929190505050612991565b604051808273ffffffffffffffffffffffffffffffffffffffff1673ffffffffffffffffffffffffffffffffffffffff16815260200191505060405180910390f35b34801561100057600080fd5b5061101f600480360381019080803590602001909291905050506129c4565b6040518082815260200191505060405180910390f35b34801561104157600080fd5b50611076600480360381019080803573ffffffffffffffffffffffffffffffffffffffff1690602001909291905050506129f4565b604051808215151515815260200191505060405180910390f35b34801561109c57600080fd5b506110db600480360381019080803573ffffffffffffffffffffffffffffffffffffffff16906020019092919080359060200190929190505050612a14565b604051808273ffffffffffffffffffffffffffffffffffffffff1673ffffffffffffffffffffffffffffffffffffffff16815260200191505060405180910390f35b34801561112957600080fd5b50611132612a60565b6040518082815260200191505060405180910390f35b34801561115457600080fd5b5061115d612a66565b604051808273ffffffffffffffffffffffffffffffffffffffff1673ffffffffffffffffffffffffffffffffffffffff16815260200191505060405180910390f35b3480156111ab57600080fd5b506111ca60048036038101908080359060200190929190505050612a8f565b6040518082815260200191505060405180910390f35b3480156111ec57600080fd5b506111f5612aa7565b604051808215151515815260200191505060405180910390f35b34801561121b57600080fd5b506112446004803603810190808035906020019092919080359060200190929190505050612afe565b6040518082815260200191505060405180910390f35b34801561126657600080fd5b5061128f6004803603810190808035906020019092919080359060200190929190505050612b23565b6040518082815260200191505060405180910390f35b3480156112b157600080fd5b506112d060048036038101908080359060200190929190505050612b48565b604051808581526020018473ffffffffffffffffffffffffffffffffffffffff1673ffffffffffffffffffffffffffffffffffffffff1681526020018315151515815260200182815260200194505050505060405180910390f35b34801561133757600080fd5b50611340612bb4565b604051808273ffffffffffffffffffffffffffffffffffffffff1673ffffffffffffffffffffffffffffffffffffffff16815260200191505060405180910390f35b34801561138e57600080fd5b506113cd60048036038101908080359060200190929190803573ffffffffffffffffffffffffffffffffffffffff169060200190929190505050612bda565b604051808215151515815260200191505060405180910390f35b3480156113f357600080fd5b506114556004803603810190808035906020019082018035906020019080806020026020016040519081016040528093929190818152602001838360200280828437820191505050505050919291929080359060200190929190505050612c09565b6040518082815260200191505060405180910390f35b34801561147757600080fd5b5061149660048036038101908080359060200190929190505050612df7565b604051808273ffffffffffffffffffffffffffffffffffffffff1673ffffffffffffffffffffffffffffffffffffffff16815260200191505060405180910390f35b3480156114e457600080fd5b5061152360048036038101908080359060200190929190803573ffffffffffffffffffffffffffffffffffffffff169060200190929190505050612e2a565b6040518082815260200191505060405180910390f35b34801561154557600080fd5b5061158e6004803603810190808035906020019092919080359060200190929190803573ffffffffffffffffffffffffffffffffffffffff169060200190929190505050612e4f565b6040518082815260200191505060405180910390f35b3480156115b057600080fd5b506115d96004803603810190808035906020019092919080359060200190929190505050612e81565b6040518082815260200191505060405180910390f35b3480156115fb57600080fd5b50611630600480360381019080803573ffffffffffffffffffffffffffffffffffffffff169060200190929190505050612ea6565b604051808215151515815260200191505060405180910390f35b34801561165657600080fd5b5061167560048036038101908080359060200190929190505050612ec6565b6040518082815260200191505060405180910390f35b34801561169757600080fd5b506116b660048036038101908080359060200190929190505050612ede565b6040518082815260200191505060405180910390f35b3480156116d857600080fd5b506117016004803603810190808035906020019092919080359060200190929190505050612ef6565b6040518082815260200191505060405180910390f35b34801561172357600080fd5b5061172c612f1b565b6040518082815260200191505060405180910390f35b34801561174e57600080fd5b506117716004803603810190808035600019169060200190929190505050612f21565b604051808215151515815260200191505060405180910390f35b34801561179757600080fd5b506117c06004803603810190808035906020019092919080359060200190929190505050612f41565b6040518082815260200191505060405180910390f35b3480156117e257600080fd5b5061180160048036038101908080359060200190929190505050612f66565b604051808215151515815260200191505060405180910390f35b34801561182757600080fd5b5061185c600480360381019080803573ffffffffffffffffffffffffffffffffffffffff169060200190929190505050612f86565b604051808273ffffffffffffffffffffffffffffffffffffffff1673ffffffffffffffffffffffffffffffffffffffff16815260200191505060405180910390f35b3480156118aa57600080fd5b506118e960048036038101908080359060200190929190803573ffffffffffffffffffffffffffffffffffffffff169060200190929190505050612fb9565b6040518082815260200191505060405180910390f35b34801561190b57600080fd5b50611914612fde565b6040518082815260200191505060405180910390f35b34801561193657600080fd5b5061196b600480360381019080803573ffffffffffffffffffffffffffffffffffffffff169060200190929190505050612fe4565b005b34801561197957600080fd5b5061199860048036038101908080359060200190929190505050613003565b6040518082815260200191505060405180910390f35b3480156119ba57600080fd5b506119c361301b565b6040518082815260200191505060405180910390f35b3480156119e557600080fd5b50611a1a600480360381019080803573ffffffffffffffffffffffffffffffffffffffff169060200190929190505050613021565b6040518082815260200191505060405180910390f35b348015611a3c57600080fd5b50611a45613039565b6040518082815260200191505060405180910390f35b604060149054906101000a900460ff1681565b60346020528160005260406000206020528060005260406000206000915091509054906101000a900460ff1681565b60236020528060005260406000206000915054906101000a900473ffffffffffffffffffffffffffffffffffffffff1681565b6006602052816000526040600020602052806000526040600020600091509150505481565b600082828080601f01602080910402602001604051908101604052809392919081815260200183838082843782019150505050505060008060011515601d60003373ffffffffffffffffffffffffffffffffffffffff1673ffffffffffffffffffffffffffffffffffffffff16815260200190815260200160002060009054906101000a900460ff161515141515611e4657611b908361303f565b6fffffffffffffffffffffffffffffffff1916915060246000836000191660001916815260200190815260200160002060009054906101000a900460ff1615611d8b5760236000836000191660001916815260200190815260200160002060009054906101000a900473ffffffffffffffffffffffffffffffffffffffff169050602060008273ffffffffffffffffffffffffffffffffffffffff1673ffffffffffffffffffffffffffffffffffffffff1681526020019081526020016000203390806001815401808255809150509060018203906000526020600020016000909192909190916101000a81548173ffffffffffffffffffffffffffffffffffffffff021916908373ffffffffffffffffffffffffffffffffffffffff1602179055505080601f60003373ffffffffffffffffffffffffffffffffffffffff1673ffffffffffffffffffffffffffffffffffffffff16815260200190815260200160002060006101000a81548173ffffffffffffffffffffffffffffffffffffffff021916908373ffffffffffffffffffffffffffffffffffffffff1602179055506001602160003373ffffffffffffffffffffffffffffffffffffffff1673ffffffffffffffffffffffffffffffffffffffff16815260200190815260200160002060006101000a81548160ff0219169083151502179055505b611da1600160265461305890919063ffffffff16565b602681905550602654602560003373ffffffffffffffffffffffffffffffffffffffff1673ffffffffffffffffffffffffffffffffffffffff168152602001908152602001600020819055506001601d60003373ffffffffffffffffffffffffffffffffffffffff1673ffffffffffffffffffffffffffffffffffffffff16815260200190815260200160002060006101000a81548160ff0219169083151502179055505b60001515604060149054906101000a900460ff161515141515611ed1576040517f08c379a000000000000000000000000000000000000000000000000000000000815260040180806020018281038252600f8152602001807f47616d65206973207061757365642e000000000000000000000000000000000081525060200191505060405180910390fd5b611f0a89898080602002602001604051908101604052809392919081815260200183836020028082843782019150505050505088612c09565b34141515611f80576040517f08c379a00000000000000000000000000000000000000000000000000000000081526004018080602001828103825260118152602001807f57726f6e672063616c6c2070726963652e00000000000000000000000000000081525060200191505060405180910390fd5b6044548711151515611ffa576040517f08c379a00000000000000000000000000000000000000000000000000000000081526004018080602001828103825260198152602001807f4e6f207375636820636f6c6f7220646f65732065786973742e0000000000000081525060200191505060405180910390fd5b6104b0600a6000602854815260200190815260200160002054420311801561203857506000600a600060285481526020019081526020016000205414155b1561229e57600b6000602854815260200190815260200160002060009054906101000a900473ffffffffffffffffffffffffffffffffffffffff16600f6000602854815260200190815260200160002060006101000a81548173ffffffffffffffffffffffffffffffffffffffff021916908373ffffffffffffffffffffffffffffffffffffffff16021790555060016010600060285481526020019081526020016000208190555061210a600a6009600060285481526020019081526020016000205461307990919063ffffffff16565b600960006001602854018152602001908152602001600020819055506121626064612154602d600960006028548152602001908152602001600020546130a390919063ffffffff16565b61307990919063ffffffff16565b6009600060285481526020019081526020016000208190555060076000602854815260200190815260200160002054600760006001602854018152602001908152602001600020819055506000600760006028548152602001908152602001600020819055506028547f20f206bcab56eeef408295aaff8745adb98fed16823d758193e9449983d23fd2600f6000602854815260200190815260200160002060009054906101000a900473ffffffffffffffffffffffffffffffffffffffff16604051808273ffffffffffffffffffffffffffffffffffffffff1673ffffffffffffffffffffffffffffffffffffffff16815260200191505060405180910390a26001604060166101000a81548160ff0219169083151502179055506001604060146101000a81548160ff0219169083151502179055506123fd565b6122a7876130e1565b600093505b888890508410156122e2576122d589898681811015156122c857fe5b9050602002013588613269565b83806001019450506122ac565b6122eb87613b7c565b6122f487613c80565b6122fd87613dac565b602b60008154809291906001019190505550602e6000888152602001908152602001600020600081548092919060010191905055503360316000602b54815260200190815260200160002060006101000a81548173ffffffffffffffffffffffffffffffffffffffff021916908373ffffffffffffffffffffffffffffffffffffffff16021790555033603260008981526020019081526020016000206000602e60008b815260200190815260200160002054815260200190815260200160002060006101000a81548173ffffffffffffffffffffffffffffffffffffffff021916908373ffffffffffffffffffffffffffffffffffffffff1602179055505b505050505050505050565b60295481565b600f6020528060005260406000206000915054906101000a900473ffffffffffffffffffffffffffffffffffffffff1681565b60216020528060005260406000206000915054906101000a900460ff1681565b600e602052816000526040600020602052806000526040600020600091509150505481565b60445481565b601d6020528060005260406000206000915054906101000a900460ff1681565b601b6020528160005260406000206020528060005260406000206000915091509054906101000a900460ff1681565b604060169054906101000a900460ff1681565b60416020528060005260406000206000915054906101000a900460ff1681565b60176020528060005260406000206000915090505481565b60396020528060005260406000206000915090505481565b601a602052816000526040600020602052806000526040600020600091509150505481565b60306020528160005260406000208181548110151561257e57fe5b906000526020600020016000915091509054906101000a900473ffffffffffffffffffffffffffffffffffffffff1681565b6036602052816000526040600020602052806000526040600020600091509150505481565b6014602052816000526040600020602052806000526040600020600091509150505481565b60186020528060005260406000206000915090505481565b6035602052816000526040600020602052806000526040600020600091509150505481565b60106020528060005260406000206000915090505481565b602b5481565b604060009054906101000a900473ffffffffffffffffffffffffffffffffffffffff1681565b60256020528060005260406000206000915090505481565b60326020528160005260406000206020528060005260406000206000915091509054906101000a900473ffffffffffffffffffffffffffffffffffffffff1681565b6005602052816000526040600020602052806000526040600020600091509150505481565b60386020528060005260406000206000915054906101000a900460ff1681565b60096020528060005260406000206000915090505481565b60226020528060005260406000206000915090508054600181600116156101000203166002900480601f0160208091040260200160405190810160405280929190818152602001828054600181600116156101000203166002900480156127da5780601f106127af576101008083540402835291602001916127da565b820191906000526020600020905b8154815290600101906020018083116127bd57829003601f168201915b505050505081565b603d5481565b602f6020528160005260406000208181548110151561280357fe5b906000526020600020016000915091509054906101000a900473ffffffffffffffffffffffffffffffffffffffff1681565b60166020528160005260406000206020528060005260406000206000915091509054906101000a900460ff1681565b600c6020528060005260406000206000915090505481565b60196020528060005260406000206000915090505481565b61289c612aa7565b15156128a757600080fd5b600073ffffffffffffffffffffffffffffffffffffffff166000809054906101000a900473ffffffffffffffffffffffffffffffffffffffff1673ffffffffffffffffffffffffffffffffffffffff167f8be0079c531659141344cd1fd0a4f28419497f9722a3daafe3b4186f6b6457e060405160405180910390a360008060006101000a81548173ffffffffffffffffffffffffffffffffffffffff021916908373ffffffffffffffffffffffffffffffffffffffff160217905550565b600a6020528060005260406000206000915090505481565b604060159054906101000a900460ff1681565b600b6020528060005260406000206000915054906101000a900473ffffffffffffffffffffffffffffffffffffffff1681565b60006004600060285481526020019081526020016000206000838152602001908152602001600020549050919050565b601e6020528060005260406000206000915054906101000a900460ff1681565b6020805281600052604060002081815481101515612a2e57fe5b906000526020600020016000915091509054906101000a900473ffffffffffffffffffffffffffffffffffffffff1681565b60285481565b60008060009054906101000a900473ffffffffffffffffffffffffffffffffffffffff16905090565b602e6020528060005260406000206000915090505481565b60008060009054906101000a900473ffffffffffffffffffffffffffffffffffffffff1673ffffffffffffffffffffffffffffffffffffffff163373ffffffffffffffffffffffffffffffffffffffff1614905090565b6011602052816000526040600020602052806000526040600020600091509150505481565b6008602052816000526040600020602052806000526040600020600091509150505481565b603e81815481101515612b5757fe5b90600052602060002090600302016000915090508060000154908060010160009054906101000a900473ffffffffffffffffffffffffffffffffffffffff16908060010160149054906101000a900460ff16908060020154905084565b603f60009054906101000a900473ffffffffffffffffffffffffffffffffffffffff1681565b60336020528160005260406000206020528060005260406000206000915091509054906101000a900460ff1681565b6000806000806000806000601a600089815260200190815260200160002060003373ffffffffffffffffffffffffffffffffffffffff1673ffffffffffffffffffffffffffffffffffffffff168152602001908152602001600020549550601b600089815260200190815260200160002060003373ffffffffffffffffffffffffffffffffffffffff1673ffffffffffffffffffffffffffffffffffffffff16815260200190815260200160002060009054906101000a900460ff169450601c600089815260200190815260200160002060003373ffffffffffffffffffffffffffffffffffffffff1673ffffffffffffffffffffffffffffffffffffffff168152602001908152602001600020549350600092505b8851831015612deb57612d646064612d5686606403601960008d8152602001908152602001600020546130a390919063ffffffff16565b61307990919063ffffffff16565b9150600115158515151415612d7b57819050612d92565b601960008981526020019081526020016000205490505b80870196508086019550670de0b6b3a764000086101515612dde5760019450670de0b6b3a764000086811515612dc457fe5b049350678ac7230489e8000086101515612ddd57600a93505b5b8280600101935050612d1f565b50505050505092915050565b60316020528060005260406000206000915054906101000a900473ffffffffffffffffffffffffffffffffffffffff1681565b602c602052816000526040600020602052806000526040600020600091509150505481565b602d60205282600052604060002060205281600052604060002060205280600052604060002060009250925050505481565b6004602052816000526040600020602052806000526040600020600091509150505481565b60456020528060005260406000206000915054906101000a900460ff1681565b60126020528060005260406000206000915090505481565b60076020528060005260406000206000915090505481565b6015602052816000526040600020602052806000526040600020600091509150505481565b60265481565b60246020528060005260406000206000915054906101000a900460ff1681565b6013602052816000526040600020602052806000526040600020600091509150505481565b60376020528060005260406000206000915054906101000a900460ff1681565b601f6020528060005260406000206000915054906101000a900473ffffffffffffffffffffffffffffffffffffffff1681565b601c602052816000526040600020602052806000526040600020600091509150505481565b60275481565b612fec612aa7565b1515612ff757600080fd5b61300081613f1f565b50565b600d6020528060005260406000206000915090505481565b603c5481565b603a6020528060005260406000206000915090505481565b602a5481565b6000806060839050602081015191508192505050919050565b600080828401905083811015151561306f57600080fd5b8091505092915050565b60008060008311151561308b57600080fd5b828481151561309657fe5b0490508091505092915050565b60008060008414156130b857600091506130da565b82840290508284828115156130c957fe5b041415156130d657600080fd5b8091505b5092915050565b61314061310b60646130fd6028346130a390919063ffffffff16565b61307990919063ffffffff16565b60086000602854815260200190815260200160002060008481526020019081526020016000205461305890919063ffffffff16565b6008600060285481526020019081526020016000206000838152602001908152602001600020819055506131b861319460646131866028346130a390919063ffffffff16565b61307990919063ffffffff16565b6007600060285481526020019081526020016000205461305890919063ffffffff16565b6007600060285481526020019081526020016000208190555061321f6131fb60646131ed6028346130a390919063ffffffff16565b61307990919063ffffffff16565b6009600060285481526020019081526020016000205461305890919063ffffffff16565b6009600060285481526020019081526020016000208190555061326061324f60053461307990919063ffffffff16565b603c5461305890919063ffffffff16565b603c8190555050565b600061327482614019565b61271083111580156132865750600083115b15156132fa576040517f08c379a00000000000000000000000000000000000000000000000000000000081526004018080602001828103825260198152602001807f4e6f207375636820706978656c20646f65732065786973742e0000000000000081525060200191505060405180910390fd5b60008214151515613399576040517f08c379a00000000000000000000000000000000000000000000000000000000081526004018080602001828103825260228152602001807f43616e6e6f74207061696e7420746f207472616e73706172656e7420636f6c6f81526020017f722e00000000000000000000000000000000000000000000000000000000000081525060400191505060405180910390fd5b816004600060285481526020019081526020016000206000858152602001908152602001600020541415151561345d576040517f08c379a00000000000000000000000000000000000000000000000000000000081526004018080602001828103825260248152602001807f5468697320706978656c20697320616c7265616479206f66207468697320636f81526020017f6c6f722e0000000000000000000000000000000000000000000000000000000081525060400191505060405180910390fd5b6004600060285481526020019081526020016000206000848152602001908152602001600020549050816004600060285481526020019081526020016000206000858152602001908152602001600020819055508060056000602854815260200190815260200160002060008581526020019081526020016000208190555042600a600060285481526020019081526020016000208190555033600b6000602854815260200190815260200160002060006101000a81548173ffffffffffffffffffffffffffffffffffffffff021916908373ffffffffffffffffffffffffffffffffffffffff160217905550600060066000602854815260200190815260200160002060008381526020019081526020016000205411156135de576135b360016006600060285481526020019081526020016000206000848152602001908152602001600020546142b790919063ffffffff16565b6006600060285481526020019081526020016000206000838152602001908152602001600020819055505b613618600160066000602854815260200190815260200160002060008581526020019081526020016000205461305890919063ffffffff16565b60066000602854815260200190815260200160002060008481526020019081526020016000208190555061367c6001600e6000602a54815260200190815260200160002060008581526020019081526020016000205461305890919063ffffffff16565b600e6000602a5481526020019081526020016000206000848152602001908152602001600020819055506136cf60016012600060285481526020019081526020016000205461305890919063ffffffff16565b6012600060285481526020019081526020016000208190555042601160006028548152602001908152602001600020600085815260200190815260200160002081905550602c6000602954815260200190815260200160002060003373ffffffffffffffffffffffffffffffffffffffff1673ffffffffffffffffffffffffffffffffffffffff16815260200190815260200160002060008154809291906001019190505550602d6000602a548152602001908152602001600020600083815260200190815260200160002060003373ffffffffffffffffffffffffffffffffffffffff1673ffffffffffffffffffffffffffffffffffffffff16815260200190815260200160002060008154809291906001019190505550613833600160136000858152602001908152602001600020600060176000878152602001908152602001600020548152602001908152602001600020546142b790919063ffffffff16565b601360008481526020019081526020016000206000601760008681526020019081526020016000205481526020019081526020016000208190555082600c60006028548152602001908152602001600020819055506028543373ffffffffffffffffffffffffffffffffffffffff16847faf2d03aa2fdc9b785775529881274caad1884e0279e02729f03eca55d57eea728542604051808381526020018281526020019250505060405180910390a4602854603960003373ffffffffffffffffffffffffffffffffffffffff1673ffffffffffffffffffffffffffffffffffffffff168152602001908152602001600020819055506127106006600060285481526020019081526020016000206000848152602001908152602001600020541415613b775781600d6000602854815260200190815260200160002081905550600b6000602854815260200190815260200160002060009054906101000a900473ffffffffffffffffffffffffffffffffffffffff16600f6000602854815260200190815260200160002060006101000a81548173ffffffffffffffffffffffffffffffffffffffff021916908373ffffffffffffffffffffffffffffffffffffffff160217905550600260106000602854815260200190815260200160002081905550613a3f60026007600060285481526020019081526020016000205461307990919063ffffffff16565b6007600060285481526020019081526020016000208190555060096000602854815260200190815260200160002054600960006001602854018152602001908152602001600020819055506000600960006028548152602001908152602001600020819055506028547f14988f685a0376db6242cb37ed3033028bbc9e8fe0cc4b434a098e6c0150673f600f6000602854815260200190815260200160002060009054906101000a900473ffffffffffffffffffffffffffffffffffffffff16604051808273ffffffffffffffffffffffffffffffffffffffff1673ffffffffffffffffffffffffffffffffffffffff16815260200191505060405180910390a26001604060146101000a81548160ff0219169083151502179055506001604060156101000a81548160ff0219169083151502179055505b505050565b613c18613ba86064613b9a6019603c546130a390919063ffffffff16565b61307990919063ffffffff16565b603a6000604060009054906101000a900473ffffffffffffffffffffffffffffffffffffffff1673ffffffffffffffffffffffffffffffffffffffff1673ffffffffffffffffffffffffffffffffffffffff1681526020019081526020016000205461305890919063ffffffff16565b603a6000604060009054906101000a900473ffffffffffffffffffffffffffffffffffffffff1673ffffffffffffffffffffffffffffffffffffffff1673ffffffffffffffffffffffffffffffffffffffff1681526020019081526020016000208190555050565b34601a600083815260200190815260200160002060003373ffffffffffffffffffffffffffffffffffffffff1673ffffffffffffffffffffffffffffffffffffffff16815260200190815260200160002060008282540192505081905550670de0b6b3a7640000601a600083815260200190815260200160002060003373ffffffffffffffffffffffffffffffffffffffff1673ffffffffffffffffffffffffffffffffffffffff16815260200190815260200160002054101515613da9576001601b600083815260200190815260200160002060003373ffffffffffffffffffffffffffffffffffffffff1673ffffffffffffffffffffffffffffffffffffffff16815260200190815260200160002060006101000a81548160ff0219169083151502179055505b50565b670de0b6b3a7640000601a600083815260200190815260200160002060003373ffffffffffffffffffffffffffffffffffffffff1673ffffffffffffffffffffffffffffffffffffffff16815260200190815260200160002054811515613e0f57fe5b04601c600083815260200190815260200160002060003373ffffffffffffffffffffffffffffffffffffffff1673ffffffffffffffffffffffffffffffffffffffff16815260200190815260200160002081905550678ac7230489e80000601a600083815260200190815260200160002060003373ffffffffffffffffffffffffffffffffffffffff1673ffffffffffffffffffffffffffffffffffffffff16815260200190815260200160002054101515613f1c57600a601c600083815260200190815260200160002060003373ffffffffffffffffffffffffffffffffffffffff1673ffffffffffffffffffffffffffffffffffffffff168152602001908152602001600020819055505b50565b600073ffffffffffffffffffffffffffffffffffffffff168173ffffffffffffffffffffffffffffffffffffffff1614151515613f5b57600080fd5b8073ffffffffffffffffffffffffffffffffffffffff166000809054906101000a900473ffffffffffffffffffffffffffffffffffffffff1673ffffffffffffffffffffffffffffffffffffffff167f8be0079c531659141344cd1fd0a4f28419497f9722a3daafe3b4186f6b6457e060405160405180910390a3806000806101000a81548173ffffffffffffffffffffffffffffffffffffffff021916908373ffffffffffffffffffffffffffffffffffffffff16021790555050565b600080605a601560008581526020019081526020016000206000600160176000888152602001908152602001600020540381526020019081526020016000205442031015156142b257601360008481526020019081526020016000206000601760008681526020019081526020016000205481526020019081526020016000205491506140c36001601760008681526020019081526020016000205461305890919063ffffffff16565b90506000151560166000858152602001908152602001600020600083815260200190815260200160002060009054906101000a900460ff16151514156141a757614118826027546142b790919063ffffffff16565b601360008581526020019081526020016000206000838152602001908152602001600020819055504260146000858152602001908152602001600020600083815260200190815260200160002081905550600160166000858152602001908152602001600020600083815260200190815260200160002060006101000a81548160ff0219169083151502179055505b60016013600085815260200190815260200160002060006017600087815260200190815260200160002054815260200190815260200160002054141561422d576141f0836142d8565b4260156000858152602001908152602001600020600060176000878152602001908152602001600020548152602001908152602001600020819055505b6000601360008581526020019081526020016000206000601760008781526020019081526020016000205481526020019081526020016000205414156142b157601960008481526020019081526020016000205460186000858152602001908152602001600020819055508060176000858152602001908152602001600020819055505b5b505050565b6000808383111515156142c957600080fd5b82840390508091505092915050565b6143126064614304606960186000868152602001908152602001600020546130a390919063ffffffff16565b61307990919063ffffffff16565b601960008381526020019081526020016000208190555060186000828152602001908152602001600020547f3bb22f778670a5901bff4d41c425858dac1ea6aeb048d40f959a6bc43f98506160405160405180910390a2505600a165627a7a72305820d3bab65af99de522533b339e085e6214765f16c2e878750b62ac1e0dc091de820029",
  "source": "pragma solidity ^0.4.24;\nimport \"./PaintsPool.sol\";\nimport \"./PaintDiscount.sol\";\nimport \"./Modifiers.sol\";\nimport \"./Utils.sol\";\n\ncontract Game is PaintDiscount, PaintsPool, Modifiers {\n    using SafeMath for uint;\n    \n    //     \n    function getPixelColor(uint _pixel) external view returns (uint) {\n        return pixelToColorForRound[currentRound][_pixel];\n    }\n    \n    //      \n    function estimateCallPrice(uint[] _pixels, uint _color) public view returns (uint totalCallPrice) {\n\n        uint moneySpent = moneySpentByUserForColor[_color][msg.sender];\n        bool hasDiscount = hasPaintDiscountForColor[_color][msg.sender];\n        uint discount = usersPaintDiscountForColor[_color][msg.sender];\n        \n        for (uint i = 0; i < _pixels.length; i++) {\n            \n            uint discountCallPrice = (nextCallPriceForColor[_color].mul(100 - discount)).div(100);\n            \n            if (hasDiscount == true) \n                uint price = discountCallPrice;\n            else\n                price = nextCallPriceForColor[_color]; \n\n            totalCallPrice += price;\n            moneySpent += price;\n\n            if (moneySpent >= 1 ether) {\n                \n                hasDiscount = true;\n                discount = moneySpent / 1 ether;\n                \n                if (moneySpent >= 10 ether)\n                    discount = 10;\n            }\n            \n        }   \n    }\n\n    function paint(uint[] _pixels, uint _color, string _refLink) external payable isRegistered(_refLink) isLiveGame() {\n\n        require(msg.value == estimateCallPrice(_pixels, _color), \"Wrong call price.\");\n        require(_color <= totalColorsNumber, \"No such color does exist.\");\n        \n        //    20        \n        if (now - lastPaintTimeForRound[currentRound] > 20 minutes && lastPaintTimeForRound[currentRound] != 0) {\n\n            //    \n            //   -       \n            winnerOfRound[currentRound] = lastPainterForRound[currentRound];\n\n            //    =   (1)\n            winnerBankForRound[currentRound] = 1; \n            //10%      \n            timeBankForRound[currentRound + 1] = timeBankForRound[currentRound].div(10); \n            //45%        \n            timeBankForRound[currentRound] = timeBankForRound[currentRound].mul(45).div(100); \n            //     \n            colorBankForRound[currentRound + 1] = colorBankForRound[currentRound]; \n            //     \n            colorBankForRound[currentRound] = 0; \n            // -     (, )\n            emit TimeBankPlayed(winnerOfRound[currentRound], currentRound);\n\n            isTBPDistributable = true;\n            isGamePaused = true;\n        }\n        \n        else {\n            //   \n            _setBanks(_color);\n\n            // \n            for (uint i = 0; i < _pixels.length; i++) {\n                _paint(_pixels[i], _color);\n            }\n            \n            //  ( ) \n            _distributeDividends(_color);\n        \n            //         \n            _setMoneySpentByUserForColor(_color); \n            \n            //         \n            _setUsersPaintDiscountForColor(_color);\n\n            paintsCounter++; //   \n            paintsCounterForColor[_color] ++; //   \n            counterToPainter[paintsCounter] = msg.sender; //  => \n            counterToPainterForColor[_color][paintsCounterForColor[_color]] = msg.sender; //    => \n        }\n\n    }   \n\n    //   \n    function _paint(uint _pixel, uint _color) internal {\n\n        //          paint\n        _fillPaintsPool(_color);\n\n        require(_pixel <= 10000 && _pixel > 0, \"No such pixel does exist.\");\n        require(_color != 0, \"Cannot paint to transparent color.\");\n        require(pixelToColorForRound[currentRound][_pixel] != _color, \"This pixel is already of this color.\");\n \n        //    \n        uint oldColor = pixelToColorForRound[currentRound][_pixel];\n    \n        //   \n        pixelToColorForRound[currentRound][_pixel] = _color; \n            \n        //c    \n        pixelToOldColorForRound[currentRound][_pixel] = oldColor; \n                \n        //         \n        lastPaintTimeForRound[currentRound] = now; \n    \n        //          \n        lastPainterForRound[currentRound] = msg.sender;\n                \n        //    ,   \n        if (colorToPaintedPixelsAmountForRound[currentRound][oldColor] > 0) \n            colorToPaintedPixelsAmountForRound[currentRound][oldColor] = colorToPaintedPixelsAmountForRound[currentRound][oldColor].sub(1); \n    \n        //   ,   \n        colorToPaintedPixelsAmountForRound[currentRound][_color] = colorToPaintedPixelsAmountForRound[currentRound][_color].add(1); \n\n        //          \n        colorToTotalPaintsForCBIteration[cbIteration][_color] = colorToTotalPaintsForCBIteration[cbIteration][_color].add(1);\n\n        //         \n        totalPaintsForRound[currentRound] = totalPaintsForRound[currentRound].add(1); \n\n        pixelToPaintTimeForRound[currentRound][_pixel] = now;\n\n        timeBankShare[tbIteration][msg.sender]++;\n        colorBankShare[cbIteration][_color][msg.sender]++;\n                \n        //     1  \n        paintGenToAmountForColor[_color][currentPaintGenForColor[_color]] = paintGenToAmountForColor[_color][currentPaintGenForColor[_color]].sub(1);\n        \n        //      \n        lastPaintedPixelForRound[currentRound] = _pixel;\n        \n        // -   (, ,  )\n        emit Paint(_pixel, _color, msg.sender, currentRound, now);    \n\n        //         \n        lastPlayedRound[msg.sender] = currentRound;\n            \n        //            \n        if (colorToPaintedPixelsAmountForRound[currentRound][_color] == 10000) {\n\n            //    \n            winnerColorForRound[currentRound] = _color;\n\n            //    \n            winnerOfRound[currentRound] = lastPainterForRound[currentRound];        \n            \n            winnerBankForRound[currentRound] = 2;//    =   (2)\n\n            //50%       \n            colorBankForRound[currentRound] = colorBankForRound[currentRound].div(2);\n\n            timeBankForRound[currentRound + 1] = timeBankForRound[currentRound];//     \n            timeBankForRound[currentRound] = 0;//           \n            emit ColorBankPlayed(winnerOfRound[currentRound], currentRound);  \n            \n            isGamePaused = true;\n            isCBPDistributable = true;\n            //distributeCBP();\n        }\n    }\n\n    //  \n    function _setBanks(uint _color) private {\n        \n        colorBankToColorForRound[currentRound][_color] = colorBankToColorForRound[currentRound][_color].add(msg.value.mul(40).div(100));\n\n        //40%     \n        colorBankForRound[currentRound] = colorBankForRound[currentRound].add(msg.value.mul(40).div(100));\n\n        //40%     \n        timeBankForRound[currentRound] = timeBankForRound[currentRound].add(msg.value.mul(40).div(100));\n\n        //20%      \n        dividendsBank = dividendsBank.add(msg.value.div(5)); \n    }\n\n   //   ( ) -         \n    function _distributeDividends(uint _color) internal {\n\n        //25%    (   )\n        withdrawalBalances[founders] = withdrawalBalances[founders].add(dividendsBank.mul(25).div(100)); \n    \n        //25%    \n        // withdrawalBalances[colorInstance.ownerOf(_color)] += dividendsBank.mul(25).div(100);\n    \n        //25%    \n        //withdrawalBalances[pixelFactoryInstance.ownerOf(_pixel)] += dividendsBank.mul(25).div(100);\n    \n        //25%   ,   \n        // withdrawalBalances[referrer] += dividendsBank.mul(25).div(100);\n    }\n\n    modifier isRegistered(string _refLink) {\n        //    \n        if (isRegisteredUser[msg.sender] != true) {\n            bytes32 refLink = Utils.toBytes32(_refLink);\n            //      \n            if (refLinkExists[refLink]) { \n                address referrer = refLinkToUser[refLink];\n                referrerToReferrals[referrer].push(msg.sender);\n                referralToReferrer[msg.sender] = referrer;\n                hasReferrer[msg.sender] = true;\n            }\n            uniqueUsersCount = uniqueUsersCount.add(1);\n            newUserToCounter[msg.sender] = uniqueUsersCount;\n            isRegisteredUser[msg.sender] = true;\n        }\n        _;\n    }\n    \n}",
  "sourcePath": "/Users/Amir/last-pixel-contracts/contracts/Game.sol",
  "compiler": {
    "name": "solc",
    "version": "0.4.24+commit.e67f0147.Emscripten.clang"
  },
  "schemaVersion": "2.0.1",
  "updatedAt": "2019-01-16T18:20:39.849Z"
}