{
  "contractName": "Game",
  "abi": [
    {
      "constant": true,
      "inputs": [],
      "name": "isGamePaused",
      "outputs": [
        {
          "name": "",
          "type": "bool"
        }
      ],
      "payable": false,
      "stateMutability": "view",
      "type": "function"
    },
    {
      "constant": true,
      "inputs": [
        {
          "name": "",
          "type": "uint256"
        },
        {
          "name": "",
          "type": "address"
        }
      ],
      "name": "isInTBT",
      "outputs": [
        {
          "name": "",
          "type": "bool"
        }
      ],
      "payable": false,
      "stateMutability": "view",
      "type": "function"
    },
    {
      "constant": true,
      "inputs": [
        {
          "name": "",
          "type": "bytes32"
        }
      ],
      "name": "refLinkToUser",
      "outputs": [
        {
          "name": "",
          "type": "address"
        }
      ],
      "payable": false,
      "stateMutability": "view",
      "type": "function"
    },
    {
      "constant": true,
      "inputs": [
        {
          "name": "",
          "type": "uint256"
        },
        {
          "name": "",
          "type": "uint256"
        }
      ],
      "name": "colorToTotalPaintsForRound",
      "outputs": [
        {
          "name": "",
          "type": "uint256"
        }
      ],
      "payable": false,
      "stateMutability": "view",
      "type": "function"
    },
    {
      "constant": true,
      "inputs": [
        {
          "name": "",
          "type": "uint256"
        }
      ],
      "name": "ownerOfColor",
      "outputs": [
        {
          "name": "",
          "type": "address"
        }
      ],
      "payable": false,
      "stateMutability": "view",
      "type": "function"
    },
    {
      "constant": true,
      "inputs": [
        {
          "name": "",
          "type": "uint256"
        },
        {
          "name": "",
          "type": "uint256"
        }
      ],
      "name": "colorToPaintedPixelsAmountForRound",
      "outputs": [
        {
          "name": "",
          "type": "uint256"
        }
      ],
      "payable": false,
      "stateMutability": "view",
      "type": "function"
    },
    {
      "constant": true,
      "inputs": [],
      "name": "tbIteration",
      "outputs": [
        {
          "name": "",
          "type": "uint256"
        }
      ],
      "payable": false,
      "stateMutability": "view",
      "type": "function"
    },
    {
      "constant": true,
      "inputs": [
        {
          "name": "",
          "type": "uint256"
        }
      ],
      "name": "winnerOfRound",
      "outputs": [
        {
          "name": "",
          "type": "address"
        }
      ],
      "payable": false,
      "stateMutability": "view",
      "type": "function"
    },
    {
      "constant": false,
      "inputs": [
        {
          "name": "_admin",
          "type": "address"
        }
      ],
      "name": "removeAdmin",
      "outputs": [],
      "payable": false,
      "stateMutability": "nonpayable",
      "type": "function"
    },
    {
      "constant": true,
      "inputs": [
        {
          "name": "",
          "type": "address"
        }
      ],
      "name": "hasReferrer",
      "outputs": [
        {
          "name": "",
          "type": "bool"
        }
      ],
      "payable": false,
      "stateMutability": "view",
      "type": "function"
    },
    {
      "constant": true,
      "inputs": [
        {
          "name": "",
          "type": "address"
        }
      ],
      "name": "isRegisteredUser",
      "outputs": [
        {
          "name": "",
          "type": "bool"
        }
      ],
      "payable": false,
      "stateMutability": "view",
      "type": "function"
    },
    {
      "constant": true,
      "inputs": [
        {
          "name": "",
          "type": "uint256"
        },
        {
          "name": "",
          "type": "address"
        }
      ],
      "name": "hasPaintDiscountForColor",
      "outputs": [
        {
          "name": "",
          "type": "bool"
        }
      ],
      "payable": false,
      "stateMutability": "view",
      "type": "function"
    },
    {
      "constant": true,
      "inputs": [
        {
          "name": "",
          "type": "address"
        }
      ],
      "name": "isAdmin",
      "outputs": [
        {
          "name": "",
          "type": "bool"
        }
      ],
      "payable": false,
      "stateMutability": "view",
      "type": "function"
    },
    {
      "constant": true,
      "inputs": [
        {
          "name": "",
          "type": "uint256"
        }
      ],
      "name": "currentPaintGenForColor",
      "outputs": [
        {
          "name": "",
          "type": "uint256"
        }
      ],
      "payable": false,
      "stateMutability": "view",
      "type": "function"
    },
    {
      "constant": true,
      "inputs": [
        {
          "name": "",
          "type": "address"
        }
      ],
      "name": "lastPlayedRound",
      "outputs": [
        {
          "name": "",
          "type": "uint256"
        }
      ],
      "payable": false,
      "stateMutability": "view",
      "type": "function"
    },
    {
      "constant": true,
      "inputs": [
        {
          "name": "",
          "type": "uint256"
        },
        {
          "name": "",
          "type": "address"
        }
      ],
      "name": "moneySpentByUserForColor",
      "outputs": [
        {
          "name": "",
          "type": "uint256"
        }
      ],
      "payable": false,
      "stateMutability": "view",
      "type": "function"
    },
    {
      "constant": true,
      "inputs": [
        {
          "name": "",
          "type": "uint256"
        },
        {
          "name": "",
          "type": "uint256"
        }
      ],
      "name": "tbTeam",
      "outputs": [
        {
          "name": "",
          "type": "address"
        }
      ],
      "payable": false,
      "stateMutability": "view",
      "type": "function"
    },
    {
      "constant": true,
      "inputs": [
        {
          "name": "",
          "type": "uint256"
        },
        {
          "name": "",
          "type": "address"
        }
      ],
      "name": "painterToTBP",
      "outputs": [
        {
          "name": "",
          "type": "uint256"
        }
      ],
      "payable": false,
      "stateMutability": "view",
      "type": "function"
    },
    {
      "constant": true,
      "inputs": [
        {
          "name": "",
          "type": "uint256"
        },
        {
          "name": "",
          "type": "uint256"
        }
      ],
      "name": "paintGenToStartTimeForColor",
      "outputs": [
        {
          "name": "",
          "type": "uint256"
        }
      ],
      "payable": false,
      "stateMutability": "view",
      "type": "function"
    },
    {
      "constant": true,
      "inputs": [
        {
          "name": "",
          "type": "uint256"
        }
      ],
      "name": "callPriceForColor",
      "outputs": [
        {
          "name": "",
          "type": "uint256"
        }
      ],
      "payable": false,
      "stateMutability": "view",
      "type": "function"
    },
    {
      "constant": true,
      "inputs": [
        {
          "name": "",
          "type": "uint256"
        },
        {
          "name": "",
          "type": "address"
        }
      ],
      "name": "painterToCBP",
      "outputs": [
        {
          "name": "",
          "type": "uint256"
        }
      ],
      "payable": false,
      "stateMutability": "view",
      "type": "function"
    },
    {
      "constant": false,
      "inputs": [],
      "name": "resumeGame",
      "outputs": [],
      "payable": false,
      "stateMutability": "nonpayable",
      "type": "function"
    },
    {
      "constant": true,
      "inputs": [
        {
          "name": "",
          "type": "uint256"
        }
      ],
      "name": "winnerBankForRound",
      "outputs": [
        {
          "name": "",
          "type": "uint256"
        }
      ],
      "payable": false,
      "stateMutability": "view",
      "type": "function"
    },
    {
      "constant": true,
      "inputs": [],
      "name": "paintsCounter",
      "outputs": [
        {
          "name": "",
          "type": "uint256"
        }
      ],
      "payable": false,
      "stateMutability": "view",
      "type": "function"
    },
    {
      "constant": true,
      "inputs": [],
      "name": "founders",
      "outputs": [
        {
          "name": "",
          "type": "address"
        }
      ],
      "payable": false,
      "stateMutability": "view",
      "type": "function"
    },
    {
      "constant": true,
      "inputs": [
        {
          "name": "",
          "type": "address"
        }
      ],
      "name": "newUserToCounter",
      "outputs": [
        {
          "name": "",
          "type": "uint256"
        }
      ],
      "payable": false,
      "stateMutability": "view",
      "type": "function"
    },
    {
      "constant": true,
      "inputs": [
        {
          "name": "",
          "type": "uint256"
        },
        {
          "name": "",
          "type": "uint256"
        }
      ],
      "name": "counterToPainterForColor",
      "outputs": [
        {
          "name": "",
          "type": "address"
        }
      ],
      "payable": false,
      "stateMutability": "view",
      "type": "function"
    },
    {
      "constant": false,
      "inputs": [
        {
          "name": "_claimId",
          "type": "uint256"
        }
      ],
      "name": "approveClaim",
      "outputs": [],
      "payable": false,
      "stateMutability": "nonpayable",
      "type": "function"
    },
    {
      "constant": false,
      "inputs": [],
      "name": "pauseGame",
      "outputs": [],
      "payable": false,
      "stateMutability": "nonpayable",
      "type": "function"
    },
    {
      "constant": true,
      "inputs": [
        {
          "name": "",
          "type": "uint256"
        },
        {
          "name": "",
          "type": "uint256"
        }
      ],
      "name": "pixelToOldColorForRound",
      "outputs": [
        {
          "name": "",
          "type": "uint256"
        }
      ],
      "payable": false,
      "stateMutability": "view",
      "type": "function"
    },
    {
      "constant": true,
      "inputs": [
        {
          "name": "",
          "type": "uint256"
        }
      ],
      "name": "isTBPTransfered",
      "outputs": [
        {
          "name": "",
          "type": "bool"
        }
      ],
      "payable": false,
      "stateMutability": "view",
      "type": "function"
    },
    {
      "constant": true,
      "inputs": [
        {
          "name": "",
          "type": "uint256"
        }
      ],
      "name": "timeBankForRound",
      "outputs": [
        {
          "name": "",
          "type": "uint256"
        }
      ],
      "payable": false,
      "stateMutability": "view",
      "type": "function"
    },
    {
      "constant": true,
      "inputs": [
        {
          "name": "",
          "type": "address"
        }
      ],
      "name": "userToRefLink",
      "outputs": [
        {
          "name": "",
          "type": "string"
        }
      ],
      "payable": false,
      "stateMutability": "view",
      "type": "function"
    },
    {
      "constant": true,
      "inputs": [],
      "name": "claimId",
      "outputs": [
        {
          "name": "",
          "type": "uint256"
        }
      ],
      "payable": false,
      "stateMutability": "view",
      "type": "function"
    },
    {
      "constant": true,
      "inputs": [
        {
          "name": "",
          "type": "uint256"
        },
        {
          "name": "",
          "type": "uint256"
        }
      ],
      "name": "cbTeam",
      "outputs": [
        {
          "name": "",
          "type": "address"
        }
      ],
      "payable": false,
      "stateMutability": "view",
      "type": "function"
    },
    {
      "constant": true,
      "inputs": [
        {
          "name": "",
          "type": "uint256"
        },
        {
          "name": "",
          "type": "uint256"
        }
      ],
      "name": "paintGenStartedForColor",
      "outputs": [
        {
          "name": "",
          "type": "bool"
        }
      ],
      "payable": false,
      "stateMutability": "view",
      "type": "function"
    },
    {
      "constant": true,
      "inputs": [
        {
          "name": "",
          "type": "uint256"
        }
      ],
      "name": "lastPaintedPixelForRound",
      "outputs": [
        {
          "name": "",
          "type": "uint256"
        }
      ],
      "payable": false,
      "stateMutability": "view",
      "type": "function"
    },
    {
      "constant": false,
      "inputs": [],
      "name": "claimDividends",
      "outputs": [],
      "payable": false,
      "stateMutability": "nonpayable",
      "type": "function"
    },
    {
      "constant": true,
      "inputs": [
        {
          "name": "",
          "type": "uint256"
        }
      ],
      "name": "nextCallPriceForColor",
      "outputs": [
        {
          "name": "",
          "type": "uint256"
        }
      ],
      "payable": false,
      "stateMutability": "view",
      "type": "function"
    },
    {
      "constant": false,
      "inputs": [
        {
          "name": "_new",
          "type": "address"
        }
      ],
      "name": "addAdmin",
      "outputs": [],
      "payable": false,
      "stateMutability": "nonpayable",
      "type": "function"
    },
    {
      "constant": false,
      "inputs": [],
      "name": "renounceOwnership",
      "outputs": [],
      "payable": false,
      "stateMutability": "nonpayable",
      "type": "function"
    },
    {
      "constant": true,
      "inputs": [
        {
          "name": "",
          "type": "uint256"
        }
      ],
      "name": "lastPaintTimeForRound",
      "outputs": [
        {
          "name": "",
          "type": "uint256"
        }
      ],
      "payable": false,
      "stateMutability": "view",
      "type": "function"
    },
    {
      "constant": true,
      "inputs": [
        {
          "name": "",
          "type": "uint256"
        }
      ],
      "name": "lastPainterForRound",
      "outputs": [
        {
          "name": "",
          "type": "address"
        }
      ],
      "payable": false,
      "stateMutability": "view",
      "type": "function"
    },
    {
      "constant": true,
      "inputs": [
        {
          "name": "",
          "type": "address"
        }
      ],
      "name": "hasRefLink",
      "outputs": [
        {
          "name": "",
          "type": "bool"
        }
      ],
      "payable": false,
      "stateMutability": "view",
      "type": "function"
    },
    {
      "constant": true,
      "inputs": [
        {
          "name": "",
          "type": "address"
        },
        {
          "name": "",
          "type": "uint256"
        }
      ],
      "name": "referrerToReferrals",
      "outputs": [
        {
          "name": "",
          "type": "address"
        }
      ],
      "payable": false,
      "stateMutability": "view",
      "type": "function"
    },
    {
      "constant": true,
      "inputs": [],
      "name": "currentRound",
      "outputs": [
        {
          "name": "",
          "type": "uint256"
        }
      ],
      "payable": false,
      "stateMutability": "view",
      "type": "function"
    },
    {
      "constant": false,
      "inputs": [],
      "name": "renounceAdmin",
      "outputs": [],
      "payable": false,
      "stateMutability": "nonpayable",
      "type": "function"
    },
    {
      "constant": true,
      "inputs": [],
      "name": "owner",
      "outputs": [
        {
          "name": "",
          "type": "address"
        }
      ],
      "payable": false,
      "stateMutability": "view",
      "type": "function"
    },
    {
      "constant": true,
      "inputs": [
        {
          "name": "",
          "type": "uint256"
        }
      ],
      "name": "paintsCounterForColor",
      "outputs": [
        {
          "name": "",
          "type": "uint256"
        }
      ],
      "payable": false,
      "stateMutability": "view",
      "type": "function"
    },
    {
      "constant": true,
      "inputs": [],
      "name": "isOwner",
      "outputs": [
        {
          "name": "",
          "type": "bool"
        }
      ],
      "payable": false,
      "stateMutability": "view",
      "type": "function"
    },
    {
      "constant": true,
      "inputs": [
        {
          "name": "",
          "type": "uint256"
        },
        {
          "name": "",
          "type": "uint256"
        }
      ],
      "name": "pixelToPaintTimeForRound",
      "outputs": [
        {
          "name": "",
          "type": "uint256"
        }
      ],
      "payable": false,
      "stateMutability": "view",
      "type": "function"
    },
    {
      "constant": true,
      "inputs": [
        {
          "name": "",
          "type": "uint256"
        },
        {
          "name": "",
          "type": "uint256"
        }
      ],
      "name": "colorBankToColorForRound",
      "outputs": [
        {
          "name": "",
          "type": "uint256"
        }
      ],
      "payable": false,
      "stateMutability": "view",
      "type": "function"
    },
    {
      "constant": true,
      "inputs": [
        {
          "name": "",
          "type": "uint256"
        }
      ],
      "name": "claims",
      "outputs": [
        {
          "name": "id",
          "type": "uint256"
        },
        {
          "name": "claimer",
          "type": "address"
        },
        {
          "name": "isResolved",
          "type": "bool"
        },
        {
          "name": "timestamp",
          "type": "uint256"
        }
      ],
      "payable": false,
      "stateMutability": "view",
      "type": "function"
    },
    {
      "constant": true,
      "inputs": [],
      "name": "ownerOfPixel",
      "outputs": [
        {
          "name": "",
          "type": "address"
        }
      ],
      "payable": false,
      "stateMutability": "view",
      "type": "function"
    },
    {
      "constant": true,
      "inputs": [
        {
          "name": "",
          "type": "uint256"
        },
        {
          "name": "",
          "type": "address"
        }
      ],
      "name": "isInCBT",
      "outputs": [
        {
          "name": "",
          "type": "bool"
        }
      ],
      "payable": false,
      "stateMutability": "view",
      "type": "function"
    },
    {
      "constant": true,
      "inputs": [
        {
          "name": "",
          "type": "uint256"
        }
      ],
      "name": "counterToPainter",
      "outputs": [
        {
          "name": "",
          "type": "address"
        }
      ],
      "payable": false,
      "stateMutability": "view",
      "type": "function"
    },
    {
      "constant": true,
      "inputs": [
        {
          "name": "",
          "type": "uint256"
        },
        {
          "name": "",
          "type": "address"
        }
      ],
      "name": "timeBankShare",
      "outputs": [
        {
          "name": "",
          "type": "uint256"
        }
      ],
      "payable": false,
      "stateMutability": "view",
      "type": "function"
    },
    {
      "constant": true,
      "inputs": [
        {
          "name": "",
          "type": "uint256"
        },
        {
          "name": "",
          "type": "uint256"
        },
        {
          "name": "",
          "type": "address"
        }
      ],
      "name": "colorBankShare",
      "outputs": [
        {
          "name": "",
          "type": "uint256"
        }
      ],
      "payable": false,
      "stateMutability": "view",
      "type": "function"
    },
    {
      "constant": true,
      "inputs": [
        {
          "name": "",
          "type": "uint256"
        },
        {
          "name": "",
          "type": "uint256"
        }
      ],
      "name": "pixelToColorForRound",
      "outputs": [
        {
          "name": "",
          "type": "uint256"
        }
      ],
      "payable": false,
      "stateMutability": "view",
      "type": "function"
    },
    {
      "constant": true,
      "inputs": [
        {
          "name": "",
          "type": "uint256"
        }
      ],
      "name": "totalPaintsForRound",
      "outputs": [
        {
          "name": "",
          "type": "uint256"
        }
      ],
      "payable": false,
      "stateMutability": "view",
      "type": "function"
    },
    {
      "constant": true,
      "inputs": [
        {
          "name": "",
          "type": "uint256"
        }
      ],
      "name": "colorBankForRound",
      "outputs": [
        {
          "name": "",
          "type": "uint256"
        }
      ],
      "payable": false,
      "stateMutability": "view",
      "type": "function"
    },
    {
      "constant": true,
      "inputs": [
        {
          "name": "",
          "type": "uint256"
        },
        {
          "name": "",
          "type": "uint256"
        }
      ],
      "name": "paintGenToEndTimeForColor",
      "outputs": [
        {
          "name": "",
          "type": "uint256"
        }
      ],
      "payable": false,
      "stateMutability": "view",
      "type": "function"
    },
    {
      "constant": true,
      "inputs": [],
      "name": "uniqueUsersCount",
      "outputs": [
        {
          "name": "",
          "type": "uint256"
        }
      ],
      "payable": false,
      "stateMutability": "view",
      "type": "function"
    },
    {
      "constant": true,
      "inputs": [
        {
          "name": "",
          "type": "bytes32"
        }
      ],
      "name": "refLinkExists",
      "outputs": [
        {
          "name": "",
          "type": "bool"
        }
      ],
      "payable": false,
      "stateMutability": "view",
      "type": "function"
    },
    {
      "constant": true,
      "inputs": [
        {
          "name": "",
          "type": "uint256"
        },
        {
          "name": "",
          "type": "uint256"
        }
      ],
      "name": "paintGenToAmountForColor",
      "outputs": [
        {
          "name": "",
          "type": "uint256"
        }
      ],
      "payable": false,
      "stateMutability": "view",
      "type": "function"
    },
    {
      "constant": true,
      "inputs": [
        {
          "name": "",
          "type": "uint256"
        }
      ],
      "name": "isCBPTransfered",
      "outputs": [
        {
          "name": "",
          "type": "bool"
        }
      ],
      "payable": false,
      "stateMutability": "view",
      "type": "function"
    },
    {
      "constant": true,
      "inputs": [
        {
          "name": "",
          "type": "address"
        }
      ],
      "name": "referralToReferrer",
      "outputs": [
        {
          "name": "",
          "type": "address"
        }
      ],
      "payable": false,
      "stateMutability": "view",
      "type": "function"
    },
    {
      "constant": true,
      "inputs": [
        {
          "name": "",
          "type": "uint256"
        },
        {
          "name": "",
          "type": "address"
        }
      ],
      "name": "usersPaintDiscountForColor",
      "outputs": [
        {
          "name": "",
          "type": "uint256"
        }
      ],
      "payable": false,
      "stateMutability": "view",
      "type": "function"
    },
    {
      "constant": true,
      "inputs": [],
      "name": "maxPaintsInPool",
      "outputs": [
        {
          "name": "",
          "type": "uint256"
        }
      ],
      "payable": false,
      "stateMutability": "view",
      "type": "function"
    },
    {
      "constant": false,
      "inputs": [
        {
          "name": "newOwner",
          "type": "address"
        }
      ],
      "name": "transferOwnership",
      "outputs": [],
      "payable": false,
      "stateMutability": "nonpayable",
      "type": "function"
    },
    {
      "constant": true,
      "inputs": [
        {
          "name": "",
          "type": "uint256"
        }
      ],
      "name": "winnerColorForRound",
      "outputs": [
        {
          "name": "",
          "type": "uint256"
        }
      ],
      "payable": false,
      "stateMutability": "view",
      "type": "function"
    },
    {
      "constant": true,
      "inputs": [],
      "name": "dividendsBank",
      "outputs": [
        {
          "name": "",
          "type": "uint256"
        }
      ],
      "payable": false,
      "stateMutability": "view",
      "type": "function"
    },
    {
      "constant": true,
      "inputs": [
        {
          "name": "",
          "type": "address"
        }
      ],
      "name": "withdrawalBalances",
      "outputs": [
        {
          "name": "",
          "type": "uint256"
        }
      ],
      "payable": false,
      "stateMutability": "view",
      "type": "function"
    },
    {
      "constant": true,
      "inputs": [],
      "name": "cbIteration",
      "outputs": [
        {
          "name": "",
          "type": "uint256"
        }
      ],
      "payable": false,
      "stateMutability": "view",
      "type": "function"
    },
    {
      "inputs": [],
      "payable": true,
      "stateMutability": "payable",
      "type": "constructor"
    },
    {
      "anonymous": false,
      "inputs": [
        {
          "indexed": true,
          "name": "pixelId",
          "type": "uint256"
        },
        {
          "indexed": false,
          "name": "colorId",
          "type": "uint256"
        },
        {
          "indexed": true,
          "name": "painter",
          "type": "address"
        },
        {
          "indexed": true,
          "name": "round",
          "type": "uint256"
        },
        {
          "indexed": false,
          "name": "timestamp",
          "type": "uint256"
        }
      ],
      "name": "Paint",
      "type": "event"
    },
    {
      "anonymous": false,
      "inputs": [
        {
          "indexed": false,
          "name": "winner",
          "type": "address"
        },
        {
          "indexed": true,
          "name": "round",
          "type": "uint256"
        }
      ],
      "name": "ColorBankPlayed",
      "type": "event"
    },
    {
      "anonymous": false,
      "inputs": [
        {
          "indexed": false,
          "name": "winner",
          "type": "address"
        },
        {
          "indexed": true,
          "name": "round",
          "type": "uint256"
        }
      ],
      "name": "TimeBankPlayed",
      "type": "event"
    },
    {
      "anonymous": false,
      "inputs": [
        {
          "indexed": true,
          "name": "withdrawer",
          "type": "address"
        },
        {
          "indexed": true,
          "name": "claimId",
          "type": "uint256"
        },
        {
          "indexed": true,
          "name": "amount",
          "type": "uint256"
        }
      ],
      "name": "DividendsWithdrawn",
      "type": "event"
    },
    {
      "anonymous": false,
      "inputs": [
        {
          "indexed": true,
          "name": "claimer",
          "type": "address"
        },
        {
          "indexed": true,
          "name": "claimId",
          "type": "uint256"
        },
        {
          "indexed": true,
          "name": "currentTime",
          "type": "uint256"
        }
      ],
      "name": "DividendsClaimed",
      "type": "event"
    },
    {
      "anonymous": false,
      "inputs": [
        {
          "indexed": true,
          "name": "newCallPrice",
          "type": "uint256"
        }
      ],
      "name": "CallPriceUpdated",
      "type": "event"
    },
    {
      "anonymous": false,
      "inputs": [
        {
          "indexed": true,
          "name": "round",
          "type": "uint256"
        },
        {
          "indexed": true,
          "name": "cbIteration",
          "type": "uint256"
        },
        {
          "indexed": false,
          "name": "winner",
          "type": "address"
        }
      ],
      "name": "CBPDistributed",
      "type": "event"
    },
    {
      "anonymous": false,
      "inputs": [
        {
          "indexed": true,
          "name": "previousOwner",
          "type": "address"
        },
        {
          "indexed": true,
          "name": "newOwner",
          "type": "address"
        }
      ],
      "name": "OwnershipTransferred",
      "type": "event"
    },
    {
      "constant": false,
      "inputs": [],
      "name": "hardCode",
      "outputs": [],
      "payable": false,
      "stateMutability": "nonpayable",
      "type": "function"
    },
    {
      "constant": true,
      "inputs": [
        {
          "name": "_pixel",
          "type": "uint256"
        }
      ],
      "name": "getPixelColor",
      "outputs": [
        {
          "name": "",
          "type": "uint256"
        }
      ],
      "payable": false,
      "stateMutability": "view",
      "type": "function"
    },
    {
      "constant": true,
      "inputs": [
        {
          "name": "_pixels",
          "type": "uint256[]"
        },
        {
          "name": "_color",
          "type": "uint256"
        }
      ],
      "name": "estimateCallPrice",
      "outputs": [
        {
          "name": "totalCallPrice",
          "type": "uint256"
        }
      ],
      "payable": false,
      "stateMutability": "view",
      "type": "function"
    },
    {
      "constant": false,
      "inputs": [
        {
          "name": "_pixels",
          "type": "uint256[]"
        },
        {
          "name": "_color",
          "type": "uint256"
        }
      ],
      "name": "paint",
      "outputs": [],
      "payable": true,
      "stateMutability": "payable",
      "type": "function"
    }
  ],
  "bytecode": "0x608060405273ca35b7d915458ef540ade6068dfe2f44e8fa733c603f60006101000a81548173ffffffffffffffffffffffffffffffffffffffff021916908373ffffffffffffffffffffffffffffffffffffffff160217905550733e4d187df7d8a0820eaf4174d17b160157610912604060006101000a81548173ffffffffffffffffffffffffffffffffffffffff021916908373ffffffffffffffffffffffffffffffffffffffff16021790555060008033603660006101000a81548173ffffffffffffffffffffffffffffffffffffffff021916908373ffffffffffffffffffffffffffffffffffffffff160217905550603660009054906101000a900473ffffffffffffffffffffffffffffffffffffffff1673ffffffffffffffffffffffffffffffffffffffff16600073ffffffffffffffffffffffffffffffffffffffff167f8be0079c531659141344cd1fd0a4f28419497f9722a3daafe3b4186f6b6457e060405160405180910390a36001603760003373ffffffffffffffffffffffffffffffffffffffff1673ffffffffffffffffffffffffffffffffffffffff16815260200190815260200160002060006101000a81548160ff021916908315150217905550600190505b6008811115156200024b5773bf0e4036bf968dd007f9b4a1bfda4e54c042f6126039600083815260200190815260200160002060006101000a81548173ffffffffffffffffffffffffffffffffffffffff021916908373ffffffffffffffffffffffffffffffffffffffff1602179055508080600101915050620001cc565b50612710602381905550600160248190555060016026819055506001602581905550600190505b600381111515620004555760016013600083815260200190815260200160002081905550662386f26fc10000601460008381526020019081526020016000208190555060146000828152602001908152602001600020546015600083815260200190815260200160002081905550602354600f60008381526020019081526020016000206000601360008581526020019081526020016000205481526020019081526020016000208190555060016012600083815260200190815260200160002060006013600085815260200190815260200160002054815260200190815260200160002060006101000a81548160ff0219169083151502179055506000600e60006024548152602001908152602001600020541415620003cd574260116000838152602001908152602001600020600060016013600086815260200190815260200160002054038152602001908152602001600020819055505b426010600083815260200190815260200160002060006013600085815260200190815260200160002054815260200190815260200160002081905550602354600f600083815260200190815260200160002060006013600085815260200190815260200160002054815260200190815260200160002081905550808060010191505062000272565b5061572e80620004666000396000f300608060405260043610610390576000357c0100000000000000000000000000000000000000000000000000000000900463ffffffff1680630422ddf31461039557806305bdd0be146103c4578063099b81ce146104295780630ba362211461049a5780630baaea44146104e55780630cf9603f146105525780630f6ed86e1461059d578063102f9713146105c85780631785f53c1461063557806318452cd8146106785780631f5bdf5d146106d35780631f90c6ed1461072e57806324d7806c1461079357806328361f57146107ee57806328b290f91461082f5780632c6c1c41146108865780632c7a3dae146108e757806333f9c3881461095e57806334d34b9b146109bf57806335d2084e146109d65780633a17350514610a0e5780633c6dd01314610a595780633ca4c18314610a9a5780633cc4c6ce14610afb5780633d0d1a7914610b125780633dc3c37714610b53578063411b007e14610b7e57806341c5464e14610bd557806342e453ec14610c2c57806346e3013514610ca3578063499831f214610cd05780634b39173d14610ce75780634c438ad714610d325780634c78e40114610d775780635bfcdb2714610db85780635c25fd1314610e745780635d63ebb214610e9f5780635f5d554c14610f16578063628a71a314610f65578063668038e014610fa65780636f17eb4214610fbd5780637048027514610ffe578063715018a61461104157806373a9ee261461105857806379ecf376146110995780637b68a8f0146111065780637e1e175c1461114757806387982ac3146111a25780638a19c8bc1461122f5780638bad0c0a1461125a5780638da5cb5b146112715780638e2df39c146112c85780638f32d59b146113095780638f63b7e514611338578063a312072414611383578063a888c2cd146113ce578063a977e16814611454578063ab24c7d2146114ab578063abafb90e14611510578063ae55ce8214611594578063b0ff59d214611601578063b1a3883c14611662578063b8232d5d146116cd578063be7d622614611718578063c64a2e5614611759578063c957387b1461179a578063c9f8234f146117e5578063d4526e6814611810578063d5de47c714611859578063da68b121146118a4578063deaf0fa1146118e9578063eaf1c9101461196c578063eef565da146119cd578063f2fde38b146119f8578063f49916f514611a3b578063f5f95b3b14611a7c578063fb454d2914611aa7578063fea11fe314611afe575b600080fd5b3480156103a157600080fd5b506103aa611b29565b604051808215151515815260200191505060405180910390f35b3480156103d057600080fd5b5061040f60048036038101908080359060200190929190803573ffffffffffffffffffffffffffffffffffffffff169060200190929190505050611b3c565b604051808215151515815260200191505060405180910390f35b34801561043557600080fd5b506104586004803603810190808035600019169060200190929190505050611b6b565b604051808273ffffffffffffffffffffffffffffffffffffffff1673ffffffffffffffffffffffffffffffffffffffff16815260200191505060405180910390f35b3480156104a657600080fd5b506104cf6004803603810190808035906020019092919080359060200190929190505050611b9e565b6040518082815260200191505060405180910390f35b3480156104f157600080fd5b5061051060048036038101908080359060200190929190505050611bc3565b604051808273ffffffffffffffffffffffffffffffffffffffff1673ffffffffffffffffffffffffffffffffffffffff16815260200191505060405180910390f35b34801561055e57600080fd5b506105876004803603810190808035906020019092919080359060200190929190505050611bf6565b6040518082815260200191505060405180910390f35b3480156105a957600080fd5b506105b2611c1b565b6040518082815260200191505060405180910390f35b3480156105d457600080fd5b506105f360048036038101908080359060200190929190505050611c21565b604051808273ffffffffffffffffffffffffffffffffffffffff1673ffffffffffffffffffffffffffffffffffffffff16815260200191505060405180910390f35b34801561064157600080fd5b50610676600480360381019080803573ffffffffffffffffffffffffffffffffffffffff169060200190929190505050611c54565b005b34801561068457600080fd5b506106b9600480360381019080803573ffffffffffffffffffffffffffffffffffffffff169060200190929190505050611cc2565b604051808215151515815260200191505060405180910390f35b3480156106df57600080fd5b50610714600480360381019080803573ffffffffffffffffffffffffffffffffffffffff169060200190929190505050611ce2565b604051808215151515815260200191505060405180910390f35b34801561073a57600080fd5b5061077960048036038101908080359060200190929190803573ffffffffffffffffffffffffffffffffffffffff169060200190929190505050611d02565b604051808215151515815260200191505060405180910390f35b34801561079f57600080fd5b506107d4600480360381019080803573ffffffffffffffffffffffffffffffffffffffff169060200190929190505050611d31565b604051808215151515815260200191505060405180910390f35b3480156107fa57600080fd5b5061081960048036038101908080359060200190929190505050611d51565b6040518082815260200191505060405180910390f35b34801561083b57600080fd5b50610870600480360381019080803573ffffffffffffffffffffffffffffffffffffffff169060200190929190505050611d69565b6040518082815260200191505060405180910390f35b34801561089257600080fd5b506108d160048036038101908080359060200190929190803573ffffffffffffffffffffffffffffffffffffffff169060200190929190505050611d81565b6040518082815260200191505060405180910390f35b3480156108f357600080fd5b5061091c6004803603810190808035906020019092919080359060200190929190505050611da6565b604051808273ffffffffffffffffffffffffffffffffffffffff1673ffffffffffffffffffffffffffffffffffffffff16815260200191505060405180910390f35b34801561096a57600080fd5b506109a960048036038101908080359060200190929190803573ffffffffffffffffffffffffffffffffffffffff169060200190929190505050611df3565b6040518082815260200191505060405180910390f35b3480156109cb57600080fd5b506109d4611e18565b005b610a0c60048036038101908080359060200190820180359060200191909192939192939080359060200190929190505050611e8c565b005b348015610a1a57600080fd5b50610a436004803603810190808035906020019092919080359060200190929190505050612533565b6040518082815260200191505060405180910390f35b348015610a6557600080fd5b50610a8460048036038101908080359060200190929190505050612558565b6040518082815260200191505060405180910390f35b348015610aa657600080fd5b50610ae560048036038101908080359060200190929190803573ffffffffffffffffffffffffffffffffffffffff169060200190929190505050612570565b6040518082815260200191505060405180910390f35b348015610b0757600080fd5b50610b10612595565b005b348015610b1e57600080fd5b50610b3d60048036038101908080359060200190929190505050612705565b6040518082815260200191505060405180910390f35b348015610b5f57600080fd5b50610b6861271d565b6040518082815260200191505060405180910390f35b348015610b8a57600080fd5b50610b93612723565b604051808273ffffffffffffffffffffffffffffffffffffffff1673ffffffffffffffffffffffffffffffffffffffff16815260200191505060405180910390f35b348015610be157600080fd5b50610c16600480360381019080803573ffffffffffffffffffffffffffffffffffffffff169060200190929190505050612749565b6040518082815260200191505060405180910390f35b348015610c3857600080fd5b50610c616004803603810190808035906020019092919080359060200190929190505050612761565b604051808273ffffffffffffffffffffffffffffffffffffffff1673ffffffffffffffffffffffffffffffffffffffff16815260200191505060405180910390f35b348015610caf57600080fd5b50610cce600480360381019080803590602001909291905050506127a3565b005b348015610cdc57600080fd5b50610ce5612a4e565b005b348015610cf357600080fd5b50610d1c6004803603810190808035906020019092919080359060200190929190505050612bbe565b6040518082815260200191505060405180910390f35b348015610d3e57600080fd5b50610d5d60048036038101908080359060200190929190505050612be3565b604051808215151515815260200191505060405180910390f35b348015610d8357600080fd5b50610da260048036038101908080359060200190929190505050612c03565b6040518082815260200191505060405180910390f35b348015610dc457600080fd5b50610df9600480360381019080803573ffffffffffffffffffffffffffffffffffffffff169060200190929190505050612c1b565b6040518080602001828103825283818151815260200191508051906020019080838360005b83811015610e39578082015181840152602081019050610e1e565b50505050905090810190601f168015610e665780820380516001836020036101000a031916815260200191505b509250505060405180910390f35b348015610e8057600080fd5b50610e89612ccb565b6040518082815260200191505060405180910390f35b348015610eab57600080fd5b50610ed46004803603810190808035906020019092919080359060200190929190505050612cd1565b604051808273ffffffffffffffffffffffffffffffffffffffff1673ffffffffffffffffffffffffffffffffffffffff16815260200191505060405180910390f35b348015610f2257600080fd5b50610f4b6004803603810190808035906020019092919080359060200190929190505050612d1e565b604051808215151515815260200191505060405180910390f35b348015610f7157600080fd5b50610f9060048036038101908080359060200190929190505050612d4d565b6040518082815260200191505060405180910390f35b348015610fb257600080fd5b50610fbb612d65565b005b348015610fc957600080fd5b50610fe860048036038101908080359060200190929190505050612fbc565b6040518082815260200191505060405180910390f35b34801561100a57600080fd5b5061103f600480360381019080803573ffffffffffffffffffffffffffffffffffffffff169060200190929190505050612fd4565b005b34801561104d57600080fd5b50611056613042565b005b34801561106457600080fd5b5061108360048036038101908080359060200190929190505050613116565b6040518082815260200191505060405180910390f35b3480156110a557600080fd5b506110c46004803603810190808035906020019092919050505061312e565b604051808273ffffffffffffffffffffffffffffffffffffffff1673ffffffffffffffffffffffffffffffffffffffff16815260200191505060405180910390f35b34801561111257600080fd5b5061113160048036038101908080359060200190929190505050613161565b6040518082815260200191505060405180910390f35b34801561115357600080fd5b50611188600480360381019080803573ffffffffffffffffffffffffffffffffffffffff169060200190929190505050613190565b604051808215151515815260200191505060405180910390f35b3480156111ae57600080fd5b506111ed600480360381019080803573ffffffffffffffffffffffffffffffffffffffff169060200190929190803590602001909291905050506131b0565b604051808273ffffffffffffffffffffffffffffffffffffffff1673ffffffffffffffffffffffffffffffffffffffff16815260200191505060405180910390f35b34801561123b57600080fd5b506112446131fd565b6040518082815260200191505060405180910390f35b34801561126657600080fd5b5061126f613203565b005b34801561127d57600080fd5b50611286613325565b604051808273ffffffffffffffffffffffffffffffffffffffff1673ffffffffffffffffffffffffffffffffffffffff16815260200191505060405180910390f35b3480156112d457600080fd5b506112f36004803603810190808035906020019092919050505061334f565b6040518082815260200191505060405180910390f35b34801561131557600080fd5b5061131e613367565b604051808215151515815260200191505060405180910390f35b34801561134457600080fd5b5061136d60048036038101908080359060200190929190803590602001909291905050506133bf565b6040518082815260200191505060405180910390f35b34801561138f57600080fd5b506113b860048036038101908080359060200190929190803590602001909291905050506133e4565b6040518082815260200191505060405180910390f35b3480156113da57600080fd5b506113f960048036038101908080359060200190929190505050613409565b604051808581526020018473ffffffffffffffffffffffffffffffffffffffff1673ffffffffffffffffffffffffffffffffffffffff1681526020018315151515815260200182815260200194505050505060405180910390f35b34801561146057600080fd5b50611469613475565b604051808273ffffffffffffffffffffffffffffffffffffffff1673ffffffffffffffffffffffffffffffffffffffff16815260200191505060405180910390f35b3480156114b757600080fd5b506114f660048036038101908080359060200190929190803573ffffffffffffffffffffffffffffffffffffffff16906020019092919050505061349b565b604051808215151515815260200191505060405180910390f35b34801561151c57600080fd5b5061157e60048036038101908080359060200190820180359060200190808060200260200160405190810160405280939291908181526020018383602002808284378201915050505050509192919290803590602001909291905050506134ca565b6040518082815260200191505060405180910390f35b3480156115a057600080fd5b506115bf600480360381019080803590602001909291905050506136b8565b604051808273ffffffffffffffffffffffffffffffffffffffff1673ffffffffffffffffffffffffffffffffffffffff16815260200191505060405180910390f35b34801561160d57600080fd5b5061164c60048036038101908080359060200190929190803573ffffffffffffffffffffffffffffffffffffffff1690602001909291905050506136eb565b6040518082815260200191505060405180910390f35b34801561166e57600080fd5b506116b76004803603810190808035906020019092919080359060200190929190803573ffffffffffffffffffffffffffffffffffffffff169060200190929190505050613710565b6040518082815260200191505060405180910390f35b3480156116d957600080fd5b506117026004803603810190808035906020019092919080359060200190929190505050613742565b6040518082815260200191505060405180910390f35b34801561172457600080fd5b5061174360048036038101908080359060200190929190505050613767565b6040518082815260200191505060405180910390f35b34801561176557600080fd5b506117846004803603810190808035906020019092919050505061377f565b6040518082815260200191505060405180910390f35b3480156117a657600080fd5b506117cf6004803603810190808035906020019092919080359060200190929190505050613797565b6040518082815260200191505060405180910390f35b3480156117f157600080fd5b506117fa6137bc565b6040518082815260200191505060405180910390f35b34801561181c57600080fd5b5061183f60048036038101908080356000191690602001909291905050506137c2565b604051808215151515815260200191505060405180910390f35b34801561186557600080fd5b5061188e60048036038101908080359060200190929190803590602001909291905050506137e1565b6040518082815260200191505060405180910390f35b3480156118b057600080fd5b506118cf60048036038101908080359060200190929190505050613806565b604051808215151515815260200191505060405180910390f35b3480156118f557600080fd5b5061192a600480360381019080803573ffffffffffffffffffffffffffffffffffffffff169060200190929190505050613826565b604051808273ffffffffffffffffffffffffffffffffffffffff1673ffffffffffffffffffffffffffffffffffffffff16815260200191505060405180910390f35b34801561197857600080fd5b506119b760048036038101908080359060200190929190803573ffffffffffffffffffffffffffffffffffffffff169060200190929190505050613859565b6040518082815260200191505060405180910390f35b3480156119d957600080fd5b506119e261387e565b6040518082815260200191505060405180910390f35b348015611a0457600080fd5b50611a39600480360381019080803573ffffffffffffffffffffffffffffffffffffffff169060200190929190505050613884565b005b348015611a4757600080fd5b50611a66600480360381019080803590602001909291905050506138a3565b6040518082815260200191505060405180910390f35b348015611a8857600080fd5b50611a916138bb565b6040518082815260200191505060405180910390f35b348015611ab357600080fd5b50611ae8600480360381019080803573ffffffffffffffffffffffffffffffffffffffff1690602001909291905050506138c1565b6040518082815260200191505060405180910390f35b348015611b0a57600080fd5b50611b136138d9565b6040518082815260200191505060405180910390f35b603860009054906101000a900460ff1681565b60306020528160005260406000206020528060005260406000206000915091509054906101000a900460ff1681565b601f6020528060005260406000206000915054906101000a900473ffffffffffffffffffffffffffffffffffffffff1681565b600a602052816000526040600020602052806000526040600020600091509150505481565b60396020528060005260406000206000915054906101000a900473ffffffffffffffffffffffffffffffffffffffff1681565b6002602052816000526040600020602052806000526040600020600091509150505481565b60255481565b600b6020528060005260406000206000915054906101000a900473ffffffffffffffffffffffffffffffffffffffff1681565b611c5c613367565b1515611c6757600080fd5b6000603760008373ffffffffffffffffffffffffffffffffffffffff1673ffffffffffffffffffffffffffffffffffffffff16815260200190815260200160002060006101000a81548160ff02191690831515021790555050565b601d6020528060005260406000206000915054906101000a900460ff1681565b60196020528060005260406000206000915054906101000a900460ff1681565b60176020528160005260406000206020528060005260406000206000915091509054906101000a900460ff1681565b60376020528060005260406000206000915054906101000a900460ff1681565b60136020528060005260406000206000915090505481565b60356020528060005260406000206000915090505481565b6016602052816000526040600020602052806000526040600020600091509150505481565b602c60205281600052604060002081815481101515611dc157fe5b906000526020600020016000915091509054906101000a900473ffffffffffffffffffffffffffffffffffffffff1681565b6032602052816000526040600020602052806000526040600020600091509150505481565b670de0b6b3a764000060056000602454815260200190815260200160002081905550670de0b6b3a76400006003600060245481526020019081526020016000208190555061270e60026000602454815260200190815260200160002060006002815260200190815260200160002081905550565b6000801515601960003373ffffffffffffffffffffffffffffffffffffffff1673ffffffffffffffffffffffffffffffffffffffff16815260200190815260200160002060009054906101000a900460ff1615151415611f5b576001601960003373ffffffffffffffffffffffffffffffffffffffff1673ffffffffffffffffffffffffffffffffffffffff16815260200190815260200160002060006101000a81548160ff021916908315150217905550611f5460016022546138df90919063ffffffff16565b6022819055505b60001515603860009054906101000a900460ff161515141515611fe6576040517f08c379a000000000000000000000000000000000000000000000000000000000815260040180806020018281038252600e8152602001807f47616d652069732070617573656400000000000000000000000000000000000081525060200191505060405180910390fd5b61201f848480806020026020016040519081016040528093929190818152602001838360200280828437820191505050505050836134ca565b34141515612095576040517f08c379a00000000000000000000000000000000000000000000000000000000081526004018080602001828103825260108152602001807f57726f6e672063616c6c2070726963650000000000000000000000000000000081525060200191505060405180910390fd5b6104b06006600060245481526020019081526020016000205442031180156120d3575060006006600060245481526020019081526020016000205414155b156123cf5760076000602454815260200190815260200160002060009054906101000a900473ffffffffffffffffffffffffffffffffffffffff16600b6000602454815260200190815260200160002060006101000a81548173ffffffffffffffffffffffffffffffffffffffff021916908373ffffffffffffffffffffffffffffffffffffffff16021790555061219d606461218f602d6005600060245481526020019081526020016000205461390090919063ffffffff16565b61393e90919063ffffffff16565b6032600060255481526020019081526020016000206000600b6000602454815260200190815260200160002060009054906101000a900473ffffffffffffffffffffffffffffffffffffffff1673ffffffffffffffffffffffffffffffffffffffff1673ffffffffffffffffffffffffffffffffffffffff168152602001908152602001600020600082825401925050819055506001600c6000602454815260200190815260200160002081905550612275600a6005600060245481526020019081526020016000205461393e90919063ffffffff16565b600560006001602454018152602001908152602001600020819055506122cd60646122bf602d6005600060245481526020019081526020016000205461390090919063ffffffff16565b61393e90919063ffffffff16565b6005600060245481526020019081526020016000208190555060036000602454815260200190815260200160002054600360006001602454018152602001908152602001600020819055506000600360006024548152602001908152602001600020819055506024547f20f206bcab56eeef408295aaff8745adb98fed16823d758193e9449983d23fd2600b6000602454815260200190815260200160002060009054906101000a900473ffffffffffffffffffffffffffffffffffffffff16604051808273ffffffffffffffffffffffffffffffffffffffff1673ffffffffffffffffffffffffffffffffffffffff16815260200191505060405180910390a25b600090505b8383905081101561240a576123fd84848381811015156123f057fe5b9050602002013583613968565b80806001019150506123d4565b612413826142e2565b61241c8261447d565b612425826146c0565b61242e826147ec565b602760008154809291906001019190505550602a60008381526020019081526020016000206000815480929190600101919050555033602d6000602754815260200190815260200160002060006101000a81548173ffffffffffffffffffffffffffffffffffffffff021916908373ffffffffffffffffffffffffffffffffffffffff16021790555033602e60008481526020019081526020016000206000602a600086815260200190815260200160002054815260200190815260200160002060006101000a81548173ffffffffffffffffffffffffffffffffffffffff021916908373ffffffffffffffffffffffffffffffffffffffff16021790555050505050565b6010602052816000526040600020602052806000526040600020600091509150505481565b60146020528060005260406000206000915090505481565b6031602052816000526040600020602052806000526040600020600091509150505481565b60011515603760003373ffffffffffffffffffffffffffffffffffffffff1673ffffffffffffffffffffffffffffffffffffffff16815260200190815260200160002060009054906101000a900460ff16151514151561265d576040517f08c379a00000000000000000000000000000000000000000000000000000000081526004018080602001828103825260208152602001807f596f7520646f6e277420686176652061646d696e2070726976696c656775657381525060200191505060405180910390fd5b60011515603860009054906101000a900460ff1615151415156126e8576040517f08c379a00000000000000000000000000000000000000000000000000000000081526004018080602001828103825260148152602001807f47616d6520697320616c7265616479206c69766500000000000000000000000081525060200191505060405180910390fd5b6000603860006101000a81548160ff021916908315150217905550565b600c6020528060005260406000206000915090505481565b60275481565b604060009054906101000a900473ffffffffffffffffffffffffffffffffffffffff1681565b60216020528060005260406000206000915090505481565b602e6020528160005260406000206020528060005260406000206000915091509054906101000a900473ffffffffffffffffffffffffffffffffffffffff1681565b600080600060011515603760003373ffffffffffffffffffffffffffffffffffffffff1673ffffffffffffffffffffffffffffffffffffffff16815260200190815260200160002060009054906101000a900460ff161515141515612870576040517f08c379a00000000000000000000000000000000000000000000000000000000081526004018080602001828103825260208152602001807f596f7520646f6e277420686176652061646d696e2070726976696c656775657381525060200191505060405180910390fd5b603e8481548110151561287f57fe5b906000526020600020906003020192508260010160149054906101000a900460ff161515156128ad57600080fd5b8260010160009054906101000a900473ffffffffffffffffffffffffffffffffffffffff169150603a60008373ffffffffffffffffffffffffffffffffffffffff1673ffffffffffffffffffffffffffffffffffffffff1681526020019081526020016000205490506000603a60008473ffffffffffffffffffffffffffffffffffffffff1673ffffffffffffffffffffffffffffffffffffffff168152602001908152602001600020819055508173ffffffffffffffffffffffffffffffffffffffff166108fc829081150290604051600060405180830381858888f193505050501580156129a1573d6000803e3d6000fd5b5042603b60008473ffffffffffffffffffffffffffffffffffffffff1673ffffffffffffffffffffffffffffffffffffffff1681526020019081526020016000208190555080848373ffffffffffffffffffffffffffffffffffffffff167f1a983dd8fc1bd566844e816cd39bafaebd6523281477df579d3252da34a251d960405160405180910390a460018360010160146101000a81548160ff02191690831515021790555050505050565b60011515603760003373ffffffffffffffffffffffffffffffffffffffff1673ffffffffffffffffffffffffffffffffffffffff16815260200190815260200160002060009054906101000a900460ff161515141515612b16576040517f08c379a00000000000000000000000000000000000000000000000000000000081526004018080602001828103825260208152602001807f596f7520646f6e277420686176652061646d696e2070726976696c656775657381525060200191505060405180910390fd5b60001515603860009054906101000a900460ff161515141515612ba1576040517f08c379a00000000000000000000000000000000000000000000000000000000081526004018080602001828103825260168152602001807f47616d6520697320616c7265616479207061757365640000000000000000000081525060200191505060405180910390fd5b6001603860006101000a81548160ff021916908315150217905550565b6001602052816000526040600020602052806000526040600020600091509150505481565b60346020528060005260406000206000915054906101000a900460ff1681565b60056020528060005260406000206000915090505481565b601e6020528060005260406000206000915090508054600181600116156101000203166002900480601f016020809104026020016040519081016040528092919081815260200182805460018160011615610100020316600290048015612cc35780601f10612c9857610100808354040283529160200191612cc3565b820191906000526020600020905b815481529060010190602001808311612ca657829003601f168201915b505050505081565b603d5481565b602b60205281600052604060002081815481101515612cec57fe5b906000526020600020016000915091509054906101000a900473ffffffffffffffffffffffffffffffffffffffff1681565b60126020528160005260406000206020528060005260406000206000915091509054906101000a900460ff1681565b60086020528060005260406000206000915090505481565b612d6d6156c1565b6000603a60003373ffffffffffffffffffffffffffffffffffffffff1673ffffffffffffffffffffffffffffffffffffffff1681526020019081526020016000205414151515612e4b576040517f08c379a00000000000000000000000000000000000000000000000000000000081526004018080602001828103825260228152602001807f596f7572207769746864726177616c2062616c616e6365206973207a65726f2e81526020017f2e2e00000000000000000000000000000000000000000000000000000000000081525060400191505060405180910390fd5b612e616001603d546138df90919063ffffffff16565b603d81905550603d5481600001818152505033816020019073ffffffffffffffffffffffffffffffffffffffff16908173ffffffffffffffffffffffffffffffffffffffff1681525050600081604001901515908115158152505042816060018181525050603e81908060018154018082558091505090600182039060005260206000209060030201600090919290919091506000820151816000015560208201518160010160006101000a81548173ffffffffffffffffffffffffffffffffffffffff021916908373ffffffffffffffffffffffffffffffffffffffff16021790555060408201518160010160146101000a81548160ff0219169083151502179055506060820151816002015550505042603d543373ffffffffffffffffffffffffffffffffffffffff167f4564c5b058f69e7dcd0937715686b0e7e519875481b651ebfab2eef281268f2360405160405180910390a450565b60156020528060005260406000206000915090505481565b612fdc613367565b1515612fe757600080fd5b6001603760008373ffffffffffffffffffffffffffffffffffffffff1673ffffffffffffffffffffffffffffffffffffffff16815260200190815260200160002060006101000a81548160ff02191690831515021790555050565b61304a613367565b151561305557600080fd5b600073ffffffffffffffffffffffffffffffffffffffff16603660009054906101000a900473ffffffffffffffffffffffffffffffffffffffff1673ffffffffffffffffffffffffffffffffffffffff167f8be0079c531659141344cd1fd0a4f28419497f9722a3daafe3b4186f6b6457e060405160405180910390a36000603660006101000a81548173ffffffffffffffffffffffffffffffffffffffff021916908373ffffffffffffffffffffffffffffffffffffffff160217905550565b60066020528060005260406000206000915090505481565b60076020528060005260406000206000915054906101000a900473ffffffffffffffffffffffffffffffffffffffff1681565b600080600060245481526020019081526020016000206000838152602001908152602001600020549050919050565b601a6020528060005260406000206000915054906101000a900460ff1681565b601c602052816000526040600020818154811015156131cb57fe5b906000526020600020016000915091509054906101000a900473ffffffffffffffffffffffffffffffffffffffff1681565b60245481565b60011515603760003373ffffffffffffffffffffffffffffffffffffffff1673ffffffffffffffffffffffffffffffffffffffff16815260200190815260200160002060009054906101000a900460ff1615151415156132cb576040517f08c379a00000000000000000000000000000000000000000000000000000000081526004018080602001828103825260208152602001807f596f7520646f6e277420686176652061646d696e2070726976696c656775657381525060200191505060405180910390fd5b6000603760003373ffffffffffffffffffffffffffffffffffffffff1673ffffffffffffffffffffffffffffffffffffffff16815260200190815260200160002060006101000a81548160ff021916908315150217905550565b6000603660009054906101000a900473ffffffffffffffffffffffffffffffffffffffff16905090565b602a6020528060005260406000206000915090505481565b6000603660009054906101000a900473ffffffffffffffffffffffffffffffffffffffff1673ffffffffffffffffffffffffffffffffffffffff163373ffffffffffffffffffffffffffffffffffffffff1614905090565b600d602052816000526040600020602052806000526040600020600091509150505481565b6004602052816000526040600020602052806000526040600020600091509150505481565b603e8181548110151561341857fe5b90600052602060002090600302016000915090508060000154908060010160009054906101000a900473ffffffffffffffffffffffffffffffffffffffff16908060010160149054906101000a900460ff16908060020154905084565b603f60009054906101000a900473ffffffffffffffffffffffffffffffffffffffff1681565b602f6020528160005260406000206020528060005260406000206000915091509054906101000a900460ff1681565b60008060008060008060006016600089815260200190815260200160002060003373ffffffffffffffffffffffffffffffffffffffff1673ffffffffffffffffffffffffffffffffffffffff1681526020019081526020016000205495506017600089815260200190815260200160002060003373ffffffffffffffffffffffffffffffffffffffff1673ffffffffffffffffffffffffffffffffffffffff16815260200190815260200160002060009054906101000a900460ff1694506018600089815260200190815260200160002060003373ffffffffffffffffffffffffffffffffffffffff1673ffffffffffffffffffffffffffffffffffffffff168152602001908152602001600020549350600092505b88518310156136ac57613625606461361786606403601560008d81526020019081526020016000205461390090919063ffffffff16565b61393e90919063ffffffff16565b915060011515851515141561363c57819050613653565b601560008981526020019081526020016000205490505b80870196508086019550670de0b6b3a76400008610151561369f5760019450670de0b6b3a76400008681151561368557fe5b049350678ac7230489e800008610151561369e57600a93505b5b82806001019350506135e0565b50505050505092915050565b602d6020528060005260406000206000915054906101000a900473ffffffffffffffffffffffffffffffffffffffff1681565b6028602052816000526040600020602052806000526040600020600091509150505481565b602960205282600052604060002060205281600052604060002060205280600052604060002060009250925050505481565b6000602052816000526040600020602052806000526040600020600091509150505481565b600e6020528060005260406000206000915090505481565b60036020528060005260406000206000915090505481565b6011602052816000526040600020602052806000526040600020600091509150505481565b60225481565b602080528060005260406000206000915054906101000a900460ff1681565b600f602052816000526040600020602052806000526040600020600091509150505481565b60336020528060005260406000206000915054906101000a900460ff1681565b601b6020528060005260406000206000915054906101000a900473ffffffffffffffffffffffffffffffffffffffff1681565b6018602052816000526040600020602052806000526040600020600091509150505481565b60235481565b61388c613367565b151561389757600080fd5b6138a08161495f565b50565b60096020528060005260406000206000915090505481565b603c5481565b603a6020528060005260406000206000915090505481565b60265481565b60008082840190508381101515156138f657600080fd5b8091505092915050565b60008060008414156139155760009150613937565b828402905082848281151561392657fe5b0414151561393357600080fd5b8091505b5092915050565b60008060008311151561395057600080fd5b828481151561395b57fe5b0490508091505092915050565b600061397382614a5b565b60008314151515613a12576040517f08c379a00000000000000000000000000000000000000000000000000000000081526004018080602001828103825260278152602001807f54686520706978656c2077697468206964203d203020646f6573206e6f74206581526020017f786973742e2e2e0000000000000000000000000000000000000000000000000081525060400191505060405180910390fd5b60008214151515613ab1576040517f08c379a00000000000000000000000000000000000000000000000000000000081526004018080602001828103825260288152602001807f596f752063616e6e6f74207061696e7420746f207472616e73706172656e742081526020017f636f6c6f722e2e2e00000000000000000000000000000000000000000000000081525060400191505060405180910390fd5b81600080602454815260200190815260200160002060008581526020019081526020016000205414151515613b74576040517f08c379a00000000000000000000000000000000000000000000000000000000081526004018080602001828103825260268152602001807f5468697320706978656c20697320616c7265616479206f66207468697320636f81526020017f6c6f722e2e2e000000000000000000000000000000000000000000000000000081525060400191505060405180910390fd5b600080602454815260200190815260200160002060008481526020019081526020016000205490508160008060245481526020019081526020016000206000858152602001908152602001600020819055508060016000602454815260200190815260200160002060008581526020019081526020016000208190555042600660006024548152602001908152602001600020819055503360076000602454815260200190815260200160002060006101000a81548173ffffffffffffffffffffffffffffffffffffffff021916908373ffffffffffffffffffffffffffffffffffffffff16021790555060006002600060245481526020019081526020016000206000838152602001908152602001600020541115613cf357613cc86001600260006024548152602001908152602001600020600084815260200190815260200160002054614cf990919063ffffffff16565b6002600060245481526020019081526020016000206000838152602001908152602001600020819055505b613d2d60016002600060245481526020019081526020016000206000858152602001908152602001600020546138df90919063ffffffff16565b600260006024548152602001908152602001600020600084815260200190815260200160002081905550613d806001600e60006024548152602001908152602001600020546138df90919063ffffffff16565b600e600060245481526020019081526020016000208190555042600d6000602454815260200190815260200160002060008581526020019081526020016000208190555060286000602554815260200190815260200160002060003373ffffffffffffffffffffffffffffffffffffffff1673ffffffffffffffffffffffffffffffffffffffff16815260200190815260200160002060008154809291906001019190505550602960006026548152602001908152602001600020600083815260200190815260200160002060003373ffffffffffffffffffffffffffffffffffffffff1673ffffffffffffffffffffffffffffffffffffffff16815260200190815260200160002060008154809291906001019190505550613ee46001600f600085815260200190815260200160002060006013600087815260200190815260200160002054815260200190815260200160002054614cf990919063ffffffff16565b600f60008481526020019081526020016000206000601360008681526020019081526020016000205481526020019081526020016000208190555082600860006024548152602001908152602001600020819055506024543373ffffffffffffffffffffffffffffffffffffffff16847faf2d03aa2fdc9b785775529881274caad1884e0279e02729f03eca55d57eea728542604051808381526020018281526020019250505060405180910390a4602454603560003373ffffffffffffffffffffffffffffffffffffffff1673ffffffffffffffffffffffffffffffffffffffff1681526020019081526020016000208190555061271060026000602454815260200190815260200160002060008481526020019081526020016000205414156142dd57816009600060245481526020019081526020016000208190555060076000602454815260200190815260200160002060009054906101000a900473ffffffffffffffffffffffffffffffffffffffff16600b6000602454815260200190815260200160002060006101000a81548173ffffffffffffffffffffffffffffffffffffffff021916908373ffffffffffffffffffffffffffffffffffffffff1602179055506140e860646140da60326003600060245481526020019081526020016000205461390090919063ffffffff16565b61393e90919063ffffffff16565b6031600060265481526020019081526020016000206000600b6000602454815260200190815260200160002060009054906101000a900473ffffffffffffffffffffffffffffffffffffffff1673ffffffffffffffffffffffffffffffffffffffff1673ffffffffffffffffffffffffffffffffffffffff168152602001908152602001600020600082825401925050819055506002600c60006024548152602001908152602001600020819055506141d360646141c560326003600060245481526020019081526020016000205461390090919063ffffffff16565b61393e90919063ffffffff16565b6003600060245481526020019081526020016000208190555060056000602454815260200190815260200160002054600560006001602454018152602001908152602001600020819055506000600560006024548152602001908152602001600020819055506024547f14988f685a0376db6242cb37ed3033028bbc9e8fe0cc4b434a098e6c0150673f600b6000602454815260200190815260200160002060009054906101000a900473ffffffffffffffffffffffffffffffffffffffff16604051808273ffffffffffffffffffffffffffffffffffffffff1673ffffffffffffffffffffffffffffffffffffffff16815260200191505060405180910390a26142dc614d1a565b5b505050565b61434161430c60646142fe60283461390090919063ffffffff16565b61393e90919063ffffffff16565b6004600060245481526020019081526020016000206000848152602001908152602001600020546138df90919063ffffffff16565b6004600060245481526020019081526020016000206000838152602001908152602001600020819055506143b9614395606461438760283461390090919063ffffffff16565b61393e90919063ffffffff16565b600360006024548152602001908152602001600020546138df90919063ffffffff16565b600360006024548152602001908152602001600020819055506144206143fc60646143ee60283461390090919063ffffffff16565b61393e90919063ffffffff16565b600560006024548152602001908152602001600020546138df90919063ffffffff16565b60056000602454815260200190815260200160002081905550614474614463606461445560143461390090919063ffffffff16565b61393e90919063ffffffff16565b603c546138df90919063ffffffff16565b603c8190555050565b6145196144a9606461449b6019603c5461390090919063ffffffff16565b61393e90919063ffffffff16565b603a6000604060009054906101000a900473ffffffffffffffffffffffffffffffffffffffff1673ffffffffffffffffffffffffffffffffffffffff1673ffffffffffffffffffffffffffffffffffffffff168152602001908152602001600020546138df90919063ffffffff16565b603a6000604060009054906101000a900473ffffffffffffffffffffffffffffffffffffffff1673ffffffffffffffffffffffffffffffffffffffff1673ffffffffffffffffffffffffffffffffffffffff168152602001908152602001600020819055506145a760646145996019603c5461390090919063ffffffff16565b61393e90919063ffffffff16565b603a60006039600085815260200190815260200160002060009054906101000a900473ffffffffffffffffffffffffffffffffffffffff1673ffffffffffffffffffffffffffffffffffffffff1673ffffffffffffffffffffffffffffffffffffffff1681526020019081526020016000206000828254019250508190555061464f60646146416019603c5461390090919063ffffffff16565b61393e90919063ffffffff16565b603a6000603f60009054906101000a900473ffffffffffffffffffffffffffffffffffffffff1673ffffffffffffffffffffffffffffffffffffffff1673ffffffffffffffffffffffffffffffffffffffff1681526020019081526020016000206000828254019250508190555050565b346016600083815260200190815260200160002060003373ffffffffffffffffffffffffffffffffffffffff1673ffffffffffffffffffffffffffffffffffffffff16815260200190815260200160002060008282540192505081905550670de0b6b3a76400006016600083815260200190815260200160002060003373ffffffffffffffffffffffffffffffffffffffff1673ffffffffffffffffffffffffffffffffffffffff168152602001908152602001600020541015156147e95760016017600083815260200190815260200160002060003373ffffffffffffffffffffffffffffffffffffffff1673ffffffffffffffffffffffffffffffffffffffff16815260200190815260200160002060006101000a81548160ff0219169083151502179055505b50565b670de0b6b3a76400006016600083815260200190815260200160002060003373ffffffffffffffffffffffffffffffffffffffff1673ffffffffffffffffffffffffffffffffffffffff1681526020019081526020016000205481151561484f57fe5b046018600083815260200190815260200160002060003373ffffffffffffffffffffffffffffffffffffffff1673ffffffffffffffffffffffffffffffffffffffff16815260200190815260200160002081905550678ac7230489e800006016600083815260200190815260200160002060003373ffffffffffffffffffffffffffffffffffffffff1673ffffffffffffffffffffffffffffffffffffffff1681526020019081526020016000205410151561495c57600a6018600083815260200190815260200160002060003373ffffffffffffffffffffffffffffffffffffffff1673ffffffffffffffffffffffffffffffffffffffff168152602001908152602001600020819055505b50565b600073ffffffffffffffffffffffffffffffffffffffff168173ffffffffffffffffffffffffffffffffffffffff161415151561499b57600080fd5b8073ffffffffffffffffffffffffffffffffffffffff16603660009054906101000a900473ffffffffffffffffffffffffffffffffffffffff1673ffffffffffffffffffffffffffffffffffffffff167f8be0079c531659141344cd1fd0a4f28419497f9722a3daafe3b4186f6b6457e060405160405180910390a380603660006101000a81548173ffffffffffffffffffffffffffffffffffffffff021916908373ffffffffffffffffffffffffffffffffffffffff16021790555050565b600080605a60116000858152602001908152602001600020600060016013600088815260200190815260200160002054038152602001908152602001600020544203101515614cf457600f6000848152602001908152602001600020600060136000868152602001908152602001600020548152602001908152602001600020549150614b05600160136000868152602001908152602001600020546138df90919063ffffffff16565b90506000151560126000858152602001908152602001600020600083815260200190815260200160002060009054906101000a900460ff1615151415614be957614b5a82602354614cf990919063ffffffff16565b600f60008581526020019081526020016000206000838152602001908152602001600020819055504260106000858152602001908152602001600020600083815260200190815260200160002081905550600160126000858152602001908152602001600020600083815260200190815260200160002060006101000a81548160ff0219169083151502179055505b6001600f6000858152602001908152602001600020600060136000878152602001908152602001600020548152602001908152602001600020541415614c6f57614c328361510e565b4260116000858152602001908152602001600020600060136000878152602001908152602001600020548152602001908152602001600020819055505b6000600f6000858152602001908152602001600020600060136000878152602001908152602001600020548152602001908152602001600020541415614cf357601560008481526020019081526020016000205460146000858152602001908152602001600020819055508060136000858152602001908152602001600020819055505b5b505050565b600080838311151515614d0b57600080fd5b82840390508091505092915050565b6000806000801515603860009054906101000a900460ff161515141515614da9576040517f08c379a000000000000000000000000000000000000000000000000000000000815260040180806020018281038252600e8152602001807f47616d652069732070617573656400000000000000000000000000000000000081525060200191505060405180910390fd5b6000151560336000602654815260200190815260200160002060009054906101000a900460ff161515141515614e6d576040517f08c379a000000000000000000000000000000000000000000000000000000000815260040180806020018281038252603a8152602001807f436f6c6f722042616e6b205072697a657320616c7265616479207472616e736681526020017f657272656420666f722074686973206362497465726174696f6e00000000000081525060400191505060405180910390fd5b614e8b600960006024548152602001908152602001600020546151a2565b602b60006026548152602001908152602001600020805490509150600090505b8181101561500557602b6000602654815260200190815260200160002081815481101515614ed557fe5b9060005260206000200160009054906101000a900473ffffffffffffffffffffffffffffffffffffffff169250600060316000602654815260200190815260200160002060008573ffffffffffffffffffffffffffffffffffffffff1673ffffffffffffffffffffffffffffffffffffffff16815260200190815260200160002054141515614ff8578273ffffffffffffffffffffffffffffffffffffffff166108fc60316000602654815260200190815260200160002060008673ffffffffffffffffffffffffffffffffffffffff1673ffffffffffffffffffffffffffffffffffffffff168152602001908152602001600020549081150290604051600060405180830381858888f19350505050158015614ff6573d6000803e3d6000fd5b505b8080600101915050614eab565b600160336000602654815260200190815260200160002060006101000a81548160ff0219169083151502179055506026546024547fbfaed882fe30111ee8001f97dfc827277ddbc8fc06720f063988546d0bdc08b0600b6000602454815260200190815260200160002060009054906101000a900473ffffffffffffffffffffffffffffffffffffffff16604051808273ffffffffffffffffffffffffffffffffffffffff1673ffffffffffffffffffffffffffffffffffffffff16815260200191505060405180910390a36150e760016024546138df90919063ffffffff16565b60248190555061510360016026546138df90919063ffffffff16565b602681905550505050565b615148606461513a6069601460008681526020019081526020016000205461390090919063ffffffff16565b61393e90919063ffffffff16565b601560008381526020019081526020016000208190555060146000828152602001908152602001600020547f3bb22f778670a5901bff4d41c425858dac1ea6aeb048d40f959a6bc43f98506160405160405180910390a250565b6000806000806151b1856153e7565b9350600090505b8381101561528457602b60006026548152602001908152602001600020818154811015156151e257fe5b9060005260206000200160009054906101000a900473ffffffffffffffffffffffffffffffffffffffff169250602960006026548152602001908152602001600020600086815260200190815260200160002060008473ffffffffffffffffffffffffffffffffffffffff1673ffffffffffffffffffffffffffffffffffffffff168152602001908152602001600020548201915080806001019150506151b8565b600090505b838110156153e057602b60006026548152602001908152602001600020818154811015156152b357fe5b9060005260206000200160009054906101000a900473ffffffffffffffffffffffffffffffffffffffff16925061537d8261536f6003600060245481526020019081526020016000205460296000602654815260200190815260200160002060008a815260200190815260200160002060008873ffffffffffffffffffffffffffffffffffffffff1673ffffffffffffffffffffffffffffffffffffffff1681526020019081526020016000205461390090919063ffffffff16565b61393e90919063ffffffff16565b60316000602654815260200190815260200160002060008573ffffffffffffffffffffffffffffffffffffffff1673ffffffffffffffffffffffffffffffffffffffff168152602001908152602001600020819055508080600101915050615289565b5050505050565b6000806000602a60008581526020019081526020016000205491505b600082111561569f5760001515602f600060265481526020019081526020016000206000602e6000888152602001908152602001600020600086815260200190815260200160002060009054906101000a900473ffffffffffffffffffffffffffffffffffffffff1673ffffffffffffffffffffffffffffffffffffffff1673ffffffffffffffffffffffffffffffffffffffff16815260200190815260200160002060009054906101000a900460ff1615151415615691576064602a60008681526020019081526020016000205411156154ec576064811015156154e75761569f565b61550e565b602a6000858152602001908152602001600020548110151561550d5761569f565b5b602b60006026548152602001908152602001600020602e6000868152602001908152602001600020600084815260200190815260200160002060009054906101000a900473ffffffffffffffffffffffffffffffffffffffff1690806001815401808255809150509060018203906000526020600020016000909192909190916101000a81548173ffffffffffffffffffffffffffffffffffffffff021916908373ffffffffffffffffffffffffffffffffffffffff160217905550506155df6001826138df90919063ffffffff16565b90506001602f600060265481526020019081526020016000206000602e6000888152602001908152602001600020600086815260200190815260200160002060009054906101000a900473ffffffffffffffffffffffffffffffffffffffff1673ffffffffffffffffffffffffffffffffffffffff1673ffffffffffffffffffffffffffffffffffffffff16815260200190815260200160002060006101000a81548160ff0219169083151502179055505b818060019003925050615403565b602b600060265481526020019081526020016000208054905092505050919050565b60806040519081016040528060008152602001600073ffffffffffffffffffffffffffffffffffffffff1681526020016000151581526020016000815250905600a165627a7a72305820da441f1f1078aa87e2e294219a1299f6276d8e4ec6667f3d3b381e19a17c84bf0029",
  "source": "pragma solidity ^0.4.24;\n\nimport \"../node_modules/openzeppelin-solidity/contracts/ownership/Ownable.sol\";\nimport \"./DividendsDistributor.sol\";\nimport \"./ColorTeam.sol\";\nimport \"./Storage.sol\";\nimport \"./PaintsPool.sol\";\nimport \"./PaintDiscount.sol\";\nimport \"./IColor.sol\";\nimport \"./GameStateController.sol\";\n\ncontract Game is Ownable, ColorTeam, PaintsPool, PaintDiscount, DividendsDistributor {\n\n    using SafeMath for uint;\n    \n    //\n    event Paint(uint indexed pixelId, uint colorId, address indexed painter, uint indexed round, uint timestamp);\n    event ColorBankPlayed(address winner, uint indexed round);\n    event TimeBankPlayed(address winner, uint indexed round);\n   \n    //,    \n    constructor() public payable { \n        \n        maxPaintsInPool = 10000; //10000 in production\n        currentRound = 1;\n        cbIteration = 1;\n        tbIteration = 1;\n        \n        for (uint i = 1; i <= 3; i++) {\n            currentPaintGenForColor[i] = 1;\n            callPriceForColor[i] = 0.01 ether;\n            nextCallPriceForColor[i] = callPriceForColor[i];\n            paintGenToAmountForColor[i][currentPaintGenForColor[i]] = maxPaintsInPool;\n            paintGenStartedForColor[i][currentPaintGenForColor[i]] = true;\n            \n            //       \n            if (totalPaintsForRound[currentRound] == 0) {\n                paintGenToEndTimeForColor[i][currentPaintGenForColor[i] - 1] = now;\n            }\n            \n            paintGenToStartTimeForColor[i][currentPaintGenForColor[i]] = now;\n            paintGenToAmountForColor[i][currentPaintGenForColor[i]] = maxPaintsInPool;\n        }\n        \n    }\n    \n    function hardCode() external {\n        timeBankForRound[currentRound] = 1 ether;\n        colorBankForRound[currentRound] = 1 ether;\n        colorToPaintedPixelsAmountForRound[currentRound][2] = 9998; \n    }\n    \n    //     \n    function getPixelColor(uint _pixel) external view returns (uint) {\n        return pixelToColorForRound[currentRound][_pixel];\n    }\n    \n    modifier isRegistered() {\n        //        ,    \n        if (isRegisteredUser[msg.sender] == false) {\n            isRegisteredUser[msg.sender] = true;\n            uniqueUsersCount = uniqueUsersCount.add(1);\n        }\n        _;\n    }        \n    \n    //      \n    function estimateCallPrice(uint[] _pixels, uint _color) public view returns (uint totalCallPrice) {\n\n        uint moneySpent = moneySpentByUserForColor[_color][msg.sender];\n        bool hasDiscount = hasPaintDiscountForColor[_color][msg.sender];\n        uint discount = usersPaintDiscountForColor[_color][msg.sender];\n       \n        \n        for (uint i = 0; i < _pixels.length; i++) {\n            \n            uint discountCallPrice = (nextCallPriceForColor[_color].mul(100 - discount)).div(100);\n            \n            if (hasDiscount == true) \n                uint price = discountCallPrice;\n            else\n                price = nextCallPriceForColor[_color]; \n\n            totalCallPrice += price;\n            moneySpent += price;\n\n            if (moneySpent >= 1 ether) {\n                \n                hasDiscount = true;\n                discount = moneySpent / 1 ether;\n                \n                if (moneySpent >= 10 ether)\n                    discount = 10;\n            }\n            \n        }   \n    }\n    \n\n    function paint(uint[] _pixels, uint _color) external payable isRegistered isLiveGame {\n\n        require(msg.value == estimateCallPrice(_pixels, _color), \"Wrong call price\");\n\n        //    20        \n        if (now - lastPaintTimeForRound[currentRound] > 20 minutes && lastPaintTimeForRound[currentRound] != 0) {\n\n            //    \n            //   -       \n            winnerOfRound[currentRound] = lastPainterForRound[currentRound];\n\n            painterToTBP[tbIteration][winnerOfRound[currentRound]] += timeBankForRound[currentRound].mul(45).div(100); \n            \n            //    =   (1)\n            winnerBankForRound[currentRound] = 1; \n            //10%      \n            timeBankForRound[currentRound + 1] = timeBankForRound[currentRound].div(10); \n            //45%        \n            timeBankForRound[currentRound] = timeBankForRound[currentRound].mul(45).div(100); \n            //     \n            colorBankForRound[currentRound + 1] = colorBankForRound[currentRound]; \n            //     \n            colorBankForRound[currentRound] = 0; \n            // -     (, )\n            emit TimeBankPlayed(winnerOfRound[currentRound], currentRound);\n        }\n        \n        // \n        for(uint i = 0; i < _pixels.length; i++) {\n            _paint(_pixels[i], _color);\n        }\n        \n         //   \n        _setBanks(_color);\n            \n        //  ( ) \n        _distributeDividends(_color);\n    \n         //         \n        _setMoneySpentByUserForColor(_color); \n        \n        //         \n        _setUsersPaintDiscountForColor(_color);\n\n        paintsCounter++; //   \n        paintsCounterForColor[_color] ++; //   \n        counterToPainter[paintsCounter] = msg.sender; //  => \n        counterToPainterForColor[_color][paintsCounterForColor[_color]] = msg.sender; //    => \n\n    }   \n\n    //   \n    function _paint(uint _pixel, uint _color) internal {\n\n        //          paint\n        _fillPaintsPool(_color);\n\n        require(_pixel != 0, \"The pixel with id = 0 does not exist...\");\n        require(_color != 0, \"You cannot paint to transparent color...\");\n        require(pixelToColorForRound[currentRound][_pixel] != _color, \"This pixel is already of this color...\");\n\n        //paint    \n        //    \n        uint oldColor = pixelToColorForRound[currentRound][_pixel];\n    \n        //   \n        pixelToColorForRound[currentRound][_pixel] = _color; \n            \n        //c    \n        pixelToOldColorForRound[currentRound][_pixel] = oldColor; \n                \n        //         \n        lastPaintTimeForRound[currentRound] = now; \n    \n        //          \n        lastPainterForRound[currentRound] = msg.sender;\n                \n        //    ,   \n        if (colorToPaintedPixelsAmountForRound[currentRound][oldColor] > 0) \n            colorToPaintedPixelsAmountForRound[currentRound][oldColor] = colorToPaintedPixelsAmountForRound[currentRound][oldColor].sub(1); \n    \n        //   ,   \n        colorToPaintedPixelsAmountForRound[currentRound][_color] = colorToPaintedPixelsAmountForRound[currentRound][_color].add(1); \n    \n        //         \n        totalPaintsForRound[currentRound] = totalPaintsForRound[currentRound].add(1); \n\n        pixelToPaintTimeForRound[currentRound][_pixel] = now;\n\n        timeBankShare[tbIteration][msg.sender]++;\n        colorBankShare[cbIteration][_color][msg.sender]++;\n                \n        //     1  \n        paintGenToAmountForColor[_color][currentPaintGenForColor[_color]] = paintGenToAmountForColor[_color][currentPaintGenForColor[_color]].sub(1);\n        \n        //      \n        lastPaintedPixelForRound[currentRound] = _pixel;\n        \n        // -   (, ,  )\n        emit Paint(_pixel, _color, msg.sender, currentRound, now);    \n\n        //         \n        lastPlayedRound[msg.sender] = currentRound;\n            \n        //            \n        if (colorToPaintedPixelsAmountForRound[currentRound][_color] == 10000) {\n\n            //    \n            winnerColorForRound[currentRound] = _color;\n\n            //    \n            winnerOfRound[currentRound] = lastPainterForRound[currentRound];        \n            painterToCBP[cbIteration][winnerOfRound[currentRound]] += colorBankForRound[currentRound].mul(50).div(100); \n            winnerBankForRound[currentRound] = 2;//    =   (2)\n            //50%       \n            colorBankForRound[currentRound] = colorBankForRound[currentRound].mul(50).div(100); \n            timeBankForRound[currentRound + 1] = timeBankForRound[currentRound];//     \n            timeBankForRound[currentRound] = 0;//           \n            emit ColorBankPlayed(winnerOfRound[currentRound], currentRound);  \n\n            distributeCBP();\n        }\n    }\n\n    //  \n    function _setBanks(uint _color) private {\n        \n        colorBankToColorForRound[currentRound][_color] = colorBankToColorForRound[currentRound][_color].add(msg.value.mul(40).div(100));\n\n        //40%     \n        colorBankForRound[currentRound] = colorBankForRound[currentRound].add(msg.value.mul(40).div(100));\n\n        //40%     \n        timeBankForRound[currentRound] = timeBankForRound[currentRound].add(msg.value.mul(40).div(100));\n\n        //20%      \n        dividendsBank = dividendsBank.add(msg.value.mul(20).div(100)); \n    }\n    \n}",
  "sourcePath": "/Users/Amir/last-pixel-contracts/contracts/Game.sol",
  "compiler": {
    "name": "solc",
    "version": "0.4.24+commit.e67f0147.Emscripten.clang"
  },
  "schemaVersion": "2.0.1",
  "updatedAt": "2019-01-04T19:25:42.689Z"
}