{
  "contractName": "GameMock",
  "abi": [
    {
      "constant": true,
      "inputs": [
        {
          "name": "",
          "type": "uint256"
        },
        {
          "name": "",
          "type": "address"
        }
      ],
      "name": "addressToTimeBankPrizeForRound",
      "outputs": [
        {
          "name": "",
          "type": "uint256"
        }
      ],
      "payable": false,
      "stateMutability": "view",
      "type": "function"
    },
    {
      "constant": true,
      "inputs": [
        {
          "name": "",
          "type": "address"
        }
      ],
      "name": "addressToTimeBankPrizeTotal",
      "outputs": [
        {
          "name": "",
          "type": "uint256"
        }
      ],
      "payable": false,
      "stateMutability": "view",
      "type": "function"
    },
    {
      "constant": true,
      "inputs": [
        {
          "name": "",
          "type": "uint256"
        },
        {
          "name": "",
          "type": "uint256"
        }
      ],
      "name": "colorToTotalPaintsForRound",
      "outputs": [
        {
          "name": "",
          "type": "uint256"
        }
      ],
      "payable": false,
      "stateMutability": "view",
      "type": "function"
    },
    {
      "constant": true,
      "inputs": [
        {
          "name": "",
          "type": "uint256"
        }
      ],
      "name": "ownerOfColor",
      "outputs": [
        {
          "name": "",
          "type": "address"
        }
      ],
      "payable": false,
      "stateMutability": "view",
      "type": "function"
    },
    {
      "constant": true,
      "inputs": [
        {
          "name": "",
          "type": "uint256"
        },
        {
          "name": "",
          "type": "uint256"
        }
      ],
      "name": "colorToPaintedPixelsAmountForRound",
      "outputs": [
        {
          "name": "",
          "type": "uint256"
        }
      ],
      "payable": false,
      "stateMutability": "view",
      "type": "function"
    },
    {
      "constant": true,
      "inputs": [
        {
          "name": "",
          "type": "uint256"
        }
      ],
      "name": "winnerOfRound",
      "outputs": [
        {
          "name": "",
          "type": "address"
        }
      ],
      "payable": false,
      "stateMutability": "view",
      "type": "function"
    },
    {
      "constant": false,
      "inputs": [
        {
          "name": "_admin",
          "type": "address"
        }
      ],
      "name": "removeAdmin",
      "outputs": [],
      "payable": false,
      "stateMutability": "nonpayable",
      "type": "function"
    },
    {
      "constant": true,
      "inputs": [
        {
          "name": "",
          "type": "uint256"
        },
        {
          "name": "",
          "type": "address"
        }
      ],
      "name": "hasPaintDiscountForColor",
      "outputs": [
        {
          "name": "",
          "type": "bool"
        }
      ],
      "payable": false,
      "stateMutability": "view",
      "type": "function"
    },
    {
      "constant": true,
      "inputs": [
        {
          "name": "",
          "type": "uint256"
        },
        {
          "name": "",
          "type": "address"
        }
      ],
      "name": "hasTakenPartInRound",
      "outputs": [
        {
          "name": "",
          "type": "bool"
        }
      ],
      "payable": false,
      "stateMutability": "view",
      "type": "function"
    },
    {
      "constant": true,
      "inputs": [
        {
          "name": "",
          "type": "uint256"
        }
      ],
      "name": "teamStartedTimeForRound",
      "outputs": [
        {
          "name": "",
          "type": "uint256"
        }
      ],
      "payable": false,
      "stateMutability": "view",
      "type": "function"
    },
    {
      "constant": true,
      "inputs": [
        {
          "name": "",
          "type": "address"
        }
      ],
      "name": "isAdmin",
      "outputs": [
        {
          "name": "",
          "type": "bool"
        }
      ],
      "payable": false,
      "stateMutability": "view",
      "type": "function"
    },
    {
      "constant": true,
      "inputs": [
        {
          "name": "",
          "type": "uint256"
        }
      ],
      "name": "currentPaintGenForColor",
      "outputs": [
        {
          "name": "",
          "type": "uint256"
        }
      ],
      "payable": false,
      "stateMutability": "view",
      "type": "function"
    },
    {
      "constant": true,
      "inputs": [
        {
          "name": "",
          "type": "address"
        }
      ],
      "name": "lastPlayedRound",
      "outputs": [
        {
          "name": "",
          "type": "uint256"
        }
      ],
      "payable": false,
      "stateMutability": "view",
      "type": "function"
    },
    {
      "constant": true,
      "inputs": [
        {
          "name": "",
          "type": "uint256"
        },
        {
          "name": "",
          "type": "address"
        }
      ],
      "name": "moneySpentByUserForColor",
      "outputs": [
        {
          "name": "",
          "type": "uint256"
        }
      ],
      "payable": false,
      "stateMutability": "view",
      "type": "function"
    },
    {
      "constant": false,
      "inputs": [
        {
          "name": "_pixels",
          "type": "uint256[]"
        },
        {
          "name": "_color",
          "type": "uint256"
        }
      ],
      "name": "paint",
      "outputs": [],
      "payable": true,
      "stateMutability": "payable",
      "type": "function"
    },
    {
      "constant": true,
      "inputs": [
        {
          "name": "",
          "type": "uint256"
        },
        {
          "name": "",
          "type": "uint256"
        }
      ],
      "name": "paintGenToStartTimeForColor",
      "outputs": [
        {
          "name": "",
          "type": "uint256"
        }
      ],
      "payable": false,
      "stateMutability": "view",
      "type": "function"
    },
    {
      "constant": true,
      "inputs": [
        {
          "name": "",
          "type": "uint256"
        }
      ],
      "name": "callPriceForColor",
      "outputs": [
        {
          "name": "",
          "type": "uint256"
        }
      ],
      "payable": false,
      "stateMutability": "view",
      "type": "function"
    },
    {
      "constant": true,
      "inputs": [
        {
          "name": "",
          "type": "uint256"
        }
      ],
      "name": "winnerBankForRound",
      "outputs": [
        {
          "name": "",
          "type": "uint256"
        }
      ],
      "payable": false,
      "stateMutability": "view",
      "type": "function"
    },
    {
      "constant": true,
      "inputs": [],
      "name": "uniqueUsers",
      "outputs": [
        {
          "name": "",
          "type": "uint256"
        }
      ],
      "payable": false,
      "stateMutability": "view",
      "type": "function"
    },
    {
      "constant": true,
      "inputs": [],
      "name": "founders",
      "outputs": [
        {
          "name": "",
          "type": "address"
        }
      ],
      "payable": false,
      "stateMutability": "view",
      "type": "function"
    },
    {
      "constant": false,
      "inputs": [
        {
          "name": "_claimId",
          "type": "uint256"
        }
      ],
      "name": "approveClaim",
      "outputs": [],
      "payable": false,
      "stateMutability": "nonpayable",
      "type": "function"
    },
    {
      "constant": true,
      "inputs": [
        {
          "name": "",
          "type": "uint256"
        },
        {
          "name": "",
          "type": "uint256"
        }
      ],
      "name": "pixelToOldColorForRound",
      "outputs": [
        {
          "name": "",
          "type": "uint256"
        }
      ],
      "payable": false,
      "stateMutability": "view",
      "type": "function"
    },
    {
      "constant": true,
      "inputs": [
        {
          "name": "",
          "type": "uint256"
        }
      ],
      "name": "timeBankForRound",
      "outputs": [
        {
          "name": "",
          "type": "uint256"
        }
      ],
      "payable": false,
      "stateMutability": "view",
      "type": "function"
    },
    {
      "constant": true,
      "inputs": [
        {
          "name": "",
          "type": "uint256"
        }
      ],
      "name": "teamEndedTimeForRound",
      "outputs": [
        {
          "name": "",
          "type": "uint256"
        }
      ],
      "payable": false,
      "stateMutability": "view",
      "type": "function"
    },
    {
      "constant": true,
      "inputs": [],
      "name": "claimId",
      "outputs": [
        {
          "name": "",
          "type": "uint256"
        }
      ],
      "payable": false,
      "stateMutability": "view",
      "type": "function"
    },
    {
      "constant": true,
      "inputs": [],
      "name": "colorBankPrizeOfLastPainter",
      "outputs": [
        {
          "name": "",
          "type": "uint256"
        }
      ],
      "payable": false,
      "stateMutability": "view",
      "type": "function"
    },
    {
      "constant": true,
      "inputs": [
        {
          "name": "",
          "type": "uint256"
        },
        {
          "name": "",
          "type": "uint256"
        }
      ],
      "name": "paintGenStartedForColor",
      "outputs": [
        {
          "name": "",
          "type": "bool"
        }
      ],
      "payable": false,
      "stateMutability": "view",
      "type": "function"
    },
    {
      "constant": true,
      "inputs": [
        {
          "name": "",
          "type": "uint256"
        }
      ],
      "name": "lastPaintedPixelForRound",
      "outputs": [
        {
          "name": "",
          "type": "uint256"
        }
      ],
      "payable": false,
      "stateMutability": "view",
      "type": "function"
    },
    {
      "constant": false,
      "inputs": [],
      "name": "claimDividends",
      "outputs": [],
      "payable": false,
      "stateMutability": "nonpayable",
      "type": "function"
    },
    {
      "constant": true,
      "inputs": [
        {
          "name": "_color",
          "type": "uint256"
        }
      ],
      "name": "showPotentialPrizeForColor",
      "outputs": [
        {
          "name": "",
          "type": "uint256"
        }
      ],
      "payable": false,
      "stateMutability": "view",
      "type": "function"
    },
    {
      "constant": true,
      "inputs": [],
      "name": "timeBankPrizeOfLastPainter",
      "outputs": [
        {
          "name": "",
          "type": "uint256"
        }
      ],
      "payable": false,
      "stateMutability": "view",
      "type": "function"
    },
    {
      "constant": true,
      "inputs": [
        {
          "name": "",
          "type": "uint256"
        }
      ],
      "name": "nextCallPriceForColor",
      "outputs": [
        {
          "name": "",
          "type": "uint256"
        }
      ],
      "payable": false,
      "stateMutability": "view",
      "type": "function"
    },
    {
      "constant": false,
      "inputs": [
        {
          "name": "_new",
          "type": "address"
        }
      ],
      "name": "addAdmin",
      "outputs": [],
      "payable": false,
      "stateMutability": "nonpayable",
      "type": "function"
    },
    {
      "constant": false,
      "inputs": [],
      "name": "renounceOwnership",
      "outputs": [],
      "payable": false,
      "stateMutability": "nonpayable",
      "type": "function"
    },
    {
      "constant": true,
      "inputs": [
        {
          "name": "",
          "type": "uint256"
        }
      ],
      "name": "lastPaintTimeForRound",
      "outputs": [
        {
          "name": "",
          "type": "uint256"
        }
      ],
      "payable": false,
      "stateMutability": "view",
      "type": "function"
    },
    {
      "constant": true,
      "inputs": [
        {
          "name": "",
          "type": "uint256"
        }
      ],
      "name": "lastPainterForRound",
      "outputs": [
        {
          "name": "",
          "type": "address"
        }
      ],
      "payable": false,
      "stateMutability": "view",
      "type": "function"
    },
    {
      "constant": true,
      "inputs": [
        {
          "name": "_pixel",
          "type": "uint256"
        }
      ],
      "name": "getPixelColor",
      "outputs": [
        {
          "name": "",
          "type": "uint256"
        }
      ],
      "payable": false,
      "stateMutability": "view",
      "type": "function"
    },
    {
      "constant": true,
      "inputs": [],
      "name": "currentRound",
      "outputs": [
        {
          "name": "",
          "type": "uint256"
        }
      ],
      "payable": false,
      "stateMutability": "view",
      "type": "function"
    },
    {
      "constant": true,
      "inputs": [],
      "name": "owner",
      "outputs": [
        {
          "name": "",
          "type": "address"
        }
      ],
      "payable": false,
      "stateMutability": "view",
      "type": "function"
    },
    {
      "constant": true,
      "inputs": [],
      "name": "isOwner",
      "outputs": [
        {
          "name": "",
          "type": "bool"
        }
      ],
      "payable": false,
      "stateMutability": "view",
      "type": "function"
    },
    {
      "constant": true,
      "inputs": [
        {
          "name": "",
          "type": "uint256"
        },
        {
          "name": "",
          "type": "uint256"
        }
      ],
      "name": "colorBankToColorForRound",
      "outputs": [
        {
          "name": "",
          "type": "uint256"
        }
      ],
      "payable": false,
      "stateMutability": "view",
      "type": "function"
    },
    {
      "constant": true,
      "inputs": [
        {
          "name": "",
          "type": "uint256"
        },
        {
          "name": "",
          "type": "address"
        }
      ],
      "name": "addressToColorBankPrizeForRound",
      "outputs": [
        {
          "name": "",
          "type": "uint256"
        }
      ],
      "payable": false,
      "stateMutability": "view",
      "type": "function"
    },
    {
      "constant": true,
      "inputs": [
        {
          "name": "",
          "type": "uint256"
        }
      ],
      "name": "claims",
      "outputs": [
        {
          "name": "id",
          "type": "uint256"
        },
        {
          "name": "claimer",
          "type": "address"
        },
        {
          "name": "isResolved",
          "type": "bool"
        },
        {
          "name": "timestamp",
          "type": "uint256"
        }
      ],
      "payable": false,
      "stateMutability": "view",
      "type": "function"
    },
    {
      "constant": true,
      "inputs": [],
      "name": "ownerOfPixel",
      "outputs": [
        {
          "name": "",
          "type": "address"
        }
      ],
      "payable": false,
      "stateMutability": "view",
      "type": "function"
    },
    {
      "constant": true,
      "inputs": [
        {
          "name": "_pixels",
          "type": "uint256[]"
        },
        {
          "name": "_color",
          "type": "uint256"
        }
      ],
      "name": "estimateCallPrice",
      "outputs": [
        {
          "name": "",
          "type": "uint256"
        }
      ],
      "payable": false,
      "stateMutability": "view",
      "type": "function"
    },
    {
      "constant": true,
      "inputs": [
        {
          "name": "",
          "type": "uint256"
        },
        {
          "name": "",
          "type": "address"
        }
      ],
      "name": "colorToUserToTotalCounter",
      "outputs": [
        {
          "name": "",
          "type": "uint256"
        }
      ],
      "payable": false,
      "stateMutability": "view",
      "type": "function"
    },
    {
      "constant": false,
      "inputs": [],
      "name": "claimTimeBankPrizeForLastPlayedRound",
      "outputs": [],
      "payable": false,
      "stateMutability": "nonpayable",
      "type": "function"
    },
    {
      "constant": true,
      "inputs": [
        {
          "name": "",
          "type": "uint256"
        },
        {
          "name": "",
          "type": "uint256"
        }
      ],
      "name": "pixelToColorForRound",
      "outputs": [
        {
          "name": "",
          "type": "uint256"
        }
      ],
      "payable": false,
      "stateMutability": "view",
      "type": "function"
    },
    {
      "constant": true,
      "inputs": [
        {
          "name": "",
          "type": "address"
        }
      ],
      "name": "addressToColorBankPrizeTotal",
      "outputs": [
        {
          "name": "",
          "type": "uint256"
        }
      ],
      "payable": false,
      "stateMutability": "view",
      "type": "function"
    },
    {
      "constant": true,
      "inputs": [
        {
          "name": "",
          "type": "uint256"
        }
      ],
      "name": "totalPaintsForRound",
      "outputs": [
        {
          "name": "",
          "type": "uint256"
        }
      ],
      "payable": false,
      "stateMutability": "view",
      "type": "function"
    },
    {
      "constant": true,
      "inputs": [
        {
          "name": "",
          "type": "address"
        }
      ],
      "name": "isRegistered",
      "outputs": [
        {
          "name": "",
          "type": "bool"
        }
      ],
      "payable": false,
      "stateMutability": "view",
      "type": "function"
    },
    {
      "constant": true,
      "inputs": [
        {
          "name": "",
          "type": "address"
        }
      ],
      "name": "userToTotalCounter",
      "outputs": [
        {
          "name": "",
          "type": "uint256"
        }
      ],
      "payable": false,
      "stateMutability": "view",
      "type": "function"
    },
    {
      "constant": true,
      "inputs": [
        {
          "name": "",
          "type": "uint256"
        }
      ],
      "name": "colorBankForRound",
      "outputs": [
        {
          "name": "",
          "type": "uint256"
        }
      ],
      "payable": false,
      "stateMutability": "view",
      "type": "function"
    },
    {
      "constant": true,
      "inputs": [
        {
          "name": "",
          "type": "uint256"
        },
        {
          "name": "",
          "type": "uint256"
        }
      ],
      "name": "paintGenToEndTimeForColor",
      "outputs": [
        {
          "name": "",
          "type": "uint256"
        }
      ],
      "payable": false,
      "stateMutability": "view",
      "type": "function"
    },
    {
      "constant": false,
      "inputs": [],
      "name": "_claimBankPrizeForLastPlayedRound",
      "outputs": [],
      "payable": false,
      "stateMutability": "nonpayable",
      "type": "function"
    },
    {
      "constant": true,
      "inputs": [
        {
          "name": "",
          "type": "uint256"
        },
        {
          "name": "",
          "type": "uint256"
        }
      ],
      "name": "paintGenToAmountForColor",
      "outputs": [
        {
          "name": "",
          "type": "uint256"
        }
      ],
      "payable": false,
      "stateMutability": "view",
      "type": "function"
    },
    {
      "constant": true,
      "inputs": [
        {
          "name": "",
          "type": "address"
        },
        {
          "name": "",
          "type": "uint256"
        }
      ],
      "name": "userToCounterToTimestamp",
      "outputs": [
        {
          "name": "",
          "type": "uint256"
        }
      ],
      "payable": false,
      "stateMutability": "view",
      "type": "function"
    },
    {
      "constant": true,
      "inputs": [
        {
          "name": "",
          "type": "address"
        },
        {
          "name": "",
          "type": "uint256"
        }
      ],
      "name": "isPrizeDistributedForRound",
      "outputs": [
        {
          "name": "",
          "type": "bool"
        }
      ],
      "payable": false,
      "stateMutability": "view",
      "type": "function"
    },
    {
      "constant": true,
      "inputs": [
        {
          "name": "",
          "type": "address"
        },
        {
          "name": "",
          "type": "uint256"
        },
        {
          "name": "",
          "type": "uint256"
        }
      ],
      "name": "userToColorToCounterToTimestamp",
      "outputs": [
        {
          "name": "",
          "type": "uint256"
        }
      ],
      "payable": false,
      "stateMutability": "view",
      "type": "function"
    },
    {
      "constant": true,
      "inputs": [
        {
          "name": "",
          "type": "uint256"
        },
        {
          "name": "",
          "type": "address"
        }
      ],
      "name": "usersPaintDiscountForColor",
      "outputs": [
        {
          "name": "",
          "type": "uint256"
        }
      ],
      "payable": false,
      "stateMutability": "view",
      "type": "function"
    },
    {
      "constant": false,
      "inputs": [],
      "name": "claimColorBankPrizeForLastPlayedRound",
      "outputs": [],
      "payable": false,
      "stateMutability": "nonpayable",
      "type": "function"
    },
    {
      "constant": true,
      "inputs": [],
      "name": "maxPaintsInPool",
      "outputs": [
        {
          "name": "",
          "type": "uint256"
        }
      ],
      "payable": false,
      "stateMutability": "view",
      "type": "function"
    },
    {
      "constant": false,
      "inputs": [
        {
          "name": "newOwner",
          "type": "address"
        }
      ],
      "name": "transferOwnership",
      "outputs": [],
      "payable": false,
      "stateMutability": "nonpayable",
      "type": "function"
    },
    {
      "constant": true,
      "inputs": [
        {
          "name": "",
          "type": "uint256"
        }
      ],
      "name": "winnerColorForRound",
      "outputs": [
        {
          "name": "",
          "type": "uint256"
        }
      ],
      "payable": false,
      "stateMutability": "view",
      "type": "function"
    },
    {
      "constant": true,
      "inputs": [],
      "name": "dividendsBank",
      "outputs": [
        {
          "name": "",
          "type": "uint256"
        }
      ],
      "payable": false,
      "stateMutability": "view",
      "type": "function"
    },
    {
      "constant": true,
      "inputs": [
        {
          "name": "",
          "type": "address"
        }
      ],
      "name": "withdrawalBalances",
      "outputs": [
        {
          "name": "",
          "type": "uint256"
        }
      ],
      "payable": false,
      "stateMutability": "view",
      "type": "function"
    },
    {
      "inputs": [],
      "payable": true,
      "stateMutability": "payable",
      "type": "constructor"
    },
    {
      "anonymous": false,
      "inputs": [
        {
          "indexed": true,
          "name": "pixelId",
          "type": "uint256"
        },
        {
          "indexed": false,
          "name": "colorId",
          "type": "uint256"
        },
        {
          "indexed": true,
          "name": "painter",
          "type": "address"
        },
        {
          "indexed": true,
          "name": "round",
          "type": "uint256"
        }
      ],
      "name": "Paint",
      "type": "event"
    },
    {
      "anonymous": false,
      "inputs": [
        {
          "indexed": true,
          "name": "withdrawer",
          "type": "address"
        },
        {
          "indexed": true,
          "name": "currentTime",
          "type": "uint256"
        },
        {
          "indexed": true,
          "name": "amount",
          "type": "uint256"
        }
      ],
      "name": "DividendsWithdrawn",
      "type": "event"
    },
    {
      "anonymous": false,
      "inputs": [
        {
          "indexed": true,
          "name": "claimer",
          "type": "address"
        },
        {
          "indexed": true,
          "name": "currentTime",
          "type": "uint256"
        }
      ],
      "name": "DividendsClaimed",
      "type": "event"
    },
    {
      "anonymous": false,
      "inputs": [
        {
          "indexed": true,
          "name": "newCallPrice",
          "type": "uint256"
        }
      ],
      "name": "CallPriceUpdated",
      "type": "event"
    },
    {
      "anonymous": false,
      "inputs": [
        {
          "indexed": true,
          "name": "winner",
          "type": "address"
        },
        {
          "indexed": true,
          "name": "winnerColor",
          "type": "uint256"
        },
        {
          "indexed": true,
          "name": "currentRound",
          "type": "uint256"
        }
      ],
      "name": "ColorBankPlayed",
      "type": "event"
    },
    {
      "anonymous": false,
      "inputs": [
        {
          "indexed": true,
          "name": "winner",
          "type": "address"
        },
        {
          "indexed": true,
          "name": "round",
          "type": "uint256"
        },
        {
          "indexed": true,
          "name": "amount",
          "type": "uint256"
        }
      ],
      "name": "ColorBankPrizeDistributed",
      "type": "event"
    },
    {
      "anonymous": false,
      "inputs": [
        {
          "indexed": true,
          "name": "winner",
          "type": "address"
        },
        {
          "indexed": true,
          "name": "currentRound",
          "type": "uint256"
        }
      ],
      "name": "TimeBankPlayed",
      "type": "event"
    },
    {
      "anonymous": false,
      "inputs": [
        {
          "indexed": true,
          "name": "winner",
          "type": "address"
        },
        {
          "indexed": true,
          "name": "round",
          "type": "uint256"
        },
        {
          "indexed": true,
          "name": "amount",
          "type": "uint256"
        }
      ],
      "name": "TimeBankPrizeDistributed",
      "type": "event"
    },
    {
      "anonymous": false,
      "inputs": [
        {
          "indexed": true,
          "name": "previousOwner",
          "type": "address"
        },
        {
          "indexed": true,
          "name": "newOwner",
          "type": "address"
        }
      ],
      "name": "OwnershipTransferred",
      "type": "event"
    },
    {
      "constant": true,
      "inputs": [],
      "name": "currentTime",
      "outputs": [
        {
          "name": "",
          "type": "uint256"
        }
      ],
      "payable": false,
      "stateMutability": "view",
      "type": "function"
    },
    {
      "constant": false,
      "inputs": [
        {
          "name": "_color",
          "type": "uint256"
        },
        {
          "name": "_amount",
          "type": "uint256"
        }
      ],
      "name": "setPaintedPixelsAmount",
      "outputs": [],
      "payable": false,
      "stateMutability": "nonpayable",
      "type": "function"
    },
    {
      "constant": false,
      "inputs": [
        {
          "name": "_round",
          "type": "uint256"
        },
        {
          "name": "_colorBank",
          "type": "uint256"
        }
      ],
      "name": "setColorBankForRound",
      "outputs": [],
      "payable": false,
      "stateMutability": "nonpayable",
      "type": "function"
    },
    {
      "constant": false,
      "inputs": [
        {
          "name": "_round",
          "type": "uint256"
        },
        {
          "name": "_timeBank",
          "type": "uint256"
        }
      ],
      "name": "setTimeBankForRound",
      "outputs": [],
      "payable": false,
      "stateMutability": "nonpayable",
      "type": "function"
    },
    {
      "constant": false,
      "inputs": [
        {
          "name": "_color",
          "type": "uint256"
        }
      ],
      "name": "paint9998pixels",
      "outputs": [],
      "payable": false,
      "stateMutability": "nonpayable",
      "type": "function"
    },
    {
      "constant": false,
      "inputs": [],
      "name": "hardCode",
      "outputs": [],
      "payable": false,
      "stateMutability": "nonpayable",
      "type": "function"
    },
    {
      "constant": false,
      "inputs": [],
      "name": "hardCode2",
      "outputs": [],
      "payable": false,
      "stateMutability": "nonpayable",
      "type": "function"
    }
  ],
  "bytecode": "0x608060405273ca35b7d915458ef540ade6068dfe2f44e8fa733c603060006101000a81548173ffffffffffffffffffffffffffffffffffffffff021916908373ffffffffffffffffffffffffffffffffffffffff160217905550733e4d187df7d8a0820eaf4174d17b160157610912603160006101000a81548173ffffffffffffffffffffffffffffffffffffffff021916908373ffffffffffffffffffffffffffffffffffffffff160217905550600080600033601a60006101000a81548173ffffffffffffffffffffffffffffffffffffffff021916908373ffffffffffffffffffffffffffffffffffffffff160217905550601a60009054906101000a900473ffffffffffffffffffffffffffffffffffffffff1673ffffffffffffffffffffffffffffffffffffffff16600073ffffffffffffffffffffffffffffffffffffffff167f8be0079c531659141344cd1fd0a4f28419497f9722a3daafe3b4186f6b6457e060405160405180910390a36001602960003373ffffffffffffffffffffffffffffffffffffffff1673ffffffffffffffffffffffffffffffffffffffff16815260200190815260200160002060006101000a81548160ff021916908315150217905550600190505b6008811115156200024d5773bf0e4036bf968dd007f9b4a1bfda4e54c042f612602a600083815260200190815260200160002060006101000a81548173ffffffffffffffffffffffffffffffffffffffff021916908373ffffffffffffffffffffffffffffffffffffffff1602179055508080600101915050620001ce565b506127106025819055506001601981905550600190505b600381111515620004475760016022600083815260200190815260200160002081905550662386f26fc10000602360008381526020019081526020016000208190555060236000828152602001908152602001600020546024600083815260200190815260200160002081905550602554601e60008381526020019081526020016000206000602260008581526020019081526020016000205481526020019081526020016000208190555060016021600083815260200190815260200160002060006022600085815260200190815260200160002054815260200190815260200160002060006101000a81548160ff0219169083151502179055506000601d60006019548152602001908152602001600020541415620003bf574260206000838152602001908152602001600020600060016022600086815260200190815260200160002054038152602001908152602001600020819055505b42601f600083815260200190815260200160002060006022600085815260200190815260200160002054815260200190815260200160002081905550602554601e600083815260200190815260200160002060006022600085815260200190815260200160002054815260200190815260200160002081905550808060010191505062000264565b5060646025819055506001601981905550600190505b600381111515620006405760016022600083815260200190815260200160002081905550662386f26fc10000602360008381526020019081526020016000208190555060236000828152602001908152602001600020546024600083815260200190815260200160002081905550602554601e60008381526020019081526020016000206000602260008581526020019081526020016000205481526020019081526020016000208190555060016021600083815260200190815260200160002060006022600085815260200190815260200160002054815260200190815260200160002060006101000a81548160ff0219169083151502179055506000601d60006019548152602001908152602001600020541415620005b8574260206000838152602001908152602001600020600060016022600086815260200190815260200160002054038152602001908152602001600020819055505b42601f600083815260200190815260200160002060006022600085815260200190815260200160002054815260200190815260200160002081905550602554601e60008381526020019081526020016000206000602260008581526020019081526020016000205481526020019081526020016000208190555080806001019150506200045d565b5061537880620006516000396000f300608060405260043610610359576000357c0100000000000000000000000000000000000000000000000000000000900463ffffffff16806302fb786d1461035e57806306937b471461038b578063084028eb146103ec5780630ba36221146104435780630baaea441461048e5780630cf9603f146104fb578063102f9713146105465780631785f53c146105b35780631f90c6ed146105f65780632153fb011461065b57806323a43a8e146106c057806324d7806c1461070157806328361f571461075c57806328b290f91461079d5780632c6c1c41146107f457806334d34b9b1461085557806335d2084e1461086c5780633a173505146108a45780633c6dd013146108ef5780633d0d1a79146109305780633e3d1b6a1461097157806340aeff0e146109a8578063411b007e146109d357806346e3013514610a2a5780634b39173d14610a575780634c78e40114610aa257806355457fc114610ae35780635c25fd1314610b245780635d6ae1f414610b4f5780635f5d554c14610b7a578063628a71a314610bc9578063668038e014610c0a5780636730e3e014610c215780636d56bfbd14610c625780636f17eb4214610c8d5780637048027514610cce578063715018a614610d1157806373a9ee2614610d2857806379ecf37614610d695780637b68a8f014610dd65780638a19c8bc14610e175780638b9f804e14610e425780638da5cb5b14610e795780638f32d59b14610ed0578063954226dc14610eff578063a312072414610f16578063a645867e14610f61578063a888c2cd14610fc2578063a977e16814611048578063a9aa79fe1461109f578063abafb90e146110d6578063abd7c8ea1461115a578063b66e5e9e146111bb578063b8232d5d146111d2578063be6b41411461121d578063be7d622614611274578063c3c5a547146112b5578063c5098c8714611310578063c64a2e5614611367578063c957387b146113a8578063d18e81b3146113f3578063d4b291eb1461141e578063d5de47c714611435578063d62da0cd14611480578063d7be6332146114e1578063e5b38f8a14611546578063eaf1c910146115b1578063ebf0ba0314611612578063eef565da14611629578063f2fde38b14611654578063f49916f514611697578063f5f95b3b146116d8578063fb454d2914611703575b600080fd5b34801561036a57600080fd5b506103896004803603810190808035906020019092919050505061175a565b005b34801561039757600080fd5b506103d660048036038101908080359060200190929190803573ffffffffffffffffffffffffffffffffffffffff1690602001909291905050506117ac565b6040518082815260200191505060405180910390f35b3480156103f857600080fd5b5061042d600480360381019080803573ffffffffffffffffffffffffffffffffffffffff1690602001909291905050506117d1565b6040518082815260200191505060405180910390f35b34801561044f57600080fd5b5061047860048036038101908080359060200190929190803590602001909291905050506117e9565b6040518082815260200191505060405180910390f35b34801561049a57600080fd5b506104b96004803603810190808035906020019092919050505061180e565b604051808273ffffffffffffffffffffffffffffffffffffffff1673ffffffffffffffffffffffffffffffffffffffff16815260200191505060405180910390f35b34801561050757600080fd5b506105306004803603810190808035906020019092919080359060200190929190505050611841565b6040518082815260200191505060405180910390f35b34801561055257600080fd5b5061057160048036038101908080359060200190929190505050611866565b604051808273ffffffffffffffffffffffffffffffffffffffff1673ffffffffffffffffffffffffffffffffffffffff16815260200191505060405180910390f35b3480156105bf57600080fd5b506105f4600480360381019080803573ffffffffffffffffffffffffffffffffffffffff169060200190929190505050611899565b005b34801561060257600080fd5b5061064160048036038101908080359060200190929190803573ffffffffffffffffffffffffffffffffffffffff169060200190929190505050611907565b604051808215151515815260200191505060405180910390f35b34801561066757600080fd5b506106a660048036038101908080359060200190929190803573ffffffffffffffffffffffffffffffffffffffff169060200190929190505050611936565b604051808215151515815260200191505060405180910390f35b3480156106cc57600080fd5b506106eb60048036038101908080359060200190929190505050611965565b6040518082815260200191505060405180910390f35b34801561070d57600080fd5b50610742600480360381019080803573ffffffffffffffffffffffffffffffffffffffff16906020019092919050505061197d565b604051808215151515815260200191505060405180910390f35b34801561076857600080fd5b506107876004803603810190808035906020019092919050505061199d565b6040518082815260200191505060405180910390f35b3480156107a957600080fd5b506107de600480360381019080803573ffffffffffffffffffffffffffffffffffffffff1690602001909291905050506119b5565b6040518082815260200191505060405180910390f35b34801561080057600080fd5b5061083f60048036038101908080359060200190929190803573ffffffffffffffffffffffffffffffffffffffff1690602001909291905050506119cd565b6040518082815260200191505060405180910390f35b34801561086157600080fd5b5061086a6119f2565b005b6108a260048036038101908080359060200190820180359060200191909192939192939080359060200190929190505050611a66565b005b3480156108b057600080fd5b506108d96004803603810190808035906020019092919080359060200190929190505050611c9d565b6040518082815260200191505060405180910390f35b3480156108fb57600080fd5b5061091a60048036038101908080359060200190929190505050611cc2565b6040518082815260200191505060405180910390f35b34801561093c57600080fd5b5061095b60048036038101908080359060200190929190505050611cda565b6040518082815260200191505060405180910390f35b34801561097d57600080fd5b506109a66004803603810190808035906020019092919080359060200190929190505050611cf2565b005b3480156109b457600080fd5b506109bd611d0e565b6040518082815260200191505060405180910390f35b3480156109df57600080fd5b506109e8611d14565b604051808273ffffffffffffffffffffffffffffffffffffffff1673ffffffffffffffffffffffffffffffffffffffff16815260200191505060405180910390f35b348015610a3657600080fd5b50610a5560048036038101908080359060200190929190505050611d3a565b005b348015610a6357600080fd5b50610a8c6004803603810190808035906020019092919080359060200190929190505050611fe5565b6040518082815260200191505060405180910390f35b348015610aae57600080fd5b50610acd6004803603810190808035906020019092919050505061200a565b6040518082815260200191505060405180910390f35b348015610aef57600080fd5b50610b0e60048036038101908080359060200190929190505050612022565b6040518082815260200191505060405180910390f35b348015610b3057600080fd5b50610b3961203a565b6040518082815260200191505060405180910390f35b348015610b5b57600080fd5b50610b64612040565b6040518082815260200191505060405180910390f35b348015610b8657600080fd5b50610baf6004803603810190808035906020019092919080359060200190929190505050612046565b604051808215151515815260200191505060405180910390f35b348015610bd557600080fd5b50610bf460048036038101908080359060200190929190505050612075565b6040518082815260200191505060405180910390f35b348015610c1657600080fd5b50610c1f61208d565b005b348015610c2d57600080fd5b50610c4c600480360381019080803590602001909291905050506122e1565b6040518082815260200191505060405180910390f35b348015610c6e57600080fd5b50610c77612477565b6040518082815260200191505060405180910390f35b348015610c9957600080fd5b50610cb86004803603810190808035906020019092919050505061247d565b6040518082815260200191505060405180910390f35b348015610cda57600080fd5b50610d0f600480360381019080803573ffffffffffffffffffffffffffffffffffffffff169060200190929190505050612495565b005b348015610d1d57600080fd5b50610d26612503565b005b348015610d3457600080fd5b50610d53600480360381019080803590602001909291905050506125d7565b6040518082815260200191505060405180910390f35b348015610d7557600080fd5b50610d94600480360381019080803590602001909291905050506125ef565b604051808273ffffffffffffffffffffffffffffffffffffffff1673ffffffffffffffffffffffffffffffffffffffff16815260200191505060405180910390f35b348015610de257600080fd5b50610e0160048036038101908080359060200190929190505050612622565b6040518082815260200191505060405180910390f35b348015610e2357600080fd5b50610e2c612652565b6040518082815260200191505060405180910390f35b348015610e4e57600080fd5b50610e776004803603810190808035906020019092919080359060200190929190505050612658565b005b348015610e8557600080fd5b50610e8e612674565b604051808273ffffffffffffffffffffffffffffffffffffffff1673ffffffffffffffffffffffffffffffffffffffff16815260200191505060405180910390f35b348015610edc57600080fd5b50610ee561269e565b604051808215151515815260200191505060405180910390f35b348015610f0b57600080fd5b50610f146126f6565b005b348015610f2257600080fd5b50610f4b600480360381019080803590602001909291908035906020019092919050505061277c565b6040518082815260200191505060405180910390f35b348015610f6d57600080fd5b50610fac60048036038101908080359060200190929190803573ffffffffffffffffffffffffffffffffffffffff1690602001909291905050506127a1565b6040518082815260200191505060405180910390f35b348015610fce57600080fd5b50610fed600480360381019080803590602001909291905050506127c6565b604051808581526020018473ffffffffffffffffffffffffffffffffffffffff1673ffffffffffffffffffffffffffffffffffffffff1681526020018315151515815260200182815260200194505050505060405180910390f35b34801561105457600080fd5b5061105d612832565b604051808273ffffffffffffffffffffffffffffffffffffffff1673ffffffffffffffffffffffffffffffffffffffff16815260200191505060405180910390f35b3480156110ab57600080fd5b506110d46004803603810190808035906020019092919080359060200190929190505050612858565b005b3480156110e257600080fd5b506111446004803603810190808035906020019082018035906020019080806020026020016040519081016040528093929190818152602001838360200280828437820191505050505050919291929080359060200190929190505050612887565b6040518082815260200191505060405180910390f35b34801561116657600080fd5b506111a560048036038101908080359060200190929190803573ffffffffffffffffffffffffffffffffffffffff169060200190929190505050612a7a565b6040518082815260200191505060405180910390f35b3480156111c757600080fd5b506111d0612a9f565b005b3480156111de57600080fd5b506112076004803603810190808035906020019092919080359060200190929190505050612f79565b6040518082815260200191505060405180910390f35b34801561122957600080fd5b5061125e600480360381019080803573ffffffffffffffffffffffffffffffffffffffff169060200190929190505050612f9e565b6040518082815260200191505060405180910390f35b34801561128057600080fd5b5061129f60048036038101908080359060200190929190505050612fb6565b6040518082815260200191505060405180910390f35b3480156112c157600080fd5b506112f6600480360381019080803573ffffffffffffffffffffffffffffffffffffffff169060200190929190505050612fce565b604051808215151515815260200191505060405180910390f35b34801561131c57600080fd5b50611351600480360381019080803573ffffffffffffffffffffffffffffffffffffffff169060200190929190505050612fee565b6040518082815260200191505060405180910390f35b34801561137357600080fd5b5061139260048036038101908080359060200190929190505050613006565b6040518082815260200191505060405180910390f35b3480156113b457600080fd5b506113dd600480360381019080803590602001909291908035906020019092919050505061301e565b6040518082815260200191505060405180910390f35b3480156113ff57600080fd5b50611408613042565b6040518082815260200191505060405180910390f35b34801561142a57600080fd5b5061143361304a565b005b34801561144157600080fd5b5061146a6004803603810190808035906020019092919080359060200190929190505050613209565b6040518082815260200191505060405180910390f35b34801561148c57600080fd5b506114cb600480360381019080803573ffffffffffffffffffffffffffffffffffffffff1690602001909291908035906020019092919050505061322e565b6040518082815260200191505060405180910390f35b3480156114ed57600080fd5b5061152c600480360381019080803573ffffffffffffffffffffffffffffffffffffffff16906020019092919080359060200190929190505050613253565b604051808215151515815260200191505060405180910390f35b34801561155257600080fd5b5061159b600480360381019080803573ffffffffffffffffffffffffffffffffffffffff1690602001909291908035906020019092919080359060200190929190505050613282565b6040518082815260200191505060405180910390f35b3480156115bd57600080fd5b506115fc60048036038101908080359060200190929190803573ffffffffffffffffffffffffffffffffffffffff1690602001909291905050506132b4565b6040518082815260200191505060405180910390f35b34801561161e57600080fd5b506116276132d9565b005b34801561163557600080fd5b5061163e6138c4565b6040518082815260200191505060405180910390f35b34801561166057600080fd5b50611695600480360381019080803573ffffffffffffffffffffffffffffffffffffffff1690602001909291905050506138ca565b005b3480156116a357600080fd5b506116c2600480360381019080803590602001909291905050506138e9565b6040518082815260200191505060405180910390f35b3480156116e457600080fd5b506116ed613901565b6040518082815260200191505060405180910390f35b34801561170f57600080fd5b50611744600480360381019080803573ffffffffffffffffffffffffffffffffffffffff169060200190929190505050613907565b6040518082815260200191505060405180910390f35b61270e600360006019548152602001908152602001600020600083815260200190815260200160002081905550671bc16d674ec800006004600060195481526020019081526020016000208190555050565b6014602052816000526040600020602052806000526040600020600091509150505481565b601b6020528060005260406000206000915090505481565b600b602052816000526040600020602052806000526040600020600091509150505481565b602a6020528060005260406000206000915054906101000a900473ffffffffffffffffffffffffffffffffffffffff1681565b6003602052816000526040600020602052806000526040600020600091509150505481565b60156020528060005260406000206000915054906101000a900473ffffffffffffffffffffffffffffffffffffffff1681565b6118a161269e565b15156118ac57600080fd5b6000602960008373ffffffffffffffffffffffffffffffffffffffff1673ffffffffffffffffffffffffffffffffffffffff16815260200190815260200160002060006101000a81548160ff02191690831515021790555050565b60276020528160005260406000206020528060005260406000206000915091509054906101000a900460ff1681565b60176020528160005260406000206020528060005260406000206000915091509054906101000a900460ff1681565b600c6020528060005260406000206000915090505481565b60296020528060005260406000206000915054906101000a900460ff1681565b60226020528060005260406000206000915090505481565b60326020528060005260406000206000915090505481565b6026602052816000526040600020602052806000526040600020600091509150505481565b670de0b6b3a764000060066000601954815260200190815260200160002081905550670de0b6b3a76400006004600060195481526020019081526020016000208190555061270e60036000601954815260200190815260200160002060006002815260200190815260200160002081905550565b6000801515603460003373ffffffffffffffffffffffffffffffffffffffff1673ffffffffffffffffffffffffffffffffffffffff16815260200190815260200160002060009054906101000a900460ff1615151415611b35576001603460003373ffffffffffffffffffffffffffffffffffffffff1673ffffffffffffffffffffffffffffffffffffffff16815260200190815260200160002060006101000a81548160ff021916908315150217905550611b2e600160335461391f90919063ffffffff16565b6033819055505b611b6e84848080602002602001604051908101604052809392919081815260200183836020028082843782019150505050505083612887565b34141515611be4576040517f08c379a00000000000000000000000000000000000000000000000000000000081526004018080602001828103825260108152602001807f57726f6e672063616c6c2070726963650000000000000000000000000000000081525060200191505060405180910390fd5b6104b0600760006019548152602001908152602001600020544203118015611c22575060006007600060195481526020019081526020016000205414155b15611c3057611c2f613940565b5b600090505b83839050811015611c6b57611c5e8484838181101515611c5157fe5b9050602002013583613ca4565b8080600101915050611c35565b611c74826144e9565b611c7d82614684565b611c86826148c7565b611c8f826149f3565b611c9761304a565b50505050565b601f602052816000526040600020602052806000526040600020600091509150505481565b60236020528060005260406000206000915090505481565b60166020528060005260406000206000915090505481565b8060046000848152602001908152602001600020819055505050565b60335481565b603160009054906101000a900473ffffffffffffffffffffffffffffffffffffffff1681565b600080600060011515602960003373ffffffffffffffffffffffffffffffffffffffff1673ffffffffffffffffffffffffffffffffffffffff16815260200190815260200160002060009054906101000a900460ff161515141515611e07576040517f08c379a00000000000000000000000000000000000000000000000000000000081526004018080602001828103825260208152602001807f596f7520646f6e277420686176652061646d696e2070726976696c656775657381525060200191505060405180910390fd5b602f84815481101515611e1657fe5b906000526020600020906003020192508260010160149054906101000a900460ff16151515611e4457600080fd5b8260010160009054906101000a900473ffffffffffffffffffffffffffffffffffffffff169150602b60008373ffffffffffffffffffffffffffffffffffffffff1673ffffffffffffffffffffffffffffffffffffffff1681526020019081526020016000205490506000602b60008473ffffffffffffffffffffffffffffffffffffffff1673ffffffffffffffffffffffffffffffffffffffff168152602001908152602001600020819055508173ffffffffffffffffffffffffffffffffffffffff166108fc829081150290604051600060405180830381858888f19350505050158015611f38573d6000803e3d6000fd5b5042602c60008473ffffffffffffffffffffffffffffffffffffffff1673ffffffffffffffffffffffffffffffffffffffff1681526020019081526020016000208190555080428373ffffffffffffffffffffffffffffffffffffffff167f1a983dd8fc1bd566844e816cd39bafaebd6523281477df579d3252da34a251d960405160405180910390a460018360010160146101000a81548160ff02191690831515021790555050505050565b6002602052816000526040600020602052806000526040600020600091509150505481565b60066020528060005260406000206000915090505481565b600d6020528060005260406000206000915090505481565b602e5481565b60355481565b60216020528160005260406000206020528060005260406000206000915091509054906101000a900460ff1681565b60096020528060005260406000206000915090505481565b61209561530b565b6000602b60003373ffffffffffffffffffffffffffffffffffffffff1673ffffffffffffffffffffffffffffffffffffffff1681526020019081526020016000205414151515612173576040517f08c379a00000000000000000000000000000000000000000000000000000000081526004018080602001828103825260228152602001807f596f7572207769746864726177616c2062616c616e6365206973207a65726f2e81526020017f2e2e00000000000000000000000000000000000000000000000000000000000081525060400191505060405180910390fd5b602e5481600001818152505033816020019073ffffffffffffffffffffffffffffffffffffffff16908173ffffffffffffffffffffffffffffffffffffffff1681525050600081604001901515908115158152505042816060018181525050602f81908060018154018082558091505090600182039060005260206000209060030201600090919290919091506000820151816000015560208201518160010160006101000a81548173ffffffffffffffffffffffffffffffffffffffff021916908373ffffffffffffffffffffffffffffffffffffffff16021790555060408201518160010160146101000a81548160ff021916908315150217905550606082015181600201555050506122946001602e5461391f90919063ffffffff16565b602e81905550423373ffffffffffffffffffffffffffffffffffffffff167f16b8533c95f66ab8c192c98ddcf5031bcb3ee6f4022988bdadd57d3422da307360405160405180910390a350565b6000806000806000806000804296506201518042039550600e60008a815260200190815260200160002060003373ffffffffffffffffffffffffffffffffffffffff1673ffffffffffffffffffffffffffffffffffffffff1681526020019081526020016000205493508392505b60008311156123f557601060003373ffffffffffffffffffffffffffffffffffffffff1673ffffffffffffffffffffffffffffffffffffffff16815260200190815260200160002060008a8152602001908152602001600020600084815260200190815260200160002054915085821180156123cb5750868211155b156123e7576123e460018661391f90919063ffffffff16565b94505b82806001900393505061234f565b612466600b6000601954815260200190815260200160002060008b81526020019081526020016000205461245860056000601954815260200190815260200160002060008d81526020019081526020016000205488614b6690919063ffffffff16565b614ba490919063ffffffff16565b905080975050505050505050919050565b60365481565b60246020528060005260406000206000915090505481565b61249d61269e565b15156124a857600080fd5b6001602960008373ffffffffffffffffffffffffffffffffffffffff1673ffffffffffffffffffffffffffffffffffffffff16815260200190815260200160002060006101000a81548160ff02191690831515021790555050565b61250b61269e565b151561251657600080fd5b600073ffffffffffffffffffffffffffffffffffffffff16601a60009054906101000a900473ffffffffffffffffffffffffffffffffffffffff1673ffffffffffffffffffffffffffffffffffffffff167f8be0079c531659141344cd1fd0a4f28419497f9722a3daafe3b4186f6b6457e060405160405180910390a36000601a60006101000a81548173ffffffffffffffffffffffffffffffffffffffff021916908373ffffffffffffffffffffffffffffffffffffffff160217905550565b60076020528060005260406000206000915090505481565b60086020528060005260406000206000915054906101000a900473ffffffffffffffffffffffffffffffffffffffff1681565b60006001600060195481526020019081526020016000206000838152602001908152602001600020549050919050565b60195481565b8060066000848152602001908152602001600020819055505050565b6000601a60009054906101000a900473ffffffffffffffffffffffffffffffffffffffff16905090565b6000601a60009054906101000a900473ffffffffffffffffffffffffffffffffffffffff1673ffffffffffffffffffffffffffffffffffffffff163373ffffffffffffffffffffffffffffffffffffffff1614905090565b670de0b6b3a764000060066000601954815260200190815260200160002060008282540192505081905550670de0b6b3a76400006004600060195481526020019081526020016000206000828254019250508190555061270e60036000601954815260200190815260200160002060006002815260200190815260200160002081905550565b6005602052816000526040600020602052806000526040600020600091509150505481565b6013602052816000526040600020602052806000526040600020600091509150505481565b602f818154811015156127d557fe5b90600052602060002090600302016000915090508060000154908060010160009054906101000a900473ffffffffffffffffffffffffffffffffffffffff16908060010160149054906101000a900460ff16908060020154905084565b603060009054906101000a900473ffffffffffffffffffffffffffffffffffffffff1681565b806003600060195481526020019081526020016000206000848152602001908152602001600020819055505050565b600080600080600080600080602660008a815260200190815260200160002060003373ffffffffffffffffffffffffffffffffffffffff1673ffffffffffffffffffffffffffffffffffffffff168152602001908152602001600020549350602760008a815260200190815260200160002060003373ffffffffffffffffffffffffffffffffffffffff1673ffffffffffffffffffffffffffffffffffffffff16815260200190815260200160002060009054906101000a900460ff169150602860008a815260200190815260200160002060003373ffffffffffffffffffffffffffffffffffffffff1673ffffffffffffffffffffffffffffffffffffffff168152602001908152602001600020549550600090505b8951811015612a6a576129e360646129d588606403602460008e815260200190815260200160002054614b6690919063ffffffff16565b614ba490919063ffffffff16565b94506001151582151514156129fa57849650612a11565b602460008a81526020019081526020016000205496505b86830192508684019350670de0b6b3a764000084101515612a5d5760019150670de0b6b3a764000084811515612a4357fe5b049550678ac7230489e8000084101515612a5c57600a95505b5b808060010191505061299e565b8297505050505050505092915050565b600e602052816000526040600020602052806000526040600020600091509150505481565b6000806000806000806000601860003373ffffffffffffffffffffffffffffffffffffffff1673ffffffffffffffffffffffffffffffffffffffff16815260200190815260200160002054965060016016600089815260200190815260200160002054141515612b9d576040517f08c379a00000000000000000000000000000000000000000000000000000000081526004018080602001828103825260318152602001807f42616e6b206f662074696d6520776173206e6f7420706c6179656420696e207981526020017f6f7572206c61737420726f756e642e2e2e00000000000000000000000000000081525060400191505060405180910390fd5b600d6000888152602001908152602001600020549550600c6000888152602001908152602001600020549450600f60003373ffffffffffffffffffffffffffffffffffffffff1673ffffffffffffffffffffffffffffffffffffffff1681526020019081526020016000205492508291505b6000821115612c9757601160003373ffffffffffffffffffffffffffffffffffffffff1673ffffffffffffffffffffffffffffffffffffffff1681526020019081526020016000206000838152602001908152602001600020549050848110158015612c7b5750858111155b15612c895783806001019450505b818060019003925050612c0f565b612ce160008089815260200190815260200160002054612cd3600660008b81526020019081526020016000205487614b6690919063ffffffff16565b614ba490919063ffffffff16565b6014600089815260200190815260200160002060003373ffffffffffffffffffffffffffffffffffffffff1673ffffffffffffffffffffffffffffffffffffffff168152602001908152602001600020600082825401925050819055506014600088815260200190815260200160002060003373ffffffffffffffffffffffffffffffffffffffff1673ffffffffffffffffffffffffffffffffffffffff16815260200190815260200160002054601b60003373ffffffffffffffffffffffffffffffffffffffff1673ffffffffffffffffffffffffffffffffffffffff168152602001908152602001600020600082825401925050819055503373ffffffffffffffffffffffffffffffffffffffff166108fc601460008a815260200190815260200160002060003373ffffffffffffffffffffffffffffffffffffffff1673ffffffffffffffffffffffffffffffffffffffff168152602001908152602001600020549081150290604051600060405180830381858888f19350505050158015612e71573d6000803e3d6000fd5b506001601260003373ffffffffffffffffffffffffffffffffffffffff1673ffffffffffffffffffffffffffffffffffffffff168152602001908152602001600020600089815260200190815260200160002060006101000a81548160ff0219169083151502179055506013600088815260200190815260200160002060003373ffffffffffffffffffffffffffffffffffffffff1673ffffffffffffffffffffffffffffffffffffffff16815260200190815260200160002054873373ffffffffffffffffffffffffffffffffffffffff167f8981f49dce2918fc89fa176fbbd90d8546f51779930f7b458ca6a0d4856f878c60405160405180910390a450505050505050565b6001602052816000526040600020602052806000526040600020600091509150505481565b601c6020528060005260406000206000915090505481565b601d6020528060005260406000206000915090505481565b60346020528060005260406000206000915054906101000a900460ff1681565b600f6020528060005260406000206000915090505481565b60046020528060005260406000206000915090505481565b60208052816000526040600020602052806000526040600020600091509150505481565b600042905090565b6001603260003373ffffffffffffffffffffffffffffffffffffffff1673ffffffffffffffffffffffffffffffffffffffff16815260200190815260200160002054118015613139575060001515601260003373ffffffffffffffffffffffffffffffffffffffff1673ffffffffffffffffffffffffffffffffffffffff1681526020019081526020016000206000603260003373ffffffffffffffffffffffffffffffffffffffff1673ffffffffffffffffffffffffffffffffffffffff16815260200190815260200160002054815260200190815260200160002060009054906101000a900460ff161515145b1561320757600160166000603260003373ffffffffffffffffffffffffffffffffffffffff1673ffffffffffffffffffffffffffffffffffffffff1681526020019081526020016000205481526020019081526020016000205414156131a2576131a1612a9f565b5b600260166000603260003373ffffffffffffffffffffffffffffffffffffffff1673ffffffffffffffffffffffffffffffffffffffff168152602001908152602001600020548152602001908152602001600020541415613206576132056132d9565b5b5b565b601e602052816000526040600020602052806000526040600020600091509150505481565b6011602052816000526040600020602052806000526040600020600091509150505481565b60126020528160005260406000206020528060005260406000206000915091509054906101000a900460ff1681565b601060205282600052604060002060205281600052604060002060205280600052604060002060009250925050505481565b6028602052816000526040600020602052806000526040600020600091509150505481565b600080600080600080600080601860003373ffffffffffffffffffffffffffffffffffffffff1673ffffffffffffffffffffffffffffffffffffffff168152602001908152602001600020549750600260166000601860003373ffffffffffffffffffffffffffffffffffffffff1673ffffffffffffffffffffffffffffffffffffffff16815260200190815260200160002054815260200190815260200160002054141515613417576040517f08c379a00000000000000000000000000000000000000000000000000000000081526004018080602001828103825260328152602001807f42616e6b206f6620636f6c6f7220776173206e6f7420706c6179656420696e2081526020017f796f7572206c61737420726f756e642e2e2e000000000000000000000000000081525060400191505060405180910390fd5b600a6000898152602001908152602001600020549650600d60008981526020019081526020016000205495506001601860003373ffffffffffffffffffffffffffffffffffffffff1673ffffffffffffffffffffffffffffffffffffffff168152602001908152602001600020541180156134a8575060016016600060018b03815260200190815260200160002054145b156134ba5762015180860394506134d1565b600c60008981526020019081526020016000205494505b600e600088815260200190815260200160002060003373ffffffffffffffffffffffffffffffffffffffff1673ffffffffffffffffffffffffffffffffffffffff1681526020019081526020016000205492508291505b60008211156135cf57601060003373ffffffffffffffffffffffffffffffffffffffff1673ffffffffffffffffffffffffffffffffffffffff168152602001908152602001600020600088815260200190815260200160002060008381526020019081526020016000205490508481101580156135a55750858111155b156135c1576135be60018561391f90919063ffffffff16565b93505b818060019003925050613528565b61362b600b60008a815260200190815260200160002060008981526020019081526020016000205461361d600460008c81526020019081526020016000205487614b6690919063ffffffff16565b614ba490919063ffffffff16565b601360008a815260200190815260200160002060003373ffffffffffffffffffffffffffffffffffffffff1673ffffffffffffffffffffffffffffffffffffffff168152602001908152602001600020600082825401925050819055506013600089815260200190815260200160002060003373ffffffffffffffffffffffffffffffffffffffff1673ffffffffffffffffffffffffffffffffffffffff16815260200190815260200160002054601c60003373ffffffffffffffffffffffffffffffffffffffff1673ffffffffffffffffffffffffffffffffffffffff168152602001908152602001600020600082825401925050819055503373ffffffffffffffffffffffffffffffffffffffff166108fc601360008b815260200190815260200160002060003373ffffffffffffffffffffffffffffffffffffffff1673ffffffffffffffffffffffffffffffffffffffff168152602001908152602001600020549081150290604051600060405180830381858888f193505050501580156137bb573d6000803e3d6000fd5b506001601260003373ffffffffffffffffffffffffffffffffffffffff1673ffffffffffffffffffffffffffffffffffffffff16815260200190815260200160002060008a815260200190815260200160002060006101000a81548160ff0219169083151502179055506013600089815260200190815260200160002060003373ffffffffffffffffffffffffffffffffffffffff1673ffffffffffffffffffffffffffffffffffffffff16815260200190815260200160002054883373ffffffffffffffffffffffffffffffffffffffff167fff0e3cc6a8358bbcae69e6c859a508401151d25fe2552fc59ca6f31b37461b5060405160405180910390a45050505050505050565b60255481565b6138d261269e565b15156138dd57600080fd5b6138e681614bce565b50565b600a6020528060005260406000206000915090505481565b602d5481565b602b6020528060005260406000206000915090505481565b600080828401905083811015151561393657600080fd5b8091505092915050565b620151804203600c600060195481526020019081526020016000208190555042600d600060195481526020019081526020016000208190555060086000601954815260200190815260200160002060009054906101000a900473ffffffffffffffffffffffffffffffffffffffff1660156000601954815260200190815260200160002060006101000a81548173ffffffffffffffffffffffffffffffffffffffff021916908373ffffffffffffffffffffffffffffffffffffffff160217905550613a3e6064613a30602d60066000601954815260200190815260200160002054614b6690919063ffffffff16565b614ba490919063ffffffff16565b60368190555060156000601954815260200190815260200160002060009054906101000a900473ffffffffffffffffffffffffffffffffffffffff1673ffffffffffffffffffffffffffffffffffffffff166108fc6036549081150290604051600060405180830381858888f19350505050158015613ac1573d6000803e3d6000fd5b50600160166000601954815260200190815260200160002081905550613b06600a60066000601954815260200190815260200160002054614ba490919063ffffffff16565b60066000600160195401815260200190815260200160002081905550613b5e6064613b50602d60066000601954815260200190815260200160002054614b6690919063ffffffff16565b614ba490919063ffffffff16565b6006600060195481526020019081526020016000208190555060046000601954815260200190815260200160002054600460006001601954018152602001908152602001600020819055506000600460006019548152602001908152602001600020819055503373ffffffffffffffffffffffffffffffffffffffff166108fc349081150290604051600060405180830381858888f19350505050158015613c0a573d6000803e3d6000fd5b5060195460156000601954815260200190815260200160002060009054906101000a900473ffffffffffffffffffffffffffffffffffffffff1673ffffffffffffffffffffffffffffffffffffffff167f20f206bcab56eeef408295aaff8745adb98fed16823d758193e9449983d23fd260405160405180910390a3613c9c600160195461391f90919063ffffffff16565b601981905550565b6000806000613cb284614cca565b60008514151515613d51576040517f08c379a00000000000000000000000000000000000000000000000000000000081526004018080602001828103825260278152602001807f54686520706978656c2077697468206964203d203020646f6573206e6f74206581526020017f786973742e2e2e0000000000000000000000000000000000000000000000000081525060400191505060405180910390fd5b60008414151515613df0576040517f08c379a00000000000000000000000000000000000000000000000000000000081526004018080602001828103825260288152602001807f596f752063616e6e6f74207061696e7420746f207472616e73706172656e742081526020017f636f6c6f722e2e2e00000000000000000000000000000000000000000000000081525060400191505060405180910390fd5b8360016000601954815260200190815260200160002060008781526020019081526020016000205414151515613eb4576040517f08c379a00000000000000000000000000000000000000000000000000000000081526004018080602001828103825260268152602001807f5468697320706978656c20697320616c7265616479206f66207468697320636f81526020017f6c6f722e2e2e000000000000000000000000000000000000000000000000000081525060400191505060405180910390fd5b6001600060195481526020019081526020016000206000868152602001908152602001600020549250836001600060195481526020019081526020016000206000878152602001908152602001600020819055508260026000601954815260200190815260200160002060008781526020019081526020016000208190555042600760006019548152602001908152602001600020819055503360086000601954815260200190815260200160002060006101000a81548173ffffffffffffffffffffffffffffffffffffffff021916908373ffffffffffffffffffffffffffffffffffffffff160217905550600060036000601954815260200190815260200160002060008581526020019081526020016000205411156140355761400a6001600360006019548152602001908152602001600020600086815260200190815260200160002054614f6890919063ffffffff16565b6003600060195481526020019081526020016000206000858152602001908152602001600020819055505b61406f600160036000601954815260200190815260200160002060008781526020019081526020016000205461391f90919063ffffffff16565b600360006019548152602001908152602001600020600086815260200190815260200160002081905550600e600085815260200190815260200160002060003373ffffffffffffffffffffffffffffffffffffffff1673ffffffffffffffffffffffffffffffffffffffff16815260200190815260200160002054915061410060018361391f90919063ffffffff16565b915081600e600086815260200190815260200160002060003373ffffffffffffffffffffffffffffffffffffffff1673ffffffffffffffffffffffffffffffffffffffff16815260200190815260200160002081905550600f60003373ffffffffffffffffffffffffffffffffffffffff1673ffffffffffffffffffffffffffffffffffffffff1681526020019081526020016000205490506141ad60018261391f90919063ffffffff16565b905080600f60003373ffffffffffffffffffffffffffffffffffffffff1673ffffffffffffffffffffffffffffffffffffffff1681526020019081526020016000208190555042601060003373ffffffffffffffffffffffffffffffffffffffff1673ffffffffffffffffffffffffffffffffffffffff168152602001908152602001600020600086815260200190815260200160002060008481526020019081526020016000208190555042601160003373ffffffffffffffffffffffffffffffffffffffff1673ffffffffffffffffffffffffffffffffffffffff1681526020019081526020016000206000838152602001908152602001600020819055506142e86001600b6000601954815260200190815260200160002060008781526020019081526020016000205461391f90919063ffffffff16565b600b6000601954815260200190815260200160002060008681526020019081526020016000208190555061433b6001601d600060195481526020019081526020016000205461391f90919063ffffffff16565b601d600060195481526020019081526020016000208190555061439f6001601e600087815260200190815260200160002060006022600089815260200190815260200160002054815260200190815260200160002054614f6890919063ffffffff16565b601e60008681526020019081526020016000206000602260008881526020019081526020016000205481526020019081526020016000208190555084600960006019548152602001908152602001600020819055506019543373ffffffffffffffffffffffffffffffffffffffff16867f9fc3dbbdc37d009049a6fcc93e65a525d9d3dbb003222c5589680354313e5377876040518082815260200191505060405180910390a461271060036000601954815260200190815260200160002060008681526020019081526020016000205414156144995783600a6000601954815260200190815260200160002081905550614498614f89565b5b600160195403603260003373ffffffffffffffffffffffffffffffffffffffff1673ffffffffffffffffffffffffffffffffffffffff168152602001908152602001600020819055505050505050565b6145486145136064614505602834614b6690919063ffffffff16565b614ba490919063ffffffff16565b60056000601954815260200190815260200160002060008481526020019081526020016000205461391f90919063ffffffff16565b6005600060195481526020019081526020016000206000838152602001908152602001600020819055506145c061459c606461458e602834614b6690919063ffffffff16565b614ba490919063ffffffff16565b6004600060195481526020019081526020016000205461391f90919063ffffffff16565b6004600060195481526020019081526020016000208190555061462761460360646145f5602834614b6690919063ffffffff16565b614ba490919063ffffffff16565b6006600060195481526020019081526020016000205461391f90919063ffffffff16565b6006600060195481526020019081526020016000208190555061467b61466a606461465c601434614b6690919063ffffffff16565b614ba490919063ffffffff16565b602d5461391f90919063ffffffff16565b602d8190555050565b6147206146b060646146a26019602d54614b6690919063ffffffff16565b614ba490919063ffffffff16565b602b6000603160009054906101000a900473ffffffffffffffffffffffffffffffffffffffff1673ffffffffffffffffffffffffffffffffffffffff1673ffffffffffffffffffffffffffffffffffffffff1681526020019081526020016000205461391f90919063ffffffff16565b602b6000603160009054906101000a900473ffffffffffffffffffffffffffffffffffffffff1673ffffffffffffffffffffffffffffffffffffffff1673ffffffffffffffffffffffffffffffffffffffff168152602001908152602001600020819055506147ae60646147a06019602d54614b6690919063ffffffff16565b614ba490919063ffffffff16565b602b6000602a600085815260200190815260200160002060009054906101000a900473ffffffffffffffffffffffffffffffffffffffff1673ffffffffffffffffffffffffffffffffffffffff1673ffffffffffffffffffffffffffffffffffffffff1681526020019081526020016000206000828254019250508190555061485660646148486019602d54614b6690919063ffffffff16565b614ba490919063ffffffff16565b602b6000603060009054906101000a900473ffffffffffffffffffffffffffffffffffffffff1673ffffffffffffffffffffffffffffffffffffffff1673ffffffffffffffffffffffffffffffffffffffff1681526020019081526020016000206000828254019250508190555050565b346026600083815260200190815260200160002060003373ffffffffffffffffffffffffffffffffffffffff1673ffffffffffffffffffffffffffffffffffffffff16815260200190815260200160002060008282540192505081905550670de0b6b3a76400006026600083815260200190815260200160002060003373ffffffffffffffffffffffffffffffffffffffff1673ffffffffffffffffffffffffffffffffffffffff168152602001908152602001600020541015156149f05760016027600083815260200190815260200160002060003373ffffffffffffffffffffffffffffffffffffffff1673ffffffffffffffffffffffffffffffffffffffff16815260200190815260200160002060006101000a81548160ff0219169083151502179055505b50565b670de0b6b3a76400006026600083815260200190815260200160002060003373ffffffffffffffffffffffffffffffffffffffff1673ffffffffffffffffffffffffffffffffffffffff16815260200190815260200160002054811515614a5657fe5b046028600083815260200190815260200160002060003373ffffffffffffffffffffffffffffffffffffffff1673ffffffffffffffffffffffffffffffffffffffff16815260200190815260200160002081905550678ac7230489e800006026600083815260200190815260200160002060003373ffffffffffffffffffffffffffffffffffffffff1673ffffffffffffffffffffffffffffffffffffffff16815260200190815260200160002054101515614b6357600a6028600083815260200190815260200160002060003373ffffffffffffffffffffffffffffffffffffffff1673ffffffffffffffffffffffffffffffffffffffff168152602001908152602001600020819055505b50565b6000806000841415614b7b5760009150614b9d565b8284029050828482811515614b8c57fe5b04141515614b9957600080fd5b8091505b5092915050565b600080600083111515614bb657600080fd5b8284811515614bc157fe5b0490508091505092915050565b600073ffffffffffffffffffffffffffffffffffffffff168173ffffffffffffffffffffffffffffffffffffffff1614151515614c0a57600080fd5b8073ffffffffffffffffffffffffffffffffffffffff16601a60009054906101000a900473ffffffffffffffffffffffffffffffffffffffff1673ffffffffffffffffffffffffffffffffffffffff167f8be0079c531659141344cd1fd0a4f28419497f9722a3daafe3b4186f6b6457e060405160405180910390a380601a60006101000a81548173ffffffffffffffffffffffffffffffffffffffff021916908373ffffffffffffffffffffffffffffffffffffffff16021790555050565b600080605a60206000858152602001908152602001600020600060016022600088815260200190815260200160002054038152602001908152602001600020544203101515614f6357601e6000848152602001908152602001600020600060226000868152602001908152602001600020548152602001908152602001600020549150614d746001602260008681526020019081526020016000205461391f90919063ffffffff16565b90506000151560216000858152602001908152602001600020600083815260200190815260200160002060009054906101000a900460ff1615151415614e5857614dc982602554614f6890919063ffffffff16565b601e600085815260200190815260200160002060008381526020019081526020016000208190555042601f6000858152602001908152602001600020600083815260200190815260200160002081905550600160216000858152602001908152602001600020600083815260200190815260200160002060006101000a81548160ff0219169083151502179055505b6001601e6000858152602001908152602001600020600060226000878152602001908152602001600020548152602001908152602001600020541415614ede57614ea183615277565b4260206000858152602001908152602001600020600060226000878152602001908152602001600020548152602001908152602001600020819055505b6000601e6000858152602001908152602001600020600060226000878152602001908152602001600020548152602001908152602001600020541415614f6257602460008481526020019081526020016000205460236000858152602001908152602001600020819055508060226000858152602001908152602001600020819055505b5b505050565b600080838311151515614f7a57600080fd5b82840390508091505092915050565b620151804203600c600060195481526020019081526020016000208190555042600d600060195481526020019081526020016000208190555060086000601954815260200190815260200160002060009054906101000a900473ffffffffffffffffffffffffffffffffffffffff1660156000601954815260200190815260200160002060006101000a81548173ffffffffffffffffffffffffffffffffffffffff021916908373ffffffffffffffffffffffffffffffffffffffff1602179055506150876064615079603260046000601954815260200190815260200160002054614b6690919063ffffffff16565b614ba490919063ffffffff16565b60358190555060156000601954815260200190815260200160002060009054906101000a900473ffffffffffffffffffffffffffffffffffffffff1673ffffffffffffffffffffffffffffffffffffffff166108fc6035549081150290604051600060405180830381858888f1935050505015801561510a573d6000803e3d6000fd5b506002601660006019548152602001908152602001600020819055506151626064615154603260046000601954815260200190815260200160002054614b6690919063ffffffff16565b614ba490919063ffffffff16565b600460006019548152602001908152602001600020819055506006600060195481526020019081526020016000205460066000600160195401815260200190815260200160002081905550600060066000601954815260200190815260200160002081905550601954600a600060195481526020019081526020016000205460156000601954815260200190815260200160002060009054906101000a900473ffffffffffffffffffffffffffffffffffffffff1673ffffffffffffffffffffffffffffffffffffffff167f6ec93b9ea332e4928177b5b176be94d4c0e6dae6a28a0b810c5765928344f0f360405160405180910390a461526f600160195461391f90919063ffffffff16565b601981905550565b6152b160646152a360696023600086815260200190815260200160002054614b6690919063ffffffff16565b614ba490919063ffffffff16565b602460008381526020019081526020016000208190555060236000828152602001908152602001600020547f3bb22f778670a5901bff4d41c425858dac1ea6aeb048d40f959a6bc43f98506160405160405180910390a250565b60806040519081016040528060008152602001600073ffffffffffffffffffffffffffffffffffffffff1681526020016000151581526020016000815250905600a165627a7a72305820097bafa41486422acd0950843b784033c695dc300a35dfeafdd08cfc692b36a00029",
  "source": "pragma solidity ^0.4.24;\n\nimport \"./Game.sol\";\n\ncontract GameMock is Game {\n\n    constructor() payable {\n        maxPaintsInPool = 100; //10000 in production\n        currentRound = 1;\n        \n        for (uint i = 1; i <= 3; i++) {\n            currentPaintGenForColor[i] = 1;\n            callPriceForColor[i] = 0.01 ether;\n            nextCallPriceForColor[i] = callPriceForColor[i];\n            paintGenToAmountForColor[i][currentPaintGenForColor[i]] = maxPaintsInPool;\n            paintGenStartedForColor[i][currentPaintGenForColor[i]] = true;\n            \n            //       \n            if (totalPaintsForRound[currentRound] == 0) {\n                paintGenToEndTimeForColor[i][currentPaintGenForColor[i] - 1] = now;\n            }\n            \n            paintGenToStartTimeForColor[i][currentPaintGenForColor[i]] = now;\n            paintGenToAmountForColor[i][currentPaintGenForColor[i]] = maxPaintsInPool;\n        }\n    }\n\n    function currentTime() public view returns (uint) {\n        return now;\n    }\n\n    function setPaintedPixelsAmount(uint _color, uint _amount) external {\n        colorToPaintedPixelsAmountForRound[currentRound][_color] = _amount;\n    }\n\n    function setColorBankForRound(uint _round, uint _colorBank) external {\n        colorBankForRound[_round] = _colorBank;\n    }\n\n    function setTimeBankForRound(uint _round, uint _timeBank) external {\n        timeBankForRound[_round] = _timeBank;\n    }\n\n    function paint9998pixels(uint _color) external {\n        colorToPaintedPixelsAmountForRound[currentRound][_color] = 9998;\n        colorBankForRound[currentRound] = 2 ether; //just custom number\n    }\n\n    uint public colorBankPrizeOfLastPainter;\n\n    //    - overriden\n    function _distributeColorBank() internal { \n\n        //     (24  )\n        teamStartedTimeForRound[currentRound] = now - 24 hours;\n\n        //     ()\n        teamEndedTimeForRound[currentRound] = now;\n\n        //   -       \n        winnerOfRound[currentRound] = lastPainterForRound[currentRound];\n        \n        //Checks-Effects-Interactions pattern\n        colorBankPrizeOfLastPainter = colorBankForRound[currentRound].mul(50).div(100);\n    \n        // 50%     \n        winnerOfRound[currentRound].transfer(colorBankPrizeOfLastPainter);\n               \n        //    =   (2)\n        winnerBankForRound[currentRound] = 2;\n\n        //50%       \n        colorBankForRound[currentRound] = colorBankForRound[currentRound].mul(50).div(100); \n\n        //     \n        timeBankForRound[currentRound + 1] = timeBankForRound[currentRound];\n\n        //     \n        timeBankForRound[currentRound] = 0;\n\n        // -     (,   )\n        emit ColorBankPlayed(winnerOfRound[currentRound], winnerColorForRound[currentRound], currentRound);\n        \n        // \n        currentRound = currentRound.add(1); \n    }\n\n    //      (paint)\n    function _updateCallPrice(uint _color) private {\n        \n        //    5% (    )\n        nextCallPriceForColor[_color] = callPriceForColor[_color].mul(105).div(100);\n        \n        //   ,     paint \n        emit CallPriceUpdated(callPriceForColor[_color]);\n    }\n\n    //   \n    function _fillPaintsPool(uint _color) internal {\n        \n        //      \n        if (now - paintGenToEndTimeForColor[_color][currentPaintGenForColor[_color] - 1] >= 1.5 minutes) { \n            \n            //    \n            uint paintsRemain = paintGenToAmountForColor[_color][currentPaintGenForColor[_color]]; \n            \n            //  \n            uint nextPaintGen = currentPaintGenForColor[_color].add(1); \n            \n            //     .           \n            if (paintGenStartedForColor[_color][nextPaintGen] == false) {\n                \n                //       \n                paintGenToAmountForColor[_color][nextPaintGen] = maxPaintsInPool.sub(paintsRemain); \n                \n                //   \n                paintGenToStartTimeForColor[_color][nextPaintGen] = now; \n\n                paintGenStartedForColor[_color][nextPaintGen] = true;\n            }\n            \n            if (paintGenToAmountForColor[_color][currentPaintGenForColor[_color]] == 1) {\n                \n                //      \n                _updateCallPrice(_color);\n                \n                //    \n                paintGenToEndTimeForColor[_color][currentPaintGenForColor[_color]] = now;\n            }\n               \n            //      \n            if (paintGenToAmountForColor[_color][currentPaintGenForColor[_color]] == 0) {\n                \n                //     \n                callPriceForColor[_color] = nextCallPriceForColor[_color];\n\n                //     \n                currentPaintGenForColor[_color] = nextPaintGen;\n            }\n        }\n    }\n\n    uint public timeBankPrizeOfLastPainter;\n\n    //   \n    function _distributeTimeBank() internal  {\n\n        //    (24  )\n        teamStartedTimeForRound[currentRound] = now - 24 hours;\n\n        //     ()\n        teamEndedTimeForRound[currentRound] = now;\n\n        //   -       \n        winnerOfRound[currentRound] = lastPainterForRound[currentRound];\n        \n         //Checks-Effects-Interactions pattern\n        timeBankPrizeOfLastPainter = timeBankForRound[currentRound].mul(45).div(100);\n\n        // 45%     \n        winnerOfRound[currentRound].transfer(timeBankPrizeOfLastPainter);\n                \n        //    =   (1)\n        winnerBankForRound[currentRound] = 1; \n\n        //10%      \n        timeBankForRound[currentRound + 1] = timeBankForRound[currentRound].div(10); \n        \n        //45%        \n        timeBankForRound[currentRound] = timeBankForRound[currentRound].mul(45).div(100); \n\n        //     \n        colorBankForRound[currentRound + 1] = colorBankForRound[currentRound]; \n\n        //     \n        colorBankForRound[currentRound] = 0; \n\n        //   ,         \n        msg.sender.transfer(msg.value); \n\n        // -     (, )\n        emit TimeBankPlayed(winnerOfRound[currentRound], currentRound);\n        \n        // \n        currentRound = currentRound.add(1); \n    }\n\n    function hardCode() external {\n        timeBankForRound[currentRound] = 1 ether;\n        colorBankForRound[currentRound] = 1 ether;\n        colorToPaintedPixelsAmountForRound[currentRound][2] = 9998;\n    }\n\n    function hardCode2() external {\n        timeBankForRound[currentRound] += 1 ether;\n        colorBankForRound[currentRound] += 1 ether;\n        colorToPaintedPixelsAmountForRound[currentRound][2] = 9998;\n    }\n\n}",
  "sourcePath": "/Users/Amir/last-pixel-contracts/contracts/GameMock.sol",
  "compiler": {
    "name": "solc",
    "version": "0.4.24+commit.e67f0147.Emscripten.clang"
  },
  "schemaVersion": "2.0.1",
  "updatedAt": "2018-12-15T17:28:12.470Z"
}