{
  "contractName": "GameMock",
  "abi": [
    {
      "constant": true,
      "inputs": [],
      "name": "isGamePaused",
      "outputs": [
        {
          "name": "",
          "type": "bool"
        }
      ],
      "payable": false,
      "stateMutability": "view",
      "type": "function"
    },
    {
      "constant": true,
      "inputs": [
        {
          "name": "",
          "type": "uint256"
        },
        {
          "name": "",
          "type": "address"
        }
      ],
      "name": "isInTBT",
      "outputs": [
        {
          "name": "",
          "type": "bool"
        }
      ],
      "payable": false,
      "stateMutability": "view",
      "type": "function"
    },
    {
      "constant": true,
      "inputs": [
        {
          "name": "",
          "type": "bytes32"
        }
      ],
      "name": "refLinkToUser",
      "outputs": [
        {
          "name": "",
          "type": "address"
        }
      ],
      "payable": false,
      "stateMutability": "view",
      "type": "function"
    },
    {
      "constant": true,
      "inputs": [
        {
          "name": "",
          "type": "uint256"
        },
        {
          "name": "",
          "type": "uint256"
        }
      ],
      "name": "colorToTotalPaintsForRound",
      "outputs": [
        {
          "name": "",
          "type": "uint256"
        }
      ],
      "payable": false,
      "stateMutability": "view",
      "type": "function"
    },
    {
      "constant": true,
      "inputs": [
        {
          "name": "",
          "type": "uint256"
        }
      ],
      "name": "ownerOfColor",
      "outputs": [
        {
          "name": "",
          "type": "address"
        }
      ],
      "payable": false,
      "stateMutability": "view",
      "type": "function"
    },
    {
      "constant": true,
      "inputs": [
        {
          "name": "",
          "type": "uint256"
        },
        {
          "name": "",
          "type": "uint256"
        }
      ],
      "name": "colorToPaintedPixelsAmountForRound",
      "outputs": [
        {
          "name": "",
          "type": "uint256"
        }
      ],
      "payable": false,
      "stateMutability": "view",
      "type": "function"
    },
    {
      "constant": false,
      "inputs": [
        {
          "name": "_pixels",
          "type": "uint256[]"
        },
        {
          "name": "_color",
          "type": "uint256"
        },
        {
          "name": "_refLink",
          "type": "string"
        }
      ],
      "name": "paint",
      "outputs": [],
      "payable": true,
      "stateMutability": "payable",
      "type": "function"
    },
    {
      "constant": true,
      "inputs": [],
      "name": "tbIteration",
      "outputs": [
        {
          "name": "",
          "type": "uint256"
        }
      ],
      "payable": false,
      "stateMutability": "view",
      "type": "function"
    },
    {
      "constant": true,
      "inputs": [
        {
          "name": "",
          "type": "uint256"
        }
      ],
      "name": "winnerOfRound",
      "outputs": [
        {
          "name": "",
          "type": "address"
        }
      ],
      "payable": false,
      "stateMutability": "view",
      "type": "function"
    },
    {
      "constant": true,
      "inputs": [
        {
          "name": "",
          "type": "address"
        }
      ],
      "name": "hasReferrer",
      "outputs": [
        {
          "name": "",
          "type": "bool"
        }
      ],
      "payable": false,
      "stateMutability": "view",
      "type": "function"
    },
    {
      "constant": true,
      "inputs": [
        {
          "name": "",
          "type": "address"
        }
      ],
      "name": "isRegisteredUser",
      "outputs": [
        {
          "name": "",
          "type": "bool"
        }
      ],
      "payable": false,
      "stateMutability": "view",
      "type": "function"
    },
    {
      "constant": true,
      "inputs": [
        {
          "name": "",
          "type": "uint256"
        },
        {
          "name": "",
          "type": "address"
        }
      ],
      "name": "hasPaintDiscountForColor",
      "outputs": [
        {
          "name": "",
          "type": "bool"
        }
      ],
      "payable": false,
      "stateMutability": "view",
      "type": "function"
    },
    {
      "constant": true,
      "inputs": [
        {
          "name": "",
          "type": "address"
        }
      ],
      "name": "isAdmin",
      "outputs": [
        {
          "name": "",
          "type": "bool"
        }
      ],
      "payable": false,
      "stateMutability": "view",
      "type": "function"
    },
    {
      "constant": true,
      "inputs": [
        {
          "name": "",
          "type": "uint256"
        }
      ],
      "name": "currentPaintGenForColor",
      "outputs": [
        {
          "name": "",
          "type": "uint256"
        }
      ],
      "payable": false,
      "stateMutability": "view",
      "type": "function"
    },
    {
      "constant": true,
      "inputs": [
        {
          "name": "",
          "type": "address"
        }
      ],
      "name": "lastPlayedRound",
      "outputs": [
        {
          "name": "",
          "type": "uint256"
        }
      ],
      "payable": false,
      "stateMutability": "view",
      "type": "function"
    },
    {
      "constant": true,
      "inputs": [
        {
          "name": "",
          "type": "uint256"
        },
        {
          "name": "",
          "type": "address"
        }
      ],
      "name": "moneySpentByUserForColor",
      "outputs": [
        {
          "name": "",
          "type": "uint256"
        }
      ],
      "payable": false,
      "stateMutability": "view",
      "type": "function"
    },
    {
      "constant": true,
      "inputs": [
        {
          "name": "",
          "type": "uint256"
        },
        {
          "name": "",
          "type": "uint256"
        }
      ],
      "name": "tbTeam",
      "outputs": [
        {
          "name": "",
          "type": "address"
        }
      ],
      "payable": false,
      "stateMutability": "view",
      "type": "function"
    },
    {
      "constant": true,
      "inputs": [
        {
          "name": "",
          "type": "uint256"
        },
        {
          "name": "",
          "type": "address"
        }
      ],
      "name": "painterToTBP",
      "outputs": [
        {
          "name": "",
          "type": "uint256"
        }
      ],
      "payable": false,
      "stateMutability": "view",
      "type": "function"
    },
    {
      "constant": true,
      "inputs": [
        {
          "name": "",
          "type": "uint256"
        },
        {
          "name": "",
          "type": "uint256"
        }
      ],
      "name": "paintGenToStartTimeForColor",
      "outputs": [
        {
          "name": "",
          "type": "uint256"
        }
      ],
      "payable": false,
      "stateMutability": "view",
      "type": "function"
    },
    {
      "constant": true,
      "inputs": [
        {
          "name": "",
          "type": "uint256"
        }
      ],
      "name": "callPriceForColor",
      "outputs": [
        {
          "name": "",
          "type": "uint256"
        }
      ],
      "payable": false,
      "stateMutability": "view",
      "type": "function"
    },
    {
      "constant": true,
      "inputs": [
        {
          "name": "",
          "type": "uint256"
        },
        {
          "name": "",
          "type": "address"
        }
      ],
      "name": "painterToCBP",
      "outputs": [
        {
          "name": "",
          "type": "uint256"
        }
      ],
      "payable": false,
      "stateMutability": "view",
      "type": "function"
    },
    {
      "constant": true,
      "inputs": [
        {
          "name": "",
          "type": "uint256"
        }
      ],
      "name": "winnerBankForRound",
      "outputs": [
        {
          "name": "",
          "type": "uint256"
        }
      ],
      "payable": false,
      "stateMutability": "view",
      "type": "function"
    },
    {
      "constant": true,
      "inputs": [],
      "name": "paintsCounter",
      "outputs": [
        {
          "name": "",
          "type": "uint256"
        }
      ],
      "payable": false,
      "stateMutability": "view",
      "type": "function"
    },
    {
      "constant": true,
      "inputs": [],
      "name": "founders",
      "outputs": [
        {
          "name": "",
          "type": "address"
        }
      ],
      "payable": false,
      "stateMutability": "view",
      "type": "function"
    },
    {
      "constant": true,
      "inputs": [
        {
          "name": "",
          "type": "address"
        }
      ],
      "name": "newUserToCounter",
      "outputs": [
        {
          "name": "",
          "type": "uint256"
        }
      ],
      "payable": false,
      "stateMutability": "view",
      "type": "function"
    },
    {
      "constant": true,
      "inputs": [
        {
          "name": "",
          "type": "uint256"
        },
        {
          "name": "",
          "type": "uint256"
        }
      ],
      "name": "counterToPainterForColor",
      "outputs": [
        {
          "name": "",
          "type": "address"
        }
      ],
      "payable": false,
      "stateMutability": "view",
      "type": "function"
    },
    {
      "constant": true,
      "inputs": [
        {
          "name": "",
          "type": "uint256"
        },
        {
          "name": "",
          "type": "uint256"
        }
      ],
      "name": "pixelToOldColorForRound",
      "outputs": [
        {
          "name": "",
          "type": "uint256"
        }
      ],
      "payable": false,
      "stateMutability": "view",
      "type": "function"
    },
    {
      "constant": true,
      "inputs": [
        {
          "name": "",
          "type": "uint256"
        }
      ],
      "name": "isTBPTransfered",
      "outputs": [
        {
          "name": "",
          "type": "bool"
        }
      ],
      "payable": false,
      "stateMutability": "view",
      "type": "function"
    },
    {
      "constant": true,
      "inputs": [
        {
          "name": "",
          "type": "uint256"
        }
      ],
      "name": "timeBankForRound",
      "outputs": [
        {
          "name": "",
          "type": "uint256"
        }
      ],
      "payable": false,
      "stateMutability": "view",
      "type": "function"
    },
    {
      "constant": true,
      "inputs": [
        {
          "name": "",
          "type": "address"
        }
      ],
      "name": "userToRefLink",
      "outputs": [
        {
          "name": "",
          "type": "string"
        }
      ],
      "payable": false,
      "stateMutability": "view",
      "type": "function"
    },
    {
      "constant": true,
      "inputs": [],
      "name": "claimId",
      "outputs": [
        {
          "name": "",
          "type": "uint256"
        }
      ],
      "payable": false,
      "stateMutability": "view",
      "type": "function"
    },
    {
      "constant": true,
      "inputs": [
        {
          "name": "",
          "type": "uint256"
        },
        {
          "name": "",
          "type": "uint256"
        }
      ],
      "name": "cbTeam",
      "outputs": [
        {
          "name": "",
          "type": "address"
        }
      ],
      "payable": false,
      "stateMutability": "view",
      "type": "function"
    },
    {
      "constant": true,
      "inputs": [
        {
          "name": "",
          "type": "uint256"
        },
        {
          "name": "",
          "type": "uint256"
        }
      ],
      "name": "paintGenStartedForColor",
      "outputs": [
        {
          "name": "",
          "type": "bool"
        }
      ],
      "payable": false,
      "stateMutability": "view",
      "type": "function"
    },
    {
      "constant": true,
      "inputs": [
        {
          "name": "",
          "type": "uint256"
        }
      ],
      "name": "lastPaintedPixelForRound",
      "outputs": [
        {
          "name": "",
          "type": "uint256"
        }
      ],
      "payable": false,
      "stateMutability": "view",
      "type": "function"
    },
    {
      "constant": true,
      "inputs": [
        {
          "name": "",
          "type": "uint256"
        }
      ],
      "name": "nextCallPriceForColor",
      "outputs": [
        {
          "name": "",
          "type": "uint256"
        }
      ],
      "payable": false,
      "stateMutability": "view",
      "type": "function"
    },
    {
      "constant": false,
      "inputs": [],
      "name": "renounceOwnership",
      "outputs": [],
      "payable": false,
      "stateMutability": "nonpayable",
      "type": "function"
    },
    {
      "constant": true,
      "inputs": [
        {
          "name": "",
          "type": "uint256"
        }
      ],
      "name": "lastPaintTimeForRound",
      "outputs": [
        {
          "name": "",
          "type": "uint256"
        }
      ],
      "payable": false,
      "stateMutability": "view",
      "type": "function"
    },
    {
      "constant": true,
      "inputs": [
        {
          "name": "",
          "type": "uint256"
        }
      ],
      "name": "lastPainterForRound",
      "outputs": [
        {
          "name": "",
          "type": "address"
        }
      ],
      "payable": false,
      "stateMutability": "view",
      "type": "function"
    },
    {
      "constant": true,
      "inputs": [
        {
          "name": "_pixel",
          "type": "uint256"
        }
      ],
      "name": "getPixelColor",
      "outputs": [
        {
          "name": "",
          "type": "uint256"
        }
      ],
      "payable": false,
      "stateMutability": "view",
      "type": "function"
    },
    {
      "constant": true,
      "inputs": [
        {
          "name": "",
          "type": "address"
        }
      ],
      "name": "hasRefLink",
      "outputs": [
        {
          "name": "",
          "type": "bool"
        }
      ],
      "payable": false,
      "stateMutability": "view",
      "type": "function"
    },
    {
      "constant": true,
      "inputs": [
        {
          "name": "",
          "type": "address"
        },
        {
          "name": "",
          "type": "uint256"
        }
      ],
      "name": "referrerToReferrals",
      "outputs": [
        {
          "name": "",
          "type": "address"
        }
      ],
      "payable": false,
      "stateMutability": "view",
      "type": "function"
    },
    {
      "constant": true,
      "inputs": [],
      "name": "currentRound",
      "outputs": [
        {
          "name": "",
          "type": "uint256"
        }
      ],
      "payable": false,
      "stateMutability": "view",
      "type": "function"
    },
    {
      "constant": true,
      "inputs": [],
      "name": "owner",
      "outputs": [
        {
          "name": "",
          "type": "address"
        }
      ],
      "payable": false,
      "stateMutability": "view",
      "type": "function"
    },
    {
      "constant": true,
      "inputs": [
        {
          "name": "",
          "type": "uint256"
        }
      ],
      "name": "paintsCounterForColor",
      "outputs": [
        {
          "name": "",
          "type": "uint256"
        }
      ],
      "payable": false,
      "stateMutability": "view",
      "type": "function"
    },
    {
      "constant": true,
      "inputs": [],
      "name": "isOwner",
      "outputs": [
        {
          "name": "",
          "type": "bool"
        }
      ],
      "payable": false,
      "stateMutability": "view",
      "type": "function"
    },
    {
      "constant": true,
      "inputs": [
        {
          "name": "",
          "type": "uint256"
        },
        {
          "name": "",
          "type": "uint256"
        }
      ],
      "name": "pixelToPaintTimeForRound",
      "outputs": [
        {
          "name": "",
          "type": "uint256"
        }
      ],
      "payable": false,
      "stateMutability": "view",
      "type": "function"
    },
    {
      "constant": true,
      "inputs": [
        {
          "name": "",
          "type": "uint256"
        },
        {
          "name": "",
          "type": "uint256"
        }
      ],
      "name": "colorBankToColorForRound",
      "outputs": [
        {
          "name": "",
          "type": "uint256"
        }
      ],
      "payable": false,
      "stateMutability": "view",
      "type": "function"
    },
    {
      "constant": true,
      "inputs": [
        {
          "name": "",
          "type": "uint256"
        }
      ],
      "name": "claims",
      "outputs": [
        {
          "name": "id",
          "type": "uint256"
        },
        {
          "name": "claimer",
          "type": "address"
        },
        {
          "name": "isResolved",
          "type": "bool"
        },
        {
          "name": "timestamp",
          "type": "uint256"
        }
      ],
      "payable": false,
      "stateMutability": "view",
      "type": "function"
    },
    {
      "constant": true,
      "inputs": [],
      "name": "ownerOfPixel",
      "outputs": [
        {
          "name": "",
          "type": "address"
        }
      ],
      "payable": false,
      "stateMutability": "view",
      "type": "function"
    },
    {
      "constant": true,
      "inputs": [
        {
          "name": "",
          "type": "uint256"
        },
        {
          "name": "",
          "type": "address"
        }
      ],
      "name": "isInCBT",
      "outputs": [
        {
          "name": "",
          "type": "bool"
        }
      ],
      "payable": false,
      "stateMutability": "view",
      "type": "function"
    },
    {
      "constant": true,
      "inputs": [
        {
          "name": "_pixels",
          "type": "uint256[]"
        },
        {
          "name": "_color",
          "type": "uint256"
        }
      ],
      "name": "estimateCallPrice",
      "outputs": [
        {
          "name": "totalCallPrice",
          "type": "uint256"
        }
      ],
      "payable": false,
      "stateMutability": "view",
      "type": "function"
    },
    {
      "constant": true,
      "inputs": [
        {
          "name": "",
          "type": "uint256"
        }
      ],
      "name": "counterToPainter",
      "outputs": [
        {
          "name": "",
          "type": "address"
        }
      ],
      "payable": false,
      "stateMutability": "view",
      "type": "function"
    },
    {
      "constant": true,
      "inputs": [
        {
          "name": "",
          "type": "uint256"
        },
        {
          "name": "",
          "type": "address"
        }
      ],
      "name": "timeBankShare",
      "outputs": [
        {
          "name": "",
          "type": "uint256"
        }
      ],
      "payable": false,
      "stateMutability": "view",
      "type": "function"
    },
    {
      "constant": true,
      "inputs": [
        {
          "name": "",
          "type": "uint256"
        },
        {
          "name": "",
          "type": "uint256"
        },
        {
          "name": "",
          "type": "address"
        }
      ],
      "name": "colorBankShare",
      "outputs": [
        {
          "name": "",
          "type": "uint256"
        }
      ],
      "payable": false,
      "stateMutability": "view",
      "type": "function"
    },
    {
      "constant": true,
      "inputs": [
        {
          "name": "",
          "type": "uint256"
        },
        {
          "name": "",
          "type": "uint256"
        }
      ],
      "name": "pixelToColorForRound",
      "outputs": [
        {
          "name": "",
          "type": "uint256"
        }
      ],
      "payable": false,
      "stateMutability": "view",
      "type": "function"
    },
    {
      "constant": true,
      "inputs": [
        {
          "name": "",
          "type": "uint256"
        }
      ],
      "name": "totalPaintsForRound",
      "outputs": [
        {
          "name": "",
          "type": "uint256"
        }
      ],
      "payable": false,
      "stateMutability": "view",
      "type": "function"
    },
    {
      "constant": true,
      "inputs": [
        {
          "name": "",
          "type": "uint256"
        }
      ],
      "name": "colorBankForRound",
      "outputs": [
        {
          "name": "",
          "type": "uint256"
        }
      ],
      "payable": false,
      "stateMutability": "view",
      "type": "function"
    },
    {
      "constant": true,
      "inputs": [
        {
          "name": "",
          "type": "uint256"
        },
        {
          "name": "",
          "type": "uint256"
        }
      ],
      "name": "paintGenToEndTimeForColor",
      "outputs": [
        {
          "name": "",
          "type": "uint256"
        }
      ],
      "payable": false,
      "stateMutability": "view",
      "type": "function"
    },
    {
      "constant": true,
      "inputs": [],
      "name": "uniqueUsersCount",
      "outputs": [
        {
          "name": "",
          "type": "uint256"
        }
      ],
      "payable": false,
      "stateMutability": "view",
      "type": "function"
    },
    {
      "constant": true,
      "inputs": [
        {
          "name": "",
          "type": "bytes32"
        }
      ],
      "name": "refLinkExists",
      "outputs": [
        {
          "name": "",
          "type": "bool"
        }
      ],
      "payable": false,
      "stateMutability": "view",
      "type": "function"
    },
    {
      "constant": true,
      "inputs": [
        {
          "name": "",
          "type": "uint256"
        },
        {
          "name": "",
          "type": "uint256"
        }
      ],
      "name": "paintGenToAmountForColor",
      "outputs": [
        {
          "name": "",
          "type": "uint256"
        }
      ],
      "payable": false,
      "stateMutability": "view",
      "type": "function"
    },
    {
      "constant": true,
      "inputs": [
        {
          "name": "",
          "type": "uint256"
        }
      ],
      "name": "isCBPTransfered",
      "outputs": [
        {
          "name": "",
          "type": "bool"
        }
      ],
      "payable": false,
      "stateMutability": "view",
      "type": "function"
    },
    {
      "constant": true,
      "inputs": [
        {
          "name": "",
          "type": "address"
        }
      ],
      "name": "referralToReferrer",
      "outputs": [
        {
          "name": "",
          "type": "address"
        }
      ],
      "payable": false,
      "stateMutability": "view",
      "type": "function"
    },
    {
      "constant": true,
      "inputs": [
        {
          "name": "",
          "type": "uint256"
        },
        {
          "name": "",
          "type": "address"
        }
      ],
      "name": "usersPaintDiscountForColor",
      "outputs": [
        {
          "name": "",
          "type": "uint256"
        }
      ],
      "payable": false,
      "stateMutability": "view",
      "type": "function"
    },
    {
      "constant": true,
      "inputs": [],
      "name": "maxPaintsInPool",
      "outputs": [
        {
          "name": "",
          "type": "uint256"
        }
      ],
      "payable": false,
      "stateMutability": "view",
      "type": "function"
    },
    {
      "constant": false,
      "inputs": [
        {
          "name": "newOwner",
          "type": "address"
        }
      ],
      "name": "transferOwnership",
      "outputs": [],
      "payable": false,
      "stateMutability": "nonpayable",
      "type": "function"
    },
    {
      "constant": true,
      "inputs": [
        {
          "name": "",
          "type": "uint256"
        }
      ],
      "name": "winnerColorForRound",
      "outputs": [
        {
          "name": "",
          "type": "uint256"
        }
      ],
      "payable": false,
      "stateMutability": "view",
      "type": "function"
    },
    {
      "constant": true,
      "inputs": [],
      "name": "dividendsBank",
      "outputs": [
        {
          "name": "",
          "type": "uint256"
        }
      ],
      "payable": false,
      "stateMutability": "view",
      "type": "function"
    },
    {
      "constant": true,
      "inputs": [
        {
          "name": "",
          "type": "address"
        }
      ],
      "name": "withdrawalBalances",
      "outputs": [
        {
          "name": "",
          "type": "uint256"
        }
      ],
      "payable": false,
      "stateMutability": "view",
      "type": "function"
    },
    {
      "constant": true,
      "inputs": [],
      "name": "cbIteration",
      "outputs": [
        {
          "name": "",
          "type": "uint256"
        }
      ],
      "payable": false,
      "stateMutability": "view",
      "type": "function"
    },
    {
      "anonymous": false,
      "inputs": [
        {
          "indexed": true,
          "name": "round",
          "type": "uint256"
        },
        {
          "indexed": true,
          "name": "cbIteration",
          "type": "uint256"
        },
        {
          "indexed": false,
          "name": "winner",
          "type": "address"
        }
      ],
      "name": "CBPDistributed",
      "type": "event"
    },
    {
      "anonymous": false,
      "inputs": [
        {
          "indexed": true,
          "name": "withdrawer",
          "type": "address"
        },
        {
          "indexed": true,
          "name": "claimId",
          "type": "uint256"
        },
        {
          "indexed": true,
          "name": "amount",
          "type": "uint256"
        }
      ],
      "name": "DividendsWithdrawn",
      "type": "event"
    },
    {
      "anonymous": false,
      "inputs": [
        {
          "indexed": true,
          "name": "claimer",
          "type": "address"
        },
        {
          "indexed": true,
          "name": "claimId",
          "type": "uint256"
        },
        {
          "indexed": true,
          "name": "currentTime",
          "type": "uint256"
        }
      ],
      "name": "DividendsClaimed",
      "type": "event"
    },
    {
      "anonymous": false,
      "inputs": [
        {
          "indexed": true,
          "name": "pixelId",
          "type": "uint256"
        },
        {
          "indexed": false,
          "name": "colorId",
          "type": "uint256"
        },
        {
          "indexed": true,
          "name": "painter",
          "type": "address"
        },
        {
          "indexed": true,
          "name": "round",
          "type": "uint256"
        },
        {
          "indexed": false,
          "name": "timestamp",
          "type": "uint256"
        }
      ],
      "name": "Paint",
      "type": "event"
    },
    {
      "anonymous": false,
      "inputs": [
        {
          "indexed": false,
          "name": "winner",
          "type": "address"
        },
        {
          "indexed": true,
          "name": "round",
          "type": "uint256"
        }
      ],
      "name": "ColorBankPlayed",
      "type": "event"
    },
    {
      "anonymous": false,
      "inputs": [
        {
          "indexed": false,
          "name": "winner",
          "type": "address"
        },
        {
          "indexed": true,
          "name": "round",
          "type": "uint256"
        }
      ],
      "name": "TimeBankPlayed",
      "type": "event"
    },
    {
      "anonymous": false,
      "inputs": [
        {
          "indexed": true,
          "name": "newCallPrice",
          "type": "uint256"
        }
      ],
      "name": "CallPriceUpdated",
      "type": "event"
    },
    {
      "anonymous": false,
      "inputs": [
        {
          "indexed": true,
          "name": "round",
          "type": "uint256"
        },
        {
          "indexed": true,
          "name": "tbIteration",
          "type": "uint256"
        },
        {
          "indexed": false,
          "name": "winner",
          "type": "address"
        }
      ],
      "name": "TBPDistributed",
      "type": "event"
    },
    {
      "anonymous": false,
      "inputs": [
        {
          "indexed": true,
          "name": "previousOwner",
          "type": "address"
        },
        {
          "indexed": true,
          "name": "newOwner",
          "type": "address"
        }
      ],
      "name": "OwnershipTransferred",
      "type": "event"
    },
    {
      "constant": false,
      "inputs": [],
      "name": "hardCode",
      "outputs": [],
      "payable": false,
      "stateMutability": "nonpayable",
      "type": "function"
    },
    {
      "constant": false,
      "inputs": [],
      "name": "hardCode2",
      "outputs": [],
      "payable": false,
      "stateMutability": "nonpayable",
      "type": "function"
    }
  ],
  "bytecode": "0x608060405273ca35b7d915458ef540ade6068dfe2f44e8fa733c604060006101000a81548173ffffffffffffffffffffffffffffffffffffffff021916908373ffffffffffffffffffffffffffffffffffffffff160217905550733e4d187df7d8a0820eaf4174d17b160157610912604160006101000a81548173ffffffffffffffffffffffffffffffffffffffff021916908373ffffffffffffffffffffffffffffffffffffffff160217905550336000806101000a81548173ffffffffffffffffffffffffffffffffffffffff021916908373ffffffffffffffffffffffffffffffffffffffff1602179055506000809054906101000a900473ffffffffffffffffffffffffffffffffffffffff1673ffffffffffffffffffffffffffffffffffffffff16600073ffffffffffffffffffffffffffffffffffffffff167f8be0079c531659141344cd1fd0a4f28419497f9722a3daafe3b4186f6b6457e060405160405180910390a36145f4806101796000396000f30060806040526004361061034e576000357c0100000000000000000000000000000000000000000000000000000000900463ffffffff1680630422ddf31461035357806305bdd0be14610382578063099b81ce146103e75780630ba36221146104585780630baaea44146104a35780630cf9603f146105105780630daa42061461055b5780630f6ed86e146105ab578063102f9713146105d657806318452cd8146106435780631f5bdf5d1461069e5780631f90c6ed146106f957806324d7806c1461075e57806328361f57146107b957806328b290f9146107fa5780632c6c1c41146108515780632c7a3dae146108b257806333f9c3881461092957806334d34b9b1461098a5780633a173505146109a15780633c6dd013146109ec5780633ca4c18314610a2d5780633d0d1a7914610a8e5780633dc3c37714610acf578063411b007e14610afa57806341c5464e14610b5157806342e453ec14610ba85780634b39173d14610c1f5780634c438ad714610c6a5780634c78e40114610caf5780635bfcdb2714610cf05780635c25fd1314610dac5780635d63ebb214610dd75780635f5d554c14610e4e578063628a71a314610e9d5780636f17eb4214610ede578063715018a614610f1f57806373a9ee2614610f3657806379ecf37614610f775780637b68a8f014610fe45780637e1e175c1461102557806387982ac3146110805780638a19c8bc1461110d5780638da5cb5b146111385780638e2df39c1461118f5780638f32d59b146111d05780638f63b7e5146111ff578063954226dc1461124a578063a312072414611261578063a888c2cd146112ac578063a977e16814611332578063ab24c7d214611389578063abafb90e146113ee578063ae55ce8214611472578063b0ff59d2146114df578063b1a3883c14611540578063b8232d5d146115ab578063be7d6226146115f6578063c64a2e5614611637578063c957387b14611678578063c9f8234f146116c3578063d4526e68146116ee578063d5de47c714611737578063da68b12114611782578063deaf0fa1146117c7578063eaf1c9101461184a578063eef565da146118ab578063f2fde38b146118d6578063f49916f514611919578063f5f95b3b1461195a578063fb454d2914611985578063fea11fe3146119dc575b600080fd5b34801561035f57600080fd5b50610368611a07565b604051808215151515815260200191505060405180910390f35b34801561038e57600080fd5b506103cd60048036038101908080359060200190929190803573ffffffffffffffffffffffffffffffffffffffff169060200190929190505050611a1a565b604051808215151515815260200191505060405180910390f35b3480156103f357600080fd5b506104166004803603810190808035600019169060200190929190505050611a49565b604051808273ffffffffffffffffffffffffffffffffffffffff1673ffffffffffffffffffffffffffffffffffffffff16815260200191505060405180910390f35b34801561046457600080fd5b5061048d6004803603810190808035906020019092919080359060200190929190505050611a7c565b6040518082815260200191505060405180910390f35b3480156104af57600080fd5b506104ce60048036038101908080359060200190929190505050611aa1565b604051808273ffffffffffffffffffffffffffffffffffffffff1673ffffffffffffffffffffffffffffffffffffffff16815260200191505060405180910390f35b34801561051c57600080fd5b506105456004803603810190808035906020019092919080359060200190929190505050611ad4565b6040518082815260200191505060405180910390f35b6105a960048036038101908080359060200190820180359060200191909192939192939080359060200190929190803590602001908201803590602001919091929391929390505050611af9565b005b3480156105b757600080fd5b506105c0612427565b6040518082815260200191505060405180910390f35b3480156105e257600080fd5b506106016004803603810190808035906020019092919050505061242d565b604051808273ffffffffffffffffffffffffffffffffffffffff1673ffffffffffffffffffffffffffffffffffffffff16815260200191505060405180910390f35b34801561064f57600080fd5b50610684600480360381019080803573ffffffffffffffffffffffffffffffffffffffff169060200190929190505050612460565b604051808215151515815260200191505060405180910390f35b3480156106aa57600080fd5b506106df600480360381019080803573ffffffffffffffffffffffffffffffffffffffff169060200190929190505050612480565b604051808215151515815260200191505060405180910390f35b34801561070557600080fd5b5061074460048036038101908080359060200190929190803573ffffffffffffffffffffffffffffffffffffffff1690602001909291905050506124a0565b604051808215151515815260200191505060405180910390f35b34801561076a57600080fd5b5061079f600480360381019080803573ffffffffffffffffffffffffffffffffffffffff1690602001909291905050506124cf565b604051808215151515815260200191505060405180910390f35b3480156107c557600080fd5b506107e4600480360381019080803590602001909291905050506124ef565b6040518082815260200191505060405180910390f35b34801561080657600080fd5b5061083b600480360381019080803573ffffffffffffffffffffffffffffffffffffffff169060200190929190505050612507565b6040518082815260200191505060405180910390f35b34801561085d57600080fd5b5061089c60048036038101908080359060200190929190803573ffffffffffffffffffffffffffffffffffffffff16906020019092919050505061251f565b6040518082815260200191505060405180910390f35b3480156108be57600080fd5b506108e76004803603810190808035906020019092919080359060200190929190505050612544565b604051808273ffffffffffffffffffffffffffffffffffffffff1673ffffffffffffffffffffffffffffffffffffffff16815260200191505060405180910390f35b34801561093557600080fd5b5061097460048036038101908080359060200190929190803573ffffffffffffffffffffffffffffffffffffffff169060200190929190505050612591565b6040518082815260200191505060405180910390f35b34801561099657600080fd5b5061099f6125b6565b005b3480156109ad57600080fd5b506109d6600480360381019080803590602001909291908035906020019092919050505061262a565b6040518082815260200191505060405180910390f35b3480156109f857600080fd5b50610a176004803603810190808035906020019092919050505061264f565b6040518082815260200191505060405180910390f35b348015610a3957600080fd5b50610a7860048036038101908080359060200190929190803573ffffffffffffffffffffffffffffffffffffffff169060200190929190505050612667565b6040518082815260200191505060405180910390f35b348015610a9a57600080fd5b50610ab96004803603810190808035906020019092919050505061268c565b6040518082815260200191505060405180910390f35b348015610adb57600080fd5b50610ae46126a4565b6040518082815260200191505060405180910390f35b348015610b0657600080fd5b50610b0f6126aa565b604051808273ffffffffffffffffffffffffffffffffffffffff1673ffffffffffffffffffffffffffffffffffffffff16815260200191505060405180910390f35b348015610b5d57600080fd5b50610b92600480360381019080803573ffffffffffffffffffffffffffffffffffffffff1690602001909291905050506126d0565b6040518082815260200191505060405180910390f35b348015610bb457600080fd5b50610bdd60048036038101908080359060200190929190803590602001909291905050506126e8565b604051808273ffffffffffffffffffffffffffffffffffffffff1673ffffffffffffffffffffffffffffffffffffffff16815260200191505060405180910390f35b348015610c2b57600080fd5b50610c54600480360381019080803590602001909291908035906020019092919050505061272a565b6040518082815260200191505060405180910390f35b348015610c7657600080fd5b50610c956004803603810190808035906020019092919050505061274f565b604051808215151515815260200191505060405180910390f35b348015610cbb57600080fd5b50610cda6004803603810190808035906020019092919050505061276f565b6040518082815260200191505060405180910390f35b348015610cfc57600080fd5b50610d31600480360381019080803573ffffffffffffffffffffffffffffffffffffffff169060200190929190505050612787565b6040518080602001828103825283818151815260200191508051906020019080838360005b83811015610d71578082015181840152602081019050610d56565b50505050905090810190601f168015610d9e5780820380516001836020036101000a031916815260200191505b509250505060405180910390f35b348015610db857600080fd5b50610dc1612837565b6040518082815260200191505060405180910390f35b348015610de357600080fd5b50610e0c600480360381019080803590602001909291908035906020019092919050505061283d565b604051808273ffffffffffffffffffffffffffffffffffffffff1673ffffffffffffffffffffffffffffffffffffffff16815260200191505060405180910390f35b348015610e5a57600080fd5b50610e83600480360381019080803590602001909291908035906020019092919050505061288a565b604051808215151515815260200191505060405180910390f35b348015610ea957600080fd5b50610ec8600480360381019080803590602001909291905050506128b9565b6040518082815260200191505060405180910390f35b348015610eea57600080fd5b50610f09600480360381019080803590602001909291905050506128d1565b6040518082815260200191505060405180910390f35b348015610f2b57600080fd5b50610f346128e9565b005b348015610f4257600080fd5b50610f61600480360381019080803590602001909291905050506129bb565b6040518082815260200191505060405180910390f35b348015610f8357600080fd5b50610fa2600480360381019080803590602001909291905050506129d3565b604051808273ffffffffffffffffffffffffffffffffffffffff1673ffffffffffffffffffffffffffffffffffffffff16815260200191505060405180910390f35b348015610ff057600080fd5b5061100f60048036038101908080359060200190929190505050612a06565b6040518082815260200191505060405180910390f35b34801561103157600080fd5b50611066600480360381019080803573ffffffffffffffffffffffffffffffffffffffff169060200190929190505050612a36565b604051808215151515815260200191505060405180910390f35b34801561108c57600080fd5b506110cb600480360381019080803573ffffffffffffffffffffffffffffffffffffffff16906020019092919080359060200190929190505050612a56565b604051808273ffffffffffffffffffffffffffffffffffffffff1673ffffffffffffffffffffffffffffffffffffffff16815260200191505060405180910390f35b34801561111957600080fd5b50611122612aa2565b6040518082815260200191505060405180910390f35b34801561114457600080fd5b5061114d612aa8565b604051808273ffffffffffffffffffffffffffffffffffffffff1673ffffffffffffffffffffffffffffffffffffffff16815260200191505060405180910390f35b34801561119b57600080fd5b506111ba60048036038101908080359060200190929190505050612ad1565b6040518082815260200191505060405180910390f35b3480156111dc57600080fd5b506111e5612ae9565b604051808215151515815260200191505060405180910390f35b34801561120b57600080fd5b506112346004803603810190808035906020019092919080359060200190929190505050612b40565b6040518082815260200191505060405180910390f35b34801561125657600080fd5b5061125f612b65565b005b34801561126d57600080fd5b506112966004803603810190808035906020019092919080359060200190929190505050612beb565b6040518082815260200191505060405180910390f35b3480156112b857600080fd5b506112d760048036038101908080359060200190929190505050612c10565b604051808581526020018473ffffffffffffffffffffffffffffffffffffffff1673ffffffffffffffffffffffffffffffffffffffff1681526020018315151515815260200182815260200194505050505060405180910390f35b34801561133e57600080fd5b50611347612c7c565b604051808273ffffffffffffffffffffffffffffffffffffffff1673ffffffffffffffffffffffffffffffffffffffff16815260200191505060405180910390f35b34801561139557600080fd5b506113d460048036038101908080359060200190929190803573ffffffffffffffffffffffffffffffffffffffff169060200190929190505050612ca2565b604051808215151515815260200191505060405180910390f35b3480156113fa57600080fd5b5061145c6004803603810190808035906020019082018035906020019080806020026020016040519081016040528093929190818152602001838360200280828437820191505050505050919291929080359060200190929190505050612cd1565b6040518082815260200191505060405180910390f35b34801561147e57600080fd5b5061149d60048036038101908080359060200190929190505050612ebf565b604051808273ffffffffffffffffffffffffffffffffffffffff1673ffffffffffffffffffffffffffffffffffffffff16815260200191505060405180910390f35b3480156114eb57600080fd5b5061152a60048036038101908080359060200190929190803573ffffffffffffffffffffffffffffffffffffffff169060200190929190505050612ef2565b6040518082815260200191505060405180910390f35b34801561154c57600080fd5b506115956004803603810190808035906020019092919080359060200190929190803573ffffffffffffffffffffffffffffffffffffffff169060200190929190505050612f17565b6040518082815260200191505060405180910390f35b3480156115b757600080fd5b506115e06004803603810190808035906020019092919080359060200190929190505050612f49565b6040518082815260200191505060405180910390f35b34801561160257600080fd5b5061162160048036038101908080359060200190929190505050612f6e565b6040518082815260200191505060405180910390f35b34801561164357600080fd5b5061166260048036038101908080359060200190929190505050612f86565b6040518082815260200191505060405180910390f35b34801561168457600080fd5b506116ad6004803603810190808035906020019092919080359060200190929190505050612f9e565b6040518082815260200191505060405180910390f35b3480156116cf57600080fd5b506116d8612fc3565b6040518082815260200191505060405180910390f35b3480156116fa57600080fd5b5061171d6004803603810190808035600019169060200190929190505050612fc9565b604051808215151515815260200191505060405180910390f35b34801561174357600080fd5b5061176c6004803603810190808035906020019092919080359060200190929190505050612fe9565b6040518082815260200191505060405180910390f35b34801561178e57600080fd5b506117ad6004803603810190808035906020019092919050505061300e565b604051808215151515815260200191505060405180910390f35b3480156117d357600080fd5b50611808600480360381019080803573ffffffffffffffffffffffffffffffffffffffff16906020019092919050505061302e565b604051808273ffffffffffffffffffffffffffffffffffffffff1673ffffffffffffffffffffffffffffffffffffffff16815260200191505060405180910390f35b34801561185657600080fd5b5061189560048036038101908080359060200190929190803573ffffffffffffffffffffffffffffffffffffffff169060200190929190505050613061565b6040518082815260200191505060405180910390f35b3480156118b757600080fd5b506118c0613086565b6040518082815260200191505060405180910390f35b3480156118e257600080fd5b50611917600480360381019080803573ffffffffffffffffffffffffffffffffffffffff16906020019092919050505061308c565b005b34801561192557600080fd5b50611944600480360381019080803590602001909291905050506130ab565b6040518082815260200191505060405180910390f35b34801561196657600080fd5b5061196f6130c3565b6040518082815260200191505060405180910390f35b34801561199157600080fd5b506119c6600480360381019080803573ffffffffffffffffffffffffffffffffffffffff1690602001909291905050506130c9565b6040518082815260200191505060405180910390f35b3480156119e857600080fd5b506119f16130e1565b6040518082815260200191505060405180910390f35b604160149054906101000a900460ff1681565b60346020528160005260406000206020528060005260406000206000915091509054906101000a900460ff1681565b60236020528060005260406000206000915054906101000a900473ffffffffffffffffffffffffffffffffffffffff1681565b600e602052816000526040600020602052806000526040600020600091509150505481565b603a6020528060005260406000206000915054906101000a900473ffffffffffffffffffffffffffffffffffffffff1681565b6006602052816000526040600020602052806000526040600020600091509150505481565b600082828080601f01602080910402602001604051908101604052809392919081815260200183838082843782019150505050505060008060011515601d60003373ffffffffffffffffffffffffffffffffffffffff1673ffffffffffffffffffffffffffffffffffffffff16815260200190815260200160002060009054906101000a900460ff161515141515611e4a57611b94836130e7565b6fffffffffffffffffffffffffffffffff1916915060246000836000191660001916815260200190815260200160002060009054906101000a900460ff1615611d8f5760236000836000191660001916815260200190815260200160002060009054906101000a900473ffffffffffffffffffffffffffffffffffffffff169050602060008273ffffffffffffffffffffffffffffffffffffffff1673ffffffffffffffffffffffffffffffffffffffff1681526020019081526020016000203390806001815401808255809150509060018203906000526020600020016000909192909190916101000a81548173ffffffffffffffffffffffffffffffffffffffff021916908373ffffffffffffffffffffffffffffffffffffffff1602179055505080601f60003373ffffffffffffffffffffffffffffffffffffffff1673ffffffffffffffffffffffffffffffffffffffff16815260200190815260200160002060006101000a81548173ffffffffffffffffffffffffffffffffffffffff021916908373ffffffffffffffffffffffffffffffffffffffff1602179055506001602160003373ffffffffffffffffffffffffffffffffffffffff1673ffffffffffffffffffffffffffffffffffffffff16815260200190815260200160002060006101000a81548160ff0219169083151502179055505b611da5600160265461310090919063ffffffff16565b602681905550602654602560003373ffffffffffffffffffffffffffffffffffffffff1673ffffffffffffffffffffffffffffffffffffffff168152602001908152602001600020819055506001601d60003373ffffffffffffffffffffffffffffffffffffffff1673ffffffffffffffffffffffffffffffffffffffff16815260200190815260200160002060006101000a81548160ff0219169083151502179055505b60001515604160149054906101000a900460ff161515141515611ed5576040517f08c379a000000000000000000000000000000000000000000000000000000000815260040180806020018281038252600e8152602001807f47616d652069732070617573656400000000000000000000000000000000000081525060200191505060405180910390fd5b611f0e89898080602002602001604051908101604052809392919081815260200183836020028082843782019150505050505088612cd1565b34141515611f84576040517f08c379a00000000000000000000000000000000000000000000000000000000081526004018080602001828103825260108152602001807f57726f6e672063616c6c2070726963650000000000000000000000000000000081525060200191505060405180910390fd5b6104b0600a60006028548152602001908152602001600020544203118015611fc257506000600a600060285481526020019081526020016000205414155b156122be57600b6000602854815260200190815260200160002060009054906101000a900473ffffffffffffffffffffffffffffffffffffffff16600f6000602854815260200190815260200160002060006101000a81548173ffffffffffffffffffffffffffffffffffffffff021916908373ffffffffffffffffffffffffffffffffffffffff16021790555061208c606461207e602d6009600060285481526020019081526020016000205461312190919063ffffffff16565b61315f90919063ffffffff16565b6036600060295481526020019081526020016000206000600f6000602854815260200190815260200160002060009054906101000a900473ffffffffffffffffffffffffffffffffffffffff1673ffffffffffffffffffffffffffffffffffffffff1673ffffffffffffffffffffffffffffffffffffffff16815260200190815260200160002060008282540192505081905550600160106000602854815260200190815260200160002081905550612164600a6009600060285481526020019081526020016000205461315f90919063ffffffff16565b600960006001602854018152602001908152602001600020819055506121bc60646121ae602d6009600060285481526020019081526020016000205461312190919063ffffffff16565b61315f90919063ffffffff16565b6009600060285481526020019081526020016000208190555060076000602854815260200190815260200160002054600760006001602854018152602001908152602001600020819055506000600760006028548152602001908152602001600020819055506028547f20f206bcab56eeef408295aaff8745adb98fed16823d758193e9449983d23fd2600f6000602854815260200190815260200160002060009054906101000a900473ffffffffffffffffffffffffffffffffffffffff16604051808273ffffffffffffffffffffffffffffffffffffffff1673ffffffffffffffffffffffffffffffffffffffff16815260200191505060405180910390a25b600093505b888890508410156122f9576122ec89898681811015156122df57fe5b9050602002013588613189565b83806001019450506122c3565b61230287613afe565b61230b87613c99565b61231487613edc565b61231d87614008565b602b60008154809291906001019190505550602e6000888152602001908152602001600020600081548092919060010191905055503360316000602b54815260200190815260200160002060006101000a81548173ffffffffffffffffffffffffffffffffffffffff021916908373ffffffffffffffffffffffffffffffffffffffff16021790555033603260008981526020019081526020016000206000602e60008b815260200190815260200160002054815260200190815260200160002060006101000a81548173ffffffffffffffffffffffffffffffffffffffff021916908373ffffffffffffffffffffffffffffffffffffffff160217905550505050505050505050565b60295481565b600f6020528060005260406000206000915054906101000a900473ffffffffffffffffffffffffffffffffffffffff1681565b60216020528060005260406000206000915054906101000a900460ff1681565b601d6020528060005260406000206000915054906101000a900460ff1681565b601b6020528160005260406000206020528060005260406000206000915091509054906101000a900460ff1681565b60426020528060005260406000206000915054906101000a900460ff1681565b60176020528060005260406000206000915090505481565b60396020528060005260406000206000915090505481565b601a602052816000526040600020602052806000526040600020600091509150505481565b60306020528160005260406000208181548110151561255f57fe5b906000526020600020016000915091509054906101000a900473ffffffffffffffffffffffffffffffffffffffff1681565b6036602052816000526040600020602052806000526040600020600091509150505481565b670de0b6b3a764000060096000602854815260200190815260200160002081905550670de0b6b3a76400006007600060285481526020019081526020016000208190555061270e60066000602854815260200190815260200160002060006002815260200190815260200160002081905550565b6014602052816000526040600020602052806000526040600020600091509150505481565b60186020528060005260406000206000915090505481565b6035602052816000526040600020602052806000526040600020600091509150505481565b60106020528060005260406000206000915090505481565b602b5481565b604160009054906101000a900473ffffffffffffffffffffffffffffffffffffffff1681565b60256020528060005260406000206000915090505481565b60326020528160005260406000206020528060005260406000206000915091509054906101000a900473ffffffffffffffffffffffffffffffffffffffff1681565b6005602052816000526040600020602052806000526040600020600091509150505481565b60386020528060005260406000206000915054906101000a900460ff1681565b60096020528060005260406000206000915090505481565b60226020528060005260406000206000915090508054600181600116156101000203166002900480601f01602080910402602001604051908101604052809291908181526020018280546001816001161561010002031660029004801561282f5780601f106128045761010080835404028352916020019161282f565b820191906000526020600020905b81548152906001019060200180831161281257829003601f168201915b505050505081565b603e5481565b602f6020528160005260406000208181548110151561285857fe5b906000526020600020016000915091509054906101000a900473ffffffffffffffffffffffffffffffffffffffff1681565b60166020528160005260406000206020528060005260406000206000915091509054906101000a900460ff1681565b600c6020528060005260406000206000915090505481565b60196020528060005260406000206000915090505481565b6128f1612ae9565b15156128fc57600080fd5b600073ffffffffffffffffffffffffffffffffffffffff166000809054906101000a900473ffffffffffffffffffffffffffffffffffffffff1673ffffffffffffffffffffffffffffffffffffffff167f8be0079c531659141344cd1fd0a4f28419497f9722a3daafe3b4186f6b6457e060405160405180910390a360008060006101000a81548173ffffffffffffffffffffffffffffffffffffffff021916908373ffffffffffffffffffffffffffffffffffffffff160217905550565b600a6020528060005260406000206000915090505481565b600b6020528060005260406000206000915054906101000a900473ffffffffffffffffffffffffffffffffffffffff1681565b60006004600060285481526020019081526020016000206000838152602001908152602001600020549050919050565b601e6020528060005260406000206000915054906101000a900460ff1681565b6020805281600052604060002081815481101515612a7057fe5b906000526020600020016000915091509054906101000a900473ffffffffffffffffffffffffffffffffffffffff1681565b60285481565b60008060009054906101000a900473ffffffffffffffffffffffffffffffffffffffff16905090565b602e6020528060005260406000206000915090505481565b60008060009054906101000a900473ffffffffffffffffffffffffffffffffffffffff1673ffffffffffffffffffffffffffffffffffffffff163373ffffffffffffffffffffffffffffffffffffffff1614905090565b6011602052816000526040600020602052806000526040600020600091509150505481565b670de0b6b3a764000060096000602854815260200190815260200160002060008282540192505081905550670de0b6b3a76400006007600060285481526020019081526020016000206000828254019250508190555061270e60066000602854815260200190815260200160002060006002815260200190815260200160002081905550565b6008602052816000526040600020602052806000526040600020600091509150505481565b603f81815481101515612c1f57fe5b90600052602060002090600302016000915090508060000154908060010160009054906101000a900473ffffffffffffffffffffffffffffffffffffffff16908060010160149054906101000a900460ff16908060020154905084565b604060009054906101000a900473ffffffffffffffffffffffffffffffffffffffff1681565b60336020528160005260406000206020528060005260406000206000915091509054906101000a900460ff1681565b6000806000806000806000601a600089815260200190815260200160002060003373ffffffffffffffffffffffffffffffffffffffff1673ffffffffffffffffffffffffffffffffffffffff168152602001908152602001600020549550601b600089815260200190815260200160002060003373ffffffffffffffffffffffffffffffffffffffff1673ffffffffffffffffffffffffffffffffffffffff16815260200190815260200160002060009054906101000a900460ff169450601c600089815260200190815260200160002060003373ffffffffffffffffffffffffffffffffffffffff1673ffffffffffffffffffffffffffffffffffffffff168152602001908152602001600020549350600092505b8851831015612eb357612e2c6064612e1e86606403601960008d81526020019081526020016000205461312190919063ffffffff16565b61315f90919063ffffffff16565b9150600115158515151415612e4357819050612e5a565b601960008981526020019081526020016000205490505b80870196508086019550670de0b6b3a764000086101515612ea65760019450670de0b6b3a764000086811515612e8c57fe5b049350678ac7230489e8000086101515612ea557600a93505b5b8280600101935050612de7565b50505050505092915050565b60316020528060005260406000206000915054906101000a900473ffffffffffffffffffffffffffffffffffffffff1681565b602c602052816000526040600020602052806000526040600020600091509150505481565b602d60205282600052604060002060205281600052604060002060205280600052604060002060009250925050505481565b6004602052816000526040600020602052806000526040600020600091509150505481565b60126020528060005260406000206000915090505481565b60076020528060005260406000206000915090505481565b6015602052816000526040600020602052806000526040600020600091509150505481565b60265481565b60246020528060005260406000206000915054906101000a900460ff1681565b6013602052816000526040600020602052806000526040600020600091509150505481565b60376020528060005260406000206000915054906101000a900460ff1681565b601f6020528060005260406000206000915054906101000a900473ffffffffffffffffffffffffffffffffffffffff1681565b601c602052816000526040600020602052806000526040600020600091509150505481565b60275481565b613094612ae9565b151561309f57600080fd5b6130a88161417b565b50565b600d6020528060005260406000206000915090505481565b603d5481565b603b6020528060005260406000206000915090505481565b602a5481565b6000806060839050602081015191508192505050919050565b600080828401905083811015151561311757600080fd5b8091505092915050565b60008060008414156131365760009150613158565b828402905082848281151561314757fe5b0414151561315457600080fd5b8091505b5092915050565b60008060008311151561317157600080fd5b828481151561317c57fe5b0490508091505092915050565b600061319482614275565b60008314151515613233576040517f08c379a00000000000000000000000000000000000000000000000000000000081526004018080602001828103825260278152602001807f54686520706978656c2077697468206964203d203020646f6573206e6f74206581526020017f786973742e2e2e0000000000000000000000000000000000000000000000000081525060400191505060405180910390fd5b600082141515156132d2576040517f08c379a00000000000000000000000000000000000000000000000000000000081526004018080602001828103825260288152602001807f596f752063616e6e6f74207061696e7420746f207472616e73706172656e742081526020017f636f6c6f722e2e2e00000000000000000000000000000000000000000000000081525060400191505060405180910390fd5b8160046000602854815260200190815260200160002060008581526020019081526020016000205414151515613396576040517f08c379a00000000000000000000000000000000000000000000000000000000081526004018080602001828103825260268152602001807f5468697320706978656c20697320616c7265616479206f66207468697320636f81526020017f6c6f722e2e2e000000000000000000000000000000000000000000000000000081525060400191505060405180910390fd5b6004600060285481526020019081526020016000206000848152602001908152602001600020549050816004600060285481526020019081526020016000206000858152602001908152602001600020819055508060056000602854815260200190815260200160002060008581526020019081526020016000208190555042600a600060285481526020019081526020016000208190555033600b6000602854815260200190815260200160002060006101000a81548173ffffffffffffffffffffffffffffffffffffffff021916908373ffffffffffffffffffffffffffffffffffffffff16021790555060006006600060285481526020019081526020016000206000838152602001908152602001600020541115613517576134ec600160066000602854815260200190815260200160002060008481526020019081526020016000205461451390919063ffffffff16565b6006600060285481526020019081526020016000206000838152602001908152602001600020819055505b613551600160066000602854815260200190815260200160002060008581526020019081526020016000205461310090919063ffffffff16565b6006600060285481526020019081526020016000206000848152602001908152602001600020819055506135a460016012600060285481526020019081526020016000205461310090919063ffffffff16565b6012600060285481526020019081526020016000208190555042601160006028548152602001908152602001600020600085815260200190815260200160002081905550602c6000602954815260200190815260200160002060003373ffffffffffffffffffffffffffffffffffffffff1673ffffffffffffffffffffffffffffffffffffffff16815260200190815260200160002060008154809291906001019190505550602d6000602a548152602001908152602001600020600083815260200190815260200160002060003373ffffffffffffffffffffffffffffffffffffffff1673ffffffffffffffffffffffffffffffffffffffff168152602001908152602001600020600081548092919060010191905055506137086001601360008581526020019081526020016000206000601760008781526020019081526020016000205481526020019081526020016000205461451390919063ffffffff16565b601360008481526020019081526020016000206000601760008681526020019081526020016000205481526020019081526020016000208190555082600c60006028548152602001908152602001600020819055506028543373ffffffffffffffffffffffffffffffffffffffff16847faf2d03aa2fdc9b785775529881274caad1884e0279e02729f03eca55d57eea728542604051808381526020018281526020019250505060405180910390a4602854603960003373ffffffffffffffffffffffffffffffffffffffff1673ffffffffffffffffffffffffffffffffffffffff168152602001908152602001600020819055506127106006600060285481526020019081526020016000206000848152602001908152602001600020541415613af95781600d6000602854815260200190815260200160002081905550600b6000602854815260200190815260200160002060009054906101000a900473ffffffffffffffffffffffffffffffffffffffff16600f6000602854815260200190815260200160002060006101000a81548173ffffffffffffffffffffffffffffffffffffffff021916908373ffffffffffffffffffffffffffffffffffffffff16021790555061390c60646138fe60326007600060285481526020019081526020016000205461312190919063ffffffff16565b61315f90919063ffffffff16565b60356000602a5481526020019081526020016000206000600f6000602854815260200190815260200160002060009054906101000a900473ffffffffffffffffffffffffffffffffffffffff1673ffffffffffffffffffffffffffffffffffffffff1673ffffffffffffffffffffffffffffffffffffffff168152602001908152602001600020600082825401925050819055506002601060006028548152602001908152602001600020819055506139f760646139e960326007600060285481526020019081526020016000205461312190919063ffffffff16565b61315f90919063ffffffff16565b6007600060285481526020019081526020016000208190555060096000602854815260200190815260200160002054600960006001602854018152602001908152602001600020819055506000600960006028548152602001908152602001600020819055506028547f14988f685a0376db6242cb37ed3033028bbc9e8fe0cc4b434a098e6c0150673f600f6000602854815260200190815260200160002060009054906101000a900473ffffffffffffffffffffffffffffffffffffffff16604051808273ffffffffffffffffffffffffffffffffffffffff1673ffffffffffffffffffffffffffffffffffffffff16815260200191505060405180910390a25b505050565b613b5d613b286064613b1a60283461312190919063ffffffff16565b61315f90919063ffffffff16565b60086000602854815260200190815260200160002060008481526020019081526020016000205461310090919063ffffffff16565b600860006028548152602001908152602001600020600083815260200190815260200160002081905550613bd5613bb16064613ba360283461312190919063ffffffff16565b61315f90919063ffffffff16565b6007600060285481526020019081526020016000205461310090919063ffffffff16565b60076000602854815260200190815260200160002081905550613c3c613c186064613c0a60283461312190919063ffffffff16565b61315f90919063ffffffff16565b6009600060285481526020019081526020016000205461310090919063ffffffff16565b60096000602854815260200190815260200160002081905550613c90613c7f6064613c7160143461312190919063ffffffff16565b61315f90919063ffffffff16565b603d5461310090919063ffffffff16565b603d8190555050565b613d35613cc56064613cb76019603d5461312190919063ffffffff16565b61315f90919063ffffffff16565b603b6000604160009054906101000a900473ffffffffffffffffffffffffffffffffffffffff1673ffffffffffffffffffffffffffffffffffffffff1673ffffffffffffffffffffffffffffffffffffffff1681526020019081526020016000205461310090919063ffffffff16565b603b6000604160009054906101000a900473ffffffffffffffffffffffffffffffffffffffff1673ffffffffffffffffffffffffffffffffffffffff1673ffffffffffffffffffffffffffffffffffffffff16815260200190815260200160002081905550613dc36064613db56019603d5461312190919063ffffffff16565b61315f90919063ffffffff16565b603b6000603a600085815260200190815260200160002060009054906101000a900473ffffffffffffffffffffffffffffffffffffffff1673ffffffffffffffffffffffffffffffffffffffff1673ffffffffffffffffffffffffffffffffffffffff16815260200190815260200160002060008282540192505081905550613e6b6064613e5d6019603d5461312190919063ffffffff16565b61315f90919063ffffffff16565b603b6000604060009054906101000a900473ffffffffffffffffffffffffffffffffffffffff1673ffffffffffffffffffffffffffffffffffffffff1673ffffffffffffffffffffffffffffffffffffffff1681526020019081526020016000206000828254019250508190555050565b34601a600083815260200190815260200160002060003373ffffffffffffffffffffffffffffffffffffffff1673ffffffffffffffffffffffffffffffffffffffff16815260200190815260200160002060008282540192505081905550670de0b6b3a7640000601a600083815260200190815260200160002060003373ffffffffffffffffffffffffffffffffffffffff1673ffffffffffffffffffffffffffffffffffffffff16815260200190815260200160002054101515614005576001601b600083815260200190815260200160002060003373ffffffffffffffffffffffffffffffffffffffff1673ffffffffffffffffffffffffffffffffffffffff16815260200190815260200160002060006101000a81548160ff0219169083151502179055505b50565b670de0b6b3a7640000601a600083815260200190815260200160002060003373ffffffffffffffffffffffffffffffffffffffff1673ffffffffffffffffffffffffffffffffffffffff1681526020019081526020016000205481151561406b57fe5b04601c600083815260200190815260200160002060003373ffffffffffffffffffffffffffffffffffffffff1673ffffffffffffffffffffffffffffffffffffffff16815260200190815260200160002081905550678ac7230489e80000601a600083815260200190815260200160002060003373ffffffffffffffffffffffffffffffffffffffff1673ffffffffffffffffffffffffffffffffffffffff1681526020019081526020016000205410151561417857600a601c600083815260200190815260200160002060003373ffffffffffffffffffffffffffffffffffffffff1673ffffffffffffffffffffffffffffffffffffffff168152602001908152602001600020819055505b50565b600073ffffffffffffffffffffffffffffffffffffffff168173ffffffffffffffffffffffffffffffffffffffff16141515156141b757600080fd5b8073ffffffffffffffffffffffffffffffffffffffff166000809054906101000a900473ffffffffffffffffffffffffffffffffffffffff1673ffffffffffffffffffffffffffffffffffffffff167f8be0079c531659141344cd1fd0a4f28419497f9722a3daafe3b4186f6b6457e060405160405180910390a3806000806101000a81548173ffffffffffffffffffffffffffffffffffffffff021916908373ffffffffffffffffffffffffffffffffffffffff16021790555050565b600080605a6015600085815260200190815260200160002060006001601760008881526020019081526020016000205403815260200190815260200160002054420310151561450e576013600084815260200190815260200160002060006017600086815260200190815260200160002054815260200190815260200160002054915061431f6001601760008681526020019081526020016000205461310090919063ffffffff16565b90506000151560166000858152602001908152602001600020600083815260200190815260200160002060009054906101000a900460ff1615151415614403576143748260275461451390919063ffffffff16565b601360008581526020019081526020016000206000838152602001908152602001600020819055504260146000858152602001908152602001600020600083815260200190815260200160002081905550600160166000858152602001908152602001600020600083815260200190815260200160002060006101000a81548160ff0219169083151502179055505b6001601360008581526020019081526020016000206000601760008781526020019081526020016000205481526020019081526020016000205414156144895761444c83614534565b4260156000858152602001908152602001600020600060176000878152602001908152602001600020548152602001908152602001600020819055505b60006013600085815260200190815260200160002060006017600087815260200190815260200160002054815260200190815260200160002054141561450d57601960008481526020019081526020016000205460186000858152602001908152602001600020819055508060176000858152602001908152602001600020819055505b5b505050565b60008083831115151561452557600080fd5b82840390508091505092915050565b61456e60646145606069601860008681526020019081526020016000205461312190919063ffffffff16565b61315f90919063ffffffff16565b601960008381526020019081526020016000208190555060186000828152602001908152602001600020547f3bb22f778670a5901bff4d41c425858dac1ea6aeb048d40f959a6bc43f98506160405160405180910390a2505600a165627a7a723058207b5ef272cab702cbaa5cca3d309148ab6de2a36f7068c8b9c2246284e73827630029",
  "source": "pragma solidity ^0.4.24;\nimport \"./Game.sol\";\n\ncontract GameMock is Game {\n\n    //      (paint)\n    function _updateCallPrice(uint _color) private {\n        \n        //    5% (    )\n        nextCallPriceForColor[_color] = callPriceForColor[_color].mul(105).div(100);\n        \n        //   ,     paint \n        emit CallPriceUpdated(callPriceForColor[_color]);\n    }\n\n    function hardCode() external {\n        timeBankForRound[currentRound] = 1 ether;\n        colorBankForRound[currentRound] = 1 ether;\n        colorToPaintedPixelsAmountForRound[currentRound][2] = 9998;\n    }\n\n    function hardCode2() external {\n        timeBankForRound[currentRound] += 1 ether;\n        colorBankForRound[currentRound] += 1 ether;\n        colorToPaintedPixelsAmountForRound[currentRound][2] = 9998;\n    }\n\n}",
  "sourcePath": "/Users/Amir/last-pixel-contracts/contracts/GameMock.sol",
  "compiler": {
    "name": "solc",
    "version": "0.4.24+commit.e67f0147.Emscripten.clang"
  },
  "schemaVersion": "2.0.1",
  "updatedAt": "2019-01-08T17:07:11.145Z"
}