{
  "contractName": "Game",
  "abi": [
    {
      "constant": true,
      "inputs": [
        {
          "name": "",
          "type": "uint256"
        },
        {
          "name": "",
          "type": "address"
        }
      ],
      "name": "addressToTimeBankPrizeForRound",
      "outputs": [
        {
          "name": "",
          "type": "uint256"
        }
      ],
      "payable": false,
      "stateMutability": "view",
      "type": "function"
    },
    {
      "constant": true,
      "inputs": [
        {
          "name": "",
          "type": "address"
        }
      ],
      "name": "addressToTimeBankPrizeTotal",
      "outputs": [
        {
          "name": "",
          "type": "uint256"
        }
      ],
      "payable": false,
      "stateMutability": "view",
      "type": "function"
    },
    {
      "constant": true,
      "inputs": [
        {
          "name": "",
          "type": "uint256"
        },
        {
          "name": "",
          "type": "uint256"
        }
      ],
      "name": "colorToTotalPaintsForRound",
      "outputs": [
        {
          "name": "",
          "type": "uint256"
        }
      ],
      "payable": false,
      "stateMutability": "view",
      "type": "function"
    },
    {
      "constant": true,
      "inputs": [
        {
          "name": "",
          "type": "uint256"
        }
      ],
      "name": "ownerOfColor",
      "outputs": [
        {
          "name": "",
          "type": "address"
        }
      ],
      "payable": false,
      "stateMutability": "view",
      "type": "function"
    },
    {
      "constant": true,
      "inputs": [
        {
          "name": "",
          "type": "uint256"
        },
        {
          "name": "",
          "type": "uint256"
        }
      ],
      "name": "colorToPaintedPixelsAmountForRound",
      "outputs": [
        {
          "name": "",
          "type": "uint256"
        }
      ],
      "payable": false,
      "stateMutability": "view",
      "type": "function"
    },
    {
      "constant": true,
      "inputs": [
        {
          "name": "",
          "type": "uint256"
        }
      ],
      "name": "winnerOfRound",
      "outputs": [
        {
          "name": "",
          "type": "address"
        }
      ],
      "payable": false,
      "stateMutability": "view",
      "type": "function"
    },
    {
      "constant": false,
      "inputs": [
        {
          "name": "_admin",
          "type": "address"
        }
      ],
      "name": "removeAdmin",
      "outputs": [],
      "payable": false,
      "stateMutability": "nonpayable",
      "type": "function"
    },
    {
      "constant": true,
      "inputs": [
        {
          "name": "",
          "type": "uint256"
        },
        {
          "name": "",
          "type": "address"
        }
      ],
      "name": "hasPaintDiscountForColor",
      "outputs": [
        {
          "name": "",
          "type": "bool"
        }
      ],
      "payable": false,
      "stateMutability": "view",
      "type": "function"
    },
    {
      "constant": true,
      "inputs": [
        {
          "name": "",
          "type": "uint256"
        },
        {
          "name": "",
          "type": "address"
        }
      ],
      "name": "hasTakenPartInRound",
      "outputs": [
        {
          "name": "",
          "type": "bool"
        }
      ],
      "payable": false,
      "stateMutability": "view",
      "type": "function"
    },
    {
      "constant": true,
      "inputs": [
        {
          "name": "",
          "type": "uint256"
        }
      ],
      "name": "teamStartedTimeForRound",
      "outputs": [
        {
          "name": "",
          "type": "uint256"
        }
      ],
      "payable": false,
      "stateMutability": "view",
      "type": "function"
    },
    {
      "constant": true,
      "inputs": [
        {
          "name": "",
          "type": "address"
        }
      ],
      "name": "isAdmin",
      "outputs": [
        {
          "name": "",
          "type": "bool"
        }
      ],
      "payable": false,
      "stateMutability": "view",
      "type": "function"
    },
    {
      "constant": true,
      "inputs": [
        {
          "name": "",
          "type": "uint256"
        }
      ],
      "name": "currentPaintGenForColor",
      "outputs": [
        {
          "name": "",
          "type": "uint256"
        }
      ],
      "payable": false,
      "stateMutability": "view",
      "type": "function"
    },
    {
      "constant": true,
      "inputs": [
        {
          "name": "",
          "type": "address"
        }
      ],
      "name": "lastPlayedRound",
      "outputs": [
        {
          "name": "",
          "type": "uint256"
        }
      ],
      "payable": false,
      "stateMutability": "view",
      "type": "function"
    },
    {
      "constant": true,
      "inputs": [
        {
          "name": "",
          "type": "uint256"
        },
        {
          "name": "",
          "type": "address"
        }
      ],
      "name": "moneySpentByUserForColor",
      "outputs": [
        {
          "name": "",
          "type": "uint256"
        }
      ],
      "payable": false,
      "stateMutability": "view",
      "type": "function"
    },
    {
      "constant": true,
      "inputs": [
        {
          "name": "",
          "type": "uint256"
        },
        {
          "name": "",
          "type": "uint256"
        }
      ],
      "name": "paintGenToStartTimeForColor",
      "outputs": [
        {
          "name": "",
          "type": "uint256"
        }
      ],
      "payable": false,
      "stateMutability": "view",
      "type": "function"
    },
    {
      "constant": true,
      "inputs": [
        {
          "name": "",
          "type": "uint256"
        }
      ],
      "name": "callPriceForColor",
      "outputs": [
        {
          "name": "",
          "type": "uint256"
        }
      ],
      "payable": false,
      "stateMutability": "view",
      "type": "function"
    },
    {
      "constant": true,
      "inputs": [
        {
          "name": "",
          "type": "uint256"
        }
      ],
      "name": "winnerBankForRound",
      "outputs": [
        {
          "name": "",
          "type": "uint256"
        }
      ],
      "payable": false,
      "stateMutability": "view",
      "type": "function"
    },
    {
      "constant": true,
      "inputs": [],
      "name": "uniqueUsers",
      "outputs": [
        {
          "name": "",
          "type": "uint256"
        }
      ],
      "payable": false,
      "stateMutability": "view",
      "type": "function"
    },
    {
      "constant": true,
      "inputs": [],
      "name": "founders",
      "outputs": [
        {
          "name": "",
          "type": "address"
        }
      ],
      "payable": false,
      "stateMutability": "view",
      "type": "function"
    },
    {
      "constant": false,
      "inputs": [
        {
          "name": "_claimId",
          "type": "uint256"
        }
      ],
      "name": "approveClaim",
      "outputs": [],
      "payable": false,
      "stateMutability": "nonpayable",
      "type": "function"
    },
    {
      "constant": true,
      "inputs": [
        {
          "name": "",
          "type": "uint256"
        },
        {
          "name": "",
          "type": "uint256"
        }
      ],
      "name": "pixelToOldColorForRound",
      "outputs": [
        {
          "name": "",
          "type": "uint256"
        }
      ],
      "payable": false,
      "stateMutability": "view",
      "type": "function"
    },
    {
      "constant": true,
      "inputs": [
        {
          "name": "",
          "type": "uint256"
        }
      ],
      "name": "timeBankForRound",
      "outputs": [
        {
          "name": "",
          "type": "uint256"
        }
      ],
      "payable": false,
      "stateMutability": "view",
      "type": "function"
    },
    {
      "constant": true,
      "inputs": [
        {
          "name": "",
          "type": "uint256"
        }
      ],
      "name": "teamEndedTimeForRound",
      "outputs": [
        {
          "name": "",
          "type": "uint256"
        }
      ],
      "payable": false,
      "stateMutability": "view",
      "type": "function"
    },
    {
      "constant": true,
      "inputs": [],
      "name": "claimId",
      "outputs": [
        {
          "name": "",
          "type": "uint256"
        }
      ],
      "payable": false,
      "stateMutability": "view",
      "type": "function"
    },
    {
      "constant": true,
      "inputs": [
        {
          "name": "",
          "type": "uint256"
        },
        {
          "name": "",
          "type": "uint256"
        }
      ],
      "name": "paintGenStartedForColor",
      "outputs": [
        {
          "name": "",
          "type": "bool"
        }
      ],
      "payable": false,
      "stateMutability": "view",
      "type": "function"
    },
    {
      "constant": true,
      "inputs": [
        {
          "name": "",
          "type": "uint256"
        }
      ],
      "name": "lastPaintedPixelForRound",
      "outputs": [
        {
          "name": "",
          "type": "uint256"
        }
      ],
      "payable": false,
      "stateMutability": "view",
      "type": "function"
    },
    {
      "constant": false,
      "inputs": [],
      "name": "claimDividends",
      "outputs": [],
      "payable": false,
      "stateMutability": "nonpayable",
      "type": "function"
    },
    {
      "constant": true,
      "inputs": [
        {
          "name": "",
          "type": "uint256"
        }
      ],
      "name": "nextCallPriceForColor",
      "outputs": [
        {
          "name": "",
          "type": "uint256"
        }
      ],
      "payable": false,
      "stateMutability": "view",
      "type": "function"
    },
    {
      "constant": false,
      "inputs": [
        {
          "name": "_new",
          "type": "address"
        }
      ],
      "name": "addAdmin",
      "outputs": [],
      "payable": false,
      "stateMutability": "nonpayable",
      "type": "function"
    },
    {
      "constant": false,
      "inputs": [],
      "name": "renounceOwnership",
      "outputs": [],
      "payable": false,
      "stateMutability": "nonpayable",
      "type": "function"
    },
    {
      "constant": true,
      "inputs": [
        {
          "name": "",
          "type": "uint256"
        }
      ],
      "name": "lastPaintTimeForRound",
      "outputs": [
        {
          "name": "",
          "type": "uint256"
        }
      ],
      "payable": false,
      "stateMutability": "view",
      "type": "function"
    },
    {
      "constant": true,
      "inputs": [
        {
          "name": "",
          "type": "uint256"
        }
      ],
      "name": "lastPainterForRound",
      "outputs": [
        {
          "name": "",
          "type": "address"
        }
      ],
      "payable": false,
      "stateMutability": "view",
      "type": "function"
    },
    {
      "constant": true,
      "inputs": [],
      "name": "currentRound",
      "outputs": [
        {
          "name": "",
          "type": "uint256"
        }
      ],
      "payable": false,
      "stateMutability": "view",
      "type": "function"
    },
    {
      "constant": true,
      "inputs": [],
      "name": "owner",
      "outputs": [
        {
          "name": "",
          "type": "address"
        }
      ],
      "payable": false,
      "stateMutability": "view",
      "type": "function"
    },
    {
      "constant": true,
      "inputs": [],
      "name": "isOwner",
      "outputs": [
        {
          "name": "",
          "type": "bool"
        }
      ],
      "payable": false,
      "stateMutability": "view",
      "type": "function"
    },
    {
      "constant": true,
      "inputs": [
        {
          "name": "",
          "type": "uint256"
        },
        {
          "name": "",
          "type": "uint256"
        }
      ],
      "name": "colorBankToColorForRound",
      "outputs": [
        {
          "name": "",
          "type": "uint256"
        }
      ],
      "payable": false,
      "stateMutability": "view",
      "type": "function"
    },
    {
      "constant": true,
      "inputs": [
        {
          "name": "",
          "type": "uint256"
        },
        {
          "name": "",
          "type": "address"
        }
      ],
      "name": "addressToColorBankPrizeForRound",
      "outputs": [
        {
          "name": "",
          "type": "uint256"
        }
      ],
      "payable": false,
      "stateMutability": "view",
      "type": "function"
    },
    {
      "constant": true,
      "inputs": [
        {
          "name": "",
          "type": "uint256"
        }
      ],
      "name": "claims",
      "outputs": [
        {
          "name": "id",
          "type": "uint256"
        },
        {
          "name": "claimer",
          "type": "address"
        },
        {
          "name": "isResolved",
          "type": "bool"
        },
        {
          "name": "timestamp",
          "type": "uint256"
        }
      ],
      "payable": false,
      "stateMutability": "view",
      "type": "function"
    },
    {
      "constant": true,
      "inputs": [],
      "name": "ownerOfPixel",
      "outputs": [
        {
          "name": "",
          "type": "address"
        }
      ],
      "payable": false,
      "stateMutability": "view",
      "type": "function"
    },
    {
      "constant": true,
      "inputs": [
        {
          "name": "",
          "type": "uint256"
        },
        {
          "name": "",
          "type": "address"
        }
      ],
      "name": "colorToUserToTotalCounter",
      "outputs": [
        {
          "name": "",
          "type": "uint256"
        }
      ],
      "payable": false,
      "stateMutability": "view",
      "type": "function"
    },
    {
      "constant": false,
      "inputs": [],
      "name": "claimTimeBankPrizeForLastPlayedRound",
      "outputs": [],
      "payable": false,
      "stateMutability": "nonpayable",
      "type": "function"
    },
    {
      "constant": true,
      "inputs": [
        {
          "name": "",
          "type": "uint256"
        },
        {
          "name": "",
          "type": "uint256"
        }
      ],
      "name": "pixelToColorForRound",
      "outputs": [
        {
          "name": "",
          "type": "uint256"
        }
      ],
      "payable": false,
      "stateMutability": "view",
      "type": "function"
    },
    {
      "constant": true,
      "inputs": [
        {
          "name": "",
          "type": "address"
        }
      ],
      "name": "addressToColorBankPrizeTotal",
      "outputs": [
        {
          "name": "",
          "type": "uint256"
        }
      ],
      "payable": false,
      "stateMutability": "view",
      "type": "function"
    },
    {
      "constant": true,
      "inputs": [
        {
          "name": "",
          "type": "uint256"
        }
      ],
      "name": "totalPaintsForRound",
      "outputs": [
        {
          "name": "",
          "type": "uint256"
        }
      ],
      "payable": false,
      "stateMutability": "view",
      "type": "function"
    },
    {
      "constant": true,
      "inputs": [
        {
          "name": "",
          "type": "address"
        }
      ],
      "name": "isRegistered",
      "outputs": [
        {
          "name": "",
          "type": "bool"
        }
      ],
      "payable": false,
      "stateMutability": "view",
      "type": "function"
    },
    {
      "constant": true,
      "inputs": [
        {
          "name": "",
          "type": "address"
        }
      ],
      "name": "userToTotalCounter",
      "outputs": [
        {
          "name": "",
          "type": "uint256"
        }
      ],
      "payable": false,
      "stateMutability": "view",
      "type": "function"
    },
    {
      "constant": true,
      "inputs": [
        {
          "name": "",
          "type": "uint256"
        }
      ],
      "name": "colorBankForRound",
      "outputs": [
        {
          "name": "",
          "type": "uint256"
        }
      ],
      "payable": false,
      "stateMutability": "view",
      "type": "function"
    },
    {
      "constant": true,
      "inputs": [
        {
          "name": "",
          "type": "uint256"
        },
        {
          "name": "",
          "type": "uint256"
        }
      ],
      "name": "paintGenToEndTimeForColor",
      "outputs": [
        {
          "name": "",
          "type": "uint256"
        }
      ],
      "payable": false,
      "stateMutability": "view",
      "type": "function"
    },
    {
      "constant": true,
      "inputs": [
        {
          "name": "",
          "type": "uint256"
        },
        {
          "name": "",
          "type": "uint256"
        }
      ],
      "name": "paintGenToAmountForColor",
      "outputs": [
        {
          "name": "",
          "type": "uint256"
        }
      ],
      "payable": false,
      "stateMutability": "view",
      "type": "function"
    },
    {
      "constant": true,
      "inputs": [
        {
          "name": "",
          "type": "address"
        },
        {
          "name": "",
          "type": "uint256"
        }
      ],
      "name": "userToCounterToTimestamp",
      "outputs": [
        {
          "name": "",
          "type": "uint256"
        }
      ],
      "payable": false,
      "stateMutability": "view",
      "type": "function"
    },
    {
      "constant": true,
      "inputs": [
        {
          "name": "",
          "type": "address"
        },
        {
          "name": "",
          "type": "uint256"
        }
      ],
      "name": "isPrizeDistributedForRound",
      "outputs": [
        {
          "name": "",
          "type": "bool"
        }
      ],
      "payable": false,
      "stateMutability": "view",
      "type": "function"
    },
    {
      "constant": true,
      "inputs": [
        {
          "name": "",
          "type": "address"
        },
        {
          "name": "",
          "type": "uint256"
        },
        {
          "name": "",
          "type": "uint256"
        }
      ],
      "name": "userToColorToCounterToTimestamp",
      "outputs": [
        {
          "name": "",
          "type": "uint256"
        }
      ],
      "payable": false,
      "stateMutability": "view",
      "type": "function"
    },
    {
      "constant": true,
      "inputs": [
        {
          "name": "",
          "type": "uint256"
        },
        {
          "name": "",
          "type": "address"
        }
      ],
      "name": "usersPaintDiscountForColor",
      "outputs": [
        {
          "name": "",
          "type": "uint256"
        }
      ],
      "payable": false,
      "stateMutability": "view",
      "type": "function"
    },
    {
      "constant": false,
      "inputs": [],
      "name": "claimColorBankPrizeForLastPlayedRound",
      "outputs": [],
      "payable": false,
      "stateMutability": "nonpayable",
      "type": "function"
    },
    {
      "constant": true,
      "inputs": [],
      "name": "maxPaintsInPool",
      "outputs": [
        {
          "name": "",
          "type": "uint256"
        }
      ],
      "payable": false,
      "stateMutability": "view",
      "type": "function"
    },
    {
      "constant": false,
      "inputs": [
        {
          "name": "newOwner",
          "type": "address"
        }
      ],
      "name": "transferOwnership",
      "outputs": [],
      "payable": false,
      "stateMutability": "nonpayable",
      "type": "function"
    },
    {
      "constant": true,
      "inputs": [
        {
          "name": "",
          "type": "uint256"
        }
      ],
      "name": "winnerColorForRound",
      "outputs": [
        {
          "name": "",
          "type": "uint256"
        }
      ],
      "payable": false,
      "stateMutability": "view",
      "type": "function"
    },
    {
      "constant": true,
      "inputs": [],
      "name": "dividendsBank",
      "outputs": [
        {
          "name": "",
          "type": "uint256"
        }
      ],
      "payable": false,
      "stateMutability": "view",
      "type": "function"
    },
    {
      "constant": true,
      "inputs": [
        {
          "name": "",
          "type": "address"
        }
      ],
      "name": "withdrawalBalances",
      "outputs": [
        {
          "name": "",
          "type": "uint256"
        }
      ],
      "payable": false,
      "stateMutability": "view",
      "type": "function"
    },
    {
      "inputs": [],
      "payable": true,
      "stateMutability": "payable",
      "type": "constructor"
    },
    {
      "anonymous": false,
      "inputs": [
        {
          "indexed": true,
          "name": "pixelId",
          "type": "uint256"
        },
        {
          "indexed": false,
          "name": "colorId",
          "type": "uint256"
        },
        {
          "indexed": true,
          "name": "painter",
          "type": "address"
        },
        {
          "indexed": true,
          "name": "round",
          "type": "uint256"
        }
      ],
      "name": "Paint",
      "type": "event"
    },
    {
      "anonymous": false,
      "inputs": [
        {
          "indexed": true,
          "name": "withdrawer",
          "type": "address"
        },
        {
          "indexed": true,
          "name": "currentTime",
          "type": "uint256"
        },
        {
          "indexed": true,
          "name": "amount",
          "type": "uint256"
        }
      ],
      "name": "DividendsWithdrawn",
      "type": "event"
    },
    {
      "anonymous": false,
      "inputs": [
        {
          "indexed": true,
          "name": "claimer",
          "type": "address"
        },
        {
          "indexed": true,
          "name": "currentTime",
          "type": "uint256"
        }
      ],
      "name": "DividendsClaimed",
      "type": "event"
    },
    {
      "anonymous": false,
      "inputs": [
        {
          "indexed": true,
          "name": "newCallPrice",
          "type": "uint256"
        }
      ],
      "name": "CallPriceUpdated",
      "type": "event"
    },
    {
      "anonymous": false,
      "inputs": [
        {
          "indexed": true,
          "name": "winner",
          "type": "address"
        },
        {
          "indexed": true,
          "name": "winnerColor",
          "type": "uint256"
        },
        {
          "indexed": true,
          "name": "currentRound",
          "type": "uint256"
        }
      ],
      "name": "ColorBankPlayed",
      "type": "event"
    },
    {
      "anonymous": false,
      "inputs": [
        {
          "indexed": true,
          "name": "winner",
          "type": "address"
        },
        {
          "indexed": true,
          "name": "round",
          "type": "uint256"
        },
        {
          "indexed": true,
          "name": "amount",
          "type": "uint256"
        }
      ],
      "name": "ColorBankPrizeDistributed",
      "type": "event"
    },
    {
      "anonymous": false,
      "inputs": [
        {
          "indexed": true,
          "name": "winner",
          "type": "address"
        },
        {
          "indexed": true,
          "name": "currentRound",
          "type": "uint256"
        }
      ],
      "name": "TimeBankPlayed",
      "type": "event"
    },
    {
      "anonymous": false,
      "inputs": [
        {
          "indexed": true,
          "name": "winner",
          "type": "address"
        },
        {
          "indexed": true,
          "name": "round",
          "type": "uint256"
        },
        {
          "indexed": true,
          "name": "amount",
          "type": "uint256"
        }
      ],
      "name": "TimeBankPrizeDistributed",
      "type": "event"
    },
    {
      "anonymous": false,
      "inputs": [
        {
          "indexed": true,
          "name": "previousOwner",
          "type": "address"
        },
        {
          "indexed": true,
          "name": "newOwner",
          "type": "address"
        }
      ],
      "name": "OwnershipTransferred",
      "type": "event"
    },
    {
      "constant": false,
      "inputs": [],
      "name": "hardCode",
      "outputs": [],
      "payable": false,
      "stateMutability": "nonpayable",
      "type": "function"
    },
    {
      "constant": true,
      "inputs": [
        {
          "name": "_pixel",
          "type": "uint256"
        }
      ],
      "name": "getPixelColor",
      "outputs": [
        {
          "name": "",
          "type": "uint256"
        }
      ],
      "payable": false,
      "stateMutability": "view",
      "type": "function"
    },
    {
      "constant": true,
      "inputs": [
        {
          "name": "_pixels",
          "type": "uint256[]"
        },
        {
          "name": "_color",
          "type": "uint256"
        }
      ],
      "name": "estimateCallPrice",
      "outputs": [
        {
          "name": "",
          "type": "uint256"
        }
      ],
      "payable": false,
      "stateMutability": "view",
      "type": "function"
    },
    {
      "constant": false,
      "inputs": [
        {
          "name": "_pixels",
          "type": "uint256[]"
        },
        {
          "name": "_color",
          "type": "uint256"
        }
      ],
      "name": "paint",
      "outputs": [],
      "payable": true,
      "stateMutability": "payable",
      "type": "function"
    },
    {
      "constant": false,
      "inputs": [],
      "name": "_claimBankPrizeForLastPlayedRound",
      "outputs": [],
      "payable": false,
      "stateMutability": "nonpayable",
      "type": "function"
    },
    {
      "constant": true,
      "inputs": [
        {
          "name": "_color",
          "type": "uint256"
        }
      ],
      "name": "showPotentialPrizeForColor",
      "outputs": [
        {
          "name": "",
          "type": "uint256"
        }
      ],
      "payable": false,
      "stateMutability": "view",
      "type": "function"
    }
  ],
  "bytecode": "0x608060405273ca35b7d915458ef540ade6068dfe2f44e8fa733c603060006101000a81548173ffffffffffffffffffffffffffffffffffffffff021916908373ffffffffffffffffffffffffffffffffffffffff160217905550733e4d187df7d8a0820eaf4174d17b160157610912603160006101000a81548173ffffffffffffffffffffffffffffffffffffffff021916908373ffffffffffffffffffffffffffffffffffffffff16021790555060008033601a60006101000a81548173ffffffffffffffffffffffffffffffffffffffff021916908373ffffffffffffffffffffffffffffffffffffffff160217905550601a60009054906101000a900473ffffffffffffffffffffffffffffffffffffffff1673ffffffffffffffffffffffffffffffffffffffff16600073ffffffffffffffffffffffffffffffffffffffff167f8be0079c531659141344cd1fd0a4f28419497f9722a3daafe3b4186f6b6457e060405160405180910390a36001602960003373ffffffffffffffffffffffffffffffffffffffff1673ffffffffffffffffffffffffffffffffffffffff16815260200190815260200160002060006101000a81548160ff021916908315150217905550600190505b6008811115156200024b5773bf0e4036bf968dd007f9b4a1bfda4e54c042f612602a600083815260200190815260200160002060006101000a81548173ffffffffffffffffffffffffffffffffffffffff021916908373ffffffffffffffffffffffffffffffffffffffff1602179055508080600101915050620001cc565b506127106025819055506001601981905550600190505b600381111515620004455760016022600083815260200190815260200160002081905550662386f26fc10000602360008381526020019081526020016000208190555060236000828152602001908152602001600020546024600083815260200190815260200160002081905550602554601e60008381526020019081526020016000206000602260008581526020019081526020016000205481526020019081526020016000208190555060016021600083815260200190815260200160002060006022600085815260200190815260200160002054815260200190815260200160002060006101000a81548160ff0219169083151502179055506000601d60006019548152602001908152602001600020541415620003bd574260206000838152602001908152602001600020600060016022600086815260200190815260200160002054038152602001908152602001600020819055505b42601f600083815260200190815260200160002060006022600085815260200190815260200160002054815260200190815260200160002081905550602554601e600083815260200190815260200160002060006022600085815260200190815260200160002054815260200190815260200160002081905550808060010191505062000262565b5061501680620004566000396000f300608060405260043610610301576000357c0100000000000000000000000000000000000000000000000000000000900463ffffffff16806306937b4714610306578063084028eb146103675780630ba36221146103be5780630baaea44146104095780630cf9603f14610476578063102f9713146104c15780631785f53c1461052e5780631f90c6ed146105715780632153fb01146105d657806323a43a8e1461063b57806324d7806c1461067c57806328361f57146106d757806328b290f9146107185780632c6c1c411461076f57806334d34b9b146107d057806335d2084e146107e75780633a1735051461081f5780633c6dd0131461086a5780633d0d1a79146108ab57806340aeff0e146108ec578063411b007e1461091757806346e301351461096e5780634b39173d1461099b5780634c78e401146109e657806355457fc114610a275780635c25fd1314610a685780635f5d554c14610a93578063628a71a314610ae2578063668038e014610b235780636730e3e014610b3a5780636f17eb4214610b7b5780637048027514610bbc578063715018a614610bff57806373a9ee2614610c1657806379ecf37614610c575780637b68a8f014610cc45780638a19c8bc14610d055780638da5cb5b14610d305780638f32d59b14610d87578063a312072414610db6578063a645867e14610e01578063a888c2cd14610e62578063a977e16814610ee8578063abafb90e14610f3f578063abd7c8ea14610fc3578063b66e5e9e14611024578063b8232d5d1461103b578063be6b414114611086578063be7d6226146110dd578063c3c5a5471461111e578063c5098c8714611179578063c64a2e56146111d0578063c957387b14611211578063d4b291eb1461125c578063d5de47c714611273578063d62da0cd146112be578063d7be63321461131f578063e5b38f8a14611384578063eaf1c910146113ef578063ebf0ba0314611450578063eef565da14611467578063f2fde38b14611492578063f49916f5146114d5578063f5f95b3b14611516578063fb454d2914611541575b600080fd5b34801561031257600080fd5b5061035160048036038101908080359060200190929190803573ffffffffffffffffffffffffffffffffffffffff169060200190929190505050611598565b6040518082815260200191505060405180910390f35b34801561037357600080fd5b506103a8600480360381019080803573ffffffffffffffffffffffffffffffffffffffff1690602001909291905050506115bd565b6040518082815260200191505060405180910390f35b3480156103ca57600080fd5b506103f360048036038101908080359060200190929190803590602001909291905050506115d5565b6040518082815260200191505060405180910390f35b34801561041557600080fd5b50610434600480360381019080803590602001909291905050506115fa565b604051808273ffffffffffffffffffffffffffffffffffffffff1673ffffffffffffffffffffffffffffffffffffffff16815260200191505060405180910390f35b34801561048257600080fd5b506104ab600480360381019080803590602001909291908035906020019092919050505061162d565b6040518082815260200191505060405180910390f35b3480156104cd57600080fd5b506104ec60048036038101908080359060200190929190505050611652565b604051808273ffffffffffffffffffffffffffffffffffffffff1673ffffffffffffffffffffffffffffffffffffffff16815260200191505060405180910390f35b34801561053a57600080fd5b5061056f600480360381019080803573ffffffffffffffffffffffffffffffffffffffff169060200190929190505050611685565b005b34801561057d57600080fd5b506105bc60048036038101908080359060200190929190803573ffffffffffffffffffffffffffffffffffffffff1690602001909291905050506116f3565b604051808215151515815260200191505060405180910390f35b3480156105e257600080fd5b5061062160048036038101908080359060200190929190803573ffffffffffffffffffffffffffffffffffffffff169060200190929190505050611722565b604051808215151515815260200191505060405180910390f35b34801561064757600080fd5b5061066660048036038101908080359060200190929190505050611751565b6040518082815260200191505060405180910390f35b34801561068857600080fd5b506106bd600480360381019080803573ffffffffffffffffffffffffffffffffffffffff169060200190929190505050611769565b604051808215151515815260200191505060405180910390f35b3480156106e357600080fd5b5061070260048036038101908080359060200190929190505050611789565b6040518082815260200191505060405180910390f35b34801561072457600080fd5b50610759600480360381019080803573ffffffffffffffffffffffffffffffffffffffff1690602001909291905050506117a1565b6040518082815260200191505060405180910390f35b34801561077b57600080fd5b506107ba60048036038101908080359060200190929190803573ffffffffffffffffffffffffffffffffffffffff1690602001909291905050506117b9565b6040518082815260200191505060405180910390f35b3480156107dc57600080fd5b506107e56117de565b005b61081d60048036038101908080359060200190820180359060200191909192939192939080359060200190929190505050611852565b005b34801561082b57600080fd5b506108546004803603810190808035906020019092919080359060200190929190505050611a89565b6040518082815260200191505060405180910390f35b34801561087657600080fd5b5061089560048036038101908080359060200190929190505050611aae565b6040518082815260200191505060405180910390f35b3480156108b757600080fd5b506108d660048036038101908080359060200190929190505050611ac6565b6040518082815260200191505060405180910390f35b3480156108f857600080fd5b50610901611ade565b6040518082815260200191505060405180910390f35b34801561092357600080fd5b5061092c611ae4565b604051808273ffffffffffffffffffffffffffffffffffffffff1673ffffffffffffffffffffffffffffffffffffffff16815260200191505060405180910390f35b34801561097a57600080fd5b5061099960048036038101908080359060200190929190505050611b0a565b005b3480156109a757600080fd5b506109d06004803603810190808035906020019092919080359060200190929190505050611db5565b6040518082815260200191505060405180910390f35b3480156109f257600080fd5b50610a1160048036038101908080359060200190929190505050611dda565b6040518082815260200191505060405180910390f35b348015610a3357600080fd5b50610a5260048036038101908080359060200190929190505050611df2565b6040518082815260200191505060405180910390f35b348015610a7457600080fd5b50610a7d611e0a565b6040518082815260200191505060405180910390f35b348015610a9f57600080fd5b50610ac86004803603810190808035906020019092919080359060200190929190505050611e10565b604051808215151515815260200191505060405180910390f35b348015610aee57600080fd5b50610b0d60048036038101908080359060200190929190505050611e3f565b6040518082815260200191505060405180910390f35b348015610b2f57600080fd5b50610b38611e57565b005b348015610b4657600080fd5b50610b65600480360381019080803590602001909291905050506120ab565b6040518082815260200191505060405180910390f35b348015610b8757600080fd5b50610ba660048036038101908080359060200190929190505050612241565b6040518082815260200191505060405180910390f35b348015610bc857600080fd5b50610bfd600480360381019080803573ffffffffffffffffffffffffffffffffffffffff169060200190929190505050612259565b005b348015610c0b57600080fd5b50610c146122c7565b005b348015610c2257600080fd5b50610c416004803603810190808035906020019092919050505061239b565b6040518082815260200191505060405180910390f35b348015610c6357600080fd5b50610c82600480360381019080803590602001909291905050506123b3565b604051808273ffffffffffffffffffffffffffffffffffffffff1673ffffffffffffffffffffffffffffffffffffffff16815260200191505060405180910390f35b348015610cd057600080fd5b50610cef600480360381019080803590602001909291905050506123e6565b6040518082815260200191505060405180910390f35b348015610d1157600080fd5b50610d1a612416565b6040518082815260200191505060405180910390f35b348015610d3c57600080fd5b50610d4561241c565b604051808273ffffffffffffffffffffffffffffffffffffffff1673ffffffffffffffffffffffffffffffffffffffff16815260200191505060405180910390f35b348015610d9357600080fd5b50610d9c612446565b604051808215151515815260200191505060405180910390f35b348015610dc257600080fd5b50610deb600480360381019080803590602001909291908035906020019092919050505061249e565b6040518082815260200191505060405180910390f35b348015610e0d57600080fd5b50610e4c60048036038101908080359060200190929190803573ffffffffffffffffffffffffffffffffffffffff1690602001909291905050506124c3565b6040518082815260200191505060405180910390f35b348015610e6e57600080fd5b50610e8d600480360381019080803590602001909291905050506124e8565b604051808581526020018473ffffffffffffffffffffffffffffffffffffffff1673ffffffffffffffffffffffffffffffffffffffff1681526020018315151515815260200182815260200194505050505060405180910390f35b348015610ef457600080fd5b50610efd612554565b604051808273ffffffffffffffffffffffffffffffffffffffff1673ffffffffffffffffffffffffffffffffffffffff16815260200191505060405180910390f35b348015610f4b57600080fd5b50610fad600480360381019080803590602001908201803590602001908080602002602001604051908101604052809392919081815260200183836020028082843782019150505050505091929192908035906020019092919050505061257a565b6040518082815260200191505060405180910390f35b348015610fcf57600080fd5b5061100e60048036038101908080359060200190929190803573ffffffffffffffffffffffffffffffffffffffff16906020019092919050505061276d565b6040518082815260200191505060405180910390f35b34801561103057600080fd5b50611039612792565b005b34801561104757600080fd5b506110706004803603810190808035906020019092919080359060200190929190505050612c6c565b6040518082815260200191505060405180910390f35b34801561109257600080fd5b506110c7600480360381019080803573ffffffffffffffffffffffffffffffffffffffff169060200190929190505050612c91565b6040518082815260200191505060405180910390f35b3480156110e957600080fd5b5061110860048036038101908080359060200190929190505050612ca9565b6040518082815260200191505060405180910390f35b34801561112a57600080fd5b5061115f600480360381019080803573ffffffffffffffffffffffffffffffffffffffff169060200190929190505050612cc1565b604051808215151515815260200191505060405180910390f35b34801561118557600080fd5b506111ba600480360381019080803573ffffffffffffffffffffffffffffffffffffffff169060200190929190505050612ce1565b6040518082815260200191505060405180910390f35b3480156111dc57600080fd5b506111fb60048036038101908080359060200190929190505050612cf9565b6040518082815260200191505060405180910390f35b34801561121d57600080fd5b506112466004803603810190808035906020019092919080359060200190929190505050612d11565b6040518082815260200191505060405180910390f35b34801561126857600080fd5b50611271612d35565b005b34801561127f57600080fd5b506112a86004803603810190808035906020019092919080359060200190929190505050612ef4565b6040518082815260200191505060405180910390f35b3480156112ca57600080fd5b50611309600480360381019080803573ffffffffffffffffffffffffffffffffffffffff16906020019092919080359060200190929190505050612f19565b6040518082815260200191505060405180910390f35b34801561132b57600080fd5b5061136a600480360381019080803573ffffffffffffffffffffffffffffffffffffffff16906020019092919080359060200190929190505050612f3e565b604051808215151515815260200191505060405180910390f35b34801561139057600080fd5b506113d9600480360381019080803573ffffffffffffffffffffffffffffffffffffffff1690602001909291908035906020019092919080359060200190929190505050612f6d565b6040518082815260200191505060405180910390f35b3480156113fb57600080fd5b5061143a60048036038101908080359060200190929190803573ffffffffffffffffffffffffffffffffffffffff169060200190929190505050612f9f565b6040518082815260200191505060405180910390f35b34801561145c57600080fd5b50611465612fc4565b005b34801561147357600080fd5b5061147c6135af565b6040518082815260200191505060405180910390f35b34801561149e57600080fd5b506114d3600480360381019080803573ffffffffffffffffffffffffffffffffffffffff1690602001909291905050506135b5565b005b3480156114e157600080fd5b50611500600480360381019080803590602001909291905050506135d4565b6040518082815260200191505060405180910390f35b34801561152257600080fd5b5061152b6135ec565b6040518082815260200191505060405180910390f35b34801561154d57600080fd5b50611582600480360381019080803573ffffffffffffffffffffffffffffffffffffffff1690602001909291905050506135f2565b6040518082815260200191505060405180910390f35b6014602052816000526040600020602052806000526040600020600091509150505481565b601b6020528060005260406000206000915090505481565b600b602052816000526040600020602052806000526040600020600091509150505481565b602a6020528060005260406000206000915054906101000a900473ffffffffffffffffffffffffffffffffffffffff1681565b6003602052816000526040600020602052806000526040600020600091509150505481565b60156020528060005260406000206000915054906101000a900473ffffffffffffffffffffffffffffffffffffffff1681565b61168d612446565b151561169857600080fd5b6000602960008373ffffffffffffffffffffffffffffffffffffffff1673ffffffffffffffffffffffffffffffffffffffff16815260200190815260200160002060006101000a81548160ff02191690831515021790555050565b60276020528160005260406000206020528060005260406000206000915091509054906101000a900460ff1681565b60176020528160005260406000206020528060005260406000206000915091509054906101000a900460ff1681565b600c6020528060005260406000206000915090505481565b60296020528060005260406000206000915054906101000a900460ff1681565b60226020528060005260406000206000915090505481565b60326020528060005260406000206000915090505481565b6026602052816000526040600020602052806000526040600020600091509150505481565b670de0b6b3a764000060066000601954815260200190815260200160002081905550670de0b6b3a76400006004600060195481526020019081526020016000208190555061270e60036000601954815260200190815260200160002060006002815260200190815260200160002081905550565b6000801515603460003373ffffffffffffffffffffffffffffffffffffffff1673ffffffffffffffffffffffffffffffffffffffff16815260200190815260200160002060009054906101000a900460ff1615151415611921576001603460003373ffffffffffffffffffffffffffffffffffffffff1673ffffffffffffffffffffffffffffffffffffffff16815260200190815260200160002060006101000a81548160ff02191690831515021790555061191a600160335461360a90919063ffffffff16565b6033819055505b61195a8484808060200260200160405190810160405280939291908181526020018383602002808284378201915050505050508361257a565b341415156119d0576040517f08c379a00000000000000000000000000000000000000000000000000000000081526004018080602001828103825260108152602001807f57726f6e672063616c6c2070726963650000000000000000000000000000000081525060200191505060405180910390fd5b6104b0600760006019548152602001908152602001600020544203118015611a0e575060006007600060195481526020019081526020016000205414155b15611a1c57611a1b61362b565b5b600090505b83839050811015611a5757611a4a8484838181101515611a3d57fe5b9050602002013583613945565b8080600101915050611a21565b611a608261418a565b611a6982614325565b611a7282614568565b611a7b82614694565b611a83612d35565b50505050565b601f602052816000526040600020602052806000526040600020600091509150505481565b60236020528060005260406000206000915090505481565b60166020528060005260406000206000915090505481565b60335481565b603160009054906101000a900473ffffffffffffffffffffffffffffffffffffffff1681565b600080600060011515602960003373ffffffffffffffffffffffffffffffffffffffff1673ffffffffffffffffffffffffffffffffffffffff16815260200190815260200160002060009054906101000a900460ff161515141515611bd7576040517f08c379a00000000000000000000000000000000000000000000000000000000081526004018080602001828103825260208152602001807f596f7520646f6e277420686176652061646d696e2070726976696c656775657381525060200191505060405180910390fd5b602f84815481101515611be657fe5b906000526020600020906003020192508260010160149054906101000a900460ff16151515611c1457600080fd5b8260010160009054906101000a900473ffffffffffffffffffffffffffffffffffffffff169150602b60008373ffffffffffffffffffffffffffffffffffffffff1673ffffffffffffffffffffffffffffffffffffffff1681526020019081526020016000205490506000602b60008473ffffffffffffffffffffffffffffffffffffffff1673ffffffffffffffffffffffffffffffffffffffff168152602001908152602001600020819055508173ffffffffffffffffffffffffffffffffffffffff166108fc829081150290604051600060405180830381858888f19350505050158015611d08573d6000803e3d6000fd5b5042602c60008473ffffffffffffffffffffffffffffffffffffffff1673ffffffffffffffffffffffffffffffffffffffff1681526020019081526020016000208190555080428373ffffffffffffffffffffffffffffffffffffffff167f1a983dd8fc1bd566844e816cd39bafaebd6523281477df579d3252da34a251d960405160405180910390a460018360010160146101000a81548160ff02191690831515021790555050505050565b6002602052816000526040600020602052806000526040600020600091509150505481565b60066020528060005260406000206000915090505481565b600d6020528060005260406000206000915090505481565b602e5481565b60216020528160005260406000206020528060005260406000206000915091509054906101000a900460ff1681565b60096020528060005260406000206000915090505481565b611e5f614fa9565b6000602b60003373ffffffffffffffffffffffffffffffffffffffff1673ffffffffffffffffffffffffffffffffffffffff1681526020019081526020016000205414151515611f3d576040517f08c379a00000000000000000000000000000000000000000000000000000000081526004018080602001828103825260228152602001807f596f7572207769746864726177616c2062616c616e6365206973207a65726f2e81526020017f2e2e00000000000000000000000000000000000000000000000000000000000081525060400191505060405180910390fd5b602e5481600001818152505033816020019073ffffffffffffffffffffffffffffffffffffffff16908173ffffffffffffffffffffffffffffffffffffffff1681525050600081604001901515908115158152505042816060018181525050602f81908060018154018082558091505090600182039060005260206000209060030201600090919290919091506000820151816000015560208201518160010160006101000a81548173ffffffffffffffffffffffffffffffffffffffff021916908373ffffffffffffffffffffffffffffffffffffffff16021790555060408201518160010160146101000a81548160ff0219169083151502179055506060820151816002015550505061205e6001602e5461360a90919063ffffffff16565b602e81905550423373ffffffffffffffffffffffffffffffffffffffff167f16b8533c95f66ab8c192c98ddcf5031bcb3ee6f4022988bdadd57d3422da307360405160405180910390a350565b6000806000806000806000804296506201518042039550600e60008a815260200190815260200160002060003373ffffffffffffffffffffffffffffffffffffffff1673ffffffffffffffffffffffffffffffffffffffff1681526020019081526020016000205493508392505b60008311156121bf57601060003373ffffffffffffffffffffffffffffffffffffffff1673ffffffffffffffffffffffffffffffffffffffff16815260200190815260200160002060008a8152602001908152602001600020600084815260200190815260200160002054915085821180156121955750868211155b156121b1576121ae60018661360a90919063ffffffff16565b94505b828060019003935050612119565b612230600b6000601954815260200190815260200160002060008b81526020019081526020016000205461222260056000601954815260200190815260200160002060008d8152602001908152602001600020548861480790919063ffffffff16565b61484590919063ffffffff16565b905080975050505050505050919050565b60246020528060005260406000206000915090505481565b612261612446565b151561226c57600080fd5b6001602960008373ffffffffffffffffffffffffffffffffffffffff1673ffffffffffffffffffffffffffffffffffffffff16815260200190815260200160002060006101000a81548160ff02191690831515021790555050565b6122cf612446565b15156122da57600080fd5b600073ffffffffffffffffffffffffffffffffffffffff16601a60009054906101000a900473ffffffffffffffffffffffffffffffffffffffff1673ffffffffffffffffffffffffffffffffffffffff167f8be0079c531659141344cd1fd0a4f28419497f9722a3daafe3b4186f6b6457e060405160405180910390a36000601a60006101000a81548173ffffffffffffffffffffffffffffffffffffffff021916908373ffffffffffffffffffffffffffffffffffffffff160217905550565b60076020528060005260406000206000915090505481565b60086020528060005260406000206000915054906101000a900473ffffffffffffffffffffffffffffffffffffffff1681565b60006001600060195481526020019081526020016000206000838152602001908152602001600020549050919050565b60195481565b6000601a60009054906101000a900473ffffffffffffffffffffffffffffffffffffffff16905090565b6000601a60009054906101000a900473ffffffffffffffffffffffffffffffffffffffff1673ffffffffffffffffffffffffffffffffffffffff163373ffffffffffffffffffffffffffffffffffffffff1614905090565b6005602052816000526040600020602052806000526040600020600091509150505481565b6013602052816000526040600020602052806000526040600020600091509150505481565b602f818154811015156124f757fe5b90600052602060002090600302016000915090508060000154908060010160009054906101000a900473ffffffffffffffffffffffffffffffffffffffff16908060010160149054906101000a900460ff16908060020154905084565b603060009054906101000a900473ffffffffffffffffffffffffffffffffffffffff1681565b600080600080600080600080602660008a815260200190815260200160002060003373ffffffffffffffffffffffffffffffffffffffff1673ffffffffffffffffffffffffffffffffffffffff168152602001908152602001600020549350602760008a815260200190815260200160002060003373ffffffffffffffffffffffffffffffffffffffff1673ffffffffffffffffffffffffffffffffffffffff16815260200190815260200160002060009054906101000a900460ff169150602860008a815260200190815260200160002060003373ffffffffffffffffffffffffffffffffffffffff1673ffffffffffffffffffffffffffffffffffffffff168152602001908152602001600020549550600090505b895181101561275d576126d660646126c888606403602460008e81526020019081526020016000205461480790919063ffffffff16565b61484590919063ffffffff16565b94506001151582151514156126ed57849650612704565b602460008a81526020019081526020016000205496505b86830192508684019350670de0b6b3a7640000841015156127505760019150670de0b6b3a76400008481151561273657fe5b049550678ac7230489e800008410151561274f57600a95505b5b8080600101915050612691565b8297505050505050505092915050565b600e602052816000526040600020602052806000526040600020600091509150505481565b6000806000806000806000601860003373ffffffffffffffffffffffffffffffffffffffff1673ffffffffffffffffffffffffffffffffffffffff16815260200190815260200160002054965060016016600089815260200190815260200160002054141515612890576040517f08c379a00000000000000000000000000000000000000000000000000000000081526004018080602001828103825260318152602001807f42616e6b206f662074696d6520776173206e6f7420706c6179656420696e207981526020017f6f7572206c61737420726f756e642e2e2e00000000000000000000000000000081525060400191505060405180910390fd5b600d6000888152602001908152602001600020549550600c6000888152602001908152602001600020549450600f60003373ffffffffffffffffffffffffffffffffffffffff1673ffffffffffffffffffffffffffffffffffffffff1681526020019081526020016000205492508291505b600082111561298a57601160003373ffffffffffffffffffffffffffffffffffffffff1673ffffffffffffffffffffffffffffffffffffffff168152602001908152602001600020600083815260200190815260200160002054905084811015801561296e5750858111155b1561297c5783806001019450505b818060019003925050612902565b6129d4600080898152602001908152602001600020546129c6600660008b8152602001908152602001600020548761480790919063ffffffff16565b61484590919063ffffffff16565b6014600089815260200190815260200160002060003373ffffffffffffffffffffffffffffffffffffffff1673ffffffffffffffffffffffffffffffffffffffff168152602001908152602001600020600082825401925050819055506014600088815260200190815260200160002060003373ffffffffffffffffffffffffffffffffffffffff1673ffffffffffffffffffffffffffffffffffffffff16815260200190815260200160002054601b60003373ffffffffffffffffffffffffffffffffffffffff1673ffffffffffffffffffffffffffffffffffffffff168152602001908152602001600020600082825401925050819055503373ffffffffffffffffffffffffffffffffffffffff166108fc601460008a815260200190815260200160002060003373ffffffffffffffffffffffffffffffffffffffff1673ffffffffffffffffffffffffffffffffffffffff168152602001908152602001600020549081150290604051600060405180830381858888f19350505050158015612b64573d6000803e3d6000fd5b506001601260003373ffffffffffffffffffffffffffffffffffffffff1673ffffffffffffffffffffffffffffffffffffffff168152602001908152602001600020600089815260200190815260200160002060006101000a81548160ff0219169083151502179055506013600088815260200190815260200160002060003373ffffffffffffffffffffffffffffffffffffffff1673ffffffffffffffffffffffffffffffffffffffff16815260200190815260200160002054873373ffffffffffffffffffffffffffffffffffffffff167f8981f49dce2918fc89fa176fbbd90d8546f51779930f7b458ca6a0d4856f878c60405160405180910390a450505050505050565b6001602052816000526040600020602052806000526040600020600091509150505481565b601c6020528060005260406000206000915090505481565b601d6020528060005260406000206000915090505481565b60346020528060005260406000206000915054906101000a900460ff1681565b600f6020528060005260406000206000915090505481565b60046020528060005260406000206000915090505481565b60208052816000526040600020602052806000526040600020600091509150505481565b6001603260003373ffffffffffffffffffffffffffffffffffffffff1673ffffffffffffffffffffffffffffffffffffffff16815260200190815260200160002054118015612e24575060001515601260003373ffffffffffffffffffffffffffffffffffffffff1673ffffffffffffffffffffffffffffffffffffffff1681526020019081526020016000206000603260003373ffffffffffffffffffffffffffffffffffffffff1673ffffffffffffffffffffffffffffffffffffffff16815260200190815260200160002054815260200190815260200160002060009054906101000a900460ff161515145b15612ef257600160166000603260003373ffffffffffffffffffffffffffffffffffffffff1673ffffffffffffffffffffffffffffffffffffffff168152602001908152602001600020548152602001908152602001600020541415612e8d57612e8c612792565b5b600260166000603260003373ffffffffffffffffffffffffffffffffffffffff1673ffffffffffffffffffffffffffffffffffffffff168152602001908152602001600020548152602001908152602001600020541415612ef157612ef0612fc4565b5b5b565b601e602052816000526040600020602052806000526040600020600091509150505481565b6011602052816000526040600020602052806000526040600020600091509150505481565b60126020528160005260406000206020528060005260406000206000915091509054906101000a900460ff1681565b601060205282600052604060002060205281600052604060002060205280600052604060002060009250925050505481565b6028602052816000526040600020602052806000526040600020600091509150505481565b600080600080600080600080601860003373ffffffffffffffffffffffffffffffffffffffff1673ffffffffffffffffffffffffffffffffffffffff168152602001908152602001600020549750600260166000601860003373ffffffffffffffffffffffffffffffffffffffff1673ffffffffffffffffffffffffffffffffffffffff16815260200190815260200160002054815260200190815260200160002054141515613102576040517f08c379a00000000000000000000000000000000000000000000000000000000081526004018080602001828103825260328152602001807f42616e6b206f6620636f6c6f7220776173206e6f7420706c6179656420696e2081526020017f796f7572206c61737420726f756e642e2e2e000000000000000000000000000081525060400191505060405180910390fd5b600a6000898152602001908152602001600020549650600d60008981526020019081526020016000205495506001601860003373ffffffffffffffffffffffffffffffffffffffff1673ffffffffffffffffffffffffffffffffffffffff16815260200190815260200160002054118015613193575060016016600060018b03815260200190815260200160002054145b156131a55762015180860394506131bc565b600c60008981526020019081526020016000205494505b600e600088815260200190815260200160002060003373ffffffffffffffffffffffffffffffffffffffff1673ffffffffffffffffffffffffffffffffffffffff1681526020019081526020016000205492508291505b60008211156132ba57601060003373ffffffffffffffffffffffffffffffffffffffff1673ffffffffffffffffffffffffffffffffffffffff168152602001908152602001600020600088815260200190815260200160002060008381526020019081526020016000205490508481101580156132905750858111155b156132ac576132a960018561360a90919063ffffffff16565b93505b818060019003925050613213565b613316600b60008a8152602001908152602001600020600089815260200190815260200160002054613308600460008c8152602001908152602001600020548761480790919063ffffffff16565b61484590919063ffffffff16565b601360008a815260200190815260200160002060003373ffffffffffffffffffffffffffffffffffffffff1673ffffffffffffffffffffffffffffffffffffffff168152602001908152602001600020600082825401925050819055506013600089815260200190815260200160002060003373ffffffffffffffffffffffffffffffffffffffff1673ffffffffffffffffffffffffffffffffffffffff16815260200190815260200160002054601c60003373ffffffffffffffffffffffffffffffffffffffff1673ffffffffffffffffffffffffffffffffffffffff168152602001908152602001600020600082825401925050819055503373ffffffffffffffffffffffffffffffffffffffff166108fc601360008b815260200190815260200160002060003373ffffffffffffffffffffffffffffffffffffffff1673ffffffffffffffffffffffffffffffffffffffff168152602001908152602001600020549081150290604051600060405180830381858888f193505050501580156134a6573d6000803e3d6000fd5b506001601260003373ffffffffffffffffffffffffffffffffffffffff1673ffffffffffffffffffffffffffffffffffffffff16815260200190815260200160002060008a815260200190815260200160002060006101000a81548160ff0219169083151502179055506013600089815260200190815260200160002060003373ffffffffffffffffffffffffffffffffffffffff1673ffffffffffffffffffffffffffffffffffffffff16815260200190815260200160002054883373ffffffffffffffffffffffffffffffffffffffff167fff0e3cc6a8358bbcae69e6c859a508401151d25fe2552fc59ca6f31b37461b5060405160405180910390a45050505050505050565b60255481565b6135bd612446565b15156135c857600080fd5b6135d18161486f565b50565b600a6020528060005260406000206000915090505481565b602d5481565b602b6020528060005260406000206000915090505481565b600080828401905083811015151561362157600080fd5b8091505092915050565b6000620151804203600c600060195481526020019081526020016000208190555042600d600060195481526020019081526020016000208190555060086000601954815260200190815260200160002060009054906101000a900473ffffffffffffffffffffffffffffffffffffffff1660156000601954815260200190815260200160002060006101000a81548173ffffffffffffffffffffffffffffffffffffffff021916908373ffffffffffffffffffffffffffffffffffffffff16021790555061372b606461371d602d6006600060195481526020019081526020016000205461480790919063ffffffff16565b61484590919063ffffffff16565b905060156000601954815260200190815260200160002060009054906101000a900473ffffffffffffffffffffffffffffffffffffffff1673ffffffffffffffffffffffffffffffffffffffff166108fc829081150290604051600060405180830381858888f193505050501580156137a8573d6000803e3d6000fd5b506001601660006019548152602001908152602001600020819055506137ed600a6006600060195481526020019081526020016000205461484590919063ffffffff16565b600660006001601954018152602001908152602001600020819055506138456064613837602d6006600060195481526020019081526020016000205461480790919063ffffffff16565b61484590919063ffffffff16565b60066000601954815260200190815260200160002081905550600460006019548152602001908152602001600020546004600060016019540181526020019081526020016000208190555060006004600060195481526020019081526020016000208190555060195460156000601954815260200190815260200160002060009054906101000a900473ffffffffffffffffffffffffffffffffffffffff1673ffffffffffffffffffffffffffffffffffffffff167f20f206bcab56eeef408295aaff8745adb98fed16823d758193e9449983d23fd260405160405180910390a361393c600160195461360a90919063ffffffff16565b60198190555050565b60008060006139538461496b565b600085141515156139f2576040517f08c379a00000000000000000000000000000000000000000000000000000000081526004018080602001828103825260278152602001807f54686520706978656c2077697468206964203d203020646f6573206e6f74206581526020017f786973742e2e2e0000000000000000000000000000000000000000000000000081525060400191505060405180910390fd5b60008414151515613a91576040517f08c379a00000000000000000000000000000000000000000000000000000000081526004018080602001828103825260288152602001807f596f752063616e6e6f74207061696e7420746f207472616e73706172656e742081526020017f636f6c6f722e2e2e00000000000000000000000000000000000000000000000081525060400191505060405180910390fd5b8360016000601954815260200190815260200160002060008781526020019081526020016000205414151515613b55576040517f08c379a00000000000000000000000000000000000000000000000000000000081526004018080602001828103825260268152602001807f5468697320706978656c20697320616c7265616479206f66207468697320636f81526020017f6c6f722e2e2e000000000000000000000000000000000000000000000000000081525060400191505060405180910390fd5b6001600060195481526020019081526020016000206000868152602001908152602001600020549250836001600060195481526020019081526020016000206000878152602001908152602001600020819055508260026000601954815260200190815260200160002060008781526020019081526020016000208190555042600760006019548152602001908152602001600020819055503360086000601954815260200190815260200160002060006101000a81548173ffffffffffffffffffffffffffffffffffffffff021916908373ffffffffffffffffffffffffffffffffffffffff16021790555060006003600060195481526020019081526020016000206000858152602001908152602001600020541115613cd657613cab6001600360006019548152602001908152602001600020600086815260200190815260200160002054614c0990919063ffffffff16565b6003600060195481526020019081526020016000206000858152602001908152602001600020819055505b613d10600160036000601954815260200190815260200160002060008781526020019081526020016000205461360a90919063ffffffff16565b600360006019548152602001908152602001600020600086815260200190815260200160002081905550600e600085815260200190815260200160002060003373ffffffffffffffffffffffffffffffffffffffff1673ffffffffffffffffffffffffffffffffffffffff168152602001908152602001600020549150613da160018361360a90919063ffffffff16565b915081600e600086815260200190815260200160002060003373ffffffffffffffffffffffffffffffffffffffff1673ffffffffffffffffffffffffffffffffffffffff16815260200190815260200160002081905550600f60003373ffffffffffffffffffffffffffffffffffffffff1673ffffffffffffffffffffffffffffffffffffffff168152602001908152602001600020549050613e4e60018261360a90919063ffffffff16565b905080600f60003373ffffffffffffffffffffffffffffffffffffffff1673ffffffffffffffffffffffffffffffffffffffff1681526020019081526020016000208190555042601060003373ffffffffffffffffffffffffffffffffffffffff1673ffffffffffffffffffffffffffffffffffffffff168152602001908152602001600020600086815260200190815260200160002060008481526020019081526020016000208190555042601160003373ffffffffffffffffffffffffffffffffffffffff1673ffffffffffffffffffffffffffffffffffffffff168152602001908152602001600020600083815260200190815260200160002081905550613f896001600b6000601954815260200190815260200160002060008781526020019081526020016000205461360a90919063ffffffff16565b600b60006019548152602001908152602001600020600086815260200190815260200160002081905550613fdc6001601d600060195481526020019081526020016000205461360a90919063ffffffff16565b601d60006019548152602001908152602001600020819055506140406001601e600087815260200190815260200160002060006022600089815260200190815260200160002054815260200190815260200160002054614c0990919063ffffffff16565b601e60008681526020019081526020016000206000602260008881526020019081526020016000205481526020019081526020016000208190555084600960006019548152602001908152602001600020819055506019543373ffffffffffffffffffffffffffffffffffffffff16867f9fc3dbbdc37d009049a6fcc93e65a525d9d3dbb003222c5589680354313e5377876040518082815260200191505060405180910390a4612710600360006019548152602001908152602001600020600086815260200190815260200160002054141561413a5783600a6000601954815260200190815260200160002081905550614139614c2a565b5b600160195403603260003373ffffffffffffffffffffffffffffffffffffffff1673ffffffffffffffffffffffffffffffffffffffff168152602001908152602001600020819055505050505050565b6141e96141b460646141a660283461480790919063ffffffff16565b61484590919063ffffffff16565b60056000601954815260200190815260200160002060008481526020019081526020016000205461360a90919063ffffffff16565b60056000601954815260200190815260200160002060008381526020019081526020016000208190555061426161423d606461422f60283461480790919063ffffffff16565b61484590919063ffffffff16565b6004600060195481526020019081526020016000205461360a90919063ffffffff16565b600460006019548152602001908152602001600020819055506142c86142a4606461429660283461480790919063ffffffff16565b61484590919063ffffffff16565b6006600060195481526020019081526020016000205461360a90919063ffffffff16565b6006600060195481526020019081526020016000208190555061431c61430b60646142fd60143461480790919063ffffffff16565b61484590919063ffffffff16565b602d5461360a90919063ffffffff16565b602d8190555050565b6143c161435160646143436019602d5461480790919063ffffffff16565b61484590919063ffffffff16565b602b6000603160009054906101000a900473ffffffffffffffffffffffffffffffffffffffff1673ffffffffffffffffffffffffffffffffffffffff1673ffffffffffffffffffffffffffffffffffffffff1681526020019081526020016000205461360a90919063ffffffff16565b602b6000603160009054906101000a900473ffffffffffffffffffffffffffffffffffffffff1673ffffffffffffffffffffffffffffffffffffffff1673ffffffffffffffffffffffffffffffffffffffff1681526020019081526020016000208190555061444f60646144416019602d5461480790919063ffffffff16565b61484590919063ffffffff16565b602b6000602a600085815260200190815260200160002060009054906101000a900473ffffffffffffffffffffffffffffffffffffffff1673ffffffffffffffffffffffffffffffffffffffff1673ffffffffffffffffffffffffffffffffffffffff168152602001908152602001600020600082825401925050819055506144f760646144e96019602d5461480790919063ffffffff16565b61484590919063ffffffff16565b602b6000603060009054906101000a900473ffffffffffffffffffffffffffffffffffffffff1673ffffffffffffffffffffffffffffffffffffffff1673ffffffffffffffffffffffffffffffffffffffff1681526020019081526020016000206000828254019250508190555050565b346026600083815260200190815260200160002060003373ffffffffffffffffffffffffffffffffffffffff1673ffffffffffffffffffffffffffffffffffffffff16815260200190815260200160002060008282540192505081905550670de0b6b3a76400006026600083815260200190815260200160002060003373ffffffffffffffffffffffffffffffffffffffff1673ffffffffffffffffffffffffffffffffffffffff168152602001908152602001600020541015156146915760016027600083815260200190815260200160002060003373ffffffffffffffffffffffffffffffffffffffff1673ffffffffffffffffffffffffffffffffffffffff16815260200190815260200160002060006101000a81548160ff0219169083151502179055505b50565b670de0b6b3a76400006026600083815260200190815260200160002060003373ffffffffffffffffffffffffffffffffffffffff1673ffffffffffffffffffffffffffffffffffffffff168152602001908152602001600020548115156146f757fe5b046028600083815260200190815260200160002060003373ffffffffffffffffffffffffffffffffffffffff1673ffffffffffffffffffffffffffffffffffffffff16815260200190815260200160002081905550678ac7230489e800006026600083815260200190815260200160002060003373ffffffffffffffffffffffffffffffffffffffff1673ffffffffffffffffffffffffffffffffffffffff1681526020019081526020016000205410151561480457600a6028600083815260200190815260200160002060003373ffffffffffffffffffffffffffffffffffffffff1673ffffffffffffffffffffffffffffffffffffffff168152602001908152602001600020819055505b50565b600080600084141561481c576000915061483e565b828402905082848281151561482d57fe5b0414151561483a57600080fd5b8091505b5092915050565b60008060008311151561485757600080fd5b828481151561486257fe5b0490508091505092915050565b600073ffffffffffffffffffffffffffffffffffffffff168173ffffffffffffffffffffffffffffffffffffffff16141515156148ab57600080fd5b8073ffffffffffffffffffffffffffffffffffffffff16601a60009054906101000a900473ffffffffffffffffffffffffffffffffffffffff1673ffffffffffffffffffffffffffffffffffffffff167f8be0079c531659141344cd1fd0a4f28419497f9722a3daafe3b4186f6b6457e060405160405180910390a380601a60006101000a81548173ffffffffffffffffffffffffffffffffffffffff021916908373ffffffffffffffffffffffffffffffffffffffff16021790555050565b600080605a60206000858152602001908152602001600020600060016022600088815260200190815260200160002054038152602001908152602001600020544203101515614c0457601e6000848152602001908152602001600020600060226000868152602001908152602001600020548152602001908152602001600020549150614a156001602260008681526020019081526020016000205461360a90919063ffffffff16565b90506000151560216000858152602001908152602001600020600083815260200190815260200160002060009054906101000a900460ff1615151415614af957614a6a82602554614c0990919063ffffffff16565b601e600085815260200190815260200160002060008381526020019081526020016000208190555042601f6000858152602001908152602001600020600083815260200190815260200160002081905550600160216000858152602001908152602001600020600083815260200190815260200160002060006101000a81548160ff0219169083151502179055505b6001601e6000858152602001908152602001600020600060226000878152602001908152602001600020548152602001908152602001600020541415614b7f57614b4283614f15565b4260206000858152602001908152602001600020600060226000878152602001908152602001600020548152602001908152602001600020819055505b6000601e6000858152602001908152602001600020600060226000878152602001908152602001600020548152602001908152602001600020541415614c0357602460008481526020019081526020016000205460236000858152602001908152602001600020819055508060226000858152602001908152602001600020819055505b5b505050565b600080838311151515614c1b57600080fd5b82840390508091505092915050565b6000620151804203600c600060195481526020019081526020016000208190555042600d600060195481526020019081526020016000208190555060086000601954815260200190815260200160002060009054906101000a900473ffffffffffffffffffffffffffffffffffffffff1660156000601954815260200190815260200160002060006101000a81548173ffffffffffffffffffffffffffffffffffffffff021916908373ffffffffffffffffffffffffffffffffffffffff160217905550614d2a6064614d1c60326004600060195481526020019081526020016000205461480790919063ffffffff16565b61484590919063ffffffff16565b905060156000601954815260200190815260200160002060009054906101000a900473ffffffffffffffffffffffffffffffffffffffff1673ffffffffffffffffffffffffffffffffffffffff166108fc829081150290604051600060405180830381858888f19350505050158015614da7573d6000803e3d6000fd5b50600260166000601954815260200190815260200160002081905550614dff6064614df160326004600060195481526020019081526020016000205461480790919063ffffffff16565b61484590919063ffffffff16565b600460006019548152602001908152602001600020819055506006600060195481526020019081526020016000205460066000600160195401815260200190815260200160002081905550600060066000601954815260200190815260200160002081905550601954600a600060195481526020019081526020016000205460156000601954815260200190815260200160002060009054906101000a900473ffffffffffffffffffffffffffffffffffffffff1673ffffffffffffffffffffffffffffffffffffffff167f6ec93b9ea332e4928177b5b176be94d4c0e6dae6a28a0b810c5765928344f0f360405160405180910390a4614f0c600160195461360a90919063ffffffff16565b60198190555050565b614f4f6064614f416069602360008681526020019081526020016000205461480790919063ffffffff16565b61484590919063ffffffff16565b602460008381526020019081526020016000208190555060236000828152602001908152602001600020547f3bb22f778670a5901bff4d41c425858dac1ea6aeb048d40f959a6bc43f98506160405160405180910390a250565b60806040519081016040528060008152602001600073ffffffffffffffffffffffffffffffffffffffff1681526020016000151581526020016000815250905600a165627a7a72305820aacfe058f834589f873b27b921800bd022e9b730646fe409433bb62a3d033eb50029",
  "source": "\npragma solidity ^0.4.24;\n\nimport \"../node_modules/openzeppelin-solidity/contracts/ownership/Ownable.sol\";\nimport \"./DividendsDistributor.sol\";\nimport \"./TimeBankDistributor.sol\";\nimport \"./ColorBankDistributor.sol\";\nimport \"./RoundDataHolder.sol\";\nimport \"./PaintsPool.sol\";\nimport \"./PaintDiscount.sol\";\nimport \"./IColor.sol\";\n\ncontract Game is Ownable, TimeBankDistributor, ColorBankDistributor, PaintsPool, PaintDiscount, DividendsDistributor  {\n\n    using SafeMath for uint;\n    \n    //       (git  => )\n    mapping (address => uint) public lastPlayedRound; \n\n    //   \n    uint public uniqueUsers;\n\n    //     ,      (   )\n    mapping (address => bool) public isRegistered;\n    \n    //\n    event Paint(uint indexed pixelId, uint  colorId, address indexed painter, uint indexed round);\n   \n    //,    \n    constructor() public payable { \n        \n        maxPaintsInPool = 10000; //10000 in production\n        currentRound = 1;\n        \n        for (uint i = 1; i <= 3; i++) {\n            currentPaintGenForColor[i] = 1;\n            callPriceForColor[i] = 0.01 ether;\n            nextCallPriceForColor[i] = callPriceForColor[i];\n            paintGenToAmountForColor[i][currentPaintGenForColor[i]] = maxPaintsInPool;\n            paintGenStartedForColor[i][currentPaintGenForColor[i]] = true;\n            \n            //       \n            if (totalPaintsForRound[currentRound] == 0) {\n                paintGenToEndTimeForColor[i][currentPaintGenForColor[i] - 1] = now;\n            }\n            \n            paintGenToStartTimeForColor[i][currentPaintGenForColor[i]] = now;\n            paintGenToAmountForColor[i][currentPaintGenForColor[i]] = maxPaintsInPool;\n        }\n        \n    }\n    \n    function hardCode() external {\n        timeBankForRound[currentRound] = 1 ether;\n        colorBankForRound[currentRound] = 1 ether;\n        colorToPaintedPixelsAmountForRound[currentRound][2] = 9998;\n    }\n    \n    //     \n    function getPixelColor(uint _pixel) external view returns (uint) {\n        return pixelToColorForRound[currentRound][_pixel];\n    }\n    \n    modifier isRegisteredUser() {\n        //        ,    \n        if (isRegistered[msg.sender] == false) {\n            isRegistered[msg.sender] = true;\n            uniqueUsers = uniqueUsers.add(1);\n        }\n        _;\n    }        \n    \n    //      \n    function estimateCallPrice(uint[] _pixels, uint _color) public view returns (uint) {\n        \n        uint price;\n        uint discount;\n        uint discountCallPrice;\n        uint moneySpent;\n        uint totalCallPrice;\n        bool hasDiscount;\n        \n\n        moneySpent = moneySpentByUserForColor[_color][msg.sender];\n        hasDiscount = hasPaintDiscountForColor[_color][msg.sender];\n        discount = usersPaintDiscountForColor[_color][msg.sender];\n       \n        \n        for (uint i = 0; i < _pixels.length; i++) {\n            \n            discountCallPrice = (nextCallPriceForColor[_color].mul(100 - discount)).div(100);\n            \n            if (hasDiscount == true) \n                price = discountCallPrice;\n            else\n                price = nextCallPriceForColor[_color]; \n\n            totalCallPrice += price;\n            moneySpent += price;\n\n            if (moneySpent >= 1 ether) {\n                \n                hasDiscount = true;\n                discount = moneySpent / 1 ether;\n                \n                if (moneySpent >= 10 ether)\n                    discount = 10;\n            }\n            \n        }   \n        \n        return totalCallPrice;\n    }\n    \n\n    function paint(uint[] _pixels, uint _color) external payable isRegisteredUser {\n\n        require(msg.value == estimateCallPrice(_pixels, _color), \"Wrong call price\");\n        \n        //    20        \n        if (now - lastPaintTimeForRound[currentRound] > 20 minutes && lastPaintTimeForRound[currentRound] != 0) {\n\n            //    \n            _distributeTimeBank();\n        }\n        \n        // \n        for(uint i = 0; i < _pixels.length; i++) {\n            _paint(_pixels[i], _color);\n        }\n        \n         //   \n        _setBanks(_color);\n            \n        //  ( ) \n        _distributeDividends(_color);\n    \n         //         \n        _setMoneySpentByUserForColor(_color); \n        \n        //         \n        _setUsersPaintDiscountForColor(_color);\n\n        //  ,     ,   \n        _claimBankPrizeForLastPlayedRound();\n\n    }   \n\n    //   \n    function _paint(uint _pixel, uint _color) internal {\n\n        //          paint\n        _fillPaintsPool(_color);\n\n        require(_pixel != 0, \"The pixel with id = 0 does not exist...\");\n        require(_color != 0, \"You cannot paint to transparent color...\");\n        require(pixelToColorForRound[currentRound][_pixel] != _color, \"This pixel is already of this color...\");\n\n        //paint    \n        //    \n        uint oldColor = pixelToColorForRound[currentRound][_pixel];\n    \n        //   \n        pixelToColorForRound[currentRound][_pixel] = _color; \n            \n        //c    \n        pixelToOldColorForRound[currentRound][_pixel] = oldColor; \n                \n        //         \n        lastPaintTimeForRound[currentRound] = now; \n    \n        //          \n        lastPainterForRound[currentRound] = msg.sender;\n                \n        //    ,   \n        if (colorToPaintedPixelsAmountForRound[currentRound][oldColor] > 0) \n            colorToPaintedPixelsAmountForRound[currentRound][oldColor] = colorToPaintedPixelsAmountForRound[currentRound][oldColor].sub(1); \n    \n        //   ,   \n        colorToPaintedPixelsAmountForRound[currentRound][_color] = colorToPaintedPixelsAmountForRound[currentRound][_color].add(1); \n        \n        //         \n        uint totalCounterToColorForUser = colorToUserToTotalCounter[_color][msg.sender]; \n    \n        //        \n        totalCounterToColorForUser = totalCounterToColorForUser.add(1); \n\n        //   -         \n        colorToUserToTotalCounter[_color][msg.sender] = totalCounterToColorForUser; \n                \n        //        \n        uint totalCounterForUser = userToTotalCounter[msg.sender]; \n    \n        //        \n        totalCounterForUser = totalCounterForUser.add(1); \n    \n        //           \n        userToTotalCounter[msg.sender] = totalCounterForUser;\n                \n        //       n-   \n        userToColorToCounterToTimestamp[msg.sender][_color][totalCounterToColorForUser] = now;\n    \n        //       n-      \n        userToCounterToTimestamp[msg.sender][totalCounterForUser] = now;\n                \n        //         \n        colorToTotalPaintsForRound[currentRound][_color] = colorToTotalPaintsForRound[currentRound][_color].add(1); \n    \n        //         \n        totalPaintsForRound[currentRound] = totalPaintsForRound[currentRound].add(1); \n    \n\n          // //  ,     ,   \n        // if (lastPlayedRound[msg.sender] > 1) \n        //     _claimBankPrizeForLastPlayedRound();\n            \n        // if (hasTakenPartInRound[currentRound - 1][msg.sender] == true)\n        //     //         \n        //     lastPlayedRound[msg.sender] = currentRound - 1;\n\n        // hasTakenPartInRound[currentRound][msg.sender] = true;\n              \n                \n        //     1  \n        paintGenToAmountForColor[_color][currentPaintGenForColor[_color]] = paintGenToAmountForColor[_color][currentPaintGenForColor[_color]].sub(1);\n        \n        //      \n        lastPaintedPixelForRound[currentRound] = _pixel;\n        \n        // -   (, ,  )\n        emit Paint(_pixel, _color, msg.sender, currentRound);    \n            \n        //            \n        if (colorToPaintedPixelsAmountForRound[currentRound][_color] == 10000) {\n\n            //    \n            winnerColorForRound[currentRound] = _color;\n\n            //    \n            _distributeColorBank();                \n        }\n\n        //         \n        lastPlayedRound[msg.sender] = currentRound - 1;\n\n    }\n\n    //  \n    function _setBanks(uint _color) private {\n        \n        colorBankToColorForRound[currentRound][_color] = colorBankToColorForRound[currentRound][_color].add(msg.value.mul(40).div(100));\n\n        //40%     \n        colorBankForRound[currentRound] = colorBankForRound[currentRound].add(msg.value.mul(40).div(100));\n\n        //40%     \n        timeBankForRound[currentRound] = timeBankForRound[currentRound].add(msg.value.mul(40).div(100));\n\n        //20%      \n        dividendsBank = dividendsBank.add(msg.value.mul(20).div(100)); \n    }\n\n    //         \n    function _claimBankPrizeForLastPlayedRound() public {\n\n        //          \n        if (lastPlayedRound[msg.sender] > 1 && isPrizeDistributedForRound[msg.sender][lastPlayedRound[msg.sender]] == false) {\n                \n            //    \n            if(winnerBankForRound[lastPlayedRound[msg.sender]] == 1) \n                //           \n                claimTimeBankPrizeForLastPlayedRound();\n\n            //    \n            if(winnerBankForRound[lastPlayedRound[msg.sender]] == 2) \n                //           \n                claimColorBankPrizeForLastPlayedRound();\n        }      \n\n    }   //        ,     = 2,    \n    \n    //dont pay attention\n    function showPotentialPrizeForColor(uint _color) external view returns (uint) {\n\n        //      \n        uint end = now;\n\n        //      \n        uint start = now - 24 hours;\n\n        //c  \n        uint counter;\n        \n        //              \n        uint total = colorToUserToTotalCounter[_color][msg.sender]; \n\n         //         24 \n        for (uint i = total; i > 0; i--) {\n            uint timeStamp = userToColorToCounterToTimestamp[msg.sender][_color][i];\n            if (timeStamp > start && timeStamp <= end)\n                counter = counter.add(1);\n        }\n        \n        uint potentialPrizeForColor = counter.mul(colorBankToColorForRound[currentRound][_color]).div(colorToTotalPaintsForRound[currentRound][_color]);\n        \n        return potentialPrizeForColor;\n    }\n    \n\n}",
  "sourcePath": "/Users/Amir/last-pixel-contracts/contracts/Game.sol",
  "compiler": {
    "name": "solc",
    "version": "0.4.24+commit.e67f0147.Emscripten.clang"
  },
  "schemaVersion": "2.0.1",
  "updatedAt": "2018-12-15T17:28:12.502Z"
}