{
  "contractName": "GameMock",
  "abi": [
    {
      "constant": true,
      "inputs": [],
      "name": "isGamePaused",
      "outputs": [
        {
          "name": "",
          "type": "bool"
        }
      ],
      "payable": false,
      "stateMutability": "view",
      "type": "function"
    },
    {
      "constant": true,
      "inputs": [
        {
          "name": "",
          "type": "uint256"
        },
        {
          "name": "",
          "type": "address"
        }
      ],
      "name": "isInTBT",
      "outputs": [
        {
          "name": "",
          "type": "bool"
        }
      ],
      "payable": false,
      "stateMutability": "view",
      "type": "function"
    },
    {
      "constant": true,
      "inputs": [
        {
          "name": "",
          "type": "bytes32"
        }
      ],
      "name": "refLinkToUser",
      "outputs": [
        {
          "name": "",
          "type": "address"
        }
      ],
      "payable": false,
      "stateMutability": "view",
      "type": "function"
    },
    {
      "constant": true,
      "inputs": [
        {
          "name": "",
          "type": "uint256"
        }
      ],
      "name": "ownerOfColor",
      "outputs": [
        {
          "name": "",
          "type": "address"
        }
      ],
      "payable": false,
      "stateMutability": "view",
      "type": "function"
    },
    {
      "constant": true,
      "inputs": [
        {
          "name": "",
          "type": "uint256"
        },
        {
          "name": "",
          "type": "uint256"
        }
      ],
      "name": "colorToPaintedPixelsAmountForRound",
      "outputs": [
        {
          "name": "",
          "type": "uint256"
        }
      ],
      "payable": false,
      "stateMutability": "view",
      "type": "function"
    },
    {
      "constant": true,
      "inputs": [],
      "name": "tbIteration",
      "outputs": [
        {
          "name": "",
          "type": "uint256"
        }
      ],
      "payable": false,
      "stateMutability": "view",
      "type": "function"
    },
    {
      "constant": true,
      "inputs": [
        {
          "name": "",
          "type": "uint256"
        }
      ],
      "name": "winnerOfRound",
      "outputs": [
        {
          "name": "",
          "type": "address"
        }
      ],
      "payable": false,
      "stateMutability": "view",
      "type": "function"
    },
    {
      "constant": true,
      "inputs": [
        {
          "name": "",
          "type": "uint256"
        }
      ],
      "name": "timeBankDrawnForRound",
      "outputs": [
        {
          "name": "",
          "type": "bool"
        }
      ],
      "payable": false,
      "stateMutability": "view",
      "type": "function"
    },
    {
      "constant": true,
      "inputs": [
        {
          "name": "",
          "type": "address"
        }
      ],
      "name": "hasReferrer",
      "outputs": [
        {
          "name": "",
          "type": "bool"
        }
      ],
      "payable": false,
      "stateMutability": "view",
      "type": "function"
    },
    {
      "constant": true,
      "inputs": [
        {
          "name": "",
          "type": "uint256"
        },
        {
          "name": "",
          "type": "uint256"
        }
      ],
      "name": "colorToTotalPaintsForCBIteration",
      "outputs": [
        {
          "name": "",
          "type": "uint256"
        }
      ],
      "payable": false,
      "stateMutability": "view",
      "type": "function"
    },
    {
      "constant": true,
      "inputs": [],
      "name": "totalColorsNumber",
      "outputs": [
        {
          "name": "",
          "type": "uint256"
        }
      ],
      "payable": false,
      "stateMutability": "view",
      "type": "function"
    },
    {
      "constant": true,
      "inputs": [
        {
          "name": "",
          "type": "address"
        }
      ],
      "name": "isRegisteredUser",
      "outputs": [
        {
          "name": "",
          "type": "bool"
        }
      ],
      "payable": false,
      "stateMutability": "view",
      "type": "function"
    },
    {
      "constant": true,
      "inputs": [
        {
          "name": "",
          "type": "uint256"
        },
        {
          "name": "",
          "type": "address"
        }
      ],
      "name": "hasPaintDiscountForColor",
      "outputs": [
        {
          "name": "",
          "type": "bool"
        }
      ],
      "payable": false,
      "stateMutability": "view",
      "type": "function"
    },
    {
      "constant": true,
      "inputs": [],
      "name": "isTBPDistributable",
      "outputs": [
        {
          "name": "",
          "type": "bool"
        }
      ],
      "payable": false,
      "stateMutability": "view",
      "type": "function"
    },
    {
      "constant": true,
      "inputs": [
        {
          "name": "",
          "type": "address"
        }
      ],
      "name": "isAdmin",
      "outputs": [
        {
          "name": "",
          "type": "bool"
        }
      ],
      "payable": false,
      "stateMutability": "view",
      "type": "function"
    },
    {
      "constant": true,
      "inputs": [
        {
          "name": "",
          "type": "uint256"
        }
      ],
      "name": "currentPaintGenForColor",
      "outputs": [
        {
          "name": "",
          "type": "uint256"
        }
      ],
      "payable": false,
      "stateMutability": "view",
      "type": "function"
    },
    {
      "constant": true,
      "inputs": [
        {
          "name": "",
          "type": "address"
        }
      ],
      "name": "lastPlayedRound",
      "outputs": [
        {
          "name": "",
          "type": "uint256"
        }
      ],
      "payable": false,
      "stateMutability": "view",
      "type": "function"
    },
    {
      "constant": true,
      "inputs": [
        {
          "name": "",
          "type": "uint256"
        },
        {
          "name": "",
          "type": "address"
        }
      ],
      "name": "moneySpentByUserForColor",
      "outputs": [
        {
          "name": "",
          "type": "uint256"
        }
      ],
      "payable": false,
      "stateMutability": "view",
      "type": "function"
    },
    {
      "constant": true,
      "inputs": [
        {
          "name": "",
          "type": "uint256"
        },
        {
          "name": "",
          "type": "uint256"
        }
      ],
      "name": "tbTeam",
      "outputs": [
        {
          "name": "",
          "type": "address"
        }
      ],
      "payable": false,
      "stateMutability": "view",
      "type": "function"
    },
    {
      "constant": true,
      "inputs": [
        {
          "name": "",
          "type": "uint256"
        },
        {
          "name": "",
          "type": "address"
        }
      ],
      "name": "painterToTBP",
      "outputs": [
        {
          "name": "",
          "type": "uint256"
        }
      ],
      "payable": false,
      "stateMutability": "view",
      "type": "function"
    },
    {
      "constant": true,
      "inputs": [
        {
          "name": "",
          "type": "uint256"
        },
        {
          "name": "",
          "type": "uint256"
        }
      ],
      "name": "paintGenToStartTimeForColor",
      "outputs": [
        {
          "name": "",
          "type": "uint256"
        }
      ],
      "payable": false,
      "stateMutability": "view",
      "type": "function"
    },
    {
      "constant": true,
      "inputs": [
        {
          "name": "",
          "type": "uint256"
        }
      ],
      "name": "callPriceForColor",
      "outputs": [
        {
          "name": "",
          "type": "uint256"
        }
      ],
      "payable": false,
      "stateMutability": "view",
      "type": "function"
    },
    {
      "constant": true,
      "inputs": [
        {
          "name": "",
          "type": "uint256"
        },
        {
          "name": "",
          "type": "address"
        }
      ],
      "name": "painterToCBP",
      "outputs": [
        {
          "name": "",
          "type": "uint256"
        }
      ],
      "payable": false,
      "stateMutability": "view",
      "type": "function"
    },
    {
      "constant": true,
      "inputs": [
        {
          "name": "",
          "type": "uint256"
        }
      ],
      "name": "winnerBankForRound",
      "outputs": [
        {
          "name": "",
          "type": "uint256"
        }
      ],
      "payable": false,
      "stateMutability": "view",
      "type": "function"
    },
    {
      "constant": true,
      "inputs": [],
      "name": "paintsCounter",
      "outputs": [
        {
          "name": "",
          "type": "uint256"
        }
      ],
      "payable": false,
      "stateMutability": "view",
      "type": "function"
    },
    {
      "constant": true,
      "inputs": [],
      "name": "founders",
      "outputs": [
        {
          "name": "",
          "type": "address"
        }
      ],
      "payable": false,
      "stateMutability": "view",
      "type": "function"
    },
    {
      "constant": true,
      "inputs": [
        {
          "name": "",
          "type": "address"
        }
      ],
      "name": "newUserToCounter",
      "outputs": [
        {
          "name": "",
          "type": "uint256"
        }
      ],
      "payable": false,
      "stateMutability": "view",
      "type": "function"
    },
    {
      "constant": true,
      "inputs": [
        {
          "name": "",
          "type": "uint256"
        },
        {
          "name": "",
          "type": "uint256"
        }
      ],
      "name": "counterToPainterForColor",
      "outputs": [
        {
          "name": "",
          "type": "address"
        }
      ],
      "payable": false,
      "stateMutability": "view",
      "type": "function"
    },
    {
      "constant": true,
      "inputs": [
        {
          "name": "",
          "type": "address"
        }
      ],
      "name": "moneySpentByUser",
      "outputs": [
        {
          "name": "",
          "type": "uint256"
        }
      ],
      "payable": false,
      "stateMutability": "view",
      "type": "function"
    },
    {
      "constant": true,
      "inputs": [
        {
          "name": "",
          "type": "uint256"
        },
        {
          "name": "",
          "type": "uint256"
        }
      ],
      "name": "pixelToOldColorForRound",
      "outputs": [
        {
          "name": "",
          "type": "uint256"
        }
      ],
      "payable": false,
      "stateMutability": "view",
      "type": "function"
    },
    {
      "constant": true,
      "inputs": [
        {
          "name": "",
          "type": "uint256"
        }
      ],
      "name": "isTBPTransfered",
      "outputs": [
        {
          "name": "",
          "type": "bool"
        }
      ],
      "payable": false,
      "stateMutability": "view",
      "type": "function"
    },
    {
      "constant": true,
      "inputs": [
        {
          "name": "",
          "type": "uint256"
        }
      ],
      "name": "timeBankForRound",
      "outputs": [
        {
          "name": "",
          "type": "uint256"
        }
      ],
      "payable": false,
      "stateMutability": "view",
      "type": "function"
    },
    {
      "constant": true,
      "inputs": [
        {
          "name": "",
          "type": "address"
        }
      ],
      "name": "userToRefLink",
      "outputs": [
        {
          "name": "",
          "type": "string"
        }
      ],
      "payable": false,
      "stateMutability": "view",
      "type": "function"
    },
    {
      "constant": true,
      "inputs": [],
      "name": "claimId",
      "outputs": [
        {
          "name": "",
          "type": "uint256"
        }
      ],
      "payable": false,
      "stateMutability": "view",
      "type": "function"
    },
    {
      "constant": true,
      "inputs": [
        {
          "name": "",
          "type": "uint256"
        },
        {
          "name": "",
          "type": "uint256"
        }
      ],
      "name": "cbTeam",
      "outputs": [
        {
          "name": "",
          "type": "address"
        }
      ],
      "payable": false,
      "stateMutability": "view",
      "type": "function"
    },
    {
      "constant": true,
      "inputs": [
        {
          "name": "",
          "type": "uint256"
        },
        {
          "name": "",
          "type": "uint256"
        }
      ],
      "name": "paintGenStartedForColor",
      "outputs": [
        {
          "name": "",
          "type": "bool"
        }
      ],
      "payable": false,
      "stateMutability": "view",
      "type": "function"
    },
    {
      "constant": true,
      "inputs": [
        {
          "name": "",
          "type": "uint256"
        }
      ],
      "name": "usersCounterForRound",
      "outputs": [
        {
          "name": "",
          "type": "uint256"
        }
      ],
      "payable": false,
      "stateMutability": "view",
      "type": "function"
    },
    {
      "constant": true,
      "inputs": [
        {
          "name": "",
          "type": "uint256"
        }
      ],
      "name": "lastPaintedPixelForRound",
      "outputs": [
        {
          "name": "",
          "type": "uint256"
        }
      ],
      "payable": false,
      "stateMutability": "view",
      "type": "function"
    },
    {
      "constant": true,
      "inputs": [
        {
          "name": "",
          "type": "uint256"
        }
      ],
      "name": "nextCallPriceForColor",
      "outputs": [
        {
          "name": "",
          "type": "uint256"
        }
      ],
      "payable": false,
      "stateMutability": "view",
      "type": "function"
    },
    {
      "constant": false,
      "inputs": [],
      "name": "renounceOwnership",
      "outputs": [],
      "payable": false,
      "stateMutability": "nonpayable",
      "type": "function"
    },
    {
      "constant": true,
      "inputs": [
        {
          "name": "",
          "type": "uint256"
        }
      ],
      "name": "lastPaintTimeForRound",
      "outputs": [
        {
          "name": "",
          "type": "uint256"
        }
      ],
      "payable": false,
      "stateMutability": "view",
      "type": "function"
    },
    {
      "constant": true,
      "inputs": [],
      "name": "isCBPDistributable",
      "outputs": [
        {
          "name": "",
          "type": "bool"
        }
      ],
      "payable": false,
      "stateMutability": "view",
      "type": "function"
    },
    {
      "constant": true,
      "inputs": [
        {
          "name": "",
          "type": "uint256"
        }
      ],
      "name": "lastPainterForRound",
      "outputs": [
        {
          "name": "",
          "type": "address"
        }
      ],
      "payable": false,
      "stateMutability": "view",
      "type": "function"
    },
    {
      "constant": true,
      "inputs": [
        {
          "name": "",
          "type": "address"
        }
      ],
      "name": "hasRefLink",
      "outputs": [
        {
          "name": "",
          "type": "bool"
        }
      ],
      "payable": false,
      "stateMutability": "view",
      "type": "function"
    },
    {
      "constant": true,
      "inputs": [
        {
          "name": "",
          "type": "address"
        }
      ],
      "name": "registrationTimeForUser",
      "outputs": [
        {
          "name": "",
          "type": "uint256"
        }
      ],
      "payable": false,
      "stateMutability": "view",
      "type": "function"
    },
    {
      "constant": true,
      "inputs": [
        {
          "name": "",
          "type": "address"
        }
      ],
      "name": "lastPaintTimeOfUser",
      "outputs": [
        {
          "name": "",
          "type": "uint256"
        }
      ],
      "payable": false,
      "stateMutability": "view",
      "type": "function"
    },
    {
      "constant": true,
      "inputs": [
        {
          "name": "",
          "type": "address"
        },
        {
          "name": "",
          "type": "uint256"
        }
      ],
      "name": "referrerToReferrals",
      "outputs": [
        {
          "name": "",
          "type": "address"
        }
      ],
      "payable": false,
      "stateMutability": "view",
      "type": "function"
    },
    {
      "constant": true,
      "inputs": [],
      "name": "currentRound",
      "outputs": [
        {
          "name": "",
          "type": "uint256"
        }
      ],
      "payable": false,
      "stateMutability": "view",
      "type": "function"
    },
    {
      "constant": true,
      "inputs": [],
      "name": "owner",
      "outputs": [
        {
          "name": "",
          "type": "address"
        }
      ],
      "payable": false,
      "stateMutability": "view",
      "type": "function"
    },
    {
      "constant": true,
      "inputs": [
        {
          "name": "",
          "type": "uint256"
        }
      ],
      "name": "paintsCounterForColor",
      "outputs": [
        {
          "name": "",
          "type": "uint256"
        }
      ],
      "payable": false,
      "stateMutability": "view",
      "type": "function"
    },
    {
      "constant": true,
      "inputs": [],
      "name": "isOwner",
      "outputs": [
        {
          "name": "",
          "type": "bool"
        }
      ],
      "payable": false,
      "stateMutability": "view",
      "type": "function"
    },
    {
      "constant": true,
      "inputs": [
        {
          "name": "",
          "type": "uint256"
        },
        {
          "name": "",
          "type": "uint256"
        }
      ],
      "name": "pixelToPaintTimeForRound",
      "outputs": [
        {
          "name": "",
          "type": "uint256"
        }
      ],
      "payable": false,
      "stateMutability": "view",
      "type": "function"
    },
    {
      "constant": true,
      "inputs": [
        {
          "name": "",
          "type": "uint256"
        },
        {
          "name": "",
          "type": "uint256"
        }
      ],
      "name": "colorBankToColorForRound",
      "outputs": [
        {
          "name": "",
          "type": "uint256"
        }
      ],
      "payable": false,
      "stateMutability": "view",
      "type": "function"
    },
    {
      "constant": true,
      "inputs": [
        {
          "name": "",
          "type": "uint256"
        }
      ],
      "name": "claims",
      "outputs": [
        {
          "name": "id",
          "type": "uint256"
        },
        {
          "name": "claimer",
          "type": "address"
        },
        {
          "name": "isResolved",
          "type": "bool"
        },
        {
          "name": "timestamp",
          "type": "uint256"
        }
      ],
      "payable": false,
      "stateMutability": "view",
      "type": "function"
    },
    {
      "constant": true,
      "inputs": [],
      "name": "ownerOfPixel",
      "outputs": [
        {
          "name": "",
          "type": "address"
        }
      ],
      "payable": false,
      "stateMutability": "view",
      "type": "function"
    },
    {
      "constant": true,
      "inputs": [
        {
          "name": "",
          "type": "uint256"
        },
        {
          "name": "",
          "type": "address"
        }
      ],
      "name": "isInCBT",
      "outputs": [
        {
          "name": "",
          "type": "bool"
        }
      ],
      "payable": false,
      "stateMutability": "view",
      "type": "function"
    },
    {
      "constant": true,
      "inputs": [
        {
          "name": "",
          "type": "uint256"
        }
      ],
      "name": "counterToPainter",
      "outputs": [
        {
          "name": "",
          "type": "address"
        }
      ],
      "payable": false,
      "stateMutability": "view",
      "type": "function"
    },
    {
      "constant": true,
      "inputs": [
        {
          "name": "",
          "type": "uint256"
        },
        {
          "name": "",
          "type": "address"
        }
      ],
      "name": "timeBankShare",
      "outputs": [
        {
          "name": "",
          "type": "uint256"
        }
      ],
      "payable": false,
      "stateMutability": "view",
      "type": "function"
    },
    {
      "constant": true,
      "inputs": [
        {
          "name": "",
          "type": "uint256"
        },
        {
          "name": "",
          "type": "uint256"
        },
        {
          "name": "",
          "type": "address"
        }
      ],
      "name": "colorBankShare",
      "outputs": [
        {
          "name": "",
          "type": "uint256"
        }
      ],
      "payable": false,
      "stateMutability": "view",
      "type": "function"
    },
    {
      "constant": true,
      "inputs": [
        {
          "name": "",
          "type": "uint256"
        },
        {
          "name": "",
          "type": "address"
        }
      ],
      "name": "lastPaintTimeOfUserForColor",
      "outputs": [
        {
          "name": "",
          "type": "uint256"
        }
      ],
      "payable": false,
      "stateMutability": "view",
      "type": "function"
    },
    {
      "constant": true,
      "inputs": [
        {
          "name": "",
          "type": "uint256"
        },
        {
          "name": "",
          "type": "uint256"
        }
      ],
      "name": "pixelToColorForRound",
      "outputs": [
        {
          "name": "",
          "type": "uint256"
        }
      ],
      "payable": false,
      "stateMutability": "view",
      "type": "function"
    },
    {
      "constant": true,
      "inputs": [
        {
          "name": "",
          "type": "uint256"
        }
      ],
      "name": "totalPaintsForRound",
      "outputs": [
        {
          "name": "",
          "type": "uint256"
        }
      ],
      "payable": false,
      "stateMutability": "view",
      "type": "function"
    },
    {
      "constant": true,
      "inputs": [
        {
          "name": "",
          "type": "uint256"
        }
      ],
      "name": "colorBankForRound",
      "outputs": [
        {
          "name": "",
          "type": "uint256"
        }
      ],
      "payable": false,
      "stateMutability": "view",
      "type": "function"
    },
    {
      "constant": true,
      "inputs": [
        {
          "name": "",
          "type": "uint256"
        },
        {
          "name": "",
          "type": "uint256"
        }
      ],
      "name": "paintGenToEndTimeForColor",
      "outputs": [
        {
          "name": "",
          "type": "uint256"
        }
      ],
      "payable": false,
      "stateMutability": "view",
      "type": "function"
    },
    {
      "constant": true,
      "inputs": [],
      "name": "refLinkPrice",
      "outputs": [
        {
          "name": "",
          "type": "uint256"
        }
      ],
      "payable": false,
      "stateMutability": "view",
      "type": "function"
    },
    {
      "constant": true,
      "inputs": [],
      "name": "uniqueUsersCount",
      "outputs": [
        {
          "name": "",
          "type": "uint256"
        }
      ],
      "payable": false,
      "stateMutability": "view",
      "type": "function"
    },
    {
      "constant": true,
      "inputs": [
        {
          "name": "",
          "type": "bytes32"
        }
      ],
      "name": "refLinkExists",
      "outputs": [
        {
          "name": "",
          "type": "bool"
        }
      ],
      "payable": false,
      "stateMutability": "view",
      "type": "function"
    },
    {
      "constant": true,
      "inputs": [
        {
          "name": "",
          "type": "uint256"
        },
        {
          "name": "",
          "type": "uint256"
        }
      ],
      "name": "paintGenToAmountForColor",
      "outputs": [
        {
          "name": "",
          "type": "uint256"
        }
      ],
      "payable": false,
      "stateMutability": "view",
      "type": "function"
    },
    {
      "constant": true,
      "inputs": [
        {
          "name": "",
          "type": "uint256"
        }
      ],
      "name": "isCBPTransfered",
      "outputs": [
        {
          "name": "",
          "type": "bool"
        }
      ],
      "payable": false,
      "stateMutability": "view",
      "type": "function"
    },
    {
      "constant": true,
      "inputs": [
        {
          "name": "",
          "type": "address"
        }
      ],
      "name": "referralToReferrer",
      "outputs": [
        {
          "name": "",
          "type": "address"
        }
      ],
      "payable": false,
      "stateMutability": "view",
      "type": "function"
    },
    {
      "constant": true,
      "inputs": [
        {
          "name": "",
          "type": "uint256"
        },
        {
          "name": "",
          "type": "address"
        }
      ],
      "name": "usersPaintDiscountForColor",
      "outputs": [
        {
          "name": "",
          "type": "uint256"
        }
      ],
      "payable": false,
      "stateMutability": "view",
      "type": "function"
    },
    {
      "constant": true,
      "inputs": [],
      "name": "maxPaintsInPool",
      "outputs": [
        {
          "name": "",
          "type": "uint256"
        }
      ],
      "payable": false,
      "stateMutability": "view",
      "type": "function"
    },
    {
      "constant": true,
      "inputs": [],
      "name": "totalPixelsNumber",
      "outputs": [
        {
          "name": "",
          "type": "uint256"
        }
      ],
      "payable": false,
      "stateMutability": "view",
      "type": "function"
    },
    {
      "constant": false,
      "inputs": [
        {
          "name": "newOwner",
          "type": "address"
        }
      ],
      "name": "transferOwnership",
      "outputs": [],
      "payable": false,
      "stateMutability": "nonpayable",
      "type": "function"
    },
    {
      "constant": true,
      "inputs": [
        {
          "name": "",
          "type": "address"
        }
      ],
      "name": "pendingWithdrawals",
      "outputs": [
        {
          "name": "",
          "type": "uint256"
        }
      ],
      "payable": false,
      "stateMutability": "view",
      "type": "function"
    },
    {
      "constant": true,
      "inputs": [
        {
          "name": "",
          "type": "uint256"
        }
      ],
      "name": "winnerColorForRound",
      "outputs": [
        {
          "name": "",
          "type": "uint256"
        }
      ],
      "payable": false,
      "stateMutability": "view",
      "type": "function"
    },
    {
      "constant": true,
      "inputs": [],
      "name": "dividendsBank",
      "outputs": [
        {
          "name": "",
          "type": "uint256"
        }
      ],
      "payable": false,
      "stateMutability": "view",
      "type": "function"
    },
    {
      "constant": true,
      "inputs": [],
      "name": "cbIteration",
      "outputs": [
        {
          "name": "",
          "type": "uint256"
        }
      ],
      "payable": false,
      "stateMutability": "view",
      "type": "function"
    },
    {
      "anonymous": false,
      "inputs": [
        {
          "indexed": true,
          "name": "round",
          "type": "uint256"
        },
        {
          "indexed": true,
          "name": "cbIteration",
          "type": "uint256"
        },
        {
          "indexed": true,
          "name": "winner",
          "type": "address"
        },
        {
          "indexed": false,
          "name": "prize",
          "type": "uint256"
        }
      ],
      "name": "CBPDistributed",
      "type": "event"
    },
    {
      "anonymous": false,
      "inputs": [
        {
          "indexed": true,
          "name": "withdrawer",
          "type": "address"
        },
        {
          "indexed": true,
          "name": "claimId",
          "type": "uint256"
        },
        {
          "indexed": true,
          "name": "amount",
          "type": "uint256"
        }
      ],
      "name": "DividendsWithdrawn",
      "type": "event"
    },
    {
      "anonymous": false,
      "inputs": [
        {
          "indexed": true,
          "name": "claimer",
          "type": "address"
        },
        {
          "indexed": true,
          "name": "claimId",
          "type": "uint256"
        },
        {
          "indexed": true,
          "name": "currentTime",
          "type": "uint256"
        }
      ],
      "name": "DividendsClaimed",
      "type": "event"
    },
    {
      "anonymous": false,
      "inputs": [
        {
          "indexed": true,
          "name": "pixelId",
          "type": "uint256"
        },
        {
          "indexed": false,
          "name": "colorId",
          "type": "uint256"
        },
        {
          "indexed": true,
          "name": "painter",
          "type": "address"
        },
        {
          "indexed": true,
          "name": "round",
          "type": "uint256"
        },
        {
          "indexed": false,
          "name": "timestamp",
          "type": "uint256"
        }
      ],
      "name": "Paint",
      "type": "event"
    },
    {
      "anonymous": false,
      "inputs": [
        {
          "indexed": false,
          "name": "winnerOfRound",
          "type": "address"
        },
        {
          "indexed": true,
          "name": "round",
          "type": "uint256"
        }
      ],
      "name": "ColorBankPlayed",
      "type": "event"
    },
    {
      "anonymous": false,
      "inputs": [
        {
          "indexed": false,
          "name": "winnerOfRound",
          "type": "address"
        },
        {
          "indexed": true,
          "name": "round",
          "type": "uint256"
        }
      ],
      "name": "TimeBankPlayed",
      "type": "event"
    },
    {
      "anonymous": false,
      "inputs": [
        {
          "indexed": true,
          "name": "newCallPrice",
          "type": "uint256"
        }
      ],
      "name": "CallPriceUpdated",
      "type": "event"
    },
    {
      "anonymous": false,
      "inputs": [
        {
          "indexed": true,
          "name": "round",
          "type": "uint256"
        },
        {
          "indexed": true,
          "name": "tbIteration",
          "type": "uint256"
        },
        {
          "indexed": true,
          "name": "winner",
          "type": "address"
        },
        {
          "indexed": false,
          "name": "prize",
          "type": "uint256"
        }
      ],
      "name": "TBPDistributed",
      "type": "event"
    },
    {
      "anonymous": false,
      "inputs": [
        {
          "indexed": true,
          "name": "previousOwner",
          "type": "address"
        },
        {
          "indexed": true,
          "name": "newOwner",
          "type": "address"
        }
      ],
      "name": "OwnershipTransferred",
      "type": "event"
    },
    {
      "constant": false,
      "inputs": [],
      "name": "mock",
      "outputs": [],
      "payable": false,
      "stateMutability": "nonpayable",
      "type": "function"
    },
    {
      "constant": false,
      "inputs": [],
      "name": "mock2",
      "outputs": [],
      "payable": false,
      "stateMutability": "nonpayable",
      "type": "function"
    },
    {
      "constant": false,
      "inputs": [
        {
          "name": "_winnerColor",
          "type": "uint256"
        }
      ],
      "name": "mock3",
      "outputs": [],
      "payable": false,
      "stateMutability": "nonpayable",
      "type": "function"
    },
    {
      "constant": false,
      "inputs": [],
      "name": "mockMaxPaintsInPool",
      "outputs": [],
      "payable": false,
      "stateMutability": "nonpayable",
      "type": "function"
    }
  ],
  "bytecode": "0x608060405273ca35b7d915458ef540ade6068dfe2f44e8fa733c604160006101000a81548173ffffffffffffffffffffffffffffffffffffffff021916908373ffffffffffffffffffffffffffffffffffffffff160217905550733e4d187df7d8a0820eaf4174d17b160157610912604260006101000a81548173ffffffffffffffffffffffffffffffffffffffff021916908373ffffffffffffffffffffffffffffffffffffffff160217905550336000806101000a81548173ffffffffffffffffffffffffffffffffffffffff021916908373ffffffffffffffffffffffffffffffffffffffff1602179055506000809054906101000a900473ffffffffffffffffffffffffffffffffffffffff1673ffffffffffffffffffffffffffffffffffffffff16600073ffffffffffffffffffffffffffffffffffffffff167f8be0079c531659141344cd1fd0a4f28419497f9722a3daafe3b4186f6b6457e060405160405180910390a3612aa7806101796000396000f3006080604052600436106103bc576000357c0100000000000000000000000000000000000000000000000000000000900463ffffffff1680630422ddf3146103c157806305bdd0be146103f057806305e2387f14610455578063099b81ce1461046c5780630baaea44146104dd5780630cf9603f1461054a5780630f6ed86e14610595578063102f9713146105c057806315682a661461062d57806318452cd81461067257806319ef6a06146106cd5780631d64873b146107185780631f5bdf5d146107435780631f90c6ed1461079e57806321423af81461080357806324d7806c1461083257806328361f571461088d57806328b290f9146108ce5780632c6c1c41146109255780632c7a3dae1461098657806333f9c388146109fd5780633a17350514610a5e5780633c6dd01314610aa95780633ca4c18314610aea5780633d0d1a7914610b4b5780633dc3c37714610b8c578063411b007e14610bb757806341c5464e14610c0e57806342e453ec14610c655780634a7f6f2f14610cdc5780634b39173d14610d335780634c438ad714610d7e5780634c78e40114610dc35780635bfcdb2714610e045780635c25fd1314610ec05780635d63ebb214610eeb5780635f5d554c14610f625780636256655614610fb1578063628a71a314610ff25780636a528028146110335780636f17eb421461104a578063715018a61461108b57806373a9ee26146110a257806376f5d96a146110e357806379ecf376146111125780637e1e175c1461117f578063846c4c37146111da5780638500b7b71461123157806387982ac3146112885780638a19c8bc146113155780638da5cb5b146113405780638e2df39c146113975780638f32d59b146113d85780638f63b7e514611407578063a312072414611452578063a888c2cd1461149d578063a977e16814611523578063ab24c7d21461157a578063ae55ce82146115df578063b0ff59d21461164c578063b1a3883c146116ad578063b60cbeb614611718578063b8232d5d14611779578063be7d6226146117c4578063c64a2e5614611805578063c957387b14611846578063c97d230f14611891578063c9f8234f146118bc578063d4526e68146118e7578063d5de47c714611930578063da68b1211461197b578063deaf0fa1146119c0578063e543804a14611a43578063eaf1c91014611a5a578063eef565da14611abb578063f120dba114611ae6578063f2fde38b14611b11578063f3f4370314611b54578063f49916f514611bab578063f5f95b3b14611bec578063fbd0a27714611c17578063fea11fe314611c44575b600080fd5b3480156103cd57600080fd5b506103d6611c6f565b604051808215151515815260200191505060405180910390f35b3480156103fc57600080fd5b5061043b60048036038101908080359060200190929190803573ffffffffffffffffffffffffffffffffffffffff169060200190929190505050611c82565b604051808215151515815260200191505060405180910390f35b34801561046157600080fd5b5061046a611cb1565b005b34801561047857600080fd5b5061049b6004803603810190808035600019169060200190929190505050611d3a565b604051808273ffffffffffffffffffffffffffffffffffffffff1673ffffffffffffffffffffffffffffffffffffffff16815260200191505060405180910390f35b3480156104e957600080fd5b5061050860048036038101908080359060200190929190505050611d6d565b604051808273ffffffffffffffffffffffffffffffffffffffff1673ffffffffffffffffffffffffffffffffffffffff16815260200191505060405180910390f35b34801561055657600080fd5b5061057f6004803603810190808035906020019092919080359060200190929190505050611da0565b6040518082815260200191505060405180910390f35b3480156105a157600080fd5b506105aa611dc5565b6040518082815260200191505060405180910390f35b3480156105cc57600080fd5b506105eb60048036038101908080359060200190929190505050611dcb565b604051808273ffffffffffffffffffffffffffffffffffffffff1673ffffffffffffffffffffffffffffffffffffffff16815260200191505060405180910390f35b34801561063957600080fd5b5061065860048036038101908080359060200190929190505050611dfe565b604051808215151515815260200191505060405180910390f35b34801561067e57600080fd5b506106b3600480360381019080803573ffffffffffffffffffffffffffffffffffffffff169060200190929190505050611e1e565b604051808215151515815260200191505060405180910390f35b3480156106d957600080fd5b506107026004803603810190808035906020019092919080359060200190929190505050611e3e565b6040518082815260200191505060405180910390f35b34801561072457600080fd5b5061072d611e63565b6040518082815260200191505060405180910390f35b34801561074f57600080fd5b50610784600480360381019080803573ffffffffffffffffffffffffffffffffffffffff169060200190929190505050611e69565b604051808215151515815260200191505060405180910390f35b3480156107aa57600080fd5b506107e960048036038101908080359060200190929190803573ffffffffffffffffffffffffffffffffffffffff169060200190929190505050611e89565b604051808215151515815260200191505060405180910390f35b34801561080f57600080fd5b50610818611eb8565b604051808215151515815260200191505060405180910390f35b34801561083e57600080fd5b50610873600480360381019080803573ffffffffffffffffffffffffffffffffffffffff169060200190929190505050611ecb565b604051808215151515815260200191505060405180910390f35b34801561089957600080fd5b506108b860048036038101908080359060200190929190505050611eeb565b6040518082815260200191505060405180910390f35b3480156108da57600080fd5b5061090f600480360381019080803573ffffffffffffffffffffffffffffffffffffffff169060200190929190505050611f03565b6040518082815260200191505060405180910390f35b34801561093157600080fd5b5061097060048036038101908080359060200190929190803573ffffffffffffffffffffffffffffffffffffffff169060200190929190505050611f1b565b6040518082815260200191505060405180910390f35b34801561099257600080fd5b506109bb6004803603810190808035906020019092919080359060200190929190505050611f40565b604051808273ffffffffffffffffffffffffffffffffffffffff1673ffffffffffffffffffffffffffffffffffffffff16815260200191505060405180910390f35b348015610a0957600080fd5b50610a4860048036038101908080359060200190929190803573ffffffffffffffffffffffffffffffffffffffff169060200190929190505050611f8d565b6040518082815260200191505060405180910390f35b348015610a6a57600080fd5b50610a936004803603810190808035906020019092919080359060200190929190505050611fb2565b6040518082815260200191505060405180910390f35b348015610ab557600080fd5b50610ad460048036038101908080359060200190929190505050611fd7565b6040518082815260200191505060405180910390f35b348015610af657600080fd5b50610b3560048036038101908080359060200190929190803573ffffffffffffffffffffffffffffffffffffffff169060200190929190505050611fef565b6040518082815260200191505060405180910390f35b348015610b5757600080fd5b50610b7660048036038101908080359060200190929190505050612014565b6040518082815260200191505060405180910390f35b348015610b9857600080fd5b50610ba161202c565b6040518082815260200191505060405180910390f35b348015610bc357600080fd5b50610bcc612032565b604051808273ffffffffffffffffffffffffffffffffffffffff1673ffffffffffffffffffffffffffffffffffffffff16815260200191505060405180910390f35b348015610c1a57600080fd5b50610c4f600480360381019080803573ffffffffffffffffffffffffffffffffffffffff169060200190929190505050612058565b6040518082815260200191505060405180910390f35b348015610c7157600080fd5b50610c9a6004803603810190808035906020019092919080359060200190929190505050612070565b604051808273ffffffffffffffffffffffffffffffffffffffff1673ffffffffffffffffffffffffffffffffffffffff16815260200191505060405180910390f35b348015610ce857600080fd5b50610d1d600480360381019080803573ffffffffffffffffffffffffffffffffffffffff1690602001909291905050506120b2565b6040518082815260200191505060405180910390f35b348015610d3f57600080fd5b50610d6860048036038101908080359060200190929190803590602001909291905050506120ca565b6040518082815260200191505060405180910390f35b348015610d8a57600080fd5b50610da9600480360381019080803590602001909291905050506120ef565b604051808215151515815260200191505060405180910390f35b348015610dcf57600080fd5b50610dee6004803603810190808035906020019092919050505061210f565b6040518082815260200191505060405180910390f35b348015610e1057600080fd5b50610e45600480360381019080803573ffffffffffffffffffffffffffffffffffffffff169060200190929190505050612127565b6040518080602001828103825283818151815260200191508051906020019080838360005b83811015610e85578082015181840152602081019050610e6a565b50505050905090810190601f168015610eb25780820380516001836020036101000a031916815260200191505b509250505060405180910390f35b348015610ecc57600080fd5b50610ed56121d7565b6040518082815260200191505060405180910390f35b348015610ef757600080fd5b50610f2060048036038101908080359060200190929190803590602001909291905050506121dd565b604051808273ffffffffffffffffffffffffffffffffffffffff1673ffffffffffffffffffffffffffffffffffffffff16815260200191505060405180910390f35b348015610f6e57600080fd5b50610f97600480360381019080803590602001909291908035906020019092919050505061222a565b604051808215151515815260200191505060405180910390f35b348015610fbd57600080fd5b50610fdc60048036038101908080359060200190929190505050612259565b6040518082815260200191505060405180910390f35b348015610ffe57600080fd5b5061101d60048036038101908080359060200190929190505050612271565b6040518082815260200191505060405180910390f35b34801561103f57600080fd5b50611048612289565b005b34801561105657600080fd5b50611075600480360381019080803590602001909291905050506122f1565b6040518082815260200191505060405180910390f35b34801561109757600080fd5b506110a0612309565b005b3480156110ae57600080fd5b506110cd600480360381019080803590602001909291905050506123db565b6040518082815260200191505060405180910390f35b3480156110ef57600080fd5b506110f86123f3565b604051808215151515815260200191505060405180910390f35b34801561111e57600080fd5b5061113d60048036038101908080359060200190929190505050612406565b604051808273ffffffffffffffffffffffffffffffffffffffff1673ffffffffffffffffffffffffffffffffffffffff16815260200191505060405180910390f35b34801561118b57600080fd5b506111c0600480360381019080803573ffffffffffffffffffffffffffffffffffffffff169060200190929190505050612439565b604051808215151515815260200191505060405180910390f35b3480156111e657600080fd5b5061121b600480360381019080803573ffffffffffffffffffffffffffffffffffffffff169060200190929190505050612459565b6040518082815260200191505060405180910390f35b34801561123d57600080fd5b50611272600480360381019080803573ffffffffffffffffffffffffffffffffffffffff169060200190929190505050612471565b6040518082815260200191505060405180910390f35b34801561129457600080fd5b506112d3600480360381019080803573ffffffffffffffffffffffffffffffffffffffff16906020019092919080359060200190929190505050612489565b604051808273ffffffffffffffffffffffffffffffffffffffff1673ffffffffffffffffffffffffffffffffffffffff16815260200191505060405180910390f35b34801561132157600080fd5b5061132a6124d6565b6040518082815260200191505060405180910390f35b34801561134c57600080fd5b506113556124dc565b604051808273ffffffffffffffffffffffffffffffffffffffff1673ffffffffffffffffffffffffffffffffffffffff16815260200191505060405180910390f35b3480156113a357600080fd5b506113c260048036038101908080359060200190929190505050612505565b6040518082815260200191505060405180910390f35b3480156113e457600080fd5b506113ed61251d565b604051808215151515815260200191505060405180910390f35b34801561141357600080fd5b5061143c6004803603810190808035906020019092919080359060200190929190505050612574565b6040518082815260200191505060405180910390f35b34801561145e57600080fd5b506114876004803603810190808035906020019092919080359060200190929190505050612599565b6040518082815260200191505060405180910390f35b3480156114a957600080fd5b506114c8600480360381019080803590602001909291905050506125be565b604051808581526020018473ffffffffffffffffffffffffffffffffffffffff1673ffffffffffffffffffffffffffffffffffffffff1681526020018315151515815260200182815260200194505050505060405180910390f35b34801561152f57600080fd5b5061153861262a565b604051808273ffffffffffffffffffffffffffffffffffffffff1673ffffffffffffffffffffffffffffffffffffffff16815260200191505060405180910390f35b34801561158657600080fd5b506115c560048036038101908080359060200190929190803573ffffffffffffffffffffffffffffffffffffffff169060200190929190505050612650565b604051808215151515815260200191505060405180910390f35b3480156115eb57600080fd5b5061160a6004803603810190808035906020019092919050505061267f565b604051808273ffffffffffffffffffffffffffffffffffffffff1673ffffffffffffffffffffffffffffffffffffffff16815260200191505060405180910390f35b34801561165857600080fd5b5061169760048036038101908080359060200190929190803573ffffffffffffffffffffffffffffffffffffffff1690602001909291905050506126b2565b6040518082815260200191505060405180910390f35b3480156116b957600080fd5b506117026004803603810190808035906020019092919080359060200190929190803573ffffffffffffffffffffffffffffffffffffffff1690602001909291905050506126d7565b6040518082815260200191505060405180910390f35b34801561172457600080fd5b5061176360048036038101908080359060200190929190803573ffffffffffffffffffffffffffffffffffffffff169060200190929190505050612709565b6040518082815260200191505060405180910390f35b34801561178557600080fd5b506117ae600480360381019080803590602001909291908035906020019092919050505061272e565b6040518082815260200191505060405180910390f35b3480156117d057600080fd5b506117ef60048036038101908080359060200190929190505050612753565b6040518082815260200191505060405180910390f35b34801561181157600080fd5b506118306004803603810190808035906020019092919050505061276b565b6040518082815260200191505060405180910390f35b34801561185257600080fd5b5061187b6004803603810190808035906020019092919080359060200190929190505050612783565b6040518082815260200191505060405180910390f35b34801561189d57600080fd5b506118a66127a8565b6040518082815260200191505060405180910390f35b3480156118c857600080fd5b506118d16127ae565b6040518082815260200191505060405180910390f35b3480156118f357600080fd5b5061191660048036038101908080356000191690602001909291905050506127b4565b604051808215151515815260200191505060405180910390f35b34801561193c57600080fd5b5061196560048036038101908080359060200190929190803590602001909291905050506127d4565b6040518082815260200191505060405180910390f35b34801561198757600080fd5b506119a6600480360381019080803590602001909291905050506127f9565b604051808215151515815260200191505060405180910390f35b3480156119cc57600080fd5b50611a01600480360381019080803573ffffffffffffffffffffffffffffffffffffffff169060200190929190505050612819565b604051808273ffffffffffffffffffffffffffffffffffffffff1673ffffffffffffffffffffffffffffffffffffffff16815260200191505060405180910390f35b348015611a4f57600080fd5b50611a5861284b565b005b348015611a6657600080fd5b50611aa560048036038101908080359060200190929190803573ffffffffffffffffffffffffffffffffffffffff1690602001909291905050506128c2565b6040518082815260200191505060405180910390f35b348015611ac757600080fd5b50611ad06128e7565b6040518082815260200191505060405180910390f35b348015611af257600080fd5b50611afb6128ed565b6040518082815260200191505060405180910390f35b348015611b1d57600080fd5b50611b52600480360381019080803573ffffffffffffffffffffffffffffffffffffffff1690602001909291905050506128f3565b005b348015611b6057600080fd5b50611b95600480360381019080803573ffffffffffffffffffffffffffffffffffffffff169060200190929190505050612912565b6040518082815260200191505060405180910390f35b348015611bb757600080fd5b50611bd66004803603810190808035906020019092919050505061292a565b6040518082815260200191505060405180910390f35b348015611bf857600080fd5b50611c01612942565b6040518082815260200191505060405180910390f35b348015611c2357600080fd5b50611c4260048036038101908080359060200190929190505050612948565b005b348015611c5057600080fd5b50611c5961297b565b6040518082815260200191505060405180910390f35b604260149054906101000a900460ff1681565b60356020528160005260406000206020528060005260406000206000915091509054906101000a900460ff1681565b670de0b6b3a764000060096000602954815260200190815260200160002060008282540192505081905550670de0b6b3a76400006007600060295481526020019081526020016000206000828254019250508190555060026047540360066000602954815260200190815260200160002060006002815260200190815260200160002081905550565b60246020528060005260406000206000915054906101000a900473ffffffffffffffffffffffffffffffffffffffff1681565b603b6020528060005260406000206000915054906101000a900473ffffffffffffffffffffffffffffffffffffffff1681565b6006602052816000526040600020602052806000526040600020600091509150505481565b602a5481565b600f6020528060005260406000206000915054906101000a900473ffffffffffffffffffffffffffffffffffffffff1681565b604c6020528060005260406000206000915054906101000a900460ff1681565b60226020528060005260406000206000915054906101000a900460ff1681565b600e602052816000526040600020602052806000526040600020600091509150505481565b60465481565b601e6020528060005260406000206000915054906101000a900460ff1681565b601c6020528160005260406000206020528060005260406000206000915091509054906101000a900460ff1681565b604260169054906101000a900460ff1681565b60436020528060005260406000206000915054906101000a900460ff1681565b60176020528060005260406000206000915090505481565b603a6020528060005260406000206000915090505481565b601a602052816000526040600020602052806000526040600020600091509150505481565b603160205281600052604060002081815481101515611f5b57fe5b906000526020600020016000915091509054906101000a900473ffffffffffffffffffffffffffffffffffffffff1681565b6037602052816000526040600020602052806000526040600020600091509150505481565b6014602052816000526040600020602052806000526040600020600091509150505481565b60186020528060005260406000206000915090505481565b6036602052816000526040600020602052806000526040600020600091509150505481565b60106020528060005260406000206000915090505481565b602c5481565b604260009054906101000a900473ffffffffffffffffffffffffffffffffffffffff1681565b60266020528060005260406000206000915090505481565b60336020528160005260406000206020528060005260406000206000915091509054906101000a900473ffffffffffffffffffffffffffffffffffffffff1681565b601b6020528060005260406000206000915090505481565b6005602052816000526040600020602052806000526040600020600091509150505481565b60396020528060005260406000206000915054906101000a900460ff1681565b60096020528060005260406000206000915090505481565b60236020528060005260406000206000915090508054600181600116156101000203166002900480601f0160208091040260200160405190810160405280929190818152602001828054600181600116156101000203166002900480156121cf5780601f106121a4576101008083540402835291602001916121cf565b820191906000526020600020905b8154815290600101906020018083116121b257829003601f168201915b505050505081565b603f5481565b6030602052816000526040600020818154811015156121f857fe5b906000526020600020016000915091509054906101000a900473ffffffffffffffffffffffffffffffffffffffff1681565b60166020528160005260406000206020528060005260406000206000915091509054906101000a900460ff1681565b604d6020528060005260406000206000915090505481565b600c6020528060005260406000206000915090505481565b60006064602881905550600190505b604654811115156122ee5760285460136000838152602001908152602001600020600060176000858152602001908152602001600020548152602001908152602001600020819055508080600101915050612298565b50565b60196020528060005260406000206000915090505481565b61231161251d565b151561231c57600080fd5b600073ffffffffffffffffffffffffffffffffffffffff166000809054906101000a900473ffffffffffffffffffffffffffffffffffffffff1673ffffffffffffffffffffffffffffffffffffffff167f8be0079c531659141344cd1fd0a4f28419497f9722a3daafe3b4186f6b6457e060405160405180910390a360008060006101000a81548173ffffffffffffffffffffffffffffffffffffffff021916908373ffffffffffffffffffffffffffffffffffffffff160217905550565b600a6020528060005260406000206000915090505481565b604260159054906101000a900460ff1681565b600b6020528060005260406000206000915054906101000a900473ffffffffffffffffffffffffffffffffffffffff1681565b601f6020528060005260406000206000915054906101000a900460ff1681565b60496020528060005260406000206000915090505481565b604a6020528060005260406000206000915090505481565b6021602052816000526040600020818154811015156124a457fe5b906000526020600020016000915091509054906101000a900473ffffffffffffffffffffffffffffffffffffffff1681565b60295481565b60008060009054906101000a900473ffffffffffffffffffffffffffffffffffffffff16905090565b602f6020528060005260406000206000915090505481565b60008060009054906101000a900473ffffffffffffffffffffffffffffffffffffffff1673ffffffffffffffffffffffffffffffffffffffff163373ffffffffffffffffffffffffffffffffffffffff1614905090565b6011602052816000526040600020602052806000526040600020600091509150505481565b6008602052816000526040600020602052806000526040600020600091509150505481565b6040818154811015156125cd57fe5b90600052602060002090600302016000915090508060000154908060010160009054906101000a900473ffffffffffffffffffffffffffffffffffffffff16908060010160149054906101000a900460ff16908060020154905084565b604160009054906101000a900473ffffffffffffffffffffffffffffffffffffffff1681565b60346020528160005260406000206020528060005260406000206000915091509054906101000a900460ff1681565b60326020528060005260406000206000915054906101000a900473ffffffffffffffffffffffffffffffffffffffff1681565b602d602052816000526040600020602052806000526040600020600091509150505481565b602e60205282600052604060002060205281600052604060002060205280600052604060002060009250925050505481565b604b602052816000526040600020602052806000526040600020600091509150505481565b6004602052816000526040600020602052806000526040600020600091509150505481565b60126020528060005260406000206000915090505481565b60076020528060005260406000206000915090505481565b6015602052816000526040600020602052806000526040600020600091509150505481565b60485481565b60275481565b60256020528060005260406000206000915054906101000a900460ff1681565b6013602052816000526040600020602052806000526040600020600091509150505481565b60386020528060005260406000206000915054906101000a900460ff1681565b602080528060005260406000206000915054906101000a900473ffffffffffffffffffffffffffffffffffffffff1681565b670de0b6b3a764000060096000602954815260200190815260200160002081905550670de0b6b3a76400006007600060295481526020019081526020016000208190555060026047540360066000602954815260200190815260200160002060006002815260200190815260200160002081905550565b601d602052816000526040600020602052806000526040600020600091509150505481565b60285481565b60475481565b6128fb61251d565b151561290657600080fd5b61290f81612981565b50565b603c6020528060005260406000206000915090505481565b600d6020528060005260406000206000915090505481565b603e5481565b60026047540360066000602954815260200190815260200160002060008381526020019081526020016000208190555050565b602b5481565b600073ffffffffffffffffffffffffffffffffffffffff168173ffffffffffffffffffffffffffffffffffffffff16141515156129bd57600080fd5b8073ffffffffffffffffffffffffffffffffffffffff166000809054906101000a900473ffffffffffffffffffffffffffffffffffffffff1673ffffffffffffffffffffffffffffffffffffffff167f8be0079c531659141344cd1fd0a4f28419497f9722a3daafe3b4186f6b6457e060405160405180910390a3806000806101000a81548173ffffffffffffffffffffffffffffffffffffffff021916908373ffffffffffffffffffffffffffffffffffffffff160217905550505600a165627a7a72305820831e9856e885e58e8eaf2348c66618fed3fbd788a182086ae14150b17c3401d30029",
  "source": "pragma solidity ^0.4.24;\nimport \"../StorageV1.sol\";\n\ncontract GameMock is StorageV1 {\n\n    function mock() external {\n        timeBankForRound[currentRound] = 1 ether;\n        colorBankForRound[currentRound] = 1 ether;\n        colorToPaintedPixelsAmountForRound[currentRound][2] = totalPixelsNumber - 2;\n    }\n\n    function mock2() external {\n        timeBankForRound[currentRound] += 1 ether;\n        colorBankForRound[currentRound] += 1 ether;\n        colorToPaintedPixelsAmountForRound[currentRound][2] = totalPixelsNumber - 2;\n    }\n\n    function mock3(uint _winnerColor) external {\n        colorToPaintedPixelsAmountForRound[currentRound][_winnerColor] = totalPixelsNumber - 2;\n    }\n\n    function mockMaxPaintsInPool() external {\n        maxPaintsInPool = 100; \n        for (uint i = 1; i <= totalColorsNumber; i++) {\n            paintGenToAmountForColor[i][currentPaintGenForColor[i]] = maxPaintsInPool;\n        }\n    }\n}",
  "sourcePath": "/Users/Amir/last-pixel-contracts/contracts/mock/GameMock.sol",
  "compiler": {
    "name": "solc",
    "version": "0.4.25+commit.59dbf8f1.Emscripten.clang"
  },
  "schemaVersion": "2.0.2",
  "updatedAt": "2019-02-07T12:19:02.317Z"
}