{
  "contractName": "GameMock",
  "abi": [
    {
      "constant": true,
      "inputs": [],
      "name": "isGamePaused",
      "outputs": [
        {
          "name": "",
          "type": "bool"
        }
      ],
      "payable": false,
      "stateMutability": "view",
      "type": "function"
    },
    {
      "constant": true,
      "inputs": [
        {
          "name": "",
          "type": "uint256"
        },
        {
          "name": "",
          "type": "address"
        }
      ],
      "name": "isInTBT",
      "outputs": [
        {
          "name": "",
          "type": "bool"
        }
      ],
      "payable": false,
      "stateMutability": "view",
      "type": "function"
    },
    {
      "constant": true,
      "inputs": [
        {
          "name": "",
          "type": "bytes32"
        }
      ],
      "name": "refLinkToUser",
      "outputs": [
        {
          "name": "",
          "type": "address"
        }
      ],
      "payable": false,
      "stateMutability": "view",
      "type": "function"
    },
    {
      "constant": true,
      "inputs": [
        {
          "name": "",
          "type": "uint256"
        },
        {
          "name": "",
          "type": "uint256"
        }
      ],
      "name": "colorToTotalPaintsForRound",
      "outputs": [
        {
          "name": "",
          "type": "uint256"
        }
      ],
      "payable": false,
      "stateMutability": "view",
      "type": "function"
    },
    {
      "constant": true,
      "inputs": [
        {
          "name": "",
          "type": "uint256"
        }
      ],
      "name": "ownerOfColor",
      "outputs": [
        {
          "name": "",
          "type": "address"
        }
      ],
      "payable": false,
      "stateMutability": "view",
      "type": "function"
    },
    {
      "constant": true,
      "inputs": [
        {
          "name": "",
          "type": "uint256"
        },
        {
          "name": "",
          "type": "uint256"
        }
      ],
      "name": "colorToPaintedPixelsAmountForRound",
      "outputs": [
        {
          "name": "",
          "type": "uint256"
        }
      ],
      "payable": false,
      "stateMutability": "view",
      "type": "function"
    },
    {
      "constant": true,
      "inputs": [],
      "name": "tbIteration",
      "outputs": [
        {
          "name": "",
          "type": "uint256"
        }
      ],
      "payable": false,
      "stateMutability": "view",
      "type": "function"
    },
    {
      "constant": true,
      "inputs": [
        {
          "name": "",
          "type": "uint256"
        }
      ],
      "name": "winnerOfRound",
      "outputs": [
        {
          "name": "",
          "type": "address"
        }
      ],
      "payable": false,
      "stateMutability": "view",
      "type": "function"
    },
    {
      "constant": false,
      "inputs": [
        {
          "name": "_admin",
          "type": "address"
        }
      ],
      "name": "removeAdmin",
      "outputs": [],
      "payable": false,
      "stateMutability": "nonpayable",
      "type": "function"
    },
    {
      "constant": true,
      "inputs": [
        {
          "name": "",
          "type": "address"
        }
      ],
      "name": "hasReferrer",
      "outputs": [
        {
          "name": "",
          "type": "bool"
        }
      ],
      "payable": false,
      "stateMutability": "view",
      "type": "function"
    },
    {
      "constant": true,
      "inputs": [
        {
          "name": "",
          "type": "address"
        }
      ],
      "name": "isRegisteredUser",
      "outputs": [
        {
          "name": "",
          "type": "bool"
        }
      ],
      "payable": false,
      "stateMutability": "view",
      "type": "function"
    },
    {
      "constant": true,
      "inputs": [
        {
          "name": "",
          "type": "uint256"
        },
        {
          "name": "",
          "type": "address"
        }
      ],
      "name": "hasPaintDiscountForColor",
      "outputs": [
        {
          "name": "",
          "type": "bool"
        }
      ],
      "payable": false,
      "stateMutability": "view",
      "type": "function"
    },
    {
      "constant": true,
      "inputs": [
        {
          "name": "",
          "type": "address"
        }
      ],
      "name": "isAdmin",
      "outputs": [
        {
          "name": "",
          "type": "bool"
        }
      ],
      "payable": false,
      "stateMutability": "view",
      "type": "function"
    },
    {
      "constant": true,
      "inputs": [
        {
          "name": "",
          "type": "uint256"
        }
      ],
      "name": "currentPaintGenForColor",
      "outputs": [
        {
          "name": "",
          "type": "uint256"
        }
      ],
      "payable": false,
      "stateMutability": "view",
      "type": "function"
    },
    {
      "constant": true,
      "inputs": [
        {
          "name": "",
          "type": "address"
        }
      ],
      "name": "lastPlayedRound",
      "outputs": [
        {
          "name": "",
          "type": "uint256"
        }
      ],
      "payable": false,
      "stateMutability": "view",
      "type": "function"
    },
    {
      "constant": true,
      "inputs": [
        {
          "name": "",
          "type": "uint256"
        },
        {
          "name": "",
          "type": "address"
        }
      ],
      "name": "moneySpentByUserForColor",
      "outputs": [
        {
          "name": "",
          "type": "uint256"
        }
      ],
      "payable": false,
      "stateMutability": "view",
      "type": "function"
    },
    {
      "constant": true,
      "inputs": [
        {
          "name": "",
          "type": "uint256"
        },
        {
          "name": "",
          "type": "uint256"
        }
      ],
      "name": "tbTeam",
      "outputs": [
        {
          "name": "",
          "type": "address"
        }
      ],
      "payable": false,
      "stateMutability": "view",
      "type": "function"
    },
    {
      "constant": true,
      "inputs": [
        {
          "name": "",
          "type": "uint256"
        },
        {
          "name": "",
          "type": "address"
        }
      ],
      "name": "painterToTBP",
      "outputs": [
        {
          "name": "",
          "type": "uint256"
        }
      ],
      "payable": false,
      "stateMutability": "view",
      "type": "function"
    },
    {
      "constant": false,
      "inputs": [
        {
          "name": "_pixels",
          "type": "uint256[]"
        },
        {
          "name": "_color",
          "type": "uint256"
        }
      ],
      "name": "paint",
      "outputs": [],
      "payable": true,
      "stateMutability": "payable",
      "type": "function"
    },
    {
      "constant": true,
      "inputs": [
        {
          "name": "",
          "type": "uint256"
        },
        {
          "name": "",
          "type": "uint256"
        }
      ],
      "name": "paintGenToStartTimeForColor",
      "outputs": [
        {
          "name": "",
          "type": "uint256"
        }
      ],
      "payable": false,
      "stateMutability": "view",
      "type": "function"
    },
    {
      "constant": true,
      "inputs": [
        {
          "name": "",
          "type": "uint256"
        }
      ],
      "name": "callPriceForColor",
      "outputs": [
        {
          "name": "",
          "type": "uint256"
        }
      ],
      "payable": false,
      "stateMutability": "view",
      "type": "function"
    },
    {
      "constant": true,
      "inputs": [
        {
          "name": "",
          "type": "uint256"
        },
        {
          "name": "",
          "type": "address"
        }
      ],
      "name": "painterToCBP",
      "outputs": [
        {
          "name": "",
          "type": "uint256"
        }
      ],
      "payable": false,
      "stateMutability": "view",
      "type": "function"
    },
    {
      "constant": false,
      "inputs": [],
      "name": "resumeGame",
      "outputs": [],
      "payable": false,
      "stateMutability": "nonpayable",
      "type": "function"
    },
    {
      "constant": true,
      "inputs": [
        {
          "name": "",
          "type": "uint256"
        }
      ],
      "name": "winnerBankForRound",
      "outputs": [
        {
          "name": "",
          "type": "uint256"
        }
      ],
      "payable": false,
      "stateMutability": "view",
      "type": "function"
    },
    {
      "constant": true,
      "inputs": [],
      "name": "paintsCounter",
      "outputs": [
        {
          "name": "",
          "type": "uint256"
        }
      ],
      "payable": false,
      "stateMutability": "view",
      "type": "function"
    },
    {
      "constant": true,
      "inputs": [],
      "name": "founders",
      "outputs": [
        {
          "name": "",
          "type": "address"
        }
      ],
      "payable": false,
      "stateMutability": "view",
      "type": "function"
    },
    {
      "constant": true,
      "inputs": [
        {
          "name": "",
          "type": "address"
        }
      ],
      "name": "newUserToCounter",
      "outputs": [
        {
          "name": "",
          "type": "uint256"
        }
      ],
      "payable": false,
      "stateMutability": "view",
      "type": "function"
    },
    {
      "constant": true,
      "inputs": [
        {
          "name": "",
          "type": "uint256"
        },
        {
          "name": "",
          "type": "uint256"
        }
      ],
      "name": "counterToPainterForColor",
      "outputs": [
        {
          "name": "",
          "type": "address"
        }
      ],
      "payable": false,
      "stateMutability": "view",
      "type": "function"
    },
    {
      "constant": false,
      "inputs": [
        {
          "name": "_claimId",
          "type": "uint256"
        }
      ],
      "name": "approveClaim",
      "outputs": [],
      "payable": false,
      "stateMutability": "nonpayable",
      "type": "function"
    },
    {
      "constant": false,
      "inputs": [],
      "name": "pauseGame",
      "outputs": [],
      "payable": false,
      "stateMutability": "nonpayable",
      "type": "function"
    },
    {
      "constant": true,
      "inputs": [
        {
          "name": "",
          "type": "uint256"
        },
        {
          "name": "",
          "type": "uint256"
        }
      ],
      "name": "pixelToOldColorForRound",
      "outputs": [
        {
          "name": "",
          "type": "uint256"
        }
      ],
      "payable": false,
      "stateMutability": "view",
      "type": "function"
    },
    {
      "constant": true,
      "inputs": [
        {
          "name": "",
          "type": "uint256"
        }
      ],
      "name": "isTBPTransfered",
      "outputs": [
        {
          "name": "",
          "type": "bool"
        }
      ],
      "payable": false,
      "stateMutability": "view",
      "type": "function"
    },
    {
      "constant": true,
      "inputs": [
        {
          "name": "",
          "type": "uint256"
        }
      ],
      "name": "timeBankForRound",
      "outputs": [
        {
          "name": "",
          "type": "uint256"
        }
      ],
      "payable": false,
      "stateMutability": "view",
      "type": "function"
    },
    {
      "constant": true,
      "inputs": [
        {
          "name": "",
          "type": "address"
        }
      ],
      "name": "userToRefLink",
      "outputs": [
        {
          "name": "",
          "type": "string"
        }
      ],
      "payable": false,
      "stateMutability": "view",
      "type": "function"
    },
    {
      "constant": true,
      "inputs": [],
      "name": "claimId",
      "outputs": [
        {
          "name": "",
          "type": "uint256"
        }
      ],
      "payable": false,
      "stateMutability": "view",
      "type": "function"
    },
    {
      "constant": true,
      "inputs": [
        {
          "name": "",
          "type": "uint256"
        },
        {
          "name": "",
          "type": "uint256"
        }
      ],
      "name": "cbTeam",
      "outputs": [
        {
          "name": "",
          "type": "address"
        }
      ],
      "payable": false,
      "stateMutability": "view",
      "type": "function"
    },
    {
      "constant": true,
      "inputs": [
        {
          "name": "",
          "type": "uint256"
        },
        {
          "name": "",
          "type": "uint256"
        }
      ],
      "name": "paintGenStartedForColor",
      "outputs": [
        {
          "name": "",
          "type": "bool"
        }
      ],
      "payable": false,
      "stateMutability": "view",
      "type": "function"
    },
    {
      "constant": true,
      "inputs": [
        {
          "name": "",
          "type": "uint256"
        }
      ],
      "name": "lastPaintedPixelForRound",
      "outputs": [
        {
          "name": "",
          "type": "uint256"
        }
      ],
      "payable": false,
      "stateMutability": "view",
      "type": "function"
    },
    {
      "constant": false,
      "inputs": [],
      "name": "claimDividends",
      "outputs": [],
      "payable": false,
      "stateMutability": "nonpayable",
      "type": "function"
    },
    {
      "constant": true,
      "inputs": [
        {
          "name": "",
          "type": "uint256"
        }
      ],
      "name": "nextCallPriceForColor",
      "outputs": [
        {
          "name": "",
          "type": "uint256"
        }
      ],
      "payable": false,
      "stateMutability": "view",
      "type": "function"
    },
    {
      "constant": false,
      "inputs": [
        {
          "name": "_new",
          "type": "address"
        }
      ],
      "name": "addAdmin",
      "outputs": [],
      "payable": false,
      "stateMutability": "nonpayable",
      "type": "function"
    },
    {
      "constant": false,
      "inputs": [],
      "name": "renounceOwnership",
      "outputs": [],
      "payable": false,
      "stateMutability": "nonpayable",
      "type": "function"
    },
    {
      "constant": true,
      "inputs": [
        {
          "name": "",
          "type": "uint256"
        }
      ],
      "name": "lastPaintTimeForRound",
      "outputs": [
        {
          "name": "",
          "type": "uint256"
        }
      ],
      "payable": false,
      "stateMutability": "view",
      "type": "function"
    },
    {
      "constant": true,
      "inputs": [
        {
          "name": "",
          "type": "uint256"
        }
      ],
      "name": "lastPainterForRound",
      "outputs": [
        {
          "name": "",
          "type": "address"
        }
      ],
      "payable": false,
      "stateMutability": "view",
      "type": "function"
    },
    {
      "constant": true,
      "inputs": [
        {
          "name": "_pixel",
          "type": "uint256"
        }
      ],
      "name": "getPixelColor",
      "outputs": [
        {
          "name": "",
          "type": "uint256"
        }
      ],
      "payable": false,
      "stateMutability": "view",
      "type": "function"
    },
    {
      "constant": true,
      "inputs": [
        {
          "name": "",
          "type": "address"
        }
      ],
      "name": "hasRefLink",
      "outputs": [
        {
          "name": "",
          "type": "bool"
        }
      ],
      "payable": false,
      "stateMutability": "view",
      "type": "function"
    },
    {
      "constant": true,
      "inputs": [
        {
          "name": "",
          "type": "address"
        },
        {
          "name": "",
          "type": "uint256"
        }
      ],
      "name": "referrerToReferrals",
      "outputs": [
        {
          "name": "",
          "type": "address"
        }
      ],
      "payable": false,
      "stateMutability": "view",
      "type": "function"
    },
    {
      "constant": true,
      "inputs": [],
      "name": "currentRound",
      "outputs": [
        {
          "name": "",
          "type": "uint256"
        }
      ],
      "payable": false,
      "stateMutability": "view",
      "type": "function"
    },
    {
      "constant": false,
      "inputs": [],
      "name": "renounceAdmin",
      "outputs": [],
      "payable": false,
      "stateMutability": "nonpayable",
      "type": "function"
    },
    {
      "constant": true,
      "inputs": [],
      "name": "owner",
      "outputs": [
        {
          "name": "",
          "type": "address"
        }
      ],
      "payable": false,
      "stateMutability": "view",
      "type": "function"
    },
    {
      "constant": true,
      "inputs": [
        {
          "name": "",
          "type": "uint256"
        }
      ],
      "name": "paintsCounterForColor",
      "outputs": [
        {
          "name": "",
          "type": "uint256"
        }
      ],
      "payable": false,
      "stateMutability": "view",
      "type": "function"
    },
    {
      "constant": true,
      "inputs": [],
      "name": "isOwner",
      "outputs": [
        {
          "name": "",
          "type": "bool"
        }
      ],
      "payable": false,
      "stateMutability": "view",
      "type": "function"
    },
    {
      "constant": true,
      "inputs": [
        {
          "name": "",
          "type": "uint256"
        },
        {
          "name": "",
          "type": "uint256"
        }
      ],
      "name": "pixelToPaintTimeForRound",
      "outputs": [
        {
          "name": "",
          "type": "uint256"
        }
      ],
      "payable": false,
      "stateMutability": "view",
      "type": "function"
    },
    {
      "constant": true,
      "inputs": [
        {
          "name": "",
          "type": "uint256"
        },
        {
          "name": "",
          "type": "uint256"
        }
      ],
      "name": "colorBankToColorForRound",
      "outputs": [
        {
          "name": "",
          "type": "uint256"
        }
      ],
      "payable": false,
      "stateMutability": "view",
      "type": "function"
    },
    {
      "constant": true,
      "inputs": [
        {
          "name": "",
          "type": "uint256"
        }
      ],
      "name": "claims",
      "outputs": [
        {
          "name": "id",
          "type": "uint256"
        },
        {
          "name": "claimer",
          "type": "address"
        },
        {
          "name": "isResolved",
          "type": "bool"
        },
        {
          "name": "timestamp",
          "type": "uint256"
        }
      ],
      "payable": false,
      "stateMutability": "view",
      "type": "function"
    },
    {
      "constant": true,
      "inputs": [],
      "name": "ownerOfPixel",
      "outputs": [
        {
          "name": "",
          "type": "address"
        }
      ],
      "payable": false,
      "stateMutability": "view",
      "type": "function"
    },
    {
      "constant": true,
      "inputs": [
        {
          "name": "",
          "type": "uint256"
        },
        {
          "name": "",
          "type": "address"
        }
      ],
      "name": "isInCBT",
      "outputs": [
        {
          "name": "",
          "type": "bool"
        }
      ],
      "payable": false,
      "stateMutability": "view",
      "type": "function"
    },
    {
      "constant": true,
      "inputs": [
        {
          "name": "_pixels",
          "type": "uint256[]"
        },
        {
          "name": "_color",
          "type": "uint256"
        }
      ],
      "name": "estimateCallPrice",
      "outputs": [
        {
          "name": "totalCallPrice",
          "type": "uint256"
        }
      ],
      "payable": false,
      "stateMutability": "view",
      "type": "function"
    },
    {
      "constant": true,
      "inputs": [
        {
          "name": "",
          "type": "uint256"
        }
      ],
      "name": "counterToPainter",
      "outputs": [
        {
          "name": "",
          "type": "address"
        }
      ],
      "payable": false,
      "stateMutability": "view",
      "type": "function"
    },
    {
      "constant": true,
      "inputs": [
        {
          "name": "",
          "type": "uint256"
        },
        {
          "name": "",
          "type": "address"
        }
      ],
      "name": "timeBankShare",
      "outputs": [
        {
          "name": "",
          "type": "uint256"
        }
      ],
      "payable": false,
      "stateMutability": "view",
      "type": "function"
    },
    {
      "constant": true,
      "inputs": [
        {
          "name": "",
          "type": "uint256"
        },
        {
          "name": "",
          "type": "uint256"
        },
        {
          "name": "",
          "type": "address"
        }
      ],
      "name": "colorBankShare",
      "outputs": [
        {
          "name": "",
          "type": "uint256"
        }
      ],
      "payable": false,
      "stateMutability": "view",
      "type": "function"
    },
    {
      "constant": true,
      "inputs": [
        {
          "name": "",
          "type": "uint256"
        },
        {
          "name": "",
          "type": "uint256"
        }
      ],
      "name": "pixelToColorForRound",
      "outputs": [
        {
          "name": "",
          "type": "uint256"
        }
      ],
      "payable": false,
      "stateMutability": "view",
      "type": "function"
    },
    {
      "constant": true,
      "inputs": [
        {
          "name": "",
          "type": "uint256"
        }
      ],
      "name": "totalPaintsForRound",
      "outputs": [
        {
          "name": "",
          "type": "uint256"
        }
      ],
      "payable": false,
      "stateMutability": "view",
      "type": "function"
    },
    {
      "constant": true,
      "inputs": [
        {
          "name": "",
          "type": "uint256"
        }
      ],
      "name": "colorBankForRound",
      "outputs": [
        {
          "name": "",
          "type": "uint256"
        }
      ],
      "payable": false,
      "stateMutability": "view",
      "type": "function"
    },
    {
      "constant": true,
      "inputs": [
        {
          "name": "",
          "type": "uint256"
        },
        {
          "name": "",
          "type": "uint256"
        }
      ],
      "name": "paintGenToEndTimeForColor",
      "outputs": [
        {
          "name": "",
          "type": "uint256"
        }
      ],
      "payable": false,
      "stateMutability": "view",
      "type": "function"
    },
    {
      "constant": true,
      "inputs": [],
      "name": "uniqueUsersCount",
      "outputs": [
        {
          "name": "",
          "type": "uint256"
        }
      ],
      "payable": false,
      "stateMutability": "view",
      "type": "function"
    },
    {
      "constant": true,
      "inputs": [
        {
          "name": "",
          "type": "bytes32"
        }
      ],
      "name": "refLinkExists",
      "outputs": [
        {
          "name": "",
          "type": "bool"
        }
      ],
      "payable": false,
      "stateMutability": "view",
      "type": "function"
    },
    {
      "constant": true,
      "inputs": [
        {
          "name": "",
          "type": "uint256"
        },
        {
          "name": "",
          "type": "uint256"
        }
      ],
      "name": "paintGenToAmountForColor",
      "outputs": [
        {
          "name": "",
          "type": "uint256"
        }
      ],
      "payable": false,
      "stateMutability": "view",
      "type": "function"
    },
    {
      "constant": true,
      "inputs": [
        {
          "name": "",
          "type": "uint256"
        }
      ],
      "name": "isCBPTransfered",
      "outputs": [
        {
          "name": "",
          "type": "bool"
        }
      ],
      "payable": false,
      "stateMutability": "view",
      "type": "function"
    },
    {
      "constant": true,
      "inputs": [
        {
          "name": "",
          "type": "address"
        }
      ],
      "name": "referralToReferrer",
      "outputs": [
        {
          "name": "",
          "type": "address"
        }
      ],
      "payable": false,
      "stateMutability": "view",
      "type": "function"
    },
    {
      "constant": true,
      "inputs": [
        {
          "name": "",
          "type": "uint256"
        },
        {
          "name": "",
          "type": "address"
        }
      ],
      "name": "usersPaintDiscountForColor",
      "outputs": [
        {
          "name": "",
          "type": "uint256"
        }
      ],
      "payable": false,
      "stateMutability": "view",
      "type": "function"
    },
    {
      "constant": true,
      "inputs": [],
      "name": "maxPaintsInPool",
      "outputs": [
        {
          "name": "",
          "type": "uint256"
        }
      ],
      "payable": false,
      "stateMutability": "view",
      "type": "function"
    },
    {
      "constant": false,
      "inputs": [
        {
          "name": "newOwner",
          "type": "address"
        }
      ],
      "name": "transferOwnership",
      "outputs": [],
      "payable": false,
      "stateMutability": "nonpayable",
      "type": "function"
    },
    {
      "constant": true,
      "inputs": [
        {
          "name": "",
          "type": "uint256"
        }
      ],
      "name": "winnerColorForRound",
      "outputs": [
        {
          "name": "",
          "type": "uint256"
        }
      ],
      "payable": false,
      "stateMutability": "view",
      "type": "function"
    },
    {
      "constant": true,
      "inputs": [],
      "name": "dividendsBank",
      "outputs": [
        {
          "name": "",
          "type": "uint256"
        }
      ],
      "payable": false,
      "stateMutability": "view",
      "type": "function"
    },
    {
      "constant": true,
      "inputs": [
        {
          "name": "",
          "type": "address"
        }
      ],
      "name": "withdrawalBalances",
      "outputs": [
        {
          "name": "",
          "type": "uint256"
        }
      ],
      "payable": false,
      "stateMutability": "view",
      "type": "function"
    },
    {
      "constant": true,
      "inputs": [],
      "name": "cbIteration",
      "outputs": [
        {
          "name": "",
          "type": "uint256"
        }
      ],
      "payable": false,
      "stateMutability": "view",
      "type": "function"
    },
    {
      "anonymous": false,
      "inputs": [
        {
          "indexed": true,
          "name": "pixelId",
          "type": "uint256"
        },
        {
          "indexed": false,
          "name": "colorId",
          "type": "uint256"
        },
        {
          "indexed": true,
          "name": "painter",
          "type": "address"
        },
        {
          "indexed": true,
          "name": "round",
          "type": "uint256"
        },
        {
          "indexed": false,
          "name": "timestamp",
          "type": "uint256"
        }
      ],
      "name": "Paint",
      "type": "event"
    },
    {
      "anonymous": false,
      "inputs": [
        {
          "indexed": false,
          "name": "winner",
          "type": "address"
        },
        {
          "indexed": true,
          "name": "round",
          "type": "uint256"
        }
      ],
      "name": "ColorBankPlayed",
      "type": "event"
    },
    {
      "anonymous": false,
      "inputs": [
        {
          "indexed": false,
          "name": "winner",
          "type": "address"
        },
        {
          "indexed": true,
          "name": "round",
          "type": "uint256"
        }
      ],
      "name": "TimeBankPlayed",
      "type": "event"
    },
    {
      "anonymous": false,
      "inputs": [
        {
          "indexed": true,
          "name": "withdrawer",
          "type": "address"
        },
        {
          "indexed": true,
          "name": "claimId",
          "type": "uint256"
        },
        {
          "indexed": true,
          "name": "amount",
          "type": "uint256"
        }
      ],
      "name": "DividendsWithdrawn",
      "type": "event"
    },
    {
      "anonymous": false,
      "inputs": [
        {
          "indexed": true,
          "name": "claimer",
          "type": "address"
        },
        {
          "indexed": true,
          "name": "claimId",
          "type": "uint256"
        },
        {
          "indexed": true,
          "name": "currentTime",
          "type": "uint256"
        }
      ],
      "name": "DividendsClaimed",
      "type": "event"
    },
    {
      "anonymous": false,
      "inputs": [
        {
          "indexed": true,
          "name": "newCallPrice",
          "type": "uint256"
        }
      ],
      "name": "CallPriceUpdated",
      "type": "event"
    },
    {
      "anonymous": false,
      "inputs": [
        {
          "indexed": true,
          "name": "round",
          "type": "uint256"
        },
        {
          "indexed": true,
          "name": "cbIteration",
          "type": "uint256"
        },
        {
          "indexed": false,
          "name": "winner",
          "type": "address"
        }
      ],
      "name": "CBPDistributed",
      "type": "event"
    },
    {
      "anonymous": false,
      "inputs": [
        {
          "indexed": true,
          "name": "previousOwner",
          "type": "address"
        },
        {
          "indexed": true,
          "name": "newOwner",
          "type": "address"
        }
      ],
      "name": "OwnershipTransferred",
      "type": "event"
    },
    {
      "constant": false,
      "inputs": [],
      "name": "hardCode",
      "outputs": [],
      "payable": false,
      "stateMutability": "nonpayable",
      "type": "function"
    },
    {
      "constant": false,
      "inputs": [],
      "name": "hardCode2",
      "outputs": [],
      "payable": false,
      "stateMutability": "nonpayable",
      "type": "function"
    }
  ],
  "bytecode": "0x608060405273ca35b7d915458ef540ade6068dfe2f44e8fa733c603f60006101000a81548173ffffffffffffffffffffffffffffffffffffffff021916908373ffffffffffffffffffffffffffffffffffffffff160217905550733e4d187df7d8a0820eaf4174d17b160157610912604060006101000a81548173ffffffffffffffffffffffffffffffffffffffff021916908373ffffffffffffffffffffffffffffffffffffffff16021790555060008033603660006101000a81548173ffffffffffffffffffffffffffffffffffffffff021916908373ffffffffffffffffffffffffffffffffffffffff160217905550603660009054906101000a900473ffffffffffffffffffffffffffffffffffffffff1673ffffffffffffffffffffffffffffffffffffffff16600073ffffffffffffffffffffffffffffffffffffffff167f8be0079c531659141344cd1fd0a4f28419497f9722a3daafe3b4186f6b6457e060405160405180910390a36001603760003373ffffffffffffffffffffffffffffffffffffffff1673ffffffffffffffffffffffffffffffffffffffff16815260200190815260200160002060006101000a81548160ff021916908315150217905550600190505b6008811115156200024b5773bf0e4036bf968dd007f9b4a1bfda4e54c042f6126039600083815260200190815260200160002060006101000a81548173ffffffffffffffffffffffffffffffffffffffff021916908373ffffffffffffffffffffffffffffffffffffffff1602179055508080600101915050620001cc565b50612710602381905550600160248190555060016026819055506001602581905550600190505b600381111515620004555760016013600083815260200190815260200160002081905550662386f26fc10000601460008381526020019081526020016000208190555060146000828152602001908152602001600020546015600083815260200190815260200160002081905550602354600f60008381526020019081526020016000206000601360008581526020019081526020016000205481526020019081526020016000208190555060016012600083815260200190815260200160002060006013600085815260200190815260200160002054815260200190815260200160002060006101000a81548160ff0219169083151502179055506000600e60006024548152602001908152602001600020541415620003cd574260116000838152602001908152602001600020600060016013600086815260200190815260200160002054038152602001908152602001600020819055505b426010600083815260200190815260200160002060006013600085815260200190815260200160002054815260200190815260200160002081905550602354600f600083815260200190815260200160002060006013600085815260200190815260200160002054815260200190815260200160002081905550808060010191505062000272565b506157d680620004666000396000f30060806040526004361061039b576000357c0100000000000000000000000000000000000000000000000000000000900463ffffffff1680630422ddf3146103a057806305bdd0be146103cf578063099b81ce146104345780630ba36221146104a55780630baaea44146104f05780630cf9603f1461055d5780630f6ed86e146105a8578063102f9713146105d35780631785f53c1461064057806318452cd8146106835780631f5bdf5d146106de5780631f90c6ed1461073957806324d7806c1461079e57806328361f57146107f957806328b290f91461083a5780632c6c1c41146108915780632c7a3dae146108f257806333f9c3881461096957806334d34b9b146109ca57806335d2084e146109e15780633a17350514610a195780633c6dd01314610a645780633ca4c18314610aa55780633cc4c6ce14610b065780633d0d1a7914610b1d5780633dc3c37714610b5e578063411b007e14610b8957806341c5464e14610be057806342e453ec14610c3757806346e3013514610cae578063499831f214610cdb5780634b39173d14610cf25780634c438ad714610d3d5780634c78e40114610d825780635bfcdb2714610dc35780635c25fd1314610e7f5780635d63ebb214610eaa5780635f5d554c14610f21578063628a71a314610f70578063668038e014610fb15780636f17eb4214610fc85780637048027514611009578063715018a61461104c57806373a9ee261461106357806379ecf376146110a45780637b68a8f0146111115780637e1e175c1461115257806387982ac3146111ad5780638a19c8bc1461123a5780638bad0c0a146112655780638da5cb5b1461127c5780638e2df39c146112d35780638f32d59b146113145780638f63b7e514611343578063954226dc1461138e578063a3120724146113a5578063a888c2cd146113f0578063a977e16814611476578063ab24c7d2146114cd578063abafb90e14611532578063ae55ce82146115b6578063b0ff59d214611623578063b1a3883c14611684578063b8232d5d146116ef578063be7d62261461173a578063c64a2e561461177b578063c957387b146117bc578063c9f8234f14611807578063d4526e6814611832578063d5de47c71461187b578063da68b121146118c6578063deaf0fa11461190b578063eaf1c9101461198e578063eef565da146119ef578063f2fde38b14611a1a578063f49916f514611a5d578063f5f95b3b14611a9e578063fb454d2914611ac9578063fea11fe314611b20575b600080fd5b3480156103ac57600080fd5b506103b5611b4b565b604051808215151515815260200191505060405180910390f35b3480156103db57600080fd5b5061041a60048036038101908080359060200190929190803573ffffffffffffffffffffffffffffffffffffffff169060200190929190505050611b5e565b604051808215151515815260200191505060405180910390f35b34801561044057600080fd5b506104636004803603810190808035600019169060200190929190505050611b8d565b604051808273ffffffffffffffffffffffffffffffffffffffff1673ffffffffffffffffffffffffffffffffffffffff16815260200191505060405180910390f35b3480156104b157600080fd5b506104da6004803603810190808035906020019092919080359060200190929190505050611bc0565b6040518082815260200191505060405180910390f35b3480156104fc57600080fd5b5061051b60048036038101908080359060200190929190505050611be5565b604051808273ffffffffffffffffffffffffffffffffffffffff1673ffffffffffffffffffffffffffffffffffffffff16815260200191505060405180910390f35b34801561056957600080fd5b506105926004803603810190808035906020019092919080359060200190929190505050611c18565b6040518082815260200191505060405180910390f35b3480156105b457600080fd5b506105bd611c3d565b6040518082815260200191505060405180910390f35b3480156105df57600080fd5b506105fe60048036038101908080359060200190929190505050611c43565b604051808273ffffffffffffffffffffffffffffffffffffffff1673ffffffffffffffffffffffffffffffffffffffff16815260200191505060405180910390f35b34801561064c57600080fd5b50610681600480360381019080803573ffffffffffffffffffffffffffffffffffffffff169060200190929190505050611c76565b005b34801561068f57600080fd5b506106c4600480360381019080803573ffffffffffffffffffffffffffffffffffffffff169060200190929190505050611ce4565b604051808215151515815260200191505060405180910390f35b3480156106ea57600080fd5b5061071f600480360381019080803573ffffffffffffffffffffffffffffffffffffffff169060200190929190505050611d04565b604051808215151515815260200191505060405180910390f35b34801561074557600080fd5b5061078460048036038101908080359060200190929190803573ffffffffffffffffffffffffffffffffffffffff169060200190929190505050611d24565b604051808215151515815260200191505060405180910390f35b3480156107aa57600080fd5b506107df600480360381019080803573ffffffffffffffffffffffffffffffffffffffff169060200190929190505050611d53565b604051808215151515815260200191505060405180910390f35b34801561080557600080fd5b5061082460048036038101908080359060200190929190505050611d73565b6040518082815260200191505060405180910390f35b34801561084657600080fd5b5061087b600480360381019080803573ffffffffffffffffffffffffffffffffffffffff169060200190929190505050611d8b565b6040518082815260200191505060405180910390f35b34801561089d57600080fd5b506108dc60048036038101908080359060200190929190803573ffffffffffffffffffffffffffffffffffffffff169060200190929190505050611da3565b6040518082815260200191505060405180910390f35b3480156108fe57600080fd5b506109276004803603810190808035906020019092919080359060200190929190505050611dc8565b604051808273ffffffffffffffffffffffffffffffffffffffff1673ffffffffffffffffffffffffffffffffffffffff16815260200191505060405180910390f35b34801561097557600080fd5b506109b460048036038101908080359060200190929190803573ffffffffffffffffffffffffffffffffffffffff169060200190929190505050611e15565b6040518082815260200191505060405180910390f35b3480156109d657600080fd5b506109df611e3a565b005b610a1760048036038101908080359060200190820180359060200191909192939192939080359060200190929190505050611eae565b005b348015610a2557600080fd5b50610a4e6004803603810190808035906020019092919080359060200190929190505050612555565b6040518082815260200191505060405180910390f35b348015610a7057600080fd5b50610a8f6004803603810190808035906020019092919050505061257a565b6040518082815260200191505060405180910390f35b348015610ab157600080fd5b50610af060048036038101908080359060200190929190803573ffffffffffffffffffffffffffffffffffffffff169060200190929190505050612592565b6040518082815260200191505060405180910390f35b348015610b1257600080fd5b50610b1b6125b7565b005b348015610b2957600080fd5b50610b4860048036038101908080359060200190929190505050612727565b6040518082815260200191505060405180910390f35b348015610b6a57600080fd5b50610b7361273f565b6040518082815260200191505060405180910390f35b348015610b9557600080fd5b50610b9e612745565b604051808273ffffffffffffffffffffffffffffffffffffffff1673ffffffffffffffffffffffffffffffffffffffff16815260200191505060405180910390f35b348015610bec57600080fd5b50610c21600480360381019080803573ffffffffffffffffffffffffffffffffffffffff16906020019092919050505061276b565b6040518082815260200191505060405180910390f35b348015610c4357600080fd5b50610c6c6004803603810190808035906020019092919080359060200190929190505050612783565b604051808273ffffffffffffffffffffffffffffffffffffffff1673ffffffffffffffffffffffffffffffffffffffff16815260200191505060405180910390f35b348015610cba57600080fd5b50610cd9600480360381019080803590602001909291905050506127c5565b005b348015610ce757600080fd5b50610cf0612a70565b005b348015610cfe57600080fd5b50610d276004803603810190808035906020019092919080359060200190929190505050612be0565b6040518082815260200191505060405180910390f35b348015610d4957600080fd5b50610d6860048036038101908080359060200190929190505050612c05565b604051808215151515815260200191505060405180910390f35b348015610d8e57600080fd5b50610dad60048036038101908080359060200190929190505050612c25565b6040518082815260200191505060405180910390f35b348015610dcf57600080fd5b50610e04600480360381019080803573ffffffffffffffffffffffffffffffffffffffff169060200190929190505050612c3d565b6040518080602001828103825283818151815260200191508051906020019080838360005b83811015610e44578082015181840152602081019050610e29565b50505050905090810190601f168015610e715780820380516001836020036101000a031916815260200191505b509250505060405180910390f35b348015610e8b57600080fd5b50610e94612ced565b6040518082815260200191505060405180910390f35b348015610eb657600080fd5b50610edf6004803603810190808035906020019092919080359060200190929190505050612cf3565b604051808273ffffffffffffffffffffffffffffffffffffffff1673ffffffffffffffffffffffffffffffffffffffff16815260200191505060405180910390f35b348015610f2d57600080fd5b50610f566004803603810190808035906020019092919080359060200190929190505050612d40565b604051808215151515815260200191505060405180910390f35b348015610f7c57600080fd5b50610f9b60048036038101908080359060200190929190505050612d6f565b6040518082815260200191505060405180910390f35b348015610fbd57600080fd5b50610fc6612d87565b005b348015610fd457600080fd5b50610ff360048036038101908080359060200190929190505050612fde565b6040518082815260200191505060405180910390f35b34801561101557600080fd5b5061104a600480360381019080803573ffffffffffffffffffffffffffffffffffffffff169060200190929190505050612ff6565b005b34801561105857600080fd5b50611061613064565b005b34801561106f57600080fd5b5061108e60048036038101908080359060200190929190505050613138565b6040518082815260200191505060405180910390f35b3480156110b057600080fd5b506110cf60048036038101908080359060200190929190505050613150565b604051808273ffffffffffffffffffffffffffffffffffffffff1673ffffffffffffffffffffffffffffffffffffffff16815260200191505060405180910390f35b34801561111d57600080fd5b5061113c60048036038101908080359060200190929190505050613183565b6040518082815260200191505060405180910390f35b34801561115e57600080fd5b50611193600480360381019080803573ffffffffffffffffffffffffffffffffffffffff1690602001909291905050506131b2565b604051808215151515815260200191505060405180910390f35b3480156111b957600080fd5b506111f8600480360381019080803573ffffffffffffffffffffffffffffffffffffffff169060200190929190803590602001909291905050506131d2565b604051808273ffffffffffffffffffffffffffffffffffffffff1673ffffffffffffffffffffffffffffffffffffffff16815260200191505060405180910390f35b34801561124657600080fd5b5061124f61321f565b6040518082815260200191505060405180910390f35b34801561127157600080fd5b5061127a613225565b005b34801561128857600080fd5b50611291613347565b604051808273ffffffffffffffffffffffffffffffffffffffff1673ffffffffffffffffffffffffffffffffffffffff16815260200191505060405180910390f35b3480156112df57600080fd5b506112fe60048036038101908080359060200190929190505050613371565b6040518082815260200191505060405180910390f35b34801561132057600080fd5b50611329613389565b604051808215151515815260200191505060405180910390f35b34801561134f57600080fd5b5061137860048036038101908080359060200190929190803590602001909291905050506133e1565b6040518082815260200191505060405180910390f35b34801561139a57600080fd5b506113a3613406565b005b3480156113b157600080fd5b506113da600480360381019080803590602001909291908035906020019092919050505061348c565b6040518082815260200191505060405180910390f35b3480156113fc57600080fd5b5061141b600480360381019080803590602001909291905050506134b1565b604051808581526020018473ffffffffffffffffffffffffffffffffffffffff1673ffffffffffffffffffffffffffffffffffffffff1681526020018315151515815260200182815260200194505050505060405180910390f35b34801561148257600080fd5b5061148b61351d565b604051808273ffffffffffffffffffffffffffffffffffffffff1673ffffffffffffffffffffffffffffffffffffffff16815260200191505060405180910390f35b3480156114d957600080fd5b5061151860048036038101908080359060200190929190803573ffffffffffffffffffffffffffffffffffffffff169060200190929190505050613543565b604051808215151515815260200191505060405180910390f35b34801561153e57600080fd5b506115a06004803603810190808035906020019082018035906020019080806020026020016040519081016040528093929190818152602001838360200280828437820191505050505050919291929080359060200190929190505050613572565b6040518082815260200191505060405180910390f35b3480156115c257600080fd5b506115e160048036038101908080359060200190929190505050613760565b604051808273ffffffffffffffffffffffffffffffffffffffff1673ffffffffffffffffffffffffffffffffffffffff16815260200191505060405180910390f35b34801561162f57600080fd5b5061166e60048036038101908080359060200190929190803573ffffffffffffffffffffffffffffffffffffffff169060200190929190505050613793565b6040518082815260200191505060405180910390f35b34801561169057600080fd5b506116d96004803603810190808035906020019092919080359060200190929190803573ffffffffffffffffffffffffffffffffffffffff1690602001909291905050506137b8565b6040518082815260200191505060405180910390f35b3480156116fb57600080fd5b5061172460048036038101908080359060200190929190803590602001909291905050506137ea565b6040518082815260200191505060405180910390f35b34801561174657600080fd5b506117656004803603810190808035906020019092919050505061380f565b6040518082815260200191505060405180910390f35b34801561178757600080fd5b506117a660048036038101908080359060200190929190505050613827565b6040518082815260200191505060405180910390f35b3480156117c857600080fd5b506117f1600480360381019080803590602001909291908035906020019092919050505061383f565b6040518082815260200191505060405180910390f35b34801561181357600080fd5b5061181c613864565b6040518082815260200191505060405180910390f35b34801561183e57600080fd5b50611861600480360381019080803560001916906020019092919050505061386a565b604051808215151515815260200191505060405180910390f35b34801561188757600080fd5b506118b06004803603810190808035906020019092919080359060200190929190505050613889565b6040518082815260200191505060405180910390f35b3480156118d257600080fd5b506118f1600480360381019080803590602001909291905050506138ae565b604051808215151515815260200191505060405180910390f35b34801561191757600080fd5b5061194c600480360381019080803573ffffffffffffffffffffffffffffffffffffffff1690602001909291905050506138ce565b604051808273ffffffffffffffffffffffffffffffffffffffff1673ffffffffffffffffffffffffffffffffffffffff16815260200191505060405180910390f35b34801561199a57600080fd5b506119d960048036038101908080359060200190929190803573ffffffffffffffffffffffffffffffffffffffff169060200190929190505050613901565b6040518082815260200191505060405180910390f35b3480156119fb57600080fd5b50611a04613926565b6040518082815260200191505060405180910390f35b348015611a2657600080fd5b50611a5b600480360381019080803573ffffffffffffffffffffffffffffffffffffffff16906020019092919050505061392c565b005b348015611a6957600080fd5b50611a886004803603810190808035906020019092919050505061394b565b6040518082815260200191505060405180910390f35b348015611aaa57600080fd5b50611ab3613963565b6040518082815260200191505060405180910390f35b348015611ad557600080fd5b50611b0a600480360381019080803573ffffffffffffffffffffffffffffffffffffffff169060200190929190505050613969565b6040518082815260200191505060405180910390f35b348015611b2c57600080fd5b50611b35613981565b6040518082815260200191505060405180910390f35b603860009054906101000a900460ff1681565b60306020528160005260406000206020528060005260406000206000915091509054906101000a900460ff1681565b601f6020528060005260406000206000915054906101000a900473ffffffffffffffffffffffffffffffffffffffff1681565b600a602052816000526040600020602052806000526040600020600091509150505481565b60396020528060005260406000206000915054906101000a900473ffffffffffffffffffffffffffffffffffffffff1681565b6002602052816000526040600020602052806000526040600020600091509150505481565b60255481565b600b6020528060005260406000206000915054906101000a900473ffffffffffffffffffffffffffffffffffffffff1681565b611c7e613389565b1515611c8957600080fd5b6000603760008373ffffffffffffffffffffffffffffffffffffffff1673ffffffffffffffffffffffffffffffffffffffff16815260200190815260200160002060006101000a81548160ff02191690831515021790555050565b601d6020528060005260406000206000915054906101000a900460ff1681565b60196020528060005260406000206000915054906101000a900460ff1681565b60176020528160005260406000206020528060005260406000206000915091509054906101000a900460ff1681565b60376020528060005260406000206000915054906101000a900460ff1681565b60136020528060005260406000206000915090505481565b60356020528060005260406000206000915090505481565b6016602052816000526040600020602052806000526040600020600091509150505481565b602c60205281600052604060002081815481101515611de357fe5b906000526020600020016000915091509054906101000a900473ffffffffffffffffffffffffffffffffffffffff1681565b6032602052816000526040600020602052806000526040600020600091509150505481565b670de0b6b3a764000060056000602454815260200190815260200160002081905550670de0b6b3a76400006003600060245481526020019081526020016000208190555061270e60026000602454815260200190815260200160002060006002815260200190815260200160002081905550565b6000801515601960003373ffffffffffffffffffffffffffffffffffffffff1673ffffffffffffffffffffffffffffffffffffffff16815260200190815260200160002060009054906101000a900460ff1615151415611f7d576001601960003373ffffffffffffffffffffffffffffffffffffffff1673ffffffffffffffffffffffffffffffffffffffff16815260200190815260200160002060006101000a81548160ff021916908315150217905550611f76600160225461398790919063ffffffff16565b6022819055505b60001515603860009054906101000a900460ff161515141515612008576040517f08c379a000000000000000000000000000000000000000000000000000000000815260040180806020018281038252600e8152602001807f47616d652069732070617573656400000000000000000000000000000000000081525060200191505060405180910390fd5b61204184848080602002602001604051908101604052809392919081815260200183836020028082843782019150505050505083613572565b341415156120b7576040517f08c379a00000000000000000000000000000000000000000000000000000000081526004018080602001828103825260108152602001807f57726f6e672063616c6c2070726963650000000000000000000000000000000081525060200191505060405180910390fd5b6104b06006600060245481526020019081526020016000205442031180156120f5575060006006600060245481526020019081526020016000205414155b156123f15760076000602454815260200190815260200160002060009054906101000a900473ffffffffffffffffffffffffffffffffffffffff16600b6000602454815260200190815260200160002060006101000a81548173ffffffffffffffffffffffffffffffffffffffff021916908373ffffffffffffffffffffffffffffffffffffffff1602179055506121bf60646121b1602d600560006024548152602001908152602001600020546139a890919063ffffffff16565b6139e690919063ffffffff16565b6032600060255481526020019081526020016000206000600b6000602454815260200190815260200160002060009054906101000a900473ffffffffffffffffffffffffffffffffffffffff1673ffffffffffffffffffffffffffffffffffffffff1673ffffffffffffffffffffffffffffffffffffffff168152602001908152602001600020600082825401925050819055506001600c6000602454815260200190815260200160002081905550612297600a600560006024548152602001908152602001600020546139e690919063ffffffff16565b600560006001602454018152602001908152602001600020819055506122ef60646122e1602d600560006024548152602001908152602001600020546139a890919063ffffffff16565b6139e690919063ffffffff16565b6005600060245481526020019081526020016000208190555060036000602454815260200190815260200160002054600360006001602454018152602001908152602001600020819055506000600360006024548152602001908152602001600020819055506024547f20f206bcab56eeef408295aaff8745adb98fed16823d758193e9449983d23fd2600b6000602454815260200190815260200160002060009054906101000a900473ffffffffffffffffffffffffffffffffffffffff16604051808273ffffffffffffffffffffffffffffffffffffffff1673ffffffffffffffffffffffffffffffffffffffff16815260200191505060405180910390a25b600090505b8383905081101561242c5761241f848483818110151561241257fe5b9050602002013583613a10565b80806001019150506123f6565b6124358261438a565b61243e82614525565b61244782614768565b61245082614894565b602760008154809291906001019190505550602a60008381526020019081526020016000206000815480929190600101919050555033602d6000602754815260200190815260200160002060006101000a81548173ffffffffffffffffffffffffffffffffffffffff021916908373ffffffffffffffffffffffffffffffffffffffff16021790555033602e60008481526020019081526020016000206000602a600086815260200190815260200160002054815260200190815260200160002060006101000a81548173ffffffffffffffffffffffffffffffffffffffff021916908373ffffffffffffffffffffffffffffffffffffffff16021790555050505050565b6010602052816000526040600020602052806000526040600020600091509150505481565b60146020528060005260406000206000915090505481565b6031602052816000526040600020602052806000526040600020600091509150505481565b60011515603760003373ffffffffffffffffffffffffffffffffffffffff1673ffffffffffffffffffffffffffffffffffffffff16815260200190815260200160002060009054906101000a900460ff16151514151561267f576040517f08c379a00000000000000000000000000000000000000000000000000000000081526004018080602001828103825260208152602001807f596f7520646f6e277420686176652061646d696e2070726976696c656775657381525060200191505060405180910390fd5b60011515603860009054906101000a900460ff16151514151561270a576040517f08c379a00000000000000000000000000000000000000000000000000000000081526004018080602001828103825260148152602001807f47616d6520697320616c7265616479206c69766500000000000000000000000081525060200191505060405180910390fd5b6000603860006101000a81548160ff021916908315150217905550565b600c6020528060005260406000206000915090505481565b60275481565b604060009054906101000a900473ffffffffffffffffffffffffffffffffffffffff1681565b60216020528060005260406000206000915090505481565b602e6020528160005260406000206020528060005260406000206000915091509054906101000a900473ffffffffffffffffffffffffffffffffffffffff1681565b600080600060011515603760003373ffffffffffffffffffffffffffffffffffffffff1673ffffffffffffffffffffffffffffffffffffffff16815260200190815260200160002060009054906101000a900460ff161515141515612892576040517f08c379a00000000000000000000000000000000000000000000000000000000081526004018080602001828103825260208152602001807f596f7520646f6e277420686176652061646d696e2070726976696c656775657381525060200191505060405180910390fd5b603e848154811015156128a157fe5b906000526020600020906003020192508260010160149054906101000a900460ff161515156128cf57600080fd5b8260010160009054906101000a900473ffffffffffffffffffffffffffffffffffffffff169150603a60008373ffffffffffffffffffffffffffffffffffffffff1673ffffffffffffffffffffffffffffffffffffffff1681526020019081526020016000205490506000603a60008473ffffffffffffffffffffffffffffffffffffffff1673ffffffffffffffffffffffffffffffffffffffff168152602001908152602001600020819055508173ffffffffffffffffffffffffffffffffffffffff166108fc829081150290604051600060405180830381858888f193505050501580156129c3573d6000803e3d6000fd5b5042603b60008473ffffffffffffffffffffffffffffffffffffffff1673ffffffffffffffffffffffffffffffffffffffff1681526020019081526020016000208190555080848373ffffffffffffffffffffffffffffffffffffffff167f1a983dd8fc1bd566844e816cd39bafaebd6523281477df579d3252da34a251d960405160405180910390a460018360010160146101000a81548160ff02191690831515021790555050505050565b60011515603760003373ffffffffffffffffffffffffffffffffffffffff1673ffffffffffffffffffffffffffffffffffffffff16815260200190815260200160002060009054906101000a900460ff161515141515612b38576040517f08c379a00000000000000000000000000000000000000000000000000000000081526004018080602001828103825260208152602001807f596f7520646f6e277420686176652061646d696e2070726976696c656775657381525060200191505060405180910390fd5b60001515603860009054906101000a900460ff161515141515612bc3576040517f08c379a00000000000000000000000000000000000000000000000000000000081526004018080602001828103825260168152602001807f47616d6520697320616c7265616479207061757365640000000000000000000081525060200191505060405180910390fd5b6001603860006101000a81548160ff021916908315150217905550565b6001602052816000526040600020602052806000526040600020600091509150505481565b60346020528060005260406000206000915054906101000a900460ff1681565b60056020528060005260406000206000915090505481565b601e6020528060005260406000206000915090508054600181600116156101000203166002900480601f016020809104026020016040519081016040528092919081815260200182805460018160011615610100020316600290048015612ce55780601f10612cba57610100808354040283529160200191612ce5565b820191906000526020600020905b815481529060010190602001808311612cc857829003601f168201915b505050505081565b603d5481565b602b60205281600052604060002081815481101515612d0e57fe5b906000526020600020016000915091509054906101000a900473ffffffffffffffffffffffffffffffffffffffff1681565b60126020528160005260406000206020528060005260406000206000915091509054906101000a900460ff1681565b60086020528060005260406000206000915090505481565b612d8f615769565b6000603a60003373ffffffffffffffffffffffffffffffffffffffff1673ffffffffffffffffffffffffffffffffffffffff1681526020019081526020016000205414151515612e6d576040517f08c379a00000000000000000000000000000000000000000000000000000000081526004018080602001828103825260228152602001807f596f7572207769746864726177616c2062616c616e6365206973207a65726f2e81526020017f2e2e00000000000000000000000000000000000000000000000000000000000081525060400191505060405180910390fd5b612e836001603d5461398790919063ffffffff16565b603d81905550603d5481600001818152505033816020019073ffffffffffffffffffffffffffffffffffffffff16908173ffffffffffffffffffffffffffffffffffffffff1681525050600081604001901515908115158152505042816060018181525050603e81908060018154018082558091505090600182039060005260206000209060030201600090919290919091506000820151816000015560208201518160010160006101000a81548173ffffffffffffffffffffffffffffffffffffffff021916908373ffffffffffffffffffffffffffffffffffffffff16021790555060408201518160010160146101000a81548160ff0219169083151502179055506060820151816002015550505042603d543373ffffffffffffffffffffffffffffffffffffffff167f4564c5b058f69e7dcd0937715686b0e7e519875481b651ebfab2eef281268f2360405160405180910390a450565b60156020528060005260406000206000915090505481565b612ffe613389565b151561300957600080fd5b6001603760008373ffffffffffffffffffffffffffffffffffffffff1673ffffffffffffffffffffffffffffffffffffffff16815260200190815260200160002060006101000a81548160ff02191690831515021790555050565b61306c613389565b151561307757600080fd5b600073ffffffffffffffffffffffffffffffffffffffff16603660009054906101000a900473ffffffffffffffffffffffffffffffffffffffff1673ffffffffffffffffffffffffffffffffffffffff167f8be0079c531659141344cd1fd0a4f28419497f9722a3daafe3b4186f6b6457e060405160405180910390a36000603660006101000a81548173ffffffffffffffffffffffffffffffffffffffff021916908373ffffffffffffffffffffffffffffffffffffffff160217905550565b60066020528060005260406000206000915090505481565b60076020528060005260406000206000915054906101000a900473ffffffffffffffffffffffffffffffffffffffff1681565b600080600060245481526020019081526020016000206000838152602001908152602001600020549050919050565b601a6020528060005260406000206000915054906101000a900460ff1681565b601c602052816000526040600020818154811015156131ed57fe5b906000526020600020016000915091509054906101000a900473ffffffffffffffffffffffffffffffffffffffff1681565b60245481565b60011515603760003373ffffffffffffffffffffffffffffffffffffffff1673ffffffffffffffffffffffffffffffffffffffff16815260200190815260200160002060009054906101000a900460ff1615151415156132ed576040517f08c379a00000000000000000000000000000000000000000000000000000000081526004018080602001828103825260208152602001807f596f7520646f6e277420686176652061646d696e2070726976696c656775657381525060200191505060405180910390fd5b6000603760003373ffffffffffffffffffffffffffffffffffffffff1673ffffffffffffffffffffffffffffffffffffffff16815260200190815260200160002060006101000a81548160ff021916908315150217905550565b6000603660009054906101000a900473ffffffffffffffffffffffffffffffffffffffff16905090565b602a6020528060005260406000206000915090505481565b6000603660009054906101000a900473ffffffffffffffffffffffffffffffffffffffff1673ffffffffffffffffffffffffffffffffffffffff163373ffffffffffffffffffffffffffffffffffffffff1614905090565b600d602052816000526040600020602052806000526040600020600091509150505481565b670de0b6b3a764000060056000602454815260200190815260200160002060008282540192505081905550670de0b6b3a76400006003600060245481526020019081526020016000206000828254019250508190555061270e60026000602454815260200190815260200160002060006002815260200190815260200160002081905550565b6004602052816000526040600020602052806000526040600020600091509150505481565b603e818154811015156134c057fe5b90600052602060002090600302016000915090508060000154908060010160009054906101000a900473ffffffffffffffffffffffffffffffffffffffff16908060010160149054906101000a900460ff16908060020154905084565b603f60009054906101000a900473ffffffffffffffffffffffffffffffffffffffff1681565b602f6020528160005260406000206020528060005260406000206000915091509054906101000a900460ff1681565b60008060008060008060006016600089815260200190815260200160002060003373ffffffffffffffffffffffffffffffffffffffff1673ffffffffffffffffffffffffffffffffffffffff1681526020019081526020016000205495506017600089815260200190815260200160002060003373ffffffffffffffffffffffffffffffffffffffff1673ffffffffffffffffffffffffffffffffffffffff16815260200190815260200160002060009054906101000a900460ff1694506018600089815260200190815260200160002060003373ffffffffffffffffffffffffffffffffffffffff1673ffffffffffffffffffffffffffffffffffffffff168152602001908152602001600020549350600092505b8851831015613754576136cd60646136bf86606403601560008d8152602001908152602001600020546139a890919063ffffffff16565b6139e690919063ffffffff16565b91506001151585151514156136e4578190506136fb565b601560008981526020019081526020016000205490505b80870196508086019550670de0b6b3a7640000861015156137475760019450670de0b6b3a76400008681151561372d57fe5b049350678ac7230489e800008610151561374657600a93505b5b8280600101935050613688565b50505050505092915050565b602d6020528060005260406000206000915054906101000a900473ffffffffffffffffffffffffffffffffffffffff1681565b6028602052816000526040600020602052806000526040600020600091509150505481565b602960205282600052604060002060205281600052604060002060205280600052604060002060009250925050505481565b6000602052816000526040600020602052806000526040600020600091509150505481565b600e6020528060005260406000206000915090505481565b60036020528060005260406000206000915090505481565b6011602052816000526040600020602052806000526040600020600091509150505481565b60225481565b602080528060005260406000206000915054906101000a900460ff1681565b600f602052816000526040600020602052806000526040600020600091509150505481565b60336020528060005260406000206000915054906101000a900460ff1681565b601b6020528060005260406000206000915054906101000a900473ffffffffffffffffffffffffffffffffffffffff1681565b6018602052816000526040600020602052806000526040600020600091509150505481565b60235481565b613934613389565b151561393f57600080fd5b61394881614a07565b50565b60096020528060005260406000206000915090505481565b603c5481565b603a6020528060005260406000206000915090505481565b60265481565b600080828401905083811015151561399e57600080fd5b8091505092915050565b60008060008414156139bd57600091506139df565b82840290508284828115156139ce57fe5b041415156139db57600080fd5b8091505b5092915050565b6000806000831115156139f857600080fd5b8284811515613a0357fe5b0490508091505092915050565b6000613a1b82614b03565b60008314151515613aba576040517f08c379a00000000000000000000000000000000000000000000000000000000081526004018080602001828103825260278152602001807f54686520706978656c2077697468206964203d203020646f6573206e6f74206581526020017f786973742e2e2e0000000000000000000000000000000000000000000000000081525060400191505060405180910390fd5b60008214151515613b59576040517f08c379a00000000000000000000000000000000000000000000000000000000081526004018080602001828103825260288152602001807f596f752063616e6e6f74207061696e7420746f207472616e73706172656e742081526020017f636f6c6f722e2e2e00000000000000000000000000000000000000000000000081525060400191505060405180910390fd5b81600080602454815260200190815260200160002060008581526020019081526020016000205414151515613c1c576040517f08c379a00000000000000000000000000000000000000000000000000000000081526004018080602001828103825260268152602001807f5468697320706978656c20697320616c7265616479206f66207468697320636f81526020017f6c6f722e2e2e000000000000000000000000000000000000000000000000000081525060400191505060405180910390fd5b600080602454815260200190815260200160002060008481526020019081526020016000205490508160008060245481526020019081526020016000206000858152602001908152602001600020819055508060016000602454815260200190815260200160002060008581526020019081526020016000208190555042600660006024548152602001908152602001600020819055503360076000602454815260200190815260200160002060006101000a81548173ffffffffffffffffffffffffffffffffffffffff021916908373ffffffffffffffffffffffffffffffffffffffff16021790555060006002600060245481526020019081526020016000206000838152602001908152602001600020541115613d9b57613d706001600260006024548152602001908152602001600020600084815260200190815260200160002054614da190919063ffffffff16565b6002600060245481526020019081526020016000206000838152602001908152602001600020819055505b613dd5600160026000602454815260200190815260200160002060008581526020019081526020016000205461398790919063ffffffff16565b600260006024548152602001908152602001600020600084815260200190815260200160002081905550613e286001600e600060245481526020019081526020016000205461398790919063ffffffff16565b600e600060245481526020019081526020016000208190555042600d6000602454815260200190815260200160002060008581526020019081526020016000208190555060286000602554815260200190815260200160002060003373ffffffffffffffffffffffffffffffffffffffff1673ffffffffffffffffffffffffffffffffffffffff16815260200190815260200160002060008154809291906001019190505550602960006026548152602001908152602001600020600083815260200190815260200160002060003373ffffffffffffffffffffffffffffffffffffffff1673ffffffffffffffffffffffffffffffffffffffff16815260200190815260200160002060008154809291906001019190505550613f8c6001600f600085815260200190815260200160002060006013600087815260200190815260200160002054815260200190815260200160002054614da190919063ffffffff16565b600f60008481526020019081526020016000206000601360008681526020019081526020016000205481526020019081526020016000208190555082600860006024548152602001908152602001600020819055506024543373ffffffffffffffffffffffffffffffffffffffff16847faf2d03aa2fdc9b785775529881274caad1884e0279e02729f03eca55d57eea728542604051808381526020018281526020019250505060405180910390a4602454603560003373ffffffffffffffffffffffffffffffffffffffff1673ffffffffffffffffffffffffffffffffffffffff16815260200190815260200160002081905550612710600260006024548152602001908152602001600020600084815260200190815260200160002054141561438557816009600060245481526020019081526020016000208190555060076000602454815260200190815260200160002060009054906101000a900473ffffffffffffffffffffffffffffffffffffffff16600b6000602454815260200190815260200160002060006101000a81548173ffffffffffffffffffffffffffffffffffffffff021916908373ffffffffffffffffffffffffffffffffffffffff16021790555061419060646141826032600360006024548152602001908152602001600020546139a890919063ffffffff16565b6139e690919063ffffffff16565b6031600060265481526020019081526020016000206000600b6000602454815260200190815260200160002060009054906101000a900473ffffffffffffffffffffffffffffffffffffffff1673ffffffffffffffffffffffffffffffffffffffff1673ffffffffffffffffffffffffffffffffffffffff168152602001908152602001600020600082825401925050819055506002600c600060245481526020019081526020016000208190555061427b606461426d6032600360006024548152602001908152602001600020546139a890919063ffffffff16565b6139e690919063ffffffff16565b6003600060245481526020019081526020016000208190555060056000602454815260200190815260200160002054600560006001602454018152602001908152602001600020819055506000600560006024548152602001908152602001600020819055506024547f14988f685a0376db6242cb37ed3033028bbc9e8fe0cc4b434a098e6c0150673f600b6000602454815260200190815260200160002060009054906101000a900473ffffffffffffffffffffffffffffffffffffffff16604051808273ffffffffffffffffffffffffffffffffffffffff1673ffffffffffffffffffffffffffffffffffffffff16815260200191505060405180910390a2614384614dc2565b5b505050565b6143e96143b460646143a66028346139a890919063ffffffff16565b6139e690919063ffffffff16565b60046000602454815260200190815260200160002060008481526020019081526020016000205461398790919063ffffffff16565b60046000602454815260200190815260200160002060008381526020019081526020016000208190555061446161443d606461442f6028346139a890919063ffffffff16565b6139e690919063ffffffff16565b6003600060245481526020019081526020016000205461398790919063ffffffff16565b600360006024548152602001908152602001600020819055506144c86144a460646144966028346139a890919063ffffffff16565b6139e690919063ffffffff16565b6005600060245481526020019081526020016000205461398790919063ffffffff16565b6005600060245481526020019081526020016000208190555061451c61450b60646144fd6014346139a890919063ffffffff16565b6139e690919063ffffffff16565b603c5461398790919063ffffffff16565b603c8190555050565b6145c161455160646145436019603c546139a890919063ffffffff16565b6139e690919063ffffffff16565b603a6000604060009054906101000a900473ffffffffffffffffffffffffffffffffffffffff1673ffffffffffffffffffffffffffffffffffffffff1673ffffffffffffffffffffffffffffffffffffffff1681526020019081526020016000205461398790919063ffffffff16565b603a6000604060009054906101000a900473ffffffffffffffffffffffffffffffffffffffff1673ffffffffffffffffffffffffffffffffffffffff1673ffffffffffffffffffffffffffffffffffffffff1681526020019081526020016000208190555061464f60646146416019603c546139a890919063ffffffff16565b6139e690919063ffffffff16565b603a60006039600085815260200190815260200160002060009054906101000a900473ffffffffffffffffffffffffffffffffffffffff1673ffffffffffffffffffffffffffffffffffffffff1673ffffffffffffffffffffffffffffffffffffffff168152602001908152602001600020600082825401925050819055506146f760646146e96019603c546139a890919063ffffffff16565b6139e690919063ffffffff16565b603a6000603f60009054906101000a900473ffffffffffffffffffffffffffffffffffffffff1673ffffffffffffffffffffffffffffffffffffffff1673ffffffffffffffffffffffffffffffffffffffff1681526020019081526020016000206000828254019250508190555050565b346016600083815260200190815260200160002060003373ffffffffffffffffffffffffffffffffffffffff1673ffffffffffffffffffffffffffffffffffffffff16815260200190815260200160002060008282540192505081905550670de0b6b3a76400006016600083815260200190815260200160002060003373ffffffffffffffffffffffffffffffffffffffff1673ffffffffffffffffffffffffffffffffffffffff168152602001908152602001600020541015156148915760016017600083815260200190815260200160002060003373ffffffffffffffffffffffffffffffffffffffff1673ffffffffffffffffffffffffffffffffffffffff16815260200190815260200160002060006101000a81548160ff0219169083151502179055505b50565b670de0b6b3a76400006016600083815260200190815260200160002060003373ffffffffffffffffffffffffffffffffffffffff1673ffffffffffffffffffffffffffffffffffffffff168152602001908152602001600020548115156148f757fe5b046018600083815260200190815260200160002060003373ffffffffffffffffffffffffffffffffffffffff1673ffffffffffffffffffffffffffffffffffffffff16815260200190815260200160002081905550678ac7230489e800006016600083815260200190815260200160002060003373ffffffffffffffffffffffffffffffffffffffff1673ffffffffffffffffffffffffffffffffffffffff16815260200190815260200160002054101515614a0457600a6018600083815260200190815260200160002060003373ffffffffffffffffffffffffffffffffffffffff1673ffffffffffffffffffffffffffffffffffffffff168152602001908152602001600020819055505b50565b600073ffffffffffffffffffffffffffffffffffffffff168173ffffffffffffffffffffffffffffffffffffffff1614151515614a4357600080fd5b8073ffffffffffffffffffffffffffffffffffffffff16603660009054906101000a900473ffffffffffffffffffffffffffffffffffffffff1673ffffffffffffffffffffffffffffffffffffffff167f8be0079c531659141344cd1fd0a4f28419497f9722a3daafe3b4186f6b6457e060405160405180910390a380603660006101000a81548173ffffffffffffffffffffffffffffffffffffffff021916908373ffffffffffffffffffffffffffffffffffffffff16021790555050565b600080605a60116000858152602001908152602001600020600060016013600088815260200190815260200160002054038152602001908152602001600020544203101515614d9c57600f6000848152602001908152602001600020600060136000868152602001908152602001600020548152602001908152602001600020549150614bad6001601360008681526020019081526020016000205461398790919063ffffffff16565b90506000151560126000858152602001908152602001600020600083815260200190815260200160002060009054906101000a900460ff1615151415614c9157614c0282602354614da190919063ffffffff16565b600f60008581526020019081526020016000206000838152602001908152602001600020819055504260106000858152602001908152602001600020600083815260200190815260200160002081905550600160126000858152602001908152602001600020600083815260200190815260200160002060006101000a81548160ff0219169083151502179055505b6001600f6000858152602001908152602001600020600060136000878152602001908152602001600020548152602001908152602001600020541415614d1757614cda836151b6565b4260116000858152602001908152602001600020600060136000878152602001908152602001600020548152602001908152602001600020819055505b6000600f6000858152602001908152602001600020600060136000878152602001908152602001600020548152602001908152602001600020541415614d9b57601560008481526020019081526020016000205460146000858152602001908152602001600020819055508060136000858152602001908152602001600020819055505b5b505050565b600080838311151515614db357600080fd5b82840390508091505092915050565b6000806000801515603860009054906101000a900460ff161515141515614e51576040517f08c379a000000000000000000000000000000000000000000000000000000000815260040180806020018281038252600e8152602001807f47616d652069732070617573656400000000000000000000000000000000000081525060200191505060405180910390fd5b6000151560336000602654815260200190815260200160002060009054906101000a900460ff161515141515614f15576040517f08c379a000000000000000000000000000000000000000000000000000000000815260040180806020018281038252603a8152602001807f436f6c6f722042616e6b205072697a657320616c7265616479207472616e736681526020017f657272656420666f722074686973206362497465726174696f6e00000000000081525060400191505060405180910390fd5b614f336009600060245481526020019081526020016000205461524a565b602b60006026548152602001908152602001600020805490509150600090505b818110156150ad57602b6000602654815260200190815260200160002081815481101515614f7d57fe5b9060005260206000200160009054906101000a900473ffffffffffffffffffffffffffffffffffffffff169250600060316000602654815260200190815260200160002060008573ffffffffffffffffffffffffffffffffffffffff1673ffffffffffffffffffffffffffffffffffffffff168152602001908152602001600020541415156150a0578273ffffffffffffffffffffffffffffffffffffffff166108fc60316000602654815260200190815260200160002060008673ffffffffffffffffffffffffffffffffffffffff1673ffffffffffffffffffffffffffffffffffffffff168152602001908152602001600020549081150290604051600060405180830381858888f1935050505015801561509e573d6000803e3d6000fd5b505b8080600101915050614f53565b600160336000602654815260200190815260200160002060006101000a81548160ff0219169083151502179055506026546024547fbfaed882fe30111ee8001f97dfc827277ddbc8fc06720f063988546d0bdc08b0600b6000602454815260200190815260200160002060009054906101000a900473ffffffffffffffffffffffffffffffffffffffff16604051808273ffffffffffffffffffffffffffffffffffffffff1673ffffffffffffffffffffffffffffffffffffffff16815260200191505060405180910390a361518f600160245461398790919063ffffffff16565b6024819055506151ab600160265461398790919063ffffffff16565b602681905550505050565b6151f060646151e2606960146000868152602001908152602001600020546139a890919063ffffffff16565b6139e690919063ffffffff16565b601560008381526020019081526020016000208190555060146000828152602001908152602001600020547f3bb22f778670a5901bff4d41c425858dac1ea6aeb048d40f959a6bc43f98506160405160405180910390a250565b6000806000806152598561548f565b9350600090505b8381101561532c57602b600060265481526020019081526020016000208181548110151561528a57fe5b9060005260206000200160009054906101000a900473ffffffffffffffffffffffffffffffffffffffff169250602960006026548152602001908152602001600020600086815260200190815260200160002060008473ffffffffffffffffffffffffffffffffffffffff1673ffffffffffffffffffffffffffffffffffffffff16815260200190815260200160002054820191508080600101915050615260565b600090505b8381101561548857602b600060265481526020019081526020016000208181548110151561535b57fe5b9060005260206000200160009054906101000a900473ffffffffffffffffffffffffffffffffffffffff169250615425826154176003600060245481526020019081526020016000205460296000602654815260200190815260200160002060008a815260200190815260200160002060008873ffffffffffffffffffffffffffffffffffffffff1673ffffffffffffffffffffffffffffffffffffffff168152602001908152602001600020546139a890919063ffffffff16565b6139e690919063ffffffff16565b60316000602654815260200190815260200160002060008573ffffffffffffffffffffffffffffffffffffffff1673ffffffffffffffffffffffffffffffffffffffff168152602001908152602001600020819055508080600101915050615331565b5050505050565b6000806000602a60008581526020019081526020016000205491505b60008211156157475760001515602f600060265481526020019081526020016000206000602e6000888152602001908152602001600020600086815260200190815260200160002060009054906101000a900473ffffffffffffffffffffffffffffffffffffffff1673ffffffffffffffffffffffffffffffffffffffff1673ffffffffffffffffffffffffffffffffffffffff16815260200190815260200160002060009054906101000a900460ff1615151415615739576064602a60008681526020019081526020016000205411156155945760648110151561558f57615747565b6155b6565b602a600085815260200190815260200160002054811015156155b557615747565b5b602b60006026548152602001908152602001600020602e6000868152602001908152602001600020600084815260200190815260200160002060009054906101000a900473ffffffffffffffffffffffffffffffffffffffff1690806001815401808255809150509060018203906000526020600020016000909192909190916101000a81548173ffffffffffffffffffffffffffffffffffffffff021916908373ffffffffffffffffffffffffffffffffffffffff1602179055505061568760018261398790919063ffffffff16565b90506001602f600060265481526020019081526020016000206000602e6000888152602001908152602001600020600086815260200190815260200160002060009054906101000a900473ffffffffffffffffffffffffffffffffffffffff1673ffffffffffffffffffffffffffffffffffffffff1673ffffffffffffffffffffffffffffffffffffffff16815260200190815260200160002060006101000a81548160ff0219169083151502179055505b8180600190039250506154ab565b602b600060265481526020019081526020016000208054905092505050919050565b60806040519081016040528060008152602001600073ffffffffffffffffffffffffffffffffffffffff1681526020016000151581526020016000815250905600a165627a7a723058208a33107c14ea915387372d42edb704607886c064721d50ab141e2413701d30f00029",
  "source": "pragma solidity ^0.4.24;\n\nimport \"./Game.sol\";\n\ncontract GameMock is Game {\n\n    //      (paint)\n    function _updateCallPrice(uint _color) private {\n        \n        //    5% (    )\n        nextCallPriceForColor[_color] = callPriceForColor[_color].mul(105).div(100);\n        \n        //   ,     paint \n        emit CallPriceUpdated(callPriceForColor[_color]);\n    }\n\n    function hardCode() external {\n        timeBankForRound[currentRound] = 1 ether;\n        colorBankForRound[currentRound] = 1 ether;\n        colorToPaintedPixelsAmountForRound[currentRound][2] = 9998;\n    }\n\n    function hardCode2() external {\n        timeBankForRound[currentRound] += 1 ether;\n        colorBankForRound[currentRound] += 1 ether;\n        colorToPaintedPixelsAmountForRound[currentRound][2] = 9998;\n    }\n\n}",
  "sourcePath": "/Users/Amir/last-pixel-contracts/contracts/GameMock.sol",
  "compiler": {
    "name": "solc",
    "version": "0.4.24+commit.e67f0147.Emscripten.clang"
  },
  "schemaVersion": "2.0.1",
  "updatedAt": "2019-01-04T19:25:42.619Z"
}