{
  "contractName": "GameStateController",
  "abi": [
    {
      "constant": true,
      "inputs": [],
      "name": "isGamePaused",
      "outputs": [
        {
          "name": "",
          "type": "bool"
        }
      ],
      "payable": false,
      "stateMutability": "view",
      "type": "function"
    },
    {
      "constant": true,
      "inputs": [
        {
          "name": "",
          "type": "uint256"
        },
        {
          "name": "",
          "type": "address"
        }
      ],
      "name": "isInTBT",
      "outputs": [
        {
          "name": "",
          "type": "bool"
        }
      ],
      "payable": false,
      "stateMutability": "view",
      "type": "function"
    },
    {
      "constant": true,
      "inputs": [
        {
          "name": "",
          "type": "bytes32"
        }
      ],
      "name": "refLinkToUser",
      "outputs": [
        {
          "name": "",
          "type": "address"
        }
      ],
      "payable": false,
      "stateMutability": "view",
      "type": "function"
    },
    {
      "constant": true,
      "inputs": [
        {
          "name": "",
          "type": "uint256"
        }
      ],
      "name": "ownerOfColor",
      "outputs": [
        {
          "name": "",
          "type": "address"
        }
      ],
      "payable": false,
      "stateMutability": "view",
      "type": "function"
    },
    {
      "constant": true,
      "inputs": [
        {
          "name": "",
          "type": "uint256"
        },
        {
          "name": "",
          "type": "uint256"
        }
      ],
      "name": "colorToPaintedPixelsAmountForRound",
      "outputs": [
        {
          "name": "",
          "type": "uint256"
        }
      ],
      "payable": false,
      "stateMutability": "view",
      "type": "function"
    },
    {
      "constant": true,
      "inputs": [],
      "name": "tbIteration",
      "outputs": [
        {
          "name": "",
          "type": "uint256"
        }
      ],
      "payable": false,
      "stateMutability": "view",
      "type": "function"
    },
    {
      "constant": true,
      "inputs": [
        {
          "name": "",
          "type": "uint256"
        }
      ],
      "name": "winnerOfRound",
      "outputs": [
        {
          "name": "",
          "type": "address"
        }
      ],
      "payable": false,
      "stateMutability": "view",
      "type": "function"
    },
    {
      "constant": true,
      "inputs": [
        {
          "name": "",
          "type": "uint256"
        }
      ],
      "name": "timeBankDrawnForRound",
      "outputs": [
        {
          "name": "",
          "type": "bool"
        }
      ],
      "payable": false,
      "stateMutability": "view",
      "type": "function"
    },
    {
      "constant": true,
      "inputs": [
        {
          "name": "",
          "type": "address"
        }
      ],
      "name": "hasReferrer",
      "outputs": [
        {
          "name": "",
          "type": "bool"
        }
      ],
      "payable": false,
      "stateMutability": "view",
      "type": "function"
    },
    {
      "constant": true,
      "inputs": [
        {
          "name": "",
          "type": "uint256"
        },
        {
          "name": "",
          "type": "uint256"
        }
      ],
      "name": "colorToTotalPaintsForCBIteration",
      "outputs": [
        {
          "name": "",
          "type": "uint256"
        }
      ],
      "payable": false,
      "stateMutability": "view",
      "type": "function"
    },
    {
      "constant": true,
      "inputs": [],
      "name": "totalColorsNumber",
      "outputs": [
        {
          "name": "",
          "type": "uint256"
        }
      ],
      "payable": false,
      "stateMutability": "view",
      "type": "function"
    },
    {
      "constant": true,
      "inputs": [
        {
          "name": "",
          "type": "address"
        }
      ],
      "name": "isRegisteredUser",
      "outputs": [
        {
          "name": "",
          "type": "bool"
        }
      ],
      "payable": false,
      "stateMutability": "view",
      "type": "function"
    },
    {
      "constant": true,
      "inputs": [
        {
          "name": "",
          "type": "uint256"
        },
        {
          "name": "",
          "type": "address"
        }
      ],
      "name": "hasPaintDiscountForColor",
      "outputs": [
        {
          "name": "",
          "type": "bool"
        }
      ],
      "payable": false,
      "stateMutability": "view",
      "type": "function"
    },
    {
      "constant": true,
      "inputs": [],
      "name": "isTBPDistributable",
      "outputs": [
        {
          "name": "",
          "type": "bool"
        }
      ],
      "payable": false,
      "stateMutability": "view",
      "type": "function"
    },
    {
      "constant": true,
      "inputs": [
        {
          "name": "",
          "type": "address"
        }
      ],
      "name": "isAdmin",
      "outputs": [
        {
          "name": "",
          "type": "bool"
        }
      ],
      "payable": false,
      "stateMutability": "view",
      "type": "function"
    },
    {
      "constant": true,
      "inputs": [
        {
          "name": "",
          "type": "uint256"
        }
      ],
      "name": "currentPaintGenForColor",
      "outputs": [
        {
          "name": "",
          "type": "uint256"
        }
      ],
      "payable": false,
      "stateMutability": "view",
      "type": "function"
    },
    {
      "constant": true,
      "inputs": [
        {
          "name": "",
          "type": "address"
        }
      ],
      "name": "lastPlayedRound",
      "outputs": [
        {
          "name": "",
          "type": "uint256"
        }
      ],
      "payable": false,
      "stateMutability": "view",
      "type": "function"
    },
    {
      "constant": true,
      "inputs": [
        {
          "name": "",
          "type": "uint256"
        },
        {
          "name": "",
          "type": "address"
        }
      ],
      "name": "moneySpentByUserForColor",
      "outputs": [
        {
          "name": "",
          "type": "uint256"
        }
      ],
      "payable": false,
      "stateMutability": "view",
      "type": "function"
    },
    {
      "constant": true,
      "inputs": [
        {
          "name": "",
          "type": "uint256"
        },
        {
          "name": "",
          "type": "uint256"
        }
      ],
      "name": "tbTeam",
      "outputs": [
        {
          "name": "",
          "type": "address"
        }
      ],
      "payable": false,
      "stateMutability": "view",
      "type": "function"
    },
    {
      "constant": true,
      "inputs": [
        {
          "name": "",
          "type": "uint256"
        },
        {
          "name": "",
          "type": "address"
        }
      ],
      "name": "painterToTBP",
      "outputs": [
        {
          "name": "",
          "type": "uint256"
        }
      ],
      "payable": false,
      "stateMutability": "view",
      "type": "function"
    },
    {
      "constant": true,
      "inputs": [
        {
          "name": "",
          "type": "uint256"
        },
        {
          "name": "",
          "type": "uint256"
        }
      ],
      "name": "paintGenToStartTimeForColor",
      "outputs": [
        {
          "name": "",
          "type": "uint256"
        }
      ],
      "payable": false,
      "stateMutability": "view",
      "type": "function"
    },
    {
      "constant": true,
      "inputs": [
        {
          "name": "",
          "type": "uint256"
        }
      ],
      "name": "callPriceForColor",
      "outputs": [
        {
          "name": "",
          "type": "uint256"
        }
      ],
      "payable": false,
      "stateMutability": "view",
      "type": "function"
    },
    {
      "constant": true,
      "inputs": [
        {
          "name": "",
          "type": "uint256"
        },
        {
          "name": "",
          "type": "address"
        }
      ],
      "name": "painterToCBP",
      "outputs": [
        {
          "name": "",
          "type": "uint256"
        }
      ],
      "payable": false,
      "stateMutability": "view",
      "type": "function"
    },
    {
      "constant": true,
      "inputs": [
        {
          "name": "",
          "type": "uint256"
        }
      ],
      "name": "winnerBankForRound",
      "outputs": [
        {
          "name": "",
          "type": "uint256"
        }
      ],
      "payable": false,
      "stateMutability": "view",
      "type": "function"
    },
    {
      "constant": true,
      "inputs": [],
      "name": "paintsCounter",
      "outputs": [
        {
          "name": "",
          "type": "uint256"
        }
      ],
      "payable": false,
      "stateMutability": "view",
      "type": "function"
    },
    {
      "constant": true,
      "inputs": [],
      "name": "founders",
      "outputs": [
        {
          "name": "",
          "type": "address"
        }
      ],
      "payable": false,
      "stateMutability": "view",
      "type": "function"
    },
    {
      "constant": true,
      "inputs": [
        {
          "name": "",
          "type": "address"
        }
      ],
      "name": "newUserToCounter",
      "outputs": [
        {
          "name": "",
          "type": "uint256"
        }
      ],
      "payable": false,
      "stateMutability": "view",
      "type": "function"
    },
    {
      "constant": true,
      "inputs": [
        {
          "name": "",
          "type": "uint256"
        },
        {
          "name": "",
          "type": "uint256"
        }
      ],
      "name": "counterToPainterForColor",
      "outputs": [
        {
          "name": "",
          "type": "address"
        }
      ],
      "payable": false,
      "stateMutability": "view",
      "type": "function"
    },
    {
      "constant": true,
      "inputs": [
        {
          "name": "",
          "type": "address"
        }
      ],
      "name": "moneySpentByUser",
      "outputs": [
        {
          "name": "",
          "type": "uint256"
        }
      ],
      "payable": false,
      "stateMutability": "view",
      "type": "function"
    },
    {
      "constant": true,
      "inputs": [
        {
          "name": "",
          "type": "uint256"
        },
        {
          "name": "",
          "type": "uint256"
        }
      ],
      "name": "pixelToOldColorForRound",
      "outputs": [
        {
          "name": "",
          "type": "uint256"
        }
      ],
      "payable": false,
      "stateMutability": "view",
      "type": "function"
    },
    {
      "constant": true,
      "inputs": [
        {
          "name": "",
          "type": "uint256"
        }
      ],
      "name": "isTBPTransfered",
      "outputs": [
        {
          "name": "",
          "type": "bool"
        }
      ],
      "payable": false,
      "stateMutability": "view",
      "type": "function"
    },
    {
      "constant": true,
      "inputs": [
        {
          "name": "",
          "type": "uint256"
        }
      ],
      "name": "timeBankForRound",
      "outputs": [
        {
          "name": "",
          "type": "uint256"
        }
      ],
      "payable": false,
      "stateMutability": "view",
      "type": "function"
    },
    {
      "constant": true,
      "inputs": [
        {
          "name": "",
          "type": "address"
        }
      ],
      "name": "userToRefLink",
      "outputs": [
        {
          "name": "",
          "type": "string"
        }
      ],
      "payable": false,
      "stateMutability": "view",
      "type": "function"
    },
    {
      "constant": true,
      "inputs": [],
      "name": "claimId",
      "outputs": [
        {
          "name": "",
          "type": "uint256"
        }
      ],
      "payable": false,
      "stateMutability": "view",
      "type": "function"
    },
    {
      "constant": true,
      "inputs": [
        {
          "name": "",
          "type": "uint256"
        },
        {
          "name": "",
          "type": "uint256"
        }
      ],
      "name": "cbTeam",
      "outputs": [
        {
          "name": "",
          "type": "address"
        }
      ],
      "payable": false,
      "stateMutability": "view",
      "type": "function"
    },
    {
      "constant": true,
      "inputs": [
        {
          "name": "",
          "type": "uint256"
        },
        {
          "name": "",
          "type": "uint256"
        }
      ],
      "name": "paintGenStartedForColor",
      "outputs": [
        {
          "name": "",
          "type": "bool"
        }
      ],
      "payable": false,
      "stateMutability": "view",
      "type": "function"
    },
    {
      "constant": true,
      "inputs": [
        {
          "name": "",
          "type": "uint256"
        }
      ],
      "name": "usersCounterForRound",
      "outputs": [
        {
          "name": "",
          "type": "uint256"
        }
      ],
      "payable": false,
      "stateMutability": "view",
      "type": "function"
    },
    {
      "constant": true,
      "inputs": [
        {
          "name": "",
          "type": "uint256"
        }
      ],
      "name": "lastPaintedPixelForRound",
      "outputs": [
        {
          "name": "",
          "type": "uint256"
        }
      ],
      "payable": false,
      "stateMutability": "view",
      "type": "function"
    },
    {
      "constant": true,
      "inputs": [
        {
          "name": "",
          "type": "uint256"
        }
      ],
      "name": "nextCallPriceForColor",
      "outputs": [
        {
          "name": "",
          "type": "uint256"
        }
      ],
      "payable": false,
      "stateMutability": "view",
      "type": "function"
    },
    {
      "constant": false,
      "inputs": [],
      "name": "renounceOwnership",
      "outputs": [],
      "payable": false,
      "stateMutability": "nonpayable",
      "type": "function"
    },
    {
      "constant": true,
      "inputs": [
        {
          "name": "",
          "type": "uint256"
        }
      ],
      "name": "lastPaintTimeForRound",
      "outputs": [
        {
          "name": "",
          "type": "uint256"
        }
      ],
      "payable": false,
      "stateMutability": "view",
      "type": "function"
    },
    {
      "constant": true,
      "inputs": [],
      "name": "isCBPDistributable",
      "outputs": [
        {
          "name": "",
          "type": "bool"
        }
      ],
      "payable": false,
      "stateMutability": "view",
      "type": "function"
    },
    {
      "constant": true,
      "inputs": [
        {
          "name": "",
          "type": "uint256"
        }
      ],
      "name": "lastPainterForRound",
      "outputs": [
        {
          "name": "",
          "type": "address"
        }
      ],
      "payable": false,
      "stateMutability": "view",
      "type": "function"
    },
    {
      "constant": true,
      "inputs": [
        {
          "name": "",
          "type": "address"
        }
      ],
      "name": "hasRefLink",
      "outputs": [
        {
          "name": "",
          "type": "bool"
        }
      ],
      "payable": false,
      "stateMutability": "view",
      "type": "function"
    },
    {
      "constant": true,
      "inputs": [
        {
          "name": "",
          "type": "address"
        }
      ],
      "name": "registrationTimeForUser",
      "outputs": [
        {
          "name": "",
          "type": "uint256"
        }
      ],
      "payable": false,
      "stateMutability": "view",
      "type": "function"
    },
    {
      "constant": true,
      "inputs": [
        {
          "name": "",
          "type": "address"
        }
      ],
      "name": "lastPaintTimeOfUser",
      "outputs": [
        {
          "name": "",
          "type": "uint256"
        }
      ],
      "payable": false,
      "stateMutability": "view",
      "type": "function"
    },
    {
      "constant": true,
      "inputs": [
        {
          "name": "",
          "type": "address"
        },
        {
          "name": "",
          "type": "uint256"
        }
      ],
      "name": "referrerToReferrals",
      "outputs": [
        {
          "name": "",
          "type": "address"
        }
      ],
      "payable": false,
      "stateMutability": "view",
      "type": "function"
    },
    {
      "constant": true,
      "inputs": [],
      "name": "currentRound",
      "outputs": [
        {
          "name": "",
          "type": "uint256"
        }
      ],
      "payable": false,
      "stateMutability": "view",
      "type": "function"
    },
    {
      "constant": true,
      "inputs": [],
      "name": "owner",
      "outputs": [
        {
          "name": "",
          "type": "address"
        }
      ],
      "payable": false,
      "stateMutability": "view",
      "type": "function"
    },
    {
      "constant": true,
      "inputs": [
        {
          "name": "",
          "type": "uint256"
        }
      ],
      "name": "paintsCounterForColor",
      "outputs": [
        {
          "name": "",
          "type": "uint256"
        }
      ],
      "payable": false,
      "stateMutability": "view",
      "type": "function"
    },
    {
      "constant": true,
      "inputs": [],
      "name": "isOwner",
      "outputs": [
        {
          "name": "",
          "type": "bool"
        }
      ],
      "payable": false,
      "stateMutability": "view",
      "type": "function"
    },
    {
      "constant": true,
      "inputs": [
        {
          "name": "",
          "type": "uint256"
        },
        {
          "name": "",
          "type": "uint256"
        }
      ],
      "name": "pixelToPaintTimeForRound",
      "outputs": [
        {
          "name": "",
          "type": "uint256"
        }
      ],
      "payable": false,
      "stateMutability": "view",
      "type": "function"
    },
    {
      "constant": true,
      "inputs": [
        {
          "name": "",
          "type": "uint256"
        },
        {
          "name": "",
          "type": "uint256"
        }
      ],
      "name": "colorBankToColorForRound",
      "outputs": [
        {
          "name": "",
          "type": "uint256"
        }
      ],
      "payable": false,
      "stateMutability": "view",
      "type": "function"
    },
    {
      "constant": true,
      "inputs": [
        {
          "name": "",
          "type": "uint256"
        }
      ],
      "name": "claims",
      "outputs": [
        {
          "name": "id",
          "type": "uint256"
        },
        {
          "name": "claimer",
          "type": "address"
        },
        {
          "name": "isResolved",
          "type": "bool"
        },
        {
          "name": "timestamp",
          "type": "uint256"
        }
      ],
      "payable": false,
      "stateMutability": "view",
      "type": "function"
    },
    {
      "constant": true,
      "inputs": [],
      "name": "ownerOfPixel",
      "outputs": [
        {
          "name": "",
          "type": "address"
        }
      ],
      "payable": false,
      "stateMutability": "view",
      "type": "function"
    },
    {
      "constant": true,
      "inputs": [
        {
          "name": "",
          "type": "uint256"
        },
        {
          "name": "",
          "type": "address"
        }
      ],
      "name": "isInCBT",
      "outputs": [
        {
          "name": "",
          "type": "bool"
        }
      ],
      "payable": false,
      "stateMutability": "view",
      "type": "function"
    },
    {
      "constant": true,
      "inputs": [
        {
          "name": "",
          "type": "uint256"
        }
      ],
      "name": "counterToPainter",
      "outputs": [
        {
          "name": "",
          "type": "address"
        }
      ],
      "payable": false,
      "stateMutability": "view",
      "type": "function"
    },
    {
      "constant": true,
      "inputs": [
        {
          "name": "",
          "type": "uint256"
        },
        {
          "name": "",
          "type": "address"
        }
      ],
      "name": "timeBankShare",
      "outputs": [
        {
          "name": "",
          "type": "uint256"
        }
      ],
      "payable": false,
      "stateMutability": "view",
      "type": "function"
    },
    {
      "constant": true,
      "inputs": [
        {
          "name": "",
          "type": "uint256"
        },
        {
          "name": "",
          "type": "uint256"
        },
        {
          "name": "",
          "type": "address"
        }
      ],
      "name": "colorBankShare",
      "outputs": [
        {
          "name": "",
          "type": "uint256"
        }
      ],
      "payable": false,
      "stateMutability": "view",
      "type": "function"
    },
    {
      "constant": true,
      "inputs": [
        {
          "name": "",
          "type": "uint256"
        },
        {
          "name": "",
          "type": "address"
        }
      ],
      "name": "lastPaintTimeOfUserForColor",
      "outputs": [
        {
          "name": "",
          "type": "uint256"
        }
      ],
      "payable": false,
      "stateMutability": "view",
      "type": "function"
    },
    {
      "constant": true,
      "inputs": [
        {
          "name": "",
          "type": "uint256"
        },
        {
          "name": "",
          "type": "uint256"
        }
      ],
      "name": "pixelToColorForRound",
      "outputs": [
        {
          "name": "",
          "type": "uint256"
        }
      ],
      "payable": false,
      "stateMutability": "view",
      "type": "function"
    },
    {
      "constant": true,
      "inputs": [
        {
          "name": "",
          "type": "uint256"
        }
      ],
      "name": "totalPaintsForRound",
      "outputs": [
        {
          "name": "",
          "type": "uint256"
        }
      ],
      "payable": false,
      "stateMutability": "view",
      "type": "function"
    },
    {
      "constant": true,
      "inputs": [
        {
          "name": "",
          "type": "uint256"
        }
      ],
      "name": "colorBankForRound",
      "outputs": [
        {
          "name": "",
          "type": "uint256"
        }
      ],
      "payable": false,
      "stateMutability": "view",
      "type": "function"
    },
    {
      "constant": true,
      "inputs": [
        {
          "name": "",
          "type": "uint256"
        },
        {
          "name": "",
          "type": "uint256"
        }
      ],
      "name": "paintGenToEndTimeForColor",
      "outputs": [
        {
          "name": "",
          "type": "uint256"
        }
      ],
      "payable": false,
      "stateMutability": "view",
      "type": "function"
    },
    {
      "constant": true,
      "inputs": [],
      "name": "refLinkPrice",
      "outputs": [
        {
          "name": "",
          "type": "uint256"
        }
      ],
      "payable": false,
      "stateMutability": "view",
      "type": "function"
    },
    {
      "constant": true,
      "inputs": [],
      "name": "uniqueUsersCount",
      "outputs": [
        {
          "name": "",
          "type": "uint256"
        }
      ],
      "payable": false,
      "stateMutability": "view",
      "type": "function"
    },
    {
      "constant": true,
      "inputs": [
        {
          "name": "",
          "type": "bytes32"
        }
      ],
      "name": "refLinkExists",
      "outputs": [
        {
          "name": "",
          "type": "bool"
        }
      ],
      "payable": false,
      "stateMutability": "view",
      "type": "function"
    },
    {
      "constant": true,
      "inputs": [
        {
          "name": "",
          "type": "uint256"
        },
        {
          "name": "",
          "type": "uint256"
        }
      ],
      "name": "paintGenToAmountForColor",
      "outputs": [
        {
          "name": "",
          "type": "uint256"
        }
      ],
      "payable": false,
      "stateMutability": "view",
      "type": "function"
    },
    {
      "constant": true,
      "inputs": [
        {
          "name": "",
          "type": "uint256"
        }
      ],
      "name": "isCBPTransfered",
      "outputs": [
        {
          "name": "",
          "type": "bool"
        }
      ],
      "payable": false,
      "stateMutability": "view",
      "type": "function"
    },
    {
      "constant": true,
      "inputs": [
        {
          "name": "",
          "type": "address"
        }
      ],
      "name": "referralToReferrer",
      "outputs": [
        {
          "name": "",
          "type": "address"
        }
      ],
      "payable": false,
      "stateMutability": "view",
      "type": "function"
    },
    {
      "constant": true,
      "inputs": [
        {
          "name": "",
          "type": "uint256"
        },
        {
          "name": "",
          "type": "address"
        }
      ],
      "name": "usersPaintDiscountForColor",
      "outputs": [
        {
          "name": "",
          "type": "uint256"
        }
      ],
      "payable": false,
      "stateMutability": "view",
      "type": "function"
    },
    {
      "constant": true,
      "inputs": [],
      "name": "maxPaintsInPool",
      "outputs": [
        {
          "name": "",
          "type": "uint256"
        }
      ],
      "payable": false,
      "stateMutability": "view",
      "type": "function"
    },
    {
      "constant": true,
      "inputs": [],
      "name": "totalPixelsNumber",
      "outputs": [
        {
          "name": "",
          "type": "uint256"
        }
      ],
      "payable": false,
      "stateMutability": "view",
      "type": "function"
    },
    {
      "constant": false,
      "inputs": [
        {
          "name": "newOwner",
          "type": "address"
        }
      ],
      "name": "transferOwnership",
      "outputs": [],
      "payable": false,
      "stateMutability": "nonpayable",
      "type": "function"
    },
    {
      "constant": true,
      "inputs": [
        {
          "name": "",
          "type": "address"
        }
      ],
      "name": "pendingWithdrawals",
      "outputs": [
        {
          "name": "",
          "type": "uint256"
        }
      ],
      "payable": false,
      "stateMutability": "view",
      "type": "function"
    },
    {
      "constant": true,
      "inputs": [
        {
          "name": "",
          "type": "uint256"
        }
      ],
      "name": "winnerColorForRound",
      "outputs": [
        {
          "name": "",
          "type": "uint256"
        }
      ],
      "payable": false,
      "stateMutability": "view",
      "type": "function"
    },
    {
      "constant": true,
      "inputs": [],
      "name": "dividendsBank",
      "outputs": [
        {
          "name": "",
          "type": "uint256"
        }
      ],
      "payable": false,
      "stateMutability": "view",
      "type": "function"
    },
    {
      "constant": true,
      "inputs": [],
      "name": "cbIteration",
      "outputs": [
        {
          "name": "",
          "type": "uint256"
        }
      ],
      "payable": false,
      "stateMutability": "view",
      "type": "function"
    },
    {
      "anonymous": false,
      "inputs": [
        {
          "indexed": true,
          "name": "round",
          "type": "uint256"
        },
        {
          "indexed": true,
          "name": "cbIteration",
          "type": "uint256"
        },
        {
          "indexed": true,
          "name": "winner",
          "type": "address"
        },
        {
          "indexed": false,
          "name": "prize",
          "type": "uint256"
        }
      ],
      "name": "CBPDistributed",
      "type": "event"
    },
    {
      "anonymous": false,
      "inputs": [
        {
          "indexed": true,
          "name": "withdrawer",
          "type": "address"
        },
        {
          "indexed": true,
          "name": "claimId",
          "type": "uint256"
        },
        {
          "indexed": true,
          "name": "amount",
          "type": "uint256"
        }
      ],
      "name": "DividendsWithdrawn",
      "type": "event"
    },
    {
      "anonymous": false,
      "inputs": [
        {
          "indexed": true,
          "name": "claimer",
          "type": "address"
        },
        {
          "indexed": true,
          "name": "claimId",
          "type": "uint256"
        },
        {
          "indexed": true,
          "name": "currentTime",
          "type": "uint256"
        }
      ],
      "name": "DividendsClaimed",
      "type": "event"
    },
    {
      "anonymous": false,
      "inputs": [
        {
          "indexed": true,
          "name": "pixelId",
          "type": "uint256"
        },
        {
          "indexed": false,
          "name": "colorId",
          "type": "uint256"
        },
        {
          "indexed": true,
          "name": "painter",
          "type": "address"
        },
        {
          "indexed": true,
          "name": "round",
          "type": "uint256"
        },
        {
          "indexed": false,
          "name": "timestamp",
          "type": "uint256"
        }
      ],
      "name": "Paint",
      "type": "event"
    },
    {
      "anonymous": false,
      "inputs": [
        {
          "indexed": false,
          "name": "winnerOfRound",
          "type": "address"
        },
        {
          "indexed": true,
          "name": "round",
          "type": "uint256"
        }
      ],
      "name": "ColorBankPlayed",
      "type": "event"
    },
    {
      "anonymous": false,
      "inputs": [
        {
          "indexed": false,
          "name": "winnerOfRound",
          "type": "address"
        },
        {
          "indexed": true,
          "name": "round",
          "type": "uint256"
        }
      ],
      "name": "TimeBankPlayed",
      "type": "event"
    },
    {
      "anonymous": false,
      "inputs": [
        {
          "indexed": true,
          "name": "newCallPrice",
          "type": "uint256"
        }
      ],
      "name": "CallPriceUpdated",
      "type": "event"
    },
    {
      "anonymous": false,
      "inputs": [
        {
          "indexed": true,
          "name": "round",
          "type": "uint256"
        },
        {
          "indexed": true,
          "name": "tbIteration",
          "type": "uint256"
        },
        {
          "indexed": true,
          "name": "winner",
          "type": "address"
        },
        {
          "indexed": false,
          "name": "prize",
          "type": "uint256"
        }
      ],
      "name": "TBPDistributed",
      "type": "event"
    },
    {
      "anonymous": false,
      "inputs": [
        {
          "indexed": false,
          "name": "balance",
          "type": "uint256"
        },
        {
          "indexed": false,
          "name": "colorBank",
          "type": "uint256"
        },
        {
          "indexed": false,
          "name": "timeBank",
          "type": "uint256"
        },
        {
          "indexed": false,
          "name": "timestamp",
          "type": "uint256"
        }
      ],
      "name": "EtherWithdrawn",
      "type": "event"
    },
    {
      "anonymous": false,
      "inputs": [
        {
          "indexed": true,
          "name": "previousOwner",
          "type": "address"
        },
        {
          "indexed": true,
          "name": "newOwner",
          "type": "address"
        }
      ],
      "name": "OwnershipTransferred",
      "type": "event"
    },
    {
      "constant": false,
      "inputs": [],
      "name": "pauseGame",
      "outputs": [],
      "payable": false,
      "stateMutability": "nonpayable",
      "type": "function"
    },
    {
      "constant": false,
      "inputs": [],
      "name": "resumeGame",
      "outputs": [],
      "payable": false,
      "stateMutability": "nonpayable",
      "type": "function"
    },
    {
      "constant": false,
      "inputs": [],
      "name": "withdrawEther",
      "outputs": [
        {
          "name": "",
          "type": "bool"
        }
      ],
      "payable": false,
      "stateMutability": "nonpayable",
      "type": "function"
    }
  ],
  "bytecode": "0x608060405273ca35b7d915458ef540ade6068dfe2f44e8fa733c604160006101000a81548173ffffffffffffffffffffffffffffffffffffffff021916908373ffffffffffffffffffffffffffffffffffffffff160217905550733e4d187df7d8a0820eaf4174d17b160157610912604260006101000a81548173ffffffffffffffffffffffffffffffffffffffff021916908373ffffffffffffffffffffffffffffffffffffffff160217905550336000806101000a81548173ffffffffffffffffffffffffffffffffffffffff021916908373ffffffffffffffffffffffffffffffffffffffff1602179055506000809054906101000a900473ffffffffffffffffffffffffffffffffffffffff1673ffffffffffffffffffffffffffffffffffffffff16600073ffffffffffffffffffffffffffffffffffffffff167f8be0079c531659141344cd1fd0a4f28419497f9722a3daafe3b4186f6b6457e060405160405180910390a3612e16806101796000396000f3006080604052600436106103b1576000357c0100000000000000000000000000000000000000000000000000000000900463ffffffff1680630422ddf3146103b657806305bdd0be146103e5578063099b81ce1461044a5780630baaea44146104bb5780630cf9603f146105285780630f6ed86e14610573578063102f97131461059e57806315682a661461060b57806318452cd81461065057806319ef6a06146106ab5780631d64873b146106f65780631f5bdf5d146107215780631f90c6ed1461077c57806321423af8146107e157806324d7806c1461081057806328361f571461086b57806328b290f9146108ac5780632c6c1c41146109035780632c7a3dae1461096457806333f9c388146109db5780633a17350514610a3c5780633c6dd01314610a875780633ca4c18314610ac85780633cc4c6ce14610b295780633d0d1a7914610b405780633dc3c37714610b81578063411b007e14610bac57806341c5464e14610c0357806342e453ec14610c5a578063499831f214610cd15780634a7f6f2f14610ce85780634b39173d14610d3f5780634c438ad714610d8a5780634c78e40114610dcf5780635bfcdb2714610e105780635c25fd1314610ecc5780635d63ebb214610ef75780635f5d554c14610f6e5780636256655614610fbd578063628a71a314610ffe5780636f17eb421461103f578063715018a6146110805780637362377b1461109757806373a9ee26146110c657806376f5d96a1461110757806379ecf376146111365780637e1e175c146111a3578063846c4c37146111fe5780638500b7b71461125557806387982ac3146112ac5780638a19c8bc146113395780638da5cb5b146113645780638e2df39c146113bb5780638f32d59b146113fc5780638f63b7e51461142b578063a312072414611476578063a888c2cd146114c1578063a977e16814611547578063ab24c7d21461159e578063ae55ce8214611603578063b0ff59d214611670578063b1a3883c146116d1578063b60cbeb61461173c578063b8232d5d1461179d578063be7d6226146117e8578063c64a2e5614611829578063c957387b1461186a578063c97d230f146118b5578063c9f8234f146118e0578063d4526e681461190b578063d5de47c714611954578063da68b1211461199f578063deaf0fa1146119e4578063eaf1c91014611a67578063eef565da14611ac8578063f120dba114611af3578063f2fde38b14611b1e578063f3f4370314611b61578063f49916f514611bb8578063f5f95b3b14611bf9578063fea11fe314611c24575b600080fd5b3480156103c257600080fd5b506103cb611c4f565b604051808215151515815260200191505060405180910390f35b3480156103f157600080fd5b5061043060048036038101908080359060200190929190803573ffffffffffffffffffffffffffffffffffffffff169060200190929190505050611c62565b604051808215151515815260200191505060405180910390f35b34801561045657600080fd5b506104796004803603810190808035600019169060200190929190505050611c91565b604051808273ffffffffffffffffffffffffffffffffffffffff1673ffffffffffffffffffffffffffffffffffffffff16815260200191505060405180910390f35b3480156104c757600080fd5b506104e660048036038101908080359060200190929190505050611cc4565b604051808273ffffffffffffffffffffffffffffffffffffffff1673ffffffffffffffffffffffffffffffffffffffff16815260200191505060405180910390f35b34801561053457600080fd5b5061055d6004803603810190808035906020019092919080359060200190929190505050611cf7565b6040518082815260200191505060405180910390f35b34801561057f57600080fd5b50610588611d1c565b6040518082815260200191505060405180910390f35b3480156105aa57600080fd5b506105c960048036038101908080359060200190929190505050611d22565b604051808273ffffffffffffffffffffffffffffffffffffffff1673ffffffffffffffffffffffffffffffffffffffff16815260200191505060405180910390f35b34801561061757600080fd5b5061063660048036038101908080359060200190929190505050611d55565b604051808215151515815260200191505060405180910390f35b34801561065c57600080fd5b50610691600480360381019080803573ffffffffffffffffffffffffffffffffffffffff169060200190929190505050611d75565b604051808215151515815260200191505060405180910390f35b3480156106b757600080fd5b506106e06004803603810190808035906020019092919080359060200190929190505050611d95565b6040518082815260200191505060405180910390f35b34801561070257600080fd5b5061070b611dba565b6040518082815260200191505060405180910390f35b34801561072d57600080fd5b50610762600480360381019080803573ffffffffffffffffffffffffffffffffffffffff169060200190929190505050611dc0565b604051808215151515815260200191505060405180910390f35b34801561078857600080fd5b506107c760048036038101908080359060200190929190803573ffffffffffffffffffffffffffffffffffffffff169060200190929190505050611de0565b604051808215151515815260200191505060405180910390f35b3480156107ed57600080fd5b506107f6611e0f565b604051808215151515815260200191505060405180910390f35b34801561081c57600080fd5b50610851600480360381019080803573ffffffffffffffffffffffffffffffffffffffff169060200190929190505050611e22565b604051808215151515815260200191505060405180910390f35b34801561087757600080fd5b5061089660048036038101908080359060200190929190505050611e42565b6040518082815260200191505060405180910390f35b3480156108b857600080fd5b506108ed600480360381019080803573ffffffffffffffffffffffffffffffffffffffff169060200190929190505050611e5a565b6040518082815260200191505060405180910390f35b34801561090f57600080fd5b5061094e60048036038101908080359060200190929190803573ffffffffffffffffffffffffffffffffffffffff169060200190929190505050611e72565b6040518082815260200191505060405180910390f35b34801561097057600080fd5b506109996004803603810190808035906020019092919080359060200190929190505050611e97565b604051808273ffffffffffffffffffffffffffffffffffffffff1673ffffffffffffffffffffffffffffffffffffffff16815260200191505060405180910390f35b3480156109e757600080fd5b50610a2660048036038101908080359060200190929190803573ffffffffffffffffffffffffffffffffffffffff169060200190929190505050611ee4565b6040518082815260200191505060405180910390f35b348015610a4857600080fd5b50610a716004803603810190808035906020019092919080359060200190929190505050611f09565b6040518082815260200191505060405180910390f35b348015610a9357600080fd5b50610ab260048036038101908080359060200190929190505050611f2e565b6040518082815260200191505060405180910390f35b348015610ad457600080fd5b50610b1360048036038101908080359060200190929190803573ffffffffffffffffffffffffffffffffffffffff169060200190929190505050611f46565b6040518082815260200191505060405180910390f35b348015610b3557600080fd5b50610b3e611f6b565b005b348015610b4c57600080fd5b50610b6b600480360381019080803590602001909291905050506120db565b6040518082815260200191505060405180910390f35b348015610b8d57600080fd5b50610b966120f3565b6040518082815260200191505060405180910390f35b348015610bb857600080fd5b50610bc16120f9565b604051808273ffffffffffffffffffffffffffffffffffffffff1673ffffffffffffffffffffffffffffffffffffffff16815260200191505060405180910390f35b348015610c0f57600080fd5b50610c44600480360381019080803573ffffffffffffffffffffffffffffffffffffffff16906020019092919050505061211f565b6040518082815260200191505060405180910390f35b348015610c6657600080fd5b50610c8f6004803603810190808035906020019092919080359060200190929190505050612137565b604051808273ffffffffffffffffffffffffffffffffffffffff1673ffffffffffffffffffffffffffffffffffffffff16815260200191505060405180910390f35b348015610cdd57600080fd5b50610ce6612179565b005b348015610cf457600080fd5b50610d29600480360381019080803573ffffffffffffffffffffffffffffffffffffffff1690602001909291905050506122e9565b6040518082815260200191505060405180910390f35b348015610d4b57600080fd5b50610d746004803603810190808035906020019092919080359060200190929190505050612301565b6040518082815260200191505060405180910390f35b348015610d9657600080fd5b50610db560048036038101908080359060200190929190505050612326565b604051808215151515815260200191505060405180910390f35b348015610ddb57600080fd5b50610dfa60048036038101908080359060200190929190505050612346565b6040518082815260200191505060405180910390f35b348015610e1c57600080fd5b50610e51600480360381019080803573ffffffffffffffffffffffffffffffffffffffff16906020019092919050505061235e565b6040518080602001828103825283818151815260200191508051906020019080838360005b83811015610e91578082015181840152602081019050610e76565b50505050905090810190601f168015610ebe5780820380516001836020036101000a031916815260200191505b509250505060405180910390f35b348015610ed857600080fd5b50610ee161240e565b6040518082815260200191505060405180910390f35b348015610f0357600080fd5b50610f2c6004803603810190808035906020019092919080359060200190929190505050612414565b604051808273ffffffffffffffffffffffffffffffffffffffff1673ffffffffffffffffffffffffffffffffffffffff16815260200191505060405180910390f35b348015610f7a57600080fd5b50610fa36004803603810190808035906020019092919080359060200190929190505050612461565b604051808215151515815260200191505060405180910390f35b348015610fc957600080fd5b50610fe860048036038101908080359060200190929190505050612490565b6040518082815260200191505060405180910390f35b34801561100a57600080fd5b50611029600480360381019080803590602001909291905050506124a8565b6040518082815260200191505060405180910390f35b34801561104b57600080fd5b5061106a600480360381019080803590602001909291905050506124c0565b6040518082815260200191505060405180910390f35b34801561108c57600080fd5b506110956124d8565b005b3480156110a357600080fd5b506110ac6125aa565b604051808215151515815260200191505060405180910390f35b3480156110d257600080fd5b506110f1600480360381019080803590602001909291905050506127f4565b6040518082815260200191505060405180910390f35b34801561111357600080fd5b5061111c61280c565b604051808215151515815260200191505060405180910390f35b34801561114257600080fd5b506111616004803603810190808035906020019092919050505061281f565b604051808273ffffffffffffffffffffffffffffffffffffffff1673ffffffffffffffffffffffffffffffffffffffff16815260200191505060405180910390f35b3480156111af57600080fd5b506111e4600480360381019080803573ffffffffffffffffffffffffffffffffffffffff169060200190929190505050612852565b604051808215151515815260200191505060405180910390f35b34801561120a57600080fd5b5061123f600480360381019080803573ffffffffffffffffffffffffffffffffffffffff169060200190929190505050612872565b6040518082815260200191505060405180910390f35b34801561126157600080fd5b50611296600480360381019080803573ffffffffffffffffffffffffffffffffffffffff16906020019092919050505061288a565b6040518082815260200191505060405180910390f35b3480156112b857600080fd5b506112f7600480360381019080803573ffffffffffffffffffffffffffffffffffffffff169060200190929190803590602001909291905050506128a2565b604051808273ffffffffffffffffffffffffffffffffffffffff1673ffffffffffffffffffffffffffffffffffffffff16815260200191505060405180910390f35b34801561134557600080fd5b5061134e6128ef565b6040518082815260200191505060405180910390f35b34801561137057600080fd5b506113796128f5565b604051808273ffffffffffffffffffffffffffffffffffffffff1673ffffffffffffffffffffffffffffffffffffffff16815260200191505060405180910390f35b3480156113c757600080fd5b506113e66004803603810190808035906020019092919050505061291e565b6040518082815260200191505060405180910390f35b34801561140857600080fd5b50611411612936565b604051808215151515815260200191505060405180910390f35b34801561143757600080fd5b50611460600480360381019080803590602001909291908035906020019092919050505061298d565b6040518082815260200191505060405180910390f35b34801561148257600080fd5b506114ab60048036038101908080359060200190929190803590602001909291905050506129b2565b6040518082815260200191505060405180910390f35b3480156114cd57600080fd5b506114ec600480360381019080803590602001909291905050506129d7565b604051808581526020018473ffffffffffffffffffffffffffffffffffffffff1673ffffffffffffffffffffffffffffffffffffffff1681526020018315151515815260200182815260200194505050505060405180910390f35b34801561155357600080fd5b5061155c612a43565b604051808273ffffffffffffffffffffffffffffffffffffffff1673ffffffffffffffffffffffffffffffffffffffff16815260200191505060405180910390f35b3480156115aa57600080fd5b506115e960048036038101908080359060200190929190803573ffffffffffffffffffffffffffffffffffffffff169060200190929190505050612a69565b604051808215151515815260200191505060405180910390f35b34801561160f57600080fd5b5061162e60048036038101908080359060200190929190505050612a98565b604051808273ffffffffffffffffffffffffffffffffffffffff1673ffffffffffffffffffffffffffffffffffffffff16815260200191505060405180910390f35b34801561167c57600080fd5b506116bb60048036038101908080359060200190929190803573ffffffffffffffffffffffffffffffffffffffff169060200190929190505050612acb565b6040518082815260200191505060405180910390f35b3480156116dd57600080fd5b506117266004803603810190808035906020019092919080359060200190929190803573ffffffffffffffffffffffffffffffffffffffff169060200190929190505050612af0565b6040518082815260200191505060405180910390f35b34801561174857600080fd5b5061178760048036038101908080359060200190929190803573ffffffffffffffffffffffffffffffffffffffff169060200190929190505050612b22565b6040518082815260200191505060405180910390f35b3480156117a957600080fd5b506117d26004803603810190808035906020019092919080359060200190929190505050612b47565b6040518082815260200191505060405180910390f35b3480156117f457600080fd5b5061181360048036038101908080359060200190929190505050612b6c565b6040518082815260200191505060405180910390f35b34801561183557600080fd5b5061185460048036038101908080359060200190929190505050612b84565b6040518082815260200191505060405180910390f35b34801561187657600080fd5b5061189f6004803603810190808035906020019092919080359060200190929190505050612b9c565b6040518082815260200191505060405180910390f35b3480156118c157600080fd5b506118ca612bc1565b6040518082815260200191505060405180910390f35b3480156118ec57600080fd5b506118f5612bc7565b6040518082815260200191505060405180910390f35b34801561191757600080fd5b5061193a6004803603810190808035600019169060200190929190505050612bcd565b604051808215151515815260200191505060405180910390f35b34801561196057600080fd5b506119896004803603810190808035906020019092919080359060200190929190505050612bed565b6040518082815260200191505060405180910390f35b3480156119ab57600080fd5b506119ca60048036038101908080359060200190929190505050612c12565b604051808215151515815260200191505060405180910390f35b3480156119f057600080fd5b50611a25600480360381019080803573ffffffffffffffffffffffffffffffffffffffff169060200190929190505050612c32565b604051808273ffffffffffffffffffffffffffffffffffffffff1673ffffffffffffffffffffffffffffffffffffffff16815260200191505060405180910390f35b348015611a7357600080fd5b50611ab260048036038101908080359060200190929190803573ffffffffffffffffffffffffffffffffffffffff169060200190929190505050612c64565b6040518082815260200191505060405180910390f35b348015611ad457600080fd5b50611add612c89565b6040518082815260200191505060405180910390f35b348015611aff57600080fd5b50611b08612c8f565b6040518082815260200191505060405180910390f35b348015611b2a57600080fd5b50611b5f600480360381019080803573ffffffffffffffffffffffffffffffffffffffff169060200190929190505050612c95565b005b348015611b6d57600080fd5b50611ba2600480360381019080803573ffffffffffffffffffffffffffffffffffffffff169060200190929190505050612cb4565b6040518082815260200191505060405180910390f35b348015611bc457600080fd5b50611be360048036038101908080359060200190929190505050612ccc565b6040518082815260200191505060405180910390f35b348015611c0557600080fd5b50611c0e612ce4565b6040518082815260200191505060405180910390f35b348015611c3057600080fd5b50611c39612cea565b6040518082815260200191505060405180910390f35b604260149054906101000a900460ff1681565b60356020528160005260406000206020528060005260406000206000915091509054906101000a900460ff1681565b60246020528060005260406000206000915054906101000a900473ffffffffffffffffffffffffffffffffffffffff1681565b603b6020528060005260406000206000915054906101000a900473ffffffffffffffffffffffffffffffffffffffff1681565b6006602052816000526040600020602052806000526040600020600091509150505481565b602a5481565b600f6020528060005260406000206000915054906101000a900473ffffffffffffffffffffffffffffffffffffffff1681565b604c6020528060005260406000206000915054906101000a900460ff1681565b60226020528060005260406000206000915054906101000a900460ff1681565b600e602052816000526040600020602052806000526040600020600091509150505481565b60465481565b601e6020528060005260406000206000915054906101000a900460ff1681565b601c6020528160005260406000206020528060005260406000206000915091509054906101000a900460ff1681565b604260169054906101000a900460ff1681565b60436020528060005260406000206000915054906101000a900460ff1681565b60176020528060005260406000206000915090505481565b603a6020528060005260406000206000915090505481565b601a602052816000526040600020602052806000526040600020600091509150505481565b603160205281600052604060002081815481101515611eb257fe5b906000526020600020016000915091509054906101000a900473ffffffffffffffffffffffffffffffffffffffff1681565b6037602052816000526040600020602052806000526040600020600091509150505481565b6014602052816000526040600020602052806000526040600020600091509150505481565b60186020528060005260406000206000915090505481565b6036602052816000526040600020602052806000526040600020600091509150505481565b60011515604360003373ffffffffffffffffffffffffffffffffffffffff1673ffffffffffffffffffffffffffffffffffffffff16815260200190815260200160002060009054906101000a900460ff161515141515612033576040517f08c379a000000000000000000000000000000000000000000000000000000000815260040180806020018281038252601c8152602001807f596f7520646f6e277420686176652061646d696e207269676874732e0000000081525060200191505060405180910390fd5b60011515604260149054906101000a900460ff1615151415156120be576040517f08c379a00000000000000000000000000000000000000000000000000000000081526004018080602001828103825260148152602001807f47616d6520697320616c7265616479206c69766500000000000000000000000081525060200191505060405180910390fd5b6000604260146101000a81548160ff021916908315150217905550565b60106020528060005260406000206000915090505481565b602c5481565b604260009054906101000a900473ffffffffffffffffffffffffffffffffffffffff1681565b60266020528060005260406000206000915090505481565b60336020528160005260406000206020528060005260406000206000915091509054906101000a900473ffffffffffffffffffffffffffffffffffffffff1681565b60011515604360003373ffffffffffffffffffffffffffffffffffffffff1673ffffffffffffffffffffffffffffffffffffffff16815260200190815260200160002060009054906101000a900460ff161515141515612241576040517f08c379a000000000000000000000000000000000000000000000000000000000815260040180806020018281038252601c8152602001807f596f7520646f6e277420686176652061646d696e207269676874732e0000000081525060200191505060405180910390fd5b60001515604260149054906101000a900460ff1615151415156122cc576040517f08c379a00000000000000000000000000000000000000000000000000000000081526004018080602001828103825260168152602001807f47616d6520697320616c7265616479207061757365640000000000000000000081525060200191505060405180910390fd5b6001604260146101000a81548160ff021916908315150217905550565b601b6020528060005260406000206000915090505481565b6005602052816000526040600020602052806000526040600020600091509150505481565b60396020528060005260406000206000915054906101000a900460ff1681565b60096020528060005260406000206000915090505481565b60236020528060005260406000206000915090508054600181600116156101000203166002900480601f0160208091040260200160405190810160405280929190818152602001828054600181600116156101000203166002900480156124065780601f106123db57610100808354040283529160200191612406565b820191906000526020600020905b8154815290600101906020018083116123e957829003601f168201915b505050505081565b603f5481565b60306020528160005260406000208181548110151561242f57fe5b906000526020600020016000915091509054906101000a900473ffffffffffffffffffffffffffffffffffffffff1681565b60166020528160005260406000206020528060005260406000206000915091509054906101000a900460ff1681565b604d6020528060005260406000206000915090505481565b600c6020528060005260406000206000915090505481565b60196020528060005260406000206000915090505481565b6124e0612936565b15156124eb57600080fd5b600073ffffffffffffffffffffffffffffffffffffffff166000809054906101000a900473ffffffffffffffffffffffffffffffffffffffff1673ffffffffffffffffffffffffffffffffffffffff167f8be0079c531659141344cd1fd0a4f28419497f9722a3daafe3b4186f6b6457e060405160405180910390a360008060006101000a81548173ffffffffffffffffffffffffffffffffffffffff021916908373ffffffffffffffffffffffffffffffffffffffff160217905550565b60008060008060011515604360003373ffffffffffffffffffffffffffffffffffffffff1673ffffffffffffffffffffffffffffffffffffffff16815260200190815260200160002060009054906101000a900460ff161515141515612678576040517f08c379a000000000000000000000000000000000000000000000000000000000815260040180806020018281038252601c8152602001807f596f7520646f6e277420686176652061646d696e207269676874732e0000000081525060200191505060405180910390fd5b60011515604260149054906101000a900460ff161515141515612703576040517f08c379a000000000000000000000000000000000000000000000000000000000815260040180806020018281038252601e8152602001807f43616e207769746864726177207768656e2067616d65206973206c697665000081525060200191505060405180910390fd5b3073ffffffffffffffffffffffffffffffffffffffff163192506007600060295481526020019081526020016000205491506009600060295481526020019081526020016000205490506127556128f5565b73ffffffffffffffffffffffffffffffffffffffff166108fc849081150290604051600060405180830381858888f1935050505015801561279a573d6000803e3d6000fd5b507f34a1d9ed610828888f8a9da024889ae7060bf3e314a5ec1ebe6ebe19947d88cb838383426040518085815260200184815260200183815260200182815260200194505050505060405180910390a16001935050505090565b600a6020528060005260406000206000915090505481565b604260159054906101000a900460ff1681565b600b6020528060005260406000206000915054906101000a900473ffffffffffffffffffffffffffffffffffffffff1681565b601f6020528060005260406000206000915054906101000a900460ff1681565b60496020528060005260406000206000915090505481565b604a6020528060005260406000206000915090505481565b6021602052816000526040600020818154811015156128bd57fe5b906000526020600020016000915091509054906101000a900473ffffffffffffffffffffffffffffffffffffffff1681565b60295481565b60008060009054906101000a900473ffffffffffffffffffffffffffffffffffffffff16905090565b602f6020528060005260406000206000915090505481565b60008060009054906101000a900473ffffffffffffffffffffffffffffffffffffffff1673ffffffffffffffffffffffffffffffffffffffff163373ffffffffffffffffffffffffffffffffffffffff1614905090565b6011602052816000526040600020602052806000526040600020600091509150505481565b6008602052816000526040600020602052806000526040600020600091509150505481565b6040818154811015156129e657fe5b90600052602060002090600302016000915090508060000154908060010160009054906101000a900473ffffffffffffffffffffffffffffffffffffffff16908060010160149054906101000a900460ff16908060020154905084565b604160009054906101000a900473ffffffffffffffffffffffffffffffffffffffff1681565b60346020528160005260406000206020528060005260406000206000915091509054906101000a900460ff1681565b60326020528060005260406000206000915054906101000a900473ffffffffffffffffffffffffffffffffffffffff1681565b602d602052816000526040600020602052806000526040600020600091509150505481565b602e60205282600052604060002060205281600052604060002060205280600052604060002060009250925050505481565b604b602052816000526040600020602052806000526040600020600091509150505481565b6004602052816000526040600020602052806000526040600020600091509150505481565b60126020528060005260406000206000915090505481565b60076020528060005260406000206000915090505481565b6015602052816000526040600020602052806000526040600020600091509150505481565b60485481565b60275481565b60256020528060005260406000206000915054906101000a900460ff1681565b6013602052816000526040600020602052806000526040600020600091509150505481565b60386020528060005260406000206000915054906101000a900460ff1681565b602080528060005260406000206000915054906101000a900473ffffffffffffffffffffffffffffffffffffffff1681565b601d602052816000526040600020602052806000526040600020600091509150505481565b60285481565b60475481565b612c9d612936565b1515612ca857600080fd5b612cb181612cf0565b50565b603c6020528060005260406000206000915090505481565b600d6020528060005260406000206000915090505481565b603e5481565b602b5481565b600073ffffffffffffffffffffffffffffffffffffffff168173ffffffffffffffffffffffffffffffffffffffff1614151515612d2c57600080fd5b8073ffffffffffffffffffffffffffffffffffffffff166000809054906101000a900473ffffffffffffffffffffffffffffffffffffffff1673ffffffffffffffffffffffffffffffffffffffff167f8be0079c531659141344cd1fd0a4f28419497f9722a3daafe3b4186f6b6457e060405160405180910390a3806000806101000a81548173ffffffffffffffffffffffffffffffffffffffff021916908373ffffffffffffffffffffffffffffffffffffffff160217905550505600a165627a7a723058200808e808bbb5a669929764e7bc104d1ce4541d58bb8ecfc2528088400f30ddf00029",
  "source": "pragma solidity ^0.4.24;\nimport \"./Roles.sol\";\nimport \"./Modifiers.sol\";\n\ncontract GameStateController is Modifiers {\n\n    function pauseGame() external onlyAdmin() {\n        require (isGamePaused == false, \"Game is already paused\");\n        isGamePaused = true;\n    }\n\n    function resumeGame() external onlyAdmin() {\n        require (isGamePaused == true, \"Game is already live\");\n        isGamePaused = false;\n    }\n\n    function withdrawEther() external onlyAdmin() returns (bool) {\n        require (isGamePaused == true, \"Can withdraw when game is live\");\n        uint balance = address(this).balance;\n        uint colorBank = colorBankForRound[currentRound];\n        uint timeBank = timeBankForRound[currentRound];\n        owner().transfer(balance);\n        emit EtherWithdrawn(balance, colorBank, timeBank, now);\n        return true;\n    }\n    \n}\n",
  "sourcePath": "/Users/Amir/last-pixel/last-pixel-contracts/contracts/GameStateController.sol",
  "compiler": {
    "name": "solc",
    "version": "0.4.25+commit.59dbf8f1.Emscripten.clang"
  },
  "schemaVersion": "2.0.2",
  "updatedAt": "2019-03-28T03:00:17.404Z"
}