{
  "contractName": "Game",
  "abi": [
    {
      "constant": true,
      "inputs": [],
      "name": "isGamePaused",
      "outputs": [
        {
          "name": "",
          "type": "bool"
        }
      ],
      "payable": false,
      "stateMutability": "view",
      "type": "function"
    },
    {
      "constant": true,
      "inputs": [
        {
          "name": "",
          "type": "uint256"
        },
        {
          "name": "",
          "type": "address"
        }
      ],
      "name": "isInTBT",
      "outputs": [
        {
          "name": "",
          "type": "bool"
        }
      ],
      "payable": false,
      "stateMutability": "view",
      "type": "function"
    },
    {
      "constant": true,
      "inputs": [
        {
          "name": "",
          "type": "bytes32"
        }
      ],
      "name": "refLinkToUser",
      "outputs": [
        {
          "name": "",
          "type": "address"
        }
      ],
      "payable": false,
      "stateMutability": "view",
      "type": "function"
    },
    {
      "constant": true,
      "inputs": [
        {
          "name": "",
          "type": "uint256"
        }
      ],
      "name": "ownerOfColor",
      "outputs": [
        {
          "name": "",
          "type": "address"
        }
      ],
      "payable": false,
      "stateMutability": "view",
      "type": "function"
    },
    {
      "constant": true,
      "inputs": [
        {
          "name": "",
          "type": "uint256"
        },
        {
          "name": "",
          "type": "uint256"
        }
      ],
      "name": "colorToPaintedPixelsAmountForRound",
      "outputs": [
        {
          "name": "",
          "type": "uint256"
        }
      ],
      "payable": false,
      "stateMutability": "view",
      "type": "function"
    },
    {
      "constant": true,
      "inputs": [],
      "name": "tbIteration",
      "outputs": [
        {
          "name": "",
          "type": "uint256"
        }
      ],
      "payable": false,
      "stateMutability": "view",
      "type": "function"
    },
    {
      "constant": true,
      "inputs": [
        {
          "name": "",
          "type": "uint256"
        }
      ],
      "name": "winnerOfRound",
      "outputs": [
        {
          "name": "",
          "type": "address"
        }
      ],
      "payable": false,
      "stateMutability": "view",
      "type": "function"
    },
    {
      "constant": true,
      "inputs": [
        {
          "name": "",
          "type": "address"
        }
      ],
      "name": "hasReferrer",
      "outputs": [
        {
          "name": "",
          "type": "bool"
        }
      ],
      "payable": false,
      "stateMutability": "view",
      "type": "function"
    },
    {
      "constant": true,
      "inputs": [
        {
          "name": "",
          "type": "uint256"
        },
        {
          "name": "",
          "type": "uint256"
        }
      ],
      "name": "colorToTotalPaintsForCBIteration",
      "outputs": [
        {
          "name": "",
          "type": "uint256"
        }
      ],
      "payable": false,
      "stateMutability": "view",
      "type": "function"
    },
    {
      "constant": true,
      "inputs": [
        {
          "name": "",
          "type": "address"
        }
      ],
      "name": "isRegisteredUser",
      "outputs": [
        {
          "name": "",
          "type": "bool"
        }
      ],
      "payable": false,
      "stateMutability": "view",
      "type": "function"
    },
    {
      "constant": true,
      "inputs": [
        {
          "name": "",
          "type": "uint256"
        },
        {
          "name": "",
          "type": "address"
        }
      ],
      "name": "hasPaintDiscountForColor",
      "outputs": [
        {
          "name": "",
          "type": "bool"
        }
      ],
      "payable": false,
      "stateMutability": "view",
      "type": "function"
    },
    {
      "constant": true,
      "inputs": [],
      "name": "isTBPDistributable",
      "outputs": [
        {
          "name": "",
          "type": "bool"
        }
      ],
      "payable": false,
      "stateMutability": "view",
      "type": "function"
    },
    {
      "constant": true,
      "inputs": [
        {
          "name": "",
          "type": "address"
        }
      ],
      "name": "isAdmin",
      "outputs": [
        {
          "name": "",
          "type": "bool"
        }
      ],
      "payable": false,
      "stateMutability": "view",
      "type": "function"
    },
    {
      "constant": true,
      "inputs": [
        {
          "name": "",
          "type": "uint256"
        }
      ],
      "name": "currentPaintGenForColor",
      "outputs": [
        {
          "name": "",
          "type": "uint256"
        }
      ],
      "payable": false,
      "stateMutability": "view",
      "type": "function"
    },
    {
      "constant": true,
      "inputs": [
        {
          "name": "",
          "type": "address"
        }
      ],
      "name": "lastPlayedRound",
      "outputs": [
        {
          "name": "",
          "type": "uint256"
        }
      ],
      "payable": false,
      "stateMutability": "view",
      "type": "function"
    },
    {
      "constant": true,
      "inputs": [
        {
          "name": "",
          "type": "uint256"
        },
        {
          "name": "",
          "type": "address"
        }
      ],
      "name": "moneySpentByUserForColor",
      "outputs": [
        {
          "name": "",
          "type": "uint256"
        }
      ],
      "payable": false,
      "stateMutability": "view",
      "type": "function"
    },
    {
      "constant": true,
      "inputs": [
        {
          "name": "",
          "type": "uint256"
        },
        {
          "name": "",
          "type": "uint256"
        }
      ],
      "name": "tbTeam",
      "outputs": [
        {
          "name": "",
          "type": "address"
        }
      ],
      "payable": false,
      "stateMutability": "view",
      "type": "function"
    },
    {
      "constant": true,
      "inputs": [
        {
          "name": "",
          "type": "uint256"
        },
        {
          "name": "",
          "type": "address"
        }
      ],
      "name": "painterToTBP",
      "outputs": [
        {
          "name": "",
          "type": "uint256"
        }
      ],
      "payable": false,
      "stateMutability": "view",
      "type": "function"
    },
    {
      "constant": true,
      "inputs": [
        {
          "name": "",
          "type": "uint256"
        },
        {
          "name": "",
          "type": "uint256"
        }
      ],
      "name": "paintGenToStartTimeForColor",
      "outputs": [
        {
          "name": "",
          "type": "uint256"
        }
      ],
      "payable": false,
      "stateMutability": "view",
      "type": "function"
    },
    {
      "constant": true,
      "inputs": [
        {
          "name": "",
          "type": "uint256"
        }
      ],
      "name": "callPriceForColor",
      "outputs": [
        {
          "name": "",
          "type": "uint256"
        }
      ],
      "payable": false,
      "stateMutability": "view",
      "type": "function"
    },
    {
      "constant": true,
      "inputs": [
        {
          "name": "",
          "type": "uint256"
        },
        {
          "name": "",
          "type": "address"
        }
      ],
      "name": "painterToCBP",
      "outputs": [
        {
          "name": "",
          "type": "uint256"
        }
      ],
      "payable": false,
      "stateMutability": "view",
      "type": "function"
    },
    {
      "constant": true,
      "inputs": [
        {
          "name": "",
          "type": "uint256"
        }
      ],
      "name": "winnerBankForRound",
      "outputs": [
        {
          "name": "",
          "type": "uint256"
        }
      ],
      "payable": false,
      "stateMutability": "view",
      "type": "function"
    },
    {
      "constant": true,
      "inputs": [],
      "name": "paintsCounter",
      "outputs": [
        {
          "name": "",
          "type": "uint256"
        }
      ],
      "payable": false,
      "stateMutability": "view",
      "type": "function"
    },
    {
      "constant": true,
      "inputs": [],
      "name": "founders",
      "outputs": [
        {
          "name": "",
          "type": "address"
        }
      ],
      "payable": false,
      "stateMutability": "view",
      "type": "function"
    },
    {
      "constant": true,
      "inputs": [
        {
          "name": "",
          "type": "address"
        }
      ],
      "name": "newUserToCounter",
      "outputs": [
        {
          "name": "",
          "type": "uint256"
        }
      ],
      "payable": false,
      "stateMutability": "view",
      "type": "function"
    },
    {
      "constant": true,
      "inputs": [
        {
          "name": "",
          "type": "uint256"
        },
        {
          "name": "",
          "type": "uint256"
        }
      ],
      "name": "counterToPainterForColor",
      "outputs": [
        {
          "name": "",
          "type": "address"
        }
      ],
      "payable": false,
      "stateMutability": "view",
      "type": "function"
    },
    {
      "constant": true,
      "inputs": [
        {
          "name": "",
          "type": "uint256"
        },
        {
          "name": "",
          "type": "uint256"
        }
      ],
      "name": "pixelToOldColorForRound",
      "outputs": [
        {
          "name": "",
          "type": "uint256"
        }
      ],
      "payable": false,
      "stateMutability": "view",
      "type": "function"
    },
    {
      "constant": true,
      "inputs": [
        {
          "name": "",
          "type": "uint256"
        }
      ],
      "name": "isTBPTransfered",
      "outputs": [
        {
          "name": "",
          "type": "bool"
        }
      ],
      "payable": false,
      "stateMutability": "view",
      "type": "function"
    },
    {
      "constant": true,
      "inputs": [
        {
          "name": "",
          "type": "uint256"
        }
      ],
      "name": "timeBankForRound",
      "outputs": [
        {
          "name": "",
          "type": "uint256"
        }
      ],
      "payable": false,
      "stateMutability": "view",
      "type": "function"
    },
    {
      "constant": true,
      "inputs": [
        {
          "name": "",
          "type": "address"
        }
      ],
      "name": "userToRefLink",
      "outputs": [
        {
          "name": "",
          "type": "string"
        }
      ],
      "payable": false,
      "stateMutability": "view",
      "type": "function"
    },
    {
      "constant": true,
      "inputs": [],
      "name": "claimId",
      "outputs": [
        {
          "name": "",
          "type": "uint256"
        }
      ],
      "payable": false,
      "stateMutability": "view",
      "type": "function"
    },
    {
      "constant": true,
      "inputs": [
        {
          "name": "",
          "type": "uint256"
        },
        {
          "name": "",
          "type": "uint256"
        }
      ],
      "name": "cbTeam",
      "outputs": [
        {
          "name": "",
          "type": "address"
        }
      ],
      "payable": false,
      "stateMutability": "view",
      "type": "function"
    },
    {
      "constant": true,
      "inputs": [
        {
          "name": "",
          "type": "uint256"
        },
        {
          "name": "",
          "type": "uint256"
        }
      ],
      "name": "paintGenStartedForColor",
      "outputs": [
        {
          "name": "",
          "type": "bool"
        }
      ],
      "payable": false,
      "stateMutability": "view",
      "type": "function"
    },
    {
      "constant": true,
      "inputs": [
        {
          "name": "",
          "type": "uint256"
        }
      ],
      "name": "lastPaintedPixelForRound",
      "outputs": [
        {
          "name": "",
          "type": "uint256"
        }
      ],
      "payable": false,
      "stateMutability": "view",
      "type": "function"
    },
    {
      "constant": true,
      "inputs": [
        {
          "name": "",
          "type": "uint256"
        }
      ],
      "name": "nextCallPriceForColor",
      "outputs": [
        {
          "name": "",
          "type": "uint256"
        }
      ],
      "payable": false,
      "stateMutability": "view",
      "type": "function"
    },
    {
      "constant": false,
      "inputs": [],
      "name": "renounceOwnership",
      "outputs": [],
      "payable": false,
      "stateMutability": "nonpayable",
      "type": "function"
    },
    {
      "constant": true,
      "inputs": [
        {
          "name": "",
          "type": "uint256"
        }
      ],
      "name": "lastPaintTimeForRound",
      "outputs": [
        {
          "name": "",
          "type": "uint256"
        }
      ],
      "payable": false,
      "stateMutability": "view",
      "type": "function"
    },
    {
      "constant": true,
      "inputs": [],
      "name": "isCBPDistributable",
      "outputs": [
        {
          "name": "",
          "type": "bool"
        }
      ],
      "payable": false,
      "stateMutability": "view",
      "type": "function"
    },
    {
      "constant": true,
      "inputs": [
        {
          "name": "",
          "type": "uint256"
        }
      ],
      "name": "lastPainterForRound",
      "outputs": [
        {
          "name": "",
          "type": "address"
        }
      ],
      "payable": false,
      "stateMutability": "view",
      "type": "function"
    },
    {
      "constant": true,
      "inputs": [
        {
          "name": "",
          "type": "address"
        }
      ],
      "name": "hasRefLink",
      "outputs": [
        {
          "name": "",
          "type": "bool"
        }
      ],
      "payable": false,
      "stateMutability": "view",
      "type": "function"
    },
    {
      "constant": true,
      "inputs": [
        {
          "name": "",
          "type": "address"
        },
        {
          "name": "",
          "type": "uint256"
        }
      ],
      "name": "referrerToReferrals",
      "outputs": [
        {
          "name": "",
          "type": "address"
        }
      ],
      "payable": false,
      "stateMutability": "view",
      "type": "function"
    },
    {
      "constant": true,
      "inputs": [],
      "name": "currentRound",
      "outputs": [
        {
          "name": "",
          "type": "uint256"
        }
      ],
      "payable": false,
      "stateMutability": "view",
      "type": "function"
    },
    {
      "constant": true,
      "inputs": [],
      "name": "owner",
      "outputs": [
        {
          "name": "",
          "type": "address"
        }
      ],
      "payable": false,
      "stateMutability": "view",
      "type": "function"
    },
    {
      "constant": true,
      "inputs": [
        {
          "name": "",
          "type": "uint256"
        }
      ],
      "name": "paintsCounterForColor",
      "outputs": [
        {
          "name": "",
          "type": "uint256"
        }
      ],
      "payable": false,
      "stateMutability": "view",
      "type": "function"
    },
    {
      "constant": true,
      "inputs": [],
      "name": "isOwner",
      "outputs": [
        {
          "name": "",
          "type": "bool"
        }
      ],
      "payable": false,
      "stateMutability": "view",
      "type": "function"
    },
    {
      "constant": true,
      "inputs": [
        {
          "name": "",
          "type": "uint256"
        },
        {
          "name": "",
          "type": "uint256"
        }
      ],
      "name": "pixelToPaintTimeForRound",
      "outputs": [
        {
          "name": "",
          "type": "uint256"
        }
      ],
      "payable": false,
      "stateMutability": "view",
      "type": "function"
    },
    {
      "constant": true,
      "inputs": [
        {
          "name": "",
          "type": "uint256"
        },
        {
          "name": "",
          "type": "uint256"
        }
      ],
      "name": "colorBankToColorForRound",
      "outputs": [
        {
          "name": "",
          "type": "uint256"
        }
      ],
      "payable": false,
      "stateMutability": "view",
      "type": "function"
    },
    {
      "constant": true,
      "inputs": [
        {
          "name": "",
          "type": "uint256"
        }
      ],
      "name": "claims",
      "outputs": [
        {
          "name": "id",
          "type": "uint256"
        },
        {
          "name": "claimer",
          "type": "address"
        },
        {
          "name": "isResolved",
          "type": "bool"
        },
        {
          "name": "timestamp",
          "type": "uint256"
        }
      ],
      "payable": false,
      "stateMutability": "view",
      "type": "function"
    },
    {
      "constant": true,
      "inputs": [],
      "name": "ownerOfPixel",
      "outputs": [
        {
          "name": "",
          "type": "address"
        }
      ],
      "payable": false,
      "stateMutability": "view",
      "type": "function"
    },
    {
      "constant": true,
      "inputs": [
        {
          "name": "",
          "type": "uint256"
        },
        {
          "name": "",
          "type": "address"
        }
      ],
      "name": "isInCBT",
      "outputs": [
        {
          "name": "",
          "type": "bool"
        }
      ],
      "payable": false,
      "stateMutability": "view",
      "type": "function"
    },
    {
      "constant": true,
      "inputs": [
        {
          "name": "",
          "type": "uint256"
        }
      ],
      "name": "counterToPainter",
      "outputs": [
        {
          "name": "",
          "type": "address"
        }
      ],
      "payable": false,
      "stateMutability": "view",
      "type": "function"
    },
    {
      "constant": true,
      "inputs": [
        {
          "name": "",
          "type": "uint256"
        },
        {
          "name": "",
          "type": "address"
        }
      ],
      "name": "timeBankShare",
      "outputs": [
        {
          "name": "",
          "type": "uint256"
        }
      ],
      "payable": false,
      "stateMutability": "view",
      "type": "function"
    },
    {
      "constant": true,
      "inputs": [
        {
          "name": "",
          "type": "uint256"
        },
        {
          "name": "",
          "type": "uint256"
        },
        {
          "name": "",
          "type": "address"
        }
      ],
      "name": "colorBankShare",
      "outputs": [
        {
          "name": "",
          "type": "uint256"
        }
      ],
      "payable": false,
      "stateMutability": "view",
      "type": "function"
    },
    {
      "constant": true,
      "inputs": [
        {
          "name": "",
          "type": "uint256"
        },
        {
          "name": "",
          "type": "uint256"
        }
      ],
      "name": "pixelToColorForRound",
      "outputs": [
        {
          "name": "",
          "type": "uint256"
        }
      ],
      "payable": false,
      "stateMutability": "view",
      "type": "function"
    },
    {
      "constant": true,
      "inputs": [
        {
          "name": "",
          "type": "uint256"
        }
      ],
      "name": "totalPaintsForRound",
      "outputs": [
        {
          "name": "",
          "type": "uint256"
        }
      ],
      "payable": false,
      "stateMutability": "view",
      "type": "function"
    },
    {
      "constant": true,
      "inputs": [
        {
          "name": "",
          "type": "uint256"
        }
      ],
      "name": "colorBankForRound",
      "outputs": [
        {
          "name": "",
          "type": "uint256"
        }
      ],
      "payable": false,
      "stateMutability": "view",
      "type": "function"
    },
    {
      "constant": true,
      "inputs": [
        {
          "name": "",
          "type": "uint256"
        },
        {
          "name": "",
          "type": "uint256"
        }
      ],
      "name": "paintGenToEndTimeForColor",
      "outputs": [
        {
          "name": "",
          "type": "uint256"
        }
      ],
      "payable": false,
      "stateMutability": "view",
      "type": "function"
    },
    {
      "constant": true,
      "inputs": [],
      "name": "uniqueUsersCount",
      "outputs": [
        {
          "name": "",
          "type": "uint256"
        }
      ],
      "payable": false,
      "stateMutability": "view",
      "type": "function"
    },
    {
      "constant": true,
      "inputs": [
        {
          "name": "",
          "type": "bytes32"
        }
      ],
      "name": "refLinkExists",
      "outputs": [
        {
          "name": "",
          "type": "bool"
        }
      ],
      "payable": false,
      "stateMutability": "view",
      "type": "function"
    },
    {
      "constant": true,
      "inputs": [
        {
          "name": "",
          "type": "uint256"
        },
        {
          "name": "",
          "type": "uint256"
        }
      ],
      "name": "paintGenToAmountForColor",
      "outputs": [
        {
          "name": "",
          "type": "uint256"
        }
      ],
      "payable": false,
      "stateMutability": "view",
      "type": "function"
    },
    {
      "constant": true,
      "inputs": [
        {
          "name": "",
          "type": "uint256"
        }
      ],
      "name": "isCBPTransfered",
      "outputs": [
        {
          "name": "",
          "type": "bool"
        }
      ],
      "payable": false,
      "stateMutability": "view",
      "type": "function"
    },
    {
      "constant": true,
      "inputs": [
        {
          "name": "",
          "type": "address"
        }
      ],
      "name": "referralToReferrer",
      "outputs": [
        {
          "name": "",
          "type": "address"
        }
      ],
      "payable": false,
      "stateMutability": "view",
      "type": "function"
    },
    {
      "constant": true,
      "inputs": [
        {
          "name": "",
          "type": "uint256"
        },
        {
          "name": "",
          "type": "address"
        }
      ],
      "name": "usersPaintDiscountForColor",
      "outputs": [
        {
          "name": "",
          "type": "uint256"
        }
      ],
      "payable": false,
      "stateMutability": "view",
      "type": "function"
    },
    {
      "constant": true,
      "inputs": [],
      "name": "maxPaintsInPool",
      "outputs": [
        {
          "name": "",
          "type": "uint256"
        }
      ],
      "payable": false,
      "stateMutability": "view",
      "type": "function"
    },
    {
      "constant": false,
      "inputs": [
        {
          "name": "newOwner",
          "type": "address"
        }
      ],
      "name": "transferOwnership",
      "outputs": [],
      "payable": false,
      "stateMutability": "nonpayable",
      "type": "function"
    },
    {
      "constant": true,
      "inputs": [
        {
          "name": "",
          "type": "uint256"
        }
      ],
      "name": "winnerColorForRound",
      "outputs": [
        {
          "name": "",
          "type": "uint256"
        }
      ],
      "payable": false,
      "stateMutability": "view",
      "type": "function"
    },
    {
      "constant": true,
      "inputs": [],
      "name": "dividendsBank",
      "outputs": [
        {
          "name": "",
          "type": "uint256"
        }
      ],
      "payable": false,
      "stateMutability": "view",
      "type": "function"
    },
    {
      "constant": true,
      "inputs": [
        {
          "name": "",
          "type": "address"
        }
      ],
      "name": "withdrawalBalances",
      "outputs": [
        {
          "name": "",
          "type": "uint256"
        }
      ],
      "payable": false,
      "stateMutability": "view",
      "type": "function"
    },
    {
      "constant": true,
      "inputs": [],
      "name": "cbIteration",
      "outputs": [
        {
          "name": "",
          "type": "uint256"
        }
      ],
      "payable": false,
      "stateMutability": "view",
      "type": "function"
    },
    {
      "anonymous": false,
      "inputs": [
        {
          "indexed": true,
          "name": "round",
          "type": "uint256"
        },
        {
          "indexed": true,
          "name": "cbIteration",
          "type": "uint256"
        },
        {
          "indexed": false,
          "name": "winner",
          "type": "address"
        }
      ],
      "name": "CBPDistributed",
      "type": "event"
    },
    {
      "anonymous": false,
      "inputs": [
        {
          "indexed": true,
          "name": "withdrawer",
          "type": "address"
        },
        {
          "indexed": true,
          "name": "claimId",
          "type": "uint256"
        },
        {
          "indexed": true,
          "name": "amount",
          "type": "uint256"
        }
      ],
      "name": "DividendsWithdrawn",
      "type": "event"
    },
    {
      "anonymous": false,
      "inputs": [
        {
          "indexed": true,
          "name": "claimer",
          "type": "address"
        },
        {
          "indexed": true,
          "name": "claimId",
          "type": "uint256"
        },
        {
          "indexed": true,
          "name": "currentTime",
          "type": "uint256"
        }
      ],
      "name": "DividendsClaimed",
      "type": "event"
    },
    {
      "anonymous": false,
      "inputs": [
        {
          "indexed": true,
          "name": "pixelId",
          "type": "uint256"
        },
        {
          "indexed": false,
          "name": "colorId",
          "type": "uint256"
        },
        {
          "indexed": true,
          "name": "painter",
          "type": "address"
        },
        {
          "indexed": true,
          "name": "round",
          "type": "uint256"
        },
        {
          "indexed": false,
          "name": "timestamp",
          "type": "uint256"
        }
      ],
      "name": "Paint",
      "type": "event"
    },
    {
      "anonymous": false,
      "inputs": [
        {
          "indexed": false,
          "name": "winner",
          "type": "address"
        },
        {
          "indexed": true,
          "name": "round",
          "type": "uint256"
        }
      ],
      "name": "ColorBankPlayed",
      "type": "event"
    },
    {
      "anonymous": false,
      "inputs": [
        {
          "indexed": false,
          "name": "winner",
          "type": "address"
        },
        {
          "indexed": true,
          "name": "round",
          "type": "uint256"
        }
      ],
      "name": "TimeBankPlayed",
      "type": "event"
    },
    {
      "anonymous": false,
      "inputs": [
        {
          "indexed": true,
          "name": "newCallPrice",
          "type": "uint256"
        }
      ],
      "name": "CallPriceUpdated",
      "type": "event"
    },
    {
      "anonymous": false,
      "inputs": [
        {
          "indexed": true,
          "name": "round",
          "type": "uint256"
        },
        {
          "indexed": true,
          "name": "tbIteration",
          "type": "uint256"
        },
        {
          "indexed": false,
          "name": "winner",
          "type": "address"
        }
      ],
      "name": "TBPDistributed",
      "type": "event"
    },
    {
      "anonymous": false,
      "inputs": [
        {
          "indexed": true,
          "name": "previousOwner",
          "type": "address"
        },
        {
          "indexed": true,
          "name": "newOwner",
          "type": "address"
        }
      ],
      "name": "OwnershipTransferred",
      "type": "event"
    },
    {
      "constant": true,
      "inputs": [
        {
          "name": "_pixel",
          "type": "uint256"
        }
      ],
      "name": "getPixelColor",
      "outputs": [
        {
          "name": "",
          "type": "uint256"
        }
      ],
      "payable": false,
      "stateMutability": "view",
      "type": "function"
    },
    {
      "constant": true,
      "inputs": [
        {
          "name": "_pixels",
          "type": "uint256[]"
        },
        {
          "name": "_color",
          "type": "uint256"
        }
      ],
      "name": "estimateCallPrice",
      "outputs": [
        {
          "name": "totalCallPrice",
          "type": "uint256"
        }
      ],
      "payable": false,
      "stateMutability": "view",
      "type": "function"
    },
    {
      "constant": false,
      "inputs": [
        {
          "name": "_pixels",
          "type": "uint256[]"
        },
        {
          "name": "_color",
          "type": "uint256"
        },
        {
          "name": "_refLink",
          "type": "string"
        }
      ],
      "name": "paint",
      "outputs": [],
      "payable": true,
      "stateMutability": "payable",
      "type": "function"
    }
  ],
  "bytecode": "0x608060405273ca35b7d915458ef540ade6068dfe2f44e8fa733c604060006101000a81548173ffffffffffffffffffffffffffffffffffffffff021916908373ffffffffffffffffffffffffffffffffffffffff160217905550733e4d187df7d8a0820eaf4174d17b160157610912604160006101000a81548173ffffffffffffffffffffffffffffffffffffffff021916908373ffffffffffffffffffffffffffffffffffffffff160217905550336000806101000a81548173ffffffffffffffffffffffffffffffffffffffff021916908373ffffffffffffffffffffffffffffffffffffffff1602179055506000809054906101000a900473ffffffffffffffffffffffffffffffffffffffff1673ffffffffffffffffffffffffffffffffffffffff16600073ffffffffffffffffffffffffffffffffffffffff167f8be0079c531659141344cd1fd0a4f28419497f9722a3daafe3b4186f6b6457e060405160405180910390a36144ab806101796000396000f30060806040526004361061034e576000357c0100000000000000000000000000000000000000000000000000000000900463ffffffff1680630422ddf31461035357806305bdd0be14610382578063099b81ce146103e75780630baaea44146104585780630cf9603f146104c55780630daa4206146105105780630f6ed86e14610560578063102f97131461058b57806318452cd8146105f857806319ef6a06146106535780631f5bdf5d1461069e5780631f90c6ed146106f957806321423af81461075e57806324d7806c1461078d57806328361f57146107e857806328b290f9146108295780632c6c1c41146108805780632c7a3dae146108e157806333f9c388146109585780633a173505146109b95780633c6dd01314610a045780633ca4c18314610a455780633d0d1a7914610aa65780633dc3c37714610ae7578063411b007e14610b1257806341c5464e14610b6957806342e453ec14610bc05780634b39173d14610c375780634c438ad714610c825780634c78e40114610cc75780635bfcdb2714610d085780635c25fd1314610dc45780635d63ebb214610def5780635f5d554c14610e66578063628a71a314610eb55780636f17eb4214610ef6578063715018a614610f3757806373a9ee2614610f4e57806376f5d96a14610f8f57806379ecf37614610fbe5780637b68a8f01461102b5780637e1e175c1461106c57806387982ac3146110c75780638a19c8bc146111545780638da5cb5b1461117f5780638e2df39c146111d65780638f32d59b146112175780638f63b7e514611246578063a312072414611291578063a888c2cd146112dc578063a977e16814611362578063ab24c7d2146113b9578063abafb90e1461141e578063ae55ce82146114a2578063b0ff59d21461150f578063b1a3883c14611570578063b8232d5d146115db578063be7d622614611626578063c64a2e5614611667578063c957387b146116a8578063c9f8234f146116f3578063d4526e681461171e578063d5de47c714611767578063da68b121146117b2578063deaf0fa1146117f7578063eaf1c9101461187a578063eef565da146118db578063f2fde38b14611906578063f49916f514611949578063f5f95b3b1461198a578063fb454d29146119b5578063fea11fe314611a0c575b600080fd5b34801561035f57600080fd5b50610368611a37565b604051808215151515815260200191505060405180910390f35b34801561038e57600080fd5b506103cd60048036038101908080359060200190929190803573ffffffffffffffffffffffffffffffffffffffff169060200190929190505050611a4a565b604051808215151515815260200191505060405180910390f35b3480156103f357600080fd5b506104166004803603810190808035600019169060200190929190505050611a79565b604051808273ffffffffffffffffffffffffffffffffffffffff1673ffffffffffffffffffffffffffffffffffffffff16815260200191505060405180910390f35b34801561046457600080fd5b5061048360048036038101908080359060200190929190505050611aac565b604051808273ffffffffffffffffffffffffffffffffffffffff1673ffffffffffffffffffffffffffffffffffffffff16815260200191505060405180910390f35b3480156104d157600080fd5b506104fa6004803603810190808035906020019092919080359060200190929190505050611adf565b6040518082815260200191505060405180910390f35b61055e60048036038101908080359060200190820180359060200191909192939192939080359060200190929190803590602001908201803590602001919091929391929390505050611b04565b005b34801561056c57600080fd5b50610575612398565b6040518082815260200191505060405180910390f35b34801561059757600080fd5b506105b66004803603810190808035906020019092919050505061239e565b604051808273ffffffffffffffffffffffffffffffffffffffff1673ffffffffffffffffffffffffffffffffffffffff16815260200191505060405180910390f35b34801561060457600080fd5b50610639600480360381019080803573ffffffffffffffffffffffffffffffffffffffff1690602001909291905050506123d1565b604051808215151515815260200191505060405180910390f35b34801561065f57600080fd5b5061068860048036038101908080359060200190929190803590602001909291905050506123f1565b6040518082815260200191505060405180910390f35b3480156106aa57600080fd5b506106df600480360381019080803573ffffffffffffffffffffffffffffffffffffffff169060200190929190505050612416565b604051808215151515815260200191505060405180910390f35b34801561070557600080fd5b5061074460048036038101908080359060200190929190803573ffffffffffffffffffffffffffffffffffffffff169060200190929190505050612436565b604051808215151515815260200191505060405180910390f35b34801561076a57600080fd5b50610773612465565b604051808215151515815260200191505060405180910390f35b34801561079957600080fd5b506107ce600480360381019080803573ffffffffffffffffffffffffffffffffffffffff169060200190929190505050612478565b604051808215151515815260200191505060405180910390f35b3480156107f457600080fd5b5061081360048036038101908080359060200190929190505050612498565b6040518082815260200191505060405180910390f35b34801561083557600080fd5b5061086a600480360381019080803573ffffffffffffffffffffffffffffffffffffffff1690602001909291905050506124b0565b6040518082815260200191505060405180910390f35b34801561088c57600080fd5b506108cb60048036038101908080359060200190929190803573ffffffffffffffffffffffffffffffffffffffff1690602001909291905050506124c8565b6040518082815260200191505060405180910390f35b3480156108ed57600080fd5b5061091660048036038101908080359060200190929190803590602001909291905050506124ed565b604051808273ffffffffffffffffffffffffffffffffffffffff1673ffffffffffffffffffffffffffffffffffffffff16815260200191505060405180910390f35b34801561096457600080fd5b506109a360048036038101908080359060200190929190803573ffffffffffffffffffffffffffffffffffffffff16906020019092919050505061253a565b6040518082815260200191505060405180910390f35b3480156109c557600080fd5b506109ee600480360381019080803590602001909291908035906020019092919050505061255f565b6040518082815260200191505060405180910390f35b348015610a1057600080fd5b50610a2f60048036038101908080359060200190929190505050612584565b6040518082815260200191505060405180910390f35b348015610a5157600080fd5b50610a9060048036038101908080359060200190929190803573ffffffffffffffffffffffffffffffffffffffff16906020019092919050505061259c565b6040518082815260200191505060405180910390f35b348015610ab257600080fd5b50610ad1600480360381019080803590602001909291905050506125c1565b6040518082815260200191505060405180910390f35b348015610af357600080fd5b50610afc6125d9565b6040518082815260200191505060405180910390f35b348015610b1e57600080fd5b50610b276125df565b604051808273ffffffffffffffffffffffffffffffffffffffff1673ffffffffffffffffffffffffffffffffffffffff16815260200191505060405180910390f35b348015610b7557600080fd5b50610baa600480360381019080803573ffffffffffffffffffffffffffffffffffffffff169060200190929190505050612605565b6040518082815260200191505060405180910390f35b348015610bcc57600080fd5b50610bf5600480360381019080803590602001909291908035906020019092919050505061261d565b604051808273ffffffffffffffffffffffffffffffffffffffff1673ffffffffffffffffffffffffffffffffffffffff16815260200191505060405180910390f35b348015610c4357600080fd5b50610c6c600480360381019080803590602001909291908035906020019092919050505061265f565b6040518082815260200191505060405180910390f35b348015610c8e57600080fd5b50610cad60048036038101908080359060200190929190505050612684565b604051808215151515815260200191505060405180910390f35b348015610cd357600080fd5b50610cf2600480360381019080803590602001909291905050506126a4565b6040518082815260200191505060405180910390f35b348015610d1457600080fd5b50610d49600480360381019080803573ffffffffffffffffffffffffffffffffffffffff1690602001909291905050506126bc565b6040518080602001828103825283818151815260200191508051906020019080838360005b83811015610d89578082015181840152602081019050610d6e565b50505050905090810190601f168015610db65780820380516001836020036101000a031916815260200191505b509250505060405180910390f35b348015610dd057600080fd5b50610dd961276c565b6040518082815260200191505060405180910390f35b348015610dfb57600080fd5b50610e246004803603810190808035906020019092919080359060200190929190505050612772565b604051808273ffffffffffffffffffffffffffffffffffffffff1673ffffffffffffffffffffffffffffffffffffffff16815260200191505060405180910390f35b348015610e7257600080fd5b50610e9b60048036038101908080359060200190929190803590602001909291905050506127bf565b604051808215151515815260200191505060405180910390f35b348015610ec157600080fd5b50610ee0600480360381019080803590602001909291905050506127ee565b6040518082815260200191505060405180910390f35b348015610f0257600080fd5b50610f2160048036038101908080359060200190929190505050612806565b6040518082815260200191505060405180910390f35b348015610f4357600080fd5b50610f4c61281e565b005b348015610f5a57600080fd5b50610f79600480360381019080803590602001909291905050506128f0565b6040518082815260200191505060405180910390f35b348015610f9b57600080fd5b50610fa4612908565b604051808215151515815260200191505060405180910390f35b348015610fca57600080fd5b50610fe96004803603810190808035906020019092919050505061291b565b604051808273ffffffffffffffffffffffffffffffffffffffff1673ffffffffffffffffffffffffffffffffffffffff16815260200191505060405180910390f35b34801561103757600080fd5b506110566004803603810190808035906020019092919050505061294e565b6040518082815260200191505060405180910390f35b34801561107857600080fd5b506110ad600480360381019080803573ffffffffffffffffffffffffffffffffffffffff16906020019092919050505061297e565b604051808215151515815260200191505060405180910390f35b3480156110d357600080fd5b50611112600480360381019080803573ffffffffffffffffffffffffffffffffffffffff1690602001909291908035906020019092919050505061299e565b604051808273ffffffffffffffffffffffffffffffffffffffff1673ffffffffffffffffffffffffffffffffffffffff16815260200191505060405180910390f35b34801561116057600080fd5b506111696129ea565b6040518082815260200191505060405180910390f35b34801561118b57600080fd5b506111946129f0565b604051808273ffffffffffffffffffffffffffffffffffffffff1673ffffffffffffffffffffffffffffffffffffffff16815260200191505060405180910390f35b3480156111e257600080fd5b5061120160048036038101908080359060200190929190505050612a19565b6040518082815260200191505060405180910390f35b34801561122357600080fd5b5061122c612a31565b604051808215151515815260200191505060405180910390f35b34801561125257600080fd5b5061127b6004803603810190808035906020019092919080359060200190929190505050612a88565b6040518082815260200191505060405180910390f35b34801561129d57600080fd5b506112c66004803603810190808035906020019092919080359060200190929190505050612aad565b6040518082815260200191505060405180910390f35b3480156112e857600080fd5b5061130760048036038101908080359060200190929190505050612ad2565b604051808581526020018473ffffffffffffffffffffffffffffffffffffffff1673ffffffffffffffffffffffffffffffffffffffff1681526020018315151515815260200182815260200194505050505060405180910390f35b34801561136e57600080fd5b50611377612b3e565b604051808273ffffffffffffffffffffffffffffffffffffffff1673ffffffffffffffffffffffffffffffffffffffff16815260200191505060405180910390f35b3480156113c557600080fd5b5061140460048036038101908080359060200190929190803573ffffffffffffffffffffffffffffffffffffffff169060200190929190505050612b64565b604051808215151515815260200191505060405180910390f35b34801561142a57600080fd5b5061148c6004803603810190808035906020019082018035906020019080806020026020016040519081016040528093929190818152602001838360200280828437820191505050505050919291929080359060200190929190505050612b93565b6040518082815260200191505060405180910390f35b3480156114ae57600080fd5b506114cd60048036038101908080359060200190929190505050612d81565b604051808273ffffffffffffffffffffffffffffffffffffffff1673ffffffffffffffffffffffffffffffffffffffff16815260200191505060405180910390f35b34801561151b57600080fd5b5061155a60048036038101908080359060200190929190803573ffffffffffffffffffffffffffffffffffffffff169060200190929190505050612db4565b6040518082815260200191505060405180910390f35b34801561157c57600080fd5b506115c56004803603810190808035906020019092919080359060200190929190803573ffffffffffffffffffffffffffffffffffffffff169060200190929190505050612dd9565b6040518082815260200191505060405180910390f35b3480156115e757600080fd5b506116106004803603810190808035906020019092919080359060200190929190505050612e0b565b6040518082815260200191505060405180910390f35b34801561163257600080fd5b5061165160048036038101908080359060200190929190505050612e30565b6040518082815260200191505060405180910390f35b34801561167357600080fd5b5061169260048036038101908080359060200190929190505050612e48565b6040518082815260200191505060405180910390f35b3480156116b457600080fd5b506116dd6004803603810190808035906020019092919080359060200190929190505050612e60565b6040518082815260200191505060405180910390f35b3480156116ff57600080fd5b50611708612e85565b6040518082815260200191505060405180910390f35b34801561172a57600080fd5b5061174d6004803603810190808035600019169060200190929190505050612e8b565b604051808215151515815260200191505060405180910390f35b34801561177357600080fd5b5061179c6004803603810190808035906020019092919080359060200190929190505050612eab565b6040518082815260200191505060405180910390f35b3480156117be57600080fd5b506117dd60048036038101908080359060200190929190505050612ed0565b604051808215151515815260200191505060405180910390f35b34801561180357600080fd5b50611838600480360381019080803573ffffffffffffffffffffffffffffffffffffffff169060200190929190505050612ef0565b604051808273ffffffffffffffffffffffffffffffffffffffff1673ffffffffffffffffffffffffffffffffffffffff16815260200191505060405180910390f35b34801561188657600080fd5b506118c560048036038101908080359060200190929190803573ffffffffffffffffffffffffffffffffffffffff169060200190929190505050612f23565b6040518082815260200191505060405180910390f35b3480156118e757600080fd5b506118f0612f48565b6040518082815260200191505060405180910390f35b34801561191257600080fd5b50611947600480360381019080803573ffffffffffffffffffffffffffffffffffffffff169060200190929190505050612f4e565b005b34801561195557600080fd5b5061197460048036038101908080359060200190929190505050612f6d565b6040518082815260200191505060405180910390f35b34801561199657600080fd5b5061199f612f85565b6040518082815260200191505060405180910390f35b3480156119c157600080fd5b506119f6600480360381019080803573ffffffffffffffffffffffffffffffffffffffff169060200190929190505050612f8b565b6040518082815260200191505060405180910390f35b348015611a1857600080fd5b50611a21612fa3565b6040518082815260200191505060405180910390f35b604160149054906101000a900460ff1681565b60346020528160005260406000206020528060005260406000206000915091509054906101000a900460ff1681565b60236020528060005260406000206000915054906101000a900473ffffffffffffffffffffffffffffffffffffffff1681565b603a6020528060005260406000206000915054906101000a900473ffffffffffffffffffffffffffffffffffffffff1681565b6006602052816000526040600020602052806000526040600020600091509150505481565b600082828080601f01602080910402602001604051908101604052809392919081815260200183838082843782019150505050505060008060011515601d60003373ffffffffffffffffffffffffffffffffffffffff1673ffffffffffffffffffffffffffffffffffffffff16815260200190815260200160002060009054906101000a900460ff161515141515611e5557611b9f83612fa9565b6fffffffffffffffffffffffffffffffff1916915060246000836000191660001916815260200190815260200160002060009054906101000a900460ff1615611d9a5760236000836000191660001916815260200190815260200160002060009054906101000a900473ffffffffffffffffffffffffffffffffffffffff169050602060008273ffffffffffffffffffffffffffffffffffffffff1673ffffffffffffffffffffffffffffffffffffffff1681526020019081526020016000203390806001815401808255809150509060018203906000526020600020016000909192909190916101000a81548173ffffffffffffffffffffffffffffffffffffffff021916908373ffffffffffffffffffffffffffffffffffffffff1602179055505080601f60003373ffffffffffffffffffffffffffffffffffffffff1673ffffffffffffffffffffffffffffffffffffffff16815260200190815260200160002060006101000a81548173ffffffffffffffffffffffffffffffffffffffff021916908373ffffffffffffffffffffffffffffffffffffffff1602179055506001602160003373ffffffffffffffffffffffffffffffffffffffff1673ffffffffffffffffffffffffffffffffffffffff16815260200190815260200160002060006101000a81548160ff0219169083151502179055505b611db06001602654612fc290919063ffffffff16565b602681905550602654602560003373ffffffffffffffffffffffffffffffffffffffff1673ffffffffffffffffffffffffffffffffffffffff168152602001908152602001600020819055506001601d60003373ffffffffffffffffffffffffffffffffffffffff1673ffffffffffffffffffffffffffffffffffffffff16815260200190815260200160002060006101000a81548160ff0219169083151502179055505b60001515604160149054906101000a900460ff161515141515611ee0576040517f08c379a000000000000000000000000000000000000000000000000000000000815260040180806020018281038252600f8152602001807f47616d65206973207061757365642e000000000000000000000000000000000081525060200191505060405180910390fd5b611f1989898080602002602001604051908101604052809392919081815260200183836020028082843782019150505050505088612b93565b34141515611f8f576040517f08c379a00000000000000000000000000000000000000000000000000000000081526004018080602001828103825260108152602001807f57726f6e672063616c6c2070726963650000000000000000000000000000000081525060200191505060405180910390fd5b6104b0600a60006028548152602001908152602001600020544203118015611fcd57506000600a600060285481526020019081526020016000205414155b1561222f57600b6000602854815260200190815260200160002060009054906101000a900473ffffffffffffffffffffffffffffffffffffffff16600f6000602854815260200190815260200160002060006101000a81548173ffffffffffffffffffffffffffffffffffffffff021916908373ffffffffffffffffffffffffffffffffffffffff16021790555060016010600060285481526020019081526020016000208190555061209f600a60096000602854815260200190815260200160002054612fe390919063ffffffff16565b600960006001602854018152602001908152602001600020819055506120f760646120e9602d6009600060285481526020019081526020016000205461300d90919063ffffffff16565b612fe390919063ffffffff16565b6009600060285481526020019081526020016000208190555060076000602854815260200190815260200160002054600760006001602854018152602001908152602001600020819055506000600760006028548152602001908152602001600020819055506028547f20f206bcab56eeef408295aaff8745adb98fed16823d758193e9449983d23fd2600f6000602854815260200190815260200160002060009054906101000a900473ffffffffffffffffffffffffffffffffffffffff16604051808273ffffffffffffffffffffffffffffffffffffffff1673ffffffffffffffffffffffffffffffffffffffff16815260200191505060405180910390a26001604160146101000a81548160ff0219169083151502179055506001604160166101000a81548160ff0219169083151502179055505b6122388761304b565b600093505b8888905084101561227357612266898986818110151561225957fe5b90506020020135886131d3565b838060010194505061223d565b61227c87613b89565b61228587613d93565b61228e87613ebf565b602b60008154809291906001019190505550602e6000888152602001908152602001600020600081548092919060010191905055503360316000602b54815260200190815260200160002060006101000a81548173ffffffffffffffffffffffffffffffffffffffff021916908373ffffffffffffffffffffffffffffffffffffffff16021790555033603260008981526020019081526020016000206000602e60008b815260200190815260200160002054815260200190815260200160002060006101000a81548173ffffffffffffffffffffffffffffffffffffffff021916908373ffffffffffffffffffffffffffffffffffffffff160217905550505050505050505050565b60295481565b600f6020528060005260406000206000915054906101000a900473ffffffffffffffffffffffffffffffffffffffff1681565b60216020528060005260406000206000915054906101000a900460ff1681565b600e602052816000526040600020602052806000526040600020600091509150505481565b601d6020528060005260406000206000915054906101000a900460ff1681565b601b6020528160005260406000206020528060005260406000206000915091509054906101000a900460ff1681565b604160169054906101000a900460ff1681565b60426020528060005260406000206000915054906101000a900460ff1681565b60176020528060005260406000206000915090505481565b60396020528060005260406000206000915090505481565b601a602052816000526040600020602052806000526040600020600091509150505481565b60306020528160005260406000208181548110151561250857fe5b906000526020600020016000915091509054906101000a900473ffffffffffffffffffffffffffffffffffffffff1681565b6036602052816000526040600020602052806000526040600020600091509150505481565b6014602052816000526040600020602052806000526040600020600091509150505481565b60186020528060005260406000206000915090505481565b6035602052816000526040600020602052806000526040600020600091509150505481565b60106020528060005260406000206000915090505481565b602b5481565b604160009054906101000a900473ffffffffffffffffffffffffffffffffffffffff1681565b60256020528060005260406000206000915090505481565b60326020528160005260406000206020528060005260406000206000915091509054906101000a900473ffffffffffffffffffffffffffffffffffffffff1681565b6005602052816000526040600020602052806000526040600020600091509150505481565b60386020528060005260406000206000915054906101000a900460ff1681565b60096020528060005260406000206000915090505481565b60226020528060005260406000206000915090508054600181600116156101000203166002900480601f0160208091040260200160405190810160405280929190818152602001828054600181600116156101000203166002900480156127645780601f1061273957610100808354040283529160200191612764565b820191906000526020600020905b81548152906001019060200180831161274757829003601f168201915b505050505081565b603e5481565b602f6020528160005260406000208181548110151561278d57fe5b906000526020600020016000915091509054906101000a900473ffffffffffffffffffffffffffffffffffffffff1681565b60166020528160005260406000206020528060005260406000206000915091509054906101000a900460ff1681565b600c6020528060005260406000206000915090505481565b60196020528060005260406000206000915090505481565b612826612a31565b151561283157600080fd5b600073ffffffffffffffffffffffffffffffffffffffff166000809054906101000a900473ffffffffffffffffffffffffffffffffffffffff1673ffffffffffffffffffffffffffffffffffffffff167f8be0079c531659141344cd1fd0a4f28419497f9722a3daafe3b4186f6b6457e060405160405180910390a360008060006101000a81548173ffffffffffffffffffffffffffffffffffffffff021916908373ffffffffffffffffffffffffffffffffffffffff160217905550565b600a6020528060005260406000206000915090505481565b604160159054906101000a900460ff1681565b600b6020528060005260406000206000915054906101000a900473ffffffffffffffffffffffffffffffffffffffff1681565b60006004600060285481526020019081526020016000206000838152602001908152602001600020549050919050565b601e6020528060005260406000206000915054906101000a900460ff1681565b60208052816000526040600020818154811015156129b857fe5b906000526020600020016000915091509054906101000a900473ffffffffffffffffffffffffffffffffffffffff1681565b60285481565b60008060009054906101000a900473ffffffffffffffffffffffffffffffffffffffff16905090565b602e6020528060005260406000206000915090505481565b60008060009054906101000a900473ffffffffffffffffffffffffffffffffffffffff1673ffffffffffffffffffffffffffffffffffffffff163373ffffffffffffffffffffffffffffffffffffffff1614905090565b6011602052816000526040600020602052806000526040600020600091509150505481565b6008602052816000526040600020602052806000526040600020600091509150505481565b603f81815481101515612ae157fe5b90600052602060002090600302016000915090508060000154908060010160009054906101000a900473ffffffffffffffffffffffffffffffffffffffff16908060010160149054906101000a900460ff16908060020154905084565b604060009054906101000a900473ffffffffffffffffffffffffffffffffffffffff1681565b60336020528160005260406000206020528060005260406000206000915091509054906101000a900460ff1681565b6000806000806000806000601a600089815260200190815260200160002060003373ffffffffffffffffffffffffffffffffffffffff1673ffffffffffffffffffffffffffffffffffffffff168152602001908152602001600020549550601b600089815260200190815260200160002060003373ffffffffffffffffffffffffffffffffffffffff1673ffffffffffffffffffffffffffffffffffffffff16815260200190815260200160002060009054906101000a900460ff169450601c600089815260200190815260200160002060003373ffffffffffffffffffffffffffffffffffffffff1673ffffffffffffffffffffffffffffffffffffffff168152602001908152602001600020549350600092505b8851831015612d7557612cee6064612ce086606403601960008d81526020019081526020016000205461300d90919063ffffffff16565b612fe390919063ffffffff16565b9150600115158515151415612d0557819050612d1c565b601960008981526020019081526020016000205490505b80870196508086019550670de0b6b3a764000086101515612d685760019450670de0b6b3a764000086811515612d4e57fe5b049350678ac7230489e8000086101515612d6757600a93505b5b8280600101935050612ca9565b50505050505092915050565b60316020528060005260406000206000915054906101000a900473ffffffffffffffffffffffffffffffffffffffff1681565b602c602052816000526040600020602052806000526040600020600091509150505481565b602d60205282600052604060002060205281600052604060002060205280600052604060002060009250925050505481565b6004602052816000526040600020602052806000526040600020600091509150505481565b60126020528060005260406000206000915090505481565b60076020528060005260406000206000915090505481565b6015602052816000526040600020602052806000526040600020600091509150505481565b60265481565b60246020528060005260406000206000915054906101000a900460ff1681565b6013602052816000526040600020602052806000526040600020600091509150505481565b60376020528060005260406000206000915054906101000a900460ff1681565b601f6020528060005260406000206000915054906101000a900473ffffffffffffffffffffffffffffffffffffffff1681565b601c602052816000526040600020602052806000526040600020600091509150505481565b60275481565b612f56612a31565b1515612f6157600080fd5b612f6a81614032565b50565b600d6020528060005260406000206000915090505481565b603d5481565b603b6020528060005260406000206000915090505481565b602a5481565b6000806060839050602081015191508192505050919050565b6000808284019050838110151515612fd957600080fd5b8091505092915050565b600080600083111515612ff557600080fd5b828481151561300057fe5b0490508091505092915050565b60008060008414156130225760009150613044565b828402905082848281151561303357fe5b0414151561304057600080fd5b8091505b5092915050565b6130aa613075606461306760283461300d90919063ffffffff16565b612fe390919063ffffffff16565b600860006028548152602001908152602001600020600084815260200190815260200160002054612fc290919063ffffffff16565b6008600060285481526020019081526020016000206000838152602001908152602001600020819055506131226130fe60646130f060283461300d90919063ffffffff16565b612fe390919063ffffffff16565b60076000602854815260200190815260200160002054612fc290919063ffffffff16565b60076000602854815260200190815260200160002081905550613189613165606461315760283461300d90919063ffffffff16565b612fe390919063ffffffff16565b60096000602854815260200190815260200160002054612fc290919063ffffffff16565b600960006028548152602001908152602001600020819055506131ca6131b9600534612fe390919063ffffffff16565b603d54612fc290919063ffffffff16565b603d8190555050565b6000801515604160149054906101000a900460ff16151514151561325f576040517f08c379a000000000000000000000000000000000000000000000000000000000815260040180806020018281038252600f8152602001807f47616d65206973207061757365642e000000000000000000000000000000000081525060200191505060405180910390fd5b6132688261412c565b60008314151515613307576040517f08c379a00000000000000000000000000000000000000000000000000000000081526004018080602001828103825260278152602001807f54686520706978656c2077697468206964203d203020646f6573206e6f74206581526020017f786973742e2e2e0000000000000000000000000000000000000000000000000081525060400191505060405180910390fd5b600082141515156133a6576040517f08c379a00000000000000000000000000000000000000000000000000000000081526004018080602001828103825260288152602001807f596f752063616e6e6f74207061696e7420746f207472616e73706172656e742081526020017f636f6c6f722e2e2e00000000000000000000000000000000000000000000000081525060400191505060405180910390fd5b816004600060285481526020019081526020016000206000858152602001908152602001600020541415151561346a576040517f08c379a00000000000000000000000000000000000000000000000000000000081526004018080602001828103825260268152602001807f5468697320706978656c20697320616c7265616479206f66207468697320636f81526020017f6c6f722e2e2e000000000000000000000000000000000000000000000000000081525060400191505060405180910390fd5b6004600060285481526020019081526020016000206000848152602001908152602001600020549050816004600060285481526020019081526020016000206000858152602001908152602001600020819055508060056000602854815260200190815260200160002060008581526020019081526020016000208190555042600a600060285481526020019081526020016000208190555033600b6000602854815260200190815260200160002060006101000a81548173ffffffffffffffffffffffffffffffffffffffff021916908373ffffffffffffffffffffffffffffffffffffffff160217905550600060066000602854815260200190815260200160002060008381526020019081526020016000205411156135eb576135c060016006600060285481526020019081526020016000206000848152602001908152602001600020546143ca90919063ffffffff16565b6006600060285481526020019081526020016000206000838152602001908152602001600020819055505b6136256001600660006028548152602001908152602001600020600085815260200190815260200160002054612fc290919063ffffffff16565b6006600060285481526020019081526020016000206000848152602001908152602001600020819055506136896001600e6000602a548152602001908152602001600020600085815260200190815260200160002054612fc290919063ffffffff16565b600e6000602a5481526020019081526020016000206000848152602001908152602001600020819055506136dc600160126000602854815260200190815260200160002054612fc290919063ffffffff16565b6012600060285481526020019081526020016000208190555042601160006028548152602001908152602001600020600085815260200190815260200160002081905550602c6000602954815260200190815260200160002060003373ffffffffffffffffffffffffffffffffffffffff1673ffffffffffffffffffffffffffffffffffffffff16815260200190815260200160002060008154809291906001019190505550602d6000602a548152602001908152602001600020600083815260200190815260200160002060003373ffffffffffffffffffffffffffffffffffffffff1673ffffffffffffffffffffffffffffffffffffffff16815260200190815260200160002060008154809291906001019190505550613840600160136000858152602001908152602001600020600060176000878152602001908152602001600020548152602001908152602001600020546143ca90919063ffffffff16565b601360008481526020019081526020016000206000601760008681526020019081526020016000205481526020019081526020016000208190555082600c60006028548152602001908152602001600020819055506028543373ffffffffffffffffffffffffffffffffffffffff16847faf2d03aa2fdc9b785775529881274caad1884e0279e02729f03eca55d57eea728542604051808381526020018281526020019250505060405180910390a4602854603960003373ffffffffffffffffffffffffffffffffffffffff1673ffffffffffffffffffffffffffffffffffffffff168152602001908152602001600020819055506127106006600060285481526020019081526020016000206000848152602001908152602001600020541415613b845781600d6000602854815260200190815260200160002081905550600b6000602854815260200190815260200160002060009054906101000a900473ffffffffffffffffffffffffffffffffffffffff16600f6000602854815260200190815260200160002060006101000a81548173ffffffffffffffffffffffffffffffffffffffff021916908373ffffffffffffffffffffffffffffffffffffffff160217905550600260106000602854815260200190815260200160002081905550613a4c600260076000602854815260200190815260200160002054612fe390919063ffffffff16565b6007600060285481526020019081526020016000208190555060096000602854815260200190815260200160002054600960006001602854018152602001908152602001600020819055506000600960006028548152602001908152602001600020819055506028547f14988f685a0376db6242cb37ed3033028bbc9e8fe0cc4b434a098e6c0150673f600f6000602854815260200190815260200160002060009054906101000a900473ffffffffffffffffffffffffffffffffffffffff16604051808273ffffffffffffffffffffffffffffffffffffffff1673ffffffffffffffffffffffffffffffffffffffff16815260200191505060405180910390a26001604160146101000a81548160ff0219169083151502179055506001604160156101000a81548160ff0219169083151502179055505b505050565b613c12613ba26004603d54612fe390919063ffffffff16565b603b6000604160009054906101000a900473ffffffffffffffffffffffffffffffffffffffff1673ffffffffffffffffffffffffffffffffffffffff1673ffffffffffffffffffffffffffffffffffffffff16815260200190815260200160002054612fc290919063ffffffff16565b603b6000604160009054906101000a900473ffffffffffffffffffffffffffffffffffffffff1673ffffffffffffffffffffffffffffffffffffffff1673ffffffffffffffffffffffffffffffffffffffff16815260200190815260200160002081905550613c8d6004603d54612fe390919063ffffffff16565b603b6000603a600085815260200190815260200160002060009054906101000a900473ffffffffffffffffffffffffffffffffffffffff1673ffffffffffffffffffffffffffffffffffffffff1673ffffffffffffffffffffffffffffffffffffffff16815260200190815260200160002060008282540192505081905550613d226004603d54612fe390919063ffffffff16565b603b6000604060009054906101000a900473ffffffffffffffffffffffffffffffffffffffff1673ffffffffffffffffffffffffffffffffffffffff1673ffffffffffffffffffffffffffffffffffffffff1681526020019081526020016000206000828254019250508190555050565b34601a600083815260200190815260200160002060003373ffffffffffffffffffffffffffffffffffffffff1673ffffffffffffffffffffffffffffffffffffffff16815260200190815260200160002060008282540192505081905550670de0b6b3a7640000601a600083815260200190815260200160002060003373ffffffffffffffffffffffffffffffffffffffff1673ffffffffffffffffffffffffffffffffffffffff16815260200190815260200160002054101515613ebc576001601b600083815260200190815260200160002060003373ffffffffffffffffffffffffffffffffffffffff1673ffffffffffffffffffffffffffffffffffffffff16815260200190815260200160002060006101000a81548160ff0219169083151502179055505b50565b670de0b6b3a7640000601a600083815260200190815260200160002060003373ffffffffffffffffffffffffffffffffffffffff1673ffffffffffffffffffffffffffffffffffffffff16815260200190815260200160002054811515613f2257fe5b04601c600083815260200190815260200160002060003373ffffffffffffffffffffffffffffffffffffffff1673ffffffffffffffffffffffffffffffffffffffff16815260200190815260200160002081905550678ac7230489e80000601a600083815260200190815260200160002060003373ffffffffffffffffffffffffffffffffffffffff1673ffffffffffffffffffffffffffffffffffffffff1681526020019081526020016000205410151561402f57600a601c600083815260200190815260200160002060003373ffffffffffffffffffffffffffffffffffffffff1673ffffffffffffffffffffffffffffffffffffffff168152602001908152602001600020819055505b50565b600073ffffffffffffffffffffffffffffffffffffffff168173ffffffffffffffffffffffffffffffffffffffff161415151561406e57600080fd5b8073ffffffffffffffffffffffffffffffffffffffff166000809054906101000a900473ffffffffffffffffffffffffffffffffffffffff1673ffffffffffffffffffffffffffffffffffffffff167f8be0079c531659141344cd1fd0a4f28419497f9722a3daafe3b4186f6b6457e060405160405180910390a3806000806101000a81548173ffffffffffffffffffffffffffffffffffffffff021916908373ffffffffffffffffffffffffffffffffffffffff16021790555050565b600080605a601560008581526020019081526020016000206000600160176000888152602001908152602001600020540381526020019081526020016000205442031015156143c557601360008481526020019081526020016000206000601760008681526020019081526020016000205481526020019081526020016000205491506141d660016017600086815260200190815260200160002054612fc290919063ffffffff16565b90506000151560166000858152602001908152602001600020600083815260200190815260200160002060009054906101000a900460ff16151514156142ba5761422b826027546143ca90919063ffffffff16565b601360008581526020019081526020016000206000838152602001908152602001600020819055504260146000858152602001908152602001600020600083815260200190815260200160002081905550600160166000858152602001908152602001600020600083815260200190815260200160002060006101000a81548160ff0219169083151502179055505b60016013600085815260200190815260200160002060006017600087815260200190815260200160002054815260200190815260200160002054141561434057614303836143eb565b4260156000858152602001908152602001600020600060176000878152602001908152602001600020548152602001908152602001600020819055505b6000601360008581526020019081526020016000206000601760008781526020019081526020016000205481526020019081526020016000205414156143c457601960008481526020019081526020016000205460186000858152602001908152602001600020819055508060176000858152602001908152602001600020819055505b5b505050565b6000808383111515156143dc57600080fd5b82840390508091505092915050565b61442560646144176069601860008681526020019081526020016000205461300d90919063ffffffff16565b612fe390919063ffffffff16565b601960008381526020019081526020016000208190555060186000828152602001908152602001600020547f3bb22f778670a5901bff4d41c425858dac1ea6aeb048d40f959a6bc43f98506160405160405180910390a2505600a165627a7a72305820d37c814d6bec89f7c30beb29dd353ae8ad9046d9e3deb596865f9cc152b723be0029",
  "source": "pragma solidity ^0.4.24;\nimport \"./PaintsPool.sol\";\nimport \"./PaintDiscount.sol\";\nimport \"./Modifiers.sol\";\nimport \"./Utils.sol\";\n\ncontract Game is PaintDiscount, PaintsPool, Modifiers {\n    using SafeMath for uint;\n    \n    //     \n    function getPixelColor(uint _pixel) external view returns (uint) {\n        return pixelToColorForRound[currentRound][_pixel];\n    }\n    \n    //      \n    function estimateCallPrice(uint[] _pixels, uint _color) public view returns (uint totalCallPrice) {\n\n        uint moneySpent = moneySpentByUserForColor[_color][msg.sender];\n        bool hasDiscount = hasPaintDiscountForColor[_color][msg.sender];\n        uint discount = usersPaintDiscountForColor[_color][msg.sender];\n        \n        for (uint i = 0; i < _pixels.length; i++) {\n            \n            uint discountCallPrice = (nextCallPriceForColor[_color].mul(100 - discount)).div(100);\n            \n            if (hasDiscount == true) \n                uint price = discountCallPrice;\n            else\n                price = nextCallPriceForColor[_color]; \n\n            totalCallPrice += price;\n            moneySpent += price;\n\n            if (moneySpent >= 1 ether) {\n                \n                hasDiscount = true;\n                discount = moneySpent / 1 ether;\n                \n                if (moneySpent >= 10 ether)\n                    discount = 10;\n            }\n            \n        }   \n    }\n\n    function paint(uint[] _pixels, uint _color, string _refLink) external payable isRegistered(_refLink) isLiveGame() {\n\n        require(msg.value == estimateCallPrice(_pixels, _color), \"Wrong call price\");\n        \n        //    20        \n        if (now - lastPaintTimeForRound[currentRound] > 20 minutes && lastPaintTimeForRound[currentRound] != 0) {\n\n            //    \n            //   -       \n            winnerOfRound[currentRound] = lastPainterForRound[currentRound];\n\n            \n            \n            //    =   (1)\n            winnerBankForRound[currentRound] = 1; \n            //10%      \n            timeBankForRound[currentRound + 1] = timeBankForRound[currentRound].div(10); \n            //45%        \n            timeBankForRound[currentRound] = timeBankForRound[currentRound].mul(45).div(100); \n            //     \n            colorBankForRound[currentRound + 1] = colorBankForRound[currentRound]; \n            //     \n            colorBankForRound[currentRound] = 0; \n            // -     (, )\n            emit TimeBankPlayed(winnerOfRound[currentRound], currentRound);\n\n            isGamePaused = true;\n            isTBPDistributable = true;\n        }\n\n        //   \n        _setBanks(_color);\n\n        // \n        for (uint i = 0; i < _pixels.length; i++) {\n            _paint(_pixels[i], _color);\n        }\n        \n        //  ( ) \n        _distributeDividends(_color);\n    \n         //         \n        _setMoneySpentByUserForColor(_color); \n        \n        //         \n        _setUsersPaintDiscountForColor(_color);\n\n        paintsCounter++; //   \n        paintsCounterForColor[_color] ++; //   \n        counterToPainter[paintsCounter] = msg.sender; //  => \n        counterToPainterForColor[_color][paintsCounterForColor[_color]] = msg.sender; //    => \n\n    }   \n\n    //   \n    function _paint(uint _pixel, uint _color) internal isLiveGame() {\n\n        //          paint\n        _fillPaintsPool(_color);\n\n        require(_pixel != 0, \"The pixel with id = 0 does not exist...\");\n        require(_color != 0, \"You cannot paint to transparent color...\");\n        require(pixelToColorForRound[currentRound][_pixel] != _color, \"This pixel is already of this color...\");\n\n        //paint    \n        //    \n        uint oldColor = pixelToColorForRound[currentRound][_pixel];\n    \n        //   \n        pixelToColorForRound[currentRound][_pixel] = _color; \n            \n        //c    \n        pixelToOldColorForRound[currentRound][_pixel] = oldColor; \n                \n        //         \n        lastPaintTimeForRound[currentRound] = now; \n    \n        //          \n        lastPainterForRound[currentRound] = msg.sender;\n                \n        //    ,   \n        if (colorToPaintedPixelsAmountForRound[currentRound][oldColor] > 0) \n            colorToPaintedPixelsAmountForRound[currentRound][oldColor] = colorToPaintedPixelsAmountForRound[currentRound][oldColor].sub(1); \n    \n        //   ,   \n        colorToPaintedPixelsAmountForRound[currentRound][_color] = colorToPaintedPixelsAmountForRound[currentRound][_color].add(1); \n\n        //          \n        colorToTotalPaintsForCBIteration[cbIteration][_color] = colorToTotalPaintsForCBIteration[cbIteration][_color].add(1);\n\n        //         \n        totalPaintsForRound[currentRound] = totalPaintsForRound[currentRound].add(1); \n\n        pixelToPaintTimeForRound[currentRound][_pixel] = now;\n\n        timeBankShare[tbIteration][msg.sender]++;\n        colorBankShare[cbIteration][_color][msg.sender]++;\n                \n        //     1  \n        paintGenToAmountForColor[_color][currentPaintGenForColor[_color]] = paintGenToAmountForColor[_color][currentPaintGenForColor[_color]].sub(1);\n        \n        //      \n        lastPaintedPixelForRound[currentRound] = _pixel;\n        \n        // -   (, ,  )\n        emit Paint(_pixel, _color, msg.sender, currentRound, now);    \n\n        //         \n        lastPlayedRound[msg.sender] = currentRound;\n            \n        //            \n        if (colorToPaintedPixelsAmountForRound[currentRound][_color] == 10000) {\n\n            //    \n            winnerColorForRound[currentRound] = _color;\n\n            //    \n            winnerOfRound[currentRound] = lastPainterForRound[currentRound];        \n            \n            winnerBankForRound[currentRound] = 2;//    =   (2)\n\n            //50%       \n            colorBankForRound[currentRound] = colorBankForRound[currentRound].div(2);\n\n            timeBankForRound[currentRound + 1] = timeBankForRound[currentRound];//     \n            timeBankForRound[currentRound] = 0;//           \n            emit ColorBankPlayed(winnerOfRound[currentRound], currentRound);  \n            \n            isGamePaused = true;\n            isCBPDistributable = true;\n            //distributeCBP();\n        }\n    }\n\n    //  \n    function _setBanks(uint _color) private {\n        \n        colorBankToColorForRound[currentRound][_color] = colorBankToColorForRound[currentRound][_color].add(msg.value.mul(40).div(100));\n\n        //40%     \n        colorBankForRound[currentRound] = colorBankForRound[currentRound].add(msg.value.mul(40).div(100));\n\n        //40%     \n        timeBankForRound[currentRound] = timeBankForRound[currentRound].add(msg.value.mul(40).div(100));\n\n        //20%      \n        dividendsBank = dividendsBank.add(msg.value.div(5)); \n    }\n\n    //   ( ) -         \n    function _distributeDividends(uint _color) internal {\n        \n        //require(ownerOfColor[_color] != address(0), \"There is no such color\");\n\n        //25%    (   )\n        withdrawalBalances[founders] = withdrawalBalances[founders].add(dividendsBank.div(4)); \n    \n        //25%    \n        withdrawalBalances[ownerOfColor[_color]] += dividendsBank.div(4);\n    \n        //25%    \n        withdrawalBalances[ownerOfPixel] += dividendsBank.div(4);\n    \n        //25%   ,   \n        // withdrawalBalances[referrer] += dividendsBank.mul(25).div(100);\n    }\n\n    modifier isRegistered(string _refLink) {\n        //    \n        if (isRegisteredUser[msg.sender] != true) {\n            bytes32 refLink = Utils.toBytes32(_refLink);\n            //      \n            if (refLinkExists[refLink]) { \n                address referrer = refLinkToUser[refLink];\n                referrerToReferrals[referrer].push(msg.sender);\n                referralToReferrer[msg.sender] = referrer;\n                hasReferrer[msg.sender] = true;\n            }\n            uniqueUsersCount = uniqueUsersCount.add(1);\n            newUserToCounter[msg.sender] = uniqueUsersCount;\n            isRegisteredUser[msg.sender] = true;\n        }\n        _;\n    }\n    \n}",
  "sourcePath": "/Users/Amir/last-pixel-contracts/contracts/Game.sol",
  "compiler": {
    "name": "solc",
    "version": "0.4.24+commit.e67f0147.Emscripten.clang"
  },
  "schemaVersion": "2.0.1",
  "updatedAt": "2019-01-14T08:11:23.017Z"
}