{
  "contractName": "Game",
  "abi": [
    {
      "constant": true,
      "inputs": [],
      "name": "isGamePaused",
      "outputs": [
        {
          "name": "",
          "type": "bool"
        }
      ],
      "payable": false,
      "stateMutability": "view",
      "type": "function"
    },
    {
      "constant": true,
      "inputs": [
        {
          "name": "",
          "type": "uint256"
        },
        {
          "name": "",
          "type": "address"
        }
      ],
      "name": "isInTBT",
      "outputs": [
        {
          "name": "",
          "type": "bool"
        }
      ],
      "payable": false,
      "stateMutability": "view",
      "type": "function"
    },
    {
      "constant": true,
      "inputs": [
        {
          "name": "",
          "type": "bytes32"
        }
      ],
      "name": "refLinkToUser",
      "outputs": [
        {
          "name": "",
          "type": "address"
        }
      ],
      "payable": false,
      "stateMutability": "view",
      "type": "function"
    },
    {
      "constant": true,
      "inputs": [
        {
          "name": "",
          "type": "uint256"
        },
        {
          "name": "",
          "type": "uint256"
        }
      ],
      "name": "colorToTotalPaintsForRound",
      "outputs": [
        {
          "name": "",
          "type": "uint256"
        }
      ],
      "payable": false,
      "stateMutability": "view",
      "type": "function"
    },
    {
      "constant": true,
      "inputs": [
        {
          "name": "",
          "type": "uint256"
        }
      ],
      "name": "ownerOfColor",
      "outputs": [
        {
          "name": "",
          "type": "address"
        }
      ],
      "payable": false,
      "stateMutability": "view",
      "type": "function"
    },
    {
      "constant": true,
      "inputs": [
        {
          "name": "",
          "type": "uint256"
        },
        {
          "name": "",
          "type": "uint256"
        }
      ],
      "name": "colorToPaintedPixelsAmountForRound",
      "outputs": [
        {
          "name": "",
          "type": "uint256"
        }
      ],
      "payable": false,
      "stateMutability": "view",
      "type": "function"
    },
    {
      "constant": true,
      "inputs": [],
      "name": "tbIteration",
      "outputs": [
        {
          "name": "",
          "type": "uint256"
        }
      ],
      "payable": false,
      "stateMutability": "view",
      "type": "function"
    },
    {
      "constant": true,
      "inputs": [
        {
          "name": "",
          "type": "uint256"
        }
      ],
      "name": "winnerOfRound",
      "outputs": [
        {
          "name": "",
          "type": "address"
        }
      ],
      "payable": false,
      "stateMutability": "view",
      "type": "function"
    },
    {
      "constant": true,
      "inputs": [
        {
          "name": "",
          "type": "address"
        }
      ],
      "name": "hasReferrer",
      "outputs": [
        {
          "name": "",
          "type": "bool"
        }
      ],
      "payable": false,
      "stateMutability": "view",
      "type": "function"
    },
    {
      "constant": true,
      "inputs": [
        {
          "name": "",
          "type": "address"
        }
      ],
      "name": "isRegisteredUser",
      "outputs": [
        {
          "name": "",
          "type": "bool"
        }
      ],
      "payable": false,
      "stateMutability": "view",
      "type": "function"
    },
    {
      "constant": true,
      "inputs": [
        {
          "name": "",
          "type": "uint256"
        },
        {
          "name": "",
          "type": "address"
        }
      ],
      "name": "hasPaintDiscountForColor",
      "outputs": [
        {
          "name": "",
          "type": "bool"
        }
      ],
      "payable": false,
      "stateMutability": "view",
      "type": "function"
    },
    {
      "constant": true,
      "inputs": [
        {
          "name": "",
          "type": "address"
        }
      ],
      "name": "isAdmin",
      "outputs": [
        {
          "name": "",
          "type": "bool"
        }
      ],
      "payable": false,
      "stateMutability": "view",
      "type": "function"
    },
    {
      "constant": true,
      "inputs": [
        {
          "name": "",
          "type": "uint256"
        }
      ],
      "name": "currentPaintGenForColor",
      "outputs": [
        {
          "name": "",
          "type": "uint256"
        }
      ],
      "payable": false,
      "stateMutability": "view",
      "type": "function"
    },
    {
      "constant": true,
      "inputs": [
        {
          "name": "",
          "type": "address"
        }
      ],
      "name": "lastPlayedRound",
      "outputs": [
        {
          "name": "",
          "type": "uint256"
        }
      ],
      "payable": false,
      "stateMutability": "view",
      "type": "function"
    },
    {
      "constant": true,
      "inputs": [
        {
          "name": "",
          "type": "uint256"
        },
        {
          "name": "",
          "type": "address"
        }
      ],
      "name": "moneySpentByUserForColor",
      "outputs": [
        {
          "name": "",
          "type": "uint256"
        }
      ],
      "payable": false,
      "stateMutability": "view",
      "type": "function"
    },
    {
      "constant": true,
      "inputs": [
        {
          "name": "",
          "type": "uint256"
        },
        {
          "name": "",
          "type": "uint256"
        }
      ],
      "name": "tbTeam",
      "outputs": [
        {
          "name": "",
          "type": "address"
        }
      ],
      "payable": false,
      "stateMutability": "view",
      "type": "function"
    },
    {
      "constant": true,
      "inputs": [
        {
          "name": "",
          "type": "uint256"
        },
        {
          "name": "",
          "type": "address"
        }
      ],
      "name": "painterToTBP",
      "outputs": [
        {
          "name": "",
          "type": "uint256"
        }
      ],
      "payable": false,
      "stateMutability": "view",
      "type": "function"
    },
    {
      "constant": true,
      "inputs": [
        {
          "name": "",
          "type": "uint256"
        },
        {
          "name": "",
          "type": "uint256"
        }
      ],
      "name": "paintGenToStartTimeForColor",
      "outputs": [
        {
          "name": "",
          "type": "uint256"
        }
      ],
      "payable": false,
      "stateMutability": "view",
      "type": "function"
    },
    {
      "constant": true,
      "inputs": [
        {
          "name": "",
          "type": "uint256"
        }
      ],
      "name": "callPriceForColor",
      "outputs": [
        {
          "name": "",
          "type": "uint256"
        }
      ],
      "payable": false,
      "stateMutability": "view",
      "type": "function"
    },
    {
      "constant": true,
      "inputs": [
        {
          "name": "",
          "type": "uint256"
        },
        {
          "name": "",
          "type": "address"
        }
      ],
      "name": "painterToCBP",
      "outputs": [
        {
          "name": "",
          "type": "uint256"
        }
      ],
      "payable": false,
      "stateMutability": "view",
      "type": "function"
    },
    {
      "constant": true,
      "inputs": [
        {
          "name": "",
          "type": "uint256"
        }
      ],
      "name": "winnerBankForRound",
      "outputs": [
        {
          "name": "",
          "type": "uint256"
        }
      ],
      "payable": false,
      "stateMutability": "view",
      "type": "function"
    },
    {
      "constant": true,
      "inputs": [],
      "name": "paintsCounter",
      "outputs": [
        {
          "name": "",
          "type": "uint256"
        }
      ],
      "payable": false,
      "stateMutability": "view",
      "type": "function"
    },
    {
      "constant": true,
      "inputs": [],
      "name": "founders",
      "outputs": [
        {
          "name": "",
          "type": "address"
        }
      ],
      "payable": false,
      "stateMutability": "view",
      "type": "function"
    },
    {
      "constant": true,
      "inputs": [
        {
          "name": "",
          "type": "address"
        }
      ],
      "name": "newUserToCounter",
      "outputs": [
        {
          "name": "",
          "type": "uint256"
        }
      ],
      "payable": false,
      "stateMutability": "view",
      "type": "function"
    },
    {
      "constant": true,
      "inputs": [
        {
          "name": "",
          "type": "uint256"
        },
        {
          "name": "",
          "type": "uint256"
        }
      ],
      "name": "counterToPainterForColor",
      "outputs": [
        {
          "name": "",
          "type": "address"
        }
      ],
      "payable": false,
      "stateMutability": "view",
      "type": "function"
    },
    {
      "constant": true,
      "inputs": [
        {
          "name": "",
          "type": "uint256"
        },
        {
          "name": "",
          "type": "uint256"
        }
      ],
      "name": "pixelToOldColorForRound",
      "outputs": [
        {
          "name": "",
          "type": "uint256"
        }
      ],
      "payable": false,
      "stateMutability": "view",
      "type": "function"
    },
    {
      "constant": true,
      "inputs": [
        {
          "name": "",
          "type": "uint256"
        }
      ],
      "name": "isTBPTransfered",
      "outputs": [
        {
          "name": "",
          "type": "bool"
        }
      ],
      "payable": false,
      "stateMutability": "view",
      "type": "function"
    },
    {
      "constant": true,
      "inputs": [
        {
          "name": "",
          "type": "uint256"
        }
      ],
      "name": "timeBankForRound",
      "outputs": [
        {
          "name": "",
          "type": "uint256"
        }
      ],
      "payable": false,
      "stateMutability": "view",
      "type": "function"
    },
    {
      "constant": true,
      "inputs": [
        {
          "name": "",
          "type": "address"
        }
      ],
      "name": "userToRefLink",
      "outputs": [
        {
          "name": "",
          "type": "string"
        }
      ],
      "payable": false,
      "stateMutability": "view",
      "type": "function"
    },
    {
      "constant": true,
      "inputs": [],
      "name": "claimId",
      "outputs": [
        {
          "name": "",
          "type": "uint256"
        }
      ],
      "payable": false,
      "stateMutability": "view",
      "type": "function"
    },
    {
      "constant": true,
      "inputs": [
        {
          "name": "",
          "type": "uint256"
        },
        {
          "name": "",
          "type": "uint256"
        }
      ],
      "name": "cbTeam",
      "outputs": [
        {
          "name": "",
          "type": "address"
        }
      ],
      "payable": false,
      "stateMutability": "view",
      "type": "function"
    },
    {
      "constant": true,
      "inputs": [
        {
          "name": "",
          "type": "uint256"
        },
        {
          "name": "",
          "type": "uint256"
        }
      ],
      "name": "paintGenStartedForColor",
      "outputs": [
        {
          "name": "",
          "type": "bool"
        }
      ],
      "payable": false,
      "stateMutability": "view",
      "type": "function"
    },
    {
      "constant": true,
      "inputs": [
        {
          "name": "",
          "type": "uint256"
        }
      ],
      "name": "lastPaintedPixelForRound",
      "outputs": [
        {
          "name": "",
          "type": "uint256"
        }
      ],
      "payable": false,
      "stateMutability": "view",
      "type": "function"
    },
    {
      "constant": true,
      "inputs": [
        {
          "name": "",
          "type": "uint256"
        }
      ],
      "name": "nextCallPriceForColor",
      "outputs": [
        {
          "name": "",
          "type": "uint256"
        }
      ],
      "payable": false,
      "stateMutability": "view",
      "type": "function"
    },
    {
      "constant": false,
      "inputs": [],
      "name": "renounceOwnership",
      "outputs": [],
      "payable": false,
      "stateMutability": "nonpayable",
      "type": "function"
    },
    {
      "constant": true,
      "inputs": [
        {
          "name": "",
          "type": "uint256"
        }
      ],
      "name": "lastPaintTimeForRound",
      "outputs": [
        {
          "name": "",
          "type": "uint256"
        }
      ],
      "payable": false,
      "stateMutability": "view",
      "type": "function"
    },
    {
      "constant": true,
      "inputs": [
        {
          "name": "",
          "type": "uint256"
        }
      ],
      "name": "lastPainterForRound",
      "outputs": [
        {
          "name": "",
          "type": "address"
        }
      ],
      "payable": false,
      "stateMutability": "view",
      "type": "function"
    },
    {
      "constant": true,
      "inputs": [
        {
          "name": "",
          "type": "address"
        }
      ],
      "name": "hasRefLink",
      "outputs": [
        {
          "name": "",
          "type": "bool"
        }
      ],
      "payable": false,
      "stateMutability": "view",
      "type": "function"
    },
    {
      "constant": true,
      "inputs": [
        {
          "name": "",
          "type": "address"
        },
        {
          "name": "",
          "type": "uint256"
        }
      ],
      "name": "referrerToReferrals",
      "outputs": [
        {
          "name": "",
          "type": "address"
        }
      ],
      "payable": false,
      "stateMutability": "view",
      "type": "function"
    },
    {
      "constant": true,
      "inputs": [],
      "name": "currentRound",
      "outputs": [
        {
          "name": "",
          "type": "uint256"
        }
      ],
      "payable": false,
      "stateMutability": "view",
      "type": "function"
    },
    {
      "constant": true,
      "inputs": [],
      "name": "owner",
      "outputs": [
        {
          "name": "",
          "type": "address"
        }
      ],
      "payable": false,
      "stateMutability": "view",
      "type": "function"
    },
    {
      "constant": true,
      "inputs": [
        {
          "name": "",
          "type": "uint256"
        }
      ],
      "name": "paintsCounterForColor",
      "outputs": [
        {
          "name": "",
          "type": "uint256"
        }
      ],
      "payable": false,
      "stateMutability": "view",
      "type": "function"
    },
    {
      "constant": true,
      "inputs": [],
      "name": "isOwner",
      "outputs": [
        {
          "name": "",
          "type": "bool"
        }
      ],
      "payable": false,
      "stateMutability": "view",
      "type": "function"
    },
    {
      "constant": true,
      "inputs": [
        {
          "name": "",
          "type": "uint256"
        },
        {
          "name": "",
          "type": "uint256"
        }
      ],
      "name": "pixelToPaintTimeForRound",
      "outputs": [
        {
          "name": "",
          "type": "uint256"
        }
      ],
      "payable": false,
      "stateMutability": "view",
      "type": "function"
    },
    {
      "constant": true,
      "inputs": [
        {
          "name": "",
          "type": "uint256"
        },
        {
          "name": "",
          "type": "uint256"
        }
      ],
      "name": "colorBankToColorForRound",
      "outputs": [
        {
          "name": "",
          "type": "uint256"
        }
      ],
      "payable": false,
      "stateMutability": "view",
      "type": "function"
    },
    {
      "constant": true,
      "inputs": [
        {
          "name": "",
          "type": "uint256"
        }
      ],
      "name": "claims",
      "outputs": [
        {
          "name": "id",
          "type": "uint256"
        },
        {
          "name": "claimer",
          "type": "address"
        },
        {
          "name": "isResolved",
          "type": "bool"
        },
        {
          "name": "timestamp",
          "type": "uint256"
        }
      ],
      "payable": false,
      "stateMutability": "view",
      "type": "function"
    },
    {
      "constant": true,
      "inputs": [],
      "name": "ownerOfPixel",
      "outputs": [
        {
          "name": "",
          "type": "address"
        }
      ],
      "payable": false,
      "stateMutability": "view",
      "type": "function"
    },
    {
      "constant": true,
      "inputs": [
        {
          "name": "",
          "type": "uint256"
        },
        {
          "name": "",
          "type": "address"
        }
      ],
      "name": "isInCBT",
      "outputs": [
        {
          "name": "",
          "type": "bool"
        }
      ],
      "payable": false,
      "stateMutability": "view",
      "type": "function"
    },
    {
      "constant": true,
      "inputs": [
        {
          "name": "",
          "type": "uint256"
        }
      ],
      "name": "counterToPainter",
      "outputs": [
        {
          "name": "",
          "type": "address"
        }
      ],
      "payable": false,
      "stateMutability": "view",
      "type": "function"
    },
    {
      "constant": true,
      "inputs": [
        {
          "name": "",
          "type": "uint256"
        },
        {
          "name": "",
          "type": "address"
        }
      ],
      "name": "timeBankShare",
      "outputs": [
        {
          "name": "",
          "type": "uint256"
        }
      ],
      "payable": false,
      "stateMutability": "view",
      "type": "function"
    },
    {
      "constant": true,
      "inputs": [
        {
          "name": "",
          "type": "uint256"
        },
        {
          "name": "",
          "type": "uint256"
        },
        {
          "name": "",
          "type": "address"
        }
      ],
      "name": "colorBankShare",
      "outputs": [
        {
          "name": "",
          "type": "uint256"
        }
      ],
      "payable": false,
      "stateMutability": "view",
      "type": "function"
    },
    {
      "constant": true,
      "inputs": [
        {
          "name": "",
          "type": "uint256"
        },
        {
          "name": "",
          "type": "uint256"
        }
      ],
      "name": "pixelToColorForRound",
      "outputs": [
        {
          "name": "",
          "type": "uint256"
        }
      ],
      "payable": false,
      "stateMutability": "view",
      "type": "function"
    },
    {
      "constant": true,
      "inputs": [
        {
          "name": "",
          "type": "uint256"
        }
      ],
      "name": "totalPaintsForRound",
      "outputs": [
        {
          "name": "",
          "type": "uint256"
        }
      ],
      "payable": false,
      "stateMutability": "view",
      "type": "function"
    },
    {
      "constant": true,
      "inputs": [
        {
          "name": "",
          "type": "uint256"
        }
      ],
      "name": "colorBankForRound",
      "outputs": [
        {
          "name": "",
          "type": "uint256"
        }
      ],
      "payable": false,
      "stateMutability": "view",
      "type": "function"
    },
    {
      "constant": true,
      "inputs": [
        {
          "name": "",
          "type": "uint256"
        },
        {
          "name": "",
          "type": "uint256"
        }
      ],
      "name": "paintGenToEndTimeForColor",
      "outputs": [
        {
          "name": "",
          "type": "uint256"
        }
      ],
      "payable": false,
      "stateMutability": "view",
      "type": "function"
    },
    {
      "constant": true,
      "inputs": [],
      "name": "uniqueUsersCount",
      "outputs": [
        {
          "name": "",
          "type": "uint256"
        }
      ],
      "payable": false,
      "stateMutability": "view",
      "type": "function"
    },
    {
      "constant": true,
      "inputs": [
        {
          "name": "",
          "type": "bytes32"
        }
      ],
      "name": "refLinkExists",
      "outputs": [
        {
          "name": "",
          "type": "bool"
        }
      ],
      "payable": false,
      "stateMutability": "view",
      "type": "function"
    },
    {
      "constant": true,
      "inputs": [
        {
          "name": "",
          "type": "uint256"
        },
        {
          "name": "",
          "type": "uint256"
        }
      ],
      "name": "paintGenToAmountForColor",
      "outputs": [
        {
          "name": "",
          "type": "uint256"
        }
      ],
      "payable": false,
      "stateMutability": "view",
      "type": "function"
    },
    {
      "constant": true,
      "inputs": [
        {
          "name": "",
          "type": "uint256"
        }
      ],
      "name": "isCBPTransfered",
      "outputs": [
        {
          "name": "",
          "type": "bool"
        }
      ],
      "payable": false,
      "stateMutability": "view",
      "type": "function"
    },
    {
      "constant": true,
      "inputs": [
        {
          "name": "",
          "type": "address"
        }
      ],
      "name": "referralToReferrer",
      "outputs": [
        {
          "name": "",
          "type": "address"
        }
      ],
      "payable": false,
      "stateMutability": "view",
      "type": "function"
    },
    {
      "constant": true,
      "inputs": [
        {
          "name": "",
          "type": "uint256"
        },
        {
          "name": "",
          "type": "address"
        }
      ],
      "name": "usersPaintDiscountForColor",
      "outputs": [
        {
          "name": "",
          "type": "uint256"
        }
      ],
      "payable": false,
      "stateMutability": "view",
      "type": "function"
    },
    {
      "constant": true,
      "inputs": [],
      "name": "maxPaintsInPool",
      "outputs": [
        {
          "name": "",
          "type": "uint256"
        }
      ],
      "payable": false,
      "stateMutability": "view",
      "type": "function"
    },
    {
      "constant": false,
      "inputs": [
        {
          "name": "newOwner",
          "type": "address"
        }
      ],
      "name": "transferOwnership",
      "outputs": [],
      "payable": false,
      "stateMutability": "nonpayable",
      "type": "function"
    },
    {
      "constant": true,
      "inputs": [
        {
          "name": "",
          "type": "uint256"
        }
      ],
      "name": "winnerColorForRound",
      "outputs": [
        {
          "name": "",
          "type": "uint256"
        }
      ],
      "payable": false,
      "stateMutability": "view",
      "type": "function"
    },
    {
      "constant": true,
      "inputs": [],
      "name": "dividendsBank",
      "outputs": [
        {
          "name": "",
          "type": "uint256"
        }
      ],
      "payable": false,
      "stateMutability": "view",
      "type": "function"
    },
    {
      "constant": true,
      "inputs": [
        {
          "name": "",
          "type": "address"
        }
      ],
      "name": "withdrawalBalances",
      "outputs": [
        {
          "name": "",
          "type": "uint256"
        }
      ],
      "payable": false,
      "stateMutability": "view",
      "type": "function"
    },
    {
      "constant": true,
      "inputs": [],
      "name": "cbIteration",
      "outputs": [
        {
          "name": "",
          "type": "uint256"
        }
      ],
      "payable": false,
      "stateMutability": "view",
      "type": "function"
    },
    {
      "anonymous": false,
      "inputs": [
        {
          "indexed": true,
          "name": "pixelId",
          "type": "uint256"
        },
        {
          "indexed": false,
          "name": "colorId",
          "type": "uint256"
        },
        {
          "indexed": true,
          "name": "painter",
          "type": "address"
        },
        {
          "indexed": true,
          "name": "round",
          "type": "uint256"
        },
        {
          "indexed": false,
          "name": "timestamp",
          "type": "uint256"
        }
      ],
      "name": "Paint",
      "type": "event"
    },
    {
      "anonymous": false,
      "inputs": [
        {
          "indexed": false,
          "name": "winner",
          "type": "address"
        },
        {
          "indexed": true,
          "name": "round",
          "type": "uint256"
        }
      ],
      "name": "ColorBankPlayed",
      "type": "event"
    },
    {
      "anonymous": false,
      "inputs": [
        {
          "indexed": false,
          "name": "winner",
          "type": "address"
        },
        {
          "indexed": true,
          "name": "round",
          "type": "uint256"
        }
      ],
      "name": "TimeBankPlayed",
      "type": "event"
    },
    {
      "anonymous": false,
      "inputs": [
        {
          "indexed": true,
          "name": "newCallPrice",
          "type": "uint256"
        }
      ],
      "name": "CallPriceUpdated",
      "type": "event"
    },
    {
      "anonymous": false,
      "inputs": [
        {
          "indexed": true,
          "name": "previousOwner",
          "type": "address"
        },
        {
          "indexed": true,
          "name": "newOwner",
          "type": "address"
        }
      ],
      "name": "OwnershipTransferred",
      "type": "event"
    },
    {
      "constant": false,
      "inputs": [],
      "name": "hardCode",
      "outputs": [],
      "payable": false,
      "stateMutability": "nonpayable",
      "type": "function"
    },
    {
      "constant": true,
      "inputs": [
        {
          "name": "_pixel",
          "type": "uint256"
        }
      ],
      "name": "getPixelColor",
      "outputs": [
        {
          "name": "",
          "type": "uint256"
        }
      ],
      "payable": false,
      "stateMutability": "view",
      "type": "function"
    },
    {
      "constant": true,
      "inputs": [
        {
          "name": "_pixels",
          "type": "uint256[]"
        },
        {
          "name": "_color",
          "type": "uint256"
        }
      ],
      "name": "estimateCallPrice",
      "outputs": [
        {
          "name": "totalCallPrice",
          "type": "uint256"
        }
      ],
      "payable": false,
      "stateMutability": "view",
      "type": "function"
    },
    {
      "constant": false,
      "inputs": [
        {
          "name": "_pixels",
          "type": "uint256[]"
        },
        {
          "name": "_color",
          "type": "uint256"
        },
        {
          "name": "_refLink",
          "type": "string"
        }
      ],
      "name": "paint",
      "outputs": [],
      "payable": true,
      "stateMutability": "payable",
      "type": "function"
    }
  ],
  "bytecode": "0x608060405273ca35b7d915458ef540ade6068dfe2f44e8fa733c604060006101000a81548173ffffffffffffffffffffffffffffffffffffffff021916908373ffffffffffffffffffffffffffffffffffffffff160217905550733e4d187df7d8a0820eaf4174d17b160157610912604160006101000a81548173ffffffffffffffffffffffffffffffffffffffff021916908373ffffffffffffffffffffffffffffffffffffffff160217905550336000806101000a81548173ffffffffffffffffffffffffffffffffffffffff021916908373ffffffffffffffffffffffffffffffffffffffff1602179055506000809054906101000a900473ffffffffffffffffffffffffffffffffffffffff1673ffffffffffffffffffffffffffffffffffffffff16600073ffffffffffffffffffffffffffffffffffffffff167f8be0079c531659141344cd1fd0a4f28419497f9722a3daafe3b4186f6b6457e060405160405180910390a361461e806101796000396000f300608060405260043610610343576000357c0100000000000000000000000000000000000000000000000000000000900463ffffffff1680630422ddf31461034857806305bdd0be14610377578063099b81ce146103dc5780630ba362211461044d5780630baaea44146104985780630cf9603f146105055780630daa4206146105505780630f6ed86e146105a0578063102f9713146105cb57806318452cd8146106385780631f5bdf5d146106935780631f90c6ed146106ee57806324d7806c1461075357806328361f57146107ae57806328b290f9146107ef5780632c6c1c41146108465780632c7a3dae146108a757806333f9c3881461091e57806334d34b9b1461097f5780633a173505146109965780633c6dd013146109e15780633ca4c18314610a225780633d0d1a7914610a835780633dc3c37714610ac4578063411b007e14610aef57806341c5464e14610b4657806342e453ec14610b9d5780634b39173d14610c145780634c438ad714610c5f5780634c78e40114610ca45780635bfcdb2714610ce55780635c25fd1314610da15780635d63ebb214610dcc5780635f5d554c14610e43578063628a71a314610e925780636f17eb4214610ed3578063715018a614610f1457806373a9ee2614610f2b57806379ecf37614610f6c5780637b68a8f014610fd95780637e1e175c1461101a57806387982ac3146110755780638a19c8bc146111025780638da5cb5b1461112d5780638e2df39c146111845780638f32d59b146111c55780638f63b7e5146111f4578063a31207241461123f578063a888c2cd1461128a578063a977e16814611310578063ab24c7d214611367578063abafb90e146113cc578063ae55ce8214611450578063b0ff59d2146114bd578063b1a3883c1461151e578063b8232d5d14611589578063be7d6226146115d4578063c64a2e5614611615578063c957387b14611656578063c9f8234f146116a1578063d4526e68146116cc578063d5de47c714611715578063da68b12114611760578063deaf0fa1146117a5578063eaf1c91014611828578063eef565da14611889578063f2fde38b146118b4578063f49916f5146118f7578063f5f95b3b14611938578063fb454d2914611963578063fea11fe3146119ba575b600080fd5b34801561035457600080fd5b5061035d6119e5565b604051808215151515815260200191505060405180910390f35b34801561038357600080fd5b506103c260048036038101908080359060200190929190803573ffffffffffffffffffffffffffffffffffffffff1690602001909291905050506119f8565b604051808215151515815260200191505060405180910390f35b3480156103e857600080fd5b5061040b6004803603810190808035600019169060200190929190505050611a27565b604051808273ffffffffffffffffffffffffffffffffffffffff1673ffffffffffffffffffffffffffffffffffffffff16815260200191505060405180910390f35b34801561045957600080fd5b506104826004803603810190808035906020019092919080359060200190929190505050611a5a565b6040518082815260200191505060405180910390f35b3480156104a457600080fd5b506104c360048036038101908080359060200190929190505050611a7f565b604051808273ffffffffffffffffffffffffffffffffffffffff1673ffffffffffffffffffffffffffffffffffffffff16815260200191505060405180910390f35b34801561051157600080fd5b5061053a6004803603810190808035906020019092919080359060200190929190505050611ab2565b6040518082815260200191505060405180910390f35b61059e60048036038101908080359060200190820180359060200191909192939192939080359060200190929190803590602001908201803590602001919091929391929390505050611ad7565b005b3480156105ac57600080fd5b506105b5612405565b6040518082815260200191505060405180910390f35b3480156105d757600080fd5b506105f66004803603810190808035906020019092919050505061240b565b604051808273ffffffffffffffffffffffffffffffffffffffff1673ffffffffffffffffffffffffffffffffffffffff16815260200191505060405180910390f35b34801561064457600080fd5b50610679600480360381019080803573ffffffffffffffffffffffffffffffffffffffff16906020019092919050505061243e565b604051808215151515815260200191505060405180910390f35b34801561069f57600080fd5b506106d4600480360381019080803573ffffffffffffffffffffffffffffffffffffffff16906020019092919050505061245e565b604051808215151515815260200191505060405180910390f35b3480156106fa57600080fd5b5061073960048036038101908080359060200190929190803573ffffffffffffffffffffffffffffffffffffffff16906020019092919050505061247e565b604051808215151515815260200191505060405180910390f35b34801561075f57600080fd5b50610794600480360381019080803573ffffffffffffffffffffffffffffffffffffffff1690602001909291905050506124ad565b604051808215151515815260200191505060405180910390f35b3480156107ba57600080fd5b506107d9600480360381019080803590602001909291905050506124cd565b6040518082815260200191505060405180910390f35b3480156107fb57600080fd5b50610830600480360381019080803573ffffffffffffffffffffffffffffffffffffffff1690602001909291905050506124e5565b6040518082815260200191505060405180910390f35b34801561085257600080fd5b5061089160048036038101908080359060200190929190803573ffffffffffffffffffffffffffffffffffffffff1690602001909291905050506124fd565b6040518082815260200191505060405180910390f35b3480156108b357600080fd5b506108dc6004803603810190808035906020019092919080359060200190929190505050612522565b604051808273ffffffffffffffffffffffffffffffffffffffff1673ffffffffffffffffffffffffffffffffffffffff16815260200191505060405180910390f35b34801561092a57600080fd5b5061096960048036038101908080359060200190929190803573ffffffffffffffffffffffffffffffffffffffff16906020019092919050505061256f565b6040518082815260200191505060405180910390f35b34801561098b57600080fd5b50610994612594565b005b3480156109a257600080fd5b506109cb6004803603810190808035906020019092919080359060200190929190505050612608565b6040518082815260200191505060405180910390f35b3480156109ed57600080fd5b50610a0c6004803603810190808035906020019092919050505061262d565b6040518082815260200191505060405180910390f35b348015610a2e57600080fd5b50610a6d60048036038101908080359060200190929190803573ffffffffffffffffffffffffffffffffffffffff169060200190929190505050612645565b6040518082815260200191505060405180910390f35b348015610a8f57600080fd5b50610aae6004803603810190808035906020019092919050505061266a565b6040518082815260200191505060405180910390f35b348015610ad057600080fd5b50610ad9612682565b6040518082815260200191505060405180910390f35b348015610afb57600080fd5b50610b04612688565b604051808273ffffffffffffffffffffffffffffffffffffffff1673ffffffffffffffffffffffffffffffffffffffff16815260200191505060405180910390f35b348015610b5257600080fd5b50610b87600480360381019080803573ffffffffffffffffffffffffffffffffffffffff1690602001909291905050506126ae565b6040518082815260200191505060405180910390f35b348015610ba957600080fd5b50610bd260048036038101908080359060200190929190803590602001909291905050506126c6565b604051808273ffffffffffffffffffffffffffffffffffffffff1673ffffffffffffffffffffffffffffffffffffffff16815260200191505060405180910390f35b348015610c2057600080fd5b50610c496004803603810190808035906020019092919080359060200190929190505050612708565b6040518082815260200191505060405180910390f35b348015610c6b57600080fd5b50610c8a6004803603810190808035906020019092919050505061272d565b604051808215151515815260200191505060405180910390f35b348015610cb057600080fd5b50610ccf6004803603810190808035906020019092919050505061274d565b6040518082815260200191505060405180910390f35b348015610cf157600080fd5b50610d26600480360381019080803573ffffffffffffffffffffffffffffffffffffffff169060200190929190505050612765565b6040518080602001828103825283818151815260200191508051906020019080838360005b83811015610d66578082015181840152602081019050610d4b565b50505050905090810190601f168015610d935780820380516001836020036101000a031916815260200191505b509250505060405180910390f35b348015610dad57600080fd5b50610db6612815565b6040518082815260200191505060405180910390f35b348015610dd857600080fd5b50610e01600480360381019080803590602001909291908035906020019092919050505061281b565b604051808273ffffffffffffffffffffffffffffffffffffffff1673ffffffffffffffffffffffffffffffffffffffff16815260200191505060405180910390f35b348015610e4f57600080fd5b50610e786004803603810190808035906020019092919080359060200190929190505050612868565b604051808215151515815260200191505060405180910390f35b348015610e9e57600080fd5b50610ebd60048036038101908080359060200190929190505050612897565b6040518082815260200191505060405180910390f35b348015610edf57600080fd5b50610efe600480360381019080803590602001909291905050506128af565b6040518082815260200191505060405180910390f35b348015610f2057600080fd5b50610f296128c7565b005b348015610f3757600080fd5b50610f5660048036038101908080359060200190929190505050612a02565b6040518082815260200191505060405180910390f35b348015610f7857600080fd5b50610f9760048036038101908080359060200190929190505050612a1a565b604051808273ffffffffffffffffffffffffffffffffffffffff1673ffffffffffffffffffffffffffffffffffffffff16815260200191505060405180910390f35b348015610fe557600080fd5b5061100460048036038101908080359060200190929190505050612a4d565b6040518082815260200191505060405180910390f35b34801561102657600080fd5b5061105b600480360381019080803573ffffffffffffffffffffffffffffffffffffffff169060200190929190505050612a7d565b604051808215151515815260200191505060405180910390f35b34801561108157600080fd5b506110c0600480360381019080803573ffffffffffffffffffffffffffffffffffffffff16906020019092919080359060200190929190505050612a9d565b604051808273ffffffffffffffffffffffffffffffffffffffff1673ffffffffffffffffffffffffffffffffffffffff16815260200191505060405180910390f35b34801561110e57600080fd5b50611117612ae9565b6040518082815260200191505060405180910390f35b34801561113957600080fd5b50611142612aef565b604051808273ffffffffffffffffffffffffffffffffffffffff1673ffffffffffffffffffffffffffffffffffffffff16815260200191505060405180910390f35b34801561119057600080fd5b506111af60048036038101908080359060200190929190505050612b18565b6040518082815260200191505060405180910390f35b3480156111d157600080fd5b506111da612b30565b604051808215151515815260200191505060405180910390f35b34801561120057600080fd5b506112296004803603810190808035906020019092919080359060200190929190505050612b87565b6040518082815260200191505060405180910390f35b34801561124b57600080fd5b506112746004803603810190808035906020019092919080359060200190929190505050612bac565b6040518082815260200191505060405180910390f35b34801561129657600080fd5b506112b560048036038101908080359060200190929190505050612bd1565b604051808581526020018473ffffffffffffffffffffffffffffffffffffffff1673ffffffffffffffffffffffffffffffffffffffff1681526020018315151515815260200182815260200194505050505060405180910390f35b34801561131c57600080fd5b50611325612c3d565b604051808273ffffffffffffffffffffffffffffffffffffffff1673ffffffffffffffffffffffffffffffffffffffff16815260200191505060405180910390f35b34801561137357600080fd5b506113b260048036038101908080359060200190929190803573ffffffffffffffffffffffffffffffffffffffff169060200190929190505050612c63565b604051808215151515815260200191505060405180910390f35b3480156113d857600080fd5b5061143a6004803603810190808035906020019082018035906020019080806020026020016040519081016040528093929190818152602001838360200280828437820191505050505050919291929080359060200190929190505050612c92565b6040518082815260200191505060405180910390f35b34801561145c57600080fd5b5061147b60048036038101908080359060200190929190505050612e80565b604051808273ffffffffffffffffffffffffffffffffffffffff1673ffffffffffffffffffffffffffffffffffffffff16815260200191505060405180910390f35b3480156114c957600080fd5b5061150860048036038101908080359060200190929190803573ffffffffffffffffffffffffffffffffffffffff169060200190929190505050612eb3565b6040518082815260200191505060405180910390f35b34801561152a57600080fd5b506115736004803603810190808035906020019092919080359060200190929190803573ffffffffffffffffffffffffffffffffffffffff169060200190929190505050612ed8565b6040518082815260200191505060405180910390f35b34801561159557600080fd5b506115be6004803603810190808035906020019092919080359060200190929190505050612f0a565b6040518082815260200191505060405180910390f35b3480156115e057600080fd5b506115ff60048036038101908080359060200190929190505050612f2f565b6040518082815260200191505060405180910390f35b34801561162157600080fd5b5061164060048036038101908080359060200190929190505050612f47565b6040518082815260200191505060405180910390f35b34801561166257600080fd5b5061168b6004803603810190808035906020019092919080359060200190929190505050612f5f565b6040518082815260200191505060405180910390f35b3480156116ad57600080fd5b506116b6612f84565b6040518082815260200191505060405180910390f35b3480156116d857600080fd5b506116fb6004803603810190808035600019169060200190929190505050612f8a565b604051808215151515815260200191505060405180910390f35b34801561172157600080fd5b5061174a6004803603810190808035906020019092919080359060200190929190505050612faa565b6040518082815260200191505060405180910390f35b34801561176c57600080fd5b5061178b60048036038101908080359060200190929190505050612fcf565b604051808215151515815260200191505060405180910390f35b3480156117b157600080fd5b506117e6600480360381019080803573ffffffffffffffffffffffffffffffffffffffff169060200190929190505050612fef565b604051808273ffffffffffffffffffffffffffffffffffffffff1673ffffffffffffffffffffffffffffffffffffffff16815260200191505060405180910390f35b34801561183457600080fd5b5061187360048036038101908080359060200190929190803573ffffffffffffffffffffffffffffffffffffffff169060200190929190505050613022565b6040518082815260200191505060405180910390f35b34801561189557600080fd5b5061189e613047565b6040518082815260200191505060405180910390f35b3480156118c057600080fd5b506118f5600480360381019080803573ffffffffffffffffffffffffffffffffffffffff16906020019092919050505061304d565b005b34801561190357600080fd5b50611922600480360381019080803590602001909291905050506130d5565b6040518082815260200191505060405180910390f35b34801561194457600080fd5b5061194d6130ed565b6040518082815260200191505060405180910390f35b34801561196f57600080fd5b506119a4600480360381019080803573ffffffffffffffffffffffffffffffffffffffff1690602001909291905050506130f3565b6040518082815260200191505060405180910390f35b3480156119c657600080fd5b506119cf61310b565b6040518082815260200191505060405180910390f35b604160149054906101000a900460ff1681565b60346020528160005260406000206020528060005260406000206000915091509054906101000a900460ff1681565b60236020528060005260406000206000915054906101000a900473ffffffffffffffffffffffffffffffffffffffff1681565b600e602052816000526040600020602052806000526040600020600091509150505481565b603a6020528060005260406000206000915054906101000a900473ffffffffffffffffffffffffffffffffffffffff1681565b6006602052816000526040600020602052806000526040600020600091509150505481565b600082828080601f01602080910402602001604051908101604052809392919081815260200183838082843782019150505050505060008060011515601d60003373ffffffffffffffffffffffffffffffffffffffff1673ffffffffffffffffffffffffffffffffffffffff16815260200190815260200160002060009054906101000a900460ff161515141515611e2857611b7283613111565b6fffffffffffffffffffffffffffffffff1916915060246000836000191660001916815260200190815260200160002060009054906101000a900460ff1615611d6d5760236000836000191660001916815260200190815260200160002060009054906101000a900473ffffffffffffffffffffffffffffffffffffffff169050602060008273ffffffffffffffffffffffffffffffffffffffff1673ffffffffffffffffffffffffffffffffffffffff1681526020019081526020016000203390806001815401808255809150509060018203906000526020600020016000909192909190916101000a81548173ffffffffffffffffffffffffffffffffffffffff021916908373ffffffffffffffffffffffffffffffffffffffff1602179055505080601f60003373ffffffffffffffffffffffffffffffffffffffff1673ffffffffffffffffffffffffffffffffffffffff16815260200190815260200160002060006101000a81548173ffffffffffffffffffffffffffffffffffffffff021916908373ffffffffffffffffffffffffffffffffffffffff1602179055506001602160003373ffffffffffffffffffffffffffffffffffffffff1673ffffffffffffffffffffffffffffffffffffffff16815260200190815260200160002060006101000a81548160ff0219169083151502179055505b611d83600160265461312a90919063ffffffff16565b602681905550602654602560003373ffffffffffffffffffffffffffffffffffffffff1673ffffffffffffffffffffffffffffffffffffffff168152602001908152602001600020819055506001601d60003373ffffffffffffffffffffffffffffffffffffffff1673ffffffffffffffffffffffffffffffffffffffff16815260200190815260200160002060006101000a81548160ff0219169083151502179055505b60001515604160149054906101000a900460ff161515141515611eb3576040517f08c379a000000000000000000000000000000000000000000000000000000000815260040180806020018281038252600e8152602001807f47616d652069732070617573656400000000000000000000000000000000000081525060200191505060405180910390fd5b611eec89898080602002602001604051908101604052809392919081815260200183836020028082843782019150505050505088612c92565b34141515611f62576040517f08c379a00000000000000000000000000000000000000000000000000000000081526004018080602001828103825260108152602001807f57726f6e672063616c6c2070726963650000000000000000000000000000000081525060200191505060405180910390fd5b6104b0600a60006028548152602001908152602001600020544203118015611fa057506000600a600060285481526020019081526020016000205414155b1561229c57600b6000602854815260200190815260200160002060009054906101000a900473ffffffffffffffffffffffffffffffffffffffff16600f6000602854815260200190815260200160002060006101000a81548173ffffffffffffffffffffffffffffffffffffffff021916908373ffffffffffffffffffffffffffffffffffffffff16021790555061206a606461205c602d6009600060285481526020019081526020016000205461314b90919063ffffffff16565b61318990919063ffffffff16565b6036600060295481526020019081526020016000206000600f6000602854815260200190815260200160002060009054906101000a900473ffffffffffffffffffffffffffffffffffffffff1673ffffffffffffffffffffffffffffffffffffffff1673ffffffffffffffffffffffffffffffffffffffff16815260200190815260200160002060008282540192505081905550600160106000602854815260200190815260200160002081905550612142600a6009600060285481526020019081526020016000205461318990919063ffffffff16565b6009600060016028540181526020019081526020016000208190555061219a606461218c602d6009600060285481526020019081526020016000205461314b90919063ffffffff16565b61318990919063ffffffff16565b6009600060285481526020019081526020016000208190555060076000602854815260200190815260200160002054600760006001602854018152602001908152602001600020819055506000600760006028548152602001908152602001600020819055506028547f20f206bcab56eeef408295aaff8745adb98fed16823d758193e9449983d23fd2600f6000602854815260200190815260200160002060009054906101000a900473ffffffffffffffffffffffffffffffffffffffff16604051808273ffffffffffffffffffffffffffffffffffffffff1673ffffffffffffffffffffffffffffffffffffffff16815260200191505060405180910390a25b600093505b888890508410156122d7576122ca89898681811015156122bd57fe5b90506020020135886131b3565b83806001019450506122a1565b6122e087613b28565b6122e987613cc3565b6122f287613f06565b6122fb87614032565b602b60008154809291906001019190505550602e6000888152602001908152602001600020600081548092919060010191905055503360316000602b54815260200190815260200160002060006101000a81548173ffffffffffffffffffffffffffffffffffffffff021916908373ffffffffffffffffffffffffffffffffffffffff16021790555033603260008981526020019081526020016000206000602e60008b815260200190815260200160002054815260200190815260200160002060006101000a81548173ffffffffffffffffffffffffffffffffffffffff021916908373ffffffffffffffffffffffffffffffffffffffff160217905550505050505050505050565b60295481565b600f6020528060005260406000206000915054906101000a900473ffffffffffffffffffffffffffffffffffffffff1681565b60216020528060005260406000206000915054906101000a900460ff1681565b601d6020528060005260406000206000915054906101000a900460ff1681565b601b6020528160005260406000206020528060005260406000206000915091509054906101000a900460ff1681565b60426020528060005260406000206000915054906101000a900460ff1681565b60176020528060005260406000206000915090505481565b60396020528060005260406000206000915090505481565b601a602052816000526040600020602052806000526040600020600091509150505481565b60306020528160005260406000208181548110151561253d57fe5b906000526020600020016000915091509054906101000a900473ffffffffffffffffffffffffffffffffffffffff1681565b6036602052816000526040600020602052806000526040600020600091509150505481565b670de0b6b3a764000060096000602854815260200190815260200160002081905550670de0b6b3a76400006007600060285481526020019081526020016000208190555061270e60066000602854815260200190815260200160002060006002815260200190815260200160002081905550565b6014602052816000526040600020602052806000526040600020600091509150505481565b60186020528060005260406000206000915090505481565b6035602052816000526040600020602052806000526040600020600091509150505481565b60106020528060005260406000206000915090505481565b602b5481565b604160009054906101000a900473ffffffffffffffffffffffffffffffffffffffff1681565b60256020528060005260406000206000915090505481565b60326020528160005260406000206020528060005260406000206000915091509054906101000a900473ffffffffffffffffffffffffffffffffffffffff1681565b6005602052816000526040600020602052806000526040600020600091509150505481565b60386020528060005260406000206000915054906101000a900460ff1681565b60096020528060005260406000206000915090505481565b60226020528060005260406000206000915090508054600181600116156101000203166002900480601f01602080910402602001604051908101604052809291908181526020018280546001816001161561010002031660029004801561280d5780601f106127e25761010080835404028352916020019161280d565b820191906000526020600020905b8154815290600101906020018083116127f057829003601f168201915b505050505081565b603e5481565b602f6020528160005260406000208181548110151561283657fe5b906000526020600020016000915091509054906101000a900473ffffffffffffffffffffffffffffffffffffffff1681565b60166020528160005260406000206020528060005260406000206000915091509054906101000a900460ff1681565b600c6020528060005260406000206000915090505481565b60196020528060005260406000206000915090505481565b6128cf612b30565b1515612943576040517f08c379a000000000000000000000000000000000000000000000000000000000815260040180806020018281038252601a8152602001807f596f7520646f6e742068617665206f776e65722072696768747300000000000081525060200191505060405180910390fd5b600073ffffffffffffffffffffffffffffffffffffffff166000809054906101000a900473ffffffffffffffffffffffffffffffffffffffff1673ffffffffffffffffffffffffffffffffffffffff167f8be0079c531659141344cd1fd0a4f28419497f9722a3daafe3b4186f6b6457e060405160405180910390a360008060006101000a81548173ffffffffffffffffffffffffffffffffffffffff021916908373ffffffffffffffffffffffffffffffffffffffff160217905550565b600a6020528060005260406000206000915090505481565b600b6020528060005260406000206000915054906101000a900473ffffffffffffffffffffffffffffffffffffffff1681565b60006004600060285481526020019081526020016000206000838152602001908152602001600020549050919050565b601e6020528060005260406000206000915054906101000a900460ff1681565b6020805281600052604060002081815481101515612ab757fe5b906000526020600020016000915091509054906101000a900473ffffffffffffffffffffffffffffffffffffffff1681565b60285481565b60008060009054906101000a900473ffffffffffffffffffffffffffffffffffffffff16905090565b602e6020528060005260406000206000915090505481565b60008060009054906101000a900473ffffffffffffffffffffffffffffffffffffffff1673ffffffffffffffffffffffffffffffffffffffff163373ffffffffffffffffffffffffffffffffffffffff1614905090565b6011602052816000526040600020602052806000526040600020600091509150505481565b6008602052816000526040600020602052806000526040600020600091509150505481565b603f81815481101515612be057fe5b90600052602060002090600302016000915090508060000154908060010160009054906101000a900473ffffffffffffffffffffffffffffffffffffffff16908060010160149054906101000a900460ff16908060020154905084565b604060009054906101000a900473ffffffffffffffffffffffffffffffffffffffff1681565b60336020528160005260406000206020528060005260406000206000915091509054906101000a900460ff1681565b6000806000806000806000601a600089815260200190815260200160002060003373ffffffffffffffffffffffffffffffffffffffff1673ffffffffffffffffffffffffffffffffffffffff168152602001908152602001600020549550601b600089815260200190815260200160002060003373ffffffffffffffffffffffffffffffffffffffff1673ffffffffffffffffffffffffffffffffffffffff16815260200190815260200160002060009054906101000a900460ff169450601c600089815260200190815260200160002060003373ffffffffffffffffffffffffffffffffffffffff1673ffffffffffffffffffffffffffffffffffffffff168152602001908152602001600020549350600092505b8851831015612e7457612ded6064612ddf86606403601960008d81526020019081526020016000205461314b90919063ffffffff16565b61318990919063ffffffff16565b9150600115158515151415612e0457819050612e1b565b601960008981526020019081526020016000205490505b80870196508086019550670de0b6b3a764000086101515612e675760019450670de0b6b3a764000086811515612e4d57fe5b049350678ac7230489e8000086101515612e6657600a93505b5b8280600101935050612da8565b50505050505092915050565b60316020528060005260406000206000915054906101000a900473ffffffffffffffffffffffffffffffffffffffff1681565b602c602052816000526040600020602052806000526040600020600091509150505481565b602d60205282600052604060002060205281600052604060002060205280600052604060002060009250925050505481565b6004602052816000526040600020602052806000526040600020600091509150505481565b60126020528060005260406000206000915090505481565b60076020528060005260406000206000915090505481565b6015602052816000526040600020602052806000526040600020600091509150505481565b60265481565b60246020528060005260406000206000915054906101000a900460ff1681565b6013602052816000526040600020602052806000526040600020600091509150505481565b60376020528060005260406000206000915054906101000a900460ff1681565b601f6020528060005260406000206000915054906101000a900473ffffffffffffffffffffffffffffffffffffffff1681565b601c602052816000526040600020602052806000526040600020600091509150505481565b60275481565b613055612b30565b15156130c9576040517f08c379a000000000000000000000000000000000000000000000000000000000815260040180806020018281038252601a8152602001807f596f7520646f6e742068617665206f776e65722072696768747300000000000081525060200191505060405180910390fd5b6130d2816141a5565b50565b600d6020528060005260406000206000915090505481565b603d5481565b603b6020528060005260406000206000915090505481565b602a5481565b6000806060839050602081015191508192505050919050565b600080828401905083811015151561314157600080fd5b8091505092915050565b60008060008414156131605760009150613182565b828402905082848281151561317157fe5b0414151561317e57600080fd5b8091505b5092915050565b60008060008311151561319b57600080fd5b82848115156131a657fe5b0490508091505092915050565b60006131be8261429f565b6000831415151561325d576040517f08c379a00000000000000000000000000000000000000000000000000000000081526004018080602001828103825260278152602001807f54686520706978656c2077697468206964203d203020646f6573206e6f74206581526020017f786973742e2e2e0000000000000000000000000000000000000000000000000081525060400191505060405180910390fd5b600082141515156132fc576040517f08c379a00000000000000000000000000000000000000000000000000000000081526004018080602001828103825260288152602001807f596f752063616e6e6f74207061696e7420746f207472616e73706172656e742081526020017f636f6c6f722e2e2e00000000000000000000000000000000000000000000000081525060400191505060405180910390fd5b81600460006028548152602001908152602001600020600085815260200190815260200160002054141515156133c0576040517f08c379a00000000000000000000000000000000000000000000000000000000081526004018080602001828103825260268152602001807f5468697320706978656c20697320616c7265616479206f66207468697320636f81526020017f6c6f722e2e2e000000000000000000000000000000000000000000000000000081525060400191505060405180910390fd5b6004600060285481526020019081526020016000206000848152602001908152602001600020549050816004600060285481526020019081526020016000206000858152602001908152602001600020819055508060056000602854815260200190815260200160002060008581526020019081526020016000208190555042600a600060285481526020019081526020016000208190555033600b6000602854815260200190815260200160002060006101000a81548173ffffffffffffffffffffffffffffffffffffffff021916908373ffffffffffffffffffffffffffffffffffffffff1602179055506000600660006028548152602001908152602001600020600083815260200190815260200160002054111561354157613516600160066000602854815260200190815260200160002060008481526020019081526020016000205461453d90919063ffffffff16565b6006600060285481526020019081526020016000206000838152602001908152602001600020819055505b61357b600160066000602854815260200190815260200160002060008581526020019081526020016000205461312a90919063ffffffff16565b6006600060285481526020019081526020016000206000848152602001908152602001600020819055506135ce60016012600060285481526020019081526020016000205461312a90919063ffffffff16565b6012600060285481526020019081526020016000208190555042601160006028548152602001908152602001600020600085815260200190815260200160002081905550602c6000602954815260200190815260200160002060003373ffffffffffffffffffffffffffffffffffffffff1673ffffffffffffffffffffffffffffffffffffffff16815260200190815260200160002060008154809291906001019190505550602d6000602a548152602001908152602001600020600083815260200190815260200160002060003373ffffffffffffffffffffffffffffffffffffffff1673ffffffffffffffffffffffffffffffffffffffff168152602001908152602001600020600081548092919060010191905055506137326001601360008581526020019081526020016000206000601760008781526020019081526020016000205481526020019081526020016000205461453d90919063ffffffff16565b601360008481526020019081526020016000206000601760008681526020019081526020016000205481526020019081526020016000208190555082600c60006028548152602001908152602001600020819055506028543373ffffffffffffffffffffffffffffffffffffffff16847faf2d03aa2fdc9b785775529881274caad1884e0279e02729f03eca55d57eea728542604051808381526020018281526020019250505060405180910390a4602854603960003373ffffffffffffffffffffffffffffffffffffffff1673ffffffffffffffffffffffffffffffffffffffff168152602001908152602001600020819055506127106006600060285481526020019081526020016000206000848152602001908152602001600020541415613b235781600d6000602854815260200190815260200160002081905550600b6000602854815260200190815260200160002060009054906101000a900473ffffffffffffffffffffffffffffffffffffffff16600f6000602854815260200190815260200160002060006101000a81548173ffffffffffffffffffffffffffffffffffffffff021916908373ffffffffffffffffffffffffffffffffffffffff160217905550613936606461392860326007600060285481526020019081526020016000205461314b90919063ffffffff16565b61318990919063ffffffff16565b60356000602a5481526020019081526020016000206000600f6000602854815260200190815260200160002060009054906101000a900473ffffffffffffffffffffffffffffffffffffffff1673ffffffffffffffffffffffffffffffffffffffff1673ffffffffffffffffffffffffffffffffffffffff16815260200190815260200160002060008282540192505081905550600260106000602854815260200190815260200160002081905550613a216064613a1360326007600060285481526020019081526020016000205461314b90919063ffffffff16565b61318990919063ffffffff16565b6007600060285481526020019081526020016000208190555060096000602854815260200190815260200160002054600960006001602854018152602001908152602001600020819055506000600960006028548152602001908152602001600020819055506028547f14988f685a0376db6242cb37ed3033028bbc9e8fe0cc4b434a098e6c0150673f600f6000602854815260200190815260200160002060009054906101000a900473ffffffffffffffffffffffffffffffffffffffff16604051808273ffffffffffffffffffffffffffffffffffffffff1673ffffffffffffffffffffffffffffffffffffffff16815260200191505060405180910390a25b505050565b613b87613b526064613b4460283461314b90919063ffffffff16565b61318990919063ffffffff16565b60086000602854815260200190815260200160002060008481526020019081526020016000205461312a90919063ffffffff16565b600860006028548152602001908152602001600020600083815260200190815260200160002081905550613bff613bdb6064613bcd60283461314b90919063ffffffff16565b61318990919063ffffffff16565b6007600060285481526020019081526020016000205461312a90919063ffffffff16565b60076000602854815260200190815260200160002081905550613c66613c426064613c3460283461314b90919063ffffffff16565b61318990919063ffffffff16565b6009600060285481526020019081526020016000205461312a90919063ffffffff16565b60096000602854815260200190815260200160002081905550613cba613ca96064613c9b60143461314b90919063ffffffff16565b61318990919063ffffffff16565b603d5461312a90919063ffffffff16565b603d8190555050565b613d5f613cef6064613ce16019603d5461314b90919063ffffffff16565b61318990919063ffffffff16565b603b6000604160009054906101000a900473ffffffffffffffffffffffffffffffffffffffff1673ffffffffffffffffffffffffffffffffffffffff1673ffffffffffffffffffffffffffffffffffffffff1681526020019081526020016000205461312a90919063ffffffff16565b603b6000604160009054906101000a900473ffffffffffffffffffffffffffffffffffffffff1673ffffffffffffffffffffffffffffffffffffffff1673ffffffffffffffffffffffffffffffffffffffff16815260200190815260200160002081905550613ded6064613ddf6019603d5461314b90919063ffffffff16565b61318990919063ffffffff16565b603b6000603a600085815260200190815260200160002060009054906101000a900473ffffffffffffffffffffffffffffffffffffffff1673ffffffffffffffffffffffffffffffffffffffff1673ffffffffffffffffffffffffffffffffffffffff16815260200190815260200160002060008282540192505081905550613e956064613e876019603d5461314b90919063ffffffff16565b61318990919063ffffffff16565b603b6000604060009054906101000a900473ffffffffffffffffffffffffffffffffffffffff1673ffffffffffffffffffffffffffffffffffffffff1673ffffffffffffffffffffffffffffffffffffffff1681526020019081526020016000206000828254019250508190555050565b34601a600083815260200190815260200160002060003373ffffffffffffffffffffffffffffffffffffffff1673ffffffffffffffffffffffffffffffffffffffff16815260200190815260200160002060008282540192505081905550670de0b6b3a7640000601a600083815260200190815260200160002060003373ffffffffffffffffffffffffffffffffffffffff1673ffffffffffffffffffffffffffffffffffffffff1681526020019081526020016000205410151561402f576001601b600083815260200190815260200160002060003373ffffffffffffffffffffffffffffffffffffffff1673ffffffffffffffffffffffffffffffffffffffff16815260200190815260200160002060006101000a81548160ff0219169083151502179055505b50565b670de0b6b3a7640000601a600083815260200190815260200160002060003373ffffffffffffffffffffffffffffffffffffffff1673ffffffffffffffffffffffffffffffffffffffff1681526020019081526020016000205481151561409557fe5b04601c600083815260200190815260200160002060003373ffffffffffffffffffffffffffffffffffffffff1673ffffffffffffffffffffffffffffffffffffffff16815260200190815260200160002081905550678ac7230489e80000601a600083815260200190815260200160002060003373ffffffffffffffffffffffffffffffffffffffff1673ffffffffffffffffffffffffffffffffffffffff168152602001908152602001600020541015156141a257600a601c600083815260200190815260200160002060003373ffffffffffffffffffffffffffffffffffffffff1673ffffffffffffffffffffffffffffffffffffffff168152602001908152602001600020819055505b50565b600073ffffffffffffffffffffffffffffffffffffffff168173ffffffffffffffffffffffffffffffffffffffff16141515156141e157600080fd5b8073ffffffffffffffffffffffffffffffffffffffff166000809054906101000a900473ffffffffffffffffffffffffffffffffffffffff1673ffffffffffffffffffffffffffffffffffffffff167f8be0079c531659141344cd1fd0a4f28419497f9722a3daafe3b4186f6b6457e060405160405180910390a3806000806101000a81548173ffffffffffffffffffffffffffffffffffffffff021916908373ffffffffffffffffffffffffffffffffffffffff16021790555050565b600080605a6015600085815260200190815260200160002060006001601760008881526020019081526020016000205403815260200190815260200160002054420310151561453857601360008481526020019081526020016000206000601760008681526020019081526020016000205481526020019081526020016000205491506143496001601760008681526020019081526020016000205461312a90919063ffffffff16565b90506000151560166000858152602001908152602001600020600083815260200190815260200160002060009054906101000a900460ff161515141561442d5761439e8260275461453d90919063ffffffff16565b601360008581526020019081526020016000206000838152602001908152602001600020819055504260146000858152602001908152602001600020600083815260200190815260200160002081905550600160166000858152602001908152602001600020600083815260200190815260200160002060006101000a81548160ff0219169083151502179055505b6001601360008581526020019081526020016000206000601760008781526020019081526020016000205481526020019081526020016000205414156144b3576144768361455e565b4260156000858152602001908152602001600020600060176000878152602001908152602001600020548152602001908152602001600020819055505b60006013600085815260200190815260200160002060006017600087815260200190815260200160002054815260200190815260200160002054141561453757601960008481526020019081526020016000205460186000858152602001908152602001600020819055508060176000858152602001908152602001600020819055505b5b505050565b60008083831115151561454f57600080fd5b82840390508091505092915050565b614598606461458a6069601860008681526020019081526020016000205461314b90919063ffffffff16565b61318990919063ffffffff16565b601960008381526020019081526020016000208190555060186000828152602001908152602001600020547f3bb22f778670a5901bff4d41c425858dac1ea6aeb048d40f959a6bc43f98506160405160405180910390a2505600a165627a7a7230582037a6e68678feb760562d6f6ab5cc7e0bc04c6417a946a3b1f3a34966d0ea96a90029",
  "source": "pragma solidity ^0.4.24;\n\n// import \"../node_modules/openzeppelin-solidity/contracts/ownership/Ownable.sol\";\nimport \"./PaintsPool.sol\";\nimport \"./PaintDiscount.sol\";\nimport \"./Modifiers.sol\";\n\ncontract Game is PaintDiscount, PaintsPool, Modifiers {\n\n    using SafeMath for uint;\n\n    //\n    event Paint(uint indexed pixelId, uint colorId, address indexed painter, uint indexed round, uint timestamp);\n    event ColorBankPlayed(address winner, uint indexed round);\n    event TimeBankPlayed(address winner, uint indexed round);\n   \n    function hardCode() external {\n        timeBankForRound[currentRound] = 1 ether;\n        colorBankForRound[currentRound] = 1 ether;\n        colorToPaintedPixelsAmountForRound[currentRound][2] = 9998; \n    }\n    \n    //     \n    function getPixelColor(uint _pixel) external view returns (uint) {\n        return pixelToColorForRound[currentRound][_pixel];\n    }\n    \n    //      \n    function estimateCallPrice(uint[] _pixels, uint _color) public view returns (uint totalCallPrice) {\n\n        uint moneySpent = moneySpentByUserForColor[_color][msg.sender];\n        bool hasDiscount = hasPaintDiscountForColor[_color][msg.sender];\n        uint discount = usersPaintDiscountForColor[_color][msg.sender];\n        \n        for (uint i = 0; i < _pixels.length; i++) {\n            \n            uint discountCallPrice = (nextCallPriceForColor[_color].mul(100 - discount)).div(100);\n            \n            if (hasDiscount == true) \n                uint price = discountCallPrice;\n            else\n                price = nextCallPriceForColor[_color]; \n\n            totalCallPrice += price;\n            moneySpent += price;\n\n            if (moneySpent >= 1 ether) {\n                \n                hasDiscount = true;\n                discount = moneySpent / 1 ether;\n                \n                if (moneySpent >= 10 ether)\n                    discount = 10;\n            }\n            \n        }   \n    }\n\n    function paint(uint[] _pixels, uint _color, string _refLink) external payable isRegistered(_refLink) isLiveGame {\n\n        require(msg.value == estimateCallPrice(_pixels, _color), \"Wrong call price\");\n        \n        //    20        \n        if (now - lastPaintTimeForRound[currentRound] > 20 minutes && lastPaintTimeForRound[currentRound] != 0) {\n\n            //    \n            //   -       \n            winnerOfRound[currentRound] = lastPainterForRound[currentRound];\n\n            painterToTBP[tbIteration][winnerOfRound[currentRound]] += timeBankForRound[currentRound].mul(45).div(100); \n            \n            //    =   (1)\n            winnerBankForRound[currentRound] = 1; \n            //10%      \n            timeBankForRound[currentRound + 1] = timeBankForRound[currentRound].div(10); \n            //45%        \n            timeBankForRound[currentRound] = timeBankForRound[currentRound].mul(45).div(100); \n            //     \n            colorBankForRound[currentRound + 1] = colorBankForRound[currentRound]; \n            //     \n            colorBankForRound[currentRound] = 0; \n            // -     (, )\n            emit TimeBankPlayed(winnerOfRound[currentRound], currentRound);\n        }\n        \n        // \n        for (uint i = 0; i < _pixels.length; i++) {\n            _paint(_pixels[i], _color);\n        }\n        \n         //   \n        _setBanks(_color);\n            \n        //  ( ) \n        _distributeDividends(_color);\n    \n         //         \n        _setMoneySpentByUserForColor(_color); \n        \n        //         \n        _setUsersPaintDiscountForColor(_color);\n\n        paintsCounter++; //   \n        paintsCounterForColor[_color] ++; //   \n        counterToPainter[paintsCounter] = msg.sender; //  => \n        counterToPainterForColor[_color][paintsCounterForColor[_color]] = msg.sender; //    => \n\n    }   \n\n    //   \n    function _paint(uint _pixel, uint _color) internal {\n\n        //          paint\n        _fillPaintsPool(_color);\n\n        require(_pixel != 0, \"The pixel with id = 0 does not exist...\");\n        require(_color != 0, \"You cannot paint to transparent color...\");\n        require(pixelToColorForRound[currentRound][_pixel] != _color, \"This pixel is already of this color...\");\n\n        //paint    \n        //    \n        uint oldColor = pixelToColorForRound[currentRound][_pixel];\n    \n        //   \n        pixelToColorForRound[currentRound][_pixel] = _color; \n            \n        //c    \n        pixelToOldColorForRound[currentRound][_pixel] = oldColor; \n                \n        //         \n        lastPaintTimeForRound[currentRound] = now; \n    \n        //          \n        lastPainterForRound[currentRound] = msg.sender;\n                \n        //    ,   \n        if (colorToPaintedPixelsAmountForRound[currentRound][oldColor] > 0) \n            colorToPaintedPixelsAmountForRound[currentRound][oldColor] = colorToPaintedPixelsAmountForRound[currentRound][oldColor].sub(1); \n    \n        //   ,   \n        colorToPaintedPixelsAmountForRound[currentRound][_color] = colorToPaintedPixelsAmountForRound[currentRound][_color].add(1); \n    \n        //         \n        totalPaintsForRound[currentRound] = totalPaintsForRound[currentRound].add(1); \n\n        pixelToPaintTimeForRound[currentRound][_pixel] = now;\n\n        timeBankShare[tbIteration][msg.sender]++;\n        colorBankShare[cbIteration][_color][msg.sender]++;\n                \n        //     1  \n        paintGenToAmountForColor[_color][currentPaintGenForColor[_color]] = paintGenToAmountForColor[_color][currentPaintGenForColor[_color]].sub(1);\n        \n        //      \n        lastPaintedPixelForRound[currentRound] = _pixel;\n        \n        // -   (, ,  )\n        emit Paint(_pixel, _color, msg.sender, currentRound, now);    \n\n        //         \n        lastPlayedRound[msg.sender] = currentRound;\n            \n        //            \n        if (colorToPaintedPixelsAmountForRound[currentRound][_color] == 10000) {\n\n            //    \n            winnerColorForRound[currentRound] = _color;\n\n            //    \n            winnerOfRound[currentRound] = lastPainterForRound[currentRound];        \n            painterToCBP[cbIteration][winnerOfRound[currentRound]] += colorBankForRound[currentRound].mul(50).div(100); \n            winnerBankForRound[currentRound] = 2;//    =   (2)\n            //50%       \n            colorBankForRound[currentRound] = colorBankForRound[currentRound].mul(50).div(100); \n            timeBankForRound[currentRound + 1] = timeBankForRound[currentRound];//     \n            timeBankForRound[currentRound] = 0;//           \n            emit ColorBankPlayed(winnerOfRound[currentRound], currentRound);  \n\n            //distributeCBP();\n        }\n    }\n\n    //  \n    function _setBanks(uint _color) private {\n        \n        colorBankToColorForRound[currentRound][_color] = colorBankToColorForRound[currentRound][_color].add(msg.value.mul(40).div(100));\n\n        //40%     \n        colorBankForRound[currentRound] = colorBankForRound[currentRound].add(msg.value.mul(40).div(100));\n\n        //40%     \n        timeBankForRound[currentRound] = timeBankForRound[currentRound].add(msg.value.mul(40).div(100));\n\n        //20%      \n        dividendsBank = dividendsBank.add(msg.value.mul(20).div(100)); \n    }\n\n    //   ( ) -         \n    function _distributeDividends(uint _color) internal {\n        \n        //require(ownerOfColor[_color] != address(0), \"There is no such color\");\n\n        //25%    (   )\n        withdrawalBalances[founders] = withdrawalBalances[founders].add(dividendsBank.mul(25).div(100)); \n    \n        //25%    \n        withdrawalBalances[ownerOfColor[_color]] += dividendsBank.mul(25).div(100);\n    \n        //25%    \n        withdrawalBalances[ownerOfPixel] += dividendsBank.mul(25).div(100);\n    \n        //25%   ,   \n        // withdrawalBalances[referrer] += dividendsBank.mul(25).div(100);\n    }\n      \n    \n}",
  "sourcePath": "/Users/Amir/last-pixel-contracts/contracts/Game.sol",
  "compiler": {
    "name": "solc",
    "version": "0.4.24+commit.e67f0147.Emscripten.clang"
  },
  "schemaVersion": "2.0.1",
  "updatedAt": "2019-01-07T13:01:30.498Z"
}