{
  "contractName": "Game",
  "abi": [
    {
      "constant": true,
      "inputs": [],
      "name": "isGamePaused",
      "outputs": [
        {
          "name": "",
          "type": "bool"
        }
      ],
      "payable": false,
      "stateMutability": "view",
      "type": "function"
    },
    {
      "constant": true,
      "inputs": [
        {
          "name": "",
          "type": "uint256"
        },
        {
          "name": "",
          "type": "address"
        }
      ],
      "name": "isInTBT",
      "outputs": [
        {
          "name": "",
          "type": "bool"
        }
      ],
      "payable": false,
      "stateMutability": "view",
      "type": "function"
    },
    {
      "constant": true,
      "inputs": [
        {
          "name": "",
          "type": "bytes32"
        }
      ],
      "name": "refLinkToUser",
      "outputs": [
        {
          "name": "",
          "type": "address"
        }
      ],
      "payable": false,
      "stateMutability": "view",
      "type": "function"
    },
    {
      "constant": true,
      "inputs": [
        {
          "name": "",
          "type": "uint256"
        },
        {
          "name": "",
          "type": "uint256"
        }
      ],
      "name": "colorToTotalPaintsForRound",
      "outputs": [
        {
          "name": "",
          "type": "uint256"
        }
      ],
      "payable": false,
      "stateMutability": "view",
      "type": "function"
    },
    {
      "constant": true,
      "inputs": [
        {
          "name": "",
          "type": "uint256"
        }
      ],
      "name": "ownerOfColor",
      "outputs": [
        {
          "name": "",
          "type": "address"
        }
      ],
      "payable": false,
      "stateMutability": "view",
      "type": "function"
    },
    {
      "constant": true,
      "inputs": [
        {
          "name": "",
          "type": "uint256"
        },
        {
          "name": "",
          "type": "uint256"
        }
      ],
      "name": "colorToPaintedPixelsAmountForRound",
      "outputs": [
        {
          "name": "",
          "type": "uint256"
        }
      ],
      "payable": false,
      "stateMutability": "view",
      "type": "function"
    },
    {
      "constant": true,
      "inputs": [],
      "name": "tbIteration",
      "outputs": [
        {
          "name": "",
          "type": "uint256"
        }
      ],
      "payable": false,
      "stateMutability": "view",
      "type": "function"
    },
    {
      "constant": true,
      "inputs": [
        {
          "name": "",
          "type": "uint256"
        }
      ],
      "name": "winnerOfRound",
      "outputs": [
        {
          "name": "",
          "type": "address"
        }
      ],
      "payable": false,
      "stateMutability": "view",
      "type": "function"
    },
    {
      "constant": true,
      "inputs": [
        {
          "name": "",
          "type": "address"
        }
      ],
      "name": "hasReferrer",
      "outputs": [
        {
          "name": "",
          "type": "bool"
        }
      ],
      "payable": false,
      "stateMutability": "view",
      "type": "function"
    },
    {
      "constant": true,
      "inputs": [
        {
          "name": "",
          "type": "address"
        }
      ],
      "name": "isRegisteredUser",
      "outputs": [
        {
          "name": "",
          "type": "bool"
        }
      ],
      "payable": false,
      "stateMutability": "view",
      "type": "function"
    },
    {
      "constant": true,
      "inputs": [
        {
          "name": "",
          "type": "uint256"
        },
        {
          "name": "",
          "type": "address"
        }
      ],
      "name": "hasPaintDiscountForColor",
      "outputs": [
        {
          "name": "",
          "type": "bool"
        }
      ],
      "payable": false,
      "stateMutability": "view",
      "type": "function"
    },
    {
      "constant": true,
      "inputs": [
        {
          "name": "",
          "type": "address"
        }
      ],
      "name": "isAdmin",
      "outputs": [
        {
          "name": "",
          "type": "bool"
        }
      ],
      "payable": false,
      "stateMutability": "view",
      "type": "function"
    },
    {
      "constant": true,
      "inputs": [
        {
          "name": "",
          "type": "uint256"
        }
      ],
      "name": "currentPaintGenForColor",
      "outputs": [
        {
          "name": "",
          "type": "uint256"
        }
      ],
      "payable": false,
      "stateMutability": "view",
      "type": "function"
    },
    {
      "constant": true,
      "inputs": [
        {
          "name": "",
          "type": "address"
        }
      ],
      "name": "lastPlayedRound",
      "outputs": [
        {
          "name": "",
          "type": "uint256"
        }
      ],
      "payable": false,
      "stateMutability": "view",
      "type": "function"
    },
    {
      "constant": true,
      "inputs": [
        {
          "name": "",
          "type": "uint256"
        },
        {
          "name": "",
          "type": "address"
        }
      ],
      "name": "moneySpentByUserForColor",
      "outputs": [
        {
          "name": "",
          "type": "uint256"
        }
      ],
      "payable": false,
      "stateMutability": "view",
      "type": "function"
    },
    {
      "constant": true,
      "inputs": [
        {
          "name": "",
          "type": "uint256"
        },
        {
          "name": "",
          "type": "uint256"
        }
      ],
      "name": "tbTeam",
      "outputs": [
        {
          "name": "",
          "type": "address"
        }
      ],
      "payable": false,
      "stateMutability": "view",
      "type": "function"
    },
    {
      "constant": true,
      "inputs": [
        {
          "name": "",
          "type": "uint256"
        },
        {
          "name": "",
          "type": "address"
        }
      ],
      "name": "painterToTBP",
      "outputs": [
        {
          "name": "",
          "type": "uint256"
        }
      ],
      "payable": false,
      "stateMutability": "view",
      "type": "function"
    },
    {
      "constant": true,
      "inputs": [
        {
          "name": "",
          "type": "uint256"
        },
        {
          "name": "",
          "type": "uint256"
        }
      ],
      "name": "paintGenToStartTimeForColor",
      "outputs": [
        {
          "name": "",
          "type": "uint256"
        }
      ],
      "payable": false,
      "stateMutability": "view",
      "type": "function"
    },
    {
      "constant": true,
      "inputs": [
        {
          "name": "",
          "type": "uint256"
        }
      ],
      "name": "callPriceForColor",
      "outputs": [
        {
          "name": "",
          "type": "uint256"
        }
      ],
      "payable": false,
      "stateMutability": "view",
      "type": "function"
    },
    {
      "constant": true,
      "inputs": [
        {
          "name": "",
          "type": "uint256"
        },
        {
          "name": "",
          "type": "address"
        }
      ],
      "name": "painterToCBP",
      "outputs": [
        {
          "name": "",
          "type": "uint256"
        }
      ],
      "payable": false,
      "stateMutability": "view",
      "type": "function"
    },
    {
      "constant": true,
      "inputs": [
        {
          "name": "",
          "type": "uint256"
        }
      ],
      "name": "winnerBankForRound",
      "outputs": [
        {
          "name": "",
          "type": "uint256"
        }
      ],
      "payable": false,
      "stateMutability": "view",
      "type": "function"
    },
    {
      "constant": true,
      "inputs": [],
      "name": "paintsCounter",
      "outputs": [
        {
          "name": "",
          "type": "uint256"
        }
      ],
      "payable": false,
      "stateMutability": "view",
      "type": "function"
    },
    {
      "constant": true,
      "inputs": [],
      "name": "founders",
      "outputs": [
        {
          "name": "",
          "type": "address"
        }
      ],
      "payable": false,
      "stateMutability": "view",
      "type": "function"
    },
    {
      "constant": true,
      "inputs": [
        {
          "name": "",
          "type": "address"
        }
      ],
      "name": "newUserToCounter",
      "outputs": [
        {
          "name": "",
          "type": "uint256"
        }
      ],
      "payable": false,
      "stateMutability": "view",
      "type": "function"
    },
    {
      "constant": true,
      "inputs": [
        {
          "name": "",
          "type": "uint256"
        },
        {
          "name": "",
          "type": "uint256"
        }
      ],
      "name": "counterToPainterForColor",
      "outputs": [
        {
          "name": "",
          "type": "address"
        }
      ],
      "payable": false,
      "stateMutability": "view",
      "type": "function"
    },
    {
      "constant": true,
      "inputs": [
        {
          "name": "",
          "type": "uint256"
        },
        {
          "name": "",
          "type": "uint256"
        }
      ],
      "name": "pixelToOldColorForRound",
      "outputs": [
        {
          "name": "",
          "type": "uint256"
        }
      ],
      "payable": false,
      "stateMutability": "view",
      "type": "function"
    },
    {
      "constant": true,
      "inputs": [
        {
          "name": "",
          "type": "uint256"
        }
      ],
      "name": "isTBPTransfered",
      "outputs": [
        {
          "name": "",
          "type": "bool"
        }
      ],
      "payable": false,
      "stateMutability": "view",
      "type": "function"
    },
    {
      "constant": true,
      "inputs": [
        {
          "name": "",
          "type": "uint256"
        }
      ],
      "name": "timeBankForRound",
      "outputs": [
        {
          "name": "",
          "type": "uint256"
        }
      ],
      "payable": false,
      "stateMutability": "view",
      "type": "function"
    },
    {
      "constant": true,
      "inputs": [
        {
          "name": "",
          "type": "address"
        }
      ],
      "name": "userToRefLink",
      "outputs": [
        {
          "name": "",
          "type": "string"
        }
      ],
      "payable": false,
      "stateMutability": "view",
      "type": "function"
    },
    {
      "constant": true,
      "inputs": [],
      "name": "claimId",
      "outputs": [
        {
          "name": "",
          "type": "uint256"
        }
      ],
      "payable": false,
      "stateMutability": "view",
      "type": "function"
    },
    {
      "constant": true,
      "inputs": [
        {
          "name": "",
          "type": "uint256"
        },
        {
          "name": "",
          "type": "uint256"
        }
      ],
      "name": "cbTeam",
      "outputs": [
        {
          "name": "",
          "type": "address"
        }
      ],
      "payable": false,
      "stateMutability": "view",
      "type": "function"
    },
    {
      "constant": true,
      "inputs": [
        {
          "name": "",
          "type": "uint256"
        },
        {
          "name": "",
          "type": "uint256"
        }
      ],
      "name": "paintGenStartedForColor",
      "outputs": [
        {
          "name": "",
          "type": "bool"
        }
      ],
      "payable": false,
      "stateMutability": "view",
      "type": "function"
    },
    {
      "constant": true,
      "inputs": [
        {
          "name": "",
          "type": "uint256"
        }
      ],
      "name": "lastPaintedPixelForRound",
      "outputs": [
        {
          "name": "",
          "type": "uint256"
        }
      ],
      "payable": false,
      "stateMutability": "view",
      "type": "function"
    },
    {
      "constant": true,
      "inputs": [
        {
          "name": "",
          "type": "uint256"
        }
      ],
      "name": "nextCallPriceForColor",
      "outputs": [
        {
          "name": "",
          "type": "uint256"
        }
      ],
      "payable": false,
      "stateMutability": "view",
      "type": "function"
    },
    {
      "constant": false,
      "inputs": [],
      "name": "renounceOwnership",
      "outputs": [],
      "payable": false,
      "stateMutability": "nonpayable",
      "type": "function"
    },
    {
      "constant": true,
      "inputs": [
        {
          "name": "",
          "type": "uint256"
        }
      ],
      "name": "lastPaintTimeForRound",
      "outputs": [
        {
          "name": "",
          "type": "uint256"
        }
      ],
      "payable": false,
      "stateMutability": "view",
      "type": "function"
    },
    {
      "constant": true,
      "inputs": [
        {
          "name": "",
          "type": "uint256"
        }
      ],
      "name": "lastPainterForRound",
      "outputs": [
        {
          "name": "",
          "type": "address"
        }
      ],
      "payable": false,
      "stateMutability": "view",
      "type": "function"
    },
    {
      "constant": true,
      "inputs": [
        {
          "name": "",
          "type": "address"
        }
      ],
      "name": "hasRefLink",
      "outputs": [
        {
          "name": "",
          "type": "bool"
        }
      ],
      "payable": false,
      "stateMutability": "view",
      "type": "function"
    },
    {
      "constant": true,
      "inputs": [
        {
          "name": "",
          "type": "address"
        },
        {
          "name": "",
          "type": "uint256"
        }
      ],
      "name": "referrerToReferrals",
      "outputs": [
        {
          "name": "",
          "type": "address"
        }
      ],
      "payable": false,
      "stateMutability": "view",
      "type": "function"
    },
    {
      "constant": true,
      "inputs": [],
      "name": "currentRound",
      "outputs": [
        {
          "name": "",
          "type": "uint256"
        }
      ],
      "payable": false,
      "stateMutability": "view",
      "type": "function"
    },
    {
      "constant": true,
      "inputs": [],
      "name": "owner",
      "outputs": [
        {
          "name": "",
          "type": "address"
        }
      ],
      "payable": false,
      "stateMutability": "view",
      "type": "function"
    },
    {
      "constant": true,
      "inputs": [
        {
          "name": "",
          "type": "uint256"
        }
      ],
      "name": "paintsCounterForColor",
      "outputs": [
        {
          "name": "",
          "type": "uint256"
        }
      ],
      "payable": false,
      "stateMutability": "view",
      "type": "function"
    },
    {
      "constant": true,
      "inputs": [],
      "name": "isOwner",
      "outputs": [
        {
          "name": "",
          "type": "bool"
        }
      ],
      "payable": false,
      "stateMutability": "view",
      "type": "function"
    },
    {
      "constant": true,
      "inputs": [
        {
          "name": "",
          "type": "uint256"
        },
        {
          "name": "",
          "type": "uint256"
        }
      ],
      "name": "pixelToPaintTimeForRound",
      "outputs": [
        {
          "name": "",
          "type": "uint256"
        }
      ],
      "payable": false,
      "stateMutability": "view",
      "type": "function"
    },
    {
      "constant": true,
      "inputs": [
        {
          "name": "",
          "type": "uint256"
        },
        {
          "name": "",
          "type": "uint256"
        }
      ],
      "name": "colorBankToColorForRound",
      "outputs": [
        {
          "name": "",
          "type": "uint256"
        }
      ],
      "payable": false,
      "stateMutability": "view",
      "type": "function"
    },
    {
      "constant": true,
      "inputs": [
        {
          "name": "",
          "type": "uint256"
        }
      ],
      "name": "claims",
      "outputs": [
        {
          "name": "id",
          "type": "uint256"
        },
        {
          "name": "claimer",
          "type": "address"
        },
        {
          "name": "isResolved",
          "type": "bool"
        },
        {
          "name": "timestamp",
          "type": "uint256"
        }
      ],
      "payable": false,
      "stateMutability": "view",
      "type": "function"
    },
    {
      "constant": true,
      "inputs": [],
      "name": "ownerOfPixel",
      "outputs": [
        {
          "name": "",
          "type": "address"
        }
      ],
      "payable": false,
      "stateMutability": "view",
      "type": "function"
    },
    {
      "constant": true,
      "inputs": [
        {
          "name": "",
          "type": "uint256"
        },
        {
          "name": "",
          "type": "address"
        }
      ],
      "name": "isInCBT",
      "outputs": [
        {
          "name": "",
          "type": "bool"
        }
      ],
      "payable": false,
      "stateMutability": "view",
      "type": "function"
    },
    {
      "constant": true,
      "inputs": [
        {
          "name": "",
          "type": "uint256"
        }
      ],
      "name": "counterToPainter",
      "outputs": [
        {
          "name": "",
          "type": "address"
        }
      ],
      "payable": false,
      "stateMutability": "view",
      "type": "function"
    },
    {
      "constant": true,
      "inputs": [
        {
          "name": "",
          "type": "uint256"
        },
        {
          "name": "",
          "type": "address"
        }
      ],
      "name": "timeBankShare",
      "outputs": [
        {
          "name": "",
          "type": "uint256"
        }
      ],
      "payable": false,
      "stateMutability": "view",
      "type": "function"
    },
    {
      "constant": true,
      "inputs": [
        {
          "name": "",
          "type": "uint256"
        },
        {
          "name": "",
          "type": "uint256"
        },
        {
          "name": "",
          "type": "address"
        }
      ],
      "name": "colorBankShare",
      "outputs": [
        {
          "name": "",
          "type": "uint256"
        }
      ],
      "payable": false,
      "stateMutability": "view",
      "type": "function"
    },
    {
      "constant": true,
      "inputs": [
        {
          "name": "",
          "type": "uint256"
        },
        {
          "name": "",
          "type": "uint256"
        }
      ],
      "name": "pixelToColorForRound",
      "outputs": [
        {
          "name": "",
          "type": "uint256"
        }
      ],
      "payable": false,
      "stateMutability": "view",
      "type": "function"
    },
    {
      "constant": true,
      "inputs": [
        {
          "name": "",
          "type": "uint256"
        }
      ],
      "name": "totalPaintsForRound",
      "outputs": [
        {
          "name": "",
          "type": "uint256"
        }
      ],
      "payable": false,
      "stateMutability": "view",
      "type": "function"
    },
    {
      "constant": true,
      "inputs": [
        {
          "name": "",
          "type": "uint256"
        }
      ],
      "name": "colorBankForRound",
      "outputs": [
        {
          "name": "",
          "type": "uint256"
        }
      ],
      "payable": false,
      "stateMutability": "view",
      "type": "function"
    },
    {
      "constant": true,
      "inputs": [
        {
          "name": "",
          "type": "uint256"
        },
        {
          "name": "",
          "type": "uint256"
        }
      ],
      "name": "paintGenToEndTimeForColor",
      "outputs": [
        {
          "name": "",
          "type": "uint256"
        }
      ],
      "payable": false,
      "stateMutability": "view",
      "type": "function"
    },
    {
      "constant": true,
      "inputs": [],
      "name": "uniqueUsersCount",
      "outputs": [
        {
          "name": "",
          "type": "uint256"
        }
      ],
      "payable": false,
      "stateMutability": "view",
      "type": "function"
    },
    {
      "constant": true,
      "inputs": [
        {
          "name": "",
          "type": "bytes32"
        }
      ],
      "name": "refLinkExists",
      "outputs": [
        {
          "name": "",
          "type": "bool"
        }
      ],
      "payable": false,
      "stateMutability": "view",
      "type": "function"
    },
    {
      "constant": true,
      "inputs": [
        {
          "name": "",
          "type": "uint256"
        },
        {
          "name": "",
          "type": "uint256"
        }
      ],
      "name": "paintGenToAmountForColor",
      "outputs": [
        {
          "name": "",
          "type": "uint256"
        }
      ],
      "payable": false,
      "stateMutability": "view",
      "type": "function"
    },
    {
      "constant": true,
      "inputs": [
        {
          "name": "",
          "type": "uint256"
        }
      ],
      "name": "isCBPTransfered",
      "outputs": [
        {
          "name": "",
          "type": "bool"
        }
      ],
      "payable": false,
      "stateMutability": "view",
      "type": "function"
    },
    {
      "constant": true,
      "inputs": [
        {
          "name": "",
          "type": "address"
        }
      ],
      "name": "referralToReferrer",
      "outputs": [
        {
          "name": "",
          "type": "address"
        }
      ],
      "payable": false,
      "stateMutability": "view",
      "type": "function"
    },
    {
      "constant": true,
      "inputs": [
        {
          "name": "",
          "type": "uint256"
        },
        {
          "name": "",
          "type": "address"
        }
      ],
      "name": "usersPaintDiscountForColor",
      "outputs": [
        {
          "name": "",
          "type": "uint256"
        }
      ],
      "payable": false,
      "stateMutability": "view",
      "type": "function"
    },
    {
      "constant": true,
      "inputs": [],
      "name": "maxPaintsInPool",
      "outputs": [
        {
          "name": "",
          "type": "uint256"
        }
      ],
      "payable": false,
      "stateMutability": "view",
      "type": "function"
    },
    {
      "constant": false,
      "inputs": [
        {
          "name": "newOwner",
          "type": "address"
        }
      ],
      "name": "transferOwnership",
      "outputs": [],
      "payable": false,
      "stateMutability": "nonpayable",
      "type": "function"
    },
    {
      "constant": true,
      "inputs": [
        {
          "name": "",
          "type": "uint256"
        }
      ],
      "name": "winnerColorForRound",
      "outputs": [
        {
          "name": "",
          "type": "uint256"
        }
      ],
      "payable": false,
      "stateMutability": "view",
      "type": "function"
    },
    {
      "constant": true,
      "inputs": [],
      "name": "dividendsBank",
      "outputs": [
        {
          "name": "",
          "type": "uint256"
        }
      ],
      "payable": false,
      "stateMutability": "view",
      "type": "function"
    },
    {
      "constant": true,
      "inputs": [
        {
          "name": "",
          "type": "address"
        }
      ],
      "name": "withdrawalBalances",
      "outputs": [
        {
          "name": "",
          "type": "uint256"
        }
      ],
      "payable": false,
      "stateMutability": "view",
      "type": "function"
    },
    {
      "constant": true,
      "inputs": [],
      "name": "cbIteration",
      "outputs": [
        {
          "name": "",
          "type": "uint256"
        }
      ],
      "payable": false,
      "stateMutability": "view",
      "type": "function"
    },
    {
      "anonymous": false,
      "inputs": [
        {
          "indexed": true,
          "name": "round",
          "type": "uint256"
        },
        {
          "indexed": true,
          "name": "cbIteration",
          "type": "uint256"
        },
        {
          "indexed": false,
          "name": "winner",
          "type": "address"
        }
      ],
      "name": "CBPDistributed",
      "type": "event"
    },
    {
      "anonymous": false,
      "inputs": [
        {
          "indexed": true,
          "name": "withdrawer",
          "type": "address"
        },
        {
          "indexed": true,
          "name": "claimId",
          "type": "uint256"
        },
        {
          "indexed": true,
          "name": "amount",
          "type": "uint256"
        }
      ],
      "name": "DividendsWithdrawn",
      "type": "event"
    },
    {
      "anonymous": false,
      "inputs": [
        {
          "indexed": true,
          "name": "claimer",
          "type": "address"
        },
        {
          "indexed": true,
          "name": "claimId",
          "type": "uint256"
        },
        {
          "indexed": true,
          "name": "currentTime",
          "type": "uint256"
        }
      ],
      "name": "DividendsClaimed",
      "type": "event"
    },
    {
      "anonymous": false,
      "inputs": [
        {
          "indexed": true,
          "name": "pixelId",
          "type": "uint256"
        },
        {
          "indexed": false,
          "name": "colorId",
          "type": "uint256"
        },
        {
          "indexed": true,
          "name": "painter",
          "type": "address"
        },
        {
          "indexed": true,
          "name": "round",
          "type": "uint256"
        },
        {
          "indexed": false,
          "name": "timestamp",
          "type": "uint256"
        }
      ],
      "name": "Paint",
      "type": "event"
    },
    {
      "anonymous": false,
      "inputs": [
        {
          "indexed": false,
          "name": "winner",
          "type": "address"
        },
        {
          "indexed": true,
          "name": "round",
          "type": "uint256"
        }
      ],
      "name": "ColorBankPlayed",
      "type": "event"
    },
    {
      "anonymous": false,
      "inputs": [
        {
          "indexed": false,
          "name": "winner",
          "type": "address"
        },
        {
          "indexed": true,
          "name": "round",
          "type": "uint256"
        }
      ],
      "name": "TimeBankPlayed",
      "type": "event"
    },
    {
      "anonymous": false,
      "inputs": [
        {
          "indexed": true,
          "name": "newCallPrice",
          "type": "uint256"
        }
      ],
      "name": "CallPriceUpdated",
      "type": "event"
    },
    {
      "anonymous": false,
      "inputs": [
        {
          "indexed": true,
          "name": "round",
          "type": "uint256"
        },
        {
          "indexed": true,
          "name": "tbIteration",
          "type": "uint256"
        },
        {
          "indexed": false,
          "name": "winner",
          "type": "address"
        }
      ],
      "name": "TBPDistributed",
      "type": "event"
    },
    {
      "anonymous": false,
      "inputs": [
        {
          "indexed": true,
          "name": "previousOwner",
          "type": "address"
        },
        {
          "indexed": true,
          "name": "newOwner",
          "type": "address"
        }
      ],
      "name": "OwnershipTransferred",
      "type": "event"
    },
    {
      "constant": true,
      "inputs": [
        {
          "name": "_pixel",
          "type": "uint256"
        }
      ],
      "name": "getPixelColor",
      "outputs": [
        {
          "name": "",
          "type": "uint256"
        }
      ],
      "payable": false,
      "stateMutability": "view",
      "type": "function"
    },
    {
      "constant": true,
      "inputs": [
        {
          "name": "_pixels",
          "type": "uint256[]"
        },
        {
          "name": "_color",
          "type": "uint256"
        }
      ],
      "name": "estimateCallPrice",
      "outputs": [
        {
          "name": "totalCallPrice",
          "type": "uint256"
        }
      ],
      "payable": false,
      "stateMutability": "view",
      "type": "function"
    },
    {
      "constant": false,
      "inputs": [
        {
          "name": "_pixels",
          "type": "uint256[]"
        },
        {
          "name": "_color",
          "type": "uint256"
        },
        {
          "name": "_refLink",
          "type": "string"
        }
      ],
      "name": "paint",
      "outputs": [],
      "payable": true,
      "stateMutability": "payable",
      "type": "function"
    }
  ],
  "bytecode": "0x608060405273ca35b7d915458ef540ade6068dfe2f44e8fa733c604060006101000a81548173ffffffffffffffffffffffffffffffffffffffff021916908373ffffffffffffffffffffffffffffffffffffffff160217905550733e4d187df7d8a0820eaf4174d17b160157610912604160006101000a81548173ffffffffffffffffffffffffffffffffffffffff021916908373ffffffffffffffffffffffffffffffffffffffff160217905550336000806101000a81548173ffffffffffffffffffffffffffffffffffffffff021916908373ffffffffffffffffffffffffffffffffffffffff1602179055506000809054906101000a900473ffffffffffffffffffffffffffffffffffffffff1673ffffffffffffffffffffffffffffffffffffffff16600073ffffffffffffffffffffffffffffffffffffffff167f8be0079c531659141344cd1fd0a4f28419497f9722a3daafe3b4186f6b6457e060405160405180910390a3614576806101796000396000f300608060405260043610610338576000357c0100000000000000000000000000000000000000000000000000000000900463ffffffff1680630422ddf31461033d57806305bdd0be1461036c578063099b81ce146103d15780630ba36221146104425780630baaea441461048d5780630cf9603f146104fa5780630daa4206146105455780630f6ed86e14610595578063102f9713146105c057806318452cd81461062d5780631f5bdf5d146106885780631f90c6ed146106e357806324d7806c1461074857806328361f57146107a357806328b290f9146107e45780632c6c1c411461083b5780632c7a3dae1461089c57806333f9c388146109135780633a173505146109745780633c6dd013146109bf5780633ca4c18314610a005780633d0d1a7914610a615780633dc3c37714610aa2578063411b007e14610acd57806341c5464e14610b2457806342e453ec14610b7b5780634b39173d14610bf25780634c438ad714610c3d5780634c78e40114610c825780635bfcdb2714610cc35780635c25fd1314610d7f5780635d63ebb214610daa5780635f5d554c14610e21578063628a71a314610e705780636f17eb4214610eb1578063715018a614610ef257806373a9ee2614610f0957806379ecf37614610f4a5780637b68a8f014610fb75780637e1e175c14610ff857806387982ac3146110535780638a19c8bc146110e05780638da5cb5b1461110b5780638e2df39c146111625780638f32d59b146111a35780638f63b7e5146111d2578063a31207241461121d578063a888c2cd14611268578063a977e168146112ee578063ab24c7d214611345578063abafb90e146113aa578063ae55ce821461142e578063b0ff59d21461149b578063b1a3883c146114fc578063b8232d5d14611567578063be7d6226146115b2578063c64a2e56146115f3578063c957387b14611634578063c9f8234f1461167f578063d4526e68146116aa578063d5de47c7146116f3578063da68b1211461173e578063deaf0fa114611783578063eaf1c91014611806578063eef565da14611867578063f2fde38b14611892578063f49916f5146118d5578063f5f95b3b14611916578063fb454d2914611941578063fea11fe314611998575b600080fd5b34801561034957600080fd5b506103526119c3565b604051808215151515815260200191505060405180910390f35b34801561037857600080fd5b506103b760048036038101908080359060200190929190803573ffffffffffffffffffffffffffffffffffffffff1690602001909291905050506119d6565b604051808215151515815260200191505060405180910390f35b3480156103dd57600080fd5b506104006004803603810190808035600019169060200190929190505050611a05565b604051808273ffffffffffffffffffffffffffffffffffffffff1673ffffffffffffffffffffffffffffffffffffffff16815260200191505060405180910390f35b34801561044e57600080fd5b506104776004803603810190808035906020019092919080359060200190929190505050611a38565b6040518082815260200191505060405180910390f35b34801561049957600080fd5b506104b860048036038101908080359060200190929190505050611a5d565b604051808273ffffffffffffffffffffffffffffffffffffffff1673ffffffffffffffffffffffffffffffffffffffff16815260200191505060405180910390f35b34801561050657600080fd5b5061052f6004803603810190808035906020019092919080359060200190929190505050611a90565b6040518082815260200191505060405180910390f35b61059360048036038101908080359060200190820180359060200191909192939192939080359060200190929190803590602001908201803590602001919091929391929390505050611ab5565b005b3480156105a157600080fd5b506105aa6123fe565b6040518082815260200191505060405180910390f35b3480156105cc57600080fd5b506105eb60048036038101908080359060200190929190505050612404565b604051808273ffffffffffffffffffffffffffffffffffffffff1673ffffffffffffffffffffffffffffffffffffffff16815260200191505060405180910390f35b34801561063957600080fd5b5061066e600480360381019080803573ffffffffffffffffffffffffffffffffffffffff169060200190929190505050612437565b604051808215151515815260200191505060405180910390f35b34801561069457600080fd5b506106c9600480360381019080803573ffffffffffffffffffffffffffffffffffffffff169060200190929190505050612457565b604051808215151515815260200191505060405180910390f35b3480156106ef57600080fd5b5061072e60048036038101908080359060200190929190803573ffffffffffffffffffffffffffffffffffffffff169060200190929190505050612477565b604051808215151515815260200191505060405180910390f35b34801561075457600080fd5b50610789600480360381019080803573ffffffffffffffffffffffffffffffffffffffff1690602001909291905050506124a6565b604051808215151515815260200191505060405180910390f35b3480156107af57600080fd5b506107ce600480360381019080803590602001909291905050506124c6565b6040518082815260200191505060405180910390f35b3480156107f057600080fd5b50610825600480360381019080803573ffffffffffffffffffffffffffffffffffffffff1690602001909291905050506124de565b6040518082815260200191505060405180910390f35b34801561084757600080fd5b5061088660048036038101908080359060200190929190803573ffffffffffffffffffffffffffffffffffffffff1690602001909291905050506124f6565b6040518082815260200191505060405180910390f35b3480156108a857600080fd5b506108d1600480360381019080803590602001909291908035906020019092919050505061251b565b604051808273ffffffffffffffffffffffffffffffffffffffff1673ffffffffffffffffffffffffffffffffffffffff16815260200191505060405180910390f35b34801561091f57600080fd5b5061095e60048036038101908080359060200190929190803573ffffffffffffffffffffffffffffffffffffffff169060200190929190505050612568565b6040518082815260200191505060405180910390f35b34801561098057600080fd5b506109a9600480360381019080803590602001909291908035906020019092919050505061258d565b6040518082815260200191505060405180910390f35b3480156109cb57600080fd5b506109ea600480360381019080803590602001909291905050506125b2565b6040518082815260200191505060405180910390f35b348015610a0c57600080fd5b50610a4b60048036038101908080359060200190929190803573ffffffffffffffffffffffffffffffffffffffff1690602001909291905050506125ca565b6040518082815260200191505060405180910390f35b348015610a6d57600080fd5b50610a8c600480360381019080803590602001909291905050506125ef565b6040518082815260200191505060405180910390f35b348015610aae57600080fd5b50610ab7612607565b6040518082815260200191505060405180910390f35b348015610ad957600080fd5b50610ae261260d565b604051808273ffffffffffffffffffffffffffffffffffffffff1673ffffffffffffffffffffffffffffffffffffffff16815260200191505060405180910390f35b348015610b3057600080fd5b50610b65600480360381019080803573ffffffffffffffffffffffffffffffffffffffff169060200190929190505050612633565b6040518082815260200191505060405180910390f35b348015610b8757600080fd5b50610bb0600480360381019080803590602001909291908035906020019092919050505061264b565b604051808273ffffffffffffffffffffffffffffffffffffffff1673ffffffffffffffffffffffffffffffffffffffff16815260200191505060405180910390f35b348015610bfe57600080fd5b50610c27600480360381019080803590602001909291908035906020019092919050505061268d565b6040518082815260200191505060405180910390f35b348015610c4957600080fd5b50610c68600480360381019080803590602001909291905050506126b2565b604051808215151515815260200191505060405180910390f35b348015610c8e57600080fd5b50610cad600480360381019080803590602001909291905050506126d2565b6040518082815260200191505060405180910390f35b348015610ccf57600080fd5b50610d04600480360381019080803573ffffffffffffffffffffffffffffffffffffffff1690602001909291905050506126ea565b6040518080602001828103825283818151815260200191508051906020019080838360005b83811015610d44578082015181840152602081019050610d29565b50505050905090810190601f168015610d715780820380516001836020036101000a031916815260200191505b509250505060405180910390f35b348015610d8b57600080fd5b50610d9461279a565b6040518082815260200191505060405180910390f35b348015610db657600080fd5b50610ddf60048036038101908080359060200190929190803590602001909291905050506127a0565b604051808273ffffffffffffffffffffffffffffffffffffffff1673ffffffffffffffffffffffffffffffffffffffff16815260200191505060405180910390f35b348015610e2d57600080fd5b50610e5660048036038101908080359060200190929190803590602001909291905050506127ed565b604051808215151515815260200191505060405180910390f35b348015610e7c57600080fd5b50610e9b6004803603810190808035906020019092919050505061281c565b6040518082815260200191505060405180910390f35b348015610ebd57600080fd5b50610edc60048036038101908080359060200190929190505050612834565b6040518082815260200191505060405180910390f35b348015610efe57600080fd5b50610f0761284c565b005b348015610f1557600080fd5b50610f346004803603810190808035906020019092919050505061291e565b6040518082815260200191505060405180910390f35b348015610f5657600080fd5b50610f7560048036038101908080359060200190929190505050612936565b604051808273ffffffffffffffffffffffffffffffffffffffff1673ffffffffffffffffffffffffffffffffffffffff16815260200191505060405180910390f35b348015610fc357600080fd5b50610fe260048036038101908080359060200190929190505050612969565b6040518082815260200191505060405180910390f35b34801561100457600080fd5b50611039600480360381019080803573ffffffffffffffffffffffffffffffffffffffff169060200190929190505050612999565b604051808215151515815260200191505060405180910390f35b34801561105f57600080fd5b5061109e600480360381019080803573ffffffffffffffffffffffffffffffffffffffff169060200190929190803590602001909291905050506129b9565b604051808273ffffffffffffffffffffffffffffffffffffffff1673ffffffffffffffffffffffffffffffffffffffff16815260200191505060405180910390f35b3480156110ec57600080fd5b506110f5612a05565b6040518082815260200191505060405180910390f35b34801561111757600080fd5b50611120612a0b565b604051808273ffffffffffffffffffffffffffffffffffffffff1673ffffffffffffffffffffffffffffffffffffffff16815260200191505060405180910390f35b34801561116e57600080fd5b5061118d60048036038101908080359060200190929190505050612a34565b6040518082815260200191505060405180910390f35b3480156111af57600080fd5b506111b8612a4c565b604051808215151515815260200191505060405180910390f35b3480156111de57600080fd5b506112076004803603810190808035906020019092919080359060200190929190505050612aa3565b6040518082815260200191505060405180910390f35b34801561122957600080fd5b506112526004803603810190808035906020019092919080359060200190929190505050612ac8565b6040518082815260200191505060405180910390f35b34801561127457600080fd5b5061129360048036038101908080359060200190929190505050612aed565b604051808581526020018473ffffffffffffffffffffffffffffffffffffffff1673ffffffffffffffffffffffffffffffffffffffff1681526020018315151515815260200182815260200194505050505060405180910390f35b3480156112fa57600080fd5b50611303612b59565b604051808273ffffffffffffffffffffffffffffffffffffffff1673ffffffffffffffffffffffffffffffffffffffff16815260200191505060405180910390f35b34801561135157600080fd5b5061139060048036038101908080359060200190929190803573ffffffffffffffffffffffffffffffffffffffff169060200190929190505050612b7f565b604051808215151515815260200191505060405180910390f35b3480156113b657600080fd5b506114186004803603810190808035906020019082018035906020019080806020026020016040519081016040528093929190818152602001838360200280828437820191505050505050919291929080359060200190929190505050612bae565b6040518082815260200191505060405180910390f35b34801561143a57600080fd5b5061145960048036038101908080359060200190929190505050612d9c565b604051808273ffffffffffffffffffffffffffffffffffffffff1673ffffffffffffffffffffffffffffffffffffffff16815260200191505060405180910390f35b3480156114a757600080fd5b506114e660048036038101908080359060200190929190803573ffffffffffffffffffffffffffffffffffffffff169060200190929190505050612dcf565b6040518082815260200191505060405180910390f35b34801561150857600080fd5b506115516004803603810190808035906020019092919080359060200190929190803573ffffffffffffffffffffffffffffffffffffffff169060200190929190505050612df4565b6040518082815260200191505060405180910390f35b34801561157357600080fd5b5061159c6004803603810190808035906020019092919080359060200190929190505050612e26565b6040518082815260200191505060405180910390f35b3480156115be57600080fd5b506115dd60048036038101908080359060200190929190505050612e4b565b6040518082815260200191505060405180910390f35b3480156115ff57600080fd5b5061161e60048036038101908080359060200190929190505050612e63565b6040518082815260200191505060405180910390f35b34801561164057600080fd5b506116696004803603810190808035906020019092919080359060200190929190505050612e7b565b6040518082815260200191505060405180910390f35b34801561168b57600080fd5b50611694612ea0565b6040518082815260200191505060405180910390f35b3480156116b657600080fd5b506116d96004803603810190808035600019169060200190929190505050612ea6565b604051808215151515815260200191505060405180910390f35b3480156116ff57600080fd5b506117286004803603810190808035906020019092919080359060200190929190505050612ec6565b6040518082815260200191505060405180910390f35b34801561174a57600080fd5b5061176960048036038101908080359060200190929190505050612eeb565b604051808215151515815260200191505060405180910390f35b34801561178f57600080fd5b506117c4600480360381019080803573ffffffffffffffffffffffffffffffffffffffff169060200190929190505050612f0b565b604051808273ffffffffffffffffffffffffffffffffffffffff1673ffffffffffffffffffffffffffffffffffffffff16815260200191505060405180910390f35b34801561181257600080fd5b5061185160048036038101908080359060200190929190803573ffffffffffffffffffffffffffffffffffffffff169060200190929190505050612f3e565b6040518082815260200191505060405180910390f35b34801561187357600080fd5b5061187c612f63565b6040518082815260200191505060405180910390f35b34801561189e57600080fd5b506118d3600480360381019080803573ffffffffffffffffffffffffffffffffffffffff169060200190929190505050612f69565b005b3480156118e157600080fd5b5061190060048036038101908080359060200190929190505050612f88565b6040518082815260200191505060405180910390f35b34801561192257600080fd5b5061192b612fa0565b6040518082815260200191505060405180910390f35b34801561194d57600080fd5b50611982600480360381019080803573ffffffffffffffffffffffffffffffffffffffff169060200190929190505050612fa6565b6040518082815260200191505060405180910390f35b3480156119a457600080fd5b506119ad612fbe565b6040518082815260200191505060405180910390f35b604160149054906101000a900460ff1681565b60346020528160005260406000206020528060005260406000206000915091509054906101000a900460ff1681565b60236020528060005260406000206000915054906101000a900473ffffffffffffffffffffffffffffffffffffffff1681565b600e602052816000526040600020602052806000526040600020600091509150505481565b603a6020528060005260406000206000915054906101000a900473ffffffffffffffffffffffffffffffffffffffff1681565b6006602052816000526040600020602052806000526040600020600091509150505481565b600082828080601f01602080910402602001604051908101604052809392919081815260200183838082843782019150505050505060008060011515601d60003373ffffffffffffffffffffffffffffffffffffffff1673ffffffffffffffffffffffffffffffffffffffff16815260200190815260200160002060009054906101000a900460ff161515141515611e0657611b5083612fc4565b6fffffffffffffffffffffffffffffffff1916915060246000836000191660001916815260200190815260200160002060009054906101000a900460ff1615611d4b5760236000836000191660001916815260200190815260200160002060009054906101000a900473ffffffffffffffffffffffffffffffffffffffff169050602060008273ffffffffffffffffffffffffffffffffffffffff1673ffffffffffffffffffffffffffffffffffffffff1681526020019081526020016000203390806001815401808255809150509060018203906000526020600020016000909192909190916101000a81548173ffffffffffffffffffffffffffffffffffffffff021916908373ffffffffffffffffffffffffffffffffffffffff1602179055505080601f60003373ffffffffffffffffffffffffffffffffffffffff1673ffffffffffffffffffffffffffffffffffffffff16815260200190815260200160002060006101000a81548173ffffffffffffffffffffffffffffffffffffffff021916908373ffffffffffffffffffffffffffffffffffffffff1602179055506001602160003373ffffffffffffffffffffffffffffffffffffffff1673ffffffffffffffffffffffffffffffffffffffff16815260200190815260200160002060006101000a81548160ff0219169083151502179055505b611d616001602654612fdd90919063ffffffff16565b602681905550602654602560003373ffffffffffffffffffffffffffffffffffffffff1673ffffffffffffffffffffffffffffffffffffffff168152602001908152602001600020819055506001601d60003373ffffffffffffffffffffffffffffffffffffffff1673ffffffffffffffffffffffffffffffffffffffff16815260200190815260200160002060006101000a81548160ff0219169083151502179055505b60001515604160149054906101000a900460ff161515141515611e91576040517f08c379a000000000000000000000000000000000000000000000000000000000815260040180806020018281038252600e8152602001807f47616d652069732070617573656400000000000000000000000000000000000081525060200191505060405180910390fd5b611eca89898080602002602001604051908101604052809392919081815260200183836020028082843782019150505050505088612bae565b34141515611f40576040517f08c379a00000000000000000000000000000000000000000000000000000000081526004018080602001828103825260108152602001807f57726f6e672063616c6c2070726963650000000000000000000000000000000081525060200191505060405180910390fd5b6104b0600a60006028548152602001908152602001600020544203118015611f7e57506000600a600060285481526020019081526020016000205414155b1561229557600b6000602854815260200190815260200160002060009054906101000a900473ffffffffffffffffffffffffffffffffffffffff16600f6000602854815260200190815260200160002060006101000a81548173ffffffffffffffffffffffffffffffffffffffff021916908373ffffffffffffffffffffffffffffffffffffffff160217905550612048606461203a602d60096000602854815260200190815260200160002054612ffe90919063ffffffff16565b61303c90919063ffffffff16565b6036600060295481526020019081526020016000206000600f6000602854815260200190815260200160002060009054906101000a900473ffffffffffffffffffffffffffffffffffffffff1673ffffffffffffffffffffffffffffffffffffffff1673ffffffffffffffffffffffffffffffffffffffff16815260200190815260200160002060008282540192505081905550600160106000602854815260200190815260200160002081905550612120600a6009600060285481526020019081526020016000205461303c90919063ffffffff16565b60096000600160285401815260200190815260200160002081905550612178606461216a602d60096000602854815260200190815260200160002054612ffe90919063ffffffff16565b61303c90919063ffffffff16565b6009600060285481526020019081526020016000208190555060076000602854815260200190815260200160002054600760006001602854018152602001908152602001600020819055506000600760006028548152602001908152602001600020819055506028547f20f206bcab56eeef408295aaff8745adb98fed16823d758193e9449983d23fd2600f6000602854815260200190815260200160002060009054906101000a900473ffffffffffffffffffffffffffffffffffffffff16604051808273ffffffffffffffffffffffffffffffffffffffff1673ffffffffffffffffffffffffffffffffffffffff16815260200191505060405180910390a26001604160146101000a81548160ff0219169083151502179055505b600093505b888890508410156122d0576122c389898681811015156122b657fe5b9050602002013588613066565b838060010194505061229a565b6122d987613a80565b6122e287613c1b565b6122eb87613e5e565b6122f487613f8a565b602b60008154809291906001019190505550602e6000888152602001908152602001600020600081548092919060010191905055503360316000602b54815260200190815260200160002060006101000a81548173ffffffffffffffffffffffffffffffffffffffff021916908373ffffffffffffffffffffffffffffffffffffffff16021790555033603260008981526020019081526020016000206000602e60008b815260200190815260200160002054815260200190815260200160002060006101000a81548173ffffffffffffffffffffffffffffffffffffffff021916908373ffffffffffffffffffffffffffffffffffffffff160217905550505050505050505050565b60295481565b600f6020528060005260406000206000915054906101000a900473ffffffffffffffffffffffffffffffffffffffff1681565b60216020528060005260406000206000915054906101000a900460ff1681565b601d6020528060005260406000206000915054906101000a900460ff1681565b601b6020528160005260406000206020528060005260406000206000915091509054906101000a900460ff1681565b60426020528060005260406000206000915054906101000a900460ff1681565b60176020528060005260406000206000915090505481565b60396020528060005260406000206000915090505481565b601a602052816000526040600020602052806000526040600020600091509150505481565b60306020528160005260406000208181548110151561253657fe5b906000526020600020016000915091509054906101000a900473ffffffffffffffffffffffffffffffffffffffff1681565b6036602052816000526040600020602052806000526040600020600091509150505481565b6014602052816000526040600020602052806000526040600020600091509150505481565b60186020528060005260406000206000915090505481565b6035602052816000526040600020602052806000526040600020600091509150505481565b60106020528060005260406000206000915090505481565b602b5481565b604160009054906101000a900473ffffffffffffffffffffffffffffffffffffffff1681565b60256020528060005260406000206000915090505481565b60326020528160005260406000206020528060005260406000206000915091509054906101000a900473ffffffffffffffffffffffffffffffffffffffff1681565b6005602052816000526040600020602052806000526040600020600091509150505481565b60386020528060005260406000206000915054906101000a900460ff1681565b60096020528060005260406000206000915090505481565b60226020528060005260406000206000915090508054600181600116156101000203166002900480601f0160208091040260200160405190810160405280929190818152602001828054600181600116156101000203166002900480156127925780601f1061276757610100808354040283529160200191612792565b820191906000526020600020905b81548152906001019060200180831161277557829003601f168201915b505050505081565b603e5481565b602f602052816000526040600020818154811015156127bb57fe5b906000526020600020016000915091509054906101000a900473ffffffffffffffffffffffffffffffffffffffff1681565b60166020528160005260406000206020528060005260406000206000915091509054906101000a900460ff1681565b600c6020528060005260406000206000915090505481565b60196020528060005260406000206000915090505481565b612854612a4c565b151561285f57600080fd5b600073ffffffffffffffffffffffffffffffffffffffff166000809054906101000a900473ffffffffffffffffffffffffffffffffffffffff1673ffffffffffffffffffffffffffffffffffffffff167f8be0079c531659141344cd1fd0a4f28419497f9722a3daafe3b4186f6b6457e060405160405180910390a360008060006101000a81548173ffffffffffffffffffffffffffffffffffffffff021916908373ffffffffffffffffffffffffffffffffffffffff160217905550565b600a6020528060005260406000206000915090505481565b600b6020528060005260406000206000915054906101000a900473ffffffffffffffffffffffffffffffffffffffff1681565b60006004600060285481526020019081526020016000206000838152602001908152602001600020549050919050565b601e6020528060005260406000206000915054906101000a900460ff1681565b60208052816000526040600020818154811015156129d357fe5b906000526020600020016000915091509054906101000a900473ffffffffffffffffffffffffffffffffffffffff1681565b60285481565b60008060009054906101000a900473ffffffffffffffffffffffffffffffffffffffff16905090565b602e6020528060005260406000206000915090505481565b60008060009054906101000a900473ffffffffffffffffffffffffffffffffffffffff1673ffffffffffffffffffffffffffffffffffffffff163373ffffffffffffffffffffffffffffffffffffffff1614905090565b6011602052816000526040600020602052806000526040600020600091509150505481565b6008602052816000526040600020602052806000526040600020600091509150505481565b603f81815481101515612afc57fe5b90600052602060002090600302016000915090508060000154908060010160009054906101000a900473ffffffffffffffffffffffffffffffffffffffff16908060010160149054906101000a900460ff16908060020154905084565b604060009054906101000a900473ffffffffffffffffffffffffffffffffffffffff1681565b60336020528160005260406000206020528060005260406000206000915091509054906101000a900460ff1681565b6000806000806000806000601a600089815260200190815260200160002060003373ffffffffffffffffffffffffffffffffffffffff1673ffffffffffffffffffffffffffffffffffffffff168152602001908152602001600020549550601b600089815260200190815260200160002060003373ffffffffffffffffffffffffffffffffffffffff1673ffffffffffffffffffffffffffffffffffffffff16815260200190815260200160002060009054906101000a900460ff169450601c600089815260200190815260200160002060003373ffffffffffffffffffffffffffffffffffffffff1673ffffffffffffffffffffffffffffffffffffffff168152602001908152602001600020549350600092505b8851831015612d9057612d096064612cfb86606403601960008d815260200190815260200160002054612ffe90919063ffffffff16565b61303c90919063ffffffff16565b9150600115158515151415612d2057819050612d37565b601960008981526020019081526020016000205490505b80870196508086019550670de0b6b3a764000086101515612d835760019450670de0b6b3a764000086811515612d6957fe5b049350678ac7230489e8000086101515612d8257600a93505b5b8280600101935050612cc4565b50505050505092915050565b60316020528060005260406000206000915054906101000a900473ffffffffffffffffffffffffffffffffffffffff1681565b602c602052816000526040600020602052806000526040600020600091509150505481565b602d60205282600052604060002060205281600052604060002060205280600052604060002060009250925050505481565b6004602052816000526040600020602052806000526040600020600091509150505481565b60126020528060005260406000206000915090505481565b60076020528060005260406000206000915090505481565b6015602052816000526040600020602052806000526040600020600091509150505481565b60265481565b60246020528060005260406000206000915054906101000a900460ff1681565b6013602052816000526040600020602052806000526040600020600091509150505481565b60376020528060005260406000206000915054906101000a900460ff1681565b601f6020528060005260406000206000915054906101000a900473ffffffffffffffffffffffffffffffffffffffff1681565b601c602052816000526040600020602052806000526040600020600091509150505481565b60275481565b612f71612a4c565b1515612f7c57600080fd5b612f85816140fd565b50565b600d6020528060005260406000206000915090505481565b603d5481565b603b6020528060005260406000206000915090505481565b602a5481565b6000806060839050602081015191508192505050919050565b6000808284019050838110151515612ff457600080fd5b8091505092915050565b60008060008414156130135760009150613035565b828402905082848281151561302457fe5b0414151561303157600080fd5b8091505b5092915050565b60008060008311151561304e57600080fd5b828481151561305957fe5b0490508091505092915050565b6000801515604160149054906101000a900460ff1615151415156130f2576040517f08c379a000000000000000000000000000000000000000000000000000000000815260040180806020018281038252600e8152602001807f47616d652069732070617573656400000000000000000000000000000000000081525060200191505060405180910390fd5b6130fb826141f7565b6000831415151561319a576040517f08c379a00000000000000000000000000000000000000000000000000000000081526004018080602001828103825260278152602001807f54686520706978656c2077697468206964203d203020646f6573206e6f74206581526020017f786973742e2e2e0000000000000000000000000000000000000000000000000081525060400191505060405180910390fd5b60008214151515613239576040517f08c379a00000000000000000000000000000000000000000000000000000000081526004018080602001828103825260288152602001807f596f752063616e6e6f74207061696e7420746f207472616e73706172656e742081526020017f636f6c6f722e2e2e00000000000000000000000000000000000000000000000081525060400191505060405180910390fd5b81600460006028548152602001908152602001600020600085815260200190815260200160002054141515156132fd576040517f08c379a00000000000000000000000000000000000000000000000000000000081526004018080602001828103825260268152602001807f5468697320706978656c20697320616c7265616479206f66207468697320636f81526020017f6c6f722e2e2e000000000000000000000000000000000000000000000000000081525060400191505060405180910390fd5b6004600060285481526020019081526020016000206000848152602001908152602001600020549050816004600060285481526020019081526020016000206000858152602001908152602001600020819055508060056000602854815260200190815260200160002060008581526020019081526020016000208190555042600a600060285481526020019081526020016000208190555033600b6000602854815260200190815260200160002060006101000a81548173ffffffffffffffffffffffffffffffffffffffff021916908373ffffffffffffffffffffffffffffffffffffffff1602179055506000600660006028548152602001908152602001600020600083815260200190815260200160002054111561347e57613453600160066000602854815260200190815260200160002060008481526020019081526020016000205461449590919063ffffffff16565b6006600060285481526020019081526020016000206000838152602001908152602001600020819055505b6134b86001600660006028548152602001908152602001600020600085815260200190815260200160002054612fdd90919063ffffffff16565b60066000602854815260200190815260200160002060008481526020019081526020016000208190555061350b600160126000602854815260200190815260200160002054612fdd90919063ffffffff16565b6012600060285481526020019081526020016000208190555042601160006028548152602001908152602001600020600085815260200190815260200160002081905550602c6000602954815260200190815260200160002060003373ffffffffffffffffffffffffffffffffffffffff1673ffffffffffffffffffffffffffffffffffffffff16815260200190815260200160002060008154809291906001019190505550602d6000602a548152602001908152602001600020600083815260200190815260200160002060003373ffffffffffffffffffffffffffffffffffffffff1673ffffffffffffffffffffffffffffffffffffffff1681526020019081526020016000206000815480929190600101919050555061366f6001601360008581526020019081526020016000206000601760008781526020019081526020016000205481526020019081526020016000205461449590919063ffffffff16565b601360008481526020019081526020016000206000601760008681526020019081526020016000205481526020019081526020016000208190555082600c60006028548152602001908152602001600020819055506028543373ffffffffffffffffffffffffffffffffffffffff16847faf2d03aa2fdc9b785775529881274caad1884e0279e02729f03eca55d57eea728542604051808381526020018281526020019250505060405180910390a4602854603960003373ffffffffffffffffffffffffffffffffffffffff1673ffffffffffffffffffffffffffffffffffffffff168152602001908152602001600020819055506127106006600060285481526020019081526020016000206000848152602001908152602001600020541415613a7b5781600d6000602854815260200190815260200160002081905550600b6000602854815260200190815260200160002060009054906101000a900473ffffffffffffffffffffffffffffffffffffffff16600f6000602854815260200190815260200160002060006101000a81548173ffffffffffffffffffffffffffffffffffffffff021916908373ffffffffffffffffffffffffffffffffffffffff1602179055506138736064613865603260076000602854815260200190815260200160002054612ffe90919063ffffffff16565b61303c90919063ffffffff16565b60356000602a5481526020019081526020016000206000600f6000602854815260200190815260200160002060009054906101000a900473ffffffffffffffffffffffffffffffffffffffff1673ffffffffffffffffffffffffffffffffffffffff1673ffffffffffffffffffffffffffffffffffffffff1681526020019081526020016000206000828254019250508190555060026010600060285481526020019081526020016000208190555061395e6064613950603260076000602854815260200190815260200160002054612ffe90919063ffffffff16565b61303c90919063ffffffff16565b6007600060285481526020019081526020016000208190555060096000602854815260200190815260200160002054600960006001602854018152602001908152602001600020819055506000600960006028548152602001908152602001600020819055506028547f14988f685a0376db6242cb37ed3033028bbc9e8fe0cc4b434a098e6c0150673f600f6000602854815260200190815260200160002060009054906101000a900473ffffffffffffffffffffffffffffffffffffffff16604051808273ffffffffffffffffffffffffffffffffffffffff1673ffffffffffffffffffffffffffffffffffffffff16815260200191505060405180910390a26001604160146101000a81548160ff0219169083151502179055505b505050565b613adf613aaa6064613a9c602834612ffe90919063ffffffff16565b61303c90919063ffffffff16565b600860006028548152602001908152602001600020600084815260200190815260200160002054612fdd90919063ffffffff16565b600860006028548152602001908152602001600020600083815260200190815260200160002081905550613b57613b336064613b25602834612ffe90919063ffffffff16565b61303c90919063ffffffff16565b60076000602854815260200190815260200160002054612fdd90919063ffffffff16565b60076000602854815260200190815260200160002081905550613bbe613b9a6064613b8c602834612ffe90919063ffffffff16565b61303c90919063ffffffff16565b60096000602854815260200190815260200160002054612fdd90919063ffffffff16565b60096000602854815260200190815260200160002081905550613c12613c016064613bf3601434612ffe90919063ffffffff16565b61303c90919063ffffffff16565b603d54612fdd90919063ffffffff16565b603d8190555050565b613cb7613c476064613c396019603d54612ffe90919063ffffffff16565b61303c90919063ffffffff16565b603b6000604160009054906101000a900473ffffffffffffffffffffffffffffffffffffffff1673ffffffffffffffffffffffffffffffffffffffff1673ffffffffffffffffffffffffffffffffffffffff16815260200190815260200160002054612fdd90919063ffffffff16565b603b6000604160009054906101000a900473ffffffffffffffffffffffffffffffffffffffff1673ffffffffffffffffffffffffffffffffffffffff1673ffffffffffffffffffffffffffffffffffffffff16815260200190815260200160002081905550613d456064613d376019603d54612ffe90919063ffffffff16565b61303c90919063ffffffff16565b603b6000603a600085815260200190815260200160002060009054906101000a900473ffffffffffffffffffffffffffffffffffffffff1673ffffffffffffffffffffffffffffffffffffffff1673ffffffffffffffffffffffffffffffffffffffff16815260200190815260200160002060008282540192505081905550613ded6064613ddf6019603d54612ffe90919063ffffffff16565b61303c90919063ffffffff16565b603b6000604060009054906101000a900473ffffffffffffffffffffffffffffffffffffffff1673ffffffffffffffffffffffffffffffffffffffff1673ffffffffffffffffffffffffffffffffffffffff1681526020019081526020016000206000828254019250508190555050565b34601a600083815260200190815260200160002060003373ffffffffffffffffffffffffffffffffffffffff1673ffffffffffffffffffffffffffffffffffffffff16815260200190815260200160002060008282540192505081905550670de0b6b3a7640000601a600083815260200190815260200160002060003373ffffffffffffffffffffffffffffffffffffffff1673ffffffffffffffffffffffffffffffffffffffff16815260200190815260200160002054101515613f87576001601b600083815260200190815260200160002060003373ffffffffffffffffffffffffffffffffffffffff1673ffffffffffffffffffffffffffffffffffffffff16815260200190815260200160002060006101000a81548160ff0219169083151502179055505b50565b670de0b6b3a7640000601a600083815260200190815260200160002060003373ffffffffffffffffffffffffffffffffffffffff1673ffffffffffffffffffffffffffffffffffffffff16815260200190815260200160002054811515613fed57fe5b04601c600083815260200190815260200160002060003373ffffffffffffffffffffffffffffffffffffffff1673ffffffffffffffffffffffffffffffffffffffff16815260200190815260200160002081905550678ac7230489e80000601a600083815260200190815260200160002060003373ffffffffffffffffffffffffffffffffffffffff1673ffffffffffffffffffffffffffffffffffffffff168152602001908152602001600020541015156140fa57600a601c600083815260200190815260200160002060003373ffffffffffffffffffffffffffffffffffffffff1673ffffffffffffffffffffffffffffffffffffffff168152602001908152602001600020819055505b50565b600073ffffffffffffffffffffffffffffffffffffffff168173ffffffffffffffffffffffffffffffffffffffff161415151561413957600080fd5b8073ffffffffffffffffffffffffffffffffffffffff166000809054906101000a900473ffffffffffffffffffffffffffffffffffffffff1673ffffffffffffffffffffffffffffffffffffffff167f8be0079c531659141344cd1fd0a4f28419497f9722a3daafe3b4186f6b6457e060405160405180910390a3806000806101000a81548173ffffffffffffffffffffffffffffffffffffffff021916908373ffffffffffffffffffffffffffffffffffffffff16021790555050565b600080605a6015600085815260200190815260200160002060006001601760008881526020019081526020016000205403815260200190815260200160002054420310151561449057601360008481526020019081526020016000206000601760008681526020019081526020016000205481526020019081526020016000205491506142a160016017600086815260200190815260200160002054612fdd90919063ffffffff16565b90506000151560166000858152602001908152602001600020600083815260200190815260200160002060009054906101000a900460ff1615151415614385576142f68260275461449590919063ffffffff16565b601360008581526020019081526020016000206000838152602001908152602001600020819055504260146000858152602001908152602001600020600083815260200190815260200160002081905550600160166000858152602001908152602001600020600083815260200190815260200160002060006101000a81548160ff0219169083151502179055505b60016013600085815260200190815260200160002060006017600087815260200190815260200160002054815260200190815260200160002054141561440b576143ce836144b6565b4260156000858152602001908152602001600020600060176000878152602001908152602001600020548152602001908152602001600020819055505b60006013600085815260200190815260200160002060006017600087815260200190815260200160002054815260200190815260200160002054141561448f57601960008481526020019081526020016000205460186000858152602001908152602001600020819055508060176000858152602001908152602001600020819055505b5b505050565b6000808383111515156144a757600080fd5b82840390508091505092915050565b6144f060646144e260696018600086815260200190815260200160002054612ffe90919063ffffffff16565b61303c90919063ffffffff16565b601960008381526020019081526020016000208190555060186000828152602001908152602001600020547f3bb22f778670a5901bff4d41c425858dac1ea6aeb048d40f959a6bc43f98506160405160405180910390a2505600a165627a7a72305820334a6c51071118d0a1b590835cf7fe2011080cacbf2e43d6545cfbc157c710e70029",
  "source": "pragma solidity ^0.4.24;\nimport \"./PaintsPool.sol\";\nimport \"./PaintDiscount.sol\";\nimport \"./Modifiers.sol\";\nimport \"./Utils.sol\";\n\ncontract Game is PaintDiscount, PaintsPool, Modifiers {\n    using SafeMath for uint;\n    \n    //     \n    function getPixelColor(uint _pixel) external view returns (uint) {\n        return pixelToColorForRound[currentRound][_pixel];\n    }\n    \n    //      \n    function estimateCallPrice(uint[] _pixels, uint _color) public view returns (uint totalCallPrice) {\n\n        uint moneySpent = moneySpentByUserForColor[_color][msg.sender];\n        bool hasDiscount = hasPaintDiscountForColor[_color][msg.sender];\n        uint discount = usersPaintDiscountForColor[_color][msg.sender];\n        \n        for (uint i = 0; i < _pixels.length; i++) {\n            \n            uint discountCallPrice = (nextCallPriceForColor[_color].mul(100 - discount)).div(100);\n            \n            if (hasDiscount == true) \n                uint price = discountCallPrice;\n            else\n                price = nextCallPriceForColor[_color]; \n\n            totalCallPrice += price;\n            moneySpent += price;\n\n            if (moneySpent >= 1 ether) {\n                \n                hasDiscount = true;\n                discount = moneySpent / 1 ether;\n                \n                if (moneySpent >= 10 ether)\n                    discount = 10;\n            }\n            \n        }   \n    }\n\n    function paint(uint[] _pixels, uint _color, string _refLink) external payable isRegistered(_refLink) isLiveGame() {\n\n        require(msg.value == estimateCallPrice(_pixels, _color), \"Wrong call price\");\n        \n        //    20        \n        if (now - lastPaintTimeForRound[currentRound] > 20 minutes && lastPaintTimeForRound[currentRound] != 0) {\n\n            //    \n            //   -       \n            winnerOfRound[currentRound] = lastPainterForRound[currentRound];\n\n            painterToTBP[tbIteration][winnerOfRound[currentRound]] += timeBankForRound[currentRound].mul(45).div(100); \n            \n            //    =   (1)\n            winnerBankForRound[currentRound] = 1; \n            //10%      \n            timeBankForRound[currentRound + 1] = timeBankForRound[currentRound].div(10); \n            //45%        \n            timeBankForRound[currentRound] = timeBankForRound[currentRound].mul(45).div(100); \n            //     \n            colorBankForRound[currentRound + 1] = colorBankForRound[currentRound]; \n            //     \n            colorBankForRound[currentRound] = 0; \n            // -     (, )\n            emit TimeBankPlayed(winnerOfRound[currentRound], currentRound);\n\n            isGamePaused = true;\n        }\n        \n        // \n        for (uint i = 0; i < _pixels.length; i++) {\n            _paint(_pixels[i], _color);\n        }\n        \n         //   \n        _setBanks(_color);\n            \n        //  ( ) \n        _distributeDividends(_color);\n    \n         //         \n        _setMoneySpentByUserForColor(_color); \n        \n        //         \n        _setUsersPaintDiscountForColor(_color);\n\n        paintsCounter++; //   \n        paintsCounterForColor[_color] ++; //   \n        counterToPainter[paintsCounter] = msg.sender; //  => \n        counterToPainterForColor[_color][paintsCounterForColor[_color]] = msg.sender; //    => \n\n    }   \n\n    //   \n    function _paint(uint _pixel, uint _color) internal isLiveGame() {\n\n        //          paint\n        _fillPaintsPool(_color);\n\n        require(_pixel != 0, \"The pixel with id = 0 does not exist...\");\n        require(_color != 0, \"You cannot paint to transparent color...\");\n        require(pixelToColorForRound[currentRound][_pixel] != _color, \"This pixel is already of this color...\");\n\n        //paint    \n        //    \n        uint oldColor = pixelToColorForRound[currentRound][_pixel];\n    \n        //   \n        pixelToColorForRound[currentRound][_pixel] = _color; \n            \n        //c    \n        pixelToOldColorForRound[currentRound][_pixel] = oldColor; \n                \n        //         \n        lastPaintTimeForRound[currentRound] = now; \n    \n        //          \n        lastPainterForRound[currentRound] = msg.sender;\n                \n        //    ,   \n        if (colorToPaintedPixelsAmountForRound[currentRound][oldColor] > 0) \n            colorToPaintedPixelsAmountForRound[currentRound][oldColor] = colorToPaintedPixelsAmountForRound[currentRound][oldColor].sub(1); \n    \n        //   ,   \n        colorToPaintedPixelsAmountForRound[currentRound][_color] = colorToPaintedPixelsAmountForRound[currentRound][_color].add(1); \n    \n        //         \n        totalPaintsForRound[currentRound] = totalPaintsForRound[currentRound].add(1); \n\n        pixelToPaintTimeForRound[currentRound][_pixel] = now;\n\n        timeBankShare[tbIteration][msg.sender]++;\n        colorBankShare[cbIteration][_color][msg.sender]++;\n                \n        //     1  \n        paintGenToAmountForColor[_color][currentPaintGenForColor[_color]] = paintGenToAmountForColor[_color][currentPaintGenForColor[_color]].sub(1);\n        \n        //      \n        lastPaintedPixelForRound[currentRound] = _pixel;\n        \n        // -   (, ,  )\n        emit Paint(_pixel, _color, msg.sender, currentRound, now);    \n\n        //         \n        lastPlayedRound[msg.sender] = currentRound;\n            \n        //            \n        if (colorToPaintedPixelsAmountForRound[currentRound][_color] == 10000) {\n\n            //    \n            winnerColorForRound[currentRound] = _color;\n\n            //    \n            winnerOfRound[currentRound] = lastPainterForRound[currentRound];        \n            painterToCBP[cbIteration][winnerOfRound[currentRound]] += colorBankForRound[currentRound].mul(50).div(100); \n            winnerBankForRound[currentRound] = 2;//    =   (2)\n            //50%       \n            colorBankForRound[currentRound] = colorBankForRound[currentRound].mul(50).div(100); \n            timeBankForRound[currentRound + 1] = timeBankForRound[currentRound];//     \n            timeBankForRound[currentRound] = 0;//           \n            emit ColorBankPlayed(winnerOfRound[currentRound], currentRound);  \n            \n            isGamePaused = true;\n            //distributeCBP();\n        }\n    }\n\n    //  \n    function _setBanks(uint _color) private {\n        \n        colorBankToColorForRound[currentRound][_color] = colorBankToColorForRound[currentRound][_color].add(msg.value.mul(40).div(100));\n\n        //40%     \n        colorBankForRound[currentRound] = colorBankForRound[currentRound].add(msg.value.mul(40).div(100));\n\n        //40%     \n        timeBankForRound[currentRound] = timeBankForRound[currentRound].add(msg.value.mul(40).div(100));\n\n        //20%      \n        dividendsBank = dividendsBank.add(msg.value.mul(20).div(100)); \n    }\n\n    //   ( ) -         \n    function _distributeDividends(uint _color) internal {\n        \n        //require(ownerOfColor[_color] != address(0), \"There is no such color\");\n\n        //25%    (   )\n        withdrawalBalances[founders] = withdrawalBalances[founders].add(dividendsBank.mul(25).div(100)); \n    \n        //25%    \n        withdrawalBalances[ownerOfColor[_color]] += dividendsBank.mul(25).div(100);\n    \n        //25%    \n        withdrawalBalances[ownerOfPixel] += dividendsBank.mul(25).div(100);\n    \n        //25%   ,   \n        // withdrawalBalances[referrer] += dividendsBank.mul(25).div(100);\n    }\n\n    modifier isRegistered(string _refLink) {\n        //    \n        if (isRegisteredUser[msg.sender] != true) {\n            bytes32 refLink = Utils.toBytes32(_refLink);\n            //      \n            if (refLinkExists[refLink]) { \n                address referrer = refLinkToUser[refLink];\n                referrerToReferrals[referrer].push(msg.sender);\n                referralToReferrer[msg.sender] = referrer;\n                hasReferrer[msg.sender] = true;\n            }\n            uniqueUsersCount = uniqueUsersCount.add(1);\n            newUserToCounter[msg.sender] = uniqueUsersCount;\n            isRegisteredUser[msg.sender] = true;\n        }\n        _;\n    }\n    \n}",
  "sourcePath": "/Users/Amir/last-pixel-contracts/contracts/Game.sol",
  "compiler": {
    "name": "solc",
    "version": "0.4.24+commit.e67f0147.Emscripten.clang"
  },
  "schemaVersion": "2.0.1",
  "updatedAt": "2019-01-09T18:12:46.905Z"
}