{
  "contractName": "GameMock",
  "abi": [
    {
      "constant": true,
      "inputs": [
        {
          "name": "",
          "type": "uint256"
        },
        {
          "name": "",
          "type": "address"
        }
      ],
      "name": "addressToTimeBankPrizeForRound",
      "outputs": [
        {
          "name": "",
          "type": "uint256"
        }
      ],
      "payable": false,
      "stateMutability": "view",
      "type": "function"
    },
    {
      "constant": true,
      "inputs": [
        {
          "name": "",
          "type": "address"
        }
      ],
      "name": "addressToTimeBankPrizeTotal",
      "outputs": [
        {
          "name": "",
          "type": "uint256"
        }
      ],
      "payable": false,
      "stateMutability": "view",
      "type": "function"
    },
    {
      "constant": true,
      "inputs": [
        {
          "name": "",
          "type": "uint256"
        },
        {
          "name": "",
          "type": "uint256"
        }
      ],
      "name": "colorToTotalPaintsForRound",
      "outputs": [
        {
          "name": "",
          "type": "uint256"
        }
      ],
      "payable": false,
      "stateMutability": "view",
      "type": "function"
    },
    {
      "constant": true,
      "inputs": [
        {
          "name": "",
          "type": "uint256"
        }
      ],
      "name": "ownerOfColor",
      "outputs": [
        {
          "name": "",
          "type": "address"
        }
      ],
      "payable": false,
      "stateMutability": "view",
      "type": "function"
    },
    {
      "constant": true,
      "inputs": [
        {
          "name": "",
          "type": "uint256"
        },
        {
          "name": "",
          "type": "uint256"
        }
      ],
      "name": "colorToPaintedPixelsAmountForRound",
      "outputs": [
        {
          "name": "",
          "type": "uint256"
        }
      ],
      "payable": false,
      "stateMutability": "view",
      "type": "function"
    },
    {
      "constant": true,
      "inputs": [
        {
          "name": "",
          "type": "uint256"
        }
      ],
      "name": "winnerOfRound",
      "outputs": [
        {
          "name": "",
          "type": "address"
        }
      ],
      "payable": false,
      "stateMutability": "view",
      "type": "function"
    },
    {
      "constant": false,
      "inputs": [
        {
          "name": "_admin",
          "type": "address"
        }
      ],
      "name": "removeAdmin",
      "outputs": [],
      "payable": false,
      "stateMutability": "nonpayable",
      "type": "function"
    },
    {
      "constant": true,
      "inputs": [
        {
          "name": "",
          "type": "uint256"
        },
        {
          "name": "",
          "type": "address"
        }
      ],
      "name": "hasPaintDiscountForColor",
      "outputs": [
        {
          "name": "",
          "type": "bool"
        }
      ],
      "payable": false,
      "stateMutability": "view",
      "type": "function"
    },
    {
      "constant": true,
      "inputs": [
        {
          "name": "",
          "type": "uint256"
        },
        {
          "name": "",
          "type": "address"
        }
      ],
      "name": "hasTakenPartInRound",
      "outputs": [
        {
          "name": "",
          "type": "bool"
        }
      ],
      "payable": false,
      "stateMutability": "view",
      "type": "function"
    },
    {
      "constant": true,
      "inputs": [
        {
          "name": "",
          "type": "uint256"
        }
      ],
      "name": "teamStartedTimeForRound",
      "outputs": [
        {
          "name": "",
          "type": "uint256"
        }
      ],
      "payable": false,
      "stateMutability": "view",
      "type": "function"
    },
    {
      "constant": true,
      "inputs": [
        {
          "name": "",
          "type": "address"
        }
      ],
      "name": "isAdmin",
      "outputs": [
        {
          "name": "",
          "type": "bool"
        }
      ],
      "payable": false,
      "stateMutability": "view",
      "type": "function"
    },
    {
      "constant": true,
      "inputs": [
        {
          "name": "",
          "type": "uint256"
        }
      ],
      "name": "currentPaintGenForColor",
      "outputs": [
        {
          "name": "",
          "type": "uint256"
        }
      ],
      "payable": false,
      "stateMutability": "view",
      "type": "function"
    },
    {
      "constant": true,
      "inputs": [
        {
          "name": "",
          "type": "address"
        }
      ],
      "name": "lastPlayedRound",
      "outputs": [
        {
          "name": "",
          "type": "uint256"
        }
      ],
      "payable": false,
      "stateMutability": "view",
      "type": "function"
    },
    {
      "constant": true,
      "inputs": [
        {
          "name": "",
          "type": "uint256"
        },
        {
          "name": "",
          "type": "address"
        }
      ],
      "name": "moneySpentByUserForColor",
      "outputs": [
        {
          "name": "",
          "type": "uint256"
        }
      ],
      "payable": false,
      "stateMutability": "view",
      "type": "function"
    },
    {
      "constant": false,
      "inputs": [],
      "name": "hardCode",
      "outputs": [],
      "payable": false,
      "stateMutability": "nonpayable",
      "type": "function"
    },
    {
      "constant": false,
      "inputs": [
        {
          "name": "_pixels",
          "type": "uint256[]"
        },
        {
          "name": "_color",
          "type": "uint256"
        }
      ],
      "name": "paint",
      "outputs": [],
      "payable": true,
      "stateMutability": "payable",
      "type": "function"
    },
    {
      "constant": true,
      "inputs": [
        {
          "name": "",
          "type": "uint256"
        },
        {
          "name": "",
          "type": "uint256"
        }
      ],
      "name": "paintGenToStartTimeForColor",
      "outputs": [
        {
          "name": "",
          "type": "uint256"
        }
      ],
      "payable": false,
      "stateMutability": "view",
      "type": "function"
    },
    {
      "constant": true,
      "inputs": [
        {
          "name": "",
          "type": "uint256"
        }
      ],
      "name": "callPriceForColor",
      "outputs": [
        {
          "name": "",
          "type": "uint256"
        }
      ],
      "payable": false,
      "stateMutability": "view",
      "type": "function"
    },
    {
      "constant": true,
      "inputs": [
        {
          "name": "",
          "type": "uint256"
        }
      ],
      "name": "winnerBankForRound",
      "outputs": [
        {
          "name": "",
          "type": "uint256"
        }
      ],
      "payable": false,
      "stateMutability": "view",
      "type": "function"
    },
    {
      "constant": true,
      "inputs": [],
      "name": "uniqueUsers",
      "outputs": [
        {
          "name": "",
          "type": "uint256"
        }
      ],
      "payable": false,
      "stateMutability": "view",
      "type": "function"
    },
    {
      "constant": true,
      "inputs": [],
      "name": "founders",
      "outputs": [
        {
          "name": "",
          "type": "address"
        }
      ],
      "payable": false,
      "stateMutability": "view",
      "type": "function"
    },
    {
      "constant": false,
      "inputs": [
        {
          "name": "_claimId",
          "type": "uint256"
        }
      ],
      "name": "approveClaim",
      "outputs": [],
      "payable": false,
      "stateMutability": "nonpayable",
      "type": "function"
    },
    {
      "constant": true,
      "inputs": [
        {
          "name": "",
          "type": "uint256"
        },
        {
          "name": "",
          "type": "uint256"
        }
      ],
      "name": "pixelToOldColorForRound",
      "outputs": [
        {
          "name": "",
          "type": "uint256"
        }
      ],
      "payable": false,
      "stateMutability": "view",
      "type": "function"
    },
    {
      "constant": true,
      "inputs": [
        {
          "name": "",
          "type": "uint256"
        }
      ],
      "name": "timeBankForRound",
      "outputs": [
        {
          "name": "",
          "type": "uint256"
        }
      ],
      "payable": false,
      "stateMutability": "view",
      "type": "function"
    },
    {
      "constant": true,
      "inputs": [
        {
          "name": "",
          "type": "uint256"
        }
      ],
      "name": "teamEndedTimeForRound",
      "outputs": [
        {
          "name": "",
          "type": "uint256"
        }
      ],
      "payable": false,
      "stateMutability": "view",
      "type": "function"
    },
    {
      "constant": true,
      "inputs": [],
      "name": "claimId",
      "outputs": [
        {
          "name": "",
          "type": "uint256"
        }
      ],
      "payable": false,
      "stateMutability": "view",
      "type": "function"
    },
    {
      "constant": true,
      "inputs": [],
      "name": "colorBankPrizeOfLastPainter",
      "outputs": [
        {
          "name": "",
          "type": "uint256"
        }
      ],
      "payable": false,
      "stateMutability": "view",
      "type": "function"
    },
    {
      "constant": true,
      "inputs": [
        {
          "name": "",
          "type": "uint256"
        },
        {
          "name": "",
          "type": "uint256"
        }
      ],
      "name": "paintGenStartedForColor",
      "outputs": [
        {
          "name": "",
          "type": "bool"
        }
      ],
      "payable": false,
      "stateMutability": "view",
      "type": "function"
    },
    {
      "constant": true,
      "inputs": [
        {
          "name": "",
          "type": "uint256"
        }
      ],
      "name": "lastPaintedPixelForRound",
      "outputs": [
        {
          "name": "",
          "type": "uint256"
        }
      ],
      "payable": false,
      "stateMutability": "view",
      "type": "function"
    },
    {
      "constant": false,
      "inputs": [],
      "name": "claimDividends",
      "outputs": [],
      "payable": false,
      "stateMutability": "nonpayable",
      "type": "function"
    },
    {
      "constant": true,
      "inputs": [
        {
          "name": "_color",
          "type": "uint256"
        }
      ],
      "name": "showPotentialPrizeForColor",
      "outputs": [
        {
          "name": "",
          "type": "uint256"
        }
      ],
      "payable": false,
      "stateMutability": "view",
      "type": "function"
    },
    {
      "constant": true,
      "inputs": [],
      "name": "timeBankPrizeOfLastPainter",
      "outputs": [
        {
          "name": "",
          "type": "uint256"
        }
      ],
      "payable": false,
      "stateMutability": "view",
      "type": "function"
    },
    {
      "constant": true,
      "inputs": [
        {
          "name": "",
          "type": "uint256"
        }
      ],
      "name": "nextCallPriceForColor",
      "outputs": [
        {
          "name": "",
          "type": "uint256"
        }
      ],
      "payable": false,
      "stateMutability": "view",
      "type": "function"
    },
    {
      "constant": false,
      "inputs": [
        {
          "name": "_new",
          "type": "address"
        }
      ],
      "name": "addAdmin",
      "outputs": [],
      "payable": false,
      "stateMutability": "nonpayable",
      "type": "function"
    },
    {
      "constant": false,
      "inputs": [],
      "name": "renounceOwnership",
      "outputs": [],
      "payable": false,
      "stateMutability": "nonpayable",
      "type": "function"
    },
    {
      "constant": true,
      "inputs": [
        {
          "name": "",
          "type": "uint256"
        }
      ],
      "name": "lastPaintTimeForRound",
      "outputs": [
        {
          "name": "",
          "type": "uint256"
        }
      ],
      "payable": false,
      "stateMutability": "view",
      "type": "function"
    },
    {
      "constant": true,
      "inputs": [
        {
          "name": "",
          "type": "uint256"
        }
      ],
      "name": "lastPainterForRound",
      "outputs": [
        {
          "name": "",
          "type": "address"
        }
      ],
      "payable": false,
      "stateMutability": "view",
      "type": "function"
    },
    {
      "constant": true,
      "inputs": [
        {
          "name": "_pixel",
          "type": "uint256"
        }
      ],
      "name": "getPixelColor",
      "outputs": [
        {
          "name": "",
          "type": "uint256"
        }
      ],
      "payable": false,
      "stateMutability": "view",
      "type": "function"
    },
    {
      "constant": true,
      "inputs": [],
      "name": "currentRound",
      "outputs": [
        {
          "name": "",
          "type": "uint256"
        }
      ],
      "payable": false,
      "stateMutability": "view",
      "type": "function"
    },
    {
      "constant": true,
      "inputs": [],
      "name": "owner",
      "outputs": [
        {
          "name": "",
          "type": "address"
        }
      ],
      "payable": false,
      "stateMutability": "view",
      "type": "function"
    },
    {
      "constant": true,
      "inputs": [],
      "name": "isOwner",
      "outputs": [
        {
          "name": "",
          "type": "bool"
        }
      ],
      "payable": false,
      "stateMutability": "view",
      "type": "function"
    },
    {
      "constant": true,
      "inputs": [
        {
          "name": "",
          "type": "uint256"
        },
        {
          "name": "",
          "type": "uint256"
        }
      ],
      "name": "colorBankToColorForRound",
      "outputs": [
        {
          "name": "",
          "type": "uint256"
        }
      ],
      "payable": false,
      "stateMutability": "view",
      "type": "function"
    },
    {
      "constant": true,
      "inputs": [
        {
          "name": "",
          "type": "uint256"
        },
        {
          "name": "",
          "type": "address"
        }
      ],
      "name": "addressToColorBankPrizeForRound",
      "outputs": [
        {
          "name": "",
          "type": "uint256"
        }
      ],
      "payable": false,
      "stateMutability": "view",
      "type": "function"
    },
    {
      "constant": true,
      "inputs": [
        {
          "name": "",
          "type": "uint256"
        }
      ],
      "name": "claims",
      "outputs": [
        {
          "name": "id",
          "type": "uint256"
        },
        {
          "name": "claimer",
          "type": "address"
        },
        {
          "name": "isResolved",
          "type": "bool"
        },
        {
          "name": "timestamp",
          "type": "uint256"
        }
      ],
      "payable": false,
      "stateMutability": "view",
      "type": "function"
    },
    {
      "constant": true,
      "inputs": [],
      "name": "ownerOfPixel",
      "outputs": [
        {
          "name": "",
          "type": "address"
        }
      ],
      "payable": false,
      "stateMutability": "view",
      "type": "function"
    },
    {
      "constant": true,
      "inputs": [
        {
          "name": "_pixels",
          "type": "uint256[]"
        },
        {
          "name": "_color",
          "type": "uint256"
        }
      ],
      "name": "estimateCallPrice",
      "outputs": [
        {
          "name": "",
          "type": "uint256"
        }
      ],
      "payable": false,
      "stateMutability": "view",
      "type": "function"
    },
    {
      "constant": true,
      "inputs": [
        {
          "name": "",
          "type": "uint256"
        },
        {
          "name": "",
          "type": "address"
        }
      ],
      "name": "colorToUserToTotalCounter",
      "outputs": [
        {
          "name": "",
          "type": "uint256"
        }
      ],
      "payable": false,
      "stateMutability": "view",
      "type": "function"
    },
    {
      "constant": false,
      "inputs": [],
      "name": "claimTimeBankPrizeForLastPlayedRound",
      "outputs": [],
      "payable": false,
      "stateMutability": "nonpayable",
      "type": "function"
    },
    {
      "constant": true,
      "inputs": [
        {
          "name": "",
          "type": "uint256"
        },
        {
          "name": "",
          "type": "uint256"
        }
      ],
      "name": "pixelToColorForRound",
      "outputs": [
        {
          "name": "",
          "type": "uint256"
        }
      ],
      "payable": false,
      "stateMutability": "view",
      "type": "function"
    },
    {
      "constant": true,
      "inputs": [
        {
          "name": "",
          "type": "address"
        }
      ],
      "name": "addressToColorBankPrizeTotal",
      "outputs": [
        {
          "name": "",
          "type": "uint256"
        }
      ],
      "payable": false,
      "stateMutability": "view",
      "type": "function"
    },
    {
      "constant": true,
      "inputs": [
        {
          "name": "",
          "type": "uint256"
        }
      ],
      "name": "totalPaintsForRound",
      "outputs": [
        {
          "name": "",
          "type": "uint256"
        }
      ],
      "payable": false,
      "stateMutability": "view",
      "type": "function"
    },
    {
      "constant": true,
      "inputs": [
        {
          "name": "",
          "type": "address"
        }
      ],
      "name": "isRegistered",
      "outputs": [
        {
          "name": "",
          "type": "bool"
        }
      ],
      "payable": false,
      "stateMutability": "view",
      "type": "function"
    },
    {
      "constant": true,
      "inputs": [
        {
          "name": "",
          "type": "address"
        }
      ],
      "name": "userToTotalCounter",
      "outputs": [
        {
          "name": "",
          "type": "uint256"
        }
      ],
      "payable": false,
      "stateMutability": "view",
      "type": "function"
    },
    {
      "constant": true,
      "inputs": [
        {
          "name": "",
          "type": "uint256"
        }
      ],
      "name": "colorBankForRound",
      "outputs": [
        {
          "name": "",
          "type": "uint256"
        }
      ],
      "payable": false,
      "stateMutability": "view",
      "type": "function"
    },
    {
      "constant": true,
      "inputs": [
        {
          "name": "",
          "type": "uint256"
        },
        {
          "name": "",
          "type": "uint256"
        }
      ],
      "name": "paintGenToEndTimeForColor",
      "outputs": [
        {
          "name": "",
          "type": "uint256"
        }
      ],
      "payable": false,
      "stateMutability": "view",
      "type": "function"
    },
    {
      "constant": false,
      "inputs": [],
      "name": "_claimBankPrizeForLastPlayedRound",
      "outputs": [],
      "payable": false,
      "stateMutability": "nonpayable",
      "type": "function"
    },
    {
      "constant": true,
      "inputs": [
        {
          "name": "",
          "type": "uint256"
        },
        {
          "name": "",
          "type": "uint256"
        }
      ],
      "name": "paintGenToAmountForColor",
      "outputs": [
        {
          "name": "",
          "type": "uint256"
        }
      ],
      "payable": false,
      "stateMutability": "view",
      "type": "function"
    },
    {
      "constant": true,
      "inputs": [
        {
          "name": "",
          "type": "address"
        },
        {
          "name": "",
          "type": "uint256"
        }
      ],
      "name": "userToCounterToTimestamp",
      "outputs": [
        {
          "name": "",
          "type": "uint256"
        }
      ],
      "payable": false,
      "stateMutability": "view",
      "type": "function"
    },
    {
      "constant": true,
      "inputs": [
        {
          "name": "",
          "type": "address"
        },
        {
          "name": "",
          "type": "uint256"
        }
      ],
      "name": "isPrizeDistributedForRound",
      "outputs": [
        {
          "name": "",
          "type": "bool"
        }
      ],
      "payable": false,
      "stateMutability": "view",
      "type": "function"
    },
    {
      "constant": true,
      "inputs": [
        {
          "name": "",
          "type": "address"
        },
        {
          "name": "",
          "type": "uint256"
        },
        {
          "name": "",
          "type": "uint256"
        }
      ],
      "name": "userToColorToCounterToTimestamp",
      "outputs": [
        {
          "name": "",
          "type": "uint256"
        }
      ],
      "payable": false,
      "stateMutability": "view",
      "type": "function"
    },
    {
      "constant": true,
      "inputs": [
        {
          "name": "",
          "type": "uint256"
        },
        {
          "name": "",
          "type": "address"
        }
      ],
      "name": "usersPaintDiscountForColor",
      "outputs": [
        {
          "name": "",
          "type": "uint256"
        }
      ],
      "payable": false,
      "stateMutability": "view",
      "type": "function"
    },
    {
      "constant": false,
      "inputs": [],
      "name": "claimColorBankPrizeForLastPlayedRound",
      "outputs": [],
      "payable": false,
      "stateMutability": "nonpayable",
      "type": "function"
    },
    {
      "constant": true,
      "inputs": [],
      "name": "maxPaintsInPool",
      "outputs": [
        {
          "name": "",
          "type": "uint256"
        }
      ],
      "payable": false,
      "stateMutability": "view",
      "type": "function"
    },
    {
      "constant": false,
      "inputs": [
        {
          "name": "newOwner",
          "type": "address"
        }
      ],
      "name": "transferOwnership",
      "outputs": [],
      "payable": false,
      "stateMutability": "nonpayable",
      "type": "function"
    },
    {
      "constant": true,
      "inputs": [
        {
          "name": "",
          "type": "uint256"
        }
      ],
      "name": "winnerColorForRound",
      "outputs": [
        {
          "name": "",
          "type": "uint256"
        }
      ],
      "payable": false,
      "stateMutability": "view",
      "type": "function"
    },
    {
      "constant": true,
      "inputs": [],
      "name": "dividendsBank",
      "outputs": [
        {
          "name": "",
          "type": "uint256"
        }
      ],
      "payable": false,
      "stateMutability": "view",
      "type": "function"
    },
    {
      "constant": true,
      "inputs": [
        {
          "name": "",
          "type": "address"
        }
      ],
      "name": "withdrawalBalances",
      "outputs": [
        {
          "name": "",
          "type": "uint256"
        }
      ],
      "payable": false,
      "stateMutability": "view",
      "type": "function"
    },
    {
      "inputs": [],
      "payable": true,
      "stateMutability": "payable",
      "type": "constructor"
    },
    {
      "anonymous": false,
      "inputs": [
        {
          "indexed": true,
          "name": "pixelId",
          "type": "uint256"
        },
        {
          "indexed": false,
          "name": "colorId",
          "type": "uint256"
        },
        {
          "indexed": true,
          "name": "painter",
          "type": "address"
        },
        {
          "indexed": true,
          "name": "round",
          "type": "uint256"
        }
      ],
      "name": "Paint",
      "type": "event"
    },
    {
      "anonymous": false,
      "inputs": [
        {
          "indexed": true,
          "name": "withdrawer",
          "type": "address"
        },
        {
          "indexed": true,
          "name": "currentTime",
          "type": "uint256"
        },
        {
          "indexed": true,
          "name": "amount",
          "type": "uint256"
        }
      ],
      "name": "DividendsWithdrawn",
      "type": "event"
    },
    {
      "anonymous": false,
      "inputs": [
        {
          "indexed": true,
          "name": "claimer",
          "type": "address"
        },
        {
          "indexed": true,
          "name": "currentTime",
          "type": "uint256"
        }
      ],
      "name": "DividendsClaimed",
      "type": "event"
    },
    {
      "anonymous": false,
      "inputs": [
        {
          "indexed": true,
          "name": "newCallPrice",
          "type": "uint256"
        }
      ],
      "name": "CallPriceUpdated",
      "type": "event"
    },
    {
      "anonymous": false,
      "inputs": [
        {
          "indexed": true,
          "name": "winner",
          "type": "address"
        },
        {
          "indexed": true,
          "name": "winnerColor",
          "type": "uint256"
        },
        {
          "indexed": true,
          "name": "currentRound",
          "type": "uint256"
        }
      ],
      "name": "ColorBankPlayed",
      "type": "event"
    },
    {
      "anonymous": false,
      "inputs": [
        {
          "indexed": true,
          "name": "winner",
          "type": "address"
        },
        {
          "indexed": true,
          "name": "round",
          "type": "uint256"
        },
        {
          "indexed": true,
          "name": "amount",
          "type": "uint256"
        }
      ],
      "name": "ColorBankPrizeDistributed",
      "type": "event"
    },
    {
      "anonymous": false,
      "inputs": [
        {
          "indexed": true,
          "name": "winner",
          "type": "address"
        },
        {
          "indexed": true,
          "name": "currentRound",
          "type": "uint256"
        }
      ],
      "name": "TimeBankPlayed",
      "type": "event"
    },
    {
      "anonymous": false,
      "inputs": [
        {
          "indexed": true,
          "name": "winner",
          "type": "address"
        },
        {
          "indexed": true,
          "name": "round",
          "type": "uint256"
        },
        {
          "indexed": true,
          "name": "amount",
          "type": "uint256"
        }
      ],
      "name": "TimeBankPrizeDistributed",
      "type": "event"
    },
    {
      "anonymous": false,
      "inputs": [
        {
          "indexed": true,
          "name": "previousOwner",
          "type": "address"
        },
        {
          "indexed": true,
          "name": "newOwner",
          "type": "address"
        }
      ],
      "name": "OwnershipTransferred",
      "type": "event"
    },
    {
      "constant": true,
      "inputs": [],
      "name": "currentTime",
      "outputs": [
        {
          "name": "",
          "type": "uint256"
        }
      ],
      "payable": false,
      "stateMutability": "view",
      "type": "function"
    },
    {
      "constant": false,
      "inputs": [
        {
          "name": "_color",
          "type": "uint256"
        },
        {
          "name": "_amount",
          "type": "uint256"
        }
      ],
      "name": "setPaintedPixelsAmount",
      "outputs": [],
      "payable": false,
      "stateMutability": "nonpayable",
      "type": "function"
    },
    {
      "constant": false,
      "inputs": [
        {
          "name": "_round",
          "type": "uint256"
        },
        {
          "name": "_colorBank",
          "type": "uint256"
        }
      ],
      "name": "setColorBankForRound",
      "outputs": [],
      "payable": false,
      "stateMutability": "nonpayable",
      "type": "function"
    },
    {
      "constant": false,
      "inputs": [
        {
          "name": "_round",
          "type": "uint256"
        },
        {
          "name": "_timeBank",
          "type": "uint256"
        }
      ],
      "name": "setTimeBankForRound",
      "outputs": [],
      "payable": false,
      "stateMutability": "nonpayable",
      "type": "function"
    },
    {
      "constant": false,
      "inputs": [
        {
          "name": "_color",
          "type": "uint256"
        }
      ],
      "name": "paint9998pixels",
      "outputs": [],
      "payable": false,
      "stateMutability": "nonpayable",
      "type": "function"
    }
  ],
  "bytecode": "0x608060405273ca35b7d915458ef540ade6068dfe2f44e8fa733c603060006101000a81548173ffffffffffffffffffffffffffffffffffffffff021916908373ffffffffffffffffffffffffffffffffffffffff160217905550733e4d187df7d8a0820eaf4174d17b160157610912603160006101000a81548173ffffffffffffffffffffffffffffffffffffffff021916908373ffffffffffffffffffffffffffffffffffffffff160217905550600080600033601a60006101000a81548173ffffffffffffffffffffffffffffffffffffffff021916908373ffffffffffffffffffffffffffffffffffffffff160217905550601a60009054906101000a900473ffffffffffffffffffffffffffffffffffffffff1673ffffffffffffffffffffffffffffffffffffffff16600073ffffffffffffffffffffffffffffffffffffffff167f8be0079c531659141344cd1fd0a4f28419497f9722a3daafe3b4186f6b6457e060405160405180910390a36001602960003373ffffffffffffffffffffffffffffffffffffffff1673ffffffffffffffffffffffffffffffffffffffff16815260200190815260200160002060006101000a81548160ff021916908315150217905550600190505b6008811115156200024d5773bf0e4036bf968dd007f9b4a1bfda4e54c042f612602a600083815260200190815260200160002060006101000a81548173ffffffffffffffffffffffffffffffffffffffff021916908373ffffffffffffffffffffffffffffffffffffffff1602179055508080600101915050620001ce565b506127106025819055506001601981905550600190505b600381111515620004475760016022600083815260200190815260200160002081905550662386f26fc10000602360008381526020019081526020016000208190555060236000828152602001908152602001600020546024600083815260200190815260200160002081905550602554601e60008381526020019081526020016000206000602260008581526020019081526020016000205481526020019081526020016000208190555060016021600083815260200190815260200160002060006022600085815260200190815260200160002054815260200190815260200160002060006101000a81548160ff0219169083151502179055506000601d60006019548152602001908152602001600020541415620003bf574260206000838152602001908152602001600020600060016022600086815260200190815260200160002054038152602001908152602001600020819055505b42601f600083815260200190815260200160002060006022600085815260200190815260200160002054815260200190815260200160002081905550602554601e600083815260200190815260200160002060006022600085815260200190815260200160002054815260200190815260200160002081905550808060010191505062000264565b5060646025819055506001601981905550600190505b600381111515620006405760016022600083815260200190815260200160002081905550662386f26fc10000602360008381526020019081526020016000208190555060236000828152602001908152602001600020546024600083815260200190815260200160002081905550602554601e60008381526020019081526020016000206000602260008581526020019081526020016000205481526020019081526020016000208190555060016021600083815260200190815260200160002060006022600085815260200190815260200160002054815260200190815260200160002060006101000a81548160ff0219169083151502179055506000601d60006019548152602001908152602001600020541415620005b8574260206000838152602001908152602001600020600060016022600086815260200190815260200160002054038152602001908152602001600020819055505b42601f600083815260200190815260200160002060006022600085815260200190815260200160002054815260200190815260200160002081905550602554601e60008381526020019081526020016000206000602260008581526020019081526020016000205481526020019081526020016000208190555080806001019150506200045d565b5061532480620006516000396000f30060806040526004361061034e576000357c0100000000000000000000000000000000000000000000000000000000900463ffffffff16806302fb786d1461035357806306937b4714610380578063084028eb146103e15780630ba36221146104385780630baaea44146104835780630cf9603f146104f0578063102f97131461053b5780631785f53c146105a85780631f90c6ed146105eb5780632153fb011461065057806323a43a8e146106b557806324d7806c146106f657806328361f571461075157806328b290f9146107925780632c6c1c41146107e957806334d34b9b1461084a57806335d2084e146108615780633a173505146108995780633c6dd013146108e45780633d0d1a79146109255780633e3d1b6a1461096657806340aeff0e1461099d578063411b007e146109c857806346e3013514610a1f5780634b39173d14610a4c5780634c78e40114610a9757806355457fc114610ad85780635c25fd1314610b195780635d6ae1f414610b445780635f5d554c14610b6f578063628a71a314610bbe578063668038e014610bff5780636730e3e014610c165780636d56bfbd14610c575780636f17eb4214610c825780637048027514610cc3578063715018a614610d0657806373a9ee2614610d1d57806379ecf37614610d5e5780637b68a8f014610dcb5780638a19c8bc14610e0c5780638b9f804e14610e375780638da5cb5b14610e6e5780638f32d59b14610ec5578063a312072414610ef4578063a645867e14610f3f578063a888c2cd14610fa0578063a977e16814611026578063a9aa79fe1461107d578063abafb90e146110b4578063abd7c8ea14611138578063b66e5e9e14611199578063b8232d5d146111b0578063be6b4141146111fb578063be7d622614611252578063c3c5a54714611293578063c5098c87146112ee578063c64a2e5614611345578063c957387b14611386578063d18e81b3146113d1578063d4b291eb146113fc578063d5de47c714611413578063d62da0cd1461145e578063d7be6332146114bf578063e5b38f8a14611524578063eaf1c9101461158f578063ebf0ba03146115f0578063eef565da14611607578063f2fde38b14611632578063f49916f514611675578063f5f95b3b146116b6578063fb454d29146116e1575b600080fd5b34801561035f57600080fd5b5061037e60048036038101908080359060200190929190505050611738565b005b34801561038c57600080fd5b506103cb60048036038101908080359060200190929190803573ffffffffffffffffffffffffffffffffffffffff16906020019092919050505061178a565b6040518082815260200191505060405180910390f35b3480156103ed57600080fd5b50610422600480360381019080803573ffffffffffffffffffffffffffffffffffffffff1690602001909291905050506117af565b6040518082815260200191505060405180910390f35b34801561044457600080fd5b5061046d60048036038101908080359060200190929190803590602001909291905050506117c7565b6040518082815260200191505060405180910390f35b34801561048f57600080fd5b506104ae600480360381019080803590602001909291905050506117ec565b604051808273ffffffffffffffffffffffffffffffffffffffff1673ffffffffffffffffffffffffffffffffffffffff16815260200191505060405180910390f35b3480156104fc57600080fd5b50610525600480360381019080803590602001909291908035906020019092919050505061181f565b6040518082815260200191505060405180910390f35b34801561054757600080fd5b5061056660048036038101908080359060200190929190505050611844565b604051808273ffffffffffffffffffffffffffffffffffffffff1673ffffffffffffffffffffffffffffffffffffffff16815260200191505060405180910390f35b3480156105b457600080fd5b506105e9600480360381019080803573ffffffffffffffffffffffffffffffffffffffff169060200190929190505050611877565b005b3480156105f757600080fd5b5061063660048036038101908080359060200190929190803573ffffffffffffffffffffffffffffffffffffffff1690602001909291905050506118e5565b604051808215151515815260200191505060405180910390f35b34801561065c57600080fd5b5061069b60048036038101908080359060200190929190803573ffffffffffffffffffffffffffffffffffffffff169060200190929190505050611914565b604051808215151515815260200191505060405180910390f35b3480156106c157600080fd5b506106e060048036038101908080359060200190929190505050611943565b6040518082815260200191505060405180910390f35b34801561070257600080fd5b50610737600480360381019080803573ffffffffffffffffffffffffffffffffffffffff16906020019092919050505061195b565b604051808215151515815260200191505060405180910390f35b34801561075d57600080fd5b5061077c6004803603810190808035906020019092919050505061197b565b6040518082815260200191505060405180910390f35b34801561079e57600080fd5b506107d3600480360381019080803573ffffffffffffffffffffffffffffffffffffffff169060200190929190505050611993565b6040518082815260200191505060405180910390f35b3480156107f557600080fd5b5061083460048036038101908080359060200190929190803573ffffffffffffffffffffffffffffffffffffffff1690602001909291905050506119ab565b6040518082815260200191505060405180910390f35b34801561085657600080fd5b5061085f6119d0565b005b61089760048036038101908080359060200190820180359060200191909192939192939080359060200190929190505050611a44565b005b3480156108a557600080fd5b506108ce6004803603810190808035906020019092919080359060200190929190505050611c7b565b6040518082815260200191505060405180910390f35b3480156108f057600080fd5b5061090f60048036038101908080359060200190929190505050611ca0565b6040518082815260200191505060405180910390f35b34801561093157600080fd5b5061095060048036038101908080359060200190929190505050611cb8565b6040518082815260200191505060405180910390f35b34801561097257600080fd5b5061099b6004803603810190808035906020019092919080359060200190929190505050611cd0565b005b3480156109a957600080fd5b506109b2611cec565b6040518082815260200191505060405180910390f35b3480156109d457600080fd5b506109dd611cf2565b604051808273ffffffffffffffffffffffffffffffffffffffff1673ffffffffffffffffffffffffffffffffffffffff16815260200191505060405180910390f35b348015610a2b57600080fd5b50610a4a60048036038101908080359060200190929190505050611d18565b005b348015610a5857600080fd5b50610a816004803603810190808035906020019092919080359060200190929190505050611fc3565b6040518082815260200191505060405180910390f35b348015610aa357600080fd5b50610ac260048036038101908080359060200190929190505050611fe8565b6040518082815260200191505060405180910390f35b348015610ae457600080fd5b50610b0360048036038101908080359060200190929190505050612000565b6040518082815260200191505060405180910390f35b348015610b2557600080fd5b50610b2e612018565b6040518082815260200191505060405180910390f35b348015610b5057600080fd5b50610b5961201e565b6040518082815260200191505060405180910390f35b348015610b7b57600080fd5b50610ba46004803603810190808035906020019092919080359060200190929190505050612024565b604051808215151515815260200191505060405180910390f35b348015610bca57600080fd5b50610be960048036038101908080359060200190929190505050612053565b6040518082815260200191505060405180910390f35b348015610c0b57600080fd5b50610c1461206b565b005b348015610c2257600080fd5b50610c41600480360381019080803590602001909291905050506122bf565b6040518082815260200191505060405180910390f35b348015610c6357600080fd5b50610c6c612455565b6040518082815260200191505060405180910390f35b348015610c8e57600080fd5b50610cad6004803603810190808035906020019092919050505061245b565b6040518082815260200191505060405180910390f35b348015610ccf57600080fd5b50610d04600480360381019080803573ffffffffffffffffffffffffffffffffffffffff169060200190929190505050612473565b005b348015610d1257600080fd5b50610d1b6124e1565b005b348015610d2957600080fd5b50610d48600480360381019080803590602001909291905050506125b5565b6040518082815260200191505060405180910390f35b348015610d6a57600080fd5b50610d89600480360381019080803590602001909291905050506125cd565b604051808273ffffffffffffffffffffffffffffffffffffffff1673ffffffffffffffffffffffffffffffffffffffff16815260200191505060405180910390f35b348015610dd757600080fd5b50610df660048036038101908080359060200190929190505050612600565b6040518082815260200191505060405180910390f35b348015610e1857600080fd5b50610e21612630565b6040518082815260200191505060405180910390f35b348015610e4357600080fd5b50610e6c6004803603810190808035906020019092919080359060200190929190505050612636565b005b348015610e7a57600080fd5b50610e83612652565b604051808273ffffffffffffffffffffffffffffffffffffffff1673ffffffffffffffffffffffffffffffffffffffff16815260200191505060405180910390f35b348015610ed157600080fd5b50610eda61267c565b604051808215151515815260200191505060405180910390f35b348015610f0057600080fd5b50610f2960048036038101908080359060200190929190803590602001909291905050506126d4565b6040518082815260200191505060405180910390f35b348015610f4b57600080fd5b50610f8a60048036038101908080359060200190929190803573ffffffffffffffffffffffffffffffffffffffff1690602001909291905050506126f9565b6040518082815260200191505060405180910390f35b348015610fac57600080fd5b50610fcb6004803603810190808035906020019092919050505061271e565b604051808581526020018473ffffffffffffffffffffffffffffffffffffffff1673ffffffffffffffffffffffffffffffffffffffff1681526020018315151515815260200182815260200194505050505060405180910390f35b34801561103257600080fd5b5061103b61278a565b604051808273ffffffffffffffffffffffffffffffffffffffff1673ffffffffffffffffffffffffffffffffffffffff16815260200191505060405180910390f35b34801561108957600080fd5b506110b260048036038101908080359060200190929190803590602001909291905050506127b0565b005b3480156110c057600080fd5b5061112260048036038101908080359060200190820180359060200190808060200260200160405190810160405280939291908181526020018383602002808284378201915050505050509192919290803590602001909291905050506127df565b6040518082815260200191505060405180910390f35b34801561114457600080fd5b5061118360048036038101908080359060200190929190803573ffffffffffffffffffffffffffffffffffffffff1690602001909291905050506129d2565b6040518082815260200191505060405180910390f35b3480156111a557600080fd5b506111ae6129f7565b005b3480156111bc57600080fd5b506111e56004803603810190808035906020019092919080359060200190929190505050612f1c565b6040518082815260200191505060405180910390f35b34801561120757600080fd5b5061123c600480360381019080803573ffffffffffffffffffffffffffffffffffffffff169060200190929190505050612f41565b6040518082815260200191505060405180910390f35b34801561125e57600080fd5b5061127d60048036038101908080359060200190929190505050612f59565b6040518082815260200191505060405180910390f35b34801561129f57600080fd5b506112d4600480360381019080803573ffffffffffffffffffffffffffffffffffffffff169060200190929190505050612f71565b604051808215151515815260200191505060405180910390f35b3480156112fa57600080fd5b5061132f600480360381019080803573ffffffffffffffffffffffffffffffffffffffff169060200190929190505050612f91565b6040518082815260200191505060405180910390f35b34801561135157600080fd5b5061137060048036038101908080359060200190929190505050612fa9565b6040518082815260200191505060405180910390f35b34801561139257600080fd5b506113bb6004803603810190808035906020019092919080359060200190929190505050612fc1565b6040518082815260200191505060405180910390f35b3480156113dd57600080fd5b506113e6612fe5565b6040518082815260200191505060405180910390f35b34801561140857600080fd5b50611411612fed565b005b34801561141f57600080fd5b5061144860048036038101908080359060200190929190803590602001909291905050506131ac565b6040518082815260200191505060405180910390f35b34801561146a57600080fd5b506114a9600480360381019080803573ffffffffffffffffffffffffffffffffffffffff169060200190929190803590602001909291905050506131d1565b6040518082815260200191505060405180910390f35b3480156114cb57600080fd5b5061150a600480360381019080803573ffffffffffffffffffffffffffffffffffffffff169060200190929190803590602001909291905050506131f6565b604051808215151515815260200191505060405180910390f35b34801561153057600080fd5b50611579600480360381019080803573ffffffffffffffffffffffffffffffffffffffff1690602001909291908035906020019092919080359060200190929190505050613225565b6040518082815260200191505060405180910390f35b34801561159b57600080fd5b506115da60048036038101908080359060200190929190803573ffffffffffffffffffffffffffffffffffffffff169060200190929190505050613257565b6040518082815260200191505060405180910390f35b3480156115fc57600080fd5b5061160561327c565b005b34801561161357600080fd5b5061161c613873565b6040518082815260200191505060405180910390f35b34801561163e57600080fd5b50611673600480360381019080803573ffffffffffffffffffffffffffffffffffffffff169060200190929190505050613879565b005b34801561168157600080fd5b506116a060048036038101908080359060200190929190505050613898565b6040518082815260200191505060405180910390f35b3480156116c257600080fd5b506116cb6138b0565b6040518082815260200191505060405180910390f35b3480156116ed57600080fd5b50611722600480360381019080803573ffffffffffffffffffffffffffffffffffffffff1690602001909291905050506138b6565b6040518082815260200191505060405180910390f35b61270e600360006019548152602001908152602001600020600083815260200190815260200160002081905550671bc16d674ec800006004600060195481526020019081526020016000208190555050565b6014602052816000526040600020602052806000526040600020600091509150505481565b601b6020528060005260406000206000915090505481565b600b602052816000526040600020602052806000526040600020600091509150505481565b602a6020528060005260406000206000915054906101000a900473ffffffffffffffffffffffffffffffffffffffff1681565b6003602052816000526040600020602052806000526040600020600091509150505481565b60156020528060005260406000206000915054906101000a900473ffffffffffffffffffffffffffffffffffffffff1681565b61187f61267c565b151561188a57600080fd5b6000602960008373ffffffffffffffffffffffffffffffffffffffff1673ffffffffffffffffffffffffffffffffffffffff16815260200190815260200160002060006101000a81548160ff02191690831515021790555050565b60276020528160005260406000206020528060005260406000206000915091509054906101000a900460ff1681565b60176020528160005260406000206020528060005260406000206000915091509054906101000a900460ff1681565b600c6020528060005260406000206000915090505481565b60296020528060005260406000206000915054906101000a900460ff1681565b60226020528060005260406000206000915090505481565b60326020528060005260406000206000915090505481565b6026602052816000526040600020602052806000526040600020600091509150505481565b670de0b6b3a764000060066000601954815260200190815260200160002081905550670de0b6b3a76400006004600060195481526020019081526020016000208190555061270e60036000601954815260200190815260200160002060006002815260200190815260200160002081905550565b6000801515603460003373ffffffffffffffffffffffffffffffffffffffff1673ffffffffffffffffffffffffffffffffffffffff16815260200190815260200160002060009054906101000a900460ff1615151415611b13576001603460003373ffffffffffffffffffffffffffffffffffffffff1673ffffffffffffffffffffffffffffffffffffffff16815260200190815260200160002060006101000a81548160ff021916908315150217905550611b0c60016033546138ce90919063ffffffff16565b6033819055505b611b4c848480806020026020016040519081016040528093929190818152602001838360200280828437820191505050505050836127df565b34141515611bc2576040517f08c379a00000000000000000000000000000000000000000000000000000000081526004018080602001828103825260108152602001807f57726f6e672063616c6c2070726963650000000000000000000000000000000081525060200191505060405180910390fd5b6104b0600760006019548152602001908152602001600020544203118015611c00575060006007600060195481526020019081526020016000205414155b15611c0e57611c0d6138ef565b5b600090505b83839050811015611c4957611c3c8484838181101515611c2f57fe5b9050602002013583613c53565b8080600101915050611c13565b611c5282614495565b611c5b82614630565b611c6482614873565b611c6d8261499f565b611c75612fed565b50505050565b601f602052816000526040600020602052806000526040600020600091509150505481565b60236020528060005260406000206000915090505481565b60166020528060005260406000206000915090505481565b8060046000848152602001908152602001600020819055505050565b60335481565b603160009054906101000a900473ffffffffffffffffffffffffffffffffffffffff1681565b600080600060011515602960003373ffffffffffffffffffffffffffffffffffffffff1673ffffffffffffffffffffffffffffffffffffffff16815260200190815260200160002060009054906101000a900460ff161515141515611de5576040517f08c379a00000000000000000000000000000000000000000000000000000000081526004018080602001828103825260208152602001807f596f7520646f6e277420686176652061646d696e2070726976696c656775657381525060200191505060405180910390fd5b602f84815481101515611df457fe5b906000526020600020906003020192508260010160149054906101000a900460ff16151515611e2257600080fd5b8260010160009054906101000a900473ffffffffffffffffffffffffffffffffffffffff169150602b60008373ffffffffffffffffffffffffffffffffffffffff1673ffffffffffffffffffffffffffffffffffffffff1681526020019081526020016000205490506000602b60008473ffffffffffffffffffffffffffffffffffffffff1673ffffffffffffffffffffffffffffffffffffffff168152602001908152602001600020819055508173ffffffffffffffffffffffffffffffffffffffff166108fc829081150290604051600060405180830381858888f19350505050158015611f16573d6000803e3d6000fd5b5042602c60008473ffffffffffffffffffffffffffffffffffffffff1673ffffffffffffffffffffffffffffffffffffffff1681526020019081526020016000208190555080428373ffffffffffffffffffffffffffffffffffffffff167f1a983dd8fc1bd566844e816cd39bafaebd6523281477df579d3252da34a251d960405160405180910390a460018360010160146101000a81548160ff02191690831515021790555050505050565b6002602052816000526040600020602052806000526040600020600091509150505481565b60066020528060005260406000206000915090505481565b600d6020528060005260406000206000915090505481565b602e5481565b60355481565b60216020528160005260406000206020528060005260406000206000915091509054906101000a900460ff1681565b60096020528060005260406000206000915090505481565b6120736152b7565b6000602b60003373ffffffffffffffffffffffffffffffffffffffff1673ffffffffffffffffffffffffffffffffffffffff1681526020019081526020016000205414151515612151576040517f08c379a00000000000000000000000000000000000000000000000000000000081526004018080602001828103825260228152602001807f596f7572207769746864726177616c2062616c616e6365206973207a65726f2e81526020017f2e2e00000000000000000000000000000000000000000000000000000000000081525060400191505060405180910390fd5b602e5481600001818152505033816020019073ffffffffffffffffffffffffffffffffffffffff16908173ffffffffffffffffffffffffffffffffffffffff1681525050600081604001901515908115158152505042816060018181525050602f81908060018154018082558091505090600182039060005260206000209060030201600090919290919091506000820151816000015560208201518160010160006101000a81548173ffffffffffffffffffffffffffffffffffffffff021916908373ffffffffffffffffffffffffffffffffffffffff16021790555060408201518160010160146101000a81548160ff021916908315150217905550606082015181600201555050506122726001602e546138ce90919063ffffffff16565b602e81905550423373ffffffffffffffffffffffffffffffffffffffff167f16b8533c95f66ab8c192c98ddcf5031bcb3ee6f4022988bdadd57d3422da307360405160405180910390a350565b6000806000806000806000804296506201518042039550600e60008a815260200190815260200160002060003373ffffffffffffffffffffffffffffffffffffffff1673ffffffffffffffffffffffffffffffffffffffff1681526020019081526020016000205493508392505b60008311156123d357601060003373ffffffffffffffffffffffffffffffffffffffff1673ffffffffffffffffffffffffffffffffffffffff16815260200190815260200160002060008a8152602001908152602001600020600084815260200190815260200160002054915085821180156123a95750868211155b156123c5576123c26001866138ce90919063ffffffff16565b94505b82806001900393505061232d565b612444600b6000601954815260200190815260200160002060008b81526020019081526020016000205461243660056000601954815260200190815260200160002060008d81526020019081526020016000205488614b1290919063ffffffff16565b614b5090919063ffffffff16565b905080975050505050505050919050565b60365481565b60246020528060005260406000206000915090505481565b61247b61267c565b151561248657600080fd5b6001602960008373ffffffffffffffffffffffffffffffffffffffff1673ffffffffffffffffffffffffffffffffffffffff16815260200190815260200160002060006101000a81548160ff02191690831515021790555050565b6124e961267c565b15156124f457600080fd5b600073ffffffffffffffffffffffffffffffffffffffff16601a60009054906101000a900473ffffffffffffffffffffffffffffffffffffffff1673ffffffffffffffffffffffffffffffffffffffff167f8be0079c531659141344cd1fd0a4f28419497f9722a3daafe3b4186f6b6457e060405160405180910390a36000601a60006101000a81548173ffffffffffffffffffffffffffffffffffffffff021916908373ffffffffffffffffffffffffffffffffffffffff160217905550565b60076020528060005260406000206000915090505481565b60086020528060005260406000206000915054906101000a900473ffffffffffffffffffffffffffffffffffffffff1681565b60006001600060195481526020019081526020016000206000838152602001908152602001600020549050919050565b60195481565b8060066000848152602001908152602001600020819055505050565b6000601a60009054906101000a900473ffffffffffffffffffffffffffffffffffffffff16905090565b6000601a60009054906101000a900473ffffffffffffffffffffffffffffffffffffffff1673ffffffffffffffffffffffffffffffffffffffff163373ffffffffffffffffffffffffffffffffffffffff1614905090565b6005602052816000526040600020602052806000526040600020600091509150505481565b6013602052816000526040600020602052806000526040600020600091509150505481565b602f8181548110151561272d57fe5b90600052602060002090600302016000915090508060000154908060010160009054906101000a900473ffffffffffffffffffffffffffffffffffffffff16908060010160149054906101000a900460ff16908060020154905084565b603060009054906101000a900473ffffffffffffffffffffffffffffffffffffffff1681565b806003600060195481526020019081526020016000206000848152602001908152602001600020819055505050565b600080600080600080600080602660008a815260200190815260200160002060003373ffffffffffffffffffffffffffffffffffffffff1673ffffffffffffffffffffffffffffffffffffffff168152602001908152602001600020549350602760008a815260200190815260200160002060003373ffffffffffffffffffffffffffffffffffffffff1673ffffffffffffffffffffffffffffffffffffffff16815260200190815260200160002060009054906101000a900460ff169150602860008a815260200190815260200160002060003373ffffffffffffffffffffffffffffffffffffffff1673ffffffffffffffffffffffffffffffffffffffff168152602001908152602001600020549550600090505b89518110156129c25761293b606461292d88606403602460008e815260200190815260200160002054614b1290919063ffffffff16565b614b5090919063ffffffff16565b945060011515821515141561295257849650612969565b602460008a81526020019081526020016000205496505b86830192508684019350670de0b6b3a7640000841015156129b55760019150670de0b6b3a76400008481151561299b57fe5b049550678ac7230489e80000841015156129b457600a95505b5b80806001019150506128f6565b8297505050505050505092915050565b600e602052816000526040600020602052806000526040600020600091509150505481565b6000806000806000806000601860003373ffffffffffffffffffffffffffffffffffffffff1673ffffffffffffffffffffffffffffffffffffffff1681526020019081526020016000205496506001601860003373ffffffffffffffffffffffffffffffffffffffff1673ffffffffffffffffffffffffffffffffffffffff16815260200190815260200160002054118015612aa6575060016016600089815260200190815260200160002054145b1515612b40576040517f08c379a00000000000000000000000000000000000000000000000000000000081526004018080602001828103825260318152602001807f42616e6b206f662074696d6520776173206e6f7420706c6179656420696e207981526020017f6f7572206c61737420726f756e642e2e2e00000000000000000000000000000081525060400191505060405180910390fd5b600d6000888152602001908152602001600020549550600c6000888152602001908152602001600020549450600f60003373ffffffffffffffffffffffffffffffffffffffff1673ffffffffffffffffffffffffffffffffffffffff1681526020019081526020016000205492508291505b6000821115612c3a57601160003373ffffffffffffffffffffffffffffffffffffffff1673ffffffffffffffffffffffffffffffffffffffff1681526020019081526020016000206000838152602001908152602001600020549050848110158015612c1e5750858111155b15612c2c5783806001019450505b818060019003925050612bb2565b612c8460008089815260200190815260200160002054612c76600660008b81526020019081526020016000205487614b1290919063ffffffff16565b614b5090919063ffffffff16565b6014600089815260200190815260200160002060003373ffffffffffffffffffffffffffffffffffffffff1673ffffffffffffffffffffffffffffffffffffffff168152602001908152602001600020600082825401925050819055506014600088815260200190815260200160002060003373ffffffffffffffffffffffffffffffffffffffff1673ffffffffffffffffffffffffffffffffffffffff16815260200190815260200160002054601b60003373ffffffffffffffffffffffffffffffffffffffff1673ffffffffffffffffffffffffffffffffffffffff168152602001908152602001600020600082825401925050819055503373ffffffffffffffffffffffffffffffffffffffff166108fc601460008a815260200190815260200160002060003373ffffffffffffffffffffffffffffffffffffffff1673ffffffffffffffffffffffffffffffffffffffff168152602001908152602001600020549081150290604051600060405180830381858888f19350505050158015612e14573d6000803e3d6000fd5b506001601260003373ffffffffffffffffffffffffffffffffffffffff1673ffffffffffffffffffffffffffffffffffffffff168152602001908152602001600020600089815260200190815260200160002060006101000a81548160ff0219169083151502179055506013600088815260200190815260200160002060003373ffffffffffffffffffffffffffffffffffffffff1673ffffffffffffffffffffffffffffffffffffffff16815260200190815260200160002054873373ffffffffffffffffffffffffffffffffffffffff167f8981f49dce2918fc89fa176fbbd90d8546f51779930f7b458ca6a0d4856f878c60405160405180910390a450505050505050565b6001602052816000526040600020602052806000526040600020600091509150505481565b601c6020528060005260406000206000915090505481565b601d6020528060005260406000206000915090505481565b60346020528060005260406000206000915054906101000a900460ff1681565b600f6020528060005260406000206000915090505481565b60046020528060005260406000206000915090505481565b60208052816000526040600020602052806000526040600020600091509150505481565b600042905090565b6001603260003373ffffffffffffffffffffffffffffffffffffffff1673ffffffffffffffffffffffffffffffffffffffff168152602001908152602001600020541180156130dc575060001515601260003373ffffffffffffffffffffffffffffffffffffffff1673ffffffffffffffffffffffffffffffffffffffff1681526020019081526020016000206000603260003373ffffffffffffffffffffffffffffffffffffffff1673ffffffffffffffffffffffffffffffffffffffff16815260200190815260200160002054815260200190815260200160002060009054906101000a900460ff161515145b156131aa57600160166000603260003373ffffffffffffffffffffffffffffffffffffffff1673ffffffffffffffffffffffffffffffffffffffff168152602001908152602001600020548152602001908152602001600020541415613145576131446129f7565b5b600260166000603260003373ffffffffffffffffffffffffffffffffffffffff1673ffffffffffffffffffffffffffffffffffffffff1681526020019081526020016000205481526020019081526020016000205414156131a9576131a861327c565b5b5b565b601e602052816000526040600020602052806000526040600020600091509150505481565b6011602052816000526040600020602052806000526040600020600091509150505481565b60126020528160005260406000206020528060005260406000206000915091509054906101000a900460ff1681565b601060205282600052604060002060205281600052604060002060205280600052604060002060009250925050505481565b6028602052816000526040600020602052806000526040600020600091509150505481565b600080600080600080600080601860003373ffffffffffffffffffffffffffffffffffffffff1673ffffffffffffffffffffffffffffffffffffffff1681526020019081526020016000205497506001601860003373ffffffffffffffffffffffffffffffffffffffff1673ffffffffffffffffffffffffffffffffffffffff1681526020019081526020016000205411801561332c57506002601660008a815260200190815260200160002054145b15156133c6576040517f08c379a00000000000000000000000000000000000000000000000000000000081526004018080602001828103825260328152602001807f42616e6b206f6620636f6c6f7220776173206e6f7420706c6179656420696e2081526020017f796f7572206c61737420726f756e642e2e2e000000000000000000000000000081525060400191505060405180910390fd5b600a6000898152602001908152602001600020549650600d60008981526020019081526020016000205495506001601860003373ffffffffffffffffffffffffffffffffffffffff1673ffffffffffffffffffffffffffffffffffffffff16815260200190815260200160002054118015613457575060016016600060018b03815260200190815260200160002054145b15613469576201518086039450613480565b600c60008981526020019081526020016000205494505b600e600088815260200190815260200160002060003373ffffffffffffffffffffffffffffffffffffffff1673ffffffffffffffffffffffffffffffffffffffff1681526020019081526020016000205492508291505b600082111561357e57601060003373ffffffffffffffffffffffffffffffffffffffff1673ffffffffffffffffffffffffffffffffffffffff168152602001908152602001600020600088815260200190815260200160002060008381526020019081526020016000205490508481101580156135545750858111155b156135705761356d6001856138ce90919063ffffffff16565b93505b8180600190039250506134d7565b6135da600b60008a81526020019081526020016000206000898152602001908152602001600020546135cc600460008c81526020019081526020016000205487614b1290919063ffffffff16565b614b5090919063ffffffff16565b601360008a815260200190815260200160002060003373ffffffffffffffffffffffffffffffffffffffff1673ffffffffffffffffffffffffffffffffffffffff168152602001908152602001600020600082825401925050819055506013600089815260200190815260200160002060003373ffffffffffffffffffffffffffffffffffffffff1673ffffffffffffffffffffffffffffffffffffffff16815260200190815260200160002054601c60003373ffffffffffffffffffffffffffffffffffffffff1673ffffffffffffffffffffffffffffffffffffffff168152602001908152602001600020600082825401925050819055503373ffffffffffffffffffffffffffffffffffffffff166108fc601360008b815260200190815260200160002060003373ffffffffffffffffffffffffffffffffffffffff1673ffffffffffffffffffffffffffffffffffffffff168152602001908152602001600020549081150290604051600060405180830381858888f1935050505015801561376a573d6000803e3d6000fd5b506001601260003373ffffffffffffffffffffffffffffffffffffffff1673ffffffffffffffffffffffffffffffffffffffff16815260200190815260200160002060008a815260200190815260200160002060006101000a81548160ff0219169083151502179055506013600089815260200190815260200160002060003373ffffffffffffffffffffffffffffffffffffffff1673ffffffffffffffffffffffffffffffffffffffff16815260200190815260200160002054883373ffffffffffffffffffffffffffffffffffffffff167fff0e3cc6a8358bbcae69e6c859a508401151d25fe2552fc59ca6f31b37461b5060405160405180910390a45050505050505050565b60255481565b61388161267c565b151561388c57600080fd5b61389581614b7a565b50565b600a6020528060005260406000206000915090505481565b602d5481565b602b6020528060005260406000206000915090505481565b60008082840190508381101515156138e557600080fd5b8091505092915050565b620151804203600c600060195481526020019081526020016000208190555042600d600060195481526020019081526020016000208190555060086000601954815260200190815260200160002060009054906101000a900473ffffffffffffffffffffffffffffffffffffffff1660156000601954815260200190815260200160002060006101000a81548173ffffffffffffffffffffffffffffffffffffffff021916908373ffffffffffffffffffffffffffffffffffffffff1602179055506139ed60646139df602d60066000601954815260200190815260200160002054614b1290919063ffffffff16565b614b5090919063ffffffff16565b60368190555060156000601954815260200190815260200160002060009054906101000a900473ffffffffffffffffffffffffffffffffffffffff1673ffffffffffffffffffffffffffffffffffffffff166108fc6036549081150290604051600060405180830381858888f19350505050158015613a70573d6000803e3d6000fd5b50600160166000601954815260200190815260200160002081905550613ab5600a60066000601954815260200190815260200160002054614b5090919063ffffffff16565b60066000600160195401815260200190815260200160002081905550613b0d6064613aff602d60066000601954815260200190815260200160002054614b1290919063ffffffff16565b614b5090919063ffffffff16565b6006600060195481526020019081526020016000208190555060046000601954815260200190815260200160002054600460006001601954018152602001908152602001600020819055506000600460006019548152602001908152602001600020819055503373ffffffffffffffffffffffffffffffffffffffff166108fc349081150290604051600060405180830381858888f19350505050158015613bb9573d6000803e3d6000fd5b5060195460156000601954815260200190815260200160002060009054906101000a900473ffffffffffffffffffffffffffffffffffffffff1673ffffffffffffffffffffffffffffffffffffffff167f20f206bcab56eeef408295aaff8745adb98fed16823d758193e9449983d23fd260405160405180910390a3613c4b60016019546138ce90919063ffffffff16565b601981905550565b6000806000613c6184614c76565b60008514151515613d00576040517f08c379a00000000000000000000000000000000000000000000000000000000081526004018080602001828103825260278152602001807f54686520706978656c2077697468206964203d203020646f6573206e6f74206581526020017f786973742e2e2e0000000000000000000000000000000000000000000000000081525060400191505060405180910390fd5b60008414151515613d9f576040517f08c379a00000000000000000000000000000000000000000000000000000000081526004018080602001828103825260288152602001807f596f752063616e6e6f74207061696e7420746f207472616e73706172656e742081526020017f636f6c6f722e2e2e00000000000000000000000000000000000000000000000081525060400191505060405180910390fd5b8360016000601954815260200190815260200160002060008781526020019081526020016000205414151515613e63576040517f08c379a00000000000000000000000000000000000000000000000000000000081526004018080602001828103825260268152602001807f5468697320706978656c20697320616c7265616479206f66207468697320636f81526020017f6c6f722e2e2e000000000000000000000000000000000000000000000000000081525060400191505060405180910390fd5b6001600060195481526020019081526020016000206000868152602001908152602001600020549250836001600060195481526020019081526020016000206000878152602001908152602001600020819055508260026000601954815260200190815260200160002060008781526020019081526020016000208190555042600760006019548152602001908152602001600020819055503360086000601954815260200190815260200160002060006101000a81548173ffffffffffffffffffffffffffffffffffffffff021916908373ffffffffffffffffffffffffffffffffffffffff16021790555060006003600060195481526020019081526020016000206000858152602001908152602001600020541115613fe457613fb96001600360006019548152602001908152602001600020600086815260200190815260200160002054614f1490919063ffffffff16565b6003600060195481526020019081526020016000206000858152602001908152602001600020819055505b61401e60016003600060195481526020019081526020016000206000878152602001908152602001600020546138ce90919063ffffffff16565b600360006019548152602001908152602001600020600086815260200190815260200160002081905550600e600085815260200190815260200160002060003373ffffffffffffffffffffffffffffffffffffffff1673ffffffffffffffffffffffffffffffffffffffff1681526020019081526020016000205491506140af6001836138ce90919063ffffffff16565b915081600e600086815260200190815260200160002060003373ffffffffffffffffffffffffffffffffffffffff1673ffffffffffffffffffffffffffffffffffffffff16815260200190815260200160002081905550600f60003373ffffffffffffffffffffffffffffffffffffffff1673ffffffffffffffffffffffffffffffffffffffff16815260200190815260200160002054905061415c6001826138ce90919063ffffffff16565b905080600f60003373ffffffffffffffffffffffffffffffffffffffff1673ffffffffffffffffffffffffffffffffffffffff1681526020019081526020016000208190555042601060003373ffffffffffffffffffffffffffffffffffffffff1673ffffffffffffffffffffffffffffffffffffffff168152602001908152602001600020600086815260200190815260200160002060008481526020019081526020016000208190555042601160003373ffffffffffffffffffffffffffffffffffffffff1673ffffffffffffffffffffffffffffffffffffffff1681526020019081526020016000206000838152602001908152602001600020819055506142976001600b600060195481526020019081526020016000206000878152602001908152602001600020546138ce90919063ffffffff16565b600b600060195481526020019081526020016000206000868152602001908152602001600020819055506142ea6001601d60006019548152602001908152602001600020546138ce90919063ffffffff16565b601d6000601954815260200190815260200160002081905550601954603260003373ffffffffffffffffffffffffffffffffffffffff1673ffffffffffffffffffffffffffffffffffffffff168152602001908152602001600020819055506143946001601e600087815260200190815260200160002060006022600089815260200190815260200160002054815260200190815260200160002054614f1490919063ffffffff16565b601e60008681526020019081526020016000206000602260008881526020019081526020016000205481526020019081526020016000208190555084600960006019548152602001908152602001600020819055506019543373ffffffffffffffffffffffffffffffffffffffff16867f9fc3dbbdc37d009049a6fcc93e65a525d9d3dbb003222c5589680354313e5377876040518082815260200191505060405180910390a4612710600360006019548152602001908152602001600020600086815260200190815260200160002054141561448e5783600a600060195481526020019081526020016000208190555061448d614f35565b5b5050505050565b6144f46144bf60646144b1602834614b1290919063ffffffff16565b614b5090919063ffffffff16565b6005600060195481526020019081526020016000206000848152602001908152602001600020546138ce90919063ffffffff16565b60056000601954815260200190815260200160002060008381526020019081526020016000208190555061456c614548606461453a602834614b1290919063ffffffff16565b614b5090919063ffffffff16565b600460006019548152602001908152602001600020546138ce90919063ffffffff16565b600460006019548152602001908152602001600020819055506145d36145af60646145a1602834614b1290919063ffffffff16565b614b5090919063ffffffff16565b600660006019548152602001908152602001600020546138ce90919063ffffffff16565b600660006019548152602001908152602001600020819055506146276146166064614608601434614b1290919063ffffffff16565b614b5090919063ffffffff16565b602d546138ce90919063ffffffff16565b602d8190555050565b6146cc61465c606461464e6019602d54614b1290919063ffffffff16565b614b5090919063ffffffff16565b602b6000603160009054906101000a900473ffffffffffffffffffffffffffffffffffffffff1673ffffffffffffffffffffffffffffffffffffffff1673ffffffffffffffffffffffffffffffffffffffff168152602001908152602001600020546138ce90919063ffffffff16565b602b6000603160009054906101000a900473ffffffffffffffffffffffffffffffffffffffff1673ffffffffffffffffffffffffffffffffffffffff1673ffffffffffffffffffffffffffffffffffffffff1681526020019081526020016000208190555061475a606461474c6019602d54614b1290919063ffffffff16565b614b5090919063ffffffff16565b602b6000602a600085815260200190815260200160002060009054906101000a900473ffffffffffffffffffffffffffffffffffffffff1673ffffffffffffffffffffffffffffffffffffffff1673ffffffffffffffffffffffffffffffffffffffff1681526020019081526020016000206000828254019250508190555061480260646147f46019602d54614b1290919063ffffffff16565b614b5090919063ffffffff16565b602b6000603060009054906101000a900473ffffffffffffffffffffffffffffffffffffffff1673ffffffffffffffffffffffffffffffffffffffff1673ffffffffffffffffffffffffffffffffffffffff1681526020019081526020016000206000828254019250508190555050565b346026600083815260200190815260200160002060003373ffffffffffffffffffffffffffffffffffffffff1673ffffffffffffffffffffffffffffffffffffffff16815260200190815260200160002060008282540192505081905550670de0b6b3a76400006026600083815260200190815260200160002060003373ffffffffffffffffffffffffffffffffffffffff1673ffffffffffffffffffffffffffffffffffffffff1681526020019081526020016000205410151561499c5760016027600083815260200190815260200160002060003373ffffffffffffffffffffffffffffffffffffffff1673ffffffffffffffffffffffffffffffffffffffff16815260200190815260200160002060006101000a81548160ff0219169083151502179055505b50565b670de0b6b3a76400006026600083815260200190815260200160002060003373ffffffffffffffffffffffffffffffffffffffff1673ffffffffffffffffffffffffffffffffffffffff16815260200190815260200160002054811515614a0257fe5b046028600083815260200190815260200160002060003373ffffffffffffffffffffffffffffffffffffffff1673ffffffffffffffffffffffffffffffffffffffff16815260200190815260200160002081905550678ac7230489e800006026600083815260200190815260200160002060003373ffffffffffffffffffffffffffffffffffffffff1673ffffffffffffffffffffffffffffffffffffffff16815260200190815260200160002054101515614b0f57600a6028600083815260200190815260200160002060003373ffffffffffffffffffffffffffffffffffffffff1673ffffffffffffffffffffffffffffffffffffffff168152602001908152602001600020819055505b50565b6000806000841415614b275760009150614b49565b8284029050828482811515614b3857fe5b04141515614b4557600080fd5b8091505b5092915050565b600080600083111515614b6257600080fd5b8284811515614b6d57fe5b0490508091505092915050565b600073ffffffffffffffffffffffffffffffffffffffff168173ffffffffffffffffffffffffffffffffffffffff1614151515614bb657600080fd5b8073ffffffffffffffffffffffffffffffffffffffff16601a60009054906101000a900473ffffffffffffffffffffffffffffffffffffffff1673ffffffffffffffffffffffffffffffffffffffff167f8be0079c531659141344cd1fd0a4f28419497f9722a3daafe3b4186f6b6457e060405160405180910390a380601a60006101000a81548173ffffffffffffffffffffffffffffffffffffffff021916908373ffffffffffffffffffffffffffffffffffffffff16021790555050565b600080605a60206000858152602001908152602001600020600060016022600088815260200190815260200160002054038152602001908152602001600020544203101515614f0f57601e6000848152602001908152602001600020600060226000868152602001908152602001600020548152602001908152602001600020549150614d20600160226000868152602001908152602001600020546138ce90919063ffffffff16565b90506000151560216000858152602001908152602001600020600083815260200190815260200160002060009054906101000a900460ff1615151415614e0457614d7582602554614f1490919063ffffffff16565b601e600085815260200190815260200160002060008381526020019081526020016000208190555042601f6000858152602001908152602001600020600083815260200190815260200160002081905550600160216000858152602001908152602001600020600083815260200190815260200160002060006101000a81548160ff0219169083151502179055505b6001601e6000858152602001908152602001600020600060226000878152602001908152602001600020548152602001908152602001600020541415614e8a57614e4d83615223565b4260206000858152602001908152602001600020600060226000878152602001908152602001600020548152602001908152602001600020819055505b6000601e6000858152602001908152602001600020600060226000878152602001908152602001600020548152602001908152602001600020541415614f0e57602460008481526020019081526020016000205460236000858152602001908152602001600020819055508060226000858152602001908152602001600020819055505b5b505050565b600080838311151515614f2657600080fd5b82840390508091505092915050565b620151804203600c600060195481526020019081526020016000208190555042600d600060195481526020019081526020016000208190555060086000601954815260200190815260200160002060009054906101000a900473ffffffffffffffffffffffffffffffffffffffff1660156000601954815260200190815260200160002060006101000a81548173ffffffffffffffffffffffffffffffffffffffff021916908373ffffffffffffffffffffffffffffffffffffffff1602179055506150336064615025603260046000601954815260200190815260200160002054614b1290919063ffffffff16565b614b5090919063ffffffff16565b60358190555060156000601954815260200190815260200160002060009054906101000a900473ffffffffffffffffffffffffffffffffffffffff1673ffffffffffffffffffffffffffffffffffffffff166108fc6035549081150290604051600060405180830381858888f193505050501580156150b6573d6000803e3d6000fd5b5060026016600060195481526020019081526020016000208190555061510e6064615100603260046000601954815260200190815260200160002054614b1290919063ffffffff16565b614b5090919063ffffffff16565b600460006019548152602001908152602001600020819055506006600060195481526020019081526020016000205460066000600160195401815260200190815260200160002081905550600060066000601954815260200190815260200160002081905550601954600a600060195481526020019081526020016000205460156000601954815260200190815260200160002060009054906101000a900473ffffffffffffffffffffffffffffffffffffffff1673ffffffffffffffffffffffffffffffffffffffff167f6ec93b9ea332e4928177b5b176be94d4c0e6dae6a28a0b810c5765928344f0f360405160405180910390a461521b60016019546138ce90919063ffffffff16565b601981905550565b61525d606461524f60696023600086815260200190815260200160002054614b1290919063ffffffff16565b614b5090919063ffffffff16565b602460008381526020019081526020016000208190555060236000828152602001908152602001600020547f3bb22f778670a5901bff4d41c425858dac1ea6aeb048d40f959a6bc43f98506160405160405180910390a250565b60806040519081016040528060008152602001600073ffffffffffffffffffffffffffffffffffffffff1681526020016000151581526020016000815250905600a165627a7a72305820da1b5ce03554d1fc7fcc15eea4cc7c9b932fe3a1ea2785cfbfaaad2f11d6ae770029",
  "source": "pragma solidity ^0.4.24;\n\nimport \"./Game.sol\";\n\ncontract GameMock is Game {\n\n    constructor() payable {\n        maxPaintsInPool = 100; //10000 in production\n        currentRound = 1;\n        \n        for (uint i = 1; i <= 3; i++) {\n            currentPaintGenForColor[i] = 1;\n            callPriceForColor[i] = 0.01 ether;\n            nextCallPriceForColor[i] = callPriceForColor[i];\n            paintGenToAmountForColor[i][currentPaintGenForColor[i]] = maxPaintsInPool;\n            paintGenStartedForColor[i][currentPaintGenForColor[i]] = true;\n            \n            //       \n            if (totalPaintsForRound[currentRound] == 0) {\n                paintGenToEndTimeForColor[i][currentPaintGenForColor[i] - 1] = now;\n            }\n            \n            paintGenToStartTimeForColor[i][currentPaintGenForColor[i]] = now;\n            paintGenToAmountForColor[i][currentPaintGenForColor[i]] = maxPaintsInPool;\n        }\n    }\n\n    function currentTime() public view returns (uint) {\n        return now;\n    }\n\n    function setPaintedPixelsAmount(uint _color, uint _amount) external {\n        colorToPaintedPixelsAmountForRound[currentRound][_color] = _amount;\n    }\n\n    function setColorBankForRound(uint _round, uint _colorBank) external {\n        colorBankForRound[_round] = _colorBank;\n    }\n\n    function setTimeBankForRound(uint _round, uint _timeBank) external {\n        timeBankForRound[_round] = _timeBank;\n    }\n\n    function paint9998pixels(uint _color) external {\n        colorToPaintedPixelsAmountForRound[currentRound][_color] = 9998;\n        colorBankForRound[currentRound] = 2 ether; //just custom number\n    }\n\n    uint public colorBankPrizeOfLastPainter;\n\n    //    - overriden\n    function _distributeColorBank() internal { \n\n        //     (24  )\n        teamStartedTimeForRound[currentRound] = now - 24 hours;\n\n        //     ()\n        teamEndedTimeForRound[currentRound] = now;\n\n        //   -       \n        winnerOfRound[currentRound] = lastPainterForRound[currentRound];\n        \n        //Checks-Effects-Interactions pattern\n        colorBankPrizeOfLastPainter = colorBankForRound[currentRound].mul(50).div(100);\n    \n        // 50%     \n        winnerOfRound[currentRound].transfer(colorBankPrizeOfLastPainter);\n               \n        //    =   (2)\n        winnerBankForRound[currentRound] = 2;\n\n        //50%       \n        colorBankForRound[currentRound] = colorBankForRound[currentRound].mul(50).div(100); \n\n        //     \n        timeBankForRound[currentRound + 1] = timeBankForRound[currentRound];\n\n        //     \n        timeBankForRound[currentRound] = 0;\n\n        // -     (,   )\n        emit ColorBankPlayed(winnerOfRound[currentRound], winnerColorForRound[currentRound], currentRound);\n        \n        // \n        currentRound = currentRound.add(1); \n    }\n\n    //      (paint)\n    function _updateCallPrice(uint _color) private {\n        \n        //    5% (    )\n        nextCallPriceForColor[_color] = callPriceForColor[_color].mul(105).div(100);\n        \n        //   ,     paint \n        emit CallPriceUpdated(callPriceForColor[_color]);\n    }\n\n    //   \n    function _fillPaintsPool(uint _color) internal {\n        \n        //      \n        if (now - paintGenToEndTimeForColor[_color][currentPaintGenForColor[_color] - 1] >= 1.5 minutes) { \n            \n            //    \n            uint paintsRemain = paintGenToAmountForColor[_color][currentPaintGenForColor[_color]]; \n            \n            //  \n            uint nextPaintGen = currentPaintGenForColor[_color].add(1); \n            \n            //     .           \n            if (paintGenStartedForColor[_color][nextPaintGen] == false) {\n                \n                //       \n                paintGenToAmountForColor[_color][nextPaintGen] = maxPaintsInPool.sub(paintsRemain); \n                \n                //   \n                paintGenToStartTimeForColor[_color][nextPaintGen] = now; \n\n                paintGenStartedForColor[_color][nextPaintGen] = true;\n            }\n            \n            if (paintGenToAmountForColor[_color][currentPaintGenForColor[_color]] == 1) {\n                \n                //      \n                _updateCallPrice(_color);\n                \n                //    \n                paintGenToEndTimeForColor[_color][currentPaintGenForColor[_color]] = now;\n            }\n               \n            //      \n            if (paintGenToAmountForColor[_color][currentPaintGenForColor[_color]] == 0) {\n                \n                //     \n                callPriceForColor[_color] = nextCallPriceForColor[_color];\n\n                //     \n                currentPaintGenForColor[_color] = nextPaintGen;\n            }\n        }\n    }\n\n    uint public timeBankPrizeOfLastPainter;\n\n    //   \n    function _distributeTimeBank() internal  {\n\n        //    (24  )\n        teamStartedTimeForRound[currentRound] = now - 24 hours;\n\n        //     ()\n        teamEndedTimeForRound[currentRound] = now;\n\n        //   -       \n        winnerOfRound[currentRound] = lastPainterForRound[currentRound];\n        \n         //Checks-Effects-Interactions pattern\n        timeBankPrizeOfLastPainter = timeBankForRound[currentRound].mul(45).div(100);\n\n        // 45%     \n        winnerOfRound[currentRound].transfer(timeBankPrizeOfLastPainter);\n                \n        //    =   (1)\n        winnerBankForRound[currentRound] = 1; \n\n        //10%      \n        timeBankForRound[currentRound + 1] = timeBankForRound[currentRound].div(10); \n        \n        //45%        \n        timeBankForRound[currentRound] = timeBankForRound[currentRound].mul(45).div(100); \n\n        //     \n        colorBankForRound[currentRound + 1] = colorBankForRound[currentRound]; \n\n        //     \n        colorBankForRound[currentRound] = 0; \n\n        //   ,         \n        msg.sender.transfer(msg.value); \n\n        // -     (, )\n        emit TimeBankPlayed(winnerOfRound[currentRound], currentRound);\n        \n        // \n        currentRound = currentRound.add(1); \n    }\n\n}",
  "sourcePath": "/Users/Amir/last-pixel-contracts/contracts/GameMock.sol",
  "compiler": {
    "name": "solc",
    "version": "0.4.24+commit.e67f0147.Emscripten.clang"
  },
  "schemaVersion": "2.0.1",
  "updatedAt": "2018-12-12T15:29:52.925Z"
}