{
  "contractName": "Game",
  "abi": [
    {
      "constant": true,
      "inputs": [
        {
          "name": "",
          "type": "uint256"
        },
        {
          "name": "",
          "type": "address"
        }
      ],
      "name": "addressToTimeBankPrizeForRound",
      "outputs": [
        {
          "name": "",
          "type": "uint256"
        }
      ],
      "payable": false,
      "stateMutability": "view",
      "type": "function"
    },
    {
      "constant": true,
      "inputs": [
        {
          "name": "",
          "type": "address"
        }
      ],
      "name": "addressToTimeBankPrizeTotal",
      "outputs": [
        {
          "name": "",
          "type": "uint256"
        }
      ],
      "payable": false,
      "stateMutability": "view",
      "type": "function"
    },
    {
      "constant": true,
      "inputs": [
        {
          "name": "",
          "type": "uint256"
        },
        {
          "name": "",
          "type": "uint256"
        }
      ],
      "name": "colorToTotalPaintsForRound",
      "outputs": [
        {
          "name": "",
          "type": "uint256"
        }
      ],
      "payable": false,
      "stateMutability": "view",
      "type": "function"
    },
    {
      "constant": true,
      "inputs": [
        {
          "name": "",
          "type": "uint256"
        }
      ],
      "name": "ownerOfColor",
      "outputs": [
        {
          "name": "",
          "type": "address"
        }
      ],
      "payable": false,
      "stateMutability": "view",
      "type": "function"
    },
    {
      "constant": true,
      "inputs": [
        {
          "name": "",
          "type": "uint256"
        },
        {
          "name": "",
          "type": "uint256"
        }
      ],
      "name": "colorToPaintedPixelsAmountForRound",
      "outputs": [
        {
          "name": "",
          "type": "uint256"
        }
      ],
      "payable": false,
      "stateMutability": "view",
      "type": "function"
    },
    {
      "constant": true,
      "inputs": [
        {
          "name": "",
          "type": "uint256"
        }
      ],
      "name": "winnerOfRound",
      "outputs": [
        {
          "name": "",
          "type": "address"
        }
      ],
      "payable": false,
      "stateMutability": "view",
      "type": "function"
    },
    {
      "constant": true,
      "inputs": [
        {
          "name": "",
          "type": "uint256"
        },
        {
          "name": "",
          "type": "uint256"
        },
        {
          "name": "",
          "type": "address"
        }
      ],
      "name": "colorToAddressToTotalCounterForRound",
      "outputs": [
        {
          "name": "",
          "type": "uint256"
        }
      ],
      "payable": false,
      "stateMutability": "view",
      "type": "function"
    },
    {
      "constant": true,
      "inputs": [
        {
          "name": "",
          "type": "uint256"
        },
        {
          "name": "",
          "type": "address"
        }
      ],
      "name": "hasPaintDiscountForColor",
      "outputs": [
        {
          "name": "",
          "type": "bool"
        }
      ],
      "payable": false,
      "stateMutability": "view",
      "type": "function"
    },
    {
      "constant": true,
      "inputs": [
        {
          "name": "",
          "type": "uint256"
        }
      ],
      "name": "teamStartedTimeForRound",
      "outputs": [
        {
          "name": "",
          "type": "uint256"
        }
      ],
      "payable": false,
      "stateMutability": "view",
      "type": "function"
    },
    {
      "constant": true,
      "inputs": [
        {
          "name": "",
          "type": "uint256"
        }
      ],
      "name": "currentPaintGenForColor",
      "outputs": [
        {
          "name": "",
          "type": "uint256"
        }
      ],
      "payable": false,
      "stateMutability": "view",
      "type": "function"
    },
    {
      "constant": true,
      "inputs": [
        {
          "name": "",
          "type": "address"
        }
      ],
      "name": "lastPlayedRound",
      "outputs": [
        {
          "name": "",
          "type": "uint256"
        }
      ],
      "payable": false,
      "stateMutability": "view",
      "type": "function"
    },
    {
      "constant": true,
      "inputs": [
        {
          "name": "",
          "type": "uint256"
        },
        {
          "name": "",
          "type": "address"
        }
      ],
      "name": "moneySpentByUserForColor",
      "outputs": [
        {
          "name": "",
          "type": "uint256"
        }
      ],
      "payable": false,
      "stateMutability": "view",
      "type": "function"
    },
    {
      "constant": true,
      "inputs": [
        {
          "name": "",
          "type": "uint256"
        },
        {
          "name": "",
          "type": "uint256"
        }
      ],
      "name": "paintGenToStartTimeForColor",
      "outputs": [
        {
          "name": "",
          "type": "uint256"
        }
      ],
      "payable": false,
      "stateMutability": "view",
      "type": "function"
    },
    {
      "constant": true,
      "inputs": [
        {
          "name": "",
          "type": "uint256"
        }
      ],
      "name": "callPriceForColor",
      "outputs": [
        {
          "name": "",
          "type": "uint256"
        }
      ],
      "payable": false,
      "stateMutability": "view",
      "type": "function"
    },
    {
      "constant": true,
      "inputs": [
        {
          "name": "",
          "type": "uint256"
        }
      ],
      "name": "winnerBankForRound",
      "outputs": [
        {
          "name": "",
          "type": "uint256"
        }
      ],
      "payable": false,
      "stateMutability": "view",
      "type": "function"
    },
    {
      "constant": true,
      "inputs": [],
      "name": "uniqueUsers",
      "outputs": [
        {
          "name": "",
          "type": "uint256"
        }
      ],
      "payable": false,
      "stateMutability": "view",
      "type": "function"
    },
    {
      "constant": true,
      "inputs": [],
      "name": "founders",
      "outputs": [
        {
          "name": "",
          "type": "address"
        }
      ],
      "payable": false,
      "stateMutability": "view",
      "type": "function"
    },
    {
      "constant": true,
      "inputs": [
        {
          "name": "",
          "type": "uint256"
        },
        {
          "name": "",
          "type": "uint256"
        }
      ],
      "name": "pixelToOldColorForRound",
      "outputs": [
        {
          "name": "",
          "type": "uint256"
        }
      ],
      "payable": false,
      "stateMutability": "view",
      "type": "function"
    },
    {
      "constant": true,
      "inputs": [
        {
          "name": "",
          "type": "uint256"
        }
      ],
      "name": "timeBankForRound",
      "outputs": [
        {
          "name": "",
          "type": "uint256"
        }
      ],
      "payable": false,
      "stateMutability": "view",
      "type": "function"
    },
    {
      "constant": true,
      "inputs": [
        {
          "name": "",
          "type": "uint256"
        }
      ],
      "name": "teamEndedTimeForRound",
      "outputs": [
        {
          "name": "",
          "type": "uint256"
        }
      ],
      "payable": false,
      "stateMutability": "view",
      "type": "function"
    },
    {
      "constant": true,
      "inputs": [
        {
          "name": "",
          "type": "uint256"
        },
        {
          "name": "",
          "type": "uint256"
        }
      ],
      "name": "paintGenStartedForColor",
      "outputs": [
        {
          "name": "",
          "type": "bool"
        }
      ],
      "payable": false,
      "stateMutability": "view",
      "type": "function"
    },
    {
      "constant": true,
      "inputs": [
        {
          "name": "",
          "type": "uint256"
        },
        {
          "name": "",
          "type": "address"
        },
        {
          "name": "",
          "type": "uint256"
        }
      ],
      "name": "addressToCounterToTimestampForRound",
      "outputs": [
        {
          "name": "",
          "type": "uint256"
        }
      ],
      "payable": false,
      "stateMutability": "view",
      "type": "function"
    },
    {
      "constant": false,
      "inputs": [],
      "name": "claimDividends",
      "outputs": [],
      "payable": false,
      "stateMutability": "nonpayable",
      "type": "function"
    },
    {
      "constant": true,
      "inputs": [
        {
          "name": "",
          "type": "uint256"
        }
      ],
      "name": "nextCallPriceForColor",
      "outputs": [
        {
          "name": "",
          "type": "uint256"
        }
      ],
      "payable": false,
      "stateMutability": "view",
      "type": "function"
    },
    {
      "constant": false,
      "inputs": [],
      "name": "renounceOwnership",
      "outputs": [],
      "payable": false,
      "stateMutability": "nonpayable",
      "type": "function"
    },
    {
      "constant": true,
      "inputs": [
        {
          "name": "",
          "type": "uint256"
        }
      ],
      "name": "lastPaintTimeForRound",
      "outputs": [
        {
          "name": "",
          "type": "uint256"
        }
      ],
      "payable": false,
      "stateMutability": "view",
      "type": "function"
    },
    {
      "constant": true,
      "inputs": [
        {
          "name": "",
          "type": "uint256"
        }
      ],
      "name": "lastPainterForRound",
      "outputs": [
        {
          "name": "",
          "type": "address"
        }
      ],
      "payable": false,
      "stateMutability": "view",
      "type": "function"
    },
    {
      "constant": true,
      "inputs": [],
      "name": "currentRound",
      "outputs": [
        {
          "name": "",
          "type": "uint256"
        }
      ],
      "payable": false,
      "stateMutability": "view",
      "type": "function"
    },
    {
      "constant": true,
      "inputs": [],
      "name": "owner",
      "outputs": [
        {
          "name": "",
          "type": "address"
        }
      ],
      "payable": false,
      "stateMutability": "view",
      "type": "function"
    },
    {
      "constant": true,
      "inputs": [],
      "name": "isOwner",
      "outputs": [
        {
          "name": "",
          "type": "bool"
        }
      ],
      "payable": false,
      "stateMutability": "view",
      "type": "function"
    },
    {
      "constant": true,
      "inputs": [
        {
          "name": "",
          "type": "uint256"
        },
        {
          "name": "",
          "type": "uint256"
        }
      ],
      "name": "colorBankToColorForRound",
      "outputs": [
        {
          "name": "",
          "type": "uint256"
        }
      ],
      "payable": false,
      "stateMutability": "view",
      "type": "function"
    },
    {
      "constant": true,
      "inputs": [
        {
          "name": "",
          "type": "uint256"
        },
        {
          "name": "",
          "type": "address"
        }
      ],
      "name": "addressToColorBankPrizeForRound",
      "outputs": [
        {
          "name": "",
          "type": "uint256"
        }
      ],
      "payable": false,
      "stateMutability": "view",
      "type": "function"
    },
    {
      "constant": true,
      "inputs": [],
      "name": "ownerOfPixel",
      "outputs": [
        {
          "name": "",
          "type": "address"
        }
      ],
      "payable": false,
      "stateMutability": "view",
      "type": "function"
    },
    {
      "constant": true,
      "inputs": [
        {
          "name": "",
          "type": "uint256"
        },
        {
          "name": "",
          "type": "address"
        }
      ],
      "name": "addressToTotalCounterForRound",
      "outputs": [
        {
          "name": "",
          "type": "uint256"
        }
      ],
      "payable": false,
      "stateMutability": "view",
      "type": "function"
    },
    {
      "constant": true,
      "inputs": [
        {
          "name": "",
          "type": "uint256"
        },
        {
          "name": "",
          "type": "address"
        },
        {
          "name": "",
          "type": "uint256"
        },
        {
          "name": "",
          "type": "uint256"
        }
      ],
      "name": "addressToColorToCounterToTimestampForRound",
      "outputs": [
        {
          "name": "",
          "type": "uint256"
        }
      ],
      "payable": false,
      "stateMutability": "view",
      "type": "function"
    },
    {
      "constant": false,
      "inputs": [],
      "name": "claimTimeBankPrizeForLastPlayedRound",
      "outputs": [],
      "payable": false,
      "stateMutability": "nonpayable",
      "type": "function"
    },
    {
      "constant": true,
      "inputs": [
        {
          "name": "",
          "type": "uint256"
        },
        {
          "name": "",
          "type": "uint256"
        }
      ],
      "name": "pixelToColorForRound",
      "outputs": [
        {
          "name": "",
          "type": "uint256"
        }
      ],
      "payable": false,
      "stateMutability": "view",
      "type": "function"
    },
    {
      "constant": true,
      "inputs": [
        {
          "name": "",
          "type": "address"
        }
      ],
      "name": "addressToColorBankPrizeTotal",
      "outputs": [
        {
          "name": "",
          "type": "uint256"
        }
      ],
      "payable": false,
      "stateMutability": "view",
      "type": "function"
    },
    {
      "constant": true,
      "inputs": [
        {
          "name": "",
          "type": "uint256"
        }
      ],
      "name": "totalPaintsForRound",
      "outputs": [
        {
          "name": "",
          "type": "uint256"
        }
      ],
      "payable": false,
      "stateMutability": "view",
      "type": "function"
    },
    {
      "constant": true,
      "inputs": [
        {
          "name": "",
          "type": "address"
        }
      ],
      "name": "isRegistered",
      "outputs": [
        {
          "name": "",
          "type": "bool"
        }
      ],
      "payable": false,
      "stateMutability": "view",
      "type": "function"
    },
    {
      "constant": true,
      "inputs": [
        {
          "name": "",
          "type": "uint256"
        }
      ],
      "name": "colorBankForRound",
      "outputs": [
        {
          "name": "",
          "type": "uint256"
        }
      ],
      "payable": false,
      "stateMutability": "view",
      "type": "function"
    },
    {
      "constant": true,
      "inputs": [
        {
          "name": "",
          "type": "uint256"
        },
        {
          "name": "",
          "type": "uint256"
        }
      ],
      "name": "paintGenToEndTimeForColor",
      "outputs": [
        {
          "name": "",
          "type": "uint256"
        }
      ],
      "payable": false,
      "stateMutability": "view",
      "type": "function"
    },
    {
      "constant": true,
      "inputs": [
        {
          "name": "",
          "type": "uint256"
        },
        {
          "name": "",
          "type": "uint256"
        }
      ],
      "name": "paintGenToAmountForColor",
      "outputs": [
        {
          "name": "",
          "type": "uint256"
        }
      ],
      "payable": false,
      "stateMutability": "view",
      "type": "function"
    },
    {
      "constant": true,
      "inputs": [
        {
          "name": "",
          "type": "address"
        },
        {
          "name": "",
          "type": "uint256"
        }
      ],
      "name": "isPrizeDistributedForRound",
      "outputs": [
        {
          "name": "",
          "type": "bool"
        }
      ],
      "payable": false,
      "stateMutability": "view",
      "type": "function"
    },
    {
      "constant": true,
      "inputs": [
        {
          "name": "",
          "type": "uint256"
        },
        {
          "name": "",
          "type": "address"
        }
      ],
      "name": "usersPaintDiscountForColor",
      "outputs": [
        {
          "name": "",
          "type": "uint256"
        }
      ],
      "payable": false,
      "stateMutability": "view",
      "type": "function"
    },
    {
      "constant": false,
      "inputs": [],
      "name": "claimColorBankPrizeForLastPlayedRound",
      "outputs": [],
      "payable": false,
      "stateMutability": "nonpayable",
      "type": "function"
    },
    {
      "constant": true,
      "inputs": [],
      "name": "maxPaintsInPool",
      "outputs": [
        {
          "name": "",
          "type": "uint256"
        }
      ],
      "payable": false,
      "stateMutability": "view",
      "type": "function"
    },
    {
      "constant": false,
      "inputs": [
        {
          "name": "newOwner",
          "type": "address"
        }
      ],
      "name": "transferOwnership",
      "outputs": [],
      "payable": false,
      "stateMutability": "nonpayable",
      "type": "function"
    },
    {
      "constant": true,
      "inputs": [
        {
          "name": "",
          "type": "uint256"
        }
      ],
      "name": "winnerColorForRound",
      "outputs": [
        {
          "name": "",
          "type": "uint256"
        }
      ],
      "payable": false,
      "stateMutability": "view",
      "type": "function"
    },
    {
      "constant": true,
      "inputs": [],
      "name": "dividendsBank",
      "outputs": [
        {
          "name": "",
          "type": "uint256"
        }
      ],
      "payable": false,
      "stateMutability": "view",
      "type": "function"
    },
    {
      "constant": true,
      "inputs": [
        {
          "name": "",
          "type": "address"
        }
      ],
      "name": "withdrawalBalances",
      "outputs": [
        {
          "name": "",
          "type": "uint256"
        }
      ],
      "payable": false,
      "stateMutability": "view",
      "type": "function"
    },
    {
      "inputs": [],
      "payable": true,
      "stateMutability": "payable",
      "type": "constructor"
    },
    {
      "anonymous": false,
      "inputs": [
        {
          "indexed": true,
          "name": "pixelId",
          "type": "uint256"
        },
        {
          "indexed": true,
          "name": "colorId",
          "type": "uint256"
        },
        {
          "indexed": true,
          "name": "painter",
          "type": "address"
        }
      ],
      "name": "Paint",
      "type": "event"
    },
    {
      "anonymous": false,
      "inputs": [
        {
          "indexed": true,
          "name": "withdrawer",
          "type": "address"
        },
        {
          "indexed": true,
          "name": "currentBlock",
          "type": "uint256"
        },
        {
          "indexed": true,
          "name": "amount",
          "type": "uint256"
        }
      ],
      "name": "DividendsWithdrawn",
      "type": "event"
    },
    {
      "anonymous": false,
      "inputs": [
        {
          "indexed": true,
          "name": "newCallPrice",
          "type": "uint256"
        }
      ],
      "name": "CallPriceUpdated",
      "type": "event"
    },
    {
      "anonymous": false,
      "inputs": [
        {
          "indexed": true,
          "name": "winner",
          "type": "address"
        },
        {
          "indexed": true,
          "name": "winnerColor",
          "type": "uint256"
        },
        {
          "indexed": true,
          "name": "currentRound",
          "type": "uint256"
        }
      ],
      "name": "ColorBankPlayed",
      "type": "event"
    },
    {
      "anonymous": false,
      "inputs": [
        {
          "indexed": true,
          "name": "winner",
          "type": "address"
        },
        {
          "indexed": true,
          "name": "round",
          "type": "uint256"
        },
        {
          "indexed": true,
          "name": "amount",
          "type": "uint256"
        }
      ],
      "name": "ColorBankPrizeDistributed",
      "type": "event"
    },
    {
      "anonymous": false,
      "inputs": [
        {
          "indexed": true,
          "name": "winner",
          "type": "address"
        },
        {
          "indexed": true,
          "name": "currentRound",
          "type": "uint256"
        }
      ],
      "name": "TimeBankPlayed",
      "type": "event"
    },
    {
      "anonymous": false,
      "inputs": [
        {
          "indexed": true,
          "name": "winner",
          "type": "address"
        },
        {
          "indexed": true,
          "name": "round",
          "type": "uint256"
        },
        {
          "indexed": true,
          "name": "amount",
          "type": "uint256"
        }
      ],
      "name": "TimeBankPrizeDistributed",
      "type": "event"
    },
    {
      "anonymous": false,
      "inputs": [
        {
          "indexed": true,
          "name": "previousOwner",
          "type": "address"
        },
        {
          "indexed": true,
          "name": "newOwner",
          "type": "address"
        }
      ],
      "name": "OwnershipTransferred",
      "type": "event"
    },
    {
      "constant": true,
      "inputs": [
        {
          "name": "_pixel",
          "type": "uint256"
        }
      ],
      "name": "getPixelColor",
      "outputs": [
        {
          "name": "",
          "type": "uint256"
        }
      ],
      "payable": false,
      "stateMutability": "view",
      "type": "function"
    },
    {
      "constant": false,
      "inputs": [
        {
          "name": "_pixel",
          "type": "uint256"
        },
        {
          "name": "_color",
          "type": "uint256"
        }
      ],
      "name": "paint",
      "outputs": [],
      "payable": true,
      "stateMutability": "payable",
      "type": "function"
    },
    {
      "constant": false,
      "inputs": [],
      "name": "_claimBankPrizeForLastPlayedRound",
      "outputs": [],
      "payable": false,
      "stateMutability": "nonpayable",
      "type": "function"
    },
    {
      "constant": true,
      "inputs": [
        {
          "name": "_color",
          "type": "uint256"
        }
      ],
      "name": "showPotentialPrizeForColor",
      "outputs": [
        {
          "name": "",
          "type": "uint256"
        }
      ],
      "payable": false,
      "stateMutability": "view",
      "type": "function"
    }
  ],
  "bytecode": "0x608060405273ca35b7d915458ef540ade6068dfe2f44e8fa733c602b60006101000a81548173ffffffffffffffffffffffffffffffffffffffff021916908373ffffffffffffffffffffffffffffffffffffffff160217905550735ac77c56772a1819663ae375c9a2da2de34307ef602c60006101000a81548173ffffffffffffffffffffffffffffffffffffffff021916908373ffffffffffffffffffffffffffffffffffffffff160217905550600080336000806101000a81548173ffffffffffffffffffffffffffffffffffffffff021916908373ffffffffffffffffffffffffffffffffffffffff1602179055506000809054906101000a900473ffffffffffffffffffffffffffffffffffffffff1673ffffffffffffffffffffffffffffffffffffffff16600073ffffffffffffffffffffffffffffffffffffffff167f8be0079c531659141344cd1fd0a4f28419497f9722a3daafe3b4186f6b6457e060405160405180910390a3600190505b600881111515620001f15773bf0e4036bf968dd007f9b4a1bfda4e54c042f6126027600083815260200190815260200160002060006101000a81548173ffffffffffffffffffffffffffffffffffffffff021916908373ffffffffffffffffffffffffffffffffffffffff160217905550808060010191505062000172565b506127106023819055506001601881905550600190505b600381111515620003eb5760016020600083815260200190815260200160002081905550662386f26fc10000602160008381526020019081526020016000208190555060216000828152602001908152602001600020546022600083815260200190815260200160002081905550602354601c6000838152602001908152602001600020600060206000858152602001908152602001600020548152602001908152602001600020819055506001601f600083815260200190815260200160002060006020600085815260200190815260200160002054815260200190815260200160002060006101000a81548160ff0219169083151502179055506000601b60006018548152602001908152602001600020541415620003635742601e6000838152602001908152602001600020600060016020600086815260200190815260200160002054038152602001908152602001600020819055505b42601d600083815260200190815260200160002060006020600085815260200190815260200160002054815260200190815260200160002081905550602354601c600083815260200190815260200160002060006020600085815260200190815260200160002054815260200190815260200160002081905550808060010191505062000208565b506147c780620003fc6000396000f300608060405260043610610293576000357c0100000000000000000000000000000000000000000000000000000000900463ffffffff16806306937b4714610298578063084028eb146102f95780630ba36221146103505780630baaea441461039b5780630cf9603f14610408578063102f971314610453578063187aae8e146104c05780631f90c6ed1461052b57806323a43a8e1461059057806328361f57146105d157806328b290f9146106125780632c6c1c41146106695780633a173505146106ca5780633c6dd013146107155780633d0d1a791461075657806340aeff0e14610797578063411b007e146107c257806342a9393a146108195780634b39173d146108435780634c78e4011461088e57806355457fc1146108cf5780635f5d554c1461091057806361433c5b1461095f578063668038e0146109ca5780636730e3e0146109e15780636f17eb4214610a22578063715018a614610a6357806373a9ee2614610a7a57806379ecf37614610abb5780637b68a8f014610b285780638a19c8bc14610b695780638da5cb5b14610b945780638f32d59b14610beb578063a312072414610c1a578063a645867e14610c65578063a977e16814610cc6578063ab94b58414610d1d578063ae2d2b6014610d7e578063b66e5e9e14610df3578063b8232d5d14610e0a578063be6b414114610e55578063be7d622614610eac578063c3c5a54714610eed578063c64a2e5614610f48578063c957387b14610f89578063d4b291eb14610fd4578063d5de47c714610feb578063d7be633214611036578063eaf1c9101461109b578063ebf0ba03146110fc578063eef565da14611113578063f2fde38b1461113e578063f49916f514611181578063f5f95b3b146111c2578063fb454d29146111ed575b600080fd5b3480156102a457600080fd5b506102e360048036038101908080359060200190929190803573ffffffffffffffffffffffffffffffffffffffff169060200190929190505050611244565b6040518082815260200191505060405180910390f35b34801561030557600080fd5b5061033a600480360381019080803573ffffffffffffffffffffffffffffffffffffffff169060200190929190505050611269565b6040518082815260200191505060405180910390f35b34801561035c57600080fd5b506103856004803603810190808035906020019092919080359060200190929190505050611281565b6040518082815260200191505060405180910390f35b3480156103a757600080fd5b506103c6600480360381019080803590602001909291905050506112a6565b604051808273ffffffffffffffffffffffffffffffffffffffff1673ffffffffffffffffffffffffffffffffffffffff16815260200191505060405180910390f35b34801561041457600080fd5b5061043d60048036038101908080359060200190929190803590602001909291905050506112d9565b6040518082815260200191505060405180910390f35b34801561045f57600080fd5b5061047e600480360381019080803590602001909291905050506112fe565b604051808273ffffffffffffffffffffffffffffffffffffffff1673ffffffffffffffffffffffffffffffffffffffff16815260200191505060405180910390f35b3480156104cc57600080fd5b506105156004803603810190808035906020019092919080359060200190929190803573ffffffffffffffffffffffffffffffffffffffff169060200190929190505050611331565b6040518082815260200191505060405180910390f35b34801561053757600080fd5b5061057660048036038101908080359060200190929190803573ffffffffffffffffffffffffffffffffffffffff169060200190929190505050611363565b604051808215151515815260200191505060405180910390f35b34801561059c57600080fd5b506105bb60048036038101908080359060200190929190505050611392565b6040518082815260200191505060405180910390f35b3480156105dd57600080fd5b506105fc600480360381019080803590602001909291905050506113aa565b6040518082815260200191505060405180910390f35b34801561061e57600080fd5b50610653600480360381019080803573ffffffffffffffffffffffffffffffffffffffff1690602001909291905050506113c1565b6040518082815260200191505060405180910390f35b34801561067557600080fd5b506106b460048036038101908080359060200190929190803573ffffffffffffffffffffffffffffffffffffffff1690602001909291905050506113d9565b6040518082815260200191505060405180910390f35b3480156106d657600080fd5b506106ff60048036038101908080359060200190929190803590602001909291905050506113fe565b6040518082815260200191505060405180910390f35b34801561072157600080fd5b5061074060048036038101908080359060200190929190505050611423565b6040518082815260200191505060405180910390f35b34801561076257600080fd5b506107816004803603810190808035906020019092919050505061143b565b6040518082815260200191505060405180910390f35b3480156107a357600080fd5b506107ac611453565b6040518082815260200191505060405180910390f35b3480156107ce57600080fd5b506107d7611459565b604051808273ffffffffffffffffffffffffffffffffffffffff1673ffffffffffffffffffffffffffffffffffffffff16815260200191505060405180910390f35b610841600480360381019080803590602001909291908035906020019092919050505061147f565b005b34801561084f57600080fd5b506108786004803603810190808035906020019092919080359060200190929190505050611a6a565b6040518082815260200191505060405180910390f35b34801561089a57600080fd5b506108b960048036038101908080359060200190929190505050611a8f565b6040518082815260200191505060405180910390f35b3480156108db57600080fd5b506108fa60048036038101908080359060200190929190505050611aa7565b6040518082815260200191505060405180910390f35b34801561091c57600080fd5b506109456004803603810190808035906020019092919080359060200190929190505050611abf565b604051808215151515815260200191505060405180910390f35b34801561096b57600080fd5b506109b460048036038101908080359060200190929190803573ffffffffffffffffffffffffffffffffffffffff16906020019092919080359060200190929190505050611aee565b6040518082815260200191505060405180910390f35b3480156109d657600080fd5b506109df611b20565b005b3480156109ed57600080fd5b50610a0c60048036038101908080359060200190929190505050611d59565b6040518082815260200191505060405180910390f35b348015610a2e57600080fd5b50610a4d60048036038101908080359060200190929190505050611f15565b6040518082815260200191505060405180910390f35b348015610a6f57600080fd5b50610a78611f2d565b005b348015610a8657600080fd5b50610aa560048036038101908080359060200190929190505050611fff565b6040518082815260200191505060405180910390f35b348015610ac757600080fd5b50610ae660048036038101908080359060200190929190505050612017565b604051808273ffffffffffffffffffffffffffffffffffffffff1673ffffffffffffffffffffffffffffffffffffffff16815260200191505060405180910390f35b348015610b3457600080fd5b50610b536004803603810190808035906020019092919050505061204a565b6040518082815260200191505060405180910390f35b348015610b7557600080fd5b50610b7e61207a565b6040518082815260200191505060405180910390f35b348015610ba057600080fd5b50610ba9612080565b604051808273ffffffffffffffffffffffffffffffffffffffff1673ffffffffffffffffffffffffffffffffffffffff16815260200191505060405180910390f35b348015610bf757600080fd5b50610c006120a9565b604051808215151515815260200191505060405180910390f35b348015610c2657600080fd5b50610c4f6004803603810190808035906020019092919080359060200190929190505050612100565b6040518082815260200191505060405180910390f35b348015610c7157600080fd5b50610cb060048036038101908080359060200190929190803573ffffffffffffffffffffffffffffffffffffffff169060200190929190505050612125565b6040518082815260200191505060405180910390f35b348015610cd257600080fd5b50610cdb61214a565b604051808273ffffffffffffffffffffffffffffffffffffffff1673ffffffffffffffffffffffffffffffffffffffff16815260200191505060405180910390f35b348015610d2957600080fd5b50610d6860048036038101908080359060200190929190803573ffffffffffffffffffffffffffffffffffffffff169060200190929190505050612170565b6040518082815260200191505060405180910390f35b348015610d8a57600080fd5b50610ddd60048036038101908080359060200190929190803573ffffffffffffffffffffffffffffffffffffffff1690602001909291908035906020019092919080359060200190929190505050612195565b6040518082815260200191505060405180910390f35b348015610dff57600080fd5b50610e086121d4565b005b348015610e1657600080fd5b50610e3f600480360381019080803590602001909291908035906020019092919050505061271b565b6040518082815260200191505060405180910390f35b348015610e6157600080fd5b50610e96600480360381019080803573ffffffffffffffffffffffffffffffffffffffff169060200190929190505050612740565b6040518082815260200191505060405180910390f35b348015610eb857600080fd5b50610ed760048036038101908080359060200190929190505050612758565b6040518082815260200191505060405180910390f35b348015610ef957600080fd5b50610f2e600480360381019080803573ffffffffffffffffffffffffffffffffffffffff169060200190929190505050612770565b604051808215151515815260200191505060405180910390f35b348015610f5457600080fd5b50610f7360048036038101908080359060200190929190505050612790565b6040518082815260200191505060405180910390f35b348015610f9557600080fd5b50610fbe60048036038101908080359060200190929190803590602001909291905050506127a8565b6040518082815260200191505060405180910390f35b348015610fe057600080fd5b50610fe96127cd565b005b348015610ff757600080fd5b50611020600480360381019080803590602001909291908035906020019092919050505061298c565b6040518082815260200191505060405180910390f35b34801561104257600080fd5b50611081600480360381019080803573ffffffffffffffffffffffffffffffffffffffff169060200190929190803590602001909291905050506129b1565b604051808215151515815260200191505060405180910390f35b3480156110a757600080fd5b506110e660048036038101908080359060200190929190803573ffffffffffffffffffffffffffffffffffffffff1690602001909291905050506129e0565b6040518082815260200191505060405180910390f35b34801561110857600080fd5b50611111612a05565b005b34801561111f57600080fd5b50611128612fa5565b6040518082815260200191505060405180910390f35b34801561114a57600080fd5b5061117f600480360381019080803573ffffffffffffffffffffffffffffffffffffffff169060200190929190505050612fab565b005b34801561118d57600080fd5b506111ac60048036038101908080359060200190929190505050612fca565b6040518082815260200191505060405180910390f35b3480156111ce57600080fd5b506111d7612fe2565b6040518082815260200191505060405180910390f35b3480156111f957600080fd5b5061122e600480360381019080803573ffffffffffffffffffffffffffffffffffffffff169060200190929190505050612fe8565b6040518082815260200191505060405180910390f35b6014602052816000526040600020602052806000526040600020600091509150505481565b60196020528060005260406000206000915090505481565b600b602052816000526040600020602052806000526040600020600091509150505481565b60276020528060005260406000206000915054906101000a900473ffffffffffffffffffffffffffffffffffffffff1681565b6004602052816000526040600020602052806000526040600020600091509150505481565b60156020528060005260406000206000915054906101000a900473ffffffffffffffffffffffffffffffffffffffff1681565b600e60205282600052604060002060205281600052604060002060205280600052604060002060009250925050505481565b60256020528160005260406000206020528060005260406000206000915091509054906101000a900460ff1681565b600c6020528060005260406000206000915090505481565b602080528060005260406000206000915090505481565b602d6020528060005260406000206000915090505481565b6024602052816000526040600020602052806000526040600020600091509150505481565b601d602052816000526040600020602052806000526040600020600091509150505481565b60216020528060005260406000206000915090505481565b60166020528060005260406000206000915090505481565b602e5481565b602c60009054906101000a900473ffffffffffffffffffffffffffffffffffffffff1681565b6000801515602f60003373ffffffffffffffffffffffffffffffffffffffff1673ffffffffffffffffffffffffffffffffffffffff16815260200190815260200160002060009054906101000a900460ff161515141561154e576001602f60003373ffffffffffffffffffffffffffffffffffffffff1673ffffffffffffffffffffffffffffffffffffffff16815260200190815260200160002060006101000a81548160ff0219169083151502179055506115476001602e5461300090919063ffffffff16565b602e819055505b61155782613021565b600115156025600084815260200190815260200160002060003373ffffffffffffffffffffffffffffffffffffffff1673ffffffffffffffffffffffffffffffffffffffff16815260200190815260200160002060009054906101000a900460ff16151514156116cb5761164d606461163f6026600086815260200190815260200160002060003373ffffffffffffffffffffffffffffffffffffffff1673ffffffffffffffffffffffffffffffffffffffff1681526020019081526020016000205460640360216000878152602001908152602001600020546132bf90919063ffffffff16565b6132fd90919063ffffffff16565b905080341415156116c6576040517f08c379a00000000000000000000000000000000000000000000000000000000081526004018080602001828103825260138152602001807f57726f6e672063616c6c2070726963652e2e2e0000000000000000000000000081525060200191505060405180910390fd5b611756565b602160008381526020019081526020016000205434141515611755576040517f08c379a00000000000000000000000000000000000000000000000000000000081526004018080602001828103825260138152602001807f57726f6e672063616c6c2070726963652e2e2e0000000000000000000000000081525060200191505060405180910390fd5b5b600083141515156117f5576040517f08c379a00000000000000000000000000000000000000000000000000000000081526004018080602001828103825260278152602001807f54686520706978656c2077697468206964203d203020646f6573206e6f74206581526020017f786973742e2e2e0000000000000000000000000000000000000000000000000081525060400191505060405180910390fd5b60008214151515611894576040517f08c379a00000000000000000000000000000000000000000000000000000000081526004018080602001828103825260288152602001807f596f752063616e6e6f74207061696e7420746f207472616e73706172656e742081526020017f636f6c6f722e2e2e00000000000000000000000000000000000000000000000081525060400191505060405180910390fd5b8160026000601854815260200190815260200160002060008581526020019081526020016000205414151515611958576040517f08c379a00000000000000000000000000000000000000000000000000000000081526004018080602001828103825260268152602001807f5468697320706978656c20697320616c7265616479206f66207468697320636f81526020017f6c6f722e2e2e000000000000000000000000000000000000000000000000000081525060400191505060405180910390fd5b6104b0600860006018548152602001908152602001600020544203118015611996575060006008600060185481526020019081526020016000205414155b156119a8576119a3613327565b611a65565b6119b182613688565b6119ba82613823565b6119c48383613a66565b3373ffffffffffffffffffffffffffffffffffffffff1682847fee7a08acf49ed7fca3f2e35c2ce0b1853e45cef70f5e0fbd1f9434246d38550260405160405180910390a46127106004600060185481526020019081526020016000206000848152602001908152602001600020541415611a5c5781600a6000601854815260200190815260200160002081905550611a5b614062565b5b611a646127cd565b5b505050565b6003602052816000526040600020602052806000526040600020600091509150505481565b60076020528060005260406000206000915090505481565b600d6020528060005260406000206000915090505481565b601f6020528160005260406000206020528060005260406000206000915091509054906101000a900460ff1681565b601160205282600052604060002060205281600052604060002060205280600052604060002060009250925050505481565b600080602860003373ffffffffffffffffffffffffffffffffffffffff1673ffffffffffffffffffffffffffffffffffffffff1681526020019081526020016000205414151515611bff576040517f08c379a00000000000000000000000000000000000000000000000000000000081526004018080602001828103825260228152602001807f596f7572207769746864726177616c2062616c616e6365206973207a65726f2e81526020017f2e2e00000000000000000000000000000000000000000000000000000000000081525060400191505060405180910390fd5b602860003373ffffffffffffffffffffffffffffffffffffffff1673ffffffffffffffffffffffffffffffffffffffff1681526020019081526020016000205490506000602860003373ffffffffffffffffffffffffffffffffffffffff1673ffffffffffffffffffffffffffffffffffffffff168152602001908152602001600020819055503373ffffffffffffffffffffffffffffffffffffffff166108fc829081150290604051600060405180830381858888f19350505050158015611ccc573d6000803e3d6000fd5b5042602960003373ffffffffffffffffffffffffffffffffffffffff1673ffffffffffffffffffffffffffffffffffffffff1681526020019081526020016000208190555080423373ffffffffffffffffffffffffffffffffffffffff167f1a983dd8fc1bd566844e816cd39bafaebd6523281477df579d3252da34a251d960405160405180910390a450565b6000806000806000806000804296506201518042039550600e6000601854815260200190815260200160002060008a815260200190815260200160002060003373ffffffffffffffffffffffffffffffffffffffff1673ffffffffffffffffffffffffffffffffffffffff1681526020019081526020016000205493508392505b6000831115611e935760106000601854815260200190815260200160002060003373ffffffffffffffffffffffffffffffffffffffff1673ffffffffffffffffffffffffffffffffffffffff16815260200190815260200160002060008a815260200190815260200160002060008481526020019081526020016000205491508582118015611e695750868211155b15611e8557611e8260018661300090919063ffffffff16565b94505b828060019003935050611dda565b611f04600b6000601854815260200190815260200160002060008b815260200190815260200160002054611ef660066000601854815260200190815260200160002060008d815260200190815260200160002054886132bf90919063ffffffff16565b6132fd90919063ffffffff16565b905080975050505050505050919050565b60226020528060005260406000206000915090505481565b611f356120a9565b1515611f4057600080fd5b600073ffffffffffffffffffffffffffffffffffffffff166000809054906101000a900473ffffffffffffffffffffffffffffffffffffffff1673ffffffffffffffffffffffffffffffffffffffff167f8be0079c531659141344cd1fd0a4f28419497f9722a3daafe3b4186f6b6457e060405160405180910390a360008060006101000a81548173ffffffffffffffffffffffffffffffffffffffff021916908373ffffffffffffffffffffffffffffffffffffffff160217905550565b60086020528060005260406000206000915090505481565b60096020528060005260406000206000915054906101000a900473ffffffffffffffffffffffffffffffffffffffff1681565b60006002600060185481526020019081526020016000206000838152602001908152602001600020549050919050565b60185481565b60008060009054906101000a900473ffffffffffffffffffffffffffffffffffffffff16905090565b60008060009054906101000a900473ffffffffffffffffffffffffffffffffffffffff1673ffffffffffffffffffffffffffffffffffffffff163373ffffffffffffffffffffffffffffffffffffffff1614905090565b6006602052816000526040600020602052806000526040600020600091509150505481565b6013602052816000526040600020602052806000526040600020600091509150505481565b602b60009054906101000a900473ffffffffffffffffffffffffffffffffffffffff1681565b600f602052816000526040600020602052806000526040600020600091509150505481565b60106020528360005260406000206020528260005260406000206020528160005260406000206020528060005260406000206000935093505050505481565b6000806000806000806000601760003373ffffffffffffffffffffffffffffffffffffffff1673ffffffffffffffffffffffffffffffffffffffff1681526020019081526020016000205496506000601760003373ffffffffffffffffffffffffffffffffffffffff1673ffffffffffffffffffffffffffffffffffffffff16815260200190815260200160002054118015612283575060016016600089815260200190815260200160002054145b151561231d576040517f08c379a00000000000000000000000000000000000000000000000000000000081526004018080602001828103825260318152602001807f42616e6b206f662074696d6520776173206e6f7420706c6179656420696e207981526020017f6f7572206c61737420726f756e642e2e2e00000000000000000000000000000081525060400191505060405180910390fd5b600d6000888152602001908152602001600020549550600c6000888152602001908152602001600020549450600f600088815260200190815260200160002060003373ffffffffffffffffffffffffffffffffffffffff1673ffffffffffffffffffffffffffffffffffffffff1681526020019081526020016000205492508291505b6000821115612438576011600088815260200190815260200160002060003373ffffffffffffffffffffffffffffffffffffffff1673ffffffffffffffffffffffffffffffffffffffff1681526020019081526020016000206000838152602001908152602001600020549050848111801561241c5750858111155b1561242a5783806001019450505b8180600190039250506123a0565b6124836001600089815260200190815260200160002054612475600760008b815260200190815260200160002054876132bf90919063ffffffff16565b6132fd90919063ffffffff16565b6014600089815260200190815260200160002060003373ffffffffffffffffffffffffffffffffffffffff1673ffffffffffffffffffffffffffffffffffffffff168152602001908152602001600020600082825401925050819055506014600088815260200190815260200160002060003373ffffffffffffffffffffffffffffffffffffffff1673ffffffffffffffffffffffffffffffffffffffff16815260200190815260200160002054601960003373ffffffffffffffffffffffffffffffffffffffff1673ffffffffffffffffffffffffffffffffffffffff168152602001908152602001600020600082825401925050819055503373ffffffffffffffffffffffffffffffffffffffff166108fc601460008a815260200190815260200160002060003373ffffffffffffffffffffffffffffffffffffffff1673ffffffffffffffffffffffffffffffffffffffff168152602001908152602001600020549081150290604051600060405180830381858888f19350505050158015612613573d6000803e3d6000fd5b506001601260003373ffffffffffffffffffffffffffffffffffffffff1673ffffffffffffffffffffffffffffffffffffffff168152602001908152602001600020600089815260200190815260200160002060006101000a81548160ff0219169083151502179055506013600088815260200190815260200160002060003373ffffffffffffffffffffffffffffffffffffffff1673ffffffffffffffffffffffffffffffffffffffff16815260200190815260200160002054873373ffffffffffffffffffffffffffffffffffffffff167f8981f49dce2918fc89fa176fbbd90d8546f51779930f7b458ca6a0d4856f878c60405160405180910390a450505050505050565b6002602052816000526040600020602052806000526040600020600091509150505481565b601a6020528060005260406000206000915090505481565b601b6020528060005260406000206000915090505481565b602f6020528060005260406000206000915054906101000a900460ff1681565b60056020528060005260406000206000915090505481565b601e602052816000526040600020602052806000526040600020600091509150505481565b6001602d60003373ffffffffffffffffffffffffffffffffffffffff1673ffffffffffffffffffffffffffffffffffffffff168152602001908152602001600020541180156128bc575060001515601260003373ffffffffffffffffffffffffffffffffffffffff1673ffffffffffffffffffffffffffffffffffffffff1681526020019081526020016000206000602d60003373ffffffffffffffffffffffffffffffffffffffff1673ffffffffffffffffffffffffffffffffffffffff16815260200190815260200160002054815260200190815260200160002060009054906101000a900460ff161515145b1561298a57600160166000602d60003373ffffffffffffffffffffffffffffffffffffffff1673ffffffffffffffffffffffffffffffffffffffff168152602001908152602001600020548152602001908152602001600020541415612925576129246121d4565b5b600260166000602d60003373ffffffffffffffffffffffffffffffffffffffff1673ffffffffffffffffffffffffffffffffffffffff16815260200190815260200160002054815260200190815260200160002054141561298957612988612a05565b5b5b565b601c602052816000526040600020602052806000526040600020600091509150505481565b60126020528160005260406000206020528060005260406000206000915091509054906101000a900460ff1681565b6026602052816000526040600020602052806000526040600020600091509150505481565b600080600080600080600080601760003373ffffffffffffffffffffffffffffffffffffffff1673ffffffffffffffffffffffffffffffffffffffff1681526020019081526020016000205497506000601760003373ffffffffffffffffffffffffffffffffffffffff1673ffffffffffffffffffffffffffffffffffffffff16815260200190815260200160002054118015612ab557506002601660008a815260200190815260200160002054145b1515612b4f576040517f08c379a00000000000000000000000000000000000000000000000000000000081526004018080602001828103825260328152602001807f42616e6b206f6620636f6c6f7220776173206e6f7420706c6179656420696e2081526020017f796f7572206c61737420726f756e642e2e2e000000000000000000000000000081525060400191505060405180910390fd5b600a6000898152602001908152602001600020549650600d6000898152602001908152602001600020549550600c6000898152602001908152602001600020549450600e6000898152602001908152602001600020600088815260200190815260200160002060003373ffffffffffffffffffffffffffffffffffffffff1673ffffffffffffffffffffffffffffffffffffffff1681526020019081526020016000205492508291505b6000821115612cb0576010600089815260200190815260200160002060003373ffffffffffffffffffffffffffffffffffffffff1673ffffffffffffffffffffffffffffffffffffffff168152602001908152602001600020600088815260200190815260200160002060008381526020019081526020016000205490508481118015612c865750858111155b15612ca257612c9f60018561300090919063ffffffff16565b93505b818060019003925050612bf9565b612d0c600b60008a8152602001908152602001600020600089815260200190815260200160002054612cfe600560008c815260200190815260200160002054876132bf90919063ffffffff16565b6132fd90919063ffffffff16565b601360008a815260200190815260200160002060003373ffffffffffffffffffffffffffffffffffffffff1673ffffffffffffffffffffffffffffffffffffffff168152602001908152602001600020600082825401925050819055506013600089815260200190815260200160002060003373ffffffffffffffffffffffffffffffffffffffff1673ffffffffffffffffffffffffffffffffffffffff16815260200190815260200160002054601a60003373ffffffffffffffffffffffffffffffffffffffff1673ffffffffffffffffffffffffffffffffffffffff168152602001908152602001600020600082825401925050819055503373ffffffffffffffffffffffffffffffffffffffff166108fc601360008b815260200190815260200160002060003373ffffffffffffffffffffffffffffffffffffffff1673ffffffffffffffffffffffffffffffffffffffff168152602001908152602001600020549081150290604051600060405180830381858888f19350505050158015612e9c573d6000803e3d6000fd5b506001601260003373ffffffffffffffffffffffffffffffffffffffff1673ffffffffffffffffffffffffffffffffffffffff16815260200190815260200160002060008a815260200190815260200160002060006101000a81548160ff0219169083151502179055506013600089815260200190815260200160002060003373ffffffffffffffffffffffffffffffffffffffff1673ffffffffffffffffffffffffffffffffffffffff16815260200190815260200160002054883373ffffffffffffffffffffffffffffffffffffffff167fff0e3cc6a8358bbcae69e6c859a508401151d25fe2552fc59ca6f31b37461b5060405160405180910390a45050505050505050565b60235481565b612fb36120a9565b1515612fbe57600080fd5b612fc78161434d565b50565b600a6020528060005260406000206000915090505481565b602a5481565b60286020528060005260406000206000915090505481565b600080828401905083811015151561301757600080fd5b8091505092915050565b600080605a601e60008581526020019081526020016000206000600160206000888152602001908152602001600020540381526020019081526020016000205442031015156132ba57601c60008481526020019081526020016000206000602060008681526020019081526020016000205481526020019081526020016000205491506130cb6001602060008681526020019081526020016000205461300090919063ffffffff16565b905060001515601f6000858152602001908152602001600020600083815260200190815260200160002060009054906101000a900460ff16151514156131af576131208260235461444790919063ffffffff16565b601c600085815260200190815260200160002060008381526020019081526020016000208190555042601d60008581526020019081526020016000206000838152602001908152602001600020819055506001601f6000858152602001908152602001600020600083815260200190815260200160002060006101000a81548160ff0219169083151502179055505b6001601c6000858152602001908152602001600020600060206000878152602001908152602001600020548152602001908152602001600020541415613235576131f883614468565b42601e6000858152602001908152602001600020600060206000878152602001908152602001600020548152602001908152602001600020819055505b6000601c60008581526020019081526020016000206000602060008781526020019081526020016000205481526020019081526020016000205414156132b957602260008481526020019081526020016000205460216000858152602001908152602001600020819055508060206000858152602001908152602001600020819055505b5b505050565b60008060008414156132d457600091506132f6565b82840290508284828115156132e557fe5b041415156132f257600080fd5b8091505b5092915050565b60008060008311151561330f57600080fd5b828481151561331a57fe5b0490508091505092915050565b6000620151804203600c600060185481526020019081526020016000208190555042600d600060185481526020019081526020016000208190555060096000601854815260200190815260200160002060009054906101000a900473ffffffffffffffffffffffffffffffffffffffff1660156000601854815260200190815260200160002060006101000a81548173ffffffffffffffffffffffffffffffffffffffff021916908373ffffffffffffffffffffffffffffffffffffffff1602179055506134276064613419602d600760006018548152602001908152602001600020546132bf90919063ffffffff16565b6132fd90919063ffffffff16565b905060156000601854815260200190815260200160002060009054906101000a900473ffffffffffffffffffffffffffffffffffffffff1673ffffffffffffffffffffffffffffffffffffffff166108fc829081150290604051600060405180830381858888f193505050501580156134a4573d6000803e3d6000fd5b506001601660006018548152602001908152602001600020819055506134e9600a600760006018548152602001908152602001600020546132fd90919063ffffffff16565b600760006001601854018152602001908152602001600020819055506135416064613533602d600760006018548152602001908152602001600020546132bf90919063ffffffff16565b6132fd90919063ffffffff16565b6007600060185481526020019081526020016000208190555060056000601854815260200190815260200160002054600560006001601854018152602001908152602001600020819055506000600560006018548152602001908152602001600020819055503373ffffffffffffffffffffffffffffffffffffffff166108fc349081150290604051600060405180830381858888f193505050501580156135ed573d6000803e3d6000fd5b5060185460156000601854815260200190815260200160002060009054906101000a900473ffffffffffffffffffffffffffffffffffffffff1673ffffffffffffffffffffffffffffffffffffffff167f20f206bcab56eeef408295aaff8745adb98fed16823d758193e9449983d23fd260405160405180910390a361367f600160185461300090919063ffffffff16565b60188190555050565b6136e76136b260646136a46028346132bf90919063ffffffff16565b6132fd90919063ffffffff16565b60066000601854815260200190815260200160002060008481526020019081526020016000205461300090919063ffffffff16565b60066000601854815260200190815260200160002060008381526020019081526020016000208190555061375f61373b606461372d6028346132bf90919063ffffffff16565b6132fd90919063ffffffff16565b6005600060185481526020019081526020016000205461300090919063ffffffff16565b600560006018548152602001908152602001600020819055506137c66137a260646137946028346132bf90919063ffffffff16565b6132fd90919063ffffffff16565b6007600060185481526020019081526020016000205461300090919063ffffffff16565b6007600060185481526020019081526020016000208190555061381a61380960646137fb6014346132bf90919063ffffffff16565b6132fd90919063ffffffff16565b602a5461300090919063ffffffff16565b602a8190555050565b6138bf61384f60646138416019602a546132bf90919063ffffffff16565b6132fd90919063ffffffff16565b60286000602c60009054906101000a900473ffffffffffffffffffffffffffffffffffffffff1673ffffffffffffffffffffffffffffffffffffffff1673ffffffffffffffffffffffffffffffffffffffff1681526020019081526020016000205461300090919063ffffffff16565b60286000602c60009054906101000a900473ffffffffffffffffffffffffffffffffffffffff1673ffffffffffffffffffffffffffffffffffffffff1673ffffffffffffffffffffffffffffffffffffffff1681526020019081526020016000208190555061394d606461393f6019602a546132bf90919063ffffffff16565b6132fd90919063ffffffff16565b602860006027600085815260200190815260200160002060009054906101000a900473ffffffffffffffffffffffffffffffffffffffff1673ffffffffffffffffffffffffffffffffffffffff1673ffffffffffffffffffffffffffffffffffffffff168152602001908152602001600020600082825401925050819055506139f560646139e76019602a546132bf90919063ffffffff16565b6132fd90919063ffffffff16565b60286000602b60009054906101000a900473ffffffffffffffffffffffffffffffffffffffff1673ffffffffffffffffffffffffffffffffffffffff1673ffffffffffffffffffffffffffffffffffffffff1681526020019081526020016000206000828254019250508190555050565b60008060006002600060185481526020019081526020016000206000868152602001908152602001600020549250836002600060185481526020019081526020016000206000878152602001908152602001600020819055508260036000601854815260200190815260200160002060008781526020019081526020016000208190555042600860006018548152602001908152602001600020819055503360096000601854815260200190815260200160002060006101000a81548173ffffffffffffffffffffffffffffffffffffffff021916908373ffffffffffffffffffffffffffffffffffffffff16021790555060006004600060185481526020019081526020016000206000858152602001908152602001600020541115613bec57613bc1600160046000601854815260200190815260200160002060008681526020019081526020016000205461444790919063ffffffff16565b6004600060185481526020019081526020016000206000858152602001908152602001600020819055505b613c26600160046000601854815260200190815260200160002060008781526020019081526020016000205461300090919063ffffffff16565b600460006018548152602001908152602001600020600086815260200190815260200160002081905550600e60006018548152602001908152602001600020600085815260200190815260200160002060003373ffffffffffffffffffffffffffffffffffffffff1673ffffffffffffffffffffffffffffffffffffffff168152602001908152602001600020549150613cca60018361300090919063ffffffff16565b915081600e60006018548152602001908152602001600020600086815260200190815260200160002060003373ffffffffffffffffffffffffffffffffffffffff1673ffffffffffffffffffffffffffffffffffffffff16815260200190815260200160002081905550600f6000601854815260200190815260200160002060003373ffffffffffffffffffffffffffffffffffffffff1673ffffffffffffffffffffffffffffffffffffffff168152602001908152602001600020549050613d9d60018261300090919063ffffffff16565b905080600f6000601854815260200190815260200160002060003373ffffffffffffffffffffffffffffffffffffffff1673ffffffffffffffffffffffffffffffffffffffff168152602001908152602001600020819055504260106000601854815260200190815260200160002060003373ffffffffffffffffffffffffffffffffffffffff1673ffffffffffffffffffffffffffffffffffffffff16815260200190815260200160002060008681526020019081526020016000206000848152602001908152602001600020819055504260116000601854815260200190815260200160002060003373ffffffffffffffffffffffffffffffffffffffff1673ffffffffffffffffffffffffffffffffffffffff168152602001908152602001600020600083815260200190815260200160002081905550613f116001600b6000601854815260200190815260200160002060008781526020019081526020016000205461300090919063ffffffff16565b600b60006018548152602001908152602001600020600086815260200190815260200160002081905550613f646001601b600060185481526020019081526020016000205461300090919063ffffffff16565b601b6000601854815260200190815260200160002081905550601854602d60003373ffffffffffffffffffffffffffffffffffffffff1673ffffffffffffffffffffffffffffffffffffffff1681526020019081526020016000208190555061400e6001601c60008781526020019081526020016000206000602060008981526020019081526020016000205481526020019081526020016000205461444790919063ffffffff16565b601c600086815260200190815260200160002060006020600088815260200190815260200160002054815260200190815260200160002081905550614052846144fc565b61405b84614628565b5050505050565b6000620151804203600c600060185481526020019081526020016000208190555042600d600060185481526020019081526020016000208190555060096000601854815260200190815260200160002060009054906101000a900473ffffffffffffffffffffffffffffffffffffffff1660156000601854815260200190815260200160002060006101000a81548173ffffffffffffffffffffffffffffffffffffffff021916908373ffffffffffffffffffffffffffffffffffffffff16021790555061416260646141546032600560006018548152602001908152602001600020546132bf90919063ffffffff16565b6132fd90919063ffffffff16565b905060156000601854815260200190815260200160002060009054906101000a900473ffffffffffffffffffffffffffffffffffffffff1673ffffffffffffffffffffffffffffffffffffffff166108fc829081150290604051600060405180830381858888f193505050501580156141df573d6000803e3d6000fd5b5060026016600060185481526020019081526020016000208190555061423760646142296032600560006018548152602001908152602001600020546132bf90919063ffffffff16565b6132fd90919063ffffffff16565b600560006018548152602001908152602001600020819055506007600060185481526020019081526020016000205460076000600160185401815260200190815260200160002081905550600060076000601854815260200190815260200160002081905550601854600a600060185481526020019081526020016000205460156000601854815260200190815260200160002060009054906101000a900473ffffffffffffffffffffffffffffffffffffffff1673ffffffffffffffffffffffffffffffffffffffff167f6ec93b9ea332e4928177b5b176be94d4c0e6dae6a28a0b810c5765928344f0f360405160405180910390a4614344600160185461300090919063ffffffff16565b60188190555050565b600073ffffffffffffffffffffffffffffffffffffffff168173ffffffffffffffffffffffffffffffffffffffff161415151561438957600080fd5b8073ffffffffffffffffffffffffffffffffffffffff166000809054906101000a900473ffffffffffffffffffffffffffffffffffffffff1673ffffffffffffffffffffffffffffffffffffffff167f8be0079c531659141344cd1fd0a4f28419497f9722a3daafe3b4186f6b6457e060405160405180910390a3806000806101000a81548173ffffffffffffffffffffffffffffffffffffffff021916908373ffffffffffffffffffffffffffffffffffffffff16021790555050565b60008083831115151561445957600080fd5b82840390508091505092915050565b6144a26064614494606960216000868152602001908152602001600020546132bf90919063ffffffff16565b6132fd90919063ffffffff16565b602260008381526020019081526020016000208190555060216000828152602001908152602001600020547f3bb22f778670a5901bff4d41c425858dac1ea6aeb048d40f959a6bc43f98506160405160405180910390a250565b346024600083815260200190815260200160002060003373ffffffffffffffffffffffffffffffffffffffff1673ffffffffffffffffffffffffffffffffffffffff16815260200190815260200160002060008282540192505081905550670de0b6b3a76400006024600083815260200190815260200160002060003373ffffffffffffffffffffffffffffffffffffffff1673ffffffffffffffffffffffffffffffffffffffff168152602001908152602001600020541015156146255760016025600083815260200190815260200160002060003373ffffffffffffffffffffffffffffffffffffffff1673ffffffffffffffffffffffffffffffffffffffff16815260200190815260200160002060006101000a81548160ff0219169083151502179055505b50565b670de0b6b3a76400006024600083815260200190815260200160002060003373ffffffffffffffffffffffffffffffffffffffff1673ffffffffffffffffffffffffffffffffffffffff1681526020019081526020016000205481151561468b57fe5b046026600083815260200190815260200160002060003373ffffffffffffffffffffffffffffffffffffffff1673ffffffffffffffffffffffffffffffffffffffff16815260200190815260200160002081905550678ac7230489e800006024600083815260200190815260200160002060003373ffffffffffffffffffffffffffffffffffffffff1673ffffffffffffffffffffffffffffffffffffffff1681526020019081526020016000205410151561479857600a6026600083815260200190815260200160002060003373ffffffffffffffffffffffffffffffffffffffff1673ffffffffffffffffffffffffffffffffffffffff168152602001908152602001600020819055505b505600a165627a7a7230582086acb72e06d9e4fc2ccdb5a86598deefe7fb32fb4d17e6192b08780a7d966d520029",
  "source": "pragma solidity ^0.4.24;\n\nimport \"../node_modules/openzeppelin-solidity/contracts/ownership/Ownable.sol\";\nimport \"./DividendsDistributor.sol\";\nimport \"./TimeBankDistributor.sol\";\nimport \"./ColorBankDistributor.sol\";\nimport \"./RoundDataHolder.sol\";\nimport \"./PaintsPool.sol\";\nimport \"./PaintDiscount.sol\";\nimport \"./IColor.sol\";\n\ncontract Game is Ownable, TimeBankDistributor, ColorBankDistributor, PaintsPool, PaintDiscount, DividendsDistributor  {\n\n    using SafeMath for uint;\n    \n    //       ( => )\n    mapping (address => uint) public lastPlayedRound; \n\n    //   \n    uint public uniqueUsers;\n\n    //     ,      (   )\n    mapping (address => bool) public isRegistered;\n    \n    //\n    event Paint(uint indexed pixelId, uint indexed colorId, address indexed painter);\n   \n    //,    \n    constructor() public payable { \n        \n        maxPaintsInPool = 10000; //10000 in production\n        currentRound = 1;\n        \n        for (uint i = 1; i <= 3; i++) {\n            currentPaintGenForColor[i] = 1;\n            callPriceForColor[i] = 0.01 ether;\n            nextCallPriceForColor[i] = callPriceForColor[i];\n            paintGenToAmountForColor[i][currentPaintGenForColor[i]] = maxPaintsInPool;\n            paintGenStartedForColor[i][currentPaintGenForColor[i]] = true;\n            \n            //       \n            if (totalPaintsForRound[currentRound] == 0) {\n                paintGenToEndTimeForColor[i][currentPaintGenForColor[i] - 1] = now;\n            }\n            \n            paintGenToStartTimeForColor[i][currentPaintGenForColor[i]] = now;\n            paintGenToAmountForColor[i][currentPaintGenForColor[i]] = maxPaintsInPool;\n        }\n        \n    }\n    \n    //     \n    function getPixelColor(uint _pixel) external view returns (uint) {\n        return pixelToColorForRound[currentRound][_pixel];\n    }\n    \n    //   \n    function paint(uint _pixel, uint _color) external payable {\n\n        //        ,    \n        if (isRegistered[msg.sender] == false) {\n            isRegistered[msg.sender] = true;\n            uniqueUsers = uniqueUsers.add(1);\n        }\n        \n        //          paint\n        _fillPaintsPool(_color);\n        \n        //          \n        if (hasPaintDiscountForColor[_color][msg.sender] == true ) {\n            \n            // ,      paint   \n            uint discountCallPrice = callPriceForColor[_color].mul((100 - usersPaintDiscountForColor[_color][msg.sender])).div(100);\n            require(msg.value == discountCallPrice , \"Wrong call price...\");\n        }\n            \n        else\n            require(msg.value == callPriceForColor[_color], \"Wrong call price...\");\n            \n        require(_pixel != 0, \"The pixel with id = 0 does not exist...\");\n        require(_color != 0, \"You cannot paint to transparent color...\");\n        require(pixelToColorForRound[currentRound][_pixel] != _color, \"This pixel is already of this color...\");\n        \n        //    20        \n        if (now - lastPaintTimeForRound[currentRound] > 20 minutes && lastPaintTimeForRound[currentRound] != 0) {\n\n            //    \n            _distributeTimeBank();\n        }\n        \n        else {\n\n            //   \n            _setBanks(_color);\n            \n            //  ( ) \n            _distributeDividends(_color);\n            \n            //   \n            _paint(_pixel, _color);\n\n            // -   (, ,  )\n            emit Paint(_pixel, _color, msg.sender);    \n            \n            //            \n            if (colorToPaintedPixelsAmountForRound[currentRound][_color] == 10000) {\n\n                //    \n                winnerColorForRound[currentRound] = _color;\n\n                //    \n                _distributeColorBank();                \n            }\n\n            //  ,     ,   \n            _claimBankPrizeForLastPlayedRound();\n\n                  \n        }\n    }\n\n    //    \n    function _paint(uint _pixel, uint _color) private {\n\n        //    \n        uint oldColor = pixelToColorForRound[currentRound][_pixel];\n\n        //   \n        pixelToColorForRound[currentRound][_pixel] = _color; \n        \n        //c    \n        pixelToOldColorForRound[currentRound][_pixel] = oldColor; \n            \n        //         \n        lastPaintTimeForRound[currentRound] = now; \n\n        //          \n        lastPainterForRound[currentRound] = msg.sender;\n            \n        //    ,   \n        if (colorToPaintedPixelsAmountForRound[currentRound][oldColor] > 0) \n            colorToPaintedPixelsAmountForRound[currentRound][oldColor] = colorToPaintedPixelsAmountForRound[currentRound][oldColor].sub(1); \n\n        //   ,   \n        colorToPaintedPixelsAmountForRound[currentRound][_color] = colorToPaintedPixelsAmountForRound[currentRound][_color].add(1); \n    \n        //           \n        uint totalCounterToColorForUserForRound = colorToAddressToTotalCounterForRound[currentRound][_color][msg.sender]; \n\n        //        \n        totalCounterToColorForUserForRound = totalCounterToColorForUserForRound.add(1); \n\n        //   -            \n        colorToAddressToTotalCounterForRound[currentRound][_color][msg.sender] = totalCounterToColorForUserForRound; \n            \n        //           \n        uint totalCounterForUserForRound = addressToTotalCounterForRound[currentRound][msg.sender]; \n\n        //           \n        totalCounterForUserForRound = totalCounterForUserForRound.add(1); \n\n        //              \n        addressToTotalCounterForRound[currentRound][msg.sender] = totalCounterForUserForRound;\n            \n        //       n-      \n        addressToColorToCounterToTimestampForRound[currentRound][msg.sender][_color][totalCounterToColorForUserForRound] = now;\n\n        //       n-      \n        addressToCounterToTimestampForRound[currentRound][msg.sender][totalCounterForUserForRound] = now;\n            \n        //         \n        colorToTotalPaintsForRound[currentRound][_color] = colorToTotalPaintsForRound[currentRound][_color].add(1); \n\n        //         \n        totalPaintsForRound[currentRound] = totalPaintsForRound[currentRound].add(1); \n\n        //         \n        lastPlayedRound[msg.sender] = currentRound;\n            \n        //     1  \n        paintGenToAmountForColor[_color][currentPaintGenForColor[_color]] = paintGenToAmountForColor[_color][currentPaintGenForColor[_color]].sub(1);\n        \n        //         \n        _setMoneySpentByUserForColor(_color);\n        \n        //         \n        _setUsersPaintDiscountForColor(_color);\n    }\n\n    //  \n    function _setBanks(uint _color) private {\n        \n        colorBankToColorForRound[currentRound][_color] = colorBankToColorForRound[currentRound][_color].add(msg.value.mul(40).div(100));\n\n        //40%     \n        colorBankForRound[currentRound] = colorBankForRound[currentRound].add(msg.value.mul(40).div(100));\n\n        //40%     \n        timeBankForRound[currentRound] = timeBankForRound[currentRound].add(msg.value.mul(40).div(100));\n\n        //20%      \n        dividendsBank = dividendsBank.add(msg.value.mul(20).div(100)); \n    }\n    \n\n\n    //         \n    function _claimBankPrizeForLastPlayedRound() public {\n\n        //          \n        if (lastPlayedRound[msg.sender] > 1 && isPrizeDistributedForRound[msg.sender][lastPlayedRound[msg.sender]] == false) {\n                \n            //    \n            if(winnerBankForRound[lastPlayedRound[msg.sender]] == 1) \n                //           \n                claimTimeBankPrizeForLastPlayedRound();\n\n            //    \n            if(winnerBankForRound[lastPlayedRound[msg.sender]] == 2) \n                //           \n                claimColorBankPrizeForLastPlayedRound();\n        }      \n\n    }\n    \n    \n    function showPotentialPrizeForColor(uint _color) external view returns (uint) {\n\n        //      \n        uint end = now;\n\n        //      \n        uint start = now - 24 hours;\n\n        //c  \n        uint counter;\n        \n        //              \n        uint total = colorToAddressToTotalCounterForRound[currentRound][_color][msg.sender]; \n\n         //         24 \n        for (uint i = total; i > 0; i--) {\n            uint timeStamp = addressToColorToCounterToTimestampForRound[currentRound][msg.sender][_color][i];\n            if (timeStamp > start && timeStamp <= end)\n                counter = counter.add(1);\n        }\n        \n        uint potentialPrizeForColor = counter.mul(colorBankToColorForRound[currentRound][_color]).div(colorToTotalPaintsForRound[currentRound][_color]);\n        \n        return potentialPrizeForColor;\n    }\n\n}",
  "sourcePath": "/Users/Amir/last-pixel-contracts/contracts/Game.sol",
  "compiler": {
    "name": "solc",
    "version": "0.4.24+commit.e67f0147.Emscripten.clang"
  },
  "schemaVersion": "2.0.1",
  "updatedAt": "2018-12-07T04:37:59.138Z"
}