{
  "contractName": "GameMock",
  "abi": [
    {
      "constant": true,
      "inputs": [
        {
          "name": "",
          "type": "uint256"
        },
        {
          "name": "",
          "type": "address"
        }
      ],
      "name": "addressToTimeBankPrizeForRound",
      "outputs": [
        {
          "name": "",
          "type": "uint256"
        }
      ],
      "payable": false,
      "stateMutability": "view",
      "type": "function"
    },
    {
      "constant": true,
      "inputs": [
        {
          "name": "",
          "type": "address"
        }
      ],
      "name": "addressToTimeBankPrizeTotal",
      "outputs": [
        {
          "name": "",
          "type": "uint256"
        }
      ],
      "payable": false,
      "stateMutability": "view",
      "type": "function"
    },
    {
      "constant": true,
      "inputs": [
        {
          "name": "",
          "type": "uint256"
        },
        {
          "name": "",
          "type": "uint256"
        }
      ],
      "name": "colorToTotalPaintsForRound",
      "outputs": [
        {
          "name": "",
          "type": "uint256"
        }
      ],
      "payable": false,
      "stateMutability": "view",
      "type": "function"
    },
    {
      "constant": true,
      "inputs": [
        {
          "name": "",
          "type": "uint256"
        }
      ],
      "name": "ownerOfColor",
      "outputs": [
        {
          "name": "",
          "type": "address"
        }
      ],
      "payable": false,
      "stateMutability": "view",
      "type": "function"
    },
    {
      "constant": true,
      "inputs": [
        {
          "name": "",
          "type": "uint256"
        },
        {
          "name": "",
          "type": "uint256"
        }
      ],
      "name": "colorToPaintedPixelsAmountForRound",
      "outputs": [
        {
          "name": "",
          "type": "uint256"
        }
      ],
      "payable": false,
      "stateMutability": "view",
      "type": "function"
    },
    {
      "constant": true,
      "inputs": [
        {
          "name": "",
          "type": "uint256"
        }
      ],
      "name": "winnerOfRound",
      "outputs": [
        {
          "name": "",
          "type": "address"
        }
      ],
      "payable": false,
      "stateMutability": "view",
      "type": "function"
    },
    {
      "constant": true,
      "inputs": [
        {
          "name": "",
          "type": "uint256"
        },
        {
          "name": "",
          "type": "uint256"
        },
        {
          "name": "",
          "type": "address"
        }
      ],
      "name": "colorToAddressToTotalCounterForRound",
      "outputs": [
        {
          "name": "",
          "type": "uint256"
        }
      ],
      "payable": false,
      "stateMutability": "view",
      "type": "function"
    },
    {
      "constant": true,
      "inputs": [
        {
          "name": "",
          "type": "uint256"
        },
        {
          "name": "",
          "type": "address"
        }
      ],
      "name": "hasPaintDiscountForColor",
      "outputs": [
        {
          "name": "",
          "type": "bool"
        }
      ],
      "payable": false,
      "stateMutability": "view",
      "type": "function"
    },
    {
      "constant": true,
      "inputs": [
        {
          "name": "",
          "type": "uint256"
        }
      ],
      "name": "teamStartedTimeForRound",
      "outputs": [
        {
          "name": "",
          "type": "uint256"
        }
      ],
      "payable": false,
      "stateMutability": "view",
      "type": "function"
    },
    {
      "constant": true,
      "inputs": [
        {
          "name": "",
          "type": "uint256"
        }
      ],
      "name": "currentPaintGenForColor",
      "outputs": [
        {
          "name": "",
          "type": "uint256"
        }
      ],
      "payable": false,
      "stateMutability": "view",
      "type": "function"
    },
    {
      "constant": true,
      "inputs": [
        {
          "name": "",
          "type": "address"
        }
      ],
      "name": "lastPlayedRound",
      "outputs": [
        {
          "name": "",
          "type": "uint256"
        }
      ],
      "payable": false,
      "stateMutability": "view",
      "type": "function"
    },
    {
      "constant": true,
      "inputs": [
        {
          "name": "",
          "type": "uint256"
        },
        {
          "name": "",
          "type": "address"
        }
      ],
      "name": "moneySpentByUserForColor",
      "outputs": [
        {
          "name": "",
          "type": "uint256"
        }
      ],
      "payable": false,
      "stateMutability": "view",
      "type": "function"
    },
    {
      "constant": true,
      "inputs": [
        {
          "name": "",
          "type": "uint256"
        },
        {
          "name": "",
          "type": "uint256"
        }
      ],
      "name": "paintGenToStartTimeForColor",
      "outputs": [
        {
          "name": "",
          "type": "uint256"
        }
      ],
      "payable": false,
      "stateMutability": "view",
      "type": "function"
    },
    {
      "constant": true,
      "inputs": [
        {
          "name": "",
          "type": "uint256"
        }
      ],
      "name": "callPriceForColor",
      "outputs": [
        {
          "name": "",
          "type": "uint256"
        }
      ],
      "payable": false,
      "stateMutability": "view",
      "type": "function"
    },
    {
      "constant": true,
      "inputs": [
        {
          "name": "",
          "type": "uint256"
        }
      ],
      "name": "winnerBankForRound",
      "outputs": [
        {
          "name": "",
          "type": "uint256"
        }
      ],
      "payable": false,
      "stateMutability": "view",
      "type": "function"
    },
    {
      "constant": true,
      "inputs": [],
      "name": "uniqueUsers",
      "outputs": [
        {
          "name": "",
          "type": "uint256"
        }
      ],
      "payable": false,
      "stateMutability": "view",
      "type": "function"
    },
    {
      "constant": true,
      "inputs": [],
      "name": "founders",
      "outputs": [
        {
          "name": "",
          "type": "address"
        }
      ],
      "payable": false,
      "stateMutability": "view",
      "type": "function"
    },
    {
      "constant": false,
      "inputs": [
        {
          "name": "_pixel",
          "type": "uint256"
        },
        {
          "name": "_color",
          "type": "uint256"
        }
      ],
      "name": "paint",
      "outputs": [],
      "payable": true,
      "stateMutability": "payable",
      "type": "function"
    },
    {
      "constant": true,
      "inputs": [
        {
          "name": "",
          "type": "uint256"
        },
        {
          "name": "",
          "type": "uint256"
        }
      ],
      "name": "pixelToOldColorForRound",
      "outputs": [
        {
          "name": "",
          "type": "uint256"
        }
      ],
      "payable": false,
      "stateMutability": "view",
      "type": "function"
    },
    {
      "constant": true,
      "inputs": [
        {
          "name": "",
          "type": "uint256"
        }
      ],
      "name": "timeBankForRound",
      "outputs": [
        {
          "name": "",
          "type": "uint256"
        }
      ],
      "payable": false,
      "stateMutability": "view",
      "type": "function"
    },
    {
      "constant": true,
      "inputs": [
        {
          "name": "",
          "type": "uint256"
        }
      ],
      "name": "teamEndedTimeForRound",
      "outputs": [
        {
          "name": "",
          "type": "uint256"
        }
      ],
      "payable": false,
      "stateMutability": "view",
      "type": "function"
    },
    {
      "constant": true,
      "inputs": [],
      "name": "colorBankPrizeOfLastPainter",
      "outputs": [
        {
          "name": "",
          "type": "uint256"
        }
      ],
      "payable": false,
      "stateMutability": "view",
      "type": "function"
    },
    {
      "constant": true,
      "inputs": [
        {
          "name": "",
          "type": "uint256"
        },
        {
          "name": "",
          "type": "uint256"
        }
      ],
      "name": "paintGenStartedForColor",
      "outputs": [
        {
          "name": "",
          "type": "bool"
        }
      ],
      "payable": false,
      "stateMutability": "view",
      "type": "function"
    },
    {
      "constant": true,
      "inputs": [
        {
          "name": "",
          "type": "uint256"
        },
        {
          "name": "",
          "type": "address"
        },
        {
          "name": "",
          "type": "uint256"
        }
      ],
      "name": "addressToCounterToTimestampForRound",
      "outputs": [
        {
          "name": "",
          "type": "uint256"
        }
      ],
      "payable": false,
      "stateMutability": "view",
      "type": "function"
    },
    {
      "constant": false,
      "inputs": [],
      "name": "claimDividends",
      "outputs": [],
      "payable": false,
      "stateMutability": "nonpayable",
      "type": "function"
    },
    {
      "constant": true,
      "inputs": [
        {
          "name": "_color",
          "type": "uint256"
        }
      ],
      "name": "showPotentialPrizeForColor",
      "outputs": [
        {
          "name": "",
          "type": "uint256"
        }
      ],
      "payable": false,
      "stateMutability": "view",
      "type": "function"
    },
    {
      "constant": true,
      "inputs": [],
      "name": "timeBankPrizeOfLastPainter",
      "outputs": [
        {
          "name": "",
          "type": "uint256"
        }
      ],
      "payable": false,
      "stateMutability": "view",
      "type": "function"
    },
    {
      "constant": true,
      "inputs": [
        {
          "name": "",
          "type": "uint256"
        }
      ],
      "name": "nextCallPriceForColor",
      "outputs": [
        {
          "name": "",
          "type": "uint256"
        }
      ],
      "payable": false,
      "stateMutability": "view",
      "type": "function"
    },
    {
      "constant": false,
      "inputs": [],
      "name": "renounceOwnership",
      "outputs": [],
      "payable": false,
      "stateMutability": "nonpayable",
      "type": "function"
    },
    {
      "constant": true,
      "inputs": [
        {
          "name": "",
          "type": "uint256"
        }
      ],
      "name": "lastPaintTimeForRound",
      "outputs": [
        {
          "name": "",
          "type": "uint256"
        }
      ],
      "payable": false,
      "stateMutability": "view",
      "type": "function"
    },
    {
      "constant": true,
      "inputs": [
        {
          "name": "",
          "type": "uint256"
        }
      ],
      "name": "lastPainterForRound",
      "outputs": [
        {
          "name": "",
          "type": "address"
        }
      ],
      "payable": false,
      "stateMutability": "view",
      "type": "function"
    },
    {
      "constant": true,
      "inputs": [
        {
          "name": "_pixel",
          "type": "uint256"
        }
      ],
      "name": "getPixelColor",
      "outputs": [
        {
          "name": "",
          "type": "uint256"
        }
      ],
      "payable": false,
      "stateMutability": "view",
      "type": "function"
    },
    {
      "constant": true,
      "inputs": [],
      "name": "currentRound",
      "outputs": [
        {
          "name": "",
          "type": "uint256"
        }
      ],
      "payable": false,
      "stateMutability": "view",
      "type": "function"
    },
    {
      "constant": true,
      "inputs": [],
      "name": "owner",
      "outputs": [
        {
          "name": "",
          "type": "address"
        }
      ],
      "payable": false,
      "stateMutability": "view",
      "type": "function"
    },
    {
      "constant": true,
      "inputs": [],
      "name": "isOwner",
      "outputs": [
        {
          "name": "",
          "type": "bool"
        }
      ],
      "payable": false,
      "stateMutability": "view",
      "type": "function"
    },
    {
      "constant": true,
      "inputs": [
        {
          "name": "",
          "type": "uint256"
        },
        {
          "name": "",
          "type": "uint256"
        }
      ],
      "name": "colorBankToColorForRound",
      "outputs": [
        {
          "name": "",
          "type": "uint256"
        }
      ],
      "payable": false,
      "stateMutability": "view",
      "type": "function"
    },
    {
      "constant": true,
      "inputs": [
        {
          "name": "",
          "type": "uint256"
        },
        {
          "name": "",
          "type": "address"
        }
      ],
      "name": "addressToColorBankPrizeForRound",
      "outputs": [
        {
          "name": "",
          "type": "uint256"
        }
      ],
      "payable": false,
      "stateMutability": "view",
      "type": "function"
    },
    {
      "constant": true,
      "inputs": [],
      "name": "ownerOfPixel",
      "outputs": [
        {
          "name": "",
          "type": "address"
        }
      ],
      "payable": false,
      "stateMutability": "view",
      "type": "function"
    },
    {
      "constant": true,
      "inputs": [
        {
          "name": "",
          "type": "uint256"
        },
        {
          "name": "",
          "type": "address"
        }
      ],
      "name": "addressToTotalCounterForRound",
      "outputs": [
        {
          "name": "",
          "type": "uint256"
        }
      ],
      "payable": false,
      "stateMutability": "view",
      "type": "function"
    },
    {
      "constant": true,
      "inputs": [
        {
          "name": "",
          "type": "uint256"
        },
        {
          "name": "",
          "type": "address"
        },
        {
          "name": "",
          "type": "uint256"
        },
        {
          "name": "",
          "type": "uint256"
        }
      ],
      "name": "addressToColorToCounterToTimestampForRound",
      "outputs": [
        {
          "name": "",
          "type": "uint256"
        }
      ],
      "payable": false,
      "stateMutability": "view",
      "type": "function"
    },
    {
      "constant": false,
      "inputs": [],
      "name": "claimTimeBankPrizeForLastPlayedRound",
      "outputs": [],
      "payable": false,
      "stateMutability": "nonpayable",
      "type": "function"
    },
    {
      "constant": true,
      "inputs": [
        {
          "name": "",
          "type": "uint256"
        },
        {
          "name": "",
          "type": "uint256"
        }
      ],
      "name": "pixelToColorForRound",
      "outputs": [
        {
          "name": "",
          "type": "uint256"
        }
      ],
      "payable": false,
      "stateMutability": "view",
      "type": "function"
    },
    {
      "constant": true,
      "inputs": [
        {
          "name": "",
          "type": "address"
        }
      ],
      "name": "addressToColorBankPrizeTotal",
      "outputs": [
        {
          "name": "",
          "type": "uint256"
        }
      ],
      "payable": false,
      "stateMutability": "view",
      "type": "function"
    },
    {
      "constant": true,
      "inputs": [
        {
          "name": "",
          "type": "uint256"
        }
      ],
      "name": "totalPaintsForRound",
      "outputs": [
        {
          "name": "",
          "type": "uint256"
        }
      ],
      "payable": false,
      "stateMutability": "view",
      "type": "function"
    },
    {
      "constant": true,
      "inputs": [
        {
          "name": "",
          "type": "address"
        }
      ],
      "name": "isRegistered",
      "outputs": [
        {
          "name": "",
          "type": "bool"
        }
      ],
      "payable": false,
      "stateMutability": "view",
      "type": "function"
    },
    {
      "constant": true,
      "inputs": [
        {
          "name": "",
          "type": "uint256"
        }
      ],
      "name": "colorBankForRound",
      "outputs": [
        {
          "name": "",
          "type": "uint256"
        }
      ],
      "payable": false,
      "stateMutability": "view",
      "type": "function"
    },
    {
      "constant": true,
      "inputs": [
        {
          "name": "",
          "type": "uint256"
        },
        {
          "name": "",
          "type": "uint256"
        }
      ],
      "name": "paintGenToEndTimeForColor",
      "outputs": [
        {
          "name": "",
          "type": "uint256"
        }
      ],
      "payable": false,
      "stateMutability": "view",
      "type": "function"
    },
    {
      "constant": false,
      "inputs": [],
      "name": "_claimBankPrizeForLastPlayedRound",
      "outputs": [],
      "payable": false,
      "stateMutability": "nonpayable",
      "type": "function"
    },
    {
      "constant": true,
      "inputs": [
        {
          "name": "",
          "type": "uint256"
        },
        {
          "name": "",
          "type": "uint256"
        }
      ],
      "name": "paintGenToAmountForColor",
      "outputs": [
        {
          "name": "",
          "type": "uint256"
        }
      ],
      "payable": false,
      "stateMutability": "view",
      "type": "function"
    },
    {
      "constant": true,
      "inputs": [
        {
          "name": "",
          "type": "address"
        },
        {
          "name": "",
          "type": "uint256"
        }
      ],
      "name": "isPrizeDistributedForRound",
      "outputs": [
        {
          "name": "",
          "type": "bool"
        }
      ],
      "payable": false,
      "stateMutability": "view",
      "type": "function"
    },
    {
      "constant": true,
      "inputs": [
        {
          "name": "",
          "type": "uint256"
        },
        {
          "name": "",
          "type": "address"
        }
      ],
      "name": "usersPaintDiscountForColor",
      "outputs": [
        {
          "name": "",
          "type": "uint256"
        }
      ],
      "payable": false,
      "stateMutability": "view",
      "type": "function"
    },
    {
      "constant": false,
      "inputs": [],
      "name": "claimColorBankPrizeForLastPlayedRound",
      "outputs": [],
      "payable": false,
      "stateMutability": "nonpayable",
      "type": "function"
    },
    {
      "constant": true,
      "inputs": [],
      "name": "maxPaintsInPool",
      "outputs": [
        {
          "name": "",
          "type": "uint256"
        }
      ],
      "payable": false,
      "stateMutability": "view",
      "type": "function"
    },
    {
      "constant": false,
      "inputs": [
        {
          "name": "newOwner",
          "type": "address"
        }
      ],
      "name": "transferOwnership",
      "outputs": [],
      "payable": false,
      "stateMutability": "nonpayable",
      "type": "function"
    },
    {
      "constant": true,
      "inputs": [
        {
          "name": "",
          "type": "uint256"
        }
      ],
      "name": "winnerColorForRound",
      "outputs": [
        {
          "name": "",
          "type": "uint256"
        }
      ],
      "payable": false,
      "stateMutability": "view",
      "type": "function"
    },
    {
      "constant": true,
      "inputs": [],
      "name": "dividendsBank",
      "outputs": [
        {
          "name": "",
          "type": "uint256"
        }
      ],
      "payable": false,
      "stateMutability": "view",
      "type": "function"
    },
    {
      "constant": true,
      "inputs": [
        {
          "name": "",
          "type": "address"
        }
      ],
      "name": "withdrawalBalances",
      "outputs": [
        {
          "name": "",
          "type": "uint256"
        }
      ],
      "payable": false,
      "stateMutability": "view",
      "type": "function"
    },
    {
      "inputs": [],
      "payable": true,
      "stateMutability": "payable",
      "type": "constructor"
    },
    {
      "anonymous": false,
      "inputs": [
        {
          "indexed": true,
          "name": "pixelId",
          "type": "uint256"
        },
        {
          "indexed": true,
          "name": "colorId",
          "type": "uint256"
        },
        {
          "indexed": true,
          "name": "painter",
          "type": "address"
        }
      ],
      "name": "Paint",
      "type": "event"
    },
    {
      "anonymous": false,
      "inputs": [
        {
          "indexed": true,
          "name": "withdrawer",
          "type": "address"
        },
        {
          "indexed": true,
          "name": "currentBlock",
          "type": "uint256"
        },
        {
          "indexed": true,
          "name": "amount",
          "type": "uint256"
        }
      ],
      "name": "DividendsWithdrawn",
      "type": "event"
    },
    {
      "anonymous": false,
      "inputs": [
        {
          "indexed": true,
          "name": "newCallPrice",
          "type": "uint256"
        }
      ],
      "name": "CallPriceUpdated",
      "type": "event"
    },
    {
      "anonymous": false,
      "inputs": [
        {
          "indexed": true,
          "name": "winner",
          "type": "address"
        },
        {
          "indexed": true,
          "name": "winnerColor",
          "type": "uint256"
        },
        {
          "indexed": true,
          "name": "currentRound",
          "type": "uint256"
        }
      ],
      "name": "ColorBankPlayed",
      "type": "event"
    },
    {
      "anonymous": false,
      "inputs": [
        {
          "indexed": true,
          "name": "winner",
          "type": "address"
        },
        {
          "indexed": true,
          "name": "round",
          "type": "uint256"
        },
        {
          "indexed": true,
          "name": "amount",
          "type": "uint256"
        }
      ],
      "name": "ColorBankPrizeDistributed",
      "type": "event"
    },
    {
      "anonymous": false,
      "inputs": [
        {
          "indexed": true,
          "name": "winner",
          "type": "address"
        },
        {
          "indexed": true,
          "name": "currentRound",
          "type": "uint256"
        }
      ],
      "name": "TimeBankPlayed",
      "type": "event"
    },
    {
      "anonymous": false,
      "inputs": [
        {
          "indexed": true,
          "name": "winner",
          "type": "address"
        },
        {
          "indexed": true,
          "name": "round",
          "type": "uint256"
        },
        {
          "indexed": true,
          "name": "amount",
          "type": "uint256"
        }
      ],
      "name": "TimeBankPrizeDistributed",
      "type": "event"
    },
    {
      "anonymous": false,
      "inputs": [
        {
          "indexed": true,
          "name": "previousOwner",
          "type": "address"
        },
        {
          "indexed": true,
          "name": "newOwner",
          "type": "address"
        }
      ],
      "name": "OwnershipTransferred",
      "type": "event"
    },
    {
      "constant": true,
      "inputs": [],
      "name": "currentTime",
      "outputs": [
        {
          "name": "",
          "type": "uint256"
        }
      ],
      "payable": false,
      "stateMutability": "view",
      "type": "function"
    },
    {
      "constant": false,
      "inputs": [
        {
          "name": "_color",
          "type": "uint256"
        },
        {
          "name": "_amount",
          "type": "uint256"
        }
      ],
      "name": "setPaintedPixelsAmount",
      "outputs": [],
      "payable": false,
      "stateMutability": "nonpayable",
      "type": "function"
    },
    {
      "constant": false,
      "inputs": [
        {
          "name": "_round",
          "type": "uint256"
        },
        {
          "name": "_colorBank",
          "type": "uint256"
        }
      ],
      "name": "setColorBankForRound",
      "outputs": [],
      "payable": false,
      "stateMutability": "nonpayable",
      "type": "function"
    },
    {
      "constant": false,
      "inputs": [
        {
          "name": "_round",
          "type": "uint256"
        },
        {
          "name": "_timeBank",
          "type": "uint256"
        }
      ],
      "name": "setTimeBankForRound",
      "outputs": [],
      "payable": false,
      "stateMutability": "nonpayable",
      "type": "function"
    },
    {
      "constant": false,
      "inputs": [
        {
          "name": "_color",
          "type": "uint256"
        }
      ],
      "name": "paint9998pixels",
      "outputs": [],
      "payable": false,
      "stateMutability": "nonpayable",
      "type": "function"
    }
  ],
  "bytecode": "0x608060405273ca35b7d915458ef540ade6068dfe2f44e8fa733c602b60006101000a81548173ffffffffffffffffffffffffffffffffffffffff021916908373ffffffffffffffffffffffffffffffffffffffff160217905550735ac77c56772a1819663ae375c9a2da2de34307ef602c60006101000a81548173ffffffffffffffffffffffffffffffffffffffff021916908373ffffffffffffffffffffffffffffffffffffffff1602179055506000806000336000806101000a81548173ffffffffffffffffffffffffffffffffffffffff021916908373ffffffffffffffffffffffffffffffffffffffff1602179055506000809054906101000a900473ffffffffffffffffffffffffffffffffffffffff1673ffffffffffffffffffffffffffffffffffffffff16600073ffffffffffffffffffffffffffffffffffffffff167f8be0079c531659141344cd1fd0a4f28419497f9722a3daafe3b4186f6b6457e060405160405180910390a3600190505b600881111515620001f35773bf0e4036bf968dd007f9b4a1bfda4e54c042f6126027600083815260200190815260200160002060006101000a81548173ffffffffffffffffffffffffffffffffffffffff021916908373ffffffffffffffffffffffffffffffffffffffff160217905550808060010191505062000174565b506127106023819055506001601881905550600190505b600381111515620003ed5760016020600083815260200190815260200160002081905550662386f26fc10000602160008381526020019081526020016000208190555060216000828152602001908152602001600020546022600083815260200190815260200160002081905550602354601c6000838152602001908152602001600020600060206000858152602001908152602001600020548152602001908152602001600020819055506001601f600083815260200190815260200160002060006020600085815260200190815260200160002054815260200190815260200160002060006101000a81548160ff0219169083151502179055506000601b60006018548152602001908152602001600020541415620003655742601e6000838152602001908152602001600020600060016020600086815260200190815260200160002054038152602001908152602001600020819055505b42601d600083815260200190815260200160002060006020600085815260200190815260200160002054815260200190815260200160002081905550602354601c60008381526020019081526020016000206000602060008581526020019081526020016000205481526020019081526020016000208190555080806001019150506200020a565b5060646023819055506001601881905550600190505b600381111515620005e65760016020600083815260200190815260200160002081905550662386f26fc10000602160008381526020019081526020016000208190555060216000828152602001908152602001600020546022600083815260200190815260200160002081905550602354601c6000838152602001908152602001600020600060206000858152602001908152602001600020548152602001908152602001600020819055506001601f600083815260200190815260200160002060006020600085815260200190815260200160002054815260200190815260200160002060006101000a81548160ff0219169083151502179055506000601b600060185481526020019081526020016000205414156200055e5742601e6000838152602001908152602001600020600060016020600086815260200190815260200160002054038152602001908152602001600020819055505b42601d600083815260200190815260200160002060006020600085815260200190815260200160002054815260200190815260200160002081905550602354601c600083815260200190815260200160002060006020600085815260200190815260200160002054815260200190815260200160002081905550808060010191505062000403565b50614a3a80620005f76000396000f3006080604052600436106102e0576000357c0100000000000000000000000000000000000000000000000000000000900463ffffffff16806302fb786d146102e557806306937b4714610312578063084028eb146103735780630ba36221146103ca5780630baaea44146104155780630cf9603f14610482578063102f9713146104cd578063187aae8e1461053a5780631f90c6ed146105a557806323a43a8e1461060a57806328361f571461064b57806328b290f91461068c5780632c6c1c41146106e35780633a173505146107445780633c6dd0131461078f5780633d0d1a79146107d05780633e3d1b6a1461081157806340aeff0e14610848578063411b007e1461087357806342a9393a146108ca5780634b39173d146108f45780634c78e4011461093f57806355457fc1146109805780635d6ae1f4146109c15780635f5d554c146109ec57806361433c5b14610a3b578063668038e014610aa65780636730e3e014610abd5780636d56bfbd14610afe5780636f17eb4214610b29578063715018a614610b6a57806373a9ee2614610b8157806379ecf37614610bc25780637b68a8f014610c2f5780638a19c8bc14610c705780638b9f804e14610c9b5780638da5cb5b14610cd25780638f32d59b14610d29578063a312072414610d58578063a645867e14610da3578063a977e16814610e04578063a9aa79fe14610e5b578063ab94b58414610e92578063ae2d2b6014610ef3578063b66e5e9e14610f68578063b8232d5d14610f7f578063be6b414114610fca578063be7d622614611021578063c3c5a54714611062578063c64a2e56146110bd578063c957387b146110fe578063d18e81b314611149578063d4b291eb14611174578063d5de47c71461118b578063d7be6332146111d6578063eaf1c9101461123b578063ebf0ba031461129c578063eef565da146112b3578063f2fde38b146112de578063f49916f514611321578063f5f95b3b14611362578063fb454d291461138d575b600080fd5b3480156102f157600080fd5b50610310600480360381019080803590602001909291905050506113e4565b005b34801561031e57600080fd5b5061035d60048036038101908080359060200190929190803573ffffffffffffffffffffffffffffffffffffffff169060200190929190505050611436565b6040518082815260200191505060405180910390f35b34801561037f57600080fd5b506103b4600480360381019080803573ffffffffffffffffffffffffffffffffffffffff16906020019092919050505061145b565b6040518082815260200191505060405180910390f35b3480156103d657600080fd5b506103ff6004803603810190808035906020019092919080359060200190929190505050611473565b6040518082815260200191505060405180910390f35b34801561042157600080fd5b5061044060048036038101908080359060200190929190505050611498565b604051808273ffffffffffffffffffffffffffffffffffffffff1673ffffffffffffffffffffffffffffffffffffffff16815260200191505060405180910390f35b34801561048e57600080fd5b506104b760048036038101908080359060200190929190803590602001909291905050506114cb565b6040518082815260200191505060405180910390f35b3480156104d957600080fd5b506104f8600480360381019080803590602001909291905050506114f0565b604051808273ffffffffffffffffffffffffffffffffffffffff1673ffffffffffffffffffffffffffffffffffffffff16815260200191505060405180910390f35b34801561054657600080fd5b5061058f6004803603810190808035906020019092919080359060200190929190803573ffffffffffffffffffffffffffffffffffffffff169060200190929190505050611523565b6040518082815260200191505060405180910390f35b3480156105b157600080fd5b506105f060048036038101908080359060200190929190803573ffffffffffffffffffffffffffffffffffffffff169060200190929190505050611555565b604051808215151515815260200191505060405180910390f35b34801561061657600080fd5b5061063560048036038101908080359060200190929190505050611584565b6040518082815260200191505060405180910390f35b34801561065757600080fd5b506106766004803603810190808035906020019092919050505061159c565b6040518082815260200191505060405180910390f35b34801561069857600080fd5b506106cd600480360381019080803573ffffffffffffffffffffffffffffffffffffffff1690602001909291905050506115b3565b6040518082815260200191505060405180910390f35b3480156106ef57600080fd5b5061072e60048036038101908080359060200190929190803573ffffffffffffffffffffffffffffffffffffffff1690602001909291905050506115cb565b6040518082815260200191505060405180910390f35b34801561075057600080fd5b5061077960048036038101908080359060200190929190803590602001909291905050506115f0565b6040518082815260200191505060405180910390f35b34801561079b57600080fd5b506107ba60048036038101908080359060200190929190505050611615565b6040518082815260200191505060405180910390f35b3480156107dc57600080fd5b506107fb6004803603810190808035906020019092919050505061162d565b6040518082815260200191505060405180910390f35b34801561081d57600080fd5b506108466004803603810190808035906020019092919080359060200190929190505050611645565b005b34801561085457600080fd5b5061085d611661565b6040518082815260200191505060405180910390f35b34801561087f57600080fd5b50610888611667565b604051808273ffffffffffffffffffffffffffffffffffffffff1673ffffffffffffffffffffffffffffffffffffffff16815260200191505060405180910390f35b6108f2600480360381019080803590602001909291908035906020019092919050505061168d565b005b34801561090057600080fd5b506109296004803603810190808035906020019092919080359060200190929190505050611c78565b6040518082815260200191505060405180910390f35b34801561094b57600080fd5b5061096a60048036038101908080359060200190929190505050611c9d565b6040518082815260200191505060405180910390f35b34801561098c57600080fd5b506109ab60048036038101908080359060200190929190505050611cb5565b6040518082815260200191505060405180910390f35b3480156109cd57600080fd5b506109d6611ccd565b6040518082815260200191505060405180910390f35b3480156109f857600080fd5b50610a216004803603810190808035906020019092919080359060200190929190505050611cd3565b604051808215151515815260200191505060405180910390f35b348015610a4757600080fd5b50610a9060048036038101908080359060200190929190803573ffffffffffffffffffffffffffffffffffffffff16906020019092919080359060200190929190505050611d02565b6040518082815260200191505060405180910390f35b348015610ab257600080fd5b50610abb611d34565b005b348015610ac957600080fd5b50610ae860048036038101908080359060200190929190505050611f6d565b6040518082815260200191505060405180910390f35b348015610b0a57600080fd5b50610b13612129565b6040518082815260200191505060405180910390f35b348015610b3557600080fd5b50610b546004803603810190808035906020019092919050505061212f565b6040518082815260200191505060405180910390f35b348015610b7657600080fd5b50610b7f612147565b005b348015610b8d57600080fd5b50610bac60048036038101908080359060200190929190505050612219565b6040518082815260200191505060405180910390f35b348015610bce57600080fd5b50610bed60048036038101908080359060200190929190505050612231565b604051808273ffffffffffffffffffffffffffffffffffffffff1673ffffffffffffffffffffffffffffffffffffffff16815260200191505060405180910390f35b348015610c3b57600080fd5b50610c5a60048036038101908080359060200190929190505050612264565b6040518082815260200191505060405180910390f35b348015610c7c57600080fd5b50610c85612294565b6040518082815260200191505060405180910390f35b348015610ca757600080fd5b50610cd0600480360381019080803590602001909291908035906020019092919050505061229a565b005b348015610cde57600080fd5b50610ce76122b6565b604051808273ffffffffffffffffffffffffffffffffffffffff1673ffffffffffffffffffffffffffffffffffffffff16815260200191505060405180910390f35b348015610d3557600080fd5b50610d3e6122df565b604051808215151515815260200191505060405180910390f35b348015610d6457600080fd5b50610d8d6004803603810190808035906020019092919080359060200190929190505050612336565b6040518082815260200191505060405180910390f35b348015610daf57600080fd5b50610dee60048036038101908080359060200190929190803573ffffffffffffffffffffffffffffffffffffffff16906020019092919050505061235b565b6040518082815260200191505060405180910390f35b348015610e1057600080fd5b50610e19612380565b604051808273ffffffffffffffffffffffffffffffffffffffff1673ffffffffffffffffffffffffffffffffffffffff16815260200191505060405180910390f35b348015610e6757600080fd5b50610e9060048036038101908080359060200190929190803590602001909291905050506123a6565b005b348015610e9e57600080fd5b50610edd60048036038101908080359060200190929190803573ffffffffffffffffffffffffffffffffffffffff1690602001909291905050506123d5565b6040518082815260200191505060405180910390f35b348015610eff57600080fd5b50610f5260048036038101908080359060200190929190803573ffffffffffffffffffffffffffffffffffffffff16906020019092919080359060200190929190803590602001909291905050506123fa565b6040518082815260200191505060405180910390f35b348015610f7457600080fd5b50610f7d612439565b005b348015610f8b57600080fd5b50610fb46004803603810190808035906020019092919080359060200190929190505050612980565b6040518082815260200191505060405180910390f35b348015610fd657600080fd5b5061100b600480360381019080803573ffffffffffffffffffffffffffffffffffffffff1690602001909291905050506129a5565b6040518082815260200191505060405180910390f35b34801561102d57600080fd5b5061104c600480360381019080803590602001909291905050506129bd565b6040518082815260200191505060405180910390f35b34801561106e57600080fd5b506110a3600480360381019080803573ffffffffffffffffffffffffffffffffffffffff1690602001909291905050506129d5565b604051808215151515815260200191505060405180910390f35b3480156110c957600080fd5b506110e8600480360381019080803590602001909291905050506129f5565b6040518082815260200191505060405180910390f35b34801561110a57600080fd5b506111336004803603810190808035906020019092919080359060200190929190505050612a0d565b6040518082815260200191505060405180910390f35b34801561115557600080fd5b5061115e612a32565b6040518082815260200191505060405180910390f35b34801561118057600080fd5b50611189612a3a565b005b34801561119757600080fd5b506111c06004803603810190808035906020019092919080359060200190929190505050612bf9565b6040518082815260200191505060405180910390f35b3480156111e257600080fd5b50611221600480360381019080803573ffffffffffffffffffffffffffffffffffffffff16906020019092919080359060200190929190505050612c1e565b604051808215151515815260200191505060405180910390f35b34801561124757600080fd5b5061128660048036038101908080359060200190929190803573ffffffffffffffffffffffffffffffffffffffff169060200190929190505050612c4d565b6040518082815260200191505060405180910390f35b3480156112a857600080fd5b506112b1612c72565b005b3480156112bf57600080fd5b506112c8613212565b6040518082815260200191505060405180910390f35b3480156112ea57600080fd5b5061131f600480360381019080803573ffffffffffffffffffffffffffffffffffffffff169060200190929190505050613218565b005b34801561132d57600080fd5b5061134c60048036038101908080359060200190929190505050613237565b6040518082815260200191505060405180910390f35b34801561136e57600080fd5b5061137761324f565b6040518082815260200191505060405180910390f35b34801561139957600080fd5b506113ce600480360381019080803573ffffffffffffffffffffffffffffffffffffffff169060200190929190505050613255565b6040518082815260200191505060405180910390f35b61270e600460006018548152602001908152602001600020600083815260200190815260200160002081905550671bc16d674ec800006005600060185481526020019081526020016000208190555050565b6014602052816000526040600020602052806000526040600020600091509150505481565b60196020528060005260406000206000915090505481565b600b602052816000526040600020602052806000526040600020600091509150505481565b60276020528060005260406000206000915054906101000a900473ffffffffffffffffffffffffffffffffffffffff1681565b6004602052816000526040600020602052806000526040600020600091509150505481565b60156020528060005260406000206000915054906101000a900473ffffffffffffffffffffffffffffffffffffffff1681565b600e60205282600052604060002060205281600052604060002060205280600052604060002060009250925050505481565b60256020528160005260406000206020528060005260406000206000915091509054906101000a900460ff1681565b600c6020528060005260406000206000915090505481565b602080528060005260406000206000915090505481565b602d6020528060005260406000206000915090505481565b6024602052816000526040600020602052806000526040600020600091509150505481565b601d602052816000526040600020602052806000526040600020600091509150505481565b60216020528060005260406000206000915090505481565b60166020528060005260406000206000915090505481565b8060056000848152602001908152602001600020819055505050565b602e5481565b602c60009054906101000a900473ffffffffffffffffffffffffffffffffffffffff1681565b6000801515602f60003373ffffffffffffffffffffffffffffffffffffffff1673ffffffffffffffffffffffffffffffffffffffff16815260200190815260200160002060009054906101000a900460ff161515141561175c576001602f60003373ffffffffffffffffffffffffffffffffffffffff1673ffffffffffffffffffffffffffffffffffffffff16815260200190815260200160002060006101000a81548160ff0219169083151502179055506117556001602e5461326d90919063ffffffff16565b602e819055505b6117658261328e565b600115156025600084815260200190815260200160002060003373ffffffffffffffffffffffffffffffffffffffff1673ffffffffffffffffffffffffffffffffffffffff16815260200190815260200160002060009054906101000a900460ff16151514156118d95761185b606461184d6026600086815260200190815260200160002060003373ffffffffffffffffffffffffffffffffffffffff1673ffffffffffffffffffffffffffffffffffffffff16815260200190815260200160002054606403602160008781526020019081526020016000205461352c90919063ffffffff16565b61356a90919063ffffffff16565b905080341415156118d4576040517f08c379a00000000000000000000000000000000000000000000000000000000081526004018080602001828103825260138152602001807f57726f6e672063616c6c2070726963652e2e2e0000000000000000000000000081525060200191505060405180910390fd5b611964565b602160008381526020019081526020016000205434141515611963576040517f08c379a00000000000000000000000000000000000000000000000000000000081526004018080602001828103825260138152602001807f57726f6e672063616c6c2070726963652e2e2e0000000000000000000000000081525060200191505060405180910390fd5b5b60008314151515611a03576040517f08c379a00000000000000000000000000000000000000000000000000000000081526004018080602001828103825260278152602001807f54686520706978656c2077697468206964203d203020646f6573206e6f74206581526020017f786973742e2e2e0000000000000000000000000000000000000000000000000081525060400191505060405180910390fd5b60008214151515611aa2576040517f08c379a00000000000000000000000000000000000000000000000000000000081526004018080602001828103825260288152602001807f596f752063616e6e6f74207061696e7420746f207472616e73706172656e742081526020017f636f6c6f722e2e2e00000000000000000000000000000000000000000000000081525060400191505060405180910390fd5b8160026000601854815260200190815260200160002060008581526020019081526020016000205414151515611b66576040517f08c379a00000000000000000000000000000000000000000000000000000000081526004018080602001828103825260268152602001807f5468697320706978656c20697320616c7265616479206f66207468697320636f81526020017f6c6f722e2e2e000000000000000000000000000000000000000000000000000081525060400191505060405180910390fd5b6104b0600860006018548152602001908152602001600020544203118015611ba4575060006008600060185481526020019081526020016000205414155b15611bb657611bb1613594565b611c73565b611bbf826138f8565b611bc882613a93565b611bd28383613cd6565b3373ffffffffffffffffffffffffffffffffffffffff1682847fee7a08acf49ed7fca3f2e35c2ce0b1853e45cef70f5e0fbd1f9434246d38550260405160405180910390a46127106004600060185481526020019081526020016000206000848152602001908152602001600020541415611c6a5781600a6000601854815260200190815260200160002081905550611c696142d2565b5b611c72612a3a565b5b505050565b6003602052816000526040600020602052806000526040600020600091509150505481565b60076020528060005260406000206000915090505481565b600d6020528060005260406000206000915090505481565b60305481565b601f6020528160005260406000206020528060005260406000206000915091509054906101000a900460ff1681565b601160205282600052604060002060205281600052604060002060205280600052604060002060009250925050505481565b600080602860003373ffffffffffffffffffffffffffffffffffffffff1673ffffffffffffffffffffffffffffffffffffffff1681526020019081526020016000205414151515611e13576040517f08c379a00000000000000000000000000000000000000000000000000000000081526004018080602001828103825260228152602001807f596f7572207769746864726177616c2062616c616e6365206973207a65726f2e81526020017f2e2e00000000000000000000000000000000000000000000000000000000000081525060400191505060405180910390fd5b602860003373ffffffffffffffffffffffffffffffffffffffff1673ffffffffffffffffffffffffffffffffffffffff1681526020019081526020016000205490506000602860003373ffffffffffffffffffffffffffffffffffffffff1673ffffffffffffffffffffffffffffffffffffffff168152602001908152602001600020819055503373ffffffffffffffffffffffffffffffffffffffff166108fc829081150290604051600060405180830381858888f19350505050158015611ee0573d6000803e3d6000fd5b5042602960003373ffffffffffffffffffffffffffffffffffffffff1673ffffffffffffffffffffffffffffffffffffffff1681526020019081526020016000208190555080423373ffffffffffffffffffffffffffffffffffffffff167f1a983dd8fc1bd566844e816cd39bafaebd6523281477df579d3252da34a251d960405160405180910390a450565b6000806000806000806000804296506201518042039550600e6000601854815260200190815260200160002060008a815260200190815260200160002060003373ffffffffffffffffffffffffffffffffffffffff1673ffffffffffffffffffffffffffffffffffffffff1681526020019081526020016000205493508392505b60008311156120a75760106000601854815260200190815260200160002060003373ffffffffffffffffffffffffffffffffffffffff1673ffffffffffffffffffffffffffffffffffffffff16815260200190815260200160002060008a81526020019081526020016000206000848152602001908152602001600020549150858211801561207d5750868211155b156120995761209660018661326d90919063ffffffff16565b94505b828060019003935050611fee565b612118600b6000601854815260200190815260200160002060008b81526020019081526020016000205461210a60066000601854815260200190815260200160002060008d8152602001908152602001600020548861352c90919063ffffffff16565b61356a90919063ffffffff16565b905080975050505050505050919050565b60315481565b60226020528060005260406000206000915090505481565b61214f6122df565b151561215a57600080fd5b600073ffffffffffffffffffffffffffffffffffffffff166000809054906101000a900473ffffffffffffffffffffffffffffffffffffffff1673ffffffffffffffffffffffffffffffffffffffff167f8be0079c531659141344cd1fd0a4f28419497f9722a3daafe3b4186f6b6457e060405160405180910390a360008060006101000a81548173ffffffffffffffffffffffffffffffffffffffff021916908373ffffffffffffffffffffffffffffffffffffffff160217905550565b60086020528060005260406000206000915090505481565b60096020528060005260406000206000915054906101000a900473ffffffffffffffffffffffffffffffffffffffff1681565b60006002600060185481526020019081526020016000206000838152602001908152602001600020549050919050565b60185481565b8060076000848152602001908152602001600020819055505050565b60008060009054906101000a900473ffffffffffffffffffffffffffffffffffffffff16905090565b60008060009054906101000a900473ffffffffffffffffffffffffffffffffffffffff1673ffffffffffffffffffffffffffffffffffffffff163373ffffffffffffffffffffffffffffffffffffffff1614905090565b6006602052816000526040600020602052806000526040600020600091509150505481565b6013602052816000526040600020602052806000526040600020600091509150505481565b602b60009054906101000a900473ffffffffffffffffffffffffffffffffffffffff1681565b806004600060185481526020019081526020016000206000848152602001908152602001600020819055505050565b600f602052816000526040600020602052806000526040600020600091509150505481565b60106020528360005260406000206020528260005260406000206020528160005260406000206020528060005260406000206000935093505050505481565b6000806000806000806000601760003373ffffffffffffffffffffffffffffffffffffffff1673ffffffffffffffffffffffffffffffffffffffff1681526020019081526020016000205496506000601760003373ffffffffffffffffffffffffffffffffffffffff1673ffffffffffffffffffffffffffffffffffffffff168152602001908152602001600020541180156124e8575060016016600089815260200190815260200160002054145b1515612582576040517f08c379a00000000000000000000000000000000000000000000000000000000081526004018080602001828103825260318152602001807f42616e6b206f662074696d6520776173206e6f7420706c6179656420696e207981526020017f6f7572206c61737420726f756e642e2e2e00000000000000000000000000000081525060400191505060405180910390fd5b600d6000888152602001908152602001600020549550600c6000888152602001908152602001600020549450600f600088815260200190815260200160002060003373ffffffffffffffffffffffffffffffffffffffff1673ffffffffffffffffffffffffffffffffffffffff1681526020019081526020016000205492508291505b600082111561269d576011600088815260200190815260200160002060003373ffffffffffffffffffffffffffffffffffffffff1673ffffffffffffffffffffffffffffffffffffffff168152602001908152602001600020600083815260200190815260200160002054905084811180156126815750858111155b1561268f5783806001019450505b818060019003925050612605565b6126e860016000898152602001908152602001600020546126da600760008b8152602001908152602001600020548761352c90919063ffffffff16565b61356a90919063ffffffff16565b6014600089815260200190815260200160002060003373ffffffffffffffffffffffffffffffffffffffff1673ffffffffffffffffffffffffffffffffffffffff168152602001908152602001600020600082825401925050819055506014600088815260200190815260200160002060003373ffffffffffffffffffffffffffffffffffffffff1673ffffffffffffffffffffffffffffffffffffffff16815260200190815260200160002054601960003373ffffffffffffffffffffffffffffffffffffffff1673ffffffffffffffffffffffffffffffffffffffff168152602001908152602001600020600082825401925050819055503373ffffffffffffffffffffffffffffffffffffffff166108fc601460008a815260200190815260200160002060003373ffffffffffffffffffffffffffffffffffffffff1673ffffffffffffffffffffffffffffffffffffffff168152602001908152602001600020549081150290604051600060405180830381858888f19350505050158015612878573d6000803e3d6000fd5b506001601260003373ffffffffffffffffffffffffffffffffffffffff1673ffffffffffffffffffffffffffffffffffffffff168152602001908152602001600020600089815260200190815260200160002060006101000a81548160ff0219169083151502179055506013600088815260200190815260200160002060003373ffffffffffffffffffffffffffffffffffffffff1673ffffffffffffffffffffffffffffffffffffffff16815260200190815260200160002054873373ffffffffffffffffffffffffffffffffffffffff167f8981f49dce2918fc89fa176fbbd90d8546f51779930f7b458ca6a0d4856f878c60405160405180910390a450505050505050565b6002602052816000526040600020602052806000526040600020600091509150505481565b601a6020528060005260406000206000915090505481565b601b6020528060005260406000206000915090505481565b602f6020528060005260406000206000915054906101000a900460ff1681565b60056020528060005260406000206000915090505481565b601e602052816000526040600020602052806000526040600020600091509150505481565b600042905090565b6001602d60003373ffffffffffffffffffffffffffffffffffffffff1673ffffffffffffffffffffffffffffffffffffffff16815260200190815260200160002054118015612b29575060001515601260003373ffffffffffffffffffffffffffffffffffffffff1673ffffffffffffffffffffffffffffffffffffffff1681526020019081526020016000206000602d60003373ffffffffffffffffffffffffffffffffffffffff1673ffffffffffffffffffffffffffffffffffffffff16815260200190815260200160002054815260200190815260200160002060009054906101000a900460ff161515145b15612bf757600160166000602d60003373ffffffffffffffffffffffffffffffffffffffff1673ffffffffffffffffffffffffffffffffffffffff168152602001908152602001600020548152602001908152602001600020541415612b9257612b91612439565b5b600260166000602d60003373ffffffffffffffffffffffffffffffffffffffff1673ffffffffffffffffffffffffffffffffffffffff168152602001908152602001600020548152602001908152602001600020541415612bf657612bf5612c72565b5b5b565b601c602052816000526040600020602052806000526040600020600091509150505481565b60126020528160005260406000206020528060005260406000206000915091509054906101000a900460ff1681565b6026602052816000526040600020602052806000526040600020600091509150505481565b600080600080600080600080601760003373ffffffffffffffffffffffffffffffffffffffff1673ffffffffffffffffffffffffffffffffffffffff1681526020019081526020016000205497506000601760003373ffffffffffffffffffffffffffffffffffffffff1673ffffffffffffffffffffffffffffffffffffffff16815260200190815260200160002054118015612d2257506002601660008a815260200190815260200160002054145b1515612dbc576040517f08c379a00000000000000000000000000000000000000000000000000000000081526004018080602001828103825260328152602001807f42616e6b206f6620636f6c6f7220776173206e6f7420706c6179656420696e2081526020017f796f7572206c61737420726f756e642e2e2e000000000000000000000000000081525060400191505060405180910390fd5b600a6000898152602001908152602001600020549650600d6000898152602001908152602001600020549550600c6000898152602001908152602001600020549450600e6000898152602001908152602001600020600088815260200190815260200160002060003373ffffffffffffffffffffffffffffffffffffffff1673ffffffffffffffffffffffffffffffffffffffff1681526020019081526020016000205492508291505b6000821115612f1d576010600089815260200190815260200160002060003373ffffffffffffffffffffffffffffffffffffffff1673ffffffffffffffffffffffffffffffffffffffff168152602001908152602001600020600088815260200190815260200160002060008381526020019081526020016000205490508481118015612ef35750858111155b15612f0f57612f0c60018561326d90919063ffffffff16565b93505b818060019003925050612e66565b612f79600b60008a8152602001908152602001600020600089815260200190815260200160002054612f6b600560008c8152602001908152602001600020548761352c90919063ffffffff16565b61356a90919063ffffffff16565b601360008a815260200190815260200160002060003373ffffffffffffffffffffffffffffffffffffffff1673ffffffffffffffffffffffffffffffffffffffff168152602001908152602001600020600082825401925050819055506013600089815260200190815260200160002060003373ffffffffffffffffffffffffffffffffffffffff1673ffffffffffffffffffffffffffffffffffffffff16815260200190815260200160002054601a60003373ffffffffffffffffffffffffffffffffffffffff1673ffffffffffffffffffffffffffffffffffffffff168152602001908152602001600020600082825401925050819055503373ffffffffffffffffffffffffffffffffffffffff166108fc601360008b815260200190815260200160002060003373ffffffffffffffffffffffffffffffffffffffff1673ffffffffffffffffffffffffffffffffffffffff168152602001908152602001600020549081150290604051600060405180830381858888f19350505050158015613109573d6000803e3d6000fd5b506001601260003373ffffffffffffffffffffffffffffffffffffffff1673ffffffffffffffffffffffffffffffffffffffff16815260200190815260200160002060008a815260200190815260200160002060006101000a81548160ff0219169083151502179055506013600089815260200190815260200160002060003373ffffffffffffffffffffffffffffffffffffffff1673ffffffffffffffffffffffffffffffffffffffff16815260200190815260200160002054883373ffffffffffffffffffffffffffffffffffffffff167fff0e3cc6a8358bbcae69e6c859a508401151d25fe2552fc59ca6f31b37461b5060405160405180910390a45050505050505050565b60235481565b6132206122df565b151561322b57600080fd5b613234816145c0565b50565b600a6020528060005260406000206000915090505481565b602a5481565b60286020528060005260406000206000915090505481565b600080828401905083811015151561328457600080fd5b8091505092915050565b600080605a601e600085815260200190815260200160002060006001602060008881526020019081526020016000205403815260200190815260200160002054420310151561352757601c60008481526020019081526020016000206000602060008681526020019081526020016000205481526020019081526020016000205491506133386001602060008681526020019081526020016000205461326d90919063ffffffff16565b905060001515601f6000858152602001908152602001600020600083815260200190815260200160002060009054906101000a900460ff161515141561341c5761338d826023546146ba90919063ffffffff16565b601c600085815260200190815260200160002060008381526020019081526020016000208190555042601d60008581526020019081526020016000206000838152602001908152602001600020819055506001601f6000858152602001908152602001600020600083815260200190815260200160002060006101000a81548160ff0219169083151502179055505b6001601c60008581526020019081526020016000206000602060008781526020019081526020016000205481526020019081526020016000205414156134a257613465836146db565b42601e6000858152602001908152602001600020600060206000878152602001908152602001600020548152602001908152602001600020819055505b6000601c600085815260200190815260200160002060006020600087815260200190815260200160002054815260200190815260200160002054141561352657602260008481526020019081526020016000205460216000858152602001908152602001600020819055508060206000858152602001908152602001600020819055505b5b505050565b60008060008414156135415760009150613563565b828402905082848281151561355257fe5b0414151561355f57600080fd5b8091505b5092915050565b60008060008311151561357c57600080fd5b828481151561358757fe5b0490508091505092915050565b620151804203600c600060185481526020019081526020016000208190555042600d600060185481526020019081526020016000208190555060096000601854815260200190815260200160002060009054906101000a900473ffffffffffffffffffffffffffffffffffffffff1660156000601854815260200190815260200160002060006101000a81548173ffffffffffffffffffffffffffffffffffffffff021916908373ffffffffffffffffffffffffffffffffffffffff1602179055506136926064613684602d6007600060185481526020019081526020016000205461352c90919063ffffffff16565b61356a90919063ffffffff16565b60318190555060156000601854815260200190815260200160002060009054906101000a900473ffffffffffffffffffffffffffffffffffffffff1673ffffffffffffffffffffffffffffffffffffffff166108fc6031549081150290604051600060405180830381858888f19350505050158015613715573d6000803e3d6000fd5b5060016016600060185481526020019081526020016000208190555061375a600a6007600060185481526020019081526020016000205461356a90919063ffffffff16565b600760006001601854018152602001908152602001600020819055506137b260646137a4602d6007600060185481526020019081526020016000205461352c90919063ffffffff16565b61356a90919063ffffffff16565b6007600060185481526020019081526020016000208190555060056000601854815260200190815260200160002054600560006001601854018152602001908152602001600020819055506000600560006018548152602001908152602001600020819055503373ffffffffffffffffffffffffffffffffffffffff166108fc349081150290604051600060405180830381858888f1935050505015801561385e573d6000803e3d6000fd5b5060185460156000601854815260200190815260200160002060009054906101000a900473ffffffffffffffffffffffffffffffffffffffff1673ffffffffffffffffffffffffffffffffffffffff167f20f206bcab56eeef408295aaff8745adb98fed16823d758193e9449983d23fd260405160405180910390a36138f0600160185461326d90919063ffffffff16565b601881905550565b613957613922606461391460283461352c90919063ffffffff16565b61356a90919063ffffffff16565b60066000601854815260200190815260200160002060008481526020019081526020016000205461326d90919063ffffffff16565b6006600060185481526020019081526020016000206000838152602001908152602001600020819055506139cf6139ab606461399d60283461352c90919063ffffffff16565b61356a90919063ffffffff16565b6005600060185481526020019081526020016000205461326d90919063ffffffff16565b60056000601854815260200190815260200160002081905550613a36613a126064613a0460283461352c90919063ffffffff16565b61356a90919063ffffffff16565b6007600060185481526020019081526020016000205461326d90919063ffffffff16565b60076000601854815260200190815260200160002081905550613a8a613a796064613a6b60143461352c90919063ffffffff16565b61356a90919063ffffffff16565b602a5461326d90919063ffffffff16565b602a8190555050565b613b2f613abf6064613ab16019602a5461352c90919063ffffffff16565b61356a90919063ffffffff16565b60286000602c60009054906101000a900473ffffffffffffffffffffffffffffffffffffffff1673ffffffffffffffffffffffffffffffffffffffff1673ffffffffffffffffffffffffffffffffffffffff1681526020019081526020016000205461326d90919063ffffffff16565b60286000602c60009054906101000a900473ffffffffffffffffffffffffffffffffffffffff1673ffffffffffffffffffffffffffffffffffffffff1673ffffffffffffffffffffffffffffffffffffffff16815260200190815260200160002081905550613bbd6064613baf6019602a5461352c90919063ffffffff16565b61356a90919063ffffffff16565b602860006027600085815260200190815260200160002060009054906101000a900473ffffffffffffffffffffffffffffffffffffffff1673ffffffffffffffffffffffffffffffffffffffff1673ffffffffffffffffffffffffffffffffffffffff16815260200190815260200160002060008282540192505081905550613c656064613c576019602a5461352c90919063ffffffff16565b61356a90919063ffffffff16565b60286000602b60009054906101000a900473ffffffffffffffffffffffffffffffffffffffff1673ffffffffffffffffffffffffffffffffffffffff1673ffffffffffffffffffffffffffffffffffffffff1681526020019081526020016000206000828254019250508190555050565b60008060006002600060185481526020019081526020016000206000868152602001908152602001600020549250836002600060185481526020019081526020016000206000878152602001908152602001600020819055508260036000601854815260200190815260200160002060008781526020019081526020016000208190555042600860006018548152602001908152602001600020819055503360096000601854815260200190815260200160002060006101000a81548173ffffffffffffffffffffffffffffffffffffffff021916908373ffffffffffffffffffffffffffffffffffffffff16021790555060006004600060185481526020019081526020016000206000858152602001908152602001600020541115613e5c57613e3160016004600060185481526020019081526020016000206000868152602001908152602001600020546146ba90919063ffffffff16565b6004600060185481526020019081526020016000206000858152602001908152602001600020819055505b613e96600160046000601854815260200190815260200160002060008781526020019081526020016000205461326d90919063ffffffff16565b600460006018548152602001908152602001600020600086815260200190815260200160002081905550600e60006018548152602001908152602001600020600085815260200190815260200160002060003373ffffffffffffffffffffffffffffffffffffffff1673ffffffffffffffffffffffffffffffffffffffff168152602001908152602001600020549150613f3a60018361326d90919063ffffffff16565b915081600e60006018548152602001908152602001600020600086815260200190815260200160002060003373ffffffffffffffffffffffffffffffffffffffff1673ffffffffffffffffffffffffffffffffffffffff16815260200190815260200160002081905550600f6000601854815260200190815260200160002060003373ffffffffffffffffffffffffffffffffffffffff1673ffffffffffffffffffffffffffffffffffffffff16815260200190815260200160002054905061400d60018261326d90919063ffffffff16565b905080600f6000601854815260200190815260200160002060003373ffffffffffffffffffffffffffffffffffffffff1673ffffffffffffffffffffffffffffffffffffffff168152602001908152602001600020819055504260106000601854815260200190815260200160002060003373ffffffffffffffffffffffffffffffffffffffff1673ffffffffffffffffffffffffffffffffffffffff16815260200190815260200160002060008681526020019081526020016000206000848152602001908152602001600020819055504260116000601854815260200190815260200160002060003373ffffffffffffffffffffffffffffffffffffffff1673ffffffffffffffffffffffffffffffffffffffff1681526020019081526020016000206000838152602001908152602001600020819055506141816001600b6000601854815260200190815260200160002060008781526020019081526020016000205461326d90919063ffffffff16565b600b600060185481526020019081526020016000206000868152602001908152602001600020819055506141d46001601b600060185481526020019081526020016000205461326d90919063ffffffff16565b601b6000601854815260200190815260200160002081905550601854602d60003373ffffffffffffffffffffffffffffffffffffffff1673ffffffffffffffffffffffffffffffffffffffff1681526020019081526020016000208190555061427e6001601c6000878152602001908152602001600020600060206000898152602001908152602001600020548152602001908152602001600020546146ba90919063ffffffff16565b601c6000868152602001908152602001600020600060206000888152602001908152602001600020548152602001908152602001600020819055506142c28461476f565b6142cb8461489b565b5050505050565b620151804203600c600060185481526020019081526020016000208190555042600d600060185481526020019081526020016000208190555060096000601854815260200190815260200160002060009054906101000a900473ffffffffffffffffffffffffffffffffffffffff1660156000601854815260200190815260200160002060006101000a81548173ffffffffffffffffffffffffffffffffffffffff021916908373ffffffffffffffffffffffffffffffffffffffff1602179055506143d060646143c260326005600060185481526020019081526020016000205461352c90919063ffffffff16565b61356a90919063ffffffff16565b60308190555060156000601854815260200190815260200160002060009054906101000a900473ffffffffffffffffffffffffffffffffffffffff1673ffffffffffffffffffffffffffffffffffffffff166108fc6030549081150290604051600060405180830381858888f19350505050158015614453573d6000803e3d6000fd5b506002601660006018548152602001908152602001600020819055506144ab606461449d60326005600060185481526020019081526020016000205461352c90919063ffffffff16565b61356a90919063ffffffff16565b600560006018548152602001908152602001600020819055506007600060185481526020019081526020016000205460076000600160185401815260200190815260200160002081905550600060076000601854815260200190815260200160002081905550601854600a600060185481526020019081526020016000205460156000601854815260200190815260200160002060009054906101000a900473ffffffffffffffffffffffffffffffffffffffff1673ffffffffffffffffffffffffffffffffffffffff167f6ec93b9ea332e4928177b5b176be94d4c0e6dae6a28a0b810c5765928344f0f360405160405180910390a46145b8600160185461326d90919063ffffffff16565b601881905550565b600073ffffffffffffffffffffffffffffffffffffffff168173ffffffffffffffffffffffffffffffffffffffff16141515156145fc57600080fd5b8073ffffffffffffffffffffffffffffffffffffffff166000809054906101000a900473ffffffffffffffffffffffffffffffffffffffff1673ffffffffffffffffffffffffffffffffffffffff167f8be0079c531659141344cd1fd0a4f28419497f9722a3daafe3b4186f6b6457e060405160405180910390a3806000806101000a81548173ffffffffffffffffffffffffffffffffffffffff021916908373ffffffffffffffffffffffffffffffffffffffff16021790555050565b6000808383111515156146cc57600080fd5b82840390508091505092915050565b61471560646147076069602160008681526020019081526020016000205461352c90919063ffffffff16565b61356a90919063ffffffff16565b602260008381526020019081526020016000208190555060216000828152602001908152602001600020547f3bb22f778670a5901bff4d41c425858dac1ea6aeb048d40f959a6bc43f98506160405160405180910390a250565b346024600083815260200190815260200160002060003373ffffffffffffffffffffffffffffffffffffffff1673ffffffffffffffffffffffffffffffffffffffff16815260200190815260200160002060008282540192505081905550670de0b6b3a76400006024600083815260200190815260200160002060003373ffffffffffffffffffffffffffffffffffffffff1673ffffffffffffffffffffffffffffffffffffffff168152602001908152602001600020541015156148985760016025600083815260200190815260200160002060003373ffffffffffffffffffffffffffffffffffffffff1673ffffffffffffffffffffffffffffffffffffffff16815260200190815260200160002060006101000a81548160ff0219169083151502179055505b50565b670de0b6b3a76400006024600083815260200190815260200160002060003373ffffffffffffffffffffffffffffffffffffffff1673ffffffffffffffffffffffffffffffffffffffff168152602001908152602001600020548115156148fe57fe5b046026600083815260200190815260200160002060003373ffffffffffffffffffffffffffffffffffffffff1673ffffffffffffffffffffffffffffffffffffffff16815260200190815260200160002081905550678ac7230489e800006024600083815260200190815260200160002060003373ffffffffffffffffffffffffffffffffffffffff1673ffffffffffffffffffffffffffffffffffffffff16815260200190815260200160002054101515614a0b57600a6026600083815260200190815260200160002060003373ffffffffffffffffffffffffffffffffffffffff1673ffffffffffffffffffffffffffffffffffffffff168152602001908152602001600020819055505b505600a165627a7a723058206266c3a1b09f51d18ae7302acd9d21099df55ec1f3eda48fafccb2bbb28b4de70029",
  "source": "pragma solidity ^0.4.24;\nimport \"./Game.sol\";\n\ncontract GameMock is Game {\n    constructor() payable {\n        maxPaintsInPool = 100; //10000 in production\n        currentRound = 1;\n        \n        for (uint i = 1; i <= 3; i++) {\n            currentPaintGenForColor[i] = 1;\n            callPriceForColor[i] = 0.01 ether;\n            nextCallPriceForColor[i] = callPriceForColor[i];\n            paintGenToAmountForColor[i][currentPaintGenForColor[i]] = maxPaintsInPool;\n            paintGenStartedForColor[i][currentPaintGenForColor[i]] = true;\n            \n            //       \n            if (totalPaintsForRound[currentRound] == 0) {\n                paintGenToEndTimeForColor[i][currentPaintGenForColor[i] - 1] = now;\n            }\n            \n            paintGenToStartTimeForColor[i][currentPaintGenForColor[i]] = now;\n            paintGenToAmountForColor[i][currentPaintGenForColor[i]] = maxPaintsInPool;\n        }\n    }\n\n    function currentTime() public view returns (uint) {\n        return now;\n    }\n\n    function setPaintedPixelsAmount(uint _color, uint _amount) external {\n        colorToPaintedPixelsAmountForRound[currentRound][_color] = _amount;\n    }\n\n    function setColorBankForRound(uint _round, uint _colorBank) external {\n        colorBankForRound[_round] = _colorBank;\n    }\n\n    function setTimeBankForRound(uint _round, uint _timeBank) external {\n        timeBankForRound[_round] = _timeBank;\n    }\n\n    function paint9998pixels(uint _color) external {\n        colorToPaintedPixelsAmountForRound[currentRound][_color] = 9998;\n        colorBankForRound[currentRound] = 2 ether; //just custom number\n    }\n\n    uint public colorBankPrizeOfLastPainter;\n\n    //    - overriden\n    function _distributeColorBank() internal { \n\n        //     (24  )\n        teamStartedTimeForRound[currentRound] = now - 24 hours;\n\n        //     ()\n        teamEndedTimeForRound[currentRound] = now;\n\n        //   -       \n        winnerOfRound[currentRound] = lastPainterForRound[currentRound];\n        \n        //Checks-Effects-Interactions pattern\n        colorBankPrizeOfLastPainter = colorBankForRound[currentRound].mul(50).div(100);\n    \n        // 50%     \n        winnerOfRound[currentRound].transfer(colorBankPrizeOfLastPainter);\n               \n        //    =   (2)\n        winnerBankForRound[currentRound] = 2;\n\n        //50%       \n        colorBankForRound[currentRound] = colorBankForRound[currentRound].mul(50).div(100); \n\n        //     \n        timeBankForRound[currentRound + 1] = timeBankForRound[currentRound];\n\n        //     \n        timeBankForRound[currentRound] = 0;\n\n        // -     (,   )\n        emit ColorBankPlayed(winnerOfRound[currentRound], winnerColorForRound[currentRound], currentRound);\n        \n        // \n        currentRound = currentRound.add(1); \n    }\n\n    //      (paint)\n    function _updateCallPrice(uint _color) private {\n        \n        //    5% (    )\n        nextCallPriceForColor[_color] = callPriceForColor[_color].mul(105).div(100);\n        \n        //   ,     paint \n        emit CallPriceUpdated(callPriceForColor[_color]);\n    }\n\n    //   \n    function _fillPaintsPool(uint _color) internal {\n        \n        //      \n        if (now - paintGenToEndTimeForColor[_color][currentPaintGenForColor[_color] - 1] >= 1.5 minutes) { \n            \n            //    \n            uint paintsRemain = paintGenToAmountForColor[_color][currentPaintGenForColor[_color]]; \n            \n            //  \n            uint nextPaintGen = currentPaintGenForColor[_color].add(1); \n            \n            //     .           \n            if (paintGenStartedForColor[_color][nextPaintGen] == false) {\n                \n                //       \n                paintGenToAmountForColor[_color][nextPaintGen] = maxPaintsInPool.sub(paintsRemain); \n                \n                //   \n                paintGenToStartTimeForColor[_color][nextPaintGen] = now; \n\n                paintGenStartedForColor[_color][nextPaintGen] = true;\n            }\n            \n            if (paintGenToAmountForColor[_color][currentPaintGenForColor[_color]] == 1) {\n                \n                //      \n                _updateCallPrice(_color);\n                \n                //    \n                paintGenToEndTimeForColor[_color][currentPaintGenForColor[_color]] = now;\n            }\n               \n            //      \n            if (paintGenToAmountForColor[_color][currentPaintGenForColor[_color]] == 0) {\n                \n                //     \n                callPriceForColor[_color] = nextCallPriceForColor[_color];\n\n                //     \n                currentPaintGenForColor[_color] = nextPaintGen;\n            }\n        }\n    }\n\n    uint public timeBankPrizeOfLastPainter;\n\n    //   \n    function _distributeTimeBank() internal  {\n\n        //    (24  )\n        teamStartedTimeForRound[currentRound] = now - 24 hours;\n\n        //     ()\n        teamEndedTimeForRound[currentRound] = now;\n\n        //   -       \n        winnerOfRound[currentRound] = lastPainterForRound[currentRound];\n        \n         //Checks-Effects-Interactions pattern\n        timeBankPrizeOfLastPainter = timeBankForRound[currentRound].mul(45).div(100);\n\n        // 45%     \n        winnerOfRound[currentRound].transfer(timeBankPrizeOfLastPainter);\n                \n        //    =   (1)\n        winnerBankForRound[currentRound] = 1; \n\n        //10%      \n        timeBankForRound[currentRound + 1] = timeBankForRound[currentRound].div(10); \n        \n        //45%        \n        timeBankForRound[currentRound] = timeBankForRound[currentRound].mul(45).div(100); \n\n        //     \n        colorBankForRound[currentRound + 1] = colorBankForRound[currentRound]; \n\n        //     \n        colorBankForRound[currentRound] = 0; \n\n        //   ,         \n        msg.sender.transfer(msg.value); \n\n        // -     (, )\n        emit TimeBankPlayed(winnerOfRound[currentRound], currentRound);\n        \n        // \n        currentRound = currentRound.add(1); \n    }\n\n}",
  "sourcePath": "/Users/Amir/last-pixel-contracts/contracts/GameMock.sol",
  "compiler": {
    "name": "solc",
    "version": "0.4.24+commit.e67f0147.Emscripten.clang"
  },
  "schemaVersion": "2.0.1",
  "updatedAt": "2018-12-07T04:37:59.084Z"
}