{
  "contractName": "Game",
  "abi": [
    {
      "constant": true,
      "inputs": [
        {
          "name": "",
          "type": "uint256"
        },
        {
          "name": "",
          "type": "address"
        }
      ],
      "name": "addressToTimeBankPrizeForRound",
      "outputs": [
        {
          "name": "",
          "type": "uint256"
        }
      ],
      "payable": false,
      "stateMutability": "view",
      "type": "function"
    },
    {
      "constant": true,
      "inputs": [
        {
          "name": "",
          "type": "address"
        }
      ],
      "name": "addressToTimeBankPrizeTotal",
      "outputs": [
        {
          "name": "",
          "type": "uint256"
        }
      ],
      "payable": false,
      "stateMutability": "view",
      "type": "function"
    },
    {
      "constant": true,
      "inputs": [
        {
          "name": "",
          "type": "uint256"
        },
        {
          "name": "",
          "type": "uint256"
        }
      ],
      "name": "colorToTotalPaintsForRound",
      "outputs": [
        {
          "name": "",
          "type": "uint256"
        }
      ],
      "payable": false,
      "stateMutability": "view",
      "type": "function"
    },
    {
      "constant": true,
      "inputs": [
        {
          "name": "",
          "type": "uint256"
        },
        {
          "name": "",
          "type": "uint256"
        }
      ],
      "name": "colorToPaintedPixelsAmountForRound",
      "outputs": [
        {
          "name": "",
          "type": "uint256"
        }
      ],
      "payable": false,
      "stateMutability": "view",
      "type": "function"
    },
    {
      "constant": true,
      "inputs": [
        {
          "name": "",
          "type": "uint256"
        }
      ],
      "name": "winnerOfRound",
      "outputs": [
        {
          "name": "",
          "type": "address"
        }
      ],
      "payable": false,
      "stateMutability": "view",
      "type": "function"
    },
    {
      "constant": true,
      "inputs": [
        {
          "name": "",
          "type": "uint256"
        },
        {
          "name": "",
          "type": "uint256"
        },
        {
          "name": "",
          "type": "address"
        }
      ],
      "name": "colorToAddressToTotalCounterForRound",
      "outputs": [
        {
          "name": "",
          "type": "uint256"
        }
      ],
      "payable": false,
      "stateMutability": "view",
      "type": "function"
    },
    {
      "constant": true,
      "inputs": [
        {
          "name": "",
          "type": "uint256"
        },
        {
          "name": "",
          "type": "address"
        }
      ],
      "name": "hasPaintDiscountForColor",
      "outputs": [
        {
          "name": "",
          "type": "bool"
        }
      ],
      "payable": false,
      "stateMutability": "view",
      "type": "function"
    },
    {
      "constant": true,
      "inputs": [
        {
          "name": "",
          "type": "uint256"
        }
      ],
      "name": "teamStartedTimeForRound",
      "outputs": [
        {
          "name": "",
          "type": "uint256"
        }
      ],
      "payable": false,
      "stateMutability": "view",
      "type": "function"
    },
    {
      "constant": true,
      "inputs": [
        {
          "name": "",
          "type": "uint256"
        }
      ],
      "name": "currentPaintGenForColor",
      "outputs": [
        {
          "name": "",
          "type": "uint256"
        }
      ],
      "payable": false,
      "stateMutability": "view",
      "type": "function"
    },
    {
      "constant": true,
      "inputs": [
        {
          "name": "",
          "type": "address"
        }
      ],
      "name": "lastPlayedRound",
      "outputs": [
        {
          "name": "",
          "type": "uint256"
        }
      ],
      "payable": false,
      "stateMutability": "view",
      "type": "function"
    },
    {
      "constant": true,
      "inputs": [
        {
          "name": "",
          "type": "uint256"
        },
        {
          "name": "",
          "type": "address"
        }
      ],
      "name": "moneySpentByUserForColor",
      "outputs": [
        {
          "name": "",
          "type": "uint256"
        }
      ],
      "payable": false,
      "stateMutability": "view",
      "type": "function"
    },
    {
      "constant": true,
      "inputs": [
        {
          "name": "",
          "type": "uint256"
        },
        {
          "name": "",
          "type": "uint256"
        }
      ],
      "name": "paintGenToStartTimeForColor",
      "outputs": [
        {
          "name": "",
          "type": "uint256"
        }
      ],
      "payable": false,
      "stateMutability": "view",
      "type": "function"
    },
    {
      "constant": true,
      "inputs": [
        {
          "name": "",
          "type": "uint256"
        }
      ],
      "name": "callPriceForColor",
      "outputs": [
        {
          "name": "",
          "type": "uint256"
        }
      ],
      "payable": false,
      "stateMutability": "view",
      "type": "function"
    },
    {
      "constant": true,
      "inputs": [
        {
          "name": "",
          "type": "uint256"
        }
      ],
      "name": "winnerBankForRound",
      "outputs": [
        {
          "name": "",
          "type": "uint256"
        }
      ],
      "payable": false,
      "stateMutability": "view",
      "type": "function"
    },
    {
      "constant": true,
      "inputs": [
        {
          "name": "",
          "type": "uint256"
        },
        {
          "name": "",
          "type": "uint256"
        }
      ],
      "name": "pixelToOldColorForRound",
      "outputs": [
        {
          "name": "",
          "type": "uint256"
        }
      ],
      "payable": false,
      "stateMutability": "view",
      "type": "function"
    },
    {
      "constant": true,
      "inputs": [
        {
          "name": "",
          "type": "uint256"
        }
      ],
      "name": "timeBankForRound",
      "outputs": [
        {
          "name": "",
          "type": "uint256"
        }
      ],
      "payable": false,
      "stateMutability": "view",
      "type": "function"
    },
    {
      "constant": true,
      "inputs": [
        {
          "name": "",
          "type": "uint256"
        }
      ],
      "name": "teamEndedTimeForRound",
      "outputs": [
        {
          "name": "",
          "type": "uint256"
        }
      ],
      "payable": false,
      "stateMutability": "view",
      "type": "function"
    },
    {
      "constant": true,
      "inputs": [
        {
          "name": "",
          "type": "uint256"
        },
        {
          "name": "",
          "type": "uint256"
        }
      ],
      "name": "paintGenStartedForColor",
      "outputs": [
        {
          "name": "",
          "type": "bool"
        }
      ],
      "payable": false,
      "stateMutability": "view",
      "type": "function"
    },
    {
      "constant": true,
      "inputs": [
        {
          "name": "",
          "type": "uint256"
        },
        {
          "name": "",
          "type": "address"
        },
        {
          "name": "",
          "type": "uint256"
        }
      ],
      "name": "addressToCounterToTimestampForRound",
      "outputs": [
        {
          "name": "",
          "type": "uint256"
        }
      ],
      "payable": false,
      "stateMutability": "view",
      "type": "function"
    },
    {
      "constant": false,
      "inputs": [],
      "name": "claimDividends",
      "outputs": [],
      "payable": false,
      "stateMutability": "nonpayable",
      "type": "function"
    },
    {
      "constant": true,
      "inputs": [
        {
          "name": "",
          "type": "uint256"
        }
      ],
      "name": "lastPaintTimeForRound",
      "outputs": [
        {
          "name": "",
          "type": "uint256"
        }
      ],
      "payable": false,
      "stateMutability": "view",
      "type": "function"
    },
    {
      "constant": true,
      "inputs": [
        {
          "name": "",
          "type": "uint256"
        }
      ],
      "name": "lastPainterForRound",
      "outputs": [
        {
          "name": "",
          "type": "address"
        }
      ],
      "payable": false,
      "stateMutability": "view",
      "type": "function"
    },
    {
      "constant": true,
      "inputs": [],
      "name": "currentRound",
      "outputs": [
        {
          "name": "",
          "type": "uint256"
        }
      ],
      "payable": false,
      "stateMutability": "view",
      "type": "function"
    },
    {
      "constant": true,
      "inputs": [
        {
          "name": "",
          "type": "uint256"
        },
        {
          "name": "",
          "type": "address"
        }
      ],
      "name": "addressToColorBankPrizeForRound",
      "outputs": [
        {
          "name": "",
          "type": "uint256"
        }
      ],
      "payable": false,
      "stateMutability": "view",
      "type": "function"
    },
    {
      "constant": true,
      "inputs": [
        {
          "name": "",
          "type": "uint256"
        },
        {
          "name": "",
          "type": "address"
        }
      ],
      "name": "addressToTotalCounterForRound",
      "outputs": [
        {
          "name": "",
          "type": "uint256"
        }
      ],
      "payable": false,
      "stateMutability": "view",
      "type": "function"
    },
    {
      "constant": true,
      "inputs": [
        {
          "name": "",
          "type": "uint256"
        },
        {
          "name": "",
          "type": "address"
        },
        {
          "name": "",
          "type": "uint256"
        },
        {
          "name": "",
          "type": "uint256"
        }
      ],
      "name": "addressToColorToCounterToTimestampForRound",
      "outputs": [
        {
          "name": "",
          "type": "uint256"
        }
      ],
      "payable": false,
      "stateMutability": "view",
      "type": "function"
    },
    {
      "constant": false,
      "inputs": [],
      "name": "claimTimeBankPrizeForLastPlayedRound",
      "outputs": [],
      "payable": false,
      "stateMutability": "nonpayable",
      "type": "function"
    },
    {
      "constant": true,
      "inputs": [
        {
          "name": "",
          "type": "uint256"
        },
        {
          "name": "",
          "type": "uint256"
        }
      ],
      "name": "pixelToColorForRound",
      "outputs": [
        {
          "name": "",
          "type": "uint256"
        }
      ],
      "payable": false,
      "stateMutability": "view",
      "type": "function"
    },
    {
      "constant": true,
      "inputs": [
        {
          "name": "",
          "type": "address"
        }
      ],
      "name": "addressToColorBankPrizeTotal",
      "outputs": [
        {
          "name": "",
          "type": "uint256"
        }
      ],
      "payable": false,
      "stateMutability": "view",
      "type": "function"
    },
    {
      "constant": true,
      "inputs": [
        {
          "name": "",
          "type": "uint256"
        }
      ],
      "name": "totalPaintsForRound",
      "outputs": [
        {
          "name": "",
          "type": "uint256"
        }
      ],
      "payable": false,
      "stateMutability": "view",
      "type": "function"
    },
    {
      "constant": true,
      "inputs": [
        {
          "name": "",
          "type": "uint256"
        }
      ],
      "name": "colorBankForRound",
      "outputs": [
        {
          "name": "",
          "type": "uint256"
        }
      ],
      "payable": false,
      "stateMutability": "view",
      "type": "function"
    },
    {
      "constant": true,
      "inputs": [
        {
          "name": "",
          "type": "uint256"
        },
        {
          "name": "",
          "type": "uint256"
        }
      ],
      "name": "paintGenToEndTimeForColor",
      "outputs": [
        {
          "name": "",
          "type": "uint256"
        }
      ],
      "payable": false,
      "stateMutability": "view",
      "type": "function"
    },
    {
      "constant": true,
      "inputs": [
        {
          "name": "",
          "type": "uint256"
        },
        {
          "name": "",
          "type": "uint256"
        }
      ],
      "name": "paintGenToAmountForColor",
      "outputs": [
        {
          "name": "",
          "type": "uint256"
        }
      ],
      "payable": false,
      "stateMutability": "view",
      "type": "function"
    },
    {
      "constant": true,
      "inputs": [
        {
          "name": "",
          "type": "address"
        },
        {
          "name": "",
          "type": "uint256"
        }
      ],
      "name": "isPrizeDistributedForRound",
      "outputs": [
        {
          "name": "",
          "type": "bool"
        }
      ],
      "payable": false,
      "stateMutability": "view",
      "type": "function"
    },
    {
      "constant": true,
      "inputs": [
        {
          "name": "",
          "type": "uint256"
        },
        {
          "name": "",
          "type": "address"
        }
      ],
      "name": "usersPaintDiscountForColor",
      "outputs": [
        {
          "name": "",
          "type": "uint256"
        }
      ],
      "payable": false,
      "stateMutability": "view",
      "type": "function"
    },
    {
      "constant": false,
      "inputs": [],
      "name": "claimColorBankPrizeForLastPlayedRound",
      "outputs": [],
      "payable": false,
      "stateMutability": "nonpayable",
      "type": "function"
    },
    {
      "constant": true,
      "inputs": [],
      "name": "maxPaintsInPool",
      "outputs": [
        {
          "name": "",
          "type": "uint256"
        }
      ],
      "payable": false,
      "stateMutability": "view",
      "type": "function"
    },
    {
      "constant": true,
      "inputs": [
        {
          "name": "",
          "type": "uint256"
        }
      ],
      "name": "winnerColorForRound",
      "outputs": [
        {
          "name": "",
          "type": "uint256"
        }
      ],
      "payable": false,
      "stateMutability": "view",
      "type": "function"
    },
    {
      "constant": true,
      "inputs": [],
      "name": "dividendsBank",
      "outputs": [
        {
          "name": "",
          "type": "uint256"
        }
      ],
      "payable": false,
      "stateMutability": "view",
      "type": "function"
    },
    {
      "constant": true,
      "inputs": [
        {
          "name": "",
          "type": "address"
        }
      ],
      "name": "withdrawalBalances",
      "outputs": [
        {
          "name": "",
          "type": "uint256"
        }
      ],
      "payable": false,
      "stateMutability": "view",
      "type": "function"
    },
    {
      "inputs": [],
      "payable": true,
      "stateMutability": "payable",
      "type": "constructor"
    },
    {
      "anonymous": false,
      "inputs": [
        {
          "indexed": true,
          "name": "pixelId",
          "type": "uint256"
        },
        {
          "indexed": true,
          "name": "colorId",
          "type": "uint256"
        },
        {
          "indexed": true,
          "name": "painter",
          "type": "address"
        }
      ],
      "name": "Paint",
      "type": "event"
    },
    {
      "anonymous": false,
      "inputs": [
        {
          "indexed": true,
          "name": "winner",
          "type": "address"
        },
        {
          "indexed": true,
          "name": "winnerColor",
          "type": "uint256"
        },
        {
          "indexed": true,
          "name": "currentRound",
          "type": "uint256"
        }
      ],
      "name": "ColorBankPlayed",
      "type": "event"
    },
    {
      "anonymous": false,
      "inputs": [
        {
          "indexed": true,
          "name": "winner",
          "type": "address"
        },
        {
          "indexed": true,
          "name": "round",
          "type": "uint256"
        },
        {
          "indexed": true,
          "name": "amount",
          "type": "uint256"
        }
      ],
      "name": "ColorBankPrizeDistributed",
      "type": "event"
    },
    {
      "anonymous": false,
      "inputs": [
        {
          "indexed": true,
          "name": "winner",
          "type": "address"
        },
        {
          "indexed": true,
          "name": "currentRound",
          "type": "uint256"
        }
      ],
      "name": "TimeBankPlayed",
      "type": "event"
    },
    {
      "anonymous": false,
      "inputs": [
        {
          "indexed": true,
          "name": "winner",
          "type": "address"
        },
        {
          "indexed": true,
          "name": "round",
          "type": "uint256"
        },
        {
          "indexed": true,
          "name": "amount",
          "type": "uint256"
        }
      ],
      "name": "TimeBankPrizeDistributed",
      "type": "event"
    },
    {
      "anonymous": false,
      "inputs": [
        {
          "indexed": true,
          "name": "withdrawer",
          "type": "address"
        },
        {
          "indexed": true,
          "name": "currentBlock",
          "type": "uint256"
        },
        {
          "indexed": true,
          "name": "amount",
          "type": "uint256"
        }
      ],
      "name": "DividendsWithdrawn",
      "type": "event"
    },
    {
      "anonymous": false,
      "inputs": [
        {
          "indexed": true,
          "name": "newCallPrice",
          "type": "uint256"
        }
      ],
      "name": "CallPriceUpdated",
      "type": "event"
    },
    {
      "constant": true,
      "inputs": [
        {
          "name": "_pixel",
          "type": "uint256"
        }
      ],
      "name": "getPixelColor",
      "outputs": [
        {
          "name": "",
          "type": "uint256"
        }
      ],
      "payable": false,
      "stateMutability": "view",
      "type": "function"
    },
    {
      "constant": false,
      "inputs": [
        {
          "name": "_pixel",
          "type": "uint256"
        },
        {
          "name": "_color",
          "type": "uint256"
        }
      ],
      "name": "paint",
      "outputs": [],
      "payable": true,
      "stateMutability": "payable",
      "type": "function"
    },
    {
      "constant": false,
      "inputs": [],
      "name": "setHardcodedValues",
      "outputs": [],
      "payable": true,
      "stateMutability": "payable",
      "type": "function"
    },
    {
      "constant": false,
      "inputs": [],
      "name": "_claimBankPrizeForLastPlayedRound",
      "outputs": [],
      "payable": false,
      "stateMutability": "nonpayable",
      "type": "function"
    },
    {
      "constant": false,
      "inputs": [
        {
          "name": "_deployed",
          "type": "address"
        }
      ],
      "name": "setColorInstanceAddress",
      "outputs": [],
      "payable": false,
      "stateMutability": "nonpayable",
      "type": "function"
    }
  ],
  "bytecode": "0x608060405273f106a93c5ca900bfae6345b61fcfae9d75cb031d602560006101000a81548173ffffffffffffffffffffffffffffffffffffffff021916908373ffffffffffffffffffffffffffffffffffffffff160217905550735ac77c56772a1819663ae375c9a2da2de34307ef602660006101000a81548173ffffffffffffffffffffffffffffffffffffffff021916908373ffffffffffffffffffffffffffffffffffffffff160217905550735ac77c56772a1819663ae375c9a2da2de34307ef602760006101000a81548173ffffffffffffffffffffffffffffffffffffffff021916908373ffffffffffffffffffffffffffffffffffffffff1602179055506000737899946bc29f3ab7443903bcc03e8a38407bb44a602b60006101000a81548173ffffffffffffffffffffffffffffffffffffffff021916908373ffffffffffffffffffffffffffffffffffffffff16021790555060646007819055506001602181905550600190505b602b60009054906101000a900473ffffffffffffffffffffffffffffffffffffffff1673ffffffffffffffffffffffffffffffffffffffff166318160ddd6040518163ffffffff167c0100000000000000000000000000000000000000000000000000000000028152600401602060405180830381600087803b158015620001f657600080fd5b505af11580156200020b573d6000803e3d6000fd5b505050506040513d60208110156200022257600080fd5b8101908080519060200190929190505050811015620003e2576001600560008381526020019081526020016000208190555060646006600083815260200190815260200160002081905550600754600160008381526020019081526020016000206000600560008581526020019081526020016000205481526020019081526020016000208190555060016004600083815260200190815260200160002060006005600085815260200190815260200160002054815260200190815260200160002060006101000a81548160ff0219169083151502179055506000600b600060215481526020019081526020016000205414156200035a574260036000838152602001908152602001600020600060016005600086815260200190815260200160002054038152602001908152602001600020819055505b426002600083815260200190815260200160002060006005600085815260200190815260200160002054815260200190815260200160002081905550600754600160008381526020019081526020016000206000600560008581526020019081526020016000205481526020019081526020016000208190555080806001019150506200016f565b50613e2e80620003f36000396000f300608060405260043610610225576000357c0100000000000000000000000000000000000000000000000000000000900463ffffffff16806306937b471461022a578063084028eb1461028b5780630ba36221146102e25780630cf9603f1461032d578063102f971314610378578063187aae8e146103e55780631f3ed5f9146104505780631f90c6ed1461045a57806323a43a8e146104bf57806328361f571461050057806328b290f9146105415780632c6c1c41146105985780633a173505146105f95780633c6dd013146106445780633d0d1a791461068557806342a9393a146106c65780634b39173d146106f05780634c78e4011461073b57806355457fc11461077c5780635f5d554c146107bd57806361433c5b1461080c578063668038e01461087757806373a9ee261461088e57806379ecf376146108cf5780637b68a8f01461093c5780638a19c8bc1461097d578063a645867e146109a8578063ab94b58414610a09578063ae2d2b6014610a6a578063b66e5e9e14610adf578063b8232d5d14610af6578063be6b414114610b41578063be7d622614610b98578063c64a2e5614610bd9578063c957387b14610c1a578063d0021c0014610c65578063d4b291eb14610ca8578063d5de47c714610cbf578063d7be633214610d0a578063eaf1c91014610d6f578063ebf0ba0314610dd0578063eef565da14610de7578063f49916f514610e12578063f5f95b3b14610e53578063fb454d2914610e7e575b600080fd5b34801561023657600080fd5b5061027560048036038101908080359060200190929190803573ffffffffffffffffffffffffffffffffffffffff169060200190929190505050610ed5565b6040518082815260200191505060405180910390f35b34801561029757600080fd5b506102cc600480360381019080803573ffffffffffffffffffffffffffffffffffffffff169060200190929190505050610efa565b6040518082815260200191505060405180910390f35b3480156102ee57600080fd5b506103176004803603810190808035906020019092919080359060200190929190505050610f12565b6040518082815260200191505060405180910390f35b34801561033957600080fd5b506103626004803603810190808035906020019092919080359060200190929190505050610f37565b6040518082815260200191505060405180910390f35b34801561038457600080fd5b506103a360048036038101908080359060200190929190505050610f5c565b604051808273ffffffffffffffffffffffffffffffffffffffff1673ffffffffffffffffffffffffffffffffffffffff16815260200191505060405180910390f35b3480156103f157600080fd5b5061043a6004803603810190808035906020019092919080359060200190929190803573ffffffffffffffffffffffffffffffffffffffff169060200190929190505050610f8f565b6040518082815260200191505060405180910390f35b610458610fc1565b005b34801561046657600080fd5b506104a560048036038101908080359060200190929190803573ffffffffffffffffffffffffffffffffffffffff169060200190929190505050611035565b604051808215151515815260200191505060405180910390f35b3480156104cb57600080fd5b506104ea60048036038101908080359060200190929190505050611064565b6040518082815260200191505060405180910390f35b34801561050c57600080fd5b5061052b6004803603810190808035906020019092919050505061107c565b6040518082815260200191505060405180910390f35b34801561054d57600080fd5b50610582600480360381019080803573ffffffffffffffffffffffffffffffffffffffff169060200190929190505050611094565b6040518082815260200191505060405180910390f35b3480156105a457600080fd5b506105e360048036038101908080359060200190929190803573ffffffffffffffffffffffffffffffffffffffff1690602001909291905050506110ac565b6040518082815260200191505060405180910390f35b34801561060557600080fd5b5061062e60048036038101908080359060200190929190803590602001909291905050506110d1565b6040518082815260200191505060405180910390f35b34801561065057600080fd5b5061066f600480360381019080803590602001909291905050506110f6565b6040518082815260200191505060405180910390f35b34801561069157600080fd5b506106b06004803603810190808035906020019092919050505061110e565b6040518082815260200191505060405180910390f35b6106ee6004803603810190808035906020019092919080359060200190929190505050611126565b005b3480156106fc57600080fd5b506107256004803603810190808035906020019092919080359060200190929190505050611642565b6040518082815260200191505060405180910390f35b34801561074757600080fd5b5061076660048036038101908080359060200190929190505050611667565b6040518082815260200191505060405180910390f35b34801561078857600080fd5b506107a76004803603810190808035906020019092919050505061167f565b6040518082815260200191505060405180910390f35b3480156107c957600080fd5b506107f26004803603810190808035906020019092919080359060200190929190505050611697565b604051808215151515815260200191505060405180910390f35b34801561081857600080fd5b5061086160048036038101908080359060200190929190803573ffffffffffffffffffffffffffffffffffffffff169060200190929190803590602001909291905050506116c6565b6040518082815260200191505060405180910390f35b34801561088357600080fd5b5061088c6116f8565b005b34801561089a57600080fd5b506108b960048036038101908080359060200190929190505050611931565b6040518082815260200191505060405180910390f35b3480156108db57600080fd5b506108fa60048036038101908080359060200190929190505050611949565b604051808273ffffffffffffffffffffffffffffffffffffffff1673ffffffffffffffffffffffffffffffffffffffff16815260200191505060405180910390f35b34801561094857600080fd5b506109676004803603810190808035906020019092919050505061197c565b6040518082815260200191505060405180910390f35b34801561098957600080fd5b506109926119ac565b6040518082815260200191505060405180910390f35b3480156109b457600080fd5b506109f360048036038101908080359060200190929190803573ffffffffffffffffffffffffffffffffffffffff1690602001909291905050506119b2565b6040518082815260200191505060405180910390f35b348015610a1557600080fd5b50610a5460048036038101908080359060200190929190803573ffffffffffffffffffffffffffffffffffffffff1690602001909291905050506119d7565b6040518082815260200191505060405180910390f35b348015610a7657600080fd5b50610ac960048036038101908080359060200190929190803573ffffffffffffffffffffffffffffffffffffffff16906020019092919080359060200190929190803590602001909291905050506119fc565b6040518082815260200191505060405180910390f35b348015610aeb57600080fd5b50610af4611a3b565b005b348015610b0257600080fd5b50610b2b6004803603810190808035906020019092919080359060200190929190505050611f82565b6040518082815260200191505060405180910390f35b348015610b4d57600080fd5b50610b82600480360381019080803573ffffffffffffffffffffffffffffffffffffffff169060200190929190505050611fa7565b6040518082815260200191505060405180910390f35b348015610ba457600080fd5b50610bc360048036038101908080359060200190929190505050611fbf565b6040518082815260200191505060405180910390f35b348015610be557600080fd5b50610c0460048036038101908080359060200190929190505050611fd7565b6040518082815260200191505060405180910390f35b348015610c2657600080fd5b50610c4f6004803603810190808035906020019092919080359060200190929190505050611fef565b6040518082815260200191505060405180910390f35b348015610c7157600080fd5b50610ca6600480360381019080803573ffffffffffffffffffffffffffffffffffffffff169060200190929190505050612014565b005b348015610cb457600080fd5b50610cbd612058565b005b348015610ccb57600080fd5b50610cf46004803603810190808035906020019092919080359060200190929190505050612217565b6040518082815260200191505060405180910390f35b348015610d1657600080fd5b50610d55600480360381019080803573ffffffffffffffffffffffffffffffffffffffff1690602001909291908035906020019092919050505061223c565b604051808215151515815260200191505060405180910390f35b348015610d7b57600080fd5b50610dba60048036038101908080359060200190929190803573ffffffffffffffffffffffffffffffffffffffff16906020019092919050505061226b565b6040518082815260200191505060405180910390f35b348015610ddc57600080fd5b50610de5612290565b005b348015610df357600080fd5b50610dfc612830565b6040518082815260200191505060405180910390f35b348015610e1e57600080fd5b50610e3d60048036038101908080359060200190929190505050612836565b6040518082815260200191505060405180910390f35b348015610e5f57600080fd5b50610e6861284e565b6040518082815260200191505060405180910390f35b348015610e8a57600080fd5b50610ebf600480360381019080803573ffffffffffffffffffffffffffffffffffffffff169060200190929190505050612854565b6040518082815260200191505060405180910390f35b601d602052816000526040600020602052806000526040600020600091509150505481565b60286020528060005260406000206000915090505481565b6014602052816000526040600020602052806000526040600020600091509150505481565b600e602052816000526040600020602052806000526040600020600091509150505481565b601e6020528060005260406000206000915054906101000a900473ffffffffffffffffffffffffffffffffffffffff1681565b601760205282600052604060002060205281600052604060002060205280600052604060002060009250925050505481565b612708600e60006021548152602001908152602001600020600060028152602001908152602001600020819055506702c68af0bb140000600f60006021548152602001908152602001600020819055506702c68af0bb14000060106000602154815260200190815260200160002081905550565b60096020528160005260406000206020528060005260406000206000915091509054906101000a900460ff1681565b60156020528060005260406000206000915090505481565b60056020528060005260406000206000915090505481565b602a6020528060005260406000206000915090505481565b6008602052816000526040600020602052806000526040600020600091509150505481565b6002602052816000526040600020602052806000526040600020600091509150505481565b60066020528060005260406000206000915090505481565b601f6020528060005260406000206000915090505481565b60006111318261286c565b600115156009600084815260200190815260200160002060003373ffffffffffffffffffffffffffffffffffffffff1673ffffffffffffffffffffffffffffffffffffffff16815260200190815260200160002060009054906101000a900460ff16151514156112a5576112276112026064600a600086815260200190815260200160002060003373ffffffffffffffffffffffffffffffffffffffff1673ffffffffffffffffffffffffffffffffffffffff16815260200190815260200160002054612ade90919063ffffffff16565b6064036006600085815260200190815260200160002054612b0890919063ffffffff16565b905080341415156112a0576040517f08c379a00000000000000000000000000000000000000000000000000000000081526004018080602001828103825260138152602001807f57726f6e672063616c6c2070726963652e2e2e0000000000000000000000000081525060200191505060405180910390fd5b611330565b60066000838152602001908152602001600020543414151561132f576040517f08c379a00000000000000000000000000000000000000000000000000000000081526004018080602001828103825260138152602001807f57726f6e672063616c6c2070726963652e2e2e0000000000000000000000000081525060200191505060405180910390fd5b5b600083141515156113cf576040517f08c379a00000000000000000000000000000000000000000000000000000000081526004018080602001828103825260278152602001807f54686520706978656c2077697468206964203d203020646f6573206e6f74206581526020017f786973742e2e2e0000000000000000000000000000000000000000000000000081525060400191505060405180910390fd5b6000821415151561146e576040517f08c379a00000000000000000000000000000000000000000000000000000000081526004018080602001828103825260288152602001807f596f752063616e6e6f74207061696e7420746f207472616e73706172656e742081526020017f636f6c6f722e2e2e00000000000000000000000000000000000000000000000081525060400191505060405180910390fd5b81600c6000602154815260200190815260200160002060008581526020019081526020016000205414151515611532576040517f08c379a00000000000000000000000000000000000000000000000000000000081526004018080602001828103825260268152602001807f5468697320706978656c20697320616c7265616479206f66207468697320636f81526020017f6c6f722e2e2e000000000000000000000000000000000000000000000000000081525060400191505060405180910390fd5b6104b0601160006021548152602001908152602001600020544203118015611570575060006011600060215481526020019081526020016000205414155b156115825761157d612b46565b61163d565b61158a612ea7565b611592612fb8565b61159c83836131e9565b612710600e6000602154815260200190815260200160002060008481526020019081526020016000205414156115ef5781601360006021548152602001908152602001600020819055506115ee6137e4565b5b6115f7612058565b3373ffffffffffffffffffffffffffffffffffffffff1682847fee7a08acf49ed7fca3f2e35c2ce0b1853e45cef70f5e0fbd1f9434246d38550260405160405180910390a45b505050565b600d602052816000526040600020602052806000526040600020600091509150505481565b60106020528060005260406000206000915090505481565b60166020528060005260406000206000915090505481565b60046020528160005260406000206020528060005260406000206000915091509054906101000a900460ff1681565b601a60205282600052604060002060205281600052604060002060205280600052604060002060009250925050505481565b600080602260003373ffffffffffffffffffffffffffffffffffffffff1673ffffffffffffffffffffffffffffffffffffffff16815260200190815260200160002054141515156117d7576040517f08c379a00000000000000000000000000000000000000000000000000000000081526004018080602001828103825260228152602001807f596f7572207769746864726177616c2062616c616e6365206973207a65726f2e81526020017f2e2e00000000000000000000000000000000000000000000000000000000000081525060400191505060405180910390fd5b602260003373ffffffffffffffffffffffffffffffffffffffff1673ffffffffffffffffffffffffffffffffffffffff1681526020019081526020016000205490506000602260003373ffffffffffffffffffffffffffffffffffffffff1673ffffffffffffffffffffffffffffffffffffffff168152602001908152602001600020819055503373ffffffffffffffffffffffffffffffffffffffff166108fc829081150290604051600060405180830381858888f193505050501580156118a4573d6000803e3d6000fd5b5042602360003373ffffffffffffffffffffffffffffffffffffffff1673ffffffffffffffffffffffffffffffffffffffff1681526020019081526020016000208190555080423373ffffffffffffffffffffffffffffffffffffffff167f1a983dd8fc1bd566844e816cd39bafaebd6523281477df579d3252da34a251d960405160405180910390a450565b60116020528060005260406000206000915090505481565b60126020528060005260406000206000915054906101000a900473ffffffffffffffffffffffffffffffffffffffff1681565b6000600c600060215481526020019081526020016000206000838152602001908152602001600020549050919050565b60215481565b601c602052816000526040600020602052806000526040600020600091509150505481565b6018602052816000526040600020602052806000526040600020600091509150505481565b60196020528360005260406000206020528260005260406000206020528160005260406000206020528060005260406000206000935093505050505481565b6000806000806000806000602060003373ffffffffffffffffffffffffffffffffffffffff1673ffffffffffffffffffffffffffffffffffffffff1681526020019081526020016000205496506000602060003373ffffffffffffffffffffffffffffffffffffffff1673ffffffffffffffffffffffffffffffffffffffff16815260200190815260200160002054118015611aea57506001601f600089815260200190815260200160002054145b1515611b84576040517f08c379a00000000000000000000000000000000000000000000000000000000081526004018080602001828103825260318152602001807f42616e6b206f662074696d6520776173206e6f7420706c6179656420696e207981526020017f6f7572206c61737420726f756e642e2e2e00000000000000000000000000000081525060400191505060405180910390fd5b60166000888152602001908152602001600020549550601560008881526020019081526020016000205494506018600088815260200190815260200160002060003373ffffffffffffffffffffffffffffffffffffffff1673ffffffffffffffffffffffffffffffffffffffff1681526020019081526020016000205492508291505b6000821115611c9f57601a600088815260200190815260200160002060003373ffffffffffffffffffffffffffffffffffffffff1673ffffffffffffffffffffffffffffffffffffffff16815260200190815260200160002060008381526020019081526020016000205490508481118015611c835750858111155b15611c915783806001019450505b818060019003925050611c07565b611cea600b600089815260200190815260200160002054611cdc601060008b81526020019081526020016000205487612b0890919063ffffffff16565b612ade90919063ffffffff16565b601d600089815260200190815260200160002060003373ffffffffffffffffffffffffffffffffffffffff1673ffffffffffffffffffffffffffffffffffffffff16815260200190815260200160002060008282540192505081905550601d600088815260200190815260200160002060003373ffffffffffffffffffffffffffffffffffffffff1673ffffffffffffffffffffffffffffffffffffffff16815260200190815260200160002054602860003373ffffffffffffffffffffffffffffffffffffffff1673ffffffffffffffffffffffffffffffffffffffff168152602001908152602001600020600082825401925050819055503373ffffffffffffffffffffffffffffffffffffffff166108fc601d60008a815260200190815260200160002060003373ffffffffffffffffffffffffffffffffffffffff1673ffffffffffffffffffffffffffffffffffffffff168152602001908152602001600020549081150290604051600060405180830381858888f19350505050158015611e7a573d6000803e3d6000fd5b506001601b60003373ffffffffffffffffffffffffffffffffffffffff1673ffffffffffffffffffffffffffffffffffffffff168152602001908152602001600020600089815260200190815260200160002060006101000a81548160ff021916908315150217905550601c600088815260200190815260200160002060003373ffffffffffffffffffffffffffffffffffffffff1673ffffffffffffffffffffffffffffffffffffffff16815260200190815260200160002054873373ffffffffffffffffffffffffffffffffffffffff167f8981f49dce2918fc89fa176fbbd90d8546f51779930f7b458ca6a0d4856f878c60405160405180910390a450505050505050565b600c602052816000526040600020602052806000526040600020600091509150505481565b60296020528060005260406000206000915090505481565b600b6020528060005260406000206000915090505481565b600f6020528060005260406000206000915090505481565b6003602052816000526040600020602052806000526040600020600091509150505481565b80602b60006101000a81548173ffffffffffffffffffffffffffffffffffffffff021916908373ffffffffffffffffffffffffffffffffffffffff16021790555050565b6001602a60003373ffffffffffffffffffffffffffffffffffffffff1673ffffffffffffffffffffffffffffffffffffffff16815260200190815260200160002054118015612147575060001515601b60003373ffffffffffffffffffffffffffffffffffffffff1673ffffffffffffffffffffffffffffffffffffffff1681526020019081526020016000206000602a60003373ffffffffffffffffffffffffffffffffffffffff1673ffffffffffffffffffffffffffffffffffffffff16815260200190815260200160002054815260200190815260200160002060009054906101000a900460ff161515145b15612215576001601f6000602a60003373ffffffffffffffffffffffffffffffffffffffff1673ffffffffffffffffffffffffffffffffffffffff1681526020019081526020016000205481526020019081526020016000205414156121b0576121af611a3b565b5b6002601f6000602a60003373ffffffffffffffffffffffffffffffffffffffff1673ffffffffffffffffffffffffffffffffffffffff16815260200190815260200160002054815260200190815260200160002054141561221457612213612290565b5b5b565b6001602052816000526040600020602052806000526040600020600091509150505481565b601b6020528160005260406000206020528060005260406000206000915091509054906101000a900460ff1681565b600a602052816000526040600020602052806000526040600020600091509150505481565b600080600080600080600080602060003373ffffffffffffffffffffffffffffffffffffffff1673ffffffffffffffffffffffffffffffffffffffff1681526020019081526020016000205497506000602060003373ffffffffffffffffffffffffffffffffffffffff1673ffffffffffffffffffffffffffffffffffffffff1681526020019081526020016000205411801561234057506002601f60008a815260200190815260200160002054145b15156123da576040517f08c379a00000000000000000000000000000000000000000000000000000000081526004018080602001828103825260328152602001807f42616e6b206f6620636f6c6f7220776173206e6f7420706c6179656420696e2081526020017f796f7572206c61737420726f756e642e2e2e000000000000000000000000000081525060400191505060405180910390fd5b60136000898152602001908152602001600020549650601660008981526020019081526020016000205495506015600089815260200190815260200160002054945060176000898152602001908152602001600020600088815260200190815260200160002060003373ffffffffffffffffffffffffffffffffffffffff1673ffffffffffffffffffffffffffffffffffffffff1681526020019081526020016000205492508291505b600082111561253b576019600089815260200190815260200160002060003373ffffffffffffffffffffffffffffffffffffffff1673ffffffffffffffffffffffffffffffffffffffff1681526020019081526020016000206000888152602001908152602001600020600083815260200190815260200160002054905084811180156125115750858111155b1561252d5761252a600185613acf90919063ffffffff16565b93505b818060019003925050612484565b612597601460008a8152602001908152602001600020600089815260200190815260200160002054612589600f60008c81526020019081526020016000205487612b0890919063ffffffff16565b612ade90919063ffffffff16565b601c60008a815260200190815260200160002060003373ffffffffffffffffffffffffffffffffffffffff1673ffffffffffffffffffffffffffffffffffffffff16815260200190815260200160002060008282540192505081905550601c600089815260200190815260200160002060003373ffffffffffffffffffffffffffffffffffffffff1673ffffffffffffffffffffffffffffffffffffffff16815260200190815260200160002054602960003373ffffffffffffffffffffffffffffffffffffffff1673ffffffffffffffffffffffffffffffffffffffff168152602001908152602001600020600082825401925050819055503373ffffffffffffffffffffffffffffffffffffffff166108fc601c60008b815260200190815260200160002060003373ffffffffffffffffffffffffffffffffffffffff1673ffffffffffffffffffffffffffffffffffffffff168152602001908152602001600020549081150290604051600060405180830381858888f19350505050158015612727573d6000803e3d6000fd5b506001601b60003373ffffffffffffffffffffffffffffffffffffffff1673ffffffffffffffffffffffffffffffffffffffff16815260200190815260200160002060008a815260200190815260200160002060006101000a81548160ff021916908315150217905550601c600089815260200190815260200160002060003373ffffffffffffffffffffffffffffffffffffffff1673ffffffffffffffffffffffffffffffffffffffff16815260200190815260200160002054883373ffffffffffffffffffffffffffffffffffffffff167fff0e3cc6a8358bbcae69e6c859a508401151d25fe2552fc59ca6f31b37461b5060405160405180910390a45050505050505050565b60075481565b60136020528060005260406000206000915090505481565b60245481565b60226020528060005260406000206000915090505481565b600080600f60036000858152602001908152602001600020600060016005600088815260200190815260200160002054038152602001908152602001600020544203101515612ad9576001600084815260200190815260200160002060006005600086815260200190815260200160002054815260200190815260200160002054915061291660016005600086815260200190815260200160002054613acf90919063ffffffff16565b90506000151560046000858152602001908152602001600020600083815260200190815260200160002060009054906101000a900460ff16151514156129fa5761296b82600754613af090919063ffffffff16565b600160008581526020019081526020016000206000838152602001908152602001600020819055504260026000858152602001908152602001600020600083815260200190815260200160002081905550600160046000858152602001908152602001600020600083815260200190815260200160002060006101000a81548160ff0219169083151502179055505b600060016000858152602001908152602001600020600060056000878152602001908152602001600020548152602001908152602001600020541415612ad857612a4383613b11565b60066000848152602001908152602001600020547f3bb22f778670a5901bff4d41c425858dac1ea6aeb048d40f959a6bc43f98506160405160405180910390a24260036000858152602001908152602001600020600060056000878152602001908152602001600020548152602001908152602001600020819055508060056000858152602001908152602001600020819055505b5b505050565b600080600083111515612af057600080fd5b8284811515612afb57fe5b0490508091505092915050565b6000806000841415612b1d5760009150612b3f565b8284029050828482811515612b2e57fe5b04141515612b3b57600080fd5b8091505b5092915050565b600062015180420360156000602154815260200190815260200160002081905550426016600060215481526020019081526020016000208190555060126000602154815260200190815260200160002060009054906101000a900473ffffffffffffffffffffffffffffffffffffffff16601e6000602154815260200190815260200160002060006101000a81548173ffffffffffffffffffffffffffffffffffffffff021916908373ffffffffffffffffffffffffffffffffffffffff160217905550612c466064612c38602d60106000602154815260200190815260200160002054612b0890919063ffffffff16565b612ade90919063ffffffff16565b9050601e6000602154815260200190815260200160002060009054906101000a900473ffffffffffffffffffffffffffffffffffffffff1673ffffffffffffffffffffffffffffffffffffffff166108fc829081150290604051600060405180830381858888f19350505050158015612cc3573d6000803e3d6000fd5b506001601f6000602154815260200190815260200160002081905550612d08600a60106000602154815260200190815260200160002054612ade90919063ffffffff16565b60106000600160215401815260200190815260200160002081905550612d606064612d52602d60106000602154815260200190815260200160002054612b0890919063ffffffff16565b612ade90919063ffffffff16565b60106000602154815260200190815260200160002081905550600f6000602154815260200190815260200160002054600f60006001602154018152602001908152602001600020819055506000600f60006021548152602001908152602001600020819055503373ffffffffffffffffffffffffffffffffffffffff166108fc349081150290604051600060405180830381858888f19350505050158015612e0c573d6000803e3d6000fd5b50602154601e6000602154815260200190815260200160002060009054906101000a900473ffffffffffffffffffffffffffffffffffffffff1673ffffffffffffffffffffffffffffffffffffffff167f20f206bcab56eeef408295aaff8745adb98fed16823d758193e9449983d23fd260405160405180910390a3612e9e6001602154613acf90919063ffffffff16565b60218190555050565b612ef5612ed16064612ec3602834612b0890919063ffffffff16565b612ade90919063ffffffff16565b600f6000602154815260200190815260200160002054613acf90919063ffffffff16565b600f6000602154815260200190815260200160002081905550612f5c612f386064612f2a602834612b0890919063ffffffff16565b612ade90919063ffffffff16565b60106000602154815260200190815260200160002054613acf90919063ffffffff16565b60106000602154815260200190815260200160002081905550612fb0612f9f6064612f91601434612b0890919063ffffffff16565b612ade90919063ffffffff16565b602454613acf90919063ffffffff16565b602481905550565b613054612fe46064612fd66019602454612b0890919063ffffffff16565b612ade90919063ffffffff16565b60226000602760009054906101000a900473ffffffffffffffffffffffffffffffffffffffff1673ffffffffffffffffffffffffffffffffffffffff1673ffffffffffffffffffffffffffffffffffffffff16815260200190815260200160002054613acf90919063ffffffff16565b60226000602760009054906101000a900473ffffffffffffffffffffffffffffffffffffffff1673ffffffffffffffffffffffffffffffffffffffff1673ffffffffffffffffffffffffffffffffffffffff168152602001908152602001600020819055506130e260646130d46019602454612b0890919063ffffffff16565b612ade90919063ffffffff16565b60226000602560009054906101000a900473ffffffffffffffffffffffffffffffffffffffff1673ffffffffffffffffffffffffffffffffffffffff1673ffffffffffffffffffffffffffffffffffffffff16815260200190815260200160002060008282540192505081905550613179606461316b6019602454612b0890919063ffffffff16565b612ade90919063ffffffff16565b60226000602660009054906101000a900473ffffffffffffffffffffffffffffffffffffffff1673ffffffffffffffffffffffffffffffffffffffff1673ffffffffffffffffffffffffffffffffffffffff16815260200190815260200160002060008282540192505081905550565b6000806000600c60006021548152602001908152602001600020600086815260200190815260200160002054925083600c6000602154815260200190815260200160002060008781526020019081526020016000208190555082600d6000602154815260200190815260200160002060008781526020019081526020016000208190555042601160006021548152602001908152602001600020819055503360126000602154815260200190815260200160002060006101000a81548173ffffffffffffffffffffffffffffffffffffffff021916908373ffffffffffffffffffffffffffffffffffffffff1602179055506000600e60006021548152602001908152602001600020600085815260200190815260200160002054111561336f576133446001600e60006021548152602001908152602001600020600086815260200190815260200160002054613af090919063ffffffff16565b600e600060215481526020019081526020016000206000858152602001908152602001600020819055505b6133a96001600e60006021548152602001908152602001600020600087815260200190815260200160002054613acf90919063ffffffff16565b600e60006021548152602001908152602001600020600086815260200190815260200160002081905550601760006021548152602001908152602001600020600085815260200190815260200160002060003373ffffffffffffffffffffffffffffffffffffffff1673ffffffffffffffffffffffffffffffffffffffff16815260200190815260200160002054915061344d600183613acf90919063ffffffff16565b915081601760006021548152602001908152602001600020600086815260200190815260200160002060003373ffffffffffffffffffffffffffffffffffffffff1673ffffffffffffffffffffffffffffffffffffffff1681526020019081526020016000208190555060186000602154815260200190815260200160002060003373ffffffffffffffffffffffffffffffffffffffff1673ffffffffffffffffffffffffffffffffffffffff168152602001908152602001600020549050613520600182613acf90919063ffffffff16565b90508060186000602154815260200190815260200160002060003373ffffffffffffffffffffffffffffffffffffffff1673ffffffffffffffffffffffffffffffffffffffff168152602001908152602001600020819055504260196000602154815260200190815260200160002060003373ffffffffffffffffffffffffffffffffffffffff1673ffffffffffffffffffffffffffffffffffffffff168152602001908152602001600020600086815260200190815260200160002060008481526020019081526020016000208190555042601a6000602154815260200190815260200160002060003373ffffffffffffffffffffffffffffffffffffffff1673ffffffffffffffffffffffffffffffffffffffff1681526020019081526020016000206000838152602001908152602001600020819055506136946001601460006021548152602001908152602001600020600087815260200190815260200160002054613acf90919063ffffffff16565b6014600060215481526020019081526020016000206000868152602001908152602001600020819055506136e76001600b6000602154815260200190815260200160002054613acf90919063ffffffff16565b600b6000602154815260200190815260200160002081905550602154602a60003373ffffffffffffffffffffffffffffffffffffffff1673ffffffffffffffffffffffffffffffffffffffff16815260200190815260200160002081905550613790600180600087815260200190815260200160002060006005600089815260200190815260200160002054815260200190815260200160002054613af090919063ffffffff16565b60016000868152602001908152602001600020600060056000888152602001908152602001600020548152602001908152602001600020819055506137d484613b65565b6137dd84613c91565b5050505050565b600062015180420360156000602154815260200190815260200160002081905550426016600060215481526020019081526020016000208190555060126000602154815260200190815260200160002060009054906101000a900473ffffffffffffffffffffffffffffffffffffffff16601e6000602154815260200190815260200160002060006101000a81548173ffffffffffffffffffffffffffffffffffffffff021916908373ffffffffffffffffffffffffffffffffffffffff1602179055506138e460646138d66032600f6000602154815260200190815260200160002054612b0890919063ffffffff16565b612ade90919063ffffffff16565b9050601e6000602154815260200190815260200160002060009054906101000a900473ffffffffffffffffffffffffffffffffffffffff1673ffffffffffffffffffffffffffffffffffffffff166108fc829081150290604051600060405180830381858888f19350505050158015613961573d6000803e3d6000fd5b506002601f60006021548152602001908152602001600020819055506139b960646139ab6032600f6000602154815260200190815260200160002054612b0890919063ffffffff16565b612ade90919063ffffffff16565b600f6000602154815260200190815260200160002081905550601060006021548152602001908152602001600020546010600060016021540181526020019081526020016000208190555060006010600060215481526020019081526020016000208190555060215460136000602154815260200190815260200160002054601e6000602154815260200190815260200160002060009054906101000a900473ffffffffffffffffffffffffffffffffffffffff1673ffffffffffffffffffffffffffffffffffffffff167f6ec93b9ea332e4928177b5b176be94d4c0e6dae6a28a0b810c5765928344f0f360405160405180910390a4613ac66001602154613acf90919063ffffffff16565b60218190555050565b6000808284019050838110151515613ae657600080fd5b8091505092915050565b600080838311151515613b0257600080fd5b82840390508091505092915050565b613b4b6064613b3d60696006600086815260200190815260200160002054612b0890919063ffffffff16565b612ade90919063ffffffff16565b600660008381526020019081526020016000208190555050565b346008600083815260200190815260200160002060003373ffffffffffffffffffffffffffffffffffffffff1673ffffffffffffffffffffffffffffffffffffffff16815260200190815260200160002060008282540192505081905550670de0b6b3a76400006008600083815260200190815260200160002060003373ffffffffffffffffffffffffffffffffffffffff1673ffffffffffffffffffffffffffffffffffffffff16815260200190815260200160002054101515613c8e5760016009600083815260200190815260200160002060003373ffffffffffffffffffffffffffffffffffffffff1673ffffffffffffffffffffffffffffffffffffffff16815260200190815260200160002060006101000a81548160ff0219169083151502179055505b50565b670de0b6b3a76400006008600083815260200190815260200160002060003373ffffffffffffffffffffffffffffffffffffffff1673ffffffffffffffffffffffffffffffffffffffff16815260200190815260200160002054811515613cf457fe5b04600a600083815260200190815260200160002060003373ffffffffffffffffffffffffffffffffffffffff1673ffffffffffffffffffffffffffffffffffffffff16815260200190815260200160002081905550678ac7230489e800006008600083815260200190815260200160002060003373ffffffffffffffffffffffffffffffffffffffff1673ffffffffffffffffffffffffffffffffffffffff168152602001908152602001600020541115613dff57600a80600083815260200190815260200160002060003373ffffffffffffffffffffffffffffffffffffffff1673ffffffffffffffffffffffffffffffffffffffff168152602001908152602001600020819055505b505600a165627a7a72305820937276f0bfe70c079308d11e91a9a9bee4af229423b29d822df4ca7cabe1eb080029",
  "source": "pragma solidity ^0.4.24;\n\nimport \"../node_modules/openzeppelin-solidity/contracts/ownership/Ownable.sol\";\nimport \"./DividendsDistributor.sol\";\nimport \"./TimeBankDistributor.sol\";\nimport \"./ColorBankDistributor.sol\";\nimport \"./RoundDataHolder.sol\";\nimport \"./PaintsPool.sol\";\nimport \"./PaintDiscount.sol\";\n\ninterface Color {\n    function totalSupply() external view returns (uint);\n}\n\ncontract Game is PaintsPool, PaintDiscount, RoundDataHolder, DividendsDistributor, TimeBankDistributor, ColorBankDistributor {\n\n    using SafeMath for uint;\n    \n    //       ( => )\n    mapping (address => uint) public lastPlayedRound; \n\n    Color color;\n    \n    //\n    event Paint(uint indexed pixelId, uint indexed colorId, address indexed painter);\n   \n    //,    \n    constructor() public payable { \n        \n        color = Color(0x7899946bc29f3ab7443903bcc03e8a38407bb44a); //instance of deployed Color contract\n        \n        maxPaintsInPool = 100; //10000 in production\n        currentRound = 1;\n        \n        for (uint i = 1; i < color.totalSupply(); i++) {\n            currentPaintGenForColor[i] = 1;\n            callPriceForColor[i] = 100 wei;//0.01 ETH in production\n            paintGenToAmountForColor[i][currentPaintGenForColor[i]] = maxPaintsInPool;\n            paintGenStartedForColor[i][currentPaintGenForColor[i]] = true;\n            \n            //       \n            if (totalPaintsForRound[currentRound] == 0) {\n                paintGenToEndTimeForColor[i][currentPaintGenForColor[i] - 1] = now;\n            }\n            \n            paintGenToStartTimeForColor[i][currentPaintGenForColor[i]] = now;\n            paintGenToAmountForColor[i][currentPaintGenForColor[i]] = maxPaintsInPool;\n        }\n        \n    }\n    \n    //     \n    function getPixelColor(uint _pixel) external view returns (uint) {\n        return pixelToColorForRound[currentRound][_pixel];\n    }\n    \n    //   \n    function paint(uint _pixel, uint _color) external payable {\n        \n        //          paint\n        _fillPaintsPool(_color);\n        \n        //          \n        if (hasPaintDiscountForColor[_color][msg.sender] == true ) {\n            \n            // ,      paint   \n            uint discountCallPrice = callPriceForColor[_color].mul(100 - usersPaintDiscountForColor[_color][msg.sender].div(100));\n            require(msg.value == discountCallPrice , \"Wrong call price...\");\n        }\n            \n        else\n            require(msg.value == callPriceForColor[_color], \"Wrong call price...\");\n            \n        require(_pixel != 0, \"The pixel with id = 0 does not exist...\");\n        require(_color != 0, \"You cannot paint to transparent color...\");\n        require(pixelToColorForRound[currentRound][_pixel] != _color, \"This pixel is already of this color...\");\n        \n        //    20        \n        if (now - lastPaintTimeForRound[currentRound] > 20 minutes && lastPaintTimeForRound[currentRound] != 0) {\n\n            //    \n            _distributeTimeBank();\n        }\n        \n        else {\n\n            //   \n            _setBanks();\n            \n            //  ( ) \n            _distributeDividends();\n            \n            //   \n            _paint(_pixel, _color);\n            \n            //            \n            if (colorToPaintedPixelsAmountForRound[currentRound][_color] == 10000) {\n\n                //    \n                winnerColorForRound[currentRound] = _color;\n\n                //    \n                _distributeColorBank();                \n            }\n\n            //  ,     ,   \n            _claimBankPrizeForLastPlayedRound();\n\n            // -   (, ,  )\n            emit Paint(_pixel, _color, msg.sender);          \n        }\n    }\n    \n    //  ,   \n    function setHardcodedValues() external payable {\n        colorToPaintedPixelsAmountForRound[currentRound][2] = 9992;\n        colorBankForRound[currentRound] = 0.2 ether;\n        timeBankForRound[currentRound] = 0.2 ether;\n    }   \n\n    //    \n    function _paint(uint _pixel, uint _color) private {\n\n        //    \n        uint oldColor = pixelToColorForRound[currentRound][_pixel];\n\n        //   \n        pixelToColorForRound[currentRound][_pixel] = _color; \n\n        //c    \n        pixelToOldColorForRound[currentRound][_pixel] = oldColor; \n            \n        //         \n        lastPaintTimeForRound[currentRound] = now; \n\n        //          \n        lastPainterForRound[currentRound] = msg.sender;\n            \n        //    ,   \n        if (colorToPaintedPixelsAmountForRound[currentRound][oldColor] > 0) \n            colorToPaintedPixelsAmountForRound[currentRound][oldColor] = colorToPaintedPixelsAmountForRound[currentRound][oldColor].sub(1); \n\n        //   ,   \n        colorToPaintedPixelsAmountForRound[currentRound][_color] = colorToPaintedPixelsAmountForRound[currentRound][_color].add(1); \n    \n        //           \n        uint totalCounterToColorForUserForRound = colorToAddressToTotalCounterForRound[currentRound][_color][msg.sender]; \n\n        //        \n        totalCounterToColorForUserForRound = totalCounterToColorForUserForRound.add(1); \n\n        //   -            \n        colorToAddressToTotalCounterForRound[currentRound][_color][msg.sender] = totalCounterToColorForUserForRound; \n            \n        //           \n        uint totalCounterForUserForRound = addressToTotalCounterForRound[currentRound][msg.sender]; \n\n        //           \n        totalCounterForUserForRound = totalCounterForUserForRound.add(1); \n\n        //              \n        addressToTotalCounterForRound[currentRound][msg.sender] = totalCounterForUserForRound;\n            \n        //       n-      \n        addressToColorToCounterToTimestampForRound[currentRound][msg.sender][_color][totalCounterToColorForUserForRound] = now;\n\n        //       n-      \n        addressToCounterToTimestampForRound[currentRound][msg.sender][totalCounterForUserForRound] = now;\n            \n        //         \n        colorToTotalPaintsForRound[currentRound][_color] = colorToTotalPaintsForRound[currentRound][_color].add(1); \n\n        //         \n        totalPaintsForRound[currentRound] = totalPaintsForRound[currentRound].add(1); \n\n        //         \n        lastPlayedRound[msg.sender] = currentRound;\n            \n        //     1  \n        paintGenToAmountForColor[_color][currentPaintGenForColor[_color]] = paintGenToAmountForColor[_color][currentPaintGenForColor[_color]].sub(1);\n        \n        //         \n        _setMoneySpentByUserForColor(_color);\n        \n        //         \n        _setUsersPaintDiscountForColor(_color);\n    }\n\n    //  \n    function _setBanks() private {\n\n        //40%     \n        colorBankForRound[currentRound] = colorBankForRound[currentRound].add(msg.value.mul(40).div(100));\n\n        //40%     \n        timeBankForRound[currentRound] = timeBankForRound[currentRound].add(msg.value.mul(40).div(100));\n\n        //20%      \n        dividendsBank = dividendsBank.add(msg.value.mul(20).div(100)); \n    }\n\n    //         \n    function _claimBankPrizeForLastPlayedRound() public {\n\n        //          \n        if (lastPlayedRound[msg.sender] > 1 && isPrizeDistributedForRound[msg.sender][lastPlayedRound[msg.sender]] == false) {\n                \n            //    \n            if(winnerBankForRound[lastPlayedRound[msg.sender]] == 1) \n                //           \n                claimTimeBankPrizeForLastPlayedRound();\n\n            //    \n            if(winnerBankForRound[lastPlayedRound[msg.sender]] == 2) \n                //           \n                claimColorBankPrizeForLastPlayedRound();\n        }      \n\n    }\n    \n    function setColorInstanceAddress(address _deployed) external {\n        color = Color(_deployed);\n    }\n\n}",
  "sourcePath": "/Users/Amir/last-pixel-contracts/contracts/Game.sol",
  "compiler": {
    "name": "solc",
    "version": "0.4.24+commit.e67f0147.Emscripten.clang"
  },
  "schemaVersion": "2.0.1",
  "updatedAt": "2018-11-28T12:38:43.348Z"
}