{
  "contractName": "Game",
  "abi": [
    {
      "constant": true,
      "inputs": [],
      "name": "isGamePaused",
      "outputs": [
        {
          "name": "",
          "type": "bool"
        }
      ],
      "payable": false,
      "stateMutability": "view",
      "type": "function"
    },
    {
      "constant": true,
      "inputs": [
        {
          "name": "",
          "type": "uint256"
        },
        {
          "name": "",
          "type": "address"
        }
      ],
      "name": "isInTBT",
      "outputs": [
        {
          "name": "",
          "type": "bool"
        }
      ],
      "payable": false,
      "stateMutability": "view",
      "type": "function"
    },
    {
      "constant": true,
      "inputs": [
        {
          "name": "",
          "type": "bytes32"
        }
      ],
      "name": "refLinkToUser",
      "outputs": [
        {
          "name": "",
          "type": "address"
        }
      ],
      "payable": false,
      "stateMutability": "view",
      "type": "function"
    },
    {
      "constant": true,
      "inputs": [
        {
          "name": "",
          "type": "uint256"
        }
      ],
      "name": "ownerOfColor",
      "outputs": [
        {
          "name": "",
          "type": "address"
        }
      ],
      "payable": false,
      "stateMutability": "view",
      "type": "function"
    },
    {
      "constant": true,
      "inputs": [
        {
          "name": "",
          "type": "uint256"
        },
        {
          "name": "",
          "type": "uint256"
        }
      ],
      "name": "colorToPaintedPixelsAmountForRound",
      "outputs": [
        {
          "name": "",
          "type": "uint256"
        }
      ],
      "payable": false,
      "stateMutability": "view",
      "type": "function"
    },
    {
      "constant": true,
      "inputs": [],
      "name": "tbIteration",
      "outputs": [
        {
          "name": "",
          "type": "uint256"
        }
      ],
      "payable": false,
      "stateMutability": "view",
      "type": "function"
    },
    {
      "constant": true,
      "inputs": [
        {
          "name": "",
          "type": "uint256"
        }
      ],
      "name": "winnerOfRound",
      "outputs": [
        {
          "name": "",
          "type": "address"
        }
      ],
      "payable": false,
      "stateMutability": "view",
      "type": "function"
    },
    {
      "constant": true,
      "inputs": [
        {
          "name": "",
          "type": "uint256"
        }
      ],
      "name": "timeBankDrawnForRound",
      "outputs": [
        {
          "name": "",
          "type": "bool"
        }
      ],
      "payable": false,
      "stateMutability": "view",
      "type": "function"
    },
    {
      "constant": true,
      "inputs": [
        {
          "name": "",
          "type": "address"
        }
      ],
      "name": "hasReferrer",
      "outputs": [
        {
          "name": "",
          "type": "bool"
        }
      ],
      "payable": false,
      "stateMutability": "view",
      "type": "function"
    },
    {
      "constant": true,
      "inputs": [
        {
          "name": "",
          "type": "uint256"
        },
        {
          "name": "",
          "type": "uint256"
        }
      ],
      "name": "colorToTotalPaintsForCBIteration",
      "outputs": [
        {
          "name": "",
          "type": "uint256"
        }
      ],
      "payable": false,
      "stateMutability": "view",
      "type": "function"
    },
    {
      "constant": true,
      "inputs": [],
      "name": "totalColorsNumber",
      "outputs": [
        {
          "name": "",
          "type": "uint256"
        }
      ],
      "payable": false,
      "stateMutability": "view",
      "type": "function"
    },
    {
      "constant": true,
      "inputs": [
        {
          "name": "",
          "type": "address"
        }
      ],
      "name": "isRegisteredUser",
      "outputs": [
        {
          "name": "",
          "type": "bool"
        }
      ],
      "payable": false,
      "stateMutability": "view",
      "type": "function"
    },
    {
      "constant": true,
      "inputs": [
        {
          "name": "",
          "type": "uint256"
        },
        {
          "name": "",
          "type": "address"
        }
      ],
      "name": "hasPaintDiscountForColor",
      "outputs": [
        {
          "name": "",
          "type": "bool"
        }
      ],
      "payable": false,
      "stateMutability": "view",
      "type": "function"
    },
    {
      "constant": true,
      "inputs": [],
      "name": "isTBPDistributable",
      "outputs": [
        {
          "name": "",
          "type": "bool"
        }
      ],
      "payable": false,
      "stateMutability": "view",
      "type": "function"
    },
    {
      "constant": true,
      "inputs": [
        {
          "name": "",
          "type": "address"
        }
      ],
      "name": "isAdmin",
      "outputs": [
        {
          "name": "",
          "type": "bool"
        }
      ],
      "payable": false,
      "stateMutability": "view",
      "type": "function"
    },
    {
      "constant": true,
      "inputs": [
        {
          "name": "",
          "type": "uint256"
        }
      ],
      "name": "currentPaintGenForColor",
      "outputs": [
        {
          "name": "",
          "type": "uint256"
        }
      ],
      "payable": false,
      "stateMutability": "view",
      "type": "function"
    },
    {
      "constant": true,
      "inputs": [
        {
          "name": "",
          "type": "address"
        }
      ],
      "name": "lastPlayedRound",
      "outputs": [
        {
          "name": "",
          "type": "uint256"
        }
      ],
      "payable": false,
      "stateMutability": "view",
      "type": "function"
    },
    {
      "constant": true,
      "inputs": [
        {
          "name": "",
          "type": "uint256"
        },
        {
          "name": "",
          "type": "address"
        }
      ],
      "name": "moneySpentByUserForColor",
      "outputs": [
        {
          "name": "",
          "type": "uint256"
        }
      ],
      "payable": false,
      "stateMutability": "view",
      "type": "function"
    },
    {
      "constant": true,
      "inputs": [
        {
          "name": "",
          "type": "uint256"
        },
        {
          "name": "",
          "type": "uint256"
        }
      ],
      "name": "tbTeam",
      "outputs": [
        {
          "name": "",
          "type": "address"
        }
      ],
      "payable": false,
      "stateMutability": "view",
      "type": "function"
    },
    {
      "constant": true,
      "inputs": [
        {
          "name": "",
          "type": "uint256"
        },
        {
          "name": "",
          "type": "address"
        }
      ],
      "name": "painterToTBP",
      "outputs": [
        {
          "name": "",
          "type": "uint256"
        }
      ],
      "payable": false,
      "stateMutability": "view",
      "type": "function"
    },
    {
      "constant": true,
      "inputs": [
        {
          "name": "",
          "type": "uint256"
        },
        {
          "name": "",
          "type": "uint256"
        }
      ],
      "name": "paintGenToStartTimeForColor",
      "outputs": [
        {
          "name": "",
          "type": "uint256"
        }
      ],
      "payable": false,
      "stateMutability": "view",
      "type": "function"
    },
    {
      "constant": true,
      "inputs": [
        {
          "name": "",
          "type": "uint256"
        }
      ],
      "name": "callPriceForColor",
      "outputs": [
        {
          "name": "",
          "type": "uint256"
        }
      ],
      "payable": false,
      "stateMutability": "view",
      "type": "function"
    },
    {
      "constant": true,
      "inputs": [
        {
          "name": "",
          "type": "uint256"
        },
        {
          "name": "",
          "type": "address"
        }
      ],
      "name": "painterToCBP",
      "outputs": [
        {
          "name": "",
          "type": "uint256"
        }
      ],
      "payable": false,
      "stateMutability": "view",
      "type": "function"
    },
    {
      "constant": true,
      "inputs": [
        {
          "name": "",
          "type": "uint256"
        }
      ],
      "name": "winnerBankForRound",
      "outputs": [
        {
          "name": "",
          "type": "uint256"
        }
      ],
      "payable": false,
      "stateMutability": "view",
      "type": "function"
    },
    {
      "constant": true,
      "inputs": [],
      "name": "paintsCounter",
      "outputs": [
        {
          "name": "",
          "type": "uint256"
        }
      ],
      "payable": false,
      "stateMutability": "view",
      "type": "function"
    },
    {
      "constant": true,
      "inputs": [],
      "name": "founders",
      "outputs": [
        {
          "name": "",
          "type": "address"
        }
      ],
      "payable": false,
      "stateMutability": "view",
      "type": "function"
    },
    {
      "constant": true,
      "inputs": [
        {
          "name": "",
          "type": "address"
        }
      ],
      "name": "newUserToCounter",
      "outputs": [
        {
          "name": "",
          "type": "uint256"
        }
      ],
      "payable": false,
      "stateMutability": "view",
      "type": "function"
    },
    {
      "constant": true,
      "inputs": [
        {
          "name": "",
          "type": "uint256"
        },
        {
          "name": "",
          "type": "uint256"
        }
      ],
      "name": "counterToPainterForColor",
      "outputs": [
        {
          "name": "",
          "type": "address"
        }
      ],
      "payable": false,
      "stateMutability": "view",
      "type": "function"
    },
    {
      "constant": true,
      "inputs": [
        {
          "name": "",
          "type": "address"
        }
      ],
      "name": "moneySpentByUser",
      "outputs": [
        {
          "name": "",
          "type": "uint256"
        }
      ],
      "payable": false,
      "stateMutability": "view",
      "type": "function"
    },
    {
      "constant": true,
      "inputs": [
        {
          "name": "",
          "type": "uint256"
        },
        {
          "name": "",
          "type": "uint256"
        }
      ],
      "name": "pixelToOldColorForRound",
      "outputs": [
        {
          "name": "",
          "type": "uint256"
        }
      ],
      "payable": false,
      "stateMutability": "view",
      "type": "function"
    },
    {
      "constant": true,
      "inputs": [
        {
          "name": "",
          "type": "uint256"
        }
      ],
      "name": "isTBPTransfered",
      "outputs": [
        {
          "name": "",
          "type": "bool"
        }
      ],
      "payable": false,
      "stateMutability": "view",
      "type": "function"
    },
    {
      "constant": true,
      "inputs": [
        {
          "name": "",
          "type": "uint256"
        }
      ],
      "name": "timeBankForRound",
      "outputs": [
        {
          "name": "",
          "type": "uint256"
        }
      ],
      "payable": false,
      "stateMutability": "view",
      "type": "function"
    },
    {
      "constant": true,
      "inputs": [
        {
          "name": "",
          "type": "address"
        }
      ],
      "name": "userToRefLink",
      "outputs": [
        {
          "name": "",
          "type": "string"
        }
      ],
      "payable": false,
      "stateMutability": "view",
      "type": "function"
    },
    {
      "constant": true,
      "inputs": [],
      "name": "claimId",
      "outputs": [
        {
          "name": "",
          "type": "uint256"
        }
      ],
      "payable": false,
      "stateMutability": "view",
      "type": "function"
    },
    {
      "constant": true,
      "inputs": [
        {
          "name": "",
          "type": "uint256"
        },
        {
          "name": "",
          "type": "uint256"
        }
      ],
      "name": "cbTeam",
      "outputs": [
        {
          "name": "",
          "type": "address"
        }
      ],
      "payable": false,
      "stateMutability": "view",
      "type": "function"
    },
    {
      "constant": true,
      "inputs": [
        {
          "name": "",
          "type": "uint256"
        },
        {
          "name": "",
          "type": "uint256"
        }
      ],
      "name": "paintGenStartedForColor",
      "outputs": [
        {
          "name": "",
          "type": "bool"
        }
      ],
      "payable": false,
      "stateMutability": "view",
      "type": "function"
    },
    {
      "constant": true,
      "inputs": [
        {
          "name": "",
          "type": "uint256"
        }
      ],
      "name": "usersCounterForRound",
      "outputs": [
        {
          "name": "",
          "type": "uint256"
        }
      ],
      "payable": false,
      "stateMutability": "view",
      "type": "function"
    },
    {
      "constant": true,
      "inputs": [
        {
          "name": "",
          "type": "uint256"
        }
      ],
      "name": "lastPaintedPixelForRound",
      "outputs": [
        {
          "name": "",
          "type": "uint256"
        }
      ],
      "payable": false,
      "stateMutability": "view",
      "type": "function"
    },
    {
      "constant": true,
      "inputs": [
        {
          "name": "",
          "type": "uint256"
        }
      ],
      "name": "nextCallPriceForColor",
      "outputs": [
        {
          "name": "",
          "type": "uint256"
        }
      ],
      "payable": false,
      "stateMutability": "view",
      "type": "function"
    },
    {
      "constant": false,
      "inputs": [],
      "name": "renounceOwnership",
      "outputs": [],
      "payable": false,
      "stateMutability": "nonpayable",
      "type": "function"
    },
    {
      "constant": true,
      "inputs": [
        {
          "name": "",
          "type": "uint256"
        }
      ],
      "name": "lastPaintTimeForRound",
      "outputs": [
        {
          "name": "",
          "type": "uint256"
        }
      ],
      "payable": false,
      "stateMutability": "view",
      "type": "function"
    },
    {
      "constant": true,
      "inputs": [],
      "name": "isCBPDistributable",
      "outputs": [
        {
          "name": "",
          "type": "bool"
        }
      ],
      "payable": false,
      "stateMutability": "view",
      "type": "function"
    },
    {
      "constant": true,
      "inputs": [
        {
          "name": "",
          "type": "uint256"
        }
      ],
      "name": "lastPainterForRound",
      "outputs": [
        {
          "name": "",
          "type": "address"
        }
      ],
      "payable": false,
      "stateMutability": "view",
      "type": "function"
    },
    {
      "constant": true,
      "inputs": [
        {
          "name": "",
          "type": "address"
        }
      ],
      "name": "hasRefLink",
      "outputs": [
        {
          "name": "",
          "type": "bool"
        }
      ],
      "payable": false,
      "stateMutability": "view",
      "type": "function"
    },
    {
      "constant": true,
      "inputs": [
        {
          "name": "",
          "type": "address"
        }
      ],
      "name": "registrationTimeForUser",
      "outputs": [
        {
          "name": "",
          "type": "uint256"
        }
      ],
      "payable": false,
      "stateMutability": "view",
      "type": "function"
    },
    {
      "constant": true,
      "inputs": [
        {
          "name": "",
          "type": "address"
        }
      ],
      "name": "lastPaintTimeOfUser",
      "outputs": [
        {
          "name": "",
          "type": "uint256"
        }
      ],
      "payable": false,
      "stateMutability": "view",
      "type": "function"
    },
    {
      "constant": true,
      "inputs": [
        {
          "name": "",
          "type": "address"
        },
        {
          "name": "",
          "type": "uint256"
        }
      ],
      "name": "referrerToReferrals",
      "outputs": [
        {
          "name": "",
          "type": "address"
        }
      ],
      "payable": false,
      "stateMutability": "view",
      "type": "function"
    },
    {
      "constant": true,
      "inputs": [],
      "name": "currentRound",
      "outputs": [
        {
          "name": "",
          "type": "uint256"
        }
      ],
      "payable": false,
      "stateMutability": "view",
      "type": "function"
    },
    {
      "constant": true,
      "inputs": [],
      "name": "owner",
      "outputs": [
        {
          "name": "",
          "type": "address"
        }
      ],
      "payable": false,
      "stateMutability": "view",
      "type": "function"
    },
    {
      "constant": true,
      "inputs": [
        {
          "name": "",
          "type": "uint256"
        }
      ],
      "name": "paintsCounterForColor",
      "outputs": [
        {
          "name": "",
          "type": "uint256"
        }
      ],
      "payable": false,
      "stateMutability": "view",
      "type": "function"
    },
    {
      "constant": true,
      "inputs": [],
      "name": "isOwner",
      "outputs": [
        {
          "name": "",
          "type": "bool"
        }
      ],
      "payable": false,
      "stateMutability": "view",
      "type": "function"
    },
    {
      "constant": true,
      "inputs": [
        {
          "name": "",
          "type": "uint256"
        },
        {
          "name": "",
          "type": "uint256"
        }
      ],
      "name": "pixelToPaintTimeForRound",
      "outputs": [
        {
          "name": "",
          "type": "uint256"
        }
      ],
      "payable": false,
      "stateMutability": "view",
      "type": "function"
    },
    {
      "constant": true,
      "inputs": [
        {
          "name": "",
          "type": "uint256"
        },
        {
          "name": "",
          "type": "uint256"
        }
      ],
      "name": "colorBankToColorForRound",
      "outputs": [
        {
          "name": "",
          "type": "uint256"
        }
      ],
      "payable": false,
      "stateMutability": "view",
      "type": "function"
    },
    {
      "constant": true,
      "inputs": [
        {
          "name": "",
          "type": "uint256"
        }
      ],
      "name": "claims",
      "outputs": [
        {
          "name": "id",
          "type": "uint256"
        },
        {
          "name": "claimer",
          "type": "address"
        },
        {
          "name": "isResolved",
          "type": "bool"
        },
        {
          "name": "timestamp",
          "type": "uint256"
        }
      ],
      "payable": false,
      "stateMutability": "view",
      "type": "function"
    },
    {
      "constant": true,
      "inputs": [],
      "name": "ownerOfPixel",
      "outputs": [
        {
          "name": "",
          "type": "address"
        }
      ],
      "payable": false,
      "stateMutability": "view",
      "type": "function"
    },
    {
      "constant": true,
      "inputs": [
        {
          "name": "",
          "type": "uint256"
        },
        {
          "name": "",
          "type": "address"
        }
      ],
      "name": "isInCBT",
      "outputs": [
        {
          "name": "",
          "type": "bool"
        }
      ],
      "payable": false,
      "stateMutability": "view",
      "type": "function"
    },
    {
      "constant": true,
      "inputs": [
        {
          "name": "",
          "type": "uint256"
        }
      ],
      "name": "counterToPainter",
      "outputs": [
        {
          "name": "",
          "type": "address"
        }
      ],
      "payable": false,
      "stateMutability": "view",
      "type": "function"
    },
    {
      "constant": true,
      "inputs": [
        {
          "name": "",
          "type": "uint256"
        },
        {
          "name": "",
          "type": "address"
        }
      ],
      "name": "timeBankShare",
      "outputs": [
        {
          "name": "",
          "type": "uint256"
        }
      ],
      "payable": false,
      "stateMutability": "view",
      "type": "function"
    },
    {
      "constant": true,
      "inputs": [
        {
          "name": "",
          "type": "uint256"
        },
        {
          "name": "",
          "type": "uint256"
        },
        {
          "name": "",
          "type": "address"
        }
      ],
      "name": "colorBankShare",
      "outputs": [
        {
          "name": "",
          "type": "uint256"
        }
      ],
      "payable": false,
      "stateMutability": "view",
      "type": "function"
    },
    {
      "constant": true,
      "inputs": [
        {
          "name": "",
          "type": "uint256"
        },
        {
          "name": "",
          "type": "address"
        }
      ],
      "name": "lastPaintTimeOfUserForColor",
      "outputs": [
        {
          "name": "",
          "type": "uint256"
        }
      ],
      "payable": false,
      "stateMutability": "view",
      "type": "function"
    },
    {
      "constant": true,
      "inputs": [
        {
          "name": "",
          "type": "uint256"
        },
        {
          "name": "",
          "type": "uint256"
        }
      ],
      "name": "pixelToColorForRound",
      "outputs": [
        {
          "name": "",
          "type": "uint256"
        }
      ],
      "payable": false,
      "stateMutability": "view",
      "type": "function"
    },
    {
      "constant": true,
      "inputs": [
        {
          "name": "",
          "type": "uint256"
        }
      ],
      "name": "totalPaintsForRound",
      "outputs": [
        {
          "name": "",
          "type": "uint256"
        }
      ],
      "payable": false,
      "stateMutability": "view",
      "type": "function"
    },
    {
      "constant": true,
      "inputs": [
        {
          "name": "",
          "type": "uint256"
        }
      ],
      "name": "colorBankForRound",
      "outputs": [
        {
          "name": "",
          "type": "uint256"
        }
      ],
      "payable": false,
      "stateMutability": "view",
      "type": "function"
    },
    {
      "constant": true,
      "inputs": [
        {
          "name": "",
          "type": "uint256"
        },
        {
          "name": "",
          "type": "uint256"
        }
      ],
      "name": "paintGenToEndTimeForColor",
      "outputs": [
        {
          "name": "",
          "type": "uint256"
        }
      ],
      "payable": false,
      "stateMutability": "view",
      "type": "function"
    },
    {
      "constant": true,
      "inputs": [],
      "name": "refLinkPrice",
      "outputs": [
        {
          "name": "",
          "type": "uint256"
        }
      ],
      "payable": false,
      "stateMutability": "view",
      "type": "function"
    },
    {
      "constant": true,
      "inputs": [],
      "name": "uniqueUsersCount",
      "outputs": [
        {
          "name": "",
          "type": "uint256"
        }
      ],
      "payable": false,
      "stateMutability": "view",
      "type": "function"
    },
    {
      "constant": true,
      "inputs": [
        {
          "name": "",
          "type": "bytes32"
        }
      ],
      "name": "refLinkExists",
      "outputs": [
        {
          "name": "",
          "type": "bool"
        }
      ],
      "payable": false,
      "stateMutability": "view",
      "type": "function"
    },
    {
      "constant": true,
      "inputs": [
        {
          "name": "",
          "type": "uint256"
        },
        {
          "name": "",
          "type": "uint256"
        }
      ],
      "name": "paintGenToAmountForColor",
      "outputs": [
        {
          "name": "",
          "type": "uint256"
        }
      ],
      "payable": false,
      "stateMutability": "view",
      "type": "function"
    },
    {
      "constant": true,
      "inputs": [
        {
          "name": "",
          "type": "uint256"
        }
      ],
      "name": "isCBPTransfered",
      "outputs": [
        {
          "name": "",
          "type": "bool"
        }
      ],
      "payable": false,
      "stateMutability": "view",
      "type": "function"
    },
    {
      "constant": true,
      "inputs": [
        {
          "name": "",
          "type": "address"
        }
      ],
      "name": "referralToReferrer",
      "outputs": [
        {
          "name": "",
          "type": "address"
        }
      ],
      "payable": false,
      "stateMutability": "view",
      "type": "function"
    },
    {
      "constant": true,
      "inputs": [
        {
          "name": "",
          "type": "uint256"
        },
        {
          "name": "",
          "type": "address"
        }
      ],
      "name": "usersPaintDiscountForColor",
      "outputs": [
        {
          "name": "",
          "type": "uint256"
        }
      ],
      "payable": false,
      "stateMutability": "view",
      "type": "function"
    },
    {
      "constant": true,
      "inputs": [],
      "name": "maxPaintsInPool",
      "outputs": [
        {
          "name": "",
          "type": "uint256"
        }
      ],
      "payable": false,
      "stateMutability": "view",
      "type": "function"
    },
    {
      "constant": true,
      "inputs": [],
      "name": "totalPixelsNumber",
      "outputs": [
        {
          "name": "",
          "type": "uint256"
        }
      ],
      "payable": false,
      "stateMutability": "view",
      "type": "function"
    },
    {
      "constant": false,
      "inputs": [
        {
          "name": "newOwner",
          "type": "address"
        }
      ],
      "name": "transferOwnership",
      "outputs": [],
      "payable": false,
      "stateMutability": "nonpayable",
      "type": "function"
    },
    {
      "constant": true,
      "inputs": [
        {
          "name": "",
          "type": "address"
        }
      ],
      "name": "pendingWithdrawals",
      "outputs": [
        {
          "name": "",
          "type": "uint256"
        }
      ],
      "payable": false,
      "stateMutability": "view",
      "type": "function"
    },
    {
      "constant": true,
      "inputs": [
        {
          "name": "",
          "type": "uint256"
        }
      ],
      "name": "winnerColorForRound",
      "outputs": [
        {
          "name": "",
          "type": "uint256"
        }
      ],
      "payable": false,
      "stateMutability": "view",
      "type": "function"
    },
    {
      "constant": true,
      "inputs": [],
      "name": "dividendsBank",
      "outputs": [
        {
          "name": "",
          "type": "uint256"
        }
      ],
      "payable": false,
      "stateMutability": "view",
      "type": "function"
    },
    {
      "constant": true,
      "inputs": [],
      "name": "cbIteration",
      "outputs": [
        {
          "name": "",
          "type": "uint256"
        }
      ],
      "payable": false,
      "stateMutability": "view",
      "type": "function"
    },
    {
      "anonymous": false,
      "inputs": [
        {
          "indexed": true,
          "name": "round",
          "type": "uint256"
        },
        {
          "indexed": true,
          "name": "cbIteration",
          "type": "uint256"
        },
        {
          "indexed": true,
          "name": "winner",
          "type": "address"
        },
        {
          "indexed": false,
          "name": "prize",
          "type": "uint256"
        }
      ],
      "name": "CBPDistributed",
      "type": "event"
    },
    {
      "anonymous": false,
      "inputs": [
        {
          "indexed": true,
          "name": "withdrawer",
          "type": "address"
        },
        {
          "indexed": true,
          "name": "claimId",
          "type": "uint256"
        },
        {
          "indexed": true,
          "name": "amount",
          "type": "uint256"
        }
      ],
      "name": "DividendsWithdrawn",
      "type": "event"
    },
    {
      "anonymous": false,
      "inputs": [
        {
          "indexed": true,
          "name": "claimer",
          "type": "address"
        },
        {
          "indexed": true,
          "name": "claimId",
          "type": "uint256"
        },
        {
          "indexed": true,
          "name": "currentTime",
          "type": "uint256"
        }
      ],
      "name": "DividendsClaimed",
      "type": "event"
    },
    {
      "anonymous": false,
      "inputs": [
        {
          "indexed": true,
          "name": "pixelId",
          "type": "uint256"
        },
        {
          "indexed": false,
          "name": "colorId",
          "type": "uint256"
        },
        {
          "indexed": true,
          "name": "painter",
          "type": "address"
        },
        {
          "indexed": true,
          "name": "round",
          "type": "uint256"
        },
        {
          "indexed": false,
          "name": "timestamp",
          "type": "uint256"
        }
      ],
      "name": "Paint",
      "type": "event"
    },
    {
      "anonymous": false,
      "inputs": [
        {
          "indexed": false,
          "name": "winnerOfRound",
          "type": "address"
        },
        {
          "indexed": true,
          "name": "round",
          "type": "uint256"
        }
      ],
      "name": "ColorBankPlayed",
      "type": "event"
    },
    {
      "anonymous": false,
      "inputs": [
        {
          "indexed": false,
          "name": "winnerOfRound",
          "type": "address"
        },
        {
          "indexed": true,
          "name": "round",
          "type": "uint256"
        }
      ],
      "name": "TimeBankPlayed",
      "type": "event"
    },
    {
      "anonymous": false,
      "inputs": [
        {
          "indexed": true,
          "name": "newCallPrice",
          "type": "uint256"
        }
      ],
      "name": "CallPriceUpdated",
      "type": "event"
    },
    {
      "anonymous": false,
      "inputs": [
        {
          "indexed": true,
          "name": "round",
          "type": "uint256"
        },
        {
          "indexed": true,
          "name": "tbIteration",
          "type": "uint256"
        },
        {
          "indexed": true,
          "name": "winner",
          "type": "address"
        },
        {
          "indexed": false,
          "name": "prize",
          "type": "uint256"
        }
      ],
      "name": "TBPDistributed",
      "type": "event"
    },
    {
      "anonymous": false,
      "inputs": [
        {
          "indexed": true,
          "name": "previousOwner",
          "type": "address"
        },
        {
          "indexed": true,
          "name": "newOwner",
          "type": "address"
        }
      ],
      "name": "OwnershipTransferred",
      "type": "event"
    },
    {
      "constant": true,
      "inputs": [
        {
          "name": "_pixels",
          "type": "uint256[]"
        },
        {
          "name": "_color",
          "type": "uint256"
        }
      ],
      "name": "estimateCallPrice",
      "outputs": [
        {
          "name": "totalCallPrice",
          "type": "uint256"
        }
      ],
      "payable": false,
      "stateMutability": "view",
      "type": "function"
    },
    {
      "constant": false,
      "inputs": [],
      "name": "drawTimeBank",
      "outputs": [],
      "payable": false,
      "stateMutability": "nonpayable",
      "type": "function"
    },
    {
      "constant": false,
      "inputs": [
        {
          "name": "_pixels",
          "type": "uint256[]"
        },
        {
          "name": "_color",
          "type": "uint256"
        },
        {
          "name": "_refLink",
          "type": "string"
        }
      ],
      "name": "paint",
      "outputs": [],
      "payable": true,
      "stateMutability": "payable",
      "type": "function"
    }
  ],
  "bytecode": "0x608060405273ca35b7d915458ef540ade6068dfe2f44e8fa733c604160006101000a81548173ffffffffffffffffffffffffffffffffffffffff021916908373ffffffffffffffffffffffffffffffffffffffff160217905550733e4d187df7d8a0820eaf4174d17b160157610912604260006101000a81548173ffffffffffffffffffffffffffffffffffffffff021916908373ffffffffffffffffffffffffffffffffffffffff160217905550336000806101000a81548173ffffffffffffffffffffffffffffffffffffffff021916908373ffffffffffffffffffffffffffffffffffffffff1602179055506000809054906101000a900473ffffffffffffffffffffffffffffffffffffffff1673ffffffffffffffffffffffffffffffffffffffff16600073ffffffffffffffffffffffffffffffffffffffff167f8be0079c531659141344cd1fd0a4f28419497f9722a3daafe3b4186f6b6457e060405160405180910390a361514f806101796000396000f3006080604052600436106103b1576000357c0100000000000000000000000000000000000000000000000000000000900463ffffffff1680630422ddf3146103b657806305bdd0be146103e5578063099b81ce1461044a5780630baaea44146104bb5780630cf9603f146105285780630daa4206146105735780630f6ed86e146105c3578063102f9713146105ee57806315682a661461065b57806318452cd8146106a057806319ef6a06146106fb5780631d64873b146107465780631f5bdf5d146107715780631f90c6ed146107cc57806321423af81461083157806324d7806c1461086057806328361f57146108bb57806328b290f9146108fc5780632c6c1c41146109535780632c7a3dae146109b457806333f9c38814610a2b5780633a17350514610a8c5780633c6dd01314610ad75780633ca4c18314610b185780633d0d1a7914610b795780633dc3c37714610bba578063411b007e14610be557806341c5464e14610c3c57806342e453ec14610c935780634a7f6f2f14610d0a5780634b39173d14610d615780634c438ad714610dac5780634c78e40114610df15780635bfcdb2714610e325780635c25fd1314610eee5780635d63ebb214610f195780635f5d554c14610f905780636256655614610fdf578063628a71a3146110205780636f17eb4214611061578063715018a6146110a257806373a9ee26146110b957806376f5d96a146110fa57806379ecf376146111295780637e1e175c14611196578063846c4c37146111f15780638500b7b71461124857806387982ac31461129f5780638a19c8bc1461132c5780638da5cb5b146113575780638e2df39c146113ae5780638f32d59b146113ef5780638f63b7e51461141e578063a312072414611469578063a888c2cd146114b4578063a977e1681461153a578063ab24c7d214611591578063abafb90e146115f6578063ae55ce821461167a578063b0ff59d2146116e7578063b1a3883c14611748578063b20c2cb9146117b3578063b60cbeb6146117ca578063b8232d5d1461182b578063be7d622614611876578063c64a2e56146118b7578063c957387b146118f8578063c97d230f14611943578063c9f8234f1461196e578063d4526e6814611999578063d5de47c7146119e2578063da68b12114611a2d578063deaf0fa114611a72578063eaf1c91014611af5578063eef565da14611b56578063f120dba114611b81578063f2fde38b14611bac578063f3f4370314611bef578063f49916f514611c46578063f5f95b3b14611c87578063fea11fe314611cb2575b600080fd5b3480156103c257600080fd5b506103cb611cdd565b604051808215151515815260200191505060405180910390f35b3480156103f157600080fd5b5061043060048036038101908080359060200190929190803573ffffffffffffffffffffffffffffffffffffffff169060200190929190505050611cf0565b604051808215151515815260200191505060405180910390f35b34801561045657600080fd5b506104796004803603810190808035600019169060200190929190505050611d1f565b604051808273ffffffffffffffffffffffffffffffffffffffff1673ffffffffffffffffffffffffffffffffffffffff16815260200191505060405180910390f35b3480156104c757600080fd5b506104e660048036038101908080359060200190929190505050611d52565b604051808273ffffffffffffffffffffffffffffffffffffffff1673ffffffffffffffffffffffffffffffffffffffff16815260200191505060405180910390f35b34801561053457600080fd5b5061055d6004803603810190808035906020019092919080359060200190929190505050611d85565b6040518082815260200191505060405180910390f35b6105c160048036038101908080359060200190820180359060200191909192939192939080359060200190929190803590602001908201803590602001919091929391929390505050611daa565b005b3480156105cf57600080fd5b506105d86126ba565b6040518082815260200191505060405180910390f35b3480156105fa57600080fd5b50610619600480360381019080803590602001909291905050506126c0565b604051808273ffffffffffffffffffffffffffffffffffffffff1673ffffffffffffffffffffffffffffffffffffffff16815260200191505060405180910390f35b34801561066757600080fd5b50610686600480360381019080803590602001909291905050506126f3565b604051808215151515815260200191505060405180910390f35b3480156106ac57600080fd5b506106e1600480360381019080803573ffffffffffffffffffffffffffffffffffffffff169060200190929190505050612713565b604051808215151515815260200191505060405180910390f35b34801561070757600080fd5b506107306004803603810190808035906020019092919080359060200190929190505050612733565b6040518082815260200191505060405180910390f35b34801561075257600080fd5b5061075b612758565b6040518082815260200191505060405180910390f35b34801561077d57600080fd5b506107b2600480360381019080803573ffffffffffffffffffffffffffffffffffffffff16906020019092919050505061275e565b604051808215151515815260200191505060405180910390f35b3480156107d857600080fd5b5061081760048036038101908080359060200190929190803573ffffffffffffffffffffffffffffffffffffffff16906020019092919050505061277e565b604051808215151515815260200191505060405180910390f35b34801561083d57600080fd5b506108466127ad565b604051808215151515815260200191505060405180910390f35b34801561086c57600080fd5b506108a1600480360381019080803573ffffffffffffffffffffffffffffffffffffffff1690602001909291905050506127c0565b604051808215151515815260200191505060405180910390f35b3480156108c757600080fd5b506108e6600480360381019080803590602001909291905050506127e0565b6040518082815260200191505060405180910390f35b34801561090857600080fd5b5061093d600480360381019080803573ffffffffffffffffffffffffffffffffffffffff1690602001909291905050506127f8565b6040518082815260200191505060405180910390f35b34801561095f57600080fd5b5061099e60048036038101908080359060200190929190803573ffffffffffffffffffffffffffffffffffffffff169060200190929190505050612810565b6040518082815260200191505060405180910390f35b3480156109c057600080fd5b506109e96004803603810190808035906020019092919080359060200190929190505050612835565b604051808273ffffffffffffffffffffffffffffffffffffffff1673ffffffffffffffffffffffffffffffffffffffff16815260200191505060405180910390f35b348015610a3757600080fd5b50610a7660048036038101908080359060200190929190803573ffffffffffffffffffffffffffffffffffffffff169060200190929190505050612882565b6040518082815260200191505060405180910390f35b348015610a9857600080fd5b50610ac160048036038101908080359060200190929190803590602001909291905050506128a7565b6040518082815260200191505060405180910390f35b348015610ae357600080fd5b50610b02600480360381019080803590602001909291905050506128cc565b6040518082815260200191505060405180910390f35b348015610b2457600080fd5b50610b6360048036038101908080359060200190929190803573ffffffffffffffffffffffffffffffffffffffff1690602001909291905050506128e4565b6040518082815260200191505060405180910390f35b348015610b8557600080fd5b50610ba460048036038101908080359060200190929190505050612909565b6040518082815260200191505060405180910390f35b348015610bc657600080fd5b50610bcf612921565b6040518082815260200191505060405180910390f35b348015610bf157600080fd5b50610bfa612927565b604051808273ffffffffffffffffffffffffffffffffffffffff1673ffffffffffffffffffffffffffffffffffffffff16815260200191505060405180910390f35b348015610c4857600080fd5b50610c7d600480360381019080803573ffffffffffffffffffffffffffffffffffffffff16906020019092919050505061294d565b6040518082815260200191505060405180910390f35b348015610c9f57600080fd5b50610cc86004803603810190808035906020019092919080359060200190929190505050612965565b604051808273ffffffffffffffffffffffffffffffffffffffff1673ffffffffffffffffffffffffffffffffffffffff16815260200191505060405180910390f35b348015610d1657600080fd5b50610d4b600480360381019080803573ffffffffffffffffffffffffffffffffffffffff1690602001909291905050506129a7565b6040518082815260200191505060405180910390f35b348015610d6d57600080fd5b50610d9660048036038101908080359060200190929190803590602001909291905050506129bf565b6040518082815260200191505060405180910390f35b348015610db857600080fd5b50610dd7600480360381019080803590602001909291905050506129e4565b604051808215151515815260200191505060405180910390f35b348015610dfd57600080fd5b50610e1c60048036038101908080359060200190929190505050612a04565b6040518082815260200191505060405180910390f35b348015610e3e57600080fd5b50610e73600480360381019080803573ffffffffffffffffffffffffffffffffffffffff169060200190929190505050612a1c565b6040518080602001828103825283818151815260200191508051906020019080838360005b83811015610eb3578082015181840152602081019050610e98565b50505050905090810190601f168015610ee05780820380516001836020036101000a031916815260200191505b509250505060405180910390f35b348015610efa57600080fd5b50610f03612acc565b6040518082815260200191505060405180910390f35b348015610f2557600080fd5b50610f4e6004803603810190808035906020019092919080359060200190929190505050612ad2565b604051808273ffffffffffffffffffffffffffffffffffffffff1673ffffffffffffffffffffffffffffffffffffffff16815260200191505060405180910390f35b348015610f9c57600080fd5b50610fc56004803603810190808035906020019092919080359060200190929190505050612b1f565b604051808215151515815260200191505060405180910390f35b348015610feb57600080fd5b5061100a60048036038101908080359060200190929190505050612b4e565b6040518082815260200191505060405180910390f35b34801561102c57600080fd5b5061104b60048036038101908080359060200190929190505050612b66565b6040518082815260200191505060405180910390f35b34801561106d57600080fd5b5061108c60048036038101908080359060200190929190505050612b7e565b6040518082815260200191505060405180910390f35b3480156110ae57600080fd5b506110b7612b96565b005b3480156110c557600080fd5b506110e460048036038101908080359060200190929190505050612c68565b6040518082815260200191505060405180910390f35b34801561110657600080fd5b5061110f612c80565b604051808215151515815260200191505060405180910390f35b34801561113557600080fd5b5061115460048036038101908080359060200190929190505050612c93565b604051808273ffffffffffffffffffffffffffffffffffffffff1673ffffffffffffffffffffffffffffffffffffffff16815260200191505060405180910390f35b3480156111a257600080fd5b506111d7600480360381019080803573ffffffffffffffffffffffffffffffffffffffff169060200190929190505050612cc6565b604051808215151515815260200191505060405180910390f35b3480156111fd57600080fd5b50611232600480360381019080803573ffffffffffffffffffffffffffffffffffffffff169060200190929190505050612ce6565b6040518082815260200191505060405180910390f35b34801561125457600080fd5b50611289600480360381019080803573ffffffffffffffffffffffffffffffffffffffff169060200190929190505050612cfe565b6040518082815260200191505060405180910390f35b3480156112ab57600080fd5b506112ea600480360381019080803573ffffffffffffffffffffffffffffffffffffffff16906020019092919080359060200190929190505050612d16565b604051808273ffffffffffffffffffffffffffffffffffffffff1673ffffffffffffffffffffffffffffffffffffffff16815260200191505060405180910390f35b34801561133857600080fd5b50611341612d63565b6040518082815260200191505060405180910390f35b34801561136357600080fd5b5061136c612d69565b604051808273ffffffffffffffffffffffffffffffffffffffff1673ffffffffffffffffffffffffffffffffffffffff16815260200191505060405180910390f35b3480156113ba57600080fd5b506113d960048036038101908080359060200190929190505050612d92565b6040518082815260200191505060405180910390f35b3480156113fb57600080fd5b50611404612daa565b604051808215151515815260200191505060405180910390f35b34801561142a57600080fd5b506114536004803603810190808035906020019092919080359060200190929190505050612e01565b6040518082815260200191505060405180910390f35b34801561147557600080fd5b5061149e6004803603810190808035906020019092919080359060200190929190505050612e26565b6040518082815260200191505060405180910390f35b3480156114c057600080fd5b506114df60048036038101908080359060200190929190505050612e4b565b604051808581526020018473ffffffffffffffffffffffffffffffffffffffff1673ffffffffffffffffffffffffffffffffffffffff1681526020018315151515815260200182815260200194505050505060405180910390f35b34801561154657600080fd5b5061154f612eb7565b604051808273ffffffffffffffffffffffffffffffffffffffff1673ffffffffffffffffffffffffffffffffffffffff16815260200191505060405180910390f35b34801561159d57600080fd5b506115dc60048036038101908080359060200190929190803573ffffffffffffffffffffffffffffffffffffffff169060200190929190505050612edd565b604051808215151515815260200191505060405180910390f35b34801561160257600080fd5b506116646004803603810190808035906020019082018035906020019080806020026020016040519081016040528093929190818152602001838360200280828437820191505050505050919291929080359060200190929190505050612f0c565b6040518082815260200191505060405180910390f35b34801561168657600080fd5b506116a5600480360381019080803590602001909291905050506130fa565b604051808273ffffffffffffffffffffffffffffffffffffffff1673ffffffffffffffffffffffffffffffffffffffff16815260200191505060405180910390f35b3480156116f357600080fd5b5061173260048036038101908080359060200190929190803573ffffffffffffffffffffffffffffffffffffffff16906020019092919050505061312d565b6040518082815260200191505060405180910390f35b34801561175457600080fd5b5061179d6004803603810190808035906020019092919080359060200190929190803573ffffffffffffffffffffffffffffffffffffffff169060200190929190505050613152565b6040518082815260200191505060405180910390f35b3480156117bf57600080fd5b506117c8613184565b005b3480156117d657600080fd5b5061181560048036038101908080359060200190929190803573ffffffffffffffffffffffffffffffffffffffff1690602001909291905050506134b3565b6040518082815260200191505060405180910390f35b34801561183757600080fd5b5061186060048036038101908080359060200190929190803590602001909291905050506134d8565b6040518082815260200191505060405180910390f35b34801561188257600080fd5b506118a1600480360381019080803590602001909291905050506134fd565b6040518082815260200191505060405180910390f35b3480156118c357600080fd5b506118e260048036038101908080359060200190929190505050613515565b6040518082815260200191505060405180910390f35b34801561190457600080fd5b5061192d600480360381019080803590602001909291908035906020019092919050505061352d565b6040518082815260200191505060405180910390f35b34801561194f57600080fd5b50611958613552565b6040518082815260200191505060405180910390f35b34801561197a57600080fd5b50611983613558565b6040518082815260200191505060405180910390f35b3480156119a557600080fd5b506119c8600480360381019080803560001916906020019092919050505061355e565b604051808215151515815260200191505060405180910390f35b3480156119ee57600080fd5b50611a17600480360381019080803590602001909291908035906020019092919050505061357e565b6040518082815260200191505060405180910390f35b348015611a3957600080fd5b50611a58600480360381019080803590602001909291905050506135a3565b604051808215151515815260200191505060405180910390f35b348015611a7e57600080fd5b50611ab3600480360381019080803573ffffffffffffffffffffffffffffffffffffffff1690602001909291905050506135c3565b604051808273ffffffffffffffffffffffffffffffffffffffff1673ffffffffffffffffffffffffffffffffffffffff16815260200191505060405180910390f35b348015611b0157600080fd5b50611b4060048036038101908080359060200190929190803573ffffffffffffffffffffffffffffffffffffffff1690602001909291905050506135f5565b6040518082815260200191505060405180910390f35b348015611b6257600080fd5b50611b6b61361a565b6040518082815260200191505060405180910390f35b348015611b8d57600080fd5b50611b96613620565b6040518082815260200191505060405180910390f35b348015611bb857600080fd5b50611bed600480360381019080803573ffffffffffffffffffffffffffffffffffffffff169060200190929190505050613626565b005b348015611bfb57600080fd5b50611c30600480360381019080803573ffffffffffffffffffffffffffffffffffffffff169060200190929190505050613645565b6040518082815260200191505060405180910390f35b348015611c5257600080fd5b50611c716004803603810190808035906020019092919050505061365d565b6040518082815260200191505060405180910390f35b348015611c9357600080fd5b50611c9c613675565b6040518082815260200191505060405180910390f35b348015611cbe57600080fd5b50611cc761367b565b6040518082815260200191505060405180910390f35b604260149054906101000a900460ff1681565b60356020528160005260406000206020528060005260406000206000915091509054906101000a900460ff1681565b60246020528060005260406000206000915054906101000a900473ffffffffffffffffffffffffffffffffffffffff1681565b603b6020528060005260406000206000915054906101000a900473ffffffffffffffffffffffffffffffffffffffff1681565b6006602052816000526040600020602052806000526040600020600091509150505481565b600082828080601f01602080910402602001604051908101604052809392919081815260200183838082843782019150505050505060008060011515601e60003373ffffffffffffffffffffffffffffffffffffffff1673ffffffffffffffffffffffffffffffffffffffff16815260200190815260200160002060009054906101000a900460ff16151514151561213f57611e4583613681565b6fffffffffffffffffffffffffffffffff1916915060256000836000191660001916815260200190815260200160002060009054906101000a900460ff16156120405760246000836000191660001916815260200190815260200160002060009054906101000a900473ffffffffffffffffffffffffffffffffffffffff169050602160008273ffffffffffffffffffffffffffffffffffffffff1673ffffffffffffffffffffffffffffffffffffffff1681526020019081526020016000203390806001815401808255809150509060018203906000526020600020016000909192909190916101000a81548173ffffffffffffffffffffffffffffffffffffffff021916908373ffffffffffffffffffffffffffffffffffffffff1602179055505080602060003373ffffffffffffffffffffffffffffffffffffffff1673ffffffffffffffffffffffffffffffffffffffff16815260200190815260200160002060006101000a81548173ffffffffffffffffffffffffffffffffffffffff021916908373ffffffffffffffffffffffffffffffffffffffff1602179055506001602260003373ffffffffffffffffffffffffffffffffffffffff1673ffffffffffffffffffffffffffffffffffffffff16815260200190815260200160002060006101000a81548160ff0219169083151502179055505b612056600160275461369a90919063ffffffff16565b602781905550602754602660003373ffffffffffffffffffffffffffffffffffffffff1673ffffffffffffffffffffffffffffffffffffffff1681526020019081526020016000208190555042604960003373ffffffffffffffffffffffffffffffffffffffff1673ffffffffffffffffffffffffffffffffffffffff168152602001908152602001600020819055506001601e60003373ffffffffffffffffffffffffffffffffffffffff1673ffffffffffffffffffffffffffffffffffffffff16815260200190815260200160002060006101000a81548160ff0219169083151502179055505b60001515604260149054906101000a900460ff1615151415156121ca576040517f08c379a000000000000000000000000000000000000000000000000000000000815260040180806020018281038252600f8152602001807f47616d65206973207061757365642e000000000000000000000000000000000081525060200191505060405180910390fd5b61220389898080602002602001604051908101604052809392919081815260200183836020028082843782019150505050505088612f0c565b34141515612279576040517f08c379a00000000000000000000000000000000000000000000000000000000081526004018080602001828103825260108152602001807f57726f6e672063616c6c2070726963650000000000000000000000000000000081525060200191505060405180910390fd5b60008711801561228b57506046548711155b1515612325576040517f08c379a00000000000000000000000000000000000000000000000000000000081526004018080602001828103825260268152602001807f54686520636f6c6f722077697468207375636820696420646f6573206e6f742081526020017f65786973742e000000000000000000000000000000000000000000000000000081525060400191505060405180910390fd5b6104b0600a6000602954815260200190815260200160002054420311801561236357506000600a600060295481526020019081526020016000205414155b8015612395575060001515604c6000602954815260200190815260200160002060009054906101000a900460ff161515145b156123a7576123a2613184565b6126af565b6123b0876136bb565b600093505b888890508410156123eb576123de89898681811015156123d157fe5b9050602002013588613843565b83806001019450506123b5565b6124278787878080601f016020809104026020016040519081016040528093929190818152602001838380828437820191505050505050614395565b612430876148a0565b61243987614a19565b6000602f600089815260200190815260200160002054141561249557426015600089815260200190815260200160002060006001601760008c815260200190815260200160002054038152602001908152602001600020819055505b602c60008154809291906001019190505550602f6000888152602001908152602001600020600081548092919060010191905055503360326000602c54815260200190815260200160002060006101000a81548173ffffffffffffffffffffffffffffffffffffffff021916908373ffffffffffffffffffffffffffffffffffffffff16021790555033603360008981526020019081526020016000206000602f60008b815260200190815260200160002054815260200190815260200160002060006101000a81548173ffffffffffffffffffffffffffffffffffffffff021916908373ffffffffffffffffffffffffffffffffffffffff16021790555060001515604e6000602954815260200190815260200160002060003373ffffffffffffffffffffffffffffffffffffffff1673ffffffffffffffffffffffffffffffffffffffff16815260200190815260200160002060009054906101000a900460ff16151514156126ae576126296001604d600060295481526020019081526020016000205461369a90919063ffffffff16565b604d60006029548152602001908152602001600020819055506001604e6000602954815260200190815260200160002060003373ffffffffffffffffffffffffffffffffffffffff1673ffffffffffffffffffffffffffffffffffffffff16815260200190815260200160002060006101000a81548160ff0219169083151502179055505b5b505050505050505050565b602a5481565b600f6020528060005260406000206000915054906101000a900473ffffffffffffffffffffffffffffffffffffffff1681565b604c6020528060005260406000206000915054906101000a900460ff1681565b60226020528060005260406000206000915054906101000a900460ff1681565b600e602052816000526040600020602052806000526040600020600091509150505481565b60465481565b601e6020528060005260406000206000915054906101000a900460ff1681565b601c6020528160005260406000206020528060005260406000206000915091509054906101000a900460ff1681565b604260169054906101000a900460ff1681565b60436020528060005260406000206000915054906101000a900460ff1681565b60176020528060005260406000206000915090505481565b603a6020528060005260406000206000915090505481565b601a602052816000526040600020602052806000526040600020600091509150505481565b60316020528160005260406000208181548110151561285057fe5b906000526020600020016000915091509054906101000a900473ffffffffffffffffffffffffffffffffffffffff1681565b6037602052816000526040600020602052806000526040600020600091509150505481565b6014602052816000526040600020602052806000526040600020600091509150505481565b60186020528060005260406000206000915090505481565b6036602052816000526040600020602052806000526040600020600091509150505481565b60106020528060005260406000206000915090505481565b602c5481565b604260009054906101000a900473ffffffffffffffffffffffffffffffffffffffff1681565b60266020528060005260406000206000915090505481565b60336020528160005260406000206020528060005260406000206000915091509054906101000a900473ffffffffffffffffffffffffffffffffffffffff1681565b601b6020528060005260406000206000915090505481565b6005602052816000526040600020602052806000526040600020600091509150505481565b60396020528060005260406000206000915054906101000a900460ff1681565b60096020528060005260406000206000915090505481565b60236020528060005260406000206000915090508054600181600116156101000203166002900480601f016020809104026020016040519081016040528092919081815260200182805460018160011615610100020316600290048015612ac45780601f10612a9957610100808354040283529160200191612ac4565b820191906000526020600020905b815481529060010190602001808311612aa757829003601f168201915b505050505081565b603f5481565b603060205281600052604060002081815481101515612aed57fe5b906000526020600020016000915091509054906101000a900473ffffffffffffffffffffffffffffffffffffffff1681565b60166020528160005260406000206020528060005260406000206000915091509054906101000a900460ff1681565b604d6020528060005260406000206000915090505481565b600c6020528060005260406000206000915090505481565b60196020528060005260406000206000915090505481565b612b9e612daa565b1515612ba957600080fd5b600073ffffffffffffffffffffffffffffffffffffffff166000809054906101000a900473ffffffffffffffffffffffffffffffffffffffff1673ffffffffffffffffffffffffffffffffffffffff167f8be0079c531659141344cd1fd0a4f28419497f9722a3daafe3b4186f6b6457e060405160405180910390a360008060006101000a81548173ffffffffffffffffffffffffffffffffffffffff021916908373ffffffffffffffffffffffffffffffffffffffff160217905550565b600a6020528060005260406000206000915090505481565b604260159054906101000a900460ff1681565b600b6020528060005260406000206000915054906101000a900473ffffffffffffffffffffffffffffffffffffffff1681565b601f6020528060005260406000206000915054906101000a900460ff1681565b60496020528060005260406000206000915090505481565b604a6020528060005260406000206000915090505481565b602160205281600052604060002081815481101515612d3157fe5b906000526020600020016000915091509054906101000a900473ffffffffffffffffffffffffffffffffffffffff1681565b60295481565b60008060009054906101000a900473ffffffffffffffffffffffffffffffffffffffff16905090565b602f6020528060005260406000206000915090505481565b60008060009054906101000a900473ffffffffffffffffffffffffffffffffffffffff1673ffffffffffffffffffffffffffffffffffffffff163373ffffffffffffffffffffffffffffffffffffffff1614905090565b6011602052816000526040600020602052806000526040600020600091509150505481565b6008602052816000526040600020602052806000526040600020600091509150505481565b604081815481101515612e5a57fe5b90600052602060002090600302016000915090508060000154908060010160009054906101000a900473ffffffffffffffffffffffffffffffffffffffff16908060010160149054906101000a900460ff16908060020154905084565b604160009054906101000a900473ffffffffffffffffffffffffffffffffffffffff1681565b60346020528160005260406000206020528060005260406000206000915091509054906101000a900460ff1681565b6000806000806000806000601a600089815260200190815260200160002060003373ffffffffffffffffffffffffffffffffffffffff1673ffffffffffffffffffffffffffffffffffffffff168152602001908152602001600020549550601c600089815260200190815260200160002060003373ffffffffffffffffffffffffffffffffffffffff1673ffffffffffffffffffffffffffffffffffffffff16815260200190815260200160002060009054906101000a900460ff169450601d600089815260200190815260200160002060003373ffffffffffffffffffffffffffffffffffffffff1673ffffffffffffffffffffffffffffffffffffffff168152602001908152602001600020549350600092505b88518310156130ee57613067606461305986606403601960008d815260200190815260200160002054614b8c90919063ffffffff16565b614bca90919063ffffffff16565b915060011515851515141561307e57819050613095565b601960008981526020019081526020016000205490505b80870196508086019550670de0b6b3a7640000861015156130e15760019450670de0b6b3a7640000868115156130c757fe5b049350678ac7230489e80000861015156130e057600a93505b5b8280600101935050613022565b50505050505092915050565b60326020528060005260406000206000915054906101000a900473ffffffffffffffffffffffffffffffffffffffff1681565b602d602052816000526040600020602052806000526040600020600091509150505481565b602e60205282600052604060002060205281600052604060002060205280600052604060002060009250925050505481565b6000600a600060295481526020019081526020016000205490506104b08142031180156131b2575060008114155b1515613226576040517f08c379a000000000000000000000000000000000000000000000000000000000815260040180806020018281038252601f8152602001807f3230206d696e757465732068617665206e6f7420706173736564207965742e0081525060200191505060405180910390fd5b600b6000602954815260200190815260200160002060009054906101000a900473ffffffffffffffffffffffffffffffffffffffff16600f6000602954815260200190815260200160002060006101000a81548173ffffffffffffffffffffffffffffffffffffffff021916908373ffffffffffffffffffffffffffffffffffffffff1602179055506001601060006029548152602001908152602001600020819055506132f3600a60096000602954815260200190815260200160002054614bca90919063ffffffff16565b6009600060016029540181526020019081526020016000208190555061334b606461333d602d60096000602954815260200190815260200160002054614b8c90919063ffffffff16565b614bca90919063ffffffff16565b6009600060295481526020019081526020016000208190555060076000602954815260200190815260200160002054600760006001602954018152602001908152602001600020819055506000600760006029548152602001908152602001600020819055506029547f20f206bcab56eeef408295aaff8745adb98fed16823d758193e9449983d23fd2600f6000602954815260200190815260200160002060009054906101000a900473ffffffffffffffffffffffffffffffffffffffff16604051808273ffffffffffffffffffffffffffffffffffffffff1673ffffffffffffffffffffffffffffffffffffffff16815260200191505060405180910390a26001604260166101000a81548160ff0219169083151502179055506001604260146101000a81548160ff0219169083151502179055506001604c6000602954815260200190815260200160002060006101000a81548160ff02191690831515021790555050565b604b602052816000526040600020602052806000526040600020600091509150505481565b6004602052816000526040600020602052806000526040600020600091509150505481565b60126020528060005260406000206000915090505481565b60076020528060005260406000206000915090505481565b6015602052816000526040600020602052806000526040600020600091509150505481565b60485481565b60275481565b60256020528060005260406000206000915054906101000a900460ff1681565b6013602052816000526040600020602052806000526040600020600091509150505481565b60386020528060005260406000206000915054906101000a900460ff1681565b602080528060005260406000206000915054906101000a900473ffffffffffffffffffffffffffffffffffffffff1681565b601d602052816000526040600020602052806000526040600020600091509150505481565b60285481565b60475481565b61362e612daa565b151561363957600080fd5b61364281614bf4565b50565b603c6020528060005260406000206000915090505481565b600d6020528060005260406000206000915090505481565b603e5481565b602b5481565b6000806060839050602081015191508192505050919050565b60008082840190508381101515156136b157600080fd5b8091505092915050565b61371a6136e560646136d7602834614b8c90919063ffffffff16565b614bca90919063ffffffff16565b60086000602954815260200190815260200160002060008481526020019081526020016000205461369a90919063ffffffff16565b60086000602954815260200190815260200160002060008381526020019081526020016000208190555061379261376e6064613760602834614b8c90919063ffffffff16565b614bca90919063ffffffff16565b6007600060295481526020019081526020016000205461369a90919063ffffffff16565b600760006029548152602001908152602001600020819055506137f96137d560646137c7602834614b8c90919063ffffffff16565b614bca90919063ffffffff16565b6009600060295481526020019081526020016000205461369a90919063ffffffff16565b6009600060295481526020019081526020016000208190555061383a613829600534614bca90919063ffffffff16565b603e5461369a90919063ffffffff16565b603e8190555050565b600061384e82614cee565b60008311801561386057506047548311155b15156138fa576040517f08c379a00000000000000000000000000000000000000000000000000000000081526004018080602001828103825260268152602001807f54686520706978656c2077697468207375636820696420646f6573206e6f742081526020017f65786973742e000000000000000000000000000000000000000000000000000081525060400191505060405180910390fd5b81600460006029548152602001908152602001600020600085815260200190815260200160002054141515156139be576040517f08c379a00000000000000000000000000000000000000000000000000000000081526004018080602001828103825260248152602001807f5468697320706978656c20697320616c7265616479206f66207468697320636f81526020017f6c6f722e0000000000000000000000000000000000000000000000000000000081525060400191505060405180910390fd5b6004600060295481526020019081526020016000206000848152602001908152602001600020549050816004600060295481526020019081526020016000206000858152602001908152602001600020819055508060056000602954815260200190815260200160002060008581526020019081526020016000208190555042600a600060295481526020019081526020016000208190555033600b6000602954815260200190815260200160002060006101000a81548173ffffffffffffffffffffffffffffffffffffffff021916908373ffffffffffffffffffffffffffffffffffffffff16021790555060006006600060295481526020019081526020016000206000838152602001908152602001600020541115613b3f57613b14600160066000602954815260200190815260200160002060008481526020019081526020016000205461506e90919063ffffffff16565b6006600060295481526020019081526020016000206000838152602001908152602001600020819055505b613b79600160066000602954815260200190815260200160002060008581526020019081526020016000205461369a90919063ffffffff16565b600660006029548152602001908152602001600020600084815260200190815260200160002081905550613bdd6001600e6000602b54815260200190815260200160002060008581526020019081526020016000205461369a90919063ffffffff16565b600e6000602b548152602001908152602001600020600084815260200190815260200160002081905550613c3060016012600060295481526020019081526020016000205461369a90919063ffffffff16565b60126000602954815260200190815260200160002081905550426011600060295481526020019081526020016000206000858152602001908152602001600020819055506000604a60003373ffffffffffffffffffffffffffffffffffffffff1673ffffffffffffffffffffffffffffffffffffffff1681526020019081526020016000205414158015613d07575062015180604a60003373ffffffffffffffffffffffffffffffffffffffff1673ffffffffffffffffffffffffffffffffffffffff168152602001908152602001600020544203105b15613d7357602d6000602a54815260200190815260200160002060003373ffffffffffffffffffffffffffffffffffffffff1673ffffffffffffffffffffffffffffffffffffffff16815260200190815260200160002060008154809291906001019190505550613dcc565b6001602d6000602a54815260200190815260200160002060003373ffffffffffffffffffffffffffffffffffffffff1673ffffffffffffffffffffffffffffffffffffffff168152602001908152602001600020819055505b6000604b600084815260200190815260200160002060003373ffffffffffffffffffffffffffffffffffffffff1673ffffffffffffffffffffffffffffffffffffffff1681526020019081526020016000205414158015613e81575062015180604b600084815260200190815260200160002060003373ffffffffffffffffffffffffffffffffffffffff1673ffffffffffffffffffffffffffffffffffffffff168152602001908152602001600020544203105b15613efe57602e6000602b548152602001908152602001600020600083815260200190815260200160002060003373ffffffffffffffffffffffffffffffffffffffff1673ffffffffffffffffffffffffffffffffffffffff16815260200190815260200160002060008154809291906001019190505550613f68565b6001602e6000602b548152602001908152602001600020600084815260200190815260200160002060003373ffffffffffffffffffffffffffffffffffffffff1673ffffffffffffffffffffffffffffffffffffffff168152602001908152602001600020819055505b42604a60003373ffffffffffffffffffffffffffffffffffffffff1673ffffffffffffffffffffffffffffffffffffffff1681526020019081526020016000208190555042604b600084815260200190815260200160002060003373ffffffffffffffffffffffffffffffffffffffff1673ffffffffffffffffffffffffffffffffffffffff1681526020019081526020016000208190555061404c6001601360008581526020019081526020016000206000601760008781526020019081526020016000205481526020019081526020016000205461506e90919063ffffffff16565b601360008481526020019081526020016000206000601760008681526020019081526020016000205481526020019081526020016000208190555082600c60006029548152602001908152602001600020819055506029543373ffffffffffffffffffffffffffffffffffffffff16847faf2d03aa2fdc9b785775529881274caad1884e0279e02729f03eca55d57eea728542604051808381526020018281526020019250505060405180910390a4602954603a60003373ffffffffffffffffffffffffffffffffffffffff1673ffffffffffffffffffffffffffffffffffffffff1681526020019081526020016000208190555060475460066000602954815260200190815260200160002060008481526020019081526020016000205414156143905781600d6000602954815260200190815260200160002081905550600b6000602954815260200190815260200160002060009054906101000a900473ffffffffffffffffffffffffffffffffffffffff16600f6000602954815260200190815260200160002060006101000a81548173ffffffffffffffffffffffffffffffffffffffff021916908373ffffffffffffffffffffffffffffffffffffffff160217905550600260106000602954815260200190815260200160002081905550614258600260076000602954815260200190815260200160002054614bca90919063ffffffff16565b6007600060295481526020019081526020016000208190555060096000602954815260200190815260200160002054600960006001602954018152602001908152602001600020819055506000600960006029548152602001908152602001600020819055506029547f14988f685a0376db6242cb37ed3033028bbc9e8fe0cc4b434a098e6c0150673f600f6000602954815260200190815260200160002060009054906101000a900473ffffffffffffffffffffffffffffffffffffffff16604051808273ffffffffffffffffffffffffffffffffffffffff1673ffffffffffffffffffffffffffffffffffffffff16815260200191505060405180910390a26001604260146101000a81548160ff0219169083151502179055506001604260156101000a81548160ff0219169083151502179055505b505050565b60006143a082613681565b6fffffffffffffffffffffffffffffffff191690506001151560256000836000191660001916815260200190815260200160002060009054906101000a900460ff1615151415614693576144736144036004603e54614bca90919063ffffffff16565b603c6000604260009054906101000a900473ffffffffffffffffffffffffffffffffffffffff1673ffffffffffffffffffffffffffffffffffffffff1673ffffffffffffffffffffffffffffffffffffffff1681526020019081526020016000205461369a90919063ffffffff16565b603c6000604260009054906101000a900473ffffffffffffffffffffffffffffffffffffffff1673ffffffffffffffffffffffffffffffffffffffff1673ffffffffffffffffffffffffffffffffffffffff168152602001908152602001600020819055506144ee6004603e54614bca90919063ffffffff16565b603c6000603b600087815260200190815260200160002060009054906101000a900473ffffffffffffffffffffffffffffffffffffffff1673ffffffffffffffffffffffffffffffffffffffff1673ffffffffffffffffffffffffffffffffffffffff168152602001908152602001600020600082825401925050819055506145836004603e54614bca90919063ffffffff16565b603c6000604160009054906101000a900473ffffffffffffffffffffffffffffffffffffffff1673ffffffffffffffffffffffffffffffffffffffff1673ffffffffffffffffffffffffffffffffffffffff168152602001908152602001600020600082825401925050819055506146076004603e54614bca90919063ffffffff16565b603c600060246000856000191660001916815260200190815260200160002060009054906101000a900473ffffffffffffffffffffffffffffffffffffffff1673ffffffffffffffffffffffffffffffffffffffff1673ffffffffffffffffffffffffffffffffffffffff1681526020019081526020016000206000828254019250508190555061489b565b61471c6146ac6003603e54614bca90919063ffffffff16565b603c6000604260009054906101000a900473ffffffffffffffffffffffffffffffffffffffff1673ffffffffffffffffffffffffffffffffffffffff1673ffffffffffffffffffffffffffffffffffffffff1681526020019081526020016000205461369a90919063ffffffff16565b603c6000604260009054906101000a900473ffffffffffffffffffffffffffffffffffffffff1673ffffffffffffffffffffffffffffffffffffffff1673ffffffffffffffffffffffffffffffffffffffff168152602001908152602001600020819055506147976003603e54614bca90919063ffffffff16565b603c6000603b600087815260200190815260200160002060009054906101000a900473ffffffffffffffffffffffffffffffffffffffff1673ffffffffffffffffffffffffffffffffffffffff1673ffffffffffffffffffffffffffffffffffffffff1681526020019081526020016000206000828254019250508190555061482c6003603e54614bca90919063ffffffff16565b603c6000604160009054906101000a900473ffffffffffffffffffffffffffffffffffffffff1673ffffffffffffffffffffffffffffffffffffffff1673ffffffffffffffffffffffffffffffffffffffff168152602001908152602001600020600082825401925050819055505b505050565b34601a600083815260200190815260200160002060003373ffffffffffffffffffffffffffffffffffffffff1673ffffffffffffffffffffffffffffffffffffffff1681526020019081526020016000206000828254019250508190555034601b60003373ffffffffffffffffffffffffffffffffffffffff1673ffffffffffffffffffffffffffffffffffffffff16815260200190815260200160002060008282540192505081905550670de0b6b3a7640000601a600083815260200190815260200160002060003373ffffffffffffffffffffffffffffffffffffffff1673ffffffffffffffffffffffffffffffffffffffff16815260200190815260200160002054101515614a16576001601c600083815260200190815260200160002060003373ffffffffffffffffffffffffffffffffffffffff1673ffffffffffffffffffffffffffffffffffffffff16815260200190815260200160002060006101000a81548160ff0219169083151502179055505b50565b670de0b6b3a7640000601a600083815260200190815260200160002060003373ffffffffffffffffffffffffffffffffffffffff1673ffffffffffffffffffffffffffffffffffffffff16815260200190815260200160002054811515614a7c57fe5b04601d600083815260200190815260200160002060003373ffffffffffffffffffffffffffffffffffffffff1673ffffffffffffffffffffffffffffffffffffffff16815260200190815260200160002081905550678ac7230489e80000601a600083815260200190815260200160002060003373ffffffffffffffffffffffffffffffffffffffff1673ffffffffffffffffffffffffffffffffffffffff16815260200190815260200160002054101515614b8957600a601d600083815260200190815260200160002060003373ffffffffffffffffffffffffffffffffffffffff1673ffffffffffffffffffffffffffffffffffffffff168152602001908152602001600020819055505b50565b6000806000841415614ba15760009150614bc3565b8284029050828482811515614bb257fe5b04141515614bbf57600080fd5b8091505b5092915050565b600080600083111515614bdc57600080fd5b8284811515614be757fe5b0490508091505092915050565b600073ffffffffffffffffffffffffffffffffffffffff168173ffffffffffffffffffffffffffffffffffffffff1614151515614c3057600080fd5b8073ffffffffffffffffffffffffffffffffffffffff166000809054906101000a900473ffffffffffffffffffffffffffffffffffffffff1673ffffffffffffffffffffffffffffffffffffffff167f8be0079c531659141344cd1fd0a4f28419497f9722a3daafe3b4186f6b6457e060405160405180910390a3806000806101000a81548173ffffffffffffffffffffffffffffffffffffffff021916908373ffffffffffffffffffffffffffffffffffffffff16021790555050565b600080614d186001601760008681526020019081526020016000205461369a90919063ffffffff16565b9150605a60156000858152602001908152602001600020600060016017600088815260200190815260200160002054038152602001908152602001600020544203101515614fe457601360008481526020019081526020016000206000601760008681526020019081526020016000205481526020019081526020016000205490506000151560166000858152602001908152602001600020600084815260200190815260200160002060009054906101000a900460ff1615151415614e7c57614ded8160285461506e90919063ffffffff16565b601360008581526020019081526020016000206000848152602001908152602001600020819055504260146000858152602001908152602001600020600084815260200190815260200160002081905550600160166000858152602001908152602001600020600084815260200190815260200160002060006101000a81548160ff0219169083151502179055505b600160136000858152602001908152602001600020600060176000878152602001908152602001600020548152602001908152602001600020541415614f0257614ec58361508f565b4260156000858152602001908152602001600020600060176000878152602001908152602001600020548152602001908152602001600020819055505b600060136000858152602001908152602001600020600060176000878152602001908152602001600020548152602001908152602001600020541415614fdf57601960008481526020019081526020016000205460186000858152602001908152602001600020819055506000601360008581526020019081526020016000206000848152602001908152602001600020541415614fc657602854601360008581526020019081526020016000206000848152602001908152602001600020819055505b8160176000858152602001908152602001600020819055505b615069565b60006013600085815260200190815260200160002060006017600087815260200190815260200160002054815260200190815260200160002054141561506857602854601360008581526020019081526020016000206000848152602001908152602001600020819055508160176000858152602001908152602001600020819055505b5b505050565b60008083831115151561508057600080fd5b82840390508091505092915050565b6150c960646150bb60696018600086815260200190815260200160002054614b8c90919063ffffffff16565b614bca90919063ffffffff16565b601960008381526020019081526020016000208190555060186000828152602001908152602001600020547f3bb22f778670a5901bff4d41c425858dac1ea6aeb048d40f959a6bc43f98506160405160405180910390a2505600a165627a7a723058206dc61b502c75fe40a927870a3ecb520afd2338a7e28495fad3f5a2a3318404c40029",
  "source": "pragma solidity ^0.4.24;\nimport \"./PaintsPool.sol\";\nimport \"./PaintDiscount.sol\";\nimport \"./Modifiers.sol\";\nimport \"./Utils.sol\";\n\ncontract Game is PaintDiscount, PaintsPool, Modifiers {\n    using SafeMath for uint;\n\n     //      \n    function estimateCallPrice(uint[] _pixels, uint _color) public view returns (uint totalCallPrice) {\n\n        uint moneySpent = moneySpentByUserForColor[_color][msg.sender];\n        bool hasDiscount = hasPaintDiscountForColor[_color][msg.sender];\n        uint discount = usersPaintDiscountForColor[_color][msg.sender];\n        \n        for (uint i = 0; i < _pixels.length; i++) {\n            \n            uint discountCallPrice = (nextCallPriceForColor[_color].mul(100 - discount)).div(100);\n            \n            if (hasDiscount == true) \n                uint price = discountCallPrice;\n            else\n                price = nextCallPriceForColor[_color]; \n\n            totalCallPrice += price;\n            moneySpent += price;\n\n            if (moneySpent >= 1 ether) {\n                \n                hasDiscount = true;\n                discount = moneySpent / 1 ether;\n                \n                if (moneySpent >= 10 ether)\n                    discount = 10;\n            }\n            \n        }   \n    }\n\n    function drawTimeBank() public {\n\n        uint lastPaintTime = lastPaintTimeForRound[currentRound];\n        require ((now - lastPaintTime) > 20 minutes && lastPaintTime != 0, \"20 minutes have not passed yet.\");\n\n        //    \n        //   -       \n        winnerOfRound[currentRound] = lastPainterForRound[currentRound];\n\n        //    =   (1)\n        winnerBankForRound[currentRound] = 1; \n        //10%      \n        timeBankForRound[currentRound + 1] = timeBankForRound[currentRound].div(10); \n        //45%        \n        timeBankForRound[currentRound] = timeBankForRound[currentRound].mul(45).div(100); \n        //     \n        colorBankForRound[currentRound + 1] = colorBankForRound[currentRound]; \n        //     \n        colorBankForRound[currentRound] = 0; \n        // -     (, )\n        emit TimeBankPlayed(winnerOfRound[currentRound], currentRound);\n\n        isTBPDistributable = true;\n        isGamePaused = true;\n        timeBankDrawnForRound[currentRound] = true;\n\n    }\n\n    \n    function paint(uint[] _pixels, uint _color, string _refLink) external payable isRegistered(_refLink) isLiveGame() {\n\n        require(msg.value == estimateCallPrice(_pixels, _color), \"Wrong call price\");\n        require(_color > 0 && _color <= totalColorsNumber, \"The color with such id does not exist.\"); \n\n        // bytes32 refLink32 = Utils.toBytes32(_refLink);\n        // require(keccak256(abi.encodePacked(_refLink)) == keccak256(abi.encodePacked()) || refLinkExists[refLink32] == true, \"No such referral link exists.\");\n        \n       //    20        \n        if ((now - lastPaintTimeForRound[currentRound]) > 20 minutes && \n            lastPaintTimeForRound[currentRound] != 0 && \n            timeBankDrawnForRound[currentRound] == false) {\n\n            drawTimeBank();\n\n        }\n        \n        else {\n            //   \n            _setBanks(_color);\n\n            // \n            for (uint i = 0; i < _pixels.length; i++) {\n                _paint(_pixels[i], _color);\n            }\n            \n            //  ( ) \n            _distributeDividends(_color, _refLink);\n        \n            //         \n            _setMoneySpentByUserForColor(_color); \n            \n            //         \n            _setUsersPaintDiscountForColor(_color);\n\n            if (paintsCounterForColor[_color] == 0) {\n                paintGenToEndTimeForColor[_color][currentPaintGenForColor[_color] - 1] = now;\n            }\n\n            paintsCounter++; //   \n            paintsCounterForColor[_color] ++; //   \n            counterToPainter[paintsCounter] = msg.sender; //  => \n            counterToPainterForColor[_color][paintsCounterForColor[_color]] = msg.sender; //    => \n\n            if (isUserCountedForRound[currentRound][msg.sender] == false) {\n                usersCounterForRound[currentRound] = usersCounterForRound[currentRound].add(1);\n                isUserCountedForRound[currentRound][msg.sender] = true;\n            }\n        }\n\n    }   \n\n    //   \n    function _paint(uint _pixel, uint _color) internal {\n\n        //          paint\n        _fillPaintsPool(_color);\n\n        require(_pixel > 0 && _pixel <= totalPixelsNumber, \"The pixel with such id does not exist.\");\n\n        require(pixelToColorForRound[currentRound][_pixel] != _color, \"This pixel is already of this color.\");\n \n        //    \n        uint oldColor = pixelToColorForRound[currentRound][_pixel];\n    \n        //   \n        pixelToColorForRound[currentRound][_pixel] = _color; \n            \n        //c    \n        pixelToOldColorForRound[currentRound][_pixel] = oldColor; \n                \n        //         \n        lastPaintTimeForRound[currentRound] = now; \n    \n        //          \n        lastPainterForRound[currentRound] = msg.sender;\n                \n        //    ,   \n        if (colorToPaintedPixelsAmountForRound[currentRound][oldColor] > 0) \n            colorToPaintedPixelsAmountForRound[currentRound][oldColor] = colorToPaintedPixelsAmountForRound[currentRound][oldColor].sub(1); \n    \n        //   ,   \n        colorToPaintedPixelsAmountForRound[currentRound][_color] = colorToPaintedPixelsAmountForRound[currentRound][_color].add(1); \n\n        //          \n        colorToTotalPaintsForCBIteration[cbIteration][_color] = colorToTotalPaintsForCBIteration[cbIteration][_color].add(1);\n\n        //         \n        totalPaintsForRound[currentRound] = totalPaintsForRound[currentRound].add(1); \n\n        pixelToPaintTimeForRound[currentRound][_pixel] = now;\n\n        //        24 ,       \n        if (lastPaintTimeOfUser[msg.sender] != 0 && now - lastPaintTimeOfUser[msg.sender] < 24 hours) \n            timeBankShare[tbIteration][msg.sender]++;\n            \n        else    \n            timeBankShare[tbIteration][msg.sender] = 1;\n\n        //        24 ,       \n        if (lastPaintTimeOfUserForColor[_color][msg.sender] != 0 && now - lastPaintTimeOfUserForColor[_color][msg.sender] < 24 hours) \n            colorBankShare[cbIteration][_color][msg.sender]++;\n\n        else \n            colorBankShare[cbIteration][_color][msg.sender] = 1;\n\n        lastPaintTimeOfUser[msg.sender] = now;\n        lastPaintTimeOfUserForColor[_color][msg.sender] = now;\n                \n        //     1  \n        paintGenToAmountForColor[_color][currentPaintGenForColor[_color]] = paintGenToAmountForColor[_color][currentPaintGenForColor[_color]].sub(1);\n        \n        //      \n        lastPaintedPixelForRound[currentRound] = _pixel;\n        \n        // -   (, ,  )\n        emit Paint(_pixel, _color, msg.sender, currentRound, now);    \n\n        //         \n        lastPlayedRound[msg.sender] = currentRound;\n            \n        //            \n        if (colorToPaintedPixelsAmountForRound[currentRound][_color] == totalPixelsNumber) {\n\n            //    \n            winnerColorForRound[currentRound] = _color;\n\n            //    \n            winnerOfRound[currentRound] = lastPainterForRound[currentRound];        \n            \n            winnerBankForRound[currentRound] = 2;//    =   (2)\n\n            //50%       \n            colorBankForRound[currentRound] = colorBankForRound[currentRound].div(2);\n\n            timeBankForRound[currentRound + 1] = timeBankForRound[currentRound];//     \n            timeBankForRound[currentRound] = 0;//           \n            emit ColorBankPlayed(winnerOfRound[currentRound], currentRound);  \n            \n            isGamePaused = true;\n            isCBPDistributable = true;\n            //distributeCBP();\n        }\n    }\n\n    //  \n    function _setBanks(uint _color) private {\n        \n        colorBankToColorForRound[currentRound][_color] = colorBankToColorForRound[currentRound][_color].add(msg.value.mul(40).div(100));\n\n        //40%     \n        colorBankForRound[currentRound] = colorBankForRound[currentRound].add(msg.value.mul(40).div(100));\n\n        //40%     \n        timeBankForRound[currentRound] = timeBankForRound[currentRound].add(msg.value.mul(40).div(100));\n\n        //20%      \n        dividendsBank = dividendsBank.add(msg.value.div(5)); \n    }\n\n    //   ( ) -         \n    function _distributeDividends(uint _color, string _refLink) internal {\n        \n        //require(ownerOfColor[_color] != address(0), \"There is no such color\");\n        bytes32 refLink32 = Utils.toBytes32(_refLink);\n    \n        //if no reflink provided\n        if (refLinkExists[refLink32] == true) { \n\n            //25%    (   )\n            pendingWithdrawals[founders] = pendingWithdrawals[founders].add(dividendsBank.div(4)); \n\n            //25%    \n            pendingWithdrawals[ownerOfColor[_color]] += dividendsBank.div(4);\n\n            pendingWithdrawals[ownerOfPixel] += dividendsBank.div(4);\n\n            //25%   \n            pendingWithdrawals[refLinkToUser[refLink32]] += dividendsBank.div(4);\n        }\n\n        else {\n\n            pendingWithdrawals[founders] = pendingWithdrawals[founders].add(dividendsBank.div(3)); \n            pendingWithdrawals[ownerOfColor[_color]] += dividendsBank.div(3);\n            pendingWithdrawals[ownerOfPixel] += dividendsBank.div(3);\n        }\n    }\n\n    modifier isRegistered(string _refLink) {\n        //    \n        if (isRegisteredUser[msg.sender] != true) {\n            bytes32 refLink32 = Utils.toBytes32(_refLink);\n            //      \n            if (refLinkExists[refLink32]) { \n                address referrer = refLinkToUser[refLink32];\n                referrerToReferrals[referrer].push(msg.sender);\n                referralToReferrer[msg.sender] = referrer;\n                hasReferrer[msg.sender] = true;\n            }\n            uniqueUsersCount = uniqueUsersCount.add(1);\n            newUserToCounter[msg.sender] = uniqueUsersCount;\n            registrationTimeForUser[msg.sender] = now;\n            isRegisteredUser[msg.sender] = true;\n        }\n        _;\n    }\n\n}",
  "sourcePath": "/Users/Amir/last-pixel/last-pixel-contracts/contracts/Game.sol",
  "compiler": {
    "name": "solc",
    "version": "0.4.25+commit.59dbf8f1.Emscripten.clang"
  },
  "schemaVersion": "2.0.2",
  "updatedAt": "2019-03-28T03:00:17.489Z"
}