{
  "contractName": "PaintDiscount",
  "abi": [
    {
      "constant": true,
      "inputs": [
        {
          "name": "",
          "type": "uint256"
        },
        {
          "name": "",
          "type": "address"
        }
      ],
      "name": "hasPaintDiscountForColor",
      "outputs": [
        {
          "name": "",
          "type": "bool"
        }
      ],
      "payable": false,
      "stateMutability": "view",
      "type": "function"
    },
    {
      "constant": true,
      "inputs": [
        {
          "name": "",
          "type": "uint256"
        },
        {
          "name": "",
          "type": "address"
        }
      ],
      "name": "moneySpentByUserForColor",
      "outputs": [
        {
          "name": "",
          "type": "uint256"
        }
      ],
      "payable": false,
      "stateMutability": "view",
      "type": "function"
    },
    {
      "constant": true,
      "inputs": [
        {
          "name": "",
          "type": "uint256"
        },
        {
          "name": "",
          "type": "address"
        }
      ],
      "name": "usersPaintDiscountForColor",
      "outputs": [
        {
          "name": "",
          "type": "uint256"
        }
      ],
      "payable": false,
      "stateMutability": "view",
      "type": "function"
    }
  ],
  "bytecode": "0x608060405234801561001057600080fd5b50610228806100206000396000f300608060405260043610610057576000357c0100000000000000000000000000000000000000000000000000000000900463ffffffff1680631f90c6ed1461005c5780632c6c1c41146100c1578063eaf1c91014610122575b600080fd5b34801561006857600080fd5b506100a760048036038101908080359060200190929190803573ffffffffffffffffffffffffffffffffffffffff169060200190929190505050610183565b604051808215151515815260200191505060405180910390f35b3480156100cd57600080fd5b5061010c60048036038101908080359060200190929190803573ffffffffffffffffffffffffffffffffffffffff1690602001909291905050506101b2565b6040518082815260200191505060405180910390f35b34801561012e57600080fd5b5061016d60048036038101908080359060200190929190803573ffffffffffffffffffffffffffffffffffffffff1690602001909291905050506101d7565b6040518082815260200191505060405180910390f35b60016020528160005260406000206020528060005260406000206000915091509054906101000a900460ff1681565b6000602052816000526040600020602052806000526040600020600091509150505481565b60026020528160005260406000206020528060005260406000206000915091505054815600a165627a7a72305820dd654966bed7a11e24070c18824d0253ed8b76d8e4c5e25901a121549401743b0029",
  "source": "pragma solidity ^0.4.24;\n\nimport \"../node_modules/openzeppelin-solidity/contracts/math/SafeMath.sol\";\n\ncontract PaintDiscount  {\n    \n    using SafeMath for uint;\n    \n    //общее количество денег потраченных пользователем на покупку краски данного цвета\n    mapping (uint => mapping (address => uint)) public moneySpentByUserForColor;\n    \n    //маппинг хранящий булевое значение о том, имеет ли пользователь какую либо скидку на покупку краски определенного цвета\n    mapping (uint => mapping (address => bool)) public hasPaintDiscountForColor;\n    \n    //скидка пользователя на покупку краски определенного цвета (в процентах)\n    mapping (uint => mapping (address => uint)) public usersPaintDiscountForColor;\n    \n    //функция сохраняющая скидку на покупку краски определенного цвета для пользователя\n    function _setUsersPaintDiscountForColor(uint _color) internal {\n        \n        //за каждый потраченный 1 ETH даем скидку 1%\n        usersPaintDiscountForColor[_color][msg.sender] = moneySpentByUserForColor[_color][msg.sender] / 1 ether;\n        \n        //максимальная скидка может равняться 10%\n        if (moneySpentByUserForColor[_color][msg.sender] >= 10 ether)\n            usersPaintDiscountForColor[_color][msg.sender] = 10;\n        \n    }\n    \n    //функция сохраняющая общюю сумму потраченную пользователем на покупку краски определенного цвета за все время\n    function _setMoneySpentByUserForColor(uint _color) internal {\n        \n        moneySpentByUserForColor[_color][msg.sender] += msg.value;\n\n        if (moneySpentByUserForColor[_color][msg.sender] >= 1 ether)\n            hasPaintDiscountForColor[_color][msg.sender] = true;\n    }\n    \n\n    \n}",
  "sourcePath": "/Users/Amir/last-pixel-contracts/contracts/PaintDiscount.sol",
  "compiler": {
    "name": "solc",
    "version": "0.4.24+commit.e67f0147.Emscripten.clang"
  },
  "schemaVersion": "2.0.1",
  "updatedAt": "2018-12-07T04:37:56.779Z"
}