{
  "contractName": "PaintsPool",
  "abi": [
    {
      "constant": true,
      "inputs": [
        {
          "name": "",
          "type": "uint256"
        }
      ],
      "name": "currentPaintGenForColor",
      "outputs": [
        {
          "name": "",
          "type": "uint256"
        }
      ],
      "payable": false,
      "stateMutability": "view",
      "type": "function"
    },
    {
      "constant": true,
      "inputs": [
        {
          "name": "",
          "type": "uint256"
        },
        {
          "name": "",
          "type": "uint256"
        }
      ],
      "name": "paintGenToStartTimeForColor",
      "outputs": [
        {
          "name": "",
          "type": "uint256"
        }
      ],
      "payable": false,
      "stateMutability": "view",
      "type": "function"
    },
    {
      "constant": true,
      "inputs": [
        {
          "name": "",
          "type": "uint256"
        }
      ],
      "name": "callPriceForColor",
      "outputs": [
        {
          "name": "",
          "type": "uint256"
        }
      ],
      "payable": false,
      "stateMutability": "view",
      "type": "function"
    },
    {
      "constant": true,
      "inputs": [
        {
          "name": "",
          "type": "uint256"
        },
        {
          "name": "",
          "type": "uint256"
        }
      ],
      "name": "paintGenStartedForColor",
      "outputs": [
        {
          "name": "",
          "type": "bool"
        }
      ],
      "payable": false,
      "stateMutability": "view",
      "type": "function"
    },
    {
      "constant": true,
      "inputs": [
        {
          "name": "",
          "type": "uint256"
        }
      ],
      "name": "totalPaintsForRound",
      "outputs": [
        {
          "name": "",
          "type": "uint256"
        }
      ],
      "payable": false,
      "stateMutability": "view",
      "type": "function"
    },
    {
      "constant": true,
      "inputs": [
        {
          "name": "",
          "type": "uint256"
        },
        {
          "name": "",
          "type": "uint256"
        }
      ],
      "name": "paintGenToEndTimeForColor",
      "outputs": [
        {
          "name": "",
          "type": "uint256"
        }
      ],
      "payable": false,
      "stateMutability": "view",
      "type": "function"
    },
    {
      "constant": true,
      "inputs": [
        {
          "name": "",
          "type": "uint256"
        },
        {
          "name": "",
          "type": "uint256"
        }
      ],
      "name": "paintGenToAmountForColor",
      "outputs": [
        {
          "name": "",
          "type": "uint256"
        }
      ],
      "payable": false,
      "stateMutability": "view",
      "type": "function"
    },
    {
      "constant": true,
      "inputs": [],
      "name": "maxPaintsInPool",
      "outputs": [
        {
          "name": "",
          "type": "uint256"
        }
      ],
      "payable": false,
      "stateMutability": "view",
      "type": "function"
    },
    {
      "anonymous": false,
      "inputs": [
        {
          "indexed": true,
          "name": "newCallPrice",
          "type": "uint256"
        }
      ],
      "name": "CallPriceUpdated",
      "type": "event"
    }
  ],
  "bytecode": "0x608060405234801561001057600080fd5b506103c9806100206000396000f30060806040526004361061008e576000357c0100000000000000000000000000000000000000000000000000000000900463ffffffff16806328361f57146100935780633a173505146100d45780633c6dd0131461011f5780635f5d554c14610160578063be7d6226146101af578063c957387b146101f0578063d5de47c71461023b578063eef565da14610286575b600080fd5b34801561009f57600080fd5b506100be600480360381019080803590602001909291905050506102b1565b6040518082815260200191505060405180910390f35b3480156100e057600080fd5b5061010960048036038101908080359060200190929190803590602001909291905050506102c9565b6040518082815260200191505060405180910390f35b34801561012b57600080fd5b5061014a600480360381019080803590602001909291905050506102ee565b6040518082815260200191505060405180910390f35b34801561016c57600080fd5b506101956004803603810190808035906020019092919080359060200190929190505050610306565b604051808215151515815260200191505060405180910390f35b3480156101bb57600080fd5b506101da60048036038101908080359060200190929190505050610335565b6040518082815260200191505060405180910390f35b3480156101fc57600080fd5b50610225600480360381019080803590602001909291908035906020019092919050505061034d565b6040518082815260200191505060405180910390f35b34801561024757600080fd5b506102706004803603810190808035906020019092919080359060200190929190505050610372565b6040518082815260200191505060405180910390f35b34801561029257600080fd5b5061029b610397565b6040518082815260200191505060405180910390f35b60056020528060005260406000206000915090505481565b6002602052816000526040600020602052806000526040600020600091509150505481565b60066020528060005260406000206000915090505481565b60046020528160005260406000206020528060005260406000206000915091509054906101000a900460ff1681565b60006020528060005260406000206000915090505481565b6003602052816000526040600020602052806000526040600020600091509150505481565b6001602052816000526040600020602052806000526040600020600091509150505481565b600754815600a165627a7a7230582063fd487b046c9df3e13213c70729bb2fb38b7170fda3469b0eb9d033075a0da90029",
  "source": "pragma solidity ^0.4.24;\n\nimport \"../node_modules/openzeppelin-solidity/contracts/math/SafeMath.sol\";\n\ncontract PaintsPool  {\n    \n    using SafeMath for uint;\n    \n    mapping (uint => uint) public totalPaintsForRound;\n        \n     //поколение краски на ее количество\n    mapping (uint => mapping (uint => uint)) public paintGenToAmountForColor;\n    \n    //время когда краска определенного поколения добавилась в пул\n    mapping (uint => mapping (uint => uint)) public paintGenToStartTimeForColor;\n    \n    //время когда краска определенного поколения закончилась в пуле\n    mapping (uint => mapping (uint => uint)) public paintGenToEndTimeForColor;\n    \n    //булевое значение - о том что, поколение краски началось\n    mapping (uint => mapping (uint => bool)) public paintGenStartedForColor;\n\n    //текущее поколение краски которое расходуется в данный момент\n    mapping (uint => uint) public currentPaintGenForColor;\n    \n    //стоимость вызова функции paint\n    mapping (uint => uint) public callPriceForColor;\n    \n    //количество единиц краски в общем пуле (10000)\n    uint public maxPaintsInPool;\n    \n    event CallPriceUpdated(uint indexed newCallPrice);\n\n    //функция обновления цены вызова функции закрашивания (paint)\n    function _updateCallPrice(uint _color) private {\n        \n        //увеличиваем цену вызова на 5%\n        callPriceForColor[_color] = callPriceForColor[_color].mul(105).div(100);\n    }\n    \n    //функция пополнения пула краски\n    function _fillPaintsPool(uint _color) internal {\n        \n        //каждые полторы минуты пул дополняется новой краской\n        if (now - paintGenToEndTimeForColor[_color][currentPaintGenForColor[_color] - 1] >= 15 seconds) { \n            \n            //сколько краски остается в поколении\n            uint paintsRemain = paintGenToAmountForColor[_color][currentPaintGenForColor[_color]]; \n            \n            //следующее поколение краски\n            uint nextPaintGen = currentPaintGenForColor[_color].add(1); \n            \n            //если прошло полторы минуты и след. поколение краски все еще не создано     \n            if (paintGenStartedForColor[_color][nextPaintGen] == false) {\n                \n                //создаем новое поколение краски на недостающее количество единиц\n                paintGenToAmountForColor[_color][nextPaintGen] = maxPaintsInPool.sub(paintsRemain); \n                \n                //новое поколение создалось сейчас\n                paintGenToStartTimeForColor[_color][nextPaintGen] = now; \n\n                paintGenStartedForColor[_color][nextPaintGen] = true;\n            }\n            \n            //как только не осталось краски текущего поколения\n            if (paintGenToAmountForColor[_color][currentPaintGenForColor[_color]] == 0) {\n                \n                //обновляем цену вызова закрашивания краской следующего поколения\n                _updateCallPrice(_color);\n\n                //вызываем ивент о том, что цена вызова функции paint обновлена\n                emit CallPriceUpdated(callPriceForColor[_color]);\n                \n                //краска текущего поколения закончилась сейчас\n                paintGenToEndTimeForColor[_color][currentPaintGenForColor[_color]] = now;\n\n                //переходим на использование следующего поколения краски\n                currentPaintGenForColor[_color] = nextPaintGen;\n            }\n        }\n    }\n}",
  "sourcePath": "/Users/Amir/last-pixel-contracts/contracts/PaintsPool.sol",
  "compiler": {
    "name": "solc",
    "version": "0.4.24+commit.e67f0147.Emscripten.clang"
  },
  "schemaVersion": "2.0.1",
  "updatedAt": "2018-11-28T12:37:22.335Z"
}