{
  "contractName": "Pixel",
  "abi": [
    {
      "constant": true,
      "inputs": [
        {
          "name": "_tokenId",
          "type": "uint256"
        }
      ],
      "name": "ownerOf",
      "outputs": [
        {
          "name": "",
          "type": "address"
        }
      ],
      "payable": false,
      "stateMutability": "view",
      "type": "function"
    }
  ],
  "bytecode": "0x608060405234801561001057600080fd5b5060e48061001f6000396000f300608060405260043610603f576000357c0100000000000000000000000000000000000000000000000000000000900463ffffffff1680636352211e146044575b600080fd5b348015604f57600080fd5b50606c6004803603810190808035906020019092919050505060ae565b604051808273ffffffffffffffffffffffffffffffffffffffff1673ffffffffffffffffffffffffffffffffffffffff16815260200191505060405180910390f35b60008090509190505600a165627a7a7230582076f5e4877e584ca7379d5e6bf81a722b20e5bfab94240a9112fcc35b0d60ece90029",
  "source": "pragma solidity ^0.4.24;\n\ncontract Pixel {\n\n    function ownerOf(uint _tokenId) external view returns (address) {\n        return address(0);\n    }\n}",
  "sourcePath": "/Users/Amir/last-pixel-contracts/contracts/mock/PixelNFTMock.sol",
  "compiler": {
    "name": "solc",
    "version": "0.4.25+commit.59dbf8f1.Emscripten.clang"
  },
  "schemaVersion": "2.0.2",
  "updatedAt": "2019-02-07T12:06:45.027Z"
}