{
  "contractName": "Referral",
  "abi": [
    {
      "constant": true,
      "inputs": [
        {
          "name": "",
          "type": "bytes32"
        }
      ],
      "name": "refLinkToUser",
      "outputs": [
        {
          "name": "",
          "type": "address"
        }
      ],
      "payable": false,
      "stateMutability": "view",
      "type": "function"
    },
    {
      "constant": true,
      "inputs": [
        {
          "name": "",
          "type": "address"
        }
      ],
      "name": "hasReferrer",
      "outputs": [
        {
          "name": "",
          "type": "bool"
        }
      ],
      "payable": false,
      "stateMutability": "view",
      "type": "function"
    },
    {
      "constant": true,
      "inputs": [
        {
          "name": "",
          "type": "address"
        }
      ],
      "name": "isRegisteredUser",
      "outputs": [
        {
          "name": "",
          "type": "bool"
        }
      ],
      "payable": false,
      "stateMutability": "view",
      "type": "function"
    },
    {
      "constant": true,
      "inputs": [
        {
          "name": "",
          "type": "address"
        }
      ],
      "name": "newUserToCounter",
      "outputs": [
        {
          "name": "",
          "type": "uint256"
        }
      ],
      "payable": false,
      "stateMutability": "view",
      "type": "function"
    },
    {
      "constant": true,
      "inputs": [
        {
          "name": "",
          "type": "address"
        }
      ],
      "name": "userToRefLink",
      "outputs": [
        {
          "name": "",
          "type": "string"
        }
      ],
      "payable": false,
      "stateMutability": "view",
      "type": "function"
    },
    {
      "constant": true,
      "inputs": [
        {
          "name": "",
          "type": "address"
        }
      ],
      "name": "hasRefLink",
      "outputs": [
        {
          "name": "",
          "type": "bool"
        }
      ],
      "payable": false,
      "stateMutability": "view",
      "type": "function"
    },
    {
      "constant": true,
      "inputs": [],
      "name": "uniqueUsersCount",
      "outputs": [
        {
          "name": "",
          "type": "uint256"
        }
      ],
      "payable": false,
      "stateMutability": "view",
      "type": "function"
    },
    {
      "constant": true,
      "inputs": [
        {
          "name": "",
          "type": "bytes32"
        }
      ],
      "name": "refLinkExists",
      "outputs": [
        {
          "name": "",
          "type": "bool"
        }
      ],
      "payable": false,
      "stateMutability": "view",
      "type": "function"
    },
    {
      "constant": true,
      "inputs": [
        {
          "name": "",
          "type": "address"
        }
      ],
      "name": "referralToReferrer",
      "outputs": [
        {
          "name": "",
          "type": "address"
        }
      ],
      "payable": false,
      "stateMutability": "view",
      "type": "function"
    },
    {
      "constant": false,
      "inputs": [
        {
          "name": "_refLink",
          "type": "string"
        }
      ],
      "name": "registerWithRefLink",
      "outputs": [],
      "payable": false,
      "stateMutability": "nonpayable",
      "type": "function"
    },
    {
      "constant": false,
      "inputs": [],
      "name": "register",
      "outputs": [],
      "payable": false,
      "stateMutability": "nonpayable",
      "type": "function"
    },
    {
      "constant": false,
      "inputs": [
        {
          "name": "_refLink",
          "type": "string"
        }
      ],
      "name": "buyRefLink",
      "outputs": [],
      "payable": true,
      "stateMutability": "payable",
      "type": "function"
    },
    {
      "constant": true,
      "inputs": [
        {
          "name": "_string",
          "type": "string"
        }
      ],
      "name": "toBytes32",
      "outputs": [
        {
          "name": "",
          "type": "bytes16"
        }
      ],
      "payable": false,
      "stateMutability": "pure",
      "type": "function"
    }
  ],
  "bytecode": "0x608060405234801561001057600080fd5b50611411806100206000396000f3006080604052600436106100c5576000357c0100000000000000000000000000000000000000000000000000000000900463ffffffff168063099b81ce146100ca57806318452cd81461013b5780631aa3a008146101965780631f5bdf5d146101ad57806327df8f2a1461020857806341c5464e146102ab5780635bfcdb2714610302578063642f895b146103be5780636e8fa2a8146103f95780637e1e175c14610427578063c9f8234f14610482578063d4526e68146104ad578063deaf0fa1146104f6575b600080fd5b3480156100d657600080fd5b506100f96004803603810190808035600019169060200190929190505050610579565b604051808273ffffffffffffffffffffffffffffffffffffffff1673ffffffffffffffffffffffffffffffffffffffff16815260200191505060405180910390f35b34801561014757600080fd5b5061017c600480360381019080803573ffffffffffffffffffffffffffffffffffffffff1690602001909291905050506105ac565b604051808215151515815260200191505060405180910390f35b3480156101a257600080fd5b506101ab6105cc565b005b3480156101b957600080fd5b506101ee600480360381019080803573ffffffffffffffffffffffffffffffffffffffff16906020019092919050505061074f565b604051808215151515815260200191505060405180910390f35b34801561021457600080fd5b5061026f600480360381019080803590602001908201803590602001908080601f016020809104026020016040519081016040528093929190818152602001838380828437820191505050505050919291929050505061076f565b60405180826fffffffffffffffffffffffffffffffff19166fffffffffffffffffffffffffffffffff1916815260200191505060405180910390f35b3480156102b757600080fd5b506102ec600480360381019080803573ffffffffffffffffffffffffffffffffffffffff169060200190929190505050610782565b6040518082815260200191505060405180910390f35b34801561030e57600080fd5b50610343600480360381019080803573ffffffffffffffffffffffffffffffffffffffff16906020019092919050505061079a565b6040518080602001828103825283818151815260200191508051906020019080838360005b83811015610383578082015181840152602081019050610368565b50505050905090810190601f1680156103b05780820380516001836020036101000a031916815260200191505b509250505060405180910390f35b3480156103ca57600080fd5b506103f760048036038101908080359060200190820180359060200191909192939192939050505061084a565b005b610425600480360381019080803590602001908201803590602001919091929391929390505050610d49565b005b34801561043357600080fd5b50610468600480360381019080803573ffffffffffffffffffffffffffffffffffffffff1690602001909291905050506112a6565b604051808215151515815260200191505060405180910390f35b34801561048e57600080fd5b506104976112c6565b6040518082815260200191505060405180910390f35b3480156104b957600080fd5b506104dc60048036038101908080356000191690602001909291905050506112cc565b604051808215151515815260200191505060405180910390f35b34801561050257600080fd5b50610537600480360381019080803573ffffffffffffffffffffffffffffffffffffffff1690602001909291905050506112ec565b604051808273ffffffffffffffffffffffffffffffffffffffff1673ffffffffffffffffffffffffffffffffffffffff16815260200191505060405180910390f35b60056020528060005260406000206000915054906101000a900473ffffffffffffffffffffffffffffffffffffffff1681565b60036020528060005260406000206000915054906101000a900460ff1681565b600115156000803373ffffffffffffffffffffffffffffffffffffffff1673ffffffffffffffffffffffffffffffffffffffff16815260200190815260200160002060009054906101000a900460ff16151514151515610694576040517f08c379a000000000000000000000000000000000000000000000000000000000815260040180806020018281038252601a8152602001807f596f752061726520616c7265616479207265676973746572656400000000000081525060200191505060405180910390fd5b6106aa600160085461131f90919063ffffffff16565b600881905550600854600760003373ffffffffffffffffffffffffffffffffffffffff1673ffffffffffffffffffffffffffffffffffffffff1681526020019081526020016000208190555060016000803373ffffffffffffffffffffffffffffffffffffffff1673ffffffffffffffffffffffffffffffffffffffff16815260200190815260200160002060006101000a81548160ff021916908315150217905550565b60006020528060005260406000206000915054906101000a900460ff1681565b6000806020830151905080915050919050565b60076020528060005260406000206000915090505481565b60046020528060005260406000206000915090508054600181600116156101000203166002900480601f0160208091040260200160405190810160405280929190818152602001828054600181600116156101000203166002900480156108425780601f1061081757610100808354040283529160200191610842565b820191906000526020600020905b81548152906001019060200180831161082557829003601f168201915b505050505081565b60008083838080601f0160208091040260200160405190810160405280939291908181526020018383808284378201915050505050506004815110151515610920576040517f08c379a00000000000000000000000000000000000000000000000000000000081526004018080602001828103825260228152602001807f526566206c696e6b2073686f756c64206265206f66206c656e677468205b342c81526020017f385d00000000000000000000000000000000000000000000000000000000000081525060400191505060405180910390fd5b60088151111515156109c0576040517f08c379a00000000000000000000000000000000000000000000000000000000081526004018080602001828103825260228152602001807f526566206c696e6b2073686f756c64206265206f66206c656e677468205b342c81526020017f385d00000000000000000000000000000000000000000000000000000000000081525060400191505060405180910390fd5b600115156000803373ffffffffffffffffffffffffffffffffffffffff1673ffffffffffffffffffffffffffffffffffffffff16815260200190815260200160002060009054906101000a900460ff16151514151515610a88576040517f08c379a000000000000000000000000000000000000000000000000000000000815260040180806020018281038252601a8152602001807f596f752061726520616c7265616479207265676973746572656400000000000081525060200191505060405180910390fd5b610ac385858080601f01602080910402602001604051908101604052809392919081815260200183838082843782019150505050505061076f565b6fffffffffffffffffffffffffffffffff1916925060066000846000191660001916815260200190815260200160002060009054906101000a900460ff161515610b75576040517f08c379a00000000000000000000000000000000000000000000000000000000081526004018080602001828103825260158152602001807f496e76616c696420726566657272616c206c696e6b000000000000000000000081525060200191505060405180910390fd5b610b8b600160085461131f90919063ffffffff16565b600881905550600854600760003373ffffffffffffffffffffffffffffffffffffffff1673ffffffffffffffffffffffffffffffffffffffff1681526020019081526020016000208190555060056000846000191660001916815260200190815260200160002060009054906101000a900473ffffffffffffffffffffffffffffffffffffffff16915081600260003373ffffffffffffffffffffffffffffffffffffffff1673ffffffffffffffffffffffffffffffffffffffff16815260200190815260200160002060006101000a81548173ffffffffffffffffffffffffffffffffffffffff021916908373ffffffffffffffffffffffffffffffffffffffff16021790555060016000803373ffffffffffffffffffffffffffffffffffffffff1673ffffffffffffffffffffffffffffffffffffffff16815260200190815260200160002060006101000a81548160ff0219169083151502179055506001600360003373ffffffffffffffffffffffffffffffffffffffff1673ffffffffffffffffffffffffffffffffffffffff16815260200190815260200160002060006101000a81548160ff0219169083151502179055505050505050565b600082828080601f0160208091040260200160405190810160405280939291908181526020018383808284378201915050505050506004815110151515610e1e576040517f08c379a00000000000000000000000000000000000000000000000000000000081526004018080602001828103825260228152602001807f526566206c696e6b2073686f756c64206265206f66206c656e677468205b342c81526020017f385d00000000000000000000000000000000000000000000000000000000000081525060400191505060405180910390fd5b6008815111151515610ebe576040517f08c379a00000000000000000000000000000000000000000000000000000000081526004018080602001828103825260228152602001807f526566206c696e6b2073686f756c64206265206f66206c656e677468205b342c81526020017f385d00000000000000000000000000000000000000000000000000000000000081525060400191505060405180910390fd5b67016345785d8a000034141515610f63576040517f08c379a00000000000000000000000000000000000000000000000000000000081526004018080602001828103825260238152602001807f53657474696e6720726566657272616c206c696e6b20636f73747320302e312081526020017f455448000000000000000000000000000000000000000000000000000000000081525060400191505060405180910390fd5b60001515600160003373ffffffffffffffffffffffffffffffffffffffff1673ffffffffffffffffffffffffffffffffffffffff16815260200190815260200160002060009054906101000a900460ff161515141515611051576040517f08c379a00000000000000000000000000000000000000000000000000000000081526004018080602001828103825260288152602001807f596f75206861766520616c72656164792067656e65726174656420796f75722081526020017f726566206c696e6b00000000000000000000000000000000000000000000000081525060400191505060405180910390fd5b61108c84848080601f01602080910402602001604051908101604052809392919081815260200183838082843782019150505050505061076f565b6fffffffffffffffffffffffffffffffff191691506001151560066000846000191660001916815260200190815260200160002060009054906101000a900460ff1615151415151561116c576040517f08c379a00000000000000000000000000000000000000000000000000000000081526004018080602001828103825260348152602001807f5468697320726566657272616c206c696e6b20616c726561647920657869737481526020017f732c2074727920646966666572656e74206f6e6500000000000000000000000081525060400191505060405180910390fd5b60018060003373ffffffffffffffffffffffffffffffffffffffff1673ffffffffffffffffffffffffffffffffffffffff16815260200190815260200160002060006101000a81548160ff0219169083151502179055508383600460003373ffffffffffffffffffffffffffffffffffffffff1673ffffffffffffffffffffffffffffffffffffffff1681526020019081526020016000209190611211929190611340565b50600160066000846000191660001916815260200190815260200160002060006101000a81548160ff0219169083151502179055503360056000846000191660001916815260200190815260200160002060006101000a81548173ffffffffffffffffffffffffffffffffffffffff021916908373ffffffffffffffffffffffffffffffffffffffff16021790555050505050565b60016020528060005260406000206000915054906101000a900460ff1681565b60085481565b60066020528060005260406000206000915054906101000a900460ff1681565b60026020528060005260406000206000915054906101000a900473ffffffffffffffffffffffffffffffffffffffff1681565b600080828401905083811015151561133657600080fd5b8091505092915050565b828054600181600116156101000203166002900490600052602060002090601f016020900481019282601f1061138157803560ff19168380011785556113af565b828001600101855582156113af579182015b828111156113ae578235825591602001919060010190611393565b5b5090506113bc91906113c0565b5090565b6113e291905b808211156113de5760008160009055506001016113c6565b5090565b905600a165627a7a7230582057db9c458dca8559c040d5c8f539620854e45bc38ee20d7e8d359b14f33cfbd00029",
  "source": "pragma solidity ^0.4.24;\n\nimport \"../node_modules/openzeppelin-solidity/contracts/math/SafeMath.sol\";\n\ncontract Referral {\n    \n    using SafeMath for uint;\n    \n    //зарегистрированный пользователь\n    mapping (address => bool) public isRegisteredUser;\n    \n    //пользователь имеет свою реферальную ссылку (аккредитованный для получения дивидендов рефера)\n    mapping (address => bool) public hasRefLink;\n    \n    //маппинг реферала к реферу\n    mapping (address => address) public referralToReferrer;\n    \n    //маппинг пользователя на наличие рефера\n    mapping (address => bool) public hasReferrer;\n    \n    //маппинг пользователя к его реф ссылке\n    mapping (address => string) public userToRefLink;\n    \n    //маппинг реф ссылки к пользователю - владельцу этой реф ссылки\n    mapping (bytes32 => address) public refLinkToUser;\n    \n    //маппинг проверяющий существование (наличие в базе) реф ссылки\n    mapping (bytes32 => bool) public refLinkExists;\n    \n    //маппинг пользователь к счетчику уникальных зарегистрированных пользователей \n    mapping (address => uint) public newUserToCounter;\n    \n    //счетчик уникальных пользователей\n    uint public uniqueUsersCount;\n    \n    //функция регистрации пользователя с реферальной ссылкой рефера\n    function registerWithRefLink(string _refLink) isValidRefLink(_refLink) external {\n        require(isRegisteredUser[msg.sender] != true, \"You are already registered\");\n        bytes32 refLink = toBytes32(_refLink);\n        require(refLinkExists[refLink], \"Invalid referral link\");\n        uniqueUsersCount = uniqueUsersCount.add(1);\n        newUserToCounter[msg.sender] = uniqueUsersCount;\n        address referrer = refLinkToUser[refLink];\n        referralToReferrer[msg.sender] = referrer;\n        isRegisteredUser[msg.sender] = true;\n        hasReferrer[msg.sender] = true;\n    }\n    \n    //функция регистрации пользователя без реферальной ссылки рефера\n    function register() external  {\n        require(isRegisteredUser[msg.sender] != true, \"You are already registered\");\n        uniqueUsersCount = uniqueUsersCount.add(1);\n        newUserToCounter[msg.sender] = uniqueUsersCount;\n        isRegisteredUser[msg.sender] = true;\n    }\n    \n    //функция для покупки реферальной ссылки для пользователя (длина в диапазоне от 4 до 8 символов)\n    function buyRefLink(string _refLink) isValidRefLink (_refLink) external payable {\n        require(msg.value == 0.1 ether, \"Setting referral link costs 0.1 ETH\");\n        require(hasRefLink[msg.sender] == false, \"You have already generated your ref link\");\n        bytes32 refLink = toBytes32(_refLink);\n        require(refLinkExists[refLink] != true, \"This referral link already exists, try different one\");\n        hasRefLink[msg.sender] = true;\n        userToRefLink[msg.sender] = _refLink;\n        refLinkExists[refLink] = true;\n        refLinkToUser[refLink] = msg.sender;\n    }\n    \n    //модификатор проверяющий длину реф. ссылки (длина должна быть в диапазоне от 4 до 8 символов)\n    modifier isValidRefLink(string _str) {\n        require(bytes(_str).length >= 4, \"Ref link should be of length [4,8]\");\n        require(bytes(_str).length <= 8, \"Ref link should be of length [4,8]\");\n        _;\n    }\n    \n    // convert a string less than 32 characters long to bytes32\n    function toBytes32(string _string) pure public returns (bytes16) {\n        // make sure that the string isn't too long for this function\n        // will work but will cut off the any characters past the 32nd character\n        bytes16 _stringBytes;\n    \n        // simplest way to convert 32 character long string\n        assembly {\n          // load the memory pointer of string with an offset of 32\n          // 32 passes over non-core data parts of string such as length of text\n          _stringBytes := mload(add(_string, 32))\n        }\n    \n        return _stringBytes;\n    }   \n\n}",
  "sourcePath": "/Users/Amir/last-pixel-contracts/contracts/Referral.sol",
  "compiler": {
    "name": "solc",
    "version": "0.4.24+commit.e67f0147.Emscripten.clang"
  },
  "schemaVersion": "2.0.1",
  "updatedAt": "2018-11-28T12:26:18.230Z"
}