{
  "contractName": "Referral",
  "abi": [
    {
      "constant": true,
      "inputs": [
        {
          "name": "",
          "type": "uint256"
        },
        {
          "name": "",
          "type": "address"
        }
      ],
      "name": "isInTBT",
      "outputs": [
        {
          "name": "",
          "type": "bool"
        }
      ],
      "payable": false,
      "stateMutability": "view",
      "type": "function"
    },
    {
      "constant": true,
      "inputs": [
        {
          "name": "",
          "type": "bytes32"
        }
      ],
      "name": "refLinkToUser",
      "outputs": [
        {
          "name": "",
          "type": "address"
        }
      ],
      "payable": false,
      "stateMutability": "view",
      "type": "function"
    },
    {
      "constant": true,
      "inputs": [
        {
          "name": "",
          "type": "uint256"
        },
        {
          "name": "",
          "type": "uint256"
        }
      ],
      "name": "colorToTotalPaintsForRound",
      "outputs": [
        {
          "name": "",
          "type": "uint256"
        }
      ],
      "payable": false,
      "stateMutability": "view",
      "type": "function"
    },
    {
      "constant": true,
      "inputs": [
        {
          "name": "",
          "type": "uint256"
        },
        {
          "name": "",
          "type": "uint256"
        }
      ],
      "name": "colorToPaintedPixelsAmountForRound",
      "outputs": [
        {
          "name": "",
          "type": "uint256"
        }
      ],
      "payable": false,
      "stateMutability": "view",
      "type": "function"
    },
    {
      "constant": true,
      "inputs": [],
      "name": "tbIteration",
      "outputs": [
        {
          "name": "",
          "type": "uint256"
        }
      ],
      "payable": false,
      "stateMutability": "view",
      "type": "function"
    },
    {
      "constant": true,
      "inputs": [
        {
          "name": "",
          "type": "uint256"
        }
      ],
      "name": "winnerOfRound",
      "outputs": [
        {
          "name": "",
          "type": "address"
        }
      ],
      "payable": false,
      "stateMutability": "view",
      "type": "function"
    },
    {
      "constant": true,
      "inputs": [
        {
          "name": "",
          "type": "address"
        }
      ],
      "name": "hasReferrer",
      "outputs": [
        {
          "name": "",
          "type": "bool"
        }
      ],
      "payable": false,
      "stateMutability": "view",
      "type": "function"
    },
    {
      "constant": true,
      "inputs": [
        {
          "name": "",
          "type": "address"
        }
      ],
      "name": "isRegisteredUser",
      "outputs": [
        {
          "name": "",
          "type": "bool"
        }
      ],
      "payable": false,
      "stateMutability": "view",
      "type": "function"
    },
    {
      "constant": true,
      "inputs": [
        {
          "name": "",
          "type": "uint256"
        },
        {
          "name": "",
          "type": "address"
        }
      ],
      "name": "hasPaintDiscountForColor",
      "outputs": [
        {
          "name": "",
          "type": "bool"
        }
      ],
      "payable": false,
      "stateMutability": "view",
      "type": "function"
    },
    {
      "constant": true,
      "inputs": [
        {
          "name": "",
          "type": "uint256"
        }
      ],
      "name": "currentPaintGenForColor",
      "outputs": [
        {
          "name": "",
          "type": "uint256"
        }
      ],
      "payable": false,
      "stateMutability": "view",
      "type": "function"
    },
    {
      "constant": true,
      "inputs": [
        {
          "name": "",
          "type": "address"
        }
      ],
      "name": "lastPlayedRound",
      "outputs": [
        {
          "name": "",
          "type": "uint256"
        }
      ],
      "payable": false,
      "stateMutability": "view",
      "type": "function"
    },
    {
      "constant": true,
      "inputs": [
        {
          "name": "",
          "type": "uint256"
        },
        {
          "name": "",
          "type": "address"
        }
      ],
      "name": "moneySpentByUserForColor",
      "outputs": [
        {
          "name": "",
          "type": "uint256"
        }
      ],
      "payable": false,
      "stateMutability": "view",
      "type": "function"
    },
    {
      "constant": true,
      "inputs": [
        {
          "name": "",
          "type": "uint256"
        },
        {
          "name": "",
          "type": "uint256"
        }
      ],
      "name": "tbTeam",
      "outputs": [
        {
          "name": "",
          "type": "address"
        }
      ],
      "payable": false,
      "stateMutability": "view",
      "type": "function"
    },
    {
      "constant": true,
      "inputs": [
        {
          "name": "",
          "type": "uint256"
        },
        {
          "name": "",
          "type": "address"
        }
      ],
      "name": "painterToTBP",
      "outputs": [
        {
          "name": "",
          "type": "uint256"
        }
      ],
      "payable": false,
      "stateMutability": "view",
      "type": "function"
    },
    {
      "constant": true,
      "inputs": [
        {
          "name": "",
          "type": "uint256"
        },
        {
          "name": "",
          "type": "uint256"
        }
      ],
      "name": "paintGenToStartTimeForColor",
      "outputs": [
        {
          "name": "",
          "type": "uint256"
        }
      ],
      "payable": false,
      "stateMutability": "view",
      "type": "function"
    },
    {
      "constant": true,
      "inputs": [
        {
          "name": "",
          "type": "uint256"
        }
      ],
      "name": "callPriceForColor",
      "outputs": [
        {
          "name": "",
          "type": "uint256"
        }
      ],
      "payable": false,
      "stateMutability": "view",
      "type": "function"
    },
    {
      "constant": true,
      "inputs": [
        {
          "name": "",
          "type": "uint256"
        },
        {
          "name": "",
          "type": "address"
        }
      ],
      "name": "painterToCBP",
      "outputs": [
        {
          "name": "",
          "type": "uint256"
        }
      ],
      "payable": false,
      "stateMutability": "view",
      "type": "function"
    },
    {
      "constant": true,
      "inputs": [
        {
          "name": "",
          "type": "uint256"
        }
      ],
      "name": "winnerBankForRound",
      "outputs": [
        {
          "name": "",
          "type": "uint256"
        }
      ],
      "payable": false,
      "stateMutability": "view",
      "type": "function"
    },
    {
      "constant": true,
      "inputs": [],
      "name": "paintsCounter",
      "outputs": [
        {
          "name": "",
          "type": "uint256"
        }
      ],
      "payable": false,
      "stateMutability": "view",
      "type": "function"
    },
    {
      "constant": true,
      "inputs": [
        {
          "name": "",
          "type": "address"
        }
      ],
      "name": "newUserToCounter",
      "outputs": [
        {
          "name": "",
          "type": "uint256"
        }
      ],
      "payable": false,
      "stateMutability": "view",
      "type": "function"
    },
    {
      "constant": true,
      "inputs": [
        {
          "name": "",
          "type": "uint256"
        },
        {
          "name": "",
          "type": "uint256"
        }
      ],
      "name": "counterToPainterForColor",
      "outputs": [
        {
          "name": "",
          "type": "address"
        }
      ],
      "payable": false,
      "stateMutability": "view",
      "type": "function"
    },
    {
      "constant": true,
      "inputs": [
        {
          "name": "",
          "type": "uint256"
        },
        {
          "name": "",
          "type": "uint256"
        }
      ],
      "name": "pixelToOldColorForRound",
      "outputs": [
        {
          "name": "",
          "type": "uint256"
        }
      ],
      "payable": false,
      "stateMutability": "view",
      "type": "function"
    },
    {
      "constant": true,
      "inputs": [
        {
          "name": "",
          "type": "uint256"
        }
      ],
      "name": "isTBPTransfered",
      "outputs": [
        {
          "name": "",
          "type": "bool"
        }
      ],
      "payable": false,
      "stateMutability": "view",
      "type": "function"
    },
    {
      "constant": true,
      "inputs": [
        {
          "name": "",
          "type": "uint256"
        }
      ],
      "name": "timeBankForRound",
      "outputs": [
        {
          "name": "",
          "type": "uint256"
        }
      ],
      "payable": false,
      "stateMutability": "view",
      "type": "function"
    },
    {
      "constant": true,
      "inputs": [
        {
          "name": "",
          "type": "address"
        }
      ],
      "name": "userToRefLink",
      "outputs": [
        {
          "name": "",
          "type": "string"
        }
      ],
      "payable": false,
      "stateMutability": "view",
      "type": "function"
    },
    {
      "constant": true,
      "inputs": [
        {
          "name": "",
          "type": "uint256"
        },
        {
          "name": "",
          "type": "uint256"
        }
      ],
      "name": "cbTeam",
      "outputs": [
        {
          "name": "",
          "type": "address"
        }
      ],
      "payable": false,
      "stateMutability": "view",
      "type": "function"
    },
    {
      "constant": true,
      "inputs": [
        {
          "name": "",
          "type": "uint256"
        },
        {
          "name": "",
          "type": "uint256"
        }
      ],
      "name": "paintGenStartedForColor",
      "outputs": [
        {
          "name": "",
          "type": "bool"
        }
      ],
      "payable": false,
      "stateMutability": "view",
      "type": "function"
    },
    {
      "constant": true,
      "inputs": [
        {
          "name": "",
          "type": "uint256"
        }
      ],
      "name": "lastPaintedPixelForRound",
      "outputs": [
        {
          "name": "",
          "type": "uint256"
        }
      ],
      "payable": false,
      "stateMutability": "view",
      "type": "function"
    },
    {
      "constant": true,
      "inputs": [
        {
          "name": "",
          "type": "uint256"
        }
      ],
      "name": "nextCallPriceForColor",
      "outputs": [
        {
          "name": "",
          "type": "uint256"
        }
      ],
      "payable": false,
      "stateMutability": "view",
      "type": "function"
    },
    {
      "constant": true,
      "inputs": [
        {
          "name": "",
          "type": "uint256"
        }
      ],
      "name": "lastPaintTimeForRound",
      "outputs": [
        {
          "name": "",
          "type": "uint256"
        }
      ],
      "payable": false,
      "stateMutability": "view",
      "type": "function"
    },
    {
      "constant": true,
      "inputs": [
        {
          "name": "",
          "type": "uint256"
        }
      ],
      "name": "lastPainterForRound",
      "outputs": [
        {
          "name": "",
          "type": "address"
        }
      ],
      "payable": false,
      "stateMutability": "view",
      "type": "function"
    },
    {
      "constant": true,
      "inputs": [
        {
          "name": "",
          "type": "address"
        }
      ],
      "name": "hasRefLink",
      "outputs": [
        {
          "name": "",
          "type": "bool"
        }
      ],
      "payable": false,
      "stateMutability": "view",
      "type": "function"
    },
    {
      "constant": true,
      "inputs": [
        {
          "name": "",
          "type": "address"
        },
        {
          "name": "",
          "type": "uint256"
        }
      ],
      "name": "referrerToReferrals",
      "outputs": [
        {
          "name": "",
          "type": "address"
        }
      ],
      "payable": false,
      "stateMutability": "view",
      "type": "function"
    },
    {
      "constant": true,
      "inputs": [],
      "name": "currentRound",
      "outputs": [
        {
          "name": "",
          "type": "uint256"
        }
      ],
      "payable": false,
      "stateMutability": "view",
      "type": "function"
    },
    {
      "constant": true,
      "inputs": [
        {
          "name": "",
          "type": "uint256"
        }
      ],
      "name": "paintsCounterForColor",
      "outputs": [
        {
          "name": "",
          "type": "uint256"
        }
      ],
      "payable": false,
      "stateMutability": "view",
      "type": "function"
    },
    {
      "constant": true,
      "inputs": [
        {
          "name": "",
          "type": "uint256"
        },
        {
          "name": "",
          "type": "uint256"
        }
      ],
      "name": "pixelToPaintTimeForRound",
      "outputs": [
        {
          "name": "",
          "type": "uint256"
        }
      ],
      "payable": false,
      "stateMutability": "view",
      "type": "function"
    },
    {
      "constant": true,
      "inputs": [
        {
          "name": "",
          "type": "uint256"
        },
        {
          "name": "",
          "type": "uint256"
        }
      ],
      "name": "colorBankToColorForRound",
      "outputs": [
        {
          "name": "",
          "type": "uint256"
        }
      ],
      "payable": false,
      "stateMutability": "view",
      "type": "function"
    },
    {
      "constant": true,
      "inputs": [
        {
          "name": "",
          "type": "uint256"
        },
        {
          "name": "",
          "type": "address"
        }
      ],
      "name": "isInCBT",
      "outputs": [
        {
          "name": "",
          "type": "bool"
        }
      ],
      "payable": false,
      "stateMutability": "view",
      "type": "function"
    },
    {
      "constant": true,
      "inputs": [
        {
          "name": "",
          "type": "uint256"
        }
      ],
      "name": "counterToPainter",
      "outputs": [
        {
          "name": "",
          "type": "address"
        }
      ],
      "payable": false,
      "stateMutability": "view",
      "type": "function"
    },
    {
      "constant": true,
      "inputs": [
        {
          "name": "",
          "type": "uint256"
        },
        {
          "name": "",
          "type": "address"
        }
      ],
      "name": "timeBankShare",
      "outputs": [
        {
          "name": "",
          "type": "uint256"
        }
      ],
      "payable": false,
      "stateMutability": "view",
      "type": "function"
    },
    {
      "constant": true,
      "inputs": [
        {
          "name": "",
          "type": "uint256"
        },
        {
          "name": "",
          "type": "uint256"
        },
        {
          "name": "",
          "type": "address"
        }
      ],
      "name": "colorBankShare",
      "outputs": [
        {
          "name": "",
          "type": "uint256"
        }
      ],
      "payable": false,
      "stateMutability": "view",
      "type": "function"
    },
    {
      "constant": true,
      "inputs": [
        {
          "name": "",
          "type": "uint256"
        },
        {
          "name": "",
          "type": "uint256"
        }
      ],
      "name": "pixelToColorForRound",
      "outputs": [
        {
          "name": "",
          "type": "uint256"
        }
      ],
      "payable": false,
      "stateMutability": "view",
      "type": "function"
    },
    {
      "constant": true,
      "inputs": [
        {
          "name": "",
          "type": "uint256"
        }
      ],
      "name": "totalPaintsForRound",
      "outputs": [
        {
          "name": "",
          "type": "uint256"
        }
      ],
      "payable": false,
      "stateMutability": "view",
      "type": "function"
    },
    {
      "constant": true,
      "inputs": [
        {
          "name": "",
          "type": "uint256"
        }
      ],
      "name": "colorBankForRound",
      "outputs": [
        {
          "name": "",
          "type": "uint256"
        }
      ],
      "payable": false,
      "stateMutability": "view",
      "type": "function"
    },
    {
      "constant": true,
      "inputs": [
        {
          "name": "",
          "type": "uint256"
        },
        {
          "name": "",
          "type": "uint256"
        }
      ],
      "name": "paintGenToEndTimeForColor",
      "outputs": [
        {
          "name": "",
          "type": "uint256"
        }
      ],
      "payable": false,
      "stateMutability": "view",
      "type": "function"
    },
    {
      "constant": true,
      "inputs": [],
      "name": "uniqueUsersCount",
      "outputs": [
        {
          "name": "",
          "type": "uint256"
        }
      ],
      "payable": false,
      "stateMutability": "view",
      "type": "function"
    },
    {
      "constant": true,
      "inputs": [
        {
          "name": "",
          "type": "bytes32"
        }
      ],
      "name": "refLinkExists",
      "outputs": [
        {
          "name": "",
          "type": "bool"
        }
      ],
      "payable": false,
      "stateMutability": "view",
      "type": "function"
    },
    {
      "constant": true,
      "inputs": [
        {
          "name": "",
          "type": "uint256"
        },
        {
          "name": "",
          "type": "uint256"
        }
      ],
      "name": "paintGenToAmountForColor",
      "outputs": [
        {
          "name": "",
          "type": "uint256"
        }
      ],
      "payable": false,
      "stateMutability": "view",
      "type": "function"
    },
    {
      "constant": true,
      "inputs": [
        {
          "name": "",
          "type": "uint256"
        }
      ],
      "name": "isCBPTransfered",
      "outputs": [
        {
          "name": "",
          "type": "bool"
        }
      ],
      "payable": false,
      "stateMutability": "view",
      "type": "function"
    },
    {
      "constant": true,
      "inputs": [
        {
          "name": "",
          "type": "address"
        }
      ],
      "name": "referralToReferrer",
      "outputs": [
        {
          "name": "",
          "type": "address"
        }
      ],
      "payable": false,
      "stateMutability": "view",
      "type": "function"
    },
    {
      "constant": true,
      "inputs": [
        {
          "name": "",
          "type": "uint256"
        },
        {
          "name": "",
          "type": "address"
        }
      ],
      "name": "usersPaintDiscountForColor",
      "outputs": [
        {
          "name": "",
          "type": "uint256"
        }
      ],
      "payable": false,
      "stateMutability": "view",
      "type": "function"
    },
    {
      "constant": true,
      "inputs": [],
      "name": "maxPaintsInPool",
      "outputs": [
        {
          "name": "",
          "type": "uint256"
        }
      ],
      "payable": false,
      "stateMutability": "view",
      "type": "function"
    },
    {
      "constant": true,
      "inputs": [
        {
          "name": "",
          "type": "uint256"
        }
      ],
      "name": "winnerColorForRound",
      "outputs": [
        {
          "name": "",
          "type": "uint256"
        }
      ],
      "payable": false,
      "stateMutability": "view",
      "type": "function"
    },
    {
      "constant": true,
      "inputs": [],
      "name": "cbIteration",
      "outputs": [
        {
          "name": "",
          "type": "uint256"
        }
      ],
      "payable": false,
      "stateMutability": "view",
      "type": "function"
    },
    {
      "constant": false,
      "inputs": [
        {
          "name": "_refLink",
          "type": "string"
        }
      ],
      "name": "paint",
      "outputs": [],
      "payable": false,
      "stateMutability": "nonpayable",
      "type": "function"
    },
    {
      "constant": false,
      "inputs": [
        {
          "name": "_refLink",
          "type": "string"
        }
      ],
      "name": "buyRefLink",
      "outputs": [],
      "payable": true,
      "stateMutability": "payable",
      "type": "function"
    },
    {
      "constant": true,
      "inputs": [
        {
          "name": "_string",
          "type": "string"
        }
      ],
      "name": "toBytes32",
      "outputs": [
        {
          "name": "",
          "type": "bytes16"
        }
      ],
      "payable": false,
      "stateMutability": "pure",
      "type": "function"
    }
  ],
  "bytecode": "0x608060405234801561001057600080fd5b50612711806100206000396000f3006080604052600436106102a9576000357c0100000000000000000000000000000000000000000000000000000000900463ffffffff16806305bdd0be146102ae578063099b81ce146103135780630ba36221146103845780630cf9603f146103cf5780630f6ed86e1461041a578063102f97131461044557806318452cd8146104b25780631f5bdf5d1461050d5780631f90c6ed1461056857806327df8f2a146105cd57806328361f571461067057806328b290f9146106b15780632c6c1c41146107085780632c7a3dae1461076957806333f9c388146107e05780633a173505146108415780633c6dd0131461088c5780633ca4c183146108cd5780633d0d1a791461092e5780633dc3c3771461096f57806341c5464e1461099a57806342e453ec146109f15780634b39173d14610a685780634c438ad714610ab35780634c78e40114610af85780635bfcdb2714610b395780635d63ebb214610bf55780635f5d554c14610c6c578063628a71a314610cbb5780636e8fa2a814610cfc5780636f17eb4214610d2a57806373a9ee2614610d6b57806379ecf37614610dac5780637e1e175c14610e1957806387982ac314610e745780638a19c8bc14610f015780638e2df39c14610f2c5780638f63b7e514610f6d578063a312072414610fb8578063ab24c7d214611003578063ae55ce8214611068578063b0ff59d2146110d5578063b1a3883c14611136578063b62708ec146111a1578063b8232d5d146111dc578063be7d622614611227578063c64a2e5614611268578063c957387b146112a9578063c9f8234f146112f4578063d4526e681461131f578063d5de47c714611368578063da68b121146113b3578063deaf0fa1146113f8578063eaf1c9101461147b578063eef565da146114dc578063f49916f514611507578063fea11fe314611548575b600080fd5b3480156102ba57600080fd5b506102f960048036038101908080359060200190929190803573ffffffffffffffffffffffffffffffffffffffff169060200190929190505050611573565b604051808215151515815260200191505060405180910390f35b34801561031f57600080fd5b5061034260048036038101908080356000191690602001909291905050506115a2565b604051808273ffffffffffffffffffffffffffffffffffffffff1673ffffffffffffffffffffffffffffffffffffffff16815260200191505060405180910390f35b34801561039057600080fd5b506103b960048036038101908080359060200190929190803590602001909291905050506115d5565b6040518082815260200191505060405180910390f35b3480156103db57600080fd5b5061040460048036038101908080359060200190929190803590602001909291905050506115fa565b6040518082815260200191505060405180910390f35b34801561042657600080fd5b5061042f61161f565b6040518082815260200191505060405180910390f35b34801561045157600080fd5b5061047060048036038101908080359060200190929190505050611625565b604051808273ffffffffffffffffffffffffffffffffffffffff1673ffffffffffffffffffffffffffffffffffffffff16815260200191505060405180910390f35b3480156104be57600080fd5b506104f3600480360381019080803573ffffffffffffffffffffffffffffffffffffffff169060200190929190505050611658565b604051808215151515815260200191505060405180910390f35b34801561051957600080fd5b5061054e600480360381019080803573ffffffffffffffffffffffffffffffffffffffff169060200190929190505050611678565b604051808215151515815260200191505060405180910390f35b34801561057457600080fd5b506105b360048036038101908080359060200190929190803573ffffffffffffffffffffffffffffffffffffffff169060200190929190505050611698565b604051808215151515815260200191505060405180910390f35b3480156105d957600080fd5b50610634600480360381019080803590602001908201803590602001908080601f01602080910402602001604051908101604052809392919081815260200183838082843782019150505050505091929192905050506116c7565b60405180826fffffffffffffffffffffffffffffffff19166fffffffffffffffffffffffffffffffff1916815260200191505060405180910390f35b34801561067c57600080fd5b5061069b600480360381019080803590602001909291905050506116da565b6040518082815260200191505060405180910390f35b3480156106bd57600080fd5b506106f2600480360381019080803573ffffffffffffffffffffffffffffffffffffffff1690602001909291905050506116f2565b6040518082815260200191505060405180910390f35b34801561071457600080fd5b5061075360048036038101908080359060200190929190803573ffffffffffffffffffffffffffffffffffffffff16906020019092919050505061170a565b6040518082815260200191505060405180910390f35b34801561077557600080fd5b5061079e600480360381019080803590602001909291908035906020019092919050505061172f565b604051808273ffffffffffffffffffffffffffffffffffffffff1673ffffffffffffffffffffffffffffffffffffffff16815260200191505060405180910390f35b3480156107ec57600080fd5b5061082b60048036038101908080359060200190929190803573ffffffffffffffffffffffffffffffffffffffff16906020019092919050505061177c565b6040518082815260200191505060405180910390f35b34801561084d57600080fd5b5061087660048036038101908080359060200190929190803590602001909291905050506117a1565b6040518082815260200191505060405180910390f35b34801561089857600080fd5b506108b7600480360381019080803590602001909291905050506117c6565b6040518082815260200191505060405180910390f35b3480156108d957600080fd5b5061091860048036038101908080359060200190929190803573ffffffffffffffffffffffffffffffffffffffff1690602001909291905050506117de565b6040518082815260200191505060405180910390f35b34801561093a57600080fd5b5061095960048036038101908080359060200190929190505050611803565b6040518082815260200191505060405180910390f35b34801561097b57600080fd5b5061098461181b565b6040518082815260200191505060405180910390f35b3480156109a657600080fd5b506109db600480360381019080803573ffffffffffffffffffffffffffffffffffffffff169060200190929190505050611821565b6040518082815260200191505060405180910390f35b3480156109fd57600080fd5b50610a266004803603810190808035906020019092919080359060200190929190505050611839565b604051808273ffffffffffffffffffffffffffffffffffffffff1673ffffffffffffffffffffffffffffffffffffffff16815260200191505060405180910390f35b348015610a7457600080fd5b50610a9d600480360381019080803590602001909291908035906020019092919050505061187b565b6040518082815260200191505060405180910390f35b348015610abf57600080fd5b50610ade600480360381019080803590602001909291905050506118a0565b604051808215151515815260200191505060405180910390f35b348015610b0457600080fd5b50610b23600480360381019080803590602001909291905050506118c0565b6040518082815260200191505060405180910390f35b348015610b4557600080fd5b50610b7a600480360381019080803573ffffffffffffffffffffffffffffffffffffffff1690602001909291905050506118d8565b6040518080602001828103825283818151815260200191508051906020019080838360005b83811015610bba578082015181840152602081019050610b9f565b50505050905090810190601f168015610be75780820380516001836020036101000a031916815260200191505b509250505060405180910390f35b348015610c0157600080fd5b50610c2a6004803603810190808035906020019092919080359060200190929190505050611988565b604051808273ffffffffffffffffffffffffffffffffffffffff1673ffffffffffffffffffffffffffffffffffffffff16815260200191505060405180910390f35b348015610c7857600080fd5b50610ca160048036038101908080359060200190929190803590602001909291905050506119d5565b604051808215151515815260200191505060405180910390f35b348015610cc757600080fd5b50610ce660048036038101908080359060200190929190505050611a04565b6040518082815260200191505060405180910390f35b610d28600480360381019080803590602001908201803590602001919091929391929390505050611a1c565b005b348015610d3657600080fd5b50610d5560048036038101908080359060200190929190505050611f7a565b6040518082815260200191505060405180910390f35b348015610d7757600080fd5b50610d9660048036038101908080359060200190929190505050611f92565b6040518082815260200191505060405180910390f35b348015610db857600080fd5b50610dd760048036038101908080359060200190929190505050611faa565b604051808273ffffffffffffffffffffffffffffffffffffffff1673ffffffffffffffffffffffffffffffffffffffff16815260200191505060405180910390f35b348015610e2557600080fd5b50610e5a600480360381019080803573ffffffffffffffffffffffffffffffffffffffff169060200190929190505050611fdd565b604051808215151515815260200191505060405180910390f35b348015610e8057600080fd5b50610ebf600480360381019080803573ffffffffffffffffffffffffffffffffffffffff16906020019092919080359060200190929190505050611ffd565b604051808273ffffffffffffffffffffffffffffffffffffffff1673ffffffffffffffffffffffffffffffffffffffff16815260200191505060405180910390f35b348015610f0d57600080fd5b50610f1661204a565b6040518082815260200191505060405180910390f35b348015610f3857600080fd5b50610f5760048036038101908080359060200190929190505050612050565b6040518082815260200191505060405180910390f35b348015610f7957600080fd5b50610fa26004803603810190808035906020019092919080359060200190929190505050612068565b6040518082815260200191505060405180910390f35b348015610fc457600080fd5b50610fed600480360381019080803590602001909291908035906020019092919050505061208d565b6040518082815260200191505060405180910390f35b34801561100f57600080fd5b5061104e60048036038101908080359060200190929190803573ffffffffffffffffffffffffffffffffffffffff1690602001909291905050506120b2565b604051808215151515815260200191505060405180910390f35b34801561107457600080fd5b50611093600480360381019080803590602001909291905050506120e1565b604051808273ffffffffffffffffffffffffffffffffffffffff1673ffffffffffffffffffffffffffffffffffffffff16815260200191505060405180910390f35b3480156110e157600080fd5b5061112060048036038101908080359060200190929190803573ffffffffffffffffffffffffffffffffffffffff169060200190929190505050612114565b6040518082815260200191505060405180910390f35b34801561114257600080fd5b5061118b6004803603810190808035906020019092919080359060200190929190803573ffffffffffffffffffffffffffffffffffffffff169060200190929190505050612139565b6040518082815260200191505060405180910390f35b3480156111ad57600080fd5b506111da60048036038101908080359060200190820180359060200191909192939192939050505061216b565b005b3480156111e857600080fd5b5061121160048036038101908080359060200190929190803590602001909291905050506124bf565b6040518082815260200191505060405180910390f35b34801561123357600080fd5b50611252600480360381019080803590602001909291905050506124e4565b6040518082815260200191505060405180910390f35b34801561127457600080fd5b50611293600480360381019080803590602001909291905050506124fc565b6040518082815260200191505060405180910390f35b3480156112b557600080fd5b506112de6004803603810190808035906020019092919080359060200190929190505050612514565b6040518082815260200191505060405180910390f35b34801561130057600080fd5b50611309612539565b6040518082815260200191505060405180910390f35b34801561132b57600080fd5b5061134e600480360381019080803560001916906020019092919050505061253f565b604051808215151515815260200191505060405180910390f35b34801561137457600080fd5b5061139d600480360381019080803590602001909291908035906020019092919050505061255e565b6040518082815260200191505060405180910390f35b3480156113bf57600080fd5b506113de60048036038101908080359060200190929190505050612583565b604051808215151515815260200191505060405180910390f35b34801561140457600080fd5b50611439600480360381019080803573ffffffffffffffffffffffffffffffffffffffff1690602001909291905050506125a3565b604051808273ffffffffffffffffffffffffffffffffffffffff1673ffffffffffffffffffffffffffffffffffffffff16815260200191505060405180910390f35b34801561148757600080fd5b506114c660048036038101908080359060200190929190803573ffffffffffffffffffffffffffffffffffffffff1690602001909291905050506125d6565b6040518082815260200191505060405180910390f35b3480156114e857600080fd5b506114f16125fb565b6040518082815260200191505060405180910390f35b34801561151357600080fd5b5061153260048036038101908080359060200190929190505050612601565b6040518082815260200191505060405180910390f35b34801561155457600080fd5b5061155d612619565b6040518082815260200191505060405180910390f35b60306020528160005260406000206020528060005260406000206000915091509054906101000a900460ff1681565b601f6020528060005260406000206000915054906101000a900473ffffffffffffffffffffffffffffffffffffffff1681565b600a602052816000526040600020602052806000526040600020600091509150505481565b6002602052816000526040600020602052806000526040600020600091509150505481565b60255481565b600b6020528060005260406000206000915054906101000a900473ffffffffffffffffffffffffffffffffffffffff1681565b601d6020528060005260406000206000915054906101000a900460ff1681565b60196020528060005260406000206000915054906101000a900460ff1681565b60176020528160005260406000206020528060005260406000206000915091509054906101000a900460ff1681565b6000806020830151905080915050919050565b60136020528060005260406000206000915090505481565b60356020528060005260406000206000915090505481565b6016602052816000526040600020602052806000526040600020600091509150505481565b602c6020528160005260406000208181548110151561174a57fe5b906000526020600020016000915091509054906101000a900473ffffffffffffffffffffffffffffffffffffffff1681565b6032602052816000526040600020602052806000526040600020600091509150505481565b6010602052816000526040600020602052806000526040600020600091509150505481565b60146020528060005260406000206000915090505481565b6031602052816000526040600020602052806000526040600020600091509150505481565b600c6020528060005260406000206000915090505481565b60275481565b60216020528060005260406000206000915090505481565b602e6020528160005260406000206020528060005260406000206000915091509054906101000a900473ffffffffffffffffffffffffffffffffffffffff1681565b6001602052816000526040600020602052806000526040600020600091509150505481565b60346020528060005260406000206000915054906101000a900460ff1681565b60056020528060005260406000206000915090505481565b601e6020528060005260406000206000915090508054600181600116156101000203166002900480601f0160208091040260200160405190810160405280929190818152602001828054600181600116156101000203166002900480156119805780601f1061195557610100808354040283529160200191611980565b820191906000526020600020905b81548152906001019060200180831161196357829003601f168201915b505050505081565b602b602052816000526040600020818154811015156119a357fe5b906000526020600020016000915091509054906101000a900473ffffffffffffffffffffffffffffffffffffffff1681565b60126020528160005260406000206020528060005260406000206000915091509054906101000a900460ff1681565b60086020528060005260406000206000915090505481565b600082828080601f0160208091040260200160405190810160405280939291908181526020018383808284378201915050505050506004815110151515611af1576040517f08c379a00000000000000000000000000000000000000000000000000000000081526004018080602001828103825260228152602001807f526566206c696e6b2073686f756c64206265206f66206c656e677468205b342c81526020017f385d00000000000000000000000000000000000000000000000000000000000081525060400191505060405180910390fd5b6008815111151515611b91576040517f08c379a00000000000000000000000000000000000000000000000000000000081526004018080602001828103825260228152602001807f526566206c696e6b2073686f756c64206265206f66206c656e677468205b342c81526020017f385d00000000000000000000000000000000000000000000000000000000000081525060400191505060405180910390fd5b67016345785d8a000034141515611c36576040517f08c379a00000000000000000000000000000000000000000000000000000000081526004018080602001828103825260238152602001807f53657474696e6720726566657272616c206c696e6b20636f73747320302e312081526020017f455448000000000000000000000000000000000000000000000000000000000081525060400191505060405180910390fd5b60001515601a60003373ffffffffffffffffffffffffffffffffffffffff1673ffffffffffffffffffffffffffffffffffffffff16815260200190815260200160002060009054906101000a900460ff161515141515611d24576040517f08c379a00000000000000000000000000000000000000000000000000000000081526004018080602001828103825260288152602001807f596f75206861766520616c72656164792067656e65726174656420796f75722081526020017f726566206c696e6b00000000000000000000000000000000000000000000000081525060400191505060405180910390fd5b611d5f84848080601f0160208091040260200160405190810160405280939291908181526020018383808284378201915050505050506116c7565b6fffffffffffffffffffffffffffffffff191691506001151560206000846000191660001916815260200190815260200160002060009054906101000a900460ff16151514151515611e3f576040517f08c379a00000000000000000000000000000000000000000000000000000000081526004018080602001828103825260348152602001807f5468697320726566657272616c206c696e6b20616c726561647920657869737481526020017f732c2074727920646966666572656e74206f6e6500000000000000000000000081525060400191505060405180910390fd5b6001601a60003373ffffffffffffffffffffffffffffffffffffffff1673ffffffffffffffffffffffffffffffffffffffff16815260200190815260200160002060006101000a81548160ff0219169083151502179055508383601e60003373ffffffffffffffffffffffffffffffffffffffff1673ffffffffffffffffffffffffffffffffffffffff1681526020019081526020016000209190611ee5929190612640565b50600160206000846000191660001916815260200190815260200160002060006101000a81548160ff02191690831515021790555033601f6000846000191660001916815260200190815260200160002060006101000a81548173ffffffffffffffffffffffffffffffffffffffff021916908373ffffffffffffffffffffffffffffffffffffffff16021790555050505050565b60156020528060005260406000206000915090505481565b60066020528060005260406000206000915090505481565b60076020528060005260406000206000915054906101000a900473ffffffffffffffffffffffffffffffffffffffff1681565b601a6020528060005260406000206000915054906101000a900460ff1681565b601c6020528160005260406000208181548110151561201857fe5b906000526020600020016000915091509054906101000a900473ffffffffffffffffffffffffffffffffffffffff1681565b60245481565b602a6020528060005260406000206000915090505481565b600d602052816000526040600020602052806000526040600020600091509150505481565b6004602052816000526040600020602052806000526040600020600091509150505481565b602f6020528160005260406000206020528060005260406000206000915091509054906101000a900460ff1681565b602d6020528060005260406000206000915054906101000a900473ffffffffffffffffffffffffffffffffffffffff1681565b6028602052816000526040600020602052806000526040600020600091509150505481565b602960205282600052604060002060205281600052604060002060205280600052604060002060009250925050505481565b60008060011515601960003373ffffffffffffffffffffffffffffffffffffffff1673ffffffffffffffffffffffffffffffffffffffff16815260200190815260200160002060009054906101000a900460ff1615151415156124b95761220384848080601f0160208091040260200160405190810160405280939291908181526020018383808284378201915050505050506116c7565b6fffffffffffffffffffffffffffffffff1916915060206000836000191660001916815260200190815260200160002060009054906101000a900460ff16156123fe57601f6000836000191660001916815260200190815260200160002060009054906101000a900473ffffffffffffffffffffffffffffffffffffffff169050601c60008273ffffffffffffffffffffffffffffffffffffffff1673ffffffffffffffffffffffffffffffffffffffff1681526020019081526020016000203390806001815401808255809150509060018203906000526020600020016000909192909190916101000a81548173ffffffffffffffffffffffffffffffffffffffff021916908373ffffffffffffffffffffffffffffffffffffffff1602179055505080601b60003373ffffffffffffffffffffffffffffffffffffffff1673ffffffffffffffffffffffffffffffffffffffff16815260200190815260200160002060006101000a81548173ffffffffffffffffffffffffffffffffffffffff021916908373ffffffffffffffffffffffffffffffffffffffff1602179055506001601d60003373ffffffffffffffffffffffffffffffffffffffff1673ffffffffffffffffffffffffffffffffffffffff16815260200190815260200160002060006101000a81548160ff0219169083151502179055505b612414600160225461261f90919063ffffffff16565b602281905550602254602160003373ffffffffffffffffffffffffffffffffffffffff1673ffffffffffffffffffffffffffffffffffffffff168152602001908152602001600020819055506001601960003373ffffffffffffffffffffffffffffffffffffffff1673ffffffffffffffffffffffffffffffffffffffff16815260200190815260200160002060006101000a81548160ff0219169083151502179055505b50505050565b6000602052816000526040600020602052806000526040600020600091509150505481565b600e6020528060005260406000206000915090505481565b60036020528060005260406000206000915090505481565b6011602052816000526040600020602052806000526040600020600091509150505481565b60225481565b602080528060005260406000206000915054906101000a900460ff1681565b600f602052816000526040600020602052806000526040600020600091509150505481565b60336020528060005260406000206000915054906101000a900460ff1681565b601b6020528060005260406000206000915054906101000a900473ffffffffffffffffffffffffffffffffffffffff1681565b6018602052816000526040600020602052806000526040600020600091509150505481565b60235481565b60096020528060005260406000206000915090505481565b60265481565b600080828401905083811015151561263657600080fd5b8091505092915050565b828054600181600116156101000203166002900490600052602060002090601f016020900481019282601f1061268157803560ff19168380011785556126af565b828001600101855582156126af579182015b828111156126ae578235825591602001919060010190612693565b5b5090506126bc91906126c0565b5090565b6126e291905b808211156126de5760008160009055506001016126c6565b5090565b905600a165627a7a723058207ad49e2b9a18c1b5994bf3e619fe689a2e60eece12eb4b2722544e786c5bf33a0029",
  "source": "pragma solidity ^0.4.24;\n\nimport \"../node_modules/openzeppelin-solidity/contracts/math/SafeMath.sol\";\nimport \"./Storage.sol\";\n\ncontract Referral is Storage {\n    \n    using SafeMath for uint;\n    \n    function paint(string _refLink) external {\n        \n        //    \n        if (isRegisteredUser[msg.sender] != true) {\n            \n            bytes32 refLink = toBytes32(_refLink);\n            \n            //      \n            if (refLinkExists[refLink]) { \n                address referrer = refLinkToUser[refLink];\n                referrerToReferrals[referrer].push(msg.sender);\n                referralToReferrer[msg.sender] = referrer;\n                hasReferrer[msg.sender] = true;\n            }\n            \n            uniqueUsersCount = uniqueUsersCount.add(1);\n            newUserToCounter[msg.sender] = uniqueUsersCount;\n            isRegisteredUser[msg.sender] = true;\n        }\n    }\n    \n    //       (    4  8 )\n    function buyRefLink(string _refLink) isValidRefLink (_refLink) external payable {\n        require(msg.value == 0.1 ether, \"Setting referral link costs 0.1 ETH\");\n        require(hasRefLink[msg.sender] == false, \"You have already generated your ref link\");\n        bytes32 refLink = toBytes32(_refLink);\n        require(refLinkExists[refLink] != true, \"This referral link already exists, try different one\");\n        hasRefLink[msg.sender] = true;\n        userToRefLink[msg.sender] = _refLink;\n        refLinkExists[refLink] = true;\n        refLinkToUser[refLink] = msg.sender;\n    }\n    \n    //   .  (      4  8 )\n    modifier isValidRefLink(string _str) {\n        require(bytes(_str).length >= 4, \"Ref link should be of length [4,8]\");\n        require(bytes(_str).length <= 8, \"Ref link should be of length [4,8]\");\n        _;\n    }\n    \n    // convert a string less than 32 characters long to bytes32\n    function toBytes32(string _string) pure public returns (bytes16) {\n        // make sure that the string isn't too long for this function\n        // will work but will cut off the any characters past the 32nd character\n        bytes16 _stringBytes;\n    \n        // simplest way to convert 32 character long string\n        assembly {\n          // load the memory pointer of string with an offset of 32\n          // 32 passes over non-core data parts of string such as length of text\n          _stringBytes := mload(add(_string, 32))\n        }\n    \n        return _stringBytes;\n    }\n\n}",
  "sourcePath": "/Users/Amir/last-pixel-contracts/contracts/Referral.sol",
  "compiler": {
    "name": "solc",
    "version": "0.4.24+commit.e67f0147.Emscripten.clang"
  },
  "schemaVersion": "2.0.1",
  "updatedAt": "2019-01-04T19:25:42.637Z"
}