{
  "contractName": "RoundDataHolder",
  "abi": [
    {
      "constant": true,
      "inputs": [
        {
          "name": "",
          "type": "uint256"
        },
        {
          "name": "",
          "type": "address"
        }
      ],
      "name": "addressToTimeBankPrizeForRound",
      "outputs": [
        {
          "name": "",
          "type": "uint256"
        }
      ],
      "payable": false,
      "stateMutability": "view",
      "type": "function"
    },
    {
      "constant": true,
      "inputs": [
        {
          "name": "",
          "type": "uint256"
        },
        {
          "name": "",
          "type": "uint256"
        }
      ],
      "name": "colorToTotalPaintsForRound",
      "outputs": [
        {
          "name": "",
          "type": "uint256"
        }
      ],
      "payable": false,
      "stateMutability": "view",
      "type": "function"
    },
    {
      "constant": true,
      "inputs": [
        {
          "name": "",
          "type": "uint256"
        },
        {
          "name": "",
          "type": "uint256"
        }
      ],
      "name": "colorToPaintedPixelsAmountForRound",
      "outputs": [
        {
          "name": "",
          "type": "uint256"
        }
      ],
      "payable": false,
      "stateMutability": "view",
      "type": "function"
    },
    {
      "constant": true,
      "inputs": [
        {
          "name": "",
          "type": "uint256"
        }
      ],
      "name": "winnerOfRound",
      "outputs": [
        {
          "name": "",
          "type": "address"
        }
      ],
      "payable": false,
      "stateMutability": "view",
      "type": "function"
    },
    {
      "constant": true,
      "inputs": [
        {
          "name": "",
          "type": "uint256"
        },
        {
          "name": "",
          "type": "address"
        }
      ],
      "name": "hasTakenPartInRound",
      "outputs": [
        {
          "name": "",
          "type": "bool"
        }
      ],
      "payable": false,
      "stateMutability": "view",
      "type": "function"
    },
    {
      "constant": true,
      "inputs": [
        {
          "name": "",
          "type": "uint256"
        }
      ],
      "name": "teamStartedTimeForRound",
      "outputs": [
        {
          "name": "",
          "type": "uint256"
        }
      ],
      "payable": false,
      "stateMutability": "view",
      "type": "function"
    },
    {
      "constant": true,
      "inputs": [
        {
          "name": "",
          "type": "address"
        }
      ],
      "name": "lastPlayedRound",
      "outputs": [
        {
          "name": "",
          "type": "uint256"
        }
      ],
      "payable": false,
      "stateMutability": "view",
      "type": "function"
    },
    {
      "constant": true,
      "inputs": [
        {
          "name": "",
          "type": "uint256"
        }
      ],
      "name": "winnerBankForRound",
      "outputs": [
        {
          "name": "",
          "type": "uint256"
        }
      ],
      "payable": false,
      "stateMutability": "view",
      "type": "function"
    },
    {
      "constant": true,
      "inputs": [
        {
          "name": "",
          "type": "uint256"
        },
        {
          "name": "",
          "type": "uint256"
        }
      ],
      "name": "pixelToOldColorForRound",
      "outputs": [
        {
          "name": "",
          "type": "uint256"
        }
      ],
      "payable": false,
      "stateMutability": "view",
      "type": "function"
    },
    {
      "constant": true,
      "inputs": [
        {
          "name": "",
          "type": "uint256"
        }
      ],
      "name": "timeBankForRound",
      "outputs": [
        {
          "name": "",
          "type": "uint256"
        }
      ],
      "payable": false,
      "stateMutability": "view",
      "type": "function"
    },
    {
      "constant": true,
      "inputs": [
        {
          "name": "",
          "type": "uint256"
        }
      ],
      "name": "teamEndedTimeForRound",
      "outputs": [
        {
          "name": "",
          "type": "uint256"
        }
      ],
      "payable": false,
      "stateMutability": "view",
      "type": "function"
    },
    {
      "constant": true,
      "inputs": [
        {
          "name": "",
          "type": "uint256"
        }
      ],
      "name": "lastPaintedPixelForRound",
      "outputs": [
        {
          "name": "",
          "type": "uint256"
        }
      ],
      "payable": false,
      "stateMutability": "view",
      "type": "function"
    },
    {
      "constant": true,
      "inputs": [
        {
          "name": "",
          "type": "uint256"
        }
      ],
      "name": "lastPaintTimeForRound",
      "outputs": [
        {
          "name": "",
          "type": "uint256"
        }
      ],
      "payable": false,
      "stateMutability": "view",
      "type": "function"
    },
    {
      "constant": true,
      "inputs": [
        {
          "name": "",
          "type": "uint256"
        }
      ],
      "name": "lastPainterForRound",
      "outputs": [
        {
          "name": "",
          "type": "address"
        }
      ],
      "payable": false,
      "stateMutability": "view",
      "type": "function"
    },
    {
      "constant": true,
      "inputs": [],
      "name": "currentRound",
      "outputs": [
        {
          "name": "",
          "type": "uint256"
        }
      ],
      "payable": false,
      "stateMutability": "view",
      "type": "function"
    },
    {
      "constant": true,
      "inputs": [
        {
          "name": "",
          "type": "uint256"
        },
        {
          "name": "",
          "type": "uint256"
        }
      ],
      "name": "colorBankToColorForRound",
      "outputs": [
        {
          "name": "",
          "type": "uint256"
        }
      ],
      "payable": false,
      "stateMutability": "view",
      "type": "function"
    },
    {
      "constant": true,
      "inputs": [
        {
          "name": "",
          "type": "uint256"
        },
        {
          "name": "",
          "type": "address"
        }
      ],
      "name": "addressToColorBankPrizeForRound",
      "outputs": [
        {
          "name": "",
          "type": "uint256"
        }
      ],
      "payable": false,
      "stateMutability": "view",
      "type": "function"
    },
    {
      "constant": true,
      "inputs": [
        {
          "name": "",
          "type": "uint256"
        },
        {
          "name": "",
          "type": "address"
        }
      ],
      "name": "colorToUserToTotalCounter",
      "outputs": [
        {
          "name": "",
          "type": "uint256"
        }
      ],
      "payable": false,
      "stateMutability": "view",
      "type": "function"
    },
    {
      "constant": true,
      "inputs": [
        {
          "name": "",
          "type": "uint256"
        },
        {
          "name": "",
          "type": "uint256"
        }
      ],
      "name": "pixelToColorForRound",
      "outputs": [
        {
          "name": "",
          "type": "uint256"
        }
      ],
      "payable": false,
      "stateMutability": "view",
      "type": "function"
    },
    {
      "constant": true,
      "inputs": [
        {
          "name": "",
          "type": "uint256"
        }
      ],
      "name": "totalPaintsForRound",
      "outputs": [
        {
          "name": "",
          "type": "uint256"
        }
      ],
      "payable": false,
      "stateMutability": "view",
      "type": "function"
    },
    {
      "constant": true,
      "inputs": [
        {
          "name": "",
          "type": "address"
        }
      ],
      "name": "userToTotalCounter",
      "outputs": [
        {
          "name": "",
          "type": "uint256"
        }
      ],
      "payable": false,
      "stateMutability": "view",
      "type": "function"
    },
    {
      "constant": true,
      "inputs": [
        {
          "name": "",
          "type": "uint256"
        }
      ],
      "name": "colorBankForRound",
      "outputs": [
        {
          "name": "",
          "type": "uint256"
        }
      ],
      "payable": false,
      "stateMutability": "view",
      "type": "function"
    },
    {
      "constant": true,
      "inputs": [
        {
          "name": "",
          "type": "address"
        },
        {
          "name": "",
          "type": "uint256"
        }
      ],
      "name": "userToCounterToTimestamp",
      "outputs": [
        {
          "name": "",
          "type": "uint256"
        }
      ],
      "payable": false,
      "stateMutability": "view",
      "type": "function"
    },
    {
      "constant": true,
      "inputs": [
        {
          "name": "",
          "type": "address"
        },
        {
          "name": "",
          "type": "uint256"
        }
      ],
      "name": "isPrizeDistributedForRound",
      "outputs": [
        {
          "name": "",
          "type": "bool"
        }
      ],
      "payable": false,
      "stateMutability": "view",
      "type": "function"
    },
    {
      "constant": true,
      "inputs": [
        {
          "name": "",
          "type": "address"
        },
        {
          "name": "",
          "type": "uint256"
        },
        {
          "name": "",
          "type": "uint256"
        }
      ],
      "name": "userToColorToCounterToTimestamp",
      "outputs": [
        {
          "name": "",
          "type": "uint256"
        }
      ],
      "payable": false,
      "stateMutability": "view",
      "type": "function"
    },
    {
      "constant": true,
      "inputs": [
        {
          "name": "",
          "type": "uint256"
        }
      ],
      "name": "winnerColorForRound",
      "outputs": [
        {
          "name": "",
          "type": "uint256"
        }
      ],
      "payable": false,
      "stateMutability": "view",
      "type": "function"
    }
  ],
  "bytecode": "0x608060405234801561001057600080fd5b50610d02806100206000396000f300608060405260043610610154576000357c0100000000000000000000000000000000000000000000000000000000900463ffffffff16806306937b47146101595780630ba36221146101ba5780630cf9603f14610205578063102f9713146102505780632153fb01146102bd57806323a43a8e1461032257806328b290f9146103635780633d0d1a79146103ba5780634b39173d146103fb5780634c78e4011461044657806355457fc114610487578063628a71a3146104c857806373a9ee261461050957806379ecf3761461054a5780638a19c8bc146105b7578063a3120724146105e2578063a645867e1461062d578063abd7c8ea1461068e578063b8232d5d146106ef578063be7d62261461073a578063c5098c871461077b578063c64a2e56146107d2578063d62da0cd14610813578063d7be633214610874578063e5b38f8a146108d9578063f49916f514610944575b600080fd5b34801561016557600080fd5b506101a460048036038101908080359060200190929190803573ffffffffffffffffffffffffffffffffffffffff169060200190929190505050610985565b6040518082815260200191505060405180910390f35b3480156101c657600080fd5b506101ef60048036038101908080359060200190929190803590602001909291905050506109aa565b6040518082815260200191505060405180910390f35b34801561021157600080fd5b5061023a60048036038101908080359060200190929190803590602001909291905050506109cf565b6040518082815260200191505060405180910390f35b34801561025c57600080fd5b5061027b600480360381019080803590602001909291905050506109f4565b604051808273ffffffffffffffffffffffffffffffffffffffff1673ffffffffffffffffffffffffffffffffffffffff16815260200191505060405180910390f35b3480156102c957600080fd5b5061030860048036038101908080359060200190929190803573ffffffffffffffffffffffffffffffffffffffff169060200190929190505050610a27565b604051808215151515815260200191505060405180910390f35b34801561032e57600080fd5b5061034d60048036038101908080359060200190929190505050610a56565b6040518082815260200191505060405180910390f35b34801561036f57600080fd5b506103a4600480360381019080803573ffffffffffffffffffffffffffffffffffffffff169060200190929190505050610a6e565b6040518082815260200191505060405180910390f35b3480156103c657600080fd5b506103e560048036038101908080359060200190929190505050610a86565b6040518082815260200191505060405180910390f35b34801561040757600080fd5b506104306004803603810190808035906020019092919080359060200190929190505050610a9e565b6040518082815260200191505060405180910390f35b34801561045257600080fd5b5061047160048036038101908080359060200190929190505050610ac3565b6040518082815260200191505060405180910390f35b34801561049357600080fd5b506104b260048036038101908080359060200190929190505050610adb565b6040518082815260200191505060405180910390f35b3480156104d457600080fd5b506104f360048036038101908080359060200190929190505050610af3565b6040518082815260200191505060405180910390f35b34801561051557600080fd5b5061053460048036038101908080359060200190929190505050610b0b565b6040518082815260200191505060405180910390f35b34801561055657600080fd5b5061057560048036038101908080359060200190929190505050610b23565b604051808273ffffffffffffffffffffffffffffffffffffffff1673ffffffffffffffffffffffffffffffffffffffff16815260200191505060405180910390f35b3480156105c357600080fd5b506105cc610b56565b6040518082815260200191505060405180910390f35b3480156105ee57600080fd5b506106176004803603810190808035906020019092919080359060200190929190505050610b5c565b6040518082815260200191505060405180910390f35b34801561063957600080fd5b5061067860048036038101908080359060200190929190803573ffffffffffffffffffffffffffffffffffffffff169060200190929190505050610b81565b6040518082815260200191505060405180910390f35b34801561069a57600080fd5b506106d960048036038101908080359060200190929190803573ffffffffffffffffffffffffffffffffffffffff169060200190929190505050610ba6565b6040518082815260200191505060405180910390f35b3480156106fb57600080fd5b506107246004803603810190808035906020019092919080359060200190929190505050610bcb565b6040518082815260200191505060405180910390f35b34801561074657600080fd5b5061076560048036038101908080359060200190929190505050610bf0565b6040518082815260200191505060405180910390f35b34801561078757600080fd5b506107bc600480360381019080803573ffffffffffffffffffffffffffffffffffffffff169060200190929190505050610c08565b6040518082815260200191505060405180910390f35b3480156107de57600080fd5b506107fd60048036038101908080359060200190929190505050610c20565b6040518082815260200191505060405180910390f35b34801561081f57600080fd5b5061085e600480360381019080803573ffffffffffffffffffffffffffffffffffffffff16906020019092919080359060200190929190505050610c38565b6040518082815260200191505060405180910390f35b34801561088057600080fd5b506108bf600480360381019080803573ffffffffffffffffffffffffffffffffffffffff16906020019092919080359060200190929190505050610c5d565b604051808215151515815260200191505060405180910390f35b3480156108e557600080fd5b5061092e600480360381019080803573ffffffffffffffffffffffffffffffffffffffff1690602001909291908035906020019092919080359060200190929190505050610c8c565b6040518082815260200191505060405180910390f35b34801561095057600080fd5b5061096f60048036038101908080359060200190929190505050610cbe565b6040518082815260200191505060405180910390f35b6014602052816000526040600020602052806000526040600020600091509150505481565b600b602052816000526040600020602052806000526040600020600091509150505481565b6003602052816000526040600020602052806000526040600020600091509150505481565b60156020528060005260406000206000915054906101000a900473ffffffffffffffffffffffffffffffffffffffff1681565b60176020528160005260406000206020528060005260406000206000915091509054906101000a900460ff1681565b600c6020528060005260406000206000915090505481565b60186020528060005260406000206000915090505481565b60166020528060005260406000206000915090505481565b6002602052816000526040600020602052806000526040600020600091509150505481565b60066020528060005260406000206000915090505481565b600d6020528060005260406000206000915090505481565b60096020528060005260406000206000915090505481565b60076020528060005260406000206000915090505481565b60086020528060005260406000206000915054906101000a900473ffffffffffffffffffffffffffffffffffffffff1681565b60195481565b6005602052816000526040600020602052806000526040600020600091509150505481565b6013602052816000526040600020602052806000526040600020600091509150505481565b600e602052816000526040600020602052806000526040600020600091509150505481565b6001602052816000526040600020602052806000526040600020600091509150505481565b60006020528060005260406000206000915090505481565b600f6020528060005260406000206000915090505481565b60046020528060005260406000206000915090505481565b6011602052816000526040600020602052806000526040600020600091509150505481565b60126020528160005260406000206020528060005260406000206000915091509054906101000a900460ff1681565b601060205282600052604060002060205281600052604060002060205280600052604060002060009250925050505481565b600a60205280600052604060002060009150905054815600a165627a7a7230582030c2dc698763cc3087a7c0ec014a4ead5fc961e2805f9375ed36b6cf81fad23a0029",
  "source": "pragma solidity ^0.4.24;\n\nimport \"../node_modules/openzeppelin-solidity/contracts/math/SafeMath.sol\";\n\ncontract RoundDataHolder {\n    \n    //сколько всего было разукрашиваний в этом раунде любым цветом\n    mapping (uint => uint) public totalPaintsForRound; \n\n    //цвет клетки в раунде (pаунд => пиксель => цвет)\n    mapping (uint => mapping (uint => uint)) public pixelToColorForRound; \n\n    //предыдущий цвет клетки в раунде (pаунд => пиксель => цвет)\n    mapping (uint => mapping (uint => uint)) public pixelToOldColorForRound; \n\n    //маппинг цвета на количество клеток закрашенных этим цветом за раунд (раунд => цвет => количество пикселей)\n    mapping (uint => mapping (uint => uint)) public colorToPaintedPixelsAmountForRound; \n\n    //банк цвета за раунд (раунд => банк цвета)\n    mapping (uint => uint) public colorBankForRound; \n\n    //банк цвета для отдельного цвета за раунд (раунд => цвет => банк цвета)\n    mapping (uint => mapping (uint => uint)) public colorBankToColorForRound; \n\n    //банк времени за раунд (раунд => банк времени)\n    mapping (uint => uint) public timeBankForRound; \n    \n    //время самого последнего закрашивания игрового поля за раунд (раунд => таймстэмп)\n    mapping (uint => uint) public lastPaintTimeForRound; \n\n    //последний закрасивший любой пиксель пользователь за раунд (раунд => адрес)\n    mapping (uint => address) public lastPainterForRound; \n\n    //последний разукрашенный пиксель за раунд\n    mapping (uint => uint) public lastPaintedPixelForRound;\n\n    //цвет который выиграл (которым заполнились все пиксели) за раунд (раунд => цвет) \n    mapping (uint => uint) public winnerColorForRound; \n\n    //значение общего количества разукрашиваний данным цветом за весь раунд (раунд => цвет => количество разукрашиваний)\n    mapping (uint => mapping (uint => uint)) public colorToTotalPaintsForRound; \n\n    //время начала образования команды банка за раунд (раунд => время)\n    mapping(uint => uint) public teamStartedTimeForRound;\n\n    //время завершения команды банка за раунд (раунд => время)\n    mapping(uint => uint) public teamEndedTimeForRound;\n\n    /*\n    //счетчик общего количества закрашенных конкретным цветом клеток для пользователя за раунд (раунд => цвет => адрес => количество клеток)\n    mapping (uint => mapping(uint => mapping (address => uint))) public colorToAddressToTotalCounterForRound; \n    */\n\n    //счетчик общего количества закрашенных конкретным цветом клеток для пользователя (цвет => адрес => количество клеток)\n    mapping(uint => mapping (address => uint)) public colorToUserToTotalCounter; \n\n    /*\n    //счетчик общего количества закрашиваний любым цветом для пользователя за раунд (раунд => адрес => количество клеток)                                                                        \n    mapping(uint => mapping (address => uint)) public addressToTotalCounterForRound;\n    */\n\n    //счетчик общего количества закрашиваний любым цветом для пользователя(адрес => количество клеток)                                                                        \n    mapping (address => uint) public userToTotalCounter;\n\n    /*\n    //время использования краски определенного цвета в n-ый по счету раз для пользователя за раунд (адрес => цвет краски => счетчик => метка времени)                                                                                      \n    mapping (uint => mapping(address => mapping (uint => mapping (uint => uint)))) public addressToColorToCounterToTimestampForRound; \n    */\n\n    //время использования краски определенного цвета в n-ый по счету раз для пользователя за раунд (адрес => цвет краски => счетчик => метка времени)                                                                                      \n    mapping(address => mapping (uint => mapping (uint => uint))) public userToColorToCounterToTimestamp;             \n\n    /*\n    //время использования краски любого цвета в n-ый по счету раз для пользователя за раунд (адрес => счетчик => метка времени)                                                                    \n    mapping(uint=>mapping(address=>mapping(uint=>uint))) public addressToCounterToTimestampForRound; \n    */\n\n    //время использования краски любого цвета в n-ый по счету раз для пользователя(адрес => счетчик => метка времени)                                                                    \n    mapping(address => mapping(uint => uint)) public userToCounterToTimestamp; \n\n    //булевое значение проверяет получил ли пользователь приз банка за раунд (адрес => раунд => булевое значение)                                                                            \n    mapping(address => mapping(uint => bool)) public isPrizeDistributedForRound;\n    \n    //приз банка цвета для пользователя за раунд (раунд => адрес => выигрыш)\n    mapping(uint => mapping(address => uint)) public addressToColorBankPrizeForRound; \n\n    //приз банка времени для пользователя за раунд (раунд => адрес => выигрыш)\n    mapping(uint => mapping(address => uint)) public addressToTimeBankPrizeForRound; \n\n    //победитель раунда (раунд => адрес)\n    mapping (uint => address) public winnerOfRound; \n\n    //банк который был разыгран в раунде (раунд => разыгранный банк) (1 = банк времени, 2 = банк цвета)\n    mapping (uint => uint) public winnerBankForRound; \n\n    //маппинг о том принимал ли участие в каком либо раунде пользователь\n    mapping (uint => mapping (address => bool)) public hasTakenPartInRound;\n\n    //последний раунд в котором пользователь принимал участие (адрес => раунд)\n    mapping (address => uint) public lastPlayedRound; \n\n    //текущий раунд\n    uint public currentRound;\n\n}",
  "sourcePath": "/Users/Amir/last-pixel-contracts/contracts/RoundDataHolder.sol",
  "compiler": {
    "name": "solc",
    "version": "0.4.24+commit.e67f0147.Emscripten.clang"
  },
  "schemaVersion": "2.0.1",
  "updatedAt": "2018-12-15T17:28:11.323Z"
}