{
  "contractName": "RoundDataHolder",
  "abi": [
    {
      "constant": true,
      "inputs": [
        {
          "name": "",
          "type": "uint256"
        },
        {
          "name": "",
          "type": "address"
        }
      ],
      "name": "addressToTimeBankPrizeForRound",
      "outputs": [
        {
          "name": "",
          "type": "uint256"
        }
      ],
      "payable": false,
      "stateMutability": "view",
      "type": "function"
    },
    {
      "constant": true,
      "inputs": [
        {
          "name": "",
          "type": "uint256"
        },
        {
          "name": "",
          "type": "uint256"
        }
      ],
      "name": "colorToTotalPaintsForRound",
      "outputs": [
        {
          "name": "",
          "type": "uint256"
        }
      ],
      "payable": false,
      "stateMutability": "view",
      "type": "function"
    },
    {
      "constant": true,
      "inputs": [
        {
          "name": "",
          "type": "uint256"
        },
        {
          "name": "",
          "type": "uint256"
        }
      ],
      "name": "colorToPaintedPixelsAmountForRound",
      "outputs": [
        {
          "name": "",
          "type": "uint256"
        }
      ],
      "payable": false,
      "stateMutability": "view",
      "type": "function"
    },
    {
      "constant": true,
      "inputs": [
        {
          "name": "",
          "type": "uint256"
        }
      ],
      "name": "winnerOfRound",
      "outputs": [
        {
          "name": "",
          "type": "address"
        }
      ],
      "payable": false,
      "stateMutability": "view",
      "type": "function"
    },
    {
      "constant": true,
      "inputs": [
        {
          "name": "",
          "type": "uint256"
        },
        {
          "name": "",
          "type": "uint256"
        },
        {
          "name": "",
          "type": "address"
        }
      ],
      "name": "colorToAddressToTotalCounterForRound",
      "outputs": [
        {
          "name": "",
          "type": "uint256"
        }
      ],
      "payable": false,
      "stateMutability": "view",
      "type": "function"
    },
    {
      "constant": true,
      "inputs": [
        {
          "name": "",
          "type": "uint256"
        }
      ],
      "name": "teamStartedTimeForRound",
      "outputs": [
        {
          "name": "",
          "type": "uint256"
        }
      ],
      "payable": false,
      "stateMutability": "view",
      "type": "function"
    },
    {
      "constant": true,
      "inputs": [
        {
          "name": "",
          "type": "address"
        }
      ],
      "name": "lastPlayedRound",
      "outputs": [
        {
          "name": "",
          "type": "uint256"
        }
      ],
      "payable": false,
      "stateMutability": "view",
      "type": "function"
    },
    {
      "constant": true,
      "inputs": [
        {
          "name": "",
          "type": "uint256"
        }
      ],
      "name": "winnerBankForRound",
      "outputs": [
        {
          "name": "",
          "type": "uint256"
        }
      ],
      "payable": false,
      "stateMutability": "view",
      "type": "function"
    },
    {
      "constant": true,
      "inputs": [
        {
          "name": "",
          "type": "uint256"
        },
        {
          "name": "",
          "type": "uint256"
        }
      ],
      "name": "pixelToOldColorForRound",
      "outputs": [
        {
          "name": "",
          "type": "uint256"
        }
      ],
      "payable": false,
      "stateMutability": "view",
      "type": "function"
    },
    {
      "constant": true,
      "inputs": [
        {
          "name": "",
          "type": "uint256"
        }
      ],
      "name": "timeBankForRound",
      "outputs": [
        {
          "name": "",
          "type": "uint256"
        }
      ],
      "payable": false,
      "stateMutability": "view",
      "type": "function"
    },
    {
      "constant": true,
      "inputs": [
        {
          "name": "",
          "type": "uint256"
        }
      ],
      "name": "teamEndedTimeForRound",
      "outputs": [
        {
          "name": "",
          "type": "uint256"
        }
      ],
      "payable": false,
      "stateMutability": "view",
      "type": "function"
    },
    {
      "constant": true,
      "inputs": [
        {
          "name": "",
          "type": "uint256"
        },
        {
          "name": "",
          "type": "address"
        },
        {
          "name": "",
          "type": "uint256"
        }
      ],
      "name": "addressToCounterToTimestampForRound",
      "outputs": [
        {
          "name": "",
          "type": "uint256"
        }
      ],
      "payable": false,
      "stateMutability": "view",
      "type": "function"
    },
    {
      "constant": true,
      "inputs": [
        {
          "name": "",
          "type": "uint256"
        }
      ],
      "name": "lastPaintTimeForRound",
      "outputs": [
        {
          "name": "",
          "type": "uint256"
        }
      ],
      "payable": false,
      "stateMutability": "view",
      "type": "function"
    },
    {
      "constant": true,
      "inputs": [
        {
          "name": "",
          "type": "uint256"
        }
      ],
      "name": "lastPainterForRound",
      "outputs": [
        {
          "name": "",
          "type": "address"
        }
      ],
      "payable": false,
      "stateMutability": "view",
      "type": "function"
    },
    {
      "constant": true,
      "inputs": [],
      "name": "currentRound",
      "outputs": [
        {
          "name": "",
          "type": "uint256"
        }
      ],
      "payable": false,
      "stateMutability": "view",
      "type": "function"
    },
    {
      "constant": true,
      "inputs": [
        {
          "name": "",
          "type": "uint256"
        },
        {
          "name": "",
          "type": "uint256"
        }
      ],
      "name": "colorBankToColorForRound",
      "outputs": [
        {
          "name": "",
          "type": "uint256"
        }
      ],
      "payable": false,
      "stateMutability": "view",
      "type": "function"
    },
    {
      "constant": true,
      "inputs": [
        {
          "name": "",
          "type": "uint256"
        },
        {
          "name": "",
          "type": "address"
        }
      ],
      "name": "addressToColorBankPrizeForRound",
      "outputs": [
        {
          "name": "",
          "type": "uint256"
        }
      ],
      "payable": false,
      "stateMutability": "view",
      "type": "function"
    },
    {
      "constant": true,
      "inputs": [
        {
          "name": "",
          "type": "uint256"
        },
        {
          "name": "",
          "type": "address"
        }
      ],
      "name": "addressToTotalCounterForRound",
      "outputs": [
        {
          "name": "",
          "type": "uint256"
        }
      ],
      "payable": false,
      "stateMutability": "view",
      "type": "function"
    },
    {
      "constant": true,
      "inputs": [
        {
          "name": "",
          "type": "uint256"
        },
        {
          "name": "",
          "type": "address"
        },
        {
          "name": "",
          "type": "uint256"
        },
        {
          "name": "",
          "type": "uint256"
        }
      ],
      "name": "addressToColorToCounterToTimestampForRound",
      "outputs": [
        {
          "name": "",
          "type": "uint256"
        }
      ],
      "payable": false,
      "stateMutability": "view",
      "type": "function"
    },
    {
      "constant": true,
      "inputs": [
        {
          "name": "",
          "type": "uint256"
        },
        {
          "name": "",
          "type": "uint256"
        }
      ],
      "name": "pixelToColorForRound",
      "outputs": [
        {
          "name": "",
          "type": "uint256"
        }
      ],
      "payable": false,
      "stateMutability": "view",
      "type": "function"
    },
    {
      "constant": true,
      "inputs": [
        {
          "name": "",
          "type": "uint256"
        }
      ],
      "name": "totalPaintsForRound",
      "outputs": [
        {
          "name": "",
          "type": "uint256"
        }
      ],
      "payable": false,
      "stateMutability": "view",
      "type": "function"
    },
    {
      "constant": true,
      "inputs": [
        {
          "name": "",
          "type": "uint256"
        }
      ],
      "name": "colorBankForRound",
      "outputs": [
        {
          "name": "",
          "type": "uint256"
        }
      ],
      "payable": false,
      "stateMutability": "view",
      "type": "function"
    },
    {
      "constant": true,
      "inputs": [
        {
          "name": "",
          "type": "address"
        },
        {
          "name": "",
          "type": "uint256"
        }
      ],
      "name": "isPrizeDistributedForRound",
      "outputs": [
        {
          "name": "",
          "type": "bool"
        }
      ],
      "payable": false,
      "stateMutability": "view",
      "type": "function"
    },
    {
      "constant": true,
      "inputs": [
        {
          "name": "",
          "type": "uint256"
        }
      ],
      "name": "winnerColorForRound",
      "outputs": [
        {
          "name": "",
          "type": "uint256"
        }
      ],
      "payable": false,
      "stateMutability": "view",
      "type": "function"
    }
  ],
  "bytecode": "0x608060405234801561001057600080fd5b50610c5b806100206000396000f30060806040526004361061013e576000357c0100000000000000000000000000000000000000000000000000000000900463ffffffff16806306937b47146101435780630ba36221146101a45780630cf9603f146101ef578063102f97131461023a578063187aae8e146102a757806323a43a8e1461031257806328b290f9146103535780633d0d1a79146103aa5780634b39173d146103eb5780634c78e4011461043657806355457fc11461047757806361433c5b146104b857806373a9ee261461052357806379ecf376146105645780638a19c8bc146105d1578063a3120724146105fc578063a645867e14610647578063ab94b584146106a8578063ae2d2b6014610709578063b8232d5d1461077e578063be7d6226146107c9578063c64a2e561461080a578063d7be63321461084b578063f49916f5146108b0575b600080fd5b34801561014f57600080fd5b5061018e60048036038101908080359060200190929190803573ffffffffffffffffffffffffffffffffffffffff1690602001909291905050506108f1565b6040518082815260200191505060405180910390f35b3480156101b057600080fd5b506101d96004803603810190808035906020019092919080359060200190929190505050610916565b6040518082815260200191505060405180910390f35b3480156101fb57600080fd5b50610224600480360381019080803590602001909291908035906020019092919050505061093b565b6040518082815260200191505060405180910390f35b34801561024657600080fd5b5061026560048036038101908080359060200190929190505050610960565b604051808273ffffffffffffffffffffffffffffffffffffffff1673ffffffffffffffffffffffffffffffffffffffff16815260200191505060405180910390f35b3480156102b357600080fd5b506102fc6004803603810190808035906020019092919080359060200190929190803573ffffffffffffffffffffffffffffffffffffffff169060200190929190505050610993565b6040518082815260200191505060405180910390f35b34801561031e57600080fd5b5061033d600480360381019080803590602001909291905050506109c5565b6040518082815260200191505060405180910390f35b34801561035f57600080fd5b50610394600480360381019080803573ffffffffffffffffffffffffffffffffffffffff1690602001909291905050506109dd565b6040518082815260200191505060405180910390f35b3480156103b657600080fd5b506103d5600480360381019080803590602001909291905050506109f5565b6040518082815260200191505060405180910390f35b3480156103f757600080fd5b506104206004803603810190808035906020019092919080359060200190929190505050610a0d565b6040518082815260200191505060405180910390f35b34801561044257600080fd5b5061046160048036038101908080359060200190929190505050610a32565b6040518082815260200191505060405180910390f35b34801561048357600080fd5b506104a260048036038101908080359060200190929190505050610a4a565b6040518082815260200191505060405180910390f35b3480156104c457600080fd5b5061050d60048036038101908080359060200190929190803573ffffffffffffffffffffffffffffffffffffffff16906020019092919080359060200190929190505050610a62565b6040518082815260200191505060405180910390f35b34801561052f57600080fd5b5061054e60048036038101908080359060200190929190505050610a94565b6040518082815260200191505060405180910390f35b34801561057057600080fd5b5061058f60048036038101908080359060200190929190505050610aac565b604051808273ffffffffffffffffffffffffffffffffffffffff1673ffffffffffffffffffffffffffffffffffffffff16815260200191505060405180910390f35b3480156105dd57600080fd5b506105e6610adf565b6040518082815260200191505060405180910390f35b34801561060857600080fd5b506106316004803603810190808035906020019092919080359060200190929190505050610ae5565b6040518082815260200191505060405180910390f35b34801561065357600080fd5b5061069260048036038101908080359060200190929190803573ffffffffffffffffffffffffffffffffffffffff169060200190929190505050610b0a565b6040518082815260200191505060405180910390f35b3480156106b457600080fd5b506106f360048036038101908080359060200190929190803573ffffffffffffffffffffffffffffffffffffffff169060200190929190505050610b2f565b6040518082815260200191505060405180910390f35b34801561071557600080fd5b5061076860048036038101908080359060200190929190803573ffffffffffffffffffffffffffffffffffffffff1690602001909291908035906020019092919080359060200190929190505050610b54565b6040518082815260200191505060405180910390f35b34801561078a57600080fd5b506107b36004803603810190808035906020019092919080359060200190929190505050610b93565b6040518082815260200191505060405180910390f35b3480156107d557600080fd5b506107f460048036038101908080359060200190929190505050610bb8565b6040518082815260200191505060405180910390f35b34801561081657600080fd5b5061083560048036038101908080359060200190929190505050610bd0565b6040518082815260200191505060405180910390f35b34801561085757600080fd5b50610896600480360381019080803573ffffffffffffffffffffffffffffffffffffffff16906020019092919080359060200190929190505050610be8565b604051808215151515815260200191505060405180910390f35b3480156108bc57600080fd5b506108db60048036038101908080359060200190929190505050610c17565b6040518082815260200191505060405180910390f35b6013602052816000526040600020602052806000526040600020600091509150505481565b600a602052816000526040600020602052806000526040600020600091509150505481565b6003602052816000526040600020602052806000526040600020600091509150505481565b60146020528060005260406000206000915054906101000a900473ffffffffffffffffffffffffffffffffffffffff1681565b600d60205282600052604060002060205281600052604060002060205280600052604060002060009250925050505481565b600b6020528060005260406000206000915090505481565b60166020528060005260406000206000915090505481565b60156020528060005260406000206000915090505481565b6002602052816000526040600020602052806000526040600020600091509150505481565b60066020528060005260406000206000915090505481565b600c6020528060005260406000206000915090505481565b601060205282600052604060002060205281600052604060002060205280600052604060002060009250925050505481565b60076020528060005260406000206000915090505481565b60086020528060005260406000206000915054906101000a900473ffffffffffffffffffffffffffffffffffffffff1681565b60175481565b6005602052816000526040600020602052806000526040600020600091509150505481565b6012602052816000526040600020602052806000526040600020600091509150505481565b600e602052816000526040600020602052806000526040600020600091509150505481565b600f6020528360005260406000206020528260005260406000206020528160005260406000206020528060005260406000206000935093505050505481565b6001602052816000526040600020602052806000526040600020600091509150505481565b60006020528060005260406000206000915090505481565b60046020528060005260406000206000915090505481565b60116020528160005260406000206020528060005260406000206000915091509054906101000a900460ff1681565b600960205280600052604060002060009150905054815600a165627a7a72305820f77f9a882cc5f8027041ffb90f7ad19615f2e9aaa9ad4d8dd610571cb58945d40029",
  "source": "pragma solidity ^0.4.24;\n\nimport \"../node_modules/openzeppelin-solidity/contracts/math/SafeMath.sol\";\n\ncontract RoundDataHolder {\n    \n    //сколько всего было разукрашиваний в этом раунде любым цветом\n    mapping (uint => uint) public totalPaintsForRound; \n\n    //цвет клетки в раунде (pаунд => пиксель => цвет)\n    mapping (uint => mapping (uint => uint)) public pixelToColorForRound; \n\n    //предыдущий цвет клетки в раунде (pаунд => пиксель => цвет)\n    mapping (uint => mapping (uint => uint)) public pixelToOldColorForRound; \n\n    //маппинг цвета на количество клеток закрашенных этим цветом за раунд (раунд => цвет => количество пикселей)\n    mapping (uint => mapping (uint => uint)) public colorToPaintedPixelsAmountForRound; \n\n    //банк цвета за раунд (раунд => банк цвета)\n    mapping (uint => uint) public colorBankForRound; \n\n    //банк цвета для отдельного цвета за раунд (раунд => цвет => банк цвета)\n    mapping (uint => mapping (uint => uint)) public colorBankToColorForRound; \n\n    //банк времени за раунд (раунд => банк времени)\n    mapping (uint => uint) public timeBankForRound; \n    \n    //время самого последнего закрашивания игрового поля за раунд (раунд => таймстэмп)\n    mapping (uint => uint) public lastPaintTimeForRound; \n\n    //последний закрасивший любой пиксель пользователь за раунд (раунд => адрес)\n    mapping (uint => address) public lastPainterForRound; \n\n    //цвет который выиграл (которым заполнились все пиксели) за раунд (раунд => цвет) \n    mapping (uint => uint) public winnerColorForRound; \n\n    //значение общего количества разукрашиваний данным цветом за весь раунд (раунд => цвет => количество разукрашиваний)\n    mapping (uint => mapping (uint => uint)) public colorToTotalPaintsForRound; \n\n    //время начала образования команды банка за раунд (раунд => время)\n    mapping(uint => uint) public teamStartedTimeForRound;\n\n    //время завершения команды банка за раунд (раунд => время)\n    mapping(uint => uint) public teamEndedTimeForRound;\n    \n    //счетчик общего количества закрашенных конкретным цветом клеток для пользователя за раунд (раунд => цвет => адрес => количество клеток)\n    mapping (uint => mapping(uint => mapping (address => uint))) public colorToAddressToTotalCounterForRound; \n\n    //счетчик общего количества закрашиваний любым цветом для пользователя за раунд (раунд => адрес => количество клеток)                                                                        \n    mapping(uint => mapping (address => uint)) public addressToTotalCounterForRound;\n\n    //время использования краски определенного цвета в n-ый по счету раз для пользователя за раунд (адрес => цвет краски => счетчик => метка времени)                                                                                      \n    mapping (uint => mapping(address => mapping (uint => mapping (uint => uint)))) public addressToColorToCounterToTimestampForRound; \n                                                                            \n    //время использования краски любого цвета в n-ый по счету раз для пользователя за раунд (адрес => счетчик => метка времени)                                                                    \n    mapping(uint=>mapping(address=>mapping(uint=>uint))) public addressToCounterToTimestampForRound; \n\n    //булевое значение проверяет получил ли пользователь приз банка за раунд (адрес => раунд => булевое значение)                                                                            \n    mapping(address => mapping(uint => bool)) public isPrizeDistributedForRound;\n    \n    //приз банка цвета для пользователя за раунд (раунд => адрес => выигрыш)\n    mapping(uint => mapping(address => uint)) public addressToColorBankPrizeForRound; \n\n    //приз банка времени для пользователя за раунд (раунд => адрес => выигрыш)\n    mapping(uint => mapping(address => uint)) public addressToTimeBankPrizeForRound; \n\n    //победитель раунда (раунд => адрес)\n    mapping (uint => address) public winnerOfRound; \n\n    //банк который был разыгран в раунде (раунд => разыгранный банк) (1 = банк времени, 2 = банк цвета)\n    mapping (uint => uint) public winnerBankForRound; \n\n    //последний раунд в котором пользователь принимал участие (адрес => раунд)\n    mapping (address => uint) public lastPlayedRound; \n\n    //текущий раунд\n    uint public currentRound;\n\n}",
  "sourcePath": "/Users/Amir/last-pixel-contracts/contracts/RoundDataHolder.sol",
  "compiler": {
    "name": "solc",
    "version": "0.4.24+commit.e67f0147.Emscripten.clang"
  },
  "schemaVersion": "2.0.1",
  "updatedAt": "2018-12-07T04:37:56.792Z"
}