{
  "contractName": "RoundDataHolder",
  "abi": [
    {
      "constant": true,
      "inputs": [
        {
          "name": "",
          "type": "uint256"
        },
        {
          "name": "",
          "type": "address"
        }
      ],
      "name": "addressToTimeBankPrizeForRound",
      "outputs": [
        {
          "name": "",
          "type": "uint256"
        }
      ],
      "payable": false,
      "stateMutability": "view",
      "type": "function"
    },
    {
      "constant": true,
      "inputs": [
        {
          "name": "",
          "type": "uint256"
        },
        {
          "name": "",
          "type": "uint256"
        }
      ],
      "name": "colorToTotalPaintsForRound",
      "outputs": [
        {
          "name": "",
          "type": "uint256"
        }
      ],
      "payable": false,
      "stateMutability": "view",
      "type": "function"
    },
    {
      "constant": true,
      "inputs": [
        {
          "name": "",
          "type": "uint256"
        },
        {
          "name": "",
          "type": "uint256"
        }
      ],
      "name": "colorToPaintedPixelsAmountForRound",
      "outputs": [
        {
          "name": "",
          "type": "uint256"
        }
      ],
      "payable": false,
      "stateMutability": "view",
      "type": "function"
    },
    {
      "constant": true,
      "inputs": [
        {
          "name": "",
          "type": "uint256"
        }
      ],
      "name": "winnerOfRound",
      "outputs": [
        {
          "name": "",
          "type": "address"
        }
      ],
      "payable": false,
      "stateMutability": "view",
      "type": "function"
    },
    {
      "constant": true,
      "inputs": [
        {
          "name": "",
          "type": "uint256"
        },
        {
          "name": "",
          "type": "uint256"
        },
        {
          "name": "",
          "type": "address"
        }
      ],
      "name": "colorToAddressToTotalCounterForRound",
      "outputs": [
        {
          "name": "",
          "type": "uint256"
        }
      ],
      "payable": false,
      "stateMutability": "view",
      "type": "function"
    },
    {
      "constant": true,
      "inputs": [
        {
          "name": "",
          "type": "uint256"
        }
      ],
      "name": "teamStartedTimeForRound",
      "outputs": [
        {
          "name": "",
          "type": "uint256"
        }
      ],
      "payable": false,
      "stateMutability": "view",
      "type": "function"
    },
    {
      "constant": true,
      "inputs": [
        {
          "name": "",
          "type": "address"
        }
      ],
      "name": "lastPlayedRound",
      "outputs": [
        {
          "name": "",
          "type": "uint256"
        }
      ],
      "payable": false,
      "stateMutability": "view",
      "type": "function"
    },
    {
      "constant": true,
      "inputs": [
        {
          "name": "",
          "type": "uint256"
        }
      ],
      "name": "winnerBankForRound",
      "outputs": [
        {
          "name": "",
          "type": "uint256"
        }
      ],
      "payable": false,
      "stateMutability": "view",
      "type": "function"
    },
    {
      "constant": true,
      "inputs": [
        {
          "name": "",
          "type": "uint256"
        },
        {
          "name": "",
          "type": "uint256"
        }
      ],
      "name": "pixelToOldColorForRound",
      "outputs": [
        {
          "name": "",
          "type": "uint256"
        }
      ],
      "payable": false,
      "stateMutability": "view",
      "type": "function"
    },
    {
      "constant": true,
      "inputs": [
        {
          "name": "",
          "type": "uint256"
        }
      ],
      "name": "timeBankForRound",
      "outputs": [
        {
          "name": "",
          "type": "uint256"
        }
      ],
      "payable": false,
      "stateMutability": "view",
      "type": "function"
    },
    {
      "constant": true,
      "inputs": [
        {
          "name": "",
          "type": "uint256"
        }
      ],
      "name": "teamEndedTimeForRound",
      "outputs": [
        {
          "name": "",
          "type": "uint256"
        }
      ],
      "payable": false,
      "stateMutability": "view",
      "type": "function"
    },
    {
      "constant": true,
      "inputs": [
        {
          "name": "",
          "type": "uint256"
        },
        {
          "name": "",
          "type": "address"
        },
        {
          "name": "",
          "type": "uint256"
        }
      ],
      "name": "addressToCounterToTimestampForRound",
      "outputs": [
        {
          "name": "",
          "type": "uint256"
        }
      ],
      "payable": false,
      "stateMutability": "view",
      "type": "function"
    },
    {
      "constant": true,
      "inputs": [
        {
          "name": "",
          "type": "uint256"
        }
      ],
      "name": "lastPaintTimeForRound",
      "outputs": [
        {
          "name": "",
          "type": "uint256"
        }
      ],
      "payable": false,
      "stateMutability": "view",
      "type": "function"
    },
    {
      "constant": true,
      "inputs": [
        {
          "name": "",
          "type": "uint256"
        }
      ],
      "name": "lastPainterForRound",
      "outputs": [
        {
          "name": "",
          "type": "address"
        }
      ],
      "payable": false,
      "stateMutability": "view",
      "type": "function"
    },
    {
      "constant": true,
      "inputs": [],
      "name": "currentRound",
      "outputs": [
        {
          "name": "",
          "type": "uint256"
        }
      ],
      "payable": false,
      "stateMutability": "view",
      "type": "function"
    },
    {
      "constant": true,
      "inputs": [
        {
          "name": "",
          "type": "uint256"
        },
        {
          "name": "",
          "type": "address"
        }
      ],
      "name": "addressToColorBankPrizeForRound",
      "outputs": [
        {
          "name": "",
          "type": "uint256"
        }
      ],
      "payable": false,
      "stateMutability": "view",
      "type": "function"
    },
    {
      "constant": true,
      "inputs": [
        {
          "name": "",
          "type": "uint256"
        },
        {
          "name": "",
          "type": "address"
        }
      ],
      "name": "addressToTotalCounterForRound",
      "outputs": [
        {
          "name": "",
          "type": "uint256"
        }
      ],
      "payable": false,
      "stateMutability": "view",
      "type": "function"
    },
    {
      "constant": true,
      "inputs": [
        {
          "name": "",
          "type": "uint256"
        },
        {
          "name": "",
          "type": "address"
        },
        {
          "name": "",
          "type": "uint256"
        },
        {
          "name": "",
          "type": "uint256"
        }
      ],
      "name": "addressToColorToCounterToTimestampForRound",
      "outputs": [
        {
          "name": "",
          "type": "uint256"
        }
      ],
      "payable": false,
      "stateMutability": "view",
      "type": "function"
    },
    {
      "constant": true,
      "inputs": [
        {
          "name": "",
          "type": "uint256"
        },
        {
          "name": "",
          "type": "uint256"
        }
      ],
      "name": "pixelToColorForRound",
      "outputs": [
        {
          "name": "",
          "type": "uint256"
        }
      ],
      "payable": false,
      "stateMutability": "view",
      "type": "function"
    },
    {
      "constant": true,
      "inputs": [
        {
          "name": "",
          "type": "uint256"
        }
      ],
      "name": "totalPaintsForRound",
      "outputs": [
        {
          "name": "",
          "type": "uint256"
        }
      ],
      "payable": false,
      "stateMutability": "view",
      "type": "function"
    },
    {
      "constant": true,
      "inputs": [
        {
          "name": "",
          "type": "uint256"
        }
      ],
      "name": "colorBankForRound",
      "outputs": [
        {
          "name": "",
          "type": "uint256"
        }
      ],
      "payable": false,
      "stateMutability": "view",
      "type": "function"
    },
    {
      "constant": true,
      "inputs": [
        {
          "name": "",
          "type": "address"
        },
        {
          "name": "",
          "type": "uint256"
        }
      ],
      "name": "isPrizeDistributedForRound",
      "outputs": [
        {
          "name": "",
          "type": "bool"
        }
      ],
      "payable": false,
      "stateMutability": "view",
      "type": "function"
    },
    {
      "constant": true,
      "inputs": [
        {
          "name": "",
          "type": "uint256"
        }
      ],
      "name": "winnerColorForRound",
      "outputs": [
        {
          "name": "",
          "type": "uint256"
        }
      ],
      "payable": false,
      "stateMutability": "view",
      "type": "function"
    }
  ],
  "bytecode": "0x608060405234801561001057600080fd5b50610be0806100206000396000f300608060405260043610610133576000357c0100000000000000000000000000000000000000000000000000000000900463ffffffff16806306937b47146101385780630ba36221146101995780630cf9603f146101e4578063102f97131461022f578063187aae8e1461029c57806323a43a8e1461030757806328b290f9146103485780633d0d1a791461039f5780634b39173d146103e05780634c78e4011461042b57806355457fc11461046c57806361433c5b146104ad57806373a9ee261461051857806379ecf376146105595780638a19c8bc146105c6578063a645867e146105f1578063ab94b58414610652578063ae2d2b60146106b3578063b8232d5d14610728578063be7d622614610773578063c64a2e56146107b4578063d7be6332146107f5578063f49916f51461085a575b600080fd5b34801561014457600080fd5b5061018360048036038101908080359060200190929190803573ffffffffffffffffffffffffffffffffffffffff16906020019092919050505061089b565b6040518082815260200191505060405180910390f35b3480156101a557600080fd5b506101ce60048036038101908080359060200190929190803590602001909291905050506108c0565b6040518082815260200191505060405180910390f35b3480156101f057600080fd5b5061021960048036038101908080359060200190929190803590602001909291905050506108e5565b6040518082815260200191505060405180910390f35b34801561023b57600080fd5b5061025a6004803603810190808035906020019092919050505061090a565b604051808273ffffffffffffffffffffffffffffffffffffffff1673ffffffffffffffffffffffffffffffffffffffff16815260200191505060405180910390f35b3480156102a857600080fd5b506102f16004803603810190808035906020019092919080359060200190929190803573ffffffffffffffffffffffffffffffffffffffff16906020019092919050505061093d565b6040518082815260200191505060405180910390f35b34801561031357600080fd5b506103326004803603810190808035906020019092919050505061096f565b6040518082815260200191505060405180910390f35b34801561035457600080fd5b50610389600480360381019080803573ffffffffffffffffffffffffffffffffffffffff169060200190929190505050610987565b6040518082815260200191505060405180910390f35b3480156103ab57600080fd5b506103ca6004803603810190808035906020019092919050505061099f565b6040518082815260200191505060405180910390f35b3480156103ec57600080fd5b5061041560048036038101908080359060200190929190803590602001909291905050506109b7565b6040518082815260200191505060405180910390f35b34801561043757600080fd5b50610456600480360381019080803590602001909291905050506109dc565b6040518082815260200191505060405180910390f35b34801561047857600080fd5b50610497600480360381019080803590602001909291905050506109f4565b6040518082815260200191505060405180910390f35b3480156104b957600080fd5b5061050260048036038101908080359060200190929190803573ffffffffffffffffffffffffffffffffffffffff16906020019092919080359060200190929190505050610a0c565b6040518082815260200191505060405180910390f35b34801561052457600080fd5b5061054360048036038101908080359060200190929190505050610a3e565b6040518082815260200191505060405180910390f35b34801561056557600080fd5b5061058460048036038101908080359060200190929190505050610a56565b604051808273ffffffffffffffffffffffffffffffffffffffff1673ffffffffffffffffffffffffffffffffffffffff16815260200191505060405180910390f35b3480156105d257600080fd5b506105db610a89565b6040518082815260200191505060405180910390f35b3480156105fd57600080fd5b5061063c60048036038101908080359060200190929190803573ffffffffffffffffffffffffffffffffffffffff169060200190929190505050610a8f565b6040518082815260200191505060405180910390f35b34801561065e57600080fd5b5061069d60048036038101908080359060200190929190803573ffffffffffffffffffffffffffffffffffffffff169060200190929190505050610ab4565b6040518082815260200191505060405180910390f35b3480156106bf57600080fd5b5061071260048036038101908080359060200190929190803573ffffffffffffffffffffffffffffffffffffffff1690602001909291908035906020019092919080359060200190929190505050610ad9565b6040518082815260200191505060405180910390f35b34801561073457600080fd5b5061075d6004803603810190808035906020019092919080359060200190929190505050610b18565b6040518082815260200191505060405180910390f35b34801561077f57600080fd5b5061079e60048036038101908080359060200190929190505050610b3d565b6040518082815260200191505060405180910390f35b3480156107c057600080fd5b506107df60048036038101908080359060200190929190505050610b55565b6040518082815260200191505060405180910390f35b34801561080157600080fd5b50610840600480360381019080803573ffffffffffffffffffffffffffffffffffffffff16906020019092919080359060200190929190505050610b6d565b604051808215151515815260200191505060405180910390f35b34801561086657600080fd5b5061088560048036038101908080359060200190929190505050610b9c565b6040518082815260200191505060405180910390f35b6012602052816000526040600020602052806000526040600020600091509150505481565b6009602052816000526040600020602052806000526040600020600091509150505481565b6003602052816000526040600020602052806000526040600020600091509150505481565b60136020528060005260406000206000915054906101000a900473ffffffffffffffffffffffffffffffffffffffff1681565b600c60205282600052604060002060205281600052604060002060205280600052604060002060009250925050505481565b600a6020528060005260406000206000915090505481565b60156020528060005260406000206000915090505481565b60146020528060005260406000206000915090505481565b6002602052816000526040600020602052806000526040600020600091509150505481565b60056020528060005260406000206000915090505481565b600b6020528060005260406000206000915090505481565b600f60205282600052604060002060205281600052604060002060205280600052604060002060009250925050505481565b60066020528060005260406000206000915090505481565b60076020528060005260406000206000915054906101000a900473ffffffffffffffffffffffffffffffffffffffff1681565b60165481565b6011602052816000526040600020602052806000526040600020600091509150505481565b600d602052816000526040600020602052806000526040600020600091509150505481565b600e6020528360005260406000206020528260005260406000206020528160005260406000206020528060005260406000206000935093505050505481565b6001602052816000526040600020602052806000526040600020600091509150505481565b60006020528060005260406000206000915090505481565b60046020528060005260406000206000915090505481565b60106020528160005260406000206020528060005260406000206000915091509054906101000a900460ff1681565b600860205280600052604060002060009150905054815600a165627a7a723058201e1009825352d3ec3ff841db7143618209cdd4233c39b8ef96d1af68b90cbb210029",
  "source": "pragma solidity ^0.4.24;\n\nimport \"../node_modules/openzeppelin-solidity/contracts/math/SafeMath.sol\";\n\ncontract RoundDataHolder {\n    \n    //сколько всего было разукрашиваний в этом раунде любым цветом\n    mapping (uint => uint) public totalPaintsForRound; \n\n    //цвет клетки в раунде (pаунд => пиксель => цвет)\n    mapping (uint => mapping (uint => uint)) public pixelToColorForRound; \n\n    //предыдущий цвет клетки в раунде (pаунд => пиксель => цвет)\n    mapping (uint => mapping (uint => uint)) public pixelToOldColorForRound; \n\n    //маппинг цвета на количество клеток закрашенных этим цветом за раунд (раунд => цвет => количество пикселей)\n    mapping (uint => mapping (uint => uint)) public colorToPaintedPixelsAmountForRound; \n\n    //банк цвета за раунд (раунд => банк цвета)\n    mapping (uint => uint) public colorBankForRound; \n\n    //банк времени за раунд (раунд => банк времени)\n    mapping (uint => uint) public timeBankForRound; \n    \n    //время самого последнего закрашивания игрового поля за раунд (раунд => таймстэмп)\n    mapping (uint => uint) public lastPaintTimeForRound; \n\n    //последний закрасивший любой пиксель пользователь за раунд (раунд => адрес)\n    mapping (uint => address) public lastPainterForRound; \n\n    //цвет который выиграл (которым заполнились все пиксели) за раунд (раунд => цвет) \n    mapping (uint => uint) public winnerColorForRound; \n\n    //значение общего количества разукрашиваний данным цветом за весь раунд (раунд => цвет => количество разукрашиваний)\n    mapping (uint => mapping (uint => uint)) public colorToTotalPaintsForRound; \n\n    //время начала образования команды банка за раунд (раунд => время)\n    mapping(uint => uint) public teamStartedTimeForRound;\n\n    //время завершения команды банка за раунд (раунд => время)\n    mapping(uint => uint) public teamEndedTimeForRound;\n    \n    //счетчик общего количества закрашенных конкретным цветом клеток для пользователя за раунд (раунд => цвет => адрес => количество клеток)\n    mapping (uint => mapping(uint => mapping (address => uint))) public colorToAddressToTotalCounterForRound; \n\n    //счетчик общего количества закрашиваний любым цветом для пользователя за раунд (раунд => адрес => количество клеток)                                                                        \n    mapping(uint => mapping (address => uint)) public addressToTotalCounterForRound;\n\n    //время использования краски определенного цвета в n-ый по счету раз для пользователя за раунд (адрес => цвет краски => счетчик => метка времени)                                                                                      \n    mapping (uint => mapping(address => mapping (uint => mapping (uint => uint)))) public addressToColorToCounterToTimestampForRound; \n                                                                            \n    //время использования краски любого цвета в n-ый по счету раз для пользователя за раунд (адрес => счетчик => метка времени)                                                                    \n    mapping(uint=>mapping(address=>mapping(uint=>uint))) public addressToCounterToTimestampForRound; \n\n    //булевое значение проверяет получил ли пользователь приз банка за раунд (адрес => раунд => булевое значение)                                                                            \n    mapping(address => mapping(uint => bool)) public isPrizeDistributedForRound;\n    \n    //приз банка цвета для пользователя за раунд (раунд => адрес => выигрыш)\n    mapping(uint => mapping(address => uint)) public addressToColorBankPrizeForRound; \n\n    //приз банка времени для пользователя за раунд (раунд => адрес => выигрыш)\n    mapping(uint => mapping(address => uint)) public addressToTimeBankPrizeForRound; \n\n    //победитель раунда (раунд => адрес)\n    mapping (uint => address) public winnerOfRound; \n\n    //банк который был разыгран в раунде (раунд => разыгранный банк) (1 = банк времени, 2 = банк цвета)\n    mapping (uint => uint) public winnerBankForRound; \n\n    //последний раунд в котором пользователь принимал участие (адрес => раунд)\n    mapping (address => uint) public lastPlayedRound; \n\n    //текущий раунд\n    uint public currentRound;\n\n}",
  "sourcePath": "/Users/Amir/last-pixel-contracts/contracts/RoundDataHolder.sol",
  "compiler": {
    "name": "solc",
    "version": "0.4.24+commit.e67f0147.Emscripten.clang"
  },
  "schemaVersion": "2.0.1",
  "updatedAt": "2018-11-28T12:37:22.321Z"
}