{
  "contractName": "StorageV1",
  "abi": [
    {
      "constant": true,
      "inputs": [],
      "name": "isGamePaused",
      "outputs": [
        {
          "name": "",
          "type": "bool"
        }
      ],
      "payable": false,
      "stateMutability": "view",
      "type": "function"
    },
    {
      "constant": true,
      "inputs": [
        {
          "name": "",
          "type": "uint256"
        },
        {
          "name": "",
          "type": "address"
        }
      ],
      "name": "isInTBT",
      "outputs": [
        {
          "name": "",
          "type": "bool"
        }
      ],
      "payable": false,
      "stateMutability": "view",
      "type": "function"
    },
    {
      "constant": true,
      "inputs": [
        {
          "name": "",
          "type": "bytes32"
        }
      ],
      "name": "refLinkToUser",
      "outputs": [
        {
          "name": "",
          "type": "address"
        }
      ],
      "payable": false,
      "stateMutability": "view",
      "type": "function"
    },
    {
      "constant": true,
      "inputs": [
        {
          "name": "",
          "type": "uint256"
        }
      ],
      "name": "ownerOfColor",
      "outputs": [
        {
          "name": "",
          "type": "address"
        }
      ],
      "payable": false,
      "stateMutability": "view",
      "type": "function"
    },
    {
      "constant": true,
      "inputs": [
        {
          "name": "",
          "type": "uint256"
        },
        {
          "name": "",
          "type": "uint256"
        }
      ],
      "name": "colorToPaintedPixelsAmountForRound",
      "outputs": [
        {
          "name": "",
          "type": "uint256"
        }
      ],
      "payable": false,
      "stateMutability": "view",
      "type": "function"
    },
    {
      "constant": true,
      "inputs": [],
      "name": "tbIteration",
      "outputs": [
        {
          "name": "",
          "type": "uint256"
        }
      ],
      "payable": false,
      "stateMutability": "view",
      "type": "function"
    },
    {
      "constant": true,
      "inputs": [
        {
          "name": "",
          "type": "uint256"
        }
      ],
      "name": "winnerOfRound",
      "outputs": [
        {
          "name": "",
          "type": "address"
        }
      ],
      "payable": false,
      "stateMutability": "view",
      "type": "function"
    },
    {
      "constant": true,
      "inputs": [
        {
          "name": "",
          "type": "uint256"
        }
      ],
      "name": "timeBankDrawnForRound",
      "outputs": [
        {
          "name": "",
          "type": "bool"
        }
      ],
      "payable": false,
      "stateMutability": "view",
      "type": "function"
    },
    {
      "constant": true,
      "inputs": [
        {
          "name": "",
          "type": "address"
        }
      ],
      "name": "hasReferrer",
      "outputs": [
        {
          "name": "",
          "type": "bool"
        }
      ],
      "payable": false,
      "stateMutability": "view",
      "type": "function"
    },
    {
      "constant": true,
      "inputs": [
        {
          "name": "",
          "type": "uint256"
        },
        {
          "name": "",
          "type": "uint256"
        }
      ],
      "name": "colorToTotalPaintsForCBIteration",
      "outputs": [
        {
          "name": "",
          "type": "uint256"
        }
      ],
      "payable": false,
      "stateMutability": "view",
      "type": "function"
    },
    {
      "constant": true,
      "inputs": [],
      "name": "totalColorsNumber",
      "outputs": [
        {
          "name": "",
          "type": "uint256"
        }
      ],
      "payable": false,
      "stateMutability": "view",
      "type": "function"
    },
    {
      "constant": true,
      "inputs": [
        {
          "name": "",
          "type": "address"
        }
      ],
      "name": "isRegisteredUser",
      "outputs": [
        {
          "name": "",
          "type": "bool"
        }
      ],
      "payable": false,
      "stateMutability": "view",
      "type": "function"
    },
    {
      "constant": true,
      "inputs": [
        {
          "name": "",
          "type": "uint256"
        },
        {
          "name": "",
          "type": "address"
        }
      ],
      "name": "hasPaintDiscountForColor",
      "outputs": [
        {
          "name": "",
          "type": "bool"
        }
      ],
      "payable": false,
      "stateMutability": "view",
      "type": "function"
    },
    {
      "constant": true,
      "inputs": [],
      "name": "isTBPDistributable",
      "outputs": [
        {
          "name": "",
          "type": "bool"
        }
      ],
      "payable": false,
      "stateMutability": "view",
      "type": "function"
    },
    {
      "constant": true,
      "inputs": [
        {
          "name": "",
          "type": "address"
        }
      ],
      "name": "isAdmin",
      "outputs": [
        {
          "name": "",
          "type": "bool"
        }
      ],
      "payable": false,
      "stateMutability": "view",
      "type": "function"
    },
    {
      "constant": true,
      "inputs": [
        {
          "name": "",
          "type": "uint256"
        }
      ],
      "name": "currentPaintGenForColor",
      "outputs": [
        {
          "name": "",
          "type": "uint256"
        }
      ],
      "payable": false,
      "stateMutability": "view",
      "type": "function"
    },
    {
      "constant": true,
      "inputs": [
        {
          "name": "",
          "type": "address"
        }
      ],
      "name": "lastPlayedRound",
      "outputs": [
        {
          "name": "",
          "type": "uint256"
        }
      ],
      "payable": false,
      "stateMutability": "view",
      "type": "function"
    },
    {
      "constant": true,
      "inputs": [
        {
          "name": "",
          "type": "uint256"
        },
        {
          "name": "",
          "type": "address"
        }
      ],
      "name": "moneySpentByUserForColor",
      "outputs": [
        {
          "name": "",
          "type": "uint256"
        }
      ],
      "payable": false,
      "stateMutability": "view",
      "type": "function"
    },
    {
      "constant": true,
      "inputs": [
        {
          "name": "",
          "type": "uint256"
        },
        {
          "name": "",
          "type": "uint256"
        }
      ],
      "name": "tbTeam",
      "outputs": [
        {
          "name": "",
          "type": "address"
        }
      ],
      "payable": false,
      "stateMutability": "view",
      "type": "function"
    },
    {
      "constant": true,
      "inputs": [
        {
          "name": "",
          "type": "uint256"
        },
        {
          "name": "",
          "type": "address"
        }
      ],
      "name": "painterToTBP",
      "outputs": [
        {
          "name": "",
          "type": "uint256"
        }
      ],
      "payable": false,
      "stateMutability": "view",
      "type": "function"
    },
    {
      "constant": true,
      "inputs": [
        {
          "name": "",
          "type": "uint256"
        },
        {
          "name": "",
          "type": "uint256"
        }
      ],
      "name": "paintGenToStartTimeForColor",
      "outputs": [
        {
          "name": "",
          "type": "uint256"
        }
      ],
      "payable": false,
      "stateMutability": "view",
      "type": "function"
    },
    {
      "constant": true,
      "inputs": [
        {
          "name": "",
          "type": "uint256"
        }
      ],
      "name": "callPriceForColor",
      "outputs": [
        {
          "name": "",
          "type": "uint256"
        }
      ],
      "payable": false,
      "stateMutability": "view",
      "type": "function"
    },
    {
      "constant": true,
      "inputs": [
        {
          "name": "",
          "type": "uint256"
        },
        {
          "name": "",
          "type": "address"
        }
      ],
      "name": "painterToCBP",
      "outputs": [
        {
          "name": "",
          "type": "uint256"
        }
      ],
      "payable": false,
      "stateMutability": "view",
      "type": "function"
    },
    {
      "constant": true,
      "inputs": [
        {
          "name": "",
          "type": "uint256"
        }
      ],
      "name": "winnerBankForRound",
      "outputs": [
        {
          "name": "",
          "type": "uint256"
        }
      ],
      "payable": false,
      "stateMutability": "view",
      "type": "function"
    },
    {
      "constant": true,
      "inputs": [],
      "name": "paintsCounter",
      "outputs": [
        {
          "name": "",
          "type": "uint256"
        }
      ],
      "payable": false,
      "stateMutability": "view",
      "type": "function"
    },
    {
      "constant": true,
      "inputs": [],
      "name": "founders",
      "outputs": [
        {
          "name": "",
          "type": "address"
        }
      ],
      "payable": false,
      "stateMutability": "view",
      "type": "function"
    },
    {
      "constant": true,
      "inputs": [
        {
          "name": "",
          "type": "address"
        }
      ],
      "name": "newUserToCounter",
      "outputs": [
        {
          "name": "",
          "type": "uint256"
        }
      ],
      "payable": false,
      "stateMutability": "view",
      "type": "function"
    },
    {
      "constant": true,
      "inputs": [
        {
          "name": "",
          "type": "uint256"
        },
        {
          "name": "",
          "type": "uint256"
        }
      ],
      "name": "counterToPainterForColor",
      "outputs": [
        {
          "name": "",
          "type": "address"
        }
      ],
      "payable": false,
      "stateMutability": "view",
      "type": "function"
    },
    {
      "constant": true,
      "inputs": [
        {
          "name": "",
          "type": "uint256"
        },
        {
          "name": "",
          "type": "uint256"
        }
      ],
      "name": "pixelToOldColorForRound",
      "outputs": [
        {
          "name": "",
          "type": "uint256"
        }
      ],
      "payable": false,
      "stateMutability": "view",
      "type": "function"
    },
    {
      "constant": true,
      "inputs": [
        {
          "name": "",
          "type": "uint256"
        }
      ],
      "name": "isTBPTransfered",
      "outputs": [
        {
          "name": "",
          "type": "bool"
        }
      ],
      "payable": false,
      "stateMutability": "view",
      "type": "function"
    },
    {
      "constant": true,
      "inputs": [
        {
          "name": "",
          "type": "uint256"
        }
      ],
      "name": "timeBankForRound",
      "outputs": [
        {
          "name": "",
          "type": "uint256"
        }
      ],
      "payable": false,
      "stateMutability": "view",
      "type": "function"
    },
    {
      "constant": true,
      "inputs": [
        {
          "name": "",
          "type": "address"
        }
      ],
      "name": "userToRefLink",
      "outputs": [
        {
          "name": "",
          "type": "string"
        }
      ],
      "payable": false,
      "stateMutability": "view",
      "type": "function"
    },
    {
      "constant": true,
      "inputs": [],
      "name": "claimId",
      "outputs": [
        {
          "name": "",
          "type": "uint256"
        }
      ],
      "payable": false,
      "stateMutability": "view",
      "type": "function"
    },
    {
      "constant": true,
      "inputs": [
        {
          "name": "",
          "type": "uint256"
        },
        {
          "name": "",
          "type": "uint256"
        }
      ],
      "name": "cbTeam",
      "outputs": [
        {
          "name": "",
          "type": "address"
        }
      ],
      "payable": false,
      "stateMutability": "view",
      "type": "function"
    },
    {
      "constant": true,
      "inputs": [
        {
          "name": "",
          "type": "uint256"
        },
        {
          "name": "",
          "type": "uint256"
        }
      ],
      "name": "paintGenStartedForColor",
      "outputs": [
        {
          "name": "",
          "type": "bool"
        }
      ],
      "payable": false,
      "stateMutability": "view",
      "type": "function"
    },
    {
      "constant": true,
      "inputs": [
        {
          "name": "",
          "type": "uint256"
        }
      ],
      "name": "usersCounterForRound",
      "outputs": [
        {
          "name": "",
          "type": "uint256"
        }
      ],
      "payable": false,
      "stateMutability": "view",
      "type": "function"
    },
    {
      "constant": true,
      "inputs": [
        {
          "name": "",
          "type": "uint256"
        }
      ],
      "name": "lastPaintedPixelForRound",
      "outputs": [
        {
          "name": "",
          "type": "uint256"
        }
      ],
      "payable": false,
      "stateMutability": "view",
      "type": "function"
    },
    {
      "constant": true,
      "inputs": [
        {
          "name": "",
          "type": "uint256"
        }
      ],
      "name": "nextCallPriceForColor",
      "outputs": [
        {
          "name": "",
          "type": "uint256"
        }
      ],
      "payable": false,
      "stateMutability": "view",
      "type": "function"
    },
    {
      "constant": false,
      "inputs": [],
      "name": "renounceOwnership",
      "outputs": [],
      "payable": false,
      "stateMutability": "nonpayable",
      "type": "function"
    },
    {
      "constant": true,
      "inputs": [
        {
          "name": "",
          "type": "uint256"
        }
      ],
      "name": "lastPaintTimeForRound",
      "outputs": [
        {
          "name": "",
          "type": "uint256"
        }
      ],
      "payable": false,
      "stateMutability": "view",
      "type": "function"
    },
    {
      "constant": true,
      "inputs": [],
      "name": "isCBPDistributable",
      "outputs": [
        {
          "name": "",
          "type": "bool"
        }
      ],
      "payable": false,
      "stateMutability": "view",
      "type": "function"
    },
    {
      "constant": true,
      "inputs": [
        {
          "name": "",
          "type": "uint256"
        }
      ],
      "name": "lastPainterForRound",
      "outputs": [
        {
          "name": "",
          "type": "address"
        }
      ],
      "payable": false,
      "stateMutability": "view",
      "type": "function"
    },
    {
      "constant": true,
      "inputs": [
        {
          "name": "",
          "type": "address"
        }
      ],
      "name": "hasRefLink",
      "outputs": [
        {
          "name": "",
          "type": "bool"
        }
      ],
      "payable": false,
      "stateMutability": "view",
      "type": "function"
    },
    {
      "constant": true,
      "inputs": [
        {
          "name": "",
          "type": "address"
        }
      ],
      "name": "lastPaintTimeOfUser",
      "outputs": [
        {
          "name": "",
          "type": "uint256"
        }
      ],
      "payable": false,
      "stateMutability": "view",
      "type": "function"
    },
    {
      "constant": true,
      "inputs": [
        {
          "name": "",
          "type": "address"
        },
        {
          "name": "",
          "type": "uint256"
        }
      ],
      "name": "referrerToReferrals",
      "outputs": [
        {
          "name": "",
          "type": "address"
        }
      ],
      "payable": false,
      "stateMutability": "view",
      "type": "function"
    },
    {
      "constant": true,
      "inputs": [],
      "name": "currentRound",
      "outputs": [
        {
          "name": "",
          "type": "uint256"
        }
      ],
      "payable": false,
      "stateMutability": "view",
      "type": "function"
    },
    {
      "constant": true,
      "inputs": [],
      "name": "owner",
      "outputs": [
        {
          "name": "",
          "type": "address"
        }
      ],
      "payable": false,
      "stateMutability": "view",
      "type": "function"
    },
    {
      "constant": true,
      "inputs": [
        {
          "name": "",
          "type": "uint256"
        }
      ],
      "name": "paintsCounterForColor",
      "outputs": [
        {
          "name": "",
          "type": "uint256"
        }
      ],
      "payable": false,
      "stateMutability": "view",
      "type": "function"
    },
    {
      "constant": true,
      "inputs": [],
      "name": "isOwner",
      "outputs": [
        {
          "name": "",
          "type": "bool"
        }
      ],
      "payable": false,
      "stateMutability": "view",
      "type": "function"
    },
    {
      "constant": true,
      "inputs": [
        {
          "name": "",
          "type": "uint256"
        },
        {
          "name": "",
          "type": "uint256"
        }
      ],
      "name": "pixelToPaintTimeForRound",
      "outputs": [
        {
          "name": "",
          "type": "uint256"
        }
      ],
      "payable": false,
      "stateMutability": "view",
      "type": "function"
    },
    {
      "constant": true,
      "inputs": [
        {
          "name": "",
          "type": "uint256"
        },
        {
          "name": "",
          "type": "uint256"
        }
      ],
      "name": "colorBankToColorForRound",
      "outputs": [
        {
          "name": "",
          "type": "uint256"
        }
      ],
      "payable": false,
      "stateMutability": "view",
      "type": "function"
    },
    {
      "constant": true,
      "inputs": [
        {
          "name": "",
          "type": "uint256"
        }
      ],
      "name": "claims",
      "outputs": [
        {
          "name": "id",
          "type": "uint256"
        },
        {
          "name": "claimer",
          "type": "address"
        },
        {
          "name": "isResolved",
          "type": "bool"
        },
        {
          "name": "timestamp",
          "type": "uint256"
        }
      ],
      "payable": false,
      "stateMutability": "view",
      "type": "function"
    },
    {
      "constant": true,
      "inputs": [],
      "name": "ownerOfPixel",
      "outputs": [
        {
          "name": "",
          "type": "address"
        }
      ],
      "payable": false,
      "stateMutability": "view",
      "type": "function"
    },
    {
      "constant": true,
      "inputs": [
        {
          "name": "",
          "type": "uint256"
        },
        {
          "name": "",
          "type": "address"
        }
      ],
      "name": "isInCBT",
      "outputs": [
        {
          "name": "",
          "type": "bool"
        }
      ],
      "payable": false,
      "stateMutability": "view",
      "type": "function"
    },
    {
      "constant": true,
      "inputs": [
        {
          "name": "",
          "type": "uint256"
        }
      ],
      "name": "counterToPainter",
      "outputs": [
        {
          "name": "",
          "type": "address"
        }
      ],
      "payable": false,
      "stateMutability": "view",
      "type": "function"
    },
    {
      "constant": true,
      "inputs": [
        {
          "name": "",
          "type": "uint256"
        },
        {
          "name": "",
          "type": "address"
        }
      ],
      "name": "timeBankShare",
      "outputs": [
        {
          "name": "",
          "type": "uint256"
        }
      ],
      "payable": false,
      "stateMutability": "view",
      "type": "function"
    },
    {
      "constant": true,
      "inputs": [
        {
          "name": "",
          "type": "uint256"
        },
        {
          "name": "",
          "type": "uint256"
        },
        {
          "name": "",
          "type": "address"
        }
      ],
      "name": "colorBankShare",
      "outputs": [
        {
          "name": "",
          "type": "uint256"
        }
      ],
      "payable": false,
      "stateMutability": "view",
      "type": "function"
    },
    {
      "constant": true,
      "inputs": [
        {
          "name": "",
          "type": "uint256"
        },
        {
          "name": "",
          "type": "address"
        }
      ],
      "name": "lastPaintTimeOfUserForColor",
      "outputs": [
        {
          "name": "",
          "type": "uint256"
        }
      ],
      "payable": false,
      "stateMutability": "view",
      "type": "function"
    },
    {
      "constant": true,
      "inputs": [
        {
          "name": "",
          "type": "uint256"
        },
        {
          "name": "",
          "type": "uint256"
        }
      ],
      "name": "pixelToColorForRound",
      "outputs": [
        {
          "name": "",
          "type": "uint256"
        }
      ],
      "payable": false,
      "stateMutability": "view",
      "type": "function"
    },
    {
      "constant": true,
      "inputs": [
        {
          "name": "",
          "type": "uint256"
        }
      ],
      "name": "totalPaintsForRound",
      "outputs": [
        {
          "name": "",
          "type": "uint256"
        }
      ],
      "payable": false,
      "stateMutability": "view",
      "type": "function"
    },
    {
      "constant": true,
      "inputs": [
        {
          "name": "",
          "type": "uint256"
        }
      ],
      "name": "colorBankForRound",
      "outputs": [
        {
          "name": "",
          "type": "uint256"
        }
      ],
      "payable": false,
      "stateMutability": "view",
      "type": "function"
    },
    {
      "constant": true,
      "inputs": [
        {
          "name": "",
          "type": "uint256"
        },
        {
          "name": "",
          "type": "uint256"
        }
      ],
      "name": "paintGenToEndTimeForColor",
      "outputs": [
        {
          "name": "",
          "type": "uint256"
        }
      ],
      "payable": false,
      "stateMutability": "view",
      "type": "function"
    },
    {
      "constant": true,
      "inputs": [],
      "name": "uniqueUsersCount",
      "outputs": [
        {
          "name": "",
          "type": "uint256"
        }
      ],
      "payable": false,
      "stateMutability": "view",
      "type": "function"
    },
    {
      "constant": true,
      "inputs": [
        {
          "name": "",
          "type": "bytes32"
        }
      ],
      "name": "refLinkExists",
      "outputs": [
        {
          "name": "",
          "type": "bool"
        }
      ],
      "payable": false,
      "stateMutability": "view",
      "type": "function"
    },
    {
      "constant": true,
      "inputs": [
        {
          "name": "",
          "type": "uint256"
        },
        {
          "name": "",
          "type": "uint256"
        }
      ],
      "name": "paintGenToAmountForColor",
      "outputs": [
        {
          "name": "",
          "type": "uint256"
        }
      ],
      "payable": false,
      "stateMutability": "view",
      "type": "function"
    },
    {
      "constant": true,
      "inputs": [
        {
          "name": "",
          "type": "uint256"
        }
      ],
      "name": "isCBPTransfered",
      "outputs": [
        {
          "name": "",
          "type": "bool"
        }
      ],
      "payable": false,
      "stateMutability": "view",
      "type": "function"
    },
    {
      "constant": true,
      "inputs": [
        {
          "name": "",
          "type": "address"
        }
      ],
      "name": "referralToReferrer",
      "outputs": [
        {
          "name": "",
          "type": "address"
        }
      ],
      "payable": false,
      "stateMutability": "view",
      "type": "function"
    },
    {
      "constant": true,
      "inputs": [
        {
          "name": "",
          "type": "uint256"
        },
        {
          "name": "",
          "type": "address"
        }
      ],
      "name": "usersPaintDiscountForColor",
      "outputs": [
        {
          "name": "",
          "type": "uint256"
        }
      ],
      "payable": false,
      "stateMutability": "view",
      "type": "function"
    },
    {
      "constant": true,
      "inputs": [],
      "name": "maxPaintsInPool",
      "outputs": [
        {
          "name": "",
          "type": "uint256"
        }
      ],
      "payable": false,
      "stateMutability": "view",
      "type": "function"
    },
    {
      "constant": false,
      "inputs": [
        {
          "name": "newOwner",
          "type": "address"
        }
      ],
      "name": "transferOwnership",
      "outputs": [],
      "payable": false,
      "stateMutability": "nonpayable",
      "type": "function"
    },
    {
      "constant": true,
      "inputs": [
        {
          "name": "",
          "type": "uint256"
        }
      ],
      "name": "winnerColorForRound",
      "outputs": [
        {
          "name": "",
          "type": "uint256"
        }
      ],
      "payable": false,
      "stateMutability": "view",
      "type": "function"
    },
    {
      "constant": true,
      "inputs": [],
      "name": "dividendsBank",
      "outputs": [
        {
          "name": "",
          "type": "uint256"
        }
      ],
      "payable": false,
      "stateMutability": "view",
      "type": "function"
    },
    {
      "constant": true,
      "inputs": [
        {
          "name": "",
          "type": "address"
        }
      ],
      "name": "withdrawalBalances",
      "outputs": [
        {
          "name": "",
          "type": "uint256"
        }
      ],
      "payable": false,
      "stateMutability": "view",
      "type": "function"
    },
    {
      "constant": true,
      "inputs": [],
      "name": "cbIteration",
      "outputs": [
        {
          "name": "",
          "type": "uint256"
        }
      ],
      "payable": false,
      "stateMutability": "view",
      "type": "function"
    },
    {
      "anonymous": false,
      "inputs": [
        {
          "indexed": true,
          "name": "round",
          "type": "uint256"
        },
        {
          "indexed": true,
          "name": "cbIteration",
          "type": "uint256"
        },
        {
          "indexed": true,
          "name": "winner",
          "type": "address"
        },
        {
          "indexed": false,
          "name": "prize",
          "type": "uint256"
        }
      ],
      "name": "CBPDistributed",
      "type": "event"
    },
    {
      "anonymous": false,
      "inputs": [
        {
          "indexed": true,
          "name": "withdrawer",
          "type": "address"
        },
        {
          "indexed": true,
          "name": "claimId",
          "type": "uint256"
        },
        {
          "indexed": true,
          "name": "amount",
          "type": "uint256"
        }
      ],
      "name": "DividendsWithdrawn",
      "type": "event"
    },
    {
      "anonymous": false,
      "inputs": [
        {
          "indexed": true,
          "name": "claimer",
          "type": "address"
        },
        {
          "indexed": true,
          "name": "claimId",
          "type": "uint256"
        },
        {
          "indexed": true,
          "name": "currentTime",
          "type": "uint256"
        }
      ],
      "name": "DividendsClaimed",
      "type": "event"
    },
    {
      "anonymous": false,
      "inputs": [
        {
          "indexed": true,
          "name": "pixelId",
          "type": "uint256"
        },
        {
          "indexed": false,
          "name": "colorId",
          "type": "uint256"
        },
        {
          "indexed": true,
          "name": "painter",
          "type": "address"
        },
        {
          "indexed": true,
          "name": "round",
          "type": "uint256"
        },
        {
          "indexed": false,
          "name": "timestamp",
          "type": "uint256"
        }
      ],
      "name": "Paint",
      "type": "event"
    },
    {
      "anonymous": false,
      "inputs": [
        {
          "indexed": false,
          "name": "winnerOfRound",
          "type": "address"
        },
        {
          "indexed": true,
          "name": "round",
          "type": "uint256"
        }
      ],
      "name": "ColorBankPlayed",
      "type": "event"
    },
    {
      "anonymous": false,
      "inputs": [
        {
          "indexed": false,
          "name": "winnerOfRound",
          "type": "address"
        },
        {
          "indexed": true,
          "name": "round",
          "type": "uint256"
        }
      ],
      "name": "TimeBankPlayed",
      "type": "event"
    },
    {
      "anonymous": false,
      "inputs": [
        {
          "indexed": true,
          "name": "newCallPrice",
          "type": "uint256"
        }
      ],
      "name": "CallPriceUpdated",
      "type": "event"
    },
    {
      "anonymous": false,
      "inputs": [
        {
          "indexed": true,
          "name": "round",
          "type": "uint256"
        },
        {
          "indexed": true,
          "name": "tbIteration",
          "type": "uint256"
        },
        {
          "indexed": true,
          "name": "winner",
          "type": "address"
        },
        {
          "indexed": false,
          "name": "prize",
          "type": "uint256"
        }
      ],
      "name": "TBPDistributed",
      "type": "event"
    },
    {
      "anonymous": false,
      "inputs": [
        {
          "indexed": true,
          "name": "previousOwner",
          "type": "address"
        },
        {
          "indexed": true,
          "name": "newOwner",
          "type": "address"
        }
      ],
      "name": "OwnershipTransferred",
      "type": "event"
    }
  ],
  "bytecode": "0x608060405273ca35b7d915458ef540ade6068dfe2f44e8fa733c604060006101000a81548173ffffffffffffffffffffffffffffffffffffffff021916908373ffffffffffffffffffffffffffffffffffffffff160217905550733e4d187df7d8a0820eaf4174d17b160157610912604160006101000a81548173ffffffffffffffffffffffffffffffffffffffff021916908373ffffffffffffffffffffffffffffffffffffffff160217905550336000806101000a81548173ffffffffffffffffffffffffffffffffffffffff021916908373ffffffffffffffffffffffffffffffffffffffff1602179055506000809054906101000a900473ffffffffffffffffffffffffffffffffffffffff1673ffffffffffffffffffffffffffffffffffffffff16600073ffffffffffffffffffffffffffffffffffffffff167f8be0079c531659141344cd1fd0a4f28419497f9722a3daafe3b4186f6b6457e060405160405180910390a3612702806101796000396000f300608060405260043610610364576000357c0100000000000000000000000000000000000000000000000000000000900463ffffffff1680630422ddf31461036957806305bdd0be14610398578063099b81ce146103fd5780630baaea441461046e5780630cf9603f146104db5780630f6ed86e14610526578063102f97131461055157806315682a66146105be57806318452cd81461060357806319ef6a061461065e5780631d64873b146106a95780631f5bdf5d146106d45780631f90c6ed1461072f57806321423af81461079457806324d7806c146107c357806328361f571461081e57806328b290f91461085f5780632c6c1c41146108b65780632c7a3dae1461091757806333f9c3881461098e5780633a173505146109ef5780633c6dd01314610a3a5780633ca4c18314610a7b5780633d0d1a7914610adc5780633dc3c37714610b1d578063411b007e14610b4857806341c5464e14610b9f57806342e453ec14610bf65780634b39173d14610c6d5780634c438ad714610cb85780634c78e40114610cfd5780635bfcdb2714610d3e5780635c25fd1314610dfa5780635d63ebb214610e255780635f5d554c14610e9c5780636256655614610eeb578063628a71a314610f2c5780636f17eb4214610f6d578063715018a614610fae57806373a9ee2614610fc557806376f5d96a1461100657806379ecf376146110355780637e1e175c146110a25780638500b7b7146110fd57806387982ac3146111545780638a19c8bc146111e15780638da5cb5b1461120c5780638e2df39c146112635780638f32d59b146112a45780638f63b7e5146112d3578063a31207241461131e578063a888c2cd14611369578063a977e168146113ef578063ab24c7d214611446578063ae55ce82146114ab578063b0ff59d214611518578063b1a3883c14611579578063b60cbeb6146115e4578063b8232d5d14611645578063be7d622614611690578063c64a2e56146116d1578063c957387b14611712578063c9f8234f1461175d578063d4526e6814611788578063d5de47c7146117d1578063da68b1211461181c578063deaf0fa114611861578063eaf1c910146118e4578063eef565da14611945578063f2fde38b14611970578063f49916f5146119b3578063f5f95b3b146119f4578063fb454d2914611a1f578063fea11fe314611a76575b600080fd5b34801561037557600080fd5b5061037e611aa1565b604051808215151515815260200191505060405180910390f35b3480156103a457600080fd5b506103e360048036038101908080359060200190929190803573ffffffffffffffffffffffffffffffffffffffff169060200190929190505050611ab4565b604051808215151515815260200191505060405180910390f35b34801561040957600080fd5b5061042c6004803603810190808035600019169060200190929190505050611ae3565b604051808273ffffffffffffffffffffffffffffffffffffffff1673ffffffffffffffffffffffffffffffffffffffff16815260200191505060405180910390f35b34801561047a57600080fd5b5061049960048036038101908080359060200190929190505050611b16565b604051808273ffffffffffffffffffffffffffffffffffffffff1673ffffffffffffffffffffffffffffffffffffffff16815260200191505060405180910390f35b3480156104e757600080fd5b506105106004803603810190808035906020019092919080359060200190929190505050611b49565b6040518082815260200191505060405180910390f35b34801561053257600080fd5b5061053b611b6e565b6040518082815260200191505060405180910390f35b34801561055d57600080fd5b5061057c60048036038101908080359060200190929190505050611b74565b604051808273ffffffffffffffffffffffffffffffffffffffff1673ffffffffffffffffffffffffffffffffffffffff16815260200191505060405180910390f35b3480156105ca57600080fd5b506105e960048036038101908080359060200190929190505050611ba7565b604051808215151515815260200191505060405180910390f35b34801561060f57600080fd5b50610644600480360381019080803573ffffffffffffffffffffffffffffffffffffffff169060200190929190505050611bc7565b604051808215151515815260200191505060405180910390f35b34801561066a57600080fd5b506106936004803603810190808035906020019092919080359060200190929190505050611be7565b6040518082815260200191505060405180910390f35b3480156106b557600080fd5b506106be611c0c565b6040518082815260200191505060405180910390f35b3480156106e057600080fd5b50610715600480360381019080803573ffffffffffffffffffffffffffffffffffffffff169060200190929190505050611c12565b604051808215151515815260200191505060405180910390f35b34801561073b57600080fd5b5061077a60048036038101908080359060200190929190803573ffffffffffffffffffffffffffffffffffffffff169060200190929190505050611c32565b604051808215151515815260200191505060405180910390f35b3480156107a057600080fd5b506107a9611c61565b604051808215151515815260200191505060405180910390f35b3480156107cf57600080fd5b50610804600480360381019080803573ffffffffffffffffffffffffffffffffffffffff169060200190929190505050611c74565b604051808215151515815260200191505060405180910390f35b34801561082a57600080fd5b5061084960048036038101908080359060200190929190505050611c94565b6040518082815260200191505060405180910390f35b34801561086b57600080fd5b506108a0600480360381019080803573ffffffffffffffffffffffffffffffffffffffff169060200190929190505050611cac565b6040518082815260200191505060405180910390f35b3480156108c257600080fd5b5061090160048036038101908080359060200190929190803573ffffffffffffffffffffffffffffffffffffffff169060200190929190505050611cc4565b6040518082815260200191505060405180910390f35b34801561092357600080fd5b5061094c6004803603810190808035906020019092919080359060200190929190505050611ce9565b604051808273ffffffffffffffffffffffffffffffffffffffff1673ffffffffffffffffffffffffffffffffffffffff16815260200191505060405180910390f35b34801561099a57600080fd5b506109d960048036038101908080359060200190929190803573ffffffffffffffffffffffffffffffffffffffff169060200190929190505050611d36565b6040518082815260200191505060405180910390f35b3480156109fb57600080fd5b50610a246004803603810190808035906020019092919080359060200190929190505050611d5b565b6040518082815260200191505060405180910390f35b348015610a4657600080fd5b50610a6560048036038101908080359060200190929190505050611d80565b6040518082815260200191505060405180910390f35b348015610a8757600080fd5b50610ac660048036038101908080359060200190929190803573ffffffffffffffffffffffffffffffffffffffff169060200190929190505050611d98565b6040518082815260200191505060405180910390f35b348015610ae857600080fd5b50610b0760048036038101908080359060200190929190505050611dbd565b6040518082815260200191505060405180910390f35b348015610b2957600080fd5b50610b32611dd5565b6040518082815260200191505060405180910390f35b348015610b5457600080fd5b50610b5d611ddb565b604051808273ffffffffffffffffffffffffffffffffffffffff1673ffffffffffffffffffffffffffffffffffffffff16815260200191505060405180910390f35b348015610bab57600080fd5b50610be0600480360381019080803573ffffffffffffffffffffffffffffffffffffffff169060200190929190505050611e01565b6040518082815260200191505060405180910390f35b348015610c0257600080fd5b50610c2b6004803603810190808035906020019092919080359060200190929190505050611e19565b604051808273ffffffffffffffffffffffffffffffffffffffff1673ffffffffffffffffffffffffffffffffffffffff16815260200191505060405180910390f35b348015610c7957600080fd5b50610ca26004803603810190808035906020019092919080359060200190929190505050611e5b565b6040518082815260200191505060405180910390f35b348015610cc457600080fd5b50610ce360048036038101908080359060200190929190505050611e80565b604051808215151515815260200191505060405180910390f35b348015610d0957600080fd5b50610d2860048036038101908080359060200190929190505050611ea0565b6040518082815260200191505060405180910390f35b348015610d4a57600080fd5b50610d7f600480360381019080803573ffffffffffffffffffffffffffffffffffffffff169060200190929190505050611eb8565b6040518080602001828103825283818151815260200191508051906020019080838360005b83811015610dbf578082015181840152602081019050610da4565b50505050905090810190601f168015610dec5780820380516001836020036101000a031916815260200191505b509250505060405180910390f35b348015610e0657600080fd5b50610e0f611f68565b6040518082815260200191505060405180910390f35b348015610e3157600080fd5b50610e5a6004803603810190808035906020019092919080359060200190929190505050611f6e565b604051808273ffffffffffffffffffffffffffffffffffffffff1673ffffffffffffffffffffffffffffffffffffffff16815260200191505060405180910390f35b348015610ea857600080fd5b50610ed16004803603810190808035906020019092919080359060200190929190505050611fbb565b604051808215151515815260200191505060405180910390f35b348015610ef757600080fd5b50610f1660048036038101908080359060200190929190505050611fea565b6040518082815260200191505060405180910390f35b348015610f3857600080fd5b50610f5760048036038101908080359060200190929190505050612002565b6040518082815260200191505060405180910390f35b348015610f7957600080fd5b50610f986004803603810190808035906020019092919050505061201a565b6040518082815260200191505060405180910390f35b348015610fba57600080fd5b50610fc3612032565b005b348015610fd157600080fd5b50610ff060048036038101908080359060200190929190505050612104565b6040518082815260200191505060405180910390f35b34801561101257600080fd5b5061101b61211c565b604051808215151515815260200191505060405180910390f35b34801561104157600080fd5b506110606004803603810190808035906020019092919050505061212f565b604051808273ffffffffffffffffffffffffffffffffffffffff1673ffffffffffffffffffffffffffffffffffffffff16815260200191505060405180910390f35b3480156110ae57600080fd5b506110e3600480360381019080803573ffffffffffffffffffffffffffffffffffffffff169060200190929190505050612162565b604051808215151515815260200191505060405180910390f35b34801561110957600080fd5b5061113e600480360381019080803573ffffffffffffffffffffffffffffffffffffffff169060200190929190505050612182565b6040518082815260200191505060405180910390f35b34801561116057600080fd5b5061119f600480360381019080803573ffffffffffffffffffffffffffffffffffffffff1690602001909291908035906020019092919050505061219a565b604051808273ffffffffffffffffffffffffffffffffffffffff1673ffffffffffffffffffffffffffffffffffffffff16815260200191505060405180910390f35b3480156111ed57600080fd5b506111f66121e6565b6040518082815260200191505060405180910390f35b34801561121857600080fd5b506112216121ec565b604051808273ffffffffffffffffffffffffffffffffffffffff1673ffffffffffffffffffffffffffffffffffffffff16815260200191505060405180910390f35b34801561126f57600080fd5b5061128e60048036038101908080359060200190929190505050612215565b6040518082815260200191505060405180910390f35b3480156112b057600080fd5b506112b961222d565b604051808215151515815260200191505060405180910390f35b3480156112df57600080fd5b506113086004803603810190808035906020019092919080359060200190929190505050612284565b6040518082815260200191505060405180910390f35b34801561132a57600080fd5b5061135360048036038101908080359060200190929190803590602001909291905050506122a9565b6040518082815260200191505060405180910390f35b34801561137557600080fd5b50611394600480360381019080803590602001909291905050506122ce565b604051808581526020018473ffffffffffffffffffffffffffffffffffffffff1673ffffffffffffffffffffffffffffffffffffffff1681526020018315151515815260200182815260200194505050505060405180910390f35b3480156113fb57600080fd5b5061140461233a565b604051808273ffffffffffffffffffffffffffffffffffffffff1673ffffffffffffffffffffffffffffffffffffffff16815260200191505060405180910390f35b34801561145257600080fd5b5061149160048036038101908080359060200190929190803573ffffffffffffffffffffffffffffffffffffffff169060200190929190505050612360565b604051808215151515815260200191505060405180910390f35b3480156114b757600080fd5b506114d66004803603810190808035906020019092919050505061238f565b604051808273ffffffffffffffffffffffffffffffffffffffff1673ffffffffffffffffffffffffffffffffffffffff16815260200191505060405180910390f35b34801561152457600080fd5b5061156360048036038101908080359060200190929190803573ffffffffffffffffffffffffffffffffffffffff1690602001909291905050506123c2565b6040518082815260200191505060405180910390f35b34801561158557600080fd5b506115ce6004803603810190808035906020019092919080359060200190929190803573ffffffffffffffffffffffffffffffffffffffff1690602001909291905050506123e7565b6040518082815260200191505060405180910390f35b3480156115f057600080fd5b5061162f60048036038101908080359060200190929190803573ffffffffffffffffffffffffffffffffffffffff169060200190929190505050612419565b6040518082815260200191505060405180910390f35b34801561165157600080fd5b5061167a600480360381019080803590602001909291908035906020019092919050505061243e565b6040518082815260200191505060405180910390f35b34801561169c57600080fd5b506116bb60048036038101908080359060200190929190505050612463565b6040518082815260200191505060405180910390f35b3480156116dd57600080fd5b506116fc6004803603810190808035906020019092919050505061247b565b6040518082815260200191505060405180910390f35b34801561171e57600080fd5b506117476004803603810190808035906020019092919080359060200190929190505050612493565b6040518082815260200191505060405180910390f35b34801561176957600080fd5b506117726124b8565b6040518082815260200191505060405180910390f35b34801561179457600080fd5b506117b760048036038101908080356000191690602001909291905050506124be565b604051808215151515815260200191505060405180910390f35b3480156117dd57600080fd5b5061180660048036038101908080359060200190929190803590602001909291905050506124de565b6040518082815260200191505060405180910390f35b34801561182857600080fd5b5061184760048036038101908080359060200190929190505050612503565b604051808215151515815260200191505060405180910390f35b34801561186d57600080fd5b506118a2600480360381019080803573ffffffffffffffffffffffffffffffffffffffff169060200190929190505050612523565b604051808273ffffffffffffffffffffffffffffffffffffffff1673ffffffffffffffffffffffffffffffffffffffff16815260200191505060405180910390f35b3480156118f057600080fd5b5061192f60048036038101908080359060200190929190803573ffffffffffffffffffffffffffffffffffffffff169060200190929190505050612556565b6040518082815260200191505060405180910390f35b34801561195157600080fd5b5061195a61257b565b6040518082815260200191505060405180910390f35b34801561197c57600080fd5b506119b1600480360381019080803573ffffffffffffffffffffffffffffffffffffffff169060200190929190505050612581565b005b3480156119bf57600080fd5b506119de600480360381019080803590602001909291905050506125a0565b6040518082815260200191505060405180910390f35b348015611a0057600080fd5b50611a096125b8565b6040518082815260200191505060405180910390f35b348015611a2b57600080fd5b50611a60600480360381019080803573ffffffffffffffffffffffffffffffffffffffff1690602001909291905050506125be565b6040518082815260200191505060405180910390f35b348015611a8257600080fd5b50611a8b6125d6565b6040518082815260200191505060405180910390f35b604160149054906101000a900460ff1681565b60346020528160005260406000206020528060005260406000206000915091509054906101000a900460ff1681565b60236020528060005260406000206000915054906101000a900473ffffffffffffffffffffffffffffffffffffffff1681565b603a6020528060005260406000206000915054906101000a900473ffffffffffffffffffffffffffffffffffffffff1681565b6006602052816000526040600020602052806000526040600020600091509150505481565b60295481565b600f6020528060005260406000206000915054906101000a900473ffffffffffffffffffffffffffffffffffffffff1681565b60486020528060005260406000206000915054906101000a900460ff1681565b60216020528060005260406000206000915054906101000a900460ff1681565b600e602052816000526040600020602052806000526040600020600091509150505481565b60455481565b601d6020528060005260406000206000915054906101000a900460ff1681565b601b6020528160005260406000206020528060005260406000206000915091509054906101000a900460ff1681565b604160169054906101000a900460ff1681565b60426020528060005260406000206000915054906101000a900460ff1681565b60176020528060005260406000206000915090505481565b60396020528060005260406000206000915090505481565b601a602052816000526040600020602052806000526040600020600091509150505481565b603060205281600052604060002081815481101515611d0457fe5b906000526020600020016000915091509054906101000a900473ffffffffffffffffffffffffffffffffffffffff1681565b6036602052816000526040600020602052806000526040600020600091509150505481565b6014602052816000526040600020602052806000526040600020600091509150505481565b60186020528060005260406000206000915090505481565b6035602052816000526040600020602052806000526040600020600091509150505481565b60106020528060005260406000206000915090505481565b602b5481565b604160009054906101000a900473ffffffffffffffffffffffffffffffffffffffff1681565b60256020528060005260406000206000915090505481565b60326020528160005260406000206020528060005260406000206000915091509054906101000a900473ffffffffffffffffffffffffffffffffffffffff1681565b6005602052816000526040600020602052806000526040600020600091509150505481565b60386020528060005260406000206000915054906101000a900460ff1681565b60096020528060005260406000206000915090505481565b60226020528060005260406000206000915090508054600181600116156101000203166002900480601f016020809104026020016040519081016040528092919081815260200182805460018160011615610100020316600290048015611f605780601f10611f3557610100808354040283529160200191611f60565b820191906000526020600020905b815481529060010190602001808311611f4357829003601f168201915b505050505081565b603e5481565b602f60205281600052604060002081815481101515611f8957fe5b906000526020600020016000915091509054906101000a900473ffffffffffffffffffffffffffffffffffffffff1681565b60166020528160005260406000206020528060005260406000206000915091509054906101000a900460ff1681565b60496020528060005260406000206000915090505481565b600c6020528060005260406000206000915090505481565b60196020528060005260406000206000915090505481565b61203a61222d565b151561204557600080fd5b600073ffffffffffffffffffffffffffffffffffffffff166000809054906101000a900473ffffffffffffffffffffffffffffffffffffffff1673ffffffffffffffffffffffffffffffffffffffff167f8be0079c531659141344cd1fd0a4f28419497f9722a3daafe3b4186f6b6457e060405160405180910390a360008060006101000a81548173ffffffffffffffffffffffffffffffffffffffff021916908373ffffffffffffffffffffffffffffffffffffffff160217905550565b600a6020528060005260406000206000915090505481565b604160159054906101000a900460ff1681565b600b6020528060005260406000206000915054906101000a900473ffffffffffffffffffffffffffffffffffffffff1681565b601e6020528060005260406000206000915054906101000a900460ff1681565b60466020528060005260406000206000915090505481565b60208052816000526040600020818154811015156121b457fe5b906000526020600020016000915091509054906101000a900473ffffffffffffffffffffffffffffffffffffffff1681565b60285481565b60008060009054906101000a900473ffffffffffffffffffffffffffffffffffffffff16905090565b602e6020528060005260406000206000915090505481565b60008060009054906101000a900473ffffffffffffffffffffffffffffffffffffffff1673ffffffffffffffffffffffffffffffffffffffff163373ffffffffffffffffffffffffffffffffffffffff1614905090565b6011602052816000526040600020602052806000526040600020600091509150505481565b6008602052816000526040600020602052806000526040600020600091509150505481565b603f818154811015156122dd57fe5b90600052602060002090600302016000915090508060000154908060010160009054906101000a900473ffffffffffffffffffffffffffffffffffffffff16908060010160149054906101000a900460ff16908060020154905084565b604060009054906101000a900473ffffffffffffffffffffffffffffffffffffffff1681565b60336020528160005260406000206020528060005260406000206000915091509054906101000a900460ff1681565b60316020528060005260406000206000915054906101000a900473ffffffffffffffffffffffffffffffffffffffff1681565b602c602052816000526040600020602052806000526040600020600091509150505481565b602d60205282600052604060002060205281600052604060002060205280600052604060002060009250925050505481565b6047602052816000526040600020602052806000526040600020600091509150505481565b6004602052816000526040600020602052806000526040600020600091509150505481565b60126020528060005260406000206000915090505481565b60076020528060005260406000206000915090505481565b6015602052816000526040600020602052806000526040600020600091509150505481565b60265481565b60246020528060005260406000206000915054906101000a900460ff1681565b6013602052816000526040600020602052806000526040600020600091509150505481565b60376020528060005260406000206000915054906101000a900460ff1681565b601f6020528060005260406000206000915054906101000a900473ffffffffffffffffffffffffffffffffffffffff1681565b601c602052816000526040600020602052806000526040600020600091509150505481565b60275481565b61258961222d565b151561259457600080fd5b61259d816125dc565b50565b600d6020528060005260406000206000915090505481565b603d5481565b603b6020528060005260406000206000915090505481565b602a5481565b600073ffffffffffffffffffffffffffffffffffffffff168173ffffffffffffffffffffffffffffffffffffffff161415151561261857600080fd5b8073ffffffffffffffffffffffffffffffffffffffff166000809054906101000a900473ffffffffffffffffffffffffffffffffffffffff1673ffffffffffffffffffffffffffffffffffffffff167f8be0079c531659141344cd1fd0a4f28419497f9722a3daafe3b4186f6b6457e060405160405180910390a3806000806101000a81548173ffffffffffffffffffffffffffffffffffffffff021916908373ffffffffffffffffffffffffffffffffffffffff160217905550505600a165627a7a72305820f0e79eec84a98e70061093f543cb9d84457d2e02453fd80f2f3b84f2d17456480029",
  "source": "pragma solidity ^0.4.24;\nimport \"./StorageV0.sol\";\nimport \"./IColor.sol\";\nimport \"./IPixel.sol\";\n\ncontract StorageV1 is StorageV0 {\n\n    //    (p =>  => )\n    mapping (uint => mapping (uint => uint)) public pixelToColorForRound; \n\n    //     (p =>  => )\n    mapping (uint => mapping (uint => uint)) public pixelToOldColorForRound; \n\n    //          ( =>  =>  )\n    mapping (uint => mapping (uint => uint)) public colorToPaintedPixelsAmountForRound; \n\n    //    ( =>  )\n    mapping (uint => uint) public colorBankForRound; \n\n    //       ( =>  =>  )\n    mapping (uint => mapping (uint => uint)) public colorBankToColorForRound; \n\n    //    ( =>  )\n    mapping (uint => uint) public timeBankForRound; \n    \n    //        ( => )\n    mapping (uint => uint) public lastPaintTimeForRound; \n\n    //       ( => )\n    mapping (uint => address) public lastPainterForRound; \n\n    //    \n    mapping (uint => uint) public lastPaintedPixelForRound;\n\n    //   (   )   ( => ) \n    mapping (uint => uint) public winnerColorForRound; \n\n    //         ( =>  =>  )\n    mapping (uint => mapping (uint => uint)) public colorToTotalPaintsForCBIteration; \n\n    //  ( => )\n    mapping (uint => address) public winnerOfRound; \n\n    //      ( =>  ) (1 =  , 2 =  )\n    mapping (uint => uint) public winnerBankForRound; \n\n    //       (0 =  )\n    mapping (uint => mapping (uint => uint)) public pixelToPaintTimeForRound;\n\n    //        \n    mapping (uint => uint) public totalPaintsForRound;\n        \n    //    \n    mapping (uint => mapping (uint => uint)) public paintGenToAmountForColor;\n    \n    //       \n    mapping (uint => mapping (uint => uint)) public paintGenToStartTimeForColor;\n    \n    //       \n    mapping (uint => mapping (uint => uint)) public paintGenToEndTimeForColor;\n    \n    //  -   ,   \n    mapping (uint => mapping (uint => bool)) public paintGenStartedForColor;\n\n    //       \n    mapping (uint => uint) public currentPaintGenForColor;\n    \n    //   paint\n    mapping (uint => uint) public callPriceForColor;\n    \n    //    paint\n    mapping (uint => uint) public nextCallPriceForColor;\n    \n    //         \n    mapping (uint => mapping (address => uint)) public moneySpentByUserForColor;\n    \n    //     ,           \n    mapping (uint => mapping (address => bool)) public hasPaintDiscountForColor;\n    \n    //       ( )\n    mapping (uint => mapping (address => uint)) public usersPaintDiscountForColor;\n\n     // \n    mapping (address => bool) public isRegisteredUser;\n    \n    //     (    )\n    mapping (address => bool) public hasRefLink;\n\n    //   \n    mapping (address => address) public referralToReferrer;\n\n    //    \n    mapping (address => address[]) public referrerToReferrals;\n    \n    //    \n    mapping (address => bool) public hasReferrer;\n    \n    //     \n    mapping (address => string) public userToRefLink;\n    \n    //     -    \n    mapping (bytes32 => address) public refLinkToUser;\n    \n    //   (  )  \n    mapping (bytes32 => bool) public refLinkExists;\n    \n    //       \n    mapping (address => uint) public newUserToCounter;\n    \n    //  \n    uint public uniqueUsersCount;\n\n    //      (10000)\n    uint public maxPaintsInPool;\n\n    // \n    uint public currentRound;\n\n    //  \n    uint public tbIteration;\n\n    //  \n    uint public cbIteration;\n\n    //      \n    uint public paintsCounter; \n\n    //Time Bank Iteration => Painter => Painter's Share in Time Team\n    mapping (uint => mapping (address => uint)) public timeBankShare;\n\n    //Color Bank Iteration => Color => Painter => Painter's Share in Time Team\n    mapping (uint => mapping (uint => mapping (address => uint))) public colorBankShare;\n\n    //      \n    mapping (uint => uint) public paintsCounterForColor; \n\n    //cbIteration =>  \n    mapping (uint => address[]) public cbTeam; \n\n    //tbIteration =>  \n    mapping (uint => address[]) public tbTeam;\n\n     //c => \n    mapping (uint => address) public counterToPainter;\n\n    // => c =>     \n    mapping (uint => mapping (uint => address)) public counterToPainterForColor; \n\n    //cbIteration =>  !should not be public\n    mapping (uint => mapping (address => bool)) public isInCBT; \n\n    //tbIteration =>  !should not be public\n    mapping (uint => mapping (address => bool)) public isInTBT; \n\n    //cbIteration => painter => color bank prize\n    mapping (uint => mapping (address => uint)) public painterToCBP; \n\n    //tbIteration => painter => time bank prize\n    mapping (uint => mapping (address => uint)) public painterToTBP; \n\n    //bIteration =>  \n    mapping (uint => bool) public isCBPTransfered;\n\n    //tbIteration =>  \n    mapping (uint => bool) public isTBPTransfered;\n\n    //      \n    mapping (address => uint) public lastPlayedRound;\n    \n    //Dividends Distribution\n    mapping (uint => address) public ownerOfColor;\n\n     //    (     )\n    mapping (address => uint) public withdrawalBalances; \n    \n    //          ( => )\n    mapping (address => uint) addressToLastWithdrawalTime; \n    \n    //  \n    uint public dividendsBank;\n\n    struct Claim {\n        uint id;\n        address claimer;\n        bool isResolved;\n        uint timestamp;\n    }\n\n    uint public claimId;\n\n    Claim[] public claims;\n\n    //      claimDividens()\n    //          : withdrawalBalances[ownerOf(_pixel)], withdrawalBalances[ownerOf(_color)]\n    address public ownerOfPixel = 0xca35b7d915458ef540ade6068dfe2f44e8fa733c;\n    address public founders = 0x3e4d187df7d8a0820eaf4174d17b160157610912;\n\n    bool public isGamePaused;\n    //todo - internal\n    bool public isCBPDistributable;\n    bool public isTBPDistributable;\n    \n    mapping(address => bool) public isAdmin;\n\n    Color colorInstance;\n    Pixel pixelInstance;\n\n    uint public totalColorsNumber; // 8\n\n    mapping (address => uint) public lastPaintTimeOfUser;\n    mapping (uint => mapping (address => uint)) public lastPaintTimeOfUserForColor;\n\n    mapping (uint => bool) public timeBankDrawnForRound;\n\n    //     \n    mapping (uint => uint) public usersCounterForRound;\n    //        \n    mapping (uint => mapping (address => bool)) isUserCountedForRound;\n\n   // Events\n\n    event CBPDistributed(uint indexed round, uint indexed cbIteration, address indexed winner, uint prize);\n    event DividendsWithdrawn(address indexed withdrawer, uint indexed claimId, uint indexed amount);\n    event DividendsClaimed(address indexed claimer, uint indexed claimId, uint indexed currentTime);\n    event Paint(uint indexed pixelId, uint colorId, address indexed painter, uint indexed round, uint timestamp);\n    event ColorBankPlayed(address winnerOfRound, uint indexed round);\n    event TimeBankPlayed(address winnerOfRound, uint indexed round);\n    event CallPriceUpdated(uint indexed newCallPrice);\n    event TBPDistributed(uint indexed round, uint indexed tbIteration, address indexed winner, uint prize);\n}",
  "sourcePath": "/Users/Amir/last-pixel-contracts/contracts/StorageV1.sol",
  "compiler": {
    "name": "solc",
    "version": "0.4.24+commit.e67f0147.Emscripten.clang"
  },
  "schemaVersion": "2.0.1",
  "updatedAt": "2019-01-23T06:19:51.082Z"
}