{
  "contractName": "StorageV1",
  "abi": [
    {
      "constant": true,
      "inputs": [],
      "name": "isGamePaused",
      "outputs": [
        {
          "name": "",
          "type": "bool"
        }
      ],
      "payable": false,
      "stateMutability": "view",
      "type": "function"
    },
    {
      "constant": true,
      "inputs": [
        {
          "name": "",
          "type": "uint256"
        },
        {
          "name": "",
          "type": "address"
        }
      ],
      "name": "isInTBT",
      "outputs": [
        {
          "name": "",
          "type": "bool"
        }
      ],
      "payable": false,
      "stateMutability": "view",
      "type": "function"
    },
    {
      "constant": true,
      "inputs": [
        {
          "name": "",
          "type": "bytes32"
        }
      ],
      "name": "refLinkToUser",
      "outputs": [
        {
          "name": "",
          "type": "address"
        }
      ],
      "payable": false,
      "stateMutability": "view",
      "type": "function"
    },
    {
      "constant": true,
      "inputs": [
        {
          "name": "",
          "type": "uint256"
        },
        {
          "name": "",
          "type": "uint256"
        }
      ],
      "name": "colorToTotalPaintsForRound",
      "outputs": [
        {
          "name": "",
          "type": "uint256"
        }
      ],
      "payable": false,
      "stateMutability": "view",
      "type": "function"
    },
    {
      "constant": true,
      "inputs": [
        {
          "name": "",
          "type": "uint256"
        }
      ],
      "name": "ownerOfColor",
      "outputs": [
        {
          "name": "",
          "type": "address"
        }
      ],
      "payable": false,
      "stateMutability": "view",
      "type": "function"
    },
    {
      "constant": true,
      "inputs": [
        {
          "name": "",
          "type": "uint256"
        },
        {
          "name": "",
          "type": "uint256"
        }
      ],
      "name": "colorToPaintedPixelsAmountForRound",
      "outputs": [
        {
          "name": "",
          "type": "uint256"
        }
      ],
      "payable": false,
      "stateMutability": "view",
      "type": "function"
    },
    {
      "constant": true,
      "inputs": [],
      "name": "tbIteration",
      "outputs": [
        {
          "name": "",
          "type": "uint256"
        }
      ],
      "payable": false,
      "stateMutability": "view",
      "type": "function"
    },
    {
      "constant": true,
      "inputs": [
        {
          "name": "",
          "type": "uint256"
        }
      ],
      "name": "winnerOfRound",
      "outputs": [
        {
          "name": "",
          "type": "address"
        }
      ],
      "payable": false,
      "stateMutability": "view",
      "type": "function"
    },
    {
      "constant": true,
      "inputs": [
        {
          "name": "",
          "type": "address"
        }
      ],
      "name": "hasReferrer",
      "outputs": [
        {
          "name": "",
          "type": "bool"
        }
      ],
      "payable": false,
      "stateMutability": "view",
      "type": "function"
    },
    {
      "constant": true,
      "inputs": [
        {
          "name": "",
          "type": "address"
        }
      ],
      "name": "isRegisteredUser",
      "outputs": [
        {
          "name": "",
          "type": "bool"
        }
      ],
      "payable": false,
      "stateMutability": "view",
      "type": "function"
    },
    {
      "constant": true,
      "inputs": [
        {
          "name": "",
          "type": "uint256"
        },
        {
          "name": "",
          "type": "address"
        }
      ],
      "name": "hasPaintDiscountForColor",
      "outputs": [
        {
          "name": "",
          "type": "bool"
        }
      ],
      "payable": false,
      "stateMutability": "view",
      "type": "function"
    },
    {
      "constant": true,
      "inputs": [
        {
          "name": "",
          "type": "uint256"
        }
      ],
      "name": "currentPaintGenForColor",
      "outputs": [
        {
          "name": "",
          "type": "uint256"
        }
      ],
      "payable": false,
      "stateMutability": "view",
      "type": "function"
    },
    {
      "constant": true,
      "inputs": [
        {
          "name": "",
          "type": "address"
        }
      ],
      "name": "lastPlayedRound",
      "outputs": [
        {
          "name": "",
          "type": "uint256"
        }
      ],
      "payable": false,
      "stateMutability": "view",
      "type": "function"
    },
    {
      "constant": true,
      "inputs": [
        {
          "name": "",
          "type": "uint256"
        },
        {
          "name": "",
          "type": "address"
        }
      ],
      "name": "moneySpentByUserForColor",
      "outputs": [
        {
          "name": "",
          "type": "uint256"
        }
      ],
      "payable": false,
      "stateMutability": "view",
      "type": "function"
    },
    {
      "constant": true,
      "inputs": [
        {
          "name": "",
          "type": "uint256"
        },
        {
          "name": "",
          "type": "uint256"
        }
      ],
      "name": "tbTeam",
      "outputs": [
        {
          "name": "",
          "type": "address"
        }
      ],
      "payable": false,
      "stateMutability": "view",
      "type": "function"
    },
    {
      "constant": true,
      "inputs": [
        {
          "name": "",
          "type": "uint256"
        },
        {
          "name": "",
          "type": "address"
        }
      ],
      "name": "painterToTBP",
      "outputs": [
        {
          "name": "",
          "type": "uint256"
        }
      ],
      "payable": false,
      "stateMutability": "view",
      "type": "function"
    },
    {
      "constant": true,
      "inputs": [
        {
          "name": "",
          "type": "uint256"
        },
        {
          "name": "",
          "type": "uint256"
        }
      ],
      "name": "paintGenToStartTimeForColor",
      "outputs": [
        {
          "name": "",
          "type": "uint256"
        }
      ],
      "payable": false,
      "stateMutability": "view",
      "type": "function"
    },
    {
      "constant": true,
      "inputs": [
        {
          "name": "",
          "type": "uint256"
        }
      ],
      "name": "callPriceForColor",
      "outputs": [
        {
          "name": "",
          "type": "uint256"
        }
      ],
      "payable": false,
      "stateMutability": "view",
      "type": "function"
    },
    {
      "constant": true,
      "inputs": [
        {
          "name": "",
          "type": "uint256"
        },
        {
          "name": "",
          "type": "address"
        }
      ],
      "name": "painterToCBP",
      "outputs": [
        {
          "name": "",
          "type": "uint256"
        }
      ],
      "payable": false,
      "stateMutability": "view",
      "type": "function"
    },
    {
      "constant": true,
      "inputs": [
        {
          "name": "",
          "type": "uint256"
        }
      ],
      "name": "winnerBankForRound",
      "outputs": [
        {
          "name": "",
          "type": "uint256"
        }
      ],
      "payable": false,
      "stateMutability": "view",
      "type": "function"
    },
    {
      "constant": true,
      "inputs": [],
      "name": "paintsCounter",
      "outputs": [
        {
          "name": "",
          "type": "uint256"
        }
      ],
      "payable": false,
      "stateMutability": "view",
      "type": "function"
    },
    {
      "constant": true,
      "inputs": [],
      "name": "founders",
      "outputs": [
        {
          "name": "",
          "type": "address"
        }
      ],
      "payable": false,
      "stateMutability": "view",
      "type": "function"
    },
    {
      "constant": true,
      "inputs": [
        {
          "name": "",
          "type": "address"
        }
      ],
      "name": "newUserToCounter",
      "outputs": [
        {
          "name": "",
          "type": "uint256"
        }
      ],
      "payable": false,
      "stateMutability": "view",
      "type": "function"
    },
    {
      "constant": true,
      "inputs": [
        {
          "name": "",
          "type": "uint256"
        },
        {
          "name": "",
          "type": "uint256"
        }
      ],
      "name": "counterToPainterForColor",
      "outputs": [
        {
          "name": "",
          "type": "address"
        }
      ],
      "payable": false,
      "stateMutability": "view",
      "type": "function"
    },
    {
      "constant": true,
      "inputs": [
        {
          "name": "",
          "type": "uint256"
        },
        {
          "name": "",
          "type": "uint256"
        }
      ],
      "name": "pixelToOldColorForRound",
      "outputs": [
        {
          "name": "",
          "type": "uint256"
        }
      ],
      "payable": false,
      "stateMutability": "view",
      "type": "function"
    },
    {
      "constant": true,
      "inputs": [
        {
          "name": "",
          "type": "uint256"
        }
      ],
      "name": "isTBPTransfered",
      "outputs": [
        {
          "name": "",
          "type": "bool"
        }
      ],
      "payable": false,
      "stateMutability": "view",
      "type": "function"
    },
    {
      "constant": true,
      "inputs": [
        {
          "name": "",
          "type": "uint256"
        }
      ],
      "name": "timeBankForRound",
      "outputs": [
        {
          "name": "",
          "type": "uint256"
        }
      ],
      "payable": false,
      "stateMutability": "view",
      "type": "function"
    },
    {
      "constant": true,
      "inputs": [
        {
          "name": "",
          "type": "address"
        }
      ],
      "name": "userToRefLink",
      "outputs": [
        {
          "name": "",
          "type": "string"
        }
      ],
      "payable": false,
      "stateMutability": "view",
      "type": "function"
    },
    {
      "constant": true,
      "inputs": [],
      "name": "claimId",
      "outputs": [
        {
          "name": "",
          "type": "uint256"
        }
      ],
      "payable": false,
      "stateMutability": "view",
      "type": "function"
    },
    {
      "constant": true,
      "inputs": [
        {
          "name": "",
          "type": "uint256"
        },
        {
          "name": "",
          "type": "uint256"
        }
      ],
      "name": "cbTeam",
      "outputs": [
        {
          "name": "",
          "type": "address"
        }
      ],
      "payable": false,
      "stateMutability": "view",
      "type": "function"
    },
    {
      "constant": true,
      "inputs": [
        {
          "name": "",
          "type": "uint256"
        },
        {
          "name": "",
          "type": "uint256"
        }
      ],
      "name": "paintGenStartedForColor",
      "outputs": [
        {
          "name": "",
          "type": "bool"
        }
      ],
      "payable": false,
      "stateMutability": "view",
      "type": "function"
    },
    {
      "constant": true,
      "inputs": [
        {
          "name": "",
          "type": "uint256"
        }
      ],
      "name": "lastPaintedPixelForRound",
      "outputs": [
        {
          "name": "",
          "type": "uint256"
        }
      ],
      "payable": false,
      "stateMutability": "view",
      "type": "function"
    },
    {
      "constant": true,
      "inputs": [
        {
          "name": "",
          "type": "uint256"
        }
      ],
      "name": "nextCallPriceForColor",
      "outputs": [
        {
          "name": "",
          "type": "uint256"
        }
      ],
      "payable": false,
      "stateMutability": "view",
      "type": "function"
    },
    {
      "constant": false,
      "inputs": [],
      "name": "renounceOwnership",
      "outputs": [],
      "payable": false,
      "stateMutability": "nonpayable",
      "type": "function"
    },
    {
      "constant": true,
      "inputs": [
        {
          "name": "",
          "type": "uint256"
        }
      ],
      "name": "lastPaintTimeForRound",
      "outputs": [
        {
          "name": "",
          "type": "uint256"
        }
      ],
      "payable": false,
      "stateMutability": "view",
      "type": "function"
    },
    {
      "constant": true,
      "inputs": [
        {
          "name": "",
          "type": "uint256"
        }
      ],
      "name": "lastPainterForRound",
      "outputs": [
        {
          "name": "",
          "type": "address"
        }
      ],
      "payable": false,
      "stateMutability": "view",
      "type": "function"
    },
    {
      "constant": true,
      "inputs": [
        {
          "name": "",
          "type": "address"
        }
      ],
      "name": "hasRefLink",
      "outputs": [
        {
          "name": "",
          "type": "bool"
        }
      ],
      "payable": false,
      "stateMutability": "view",
      "type": "function"
    },
    {
      "constant": true,
      "inputs": [
        {
          "name": "",
          "type": "address"
        },
        {
          "name": "",
          "type": "uint256"
        }
      ],
      "name": "referrerToReferrals",
      "outputs": [
        {
          "name": "",
          "type": "address"
        }
      ],
      "payable": false,
      "stateMutability": "view",
      "type": "function"
    },
    {
      "constant": true,
      "inputs": [],
      "name": "currentRound",
      "outputs": [
        {
          "name": "",
          "type": "uint256"
        }
      ],
      "payable": false,
      "stateMutability": "view",
      "type": "function"
    },
    {
      "constant": true,
      "inputs": [],
      "name": "owner",
      "outputs": [
        {
          "name": "",
          "type": "address"
        }
      ],
      "payable": false,
      "stateMutability": "view",
      "type": "function"
    },
    {
      "constant": true,
      "inputs": [
        {
          "name": "",
          "type": "uint256"
        }
      ],
      "name": "paintsCounterForColor",
      "outputs": [
        {
          "name": "",
          "type": "uint256"
        }
      ],
      "payable": false,
      "stateMutability": "view",
      "type": "function"
    },
    {
      "constant": true,
      "inputs": [],
      "name": "isOwner",
      "outputs": [
        {
          "name": "",
          "type": "bool"
        }
      ],
      "payable": false,
      "stateMutability": "view",
      "type": "function"
    },
    {
      "constant": true,
      "inputs": [
        {
          "name": "",
          "type": "uint256"
        },
        {
          "name": "",
          "type": "uint256"
        }
      ],
      "name": "pixelToPaintTimeForRound",
      "outputs": [
        {
          "name": "",
          "type": "uint256"
        }
      ],
      "payable": false,
      "stateMutability": "view",
      "type": "function"
    },
    {
      "constant": true,
      "inputs": [
        {
          "name": "",
          "type": "uint256"
        },
        {
          "name": "",
          "type": "uint256"
        }
      ],
      "name": "colorBankToColorForRound",
      "outputs": [
        {
          "name": "",
          "type": "uint256"
        }
      ],
      "payable": false,
      "stateMutability": "view",
      "type": "function"
    },
    {
      "constant": true,
      "inputs": [
        {
          "name": "",
          "type": "uint256"
        }
      ],
      "name": "claims",
      "outputs": [
        {
          "name": "id",
          "type": "uint256"
        },
        {
          "name": "claimer",
          "type": "address"
        },
        {
          "name": "isResolved",
          "type": "bool"
        },
        {
          "name": "timestamp",
          "type": "uint256"
        }
      ],
      "payable": false,
      "stateMutability": "view",
      "type": "function"
    },
    {
      "constant": true,
      "inputs": [],
      "name": "ownerOfPixel",
      "outputs": [
        {
          "name": "",
          "type": "address"
        }
      ],
      "payable": false,
      "stateMutability": "view",
      "type": "function"
    },
    {
      "constant": true,
      "inputs": [
        {
          "name": "",
          "type": "uint256"
        },
        {
          "name": "",
          "type": "address"
        }
      ],
      "name": "isInCBT",
      "outputs": [
        {
          "name": "",
          "type": "bool"
        }
      ],
      "payable": false,
      "stateMutability": "view",
      "type": "function"
    },
    {
      "constant": true,
      "inputs": [
        {
          "name": "",
          "type": "uint256"
        }
      ],
      "name": "counterToPainter",
      "outputs": [
        {
          "name": "",
          "type": "address"
        }
      ],
      "payable": false,
      "stateMutability": "view",
      "type": "function"
    },
    {
      "constant": true,
      "inputs": [
        {
          "name": "",
          "type": "uint256"
        },
        {
          "name": "",
          "type": "address"
        }
      ],
      "name": "timeBankShare",
      "outputs": [
        {
          "name": "",
          "type": "uint256"
        }
      ],
      "payable": false,
      "stateMutability": "view",
      "type": "function"
    },
    {
      "constant": true,
      "inputs": [
        {
          "name": "",
          "type": "uint256"
        },
        {
          "name": "",
          "type": "uint256"
        },
        {
          "name": "",
          "type": "address"
        }
      ],
      "name": "colorBankShare",
      "outputs": [
        {
          "name": "",
          "type": "uint256"
        }
      ],
      "payable": false,
      "stateMutability": "view",
      "type": "function"
    },
    {
      "constant": true,
      "inputs": [
        {
          "name": "",
          "type": "uint256"
        },
        {
          "name": "",
          "type": "uint256"
        }
      ],
      "name": "pixelToColorForRound",
      "outputs": [
        {
          "name": "",
          "type": "uint256"
        }
      ],
      "payable": false,
      "stateMutability": "view",
      "type": "function"
    },
    {
      "constant": true,
      "inputs": [
        {
          "name": "",
          "type": "uint256"
        }
      ],
      "name": "totalPaintsForRound",
      "outputs": [
        {
          "name": "",
          "type": "uint256"
        }
      ],
      "payable": false,
      "stateMutability": "view",
      "type": "function"
    },
    {
      "constant": true,
      "inputs": [
        {
          "name": "",
          "type": "uint256"
        }
      ],
      "name": "colorBankForRound",
      "outputs": [
        {
          "name": "",
          "type": "uint256"
        }
      ],
      "payable": false,
      "stateMutability": "view",
      "type": "function"
    },
    {
      "constant": true,
      "inputs": [
        {
          "name": "",
          "type": "uint256"
        },
        {
          "name": "",
          "type": "uint256"
        }
      ],
      "name": "paintGenToEndTimeForColor",
      "outputs": [
        {
          "name": "",
          "type": "uint256"
        }
      ],
      "payable": false,
      "stateMutability": "view",
      "type": "function"
    },
    {
      "constant": true,
      "inputs": [],
      "name": "uniqueUsersCount",
      "outputs": [
        {
          "name": "",
          "type": "uint256"
        }
      ],
      "payable": false,
      "stateMutability": "view",
      "type": "function"
    },
    {
      "constant": true,
      "inputs": [
        {
          "name": "",
          "type": "bytes32"
        }
      ],
      "name": "refLinkExists",
      "outputs": [
        {
          "name": "",
          "type": "bool"
        }
      ],
      "payable": false,
      "stateMutability": "view",
      "type": "function"
    },
    {
      "constant": true,
      "inputs": [
        {
          "name": "",
          "type": "uint256"
        },
        {
          "name": "",
          "type": "uint256"
        }
      ],
      "name": "paintGenToAmountForColor",
      "outputs": [
        {
          "name": "",
          "type": "uint256"
        }
      ],
      "payable": false,
      "stateMutability": "view",
      "type": "function"
    },
    {
      "constant": true,
      "inputs": [
        {
          "name": "",
          "type": "uint256"
        }
      ],
      "name": "isCBPTransfered",
      "outputs": [
        {
          "name": "",
          "type": "bool"
        }
      ],
      "payable": false,
      "stateMutability": "view",
      "type": "function"
    },
    {
      "constant": true,
      "inputs": [
        {
          "name": "",
          "type": "address"
        }
      ],
      "name": "referralToReferrer",
      "outputs": [
        {
          "name": "",
          "type": "address"
        }
      ],
      "payable": false,
      "stateMutability": "view",
      "type": "function"
    },
    {
      "constant": true,
      "inputs": [
        {
          "name": "",
          "type": "uint256"
        },
        {
          "name": "",
          "type": "address"
        }
      ],
      "name": "usersPaintDiscountForColor",
      "outputs": [
        {
          "name": "",
          "type": "uint256"
        }
      ],
      "payable": false,
      "stateMutability": "view",
      "type": "function"
    },
    {
      "constant": true,
      "inputs": [],
      "name": "maxPaintsInPool",
      "outputs": [
        {
          "name": "",
          "type": "uint256"
        }
      ],
      "payable": false,
      "stateMutability": "view",
      "type": "function"
    },
    {
      "constant": false,
      "inputs": [
        {
          "name": "newOwner",
          "type": "address"
        }
      ],
      "name": "transferOwnership",
      "outputs": [],
      "payable": false,
      "stateMutability": "nonpayable",
      "type": "function"
    },
    {
      "constant": true,
      "inputs": [
        {
          "name": "",
          "type": "uint256"
        }
      ],
      "name": "winnerColorForRound",
      "outputs": [
        {
          "name": "",
          "type": "uint256"
        }
      ],
      "payable": false,
      "stateMutability": "view",
      "type": "function"
    },
    {
      "constant": true,
      "inputs": [],
      "name": "dividendsBank",
      "outputs": [
        {
          "name": "",
          "type": "uint256"
        }
      ],
      "payable": false,
      "stateMutability": "view",
      "type": "function"
    },
    {
      "constant": true,
      "inputs": [
        {
          "name": "",
          "type": "address"
        }
      ],
      "name": "withdrawalBalances",
      "outputs": [
        {
          "name": "",
          "type": "uint256"
        }
      ],
      "payable": false,
      "stateMutability": "view",
      "type": "function"
    },
    {
      "constant": true,
      "inputs": [],
      "name": "cbIteration",
      "outputs": [
        {
          "name": "",
          "type": "uint256"
        }
      ],
      "payable": false,
      "stateMutability": "view",
      "type": "function"
    },
    {
      "anonymous": false,
      "inputs": [
        {
          "indexed": true,
          "name": "previousOwner",
          "type": "address"
        },
        {
          "indexed": true,
          "name": "newOwner",
          "type": "address"
        }
      ],
      "name": "OwnershipTransferred",
      "type": "event"
    }
  ],
  "bytecode": "0x608060405273ca35b7d915458ef540ade6068dfe2f44e8fa733c604060006101000a81548173ffffffffffffffffffffffffffffffffffffffff021916908373ffffffffffffffffffffffffffffffffffffffff160217905550733e4d187df7d8a0820eaf4174d17b160157610912604160006101000a81548173ffffffffffffffffffffffffffffffffffffffff021916908373ffffffffffffffffffffffffffffffffffffffff160217905550336000806101000a81548173ffffffffffffffffffffffffffffffffffffffff021916908373ffffffffffffffffffffffffffffffffffffffff1602179055506000809054906101000a900473ffffffffffffffffffffffffffffffffffffffff1673ffffffffffffffffffffffffffffffffffffffff16600073ffffffffffffffffffffffffffffffffffffffff167f8be0079c531659141344cd1fd0a4f28419497f9722a3daafe3b4186f6b6457e060405160405180910390a36123c7806101796000396000f30060806040526004361061030c576000357c0100000000000000000000000000000000000000000000000000000000900463ffffffff1680630422ddf31461031157806305bdd0be14610340578063099b81ce146103a55780630ba36221146104165780630baaea44146104615780630cf9603f146104ce5780630f6ed86e14610519578063102f97131461054457806318452cd8146105b15780631f5bdf5d1461060c5780631f90c6ed1461066757806328361f57146106cc57806328b290f91461070d5780632c6c1c41146107645780632c7a3dae146107c557806333f9c3881461083c5780633a1735051461089d5780633c6dd013146108e85780633ca4c183146109295780633d0d1a791461098a5780633dc3c377146109cb578063411b007e146109f657806341c5464e14610a4d57806342e453ec14610aa45780634b39173d14610b1b5780634c438ad714610b665780634c78e40114610bab5780635bfcdb2714610bec5780635c25fd1314610ca85780635d63ebb214610cd35780635f5d554c14610d4a578063628a71a314610d995780636f17eb4214610dda578063715018a614610e1b57806373a9ee2614610e3257806379ecf37614610e735780637e1e175c14610ee057806387982ac314610f3b5780638a19c8bc14610fc85780638da5cb5b14610ff35780638e2df39c1461104a5780638f32d59b1461108b5780638f63b7e5146110ba578063a312072414611105578063a888c2cd14611150578063a977e168146111d6578063ab24c7d21461122d578063ae55ce8214611292578063b0ff59d2146112ff578063b1a3883c14611360578063b8232d5d146113cb578063be7d622614611416578063c64a2e5614611457578063c957387b14611498578063c9f8234f146114e3578063d4526e681461150e578063d5de47c714611557578063da68b121146115a2578063deaf0fa1146115e7578063eaf1c9101461166a578063eef565da146116cb578063f2fde38b146116f6578063f49916f514611739578063f5f95b3b1461177a578063fb454d29146117a5578063fea11fe3146117fc575b600080fd5b34801561031d57600080fd5b50610326611827565b604051808215151515815260200191505060405180910390f35b34801561034c57600080fd5b5061038b60048036038101908080359060200190929190803573ffffffffffffffffffffffffffffffffffffffff16906020019092919050505061183a565b604051808215151515815260200191505060405180910390f35b3480156103b157600080fd5b506103d46004803603810190808035600019169060200190929190505050611869565b604051808273ffffffffffffffffffffffffffffffffffffffff1673ffffffffffffffffffffffffffffffffffffffff16815260200191505060405180910390f35b34801561042257600080fd5b5061044b600480360381019080803590602001909291908035906020019092919050505061189c565b6040518082815260200191505060405180910390f35b34801561046d57600080fd5b5061048c600480360381019080803590602001909291905050506118c1565b604051808273ffffffffffffffffffffffffffffffffffffffff1673ffffffffffffffffffffffffffffffffffffffff16815260200191505060405180910390f35b3480156104da57600080fd5b5061050360048036038101908080359060200190929190803590602001909291905050506118f4565b6040518082815260200191505060405180910390f35b34801561052557600080fd5b5061052e611919565b6040518082815260200191505060405180910390f35b34801561055057600080fd5b5061056f6004803603810190808035906020019092919050505061191f565b604051808273ffffffffffffffffffffffffffffffffffffffff1673ffffffffffffffffffffffffffffffffffffffff16815260200191505060405180910390f35b3480156105bd57600080fd5b506105f2600480360381019080803573ffffffffffffffffffffffffffffffffffffffff169060200190929190505050611952565b604051808215151515815260200191505060405180910390f35b34801561061857600080fd5b5061064d600480360381019080803573ffffffffffffffffffffffffffffffffffffffff169060200190929190505050611972565b604051808215151515815260200191505060405180910390f35b34801561067357600080fd5b506106b260048036038101908080359060200190929190803573ffffffffffffffffffffffffffffffffffffffff169060200190929190505050611992565b604051808215151515815260200191505060405180910390f35b3480156106d857600080fd5b506106f7600480360381019080803590602001909291905050506119c1565b6040518082815260200191505060405180910390f35b34801561071957600080fd5b5061074e600480360381019080803573ffffffffffffffffffffffffffffffffffffffff1690602001909291905050506119d9565b6040518082815260200191505060405180910390f35b34801561077057600080fd5b506107af60048036038101908080359060200190929190803573ffffffffffffffffffffffffffffffffffffffff1690602001909291905050506119f1565b6040518082815260200191505060405180910390f35b3480156107d157600080fd5b506107fa6004803603810190808035906020019092919080359060200190929190505050611a16565b604051808273ffffffffffffffffffffffffffffffffffffffff1673ffffffffffffffffffffffffffffffffffffffff16815260200191505060405180910390f35b34801561084857600080fd5b5061088760048036038101908080359060200190929190803573ffffffffffffffffffffffffffffffffffffffff169060200190929190505050611a63565b6040518082815260200191505060405180910390f35b3480156108a957600080fd5b506108d26004803603810190808035906020019092919080359060200190929190505050611a88565b6040518082815260200191505060405180910390f35b3480156108f457600080fd5b5061091360048036038101908080359060200190929190505050611aad565b6040518082815260200191505060405180910390f35b34801561093557600080fd5b5061097460048036038101908080359060200190929190803573ffffffffffffffffffffffffffffffffffffffff169060200190929190505050611ac5565b6040518082815260200191505060405180910390f35b34801561099657600080fd5b506109b560048036038101908080359060200190929190505050611aea565b6040518082815260200191505060405180910390f35b3480156109d757600080fd5b506109e0611b02565b6040518082815260200191505060405180910390f35b348015610a0257600080fd5b50610a0b611b08565b604051808273ffffffffffffffffffffffffffffffffffffffff1673ffffffffffffffffffffffffffffffffffffffff16815260200191505060405180910390f35b348015610a5957600080fd5b50610a8e600480360381019080803573ffffffffffffffffffffffffffffffffffffffff169060200190929190505050611b2e565b6040518082815260200191505060405180910390f35b348015610ab057600080fd5b50610ad96004803603810190808035906020019092919080359060200190929190505050611b46565b604051808273ffffffffffffffffffffffffffffffffffffffff1673ffffffffffffffffffffffffffffffffffffffff16815260200191505060405180910390f35b348015610b2757600080fd5b50610b506004803603810190808035906020019092919080359060200190929190505050611b88565b6040518082815260200191505060405180910390f35b348015610b7257600080fd5b50610b9160048036038101908080359060200190929190505050611bad565b604051808215151515815260200191505060405180910390f35b348015610bb757600080fd5b50610bd660048036038101908080359060200190929190505050611bcd565b6040518082815260200191505060405180910390f35b348015610bf857600080fd5b50610c2d600480360381019080803573ffffffffffffffffffffffffffffffffffffffff169060200190929190505050611be5565b6040518080602001828103825283818151815260200191508051906020019080838360005b83811015610c6d578082015181840152602081019050610c52565b50505050905090810190601f168015610c9a5780820380516001836020036101000a031916815260200191505b509250505060405180910390f35b348015610cb457600080fd5b50610cbd611c95565b6040518082815260200191505060405180910390f35b348015610cdf57600080fd5b50610d086004803603810190808035906020019092919080359060200190929190505050611c9b565b604051808273ffffffffffffffffffffffffffffffffffffffff1673ffffffffffffffffffffffffffffffffffffffff16815260200191505060405180910390f35b348015610d5657600080fd5b50610d7f6004803603810190808035906020019092919080359060200190929190505050611ce8565b604051808215151515815260200191505060405180910390f35b348015610da557600080fd5b50610dc460048036038101908080359060200190929190505050611d17565b6040518082815260200191505060405180910390f35b348015610de657600080fd5b50610e0560048036038101908080359060200190929190505050611d2f565b6040518082815260200191505060405180910390f35b348015610e2757600080fd5b50610e30611d47565b005b348015610e3e57600080fd5b50610e5d60048036038101908080359060200190929190505050611e19565b6040518082815260200191505060405180910390f35b348015610e7f57600080fd5b50610e9e60048036038101908080359060200190929190505050611e31565b604051808273ffffffffffffffffffffffffffffffffffffffff1673ffffffffffffffffffffffffffffffffffffffff16815260200191505060405180910390f35b348015610eec57600080fd5b50610f21600480360381019080803573ffffffffffffffffffffffffffffffffffffffff169060200190929190505050611e64565b604051808215151515815260200191505060405180910390f35b348015610f4757600080fd5b50610f86600480360381019080803573ffffffffffffffffffffffffffffffffffffffff16906020019092919080359060200190929190505050611e84565b604051808273ffffffffffffffffffffffffffffffffffffffff1673ffffffffffffffffffffffffffffffffffffffff16815260200191505060405180910390f35b348015610fd457600080fd5b50610fdd611ed0565b6040518082815260200191505060405180910390f35b348015610fff57600080fd5b50611008611ed6565b604051808273ffffffffffffffffffffffffffffffffffffffff1673ffffffffffffffffffffffffffffffffffffffff16815260200191505060405180910390f35b34801561105657600080fd5b5061107560048036038101908080359060200190929190505050611eff565b6040518082815260200191505060405180910390f35b34801561109757600080fd5b506110a0611f17565b604051808215151515815260200191505060405180910390f35b3480156110c657600080fd5b506110ef6004803603810190808035906020019092919080359060200190929190505050611f6e565b6040518082815260200191505060405180910390f35b34801561111157600080fd5b5061113a6004803603810190808035906020019092919080359060200190929190505050611f93565b6040518082815260200191505060405180910390f35b34801561115c57600080fd5b5061117b60048036038101908080359060200190929190505050611fb8565b604051808581526020018473ffffffffffffffffffffffffffffffffffffffff1673ffffffffffffffffffffffffffffffffffffffff1681526020018315151515815260200182815260200194505050505060405180910390f35b3480156111e257600080fd5b506111eb612024565b604051808273ffffffffffffffffffffffffffffffffffffffff1673ffffffffffffffffffffffffffffffffffffffff16815260200191505060405180910390f35b34801561123957600080fd5b5061127860048036038101908080359060200190929190803573ffffffffffffffffffffffffffffffffffffffff16906020019092919050505061204a565b604051808215151515815260200191505060405180910390f35b34801561129e57600080fd5b506112bd60048036038101908080359060200190929190505050612079565b604051808273ffffffffffffffffffffffffffffffffffffffff1673ffffffffffffffffffffffffffffffffffffffff16815260200191505060405180910390f35b34801561130b57600080fd5b5061134a60048036038101908080359060200190929190803573ffffffffffffffffffffffffffffffffffffffff1690602001909291905050506120ac565b6040518082815260200191505060405180910390f35b34801561136c57600080fd5b506113b56004803603810190808035906020019092919080359060200190929190803573ffffffffffffffffffffffffffffffffffffffff1690602001909291905050506120d1565b6040518082815260200191505060405180910390f35b3480156113d757600080fd5b506114006004803603810190808035906020019092919080359060200190929190505050612103565b6040518082815260200191505060405180910390f35b34801561142257600080fd5b5061144160048036038101908080359060200190929190505050612128565b6040518082815260200191505060405180910390f35b34801561146357600080fd5b5061148260048036038101908080359060200190929190505050612140565b6040518082815260200191505060405180910390f35b3480156114a457600080fd5b506114cd6004803603810190808035906020019092919080359060200190929190505050612158565b6040518082815260200191505060405180910390f35b3480156114ef57600080fd5b506114f861217d565b6040518082815260200191505060405180910390f35b34801561151a57600080fd5b5061153d6004803603810190808035600019169060200190929190505050612183565b604051808215151515815260200191505060405180910390f35b34801561156357600080fd5b5061158c60048036038101908080359060200190929190803590602001909291905050506121a3565b6040518082815260200191505060405180910390f35b3480156115ae57600080fd5b506115cd600480360381019080803590602001909291905050506121c8565b604051808215151515815260200191505060405180910390f35b3480156115f357600080fd5b50611628600480360381019080803573ffffffffffffffffffffffffffffffffffffffff1690602001909291905050506121e8565b604051808273ffffffffffffffffffffffffffffffffffffffff1673ffffffffffffffffffffffffffffffffffffffff16815260200191505060405180910390f35b34801561167657600080fd5b506116b560048036038101908080359060200190929190803573ffffffffffffffffffffffffffffffffffffffff16906020019092919050505061221b565b6040518082815260200191505060405180910390f35b3480156116d757600080fd5b506116e0612240565b6040518082815260200191505060405180910390f35b34801561170257600080fd5b50611737600480360381019080803573ffffffffffffffffffffffffffffffffffffffff169060200190929190505050612246565b005b34801561174557600080fd5b5061176460048036038101908080359060200190929190505050612265565b6040518082815260200191505060405180910390f35b34801561178657600080fd5b5061178f61227d565b6040518082815260200191505060405180910390f35b3480156117b157600080fd5b506117e6600480360381019080803573ffffffffffffffffffffffffffffffffffffffff169060200190929190505050612283565b6040518082815260200191505060405180910390f35b34801561180857600080fd5b5061181161229b565b6040518082815260200191505060405180910390f35b604160149054906101000a900460ff1681565b60346020528160005260406000206020528060005260406000206000915091509054906101000a900460ff1681565b60236020528060005260406000206000915054906101000a900473ffffffffffffffffffffffffffffffffffffffff1681565b600e602052816000526040600020602052806000526040600020600091509150505481565b603a6020528060005260406000206000915054906101000a900473ffffffffffffffffffffffffffffffffffffffff1681565b6006602052816000526040600020602052806000526040600020600091509150505481565b60295481565b600f6020528060005260406000206000915054906101000a900473ffffffffffffffffffffffffffffffffffffffff1681565b60216020528060005260406000206000915054906101000a900460ff1681565b601d6020528060005260406000206000915054906101000a900460ff1681565b601b6020528160005260406000206020528060005260406000206000915091509054906101000a900460ff1681565b60176020528060005260406000206000915090505481565b60396020528060005260406000206000915090505481565b601a602052816000526040600020602052806000526040600020600091509150505481565b603060205281600052604060002081815481101515611a3157fe5b906000526020600020016000915091509054906101000a900473ffffffffffffffffffffffffffffffffffffffff1681565b6036602052816000526040600020602052806000526040600020600091509150505481565b6014602052816000526040600020602052806000526040600020600091509150505481565b60186020528060005260406000206000915090505481565b6035602052816000526040600020602052806000526040600020600091509150505481565b60106020528060005260406000206000915090505481565b602b5481565b604160009054906101000a900473ffffffffffffffffffffffffffffffffffffffff1681565b60256020528060005260406000206000915090505481565b60326020528160005260406000206020528060005260406000206000915091509054906101000a900473ffffffffffffffffffffffffffffffffffffffff1681565b6005602052816000526040600020602052806000526040600020600091509150505481565b60386020528060005260406000206000915054906101000a900460ff1681565b60096020528060005260406000206000915090505481565b60226020528060005260406000206000915090508054600181600116156101000203166002900480601f016020809104026020016040519081016040528092919081815260200182805460018160011615610100020316600290048015611c8d5780601f10611c6257610100808354040283529160200191611c8d565b820191906000526020600020905b815481529060010190602001808311611c7057829003601f168201915b505050505081565b603e5481565b602f60205281600052604060002081815481101515611cb657fe5b906000526020600020016000915091509054906101000a900473ffffffffffffffffffffffffffffffffffffffff1681565b60166020528160005260406000206020528060005260406000206000915091509054906101000a900460ff1681565b600c6020528060005260406000206000915090505481565b60196020528060005260406000206000915090505481565b611d4f611f17565b1515611d5a57600080fd5b600073ffffffffffffffffffffffffffffffffffffffff166000809054906101000a900473ffffffffffffffffffffffffffffffffffffffff1673ffffffffffffffffffffffffffffffffffffffff167f8be0079c531659141344cd1fd0a4f28419497f9722a3daafe3b4186f6b6457e060405160405180910390a360008060006101000a81548173ffffffffffffffffffffffffffffffffffffffff021916908373ffffffffffffffffffffffffffffffffffffffff160217905550565b600a6020528060005260406000206000915090505481565b600b6020528060005260406000206000915054906101000a900473ffffffffffffffffffffffffffffffffffffffff1681565b601e6020528060005260406000206000915054906101000a900460ff1681565b6020805281600052604060002081815481101515611e9e57fe5b906000526020600020016000915091509054906101000a900473ffffffffffffffffffffffffffffffffffffffff1681565b60285481565b60008060009054906101000a900473ffffffffffffffffffffffffffffffffffffffff16905090565b602e6020528060005260406000206000915090505481565b60008060009054906101000a900473ffffffffffffffffffffffffffffffffffffffff1673ffffffffffffffffffffffffffffffffffffffff163373ffffffffffffffffffffffffffffffffffffffff1614905090565b6011602052816000526040600020602052806000526040600020600091509150505481565b6008602052816000526040600020602052806000526040600020600091509150505481565b603f81815481101515611fc757fe5b90600052602060002090600302016000915090508060000154908060010160009054906101000a900473ffffffffffffffffffffffffffffffffffffffff16908060010160149054906101000a900460ff16908060020154905084565b604060009054906101000a900473ffffffffffffffffffffffffffffffffffffffff1681565b60336020528160005260406000206020528060005260406000206000915091509054906101000a900460ff1681565b60316020528060005260406000206000915054906101000a900473ffffffffffffffffffffffffffffffffffffffff1681565b602c602052816000526040600020602052806000526040600020600091509150505481565b602d60205282600052604060002060205281600052604060002060205280600052604060002060009250925050505481565b6004602052816000526040600020602052806000526040600020600091509150505481565b60126020528060005260406000206000915090505481565b60076020528060005260406000206000915090505481565b6015602052816000526040600020602052806000526040600020600091509150505481565b60265481565b60246020528060005260406000206000915054906101000a900460ff1681565b6013602052816000526040600020602052806000526040600020600091509150505481565b60376020528060005260406000206000915054906101000a900460ff1681565b601f6020528060005260406000206000915054906101000a900473ffffffffffffffffffffffffffffffffffffffff1681565b601c602052816000526040600020602052806000526040600020600091509150505481565b60275481565b61224e611f17565b151561225957600080fd5b612262816122a1565b50565b600d6020528060005260406000206000915090505481565b603d5481565b603b6020528060005260406000206000915090505481565b602a5481565b600073ffffffffffffffffffffffffffffffffffffffff168173ffffffffffffffffffffffffffffffffffffffff16141515156122dd57600080fd5b8073ffffffffffffffffffffffffffffffffffffffff166000809054906101000a900473ffffffffffffffffffffffffffffffffffffffff1673ffffffffffffffffffffffffffffffffffffffff167f8be0079c531659141344cd1fd0a4f28419497f9722a3daafe3b4186f6b6457e060405160405180910390a3806000806101000a81548173ffffffffffffffffffffffffffffffffffffffff021916908373ffffffffffffffffffffffffffffffffffffffff160217905550505600a165627a7a72305820528c7321d0b48245c09c4bf0b5c0b24bafb137e3316ca07feb970a84e3f5a8830029",
  "source": "pragma solidity ^0.4.24;\n\nimport \"../node_modules/openzeppelin-solidity/contracts/math/SafeMath.sol\";\nimport \"./StorageV0.sol\";\n\ncontract StorageV1 is StorageV0 {\n\n    //    (p =>  => )\n    mapping (uint => mapping (uint => uint)) public pixelToColorForRound; \n\n    //     (p =>  => )\n    mapping (uint => mapping (uint => uint)) public pixelToOldColorForRound; \n\n    //          ( =>  =>  )\n    mapping (uint => mapping (uint => uint)) public colorToPaintedPixelsAmountForRound; \n\n    //    ( =>  )\n    mapping (uint => uint) public colorBankForRound; \n\n    //       ( =>  =>  )\n    mapping (uint => mapping (uint => uint)) public colorBankToColorForRound; \n\n    //    ( =>  )\n    mapping (uint => uint) public timeBankForRound; \n    \n    //        ( => )\n    mapping (uint => uint) public lastPaintTimeForRound; \n\n    //       ( => )\n    mapping (uint => address) public lastPainterForRound; \n\n    //    \n    mapping (uint => uint) public lastPaintedPixelForRound;\n\n    //   (   )   ( => ) \n    mapping (uint => uint) public winnerColorForRound; \n\n    //         ( =>  =>  )\n    mapping (uint => mapping (uint => uint)) public colorToTotalPaintsForRound; \n\n    //  ( => )\n    mapping (uint => address) public winnerOfRound; \n\n    //      ( =>  ) (1 =  , 2 =  )\n    mapping (uint => uint) public winnerBankForRound; \n\n    //       (0 =  )\n    mapping (uint => mapping (uint => uint)) public pixelToPaintTimeForRound;\n\n    //        \n    mapping (uint => uint) public totalPaintsForRound;\n        \n     //    \n    mapping (uint => mapping (uint => uint)) public paintGenToAmountForColor;\n    \n    //       \n    mapping (uint => mapping (uint => uint)) public paintGenToStartTimeForColor;\n    \n    //       \n    mapping (uint => mapping (uint => uint)) public paintGenToEndTimeForColor;\n    \n    //  -   ,   \n    mapping (uint => mapping (uint => bool)) public paintGenStartedForColor;\n\n    //       \n    mapping (uint => uint) public currentPaintGenForColor;\n    \n    //   paint\n    mapping (uint => uint) public callPriceForColor;\n    \n    //    paint\n    mapping (uint => uint) public nextCallPriceForColor;\n    \n    //         \n    mapping (uint => mapping (address => uint)) public moneySpentByUserForColor;\n    \n    //     ,           \n    mapping (uint => mapping (address => bool)) public hasPaintDiscountForColor;\n    \n    //       ( )\n    mapping (uint => mapping (address => uint)) public usersPaintDiscountForColor;\n\n     // \n    mapping (address => bool) public isRegisteredUser;\n    \n    //     (    )\n    mapping (address => bool) public hasRefLink;\n\n    //   \n    mapping (address => address) public referralToReferrer;\n\n    //    \n    mapping (address => address[]) public referrerToReferrals;\n    \n    //    \n    mapping (address => bool) public hasReferrer;\n    \n    //     \n    mapping (address => string) public userToRefLink;\n    \n    //     -    \n    mapping (bytes32 => address) public refLinkToUser;\n    \n    //   (  )  \n    mapping (bytes32 => bool) public refLinkExists;\n    \n    //       \n    mapping (address => uint) public newUserToCounter;\n    \n    //  \n    uint public uniqueUsersCount;\n\n    //      (10000)\n    uint public maxPaintsInPool;\n\n    // \n    uint public currentRound;\n\n    //  \n    uint public tbIteration;\n\n    //  \n    uint public cbIteration;\n\n    //      \n    uint public paintsCounter; \n\n    //Time Bank Iteration => Painter => Painter's Share in Time Team\n    mapping (uint => mapping (address => uint)) public timeBankShare;\n\n    //Color Bank Iteration => Color => Painter => Painter's Share in Time Team\n    mapping (uint => mapping (uint => mapping (address => uint))) public colorBankShare;\n\n    //      \n    mapping (uint => uint) public paintsCounterForColor; \n\n    //cbIteration =>  \n    mapping (uint => address[]) public cbTeam; \n\n    //tbIteration =>  \n    mapping (uint => address[]) public tbTeam;\n\n     //c => \n    mapping (uint => address) public counterToPainter;\n\n    // => c =>     \n    mapping (uint => mapping (uint => address)) public counterToPainterForColor; \n\n    //cbIteration =>  !should not be public\n    mapping (uint => mapping (address => bool)) public isInCBT; \n\n    //tbIteration =>  !should not be public\n    mapping (uint => mapping (address => bool)) public isInTBT; \n\n    //cbIteration => painter => color bank prize\n    mapping (uint => mapping (address => uint)) public painterToCBP; \n\n    //tbIteration => painter => time bank prize\n    mapping (uint => mapping (address => uint)) public painterToTBP; \n\n    //bIteration =>  \n    mapping (uint => bool) public isCBPTransfered;\n\n    //tbIteration =>  \n    mapping (uint => bool) public isTBPTransfered;\n\n    //      \n    mapping (address => uint) public lastPlayedRound;\n    \n    //Dividends Distribution\n    mapping (uint => address) public ownerOfColor;\n\n     //    (     )\n    mapping (address => uint) public withdrawalBalances; \n    \n    //          ( => )\n    mapping (address => uint) addressToLastWithdrawalTime; \n    \n    //  \n    uint public dividendsBank;\n\n    struct Claim {\n        uint id;\n        address claimer;\n        bool isResolved;\n        uint timestamp;\n    }\n\n    uint public claimId;\n    Claim[] public claims;\n\n    //      claimDividens()\n    //          : withdrawalBalances[ownerOf(_pixel)], withdrawalBalances[ownerOf(_color)]\n    //address public ownerOfColor = 0xf106a93c5ca900bfae6345b61fcfae9d75cb031d;\n    address public ownerOfPixel = 0xca35b7d915458ef540ade6068dfe2f44e8fa733c;\n    address public founders = 0x3e4d187df7d8a0820eaf4174d17b160157610912;\n    \n    bool public isGamePaused;\n\n}",
  "sourcePath": "/Users/Amir/last-pixel-contracts/contracts/StorageV1.sol",
  "compiler": {
    "name": "solc",
    "version": "0.4.24+commit.e67f0147.Emscripten.clang"
  },
  "schemaVersion": "2.0.1",
  "updatedAt": "2019-01-06T14:33:16.894Z"
}