{
  "contractName": "StorageV1",
  "abi": [
    {
      "constant": true,
      "inputs": [],
      "name": "isGamePaused",
      "outputs": [
        {
          "name": "",
          "type": "bool"
        }
      ],
      "payable": false,
      "stateMutability": "view",
      "type": "function"
    },
    {
      "constant": true,
      "inputs": [
        {
          "name": "",
          "type": "uint256"
        },
        {
          "name": "",
          "type": "address"
        }
      ],
      "name": "isInTBT",
      "outputs": [
        {
          "name": "",
          "type": "bool"
        }
      ],
      "payable": false,
      "stateMutability": "view",
      "type": "function"
    },
    {
      "constant": true,
      "inputs": [
        {
          "name": "",
          "type": "bytes32"
        }
      ],
      "name": "refLinkToUser",
      "outputs": [
        {
          "name": "",
          "type": "address"
        }
      ],
      "payable": false,
      "stateMutability": "view",
      "type": "function"
    },
    {
      "constant": true,
      "inputs": [
        {
          "name": "",
          "type": "uint256"
        }
      ],
      "name": "ownerOfColor",
      "outputs": [
        {
          "name": "",
          "type": "address"
        }
      ],
      "payable": false,
      "stateMutability": "view",
      "type": "function"
    },
    {
      "constant": true,
      "inputs": [
        {
          "name": "",
          "type": "uint256"
        },
        {
          "name": "",
          "type": "uint256"
        }
      ],
      "name": "colorToPaintedPixelsAmountForRound",
      "outputs": [
        {
          "name": "",
          "type": "uint256"
        }
      ],
      "payable": false,
      "stateMutability": "view",
      "type": "function"
    },
    {
      "constant": true,
      "inputs": [],
      "name": "tbIteration",
      "outputs": [
        {
          "name": "",
          "type": "uint256"
        }
      ],
      "payable": false,
      "stateMutability": "view",
      "type": "function"
    },
    {
      "constant": true,
      "inputs": [
        {
          "name": "",
          "type": "uint256"
        }
      ],
      "name": "winnerOfRound",
      "outputs": [
        {
          "name": "",
          "type": "address"
        }
      ],
      "payable": false,
      "stateMutability": "view",
      "type": "function"
    },
    {
      "constant": true,
      "inputs": [
        {
          "name": "",
          "type": "address"
        }
      ],
      "name": "hasReferrer",
      "outputs": [
        {
          "name": "",
          "type": "bool"
        }
      ],
      "payable": false,
      "stateMutability": "view",
      "type": "function"
    },
    {
      "constant": true,
      "inputs": [
        {
          "name": "",
          "type": "uint256"
        },
        {
          "name": "",
          "type": "uint256"
        }
      ],
      "name": "colorToTotalPaintsForCBIteration",
      "outputs": [
        {
          "name": "",
          "type": "uint256"
        }
      ],
      "payable": false,
      "stateMutability": "view",
      "type": "function"
    },
    {
      "constant": true,
      "inputs": [
        {
          "name": "",
          "type": "address"
        }
      ],
      "name": "isRegisteredUser",
      "outputs": [
        {
          "name": "",
          "type": "bool"
        }
      ],
      "payable": false,
      "stateMutability": "view",
      "type": "function"
    },
    {
      "constant": true,
      "inputs": [
        {
          "name": "",
          "type": "uint256"
        },
        {
          "name": "",
          "type": "address"
        }
      ],
      "name": "hasPaintDiscountForColor",
      "outputs": [
        {
          "name": "",
          "type": "bool"
        }
      ],
      "payable": false,
      "stateMutability": "view",
      "type": "function"
    },
    {
      "constant": true,
      "inputs": [],
      "name": "isTBPDistributable",
      "outputs": [
        {
          "name": "",
          "type": "bool"
        }
      ],
      "payable": false,
      "stateMutability": "view",
      "type": "function"
    },
    {
      "constant": true,
      "inputs": [
        {
          "name": "",
          "type": "address"
        }
      ],
      "name": "isAdmin",
      "outputs": [
        {
          "name": "",
          "type": "bool"
        }
      ],
      "payable": false,
      "stateMutability": "view",
      "type": "function"
    },
    {
      "constant": true,
      "inputs": [
        {
          "name": "",
          "type": "uint256"
        }
      ],
      "name": "currentPaintGenForColor",
      "outputs": [
        {
          "name": "",
          "type": "uint256"
        }
      ],
      "payable": false,
      "stateMutability": "view",
      "type": "function"
    },
    {
      "constant": true,
      "inputs": [
        {
          "name": "",
          "type": "address"
        }
      ],
      "name": "lastPlayedRound",
      "outputs": [
        {
          "name": "",
          "type": "uint256"
        }
      ],
      "payable": false,
      "stateMutability": "view",
      "type": "function"
    },
    {
      "constant": true,
      "inputs": [
        {
          "name": "",
          "type": "uint256"
        },
        {
          "name": "",
          "type": "address"
        }
      ],
      "name": "moneySpentByUserForColor",
      "outputs": [
        {
          "name": "",
          "type": "uint256"
        }
      ],
      "payable": false,
      "stateMutability": "view",
      "type": "function"
    },
    {
      "constant": true,
      "inputs": [
        {
          "name": "",
          "type": "uint256"
        },
        {
          "name": "",
          "type": "uint256"
        }
      ],
      "name": "tbTeam",
      "outputs": [
        {
          "name": "",
          "type": "address"
        }
      ],
      "payable": false,
      "stateMutability": "view",
      "type": "function"
    },
    {
      "constant": true,
      "inputs": [
        {
          "name": "",
          "type": "uint256"
        },
        {
          "name": "",
          "type": "address"
        }
      ],
      "name": "painterToTBP",
      "outputs": [
        {
          "name": "",
          "type": "uint256"
        }
      ],
      "payable": false,
      "stateMutability": "view",
      "type": "function"
    },
    {
      "constant": true,
      "inputs": [
        {
          "name": "",
          "type": "uint256"
        },
        {
          "name": "",
          "type": "uint256"
        }
      ],
      "name": "paintGenToStartTimeForColor",
      "outputs": [
        {
          "name": "",
          "type": "uint256"
        }
      ],
      "payable": false,
      "stateMutability": "view",
      "type": "function"
    },
    {
      "constant": true,
      "inputs": [
        {
          "name": "",
          "type": "uint256"
        }
      ],
      "name": "callPriceForColor",
      "outputs": [
        {
          "name": "",
          "type": "uint256"
        }
      ],
      "payable": false,
      "stateMutability": "view",
      "type": "function"
    },
    {
      "constant": true,
      "inputs": [
        {
          "name": "",
          "type": "uint256"
        },
        {
          "name": "",
          "type": "address"
        }
      ],
      "name": "painterToCBP",
      "outputs": [
        {
          "name": "",
          "type": "uint256"
        }
      ],
      "payable": false,
      "stateMutability": "view",
      "type": "function"
    },
    {
      "constant": true,
      "inputs": [
        {
          "name": "",
          "type": "uint256"
        }
      ],
      "name": "winnerBankForRound",
      "outputs": [
        {
          "name": "",
          "type": "uint256"
        }
      ],
      "payable": false,
      "stateMutability": "view",
      "type": "function"
    },
    {
      "constant": true,
      "inputs": [],
      "name": "paintsCounter",
      "outputs": [
        {
          "name": "",
          "type": "uint256"
        }
      ],
      "payable": false,
      "stateMutability": "view",
      "type": "function"
    },
    {
      "constant": true,
      "inputs": [],
      "name": "founders",
      "outputs": [
        {
          "name": "",
          "type": "address"
        }
      ],
      "payable": false,
      "stateMutability": "view",
      "type": "function"
    },
    {
      "constant": true,
      "inputs": [
        {
          "name": "",
          "type": "address"
        }
      ],
      "name": "newUserToCounter",
      "outputs": [
        {
          "name": "",
          "type": "uint256"
        }
      ],
      "payable": false,
      "stateMutability": "view",
      "type": "function"
    },
    {
      "constant": true,
      "inputs": [
        {
          "name": "",
          "type": "uint256"
        },
        {
          "name": "",
          "type": "uint256"
        }
      ],
      "name": "counterToPainterForColor",
      "outputs": [
        {
          "name": "",
          "type": "address"
        }
      ],
      "payable": false,
      "stateMutability": "view",
      "type": "function"
    },
    {
      "constant": true,
      "inputs": [
        {
          "name": "",
          "type": "uint256"
        },
        {
          "name": "",
          "type": "uint256"
        }
      ],
      "name": "pixelToOldColorForRound",
      "outputs": [
        {
          "name": "",
          "type": "uint256"
        }
      ],
      "payable": false,
      "stateMutability": "view",
      "type": "function"
    },
    {
      "constant": true,
      "inputs": [
        {
          "name": "",
          "type": "uint256"
        }
      ],
      "name": "isTBPTransfered",
      "outputs": [
        {
          "name": "",
          "type": "bool"
        }
      ],
      "payable": false,
      "stateMutability": "view",
      "type": "function"
    },
    {
      "constant": true,
      "inputs": [
        {
          "name": "",
          "type": "uint256"
        }
      ],
      "name": "timeBankForRound",
      "outputs": [
        {
          "name": "",
          "type": "uint256"
        }
      ],
      "payable": false,
      "stateMutability": "view",
      "type": "function"
    },
    {
      "constant": true,
      "inputs": [
        {
          "name": "",
          "type": "address"
        }
      ],
      "name": "userToRefLink",
      "outputs": [
        {
          "name": "",
          "type": "string"
        }
      ],
      "payable": false,
      "stateMutability": "view",
      "type": "function"
    },
    {
      "constant": true,
      "inputs": [],
      "name": "claimId",
      "outputs": [
        {
          "name": "",
          "type": "uint256"
        }
      ],
      "payable": false,
      "stateMutability": "view",
      "type": "function"
    },
    {
      "constant": true,
      "inputs": [
        {
          "name": "",
          "type": "uint256"
        },
        {
          "name": "",
          "type": "uint256"
        }
      ],
      "name": "cbTeam",
      "outputs": [
        {
          "name": "",
          "type": "address"
        }
      ],
      "payable": false,
      "stateMutability": "view",
      "type": "function"
    },
    {
      "constant": true,
      "inputs": [
        {
          "name": "",
          "type": "uint256"
        },
        {
          "name": "",
          "type": "uint256"
        }
      ],
      "name": "paintGenStartedForColor",
      "outputs": [
        {
          "name": "",
          "type": "bool"
        }
      ],
      "payable": false,
      "stateMutability": "view",
      "type": "function"
    },
    {
      "constant": true,
      "inputs": [
        {
          "name": "",
          "type": "uint256"
        }
      ],
      "name": "lastPaintedPixelForRound",
      "outputs": [
        {
          "name": "",
          "type": "uint256"
        }
      ],
      "payable": false,
      "stateMutability": "view",
      "type": "function"
    },
    {
      "constant": true,
      "inputs": [
        {
          "name": "",
          "type": "uint256"
        }
      ],
      "name": "nextCallPriceForColor",
      "outputs": [
        {
          "name": "",
          "type": "uint256"
        }
      ],
      "payable": false,
      "stateMutability": "view",
      "type": "function"
    },
    {
      "constant": false,
      "inputs": [],
      "name": "renounceOwnership",
      "outputs": [],
      "payable": false,
      "stateMutability": "nonpayable",
      "type": "function"
    },
    {
      "constant": true,
      "inputs": [
        {
          "name": "",
          "type": "uint256"
        }
      ],
      "name": "lastPaintTimeForRound",
      "outputs": [
        {
          "name": "",
          "type": "uint256"
        }
      ],
      "payable": false,
      "stateMutability": "view",
      "type": "function"
    },
    {
      "constant": true,
      "inputs": [],
      "name": "isCBPDistributable",
      "outputs": [
        {
          "name": "",
          "type": "bool"
        }
      ],
      "payable": false,
      "stateMutability": "view",
      "type": "function"
    },
    {
      "constant": true,
      "inputs": [
        {
          "name": "",
          "type": "uint256"
        }
      ],
      "name": "lastPainterForRound",
      "outputs": [
        {
          "name": "",
          "type": "address"
        }
      ],
      "payable": false,
      "stateMutability": "view",
      "type": "function"
    },
    {
      "constant": true,
      "inputs": [
        {
          "name": "",
          "type": "address"
        }
      ],
      "name": "hasRefLink",
      "outputs": [
        {
          "name": "",
          "type": "bool"
        }
      ],
      "payable": false,
      "stateMutability": "view",
      "type": "function"
    },
    {
      "constant": true,
      "inputs": [
        {
          "name": "",
          "type": "address"
        },
        {
          "name": "",
          "type": "uint256"
        }
      ],
      "name": "referrerToReferrals",
      "outputs": [
        {
          "name": "",
          "type": "address"
        }
      ],
      "payable": false,
      "stateMutability": "view",
      "type": "function"
    },
    {
      "constant": true,
      "inputs": [],
      "name": "currentRound",
      "outputs": [
        {
          "name": "",
          "type": "uint256"
        }
      ],
      "payable": false,
      "stateMutability": "view",
      "type": "function"
    },
    {
      "constant": true,
      "inputs": [],
      "name": "owner",
      "outputs": [
        {
          "name": "",
          "type": "address"
        }
      ],
      "payable": false,
      "stateMutability": "view",
      "type": "function"
    },
    {
      "constant": true,
      "inputs": [
        {
          "name": "",
          "type": "uint256"
        }
      ],
      "name": "paintsCounterForColor",
      "outputs": [
        {
          "name": "",
          "type": "uint256"
        }
      ],
      "payable": false,
      "stateMutability": "view",
      "type": "function"
    },
    {
      "constant": true,
      "inputs": [],
      "name": "isOwner",
      "outputs": [
        {
          "name": "",
          "type": "bool"
        }
      ],
      "payable": false,
      "stateMutability": "view",
      "type": "function"
    },
    {
      "constant": true,
      "inputs": [
        {
          "name": "",
          "type": "uint256"
        },
        {
          "name": "",
          "type": "uint256"
        }
      ],
      "name": "pixelToPaintTimeForRound",
      "outputs": [
        {
          "name": "",
          "type": "uint256"
        }
      ],
      "payable": false,
      "stateMutability": "view",
      "type": "function"
    },
    {
      "constant": true,
      "inputs": [
        {
          "name": "",
          "type": "uint256"
        },
        {
          "name": "",
          "type": "uint256"
        }
      ],
      "name": "colorBankToColorForRound",
      "outputs": [
        {
          "name": "",
          "type": "uint256"
        }
      ],
      "payable": false,
      "stateMutability": "view",
      "type": "function"
    },
    {
      "constant": true,
      "inputs": [
        {
          "name": "",
          "type": "uint256"
        }
      ],
      "name": "claims",
      "outputs": [
        {
          "name": "id",
          "type": "uint256"
        },
        {
          "name": "claimer",
          "type": "address"
        },
        {
          "name": "isResolved",
          "type": "bool"
        },
        {
          "name": "timestamp",
          "type": "uint256"
        }
      ],
      "payable": false,
      "stateMutability": "view",
      "type": "function"
    },
    {
      "constant": true,
      "inputs": [],
      "name": "ownerOfPixel",
      "outputs": [
        {
          "name": "",
          "type": "address"
        }
      ],
      "payable": false,
      "stateMutability": "view",
      "type": "function"
    },
    {
      "constant": true,
      "inputs": [
        {
          "name": "",
          "type": "uint256"
        },
        {
          "name": "",
          "type": "address"
        }
      ],
      "name": "isInCBT",
      "outputs": [
        {
          "name": "",
          "type": "bool"
        }
      ],
      "payable": false,
      "stateMutability": "view",
      "type": "function"
    },
    {
      "constant": true,
      "inputs": [
        {
          "name": "",
          "type": "uint256"
        }
      ],
      "name": "counterToPainter",
      "outputs": [
        {
          "name": "",
          "type": "address"
        }
      ],
      "payable": false,
      "stateMutability": "view",
      "type": "function"
    },
    {
      "constant": true,
      "inputs": [
        {
          "name": "",
          "type": "uint256"
        },
        {
          "name": "",
          "type": "address"
        }
      ],
      "name": "timeBankShare",
      "outputs": [
        {
          "name": "",
          "type": "uint256"
        }
      ],
      "payable": false,
      "stateMutability": "view",
      "type": "function"
    },
    {
      "constant": true,
      "inputs": [
        {
          "name": "",
          "type": "uint256"
        },
        {
          "name": "",
          "type": "uint256"
        },
        {
          "name": "",
          "type": "address"
        }
      ],
      "name": "colorBankShare",
      "outputs": [
        {
          "name": "",
          "type": "uint256"
        }
      ],
      "payable": false,
      "stateMutability": "view",
      "type": "function"
    },
    {
      "constant": true,
      "inputs": [
        {
          "name": "",
          "type": "uint256"
        },
        {
          "name": "",
          "type": "uint256"
        }
      ],
      "name": "pixelToColorForRound",
      "outputs": [
        {
          "name": "",
          "type": "uint256"
        }
      ],
      "payable": false,
      "stateMutability": "view",
      "type": "function"
    },
    {
      "constant": true,
      "inputs": [
        {
          "name": "",
          "type": "uint256"
        }
      ],
      "name": "totalPaintsForRound",
      "outputs": [
        {
          "name": "",
          "type": "uint256"
        }
      ],
      "payable": false,
      "stateMutability": "view",
      "type": "function"
    },
    {
      "constant": true,
      "inputs": [
        {
          "name": "",
          "type": "uint256"
        }
      ],
      "name": "colorBankForRound",
      "outputs": [
        {
          "name": "",
          "type": "uint256"
        }
      ],
      "payable": false,
      "stateMutability": "view",
      "type": "function"
    },
    {
      "constant": true,
      "inputs": [
        {
          "name": "",
          "type": "uint256"
        },
        {
          "name": "",
          "type": "uint256"
        }
      ],
      "name": "paintGenToEndTimeForColor",
      "outputs": [
        {
          "name": "",
          "type": "uint256"
        }
      ],
      "payable": false,
      "stateMutability": "view",
      "type": "function"
    },
    {
      "constant": true,
      "inputs": [],
      "name": "uniqueUsersCount",
      "outputs": [
        {
          "name": "",
          "type": "uint256"
        }
      ],
      "payable": false,
      "stateMutability": "view",
      "type": "function"
    },
    {
      "constant": true,
      "inputs": [
        {
          "name": "",
          "type": "bytes32"
        }
      ],
      "name": "refLinkExists",
      "outputs": [
        {
          "name": "",
          "type": "bool"
        }
      ],
      "payable": false,
      "stateMutability": "view",
      "type": "function"
    },
    {
      "constant": true,
      "inputs": [
        {
          "name": "",
          "type": "uint256"
        },
        {
          "name": "",
          "type": "uint256"
        }
      ],
      "name": "paintGenToAmountForColor",
      "outputs": [
        {
          "name": "",
          "type": "uint256"
        }
      ],
      "payable": false,
      "stateMutability": "view",
      "type": "function"
    },
    {
      "constant": true,
      "inputs": [
        {
          "name": "",
          "type": "uint256"
        }
      ],
      "name": "isCBPTransfered",
      "outputs": [
        {
          "name": "",
          "type": "bool"
        }
      ],
      "payable": false,
      "stateMutability": "view",
      "type": "function"
    },
    {
      "constant": true,
      "inputs": [
        {
          "name": "",
          "type": "address"
        }
      ],
      "name": "referralToReferrer",
      "outputs": [
        {
          "name": "",
          "type": "address"
        }
      ],
      "payable": false,
      "stateMutability": "view",
      "type": "function"
    },
    {
      "constant": true,
      "inputs": [
        {
          "name": "",
          "type": "uint256"
        },
        {
          "name": "",
          "type": "address"
        }
      ],
      "name": "usersPaintDiscountForColor",
      "outputs": [
        {
          "name": "",
          "type": "uint256"
        }
      ],
      "payable": false,
      "stateMutability": "view",
      "type": "function"
    },
    {
      "constant": true,
      "inputs": [],
      "name": "maxPaintsInPool",
      "outputs": [
        {
          "name": "",
          "type": "uint256"
        }
      ],
      "payable": false,
      "stateMutability": "view",
      "type": "function"
    },
    {
      "constant": false,
      "inputs": [
        {
          "name": "newOwner",
          "type": "address"
        }
      ],
      "name": "transferOwnership",
      "outputs": [],
      "payable": false,
      "stateMutability": "nonpayable",
      "type": "function"
    },
    {
      "constant": true,
      "inputs": [
        {
          "name": "",
          "type": "uint256"
        }
      ],
      "name": "winnerColorForRound",
      "outputs": [
        {
          "name": "",
          "type": "uint256"
        }
      ],
      "payable": false,
      "stateMutability": "view",
      "type": "function"
    },
    {
      "constant": true,
      "inputs": [],
      "name": "dividendsBank",
      "outputs": [
        {
          "name": "",
          "type": "uint256"
        }
      ],
      "payable": false,
      "stateMutability": "view",
      "type": "function"
    },
    {
      "constant": true,
      "inputs": [
        {
          "name": "",
          "type": "address"
        }
      ],
      "name": "withdrawalBalances",
      "outputs": [
        {
          "name": "",
          "type": "uint256"
        }
      ],
      "payable": false,
      "stateMutability": "view",
      "type": "function"
    },
    {
      "constant": true,
      "inputs": [],
      "name": "cbIteration",
      "outputs": [
        {
          "name": "",
          "type": "uint256"
        }
      ],
      "payable": false,
      "stateMutability": "view",
      "type": "function"
    },
    {
      "anonymous": false,
      "inputs": [
        {
          "indexed": true,
          "name": "round",
          "type": "uint256"
        },
        {
          "indexed": true,
          "name": "cbIteration",
          "type": "uint256"
        },
        {
          "indexed": false,
          "name": "winner",
          "type": "address"
        }
      ],
      "name": "CBPDistributed",
      "type": "event"
    },
    {
      "anonymous": false,
      "inputs": [
        {
          "indexed": true,
          "name": "withdrawer",
          "type": "address"
        },
        {
          "indexed": true,
          "name": "claimId",
          "type": "uint256"
        },
        {
          "indexed": true,
          "name": "amount",
          "type": "uint256"
        }
      ],
      "name": "DividendsWithdrawn",
      "type": "event"
    },
    {
      "anonymous": false,
      "inputs": [
        {
          "indexed": true,
          "name": "claimer",
          "type": "address"
        },
        {
          "indexed": true,
          "name": "claimId",
          "type": "uint256"
        },
        {
          "indexed": true,
          "name": "currentTime",
          "type": "uint256"
        }
      ],
      "name": "DividendsClaimed",
      "type": "event"
    },
    {
      "anonymous": false,
      "inputs": [
        {
          "indexed": true,
          "name": "pixelId",
          "type": "uint256"
        },
        {
          "indexed": false,
          "name": "colorId",
          "type": "uint256"
        },
        {
          "indexed": true,
          "name": "painter",
          "type": "address"
        },
        {
          "indexed": true,
          "name": "round",
          "type": "uint256"
        },
        {
          "indexed": false,
          "name": "timestamp",
          "type": "uint256"
        }
      ],
      "name": "Paint",
      "type": "event"
    },
    {
      "anonymous": false,
      "inputs": [
        {
          "indexed": false,
          "name": "winner",
          "type": "address"
        },
        {
          "indexed": true,
          "name": "round",
          "type": "uint256"
        }
      ],
      "name": "ColorBankPlayed",
      "type": "event"
    },
    {
      "anonymous": false,
      "inputs": [
        {
          "indexed": false,
          "name": "winner",
          "type": "address"
        },
        {
          "indexed": true,
          "name": "round",
          "type": "uint256"
        }
      ],
      "name": "TimeBankPlayed",
      "type": "event"
    },
    {
      "anonymous": false,
      "inputs": [
        {
          "indexed": true,
          "name": "newCallPrice",
          "type": "uint256"
        }
      ],
      "name": "CallPriceUpdated",
      "type": "event"
    },
    {
      "anonymous": false,
      "inputs": [
        {
          "indexed": true,
          "name": "round",
          "type": "uint256"
        },
        {
          "indexed": true,
          "name": "tbIteration",
          "type": "uint256"
        },
        {
          "indexed": false,
          "name": "winner",
          "type": "address"
        }
      ],
      "name": "TBPDistributed",
      "type": "event"
    },
    {
      "anonymous": false,
      "inputs": [
        {
          "indexed": true,
          "name": "previousOwner",
          "type": "address"
        },
        {
          "indexed": true,
          "name": "newOwner",
          "type": "address"
        }
      ],
      "name": "OwnershipTransferred",
      "type": "event"
    }
  ],
  "bytecode": "0x608060405273ca35b7d915458ef540ade6068dfe2f44e8fa733c604060006101000a81548173ffffffffffffffffffffffffffffffffffffffff021916908373ffffffffffffffffffffffffffffffffffffffff160217905550733e4d187df7d8a0820eaf4174d17b160157610912604160006101000a81548173ffffffffffffffffffffffffffffffffffffffff021916908373ffffffffffffffffffffffffffffffffffffffff160217905550336000806101000a81548173ffffffffffffffffffffffffffffffffffffffff021916908373ffffffffffffffffffffffffffffffffffffffff1602179055506000809054906101000a900473ffffffffffffffffffffffffffffffffffffffff1673ffffffffffffffffffffffffffffffffffffffff16600073ffffffffffffffffffffffffffffffffffffffff167f8be0079c531659141344cd1fd0a4f28419497f9722a3daafe3b4186f6b6457e060405160405180910390a36124e7806101796000396000f30060806040526004361061032d576000357c0100000000000000000000000000000000000000000000000000000000900463ffffffff1680630422ddf31461033257806305bdd0be14610361578063099b81ce146103c65780630baaea44146104375780630cf9603f146104a45780630f6ed86e146104ef578063102f97131461051a57806318452cd81461058757806319ef6a06146105e25780631f5bdf5d1461062d5780631f90c6ed1461068857806321423af8146106ed57806324d7806c1461071c57806328361f571461077757806328b290f9146107b85780632c6c1c411461080f5780632c7a3dae1461087057806333f9c388146108e75780633a173505146109485780633c6dd013146109935780633ca4c183146109d45780633d0d1a7914610a355780633dc3c37714610a76578063411b007e14610aa157806341c5464e14610af857806342e453ec14610b4f5780634b39173d14610bc65780634c438ad714610c115780634c78e40114610c565780635bfcdb2714610c975780635c25fd1314610d535780635d63ebb214610d7e5780635f5d554c14610df5578063628a71a314610e445780636f17eb4214610e85578063715018a614610ec657806373a9ee2614610edd57806376f5d96a14610f1e57806379ecf37614610f4d5780637e1e175c14610fba57806387982ac3146110155780638a19c8bc146110a25780638da5cb5b146110cd5780638e2df39c146111245780638f32d59b146111655780638f63b7e514611194578063a3120724146111df578063a888c2cd1461122a578063a977e168146112b0578063ab24c7d214611307578063ae55ce821461136c578063b0ff59d2146113d9578063b1a3883c1461143a578063b8232d5d146114a5578063be7d6226146114f0578063c64a2e5614611531578063c957387b14611572578063c9f8234f146115bd578063d4526e68146115e8578063d5de47c714611631578063da68b1211461167c578063deaf0fa1146116c1578063eaf1c91014611744578063eef565da146117a5578063f2fde38b146117d0578063f49916f514611813578063f5f95b3b14611854578063fb454d291461187f578063fea11fe3146118d6575b600080fd5b34801561033e57600080fd5b50610347611901565b604051808215151515815260200191505060405180910390f35b34801561036d57600080fd5b506103ac60048036038101908080359060200190929190803573ffffffffffffffffffffffffffffffffffffffff169060200190929190505050611914565b604051808215151515815260200191505060405180910390f35b3480156103d257600080fd5b506103f56004803603810190808035600019169060200190929190505050611943565b604051808273ffffffffffffffffffffffffffffffffffffffff1673ffffffffffffffffffffffffffffffffffffffff16815260200191505060405180910390f35b34801561044357600080fd5b5061046260048036038101908080359060200190929190505050611976565b604051808273ffffffffffffffffffffffffffffffffffffffff1673ffffffffffffffffffffffffffffffffffffffff16815260200191505060405180910390f35b3480156104b057600080fd5b506104d960048036038101908080359060200190929190803590602001909291905050506119a9565b6040518082815260200191505060405180910390f35b3480156104fb57600080fd5b506105046119ce565b6040518082815260200191505060405180910390f35b34801561052657600080fd5b50610545600480360381019080803590602001909291905050506119d4565b604051808273ffffffffffffffffffffffffffffffffffffffff1673ffffffffffffffffffffffffffffffffffffffff16815260200191505060405180910390f35b34801561059357600080fd5b506105c8600480360381019080803573ffffffffffffffffffffffffffffffffffffffff169060200190929190505050611a07565b604051808215151515815260200191505060405180910390f35b3480156105ee57600080fd5b506106176004803603810190808035906020019092919080359060200190929190505050611a27565b6040518082815260200191505060405180910390f35b34801561063957600080fd5b5061066e600480360381019080803573ffffffffffffffffffffffffffffffffffffffff169060200190929190505050611a4c565b604051808215151515815260200191505060405180910390f35b34801561069457600080fd5b506106d360048036038101908080359060200190929190803573ffffffffffffffffffffffffffffffffffffffff169060200190929190505050611a6c565b604051808215151515815260200191505060405180910390f35b3480156106f957600080fd5b50610702611a9b565b604051808215151515815260200191505060405180910390f35b34801561072857600080fd5b5061075d600480360381019080803573ffffffffffffffffffffffffffffffffffffffff169060200190929190505050611aae565b604051808215151515815260200191505060405180910390f35b34801561078357600080fd5b506107a260048036038101908080359060200190929190505050611ace565b6040518082815260200191505060405180910390f35b3480156107c457600080fd5b506107f9600480360381019080803573ffffffffffffffffffffffffffffffffffffffff169060200190929190505050611ae6565b6040518082815260200191505060405180910390f35b34801561081b57600080fd5b5061085a60048036038101908080359060200190929190803573ffffffffffffffffffffffffffffffffffffffff169060200190929190505050611afe565b6040518082815260200191505060405180910390f35b34801561087c57600080fd5b506108a56004803603810190808035906020019092919080359060200190929190505050611b23565b604051808273ffffffffffffffffffffffffffffffffffffffff1673ffffffffffffffffffffffffffffffffffffffff16815260200191505060405180910390f35b3480156108f357600080fd5b5061093260048036038101908080359060200190929190803573ffffffffffffffffffffffffffffffffffffffff169060200190929190505050611b70565b6040518082815260200191505060405180910390f35b34801561095457600080fd5b5061097d6004803603810190808035906020019092919080359060200190929190505050611b95565b6040518082815260200191505060405180910390f35b34801561099f57600080fd5b506109be60048036038101908080359060200190929190505050611bba565b6040518082815260200191505060405180910390f35b3480156109e057600080fd5b50610a1f60048036038101908080359060200190929190803573ffffffffffffffffffffffffffffffffffffffff169060200190929190505050611bd2565b6040518082815260200191505060405180910390f35b348015610a4157600080fd5b50610a6060048036038101908080359060200190929190505050611bf7565b6040518082815260200191505060405180910390f35b348015610a8257600080fd5b50610a8b611c0f565b6040518082815260200191505060405180910390f35b348015610aad57600080fd5b50610ab6611c15565b604051808273ffffffffffffffffffffffffffffffffffffffff1673ffffffffffffffffffffffffffffffffffffffff16815260200191505060405180910390f35b348015610b0457600080fd5b50610b39600480360381019080803573ffffffffffffffffffffffffffffffffffffffff169060200190929190505050611c3b565b6040518082815260200191505060405180910390f35b348015610b5b57600080fd5b50610b846004803603810190808035906020019092919080359060200190929190505050611c53565b604051808273ffffffffffffffffffffffffffffffffffffffff1673ffffffffffffffffffffffffffffffffffffffff16815260200191505060405180910390f35b348015610bd257600080fd5b50610bfb6004803603810190808035906020019092919080359060200190929190505050611c95565b6040518082815260200191505060405180910390f35b348015610c1d57600080fd5b50610c3c60048036038101908080359060200190929190505050611cba565b604051808215151515815260200191505060405180910390f35b348015610c6257600080fd5b50610c8160048036038101908080359060200190929190505050611cda565b6040518082815260200191505060405180910390f35b348015610ca357600080fd5b50610cd8600480360381019080803573ffffffffffffffffffffffffffffffffffffffff169060200190929190505050611cf2565b6040518080602001828103825283818151815260200191508051906020019080838360005b83811015610d18578082015181840152602081019050610cfd565b50505050905090810190601f168015610d455780820380516001836020036101000a031916815260200191505b509250505060405180910390f35b348015610d5f57600080fd5b50610d68611da2565b6040518082815260200191505060405180910390f35b348015610d8a57600080fd5b50610db36004803603810190808035906020019092919080359060200190929190505050611da8565b604051808273ffffffffffffffffffffffffffffffffffffffff1673ffffffffffffffffffffffffffffffffffffffff16815260200191505060405180910390f35b348015610e0157600080fd5b50610e2a6004803603810190808035906020019092919080359060200190929190505050611df5565b604051808215151515815260200191505060405180910390f35b348015610e5057600080fd5b50610e6f60048036038101908080359060200190929190505050611e24565b6040518082815260200191505060405180910390f35b348015610e9157600080fd5b50610eb060048036038101908080359060200190929190505050611e3c565b6040518082815260200191505060405180910390f35b348015610ed257600080fd5b50610edb611e54565b005b348015610ee957600080fd5b50610f0860048036038101908080359060200190929190505050611f26565b6040518082815260200191505060405180910390f35b348015610f2a57600080fd5b50610f33611f3e565b604051808215151515815260200191505060405180910390f35b348015610f5957600080fd5b50610f7860048036038101908080359060200190929190505050611f51565b604051808273ffffffffffffffffffffffffffffffffffffffff1673ffffffffffffffffffffffffffffffffffffffff16815260200191505060405180910390f35b348015610fc657600080fd5b50610ffb600480360381019080803573ffffffffffffffffffffffffffffffffffffffff169060200190929190505050611f84565b604051808215151515815260200191505060405180910390f35b34801561102157600080fd5b50611060600480360381019080803573ffffffffffffffffffffffffffffffffffffffff16906020019092919080359060200190929190505050611fa4565b604051808273ffffffffffffffffffffffffffffffffffffffff1673ffffffffffffffffffffffffffffffffffffffff16815260200191505060405180910390f35b3480156110ae57600080fd5b506110b7611ff0565b6040518082815260200191505060405180910390f35b3480156110d957600080fd5b506110e2611ff6565b604051808273ffffffffffffffffffffffffffffffffffffffff1673ffffffffffffffffffffffffffffffffffffffff16815260200191505060405180910390f35b34801561113057600080fd5b5061114f6004803603810190808035906020019092919050505061201f565b6040518082815260200191505060405180910390f35b34801561117157600080fd5b5061117a612037565b604051808215151515815260200191505060405180910390f35b3480156111a057600080fd5b506111c9600480360381019080803590602001909291908035906020019092919050505061208e565b6040518082815260200191505060405180910390f35b3480156111eb57600080fd5b5061121460048036038101908080359060200190929190803590602001909291905050506120b3565b6040518082815260200191505060405180910390f35b34801561123657600080fd5b50611255600480360381019080803590602001909291905050506120d8565b604051808581526020018473ffffffffffffffffffffffffffffffffffffffff1673ffffffffffffffffffffffffffffffffffffffff1681526020018315151515815260200182815260200194505050505060405180910390f35b3480156112bc57600080fd5b506112c5612144565b604051808273ffffffffffffffffffffffffffffffffffffffff1673ffffffffffffffffffffffffffffffffffffffff16815260200191505060405180910390f35b34801561131357600080fd5b5061135260048036038101908080359060200190929190803573ffffffffffffffffffffffffffffffffffffffff16906020019092919050505061216a565b604051808215151515815260200191505060405180910390f35b34801561137857600080fd5b5061139760048036038101908080359060200190929190505050612199565b604051808273ffffffffffffffffffffffffffffffffffffffff1673ffffffffffffffffffffffffffffffffffffffff16815260200191505060405180910390f35b3480156113e557600080fd5b5061142460048036038101908080359060200190929190803573ffffffffffffffffffffffffffffffffffffffff1690602001909291905050506121cc565b6040518082815260200191505060405180910390f35b34801561144657600080fd5b5061148f6004803603810190808035906020019092919080359060200190929190803573ffffffffffffffffffffffffffffffffffffffff1690602001909291905050506121f1565b6040518082815260200191505060405180910390f35b3480156114b157600080fd5b506114da6004803603810190808035906020019092919080359060200190929190505050612223565b6040518082815260200191505060405180910390f35b3480156114fc57600080fd5b5061151b60048036038101908080359060200190929190505050612248565b6040518082815260200191505060405180910390f35b34801561153d57600080fd5b5061155c60048036038101908080359060200190929190505050612260565b6040518082815260200191505060405180910390f35b34801561157e57600080fd5b506115a76004803603810190808035906020019092919080359060200190929190505050612278565b6040518082815260200191505060405180910390f35b3480156115c957600080fd5b506115d261229d565b6040518082815260200191505060405180910390f35b3480156115f457600080fd5b5061161760048036038101908080356000191690602001909291905050506122a3565b604051808215151515815260200191505060405180910390f35b34801561163d57600080fd5b5061166660048036038101908080359060200190929190803590602001909291905050506122c3565b6040518082815260200191505060405180910390f35b34801561168857600080fd5b506116a7600480360381019080803590602001909291905050506122e8565b604051808215151515815260200191505060405180910390f35b3480156116cd57600080fd5b50611702600480360381019080803573ffffffffffffffffffffffffffffffffffffffff169060200190929190505050612308565b604051808273ffffffffffffffffffffffffffffffffffffffff1673ffffffffffffffffffffffffffffffffffffffff16815260200191505060405180910390f35b34801561175057600080fd5b5061178f60048036038101908080359060200190929190803573ffffffffffffffffffffffffffffffffffffffff16906020019092919050505061233b565b6040518082815260200191505060405180910390f35b3480156117b157600080fd5b506117ba612360565b6040518082815260200191505060405180910390f35b3480156117dc57600080fd5b50611811600480360381019080803573ffffffffffffffffffffffffffffffffffffffff169060200190929190505050612366565b005b34801561181f57600080fd5b5061183e60048036038101908080359060200190929190505050612385565b6040518082815260200191505060405180910390f35b34801561186057600080fd5b5061186961239d565b6040518082815260200191505060405180910390f35b34801561188b57600080fd5b506118c0600480360381019080803573ffffffffffffffffffffffffffffffffffffffff1690602001909291905050506123a3565b6040518082815260200191505060405180910390f35b3480156118e257600080fd5b506118eb6123bb565b6040518082815260200191505060405180910390f35b604160149054906101000a900460ff1681565b60346020528160005260406000206020528060005260406000206000915091509054906101000a900460ff1681565b60236020528060005260406000206000915054906101000a900473ffffffffffffffffffffffffffffffffffffffff1681565b603a6020528060005260406000206000915054906101000a900473ffffffffffffffffffffffffffffffffffffffff1681565b6006602052816000526040600020602052806000526040600020600091509150505481565b60295481565b600f6020528060005260406000206000915054906101000a900473ffffffffffffffffffffffffffffffffffffffff1681565b60216020528060005260406000206000915054906101000a900460ff1681565b600e602052816000526040600020602052806000526040600020600091509150505481565b601d6020528060005260406000206000915054906101000a900460ff1681565b601b6020528160005260406000206020528060005260406000206000915091509054906101000a900460ff1681565b604160169054906101000a900460ff1681565b60426020528060005260406000206000915054906101000a900460ff1681565b60176020528060005260406000206000915090505481565b60396020528060005260406000206000915090505481565b601a602052816000526040600020602052806000526040600020600091509150505481565b603060205281600052604060002081815481101515611b3e57fe5b906000526020600020016000915091509054906101000a900473ffffffffffffffffffffffffffffffffffffffff1681565b6036602052816000526040600020602052806000526040600020600091509150505481565b6014602052816000526040600020602052806000526040600020600091509150505481565b60186020528060005260406000206000915090505481565b6035602052816000526040600020602052806000526040600020600091509150505481565b60106020528060005260406000206000915090505481565b602b5481565b604160009054906101000a900473ffffffffffffffffffffffffffffffffffffffff1681565b60256020528060005260406000206000915090505481565b60326020528160005260406000206020528060005260406000206000915091509054906101000a900473ffffffffffffffffffffffffffffffffffffffff1681565b6005602052816000526040600020602052806000526040600020600091509150505481565b60386020528060005260406000206000915054906101000a900460ff1681565b60096020528060005260406000206000915090505481565b60226020528060005260406000206000915090508054600181600116156101000203166002900480601f016020809104026020016040519081016040528092919081815260200182805460018160011615610100020316600290048015611d9a5780601f10611d6f57610100808354040283529160200191611d9a565b820191906000526020600020905b815481529060010190602001808311611d7d57829003601f168201915b505050505081565b603e5481565b602f60205281600052604060002081815481101515611dc357fe5b906000526020600020016000915091509054906101000a900473ffffffffffffffffffffffffffffffffffffffff1681565b60166020528160005260406000206020528060005260406000206000915091509054906101000a900460ff1681565b600c6020528060005260406000206000915090505481565b60196020528060005260406000206000915090505481565b611e5c612037565b1515611e6757600080fd5b600073ffffffffffffffffffffffffffffffffffffffff166000809054906101000a900473ffffffffffffffffffffffffffffffffffffffff1673ffffffffffffffffffffffffffffffffffffffff167f8be0079c531659141344cd1fd0a4f28419497f9722a3daafe3b4186f6b6457e060405160405180910390a360008060006101000a81548173ffffffffffffffffffffffffffffffffffffffff021916908373ffffffffffffffffffffffffffffffffffffffff160217905550565b600a6020528060005260406000206000915090505481565b604160159054906101000a900460ff1681565b600b6020528060005260406000206000915054906101000a900473ffffffffffffffffffffffffffffffffffffffff1681565b601e6020528060005260406000206000915054906101000a900460ff1681565b6020805281600052604060002081815481101515611fbe57fe5b906000526020600020016000915091509054906101000a900473ffffffffffffffffffffffffffffffffffffffff1681565b60285481565b60008060009054906101000a900473ffffffffffffffffffffffffffffffffffffffff16905090565b602e6020528060005260406000206000915090505481565b60008060009054906101000a900473ffffffffffffffffffffffffffffffffffffffff1673ffffffffffffffffffffffffffffffffffffffff163373ffffffffffffffffffffffffffffffffffffffff1614905090565b6011602052816000526040600020602052806000526040600020600091509150505481565b6008602052816000526040600020602052806000526040600020600091509150505481565b603f818154811015156120e757fe5b90600052602060002090600302016000915090508060000154908060010160009054906101000a900473ffffffffffffffffffffffffffffffffffffffff16908060010160149054906101000a900460ff16908060020154905084565b604060009054906101000a900473ffffffffffffffffffffffffffffffffffffffff1681565b60336020528160005260406000206020528060005260406000206000915091509054906101000a900460ff1681565b60316020528060005260406000206000915054906101000a900473ffffffffffffffffffffffffffffffffffffffff1681565b602c602052816000526040600020602052806000526040600020600091509150505481565b602d60205282600052604060002060205281600052604060002060205280600052604060002060009250925050505481565b6004602052816000526040600020602052806000526040600020600091509150505481565b60126020528060005260406000206000915090505481565b60076020528060005260406000206000915090505481565b6015602052816000526040600020602052806000526040600020600091509150505481565b60265481565b60246020528060005260406000206000915054906101000a900460ff1681565b6013602052816000526040600020602052806000526040600020600091509150505481565b60376020528060005260406000206000915054906101000a900460ff1681565b601f6020528060005260406000206000915054906101000a900473ffffffffffffffffffffffffffffffffffffffff1681565b601c602052816000526040600020602052806000526040600020600091509150505481565b60275481565b61236e612037565b151561237957600080fd5b612382816123c1565b50565b600d6020528060005260406000206000915090505481565b603d5481565b603b6020528060005260406000206000915090505481565b602a5481565b600073ffffffffffffffffffffffffffffffffffffffff168173ffffffffffffffffffffffffffffffffffffffff16141515156123fd57600080fd5b8073ffffffffffffffffffffffffffffffffffffffff166000809054906101000a900473ffffffffffffffffffffffffffffffffffffffff1673ffffffffffffffffffffffffffffffffffffffff167f8be0079c531659141344cd1fd0a4f28419497f9722a3daafe3b4186f6b6457e060405160405180910390a3806000806101000a81548173ffffffffffffffffffffffffffffffffffffffff021916908373ffffffffffffffffffffffffffffffffffffffff160217905550505600a165627a7a72305820fe369e8ec57eaa465e90ba4d3fe3c506ec0e9acda319b00cd3d7cba24876a8930029",
  "source": "pragma solidity ^0.4.24;\nimport \"./StorageV0.sol\";\n\ncontract StorageV1 is StorageV0 {\n\n    //    (p =>  => )\n    mapping (uint => mapping (uint => uint)) public pixelToColorForRound; \n\n    //     (p =>  => )\n    mapping (uint => mapping (uint => uint)) public pixelToOldColorForRound; \n\n    //          ( =>  =>  )\n    mapping (uint => mapping (uint => uint)) public colorToPaintedPixelsAmountForRound; \n\n    //    ( =>  )\n    mapping (uint => uint) public colorBankForRound; \n\n    //       ( =>  =>  )\n    mapping (uint => mapping (uint => uint)) public colorBankToColorForRound; \n\n    //    ( =>  )\n    mapping (uint => uint) public timeBankForRound; \n    \n    //        ( => )\n    mapping (uint => uint) public lastPaintTimeForRound; \n\n    //       ( => )\n    mapping (uint => address) public lastPainterForRound; \n\n    //    \n    mapping (uint => uint) public lastPaintedPixelForRound;\n\n    //   (   )   ( => ) \n    mapping (uint => uint) public winnerColorForRound; \n\n    //         ( =>  =>  )\n    mapping (uint => mapping (uint => uint)) public colorToTotalPaintsForCBIteration; \n\n    //  ( => )\n    mapping (uint => address) public winnerOfRound; \n\n    //      ( =>  ) (1 =  , 2 =  )\n    mapping (uint => uint) public winnerBankForRound; \n\n    //       (0 =  )\n    mapping (uint => mapping (uint => uint)) public pixelToPaintTimeForRound;\n\n    //        \n    mapping (uint => uint) public totalPaintsForRound;\n        \n     //    \n    mapping (uint => mapping (uint => uint)) public paintGenToAmountForColor;\n    \n    //       \n    mapping (uint => mapping (uint => uint)) public paintGenToStartTimeForColor;\n    \n    //       \n    mapping (uint => mapping (uint => uint)) public paintGenToEndTimeForColor;\n    \n    //  -   ,   \n    mapping (uint => mapping (uint => bool)) public paintGenStartedForColor;\n\n    //       \n    mapping (uint => uint) public currentPaintGenForColor;\n    \n    //   paint\n    mapping (uint => uint) public callPriceForColor;\n    \n    //    paint\n    mapping (uint => uint) public nextCallPriceForColor;\n    \n    //         \n    mapping (uint => mapping (address => uint)) public moneySpentByUserForColor;\n    \n    //     ,           \n    mapping (uint => mapping (address => bool)) public hasPaintDiscountForColor;\n    \n    //       ( )\n    mapping (uint => mapping (address => uint)) public usersPaintDiscountForColor;\n\n     // \n    mapping (address => bool) public isRegisteredUser;\n    \n    //     (    )\n    mapping (address => bool) public hasRefLink;\n\n    //   \n    mapping (address => address) public referralToReferrer;\n\n    //    \n    mapping (address => address[]) public referrerToReferrals;\n    \n    //    \n    mapping (address => bool) public hasReferrer;\n    \n    //     \n    mapping (address => string) public userToRefLink;\n    \n    //     -    \n    mapping (bytes32 => address) public refLinkToUser;\n    \n    //   (  )  \n    mapping (bytes32 => bool) public refLinkExists;\n    \n    //       \n    mapping (address => uint) public newUserToCounter;\n    \n    //  \n    uint public uniqueUsersCount;\n\n    //      (10000)\n    uint public maxPaintsInPool;\n\n    // \n    uint public currentRound;\n\n    //  \n    uint public tbIteration;\n\n    //  \n    uint public cbIteration;\n\n    //      \n    uint public paintsCounter; \n\n    //Time Bank Iteration => Painter => Painter's Share in Time Team\n    mapping (uint => mapping (address => uint)) public timeBankShare;\n\n    //Color Bank Iteration => Color => Painter => Painter's Share in Time Team\n    mapping (uint => mapping (uint => mapping (address => uint))) public colorBankShare;\n\n    //      \n    mapping (uint => uint) public paintsCounterForColor; \n\n    //cbIteration =>  \n    mapping (uint => address[]) public cbTeam; \n\n    //tbIteration =>  \n    mapping (uint => address[]) public tbTeam;\n\n     //c => \n    mapping (uint => address) public counterToPainter;\n\n    // => c =>     \n    mapping (uint => mapping (uint => address)) public counterToPainterForColor; \n\n    //cbIteration =>  !should not be public\n    mapping (uint => mapping (address => bool)) public isInCBT; \n\n    //tbIteration =>  !should not be public\n    mapping (uint => mapping (address => bool)) public isInTBT; \n\n    //cbIteration => painter => color bank prize\n    mapping (uint => mapping (address => uint)) public painterToCBP; \n\n    //tbIteration => painter => time bank prize\n    mapping (uint => mapping (address => uint)) public painterToTBP; \n\n    //bIteration =>  \n    mapping (uint => bool) public isCBPTransfered;\n\n    //tbIteration =>  \n    mapping (uint => bool) public isTBPTransfered;\n\n    //      \n    mapping (address => uint) public lastPlayedRound;\n    \n    //Dividends Distribution\n    mapping (uint => address) public ownerOfColor;\n\n     //    (     )\n    mapping (address => uint) public withdrawalBalances; \n    \n    //          ( => )\n    mapping (address => uint) addressToLastWithdrawalTime; \n    \n    //  \n    uint public dividendsBank;\n\n    struct Claim {\n        uint id;\n        address claimer;\n        bool isResolved;\n        uint timestamp;\n    }\n\n    uint public claimId;\n\n    Claim[] public claims;\n\n    //      claimDividens()\n    //          : withdrawalBalances[ownerOf(_pixel)], withdrawalBalances[ownerOf(_color)]\n    address public ownerOfPixel = 0xca35b7d915458ef540ade6068dfe2f44e8fa733c;\n    address public founders = 0x3e4d187df7d8a0820eaf4174d17b160157610912;\n\n    bool public isGamePaused;\n    //todo - internal\n    bool public isCBPDistributable;\n    bool public isTBPDistributable;\n    \n    mapping(address => bool) public isAdmin;\n\n   // Events\n\n    event CBPDistributed(uint indexed round, uint indexed cbIteration, address winner);\n    event DividendsWithdrawn(address indexed withdrawer, uint indexed claimId, uint indexed amount);\n    event DividendsClaimed(address indexed claimer, uint indexed claimId, uint indexed currentTime);\n    event Paint(uint indexed pixelId, uint colorId, address indexed painter, uint indexed round, uint timestamp);\n    event ColorBankPlayed(address winner, uint indexed round);\n    event TimeBankPlayed(address winner, uint indexed round);\n    event CallPriceUpdated(uint indexed newCallPrice);\n    event TBPDistributed(uint indexed round, uint indexed tbIteration, address winner);\n\n}",
  "sourcePath": "/Users/Amir/last-pixel-contracts/contracts/StorageV1.sol",
  "compiler": {
    "name": "solc",
    "version": "0.4.24+commit.e67f0147.Emscripten.clang"
  },
  "schemaVersion": "2.0.1",
  "updatedAt": "2019-01-11T12:23:25.895Z"
}