{
  "contractName": "TimeBankDistributor",
  "abi": [
    {
      "constant": true,
      "inputs": [
        {
          "name": "",
          "type": "uint256"
        },
        {
          "name": "",
          "type": "address"
        }
      ],
      "name": "addressToTimeBankPrizeForRound",
      "outputs": [
        {
          "name": "",
          "type": "uint256"
        }
      ],
      "payable": false,
      "stateMutability": "view",
      "type": "function"
    },
    {
      "constant": true,
      "inputs": [
        {
          "name": "",
          "type": "address"
        }
      ],
      "name": "addressToTimeBankPrizeTotal",
      "outputs": [
        {
          "name": "",
          "type": "uint256"
        }
      ],
      "payable": false,
      "stateMutability": "view",
      "type": "function"
    },
    {
      "constant": true,
      "inputs": [
        {
          "name": "",
          "type": "uint256"
        },
        {
          "name": "",
          "type": "uint256"
        }
      ],
      "name": "colorToTotalPaintsForRound",
      "outputs": [
        {
          "name": "",
          "type": "uint256"
        }
      ],
      "payable": false,
      "stateMutability": "view",
      "type": "function"
    },
    {
      "constant": true,
      "inputs": [
        {
          "name": "",
          "type": "uint256"
        },
        {
          "name": "",
          "type": "uint256"
        }
      ],
      "name": "colorToPaintedPixelsAmountForRound",
      "outputs": [
        {
          "name": "",
          "type": "uint256"
        }
      ],
      "payable": false,
      "stateMutability": "view",
      "type": "function"
    },
    {
      "constant": true,
      "inputs": [
        {
          "name": "",
          "type": "uint256"
        }
      ],
      "name": "winnerOfRound",
      "outputs": [
        {
          "name": "",
          "type": "address"
        }
      ],
      "payable": false,
      "stateMutability": "view",
      "type": "function"
    },
    {
      "constant": true,
      "inputs": [
        {
          "name": "",
          "type": "uint256"
        },
        {
          "name": "",
          "type": "uint256"
        },
        {
          "name": "",
          "type": "address"
        }
      ],
      "name": "colorToAddressToTotalCounterForRound",
      "outputs": [
        {
          "name": "",
          "type": "uint256"
        }
      ],
      "payable": false,
      "stateMutability": "view",
      "type": "function"
    },
    {
      "constant": true,
      "inputs": [
        {
          "name": "",
          "type": "uint256"
        }
      ],
      "name": "teamStartedTimeForRound",
      "outputs": [
        {
          "name": "",
          "type": "uint256"
        }
      ],
      "payable": false,
      "stateMutability": "view",
      "type": "function"
    },
    {
      "constant": true,
      "inputs": [
        {
          "name": "",
          "type": "address"
        }
      ],
      "name": "lastPlayedRound",
      "outputs": [
        {
          "name": "",
          "type": "uint256"
        }
      ],
      "payable": false,
      "stateMutability": "view",
      "type": "function"
    },
    {
      "constant": true,
      "inputs": [
        {
          "name": "",
          "type": "uint256"
        }
      ],
      "name": "winnerBankForRound",
      "outputs": [
        {
          "name": "",
          "type": "uint256"
        }
      ],
      "payable": false,
      "stateMutability": "view",
      "type": "function"
    },
    {
      "constant": true,
      "inputs": [
        {
          "name": "",
          "type": "uint256"
        },
        {
          "name": "",
          "type": "uint256"
        }
      ],
      "name": "pixelToOldColorForRound",
      "outputs": [
        {
          "name": "",
          "type": "uint256"
        }
      ],
      "payable": false,
      "stateMutability": "view",
      "type": "function"
    },
    {
      "constant": true,
      "inputs": [
        {
          "name": "",
          "type": "uint256"
        }
      ],
      "name": "timeBankForRound",
      "outputs": [
        {
          "name": "",
          "type": "uint256"
        }
      ],
      "payable": false,
      "stateMutability": "view",
      "type": "function"
    },
    {
      "constant": true,
      "inputs": [
        {
          "name": "",
          "type": "uint256"
        }
      ],
      "name": "teamEndedTimeForRound",
      "outputs": [
        {
          "name": "",
          "type": "uint256"
        }
      ],
      "payable": false,
      "stateMutability": "view",
      "type": "function"
    },
    {
      "constant": true,
      "inputs": [
        {
          "name": "",
          "type": "uint256"
        },
        {
          "name": "",
          "type": "address"
        },
        {
          "name": "",
          "type": "uint256"
        }
      ],
      "name": "addressToCounterToTimestampForRound",
      "outputs": [
        {
          "name": "",
          "type": "uint256"
        }
      ],
      "payable": false,
      "stateMutability": "view",
      "type": "function"
    },
    {
      "constant": true,
      "inputs": [
        {
          "name": "",
          "type": "uint256"
        }
      ],
      "name": "lastPaintTimeForRound",
      "outputs": [
        {
          "name": "",
          "type": "uint256"
        }
      ],
      "payable": false,
      "stateMutability": "view",
      "type": "function"
    },
    {
      "constant": true,
      "inputs": [
        {
          "name": "",
          "type": "uint256"
        }
      ],
      "name": "lastPainterForRound",
      "outputs": [
        {
          "name": "",
          "type": "address"
        }
      ],
      "payable": false,
      "stateMutability": "view",
      "type": "function"
    },
    {
      "constant": true,
      "inputs": [],
      "name": "currentRound",
      "outputs": [
        {
          "name": "",
          "type": "uint256"
        }
      ],
      "payable": false,
      "stateMutability": "view",
      "type": "function"
    },
    {
      "constant": true,
      "inputs": [
        {
          "name": "",
          "type": "uint256"
        },
        {
          "name": "",
          "type": "uint256"
        }
      ],
      "name": "colorBankToColorForRound",
      "outputs": [
        {
          "name": "",
          "type": "uint256"
        }
      ],
      "payable": false,
      "stateMutability": "view",
      "type": "function"
    },
    {
      "constant": true,
      "inputs": [
        {
          "name": "",
          "type": "uint256"
        },
        {
          "name": "",
          "type": "address"
        }
      ],
      "name": "addressToColorBankPrizeForRound",
      "outputs": [
        {
          "name": "",
          "type": "uint256"
        }
      ],
      "payable": false,
      "stateMutability": "view",
      "type": "function"
    },
    {
      "constant": true,
      "inputs": [
        {
          "name": "",
          "type": "uint256"
        },
        {
          "name": "",
          "type": "address"
        }
      ],
      "name": "addressToTotalCounterForRound",
      "outputs": [
        {
          "name": "",
          "type": "uint256"
        }
      ],
      "payable": false,
      "stateMutability": "view",
      "type": "function"
    },
    {
      "constant": true,
      "inputs": [
        {
          "name": "",
          "type": "uint256"
        },
        {
          "name": "",
          "type": "address"
        },
        {
          "name": "",
          "type": "uint256"
        },
        {
          "name": "",
          "type": "uint256"
        }
      ],
      "name": "addressToColorToCounterToTimestampForRound",
      "outputs": [
        {
          "name": "",
          "type": "uint256"
        }
      ],
      "payable": false,
      "stateMutability": "view",
      "type": "function"
    },
    {
      "constant": true,
      "inputs": [
        {
          "name": "",
          "type": "uint256"
        },
        {
          "name": "",
          "type": "uint256"
        }
      ],
      "name": "pixelToColorForRound",
      "outputs": [
        {
          "name": "",
          "type": "uint256"
        }
      ],
      "payable": false,
      "stateMutability": "view",
      "type": "function"
    },
    {
      "constant": true,
      "inputs": [
        {
          "name": "",
          "type": "uint256"
        }
      ],
      "name": "totalPaintsForRound",
      "outputs": [
        {
          "name": "",
          "type": "uint256"
        }
      ],
      "payable": false,
      "stateMutability": "view",
      "type": "function"
    },
    {
      "constant": true,
      "inputs": [
        {
          "name": "",
          "type": "uint256"
        }
      ],
      "name": "colorBankForRound",
      "outputs": [
        {
          "name": "",
          "type": "uint256"
        }
      ],
      "payable": false,
      "stateMutability": "view",
      "type": "function"
    },
    {
      "constant": true,
      "inputs": [
        {
          "name": "",
          "type": "address"
        },
        {
          "name": "",
          "type": "uint256"
        }
      ],
      "name": "isPrizeDistributedForRound",
      "outputs": [
        {
          "name": "",
          "type": "bool"
        }
      ],
      "payable": false,
      "stateMutability": "view",
      "type": "function"
    },
    {
      "constant": true,
      "inputs": [
        {
          "name": "",
          "type": "uint256"
        }
      ],
      "name": "winnerColorForRound",
      "outputs": [
        {
          "name": "",
          "type": "uint256"
        }
      ],
      "payable": false,
      "stateMutability": "view",
      "type": "function"
    },
    {
      "anonymous": false,
      "inputs": [
        {
          "indexed": true,
          "name": "winner",
          "type": "address"
        },
        {
          "indexed": true,
          "name": "currentRound",
          "type": "uint256"
        }
      ],
      "name": "TimeBankPlayed",
      "type": "event"
    },
    {
      "anonymous": false,
      "inputs": [
        {
          "indexed": true,
          "name": "winner",
          "type": "address"
        },
        {
          "indexed": true,
          "name": "round",
          "type": "uint256"
        },
        {
          "indexed": true,
          "name": "amount",
          "type": "uint256"
        }
      ],
      "name": "TimeBankPrizeDistributed",
      "type": "event"
    },
    {
      "constant": false,
      "inputs": [],
      "name": "claimTimeBankPrizeForLastPlayedRound",
      "outputs": [],
      "payable": false,
      "stateMutability": "nonpayable",
      "type": "function"
    }
  ],
  "bytecode": "0x608060405234801561001057600080fd5b506112a5806100206000396000f300608060405260043610610154576000357c0100000000000000000000000000000000000000000000000000000000900463ffffffff16806306937b4714610159578063084028eb146101ba5780630ba36221146102115780630cf9603f1461025c578063102f9713146102a7578063187aae8e1461031457806323a43a8e1461037f57806328b290f9146103c05780633d0d1a79146104175780634b39173d146104585780634c78e401146104a357806355457fc1146104e457806361433c5b1461052557806373a9ee261461059057806379ecf376146105d15780638a19c8bc1461063e578063a312072414610669578063a645867e146106b4578063ab94b58414610715578063ae2d2b6014610776578063b66e5e9e146107eb578063b8232d5d14610802578063be7d62261461084d578063c64a2e561461088e578063d7be6332146108cf578063f49916f514610934575b600080fd5b34801561016557600080fd5b506101a460048036038101908080359060200190929190803573ffffffffffffffffffffffffffffffffffffffff169060200190929190505050610975565b6040518082815260200191505060405180910390f35b3480156101c657600080fd5b506101fb600480360381019080803573ffffffffffffffffffffffffffffffffffffffff16906020019092919050505061099a565b6040518082815260200191505060405180910390f35b34801561021d57600080fd5b5061024660048036038101908080359060200190929190803590602001909291905050506109b2565b6040518082815260200191505060405180910390f35b34801561026857600080fd5b5061029160048036038101908080359060200190929190803590602001909291905050506109d7565b6040518082815260200191505060405180910390f35b3480156102b357600080fd5b506102d2600480360381019080803590602001909291905050506109fc565b604051808273ffffffffffffffffffffffffffffffffffffffff1673ffffffffffffffffffffffffffffffffffffffff16815260200191505060405180910390f35b34801561032057600080fd5b506103696004803603810190808035906020019092919080359060200190929190803573ffffffffffffffffffffffffffffffffffffffff169060200190929190505050610a2f565b6040518082815260200191505060405180910390f35b34801561038b57600080fd5b506103aa60048036038101908080359060200190929190505050610a61565b6040518082815260200191505060405180910390f35b3480156103cc57600080fd5b50610401600480360381019080803573ffffffffffffffffffffffffffffffffffffffff169060200190929190505050610a79565b6040518082815260200191505060405180910390f35b34801561042357600080fd5b5061044260048036038101908080359060200190929190505050610a91565b6040518082815260200191505060405180910390f35b34801561046457600080fd5b5061048d6004803603810190808035906020019092919080359060200190929190505050610aa9565b6040518082815260200191505060405180910390f35b3480156104af57600080fd5b506104ce60048036038101908080359060200190929190505050610ace565b6040518082815260200191505060405180910390f35b3480156104f057600080fd5b5061050f60048036038101908080359060200190929190505050610ae6565b6040518082815260200191505060405180910390f35b34801561053157600080fd5b5061057a60048036038101908080359060200190929190803573ffffffffffffffffffffffffffffffffffffffff16906020019092919080359060200190929190505050610afe565b6040518082815260200191505060405180910390f35b34801561059c57600080fd5b506105bb60048036038101908080359060200190929190505050610b30565b6040518082815260200191505060405180910390f35b3480156105dd57600080fd5b506105fc60048036038101908080359060200190929190505050610b48565b604051808273ffffffffffffffffffffffffffffffffffffffff1673ffffffffffffffffffffffffffffffffffffffff16815260200191505060405180910390f35b34801561064a57600080fd5b50610653610b7b565b6040518082815260200191505060405180910390f35b34801561067557600080fd5b5061069e6004803603810190808035906020019092919080359060200190929190505050610b81565b6040518082815260200191505060405180910390f35b3480156106c057600080fd5b506106ff60048036038101908080359060200190929190803573ffffffffffffffffffffffffffffffffffffffff169060200190929190505050610ba6565b6040518082815260200191505060405180910390f35b34801561072157600080fd5b5061076060048036038101908080359060200190929190803573ffffffffffffffffffffffffffffffffffffffff169060200190929190505050610bcb565b6040518082815260200191505060405180910390f35b34801561078257600080fd5b506107d560048036038101908080359060200190929190803573ffffffffffffffffffffffffffffffffffffffff1690602001909291908035906020019092919080359060200190929190505050610bf0565b6040518082815260200191505060405180910390f35b3480156107f757600080fd5b50610800610c2f565b005b34801561080e57600080fd5b506108376004803603810190808035906020019092919080359060200190929190505050611175565b6040518082815260200191505060405180910390f35b34801561085957600080fd5b506108786004803603810190808035906020019092919050505061119a565b6040518082815260200191505060405180910390f35b34801561089a57600080fd5b506108b9600480360381019080803590602001909291905050506111b2565b6040518082815260200191505060405180910390f35b3480156108db57600080fd5b5061091a600480360381019080803573ffffffffffffffffffffffffffffffffffffffff169060200190929190803590602001909291905050506111ca565b604051808215151515815260200191505060405180910390f35b34801561094057600080fd5b5061095f600480360381019080803590602001909291905050506111f9565b6040518082815260200191505060405180910390f35b6013602052816000526040600020602052806000526040600020600091509150505481565b60186020528060005260406000206000915090505481565b600a602052816000526040600020602052806000526040600020600091509150505481565b6003602052816000526040600020602052806000526040600020600091509150505481565b60146020528060005260406000206000915054906101000a900473ffffffffffffffffffffffffffffffffffffffff1681565b600d60205282600052604060002060205281600052604060002060205280600052604060002060009250925050505481565b600b6020528060005260406000206000915090505481565b60166020528060005260406000206000915090505481565b60156020528060005260406000206000915090505481565b6002602052816000526040600020602052806000526040600020600091509150505481565b60066020528060005260406000206000915090505481565b600c6020528060005260406000206000915090505481565b601060205282600052604060002060205281600052604060002060205280600052604060002060009250925050505481565b60076020528060005260406000206000915090505481565b60086020528060005260406000206000915054906101000a900473ffffffffffffffffffffffffffffffffffffffff1681565b60175481565b6005602052816000526040600020602052806000526040600020600091509150505481565b6012602052816000526040600020602052806000526040600020600091509150505481565b600e602052816000526040600020602052806000526040600020600091509150505481565b600f6020528360005260406000206020528260005260406000206020528160005260406000206020528060005260406000206000935093505050505481565b6000806000806000806000601660003373ffffffffffffffffffffffffffffffffffffffff1673ffffffffffffffffffffffffffffffffffffffff1681526020019081526020016000205496506000601660003373ffffffffffffffffffffffffffffffffffffffff1673ffffffffffffffffffffffffffffffffffffffff16815260200190815260200160002054118015610cde575060016015600089815260200190815260200160002054145b1515610d78576040517f08c379a00000000000000000000000000000000000000000000000000000000081526004018080602001828103825260318152602001807f42616e6b206f662074696d6520776173206e6f7420706c6179656420696e207981526020017f6f7572206c61737420726f756e642e2e2e00000000000000000000000000000081525060400191505060405180910390fd5b600c6000888152602001908152602001600020549550600b6000888152602001908152602001600020549450600e600088815260200190815260200160002060003373ffffffffffffffffffffffffffffffffffffffff1673ffffffffffffffffffffffffffffffffffffffff1681526020019081526020016000205492508291505b6000821115610e93576010600088815260200190815260200160002060003373ffffffffffffffffffffffffffffffffffffffff1673ffffffffffffffffffffffffffffffffffffffff16815260200190815260200160002060008381526020019081526020016000205490508481118015610e775750858111155b15610e855783806001019450505b818060019003925050610dfb565b610edd60008089815260200190815260200160002054610ecf600660008b8152602001908152602001600020548761121190919063ffffffff16565b61124f90919063ffffffff16565b6013600089815260200190815260200160002060003373ffffffffffffffffffffffffffffffffffffffff1673ffffffffffffffffffffffffffffffffffffffff168152602001908152602001600020600082825401925050819055506013600088815260200190815260200160002060003373ffffffffffffffffffffffffffffffffffffffff1673ffffffffffffffffffffffffffffffffffffffff16815260200190815260200160002054601860003373ffffffffffffffffffffffffffffffffffffffff1673ffffffffffffffffffffffffffffffffffffffff168152602001908152602001600020600082825401925050819055503373ffffffffffffffffffffffffffffffffffffffff166108fc601360008a815260200190815260200160002060003373ffffffffffffffffffffffffffffffffffffffff1673ffffffffffffffffffffffffffffffffffffffff168152602001908152602001600020549081150290604051600060405180830381858888f1935050505015801561106d573d6000803e3d6000fd5b506001601160003373ffffffffffffffffffffffffffffffffffffffff1673ffffffffffffffffffffffffffffffffffffffff168152602001908152602001600020600089815260200190815260200160002060006101000a81548160ff0219169083151502179055506012600088815260200190815260200160002060003373ffffffffffffffffffffffffffffffffffffffff1673ffffffffffffffffffffffffffffffffffffffff16815260200190815260200160002054873373ffffffffffffffffffffffffffffffffffffffff167f8981f49dce2918fc89fa176fbbd90d8546f51779930f7b458ca6a0d4856f878c60405160405180910390a450505050505050565b6001602052816000526040600020602052806000526040600020600091509150505481565b60006020528060005260406000206000915090505481565b60046020528060005260406000206000915090505481565b60116020528160005260406000206020528060005260406000206000915091509054906101000a900460ff1681565b60096020528060005260406000206000915090505481565b60008060008414156112265760009150611248565b828402905082848281151561123757fe5b0414151561124457600080fd5b8091505b5092915050565b60008060008311151561126157600080fd5b828481151561126c57fe5b04905080915050929150505600a165627a7a72305820e381a9d70f9d7f89d79754b47f3e95db02457e7a65d518e4e089213dda6eb24f0029",
  "source": "pragma solidity ^0.4.24;\n\nimport \"./RoundDataHolder.sol\";\n\ncontract TimeBankDistributor is RoundDataHolder {\n    \n    using SafeMath for uint;\n    \n    //сколько всего банка времени выиграл адрес (в сумме за все время) (адрес => сумма общего выигрыша)\n    mapping(address => uint) public addressToTimeBankPrizeTotal; \n\n    \n    event TimeBankPlayed(address indexed winner, uint indexed currentRound);\n    event TimeBankPrizeDistributed(address indexed winner, uint indexed round, uint indexed amount);\n    \n    //запросить приз банка времени за послений раунд в котором пользователь принимал участие\n    function claimTimeBankPrizeForLastPlayedRound() public { \n\n        //последний раунд в котором пользователь принимал участие\n        uint round = lastPlayedRound[msg.sender];\n\n        //функция может быть вызвана только если в последнем раунде был разыгран банк времени\n        require(lastPlayedRound[msg.sender] > 0 && winnerBankForRound[round] == 1, \"Bank of time was not played in your last round...\");\n\n        //время завершения сбора команды приза для раунда\n        uint end = teamEndedTimeForRound[round];\n\n        //время начала сбора команды приза для раунда\n        uint start = teamStartedTimeForRound[round];\n\n        //cчетчик количества закрашиваний\n        uint counter;\n        \n        //счетчик общего количества закрашиваний любым цветом для пользователя за раунд     \n        uint total = addressToTotalCounterForRound[round][msg.sender]; \n\n        //считаем сколько закрашиваний любым цветом произвел пользователь за последние 24 часа\n        for (uint i = total; i > 0; i--) {\n            uint timeStamp = addressToCounterToTimestampForRound[round][msg.sender][i];\n            if (timeStamp > start && timeStamp <= end) //т.к. (<= end), то последний закрасивший также принимает участие\n                counter++;\n        }\n        \n        //устанавливаем какую часть от банка времени выиграл адрес за последний раунд в котором принимал участие\n        addressToTimeBankPrizeForRound[round][msg.sender] += counter.mul(timeBankForRound[round]).div(totalPaintsForRound[round]);\n\n        //добавляем полученное значение в сумму выигрышей банка времени пользователем за все время\n        addressToTimeBankPrizeTotal[msg.sender] += addressToTimeBankPrizeForRound[round][msg.sender];\n        \n        //переводим пользователю его выигрыш за последний раунд в котором он принимал участие\n        msg.sender.transfer(addressToTimeBankPrizeForRound[round][msg.sender]);\n\n        //устанавливаем булевое значение о том, что пользователь получил свой приз за раунд\n        isPrizeDistributedForRound[msg.sender][round] = true;\n\n        //вызываем ивент - о том, что приз банка времени распределен пользователю (адрес, раунд, выигрыщ)\n        emit TimeBankPrizeDistributed(msg.sender, round, addressToColorBankPrizeForRound[round][msg.sender]);\n    }\n    \n    //функция распределения банка времени\n    function _distributeTimeBank() internal  {\n\n        //начало сбора команды раунда (24 часа назад)\n        teamStartedTimeForRound[currentRound] = now - 24 hours;\n\n        //время завершения сбора команды раунда (сейчас)\n        teamEndedTimeForRound[currentRound] = now;\n\n        //победитель текущего раунда - последний закрасивший пиксель пользователь за этот раунд\n        winnerOfRound[currentRound] = lastPainterForRound[currentRound];\n        \n         //Checks-Effects-Interactions pattern\n        uint amountToTransfer = timeBankForRound[currentRound].mul(45).div(100);\n\n        //переводим 45% банка времени победителю текущего раунда\n        winnerOfRound[currentRound].transfer(amountToTransfer);\n                \n        //разыгранный банк этого раунда = банк времени (1)\n        winnerBankForRound[currentRound] = 1; \n\n        //10% банка времени переходит в следующий раунд\n        timeBankForRound[currentRound + 1] = timeBankForRound[currentRound].div(10); \n        \n        //45% банка времени распределится между всей командой участников раунда\n        timeBankForRound[currentRound] = timeBankForRound[currentRound].mul(45).div(100); \n\n        //банк цвета переносится на следующий раунд\n        colorBankForRound[currentRound + 1] = colorBankForRound[currentRound]; \n\n        //в этом раунде банк цвета обнуляется\n        colorBankForRound[currentRound] = 0; \n\n        //возвращаем средства пользователя назад, так как этот раунд завершен и закрашивание не засчиталось\n        msg.sender.transfer(msg.value); \n\n        //ивент - был разыгран банк времени (победитель, раунд)\n        emit TimeBankPlayed(winnerOfRound[currentRound], currentRound);\n        \n        //следующий раунд\n        currentRound = currentRound.add(1); \n    }\n}",
  "sourcePath": "/Users/Amir/last-pixel-contracts/contracts/TimeBankDistributor.sol",
  "compiler": {
    "name": "solc",
    "version": "0.4.24+commit.e67f0147.Emscripten.clang"
  },
  "schemaVersion": "2.0.1",
  "updatedAt": "2018-12-07T04:37:56.848Z"
}