{
  "contractName": "TimeTeam",
  "abi": [
    {
      "constant": true,
      "inputs": [],
      "name": "isGamePaused",
      "outputs": [
        {
          "name": "",
          "type": "bool"
        }
      ],
      "payable": false,
      "stateMutability": "view",
      "type": "function"
    },
    {
      "constant": true,
      "inputs": [
        {
          "name": "",
          "type": "uint256"
        },
        {
          "name": "",
          "type": "address"
        }
      ],
      "name": "isInTBT",
      "outputs": [
        {
          "name": "",
          "type": "bool"
        }
      ],
      "payable": false,
      "stateMutability": "view",
      "type": "function"
    },
    {
      "constant": true,
      "inputs": [
        {
          "name": "",
          "type": "bytes32"
        }
      ],
      "name": "refLinkToUser",
      "outputs": [
        {
          "name": "",
          "type": "address"
        }
      ],
      "payable": false,
      "stateMutability": "view",
      "type": "function"
    },
    {
      "constant": true,
      "inputs": [
        {
          "name": "",
          "type": "uint256"
        }
      ],
      "name": "ownerOfColor",
      "outputs": [
        {
          "name": "",
          "type": "address"
        }
      ],
      "payable": false,
      "stateMutability": "view",
      "type": "function"
    },
    {
      "constant": true,
      "inputs": [
        {
          "name": "",
          "type": "uint256"
        },
        {
          "name": "",
          "type": "uint256"
        }
      ],
      "name": "colorToPaintedPixelsAmountForRound",
      "outputs": [
        {
          "name": "",
          "type": "uint256"
        }
      ],
      "payable": false,
      "stateMutability": "view",
      "type": "function"
    },
    {
      "constant": true,
      "inputs": [],
      "name": "tbIteration",
      "outputs": [
        {
          "name": "",
          "type": "uint256"
        }
      ],
      "payable": false,
      "stateMutability": "view",
      "type": "function"
    },
    {
      "constant": true,
      "inputs": [
        {
          "name": "",
          "type": "uint256"
        }
      ],
      "name": "winnerOfRound",
      "outputs": [
        {
          "name": "",
          "type": "address"
        }
      ],
      "payable": false,
      "stateMutability": "view",
      "type": "function"
    },
    {
      "constant": true,
      "inputs": [
        {
          "name": "",
          "type": "address"
        }
      ],
      "name": "hasReferrer",
      "outputs": [
        {
          "name": "",
          "type": "bool"
        }
      ],
      "payable": false,
      "stateMutability": "view",
      "type": "function"
    },
    {
      "constant": true,
      "inputs": [
        {
          "name": "",
          "type": "uint256"
        },
        {
          "name": "",
          "type": "uint256"
        }
      ],
      "name": "colorToTotalPaintsForCBIteration",
      "outputs": [
        {
          "name": "",
          "type": "uint256"
        }
      ],
      "payable": false,
      "stateMutability": "view",
      "type": "function"
    },
    {
      "constant": true,
      "inputs": [
        {
          "name": "",
          "type": "address"
        }
      ],
      "name": "isRegisteredUser",
      "outputs": [
        {
          "name": "",
          "type": "bool"
        }
      ],
      "payable": false,
      "stateMutability": "view",
      "type": "function"
    },
    {
      "constant": true,
      "inputs": [
        {
          "name": "",
          "type": "uint256"
        },
        {
          "name": "",
          "type": "address"
        }
      ],
      "name": "hasPaintDiscountForColor",
      "outputs": [
        {
          "name": "",
          "type": "bool"
        }
      ],
      "payable": false,
      "stateMutability": "view",
      "type": "function"
    },
    {
      "constant": true,
      "inputs": [],
      "name": "isTBPDistributable",
      "outputs": [
        {
          "name": "",
          "type": "bool"
        }
      ],
      "payable": false,
      "stateMutability": "view",
      "type": "function"
    },
    {
      "constant": true,
      "inputs": [
        {
          "name": "",
          "type": "address"
        }
      ],
      "name": "isAdmin",
      "outputs": [
        {
          "name": "",
          "type": "bool"
        }
      ],
      "payable": false,
      "stateMutability": "view",
      "type": "function"
    },
    {
      "constant": true,
      "inputs": [
        {
          "name": "",
          "type": "uint256"
        }
      ],
      "name": "currentPaintGenForColor",
      "outputs": [
        {
          "name": "",
          "type": "uint256"
        }
      ],
      "payable": false,
      "stateMutability": "view",
      "type": "function"
    },
    {
      "constant": true,
      "inputs": [
        {
          "name": "",
          "type": "address"
        }
      ],
      "name": "lastPlayedRound",
      "outputs": [
        {
          "name": "",
          "type": "uint256"
        }
      ],
      "payable": false,
      "stateMutability": "view",
      "type": "function"
    },
    {
      "constant": true,
      "inputs": [
        {
          "name": "",
          "type": "uint256"
        },
        {
          "name": "",
          "type": "address"
        }
      ],
      "name": "moneySpentByUserForColor",
      "outputs": [
        {
          "name": "",
          "type": "uint256"
        }
      ],
      "payable": false,
      "stateMutability": "view",
      "type": "function"
    },
    {
      "constant": true,
      "inputs": [
        {
          "name": "",
          "type": "uint256"
        },
        {
          "name": "",
          "type": "uint256"
        }
      ],
      "name": "tbTeam",
      "outputs": [
        {
          "name": "",
          "type": "address"
        }
      ],
      "payable": false,
      "stateMutability": "view",
      "type": "function"
    },
    {
      "constant": true,
      "inputs": [
        {
          "name": "",
          "type": "uint256"
        },
        {
          "name": "",
          "type": "address"
        }
      ],
      "name": "painterToTBP",
      "outputs": [
        {
          "name": "",
          "type": "uint256"
        }
      ],
      "payable": false,
      "stateMutability": "view",
      "type": "function"
    },
    {
      "constant": true,
      "inputs": [
        {
          "name": "",
          "type": "uint256"
        },
        {
          "name": "",
          "type": "uint256"
        }
      ],
      "name": "paintGenToStartTimeForColor",
      "outputs": [
        {
          "name": "",
          "type": "uint256"
        }
      ],
      "payable": false,
      "stateMutability": "view",
      "type": "function"
    },
    {
      "constant": true,
      "inputs": [
        {
          "name": "",
          "type": "uint256"
        }
      ],
      "name": "callPriceForColor",
      "outputs": [
        {
          "name": "",
          "type": "uint256"
        }
      ],
      "payable": false,
      "stateMutability": "view",
      "type": "function"
    },
    {
      "constant": true,
      "inputs": [
        {
          "name": "",
          "type": "uint256"
        },
        {
          "name": "",
          "type": "address"
        }
      ],
      "name": "painterToCBP",
      "outputs": [
        {
          "name": "",
          "type": "uint256"
        }
      ],
      "payable": false,
      "stateMutability": "view",
      "type": "function"
    },
    {
      "constant": true,
      "inputs": [
        {
          "name": "",
          "type": "uint256"
        }
      ],
      "name": "winnerBankForRound",
      "outputs": [
        {
          "name": "",
          "type": "uint256"
        }
      ],
      "payable": false,
      "stateMutability": "view",
      "type": "function"
    },
    {
      "constant": true,
      "inputs": [],
      "name": "paintsCounter",
      "outputs": [
        {
          "name": "",
          "type": "uint256"
        }
      ],
      "payable": false,
      "stateMutability": "view",
      "type": "function"
    },
    {
      "constant": true,
      "inputs": [],
      "name": "founders",
      "outputs": [
        {
          "name": "",
          "type": "address"
        }
      ],
      "payable": false,
      "stateMutability": "view",
      "type": "function"
    },
    {
      "constant": true,
      "inputs": [
        {
          "name": "",
          "type": "address"
        }
      ],
      "name": "newUserToCounter",
      "outputs": [
        {
          "name": "",
          "type": "uint256"
        }
      ],
      "payable": false,
      "stateMutability": "view",
      "type": "function"
    },
    {
      "constant": true,
      "inputs": [
        {
          "name": "",
          "type": "uint256"
        },
        {
          "name": "",
          "type": "uint256"
        }
      ],
      "name": "counterToPainterForColor",
      "outputs": [
        {
          "name": "",
          "type": "address"
        }
      ],
      "payable": false,
      "stateMutability": "view",
      "type": "function"
    },
    {
      "constant": true,
      "inputs": [
        {
          "name": "",
          "type": "uint256"
        },
        {
          "name": "",
          "type": "uint256"
        }
      ],
      "name": "pixelToOldColorForRound",
      "outputs": [
        {
          "name": "",
          "type": "uint256"
        }
      ],
      "payable": false,
      "stateMutability": "view",
      "type": "function"
    },
    {
      "constant": true,
      "inputs": [
        {
          "name": "",
          "type": "uint256"
        }
      ],
      "name": "isTBPTransfered",
      "outputs": [
        {
          "name": "",
          "type": "bool"
        }
      ],
      "payable": false,
      "stateMutability": "view",
      "type": "function"
    },
    {
      "constant": true,
      "inputs": [
        {
          "name": "",
          "type": "uint256"
        }
      ],
      "name": "timeBankForRound",
      "outputs": [
        {
          "name": "",
          "type": "uint256"
        }
      ],
      "payable": false,
      "stateMutability": "view",
      "type": "function"
    },
    {
      "constant": true,
      "inputs": [
        {
          "name": "",
          "type": "address"
        }
      ],
      "name": "userToRefLink",
      "outputs": [
        {
          "name": "",
          "type": "string"
        }
      ],
      "payable": false,
      "stateMutability": "view",
      "type": "function"
    },
    {
      "constant": true,
      "inputs": [],
      "name": "claimId",
      "outputs": [
        {
          "name": "",
          "type": "uint256"
        }
      ],
      "payable": false,
      "stateMutability": "view",
      "type": "function"
    },
    {
      "constant": true,
      "inputs": [
        {
          "name": "",
          "type": "uint256"
        },
        {
          "name": "",
          "type": "uint256"
        }
      ],
      "name": "cbTeam",
      "outputs": [
        {
          "name": "",
          "type": "address"
        }
      ],
      "payable": false,
      "stateMutability": "view",
      "type": "function"
    },
    {
      "constant": true,
      "inputs": [
        {
          "name": "",
          "type": "uint256"
        },
        {
          "name": "",
          "type": "uint256"
        }
      ],
      "name": "paintGenStartedForColor",
      "outputs": [
        {
          "name": "",
          "type": "bool"
        }
      ],
      "payable": false,
      "stateMutability": "view",
      "type": "function"
    },
    {
      "constant": true,
      "inputs": [
        {
          "name": "",
          "type": "uint256"
        }
      ],
      "name": "lastPaintedPixelForRound",
      "outputs": [
        {
          "name": "",
          "type": "uint256"
        }
      ],
      "payable": false,
      "stateMutability": "view",
      "type": "function"
    },
    {
      "constant": true,
      "inputs": [
        {
          "name": "",
          "type": "uint256"
        }
      ],
      "name": "nextCallPriceForColor",
      "outputs": [
        {
          "name": "",
          "type": "uint256"
        }
      ],
      "payable": false,
      "stateMutability": "view",
      "type": "function"
    },
    {
      "constant": false,
      "inputs": [],
      "name": "renounceOwnership",
      "outputs": [],
      "payable": false,
      "stateMutability": "nonpayable",
      "type": "function"
    },
    {
      "constant": true,
      "inputs": [
        {
          "name": "",
          "type": "uint256"
        }
      ],
      "name": "lastPaintTimeForRound",
      "outputs": [
        {
          "name": "",
          "type": "uint256"
        }
      ],
      "payable": false,
      "stateMutability": "view",
      "type": "function"
    },
    {
      "constant": true,
      "inputs": [],
      "name": "isCBPDistributable",
      "outputs": [
        {
          "name": "",
          "type": "bool"
        }
      ],
      "payable": false,
      "stateMutability": "view",
      "type": "function"
    },
    {
      "constant": true,
      "inputs": [
        {
          "name": "",
          "type": "uint256"
        }
      ],
      "name": "lastPainterForRound",
      "outputs": [
        {
          "name": "",
          "type": "address"
        }
      ],
      "payable": false,
      "stateMutability": "view",
      "type": "function"
    },
    {
      "constant": true,
      "inputs": [
        {
          "name": "",
          "type": "address"
        }
      ],
      "name": "hasRefLink",
      "outputs": [
        {
          "name": "",
          "type": "bool"
        }
      ],
      "payable": false,
      "stateMutability": "view",
      "type": "function"
    },
    {
      "constant": true,
      "inputs": [
        {
          "name": "",
          "type": "address"
        },
        {
          "name": "",
          "type": "uint256"
        }
      ],
      "name": "referrerToReferrals",
      "outputs": [
        {
          "name": "",
          "type": "address"
        }
      ],
      "payable": false,
      "stateMutability": "view",
      "type": "function"
    },
    {
      "constant": true,
      "inputs": [],
      "name": "currentRound",
      "outputs": [
        {
          "name": "",
          "type": "uint256"
        }
      ],
      "payable": false,
      "stateMutability": "view",
      "type": "function"
    },
    {
      "constant": true,
      "inputs": [],
      "name": "owner",
      "outputs": [
        {
          "name": "",
          "type": "address"
        }
      ],
      "payable": false,
      "stateMutability": "view",
      "type": "function"
    },
    {
      "constant": true,
      "inputs": [
        {
          "name": "",
          "type": "uint256"
        }
      ],
      "name": "paintsCounterForColor",
      "outputs": [
        {
          "name": "",
          "type": "uint256"
        }
      ],
      "payable": false,
      "stateMutability": "view",
      "type": "function"
    },
    {
      "constant": true,
      "inputs": [],
      "name": "isOwner",
      "outputs": [
        {
          "name": "",
          "type": "bool"
        }
      ],
      "payable": false,
      "stateMutability": "view",
      "type": "function"
    },
    {
      "constant": true,
      "inputs": [
        {
          "name": "",
          "type": "uint256"
        },
        {
          "name": "",
          "type": "uint256"
        }
      ],
      "name": "pixelToPaintTimeForRound",
      "outputs": [
        {
          "name": "",
          "type": "uint256"
        }
      ],
      "payable": false,
      "stateMutability": "view",
      "type": "function"
    },
    {
      "constant": true,
      "inputs": [
        {
          "name": "",
          "type": "uint256"
        },
        {
          "name": "",
          "type": "uint256"
        }
      ],
      "name": "colorBankToColorForRound",
      "outputs": [
        {
          "name": "",
          "type": "uint256"
        }
      ],
      "payable": false,
      "stateMutability": "view",
      "type": "function"
    },
    {
      "constant": true,
      "inputs": [
        {
          "name": "",
          "type": "uint256"
        }
      ],
      "name": "claims",
      "outputs": [
        {
          "name": "id",
          "type": "uint256"
        },
        {
          "name": "claimer",
          "type": "address"
        },
        {
          "name": "isResolved",
          "type": "bool"
        },
        {
          "name": "timestamp",
          "type": "uint256"
        }
      ],
      "payable": false,
      "stateMutability": "view",
      "type": "function"
    },
    {
      "constant": true,
      "inputs": [],
      "name": "ownerOfPixel",
      "outputs": [
        {
          "name": "",
          "type": "address"
        }
      ],
      "payable": false,
      "stateMutability": "view",
      "type": "function"
    },
    {
      "constant": true,
      "inputs": [
        {
          "name": "",
          "type": "uint256"
        },
        {
          "name": "",
          "type": "address"
        }
      ],
      "name": "isInCBT",
      "outputs": [
        {
          "name": "",
          "type": "bool"
        }
      ],
      "payable": false,
      "stateMutability": "view",
      "type": "function"
    },
    {
      "constant": true,
      "inputs": [
        {
          "name": "",
          "type": "uint256"
        }
      ],
      "name": "counterToPainter",
      "outputs": [
        {
          "name": "",
          "type": "address"
        }
      ],
      "payable": false,
      "stateMutability": "view",
      "type": "function"
    },
    {
      "constant": true,
      "inputs": [
        {
          "name": "",
          "type": "uint256"
        },
        {
          "name": "",
          "type": "address"
        }
      ],
      "name": "timeBankShare",
      "outputs": [
        {
          "name": "",
          "type": "uint256"
        }
      ],
      "payable": false,
      "stateMutability": "view",
      "type": "function"
    },
    {
      "constant": true,
      "inputs": [
        {
          "name": "",
          "type": "uint256"
        },
        {
          "name": "",
          "type": "uint256"
        },
        {
          "name": "",
          "type": "address"
        }
      ],
      "name": "colorBankShare",
      "outputs": [
        {
          "name": "",
          "type": "uint256"
        }
      ],
      "payable": false,
      "stateMutability": "view",
      "type": "function"
    },
    {
      "constant": true,
      "inputs": [
        {
          "name": "",
          "type": "uint256"
        },
        {
          "name": "",
          "type": "uint256"
        }
      ],
      "name": "pixelToColorForRound",
      "outputs": [
        {
          "name": "",
          "type": "uint256"
        }
      ],
      "payable": false,
      "stateMutability": "view",
      "type": "function"
    },
    {
      "constant": true,
      "inputs": [
        {
          "name": "",
          "type": "uint256"
        }
      ],
      "name": "totalPaintsForRound",
      "outputs": [
        {
          "name": "",
          "type": "uint256"
        }
      ],
      "payable": false,
      "stateMutability": "view",
      "type": "function"
    },
    {
      "constant": true,
      "inputs": [
        {
          "name": "",
          "type": "uint256"
        }
      ],
      "name": "colorBankForRound",
      "outputs": [
        {
          "name": "",
          "type": "uint256"
        }
      ],
      "payable": false,
      "stateMutability": "view",
      "type": "function"
    },
    {
      "constant": true,
      "inputs": [
        {
          "name": "",
          "type": "uint256"
        },
        {
          "name": "",
          "type": "uint256"
        }
      ],
      "name": "paintGenToEndTimeForColor",
      "outputs": [
        {
          "name": "",
          "type": "uint256"
        }
      ],
      "payable": false,
      "stateMutability": "view",
      "type": "function"
    },
    {
      "constant": true,
      "inputs": [],
      "name": "uniqueUsersCount",
      "outputs": [
        {
          "name": "",
          "type": "uint256"
        }
      ],
      "payable": false,
      "stateMutability": "view",
      "type": "function"
    },
    {
      "constant": true,
      "inputs": [
        {
          "name": "",
          "type": "bytes32"
        }
      ],
      "name": "refLinkExists",
      "outputs": [
        {
          "name": "",
          "type": "bool"
        }
      ],
      "payable": false,
      "stateMutability": "view",
      "type": "function"
    },
    {
      "constant": true,
      "inputs": [
        {
          "name": "",
          "type": "uint256"
        },
        {
          "name": "",
          "type": "uint256"
        }
      ],
      "name": "paintGenToAmountForColor",
      "outputs": [
        {
          "name": "",
          "type": "uint256"
        }
      ],
      "payable": false,
      "stateMutability": "view",
      "type": "function"
    },
    {
      "constant": true,
      "inputs": [
        {
          "name": "",
          "type": "uint256"
        }
      ],
      "name": "isCBPTransfered",
      "outputs": [
        {
          "name": "",
          "type": "bool"
        }
      ],
      "payable": false,
      "stateMutability": "view",
      "type": "function"
    },
    {
      "constant": true,
      "inputs": [
        {
          "name": "",
          "type": "address"
        }
      ],
      "name": "referralToReferrer",
      "outputs": [
        {
          "name": "",
          "type": "address"
        }
      ],
      "payable": false,
      "stateMutability": "view",
      "type": "function"
    },
    {
      "constant": true,
      "inputs": [
        {
          "name": "",
          "type": "uint256"
        },
        {
          "name": "",
          "type": "address"
        }
      ],
      "name": "usersPaintDiscountForColor",
      "outputs": [
        {
          "name": "",
          "type": "uint256"
        }
      ],
      "payable": false,
      "stateMutability": "view",
      "type": "function"
    },
    {
      "constant": true,
      "inputs": [],
      "name": "maxPaintsInPool",
      "outputs": [
        {
          "name": "",
          "type": "uint256"
        }
      ],
      "payable": false,
      "stateMutability": "view",
      "type": "function"
    },
    {
      "constant": false,
      "inputs": [
        {
          "name": "newOwner",
          "type": "address"
        }
      ],
      "name": "transferOwnership",
      "outputs": [],
      "payable": false,
      "stateMutability": "nonpayable",
      "type": "function"
    },
    {
      "constant": true,
      "inputs": [
        {
          "name": "",
          "type": "uint256"
        }
      ],
      "name": "winnerColorForRound",
      "outputs": [
        {
          "name": "",
          "type": "uint256"
        }
      ],
      "payable": false,
      "stateMutability": "view",
      "type": "function"
    },
    {
      "constant": true,
      "inputs": [],
      "name": "dividendsBank",
      "outputs": [
        {
          "name": "",
          "type": "uint256"
        }
      ],
      "payable": false,
      "stateMutability": "view",
      "type": "function"
    },
    {
      "constant": true,
      "inputs": [
        {
          "name": "",
          "type": "address"
        }
      ],
      "name": "withdrawalBalances",
      "outputs": [
        {
          "name": "",
          "type": "uint256"
        }
      ],
      "payable": false,
      "stateMutability": "view",
      "type": "function"
    },
    {
      "constant": true,
      "inputs": [],
      "name": "cbIteration",
      "outputs": [
        {
          "name": "",
          "type": "uint256"
        }
      ],
      "payable": false,
      "stateMutability": "view",
      "type": "function"
    },
    {
      "anonymous": false,
      "inputs": [
        {
          "indexed": true,
          "name": "round",
          "type": "uint256"
        },
        {
          "indexed": true,
          "name": "cbIteration",
          "type": "uint256"
        },
        {
          "indexed": false,
          "name": "winner",
          "type": "address"
        }
      ],
      "name": "CBPDistributed",
      "type": "event"
    },
    {
      "anonymous": false,
      "inputs": [
        {
          "indexed": true,
          "name": "withdrawer",
          "type": "address"
        },
        {
          "indexed": true,
          "name": "claimId",
          "type": "uint256"
        },
        {
          "indexed": true,
          "name": "amount",
          "type": "uint256"
        }
      ],
      "name": "DividendsWithdrawn",
      "type": "event"
    },
    {
      "anonymous": false,
      "inputs": [
        {
          "indexed": true,
          "name": "claimer",
          "type": "address"
        },
        {
          "indexed": true,
          "name": "claimId",
          "type": "uint256"
        },
        {
          "indexed": true,
          "name": "currentTime",
          "type": "uint256"
        }
      ],
      "name": "DividendsClaimed",
      "type": "event"
    },
    {
      "anonymous": false,
      "inputs": [
        {
          "indexed": true,
          "name": "pixelId",
          "type": "uint256"
        },
        {
          "indexed": false,
          "name": "colorId",
          "type": "uint256"
        },
        {
          "indexed": true,
          "name": "painter",
          "type": "address"
        },
        {
          "indexed": true,
          "name": "round",
          "type": "uint256"
        },
        {
          "indexed": false,
          "name": "timestamp",
          "type": "uint256"
        }
      ],
      "name": "Paint",
      "type": "event"
    },
    {
      "anonymous": false,
      "inputs": [
        {
          "indexed": false,
          "name": "winner",
          "type": "address"
        },
        {
          "indexed": true,
          "name": "round",
          "type": "uint256"
        }
      ],
      "name": "ColorBankPlayed",
      "type": "event"
    },
    {
      "anonymous": false,
      "inputs": [
        {
          "indexed": false,
          "name": "winner",
          "type": "address"
        },
        {
          "indexed": true,
          "name": "round",
          "type": "uint256"
        }
      ],
      "name": "TimeBankPlayed",
      "type": "event"
    },
    {
      "anonymous": false,
      "inputs": [
        {
          "indexed": true,
          "name": "newCallPrice",
          "type": "uint256"
        }
      ],
      "name": "CallPriceUpdated",
      "type": "event"
    },
    {
      "anonymous": false,
      "inputs": [
        {
          "indexed": true,
          "name": "round",
          "type": "uint256"
        },
        {
          "indexed": true,
          "name": "tbIteration",
          "type": "uint256"
        },
        {
          "indexed": false,
          "name": "winner",
          "type": "address"
        }
      ],
      "name": "TBPDistributed",
      "type": "event"
    },
    {
      "anonymous": false,
      "inputs": [
        {
          "indexed": true,
          "name": "previousOwner",
          "type": "address"
        },
        {
          "indexed": true,
          "name": "newOwner",
          "type": "address"
        }
      ],
      "name": "OwnershipTransferred",
      "type": "event"
    },
    {
      "constant": false,
      "inputs": [],
      "name": "distributeTBP",
      "outputs": [],
      "payable": false,
      "stateMutability": "nonpayable",
      "type": "function"
    }
  ],
  "bytecode": "0x608060405273ca35b7d915458ef540ade6068dfe2f44e8fa733c604060006101000a81548173ffffffffffffffffffffffffffffffffffffffff021916908373ffffffffffffffffffffffffffffffffffffffff160217905550733e4d187df7d8a0820eaf4174d17b160157610912604160006101000a81548173ffffffffffffffffffffffffffffffffffffffff021916908373ffffffffffffffffffffffffffffffffffffffff160217905550336000806101000a81548173ffffffffffffffffffffffffffffffffffffffff021916908373ffffffffffffffffffffffffffffffffffffffff1602179055506000809054906101000a900473ffffffffffffffffffffffffffffffffffffffff1673ffffffffffffffffffffffffffffffffffffffff16600073ffffffffffffffffffffffffffffffffffffffff167f8be0079c531659141344cd1fd0a4f28419497f9722a3daafe3b4186f6b6457e060405160405180910390a3612f39806101796000396000f300608060405260043610610338576000357c0100000000000000000000000000000000000000000000000000000000900463ffffffff1680630422ddf31461033d57806305bdd0be1461036c578063099b81ce146103d15780630baaea44146104425780630cf9603f146104af5780630f6ed86e146104fa578063102f97131461052557806318452cd81461059257806319ef6a06146105ed5780631f5bdf5d146106385780631f90c6ed1461069357806321423af8146106f857806324d7806c1461072757806328361f571461078257806328b290f9146107c35780632c6c1c411461081a5780632c7a3dae1461087b57806333f9c388146108f25780633a173505146109535780633c6dd0131461099e5780633ca4c183146109df5780633d0d1a7914610a405780633dc3c37714610a81578063411b007e14610aac57806341c5464e14610b0357806342e453ec14610b5a5780634b39173d14610bd15780634c438ad714610c1c5780634c78e40114610c615780635bfcdb2714610ca25780635c25fd1314610d5e5780635d63ebb214610d895780635f5d554c14610e00578063628a71a314610e4f5780636f17eb4214610e90578063715018a614610ed157806373a9ee2614610ee857806376f5d96a14610f2957806379ecf37614610f585780637e1e175c14610fc557806387982ac3146110205780638a19c8bc146110ad5780638da5cb5b146110d85780638e2df39c1461112f5780638f32d59b146111705780638f63b7e51461119f578063a3120724146111ea578063a888c2cd14611235578063a977e168146112bb578063ab24c7d214611312578063ad71ee2314611377578063ae55ce821461138e578063b0ff59d2146113fb578063b1a3883c1461145c578063b8232d5d146114c7578063be7d622614611512578063c64a2e5614611553578063c957387b14611594578063c9f8234f146115df578063d4526e681461160a578063d5de47c714611653578063da68b1211461169e578063deaf0fa1146116e3578063eaf1c91014611766578063eef565da146117c7578063f2fde38b146117f2578063f49916f514611835578063f5f95b3b14611876578063fb454d29146118a1578063fea11fe3146118f8575b600080fd5b34801561034957600080fd5b50610352611923565b604051808215151515815260200191505060405180910390f35b34801561037857600080fd5b506103b760048036038101908080359060200190929190803573ffffffffffffffffffffffffffffffffffffffff169060200190929190505050611936565b604051808215151515815260200191505060405180910390f35b3480156103dd57600080fd5b506104006004803603810190808035600019169060200190929190505050611965565b604051808273ffffffffffffffffffffffffffffffffffffffff1673ffffffffffffffffffffffffffffffffffffffff16815260200191505060405180910390f35b34801561044e57600080fd5b5061046d60048036038101908080359060200190929190505050611998565b604051808273ffffffffffffffffffffffffffffffffffffffff1673ffffffffffffffffffffffffffffffffffffffff16815260200191505060405180910390f35b3480156104bb57600080fd5b506104e460048036038101908080359060200190929190803590602001909291905050506119cb565b6040518082815260200191505060405180910390f35b34801561050657600080fd5b5061050f6119f0565b6040518082815260200191505060405180910390f35b34801561053157600080fd5b50610550600480360381019080803590602001909291905050506119f6565b604051808273ffffffffffffffffffffffffffffffffffffffff1673ffffffffffffffffffffffffffffffffffffffff16815260200191505060405180910390f35b34801561059e57600080fd5b506105d3600480360381019080803573ffffffffffffffffffffffffffffffffffffffff169060200190929190505050611a29565b604051808215151515815260200191505060405180910390f35b3480156105f957600080fd5b506106226004803603810190808035906020019092919080359060200190929190505050611a49565b6040518082815260200191505060405180910390f35b34801561064457600080fd5b50610679600480360381019080803573ffffffffffffffffffffffffffffffffffffffff169060200190929190505050611a6e565b604051808215151515815260200191505060405180910390f35b34801561069f57600080fd5b506106de60048036038101908080359060200190929190803573ffffffffffffffffffffffffffffffffffffffff169060200190929190505050611a8e565b604051808215151515815260200191505060405180910390f35b34801561070457600080fd5b5061070d611abd565b604051808215151515815260200191505060405180910390f35b34801561073357600080fd5b50610768600480360381019080803573ffffffffffffffffffffffffffffffffffffffff169060200190929190505050611ad0565b604051808215151515815260200191505060405180910390f35b34801561078e57600080fd5b506107ad60048036038101908080359060200190929190505050611af0565b6040518082815260200191505060405180910390f35b3480156107cf57600080fd5b50610804600480360381019080803573ffffffffffffffffffffffffffffffffffffffff169060200190929190505050611b08565b6040518082815260200191505060405180910390f35b34801561082657600080fd5b5061086560048036038101908080359060200190929190803573ffffffffffffffffffffffffffffffffffffffff169060200190929190505050611b20565b6040518082815260200191505060405180910390f35b34801561088757600080fd5b506108b06004803603810190808035906020019092919080359060200190929190505050611b45565b604051808273ffffffffffffffffffffffffffffffffffffffff1673ffffffffffffffffffffffffffffffffffffffff16815260200191505060405180910390f35b3480156108fe57600080fd5b5061093d60048036038101908080359060200190929190803573ffffffffffffffffffffffffffffffffffffffff169060200190929190505050611b92565b6040518082815260200191505060405180910390f35b34801561095f57600080fd5b506109886004803603810190808035906020019092919080359060200190929190505050611bb7565b6040518082815260200191505060405180910390f35b3480156109aa57600080fd5b506109c960048036038101908080359060200190929190505050611bdc565b6040518082815260200191505060405180910390f35b3480156109eb57600080fd5b50610a2a60048036038101908080359060200190929190803573ffffffffffffffffffffffffffffffffffffffff169060200190929190505050611bf4565b6040518082815260200191505060405180910390f35b348015610a4c57600080fd5b50610a6b60048036038101908080359060200190929190505050611c19565b6040518082815260200191505060405180910390f35b348015610a8d57600080fd5b50610a96611c31565b6040518082815260200191505060405180910390f35b348015610ab857600080fd5b50610ac1611c37565b604051808273ffffffffffffffffffffffffffffffffffffffff1673ffffffffffffffffffffffffffffffffffffffff16815260200191505060405180910390f35b348015610b0f57600080fd5b50610b44600480360381019080803573ffffffffffffffffffffffffffffffffffffffff169060200190929190505050611c5d565b6040518082815260200191505060405180910390f35b348015610b6657600080fd5b50610b8f6004803603810190808035906020019092919080359060200190929190505050611c75565b604051808273ffffffffffffffffffffffffffffffffffffffff1673ffffffffffffffffffffffffffffffffffffffff16815260200191505060405180910390f35b348015610bdd57600080fd5b50610c066004803603810190808035906020019092919080359060200190929190505050611cb7565b6040518082815260200191505060405180910390f35b348015610c2857600080fd5b50610c4760048036038101908080359060200190929190505050611cdc565b604051808215151515815260200191505060405180910390f35b348015610c6d57600080fd5b50610c8c60048036038101908080359060200190929190505050611cfc565b6040518082815260200191505060405180910390f35b348015610cae57600080fd5b50610ce3600480360381019080803573ffffffffffffffffffffffffffffffffffffffff169060200190929190505050611d14565b6040518080602001828103825283818151815260200191508051906020019080838360005b83811015610d23578082015181840152602081019050610d08565b50505050905090810190601f168015610d505780820380516001836020036101000a031916815260200191505b509250505060405180910390f35b348015610d6a57600080fd5b50610d73611dc4565b6040518082815260200191505060405180910390f35b348015610d9557600080fd5b50610dbe6004803603810190808035906020019092919080359060200190929190505050611dca565b604051808273ffffffffffffffffffffffffffffffffffffffff1673ffffffffffffffffffffffffffffffffffffffff16815260200191505060405180910390f35b348015610e0c57600080fd5b50610e356004803603810190808035906020019092919080359060200190929190505050611e17565b604051808215151515815260200191505060405180910390f35b348015610e5b57600080fd5b50610e7a60048036038101908080359060200190929190505050611e46565b6040518082815260200191505060405180910390f35b348015610e9c57600080fd5b50610ebb60048036038101908080359060200190929190505050611e5e565b6040518082815260200191505060405180910390f35b348015610edd57600080fd5b50610ee6611e76565b005b348015610ef457600080fd5b50610f1360048036038101908080359060200190929190505050611f48565b6040518082815260200191505060405180910390f35b348015610f3557600080fd5b50610f3e611f60565b604051808215151515815260200191505060405180910390f35b348015610f6457600080fd5b50610f8360048036038101908080359060200190929190505050611f73565b604051808273ffffffffffffffffffffffffffffffffffffffff1673ffffffffffffffffffffffffffffffffffffffff16815260200191505060405180910390f35b348015610fd157600080fd5b50611006600480360381019080803573ffffffffffffffffffffffffffffffffffffffff169060200190929190505050611fa6565b604051808215151515815260200191505060405180910390f35b34801561102c57600080fd5b5061106b600480360381019080803573ffffffffffffffffffffffffffffffffffffffff16906020019092919080359060200190929190505050611fc6565b604051808273ffffffffffffffffffffffffffffffffffffffff1673ffffffffffffffffffffffffffffffffffffffff16815260200191505060405180910390f35b3480156110b957600080fd5b506110c2612012565b6040518082815260200191505060405180910390f35b3480156110e457600080fd5b506110ed612018565b604051808273ffffffffffffffffffffffffffffffffffffffff1673ffffffffffffffffffffffffffffffffffffffff16815260200191505060405180910390f35b34801561113b57600080fd5b5061115a60048036038101908080359060200190929190505050612041565b6040518082815260200191505060405180910390f35b34801561117c57600080fd5b50611185612059565b604051808215151515815260200191505060405180910390f35b3480156111ab57600080fd5b506111d460048036038101908080359060200190929190803590602001909291905050506120b0565b6040518082815260200191505060405180910390f35b3480156111f657600080fd5b5061121f60048036038101908080359060200190929190803590602001909291905050506120d5565b6040518082815260200191505060405180910390f35b34801561124157600080fd5b50611260600480360381019080803590602001909291905050506120fa565b604051808581526020018473ffffffffffffffffffffffffffffffffffffffff1673ffffffffffffffffffffffffffffffffffffffff1681526020018315151515815260200182815260200194505050505060405180910390f35b3480156112c757600080fd5b506112d0612166565b604051808273ffffffffffffffffffffffffffffffffffffffff1673ffffffffffffffffffffffffffffffffffffffff16815260200191505060405180910390f35b34801561131e57600080fd5b5061135d60048036038101908080359060200190929190803573ffffffffffffffffffffffffffffffffffffffff16906020019092919050505061218c565b604051808215151515815260200191505060405180910390f35b34801561138357600080fd5b5061138c6121bb565b005b34801561139a57600080fd5b506113b9600480360381019080803590602001909291905050506126c6565b604051808273ffffffffffffffffffffffffffffffffffffffff1673ffffffffffffffffffffffffffffffffffffffff16815260200191505060405180910390f35b34801561140757600080fd5b5061144660048036038101908080359060200190929190803573ffffffffffffffffffffffffffffffffffffffff1690602001909291905050506126f9565b6040518082815260200191505060405180910390f35b34801561146857600080fd5b506114b16004803603810190808035906020019092919080359060200190929190803573ffffffffffffffffffffffffffffffffffffffff16906020019092919050505061271e565b6040518082815260200191505060405180910390f35b3480156114d357600080fd5b506114fc6004803603810190808035906020019092919080359060200190929190505050612750565b6040518082815260200191505060405180910390f35b34801561151e57600080fd5b5061153d60048036038101908080359060200190929190505050612775565b6040518082815260200191505060405180910390f35b34801561155f57600080fd5b5061157e6004803603810190808035906020019092919050505061278d565b6040518082815260200191505060405180910390f35b3480156115a057600080fd5b506115c960048036038101908080359060200190929190803590602001909291905050506127a5565b6040518082815260200191505060405180910390f35b3480156115eb57600080fd5b506115f46127ca565b6040518082815260200191505060405180910390f35b34801561161657600080fd5b5061163960048036038101908080356000191690602001909291905050506127d0565b604051808215151515815260200191505060405180910390f35b34801561165f57600080fd5b5061168860048036038101908080359060200190929190803590602001909291905050506127f0565b6040518082815260200191505060405180910390f35b3480156116aa57600080fd5b506116c960048036038101908080359060200190929190505050612815565b604051808215151515815260200191505060405180910390f35b3480156116ef57600080fd5b50611724600480360381019080803573ffffffffffffffffffffffffffffffffffffffff169060200190929190505050612835565b604051808273ffffffffffffffffffffffffffffffffffffffff1673ffffffffffffffffffffffffffffffffffffffff16815260200191505060405180910390f35b34801561177257600080fd5b506117b160048036038101908080359060200190929190803573ffffffffffffffffffffffffffffffffffffffff169060200190929190505050612868565b6040518082815260200191505060405180910390f35b3480156117d357600080fd5b506117dc61288d565b6040518082815260200191505060405180910390f35b3480156117fe57600080fd5b50611833600480360381019080803573ffffffffffffffffffffffffffffffffffffffff169060200190929190505050612893565b005b34801561184157600080fd5b50611860600480360381019080803590602001909291905050506128b2565b6040518082815260200191505060405180910390f35b34801561188257600080fd5b5061188b6128ca565b6040518082815260200191505060405180910390f35b3480156118ad57600080fd5b506118e2600480360381019080803573ffffffffffffffffffffffffffffffffffffffff1690602001909291905050506128d0565b6040518082815260200191505060405180910390f35b34801561190457600080fd5b5061190d6128e8565b6040518082815260200191505060405180910390f35b604160149054906101000a900460ff1681565b60346020528160005260406000206020528060005260406000206000915091509054906101000a900460ff1681565b60236020528060005260406000206000915054906101000a900473ffffffffffffffffffffffffffffffffffffffff1681565b603a6020528060005260406000206000915054906101000a900473ffffffffffffffffffffffffffffffffffffffff1681565b6006602052816000526040600020602052806000526040600020600091509150505481565b60295481565b600f6020528060005260406000206000915054906101000a900473ffffffffffffffffffffffffffffffffffffffff1681565b60216020528060005260406000206000915054906101000a900460ff1681565b600e602052816000526040600020602052806000526040600020600091509150505481565b601d6020528060005260406000206000915054906101000a900460ff1681565b601b6020528160005260406000206020528060005260406000206000915091509054906101000a900460ff1681565b604160169054906101000a900460ff1681565b60426020528060005260406000206000915054906101000a900460ff1681565b60176020528060005260406000206000915090505481565b60396020528060005260406000206000915090505481565b601a602052816000526040600020602052806000526040600020600091509150505481565b603060205281600052604060002081815481101515611b6057fe5b906000526020600020016000915091509054906101000a900473ffffffffffffffffffffffffffffffffffffffff1681565b6036602052816000526040600020602052806000526040600020600091509150505481565b6014602052816000526040600020602052806000526040600020600091509150505481565b60186020528060005260406000206000915090505481565b6035602052816000526040600020602052806000526040600020600091509150505481565b60106020528060005260406000206000915090505481565b602b5481565b604160009054906101000a900473ffffffffffffffffffffffffffffffffffffffff1681565b60256020528060005260406000206000915090505481565b60326020528160005260406000206020528060005260406000206000915091509054906101000a900473ffffffffffffffffffffffffffffffffffffffff1681565b6005602052816000526040600020602052806000526040600020600091509150505481565b60386020528060005260406000206000915054906101000a900460ff1681565b60096020528060005260406000206000915090505481565b60226020528060005260406000206000915090508054600181600116156101000203166002900480601f016020809104026020016040519081016040528092919081815260200182805460018160011615610100020316600290048015611dbc5780601f10611d9157610100808354040283529160200191611dbc565b820191906000526020600020905b815481529060010190602001808311611d9f57829003601f168201915b505050505081565b603e5481565b602f60205281600052604060002081815481101515611de557fe5b906000526020600020016000915091509054906101000a900473ffffffffffffffffffffffffffffffffffffffff1681565b60166020528160005260406000206020528060005260406000206000915091509054906101000a900460ff1681565b600c6020528060005260406000206000915090505481565b60196020528060005260406000206000915090505481565b611e7e612059565b1515611e8957600080fd5b600073ffffffffffffffffffffffffffffffffffffffff166000809054906101000a900473ffffffffffffffffffffffffffffffffffffffff1673ffffffffffffffffffffffffffffffffffffffff167f8be0079c531659141344cd1fd0a4f28419497f9722a3daafe3b4186f6b6457e060405160405180910390a360008060006101000a81548173ffffffffffffffffffffffffffffffffffffffff021916908373ffffffffffffffffffffffffffffffffffffffff160217905550565b600a6020528060005260406000206000915090505481565b604160159054906101000a900460ff1681565b600b6020528060005260406000206000915054906101000a900473ffffffffffffffffffffffffffffffffffffffff1681565b601e6020528060005260406000206000915054906101000a900460ff1681565b6020805281600052604060002081815481101515611fe057fe5b906000526020600020016000915091509054906101000a900473ffffffffffffffffffffffffffffffffffffffff1681565b60285481565b60008060009054906101000a900473ffffffffffffffffffffffffffffffffffffffff16905090565b602e6020528060005260406000206000915090505481565b60008060009054906101000a900473ffffffffffffffffffffffffffffffffffffffff1673ffffffffffffffffffffffffffffffffffffffff163373ffffffffffffffffffffffffffffffffffffffff1614905090565b6011602052816000526040600020602052806000526040600020600091509150505481565b6008602052816000526040600020602052806000526040600020600091509150505481565b603f8181548110151561210957fe5b90600052602060002090600302016000915090508060000154908060010160009054906101000a900473ffffffffffffffffffffffffffffffffffffffff16908060010160149054906101000a900460ff16908060020154905084565b604060009054906101000a900473ffffffffffffffffffffffffffffffffffffffff1681565b60336020528160005260406000206020528060005260406000206000915091509054906101000a900460ff1681565b600080600060011515604160169054906101000a900460ff161515141515612271576040517f08c379a00000000000000000000000000000000000000000000000000000000081526004018080602001828103825260308152602001807f43616e6e6f7420646973747269627574652074696d652062616e6b207072697a81526020017f6520617420746865206d6f6d656e742e0000000000000000000000000000000081525060400191505060405180910390fd5b6000151560386000602954815260200190815260200160002060009054906101000a900460ff161515141515612335576040517f08c379a00000000000000000000000000000000000000000000000000000000081526004018080602001828103825260398152602001807f54696d652042616e6b205072697a657320616c7265616479207472616e73666581526020017f7272656420666f722074686973207462497465726174696f6e0000000000000081525060400191505060405180910390fd5b6123716064612363602d600960006028548152602001908152602001600020546128ee90919063ffffffff16565b61292c90919063ffffffff16565b6036600060295481526020019081526020016000206000600f6000602854815260200190815260200160002060009054906101000a900473ffffffffffffffffffffffffffffffffffffffff1673ffffffffffffffffffffffffffffffffffffffff1673ffffffffffffffffffffffffffffffffffffffff1681526020019081526020016000206000828254019250508190555061240d612956565b603060006029548152602001908152602001600020805490509150600090505b81811015612587576030600060295481526020019081526020016000208181548110151561245757fe5b9060005260206000200160009054906101000a900473ffffffffffffffffffffffffffffffffffffffff169250600060366000602954815260200190815260200160002060008573ffffffffffffffffffffffffffffffffffffffff1673ffffffffffffffffffffffffffffffffffffffff1681526020019081526020016000205414151561257a578273ffffffffffffffffffffffffffffffffffffffff166108fc60366000602954815260200190815260200160002060008673ffffffffffffffffffffffffffffffffffffffff1673ffffffffffffffffffffffffffffffffffffffff168152602001908152602001600020549081150290604051600060405180830381858888f19350505050158015612578573d6000803e3d6000fd5b505b808060010191505061242d565b6000604160166101000a81548160ff021916908315150217905550600160386000602954815260200190815260200160002060006101000a81548160ff0219169083151502179055506029546028547feca1f0d0df6b0ed2276273dc39a99e040fa232a569f7fff0aeaa314b04cec997600f6000602854815260200190815260200160002060009054906101000a900473ffffffffffffffffffffffffffffffffffffffff16604051808273ffffffffffffffffffffffffffffffffffffffff1673ffffffffffffffffffffffffffffffffffffffff16815260200191505060405180910390a36126846001602854612b8090919063ffffffff16565b6028819055506126a06001602954612b8090919063ffffffff16565b6029819055506000604160146101000a81548160ff021916908315150217905550505050565b60316020528060005260406000206000915054906101000a900473ffffffffffffffffffffffffffffffffffffffff1681565b602c602052816000526040600020602052806000526040600020600091509150505481565b602d60205282600052604060002060205281600052604060002060205280600052604060002060009250925050505481565b6004602052816000526040600020602052806000526040600020600091509150505481565b60126020528060005260406000206000915090505481565b60076020528060005260406000206000915090505481565b6015602052816000526040600020602052806000526040600020600091509150505481565b60265481565b60246020528060005260406000206000915054906101000a900460ff1681565b6013602052816000526040600020602052806000526040600020600091509150505481565b60376020528060005260406000206000915054906101000a900460ff1681565b601f6020528060005260406000206000915054906101000a900473ffffffffffffffffffffffffffffffffffffffff1681565b601c602052816000526040600020602052806000526040600020600091509150505481565b60275481565b61289b612059565b15156128a657600080fd5b6128af81612ba1565b50565b600d6020528060005260406000206000915090505481565b603d5481565b603b6020528060005260406000206000915090505481565b602a5481565b60008060008414156129035760009150612925565b828402905082848281151561291457fe5b0414151561292157600080fd5b8091505b5092915050565b60008060008311151561293e57600080fd5b828481151561294957fe5b0490508091505092915050565b600080600080612964612c9b565b9350600090505b83811015612a26576030600060295481526020019081526020016000208181548110151561299557fe5b9060005260206000200160009054906101000a900473ffffffffffffffffffffffffffffffffffffffff169250602c6000602954815260200190815260200160002060008473ffffffffffffffffffffffffffffffffffffffff1673ffffffffffffffffffffffffffffffffffffffff1681526020019081526020016000205482019150808060010191505061296b565b600090505b83811015612b7a5760306000602954815260200190815260200160002081815481101515612a5557fe5b9060005260206000200160009054906101000a900473ffffffffffffffffffffffffffffffffffffffff169250612b0e82612b0060096000602854815260200190815260200160002054602c6000602954815260200190815260200160002060008873ffffffffffffffffffffffffffffffffffffffff1673ffffffffffffffffffffffffffffffffffffffff168152602001908152602001600020546128ee90919063ffffffff16565b61292c90919063ffffffff16565b60366000602954815260200190815260200160002060008573ffffffffffffffffffffffffffffffffffffffff1673ffffffffffffffffffffffffffffffffffffffff168152602001908152602001600020600082825401925050819055508080600101915050612a2b565b50505050565b6000808284019050838110151515612b9757600080fd5b8091505092915050565b600073ffffffffffffffffffffffffffffffffffffffff168173ffffffffffffffffffffffffffffffffffffffff1614151515612bdd57600080fd5b8073ffffffffffffffffffffffffffffffffffffffff166000809054906101000a900473ffffffffffffffffffffffffffffffffffffffff1673ffffffffffffffffffffffffffffffffffffffff167f8be0079c531659141344cd1fd0a4f28419497f9722a3daafe3b4186f6b6457e060405160405180910390a3806000806101000a81548173ffffffffffffffffffffffffffffffffffffffff021916908373ffffffffffffffffffffffffffffffffffffffff16021790555050565b6000806000602b5491505b6000821115612eed576000151560346000602954815260200190815260200160002060006031600086815260200190815260200160002060009054906101000a900473ffffffffffffffffffffffffffffffffffffffff1673ffffffffffffffffffffffffffffffffffffffff1673ffffffffffffffffffffffffffffffffffffffff16815260200190815260200160002060009054906101000a900460ff1615151415612edf576064602b541115612d6d57606481101515612d6857612eed565b612d7e565b602b5481101515612d7d57612eed565b5b6030600060295481526020019081526020016000206031600084815260200190815260200160002060009054906101000a900473ffffffffffffffffffffffffffffffffffffffff1690806001815401808255809150509060018203906000526020600020016000909192909190916101000a81548173ffffffffffffffffffffffffffffffffffffffff021916908373ffffffffffffffffffffffffffffffffffffffff16021790555050612e3e600182612b8090919063ffffffff16565b9050600160346000602954815260200190815260200160002060006031600086815260200190815260200160002060009054906101000a900473ffffffffffffffffffffffffffffffffffffffff1673ffffffffffffffffffffffffffffffffffffffff1673ffffffffffffffffffffffffffffffffffffffff16815260200190815260200160002060006101000a81548160ff0219169083151502179055505b818060019003925050612ca6565b6030600060295481526020019081526020016000208054905092505050905600a165627a7a723058203fb97c140f31338dbc04b3d19c8288d81b6d551a2985ea5c28d8c6085288bd7d0029",
  "source": "pragma solidity ^0.4.24;\nimport \"./SafeMath.sol\";\nimport \"./Modifiers.sol\";\n\ncontract TimeTeam is Modifiers {\n    using SafeMath for uint;\n\n    //      100   \n    function formTimeTeam() private returns (uint) {\n        \n        for (uint i = paintsCounter; i > 0; i--) {\n            uint teamMembersCounter;\n            if (isInTBT[tbIteration][counterToPainter[i]] == false) {\n                \n                if (paintsCounter > 100) {\n                    if (teamMembersCounter >= 100)   \n                        break;\n                }\n            \n                else {\n                    if (teamMembersCounter >= paintsCounter)\n                        break;\n                }\n                \n                tbTeam[tbIteration].push(counterToPainter[i]);\n                teamMembersCounter = teamMembersCounter.add(1);\n                isInTBT[tbIteration][counterToPainter[i]] = true;\n            }\n        }\n        return tbTeam[tbIteration].length;\n    }\n    \n    function calculateTBP() private {\n\n        uint length = formTimeTeam();\n        address painter;\n        uint totalPaintsForTeam; \n\n        for (uint i = 0; i < length; i++) {\n            painter = tbTeam[tbIteration][i];\n            totalPaintsForTeam += timeBankShare[tbIteration][painter];\n        }\n\n        for (i = 0; i < length; i++) {\n            painter = tbTeam[tbIteration][i];\n            painterToTBP[tbIteration][painter] += (timeBankShare[tbIteration][painter].mul(timeBankForRound[currentRound])).div(totalPaintsForTeam);\n        }\n\n    }\n\n    function distributeTBP() external canDistributeTBP() {\n        require(isTBPTransfered[tbIteration] == false, \"Time Bank Prizes already transferred for this tbIteration\");\n        address painter;\n        painterToTBP[tbIteration][winnerOfRound[currentRound]] += timeBankForRound[currentRound].mul(45).div(100); \n        calculateTBP();\n        uint length = tbTeam[tbIteration].length;\n        for (uint i = 0; i < length; i++) {\n            painter = tbTeam[tbIteration][i];\n            if(painterToTBP[tbIteration][painter] != 0)\n                painter.transfer(painterToTBP[tbIteration][painter]);\n        }\n        isTBPDistributable = false;\n        isTBPTransfered[tbIteration] = true;\n        emit TBPDistributed(currentRound, tbIteration, winnerOfRound[currentRound]);\n        currentRound = currentRound.add(1); //  \n        tbIteration = tbIteration.add(1); //    \n        isGamePaused = false;\n    }\n}\n\n",
  "sourcePath": "/Users/Amir/last-pixel-contracts/contracts/TimeTeam.sol",
  "compiler": {
    "name": "solc",
    "version": "0.4.24+commit.e67f0147.Emscripten.clang"
  },
  "schemaVersion": "2.0.1",
  "updatedAt": "2019-01-11T12:23:31.021Z"
}