{
  "contractName": "TimeBankDistributor",
  "abi": [
    {
      "constant": true,
      "inputs": [
        {
          "name": "",
          "type": "uint256"
        },
        {
          "name": "",
          "type": "address"
        }
      ],
      "name": "addressToTimeBankPrizeForRound",
      "outputs": [
        {
          "name": "",
          "type": "uint256"
        }
      ],
      "payable": false,
      "stateMutability": "view",
      "type": "function"
    },
    {
      "constant": true,
      "inputs": [
        {
          "name": "",
          "type": "address"
        }
      ],
      "name": "addressToTimeBankPrizeTotal",
      "outputs": [
        {
          "name": "",
          "type": "uint256"
        }
      ],
      "payable": false,
      "stateMutability": "view",
      "type": "function"
    },
    {
      "constant": true,
      "inputs": [
        {
          "name": "",
          "type": "uint256"
        },
        {
          "name": "",
          "type": "uint256"
        }
      ],
      "name": "colorToTotalPaintsForRound",
      "outputs": [
        {
          "name": "",
          "type": "uint256"
        }
      ],
      "payable": false,
      "stateMutability": "view",
      "type": "function"
    },
    {
      "constant": true,
      "inputs": [
        {
          "name": "",
          "type": "uint256"
        },
        {
          "name": "",
          "type": "uint256"
        }
      ],
      "name": "colorToPaintedPixelsAmountForRound",
      "outputs": [
        {
          "name": "",
          "type": "uint256"
        }
      ],
      "payable": false,
      "stateMutability": "view",
      "type": "function"
    },
    {
      "constant": true,
      "inputs": [
        {
          "name": "",
          "type": "uint256"
        }
      ],
      "name": "winnerOfRound",
      "outputs": [
        {
          "name": "",
          "type": "address"
        }
      ],
      "payable": false,
      "stateMutability": "view",
      "type": "function"
    },
    {
      "constant": true,
      "inputs": [
        {
          "name": "",
          "type": "uint256"
        },
        {
          "name": "",
          "type": "uint256"
        },
        {
          "name": "",
          "type": "address"
        }
      ],
      "name": "colorToAddressToTotalCounterForRound",
      "outputs": [
        {
          "name": "",
          "type": "uint256"
        }
      ],
      "payable": false,
      "stateMutability": "view",
      "type": "function"
    },
    {
      "constant": true,
      "inputs": [
        {
          "name": "",
          "type": "uint256"
        }
      ],
      "name": "teamStartedTimeForRound",
      "outputs": [
        {
          "name": "",
          "type": "uint256"
        }
      ],
      "payable": false,
      "stateMutability": "view",
      "type": "function"
    },
    {
      "constant": true,
      "inputs": [
        {
          "name": "",
          "type": "address"
        }
      ],
      "name": "lastPlayedRound",
      "outputs": [
        {
          "name": "",
          "type": "uint256"
        }
      ],
      "payable": false,
      "stateMutability": "view",
      "type": "function"
    },
    {
      "constant": true,
      "inputs": [
        {
          "name": "",
          "type": "uint256"
        }
      ],
      "name": "winnerBankForRound",
      "outputs": [
        {
          "name": "",
          "type": "uint256"
        }
      ],
      "payable": false,
      "stateMutability": "view",
      "type": "function"
    },
    {
      "constant": true,
      "inputs": [
        {
          "name": "",
          "type": "uint256"
        },
        {
          "name": "",
          "type": "uint256"
        }
      ],
      "name": "pixelToOldColorForRound",
      "outputs": [
        {
          "name": "",
          "type": "uint256"
        }
      ],
      "payable": false,
      "stateMutability": "view",
      "type": "function"
    },
    {
      "constant": true,
      "inputs": [
        {
          "name": "",
          "type": "uint256"
        }
      ],
      "name": "timeBankForRound",
      "outputs": [
        {
          "name": "",
          "type": "uint256"
        }
      ],
      "payable": false,
      "stateMutability": "view",
      "type": "function"
    },
    {
      "constant": true,
      "inputs": [
        {
          "name": "",
          "type": "uint256"
        }
      ],
      "name": "teamEndedTimeForRound",
      "outputs": [
        {
          "name": "",
          "type": "uint256"
        }
      ],
      "payable": false,
      "stateMutability": "view",
      "type": "function"
    },
    {
      "constant": true,
      "inputs": [
        {
          "name": "",
          "type": "uint256"
        },
        {
          "name": "",
          "type": "address"
        },
        {
          "name": "",
          "type": "uint256"
        }
      ],
      "name": "addressToCounterToTimestampForRound",
      "outputs": [
        {
          "name": "",
          "type": "uint256"
        }
      ],
      "payable": false,
      "stateMutability": "view",
      "type": "function"
    },
    {
      "constant": true,
      "inputs": [
        {
          "name": "",
          "type": "uint256"
        }
      ],
      "name": "lastPaintTimeForRound",
      "outputs": [
        {
          "name": "",
          "type": "uint256"
        }
      ],
      "payable": false,
      "stateMutability": "view",
      "type": "function"
    },
    {
      "constant": true,
      "inputs": [
        {
          "name": "",
          "type": "uint256"
        }
      ],
      "name": "lastPainterForRound",
      "outputs": [
        {
          "name": "",
          "type": "address"
        }
      ],
      "payable": false,
      "stateMutability": "view",
      "type": "function"
    },
    {
      "constant": true,
      "inputs": [],
      "name": "currentRound",
      "outputs": [
        {
          "name": "",
          "type": "uint256"
        }
      ],
      "payable": false,
      "stateMutability": "view",
      "type": "function"
    },
    {
      "constant": true,
      "inputs": [
        {
          "name": "",
          "type": "uint256"
        },
        {
          "name": "",
          "type": "address"
        }
      ],
      "name": "addressToColorBankPrizeForRound",
      "outputs": [
        {
          "name": "",
          "type": "uint256"
        }
      ],
      "payable": false,
      "stateMutability": "view",
      "type": "function"
    },
    {
      "constant": true,
      "inputs": [
        {
          "name": "",
          "type": "uint256"
        },
        {
          "name": "",
          "type": "address"
        }
      ],
      "name": "addressToTotalCounterForRound",
      "outputs": [
        {
          "name": "",
          "type": "uint256"
        }
      ],
      "payable": false,
      "stateMutability": "view",
      "type": "function"
    },
    {
      "constant": true,
      "inputs": [
        {
          "name": "",
          "type": "uint256"
        },
        {
          "name": "",
          "type": "address"
        },
        {
          "name": "",
          "type": "uint256"
        },
        {
          "name": "",
          "type": "uint256"
        }
      ],
      "name": "addressToColorToCounterToTimestampForRound",
      "outputs": [
        {
          "name": "",
          "type": "uint256"
        }
      ],
      "payable": false,
      "stateMutability": "view",
      "type": "function"
    },
    {
      "constant": true,
      "inputs": [
        {
          "name": "",
          "type": "uint256"
        },
        {
          "name": "",
          "type": "uint256"
        }
      ],
      "name": "pixelToColorForRound",
      "outputs": [
        {
          "name": "",
          "type": "uint256"
        }
      ],
      "payable": false,
      "stateMutability": "view",
      "type": "function"
    },
    {
      "constant": true,
      "inputs": [
        {
          "name": "",
          "type": "uint256"
        }
      ],
      "name": "totalPaintsForRound",
      "outputs": [
        {
          "name": "",
          "type": "uint256"
        }
      ],
      "payable": false,
      "stateMutability": "view",
      "type": "function"
    },
    {
      "constant": true,
      "inputs": [
        {
          "name": "",
          "type": "uint256"
        }
      ],
      "name": "colorBankForRound",
      "outputs": [
        {
          "name": "",
          "type": "uint256"
        }
      ],
      "payable": false,
      "stateMutability": "view",
      "type": "function"
    },
    {
      "constant": true,
      "inputs": [
        {
          "name": "",
          "type": "address"
        },
        {
          "name": "",
          "type": "uint256"
        }
      ],
      "name": "isPrizeDistributedForRound",
      "outputs": [
        {
          "name": "",
          "type": "bool"
        }
      ],
      "payable": false,
      "stateMutability": "view",
      "type": "function"
    },
    {
      "constant": true,
      "inputs": [
        {
          "name": "",
          "type": "uint256"
        }
      ],
      "name": "winnerColorForRound",
      "outputs": [
        {
          "name": "",
          "type": "uint256"
        }
      ],
      "payable": false,
      "stateMutability": "view",
      "type": "function"
    },
    {
      "anonymous": false,
      "inputs": [
        {
          "indexed": true,
          "name": "winner",
          "type": "address"
        },
        {
          "indexed": true,
          "name": "currentRound",
          "type": "uint256"
        }
      ],
      "name": "TimeBankPlayed",
      "type": "event"
    },
    {
      "anonymous": false,
      "inputs": [
        {
          "indexed": true,
          "name": "winner",
          "type": "address"
        },
        {
          "indexed": true,
          "name": "round",
          "type": "uint256"
        },
        {
          "indexed": true,
          "name": "amount",
          "type": "uint256"
        }
      ],
      "name": "TimeBankPrizeDistributed",
      "type": "event"
    },
    {
      "constant": false,
      "inputs": [],
      "name": "claimTimeBankPrizeForLastPlayedRound",
      "outputs": [],
      "payable": false,
      "stateMutability": "nonpayable",
      "type": "function"
    }
  ],
  "bytecode": "0x608060405234801561001057600080fd5b5061122a806100206000396000f300608060405260043610610149576000357c0100000000000000000000000000000000000000000000000000000000900463ffffffff16806306937b471461014e578063084028eb146101af5780630ba36221146102065780630cf9603f14610251578063102f97131461029c578063187aae8e1461030957806323a43a8e1461037457806328b290f9146103b55780633d0d1a791461040c5780634b39173d1461044d5780634c78e4011461049857806355457fc1146104d957806361433c5b1461051a57806373a9ee261461058557806379ecf376146105c65780638a19c8bc14610633578063a645867e1461065e578063ab94b584146106bf578063ae2d2b6014610720578063b66e5e9e14610795578063b8232d5d146107ac578063be7d6226146107f7578063c64a2e5614610838578063d7be633214610879578063f49916f5146108de575b600080fd5b34801561015a57600080fd5b5061019960048036038101908080359060200190929190803573ffffffffffffffffffffffffffffffffffffffff16906020019092919050505061091f565b6040518082815260200191505060405180910390f35b3480156101bb57600080fd5b506101f0600480360381019080803573ffffffffffffffffffffffffffffffffffffffff169060200190929190505050610944565b6040518082815260200191505060405180910390f35b34801561021257600080fd5b5061023b600480360381019080803590602001909291908035906020019092919050505061095c565b6040518082815260200191505060405180910390f35b34801561025d57600080fd5b506102866004803603810190808035906020019092919080359060200190929190505050610981565b6040518082815260200191505060405180910390f35b3480156102a857600080fd5b506102c7600480360381019080803590602001909291905050506109a6565b604051808273ffffffffffffffffffffffffffffffffffffffff1673ffffffffffffffffffffffffffffffffffffffff16815260200191505060405180910390f35b34801561031557600080fd5b5061035e6004803603810190808035906020019092919080359060200190929190803573ffffffffffffffffffffffffffffffffffffffff1690602001909291905050506109d9565b6040518082815260200191505060405180910390f35b34801561038057600080fd5b5061039f60048036038101908080359060200190929190505050610a0b565b6040518082815260200191505060405180910390f35b3480156103c157600080fd5b506103f6600480360381019080803573ffffffffffffffffffffffffffffffffffffffff169060200190929190505050610a23565b6040518082815260200191505060405180910390f35b34801561041857600080fd5b5061043760048036038101908080359060200190929190505050610a3b565b6040518082815260200191505060405180910390f35b34801561045957600080fd5b506104826004803603810190808035906020019092919080359060200190929190505050610a53565b6040518082815260200191505060405180910390f35b3480156104a457600080fd5b506104c360048036038101908080359060200190929190505050610a78565b6040518082815260200191505060405180910390f35b3480156104e557600080fd5b5061050460048036038101908080359060200190929190505050610a90565b6040518082815260200191505060405180910390f35b34801561052657600080fd5b5061056f60048036038101908080359060200190929190803573ffffffffffffffffffffffffffffffffffffffff16906020019092919080359060200190929190505050610aa8565b6040518082815260200191505060405180910390f35b34801561059157600080fd5b506105b060048036038101908080359060200190929190505050610ada565b6040518082815260200191505060405180910390f35b3480156105d257600080fd5b506105f160048036038101908080359060200190929190505050610af2565b604051808273ffffffffffffffffffffffffffffffffffffffff1673ffffffffffffffffffffffffffffffffffffffff16815260200191505060405180910390f35b34801561063f57600080fd5b50610648610b25565b6040518082815260200191505060405180910390f35b34801561066a57600080fd5b506106a960048036038101908080359060200190929190803573ffffffffffffffffffffffffffffffffffffffff169060200190929190505050610b2b565b6040518082815260200191505060405180910390f35b3480156106cb57600080fd5b5061070a60048036038101908080359060200190929190803573ffffffffffffffffffffffffffffffffffffffff169060200190929190505050610b50565b6040518082815260200191505060405180910390f35b34801561072c57600080fd5b5061077f60048036038101908080359060200190929190803573ffffffffffffffffffffffffffffffffffffffff1690602001909291908035906020019092919080359060200190929190505050610b75565b6040518082815260200191505060405180910390f35b3480156107a157600080fd5b506107aa610bb4565b005b3480156107b857600080fd5b506107e160048036038101908080359060200190929190803590602001909291905050506110fa565b6040518082815260200191505060405180910390f35b34801561080357600080fd5b506108226004803603810190808035906020019092919050505061111f565b6040518082815260200191505060405180910390f35b34801561084457600080fd5b5061086360048036038101908080359060200190929190505050611137565b6040518082815260200191505060405180910390f35b34801561088557600080fd5b506108c4600480360381019080803573ffffffffffffffffffffffffffffffffffffffff1690602001909291908035906020019092919050505061114f565b604051808215151515815260200191505060405180910390f35b3480156108ea57600080fd5b506109096004803603810190808035906020019092919050505061117e565b6040518082815260200191505060405180910390f35b6012602052816000526040600020602052806000526040600020600091509150505481565b60176020528060005260406000206000915090505481565b6009602052816000526040600020602052806000526040600020600091509150505481565b6003602052816000526040600020602052806000526040600020600091509150505481565b60136020528060005260406000206000915054906101000a900473ffffffffffffffffffffffffffffffffffffffff1681565b600c60205282600052604060002060205281600052604060002060205280600052604060002060009250925050505481565b600a6020528060005260406000206000915090505481565b60156020528060005260406000206000915090505481565b60146020528060005260406000206000915090505481565b6002602052816000526040600020602052806000526040600020600091509150505481565b60056020528060005260406000206000915090505481565b600b6020528060005260406000206000915090505481565b600f60205282600052604060002060205281600052604060002060205280600052604060002060009250925050505481565b60066020528060005260406000206000915090505481565b60076020528060005260406000206000915054906101000a900473ffffffffffffffffffffffffffffffffffffffff1681565b60165481565b6011602052816000526040600020602052806000526040600020600091509150505481565b600d602052816000526040600020602052806000526040600020600091509150505481565b600e6020528360005260406000206020528260005260406000206020528160005260406000206020528060005260406000206000935093505050505481565b6000806000806000806000601560003373ffffffffffffffffffffffffffffffffffffffff1673ffffffffffffffffffffffffffffffffffffffff1681526020019081526020016000205496506000601560003373ffffffffffffffffffffffffffffffffffffffff1673ffffffffffffffffffffffffffffffffffffffff16815260200190815260200160002054118015610c63575060016014600089815260200190815260200160002054145b1515610cfd576040517f08c379a00000000000000000000000000000000000000000000000000000000081526004018080602001828103825260318152602001807f42616e6b206f662074696d6520776173206e6f7420706c6179656420696e207981526020017f6f7572206c61737420726f756e642e2e2e00000000000000000000000000000081525060400191505060405180910390fd5b600b6000888152602001908152602001600020549550600a6000888152602001908152602001600020549450600d600088815260200190815260200160002060003373ffffffffffffffffffffffffffffffffffffffff1673ffffffffffffffffffffffffffffffffffffffff1681526020019081526020016000205492508291505b6000821115610e1857600f600088815260200190815260200160002060003373ffffffffffffffffffffffffffffffffffffffff1673ffffffffffffffffffffffffffffffffffffffff16815260200190815260200160002060008381526020019081526020016000205490508481118015610dfc5750858111155b15610e0a5783806001019450505b818060019003925050610d80565b610e6260008089815260200190815260200160002054610e54600560008b8152602001908152602001600020548761119690919063ffffffff16565b6111d490919063ffffffff16565b6012600089815260200190815260200160002060003373ffffffffffffffffffffffffffffffffffffffff1673ffffffffffffffffffffffffffffffffffffffff168152602001908152602001600020600082825401925050819055506012600088815260200190815260200160002060003373ffffffffffffffffffffffffffffffffffffffff1673ffffffffffffffffffffffffffffffffffffffff16815260200190815260200160002054601760003373ffffffffffffffffffffffffffffffffffffffff1673ffffffffffffffffffffffffffffffffffffffff168152602001908152602001600020600082825401925050819055503373ffffffffffffffffffffffffffffffffffffffff166108fc601260008a815260200190815260200160002060003373ffffffffffffffffffffffffffffffffffffffff1673ffffffffffffffffffffffffffffffffffffffff168152602001908152602001600020549081150290604051600060405180830381858888f19350505050158015610ff2573d6000803e3d6000fd5b506001601060003373ffffffffffffffffffffffffffffffffffffffff1673ffffffffffffffffffffffffffffffffffffffff168152602001908152602001600020600089815260200190815260200160002060006101000a81548160ff0219169083151502179055506011600088815260200190815260200160002060003373ffffffffffffffffffffffffffffffffffffffff1673ffffffffffffffffffffffffffffffffffffffff16815260200190815260200160002054873373ffffffffffffffffffffffffffffffffffffffff167f8981f49dce2918fc89fa176fbbd90d8546f51779930f7b458ca6a0d4856f878c60405160405180910390a450505050505050565b6001602052816000526040600020602052806000526040600020600091509150505481565b60006020528060005260406000206000915090505481565b60046020528060005260406000206000915090505481565b60106020528160005260406000206020528060005260406000206000915091509054906101000a900460ff1681565b60086020528060005260406000206000915090505481565b60008060008414156111ab57600091506111cd565b82840290508284828115156111bc57fe5b041415156111c957600080fd5b8091505b5092915050565b6000806000831115156111e657600080fd5b82848115156111f157fe5b04905080915050929150505600a165627a7a72305820e62c8874198a41b926ea3545e087fe83fd3d689d4e20886150b6430664dba6b30029",
  "source": "pragma solidity ^0.4.24;\nimport \"./RoundDataHolder.sol\";\n\ncontract TimeBankDistributor is RoundDataHolder {\n    \n    using SafeMath for uint;\n    \n    //сколько всего банка времени выиграл адрес (в сумме за все время) (адрес => сумма общего выигрыша)\n    mapping(address => uint) public addressToTimeBankPrizeTotal; \n\n    \n    event TimeBankPlayed(address indexed winner, uint indexed currentRound);\n    event TimeBankPrizeDistributed(address indexed winner, uint indexed round, uint indexed amount);\n    \n    //запросить приз банка времени за послений раунд в котором пользователь принимал участие\n    function claimTimeBankPrizeForLastPlayedRound() public { \n\n        //последний раунд в котором пользователь принимал участие\n        uint round = lastPlayedRound[msg.sender];\n\n        //функция может быть вызвана только если в последнем раунде был разыгран банк времени\n        require(lastPlayedRound[msg.sender] > 0 && winnerBankForRound[round] == 1, \"Bank of time was not played in your last round...\");\n\n        //время завершения сбора команды приза для раунда\n        uint end = teamEndedTimeForRound[round];\n\n        //время начала сбора команды приза для раунда\n        uint start = teamStartedTimeForRound[round];\n\n        //cчетчик количества закрашиваний\n        uint counter;\n        \n        //счетчик общего количества закрашиваний любым цветом для пользователя за раунд     \n        uint total = addressToTotalCounterForRound[round][msg.sender]; \n\n        //считаем сколько закрашиваний любым цветом произвел пользователь за последние 24 часа\n        for (uint i = total; i > 0; i--) {\n            uint timeStamp = addressToCounterToTimestampForRound[round][msg.sender][i];\n            if (timeStamp > start && timeStamp <= end) //т.к. (<= end), то последний закрасивший также принимает участие\n                counter++;\n        }\n        \n        //устанавливаем какую часть от банка времени выиграл адрес за последний раунд в котором принимал участие\n        addressToTimeBankPrizeForRound[round][msg.sender] += counter.mul(timeBankForRound[round]).div(totalPaintsForRound[round]);\n\n        //добавляем полученное значение в сумму выигрышей банка времени пользователем за все время\n        addressToTimeBankPrizeTotal[msg.sender] += addressToTimeBankPrizeForRound[round][msg.sender];\n        \n        //переводим пользователю его выигрыш за последний раунд в котором он принимал участие\n        msg.sender.transfer(addressToTimeBankPrizeForRound[round][msg.sender]);\n\n        //устанавливаем булевое значение о том, что пользователь получил свой приз за раунд\n        isPrizeDistributedForRound[msg.sender][round] = true;\n\n        //вызываем ивент - о том, что приз банка времени распределен пользователю (адрес, раунд, выигрыщ)\n        emit TimeBankPrizeDistributed(msg.sender, round, addressToColorBankPrizeForRound[round][msg.sender]);\n    }\n    \n    //функция распределения банка времени\n    function _distributeTimeBank() internal  {\n\n        //начало сбора команды раунда (24 часа назад)\n        teamStartedTimeForRound[currentRound] = now - 24 hours;\n\n        //время завершения сбора команды раунда (сейчас)\n        teamEndedTimeForRound[currentRound] = now;\n\n        //победитель текущего раунда - последний закрасивший пиксель пользователь за этот раунд\n        winnerOfRound[currentRound] = lastPainterForRound[currentRound];\n        \n         //Checks-Effects-Interactions pattern\n        uint amountToTransfer = timeBankForRound[currentRound].mul(45).div(100);\n\n        //переводим 45% банка времени победителю текущего раунда\n        winnerOfRound[currentRound].transfer(amountToTransfer);\n                \n        //разыгранный банк этого раунда = банк времени (1)\n        winnerBankForRound[currentRound] = 1; \n\n        //10% банка времени переходит в следующий раунд\n        timeBankForRound[currentRound + 1] = timeBankForRound[currentRound].div(10); \n        \n        //45% банка времени распределится между всей командой участников раунда\n        timeBankForRound[currentRound] = timeBankForRound[currentRound].mul(45).div(100); \n\n        //банк цвета переносится на следующий раунд\n        colorBankForRound[currentRound + 1] = colorBankForRound[currentRound]; \n\n        //в этом раунде банк цвета обнуляется\n        colorBankForRound[currentRound] = 0; \n\n        //возвращаем средства пользователя назад, так как этот раунд завершен и закрашивание не засчиталось\n        msg.sender.transfer(msg.value); \n\n        //ивент - был разыгран банк времени (победитель, раунд)\n        emit TimeBankPlayed(winnerOfRound[currentRound], currentRound);\n        \n        //следующий раунд\n        currentRound = currentRound.add(1); \n    }\n}",
  "sourcePath": "/Users/Amir/last-pixel-contracts/contracts/TimeBankDistributor.sol",
  "compiler": {
    "name": "solc",
    "version": "0.4.24+commit.e67f0147.Emscripten.clang"
  },
  "schemaVersion": "2.0.1",
  "updatedAt": "2018-11-28T12:37:22.346Z"
}