{
  "contractName": "TimeTeam",
  "abi": [
    {
      "constant": true,
      "inputs": [],
      "name": "isGamePaused",
      "outputs": [
        {
          "name": "",
          "type": "bool"
        }
      ],
      "payable": false,
      "stateMutability": "view",
      "type": "function"
    },
    {
      "constant": true,
      "inputs": [
        {
          "name": "",
          "type": "uint256"
        },
        {
          "name": "",
          "type": "address"
        }
      ],
      "name": "isInTBT",
      "outputs": [
        {
          "name": "",
          "type": "bool"
        }
      ],
      "payable": false,
      "stateMutability": "view",
      "type": "function"
    },
    {
      "constant": true,
      "inputs": [
        {
          "name": "",
          "type": "bytes32"
        }
      ],
      "name": "refLinkToUser",
      "outputs": [
        {
          "name": "",
          "type": "address"
        }
      ],
      "payable": false,
      "stateMutability": "view",
      "type": "function"
    },
    {
      "constant": true,
      "inputs": [
        {
          "name": "",
          "type": "uint256"
        }
      ],
      "name": "ownerOfColor",
      "outputs": [
        {
          "name": "",
          "type": "address"
        }
      ],
      "payable": false,
      "stateMutability": "view",
      "type": "function"
    },
    {
      "constant": true,
      "inputs": [
        {
          "name": "",
          "type": "uint256"
        },
        {
          "name": "",
          "type": "uint256"
        }
      ],
      "name": "colorToPaintedPixelsAmountForRound",
      "outputs": [
        {
          "name": "",
          "type": "uint256"
        }
      ],
      "payable": false,
      "stateMutability": "view",
      "type": "function"
    },
    {
      "constant": true,
      "inputs": [],
      "name": "tbIteration",
      "outputs": [
        {
          "name": "",
          "type": "uint256"
        }
      ],
      "payable": false,
      "stateMutability": "view",
      "type": "function"
    },
    {
      "constant": true,
      "inputs": [
        {
          "name": "",
          "type": "uint256"
        }
      ],
      "name": "winnerOfRound",
      "outputs": [
        {
          "name": "",
          "type": "address"
        }
      ],
      "payable": false,
      "stateMutability": "view",
      "type": "function"
    },
    {
      "constant": true,
      "inputs": [
        {
          "name": "",
          "type": "uint256"
        }
      ],
      "name": "timeBankDrawnForRound",
      "outputs": [
        {
          "name": "",
          "type": "bool"
        }
      ],
      "payable": false,
      "stateMutability": "view",
      "type": "function"
    },
    {
      "constant": true,
      "inputs": [
        {
          "name": "",
          "type": "address"
        }
      ],
      "name": "hasReferrer",
      "outputs": [
        {
          "name": "",
          "type": "bool"
        }
      ],
      "payable": false,
      "stateMutability": "view",
      "type": "function"
    },
    {
      "constant": true,
      "inputs": [
        {
          "name": "",
          "type": "uint256"
        },
        {
          "name": "",
          "type": "uint256"
        }
      ],
      "name": "colorToTotalPaintsForCBIteration",
      "outputs": [
        {
          "name": "",
          "type": "uint256"
        }
      ],
      "payable": false,
      "stateMutability": "view",
      "type": "function"
    },
    {
      "constant": true,
      "inputs": [],
      "name": "totalColorsNumber",
      "outputs": [
        {
          "name": "",
          "type": "uint256"
        }
      ],
      "payable": false,
      "stateMutability": "view",
      "type": "function"
    },
    {
      "constant": true,
      "inputs": [
        {
          "name": "",
          "type": "address"
        }
      ],
      "name": "isRegisteredUser",
      "outputs": [
        {
          "name": "",
          "type": "bool"
        }
      ],
      "payable": false,
      "stateMutability": "view",
      "type": "function"
    },
    {
      "constant": true,
      "inputs": [
        {
          "name": "",
          "type": "uint256"
        },
        {
          "name": "",
          "type": "address"
        }
      ],
      "name": "hasPaintDiscountForColor",
      "outputs": [
        {
          "name": "",
          "type": "bool"
        }
      ],
      "payable": false,
      "stateMutability": "view",
      "type": "function"
    },
    {
      "constant": true,
      "inputs": [],
      "name": "isTBPDistributable",
      "outputs": [
        {
          "name": "",
          "type": "bool"
        }
      ],
      "payable": false,
      "stateMutability": "view",
      "type": "function"
    },
    {
      "constant": true,
      "inputs": [
        {
          "name": "",
          "type": "address"
        }
      ],
      "name": "isAdmin",
      "outputs": [
        {
          "name": "",
          "type": "bool"
        }
      ],
      "payable": false,
      "stateMutability": "view",
      "type": "function"
    },
    {
      "constant": true,
      "inputs": [
        {
          "name": "",
          "type": "uint256"
        }
      ],
      "name": "currentPaintGenForColor",
      "outputs": [
        {
          "name": "",
          "type": "uint256"
        }
      ],
      "payable": false,
      "stateMutability": "view",
      "type": "function"
    },
    {
      "constant": true,
      "inputs": [
        {
          "name": "",
          "type": "address"
        }
      ],
      "name": "lastPlayedRound",
      "outputs": [
        {
          "name": "",
          "type": "uint256"
        }
      ],
      "payable": false,
      "stateMutability": "view",
      "type": "function"
    },
    {
      "constant": true,
      "inputs": [
        {
          "name": "",
          "type": "uint256"
        },
        {
          "name": "",
          "type": "address"
        }
      ],
      "name": "moneySpentByUserForColor",
      "outputs": [
        {
          "name": "",
          "type": "uint256"
        }
      ],
      "payable": false,
      "stateMutability": "view",
      "type": "function"
    },
    {
      "constant": true,
      "inputs": [
        {
          "name": "",
          "type": "uint256"
        },
        {
          "name": "",
          "type": "uint256"
        }
      ],
      "name": "tbTeam",
      "outputs": [
        {
          "name": "",
          "type": "address"
        }
      ],
      "payable": false,
      "stateMutability": "view",
      "type": "function"
    },
    {
      "constant": true,
      "inputs": [
        {
          "name": "",
          "type": "uint256"
        },
        {
          "name": "",
          "type": "address"
        }
      ],
      "name": "painterToTBP",
      "outputs": [
        {
          "name": "",
          "type": "uint256"
        }
      ],
      "payable": false,
      "stateMutability": "view",
      "type": "function"
    },
    {
      "constant": true,
      "inputs": [
        {
          "name": "",
          "type": "uint256"
        },
        {
          "name": "",
          "type": "uint256"
        }
      ],
      "name": "paintGenToStartTimeForColor",
      "outputs": [
        {
          "name": "",
          "type": "uint256"
        }
      ],
      "payable": false,
      "stateMutability": "view",
      "type": "function"
    },
    {
      "constant": true,
      "inputs": [
        {
          "name": "",
          "type": "uint256"
        }
      ],
      "name": "callPriceForColor",
      "outputs": [
        {
          "name": "",
          "type": "uint256"
        }
      ],
      "payable": false,
      "stateMutability": "view",
      "type": "function"
    },
    {
      "constant": true,
      "inputs": [
        {
          "name": "",
          "type": "uint256"
        },
        {
          "name": "",
          "type": "address"
        }
      ],
      "name": "painterToCBP",
      "outputs": [
        {
          "name": "",
          "type": "uint256"
        }
      ],
      "payable": false,
      "stateMutability": "view",
      "type": "function"
    },
    {
      "constant": true,
      "inputs": [
        {
          "name": "",
          "type": "uint256"
        }
      ],
      "name": "winnerBankForRound",
      "outputs": [
        {
          "name": "",
          "type": "uint256"
        }
      ],
      "payable": false,
      "stateMutability": "view",
      "type": "function"
    },
    {
      "constant": true,
      "inputs": [],
      "name": "paintsCounter",
      "outputs": [
        {
          "name": "",
          "type": "uint256"
        }
      ],
      "payable": false,
      "stateMutability": "view",
      "type": "function"
    },
    {
      "constant": true,
      "inputs": [],
      "name": "founders",
      "outputs": [
        {
          "name": "",
          "type": "address"
        }
      ],
      "payable": false,
      "stateMutability": "view",
      "type": "function"
    },
    {
      "constant": true,
      "inputs": [
        {
          "name": "",
          "type": "address"
        }
      ],
      "name": "newUserToCounter",
      "outputs": [
        {
          "name": "",
          "type": "uint256"
        }
      ],
      "payable": false,
      "stateMutability": "view",
      "type": "function"
    },
    {
      "constant": true,
      "inputs": [
        {
          "name": "",
          "type": "uint256"
        },
        {
          "name": "",
          "type": "uint256"
        }
      ],
      "name": "counterToPainterForColor",
      "outputs": [
        {
          "name": "",
          "type": "address"
        }
      ],
      "payable": false,
      "stateMutability": "view",
      "type": "function"
    },
    {
      "constant": true,
      "inputs": [
        {
          "name": "",
          "type": "uint256"
        },
        {
          "name": "",
          "type": "uint256"
        }
      ],
      "name": "pixelToOldColorForRound",
      "outputs": [
        {
          "name": "",
          "type": "uint256"
        }
      ],
      "payable": false,
      "stateMutability": "view",
      "type": "function"
    },
    {
      "constant": true,
      "inputs": [
        {
          "name": "",
          "type": "uint256"
        }
      ],
      "name": "isTBPTransfered",
      "outputs": [
        {
          "name": "",
          "type": "bool"
        }
      ],
      "payable": false,
      "stateMutability": "view",
      "type": "function"
    },
    {
      "constant": true,
      "inputs": [
        {
          "name": "",
          "type": "uint256"
        }
      ],
      "name": "timeBankForRound",
      "outputs": [
        {
          "name": "",
          "type": "uint256"
        }
      ],
      "payable": false,
      "stateMutability": "view",
      "type": "function"
    },
    {
      "constant": true,
      "inputs": [
        {
          "name": "",
          "type": "address"
        }
      ],
      "name": "userToRefLink",
      "outputs": [
        {
          "name": "",
          "type": "string"
        }
      ],
      "payable": false,
      "stateMutability": "view",
      "type": "function"
    },
    {
      "constant": true,
      "inputs": [],
      "name": "claimId",
      "outputs": [
        {
          "name": "",
          "type": "uint256"
        }
      ],
      "payable": false,
      "stateMutability": "view",
      "type": "function"
    },
    {
      "constant": true,
      "inputs": [
        {
          "name": "",
          "type": "uint256"
        },
        {
          "name": "",
          "type": "uint256"
        }
      ],
      "name": "cbTeam",
      "outputs": [
        {
          "name": "",
          "type": "address"
        }
      ],
      "payable": false,
      "stateMutability": "view",
      "type": "function"
    },
    {
      "constant": true,
      "inputs": [
        {
          "name": "",
          "type": "uint256"
        },
        {
          "name": "",
          "type": "uint256"
        }
      ],
      "name": "paintGenStartedForColor",
      "outputs": [
        {
          "name": "",
          "type": "bool"
        }
      ],
      "payable": false,
      "stateMutability": "view",
      "type": "function"
    },
    {
      "constant": true,
      "inputs": [
        {
          "name": "",
          "type": "uint256"
        }
      ],
      "name": "usersCounterForRound",
      "outputs": [
        {
          "name": "",
          "type": "uint256"
        }
      ],
      "payable": false,
      "stateMutability": "view",
      "type": "function"
    },
    {
      "constant": true,
      "inputs": [
        {
          "name": "",
          "type": "uint256"
        }
      ],
      "name": "lastPaintedPixelForRound",
      "outputs": [
        {
          "name": "",
          "type": "uint256"
        }
      ],
      "payable": false,
      "stateMutability": "view",
      "type": "function"
    },
    {
      "constant": true,
      "inputs": [
        {
          "name": "",
          "type": "uint256"
        }
      ],
      "name": "nextCallPriceForColor",
      "outputs": [
        {
          "name": "",
          "type": "uint256"
        }
      ],
      "payable": false,
      "stateMutability": "view",
      "type": "function"
    },
    {
      "constant": false,
      "inputs": [],
      "name": "renounceOwnership",
      "outputs": [],
      "payable": false,
      "stateMutability": "nonpayable",
      "type": "function"
    },
    {
      "constant": true,
      "inputs": [
        {
          "name": "",
          "type": "uint256"
        }
      ],
      "name": "lastPaintTimeForRound",
      "outputs": [
        {
          "name": "",
          "type": "uint256"
        }
      ],
      "payable": false,
      "stateMutability": "view",
      "type": "function"
    },
    {
      "constant": true,
      "inputs": [],
      "name": "isCBPDistributable",
      "outputs": [
        {
          "name": "",
          "type": "bool"
        }
      ],
      "payable": false,
      "stateMutability": "view",
      "type": "function"
    },
    {
      "constant": true,
      "inputs": [
        {
          "name": "",
          "type": "uint256"
        }
      ],
      "name": "lastPainterForRound",
      "outputs": [
        {
          "name": "",
          "type": "address"
        }
      ],
      "payable": false,
      "stateMutability": "view",
      "type": "function"
    },
    {
      "constant": true,
      "inputs": [
        {
          "name": "",
          "type": "address"
        }
      ],
      "name": "hasRefLink",
      "outputs": [
        {
          "name": "",
          "type": "bool"
        }
      ],
      "payable": false,
      "stateMutability": "view",
      "type": "function"
    },
    {
      "constant": true,
      "inputs": [
        {
          "name": "",
          "type": "address"
        }
      ],
      "name": "registrationTimeForUser",
      "outputs": [
        {
          "name": "",
          "type": "uint256"
        }
      ],
      "payable": false,
      "stateMutability": "view",
      "type": "function"
    },
    {
      "constant": true,
      "inputs": [
        {
          "name": "",
          "type": "address"
        }
      ],
      "name": "lastPaintTimeOfUser",
      "outputs": [
        {
          "name": "",
          "type": "uint256"
        }
      ],
      "payable": false,
      "stateMutability": "view",
      "type": "function"
    },
    {
      "constant": true,
      "inputs": [
        {
          "name": "",
          "type": "address"
        },
        {
          "name": "",
          "type": "uint256"
        }
      ],
      "name": "referrerToReferrals",
      "outputs": [
        {
          "name": "",
          "type": "address"
        }
      ],
      "payable": false,
      "stateMutability": "view",
      "type": "function"
    },
    {
      "constant": true,
      "inputs": [],
      "name": "currentRound",
      "outputs": [
        {
          "name": "",
          "type": "uint256"
        }
      ],
      "payable": false,
      "stateMutability": "view",
      "type": "function"
    },
    {
      "constant": true,
      "inputs": [],
      "name": "owner",
      "outputs": [
        {
          "name": "",
          "type": "address"
        }
      ],
      "payable": false,
      "stateMutability": "view",
      "type": "function"
    },
    {
      "constant": true,
      "inputs": [
        {
          "name": "",
          "type": "uint256"
        }
      ],
      "name": "paintsCounterForColor",
      "outputs": [
        {
          "name": "",
          "type": "uint256"
        }
      ],
      "payable": false,
      "stateMutability": "view",
      "type": "function"
    },
    {
      "constant": true,
      "inputs": [],
      "name": "isOwner",
      "outputs": [
        {
          "name": "",
          "type": "bool"
        }
      ],
      "payable": false,
      "stateMutability": "view",
      "type": "function"
    },
    {
      "constant": true,
      "inputs": [
        {
          "name": "",
          "type": "uint256"
        },
        {
          "name": "",
          "type": "uint256"
        }
      ],
      "name": "pixelToPaintTimeForRound",
      "outputs": [
        {
          "name": "",
          "type": "uint256"
        }
      ],
      "payable": false,
      "stateMutability": "view",
      "type": "function"
    },
    {
      "constant": true,
      "inputs": [
        {
          "name": "",
          "type": "uint256"
        },
        {
          "name": "",
          "type": "uint256"
        }
      ],
      "name": "colorBankToColorForRound",
      "outputs": [
        {
          "name": "",
          "type": "uint256"
        }
      ],
      "payable": false,
      "stateMutability": "view",
      "type": "function"
    },
    {
      "constant": true,
      "inputs": [
        {
          "name": "",
          "type": "uint256"
        }
      ],
      "name": "claims",
      "outputs": [
        {
          "name": "id",
          "type": "uint256"
        },
        {
          "name": "claimer",
          "type": "address"
        },
        {
          "name": "isResolved",
          "type": "bool"
        },
        {
          "name": "timestamp",
          "type": "uint256"
        }
      ],
      "payable": false,
      "stateMutability": "view",
      "type": "function"
    },
    {
      "constant": true,
      "inputs": [],
      "name": "ownerOfPixel",
      "outputs": [
        {
          "name": "",
          "type": "address"
        }
      ],
      "payable": false,
      "stateMutability": "view",
      "type": "function"
    },
    {
      "constant": true,
      "inputs": [
        {
          "name": "",
          "type": "uint256"
        },
        {
          "name": "",
          "type": "address"
        }
      ],
      "name": "isInCBT",
      "outputs": [
        {
          "name": "",
          "type": "bool"
        }
      ],
      "payable": false,
      "stateMutability": "view",
      "type": "function"
    },
    {
      "constant": true,
      "inputs": [
        {
          "name": "",
          "type": "uint256"
        }
      ],
      "name": "counterToPainter",
      "outputs": [
        {
          "name": "",
          "type": "address"
        }
      ],
      "payable": false,
      "stateMutability": "view",
      "type": "function"
    },
    {
      "constant": true,
      "inputs": [
        {
          "name": "",
          "type": "uint256"
        },
        {
          "name": "",
          "type": "address"
        }
      ],
      "name": "timeBankShare",
      "outputs": [
        {
          "name": "",
          "type": "uint256"
        }
      ],
      "payable": false,
      "stateMutability": "view",
      "type": "function"
    },
    {
      "constant": true,
      "inputs": [
        {
          "name": "",
          "type": "uint256"
        },
        {
          "name": "",
          "type": "uint256"
        },
        {
          "name": "",
          "type": "address"
        }
      ],
      "name": "colorBankShare",
      "outputs": [
        {
          "name": "",
          "type": "uint256"
        }
      ],
      "payable": false,
      "stateMutability": "view",
      "type": "function"
    },
    {
      "constant": true,
      "inputs": [
        {
          "name": "",
          "type": "uint256"
        },
        {
          "name": "",
          "type": "address"
        }
      ],
      "name": "lastPaintTimeOfUserForColor",
      "outputs": [
        {
          "name": "",
          "type": "uint256"
        }
      ],
      "payable": false,
      "stateMutability": "view",
      "type": "function"
    },
    {
      "constant": true,
      "inputs": [
        {
          "name": "",
          "type": "uint256"
        },
        {
          "name": "",
          "type": "uint256"
        }
      ],
      "name": "pixelToColorForRound",
      "outputs": [
        {
          "name": "",
          "type": "uint256"
        }
      ],
      "payable": false,
      "stateMutability": "view",
      "type": "function"
    },
    {
      "constant": true,
      "inputs": [
        {
          "name": "",
          "type": "uint256"
        }
      ],
      "name": "totalPaintsForRound",
      "outputs": [
        {
          "name": "",
          "type": "uint256"
        }
      ],
      "payable": false,
      "stateMutability": "view",
      "type": "function"
    },
    {
      "constant": true,
      "inputs": [
        {
          "name": "",
          "type": "uint256"
        }
      ],
      "name": "colorBankForRound",
      "outputs": [
        {
          "name": "",
          "type": "uint256"
        }
      ],
      "payable": false,
      "stateMutability": "view",
      "type": "function"
    },
    {
      "constant": true,
      "inputs": [
        {
          "name": "",
          "type": "uint256"
        },
        {
          "name": "",
          "type": "uint256"
        }
      ],
      "name": "paintGenToEndTimeForColor",
      "outputs": [
        {
          "name": "",
          "type": "uint256"
        }
      ],
      "payable": false,
      "stateMutability": "view",
      "type": "function"
    },
    {
      "constant": true,
      "inputs": [],
      "name": "refLinkPrice",
      "outputs": [
        {
          "name": "",
          "type": "uint256"
        }
      ],
      "payable": false,
      "stateMutability": "view",
      "type": "function"
    },
    {
      "constant": true,
      "inputs": [],
      "name": "uniqueUsersCount",
      "outputs": [
        {
          "name": "",
          "type": "uint256"
        }
      ],
      "payable": false,
      "stateMutability": "view",
      "type": "function"
    },
    {
      "constant": true,
      "inputs": [
        {
          "name": "",
          "type": "bytes32"
        }
      ],
      "name": "refLinkExists",
      "outputs": [
        {
          "name": "",
          "type": "bool"
        }
      ],
      "payable": false,
      "stateMutability": "view",
      "type": "function"
    },
    {
      "constant": true,
      "inputs": [
        {
          "name": "",
          "type": "uint256"
        },
        {
          "name": "",
          "type": "uint256"
        }
      ],
      "name": "paintGenToAmountForColor",
      "outputs": [
        {
          "name": "",
          "type": "uint256"
        }
      ],
      "payable": false,
      "stateMutability": "view",
      "type": "function"
    },
    {
      "constant": true,
      "inputs": [
        {
          "name": "",
          "type": "uint256"
        }
      ],
      "name": "isCBPTransfered",
      "outputs": [
        {
          "name": "",
          "type": "bool"
        }
      ],
      "payable": false,
      "stateMutability": "view",
      "type": "function"
    },
    {
      "constant": true,
      "inputs": [
        {
          "name": "",
          "type": "address"
        }
      ],
      "name": "referralToReferrer",
      "outputs": [
        {
          "name": "",
          "type": "address"
        }
      ],
      "payable": false,
      "stateMutability": "view",
      "type": "function"
    },
    {
      "constant": true,
      "inputs": [
        {
          "name": "",
          "type": "uint256"
        },
        {
          "name": "",
          "type": "address"
        }
      ],
      "name": "usersPaintDiscountForColor",
      "outputs": [
        {
          "name": "",
          "type": "uint256"
        }
      ],
      "payable": false,
      "stateMutability": "view",
      "type": "function"
    },
    {
      "constant": true,
      "inputs": [],
      "name": "maxPaintsInPool",
      "outputs": [
        {
          "name": "",
          "type": "uint256"
        }
      ],
      "payable": false,
      "stateMutability": "view",
      "type": "function"
    },
    {
      "constant": true,
      "inputs": [],
      "name": "totalPixelsNumber",
      "outputs": [
        {
          "name": "",
          "type": "uint256"
        }
      ],
      "payable": false,
      "stateMutability": "view",
      "type": "function"
    },
    {
      "constant": false,
      "inputs": [
        {
          "name": "newOwner",
          "type": "address"
        }
      ],
      "name": "transferOwnership",
      "outputs": [],
      "payable": false,
      "stateMutability": "nonpayable",
      "type": "function"
    },
    {
      "constant": true,
      "inputs": [
        {
          "name": "",
          "type": "address"
        }
      ],
      "name": "pendingWithdrawals",
      "outputs": [
        {
          "name": "",
          "type": "uint256"
        }
      ],
      "payable": false,
      "stateMutability": "view",
      "type": "function"
    },
    {
      "constant": true,
      "inputs": [
        {
          "name": "",
          "type": "uint256"
        }
      ],
      "name": "winnerColorForRound",
      "outputs": [
        {
          "name": "",
          "type": "uint256"
        }
      ],
      "payable": false,
      "stateMutability": "view",
      "type": "function"
    },
    {
      "constant": true,
      "inputs": [],
      "name": "dividendsBank",
      "outputs": [
        {
          "name": "",
          "type": "uint256"
        }
      ],
      "payable": false,
      "stateMutability": "view",
      "type": "function"
    },
    {
      "constant": true,
      "inputs": [],
      "name": "cbIteration",
      "outputs": [
        {
          "name": "",
          "type": "uint256"
        }
      ],
      "payable": false,
      "stateMutability": "view",
      "type": "function"
    },
    {
      "anonymous": false,
      "inputs": [
        {
          "indexed": true,
          "name": "round",
          "type": "uint256"
        },
        {
          "indexed": true,
          "name": "cbIteration",
          "type": "uint256"
        },
        {
          "indexed": true,
          "name": "winner",
          "type": "address"
        },
        {
          "indexed": false,
          "name": "prize",
          "type": "uint256"
        }
      ],
      "name": "CBPDistributed",
      "type": "event"
    },
    {
      "anonymous": false,
      "inputs": [
        {
          "indexed": true,
          "name": "withdrawer",
          "type": "address"
        },
        {
          "indexed": true,
          "name": "claimId",
          "type": "uint256"
        },
        {
          "indexed": true,
          "name": "amount",
          "type": "uint256"
        }
      ],
      "name": "DividendsWithdrawn",
      "type": "event"
    },
    {
      "anonymous": false,
      "inputs": [
        {
          "indexed": true,
          "name": "claimer",
          "type": "address"
        },
        {
          "indexed": true,
          "name": "claimId",
          "type": "uint256"
        },
        {
          "indexed": true,
          "name": "currentTime",
          "type": "uint256"
        }
      ],
      "name": "DividendsClaimed",
      "type": "event"
    },
    {
      "anonymous": false,
      "inputs": [
        {
          "indexed": true,
          "name": "pixelId",
          "type": "uint256"
        },
        {
          "indexed": false,
          "name": "colorId",
          "type": "uint256"
        },
        {
          "indexed": true,
          "name": "painter",
          "type": "address"
        },
        {
          "indexed": true,
          "name": "round",
          "type": "uint256"
        },
        {
          "indexed": false,
          "name": "timestamp",
          "type": "uint256"
        }
      ],
      "name": "Paint",
      "type": "event"
    },
    {
      "anonymous": false,
      "inputs": [
        {
          "indexed": false,
          "name": "winnerOfRound",
          "type": "address"
        },
        {
          "indexed": true,
          "name": "round",
          "type": "uint256"
        }
      ],
      "name": "ColorBankPlayed",
      "type": "event"
    },
    {
      "anonymous": false,
      "inputs": [
        {
          "indexed": false,
          "name": "winnerOfRound",
          "type": "address"
        },
        {
          "indexed": true,
          "name": "round",
          "type": "uint256"
        }
      ],
      "name": "TimeBankPlayed",
      "type": "event"
    },
    {
      "anonymous": false,
      "inputs": [
        {
          "indexed": true,
          "name": "newCallPrice",
          "type": "uint256"
        }
      ],
      "name": "CallPriceUpdated",
      "type": "event"
    },
    {
      "anonymous": false,
      "inputs": [
        {
          "indexed": true,
          "name": "round",
          "type": "uint256"
        },
        {
          "indexed": true,
          "name": "tbIteration",
          "type": "uint256"
        },
        {
          "indexed": true,
          "name": "winner",
          "type": "address"
        },
        {
          "indexed": false,
          "name": "prize",
          "type": "uint256"
        }
      ],
      "name": "TBPDistributed",
      "type": "event"
    },
    {
      "anonymous": false,
      "inputs": [
        {
          "indexed": true,
          "name": "previousOwner",
          "type": "address"
        },
        {
          "indexed": true,
          "name": "newOwner",
          "type": "address"
        }
      ],
      "name": "OwnershipTransferred",
      "type": "event"
    },
    {
      "constant": false,
      "inputs": [],
      "name": "distributeTBP",
      "outputs": [],
      "payable": false,
      "stateMutability": "nonpayable",
      "type": "function"
    }
  ],
  "bytecode": "0x608060405273ca35b7d915458ef540ade6068dfe2f44e8fa733c604060006101000a81548173ffffffffffffffffffffffffffffffffffffffff021916908373ffffffffffffffffffffffffffffffffffffffff160217905550733e4d187df7d8a0820eaf4174d17b160157610912604160006101000a81548173ffffffffffffffffffffffffffffffffffffffff021916908373ffffffffffffffffffffffffffffffffffffffff160217905550336000806101000a81548173ffffffffffffffffffffffffffffffffffffffff021916908373ffffffffffffffffffffffffffffffffffffffff1602179055506000809054906101000a900473ffffffffffffffffffffffffffffffffffffffff1673ffffffffffffffffffffffffffffffffffffffff16600073ffffffffffffffffffffffffffffffffffffffff167f8be0079c531659141344cd1fd0a4f28419497f9722a3daafe3b4186f6b6457e060405160405180910390a36131d2806101796000396000f300608060405260043610610390576000357c0100000000000000000000000000000000000000000000000000000000900463ffffffff1680630422ddf31461039557806305bdd0be146103c4578063099b81ce146104295780630baaea441461049a5780630cf9603f146105075780630f6ed86e14610552578063102f97131461057d57806315682a66146105ea57806318452cd81461062f57806319ef6a061461068a5780631d64873b146106d55780631f5bdf5d146107005780631f90c6ed1461075b57806321423af8146107c057806324d7806c146107ef57806328361f571461084a57806328b290f91461088b5780632c6c1c41146108e25780632c7a3dae1461094357806333f9c388146109ba5780633a17350514610a1b5780633c6dd01314610a665780633ca4c18314610aa75780633d0d1a7914610b085780633dc3c37714610b49578063411b007e14610b7457806341c5464e14610bcb57806342e453ec14610c225780634b39173d14610c995780634c438ad714610ce45780634c78e40114610d295780635bfcdb2714610d6a5780635c25fd1314610e265780635d63ebb214610e515780635f5d554c14610ec85780636256655614610f17578063628a71a314610f585780636f17eb4214610f99578063715018a614610fda57806373a9ee2614610ff157806376f5d96a1461103257806379ecf376146110615780637e1e175c146110ce578063846c4c37146111295780638500b7b71461118057806387982ac3146111d75780638a19c8bc146112645780638da5cb5b1461128f5780638e2df39c146112e65780638f32d59b146113275780638f63b7e514611356578063a3120724146113a1578063a888c2cd146113ec578063a977e16814611472578063ab24c7d2146114c9578063ad71ee231461152e578063ae55ce8214611545578063b0ff59d2146115b2578063b1a3883c14611613578063b60cbeb61461167e578063b8232d5d146116df578063be7d62261461172a578063c64a2e561461176b578063c957387b146117ac578063c97d230f146117f7578063c9f8234f14611822578063d4526e681461184d578063d5de47c714611896578063da68b121146118e1578063deaf0fa114611926578063eaf1c910146119a9578063eef565da14611a0a578063f120dba114611a35578063f2fde38b14611a60578063f3f4370314611aa3578063f49916f514611afa578063f5f95b3b14611b3b578063fea11fe314611b66575b600080fd5b3480156103a157600080fd5b506103aa611b91565b604051808215151515815260200191505060405180910390f35b3480156103d057600080fd5b5061040f60048036038101908080359060200190929190803573ffffffffffffffffffffffffffffffffffffffff169060200190929190505050611ba4565b604051808215151515815260200191505060405180910390f35b34801561043557600080fd5b506104586004803603810190808035600019169060200190929190505050611bd3565b604051808273ffffffffffffffffffffffffffffffffffffffff1673ffffffffffffffffffffffffffffffffffffffff16815260200191505060405180910390f35b3480156104a657600080fd5b506104c560048036038101908080359060200190929190505050611c06565b604051808273ffffffffffffffffffffffffffffffffffffffff1673ffffffffffffffffffffffffffffffffffffffff16815260200191505060405180910390f35b34801561051357600080fd5b5061053c6004803603810190808035906020019092919080359060200190929190505050611c39565b6040518082815260200191505060405180910390f35b34801561055e57600080fd5b50610567611c5e565b6040518082815260200191505060405180910390f35b34801561058957600080fd5b506105a860048036038101908080359060200190929190505050611c64565b604051808273ffffffffffffffffffffffffffffffffffffffff1673ffffffffffffffffffffffffffffffffffffffff16815260200191505060405180910390f35b3480156105f657600080fd5b5061061560048036038101908080359060200190929190505050611c97565b604051808215151515815260200191505060405180910390f35b34801561063b57600080fd5b50610670600480360381019080803573ffffffffffffffffffffffffffffffffffffffff169060200190929190505050611cb7565b604051808215151515815260200191505060405180910390f35b34801561069657600080fd5b506106bf6004803603810190808035906020019092919080359060200190929190505050611cd7565b6040518082815260200191505060405180910390f35b3480156106e157600080fd5b506106ea611cfc565b6040518082815260200191505060405180910390f35b34801561070c57600080fd5b50610741600480360381019080803573ffffffffffffffffffffffffffffffffffffffff169060200190929190505050611d02565b604051808215151515815260200191505060405180910390f35b34801561076757600080fd5b506107a660048036038101908080359060200190929190803573ffffffffffffffffffffffffffffffffffffffff169060200190929190505050611d22565b604051808215151515815260200191505060405180910390f35b3480156107cc57600080fd5b506107d5611d51565b604051808215151515815260200191505060405180910390f35b3480156107fb57600080fd5b50610830600480360381019080803573ffffffffffffffffffffffffffffffffffffffff169060200190929190505050611d64565b604051808215151515815260200191505060405180910390f35b34801561085657600080fd5b5061087560048036038101908080359060200190929190505050611d84565b6040518082815260200191505060405180910390f35b34801561089757600080fd5b506108cc600480360381019080803573ffffffffffffffffffffffffffffffffffffffff169060200190929190505050611d9c565b6040518082815260200191505060405180910390f35b3480156108ee57600080fd5b5061092d60048036038101908080359060200190929190803573ffffffffffffffffffffffffffffffffffffffff169060200190929190505050611db4565b6040518082815260200191505060405180910390f35b34801561094f57600080fd5b506109786004803603810190808035906020019092919080359060200190929190505050611dd9565b604051808273ffffffffffffffffffffffffffffffffffffffff1673ffffffffffffffffffffffffffffffffffffffff16815260200191505060405180910390f35b3480156109c657600080fd5b50610a0560048036038101908080359060200190929190803573ffffffffffffffffffffffffffffffffffffffff169060200190929190505050611e26565b6040518082815260200191505060405180910390f35b348015610a2757600080fd5b50610a506004803603810190808035906020019092919080359060200190929190505050611e4b565b6040518082815260200191505060405180910390f35b348015610a7257600080fd5b50610a9160048036038101908080359060200190929190505050611e70565b6040518082815260200191505060405180910390f35b348015610ab357600080fd5b50610af260048036038101908080359060200190929190803573ffffffffffffffffffffffffffffffffffffffff169060200190929190505050611e88565b6040518082815260200191505060405180910390f35b348015610b1457600080fd5b50610b3360048036038101908080359060200190929190505050611ead565b6040518082815260200191505060405180910390f35b348015610b5557600080fd5b50610b5e611ec5565b6040518082815260200191505060405180910390f35b348015610b8057600080fd5b50610b89611ecb565b604051808273ffffffffffffffffffffffffffffffffffffffff1673ffffffffffffffffffffffffffffffffffffffff16815260200191505060405180910390f35b348015610bd757600080fd5b50610c0c600480360381019080803573ffffffffffffffffffffffffffffffffffffffff169060200190929190505050611ef1565b6040518082815260200191505060405180910390f35b348015610c2e57600080fd5b50610c576004803603810190808035906020019092919080359060200190929190505050611f09565b604051808273ffffffffffffffffffffffffffffffffffffffff1673ffffffffffffffffffffffffffffffffffffffff16815260200191505060405180910390f35b348015610ca557600080fd5b50610cce6004803603810190808035906020019092919080359060200190929190505050611f4b565b6040518082815260200191505060405180910390f35b348015610cf057600080fd5b50610d0f60048036038101908080359060200190929190505050611f70565b604051808215151515815260200191505060405180910390f35b348015610d3557600080fd5b50610d5460048036038101908080359060200190929190505050611f90565b6040518082815260200191505060405180910390f35b348015610d7657600080fd5b50610dab600480360381019080803573ffffffffffffffffffffffffffffffffffffffff169060200190929190505050611fa8565b6040518080602001828103825283818151815260200191508051906020019080838360005b83811015610deb578082015181840152602081019050610dd0565b50505050905090810190601f168015610e185780820380516001836020036101000a031916815260200191505b509250505060405180910390f35b348015610e3257600080fd5b50610e3b612058565b6040518082815260200191505060405180910390f35b348015610e5d57600080fd5b50610e86600480360381019080803590602001909291908035906020019092919050505061205e565b604051808273ffffffffffffffffffffffffffffffffffffffff1673ffffffffffffffffffffffffffffffffffffffff16815260200191505060405180910390f35b348015610ed457600080fd5b50610efd60048036038101908080359060200190929190803590602001909291905050506120ab565b604051808215151515815260200191505060405180910390f35b348015610f2357600080fd5b50610f42600480360381019080803590602001909291905050506120da565b6040518082815260200191505060405180910390f35b348015610f6457600080fd5b50610f83600480360381019080803590602001909291905050506120f2565b6040518082815260200191505060405180910390f35b348015610fa557600080fd5b50610fc46004803603810190808035906020019092919050505061210a565b6040518082815260200191505060405180910390f35b348015610fe657600080fd5b50610fef612122565b005b348015610ffd57600080fd5b5061101c600480360381019080803590602001909291905050506121f4565b6040518082815260200191505060405180910390f35b34801561103e57600080fd5b5061104761220c565b604051808215151515815260200191505060405180910390f35b34801561106d57600080fd5b5061108c6004803603810190808035906020019092919050505061221f565b604051808273ffffffffffffffffffffffffffffffffffffffff1673ffffffffffffffffffffffffffffffffffffffff16815260200191505060405180910390f35b3480156110da57600080fd5b5061110f600480360381019080803573ffffffffffffffffffffffffffffffffffffffff169060200190929190505050612252565b604051808215151515815260200191505060405180910390f35b34801561113557600080fd5b5061116a600480360381019080803573ffffffffffffffffffffffffffffffffffffffff169060200190929190505050612272565b6040518082815260200191505060405180910390f35b34801561118c57600080fd5b506111c1600480360381019080803573ffffffffffffffffffffffffffffffffffffffff16906020019092919050505061228a565b6040518082815260200191505060405180910390f35b3480156111e357600080fd5b50611222600480360381019080803573ffffffffffffffffffffffffffffffffffffffff169060200190929190803590602001909291905050506122a2565b604051808273ffffffffffffffffffffffffffffffffffffffff1673ffffffffffffffffffffffffffffffffffffffff16815260200191505060405180910390f35b34801561127057600080fd5b506112796122ee565b6040518082815260200191505060405180910390f35b34801561129b57600080fd5b506112a46122f4565b604051808273ffffffffffffffffffffffffffffffffffffffff1673ffffffffffffffffffffffffffffffffffffffff16815260200191505060405180910390f35b3480156112f257600080fd5b506113116004803603810190808035906020019092919050505061231d565b6040518082815260200191505060405180910390f35b34801561133357600080fd5b5061133c612335565b604051808215151515815260200191505060405180910390f35b34801561136257600080fd5b5061138b600480360381019080803590602001909291908035906020019092919050505061238c565b6040518082815260200191505060405180910390f35b3480156113ad57600080fd5b506113d660048036038101908080359060200190929190803590602001909291905050506123b1565b6040518082815260200191505060405180910390f35b3480156113f857600080fd5b50611417600480360381019080803590602001909291905050506123d6565b604051808581526020018473ffffffffffffffffffffffffffffffffffffffff1673ffffffffffffffffffffffffffffffffffffffff1681526020018315151515815260200182815260200194505050505060405180910390f35b34801561147e57600080fd5b50611487612442565b604051808273ffffffffffffffffffffffffffffffffffffffff1673ffffffffffffffffffffffffffffffffffffffff16815260200191505060405180910390f35b3480156114d557600080fd5b5061151460048036038101908080359060200190929190803573ffffffffffffffffffffffffffffffffffffffff169060200190929190505050612468565b604051808215151515815260200191505060405180910390f35b34801561153a57600080fd5b50611543612497565b005b34801561155157600080fd5b5061157060048036038101908080359060200190929190505050612937565b604051808273ffffffffffffffffffffffffffffffffffffffff1673ffffffffffffffffffffffffffffffffffffffff16815260200191505060405180910390f35b3480156115be57600080fd5b506115fd60048036038101908080359060200190929190803573ffffffffffffffffffffffffffffffffffffffff16906020019092919050505061296a565b6040518082815260200191505060405180910390f35b34801561161f57600080fd5b506116686004803603810190808035906020019092919080359060200190929190803573ffffffffffffffffffffffffffffffffffffffff16906020019092919050505061298f565b6040518082815260200191505060405180910390f35b34801561168a57600080fd5b506116c960048036038101908080359060200190929190803573ffffffffffffffffffffffffffffffffffffffff1690602001909291905050506129c1565b6040518082815260200191505060405180910390f35b3480156116eb57600080fd5b5061171460048036038101908080359060200190929190803590602001909291905050506129e6565b6040518082815260200191505060405180910390f35b34801561173657600080fd5b5061175560048036038101908080359060200190929190505050612a0b565b6040518082815260200191505060405180910390f35b34801561177757600080fd5b5061179660048036038101908080359060200190929190505050612a23565b6040518082815260200191505060405180910390f35b3480156117b857600080fd5b506117e16004803603810190808035906020019092919080359060200190929190505050612a3b565b6040518082815260200191505060405180910390f35b34801561180357600080fd5b5061180c612a60565b6040518082815260200191505060405180910390f35b34801561182e57600080fd5b50611837612a66565b6040518082815260200191505060405180910390f35b34801561185957600080fd5b5061187c6004803603810190808035600019169060200190929190505050612a6c565b604051808215151515815260200191505060405180910390f35b3480156118a257600080fd5b506118cb6004803603810190808035906020019092919080359060200190929190505050612a8c565b6040518082815260200191505060405180910390f35b3480156118ed57600080fd5b5061190c60048036038101908080359060200190929190505050612ab1565b604051808215151515815260200191505060405180910390f35b34801561193257600080fd5b50611967600480360381019080803573ffffffffffffffffffffffffffffffffffffffff169060200190929190505050612ad1565b604051808273ffffffffffffffffffffffffffffffffffffffff1673ffffffffffffffffffffffffffffffffffffffff16815260200191505060405180910390f35b3480156119b557600080fd5b506119f460048036038101908080359060200190929190803573ffffffffffffffffffffffffffffffffffffffff169060200190929190505050612b04565b6040518082815260200191505060405180910390f35b348015611a1657600080fd5b50611a1f612b29565b6040518082815260200191505060405180910390f35b348015611a4157600080fd5b50611a4a612b2f565b6040518082815260200191505060405180910390f35b348015611a6c57600080fd5b50611aa1600480360381019080803573ffffffffffffffffffffffffffffffffffffffff169060200190929190505050612b35565b005b348015611aaf57600080fd5b50611ae4600480360381019080803573ffffffffffffffffffffffffffffffffffffffff169060200190929190505050612b54565b6040518082815260200191505060405180910390f35b348015611b0657600080fd5b50611b2560048036038101908080359060200190929190505050612b6c565b6040518082815260200191505060405180910390f35b348015611b4757600080fd5b50611b50612b84565b6040518082815260200191505060405180910390f35b348015611b7257600080fd5b50611b7b612b8a565b6040518082815260200191505060405180910390f35b604160149054906101000a900460ff1681565b60346020528160005260406000206020528060005260406000206000915091509054906101000a900460ff1681565b60236020528060005260406000206000915054906101000a900473ffffffffffffffffffffffffffffffffffffffff1681565b603a6020528060005260406000206000915054906101000a900473ffffffffffffffffffffffffffffffffffffffff1681565b6006602052816000526040600020602052806000526040600020600091509150505481565b60295481565b600f6020528060005260406000206000915054906101000a900473ffffffffffffffffffffffffffffffffffffffff1681565b604b6020528060005260406000206000915054906101000a900460ff1681565b60216020528060005260406000206000915054906101000a900460ff1681565b600e602052816000526040600020602052806000526040600020600091509150505481565b60455481565b601d6020528060005260406000206000915054906101000a900460ff1681565b601b6020528160005260406000206020528060005260406000206000915091509054906101000a900460ff1681565b604160169054906101000a900460ff1681565b60426020528060005260406000206000915054906101000a900460ff1681565b60176020528060005260406000206000915090505481565b60396020528060005260406000206000915090505481565b601a602052816000526040600020602052806000526040600020600091509150505481565b603060205281600052604060002081815481101515611df457fe5b906000526020600020016000915091509054906101000a900473ffffffffffffffffffffffffffffffffffffffff1681565b6036602052816000526040600020602052806000526040600020600091509150505481565b6014602052816000526040600020602052806000526040600020600091509150505481565b60186020528060005260406000206000915090505481565b6035602052816000526040600020602052806000526040600020600091509150505481565b60106020528060005260406000206000915090505481565b602b5481565b604160009054906101000a900473ffffffffffffffffffffffffffffffffffffffff1681565b60256020528060005260406000206000915090505481565b60326020528160005260406000206020528060005260406000206000915091509054906101000a900473ffffffffffffffffffffffffffffffffffffffff1681565b6005602052816000526040600020602052806000526040600020600091509150505481565b60386020528060005260406000206000915054906101000a900460ff1681565b60096020528060005260406000206000915090505481565b60226020528060005260406000206000915090508054600181600116156101000203166002900480601f0160208091040260200160405190810160405280929190818152602001828054600181600116156101000203166002900480156120505780601f1061202557610100808354040283529160200191612050565b820191906000526020600020905b81548152906001019060200180831161203357829003601f168201915b505050505081565b603e5481565b602f6020528160005260406000208181548110151561207957fe5b906000526020600020016000915091509054906101000a900473ffffffffffffffffffffffffffffffffffffffff1681565b60166020528160005260406000206020528060005260406000206000915091509054906101000a900460ff1681565b604c6020528060005260406000206000915090505481565b600c6020528060005260406000206000915090505481565b60196020528060005260406000206000915090505481565b61212a612335565b151561213557600080fd5b600073ffffffffffffffffffffffffffffffffffffffff166000809054906101000a900473ffffffffffffffffffffffffffffffffffffffff1673ffffffffffffffffffffffffffffffffffffffff167f8be0079c531659141344cd1fd0a4f28419497f9722a3daafe3b4186f6b6457e060405160405180910390a360008060006101000a81548173ffffffffffffffffffffffffffffffffffffffff021916908373ffffffffffffffffffffffffffffffffffffffff160217905550565b600a6020528060005260406000206000915090505481565b604160159054906101000a900460ff1681565b600b6020528060005260406000206000915054906101000a900473ffffffffffffffffffffffffffffffffffffffff1681565b601e6020528060005260406000206000915054906101000a900460ff1681565b60486020528060005260406000206000915090505481565b60496020528060005260406000206000915090505481565b60208052816000526040600020818154811015156122bc57fe5b906000526020600020016000915091509054906101000a900473ffffffffffffffffffffffffffffffffffffffff1681565b60285481565b60008060009054906101000a900473ffffffffffffffffffffffffffffffffffffffff16905090565b602e6020528060005260406000206000915090505481565b60008060009054906101000a900473ffffffffffffffffffffffffffffffffffffffff1673ffffffffffffffffffffffffffffffffffffffff163373ffffffffffffffffffffffffffffffffffffffff1614905090565b6011602052816000526040600020602052806000526040600020600091509150505481565b6008602052816000526040600020602052806000526040600020600091509150505481565b603f818154811015156123e557fe5b90600052602060002090600302016000915090508060000154908060010160009054906101000a900473ffffffffffffffffffffffffffffffffffffffff16908060010160149054906101000a900460ff16908060020154905084565b604060009054906101000a900473ffffffffffffffffffffffffffffffffffffffff1681565b60336020528160005260406000206020528060005260406000206000915091509054906101000a900460ff1681565b60008060008060011515604160169054906101000a900460ff16151514151561254e576040517f08c379a00000000000000000000000000000000000000000000000000000000081526004018080602001828103825260308152602001807f43616e6e6f7420646973747269627574652074696d652062616e6b207072697a81526020017f6520617420746865206d6f6d656e742e0000000000000000000000000000000081525060400191505060405180910390fd5b6000151560386000602954815260200190815260200160002060009054906101000a900460ff161515141515612612576040517f08c379a00000000000000000000000000000000000000000000000000000000081526004018080602001828103825260398152602001807f54696d652042616e6b205072697a657320616c7265616479207472616e73666581526020017f7272656420666f722074686973207462497465726174696f6e0000000000000081525060400191505060405180910390fd5b61261a612b90565b600960006028548152602001908152602001600020546036600060295481526020019081526020016000206000600f6000602854815260200190815260200160002060009054906101000a900473ffffffffffffffffffffffffffffffffffffffff1673ffffffffffffffffffffffffffffffffffffffff1673ffffffffffffffffffffffffffffffffffffffff16815260200190815260200160002060008282540192505081905550603060006029548152602001908152602001600020805490509250600091505b82821015612895576030600060295481526020019081526020016000208281548110151561270e57fe5b9060005260206000200160009054906101000a900473ffffffffffffffffffffffffffffffffffffffff169350600060366000602954815260200190815260200160002060008673ffffffffffffffffffffffffffffffffffffffff1673ffffffffffffffffffffffffffffffffffffffff168152602001908152602001600020541415156128885760366000602954815260200190815260200160002060008573ffffffffffffffffffffffffffffffffffffffff1673ffffffffffffffffffffffffffffffffffffffff1681526020019081526020016000205490508373ffffffffffffffffffffffffffffffffffffffff166108fc829081150290604051600060405180830381858888f19350505050158015612832573d6000803e3d6000fd5b508373ffffffffffffffffffffffffffffffffffffffff166029546028547f9cfb091475ff9ca14e8040774ab143eef1b3385a30864b88c9813b9dc79d6531846040518082815260200191505060405180910390a45b81806001019250506126e4565b6000604160166101000a81548160ff021916908315150217905550600160386000602954815260200190815260200160002060006101000a81548160ff0219169083151502179055506128f46001602854612db190919063ffffffff16565b6028819055506129106001602954612db190919063ffffffff16565b6029819055506000604160146101000a81548160ff02191690831515021790555050505050565b60316020528060005260406000206000915054906101000a900473ffffffffffffffffffffffffffffffffffffffff1681565b602c602052816000526040600020602052806000526040600020600091509150505481565b602d60205282600052604060002060205281600052604060002060205280600052604060002060009250925050505481565b604a602052816000526040600020602052806000526040600020600091509150505481565b6004602052816000526040600020602052806000526040600020600091509150505481565b60126020528060005260406000206000915090505481565b60076020528060005260406000206000915090505481565b6015602052816000526040600020602052806000526040600020600091509150505481565b60475481565b60265481565b60246020528060005260406000206000915054906101000a900460ff1681565b6013602052816000526040600020602052806000526040600020600091509150505481565b60376020528060005260406000206000915054906101000a900460ff1681565b601f6020528060005260406000206000915054906101000a900473ffffffffffffffffffffffffffffffffffffffff1681565b601c602052816000526040600020602052806000526040600020600091509150505481565b60275481565b60465481565b612b3d612335565b1515612b4857600080fd5b612b5181612dd2565b50565b603b6020528060005260406000206000915090505481565b600d6020528060005260406000206000915090505481565b603d5481565b602a5481565b600080600080612b9e612ecc565b9350600090505b83811015612c605760306000602954815260200190815260200160002081815481101515612bcf57fe5b9060005260206000200160009054906101000a900473ffffffffffffffffffffffffffffffffffffffff169250602c6000602954815260200190815260200160002060008473ffffffffffffffffffffffffffffffffffffffff1673ffffffffffffffffffffffffffffffffffffffff16815260200190815260200160002054820191508080600101915050612ba5565b600090505b83811015612dab5760306000602954815260200190815260200160002081815481101515612c8f57fe5b9060005260206000200160009054906101000a900473ffffffffffffffffffffffffffffffffffffffff169250612d4882612d3a60096000602854815260200190815260200160002054602c6000602954815260200190815260200160002060008873ffffffffffffffffffffffffffffffffffffffff1673ffffffffffffffffffffffffffffffffffffffff1681526020019081526020016000205461313e90919063ffffffff16565b61317c90919063ffffffff16565b60366000602954815260200190815260200160002060008573ffffffffffffffffffffffffffffffffffffffff1673ffffffffffffffffffffffffffffffffffffffff168152602001908152602001600020819055508080600101915050612c65565b50505050565b6000808284019050838110151515612dc857600080fd5b8091505092915050565b600073ffffffffffffffffffffffffffffffffffffffff168173ffffffffffffffffffffffffffffffffffffffff1614151515612e0e57600080fd5b8073ffffffffffffffffffffffffffffffffffffffff166000809054906101000a900473ffffffffffffffffffffffffffffffffffffffff1673ffffffffffffffffffffffffffffffffffffffff167f8be0079c531659141344cd1fd0a4f28419497f9722a3daafe3b4186f6b6457e060405160405180910390a3806000806101000a81548173ffffffffffffffffffffffffffffffffffffffff021916908373ffffffffffffffffffffffffffffffffffffffff16021790555050565b6000806000602b5491505b600082111561311e576000151560346000602954815260200190815260200160002060006031600086815260200190815260200160002060009054906101000a900473ffffffffffffffffffffffffffffffffffffffff1673ffffffffffffffffffffffffffffffffffffffff1673ffffffffffffffffffffffffffffffffffffffff16815260200190815260200160002060009054906101000a900460ff1615151415613110576064602b541115612f9e57606481101515612f995761311e565b612faf565b602b5481101515612fae5761311e565b5b6030600060295481526020019081526020016000206031600084815260200190815260200160002060009054906101000a900473ffffffffffffffffffffffffffffffffffffffff1690806001815401808255809150509060018203906000526020600020016000909192909190916101000a81548173ffffffffffffffffffffffffffffffffffffffff021916908373ffffffffffffffffffffffffffffffffffffffff1602179055505061306f600182612db190919063ffffffff16565b9050600160346000602954815260200190815260200160002060006031600086815260200190815260200160002060009054906101000a900473ffffffffffffffffffffffffffffffffffffffff1673ffffffffffffffffffffffffffffffffffffffff1673ffffffffffffffffffffffffffffffffffffffff16815260200190815260200160002060006101000a81548160ff0219169083151502179055505b818060019003925050612ed7565b603060006029548152602001908152602001600020805490509250505090565b60008060008414156131535760009150613175565b828402905082848281151561316457fe5b0414151561317157600080fd5b8091505b5092915050565b60008060008311151561318e57600080fd5b828481151561319957fe5b04905080915050929150505600a165627a7a72305820e38c3720fa79b9422ef719b36d1b9fe9a9dca09ff5ccb79a962ee190942c02740029",
  "source": "pragma solidity ^0.4.24;\nimport \"./SafeMath.sol\";\nimport \"./Modifiers.sol\";\n\ncontract TimeTeam is Modifiers {\n    using SafeMath for uint;\n\n    //      100   \n    function formTimeTeam() private returns (uint) {\n        \n        for (uint i = paintsCounter; i > 0; i--) {\n            uint teamMembersCounter;\n            if (isInTBT[tbIteration][counterToPainter[i]] == false) {\n                \n                if (paintsCounter > 100) {\n                    if (teamMembersCounter >= 100)   \n                        break;\n                }\n            \n                else {\n                    if (teamMembersCounter >= paintsCounter)\n                        break;\n                }\n                \n                tbTeam[tbIteration].push(counterToPainter[i]);\n                teamMembersCounter = teamMembersCounter.add(1);\n                isInTBT[tbIteration][counterToPainter[i]] = true;\n            }\n        }\n        return tbTeam[tbIteration].length;\n    }\n    \n    function calculateTBP() private {\n\n        uint length = formTimeTeam();\n        address painter;\n        uint totalPaintsForTeam; \n\n        for (uint i = 0; i < length; i++) {\n            painter = tbTeam[tbIteration][i];\n            totalPaintsForTeam += timeBankShare[tbIteration][painter];\n        }\n\n        for (i = 0; i < length; i++) {\n            painter = tbTeam[tbIteration][i];\n            painterToTBP[tbIteration][painter] = (timeBankShare[tbIteration][painter].mul(timeBankForRound[currentRound])).div(totalPaintsForTeam);\n        }\n\n    }\n\n    function distributeTBP() external canDistributeTBP() {\n        require(isTBPTransfered[tbIteration] == false, \"Time Bank Prizes already transferred for this tbIteration\");\n        address painter;\n        calculateTBP();\n        painterToTBP[tbIteration][winnerOfRound[currentRound]] += timeBankForRound[currentRound];\n        uint length = tbTeam[tbIteration].length;\n        for (uint i = 0; i < length; i++) {\n            painter = tbTeam[tbIteration][i];\n            if (painterToTBP[tbIteration][painter] != 0) {\n                uint prize = painterToTBP[tbIteration][painter];\n                painter.transfer(prize);\n                emit TBPDistributed(currentRound, tbIteration, painter, prize);\n            }\n        }\n        isTBPDistributable = false;\n        isTBPTransfered[tbIteration] = true;\n        \n        currentRound = currentRound.add(1); //  \n        tbIteration = tbIteration.add(1); //    \n        isGamePaused = false;\n    }\n}",
  "sourcePath": "/Users/Amir/last-pixel-contracts/contracts/TimeTeam.sol",
  "compiler": {
    "name": "solc",
    "version": "0.4.25+commit.59dbf8f1.Emscripten.clang"
  },
  "schemaVersion": "2.0.2",
  "updatedAt": "2019-02-06T11:43:20.671Z"
}