{
  "contractName": "TimeTeam",
  "abi": [
    {
      "constant": true,
      "inputs": [],
      "name": "isGamePaused",
      "outputs": [
        {
          "name": "",
          "type": "bool"
        }
      ],
      "payable": false,
      "stateMutability": "view",
      "type": "function"
    },
    {
      "constant": true,
      "inputs": [
        {
          "name": "",
          "type": "uint256"
        },
        {
          "name": "",
          "type": "address"
        }
      ],
      "name": "isInTBT",
      "outputs": [
        {
          "name": "",
          "type": "bool"
        }
      ],
      "payable": false,
      "stateMutability": "view",
      "type": "function"
    },
    {
      "constant": true,
      "inputs": [
        {
          "name": "",
          "type": "bytes32"
        }
      ],
      "name": "refLinkToUser",
      "outputs": [
        {
          "name": "",
          "type": "address"
        }
      ],
      "payable": false,
      "stateMutability": "view",
      "type": "function"
    },
    {
      "constant": true,
      "inputs": [
        {
          "name": "",
          "type": "uint256"
        }
      ],
      "name": "ownerOfColor",
      "outputs": [
        {
          "name": "",
          "type": "address"
        }
      ],
      "payable": false,
      "stateMutability": "view",
      "type": "function"
    },
    {
      "constant": true,
      "inputs": [
        {
          "name": "",
          "type": "uint256"
        },
        {
          "name": "",
          "type": "uint256"
        }
      ],
      "name": "colorToPaintedPixelsAmountForRound",
      "outputs": [
        {
          "name": "",
          "type": "uint256"
        }
      ],
      "payable": false,
      "stateMutability": "view",
      "type": "function"
    },
    {
      "constant": true,
      "inputs": [],
      "name": "tbIteration",
      "outputs": [
        {
          "name": "",
          "type": "uint256"
        }
      ],
      "payable": false,
      "stateMutability": "view",
      "type": "function"
    },
    {
      "constant": true,
      "inputs": [
        {
          "name": "",
          "type": "uint256"
        }
      ],
      "name": "winnerOfRound",
      "outputs": [
        {
          "name": "",
          "type": "address"
        }
      ],
      "payable": false,
      "stateMutability": "view",
      "type": "function"
    },
    {
      "constant": true,
      "inputs": [
        {
          "name": "",
          "type": "uint256"
        }
      ],
      "name": "timeBankDrawnForRound",
      "outputs": [
        {
          "name": "",
          "type": "bool"
        }
      ],
      "payable": false,
      "stateMutability": "view",
      "type": "function"
    },
    {
      "constant": true,
      "inputs": [
        {
          "name": "",
          "type": "address"
        }
      ],
      "name": "hasReferrer",
      "outputs": [
        {
          "name": "",
          "type": "bool"
        }
      ],
      "payable": false,
      "stateMutability": "view",
      "type": "function"
    },
    {
      "constant": true,
      "inputs": [
        {
          "name": "",
          "type": "uint256"
        },
        {
          "name": "",
          "type": "uint256"
        }
      ],
      "name": "colorToTotalPaintsForCBIteration",
      "outputs": [
        {
          "name": "",
          "type": "uint256"
        }
      ],
      "payable": false,
      "stateMutability": "view",
      "type": "function"
    },
    {
      "constant": true,
      "inputs": [],
      "name": "totalColorsNumber",
      "outputs": [
        {
          "name": "",
          "type": "uint256"
        }
      ],
      "payable": false,
      "stateMutability": "view",
      "type": "function"
    },
    {
      "constant": true,
      "inputs": [
        {
          "name": "",
          "type": "address"
        }
      ],
      "name": "isRegisteredUser",
      "outputs": [
        {
          "name": "",
          "type": "bool"
        }
      ],
      "payable": false,
      "stateMutability": "view",
      "type": "function"
    },
    {
      "constant": true,
      "inputs": [
        {
          "name": "",
          "type": "uint256"
        },
        {
          "name": "",
          "type": "address"
        }
      ],
      "name": "hasPaintDiscountForColor",
      "outputs": [
        {
          "name": "",
          "type": "bool"
        }
      ],
      "payable": false,
      "stateMutability": "view",
      "type": "function"
    },
    {
      "constant": true,
      "inputs": [],
      "name": "isTBPDistributable",
      "outputs": [
        {
          "name": "",
          "type": "bool"
        }
      ],
      "payable": false,
      "stateMutability": "view",
      "type": "function"
    },
    {
      "constant": true,
      "inputs": [
        {
          "name": "",
          "type": "address"
        }
      ],
      "name": "isAdmin",
      "outputs": [
        {
          "name": "",
          "type": "bool"
        }
      ],
      "payable": false,
      "stateMutability": "view",
      "type": "function"
    },
    {
      "constant": true,
      "inputs": [
        {
          "name": "",
          "type": "uint256"
        }
      ],
      "name": "currentPaintGenForColor",
      "outputs": [
        {
          "name": "",
          "type": "uint256"
        }
      ],
      "payable": false,
      "stateMutability": "view",
      "type": "function"
    },
    {
      "constant": true,
      "inputs": [
        {
          "name": "",
          "type": "address"
        }
      ],
      "name": "lastPlayedRound",
      "outputs": [
        {
          "name": "",
          "type": "uint256"
        }
      ],
      "payable": false,
      "stateMutability": "view",
      "type": "function"
    },
    {
      "constant": true,
      "inputs": [
        {
          "name": "",
          "type": "uint256"
        },
        {
          "name": "",
          "type": "address"
        }
      ],
      "name": "moneySpentByUserForColor",
      "outputs": [
        {
          "name": "",
          "type": "uint256"
        }
      ],
      "payable": false,
      "stateMutability": "view",
      "type": "function"
    },
    {
      "constant": true,
      "inputs": [
        {
          "name": "",
          "type": "uint256"
        },
        {
          "name": "",
          "type": "uint256"
        }
      ],
      "name": "tbTeam",
      "outputs": [
        {
          "name": "",
          "type": "address"
        }
      ],
      "payable": false,
      "stateMutability": "view",
      "type": "function"
    },
    {
      "constant": true,
      "inputs": [
        {
          "name": "",
          "type": "uint256"
        },
        {
          "name": "",
          "type": "address"
        }
      ],
      "name": "painterToTBP",
      "outputs": [
        {
          "name": "",
          "type": "uint256"
        }
      ],
      "payable": false,
      "stateMutability": "view",
      "type": "function"
    },
    {
      "constant": true,
      "inputs": [
        {
          "name": "",
          "type": "uint256"
        },
        {
          "name": "",
          "type": "uint256"
        }
      ],
      "name": "paintGenToStartTimeForColor",
      "outputs": [
        {
          "name": "",
          "type": "uint256"
        }
      ],
      "payable": false,
      "stateMutability": "view",
      "type": "function"
    },
    {
      "constant": true,
      "inputs": [
        {
          "name": "",
          "type": "uint256"
        }
      ],
      "name": "callPriceForColor",
      "outputs": [
        {
          "name": "",
          "type": "uint256"
        }
      ],
      "payable": false,
      "stateMutability": "view",
      "type": "function"
    },
    {
      "constant": true,
      "inputs": [
        {
          "name": "",
          "type": "uint256"
        },
        {
          "name": "",
          "type": "address"
        }
      ],
      "name": "painterToCBP",
      "outputs": [
        {
          "name": "",
          "type": "uint256"
        }
      ],
      "payable": false,
      "stateMutability": "view",
      "type": "function"
    },
    {
      "constant": true,
      "inputs": [
        {
          "name": "",
          "type": "uint256"
        }
      ],
      "name": "winnerBankForRound",
      "outputs": [
        {
          "name": "",
          "type": "uint256"
        }
      ],
      "payable": false,
      "stateMutability": "view",
      "type": "function"
    },
    {
      "constant": true,
      "inputs": [],
      "name": "paintsCounter",
      "outputs": [
        {
          "name": "",
          "type": "uint256"
        }
      ],
      "payable": false,
      "stateMutability": "view",
      "type": "function"
    },
    {
      "constant": true,
      "inputs": [],
      "name": "founders",
      "outputs": [
        {
          "name": "",
          "type": "address"
        }
      ],
      "payable": false,
      "stateMutability": "view",
      "type": "function"
    },
    {
      "constant": true,
      "inputs": [
        {
          "name": "",
          "type": "address"
        }
      ],
      "name": "newUserToCounter",
      "outputs": [
        {
          "name": "",
          "type": "uint256"
        }
      ],
      "payable": false,
      "stateMutability": "view",
      "type": "function"
    },
    {
      "constant": true,
      "inputs": [
        {
          "name": "",
          "type": "uint256"
        },
        {
          "name": "",
          "type": "uint256"
        }
      ],
      "name": "counterToPainterForColor",
      "outputs": [
        {
          "name": "",
          "type": "address"
        }
      ],
      "payable": false,
      "stateMutability": "view",
      "type": "function"
    },
    {
      "constant": true,
      "inputs": [
        {
          "name": "",
          "type": "uint256"
        },
        {
          "name": "",
          "type": "uint256"
        }
      ],
      "name": "pixelToOldColorForRound",
      "outputs": [
        {
          "name": "",
          "type": "uint256"
        }
      ],
      "payable": false,
      "stateMutability": "view",
      "type": "function"
    },
    {
      "constant": true,
      "inputs": [
        {
          "name": "",
          "type": "uint256"
        }
      ],
      "name": "isTBPTransfered",
      "outputs": [
        {
          "name": "",
          "type": "bool"
        }
      ],
      "payable": false,
      "stateMutability": "view",
      "type": "function"
    },
    {
      "constant": true,
      "inputs": [
        {
          "name": "",
          "type": "uint256"
        }
      ],
      "name": "timeBankForRound",
      "outputs": [
        {
          "name": "",
          "type": "uint256"
        }
      ],
      "payable": false,
      "stateMutability": "view",
      "type": "function"
    },
    {
      "constant": true,
      "inputs": [
        {
          "name": "",
          "type": "address"
        }
      ],
      "name": "userToRefLink",
      "outputs": [
        {
          "name": "",
          "type": "string"
        }
      ],
      "payable": false,
      "stateMutability": "view",
      "type": "function"
    },
    {
      "constant": true,
      "inputs": [],
      "name": "claimId",
      "outputs": [
        {
          "name": "",
          "type": "uint256"
        }
      ],
      "payable": false,
      "stateMutability": "view",
      "type": "function"
    },
    {
      "constant": true,
      "inputs": [
        {
          "name": "",
          "type": "uint256"
        },
        {
          "name": "",
          "type": "uint256"
        }
      ],
      "name": "cbTeam",
      "outputs": [
        {
          "name": "",
          "type": "address"
        }
      ],
      "payable": false,
      "stateMutability": "view",
      "type": "function"
    },
    {
      "constant": true,
      "inputs": [
        {
          "name": "",
          "type": "uint256"
        },
        {
          "name": "",
          "type": "uint256"
        }
      ],
      "name": "paintGenStartedForColor",
      "outputs": [
        {
          "name": "",
          "type": "bool"
        }
      ],
      "payable": false,
      "stateMutability": "view",
      "type": "function"
    },
    {
      "constant": true,
      "inputs": [
        {
          "name": "",
          "type": "uint256"
        }
      ],
      "name": "lastPaintedPixelForRound",
      "outputs": [
        {
          "name": "",
          "type": "uint256"
        }
      ],
      "payable": false,
      "stateMutability": "view",
      "type": "function"
    },
    {
      "constant": true,
      "inputs": [
        {
          "name": "",
          "type": "uint256"
        }
      ],
      "name": "nextCallPriceForColor",
      "outputs": [
        {
          "name": "",
          "type": "uint256"
        }
      ],
      "payable": false,
      "stateMutability": "view",
      "type": "function"
    },
    {
      "constant": false,
      "inputs": [],
      "name": "renounceOwnership",
      "outputs": [],
      "payable": false,
      "stateMutability": "nonpayable",
      "type": "function"
    },
    {
      "constant": true,
      "inputs": [
        {
          "name": "",
          "type": "uint256"
        }
      ],
      "name": "lastPaintTimeForRound",
      "outputs": [
        {
          "name": "",
          "type": "uint256"
        }
      ],
      "payable": false,
      "stateMutability": "view",
      "type": "function"
    },
    {
      "constant": true,
      "inputs": [],
      "name": "isCBPDistributable",
      "outputs": [
        {
          "name": "",
          "type": "bool"
        }
      ],
      "payable": false,
      "stateMutability": "view",
      "type": "function"
    },
    {
      "constant": true,
      "inputs": [
        {
          "name": "",
          "type": "uint256"
        }
      ],
      "name": "lastPainterForRound",
      "outputs": [
        {
          "name": "",
          "type": "address"
        }
      ],
      "payable": false,
      "stateMutability": "view",
      "type": "function"
    },
    {
      "constant": true,
      "inputs": [
        {
          "name": "",
          "type": "address"
        }
      ],
      "name": "hasRefLink",
      "outputs": [
        {
          "name": "",
          "type": "bool"
        }
      ],
      "payable": false,
      "stateMutability": "view",
      "type": "function"
    },
    {
      "constant": true,
      "inputs": [
        {
          "name": "",
          "type": "address"
        },
        {
          "name": "",
          "type": "uint256"
        }
      ],
      "name": "referrerToReferrals",
      "outputs": [
        {
          "name": "",
          "type": "address"
        }
      ],
      "payable": false,
      "stateMutability": "view",
      "type": "function"
    },
    {
      "constant": true,
      "inputs": [],
      "name": "currentRound",
      "outputs": [
        {
          "name": "",
          "type": "uint256"
        }
      ],
      "payable": false,
      "stateMutability": "view",
      "type": "function"
    },
    {
      "constant": true,
      "inputs": [],
      "name": "owner",
      "outputs": [
        {
          "name": "",
          "type": "address"
        }
      ],
      "payable": false,
      "stateMutability": "view",
      "type": "function"
    },
    {
      "constant": true,
      "inputs": [
        {
          "name": "",
          "type": "uint256"
        }
      ],
      "name": "paintsCounterForColor",
      "outputs": [
        {
          "name": "",
          "type": "uint256"
        }
      ],
      "payable": false,
      "stateMutability": "view",
      "type": "function"
    },
    {
      "constant": true,
      "inputs": [],
      "name": "isOwner",
      "outputs": [
        {
          "name": "",
          "type": "bool"
        }
      ],
      "payable": false,
      "stateMutability": "view",
      "type": "function"
    },
    {
      "constant": true,
      "inputs": [
        {
          "name": "",
          "type": "uint256"
        },
        {
          "name": "",
          "type": "uint256"
        }
      ],
      "name": "pixelToPaintTimeForRound",
      "outputs": [
        {
          "name": "",
          "type": "uint256"
        }
      ],
      "payable": false,
      "stateMutability": "view",
      "type": "function"
    },
    {
      "constant": true,
      "inputs": [
        {
          "name": "",
          "type": "uint256"
        },
        {
          "name": "",
          "type": "uint256"
        }
      ],
      "name": "colorBankToColorForRound",
      "outputs": [
        {
          "name": "",
          "type": "uint256"
        }
      ],
      "payable": false,
      "stateMutability": "view",
      "type": "function"
    },
    {
      "constant": true,
      "inputs": [
        {
          "name": "",
          "type": "uint256"
        }
      ],
      "name": "claims",
      "outputs": [
        {
          "name": "id",
          "type": "uint256"
        },
        {
          "name": "claimer",
          "type": "address"
        },
        {
          "name": "isResolved",
          "type": "bool"
        },
        {
          "name": "timestamp",
          "type": "uint256"
        }
      ],
      "payable": false,
      "stateMutability": "view",
      "type": "function"
    },
    {
      "constant": true,
      "inputs": [],
      "name": "ownerOfPixel",
      "outputs": [
        {
          "name": "",
          "type": "address"
        }
      ],
      "payable": false,
      "stateMutability": "view",
      "type": "function"
    },
    {
      "constant": true,
      "inputs": [
        {
          "name": "",
          "type": "uint256"
        },
        {
          "name": "",
          "type": "address"
        }
      ],
      "name": "isInCBT",
      "outputs": [
        {
          "name": "",
          "type": "bool"
        }
      ],
      "payable": false,
      "stateMutability": "view",
      "type": "function"
    },
    {
      "constant": true,
      "inputs": [
        {
          "name": "",
          "type": "uint256"
        }
      ],
      "name": "counterToPainter",
      "outputs": [
        {
          "name": "",
          "type": "address"
        }
      ],
      "payable": false,
      "stateMutability": "view",
      "type": "function"
    },
    {
      "constant": true,
      "inputs": [
        {
          "name": "",
          "type": "uint256"
        },
        {
          "name": "",
          "type": "address"
        }
      ],
      "name": "timeBankShare",
      "outputs": [
        {
          "name": "",
          "type": "uint256"
        }
      ],
      "payable": false,
      "stateMutability": "view",
      "type": "function"
    },
    {
      "constant": true,
      "inputs": [
        {
          "name": "",
          "type": "uint256"
        },
        {
          "name": "",
          "type": "uint256"
        },
        {
          "name": "",
          "type": "address"
        }
      ],
      "name": "colorBankShare",
      "outputs": [
        {
          "name": "",
          "type": "uint256"
        }
      ],
      "payable": false,
      "stateMutability": "view",
      "type": "function"
    },
    {
      "constant": true,
      "inputs": [
        {
          "name": "",
          "type": "uint256"
        },
        {
          "name": "",
          "type": "uint256"
        }
      ],
      "name": "pixelToColorForRound",
      "outputs": [
        {
          "name": "",
          "type": "uint256"
        }
      ],
      "payable": false,
      "stateMutability": "view",
      "type": "function"
    },
    {
      "constant": true,
      "inputs": [
        {
          "name": "",
          "type": "address"
        }
      ],
      "name": "isTeamMember",
      "outputs": [
        {
          "name": "",
          "type": "bool"
        }
      ],
      "payable": false,
      "stateMutability": "view",
      "type": "function"
    },
    {
      "constant": true,
      "inputs": [
        {
          "name": "",
          "type": "uint256"
        }
      ],
      "name": "totalPaintsForRound",
      "outputs": [
        {
          "name": "",
          "type": "uint256"
        }
      ],
      "payable": false,
      "stateMutability": "view",
      "type": "function"
    },
    {
      "constant": true,
      "inputs": [
        {
          "name": "",
          "type": "uint256"
        }
      ],
      "name": "colorBankForRound",
      "outputs": [
        {
          "name": "",
          "type": "uint256"
        }
      ],
      "payable": false,
      "stateMutability": "view",
      "type": "function"
    },
    {
      "constant": true,
      "inputs": [
        {
          "name": "",
          "type": "uint256"
        },
        {
          "name": "",
          "type": "uint256"
        }
      ],
      "name": "paintGenToEndTimeForColor",
      "outputs": [
        {
          "name": "",
          "type": "uint256"
        }
      ],
      "payable": false,
      "stateMutability": "view",
      "type": "function"
    },
    {
      "constant": true,
      "inputs": [],
      "name": "uniqueUsersCount",
      "outputs": [
        {
          "name": "",
          "type": "uint256"
        }
      ],
      "payable": false,
      "stateMutability": "view",
      "type": "function"
    },
    {
      "constant": true,
      "inputs": [
        {
          "name": "",
          "type": "bytes32"
        }
      ],
      "name": "refLinkExists",
      "outputs": [
        {
          "name": "",
          "type": "bool"
        }
      ],
      "payable": false,
      "stateMutability": "view",
      "type": "function"
    },
    {
      "constant": true,
      "inputs": [
        {
          "name": "",
          "type": "uint256"
        },
        {
          "name": "",
          "type": "uint256"
        }
      ],
      "name": "paintGenToAmountForColor",
      "outputs": [
        {
          "name": "",
          "type": "uint256"
        }
      ],
      "payable": false,
      "stateMutability": "view",
      "type": "function"
    },
    {
      "constant": true,
      "inputs": [
        {
          "name": "",
          "type": "uint256"
        }
      ],
      "name": "isCBPTransfered",
      "outputs": [
        {
          "name": "",
          "type": "bool"
        }
      ],
      "payable": false,
      "stateMutability": "view",
      "type": "function"
    },
    {
      "constant": true,
      "inputs": [
        {
          "name": "",
          "type": "address"
        }
      ],
      "name": "referralToReferrer",
      "outputs": [
        {
          "name": "",
          "type": "address"
        }
      ],
      "payable": false,
      "stateMutability": "view",
      "type": "function"
    },
    {
      "constant": true,
      "inputs": [
        {
          "name": "",
          "type": "uint256"
        },
        {
          "name": "",
          "type": "address"
        }
      ],
      "name": "usersPaintDiscountForColor",
      "outputs": [
        {
          "name": "",
          "type": "uint256"
        }
      ],
      "payable": false,
      "stateMutability": "view",
      "type": "function"
    },
    {
      "constant": true,
      "inputs": [],
      "name": "maxPaintsInPool",
      "outputs": [
        {
          "name": "",
          "type": "uint256"
        }
      ],
      "payable": false,
      "stateMutability": "view",
      "type": "function"
    },
    {
      "constant": false,
      "inputs": [
        {
          "name": "newOwner",
          "type": "address"
        }
      ],
      "name": "transferOwnership",
      "outputs": [],
      "payable": false,
      "stateMutability": "nonpayable",
      "type": "function"
    },
    {
      "constant": true,
      "inputs": [
        {
          "name": "",
          "type": "uint256"
        }
      ],
      "name": "winnerColorForRound",
      "outputs": [
        {
          "name": "",
          "type": "uint256"
        }
      ],
      "payable": false,
      "stateMutability": "view",
      "type": "function"
    },
    {
      "constant": true,
      "inputs": [],
      "name": "dividendsBank",
      "outputs": [
        {
          "name": "",
          "type": "uint256"
        }
      ],
      "payable": false,
      "stateMutability": "view",
      "type": "function"
    },
    {
      "constant": true,
      "inputs": [
        {
          "name": "",
          "type": "address"
        }
      ],
      "name": "withdrawalBalances",
      "outputs": [
        {
          "name": "",
          "type": "uint256"
        }
      ],
      "payable": false,
      "stateMutability": "view",
      "type": "function"
    },
    {
      "constant": true,
      "inputs": [],
      "name": "cbIteration",
      "outputs": [
        {
          "name": "",
          "type": "uint256"
        }
      ],
      "payable": false,
      "stateMutability": "view",
      "type": "function"
    },
    {
      "anonymous": false,
      "inputs": [
        {
          "indexed": true,
          "name": "round",
          "type": "uint256"
        },
        {
          "indexed": true,
          "name": "cbIteration",
          "type": "uint256"
        },
        {
          "indexed": true,
          "name": "winner",
          "type": "address"
        },
        {
          "indexed": false,
          "name": "prize",
          "type": "uint256"
        }
      ],
      "name": "CBPDistributed",
      "type": "event"
    },
    {
      "anonymous": false,
      "inputs": [
        {
          "indexed": true,
          "name": "withdrawer",
          "type": "address"
        },
        {
          "indexed": true,
          "name": "claimId",
          "type": "uint256"
        },
        {
          "indexed": true,
          "name": "amount",
          "type": "uint256"
        }
      ],
      "name": "DividendsWithdrawn",
      "type": "event"
    },
    {
      "anonymous": false,
      "inputs": [
        {
          "indexed": true,
          "name": "claimer",
          "type": "address"
        },
        {
          "indexed": true,
          "name": "claimId",
          "type": "uint256"
        },
        {
          "indexed": true,
          "name": "currentTime",
          "type": "uint256"
        }
      ],
      "name": "DividendsClaimed",
      "type": "event"
    },
    {
      "anonymous": false,
      "inputs": [
        {
          "indexed": true,
          "name": "pixelId",
          "type": "uint256"
        },
        {
          "indexed": false,
          "name": "colorId",
          "type": "uint256"
        },
        {
          "indexed": true,
          "name": "painter",
          "type": "address"
        },
        {
          "indexed": true,
          "name": "round",
          "type": "uint256"
        },
        {
          "indexed": false,
          "name": "timestamp",
          "type": "uint256"
        }
      ],
      "name": "Paint",
      "type": "event"
    },
    {
      "anonymous": false,
      "inputs": [
        {
          "indexed": false,
          "name": "winnerOfRound",
          "type": "address"
        },
        {
          "indexed": true,
          "name": "round",
          "type": "uint256"
        }
      ],
      "name": "ColorBankPlayed",
      "type": "event"
    },
    {
      "anonymous": false,
      "inputs": [
        {
          "indexed": false,
          "name": "winnerOfRound",
          "type": "address"
        },
        {
          "indexed": true,
          "name": "round",
          "type": "uint256"
        }
      ],
      "name": "TimeBankPlayed",
      "type": "event"
    },
    {
      "anonymous": false,
      "inputs": [
        {
          "indexed": true,
          "name": "newCallPrice",
          "type": "uint256"
        }
      ],
      "name": "CallPriceUpdated",
      "type": "event"
    },
    {
      "anonymous": false,
      "inputs": [
        {
          "indexed": true,
          "name": "round",
          "type": "uint256"
        },
        {
          "indexed": true,
          "name": "tbIteration",
          "type": "uint256"
        },
        {
          "indexed": true,
          "name": "winner",
          "type": "address"
        },
        {
          "indexed": false,
          "name": "prize",
          "type": "uint256"
        }
      ],
      "name": "TBPDistributed",
      "type": "event"
    },
    {
      "anonymous": false,
      "inputs": [
        {
          "indexed": true,
          "name": "previousOwner",
          "type": "address"
        },
        {
          "indexed": true,
          "name": "newOwner",
          "type": "address"
        }
      ],
      "name": "OwnershipTransferred",
      "type": "event"
    },
    {
      "constant": false,
      "inputs": [],
      "name": "distributeTBP",
      "outputs": [],
      "payable": false,
      "stateMutability": "nonpayable",
      "type": "function"
    }
  ],
  "bytecode": "0x608060405273ca35b7d915458ef540ade6068dfe2f44e8fa733c604060006101000a81548173ffffffffffffffffffffffffffffffffffffffff021916908373ffffffffffffffffffffffffffffffffffffffff160217905550733e4d187df7d8a0820eaf4174d17b160157610912604160006101000a81548173ffffffffffffffffffffffffffffffffffffffff021916908373ffffffffffffffffffffffffffffffffffffffff160217905550336000806101000a81548173ffffffffffffffffffffffffffffffffffffffff021916908373ffffffffffffffffffffffffffffffffffffffff1602179055506000809054906101000a900473ffffffffffffffffffffffffffffffffffffffff1673ffffffffffffffffffffffffffffffffffffffff16600073ffffffffffffffffffffffffffffffffffffffff167f8be0079c531659141344cd1fd0a4f28419497f9722a3daafe3b4186f6b6457e060405160405180910390a3612ff7806101796000396000f300608060405260043610610359576000357c0100000000000000000000000000000000000000000000000000000000900463ffffffff1680630422ddf31461035e57806305bdd0be1461038d578063099b81ce146103f25780630baaea44146104635780630cf9603f146104d05780630f6ed86e1461051b578063102f97131461054657806315682a66146105b357806318452cd8146105f857806319ef6a06146106535780631d64873b1461069e5780631f5bdf5d146106c95780631f90c6ed1461072457806321423af81461078957806324d7806c146107b857806328361f571461081357806328b290f9146108545780632c6c1c41146108ab5780632c7a3dae1461090c57806333f9c388146109835780633a173505146109e45780633c6dd01314610a2f5780633ca4c18314610a705780633d0d1a7914610ad15780633dc3c37714610b12578063411b007e14610b3d57806341c5464e14610b9457806342e453ec14610beb5780634b39173d14610c625780634c438ad714610cad5780634c78e40114610cf25780635bfcdb2714610d335780635c25fd1314610def5780635d63ebb214610e1a5780635f5d554c14610e91578063628a71a314610ee05780636f17eb4214610f21578063715018a614610f6257806373a9ee2614610f7957806376f5d96a14610fba57806379ecf37614610fe95780637e1e175c1461105657806387982ac3146110b15780638a19c8bc1461113e5780638da5cb5b146111695780638e2df39c146111c05780638f32d59b146112015780638f63b7e514611230578063a31207241461127b578063a888c2cd146112c6578063a977e1681461134c578063ab24c7d2146113a3578063ad71ee2314611408578063ae55ce821461141f578063b0ff59d21461148c578063b1a3883c146114ed578063b8232d5d14611558578063bbe9f99d146115a3578063be7d6226146115fe578063c64a2e561461163f578063c957387b14611680578063c9f8234f146116cb578063d4526e68146116f6578063d5de47c71461173f578063da68b1211461178a578063deaf0fa1146117cf578063eaf1c91014611852578063eef565da146118b3578063f2fde38b146118de578063f49916f514611921578063f5f95b3b14611962578063fb454d291461198d578063fea11fe3146119e4575b600080fd5b34801561036a57600080fd5b50610373611a0f565b604051808215151515815260200191505060405180910390f35b34801561039957600080fd5b506103d860048036038101908080359060200190929190803573ffffffffffffffffffffffffffffffffffffffff169060200190929190505050611a22565b604051808215151515815260200191505060405180910390f35b3480156103fe57600080fd5b506104216004803603810190808035600019169060200190929190505050611a51565b604051808273ffffffffffffffffffffffffffffffffffffffff1673ffffffffffffffffffffffffffffffffffffffff16815260200191505060405180910390f35b34801561046f57600080fd5b5061048e60048036038101908080359060200190929190505050611a84565b604051808273ffffffffffffffffffffffffffffffffffffffff1673ffffffffffffffffffffffffffffffffffffffff16815260200191505060405180910390f35b3480156104dc57600080fd5b506105056004803603810190808035906020019092919080359060200190929190505050611ab7565b6040518082815260200191505060405180910390f35b34801561052757600080fd5b50610530611adc565b6040518082815260200191505060405180910390f35b34801561055257600080fd5b5061057160048036038101908080359060200190929190505050611ae2565b604051808273ffffffffffffffffffffffffffffffffffffffff1673ffffffffffffffffffffffffffffffffffffffff16815260200191505060405180910390f35b3480156105bf57600080fd5b506105de60048036038101908080359060200190929190505050611b15565b604051808215151515815260200191505060405180910390f35b34801561060457600080fd5b50610639600480360381019080803573ffffffffffffffffffffffffffffffffffffffff169060200190929190505050611b35565b604051808215151515815260200191505060405180910390f35b34801561065f57600080fd5b506106886004803603810190808035906020019092919080359060200190929190505050611b55565b6040518082815260200191505060405180910390f35b3480156106aa57600080fd5b506106b3611b7a565b6040518082815260200191505060405180910390f35b3480156106d557600080fd5b5061070a600480360381019080803573ffffffffffffffffffffffffffffffffffffffff169060200190929190505050611b80565b604051808215151515815260200191505060405180910390f35b34801561073057600080fd5b5061076f60048036038101908080359060200190929190803573ffffffffffffffffffffffffffffffffffffffff169060200190929190505050611ba0565b604051808215151515815260200191505060405180910390f35b34801561079557600080fd5b5061079e611bcf565b604051808215151515815260200191505060405180910390f35b3480156107c457600080fd5b506107f9600480360381019080803573ffffffffffffffffffffffffffffffffffffffff169060200190929190505050611be2565b604051808215151515815260200191505060405180910390f35b34801561081f57600080fd5b5061083e60048036038101908080359060200190929190505050611c02565b6040518082815260200191505060405180910390f35b34801561086057600080fd5b50610895600480360381019080803573ffffffffffffffffffffffffffffffffffffffff169060200190929190505050611c1a565b6040518082815260200191505060405180910390f35b3480156108b757600080fd5b506108f660048036038101908080359060200190929190803573ffffffffffffffffffffffffffffffffffffffff169060200190929190505050611c32565b6040518082815260200191505060405180910390f35b34801561091857600080fd5b506109416004803603810190808035906020019092919080359060200190929190505050611c57565b604051808273ffffffffffffffffffffffffffffffffffffffff1673ffffffffffffffffffffffffffffffffffffffff16815260200191505060405180910390f35b34801561098f57600080fd5b506109ce60048036038101908080359060200190929190803573ffffffffffffffffffffffffffffffffffffffff169060200190929190505050611ca4565b6040518082815260200191505060405180910390f35b3480156109f057600080fd5b50610a196004803603810190808035906020019092919080359060200190929190505050611cc9565b6040518082815260200191505060405180910390f35b348015610a3b57600080fd5b50610a5a60048036038101908080359060200190929190505050611cee565b6040518082815260200191505060405180910390f35b348015610a7c57600080fd5b50610abb60048036038101908080359060200190929190803573ffffffffffffffffffffffffffffffffffffffff169060200190929190505050611d06565b6040518082815260200191505060405180910390f35b348015610add57600080fd5b50610afc60048036038101908080359060200190929190505050611d2b565b6040518082815260200191505060405180910390f35b348015610b1e57600080fd5b50610b27611d43565b6040518082815260200191505060405180910390f35b348015610b4957600080fd5b50610b52611d49565b604051808273ffffffffffffffffffffffffffffffffffffffff1673ffffffffffffffffffffffffffffffffffffffff16815260200191505060405180910390f35b348015610ba057600080fd5b50610bd5600480360381019080803573ffffffffffffffffffffffffffffffffffffffff169060200190929190505050611d6f565b6040518082815260200191505060405180910390f35b348015610bf757600080fd5b50610c206004803603810190808035906020019092919080359060200190929190505050611d87565b604051808273ffffffffffffffffffffffffffffffffffffffff1673ffffffffffffffffffffffffffffffffffffffff16815260200191505060405180910390f35b348015610c6e57600080fd5b50610c976004803603810190808035906020019092919080359060200190929190505050611dc9565b6040518082815260200191505060405180910390f35b348015610cb957600080fd5b50610cd860048036038101908080359060200190929190505050611dee565b604051808215151515815260200191505060405180910390f35b348015610cfe57600080fd5b50610d1d60048036038101908080359060200190929190505050611e0e565b6040518082815260200191505060405180910390f35b348015610d3f57600080fd5b50610d74600480360381019080803573ffffffffffffffffffffffffffffffffffffffff169060200190929190505050611e26565b6040518080602001828103825283818151815260200191508051906020019080838360005b83811015610db4578082015181840152602081019050610d99565b50505050905090810190601f168015610de15780820380516001836020036101000a031916815260200191505b509250505060405180910390f35b348015610dfb57600080fd5b50610e04611ed6565b6040518082815260200191505060405180910390f35b348015610e2657600080fd5b50610e4f6004803603810190808035906020019092919080359060200190929190505050611edc565b604051808273ffffffffffffffffffffffffffffffffffffffff1673ffffffffffffffffffffffffffffffffffffffff16815260200191505060405180910390f35b348015610e9d57600080fd5b50610ec66004803603810190808035906020019092919080359060200190929190505050611f29565b604051808215151515815260200191505060405180910390f35b348015610eec57600080fd5b50610f0b60048036038101908080359060200190929190505050611f58565b6040518082815260200191505060405180910390f35b348015610f2d57600080fd5b50610f4c60048036038101908080359060200190929190505050611f70565b6040518082815260200191505060405180910390f35b348015610f6e57600080fd5b50610f77611f88565b005b348015610f8557600080fd5b50610fa46004803603810190808035906020019092919050505061205a565b6040518082815260200191505060405180910390f35b348015610fc657600080fd5b50610fcf612072565b604051808215151515815260200191505060405180910390f35b348015610ff557600080fd5b5061101460048036038101908080359060200190929190505050612085565b604051808273ffffffffffffffffffffffffffffffffffffffff1673ffffffffffffffffffffffffffffffffffffffff16815260200191505060405180910390f35b34801561106257600080fd5b50611097600480360381019080803573ffffffffffffffffffffffffffffffffffffffff1690602001909291905050506120b8565b604051808215151515815260200191505060405180910390f35b3480156110bd57600080fd5b506110fc600480360381019080803573ffffffffffffffffffffffffffffffffffffffff169060200190929190803590602001909291905050506120d8565b604051808273ffffffffffffffffffffffffffffffffffffffff1673ffffffffffffffffffffffffffffffffffffffff16815260200191505060405180910390f35b34801561114a57600080fd5b50611153612124565b6040518082815260200191505060405180910390f35b34801561117557600080fd5b5061117e61212a565b604051808273ffffffffffffffffffffffffffffffffffffffff1673ffffffffffffffffffffffffffffffffffffffff16815260200191505060405180910390f35b3480156111cc57600080fd5b506111eb60048036038101908080359060200190929190505050612153565b6040518082815260200191505060405180910390f35b34801561120d57600080fd5b5061121661216b565b604051808215151515815260200191505060405180910390f35b34801561123c57600080fd5b5061126560048036038101908080359060200190929190803590602001909291905050506121c2565b6040518082815260200191505060405180910390f35b34801561128757600080fd5b506112b060048036038101908080359060200190929190803590602001909291905050506121e7565b6040518082815260200191505060405180910390f35b3480156112d257600080fd5b506112f16004803603810190808035906020019092919050505061220c565b604051808581526020018473ffffffffffffffffffffffffffffffffffffffff1673ffffffffffffffffffffffffffffffffffffffff1681526020018315151515815260200182815260200194505050505060405180910390f35b34801561135857600080fd5b50611361612278565b604051808273ffffffffffffffffffffffffffffffffffffffff1673ffffffffffffffffffffffffffffffffffffffff16815260200191505060405180910390f35b3480156113af57600080fd5b506113ee60048036038101908080359060200190929190803573ffffffffffffffffffffffffffffffffffffffff16906020019092919050505061229e565b604051808215151515815260200191505060405180910390f35b34801561141457600080fd5b5061141d6122cd565b005b34801561142b57600080fd5b5061144a6004803603810190808035906020019092919050505061276d565b604051808273ffffffffffffffffffffffffffffffffffffffff1673ffffffffffffffffffffffffffffffffffffffff16815260200191505060405180910390f35b34801561149857600080fd5b506114d760048036038101908080359060200190929190803573ffffffffffffffffffffffffffffffffffffffff1690602001909291905050506127a0565b6040518082815260200191505060405180910390f35b3480156114f957600080fd5b506115426004803603810190808035906020019092919080359060200190929190803573ffffffffffffffffffffffffffffffffffffffff1690602001909291905050506127c5565b6040518082815260200191505060405180910390f35b34801561156457600080fd5b5061158d60048036038101908080359060200190929190803590602001909291905050506127f7565b6040518082815260200191505060405180910390f35b3480156115af57600080fd5b506115e4600480360381019080803573ffffffffffffffffffffffffffffffffffffffff16906020019092919050505061281c565b604051808215151515815260200191505060405180910390f35b34801561160a57600080fd5b506116296004803603810190808035906020019092919050505061283c565b6040518082815260200191505060405180910390f35b34801561164b57600080fd5b5061166a60048036038101908080359060200190929190505050612854565b6040518082815260200191505060405180910390f35b34801561168c57600080fd5b506116b5600480360381019080803590602001909291908035906020019092919050505061286c565b6040518082815260200191505060405180910390f35b3480156116d757600080fd5b506116e0612891565b6040518082815260200191505060405180910390f35b34801561170257600080fd5b506117256004803603810190808035600019169060200190929190505050612897565b604051808215151515815260200191505060405180910390f35b34801561174b57600080fd5b5061177460048036038101908080359060200190929190803590602001909291905050506128b7565b6040518082815260200191505060405180910390f35b34801561179657600080fd5b506117b5600480360381019080803590602001909291905050506128dc565b604051808215151515815260200191505060405180910390f35b3480156117db57600080fd5b50611810600480360381019080803573ffffffffffffffffffffffffffffffffffffffff1690602001909291905050506128fc565b604051808273ffffffffffffffffffffffffffffffffffffffff1673ffffffffffffffffffffffffffffffffffffffff16815260200191505060405180910390f35b34801561185e57600080fd5b5061189d60048036038101908080359060200190929190803573ffffffffffffffffffffffffffffffffffffffff16906020019092919050505061292f565b6040518082815260200191505060405180910390f35b3480156118bf57600080fd5b506118c8612954565b6040518082815260200191505060405180910390f35b3480156118ea57600080fd5b5061191f600480360381019080803573ffffffffffffffffffffffffffffffffffffffff16906020019092919050505061295a565b005b34801561192d57600080fd5b5061194c60048036038101908080359060200190929190505050612979565b6040518082815260200191505060405180910390f35b34801561196e57600080fd5b50611977612991565b6040518082815260200191505060405180910390f35b34801561199957600080fd5b506119ce600480360381019080803573ffffffffffffffffffffffffffffffffffffffff169060200190929190505050612997565b6040518082815260200191505060405180910390f35b3480156119f057600080fd5b506119f96129af565b6040518082815260200191505060405180910390f35b604160149054906101000a900460ff1681565b60346020528160005260406000206020528060005260406000206000915091509054906101000a900460ff1681565b60236020528060005260406000206000915054906101000a900473ffffffffffffffffffffffffffffffffffffffff1681565b603a6020528060005260406000206000915054906101000a900473ffffffffffffffffffffffffffffffffffffffff1681565b6006602052816000526040600020602052806000526040600020600091509150505481565b60295481565b600f6020528060005260406000206000915054906101000a900473ffffffffffffffffffffffffffffffffffffffff1681565b60476020528060005260406000206000915054906101000a900460ff1681565b60216020528060005260406000206000915054906101000a900460ff1681565b600e602052816000526040600020602052806000526040600020600091509150505481565b60455481565b601d6020528060005260406000206000915054906101000a900460ff1681565b601b6020528160005260406000206020528060005260406000206000915091509054906101000a900460ff1681565b604160169054906101000a900460ff1681565b60426020528060005260406000206000915054906101000a900460ff1681565b60176020528060005260406000206000915090505481565b60396020528060005260406000206000915090505481565b601a602052816000526040600020602052806000526040600020600091509150505481565b603060205281600052604060002081815481101515611c7257fe5b906000526020600020016000915091509054906101000a900473ffffffffffffffffffffffffffffffffffffffff1681565b6036602052816000526040600020602052806000526040600020600091509150505481565b6014602052816000526040600020602052806000526040600020600091509150505481565b60186020528060005260406000206000915090505481565b6035602052816000526040600020602052806000526040600020600091509150505481565b60106020528060005260406000206000915090505481565b602b5481565b604160009054906101000a900473ffffffffffffffffffffffffffffffffffffffff1681565b60256020528060005260406000206000915090505481565b60326020528160005260406000206020528060005260406000206000915091509054906101000a900473ffffffffffffffffffffffffffffffffffffffff1681565b6005602052816000526040600020602052806000526040600020600091509150505481565b60386020528060005260406000206000915054906101000a900460ff1681565b60096020528060005260406000206000915090505481565b60226020528060005260406000206000915090508054600181600116156101000203166002900480601f016020809104026020016040519081016040528092919081815260200182805460018160011615610100020316600290048015611ece5780601f10611ea357610100808354040283529160200191611ece565b820191906000526020600020905b815481529060010190602001808311611eb157829003601f168201915b505050505081565b603e5481565b602f60205281600052604060002081815481101515611ef757fe5b906000526020600020016000915091509054906101000a900473ffffffffffffffffffffffffffffffffffffffff1681565b60166020528160005260406000206020528060005260406000206000915091509054906101000a900460ff1681565b600c6020528060005260406000206000915090505481565b60196020528060005260406000206000915090505481565b611f9061216b565b1515611f9b57600080fd5b600073ffffffffffffffffffffffffffffffffffffffff166000809054906101000a900473ffffffffffffffffffffffffffffffffffffffff1673ffffffffffffffffffffffffffffffffffffffff167f8be0079c531659141344cd1fd0a4f28419497f9722a3daafe3b4186f6b6457e060405160405180910390a360008060006101000a81548173ffffffffffffffffffffffffffffffffffffffff021916908373ffffffffffffffffffffffffffffffffffffffff160217905550565b600a6020528060005260406000206000915090505481565b604160159054906101000a900460ff1681565b600b6020528060005260406000206000915054906101000a900473ffffffffffffffffffffffffffffffffffffffff1681565b601e6020528060005260406000206000915054906101000a900460ff1681565b60208052816000526040600020818154811015156120f257fe5b906000526020600020016000915091509054906101000a900473ffffffffffffffffffffffffffffffffffffffff1681565b60285481565b60008060009054906101000a900473ffffffffffffffffffffffffffffffffffffffff16905090565b602e6020528060005260406000206000915090505481565b60008060009054906101000a900473ffffffffffffffffffffffffffffffffffffffff1673ffffffffffffffffffffffffffffffffffffffff163373ffffffffffffffffffffffffffffffffffffffff1614905090565b6011602052816000526040600020602052806000526040600020600091509150505481565b6008602052816000526040600020602052806000526040600020600091509150505481565b603f8181548110151561221b57fe5b90600052602060002090600302016000915090508060000154908060010160009054906101000a900473ffffffffffffffffffffffffffffffffffffffff16908060010160149054906101000a900460ff16908060020154905084565b604060009054906101000a900473ffffffffffffffffffffffffffffffffffffffff1681565b60336020528160005260406000206020528060005260406000206000915091509054906101000a900460ff1681565b60008060008060011515604160169054906101000a900460ff161515141515612384576040517f08c379a00000000000000000000000000000000000000000000000000000000081526004018080602001828103825260308152602001807f43616e6e6f7420646973747269627574652074696d652062616e6b207072697a81526020017f6520617420746865206d6f6d656e742e0000000000000000000000000000000081525060400191505060405180910390fd5b6000151560386000602954815260200190815260200160002060009054906101000a900460ff161515141515612448576040517f08c379a00000000000000000000000000000000000000000000000000000000081526004018080602001828103825260398152602001807f54696d652042616e6b205072697a657320616c7265616479207472616e73666581526020017f7272656420666f722074686973207462497465726174696f6e0000000000000081525060400191505060405180910390fd5b6124506129b5565b600960006028548152602001908152602001600020546036600060295481526020019081526020016000206000600f6000602854815260200190815260200160002060009054906101000a900473ffffffffffffffffffffffffffffffffffffffff1673ffffffffffffffffffffffffffffffffffffffff1673ffffffffffffffffffffffffffffffffffffffff16815260200190815260200160002060008282540192505081905550603060006029548152602001908152602001600020805490509250600091505b828210156126cb576030600060295481526020019081526020016000208281548110151561254457fe5b9060005260206000200160009054906101000a900473ffffffffffffffffffffffffffffffffffffffff169350600060366000602954815260200190815260200160002060008673ffffffffffffffffffffffffffffffffffffffff1673ffffffffffffffffffffffffffffffffffffffff168152602001908152602001600020541415156126be5760366000602954815260200190815260200160002060008573ffffffffffffffffffffffffffffffffffffffff1673ffffffffffffffffffffffffffffffffffffffff1681526020019081526020016000205490508373ffffffffffffffffffffffffffffffffffffffff166108fc829081150290604051600060405180830381858888f19350505050158015612668573d6000803e3d6000fd5b508373ffffffffffffffffffffffffffffffffffffffff166029546028547f9cfb091475ff9ca14e8040774ab143eef1b3385a30864b88c9813b9dc79d6531846040518082815260200191505060405180910390a45b818060010192505061251a565b6000604160166101000a81548160ff021916908315150217905550600160386000602954815260200190815260200160002060006101000a81548160ff02191690831515021790555061272a6001602854612bd690919063ffffffff16565b6028819055506127466001602954612bd690919063ffffffff16565b6029819055506000604160146101000a81548160ff02191690831515021790555050505050565b60316020528060005260406000206000915054906101000a900473ffffffffffffffffffffffffffffffffffffffff1681565b602c602052816000526040600020602052806000526040600020600091509150505481565b602d60205282600052604060002060205281600052604060002060205280600052604060002060009250925050505481565b6004602052816000526040600020602052806000526040600020600091509150505481565b60466020528060005260406000206000915054906101000a900460ff1681565b60126020528060005260406000206000915090505481565b60076020528060005260406000206000915090505481565b6015602052816000526040600020602052806000526040600020600091509150505481565b60265481565b60246020528060005260406000206000915054906101000a900460ff1681565b6013602052816000526040600020602052806000526040600020600091509150505481565b60376020528060005260406000206000915054906101000a900460ff1681565b601f6020528060005260406000206000915054906101000a900473ffffffffffffffffffffffffffffffffffffffff1681565b601c602052816000526040600020602052806000526040600020600091509150505481565b60275481565b61296261216b565b151561296d57600080fd5b61297681612bf7565b50565b600d6020528060005260406000206000915090505481565b603d5481565b603b6020528060005260406000206000915090505481565b602a5481565b6000806000806129c3612cf1565b9350600090505b83811015612a8557603060006029548152602001908152602001600020818154811015156129f457fe5b9060005260206000200160009054906101000a900473ffffffffffffffffffffffffffffffffffffffff169250602c6000602954815260200190815260200160002060008473ffffffffffffffffffffffffffffffffffffffff1673ffffffffffffffffffffffffffffffffffffffff168152602001908152602001600020548201915080806001019150506129ca565b600090505b83811015612bd05760306000602954815260200190815260200160002081815481101515612ab457fe5b9060005260206000200160009054906101000a900473ffffffffffffffffffffffffffffffffffffffff169250612b6d82612b5f60096000602854815260200190815260200160002054602c6000602954815260200190815260200160002060008873ffffffffffffffffffffffffffffffffffffffff1673ffffffffffffffffffffffffffffffffffffffff16815260200190815260200160002054612f6390919063ffffffff16565b612fa190919063ffffffff16565b60366000602954815260200190815260200160002060008573ffffffffffffffffffffffffffffffffffffffff1673ffffffffffffffffffffffffffffffffffffffff168152602001908152602001600020819055508080600101915050612a8a565b50505050565b6000808284019050838110151515612bed57600080fd5b8091505092915050565b600073ffffffffffffffffffffffffffffffffffffffff168173ffffffffffffffffffffffffffffffffffffffff1614151515612c3357600080fd5b8073ffffffffffffffffffffffffffffffffffffffff166000809054906101000a900473ffffffffffffffffffffffffffffffffffffffff1673ffffffffffffffffffffffffffffffffffffffff167f8be0079c531659141344cd1fd0a4f28419497f9722a3daafe3b4186f6b6457e060405160405180910390a3806000806101000a81548173ffffffffffffffffffffffffffffffffffffffff021916908373ffffffffffffffffffffffffffffffffffffffff16021790555050565b6000806000602b5491505b6000821115612f43576000151560346000602954815260200190815260200160002060006031600086815260200190815260200160002060009054906101000a900473ffffffffffffffffffffffffffffffffffffffff1673ffffffffffffffffffffffffffffffffffffffff1673ffffffffffffffffffffffffffffffffffffffff16815260200190815260200160002060009054906101000a900460ff1615151415612f35576064602b541115612dc357606481101515612dbe57612f43565b612dd4565b602b5481101515612dd357612f43565b5b6030600060295481526020019081526020016000206031600084815260200190815260200160002060009054906101000a900473ffffffffffffffffffffffffffffffffffffffff1690806001815401808255809150509060018203906000526020600020016000909192909190916101000a81548173ffffffffffffffffffffffffffffffffffffffff021916908373ffffffffffffffffffffffffffffffffffffffff16021790555050612e94600182612bd690919063ffffffff16565b9050600160346000602954815260200190815260200160002060006031600086815260200190815260200160002060009054906101000a900473ffffffffffffffffffffffffffffffffffffffff1673ffffffffffffffffffffffffffffffffffffffff1673ffffffffffffffffffffffffffffffffffffffff16815260200190815260200160002060006101000a81548160ff0219169083151502179055505b818060019003925050612cfc565b603060006029548152602001908152602001600020805490509250505090565b6000806000841415612f785760009150612f9a565b8284029050828482811515612f8957fe5b04141515612f9657600080fd5b8091505b5092915050565b600080600083111515612fb357600080fd5b8284811515612fbe57fe5b04905080915050929150505600a165627a7a72305820770bb8846bcc69b4c1026a4e3ab5a0617dfc51aa943d175ad375c916e969a2880029",
  "source": "pragma solidity ^0.4.24;\nimport \"./SafeMath.sol\";\nimport \"./Modifiers.sol\";\n\ncontract TimeTeam is Modifiers {\n    using SafeMath for uint;\n\n    //      100   \n    function formTimeTeam() private returns (uint) {\n        \n        for (uint i = paintsCounter; i > 0; i--) {\n            uint teamMembersCounter;\n            if (isInTBT[tbIteration][counterToPainter[i]] == false) {\n                \n                if (paintsCounter > 100) {\n                    if (teamMembersCounter >= 100)   \n                        break;\n                }\n            \n                else {\n                    if (teamMembersCounter >= paintsCounter)\n                        break;\n                }\n                \n                tbTeam[tbIteration].push(counterToPainter[i]);\n                teamMembersCounter = teamMembersCounter.add(1);\n                isInTBT[tbIteration][counterToPainter[i]] = true;\n            }\n        }\n        return tbTeam[tbIteration].length;\n    }\n    \n    function calculateTBP() private {\n\n        uint length = formTimeTeam();\n        address painter;\n        uint totalPaintsForTeam; \n\n        for (uint i = 0; i < length; i++) {\n            painter = tbTeam[tbIteration][i];\n            totalPaintsForTeam += timeBankShare[tbIteration][painter];\n        }\n\n        for (i = 0; i < length; i++) {\n            painter = tbTeam[tbIteration][i];\n            painterToTBP[tbIteration][painter] = (timeBankShare[tbIteration][painter].mul(timeBankForRound[currentRound])).div(totalPaintsForTeam);\n        }\n\n    }\n\n    function distributeTBP() external canDistributeTBP() {\n        require(isTBPTransfered[tbIteration] == false, \"Time Bank Prizes already transferred for this tbIteration\");\n        address painter;\n        calculateTBP();\n        painterToTBP[tbIteration][winnerOfRound[currentRound]] += timeBankForRound[currentRound];\n        uint length = tbTeam[tbIteration].length;\n        for (uint i = 0; i < length; i++) {\n            painter = tbTeam[tbIteration][i];\n            if (painterToTBP[tbIteration][painter] != 0) {\n                uint prize = painterToTBP[tbIteration][painter];\n                painter.transfer(prize);\n                emit TBPDistributed(currentRound, tbIteration, painter, prize);\n            }\n        }\n        isTBPDistributable = false;\n        isTBPTransfered[tbIteration] = true;\n        \n        currentRound = currentRound.add(1); //  \n        tbIteration = tbIteration.add(1); //    \n        isGamePaused = false;\n    }\n}",
  "sourcePath": "/Users/Amir/last-pixel-contracts/contracts/TimeTeam.sol",
  "compiler": {
    "name": "solc",
    "version": "0.4.24+commit.e67f0147.Emscripten.clang"
  },
  "schemaVersion": "2.0.1",
  "updatedAt": "2019-01-17T12:18:34.598Z"
}