{
  "contractName": "TimeTeam",
  "abi": [
    {
      "constant": true,
      "inputs": [],
      "name": "isGamePaused",
      "outputs": [
        {
          "name": "",
          "type": "bool"
        }
      ],
      "payable": false,
      "stateMutability": "view",
      "type": "function"
    },
    {
      "constant": true,
      "inputs": [
        {
          "name": "",
          "type": "uint256"
        },
        {
          "name": "",
          "type": "address"
        }
      ],
      "name": "isInTBT",
      "outputs": [
        {
          "name": "",
          "type": "bool"
        }
      ],
      "payable": false,
      "stateMutability": "view",
      "type": "function"
    },
    {
      "constant": true,
      "inputs": [
        {
          "name": "",
          "type": "uint256"
        },
        {
          "name": "",
          "type": "uint256"
        }
      ],
      "name": "colorToTotalPaintsForRound",
      "outputs": [
        {
          "name": "",
          "type": "uint256"
        }
      ],
      "payable": false,
      "stateMutability": "view",
      "type": "function"
    },
    {
      "constant": true,
      "inputs": [
        {
          "name": "",
          "type": "uint256"
        },
        {
          "name": "",
          "type": "uint256"
        }
      ],
      "name": "colorToPaintedPixelsAmountForRound",
      "outputs": [
        {
          "name": "",
          "type": "uint256"
        }
      ],
      "payable": false,
      "stateMutability": "view",
      "type": "function"
    },
    {
      "constant": true,
      "inputs": [],
      "name": "tbIteration",
      "outputs": [
        {
          "name": "",
          "type": "uint256"
        }
      ],
      "payable": false,
      "stateMutability": "view",
      "type": "function"
    },
    {
      "constant": true,
      "inputs": [
        {
          "name": "",
          "type": "uint256"
        }
      ],
      "name": "winnerOfRound",
      "outputs": [
        {
          "name": "",
          "type": "address"
        }
      ],
      "payable": false,
      "stateMutability": "view",
      "type": "function"
    },
    {
      "constant": false,
      "inputs": [
        {
          "name": "_admin",
          "type": "address"
        }
      ],
      "name": "removeAdmin",
      "outputs": [],
      "payable": false,
      "stateMutability": "nonpayable",
      "type": "function"
    },
    {
      "constant": true,
      "inputs": [
        {
          "name": "",
          "type": "address"
        }
      ],
      "name": "isAdmin",
      "outputs": [
        {
          "name": "",
          "type": "bool"
        }
      ],
      "payable": false,
      "stateMutability": "view",
      "type": "function"
    },
    {
      "constant": true,
      "inputs": [
        {
          "name": "",
          "type": "uint256"
        }
      ],
      "name": "currentPaintGenForColor",
      "outputs": [
        {
          "name": "",
          "type": "uint256"
        }
      ],
      "payable": false,
      "stateMutability": "view",
      "type": "function"
    },
    {
      "constant": true,
      "inputs": [
        {
          "name": "",
          "type": "uint256"
        },
        {
          "name": "",
          "type": "uint256"
        }
      ],
      "name": "tbTeam",
      "outputs": [
        {
          "name": "",
          "type": "address"
        }
      ],
      "payable": false,
      "stateMutability": "view",
      "type": "function"
    },
    {
      "constant": true,
      "inputs": [
        {
          "name": "",
          "type": "uint256"
        },
        {
          "name": "",
          "type": "address"
        }
      ],
      "name": "painterToTBP",
      "outputs": [
        {
          "name": "",
          "type": "uint256"
        }
      ],
      "payable": false,
      "stateMutability": "view",
      "type": "function"
    },
    {
      "constant": true,
      "inputs": [
        {
          "name": "",
          "type": "uint256"
        },
        {
          "name": "",
          "type": "uint256"
        }
      ],
      "name": "paintGenToStartTimeForColor",
      "outputs": [
        {
          "name": "",
          "type": "uint256"
        }
      ],
      "payable": false,
      "stateMutability": "view",
      "type": "function"
    },
    {
      "constant": true,
      "inputs": [
        {
          "name": "",
          "type": "uint256"
        }
      ],
      "name": "callPriceForColor",
      "outputs": [
        {
          "name": "",
          "type": "uint256"
        }
      ],
      "payable": false,
      "stateMutability": "view",
      "type": "function"
    },
    {
      "constant": true,
      "inputs": [
        {
          "name": "",
          "type": "uint256"
        },
        {
          "name": "",
          "type": "address"
        }
      ],
      "name": "painterToCBP",
      "outputs": [
        {
          "name": "",
          "type": "uint256"
        }
      ],
      "payable": false,
      "stateMutability": "view",
      "type": "function"
    },
    {
      "constant": false,
      "inputs": [],
      "name": "resumeGame",
      "outputs": [],
      "payable": false,
      "stateMutability": "nonpayable",
      "type": "function"
    },
    {
      "constant": true,
      "inputs": [
        {
          "name": "",
          "type": "uint256"
        }
      ],
      "name": "winnerBankForRound",
      "outputs": [
        {
          "name": "",
          "type": "uint256"
        }
      ],
      "payable": false,
      "stateMutability": "view",
      "type": "function"
    },
    {
      "constant": true,
      "inputs": [],
      "name": "paintsCounter",
      "outputs": [
        {
          "name": "",
          "type": "uint256"
        }
      ],
      "payable": false,
      "stateMutability": "view",
      "type": "function"
    },
    {
      "constant": true,
      "inputs": [
        {
          "name": "",
          "type": "uint256"
        },
        {
          "name": "",
          "type": "uint256"
        }
      ],
      "name": "counterToPainterForColor",
      "outputs": [
        {
          "name": "",
          "type": "address"
        }
      ],
      "payable": false,
      "stateMutability": "view",
      "type": "function"
    },
    {
      "constant": false,
      "inputs": [],
      "name": "pauseGame",
      "outputs": [],
      "payable": false,
      "stateMutability": "nonpayable",
      "type": "function"
    },
    {
      "constant": true,
      "inputs": [
        {
          "name": "",
          "type": "uint256"
        },
        {
          "name": "",
          "type": "uint256"
        }
      ],
      "name": "pixelToOldColorForRound",
      "outputs": [
        {
          "name": "",
          "type": "uint256"
        }
      ],
      "payable": false,
      "stateMutability": "view",
      "type": "function"
    },
    {
      "constant": true,
      "inputs": [
        {
          "name": "",
          "type": "uint256"
        }
      ],
      "name": "isTBPTransfered",
      "outputs": [
        {
          "name": "",
          "type": "bool"
        }
      ],
      "payable": false,
      "stateMutability": "view",
      "type": "function"
    },
    {
      "constant": true,
      "inputs": [
        {
          "name": "",
          "type": "uint256"
        }
      ],
      "name": "timeBankForRound",
      "outputs": [
        {
          "name": "",
          "type": "uint256"
        }
      ],
      "payable": false,
      "stateMutability": "view",
      "type": "function"
    },
    {
      "constant": true,
      "inputs": [
        {
          "name": "",
          "type": "uint256"
        },
        {
          "name": "",
          "type": "uint256"
        }
      ],
      "name": "cbTeam",
      "outputs": [
        {
          "name": "",
          "type": "address"
        }
      ],
      "payable": false,
      "stateMutability": "view",
      "type": "function"
    },
    {
      "constant": true,
      "inputs": [
        {
          "name": "",
          "type": "uint256"
        },
        {
          "name": "",
          "type": "uint256"
        }
      ],
      "name": "paintGenStartedForColor",
      "outputs": [
        {
          "name": "",
          "type": "bool"
        }
      ],
      "payable": false,
      "stateMutability": "view",
      "type": "function"
    },
    {
      "constant": true,
      "inputs": [
        {
          "name": "",
          "type": "uint256"
        }
      ],
      "name": "lastPaintedPixelForRound",
      "outputs": [
        {
          "name": "",
          "type": "uint256"
        }
      ],
      "payable": false,
      "stateMutability": "view",
      "type": "function"
    },
    {
      "constant": true,
      "inputs": [
        {
          "name": "",
          "type": "uint256"
        }
      ],
      "name": "nextCallPriceForColor",
      "outputs": [
        {
          "name": "",
          "type": "uint256"
        }
      ],
      "payable": false,
      "stateMutability": "view",
      "type": "function"
    },
    {
      "constant": false,
      "inputs": [
        {
          "name": "_new",
          "type": "address"
        }
      ],
      "name": "addAdmin",
      "outputs": [],
      "payable": false,
      "stateMutability": "nonpayable",
      "type": "function"
    },
    {
      "constant": false,
      "inputs": [],
      "name": "renounceOwnership",
      "outputs": [],
      "payable": false,
      "stateMutability": "nonpayable",
      "type": "function"
    },
    {
      "constant": true,
      "inputs": [
        {
          "name": "",
          "type": "uint256"
        }
      ],
      "name": "lastPaintTimeForRound",
      "outputs": [
        {
          "name": "",
          "type": "uint256"
        }
      ],
      "payable": false,
      "stateMutability": "view",
      "type": "function"
    },
    {
      "constant": true,
      "inputs": [
        {
          "name": "",
          "type": "uint256"
        }
      ],
      "name": "lastPainterForRound",
      "outputs": [
        {
          "name": "",
          "type": "address"
        }
      ],
      "payable": false,
      "stateMutability": "view",
      "type": "function"
    },
    {
      "constant": true,
      "inputs": [],
      "name": "currentRound",
      "outputs": [
        {
          "name": "",
          "type": "uint256"
        }
      ],
      "payable": false,
      "stateMutability": "view",
      "type": "function"
    },
    {
      "constant": false,
      "inputs": [],
      "name": "renounceAdmin",
      "outputs": [],
      "payable": false,
      "stateMutability": "nonpayable",
      "type": "function"
    },
    {
      "constant": true,
      "inputs": [],
      "name": "owner",
      "outputs": [
        {
          "name": "",
          "type": "address"
        }
      ],
      "payable": false,
      "stateMutability": "view",
      "type": "function"
    },
    {
      "constant": true,
      "inputs": [
        {
          "name": "",
          "type": "uint256"
        }
      ],
      "name": "paintsCounterForColor",
      "outputs": [
        {
          "name": "",
          "type": "uint256"
        }
      ],
      "payable": false,
      "stateMutability": "view",
      "type": "function"
    },
    {
      "constant": true,
      "inputs": [],
      "name": "isOwner",
      "outputs": [
        {
          "name": "",
          "type": "bool"
        }
      ],
      "payable": false,
      "stateMutability": "view",
      "type": "function"
    },
    {
      "constant": true,
      "inputs": [
        {
          "name": "",
          "type": "uint256"
        },
        {
          "name": "",
          "type": "uint256"
        }
      ],
      "name": "pixelToPaintTimeForRound",
      "outputs": [
        {
          "name": "",
          "type": "uint256"
        }
      ],
      "payable": false,
      "stateMutability": "view",
      "type": "function"
    },
    {
      "constant": true,
      "inputs": [
        {
          "name": "",
          "type": "uint256"
        },
        {
          "name": "",
          "type": "uint256"
        }
      ],
      "name": "colorBankToColorForRound",
      "outputs": [
        {
          "name": "",
          "type": "uint256"
        }
      ],
      "payable": false,
      "stateMutability": "view",
      "type": "function"
    },
    {
      "constant": true,
      "inputs": [
        {
          "name": "",
          "type": "uint256"
        },
        {
          "name": "",
          "type": "address"
        }
      ],
      "name": "isInCBT",
      "outputs": [
        {
          "name": "",
          "type": "bool"
        }
      ],
      "payable": false,
      "stateMutability": "view",
      "type": "function"
    },
    {
      "constant": true,
      "inputs": [
        {
          "name": "",
          "type": "uint256"
        }
      ],
      "name": "counterToPainter",
      "outputs": [
        {
          "name": "",
          "type": "address"
        }
      ],
      "payable": false,
      "stateMutability": "view",
      "type": "function"
    },
    {
      "constant": true,
      "inputs": [
        {
          "name": "",
          "type": "uint256"
        },
        {
          "name": "",
          "type": "address"
        }
      ],
      "name": "timeBankShare",
      "outputs": [
        {
          "name": "",
          "type": "uint256"
        }
      ],
      "payable": false,
      "stateMutability": "view",
      "type": "function"
    },
    {
      "constant": true,
      "inputs": [
        {
          "name": "",
          "type": "uint256"
        },
        {
          "name": "",
          "type": "uint256"
        },
        {
          "name": "",
          "type": "address"
        }
      ],
      "name": "colorBankShare",
      "outputs": [
        {
          "name": "",
          "type": "uint256"
        }
      ],
      "payable": false,
      "stateMutability": "view",
      "type": "function"
    },
    {
      "constant": true,
      "inputs": [
        {
          "name": "",
          "type": "uint256"
        },
        {
          "name": "",
          "type": "uint256"
        }
      ],
      "name": "pixelToColorForRound",
      "outputs": [
        {
          "name": "",
          "type": "uint256"
        }
      ],
      "payable": false,
      "stateMutability": "view",
      "type": "function"
    },
    {
      "constant": true,
      "inputs": [
        {
          "name": "",
          "type": "uint256"
        }
      ],
      "name": "totalPaintsForRound",
      "outputs": [
        {
          "name": "",
          "type": "uint256"
        }
      ],
      "payable": false,
      "stateMutability": "view",
      "type": "function"
    },
    {
      "constant": true,
      "inputs": [
        {
          "name": "",
          "type": "uint256"
        }
      ],
      "name": "colorBankForRound",
      "outputs": [
        {
          "name": "",
          "type": "uint256"
        }
      ],
      "payable": false,
      "stateMutability": "view",
      "type": "function"
    },
    {
      "constant": true,
      "inputs": [
        {
          "name": "",
          "type": "uint256"
        },
        {
          "name": "",
          "type": "uint256"
        }
      ],
      "name": "paintGenToEndTimeForColor",
      "outputs": [
        {
          "name": "",
          "type": "uint256"
        }
      ],
      "payable": false,
      "stateMutability": "view",
      "type": "function"
    },
    {
      "constant": true,
      "inputs": [
        {
          "name": "",
          "type": "uint256"
        },
        {
          "name": "",
          "type": "uint256"
        }
      ],
      "name": "paintGenToAmountForColor",
      "outputs": [
        {
          "name": "",
          "type": "uint256"
        }
      ],
      "payable": false,
      "stateMutability": "view",
      "type": "function"
    },
    {
      "constant": true,
      "inputs": [
        {
          "name": "",
          "type": "uint256"
        }
      ],
      "name": "isCBPTransfered",
      "outputs": [
        {
          "name": "",
          "type": "bool"
        }
      ],
      "payable": false,
      "stateMutability": "view",
      "type": "function"
    },
    {
      "constant": true,
      "inputs": [],
      "name": "maxPaintsInPool",
      "outputs": [
        {
          "name": "",
          "type": "uint256"
        }
      ],
      "payable": false,
      "stateMutability": "view",
      "type": "function"
    },
    {
      "constant": false,
      "inputs": [
        {
          "name": "newOwner",
          "type": "address"
        }
      ],
      "name": "transferOwnership",
      "outputs": [],
      "payable": false,
      "stateMutability": "nonpayable",
      "type": "function"
    },
    {
      "constant": true,
      "inputs": [
        {
          "name": "",
          "type": "uint256"
        }
      ],
      "name": "winnerColorForRound",
      "outputs": [
        {
          "name": "",
          "type": "uint256"
        }
      ],
      "payable": false,
      "stateMutability": "view",
      "type": "function"
    },
    {
      "constant": true,
      "inputs": [],
      "name": "cbIteration",
      "outputs": [
        {
          "name": "",
          "type": "uint256"
        }
      ],
      "payable": false,
      "stateMutability": "view",
      "type": "function"
    },
    {
      "anonymous": false,
      "inputs": [
        {
          "indexed": true,
          "name": "round",
          "type": "uint256"
        },
        {
          "indexed": true,
          "name": "tbIteration",
          "type": "uint256"
        },
        {
          "indexed": false,
          "name": "winner",
          "type": "address"
        }
      ],
      "name": "TBPDistributed",
      "type": "event"
    },
    {
      "anonymous": false,
      "inputs": [
        {
          "indexed": true,
          "name": "previousOwner",
          "type": "address"
        },
        {
          "indexed": true,
          "name": "newOwner",
          "type": "address"
        }
      ],
      "name": "OwnershipTransferred",
      "type": "event"
    },
    {
      "constant": false,
      "inputs": [],
      "name": "distributeTBP",
      "outputs": [],
      "payable": false,
      "stateMutability": "nonpayable",
      "type": "function"
    }
  ],
  "bytecode": "0x608060405233602860006101000a81548173ffffffffffffffffffffffffffffffffffffffff021916908373ffffffffffffffffffffffffffffffffffffffff160217905550602860009054906101000a900473ffffffffffffffffffffffffffffffffffffffff1673ffffffffffffffffffffffffffffffffffffffff16600073ffffffffffffffffffffffffffffffffffffffff167f8be0079c531659141344cd1fd0a4f28419497f9722a3daafe3b4186f6b6457e060405160405180910390a36001602960003373ffffffffffffffffffffffffffffffffffffffff1673ffffffffffffffffffffffffffffffffffffffff16815260200190815260200160002060006101000a81548160ff0219169083151502179055506127ab806101296000396000f300608060405260043610610272576000357c0100000000000000000000000000000000000000000000000000000000900463ffffffff1680630422ddf31461027757806305bdd0be146102a65780630ba362211461030b5780630cf9603f146103565780630f6ed86e146103a1578063102f9713146103cc5780631785f53c1461043957806324d7806c1461047c57806328361f57146104d75780632c7a3dae1461051857806333f9c3881461058f5780633a173505146105f05780633c6dd0131461063b5780633ca4c1831461067c5780633cc4c6ce146106dd5780633d0d1a79146106f45780633dc3c3771461073557806342e453ec14610760578063499831f2146107d75780634b39173d146107ee5780634c438ad7146108395780634c78e4011461087e5780635d63ebb2146108bf5780635f5d554c14610936578063628a71a3146109855780636f17eb42146109c65780637048027514610a07578063715018a614610a4a57806373a9ee2614610a6157806379ecf37614610aa25780638a19c8bc14610b0f5780638bad0c0a14610b3a5780638da5cb5b14610b515780638e2df39c14610ba85780638f32d59b14610be95780638f63b7e514610c18578063a312072414610c63578063ab24c7d214610cae578063ad71ee2314610d13578063ae55ce8214610d2a578063b0ff59d214610d97578063b1a3883c14610df8578063b8232d5d14610e63578063be7d622614610eae578063c64a2e5614610eef578063c957387b14610f30578063d5de47c714610f7b578063da68b12114610fc6578063eef565da1461100b578063f2fde38b14611036578063f49916f514611079578063fea11fe3146110ba575b600080fd5b34801561028357600080fd5b5061028c6110e5565b604051808215151515815260200191505060405180910390f35b3480156102b257600080fd5b506102f160048036038101908080359060200190929190803573ffffffffffffffffffffffffffffffffffffffff1690602001909291905050506110f8565b604051808215151515815260200191505060405180910390f35b34801561031757600080fd5b506103406004803603810190808035906020019092919080359060200190929190505050611127565b6040518082815260200191505060405180910390f35b34801561036257600080fd5b5061038b600480360381019080803590602001909291908035906020019092919050505061114c565b6040518082815260200191505060405180910390f35b3480156103ad57600080fd5b506103b6611171565b6040518082815260200191505060405180910390f35b3480156103d857600080fd5b506103f760048036038101908080359060200190929190505050611177565b604051808273ffffffffffffffffffffffffffffffffffffffff1673ffffffffffffffffffffffffffffffffffffffff16815260200191505060405180910390f35b34801561044557600080fd5b5061047a600480360381019080803573ffffffffffffffffffffffffffffffffffffffff1690602001909291905050506111aa565b005b34801561048857600080fd5b506104bd600480360381019080803573ffffffffffffffffffffffffffffffffffffffff169060200190929190505050611218565b604051808215151515815260200191505060405180910390f35b3480156104e357600080fd5b5061050260048036038101908080359060200190929190505050611238565b6040518082815260200191505060405180910390f35b34801561052457600080fd5b5061054d6004803603810190808035906020019092919080359060200190929190505050611250565b604051808273ffffffffffffffffffffffffffffffffffffffff1673ffffffffffffffffffffffffffffffffffffffff16815260200191505060405180910390f35b34801561059b57600080fd5b506105da60048036038101908080359060200190929190803573ffffffffffffffffffffffffffffffffffffffff16906020019092919050505061129d565b6040518082815260200191505060405180910390f35b3480156105fc57600080fd5b5061062560048036038101908080359060200190929190803590602001909291905050506112c2565b6040518082815260200191505060405180910390f35b34801561064757600080fd5b50610666600480360381019080803590602001909291905050506112e7565b6040518082815260200191505060405180910390f35b34801561068857600080fd5b506106c760048036038101908080359060200190929190803573ffffffffffffffffffffffffffffffffffffffff1690602001909291905050506112ff565b6040518082815260200191505060405180910390f35b3480156106e957600080fd5b506106f2611324565b005b34801561070057600080fd5b5061071f60048036038101908080359060200190929190505050611494565b6040518082815260200191505060405180910390f35b34801561074157600080fd5b5061074a6114ac565b6040518082815260200191505060405180910390f35b34801561076c57600080fd5b5061079560048036038101908080359060200190929190803590602001909291905050506114b2565b604051808273ffffffffffffffffffffffffffffffffffffffff1673ffffffffffffffffffffffffffffffffffffffff16815260200191505060405180910390f35b3480156107e357600080fd5b506107ec6114f4565b005b3480156107fa57600080fd5b506108236004803603810190808035906020019092919080359060200190929190505050611664565b6040518082815260200191505060405180910390f35b34801561084557600080fd5b5061086460048036038101908080359060200190929190505050611689565b604051808215151515815260200191505060405180910390f35b34801561088a57600080fd5b506108a9600480360381019080803590602001909291905050506116a9565b6040518082815260200191505060405180910390f35b3480156108cb57600080fd5b506108f460048036038101908080359060200190929190803590602001909291905050506116c1565b604051808273ffffffffffffffffffffffffffffffffffffffff1673ffffffffffffffffffffffffffffffffffffffff16815260200191505060405180910390f35b34801561094257600080fd5b5061096b600480360381019080803590602001909291908035906020019092919050505061170e565b604051808215151515815260200191505060405180910390f35b34801561099157600080fd5b506109b06004803603810190808035906020019092919050505061173d565b6040518082815260200191505060405180910390f35b3480156109d257600080fd5b506109f160048036038101908080359060200190929190505050611755565b6040518082815260200191505060405180910390f35b348015610a1357600080fd5b50610a48600480360381019080803573ffffffffffffffffffffffffffffffffffffffff16906020019092919050505061176d565b005b348015610a5657600080fd5b50610a5f6117db565b005b348015610a6d57600080fd5b50610a8c600480360381019080803590602001909291905050506118af565b6040518082815260200191505060405180910390f35b348015610aae57600080fd5b50610acd600480360381019080803590602001909291905050506118c7565b604051808273ffffffffffffffffffffffffffffffffffffffff1673ffffffffffffffffffffffffffffffffffffffff16815260200191505060405180910390f35b348015610b1b57600080fd5b50610b246118fa565b6040518082815260200191505060405180910390f35b348015610b4657600080fd5b50610b4f611900565b005b348015610b5d57600080fd5b50610b66611a22565b604051808273ffffffffffffffffffffffffffffffffffffffff1673ffffffffffffffffffffffffffffffffffffffff16815260200191505060405180910390f35b348015610bb457600080fd5b50610bd360048036038101908080359060200190929190505050611a4c565b6040518082815260200191505060405180910390f35b348015610bf557600080fd5b50610bfe611a64565b604051808215151515815260200191505060405180910390f35b348015610c2457600080fd5b50610c4d6004803603810190808035906020019092919080359060200190929190505050611abc565b6040518082815260200191505060405180910390f35b348015610c6f57600080fd5b50610c986004803603810190808035906020019092919080359060200190929190505050611ae1565b6040518082815260200191505060405180910390f35b348015610cba57600080fd5b50610cf960048036038101908080359060200190929190803573ffffffffffffffffffffffffffffffffffffffff169060200190929190505050611b06565b604051808215151515815260200191505060405180910390f35b348015610d1f57600080fd5b50610d28611b35565b005b348015610d3657600080fd5b50610d5560048036038101908080359060200190929190505050611fdc565b604051808273ffffffffffffffffffffffffffffffffffffffff1673ffffffffffffffffffffffffffffffffffffffff16815260200191505060405180910390f35b348015610da357600080fd5b50610de260048036038101908080359060200190929190803573ffffffffffffffffffffffffffffffffffffffff16906020019092919050505061200e565b6040518082815260200191505060405180910390f35b348015610e0457600080fd5b50610e4d6004803603810190808035906020019092919080359060200190929190803573ffffffffffffffffffffffffffffffffffffffff169060200190929190505050612033565b6040518082815260200191505060405180910390f35b348015610e6f57600080fd5b50610e986004803603810190808035906020019092919080359060200190929190505050612065565b6040518082815260200191505060405180910390f35b348015610eba57600080fd5b50610ed96004803603810190808035906020019092919050505061208a565b6040518082815260200191505060405180910390f35b348015610efb57600080fd5b50610f1a600480360381019080803590602001909291905050506120a2565b6040518082815260200191505060405180910390f35b348015610f3c57600080fd5b50610f6560048036038101908080359060200190929190803590602001909291905050506120ba565b6040518082815260200191505060405180910390f35b348015610f8757600080fd5b50610fb060048036038101908080359060200190929190803590602001909291905050506120df565b6040518082815260200191505060405180910390f35b348015610fd257600080fd5b50610ff160048036038101908080359060200190929190505050612104565b604051808215151515815260200191505060405180910390f35b34801561101757600080fd5b50611020612124565b6040518082815260200191505060405180910390f35b34801561104257600080fd5b50611077600480360381019080803573ffffffffffffffffffffffffffffffffffffffff16906020019092919050505061212a565b005b34801561108557600080fd5b506110a460048036038101908080359060200190929190505050612149565b6040518082815260200191505060405180910390f35b3480156110c657600080fd5b506110cf612161565b6040518082815260200191505060405180910390f35b602a60009054906101000a900460ff1681565b60236020528160005260406000206020528060005260406000206000915091509054906101000a900460ff1681565b600a602052816000526040600020602052806000526040600020600091509150505481565b6002602052816000526040600020602052806000526040600020600091509150505481565b60185481565b600b6020528060005260406000206000915054906101000a900473ffffffffffffffffffffffffffffffffffffffff1681565b6111b2611a64565b15156111bd57600080fd5b6000602960008373ffffffffffffffffffffffffffffffffffffffff1673ffffffffffffffffffffffffffffffffffffffff16815260200190815260200160002060006101000a81548160ff02191690831515021790555050565b60296020528060005260406000206000915054906101000a900460ff1681565b60146020528060005260406000206000915090505481565b601f6020528160005260406000208181548110151561126b57fe5b906000526020600020016000915091509054906101000a900473ffffffffffffffffffffffffffffffffffffffff1681565b6025602052816000526040600020602052806000526040600020600091509150505481565b6011602052816000526040600020602052806000526040600020600091509150505481565b60156020528060005260406000206000915090505481565b6024602052816000526040600020602052806000526040600020600091509150505481565b60011515602960003373ffffffffffffffffffffffffffffffffffffffff1673ffffffffffffffffffffffffffffffffffffffff16815260200190815260200160002060009054906101000a900460ff1615151415156113ec576040517f08c379a00000000000000000000000000000000000000000000000000000000081526004018080602001828103825260208152602001807f596f7520646f6e277420686176652061646d696e2070726976696c656775657381525060200191505060405180910390fd5b60011515602a60009054906101000a900460ff161515141515611477576040517f08c379a00000000000000000000000000000000000000000000000000000000081526004018080602001828103825260148152602001807f47616d6520697320616c7265616479206c69766500000000000000000000000081525060200191505060405180910390fd5b6000602a60006101000a81548160ff021916908315150217905550565b600c6020528060005260406000206000915090505481565b601a5481565b60216020528160005260406000206020528060005260406000206000915091509054906101000a900473ffffffffffffffffffffffffffffffffffffffff1681565b60011515602960003373ffffffffffffffffffffffffffffffffffffffff1673ffffffffffffffffffffffffffffffffffffffff16815260200190815260200160002060009054906101000a900460ff1615151415156115bc576040517f08c379a00000000000000000000000000000000000000000000000000000000081526004018080602001828103825260208152602001807f596f7520646f6e277420686176652061646d696e2070726976696c656775657381525060200191505060405180910390fd5b60001515602a60009054906101000a900460ff161515141515611647576040517f08c379a00000000000000000000000000000000000000000000000000000000081526004018080602001828103825260168152602001807f47616d6520697320616c7265616479207061757365640000000000000000000081525060200191505060405180910390fd5b6001602a60006101000a81548160ff021916908315150217905550565b6001602052816000526040600020602052806000526040600020600091509150505481565b60276020528060005260406000206000915054906101000a900460ff1681565b60056020528060005260406000206000915090505481565b601e602052816000526040600020818154811015156116dc57fe5b906000526020600020016000915091509054906101000a900473ffffffffffffffffffffffffffffffffffffffff1681565b60136020528160005260406000206020528060005260406000206000915091509054906101000a900460ff1681565b60086020528060005260406000206000915090505481565b60166020528060005260406000206000915090505481565b611775611a64565b151561178057600080fd5b6001602960008373ffffffffffffffffffffffffffffffffffffffff1673ffffffffffffffffffffffffffffffffffffffff16815260200190815260200160002060006101000a81548160ff02191690831515021790555050565b6117e3611a64565b15156117ee57600080fd5b600073ffffffffffffffffffffffffffffffffffffffff16602860009054906101000a900473ffffffffffffffffffffffffffffffffffffffff1673ffffffffffffffffffffffffffffffffffffffff167f8be0079c531659141344cd1fd0a4f28419497f9722a3daafe3b4186f6b6457e060405160405180910390a36000602860006101000a81548173ffffffffffffffffffffffffffffffffffffffff021916908373ffffffffffffffffffffffffffffffffffffffff160217905550565b60066020528060005260406000206000915090505481565b60076020528060005260406000206000915054906101000a900473ffffffffffffffffffffffffffffffffffffffff1681565b600e5481565b60011515602960003373ffffffffffffffffffffffffffffffffffffffff1673ffffffffffffffffffffffffffffffffffffffff16815260200190815260200160002060009054906101000a900460ff1615151415156119c8576040517f08c379a00000000000000000000000000000000000000000000000000000000081526004018080602001828103825260208152602001807f596f7520646f6e277420686176652061646d696e2070726976696c656775657381525060200191505060405180910390fd5b6000602960003373ffffffffffffffffffffffffffffffffffffffff1673ffffffffffffffffffffffffffffffffffffffff16815260200190815260200160002060006101000a81548160ff021916908315150217905550565b6000602860009054906101000a900473ffffffffffffffffffffffffffffffffffffffff16905090565b601d6020528060005260406000206000915090505481565b6000602860009054906101000a900473ffffffffffffffffffffffffffffffffffffffff1673ffffffffffffffffffffffffffffffffffffffff163373ffffffffffffffffffffffffffffffffffffffff1614905090565b600d602052816000526040600020602052806000526040600020600091509150505481565b6004602052816000526040600020602052806000526040600020600091509150505481565b60226020528160005260406000206020528060005260406000206000915091509054906101000a900460ff1681565b600080600060011515602960003373ffffffffffffffffffffffffffffffffffffffff1673ffffffffffffffffffffffffffffffffffffffff16815260200190815260200160002060009054906101000a900460ff161515141515611c02576040517f08c379a00000000000000000000000000000000000000000000000000000000081526004018080602001828103825260208152602001807f596f7520646f6e277420686176652061646d696e2070726976696c656775657381525060200191505060405180910390fd5b60001515602a60009054906101000a900460ff161515141515611c8d576040517f08c379a000000000000000000000000000000000000000000000000000000000815260040180806020018281038252600e8152602001807f47616d652069732070617573656400000000000000000000000000000000000081525060200191505060405180910390fd5b6000151560276000601854815260200190815260200160002060009054906101000a900460ff161515141515611d51576040517f08c379a00000000000000000000000000000000000000000000000000000000081526004018080602001828103825260398152602001807f54696d652042616e6b205072697a657320616c7265616479207472616e73666581526020017f7272656420666f722074686973207462497465726174696f6e0000000000000081525060400191505060405180910390fd5b611d59612167565b601f60006018548152602001908152602001600020805490509150600090505b81811015611ed357601f6000601854815260200190815260200160002081815481101515611da357fe5b9060005260206000200160009054906101000a900473ffffffffffffffffffffffffffffffffffffffff169250600060256000601854815260200190815260200160002060008573ffffffffffffffffffffffffffffffffffffffff1673ffffffffffffffffffffffffffffffffffffffff16815260200190815260200160002054141515611ec6578273ffffffffffffffffffffffffffffffffffffffff166108fc60256000601854815260200190815260200160002060008673ffffffffffffffffffffffffffffffffffffffff1673ffffffffffffffffffffffffffffffffffffffff168152602001908152602001600020549081150290604051600060405180830381858888f19350505050158015611ec4573d6000803e3d6000fd5b505b8080600101915050611d79565b600160276000601854815260200190815260200160002060006101000a81548160ff021916908315150217905550601854600e547feca1f0d0df6b0ed2276273dc39a99e040fa232a569f7fff0aeaa314b04cec997600b6000600e54815260200190815260200160002060009054906101000a900473ffffffffffffffffffffffffffffffffffffffff16604051808273ffffffffffffffffffffffffffffffffffffffff1673ffffffffffffffffffffffffffffffffffffffff16815260200191505060405180910390a3611fb56001600e5461238890919063ffffffff16565b600e81905550611fd1600160185461238890919063ffffffff16565b601881905550505050565b602080528060005260406000206000915054906101000a900473ffffffffffffffffffffffffffffffffffffffff1681565b601b602052816000526040600020602052806000526040600020600091509150505481565b601c60205282600052604060002060205281600052604060002060205280600052604060002060009250925050505481565b6000602052816000526040600020602052806000526040600020600091509150505481565b600f6020528060005260406000206000915090505481565b60036020528060005260406000206000915090505481565b6012602052816000526040600020602052806000526040600020600091509150505481565b6010602052816000526040600020602052806000526040600020600091509150505481565b60266020528060005260406000206000915054906101000a900460ff1681565b60175481565b612132611a64565b151561213d57600080fd5b612146816123a9565b50565b60096020528060005260406000206000915090505481565b60195481565b6000806000806121756124a5565b9350600090505b8381101561223757601f60006018548152602001908152602001600020818154811015156121a657fe5b9060005260206000200160009054906101000a900473ffffffffffffffffffffffffffffffffffffffff169250601b6000601854815260200190815260200160002060008473ffffffffffffffffffffffffffffffffffffffff1673ffffffffffffffffffffffffffffffffffffffff1681526020019081526020016000205482019150808060010191505061217c565b600090505b8381101561238257601f600060185481526020019081526020016000208181548110151561226657fe5b9060005260206000200160009054906101000a900473ffffffffffffffffffffffffffffffffffffffff16925061231f8261231160056000600e54815260200190815260200160002054601b6000601854815260200190815260200160002060008873ffffffffffffffffffffffffffffffffffffffff1673ffffffffffffffffffffffffffffffffffffffff1681526020019081526020016000205461271790919063ffffffff16565b61275590919063ffffffff16565b60256000601854815260200190815260200160002060008573ffffffffffffffffffffffffffffffffffffffff1673ffffffffffffffffffffffffffffffffffffffff16815260200190815260200160002081905550808060010191505061223c565b50505050565b600080828401905083811015151561239f57600080fd5b8091505092915050565b600073ffffffffffffffffffffffffffffffffffffffff168173ffffffffffffffffffffffffffffffffffffffff16141515156123e557600080fd5b8073ffffffffffffffffffffffffffffffffffffffff16602860009054906101000a900473ffffffffffffffffffffffffffffffffffffffff1673ffffffffffffffffffffffffffffffffffffffff167f8be0079c531659141344cd1fd0a4f28419497f9722a3daafe3b4186f6b6457e060405160405180910390a380602860006101000a81548173ffffffffffffffffffffffffffffffffffffffff021916908373ffffffffffffffffffffffffffffffffffffffff16021790555050565b6000806000601a5491505b60008211156126f7576000151560236000601854815260200190815260200160002060006020600086815260200190815260200160002060009054906101000a900473ffffffffffffffffffffffffffffffffffffffff1673ffffffffffffffffffffffffffffffffffffffff1673ffffffffffffffffffffffffffffffffffffffff16815260200190815260200160002060009054906101000a900460ff16151514156126e9576064601a54111561257757606481101515612572576126f7565b612588565b601a5481101515612587576126f7565b5b601f600060185481526020019081526020016000206020600084815260200190815260200160002060009054906101000a900473ffffffffffffffffffffffffffffffffffffffff1690806001815401808255809150509060018203906000526020600020016000909192909190916101000a81548173ffffffffffffffffffffffffffffffffffffffff021916908373ffffffffffffffffffffffffffffffffffffffff1602179055505061264860018261238890919063ffffffff16565b9050600160236000601854815260200190815260200160002060006020600086815260200190815260200160002060009054906101000a900473ffffffffffffffffffffffffffffffffffffffff1673ffffffffffffffffffffffffffffffffffffffff1673ffffffffffffffffffffffffffffffffffffffff16815260200190815260200160002060006101000a81548160ff0219169083151502179055505b8180600190039250506124b0565b601f60006018548152602001908152602001600020805490509250505090565b600080600084141561272c576000915061274e565b828402905082848281151561273d57fe5b0414151561274a57600080fd5b8091505b5092915050565b60008060008311151561276757600080fd5b828481151561277257fe5b04905080915050929150505600a165627a7a72305820054f451beaa7c332fd286c23bcf85e95e73db8e8aaba1f88d07eff8fef3c0f130029",
  "source": "pragma solidity ^0.4.24;\nimport \"../node_modules/openzeppelin-solidity/contracts/math/SafeMath.sol\";\nimport \"./Storage.sol\";\nimport \"./Roles.sol\";\nimport \"./GameStateController.sol\";\n\ncontract TimeTeam is Storage, GameStateController {\n\n    using SafeMath for uint;\n    event TBPDistributed(uint indexed round, uint indexed tbIteration, address winner);\n\n    //      100   \n    function formTimeTeam() private returns (uint) {\n        \n        for (uint i = paintsCounter; i > 0; i--) {\n            uint teamMembersCounter;\n            if (isInTBT[tbIteration][counterToPainter[i]] == false) {\n                \n                if (paintsCounter > 100) {\n                    if (teamMembersCounter >= 100)   \n                        break;\n                }\n            \n                else {\n                    if (teamMembersCounter >= paintsCounter)\n                        break;\n                }\n                \n                tbTeam[tbIteration].push(counterToPainter[i]);\n                teamMembersCounter = teamMembersCounter.add(1);\n                isInTBT[tbIteration][counterToPainter[i]] = true;\n            }\n        }\n        return tbTeam[tbIteration].length;\n    }\n    \n    function calculateTBP() private {\n\n        uint length = formTimeTeam();\n        address painter;\n        uint totalPaintsForTeam; \n\n        for (uint i = 0; i < length; i++) {\n            painter = tbTeam[tbIteration][i];\n            totalPaintsForTeam += timeBankShare[tbIteration][painter];\n        }\n\n        for (i = 0; i < length; i++) {\n            painter = tbTeam[tbIteration][i];\n            painterToTBP[tbIteration][painter] = (timeBankShare[tbIteration][painter].mul(timeBankForRound[currentRound])).div(totalPaintsForTeam);\n        }\n\n    }\n\n    function distributeTBP() external onlyAdmin isLiveGame {\n        require(isTBPTransfered[tbIteration] == false, \"Time Bank Prizes already transferred for this tbIteration\");\n        address painter;\n        calculateTBP();\n        uint length = tbTeam[tbIteration].length;\n        for (uint i = 0; i < length; i++) {\n            painter = tbTeam[tbIteration][i];\n            if(painterToTBP[tbIteration][painter] != 0)\n                painter.transfer(painterToTBP[tbIteration][painter]);\n        }\n        isTBPTransfered[tbIteration] = true;\n        emit TBPDistributed(currentRound, tbIteration, winnerOfRound[currentRound]);\n        currentRound = currentRound.add(1); //  \n        tbIteration = tbIteration.add(1); //    \n    }\n}\n\n//TODO   20           \n// \n//, , \n",
  "sourcePath": "/Users/Amir/last-pixel-contracts/contracts/TimeTeam.sol",
  "compiler": {
    "name": "solc",
    "version": "0.4.24+commit.e67f0147.Emscripten.clang"
  },
  "schemaVersion": "2.0.1",
  "updatedAt": "2019-01-03T13:39:34.978Z"
}