{
  "contractName": "TimeBankDistributor",
  "abi": [
    {
      "constant": true,
      "inputs": [
        {
          "name": "",
          "type": "uint256"
        },
        {
          "name": "",
          "type": "address"
        }
      ],
      "name": "addressToTimeBankPrizeForRound",
      "outputs": [
        {
          "name": "",
          "type": "uint256"
        }
      ],
      "payable": false,
      "stateMutability": "view",
      "type": "function"
    },
    {
      "constant": true,
      "inputs": [
        {
          "name": "",
          "type": "address"
        }
      ],
      "name": "addressToTimeBankPrizeTotal",
      "outputs": [
        {
          "name": "",
          "type": "uint256"
        }
      ],
      "payable": false,
      "stateMutability": "view",
      "type": "function"
    },
    {
      "constant": true,
      "inputs": [
        {
          "name": "",
          "type": "uint256"
        },
        {
          "name": "",
          "type": "uint256"
        }
      ],
      "name": "colorToTotalPaintsForRound",
      "outputs": [
        {
          "name": "",
          "type": "uint256"
        }
      ],
      "payable": false,
      "stateMutability": "view",
      "type": "function"
    },
    {
      "constant": true,
      "inputs": [
        {
          "name": "",
          "type": "uint256"
        },
        {
          "name": "",
          "type": "uint256"
        }
      ],
      "name": "colorToPaintedPixelsAmountForRound",
      "outputs": [
        {
          "name": "",
          "type": "uint256"
        }
      ],
      "payable": false,
      "stateMutability": "view",
      "type": "function"
    },
    {
      "constant": true,
      "inputs": [
        {
          "name": "",
          "type": "uint256"
        }
      ],
      "name": "winnerOfRound",
      "outputs": [
        {
          "name": "",
          "type": "address"
        }
      ],
      "payable": false,
      "stateMutability": "view",
      "type": "function"
    },
    {
      "constant": true,
      "inputs": [
        {
          "name": "",
          "type": "uint256"
        },
        {
          "name": "",
          "type": "address"
        }
      ],
      "name": "hasTakenPartInRound",
      "outputs": [
        {
          "name": "",
          "type": "bool"
        }
      ],
      "payable": false,
      "stateMutability": "view",
      "type": "function"
    },
    {
      "constant": true,
      "inputs": [
        {
          "name": "",
          "type": "uint256"
        }
      ],
      "name": "teamStartedTimeForRound",
      "outputs": [
        {
          "name": "",
          "type": "uint256"
        }
      ],
      "payable": false,
      "stateMutability": "view",
      "type": "function"
    },
    {
      "constant": true,
      "inputs": [
        {
          "name": "",
          "type": "address"
        }
      ],
      "name": "lastPlayedRound",
      "outputs": [
        {
          "name": "",
          "type": "uint256"
        }
      ],
      "payable": false,
      "stateMutability": "view",
      "type": "function"
    },
    {
      "constant": true,
      "inputs": [
        {
          "name": "",
          "type": "uint256"
        }
      ],
      "name": "winnerBankForRound",
      "outputs": [
        {
          "name": "",
          "type": "uint256"
        }
      ],
      "payable": false,
      "stateMutability": "view",
      "type": "function"
    },
    {
      "constant": true,
      "inputs": [
        {
          "name": "",
          "type": "uint256"
        },
        {
          "name": "",
          "type": "uint256"
        }
      ],
      "name": "pixelToOldColorForRound",
      "outputs": [
        {
          "name": "",
          "type": "uint256"
        }
      ],
      "payable": false,
      "stateMutability": "view",
      "type": "function"
    },
    {
      "constant": true,
      "inputs": [
        {
          "name": "",
          "type": "uint256"
        }
      ],
      "name": "timeBankForRound",
      "outputs": [
        {
          "name": "",
          "type": "uint256"
        }
      ],
      "payable": false,
      "stateMutability": "view",
      "type": "function"
    },
    {
      "constant": true,
      "inputs": [
        {
          "name": "",
          "type": "uint256"
        }
      ],
      "name": "teamEndedTimeForRound",
      "outputs": [
        {
          "name": "",
          "type": "uint256"
        }
      ],
      "payable": false,
      "stateMutability": "view",
      "type": "function"
    },
    {
      "constant": true,
      "inputs": [
        {
          "name": "",
          "type": "uint256"
        }
      ],
      "name": "lastPaintedPixelForRound",
      "outputs": [
        {
          "name": "",
          "type": "uint256"
        }
      ],
      "payable": false,
      "stateMutability": "view",
      "type": "function"
    },
    {
      "constant": true,
      "inputs": [
        {
          "name": "",
          "type": "uint256"
        }
      ],
      "name": "lastPaintTimeForRound",
      "outputs": [
        {
          "name": "",
          "type": "uint256"
        }
      ],
      "payable": false,
      "stateMutability": "view",
      "type": "function"
    },
    {
      "constant": true,
      "inputs": [
        {
          "name": "",
          "type": "uint256"
        }
      ],
      "name": "lastPainterForRound",
      "outputs": [
        {
          "name": "",
          "type": "address"
        }
      ],
      "payable": false,
      "stateMutability": "view",
      "type": "function"
    },
    {
      "constant": true,
      "inputs": [],
      "name": "currentRound",
      "outputs": [
        {
          "name": "",
          "type": "uint256"
        }
      ],
      "payable": false,
      "stateMutability": "view",
      "type": "function"
    },
    {
      "constant": true,
      "inputs": [
        {
          "name": "",
          "type": "uint256"
        },
        {
          "name": "",
          "type": "uint256"
        }
      ],
      "name": "colorBankToColorForRound",
      "outputs": [
        {
          "name": "",
          "type": "uint256"
        }
      ],
      "payable": false,
      "stateMutability": "view",
      "type": "function"
    },
    {
      "constant": true,
      "inputs": [
        {
          "name": "",
          "type": "uint256"
        },
        {
          "name": "",
          "type": "address"
        }
      ],
      "name": "addressToColorBankPrizeForRound",
      "outputs": [
        {
          "name": "",
          "type": "uint256"
        }
      ],
      "payable": false,
      "stateMutability": "view",
      "type": "function"
    },
    {
      "constant": true,
      "inputs": [
        {
          "name": "",
          "type": "uint256"
        },
        {
          "name": "",
          "type": "address"
        }
      ],
      "name": "colorToUserToTotalCounter",
      "outputs": [
        {
          "name": "",
          "type": "uint256"
        }
      ],
      "payable": false,
      "stateMutability": "view",
      "type": "function"
    },
    {
      "constant": true,
      "inputs": [
        {
          "name": "",
          "type": "uint256"
        },
        {
          "name": "",
          "type": "uint256"
        }
      ],
      "name": "pixelToColorForRound",
      "outputs": [
        {
          "name": "",
          "type": "uint256"
        }
      ],
      "payable": false,
      "stateMutability": "view",
      "type": "function"
    },
    {
      "constant": true,
      "inputs": [
        {
          "name": "",
          "type": "uint256"
        }
      ],
      "name": "totalPaintsForRound",
      "outputs": [
        {
          "name": "",
          "type": "uint256"
        }
      ],
      "payable": false,
      "stateMutability": "view",
      "type": "function"
    },
    {
      "constant": true,
      "inputs": [
        {
          "name": "",
          "type": "address"
        }
      ],
      "name": "userToTotalCounter",
      "outputs": [
        {
          "name": "",
          "type": "uint256"
        }
      ],
      "payable": false,
      "stateMutability": "view",
      "type": "function"
    },
    {
      "constant": true,
      "inputs": [
        {
          "name": "",
          "type": "uint256"
        }
      ],
      "name": "colorBankForRound",
      "outputs": [
        {
          "name": "",
          "type": "uint256"
        }
      ],
      "payable": false,
      "stateMutability": "view",
      "type": "function"
    },
    {
      "constant": true,
      "inputs": [
        {
          "name": "",
          "type": "address"
        },
        {
          "name": "",
          "type": "uint256"
        }
      ],
      "name": "userToCounterToTimestamp",
      "outputs": [
        {
          "name": "",
          "type": "uint256"
        }
      ],
      "payable": false,
      "stateMutability": "view",
      "type": "function"
    },
    {
      "constant": true,
      "inputs": [
        {
          "name": "",
          "type": "address"
        },
        {
          "name": "",
          "type": "uint256"
        }
      ],
      "name": "isPrizeDistributedForRound",
      "outputs": [
        {
          "name": "",
          "type": "bool"
        }
      ],
      "payable": false,
      "stateMutability": "view",
      "type": "function"
    },
    {
      "constant": true,
      "inputs": [
        {
          "name": "",
          "type": "address"
        },
        {
          "name": "",
          "type": "uint256"
        },
        {
          "name": "",
          "type": "uint256"
        }
      ],
      "name": "userToColorToCounterToTimestamp",
      "outputs": [
        {
          "name": "",
          "type": "uint256"
        }
      ],
      "payable": false,
      "stateMutability": "view",
      "type": "function"
    },
    {
      "constant": true,
      "inputs": [
        {
          "name": "",
          "type": "uint256"
        }
      ],
      "name": "winnerColorForRound",
      "outputs": [
        {
          "name": "",
          "type": "uint256"
        }
      ],
      "payable": false,
      "stateMutability": "view",
      "type": "function"
    },
    {
      "anonymous": false,
      "inputs": [
        {
          "indexed": true,
          "name": "winner",
          "type": "address"
        },
        {
          "indexed": true,
          "name": "currentRound",
          "type": "uint256"
        }
      ],
      "name": "TimeBankPlayed",
      "type": "event"
    },
    {
      "anonymous": false,
      "inputs": [
        {
          "indexed": true,
          "name": "winner",
          "type": "address"
        },
        {
          "indexed": true,
          "name": "round",
          "type": "uint256"
        },
        {
          "indexed": true,
          "name": "amount",
          "type": "uint256"
        }
      ],
      "name": "TimeBankPrizeDistributed",
      "type": "event"
    },
    {
      "constant": false,
      "inputs": [],
      "name": "claimTimeBankPrizeForLastPlayedRound",
      "outputs": [],
      "payable": false,
      "stateMutability": "nonpayable",
      "type": "function"
    }
  ],
  "bytecode": "0x608060405234801561001057600080fd5b5061134d806100206000396000f30060806040526004361061016a576000357c0100000000000000000000000000000000000000000000000000000000900463ffffffff16806306937b471461016f578063084028eb146101d05780630ba36221146102275780630cf9603f14610272578063102f9713146102bd5780632153fb011461032a57806323a43a8e1461038f57806328b290f9146103d05780633d0d1a79146104275780634b39173d146104685780634c78e401146104b357806355457fc1146104f4578063628a71a31461053557806373a9ee261461057657806379ecf376146105b75780638a19c8bc14610624578063a31207241461064f578063a645867e1461069a578063abd7c8ea146106fb578063b66e5e9e1461075c578063b8232d5d14610773578063be7d6226146107be578063c5098c87146107ff578063c64a2e5614610856578063d62da0cd14610897578063d7be6332146108f8578063e5b38f8a1461095d578063f49916f5146109c8575b600080fd5b34801561017b57600080fd5b506101ba60048036038101908080359060200190929190803573ffffffffffffffffffffffffffffffffffffffff169060200190929190505050610a09565b6040518082815260200191505060405180910390f35b3480156101dc57600080fd5b50610211600480360381019080803573ffffffffffffffffffffffffffffffffffffffff169060200190929190505050610a2e565b6040518082815260200191505060405180910390f35b34801561023357600080fd5b5061025c6004803603810190808035906020019092919080359060200190929190505050610a46565b6040518082815260200191505060405180910390f35b34801561027e57600080fd5b506102a76004803603810190808035906020019092919080359060200190929190505050610a6b565b6040518082815260200191505060405180910390f35b3480156102c957600080fd5b506102e860048036038101908080359060200190929190505050610a90565b604051808273ffffffffffffffffffffffffffffffffffffffff1673ffffffffffffffffffffffffffffffffffffffff16815260200191505060405180910390f35b34801561033657600080fd5b5061037560048036038101908080359060200190929190803573ffffffffffffffffffffffffffffffffffffffff169060200190929190505050610ac3565b604051808215151515815260200191505060405180910390f35b34801561039b57600080fd5b506103ba60048036038101908080359060200190929190505050610af2565b6040518082815260200191505060405180910390f35b3480156103dc57600080fd5b50610411600480360381019080803573ffffffffffffffffffffffffffffffffffffffff169060200190929190505050610b0a565b6040518082815260200191505060405180910390f35b34801561043357600080fd5b5061045260048036038101908080359060200190929190505050610b22565b6040518082815260200191505060405180910390f35b34801561047457600080fd5b5061049d6004803603810190808035906020019092919080359060200190929190505050610b3a565b6040518082815260200191505060405180910390f35b3480156104bf57600080fd5b506104de60048036038101908080359060200190929190505050610b5f565b6040518082815260200191505060405180910390f35b34801561050057600080fd5b5061051f60048036038101908080359060200190929190505050610b77565b6040518082815260200191505060405180910390f35b34801561054157600080fd5b5061056060048036038101908080359060200190929190505050610b8f565b6040518082815260200191505060405180910390f35b34801561058257600080fd5b506105a160048036038101908080359060200190929190505050610ba7565b6040518082815260200191505060405180910390f35b3480156105c357600080fd5b506105e260048036038101908080359060200190929190505050610bbf565b604051808273ffffffffffffffffffffffffffffffffffffffff1673ffffffffffffffffffffffffffffffffffffffff16815260200191505060405180910390f35b34801561063057600080fd5b50610639610bf2565b6040518082815260200191505060405180910390f35b34801561065b57600080fd5b506106846004803603810190808035906020019092919080359060200190929190505050610bf8565b6040518082815260200191505060405180910390f35b3480156106a657600080fd5b506106e560048036038101908080359060200190929190803573ffffffffffffffffffffffffffffffffffffffff169060200190929190505050610c1d565b6040518082815260200191505060405180910390f35b34801561070757600080fd5b5061074660048036038101908080359060200190929190803573ffffffffffffffffffffffffffffffffffffffff169060200190929190505050610c42565b6040518082815260200191505060405180910390f35b34801561076857600080fd5b50610771610c67565b005b34801561077f57600080fd5b506107a860048036038101908080359060200190929190803590602001909291905050506111ae565b6040518082815260200191505060405180910390f35b3480156107ca57600080fd5b506107e9600480360381019080803590602001909291905050506111d3565b6040518082815260200191505060405180910390f35b34801561080b57600080fd5b50610840600480360381019080803573ffffffffffffffffffffffffffffffffffffffff1690602001909291905050506111eb565b6040518082815260200191505060405180910390f35b34801561086257600080fd5b5061088160048036038101908080359060200190929190505050611203565b6040518082815260200191505060405180910390f35b3480156108a357600080fd5b506108e2600480360381019080803573ffffffffffffffffffffffffffffffffffffffff1690602001909291908035906020019092919050505061121b565b6040518082815260200191505060405180910390f35b34801561090457600080fd5b50610943600480360381019080803573ffffffffffffffffffffffffffffffffffffffff16906020019092919080359060200190929190505050611240565b604051808215151515815260200191505060405180910390f35b34801561096957600080fd5b506109b2600480360381019080803573ffffffffffffffffffffffffffffffffffffffff169060200190929190803590602001909291908035906020019092919050505061126f565b6040518082815260200191505060405180910390f35b3480156109d457600080fd5b506109f3600480360381019080803590602001909291905050506112a1565b6040518082815260200191505060405180910390f35b6014602052816000526040600020602052806000526040600020600091509150505481565b601a6020528060005260406000206000915090505481565b600b602052816000526040600020602052806000526040600020600091509150505481565b6003602052816000526040600020602052806000526040600020600091509150505481565b60156020528060005260406000206000915054906101000a900473ffffffffffffffffffffffffffffffffffffffff1681565b60176020528160005260406000206020528060005260406000206000915091509054906101000a900460ff1681565b600c6020528060005260406000206000915090505481565b60186020528060005260406000206000915090505481565b60166020528060005260406000206000915090505481565b6002602052816000526040600020602052806000526040600020600091509150505481565b60066020528060005260406000206000915090505481565b600d6020528060005260406000206000915090505481565b60096020528060005260406000206000915090505481565b60076020528060005260406000206000915090505481565b60086020528060005260406000206000915054906101000a900473ffffffffffffffffffffffffffffffffffffffff1681565b60195481565b6005602052816000526040600020602052806000526040600020600091509150505481565b6013602052816000526040600020602052806000526040600020600091509150505481565b600e602052816000526040600020602052806000526040600020600091509150505481565b6000806000806000806000601860003373ffffffffffffffffffffffffffffffffffffffff1673ffffffffffffffffffffffffffffffffffffffff16815260200190815260200160002054965060001515601260003373ffffffffffffffffffffffffffffffffffffffff1673ffffffffffffffffffffffffffffffffffffffff168152602001908152602001600020600089815260200190815260200160002060009054906101000a900460ff161515148015610d38575060016016600089815260200190815260200160002054145b1515610dd2576040517f08c379a00000000000000000000000000000000000000000000000000000000081526004018080602001828103825260318152602001807f42616e6b206f662074696d6520776173206e6f7420706c6179656420696e207981526020017f6f7572206c61737420726f756e642e2e2e00000000000000000000000000000081525060400191505060405180910390fd5b600d6000888152602001908152602001600020549550600c6000888152602001908152602001600020549450600f60003373ffffffffffffffffffffffffffffffffffffffff1673ffffffffffffffffffffffffffffffffffffffff1681526020019081526020016000205492508291505b6000821115610ecc57601160003373ffffffffffffffffffffffffffffffffffffffff1673ffffffffffffffffffffffffffffffffffffffff1681526020019081526020016000206000838152602001908152602001600020549050848110158015610eb05750858111155b15610ebe5783806001019450505b818060019003925050610e44565b610f1660008089815260200190815260200160002054610f08600660008b815260200190815260200160002054876112b990919063ffffffff16565b6112f790919063ffffffff16565b6014600089815260200190815260200160002060003373ffffffffffffffffffffffffffffffffffffffff1673ffffffffffffffffffffffffffffffffffffffff168152602001908152602001600020600082825401925050819055506014600088815260200190815260200160002060003373ffffffffffffffffffffffffffffffffffffffff1673ffffffffffffffffffffffffffffffffffffffff16815260200190815260200160002054601a60003373ffffffffffffffffffffffffffffffffffffffff1673ffffffffffffffffffffffffffffffffffffffff168152602001908152602001600020600082825401925050819055503373ffffffffffffffffffffffffffffffffffffffff166108fc601460008a815260200190815260200160002060003373ffffffffffffffffffffffffffffffffffffffff1673ffffffffffffffffffffffffffffffffffffffff168152602001908152602001600020549081150290604051600060405180830381858888f193505050501580156110a6573d6000803e3d6000fd5b506001601260003373ffffffffffffffffffffffffffffffffffffffff1673ffffffffffffffffffffffffffffffffffffffff168152602001908152602001600020600089815260200190815260200160002060006101000a81548160ff0219169083151502179055506013600088815260200190815260200160002060003373ffffffffffffffffffffffffffffffffffffffff1673ffffffffffffffffffffffffffffffffffffffff16815260200190815260200160002054873373ffffffffffffffffffffffffffffffffffffffff167f8981f49dce2918fc89fa176fbbd90d8546f51779930f7b458ca6a0d4856f878c60405160405180910390a450505050505050565b6001602052816000526040600020602052806000526040600020600091509150505481565b60006020528060005260406000206000915090505481565b600f6020528060005260406000206000915090505481565b60046020528060005260406000206000915090505481565b6011602052816000526040600020602052806000526040600020600091509150505481565b60126020528160005260406000206020528060005260406000206000915091509054906101000a900460ff1681565b601060205282600052604060002060205281600052604060002060205280600052604060002060009250925050505481565b600a6020528060005260406000206000915090505481565b60008060008414156112ce57600091506112f0565b82840290508284828115156112df57fe5b041415156112ec57600080fd5b8091505b5092915050565b60008060008311151561130957600080fd5b828481151561131457fe5b04905080915050929150505600a165627a7a72305820496d53a375036584b18fc4622d8eed3fb03f699236dcd6015991a1ab0fdf3fcf0029",
  "source": "pragma solidity ^0.4.24;\n\nimport \"./RoundDataHolder.sol\";\n\ncontract TimeBankDistributor is RoundDataHolder {\n    \n    using SafeMath for uint;\n    \n    //сколько всего банка времени выиграл адрес (в сумме за все время) (адрес => сумма общего выигрыша)\n    mapping(address => uint) public addressToTimeBankPrizeTotal; \n\n    \n    event TimeBankPlayed(address indexed winner, uint indexed currentRound);\n    event TimeBankPrizeDistributed(address indexed winner, uint indexed round, uint indexed amount);\n    \n    //запросить приз банка времени за послений раунд в котором пользователь принимал участие\n    function claimTimeBankPrizeForLastPlayedRound() public { \n\n        //последний раунд в котором пользователь принимал участие\n        uint round = lastPlayedRound[msg.sender];\n\n        //функция может быть вызвана только если в последнем раунде был разыгран банк времени\n        require(isPrizeDistributedForRound[msg.sender][round] == false && winnerBankForRound[round] == 1, \"Bank of time was not played in your last round...\");\n        \n        //*** */нужно обернуть в if\n       // if(isPrizeDistributedForRound[msg.sender][round] == false)\n        \n        //время завершения сбора команды приза для раунда\n        uint end = teamEndedTimeForRound[round];\n\n        //время начала сбора команды приза для раунда\n        uint start = teamStartedTimeForRound[round];\n\n        //cчетчик количества закрашиваний\n        uint counter;\n            \n    /*\n        //счетчик общего количества закрашиваний любым цветом для пользователя за раунд     \n        uint total = addressToTotalCounterForRound[round][msg.sender]; \n    */\n\n        //счетчик общего количества закрашиваний любым цветом для пользователя    \n        uint total = userToTotalCounter[msg.sender]; \n\n        //считаем сколько закрашиваний ЛЮБЫМ цветом произвел пользователь за последние 24 часа\n        for (uint i = total; i > 0; i--) {\n            //uint timeStamp = addressToCounterToTimestampForRound[round][msg.sender][i];\n            uint timeStamp = userToCounterToTimestamp[msg.sender][i];\n            if (timeStamp >= start && timeStamp <= end) //т.к. (<= end), то последний закрасивший также принимает участие\n                counter++;\n        }\n        \n        //устанавливаем какую часть от банка времени выиграл адрес за последний раунд в котором принимал участие\n        addressToTimeBankPrizeForRound[round][msg.sender] += counter.mul(timeBankForRound[round]).div(totalPaintsForRound[round]);\n\n        //добавляем полученное значение в сумму выигрышей банка времени пользователем за все время\n        addressToTimeBankPrizeTotal[msg.sender] += addressToTimeBankPrizeForRound[round][msg.sender];\n        \n        //переводим пользователю его выигрыш за последний раунд в котором он принимал участие\n        msg.sender.transfer(addressToTimeBankPrizeForRound[round][msg.sender]);\n\n        //устанавливаем булевое значение о том, что пользователь получил свой приз за раунд\n        isPrizeDistributedForRound[msg.sender][round] = true;\n\n        //вызываем ивент - о том, что приз банка времени распределен пользователю (адрес, раунд, выигрыщ)\n        emit TimeBankPrizeDistributed(msg.sender, round, addressToColorBankPrizeForRound[round][msg.sender]);\n    }\n    \n    //функция распределения банка времени\n    function _distributeTimeBank() internal  {\n\n        //начало сбора команды раунда (24 часа назад)\n        teamStartedTimeForRound[currentRound] = now - 24 hours;\n\n        //время завершения сбора команды раунда (сейчас)\n        teamEndedTimeForRound[currentRound] = now;\n\n        //победитель текущего раунда - последний закрасивший пиксель пользователь за этот раунд\n        winnerOfRound[currentRound] = lastPainterForRound[currentRound];\n        \n         //Checks-Effects-Interactions pattern\n        uint amountToTransfer = timeBankForRound[currentRound].mul(45).div(100);\n\n        //переводим 45% банка времени победителю текущего раунда\n        winnerOfRound[currentRound].transfer(amountToTransfer);\n                \n        //разыгранный банк этого раунда = банк времени (1)\n        winnerBankForRound[currentRound] = 1; \n\n        //10% банка времени переходит в следующий раунд\n        timeBankForRound[currentRound + 1] = timeBankForRound[currentRound].div(10); \n        \n        //45% банка времени распределится между всей командой участников раунда\n        timeBankForRound[currentRound] = timeBankForRound[currentRound].mul(45).div(100); \n\n        //банк цвета переносится на следующий раунд\n        colorBankForRound[currentRound + 1] = colorBankForRound[currentRound]; \n\n        //в этом раунде банк цвета обнуляется\n        colorBankForRound[currentRound] = 0; \n\n        //ивент - был разыгран банк времени (победитель, раунд)\n        emit TimeBankPlayed(winnerOfRound[currentRound], currentRound);\n        \n        //следующий раунд\n        currentRound = currentRound.add(1); \n    }\n}",
  "sourcePath": "/Users/Amir/last-pixel-contracts/contracts/TimeBankDistributor.sol",
  "compiler": {
    "name": "solc",
    "version": "0.4.24+commit.e67f0147.Emscripten.clang"
  },
  "schemaVersion": "2.0.1",
  "updatedAt": "2018-12-27T11:38:47.456Z"
}