{
  "contractName": "Transparent",
  "abi": [
    {
      "constant": true,
      "inputs": [],
      "name": "isGamePaused",
      "outputs": [
        {
          "name": "",
          "type": "bool"
        }
      ],
      "payable": false,
      "stateMutability": "view",
      "type": "function"
    },
    {
      "constant": true,
      "inputs": [
        {
          "name": "",
          "type": "uint256"
        },
        {
          "name": "",
          "type": "address"
        }
      ],
      "name": "isInTBT",
      "outputs": [
        {
          "name": "",
          "type": "bool"
        }
      ],
      "payable": false,
      "stateMutability": "view",
      "type": "function"
    },
    {
      "constant": true,
      "inputs": [
        {
          "name": "",
          "type": "bytes32"
        }
      ],
      "name": "refLinkToUser",
      "outputs": [
        {
          "name": "",
          "type": "address"
        }
      ],
      "payable": false,
      "stateMutability": "view",
      "type": "function"
    },
    {
      "constant": true,
      "inputs": [
        {
          "name": "",
          "type": "uint256"
        },
        {
          "name": "",
          "type": "uint256"
        }
      ],
      "name": "colorToTotalPaintsForRound",
      "outputs": [
        {
          "name": "",
          "type": "uint256"
        }
      ],
      "payable": false,
      "stateMutability": "view",
      "type": "function"
    },
    {
      "constant": true,
      "inputs": [
        {
          "name": "",
          "type": "uint256"
        }
      ],
      "name": "ownerOfColor",
      "outputs": [
        {
          "name": "",
          "type": "address"
        }
      ],
      "payable": false,
      "stateMutability": "view",
      "type": "function"
    },
    {
      "constant": true,
      "inputs": [
        {
          "name": "",
          "type": "uint256"
        },
        {
          "name": "",
          "type": "uint256"
        }
      ],
      "name": "colorToPaintedPixelsAmountForRound",
      "outputs": [
        {
          "name": "",
          "type": "uint256"
        }
      ],
      "payable": false,
      "stateMutability": "view",
      "type": "function"
    },
    {
      "constant": true,
      "inputs": [],
      "name": "tbIteration",
      "outputs": [
        {
          "name": "",
          "type": "uint256"
        }
      ],
      "payable": false,
      "stateMutability": "view",
      "type": "function"
    },
    {
      "constant": true,
      "inputs": [
        {
          "name": "",
          "type": "uint256"
        }
      ],
      "name": "winnerOfRound",
      "outputs": [
        {
          "name": "",
          "type": "address"
        }
      ],
      "payable": false,
      "stateMutability": "view",
      "type": "function"
    },
    {
      "constant": true,
      "inputs": [
        {
          "name": "",
          "type": "address"
        }
      ],
      "name": "hasReferrer",
      "outputs": [
        {
          "name": "",
          "type": "bool"
        }
      ],
      "payable": false,
      "stateMutability": "view",
      "type": "function"
    },
    {
      "constant": true,
      "inputs": [
        {
          "name": "",
          "type": "address"
        }
      ],
      "name": "isRegisteredUser",
      "outputs": [
        {
          "name": "",
          "type": "bool"
        }
      ],
      "payable": false,
      "stateMutability": "view",
      "type": "function"
    },
    {
      "constant": true,
      "inputs": [
        {
          "name": "",
          "type": "uint256"
        },
        {
          "name": "",
          "type": "address"
        }
      ],
      "name": "hasPaintDiscountForColor",
      "outputs": [
        {
          "name": "",
          "type": "bool"
        }
      ],
      "payable": false,
      "stateMutability": "view",
      "type": "function"
    },
    {
      "constant": true,
      "inputs": [
        {
          "name": "",
          "type": "address"
        }
      ],
      "name": "isAdmin",
      "outputs": [
        {
          "name": "",
          "type": "bool"
        }
      ],
      "payable": false,
      "stateMutability": "view",
      "type": "function"
    },
    {
      "constant": true,
      "inputs": [
        {
          "name": "",
          "type": "uint256"
        }
      ],
      "name": "currentPaintGenForColor",
      "outputs": [
        {
          "name": "",
          "type": "uint256"
        }
      ],
      "payable": false,
      "stateMutability": "view",
      "type": "function"
    },
    {
      "constant": true,
      "inputs": [
        {
          "name": "",
          "type": "address"
        }
      ],
      "name": "lastPlayedRound",
      "outputs": [
        {
          "name": "",
          "type": "uint256"
        }
      ],
      "payable": false,
      "stateMutability": "view",
      "type": "function"
    },
    {
      "constant": true,
      "inputs": [
        {
          "name": "",
          "type": "uint256"
        },
        {
          "name": "",
          "type": "address"
        }
      ],
      "name": "moneySpentByUserForColor",
      "outputs": [
        {
          "name": "",
          "type": "uint256"
        }
      ],
      "payable": false,
      "stateMutability": "view",
      "type": "function"
    },
    {
      "constant": true,
      "inputs": [
        {
          "name": "",
          "type": "uint256"
        },
        {
          "name": "",
          "type": "uint256"
        }
      ],
      "name": "tbTeam",
      "outputs": [
        {
          "name": "",
          "type": "address"
        }
      ],
      "payable": false,
      "stateMutability": "view",
      "type": "function"
    },
    {
      "constant": true,
      "inputs": [
        {
          "name": "",
          "type": "uint256"
        },
        {
          "name": "",
          "type": "address"
        }
      ],
      "name": "painterToTBP",
      "outputs": [
        {
          "name": "",
          "type": "uint256"
        }
      ],
      "payable": false,
      "stateMutability": "view",
      "type": "function"
    },
    {
      "constant": true,
      "inputs": [
        {
          "name": "",
          "type": "uint256"
        },
        {
          "name": "",
          "type": "uint256"
        }
      ],
      "name": "paintGenToStartTimeForColor",
      "outputs": [
        {
          "name": "",
          "type": "uint256"
        }
      ],
      "payable": false,
      "stateMutability": "view",
      "type": "function"
    },
    {
      "constant": true,
      "inputs": [
        {
          "name": "",
          "type": "uint256"
        }
      ],
      "name": "callPriceForColor",
      "outputs": [
        {
          "name": "",
          "type": "uint256"
        }
      ],
      "payable": false,
      "stateMutability": "view",
      "type": "function"
    },
    {
      "constant": true,
      "inputs": [
        {
          "name": "",
          "type": "uint256"
        },
        {
          "name": "",
          "type": "address"
        }
      ],
      "name": "painterToCBP",
      "outputs": [
        {
          "name": "",
          "type": "uint256"
        }
      ],
      "payable": false,
      "stateMutability": "view",
      "type": "function"
    },
    {
      "constant": true,
      "inputs": [
        {
          "name": "",
          "type": "uint256"
        }
      ],
      "name": "winnerBankForRound",
      "outputs": [
        {
          "name": "",
          "type": "uint256"
        }
      ],
      "payable": false,
      "stateMutability": "view",
      "type": "function"
    },
    {
      "constant": true,
      "inputs": [],
      "name": "paintsCounter",
      "outputs": [
        {
          "name": "",
          "type": "uint256"
        }
      ],
      "payable": false,
      "stateMutability": "view",
      "type": "function"
    },
    {
      "constant": true,
      "inputs": [],
      "name": "founders",
      "outputs": [
        {
          "name": "",
          "type": "address"
        }
      ],
      "payable": false,
      "stateMutability": "view",
      "type": "function"
    },
    {
      "constant": true,
      "inputs": [
        {
          "name": "",
          "type": "address"
        }
      ],
      "name": "newUserToCounter",
      "outputs": [
        {
          "name": "",
          "type": "uint256"
        }
      ],
      "payable": false,
      "stateMutability": "view",
      "type": "function"
    },
    {
      "constant": true,
      "inputs": [
        {
          "name": "",
          "type": "uint256"
        },
        {
          "name": "",
          "type": "uint256"
        }
      ],
      "name": "counterToPainterForColor",
      "outputs": [
        {
          "name": "",
          "type": "address"
        }
      ],
      "payable": false,
      "stateMutability": "view",
      "type": "function"
    },
    {
      "constant": true,
      "inputs": [
        {
          "name": "",
          "type": "uint256"
        },
        {
          "name": "",
          "type": "uint256"
        }
      ],
      "name": "pixelToOldColorForRound",
      "outputs": [
        {
          "name": "",
          "type": "uint256"
        }
      ],
      "payable": false,
      "stateMutability": "view",
      "type": "function"
    },
    {
      "constant": true,
      "inputs": [
        {
          "name": "",
          "type": "uint256"
        }
      ],
      "name": "isTBPTransfered",
      "outputs": [
        {
          "name": "",
          "type": "bool"
        }
      ],
      "payable": false,
      "stateMutability": "view",
      "type": "function"
    },
    {
      "constant": true,
      "inputs": [
        {
          "name": "",
          "type": "uint256"
        }
      ],
      "name": "timeBankForRound",
      "outputs": [
        {
          "name": "",
          "type": "uint256"
        }
      ],
      "payable": false,
      "stateMutability": "view",
      "type": "function"
    },
    {
      "constant": true,
      "inputs": [
        {
          "name": "",
          "type": "address"
        }
      ],
      "name": "userToRefLink",
      "outputs": [
        {
          "name": "",
          "type": "string"
        }
      ],
      "payable": false,
      "stateMutability": "view",
      "type": "function"
    },
    {
      "constant": true,
      "inputs": [],
      "name": "claimId",
      "outputs": [
        {
          "name": "",
          "type": "uint256"
        }
      ],
      "payable": false,
      "stateMutability": "view",
      "type": "function"
    },
    {
      "constant": true,
      "inputs": [
        {
          "name": "",
          "type": "uint256"
        },
        {
          "name": "",
          "type": "uint256"
        }
      ],
      "name": "cbTeam",
      "outputs": [
        {
          "name": "",
          "type": "address"
        }
      ],
      "payable": false,
      "stateMutability": "view",
      "type": "function"
    },
    {
      "constant": true,
      "inputs": [
        {
          "name": "",
          "type": "uint256"
        },
        {
          "name": "",
          "type": "uint256"
        }
      ],
      "name": "paintGenStartedForColor",
      "outputs": [
        {
          "name": "",
          "type": "bool"
        }
      ],
      "payable": false,
      "stateMutability": "view",
      "type": "function"
    },
    {
      "constant": true,
      "inputs": [
        {
          "name": "",
          "type": "uint256"
        }
      ],
      "name": "lastPaintedPixelForRound",
      "outputs": [
        {
          "name": "",
          "type": "uint256"
        }
      ],
      "payable": false,
      "stateMutability": "view",
      "type": "function"
    },
    {
      "constant": true,
      "inputs": [
        {
          "name": "",
          "type": "uint256"
        }
      ],
      "name": "nextCallPriceForColor",
      "outputs": [
        {
          "name": "",
          "type": "uint256"
        }
      ],
      "payable": false,
      "stateMutability": "view",
      "type": "function"
    },
    {
      "constant": false,
      "inputs": [],
      "name": "renounceOwnership",
      "outputs": [],
      "payable": false,
      "stateMutability": "nonpayable",
      "type": "function"
    },
    {
      "constant": true,
      "inputs": [
        {
          "name": "",
          "type": "uint256"
        }
      ],
      "name": "lastPaintTimeForRound",
      "outputs": [
        {
          "name": "",
          "type": "uint256"
        }
      ],
      "payable": false,
      "stateMutability": "view",
      "type": "function"
    },
    {
      "constant": true,
      "inputs": [
        {
          "name": "",
          "type": "uint256"
        }
      ],
      "name": "lastPainterForRound",
      "outputs": [
        {
          "name": "",
          "type": "address"
        }
      ],
      "payable": false,
      "stateMutability": "view",
      "type": "function"
    },
    {
      "constant": true,
      "inputs": [
        {
          "name": "",
          "type": "address"
        }
      ],
      "name": "hasRefLink",
      "outputs": [
        {
          "name": "",
          "type": "bool"
        }
      ],
      "payable": false,
      "stateMutability": "view",
      "type": "function"
    },
    {
      "constant": true,
      "inputs": [
        {
          "name": "",
          "type": "address"
        },
        {
          "name": "",
          "type": "uint256"
        }
      ],
      "name": "referrerToReferrals",
      "outputs": [
        {
          "name": "",
          "type": "address"
        }
      ],
      "payable": false,
      "stateMutability": "view",
      "type": "function"
    },
    {
      "constant": true,
      "inputs": [],
      "name": "currentRound",
      "outputs": [
        {
          "name": "",
          "type": "uint256"
        }
      ],
      "payable": false,
      "stateMutability": "view",
      "type": "function"
    },
    {
      "constant": true,
      "inputs": [],
      "name": "owner",
      "outputs": [
        {
          "name": "",
          "type": "address"
        }
      ],
      "payable": false,
      "stateMutability": "view",
      "type": "function"
    },
    {
      "constant": true,
      "inputs": [
        {
          "name": "",
          "type": "uint256"
        }
      ],
      "name": "paintsCounterForColor",
      "outputs": [
        {
          "name": "",
          "type": "uint256"
        }
      ],
      "payable": false,
      "stateMutability": "view",
      "type": "function"
    },
    {
      "constant": true,
      "inputs": [],
      "name": "isOwner",
      "outputs": [
        {
          "name": "",
          "type": "bool"
        }
      ],
      "payable": false,
      "stateMutability": "view",
      "type": "function"
    },
    {
      "constant": true,
      "inputs": [
        {
          "name": "",
          "type": "uint256"
        },
        {
          "name": "",
          "type": "uint256"
        }
      ],
      "name": "pixelToPaintTimeForRound",
      "outputs": [
        {
          "name": "",
          "type": "uint256"
        }
      ],
      "payable": false,
      "stateMutability": "view",
      "type": "function"
    },
    {
      "constant": true,
      "inputs": [
        {
          "name": "",
          "type": "uint256"
        },
        {
          "name": "",
          "type": "uint256"
        }
      ],
      "name": "colorBankToColorForRound",
      "outputs": [
        {
          "name": "",
          "type": "uint256"
        }
      ],
      "payable": false,
      "stateMutability": "view",
      "type": "function"
    },
    {
      "constant": true,
      "inputs": [
        {
          "name": "",
          "type": "uint256"
        }
      ],
      "name": "claims",
      "outputs": [
        {
          "name": "id",
          "type": "uint256"
        },
        {
          "name": "claimer",
          "type": "address"
        },
        {
          "name": "isResolved",
          "type": "bool"
        },
        {
          "name": "timestamp",
          "type": "uint256"
        }
      ],
      "payable": false,
      "stateMutability": "view",
      "type": "function"
    },
    {
      "constant": true,
      "inputs": [],
      "name": "ownerOfPixel",
      "outputs": [
        {
          "name": "",
          "type": "address"
        }
      ],
      "payable": false,
      "stateMutability": "view",
      "type": "function"
    },
    {
      "constant": true,
      "inputs": [
        {
          "name": "",
          "type": "uint256"
        },
        {
          "name": "",
          "type": "address"
        }
      ],
      "name": "isInCBT",
      "outputs": [
        {
          "name": "",
          "type": "bool"
        }
      ],
      "payable": false,
      "stateMutability": "view",
      "type": "function"
    },
    {
      "constant": true,
      "inputs": [
        {
          "name": "",
          "type": "uint256"
        }
      ],
      "name": "counterToPainter",
      "outputs": [
        {
          "name": "",
          "type": "address"
        }
      ],
      "payable": false,
      "stateMutability": "view",
      "type": "function"
    },
    {
      "constant": true,
      "inputs": [
        {
          "name": "",
          "type": "uint256"
        },
        {
          "name": "",
          "type": "address"
        }
      ],
      "name": "timeBankShare",
      "outputs": [
        {
          "name": "",
          "type": "uint256"
        }
      ],
      "payable": false,
      "stateMutability": "view",
      "type": "function"
    },
    {
      "constant": true,
      "inputs": [
        {
          "name": "",
          "type": "uint256"
        },
        {
          "name": "",
          "type": "uint256"
        },
        {
          "name": "",
          "type": "address"
        }
      ],
      "name": "colorBankShare",
      "outputs": [
        {
          "name": "",
          "type": "uint256"
        }
      ],
      "payable": false,
      "stateMutability": "view",
      "type": "function"
    },
    {
      "constant": true,
      "inputs": [
        {
          "name": "",
          "type": "uint256"
        },
        {
          "name": "",
          "type": "uint256"
        }
      ],
      "name": "pixelToColorForRound",
      "outputs": [
        {
          "name": "",
          "type": "uint256"
        }
      ],
      "payable": false,
      "stateMutability": "view",
      "type": "function"
    },
    {
      "constant": true,
      "inputs": [
        {
          "name": "",
          "type": "uint256"
        }
      ],
      "name": "totalPaintsForRound",
      "outputs": [
        {
          "name": "",
          "type": "uint256"
        }
      ],
      "payable": false,
      "stateMutability": "view",
      "type": "function"
    },
    {
      "constant": true,
      "inputs": [
        {
          "name": "",
          "type": "uint256"
        }
      ],
      "name": "colorBankForRound",
      "outputs": [
        {
          "name": "",
          "type": "uint256"
        }
      ],
      "payable": false,
      "stateMutability": "view",
      "type": "function"
    },
    {
      "constant": true,
      "inputs": [
        {
          "name": "",
          "type": "uint256"
        },
        {
          "name": "",
          "type": "uint256"
        }
      ],
      "name": "paintGenToEndTimeForColor",
      "outputs": [
        {
          "name": "",
          "type": "uint256"
        }
      ],
      "payable": false,
      "stateMutability": "view",
      "type": "function"
    },
    {
      "constant": true,
      "inputs": [],
      "name": "uniqueUsersCount",
      "outputs": [
        {
          "name": "",
          "type": "uint256"
        }
      ],
      "payable": false,
      "stateMutability": "view",
      "type": "function"
    },
    {
      "constant": true,
      "inputs": [
        {
          "name": "",
          "type": "bytes32"
        }
      ],
      "name": "refLinkExists",
      "outputs": [
        {
          "name": "",
          "type": "bool"
        }
      ],
      "payable": false,
      "stateMutability": "view",
      "type": "function"
    },
    {
      "constant": true,
      "inputs": [
        {
          "name": "",
          "type": "uint256"
        },
        {
          "name": "",
          "type": "uint256"
        }
      ],
      "name": "paintGenToAmountForColor",
      "outputs": [
        {
          "name": "",
          "type": "uint256"
        }
      ],
      "payable": false,
      "stateMutability": "view",
      "type": "function"
    },
    {
      "constant": true,
      "inputs": [
        {
          "name": "",
          "type": "uint256"
        }
      ],
      "name": "isCBPTransfered",
      "outputs": [
        {
          "name": "",
          "type": "bool"
        }
      ],
      "payable": false,
      "stateMutability": "view",
      "type": "function"
    },
    {
      "constant": true,
      "inputs": [
        {
          "name": "",
          "type": "address"
        }
      ],
      "name": "referralToReferrer",
      "outputs": [
        {
          "name": "",
          "type": "address"
        }
      ],
      "payable": false,
      "stateMutability": "view",
      "type": "function"
    },
    {
      "constant": true,
      "inputs": [
        {
          "name": "",
          "type": "uint256"
        },
        {
          "name": "",
          "type": "address"
        }
      ],
      "name": "usersPaintDiscountForColor",
      "outputs": [
        {
          "name": "",
          "type": "uint256"
        }
      ],
      "payable": false,
      "stateMutability": "view",
      "type": "function"
    },
    {
      "constant": true,
      "inputs": [],
      "name": "maxPaintsInPool",
      "outputs": [
        {
          "name": "",
          "type": "uint256"
        }
      ],
      "payable": false,
      "stateMutability": "view",
      "type": "function"
    },
    {
      "constant": false,
      "inputs": [
        {
          "name": "newOwner",
          "type": "address"
        }
      ],
      "name": "transferOwnership",
      "outputs": [],
      "payable": false,
      "stateMutability": "nonpayable",
      "type": "function"
    },
    {
      "constant": true,
      "inputs": [
        {
          "name": "",
          "type": "uint256"
        }
      ],
      "name": "winnerColorForRound",
      "outputs": [
        {
          "name": "",
          "type": "uint256"
        }
      ],
      "payable": false,
      "stateMutability": "view",
      "type": "function"
    },
    {
      "constant": true,
      "inputs": [],
      "name": "dividendsBank",
      "outputs": [
        {
          "name": "",
          "type": "uint256"
        }
      ],
      "payable": false,
      "stateMutability": "view",
      "type": "function"
    },
    {
      "constant": true,
      "inputs": [
        {
          "name": "",
          "type": "address"
        }
      ],
      "name": "withdrawalBalances",
      "outputs": [
        {
          "name": "",
          "type": "uint256"
        }
      ],
      "payable": false,
      "stateMutability": "view",
      "type": "function"
    },
    {
      "constant": true,
      "inputs": [],
      "name": "cbIteration",
      "outputs": [
        {
          "name": "",
          "type": "uint256"
        }
      ],
      "payable": false,
      "stateMutability": "view",
      "type": "function"
    },
    {
      "inputs": [
        {
          "name": "_erc1538Delegate",
          "type": "address"
        }
      ],
      "payable": false,
      "stateMutability": "nonpayable",
      "type": "constructor"
    },
    {
      "payable": true,
      "stateMutability": "payable",
      "type": "fallback"
    },
    {
      "anonymous": false,
      "inputs": [
        {
          "indexed": false,
          "name": "message",
          "type": "string"
        }
      ],
      "name": "CommitMessage",
      "type": "event"
    },
    {
      "anonymous": false,
      "inputs": [
        {
          "indexed": true,
          "name": "functionId",
          "type": "bytes4"
        },
        {
          "indexed": true,
          "name": "oldDelegate",
          "type": "address"
        },
        {
          "indexed": true,
          "name": "newDelegate",
          "type": "address"
        },
        {
          "indexed": false,
          "name": "functionSignature",
          "type": "string"
        }
      ],
      "name": "FunctionUpdate",
      "type": "event"
    },
    {
      "anonymous": false,
      "inputs": [
        {
          "indexed": true,
          "name": "previousOwner",
          "type": "address"
        },
        {
          "indexed": true,
          "name": "newOwner",
          "type": "address"
        }
      ],
      "name": "OwnershipTransferred",
      "type": "event"
    }
  ],
  "bytecode": "0x608060405273ca35b7d915458ef540ade6068dfe2f44e8fa733c604060006101000a81548173ffffffffffffffffffffffffffffffffffffffff021916908373ffffffffffffffffffffffffffffffffffffffff160217905550733e4d187df7d8a0820eaf4174d17b160157610912604160006101000a81548173ffffffffffffffffffffffffffffffffffffffff021916908373ffffffffffffffffffffffffffffffffffffffff160217905550348015620000bb57600080fd5b5060405160208062002e1d8339810180604052810190808051906020019092919050505060606000336000806101000a81548173ffffffffffffffffffffffffffffffffffffffff021916908373ffffffffffffffffffffffffffffffffffffffff1602179055506000809054906101000a900473ffffffffffffffffffffffffffffffffffffffff1673ffffffffffffffffffffffffffffffffffffffff16600073ffffffffffffffffffffffffffffffffffffffff167f8be0079c531659141344cd1fd0a4f28419497f9722a3daafe3b4186f6b6457e060405160405180910390a3606060405190810160405280602581526020017f757064617465436f6e747261637428616464726573732c737472696e672c737481526020017f72696e67290000000000000000000000000000000000000000000000000000008152509150816040518082805190602001908083835b6020831015156200023657805182526020820191506020810190506020830392506200020f565b6001836020036101000a038019825116818451168082178552505050505050905001915050604051809103902090508260016000837bffffffffffffffffffffffffffffffffffffffffffffffffffffffff19167bffffffffffffffffffffffffffffffffffffffffffffffffffffffff1916815260200190815260200160002060006101000a81548173ffffffffffffffffffffffffffffffffffffffff021916908373ffffffffffffffffffffffffffffffffffffffff160217905550600282908060018154018082558091505090600182039060005260206000200160009091929091909150908051906020019062000334929190620007b1565b50506002805490506003836040518082805190602001908083835b6020831015156200037657805182526020820191506020810190506020830392506200034f565b6001836020036101000a0380198251168184511680821785525050505050509050019150509081526020016040518091039020819055508273ffffffffffffffffffffffffffffffffffffffff16600073ffffffffffffffffffffffffffffffffffffffff16827bffffffffffffffffffffffffffffffffffffffffffffffffffffffff19167f3234040ce3bd4564874e44810f198910133a1b24c4e84aac87edbf6b458f5353856040518080602001828103825283818151815260200191508051906020019080838360005b838110156200046057808201518184015260208101905062000443565b50505050905090810190601f1680156200048e5780820380516001836020036101000a031916815260200191505b509250505060405180910390a47faa1c0a0a78cec2470f9652e5d29540752e7a64d70f926933cebf13afaeda45de60405180806020018281038252603a8152602001807f4164646564204552433135333820757064617465436f6e74726163742066756e81526020017f6374696f6e20617420636f6e7472616374206372656174696f6e00000000000081525060400191505060405180910390a1620005426200054b640100000000026401000000009004565b50505062000860565b60006001604260003373ffffffffffffffffffffffffffffffffffffffff1673ffffffffffffffffffffffffffffffffffffffff16815260200190815260200160002060006101000a81548160ff02191690831515021790555061271060278190555060016028819055506001602a819055506001602981905550600190505b600881111515620007ae5760016017600083815260200190815260200160002081905550662386f26fc10000601860008381526020019081526020016000208190555060186000828152602001908152602001600020546019600083815260200190815260200160002081905550602754601360008381526020019081526020016000206000601760008581526020019081526020016000205481526020019081526020016000208190555060016016600083815260200190815260200160002060006017600085815260200190815260200160002054815260200190815260200160002060006101000a81548160ff021916908315150217905550600060126000602854815260200190815260200160002054141562000726574260156000838152602001908152602001600020600060016017600086815260200190815260200160002054038152602001908152602001600020819055505b42601460008381526020019081526020016000206000601760008581526020019081526020016000205481526020019081526020016000208190555060275460136000838152602001908152602001600020600060176000858152602001908152602001600020548152602001908152602001600020819055508080600101915050620005cb565b50565b828054600181600116156101000203166002900490600052602060002090601f016020900481019282601f10620007f457805160ff191683800117855562000825565b8280016001018555821562000825579182015b828111156200082457825182559160200191906001019062000807565b5b50905062000834919062000838565b5090565b6200085d91905b80821115620008595760008160009055506001016200083f565b5090565b90565b6125ad80620008706000396000f300608060405260043610610317576000357c0100000000000000000000000000000000000000000000000000000000900463ffffffff1680630422ddf31461047c57806305bdd0be146104ab578063099b81ce146105105780630ba36221146105815780630baaea44146105cc5780630cf9603f146106395780630f6ed86e14610684578063102f9713146106af57806318452cd81461071c5780631f5bdf5d146107775780631f90c6ed146107d257806324d7806c1461083757806328361f571461089257806328b290f9146108d35780632c6c1c411461092a5780632c7a3dae1461098b57806333f9c38814610a025780633a17350514610a635780633c6dd01314610aae5780633ca4c18314610aef5780633d0d1a7914610b505780633dc3c37714610b91578063411b007e14610bbc57806341c5464e14610c1357806342e453ec14610c6a5780634b39173d14610ce15780634c438ad714610d2c5780634c78e40114610d715780635bfcdb2714610db25780635c25fd1314610e6e5780635d63ebb214610e995780635f5d554c14610f10578063628a71a314610f5f5780636f17eb4214610fa0578063715018a614610fe157806373a9ee2614610ff857806379ecf376146110395780637e1e175c146110a657806387982ac3146111015780638a19c8bc1461118e5780638da5cb5b146111b95780638e2df39c146112105780638f32d59b146112515780638f63b7e514611280578063a3120724146112cb578063a888c2cd14611316578063a977e1681461139c578063ab24c7d2146113f3578063ae55ce8214611458578063b0ff59d2146114c5578063b1a3883c14611526578063b8232d5d14611591578063be7d6226146115dc578063c64a2e561461161d578063c957387b1461165e578063c9f8234f146116a9578063d4526e68146116d4578063d5de47c71461171d578063da68b12114611768578063deaf0fa1146117ad578063eaf1c91014611830578063eef565da14611891578063f2fde38b146118bc578063f49916f5146118ff578063f5f95b3b14611940578063fb454d291461196b578063fea11fe3146119c2575b60006001600080357fffffffff00000000000000000000000000000000000000000000000000000000167bffffffffffffffffffffffffffffffffffffffffffffffffffffffff19167bffffffffffffffffffffffffffffffffffffffffffffffffffffffff1916815260200190815260200160002060009054906101000a900473ffffffffffffffffffffffffffffffffffffffff169050600073ffffffffffffffffffffffffffffffffffffffff168173ffffffffffffffffffffffffffffffffffffffff1614151515610455576040517f08c379a00000000000000000000000000000000000000000000000000000000081526004018080602001828103825260188152602001807f46756e6374696f6e20646f6573206e6f742065786973742e000000000000000081525060200191505060405180910390fd5b60405136600082376000803683855af43d806000843e8160008114610478578184f35b8184fd5b34801561048857600080fd5b506104916119ed565b604051808215151515815260200191505060405180910390f35b3480156104b757600080fd5b506104f660048036038101908080359060200190929190803573ffffffffffffffffffffffffffffffffffffffff169060200190929190505050611a00565b604051808215151515815260200191505060405180910390f35b34801561051c57600080fd5b5061053f6004803603810190808035600019169060200190929190505050611a2f565b604051808273ffffffffffffffffffffffffffffffffffffffff1673ffffffffffffffffffffffffffffffffffffffff16815260200191505060405180910390f35b34801561058d57600080fd5b506105b66004803603810190808035906020019092919080359060200190929190505050611a62565b6040518082815260200191505060405180910390f35b3480156105d857600080fd5b506105f760048036038101908080359060200190929190505050611a87565b604051808273ffffffffffffffffffffffffffffffffffffffff1673ffffffffffffffffffffffffffffffffffffffff16815260200191505060405180910390f35b34801561064557600080fd5b5061066e6004803603810190808035906020019092919080359060200190929190505050611aba565b6040518082815260200191505060405180910390f35b34801561069057600080fd5b50610699611adf565b6040518082815260200191505060405180910390f35b3480156106bb57600080fd5b506106da60048036038101908080359060200190929190505050611ae5565b604051808273ffffffffffffffffffffffffffffffffffffffff1673ffffffffffffffffffffffffffffffffffffffff16815260200191505060405180910390f35b34801561072857600080fd5b5061075d600480360381019080803573ffffffffffffffffffffffffffffffffffffffff169060200190929190505050611b18565b604051808215151515815260200191505060405180910390f35b34801561078357600080fd5b506107b8600480360381019080803573ffffffffffffffffffffffffffffffffffffffff169060200190929190505050611b38565b604051808215151515815260200191505060405180910390f35b3480156107de57600080fd5b5061081d60048036038101908080359060200190929190803573ffffffffffffffffffffffffffffffffffffffff169060200190929190505050611b58565b604051808215151515815260200191505060405180910390f35b34801561084357600080fd5b50610878600480360381019080803573ffffffffffffffffffffffffffffffffffffffff169060200190929190505050611b87565b604051808215151515815260200191505060405180910390f35b34801561089e57600080fd5b506108bd60048036038101908080359060200190929190505050611ba7565b6040518082815260200191505060405180910390f35b3480156108df57600080fd5b50610914600480360381019080803573ffffffffffffffffffffffffffffffffffffffff169060200190929190505050611bbf565b6040518082815260200191505060405180910390f35b34801561093657600080fd5b5061097560048036038101908080359060200190929190803573ffffffffffffffffffffffffffffffffffffffff169060200190929190505050611bd7565b6040518082815260200191505060405180910390f35b34801561099757600080fd5b506109c06004803603810190808035906020019092919080359060200190929190505050611bfc565b604051808273ffffffffffffffffffffffffffffffffffffffff1673ffffffffffffffffffffffffffffffffffffffff16815260200191505060405180910390f35b348015610a0e57600080fd5b50610a4d60048036038101908080359060200190929190803573ffffffffffffffffffffffffffffffffffffffff169060200190929190505050611c49565b6040518082815260200191505060405180910390f35b348015610a6f57600080fd5b50610a986004803603810190808035906020019092919080359060200190929190505050611c6e565b6040518082815260200191505060405180910390f35b348015610aba57600080fd5b50610ad960048036038101908080359060200190929190505050611c93565b6040518082815260200191505060405180910390f35b348015610afb57600080fd5b50610b3a60048036038101908080359060200190929190803573ffffffffffffffffffffffffffffffffffffffff169060200190929190505050611cab565b6040518082815260200191505060405180910390f35b348015610b5c57600080fd5b50610b7b60048036038101908080359060200190929190505050611cd0565b6040518082815260200191505060405180910390f35b348015610b9d57600080fd5b50610ba6611ce8565b6040518082815260200191505060405180910390f35b348015610bc857600080fd5b50610bd1611cee565b604051808273ffffffffffffffffffffffffffffffffffffffff1673ffffffffffffffffffffffffffffffffffffffff16815260200191505060405180910390f35b348015610c1f57600080fd5b50610c54600480360381019080803573ffffffffffffffffffffffffffffffffffffffff169060200190929190505050611d14565b6040518082815260200191505060405180910390f35b348015610c7657600080fd5b50610c9f6004803603810190808035906020019092919080359060200190929190505050611d2c565b604051808273ffffffffffffffffffffffffffffffffffffffff1673ffffffffffffffffffffffffffffffffffffffff16815260200191505060405180910390f35b348015610ced57600080fd5b50610d166004803603810190808035906020019092919080359060200190929190505050611d6e565b6040518082815260200191505060405180910390f35b348015610d3857600080fd5b50610d5760048036038101908080359060200190929190505050611d93565b604051808215151515815260200191505060405180910390f35b348015610d7d57600080fd5b50610d9c60048036038101908080359060200190929190505050611db3565b6040518082815260200191505060405180910390f35b348015610dbe57600080fd5b50610df3600480360381019080803573ffffffffffffffffffffffffffffffffffffffff169060200190929190505050611dcb565b6040518080602001828103825283818151815260200191508051906020019080838360005b83811015610e33578082015181840152602081019050610e18565b50505050905090810190601f168015610e605780820380516001836020036101000a031916815260200191505b509250505060405180910390f35b348015610e7a57600080fd5b50610e83611e7b565b6040518082815260200191505060405180910390f35b348015610ea557600080fd5b50610ece6004803603810190808035906020019092919080359060200190929190505050611e81565b604051808273ffffffffffffffffffffffffffffffffffffffff1673ffffffffffffffffffffffffffffffffffffffff16815260200191505060405180910390f35b348015610f1c57600080fd5b50610f456004803603810190808035906020019092919080359060200190929190505050611ece565b604051808215151515815260200191505060405180910390f35b348015610f6b57600080fd5b50610f8a60048036038101908080359060200190929190505050611efd565b6040518082815260200191505060405180910390f35b348015610fac57600080fd5b50610fcb60048036038101908080359060200190929190505050611f15565b6040518082815260200191505060405180910390f35b348015610fed57600080fd5b50610ff6611f2d565b005b34801561100457600080fd5b5061102360048036038101908080359060200190929190505050611fff565b6040518082815260200191505060405180910390f35b34801561104557600080fd5b5061106460048036038101908080359060200190929190505050612017565b604051808273ffffffffffffffffffffffffffffffffffffffff1673ffffffffffffffffffffffffffffffffffffffff16815260200191505060405180910390f35b3480156110b257600080fd5b506110e7600480360381019080803573ffffffffffffffffffffffffffffffffffffffff16906020019092919050505061204a565b604051808215151515815260200191505060405180910390f35b34801561110d57600080fd5b5061114c600480360381019080803573ffffffffffffffffffffffffffffffffffffffff1690602001909291908035906020019092919050505061206a565b604051808273ffffffffffffffffffffffffffffffffffffffff1673ffffffffffffffffffffffffffffffffffffffff16815260200191505060405180910390f35b34801561119a57600080fd5b506111a36120b6565b6040518082815260200191505060405180910390f35b3480156111c557600080fd5b506111ce6120bc565b604051808273ffffffffffffffffffffffffffffffffffffffff1673ffffffffffffffffffffffffffffffffffffffff16815260200191505060405180910390f35b34801561121c57600080fd5b5061123b600480360381019080803590602001909291905050506120e5565b6040518082815260200191505060405180910390f35b34801561125d57600080fd5b506112666120fd565b604051808215151515815260200191505060405180910390f35b34801561128c57600080fd5b506112b56004803603810190808035906020019092919080359060200190929190505050612154565b6040518082815260200191505060405180910390f35b3480156112d757600080fd5b506113006004803603810190808035906020019092919080359060200190929190505050612179565b6040518082815260200191505060405180910390f35b34801561132257600080fd5b506113416004803603810190808035906020019092919050505061219e565b604051808581526020018473ffffffffffffffffffffffffffffffffffffffff1673ffffffffffffffffffffffffffffffffffffffff1681526020018315151515815260200182815260200194505050505060405180910390f35b3480156113a857600080fd5b506113b161220a565b604051808273ffffffffffffffffffffffffffffffffffffffff1673ffffffffffffffffffffffffffffffffffffffff16815260200191505060405180910390f35b3480156113ff57600080fd5b5061143e60048036038101908080359060200190929190803573ffffffffffffffffffffffffffffffffffffffff169060200190929190505050612230565b604051808215151515815260200191505060405180910390f35b34801561146457600080fd5b506114836004803603810190808035906020019092919050505061225f565b604051808273ffffffffffffffffffffffffffffffffffffffff1673ffffffffffffffffffffffffffffffffffffffff16815260200191505060405180910390f35b3480156114d157600080fd5b5061151060048036038101908080359060200190929190803573ffffffffffffffffffffffffffffffffffffffff169060200190929190505050612292565b6040518082815260200191505060405180910390f35b34801561153257600080fd5b5061157b6004803603810190808035906020019092919080359060200190929190803573ffffffffffffffffffffffffffffffffffffffff1690602001909291905050506122b7565b6040518082815260200191505060405180910390f35b34801561159d57600080fd5b506115c660048036038101908080359060200190929190803590602001909291905050506122e9565b6040518082815260200191505060405180910390f35b3480156115e857600080fd5b506116076004803603810190808035906020019092919050505061230e565b6040518082815260200191505060405180910390f35b34801561162957600080fd5b5061164860048036038101908080359060200190929190505050612326565b6040518082815260200191505060405180910390f35b34801561166a57600080fd5b50611693600480360381019080803590602001909291908035906020019092919050505061233e565b6040518082815260200191505060405180910390f35b3480156116b557600080fd5b506116be612363565b6040518082815260200191505060405180910390f35b3480156116e057600080fd5b506117036004803603810190808035600019169060200190929190505050612369565b604051808215151515815260200191505060405180910390f35b34801561172957600080fd5b506117526004803603810190808035906020019092919080359060200190929190505050612389565b6040518082815260200191505060405180910390f35b34801561177457600080fd5b50611793600480360381019080803590602001909291905050506123ae565b604051808215151515815260200191505060405180910390f35b3480156117b957600080fd5b506117ee600480360381019080803573ffffffffffffffffffffffffffffffffffffffff1690602001909291905050506123ce565b604051808273ffffffffffffffffffffffffffffffffffffffff1673ffffffffffffffffffffffffffffffffffffffff16815260200191505060405180910390f35b34801561183c57600080fd5b5061187b60048036038101908080359060200190929190803573ffffffffffffffffffffffffffffffffffffffff169060200190929190505050612401565b6040518082815260200191505060405180910390f35b34801561189d57600080fd5b506118a6612426565b6040518082815260200191505060405180910390f35b3480156118c857600080fd5b506118fd600480360381019080803573ffffffffffffffffffffffffffffffffffffffff16906020019092919050505061242c565b005b34801561190b57600080fd5b5061192a6004803603810190808035906020019092919050505061244b565b6040518082815260200191505060405180910390f35b34801561194c57600080fd5b50611955612463565b6040518082815260200191505060405180910390f35b34801561197757600080fd5b506119ac600480360381019080803573ffffffffffffffffffffffffffffffffffffffff169060200190929190505050612469565b6040518082815260200191505060405180910390f35b3480156119ce57600080fd5b506119d7612481565b6040518082815260200191505060405180910390f35b604160149054906101000a900460ff1681565b60346020528160005260406000206020528060005260406000206000915091509054906101000a900460ff1681565b60236020528060005260406000206000915054906101000a900473ffffffffffffffffffffffffffffffffffffffff1681565b600e602052816000526040600020602052806000526040600020600091509150505481565b603a6020528060005260406000206000915054906101000a900473ffffffffffffffffffffffffffffffffffffffff1681565b6006602052816000526040600020602052806000526040600020600091509150505481565b60295481565b600f6020528060005260406000206000915054906101000a900473ffffffffffffffffffffffffffffffffffffffff1681565b60216020528060005260406000206000915054906101000a900460ff1681565b601d6020528060005260406000206000915054906101000a900460ff1681565b601b6020528160005260406000206020528060005260406000206000915091509054906101000a900460ff1681565b60426020528060005260406000206000915054906101000a900460ff1681565b60176020528060005260406000206000915090505481565b60396020528060005260406000206000915090505481565b601a602052816000526040600020602052806000526040600020600091509150505481565b603060205281600052604060002081815481101515611c1757fe5b906000526020600020016000915091509054906101000a900473ffffffffffffffffffffffffffffffffffffffff1681565b6036602052816000526040600020602052806000526040600020600091509150505481565b6014602052816000526040600020602052806000526040600020600091509150505481565b60186020528060005260406000206000915090505481565b6035602052816000526040600020602052806000526040600020600091509150505481565b60106020528060005260406000206000915090505481565b602b5481565b604160009054906101000a900473ffffffffffffffffffffffffffffffffffffffff1681565b60256020528060005260406000206000915090505481565b60326020528160005260406000206020528060005260406000206000915091509054906101000a900473ffffffffffffffffffffffffffffffffffffffff1681565b6005602052816000526040600020602052806000526040600020600091509150505481565b60386020528060005260406000206000915054906101000a900460ff1681565b60096020528060005260406000206000915090505481565b60226020528060005260406000206000915090508054600181600116156101000203166002900480601f016020809104026020016040519081016040528092919081815260200182805460018160011615610100020316600290048015611e735780601f10611e4857610100808354040283529160200191611e73565b820191906000526020600020905b815481529060010190602001808311611e5657829003601f168201915b505050505081565b603e5481565b602f60205281600052604060002081815481101515611e9c57fe5b906000526020600020016000915091509054906101000a900473ffffffffffffffffffffffffffffffffffffffff1681565b60166020528160005260406000206020528060005260406000206000915091509054906101000a900460ff1681565b600c6020528060005260406000206000915090505481565b60196020528060005260406000206000915090505481565b611f356120fd565b1515611f4057600080fd5b600073ffffffffffffffffffffffffffffffffffffffff166000809054906101000a900473ffffffffffffffffffffffffffffffffffffffff1673ffffffffffffffffffffffffffffffffffffffff167f8be0079c531659141344cd1fd0a4f28419497f9722a3daafe3b4186f6b6457e060405160405180910390a360008060006101000a81548173ffffffffffffffffffffffffffffffffffffffff021916908373ffffffffffffffffffffffffffffffffffffffff160217905550565b600a6020528060005260406000206000915090505481565b600b6020528060005260406000206000915054906101000a900473ffffffffffffffffffffffffffffffffffffffff1681565b601e6020528060005260406000206000915054906101000a900460ff1681565b602080528160005260406000208181548110151561208457fe5b906000526020600020016000915091509054906101000a900473ffffffffffffffffffffffffffffffffffffffff1681565b60285481565b60008060009054906101000a900473ffffffffffffffffffffffffffffffffffffffff16905090565b602e6020528060005260406000206000915090505481565b60008060009054906101000a900473ffffffffffffffffffffffffffffffffffffffff1673ffffffffffffffffffffffffffffffffffffffff163373ffffffffffffffffffffffffffffffffffffffff1614905090565b6011602052816000526040600020602052806000526040600020600091509150505481565b6008602052816000526040600020602052806000526040600020600091509150505481565b603f818154811015156121ad57fe5b90600052602060002090600302016000915090508060000154908060010160009054906101000a900473ffffffffffffffffffffffffffffffffffffffff16908060010160149054906101000a900460ff16908060020154905084565b604060009054906101000a900473ffffffffffffffffffffffffffffffffffffffff1681565b60336020528160005260406000206020528060005260406000206000915091509054906101000a900460ff1681565b60316020528060005260406000206000915054906101000a900473ffffffffffffffffffffffffffffffffffffffff1681565b602c602052816000526040600020602052806000526040600020600091509150505481565b602d60205282600052604060002060205281600052604060002060205280600052604060002060009250925050505481565b6004602052816000526040600020602052806000526040600020600091509150505481565b60126020528060005260406000206000915090505481565b60076020528060005260406000206000915090505481565b6015602052816000526040600020602052806000526040600020600091509150505481565b60265481565b60246020528060005260406000206000915054906101000a900460ff1681565b6013602052816000526040600020602052806000526040600020600091509150505481565b60376020528060005260406000206000915054906101000a900460ff1681565b601f6020528060005260406000206000915054906101000a900473ffffffffffffffffffffffffffffffffffffffff1681565b601c602052816000526040600020602052806000526040600020600091509150505481565b60275481565b6124346120fd565b151561243f57600080fd5b61244881612487565b50565b600d6020528060005260406000206000915090505481565b603d5481565b603b6020528060005260406000206000915090505481565b602a5481565b600073ffffffffffffffffffffffffffffffffffffffff168173ffffffffffffffffffffffffffffffffffffffff16141515156124c357600080fd5b8073ffffffffffffffffffffffffffffffffffffffff166000809054906101000a900473ffffffffffffffffffffffffffffffffffffffff1673ffffffffffffffffffffffffffffffffffffffff167f8be0079c531659141344cd1fd0a4f28419497f9722a3daafe3b4186f6b6457e060405160405180910390a3806000806101000a81548173ffffffffffffffffffffffffffffffffffffffff021916908373ffffffffffffffffffffffffffffffffffffffff160217905550505600a165627a7a72305820dcd83039d45fe3e6aaf40f0fc2253031456766013c79e8765713332607b0fe7c0029",
  "source": "pragma solidity ^0.4.24;\npragma experimental \"v0.5.0\";\n\nimport \"../node_modules/openzeppelin-solidity/contracts/ownership/Ownable.sol\";\nimport \"./StorageV1.sol\";\n\ncontract Transparent is Ownable, StorageV1 {\n    \n    event CommitMessage(string message);\n    event FunctionUpdate(bytes4 indexed functionId, address indexed oldDelegate, address indexed newDelegate, string functionSignature);\n\n    constructor(address _erc1538Delegate) public {\n\n        //Adding ERC1538 updateContract function\n        bytes memory signature = \"updateContract(address,string,string)\";\n        bytes4 funcId = bytes4(keccak256(signature));\n        delegates[funcId] = _erc1538Delegate;\n        funcSignatures.push(signature);\n        funcSignatureToIndex[signature] = funcSignatures.length;\n        emit FunctionUpdate(funcId, address(0), _erc1538Delegate, string(signature));\n        emit CommitMessage(\"Added ERC1538 updateContract function at contract creation\");\n    \n        _initializer();\n    }\n\n    //constructors which should have been in any the implementation contract\n    function _initializer() private {\n\n        isAdmin[msg.sender] = true;\n        \n        maxPaintsInPool = 10000; //10000 in production\n        currentRound = 1;\n        cbIteration = 1;\n        tbIteration = 1;\n        \n        for (uint i = 1; i <= 8; i++) {\n            currentPaintGenForColor[i] = 1;\n            callPriceForColor[i] = 0.01 ether;\n            nextCallPriceForColor[i] = callPriceForColor[i];\n            paintGenToAmountForColor[i][currentPaintGenForColor[i]] = maxPaintsInPool;\n            paintGenStartedForColor[i][currentPaintGenForColor[i]] = true;\n            \n            //       \n            if (totalPaintsForRound[currentRound] == 0) {\n                paintGenToEndTimeForColor[i][currentPaintGenForColor[i] - 1] = now;\n            }\n            \n            paintGenToStartTimeForColor[i][currentPaintGenForColor[i]] = now;\n            paintGenToAmountForColor[i][currentPaintGenForColor[i]] = maxPaintsInPool;\n        }\n        \n    }\n\n    function() external payable {\n        address delegate = delegates[msg.sig];\n        require(delegate != address(0), \"Function does not exist.\");\n        assembly {\n            let ptr := mload(0x40)\n            calldatacopy(ptr, 0, calldatasize)\n            let result := delegatecall(gas, delegate, ptr, calldatasize, 0, 0)\n            let size := returndatasize\n            returndatacopy(ptr, 0, size)\n            switch result\n            case 0 {revert(ptr, size)}\n            default {return (ptr, size)}\n        }\n    }\n}",
  "sourcePath": "/Users/Amir/last-pixel-contracts/contracts/Transparent.sol",
  "compiler": {
    "name": "solc",
    "version": "0.4.24+commit.e67f0147.Emscripten.clang"
  },
  "schemaVersion": "2.0.1",
  "updatedAt": "2019-01-07T13:01:30.392Z"
}