{
  "contractName": "Utils",
  "abi": [
    {
      "constant": true,
      "inputs": [
        {
          "name": "_string",
          "type": "string"
        }
      ],
      "name": "toBytes32",
      "outputs": [
        {
          "name": "",
          "type": "bytes16"
        }
      ],
      "payable": false,
      "stateMutability": "pure",
      "type": "function"
    }
  ],
  "bytecode": "0x61013d610030600b82828239805160001a6073146000811461002057610022565bfe5b5030600052607381538281f3007300000000000000000000000000000000000000003014608060405260043610610058576000357c0100000000000000000000000000000000000000000000000000000000900463ffffffff16806327df8f2a1461005d575b600080fd5b6100896004803603810190808035906020019082018035906020019190919293919293905050506100c5565b60405180826fffffffffffffffffffffffffffffffff19166fffffffffffffffffffffffffffffffff1916815260200191505060405180910390f35b600080606084848080601f0160208091040260200160405190810160405280939291908181526020018383808284378201915050505050509050602081015191508192505050929150505600a165627a7a72305820f8aa5b1517d251599344296a67bd0642f5ef31e2836f0771da22d9679fbe94cd0029",
  "source": "library Utils {\n\n    // convert a string less than 32 characters long to bytes32\n    function toBytes32(string _string) pure external returns (bytes16) {\n        // make sure that the string isn't too long for this function\n        // will work but will cut off the any characters past the 32nd character\n        bytes16 _stringBytes;\n        string memory str = _string;\n    \n        // simplest way to convert 32 character long string\n        assembly {\n          // load the memory pointer of string with an offset of 32\n          // 32 passes over non-core data parts of string such as length of text\n          _stringBytes := mload(add(str, 32))\n        }\n    \n        return _stringBytes;\n    }\n}",
  "sourcePath": "/Users/Amir/last-pixel-contracts/contracts/Utils.sol",
  "compiler": {
    "name": "solc",
    "version": "0.4.24+commit.e67f0147.Emscripten.clang"
  },
  "schemaVersion": "2.0.1",
  "updatedAt": "2019-01-07T11:36:34.293Z"
}