{
  "contractName": "Wrapper",
  "abi": [
    {
      "constant": true,
      "inputs": [],
      "name": "isGamePaused",
      "outputs": [
        {
          "name": "",
          "type": "bool"
        }
      ],
      "payable": false,
      "stateMutability": "view",
      "type": "function"
    },
    {
      "constant": true,
      "inputs": [
        {
          "name": "",
          "type": "uint256"
        },
        {
          "name": "",
          "type": "address"
        }
      ],
      "name": "isInTBT",
      "outputs": [
        {
          "name": "",
          "type": "bool"
        }
      ],
      "payable": false,
      "stateMutability": "view",
      "type": "function"
    },
    {
      "constant": true,
      "inputs": [
        {
          "name": "",
          "type": "bytes32"
        }
      ],
      "name": "refLinkToUser",
      "outputs": [
        {
          "name": "",
          "type": "address"
        }
      ],
      "payable": false,
      "stateMutability": "view",
      "type": "function"
    },
    {
      "constant": true,
      "inputs": [
        {
          "name": "",
          "type": "uint256"
        }
      ],
      "name": "ownerOfColor",
      "outputs": [
        {
          "name": "",
          "type": "address"
        }
      ],
      "payable": false,
      "stateMutability": "view",
      "type": "function"
    },
    {
      "constant": true,
      "inputs": [
        {
          "name": "",
          "type": "uint256"
        },
        {
          "name": "",
          "type": "uint256"
        }
      ],
      "name": "colorToPaintedPixelsAmountForRound",
      "outputs": [
        {
          "name": "",
          "type": "uint256"
        }
      ],
      "payable": false,
      "stateMutability": "view",
      "type": "function"
    },
    {
      "constant": true,
      "inputs": [],
      "name": "tbIteration",
      "outputs": [
        {
          "name": "",
          "type": "uint256"
        }
      ],
      "payable": false,
      "stateMutability": "view",
      "type": "function"
    },
    {
      "constant": true,
      "inputs": [
        {
          "name": "",
          "type": "uint256"
        }
      ],
      "name": "winnerOfRound",
      "outputs": [
        {
          "name": "",
          "type": "address"
        }
      ],
      "payable": false,
      "stateMutability": "view",
      "type": "function"
    },
    {
      "constant": true,
      "inputs": [
        {
          "name": "",
          "type": "uint256"
        }
      ],
      "name": "timeBankDrawnForRound",
      "outputs": [
        {
          "name": "",
          "type": "bool"
        }
      ],
      "payable": false,
      "stateMutability": "view",
      "type": "function"
    },
    {
      "constant": true,
      "inputs": [
        {
          "name": "",
          "type": "address"
        }
      ],
      "name": "hasReferrer",
      "outputs": [
        {
          "name": "",
          "type": "bool"
        }
      ],
      "payable": false,
      "stateMutability": "view",
      "type": "function"
    },
    {
      "constant": true,
      "inputs": [
        {
          "name": "",
          "type": "uint256"
        },
        {
          "name": "",
          "type": "uint256"
        }
      ],
      "name": "colorToTotalPaintsForCBIteration",
      "outputs": [
        {
          "name": "",
          "type": "uint256"
        }
      ],
      "payable": false,
      "stateMutability": "view",
      "type": "function"
    },
    {
      "constant": true,
      "inputs": [],
      "name": "totalColorsNumber",
      "outputs": [
        {
          "name": "",
          "type": "uint256"
        }
      ],
      "payable": false,
      "stateMutability": "view",
      "type": "function"
    },
    {
      "constant": true,
      "inputs": [
        {
          "name": "",
          "type": "address"
        }
      ],
      "name": "isRegisteredUser",
      "outputs": [
        {
          "name": "",
          "type": "bool"
        }
      ],
      "payable": false,
      "stateMutability": "view",
      "type": "function"
    },
    {
      "constant": true,
      "inputs": [
        {
          "name": "",
          "type": "uint256"
        },
        {
          "name": "",
          "type": "address"
        }
      ],
      "name": "hasPaintDiscountForColor",
      "outputs": [
        {
          "name": "",
          "type": "bool"
        }
      ],
      "payable": false,
      "stateMutability": "view",
      "type": "function"
    },
    {
      "constant": true,
      "inputs": [],
      "name": "isTBPDistributable",
      "outputs": [
        {
          "name": "",
          "type": "bool"
        }
      ],
      "payable": false,
      "stateMutability": "view",
      "type": "function"
    },
    {
      "constant": true,
      "inputs": [
        {
          "name": "",
          "type": "address"
        }
      ],
      "name": "isAdmin",
      "outputs": [
        {
          "name": "",
          "type": "bool"
        }
      ],
      "payable": false,
      "stateMutability": "view",
      "type": "function"
    },
    {
      "constant": true,
      "inputs": [
        {
          "name": "",
          "type": "uint256"
        }
      ],
      "name": "currentPaintGenForColor",
      "outputs": [
        {
          "name": "",
          "type": "uint256"
        }
      ],
      "payable": false,
      "stateMutability": "view",
      "type": "function"
    },
    {
      "constant": true,
      "inputs": [
        {
          "name": "",
          "type": "address"
        }
      ],
      "name": "lastPlayedRound",
      "outputs": [
        {
          "name": "",
          "type": "uint256"
        }
      ],
      "payable": false,
      "stateMutability": "view",
      "type": "function"
    },
    {
      "constant": true,
      "inputs": [
        {
          "name": "",
          "type": "uint256"
        },
        {
          "name": "",
          "type": "address"
        }
      ],
      "name": "moneySpentByUserForColor",
      "outputs": [
        {
          "name": "",
          "type": "uint256"
        }
      ],
      "payable": false,
      "stateMutability": "view",
      "type": "function"
    },
    {
      "constant": true,
      "inputs": [
        {
          "name": "",
          "type": "uint256"
        },
        {
          "name": "",
          "type": "uint256"
        }
      ],
      "name": "tbTeam",
      "outputs": [
        {
          "name": "",
          "type": "address"
        }
      ],
      "payable": false,
      "stateMutability": "view",
      "type": "function"
    },
    {
      "constant": true,
      "inputs": [
        {
          "name": "",
          "type": "uint256"
        },
        {
          "name": "",
          "type": "address"
        }
      ],
      "name": "painterToTBP",
      "outputs": [
        {
          "name": "",
          "type": "uint256"
        }
      ],
      "payable": false,
      "stateMutability": "view",
      "type": "function"
    },
    {
      "constant": true,
      "inputs": [
        {
          "name": "",
          "type": "uint256"
        },
        {
          "name": "",
          "type": "uint256"
        }
      ],
      "name": "paintGenToStartTimeForColor",
      "outputs": [
        {
          "name": "",
          "type": "uint256"
        }
      ],
      "payable": false,
      "stateMutability": "view",
      "type": "function"
    },
    {
      "constant": true,
      "inputs": [
        {
          "name": "",
          "type": "uint256"
        }
      ],
      "name": "callPriceForColor",
      "outputs": [
        {
          "name": "",
          "type": "uint256"
        }
      ],
      "payable": false,
      "stateMutability": "view",
      "type": "function"
    },
    {
      "constant": true,
      "inputs": [
        {
          "name": "",
          "type": "uint256"
        },
        {
          "name": "",
          "type": "address"
        }
      ],
      "name": "painterToCBP",
      "outputs": [
        {
          "name": "",
          "type": "uint256"
        }
      ],
      "payable": false,
      "stateMutability": "view",
      "type": "function"
    },
    {
      "constant": true,
      "inputs": [
        {
          "name": "",
          "type": "uint256"
        }
      ],
      "name": "winnerBankForRound",
      "outputs": [
        {
          "name": "",
          "type": "uint256"
        }
      ],
      "payable": false,
      "stateMutability": "view",
      "type": "function"
    },
    {
      "constant": true,
      "inputs": [],
      "name": "paintsCounter",
      "outputs": [
        {
          "name": "",
          "type": "uint256"
        }
      ],
      "payable": false,
      "stateMutability": "view",
      "type": "function"
    },
    {
      "constant": true,
      "inputs": [],
      "name": "founders",
      "outputs": [
        {
          "name": "",
          "type": "address"
        }
      ],
      "payable": false,
      "stateMutability": "view",
      "type": "function"
    },
    {
      "constant": true,
      "inputs": [
        {
          "name": "",
          "type": "address"
        }
      ],
      "name": "newUserToCounter",
      "outputs": [
        {
          "name": "",
          "type": "uint256"
        }
      ],
      "payable": false,
      "stateMutability": "view",
      "type": "function"
    },
    {
      "constant": true,
      "inputs": [
        {
          "name": "",
          "type": "uint256"
        },
        {
          "name": "",
          "type": "uint256"
        }
      ],
      "name": "counterToPainterForColor",
      "outputs": [
        {
          "name": "",
          "type": "address"
        }
      ],
      "payable": false,
      "stateMutability": "view",
      "type": "function"
    },
    {
      "constant": true,
      "inputs": [
        {
          "name": "",
          "type": "address"
        }
      ],
      "name": "moneySpentByUser",
      "outputs": [
        {
          "name": "",
          "type": "uint256"
        }
      ],
      "payable": false,
      "stateMutability": "view",
      "type": "function"
    },
    {
      "constant": true,
      "inputs": [
        {
          "name": "",
          "type": "uint256"
        },
        {
          "name": "",
          "type": "uint256"
        }
      ],
      "name": "pixelToOldColorForRound",
      "outputs": [
        {
          "name": "",
          "type": "uint256"
        }
      ],
      "payable": false,
      "stateMutability": "view",
      "type": "function"
    },
    {
      "constant": true,
      "inputs": [
        {
          "name": "",
          "type": "uint256"
        }
      ],
      "name": "isTBPTransfered",
      "outputs": [
        {
          "name": "",
          "type": "bool"
        }
      ],
      "payable": false,
      "stateMutability": "view",
      "type": "function"
    },
    {
      "constant": true,
      "inputs": [
        {
          "name": "",
          "type": "uint256"
        }
      ],
      "name": "timeBankForRound",
      "outputs": [
        {
          "name": "",
          "type": "uint256"
        }
      ],
      "payable": false,
      "stateMutability": "view",
      "type": "function"
    },
    {
      "constant": true,
      "inputs": [
        {
          "name": "",
          "type": "address"
        }
      ],
      "name": "userToRefLink",
      "outputs": [
        {
          "name": "",
          "type": "string"
        }
      ],
      "payable": false,
      "stateMutability": "view",
      "type": "function"
    },
    {
      "constant": true,
      "inputs": [],
      "name": "claimId",
      "outputs": [
        {
          "name": "",
          "type": "uint256"
        }
      ],
      "payable": false,
      "stateMutability": "view",
      "type": "function"
    },
    {
      "constant": true,
      "inputs": [
        {
          "name": "",
          "type": "uint256"
        },
        {
          "name": "",
          "type": "uint256"
        }
      ],
      "name": "cbTeam",
      "outputs": [
        {
          "name": "",
          "type": "address"
        }
      ],
      "payable": false,
      "stateMutability": "view",
      "type": "function"
    },
    {
      "constant": true,
      "inputs": [
        {
          "name": "",
          "type": "uint256"
        },
        {
          "name": "",
          "type": "uint256"
        }
      ],
      "name": "paintGenStartedForColor",
      "outputs": [
        {
          "name": "",
          "type": "bool"
        }
      ],
      "payable": false,
      "stateMutability": "view",
      "type": "function"
    },
    {
      "constant": true,
      "inputs": [
        {
          "name": "",
          "type": "uint256"
        }
      ],
      "name": "usersCounterForRound",
      "outputs": [
        {
          "name": "",
          "type": "uint256"
        }
      ],
      "payable": false,
      "stateMutability": "view",
      "type": "function"
    },
    {
      "constant": true,
      "inputs": [
        {
          "name": "",
          "type": "uint256"
        }
      ],
      "name": "lastPaintedPixelForRound",
      "outputs": [
        {
          "name": "",
          "type": "uint256"
        }
      ],
      "payable": false,
      "stateMutability": "view",
      "type": "function"
    },
    {
      "constant": true,
      "inputs": [
        {
          "name": "",
          "type": "uint256"
        }
      ],
      "name": "nextCallPriceForColor",
      "outputs": [
        {
          "name": "",
          "type": "uint256"
        }
      ],
      "payable": false,
      "stateMutability": "view",
      "type": "function"
    },
    {
      "constant": false,
      "inputs": [],
      "name": "renounceOwnership",
      "outputs": [],
      "payable": false,
      "stateMutability": "nonpayable",
      "type": "function"
    },
    {
      "constant": true,
      "inputs": [
        {
          "name": "",
          "type": "uint256"
        }
      ],
      "name": "lastPaintTimeForRound",
      "outputs": [
        {
          "name": "",
          "type": "uint256"
        }
      ],
      "payable": false,
      "stateMutability": "view",
      "type": "function"
    },
    {
      "constant": true,
      "inputs": [],
      "name": "isCBPDistributable",
      "outputs": [
        {
          "name": "",
          "type": "bool"
        }
      ],
      "payable": false,
      "stateMutability": "view",
      "type": "function"
    },
    {
      "constant": true,
      "inputs": [
        {
          "name": "",
          "type": "uint256"
        }
      ],
      "name": "lastPainterForRound",
      "outputs": [
        {
          "name": "",
          "type": "address"
        }
      ],
      "payable": false,
      "stateMutability": "view",
      "type": "function"
    },
    {
      "constant": true,
      "inputs": [
        {
          "name": "",
          "type": "address"
        }
      ],
      "name": "hasRefLink",
      "outputs": [
        {
          "name": "",
          "type": "bool"
        }
      ],
      "payable": false,
      "stateMutability": "view",
      "type": "function"
    },
    {
      "constant": true,
      "inputs": [
        {
          "name": "",
          "type": "address"
        }
      ],
      "name": "registrationTimeForUser",
      "outputs": [
        {
          "name": "",
          "type": "uint256"
        }
      ],
      "payable": false,
      "stateMutability": "view",
      "type": "function"
    },
    {
      "constant": true,
      "inputs": [
        {
          "name": "",
          "type": "address"
        }
      ],
      "name": "lastPaintTimeOfUser",
      "outputs": [
        {
          "name": "",
          "type": "uint256"
        }
      ],
      "payable": false,
      "stateMutability": "view",
      "type": "function"
    },
    {
      "constant": true,
      "inputs": [
        {
          "name": "",
          "type": "address"
        },
        {
          "name": "",
          "type": "uint256"
        }
      ],
      "name": "referrerToReferrals",
      "outputs": [
        {
          "name": "",
          "type": "address"
        }
      ],
      "payable": false,
      "stateMutability": "view",
      "type": "function"
    },
    {
      "constant": true,
      "inputs": [],
      "name": "currentRound",
      "outputs": [
        {
          "name": "",
          "type": "uint256"
        }
      ],
      "payable": false,
      "stateMutability": "view",
      "type": "function"
    },
    {
      "constant": true,
      "inputs": [],
      "name": "owner",
      "outputs": [
        {
          "name": "",
          "type": "address"
        }
      ],
      "payable": false,
      "stateMutability": "view",
      "type": "function"
    },
    {
      "constant": true,
      "inputs": [
        {
          "name": "",
          "type": "uint256"
        }
      ],
      "name": "paintsCounterForColor",
      "outputs": [
        {
          "name": "",
          "type": "uint256"
        }
      ],
      "payable": false,
      "stateMutability": "view",
      "type": "function"
    },
    {
      "constant": true,
      "inputs": [],
      "name": "isOwner",
      "outputs": [
        {
          "name": "",
          "type": "bool"
        }
      ],
      "payable": false,
      "stateMutability": "view",
      "type": "function"
    },
    {
      "constant": true,
      "inputs": [
        {
          "name": "",
          "type": "uint256"
        },
        {
          "name": "",
          "type": "uint256"
        }
      ],
      "name": "pixelToPaintTimeForRound",
      "outputs": [
        {
          "name": "",
          "type": "uint256"
        }
      ],
      "payable": false,
      "stateMutability": "view",
      "type": "function"
    },
    {
      "constant": true,
      "inputs": [
        {
          "name": "",
          "type": "uint256"
        },
        {
          "name": "",
          "type": "uint256"
        }
      ],
      "name": "colorBankToColorForRound",
      "outputs": [
        {
          "name": "",
          "type": "uint256"
        }
      ],
      "payable": false,
      "stateMutability": "view",
      "type": "function"
    },
    {
      "constant": true,
      "inputs": [
        {
          "name": "",
          "type": "uint256"
        }
      ],
      "name": "claims",
      "outputs": [
        {
          "name": "id",
          "type": "uint256"
        },
        {
          "name": "claimer",
          "type": "address"
        },
        {
          "name": "isResolved",
          "type": "bool"
        },
        {
          "name": "timestamp",
          "type": "uint256"
        }
      ],
      "payable": false,
      "stateMutability": "view",
      "type": "function"
    },
    {
      "constant": true,
      "inputs": [],
      "name": "ownerOfPixel",
      "outputs": [
        {
          "name": "",
          "type": "address"
        }
      ],
      "payable": false,
      "stateMutability": "view",
      "type": "function"
    },
    {
      "constant": true,
      "inputs": [
        {
          "name": "",
          "type": "uint256"
        },
        {
          "name": "",
          "type": "address"
        }
      ],
      "name": "isInCBT",
      "outputs": [
        {
          "name": "",
          "type": "bool"
        }
      ],
      "payable": false,
      "stateMutability": "view",
      "type": "function"
    },
    {
      "constant": true,
      "inputs": [
        {
          "name": "",
          "type": "uint256"
        }
      ],
      "name": "counterToPainter",
      "outputs": [
        {
          "name": "",
          "type": "address"
        }
      ],
      "payable": false,
      "stateMutability": "view",
      "type": "function"
    },
    {
      "constant": true,
      "inputs": [
        {
          "name": "",
          "type": "uint256"
        },
        {
          "name": "",
          "type": "address"
        }
      ],
      "name": "timeBankShare",
      "outputs": [
        {
          "name": "",
          "type": "uint256"
        }
      ],
      "payable": false,
      "stateMutability": "view",
      "type": "function"
    },
    {
      "constant": true,
      "inputs": [
        {
          "name": "",
          "type": "uint256"
        },
        {
          "name": "",
          "type": "uint256"
        },
        {
          "name": "",
          "type": "address"
        }
      ],
      "name": "colorBankShare",
      "outputs": [
        {
          "name": "",
          "type": "uint256"
        }
      ],
      "payable": false,
      "stateMutability": "view",
      "type": "function"
    },
    {
      "constant": true,
      "inputs": [
        {
          "name": "",
          "type": "uint256"
        },
        {
          "name": "",
          "type": "address"
        }
      ],
      "name": "lastPaintTimeOfUserForColor",
      "outputs": [
        {
          "name": "",
          "type": "uint256"
        }
      ],
      "payable": false,
      "stateMutability": "view",
      "type": "function"
    },
    {
      "constant": true,
      "inputs": [
        {
          "name": "",
          "type": "uint256"
        },
        {
          "name": "",
          "type": "uint256"
        }
      ],
      "name": "pixelToColorForRound",
      "outputs": [
        {
          "name": "",
          "type": "uint256"
        }
      ],
      "payable": false,
      "stateMutability": "view",
      "type": "function"
    },
    {
      "constant": true,
      "inputs": [
        {
          "name": "",
          "type": "uint256"
        }
      ],
      "name": "totalPaintsForRound",
      "outputs": [
        {
          "name": "",
          "type": "uint256"
        }
      ],
      "payable": false,
      "stateMutability": "view",
      "type": "function"
    },
    {
      "constant": true,
      "inputs": [
        {
          "name": "",
          "type": "uint256"
        }
      ],
      "name": "colorBankForRound",
      "outputs": [
        {
          "name": "",
          "type": "uint256"
        }
      ],
      "payable": false,
      "stateMutability": "view",
      "type": "function"
    },
    {
      "constant": true,
      "inputs": [
        {
          "name": "",
          "type": "uint256"
        },
        {
          "name": "",
          "type": "uint256"
        }
      ],
      "name": "paintGenToEndTimeForColor",
      "outputs": [
        {
          "name": "",
          "type": "uint256"
        }
      ],
      "payable": false,
      "stateMutability": "view",
      "type": "function"
    },
    {
      "constant": true,
      "inputs": [],
      "name": "refLinkPrice",
      "outputs": [
        {
          "name": "",
          "type": "uint256"
        }
      ],
      "payable": false,
      "stateMutability": "view",
      "type": "function"
    },
    {
      "constant": true,
      "inputs": [],
      "name": "uniqueUsersCount",
      "outputs": [
        {
          "name": "",
          "type": "uint256"
        }
      ],
      "payable": false,
      "stateMutability": "view",
      "type": "function"
    },
    {
      "constant": true,
      "inputs": [
        {
          "name": "",
          "type": "bytes32"
        }
      ],
      "name": "refLinkExists",
      "outputs": [
        {
          "name": "",
          "type": "bool"
        }
      ],
      "payable": false,
      "stateMutability": "view",
      "type": "function"
    },
    {
      "constant": true,
      "inputs": [
        {
          "name": "",
          "type": "uint256"
        },
        {
          "name": "",
          "type": "uint256"
        }
      ],
      "name": "paintGenToAmountForColor",
      "outputs": [
        {
          "name": "",
          "type": "uint256"
        }
      ],
      "payable": false,
      "stateMutability": "view",
      "type": "function"
    },
    {
      "constant": true,
      "inputs": [
        {
          "name": "",
          "type": "uint256"
        }
      ],
      "name": "isCBPTransfered",
      "outputs": [
        {
          "name": "",
          "type": "bool"
        }
      ],
      "payable": false,
      "stateMutability": "view",
      "type": "function"
    },
    {
      "constant": true,
      "inputs": [
        {
          "name": "",
          "type": "address"
        }
      ],
      "name": "referralToReferrer",
      "outputs": [
        {
          "name": "",
          "type": "address"
        }
      ],
      "payable": false,
      "stateMutability": "view",
      "type": "function"
    },
    {
      "constant": true,
      "inputs": [
        {
          "name": "",
          "type": "uint256"
        },
        {
          "name": "",
          "type": "address"
        }
      ],
      "name": "usersPaintDiscountForColor",
      "outputs": [
        {
          "name": "",
          "type": "uint256"
        }
      ],
      "payable": false,
      "stateMutability": "view",
      "type": "function"
    },
    {
      "constant": true,
      "inputs": [],
      "name": "maxPaintsInPool",
      "outputs": [
        {
          "name": "",
          "type": "uint256"
        }
      ],
      "payable": false,
      "stateMutability": "view",
      "type": "function"
    },
    {
      "constant": true,
      "inputs": [],
      "name": "totalPixelsNumber",
      "outputs": [
        {
          "name": "",
          "type": "uint256"
        }
      ],
      "payable": false,
      "stateMutability": "view",
      "type": "function"
    },
    {
      "constant": false,
      "inputs": [
        {
          "name": "newOwner",
          "type": "address"
        }
      ],
      "name": "transferOwnership",
      "outputs": [],
      "payable": false,
      "stateMutability": "nonpayable",
      "type": "function"
    },
    {
      "constant": true,
      "inputs": [
        {
          "name": "",
          "type": "address"
        }
      ],
      "name": "pendingWithdrawals",
      "outputs": [
        {
          "name": "",
          "type": "uint256"
        }
      ],
      "payable": false,
      "stateMutability": "view",
      "type": "function"
    },
    {
      "constant": true,
      "inputs": [
        {
          "name": "",
          "type": "uint256"
        }
      ],
      "name": "winnerColorForRound",
      "outputs": [
        {
          "name": "",
          "type": "uint256"
        }
      ],
      "payable": false,
      "stateMutability": "view",
      "type": "function"
    },
    {
      "constant": true,
      "inputs": [],
      "name": "dividendsBank",
      "outputs": [
        {
          "name": "",
          "type": "uint256"
        }
      ],
      "payable": false,
      "stateMutability": "view",
      "type": "function"
    },
    {
      "constant": true,
      "inputs": [],
      "name": "cbIteration",
      "outputs": [
        {
          "name": "",
          "type": "uint256"
        }
      ],
      "payable": false,
      "stateMutability": "view",
      "type": "function"
    },
    {
      "anonymous": false,
      "inputs": [
        {
          "indexed": true,
          "name": "round",
          "type": "uint256"
        },
        {
          "indexed": true,
          "name": "cbIteration",
          "type": "uint256"
        },
        {
          "indexed": true,
          "name": "winner",
          "type": "address"
        },
        {
          "indexed": false,
          "name": "prize",
          "type": "uint256"
        }
      ],
      "name": "CBPDistributed",
      "type": "event"
    },
    {
      "anonymous": false,
      "inputs": [
        {
          "indexed": true,
          "name": "withdrawer",
          "type": "address"
        },
        {
          "indexed": true,
          "name": "claimId",
          "type": "uint256"
        },
        {
          "indexed": true,
          "name": "amount",
          "type": "uint256"
        }
      ],
      "name": "DividendsWithdrawn",
      "type": "event"
    },
    {
      "anonymous": false,
      "inputs": [
        {
          "indexed": true,
          "name": "claimer",
          "type": "address"
        },
        {
          "indexed": true,
          "name": "claimId",
          "type": "uint256"
        },
        {
          "indexed": true,
          "name": "currentTime",
          "type": "uint256"
        }
      ],
      "name": "DividendsClaimed",
      "type": "event"
    },
    {
      "anonymous": false,
      "inputs": [
        {
          "indexed": true,
          "name": "pixelId",
          "type": "uint256"
        },
        {
          "indexed": false,
          "name": "colorId",
          "type": "uint256"
        },
        {
          "indexed": true,
          "name": "painter",
          "type": "address"
        },
        {
          "indexed": true,
          "name": "round",
          "type": "uint256"
        },
        {
          "indexed": false,
          "name": "timestamp",
          "type": "uint256"
        }
      ],
      "name": "Paint",
      "type": "event"
    },
    {
      "anonymous": false,
      "inputs": [
        {
          "indexed": false,
          "name": "winnerOfRound",
          "type": "address"
        },
        {
          "indexed": true,
          "name": "round",
          "type": "uint256"
        }
      ],
      "name": "ColorBankPlayed",
      "type": "event"
    },
    {
      "anonymous": false,
      "inputs": [
        {
          "indexed": false,
          "name": "winnerOfRound",
          "type": "address"
        },
        {
          "indexed": true,
          "name": "round",
          "type": "uint256"
        }
      ],
      "name": "TimeBankPlayed",
      "type": "event"
    },
    {
      "anonymous": false,
      "inputs": [
        {
          "indexed": true,
          "name": "newCallPrice",
          "type": "uint256"
        }
      ],
      "name": "CallPriceUpdated",
      "type": "event"
    },
    {
      "anonymous": false,
      "inputs": [
        {
          "indexed": true,
          "name": "round",
          "type": "uint256"
        },
        {
          "indexed": true,
          "name": "tbIteration",
          "type": "uint256"
        },
        {
          "indexed": true,
          "name": "winner",
          "type": "address"
        },
        {
          "indexed": false,
          "name": "prize",
          "type": "uint256"
        }
      ],
      "name": "TBPDistributed",
      "type": "event"
    },
    {
      "anonymous": false,
      "inputs": [
        {
          "indexed": true,
          "name": "previousOwner",
          "type": "address"
        },
        {
          "indexed": true,
          "name": "newOwner",
          "type": "address"
        }
      ],
      "name": "OwnershipTransferred",
      "type": "event"
    },
    {
      "constant": false,
      "inputs": [],
      "name": "distributeCBP",
      "outputs": [],
      "payable": false,
      "stateMutability": "nonpayable",
      "type": "function"
    },
    {
      "constant": false,
      "inputs": [],
      "name": "distributeTBP",
      "outputs": [],
      "payable": false,
      "stateMutability": "nonpayable",
      "type": "function"
    },
    {
      "constant": false,
      "inputs": [],
      "name": "claimDividends",
      "outputs": [],
      "payable": false,
      "stateMutability": "nonpayable",
      "type": "function"
    },
    {
      "constant": false,
      "inputs": [
        {
          "name": "_claimId",
          "type": "uint256"
        }
      ],
      "name": "approveClaim",
      "outputs": [],
      "payable": false,
      "stateMutability": "nonpayable",
      "type": "function"
    },
    {
      "constant": false,
      "inputs": [],
      "name": "pauseGame",
      "outputs": [],
      "payable": false,
      "stateMutability": "nonpayable",
      "type": "function"
    },
    {
      "constant": false,
      "inputs": [],
      "name": "resumeGame",
      "outputs": [],
      "payable": false,
      "stateMutability": "nonpayable",
      "type": "function"
    },
    {
      "constant": false,
      "inputs": [
        {
          "name": "_refLink",
          "type": "string"
        }
      ],
      "name": "buyRefLink",
      "outputs": [],
      "payable": true,
      "stateMutability": "payable",
      "type": "function"
    },
    {
      "constant": true,
      "inputs": [
        {
          "name": "_user",
          "type": "address"
        }
      ],
      "name": "getReferralsForUser",
      "outputs": [
        {
          "name": "",
          "type": "address[]"
        }
      ],
      "payable": false,
      "stateMutability": "view",
      "type": "function"
    },
    {
      "constant": true,
      "inputs": [
        {
          "name": "_user",
          "type": "address"
        }
      ],
      "name": "getReferralData",
      "outputs": [
        {
          "name": "registrationTime",
          "type": "uint256"
        },
        {
          "name": "moneySpent",
          "type": "uint256"
        }
      ],
      "payable": false,
      "stateMutability": "view",
      "type": "function"
    },
    {
      "constant": false,
      "inputs": [
        {
          "name": "_new",
          "type": "address"
        }
      ],
      "name": "addAdmin",
      "outputs": [],
      "payable": false,
      "stateMutability": "nonpayable",
      "type": "function"
    },
    {
      "constant": false,
      "inputs": [
        {
          "name": "_admin",
          "type": "address"
        }
      ],
      "name": "removeAdmin",
      "outputs": [],
      "payable": false,
      "stateMutability": "nonpayable",
      "type": "function"
    },
    {
      "constant": false,
      "inputs": [],
      "name": "renounceAdmin",
      "outputs": [],
      "payable": false,
      "stateMutability": "nonpayable",
      "type": "function"
    },
    {
      "constant": true,
      "inputs": [
        {
          "name": "_pixels",
          "type": "uint256[]"
        },
        {
          "name": "_color",
          "type": "uint256"
        }
      ],
      "name": "estimateCallPrice",
      "outputs": [
        {
          "name": "totalCallPrice",
          "type": "uint256"
        }
      ],
      "payable": false,
      "stateMutability": "view",
      "type": "function"
    },
    {
      "constant": false,
      "inputs": [
        {
          "name": "_pixels",
          "type": "uint256[]"
        },
        {
          "name": "_color",
          "type": "uint256"
        },
        {
          "name": "_refLink",
          "type": "string"
        }
      ],
      "name": "paint",
      "outputs": [],
      "payable": true,
      "stateMutability": "payable",
      "type": "function"
    },
    {
      "constant": false,
      "inputs": [],
      "name": "drawTimeBank",
      "outputs": [],
      "payable": false,
      "stateMutability": "nonpayable",
      "type": "function"
    },
    {
      "constant": false,
      "inputs": [
        {
          "name": "_delegate",
          "type": "address"
        },
        {
          "name": "_functionSignatures",
          "type": "string"
        },
        {
          "name": "commitMessage",
          "type": "string"
        }
      ],
      "name": "updateContract",
      "outputs": [],
      "payable": false,
      "stateMutability": "nonpayable",
      "type": "function"
    },
    {
      "constant": false,
      "inputs": [],
      "name": "mock",
      "outputs": [],
      "payable": false,
      "stateMutability": "nonpayable",
      "type": "function"
    },
    {
      "constant": false,
      "inputs": [],
      "name": "mock2",
      "outputs": [],
      "payable": false,
      "stateMutability": "nonpayable",
      "type": "function"
    },
    {
      "constant": false,
      "inputs": [
        {
          "name": "_winnerColor",
          "type": "uint256"
        }
      ],
      "name": "mock3",
      "outputs": [],
      "payable": false,
      "stateMutability": "nonpayable",
      "type": "function"
    },
    {
      "constant": false,
      "inputs": [],
      "name": "mockMaxPaintsInPool",
      "outputs": [],
      "payable": false,
      "stateMutability": "nonpayable",
      "type": "function"
    },
    {
      "constant": true,
      "inputs": [
        {
          "name": "_pixel",
          "type": "uint256"
        }
      ],
      "name": "getPixelColor",
      "outputs": [
        {
          "name": "",
          "type": "uint256"
        }
      ],
      "payable": false,
      "stateMutability": "view",
      "type": "function"
    },
    {
      "constant": false,
      "inputs": [],
      "name": "addNewColor",
      "outputs": [],
      "payable": false,
      "stateMutability": "nonpayable",
      "type": "function"
    }
  ],
  "bytecode": "0x608060405273ca35b7d915458ef540ade6068dfe2f44e8fa733c604160006101000a81548173ffffffffffffffffffffffffffffffffffffffff021916908373ffffffffffffffffffffffffffffffffffffffff160217905550733e4d187df7d8a0820eaf4174d17b160157610912604260006101000a81548173ffffffffffffffffffffffffffffffffffffffff021916908373ffffffffffffffffffffffffffffffffffffffff160217905550336000806101000a81548173ffffffffffffffffffffffffffffffffffffffff021916908373ffffffffffffffffffffffffffffffffffffffff1602179055506000809054906101000a900473ffffffffffffffffffffffffffffffffffffffff1673ffffffffffffffffffffffffffffffffffffffff16600073ffffffffffffffffffffffffffffffffffffffff167f8be0079c531659141344cd1fd0a4f28419497f9722a3daafe3b4186f6b6457e060405160405180910390a3612e3b806101796000396000f300608060405260043610610482576000357c0100000000000000000000000000000000000000000000000000000000900463ffffffff1680630422ddf31461048757806305bdd0be146104b657806305e2387f1461051b578063099b81ce146105325780630baaea44146105a35780630cf9603f146106105780630daa42061461065b5780630f6ed86e146106ab578063102f9713146106d657806315682a66146107435780631785f53c1461078857806318452cd8146107cb57806319ef6a06146108265780631d64873b146108715780631f5bdf5d1461089c5780631f90c6ed146108f757806321423af81461095c57806324d7806c1461098b57806328361f57146109e657806328b290f914610a275780632c6c1c4114610a7e5780632c7a3dae14610adf57806333f9c38814610b565780633a17350514610bb75780633c6dd01314610c025780633ca4c18314610c435780633cc4c6ce14610ca45780633d0d1a7914610cbb5780633dc3c37714610cfc578063411b007e14610d2757806341c5464e14610d7e57806342e453ec14610dd557806346e3013514610e4c57806349598c3a14610e79578063499831f214610f115780634a7f6f2f14610f285780634b39173d14610f7f5780634c438ad714610fca5780634c78e4011461100f5780635bfcdb27146110505780635c25fd131461110c5780635d63ebb2146111375780635f5d554c146111ae57806361455567146111fd5780636256655614611270578063628a71a3146112b1578063668038e0146112f25780636a528028146113095780636e8fa2a8146113205780636f17eb421461134e578063704802751461138f578063715018a6146113d257806373a9ee26146113e957806376f5d96a1461142a57806379ecf376146114595780637b68a8f0146114c65780637e1e175c14611507578063846c4c37146115625780638500b7b7146115b957806387982ac3146116105780638a19c8bc1461169d5780638bad0c0a146116c85780638da5cb5b146116df5780638e2df39c146117365780638f32d59b146117775780638f63b7e5146117a6578063a3120724146117f1578063a36746331461183c578063a888c2cd1461189a578063a977e16814611920578063ab24c7d214611977578063abafb90e146119dc578063ad71ee2314611a60578063ae55ce8214611a77578063ae9fbd3214611ae4578063b0ff59d214611afb578063b1a3883c14611b5c578063b20c2cb914611bc7578063b60cbeb614611bde578063b8232d5d14611c3f578063be7d622614611c8a578063c64a2e5614611ccb578063c957387b14611d0c578063c97d230f14611d57578063c9f8234f14611d82578063d4526e6814611dad578063d5de47c714611df6578063da68b12114611e41578063deaf0fa114611e86578063e543804a14611f09578063eaf1c91014611f20578063eef565da14611f81578063f120dba114611fac578063f2fde38b14611fd7578063f3f437031461201a578063f49916f514612071578063f571ec2d146120b2578063f5f95b3b146120c9578063fbd0a277146120f4578063fea11fe314612121575b600080fd5b34801561049357600080fd5b5061049c61214c565b604051808215151515815260200191505060405180910390f35b3480156104c257600080fd5b5061050160048036038101908080359060200190929190803573ffffffffffffffffffffffffffffffffffffffff16906020019092919050505061215f565b604051808215151515815260200191505060405180910390f35b34801561052757600080fd5b5061053061218e565b005b34801561053e57600080fd5b506105616004803603810190808035600019169060200190929190505050612190565b604051808273ffffffffffffffffffffffffffffffffffffffff1673ffffffffffffffffffffffffffffffffffffffff16815260200191505060405180910390f35b3480156105af57600080fd5b506105ce600480360381019080803590602001909291905050506121c3565b604051808273ffffffffffffffffffffffffffffffffffffffff1673ffffffffffffffffffffffffffffffffffffffff16815260200191505060405180910390f35b34801561061c57600080fd5b5061064560048036038101908080359060200190929190803590602001909291905050506121f6565b6040518082815260200191505060405180910390f35b6106a96004803603810190808035906020019082018035906020019190919293919293908035906020019092919080359060200190820180359060200191909192939192939050505061221b565b005b3480156106b757600080fd5b506106c0612222565b6040518082815260200191505060405180910390f35b3480156106e257600080fd5b5061070160048036038101908080359060200190929190505050612228565b604051808273ffffffffffffffffffffffffffffffffffffffff1673ffffffffffffffffffffffffffffffffffffffff16815260200191505060405180910390f35b34801561074f57600080fd5b5061076e6004803603810190808035906020019092919050505061225b565b604051808215151515815260200191505060405180910390f35b34801561079457600080fd5b506107c9600480360381019080803573ffffffffffffffffffffffffffffffffffffffff16906020019092919050505061227b565b005b3480156107d757600080fd5b5061080c600480360381019080803573ffffffffffffffffffffffffffffffffffffffff16906020019092919050505061227e565b604051808215151515815260200191505060405180910390f35b34801561083257600080fd5b5061085b600480360381019080803590602001909291908035906020019092919050505061229e565b6040518082815260200191505060405180910390f35b34801561087d57600080fd5b506108866122c3565b6040518082815260200191505060405180910390f35b3480156108a857600080fd5b506108dd600480360381019080803573ffffffffffffffffffffffffffffffffffffffff1690602001909291905050506122c9565b604051808215151515815260200191505060405180910390f35b34801561090357600080fd5b5061094260048036038101908080359060200190929190803573ffffffffffffffffffffffffffffffffffffffff1690602001909291905050506122e9565b604051808215151515815260200191505060405180910390f35b34801561096857600080fd5b50610971612318565b604051808215151515815260200191505060405180910390f35b34801561099757600080fd5b506109cc600480360381019080803573ffffffffffffffffffffffffffffffffffffffff16906020019092919050505061232b565b604051808215151515815260200191505060405180910390f35b3480156109f257600080fd5b50610a116004803603810190808035906020019092919050505061234b565b6040518082815260200191505060405180910390f35b348015610a3357600080fd5b50610a68600480360381019080803573ffffffffffffffffffffffffffffffffffffffff169060200190929190505050612363565b6040518082815260200191505060405180910390f35b348015610a8a57600080fd5b50610ac960048036038101908080359060200190929190803573ffffffffffffffffffffffffffffffffffffffff16906020019092919050505061237b565b6040518082815260200191505060405180910390f35b348015610aeb57600080fd5b50610b1460048036038101908080359060200190929190803590602001909291905050506123a0565b604051808273ffffffffffffffffffffffffffffffffffffffff1673ffffffffffffffffffffffffffffffffffffffff16815260200191505060405180910390f35b348015610b6257600080fd5b50610ba160048036038101908080359060200190929190803573ffffffffffffffffffffffffffffffffffffffff1690602001909291905050506123ed565b6040518082815260200191505060405180910390f35b348015610bc357600080fd5b50610bec6004803603810190808035906020019092919080359060200190929190505050612412565b6040518082815260200191505060405180910390f35b348015610c0e57600080fd5b50610c2d60048036038101908080359060200190929190505050612437565b6040518082815260200191505060405180910390f35b348015610c4f57600080fd5b50610c8e60048036038101908080359060200190929190803573ffffffffffffffffffffffffffffffffffffffff16906020019092919050505061244f565b6040518082815260200191505060405180910390f35b348015610cb057600080fd5b50610cb9612474565b005b348015610cc757600080fd5b50610ce660048036038101908080359060200190929190505050612476565b6040518082815260200191505060405180910390f35b348015610d0857600080fd5b50610d1161248e565b6040518082815260200191505060405180910390f35b348015610d3357600080fd5b50610d3c612494565b604051808273ffffffffffffffffffffffffffffffffffffffff1673ffffffffffffffffffffffffffffffffffffffff16815260200191505060405180910390f35b348015610d8a57600080fd5b50610dbf600480360381019080803573ffffffffffffffffffffffffffffffffffffffff1690602001909291905050506124ba565b6040518082815260200191505060405180910390f35b348015610de157600080fd5b50610e0a60048036038101908080359060200190929190803590602001909291905050506124d2565b604051808273ffffffffffffffffffffffffffffffffffffffff1673ffffffffffffffffffffffffffffffffffffffff16815260200191505060405180910390f35b348015610e5857600080fd5b50610e7760048036038101908080359060200190929190505050612514565b005b348015610e8557600080fd5b50610eba600480360381019080803573ffffffffffffffffffffffffffffffffffffffff169060200190929190505050612517565b6040518080602001828103825283818151815260200191508051906020019060200280838360005b83811015610efd578082015181840152602081019050610ee2565b505050509050019250505060405180910390f35b348015610f1d57600080fd5b50610f2661251e565b005b348015610f3457600080fd5b50610f69600480360381019080803573ffffffffffffffffffffffffffffffffffffffff169060200190929190505050612520565b6040518082815260200191505060405180910390f35b348015610f8b57600080fd5b50610fb46004803603810190808035906020019092919080359060200190929190505050612538565b6040518082815260200191505060405180910390f35b348015610fd657600080fd5b50610ff56004803603810190808035906020019092919050505061255d565b604051808215151515815260200191505060405180910390f35b34801561101b57600080fd5b5061103a6004803603810190808035906020019092919050505061257d565b6040518082815260200191505060405180910390f35b34801561105c57600080fd5b50611091600480360381019080803573ffffffffffffffffffffffffffffffffffffffff169060200190929190505050612595565b6040518080602001828103825283818151815260200191508051906020019080838360005b838110156110d15780820151818401526020810190506110b6565b50505050905090810190601f1680156110fe5780820380516001836020036101000a031916815260200191505b509250505060405180910390f35b34801561111857600080fd5b50611121612645565b6040518082815260200191505060405180910390f35b34801561114357600080fd5b5061116c600480360381019080803590602001909291908035906020019092919050505061264b565b604051808273ffffffffffffffffffffffffffffffffffffffff1673ffffffffffffffffffffffffffffffffffffffff16815260200191505060405180910390f35b3480156111ba57600080fd5b506111e36004803603810190808035906020019092919080359060200190929190505050612698565b604051808215151515815260200191505060405180910390f35b34801561120957600080fd5b5061126e600480360381019080803573ffffffffffffffffffffffffffffffffffffffff1690602001909291908035906020019082018035906020019190919293919293908035906020019082018035906020019190919293919293905050506126c7565b005b34801561127c57600080fd5b5061129b600480360381019080803590602001909291905050506126ce565b6040518082815260200191505060405180910390f35b3480156112bd57600080fd5b506112dc600480360381019080803590602001909291905050506126e6565b6040518082815260200191505060405180910390f35b3480156112fe57600080fd5b506113076126fe565b005b34801561131557600080fd5b5061131e612700565b005b61134c600480360381019080803590602001908201803590602001919091929391929390505050612702565b005b34801561135a57600080fd5b5061137960048036038101908080359060200190929190505050612706565b6040518082815260200191505060405180910390f35b34801561139b57600080fd5b506113d0600480360381019080803573ffffffffffffffffffffffffffffffffffffffff16906020019092919050505061271e565b005b3480156113de57600080fd5b506113e7612721565b005b3480156113f557600080fd5b50611414600480360381019080803590602001909291905050506127f3565b6040518082815260200191505060405180910390f35b34801561143657600080fd5b5061143f61280b565b604051808215151515815260200191505060405180910390f35b34801561146557600080fd5b506114846004803603810190808035906020019092919050505061281e565b604051808273ffffffffffffffffffffffffffffffffffffffff1673ffffffffffffffffffffffffffffffffffffffff16815260200191505060405180910390f35b3480156114d257600080fd5b506114f160048036038101908080359060200190929190505050612851565b6040518082815260200191505060405180910390f35b34801561151357600080fd5b50611548600480360381019080803573ffffffffffffffffffffffffffffffffffffffff169060200190929190505050612858565b604051808215151515815260200191505060405180910390f35b34801561156e57600080fd5b506115a3600480360381019080803573ffffffffffffffffffffffffffffffffffffffff169060200190929190505050612878565b6040518082815260200191505060405180910390f35b3480156115c557600080fd5b506115fa600480360381019080803573ffffffffffffffffffffffffffffffffffffffff169060200190929190505050612890565b6040518082815260200191505060405180910390f35b34801561161c57600080fd5b5061165b600480360381019080803573ffffffffffffffffffffffffffffffffffffffff169060200190929190803590602001909291905050506128a8565b604051808273ffffffffffffffffffffffffffffffffffffffff1673ffffffffffffffffffffffffffffffffffffffff16815260200191505060405180910390f35b3480156116a957600080fd5b506116b26128f5565b6040518082815260200191505060405180910390f35b3480156116d457600080fd5b506116dd6128fb565b005b3480156116eb57600080fd5b506116f46128fd565b604051808273ffffffffffffffffffffffffffffffffffffffff1673ffffffffffffffffffffffffffffffffffffffff16815260200191505060405180910390f35b34801561174257600080fd5b5061176160048036038101908080359060200190929190505050612926565b6040518082815260200191505060405180910390f35b34801561178357600080fd5b5061178c61293e565b604051808215151515815260200191505060405180910390f35b3480156117b257600080fd5b506117db6004803603810190808035906020019092919080359060200190929190505050612995565b6040518082815260200191505060405180910390f35b3480156117fd57600080fd5b5061182660048036038101908080359060200190929190803590602001909291905050506129ba565b6040518082815260200191505060405180910390f35b34801561184857600080fd5b5061187d600480360381019080803573ffffffffffffffffffffffffffffffffffffffff1690602001909291905050506129df565b604051808381526020018281526020019250505060405180910390f35b3480156118a657600080fd5b506118c5600480360381019080803590602001909291905050506129e7565b604051808581526020018473ffffffffffffffffffffffffffffffffffffffff1673ffffffffffffffffffffffffffffffffffffffff1681526020018315151515815260200182815260200194505050505060405180910390f35b34801561192c57600080fd5b50611935612a53565b604051808273ffffffffffffffffffffffffffffffffffffffff1673ffffffffffffffffffffffffffffffffffffffff16815260200191505060405180910390f35b34801561198357600080fd5b506119c260048036038101908080359060200190929190803573ffffffffffffffffffffffffffffffffffffffff169060200190929190505050612a79565b604051808215151515815260200191505060405180910390f35b3480156119e857600080fd5b50611a4a6004803603810190808035906020019082018035906020019080806020026020016040519081016040528093929190818152602001838360200280828437820191505050505050919291929080359060200190929190505050612aa8565b6040518082815260200191505060405180910390f35b348015611a6c57600080fd5b50611a75612ab0565b005b348015611a8357600080fd5b50611aa260048036038101908080359060200190929190505050612ab2565b604051808273ffffffffffffffffffffffffffffffffffffffff1673ffffffffffffffffffffffffffffffffffffffff16815260200191505060405180910390f35b348015611af057600080fd5b50611af9612ae5565b005b348015611b0757600080fd5b50611b4660048036038101908080359060200190929190803573ffffffffffffffffffffffffffffffffffffffff169060200190929190505050612ae7565b6040518082815260200191505060405180910390f35b348015611b6857600080fd5b50611bb16004803603810190808035906020019092919080359060200190929190803573ffffffffffffffffffffffffffffffffffffffff169060200190929190505050612b0c565b6040518082815260200191505060405180910390f35b348015611bd357600080fd5b50611bdc612b3e565b005b348015611bea57600080fd5b50611c2960048036038101908080359060200190929190803573ffffffffffffffffffffffffffffffffffffffff169060200190929190505050612b40565b6040518082815260200191505060405180910390f35b348015611c4b57600080fd5b50611c746004803603810190808035906020019092919080359060200190929190505050612b65565b6040518082815260200191505060405180910390f35b348015611c9657600080fd5b50611cb560048036038101908080359060200190929190505050612b8a565b6040518082815260200191505060405180910390f35b348015611cd757600080fd5b50611cf660048036038101908080359060200190929190505050612ba2565b6040518082815260200191505060405180910390f35b348015611d1857600080fd5b50611d416004803603810190808035906020019092919080359060200190929190505050612bba565b6040518082815260200191505060405180910390f35b348015611d6357600080fd5b50611d6c612bdf565b6040518082815260200191505060405180910390f35b348015611d8e57600080fd5b50611d97612be5565b6040518082815260200191505060405180910390f35b348015611db957600080fd5b50611ddc6004803603810190808035600019169060200190929190505050612beb565b604051808215151515815260200191505060405180910390f35b348015611e0257600080fd5b50611e2b6004803603810190808035906020019092919080359060200190929190505050612c0b565b6040518082815260200191505060405180910390f35b348015611e4d57600080fd5b50611e6c60048036038101908080359060200190929190505050612c30565b604051808215151515815260200191505060405180910390f35b348015611e9257600080fd5b50611ec7600480360381019080803573ffffffffffffffffffffffffffffffffffffffff169060200190929190505050612c50565b604051808273ffffffffffffffffffffffffffffffffffffffff1673ffffffffffffffffffffffffffffffffffffffff16815260200191505060405180910390f35b348015611f1557600080fd5b50611f1e612c82565b005b348015611f2c57600080fd5b50611f6b60048036038101908080359060200190929190803573ffffffffffffffffffffffffffffffffffffffff169060200190929190505050612c84565b6040518082815260200191505060405180910390f35b348015611f8d57600080fd5b50611f96612ca9565b6040518082815260200191505060405180910390f35b348015611fb857600080fd5b50611fc1612caf565b6040518082815260200191505060405180910390f35b348015611fe357600080fd5b50612018600480360381019080803573ffffffffffffffffffffffffffffffffffffffff169060200190929190505050612cb5565b005b34801561202657600080fd5b5061205b600480360381019080803573ffffffffffffffffffffffffffffffffffffffff169060200190929190505050612cd4565b6040518082815260200191505060405180910390f35b34801561207d57600080fd5b5061209c60048036038101908080359060200190929190505050612cec565b6040518082815260200191505060405180910390f35b3480156120be57600080fd5b506120c7612d04565b005b3480156120d557600080fd5b506120de612d06565b6040518082815260200191505060405180910390f35b34801561210057600080fd5b5061211f60048036038101908080359060200190929190505050612d0c565b005b34801561212d57600080fd5b50612136612d0f565b6040518082815260200191505060405180910390f35b604260149054906101000a900460ff1681565b60356020528160005260406000206020528060005260406000206000915091509054906101000a900460ff1681565b565b60246020528060005260406000206000915054906101000a900473ffffffffffffffffffffffffffffffffffffffff1681565b603b6020528060005260406000206000915054906101000a900473ffffffffffffffffffffffffffffffffffffffff1681565b6006602052816000526040600020602052806000526040600020600091509150505481565b5050505050565b602a5481565b600f6020528060005260406000206000915054906101000a900473ffffffffffffffffffffffffffffffffffffffff1681565b604c6020528060005260406000206000915054906101000a900460ff1681565b50565b60226020528060005260406000206000915054906101000a900460ff1681565b600e602052816000526040600020602052806000526040600020600091509150505481565b60465481565b601e6020528060005260406000206000915054906101000a900460ff1681565b601c6020528160005260406000206020528060005260406000206000915091509054906101000a900460ff1681565b604260169054906101000a900460ff1681565b60436020528060005260406000206000915054906101000a900460ff1681565b60176020528060005260406000206000915090505481565b603a6020528060005260406000206000915090505481565b601a602052816000526040600020602052806000526040600020600091509150505481565b6031602052816000526040600020818154811015156123bb57fe5b906000526020600020016000915091509054906101000a900473ffffffffffffffffffffffffffffffffffffffff1681565b6037602052816000526040600020602052806000526040600020600091509150505481565b6014602052816000526040600020602052806000526040600020600091509150505481565b60186020528060005260406000206000915090505481565b6036602052816000526040600020602052806000526040600020600091509150505481565b565b60106020528060005260406000206000915090505481565b602c5481565b604260009054906101000a900473ffffffffffffffffffffffffffffffffffffffff1681565b60266020528060005260406000206000915090505481565b60336020528160005260406000206020528060005260406000206000915091509054906101000a900473ffffffffffffffffffffffffffffffffffffffff1681565b50565b6060919050565b565b601b6020528060005260406000206000915090505481565b6005602052816000526040600020602052806000526040600020600091509150505481565b60396020528060005260406000206000915054906101000a900460ff1681565b60096020528060005260406000206000915090505481565b60236020528060005260406000206000915090508054600181600116156101000203166002900480601f01602080910402602001604051908101604052809291908181526020018280546001816001161561010002031660029004801561263d5780601f106126125761010080835404028352916020019161263d565b820191906000526020600020905b81548152906001019060200180831161262057829003601f168201915b505050505081565b603f5481565b60306020528160005260406000208181548110151561266657fe5b906000526020600020016000915091509054906101000a900473ffffffffffffffffffffffffffffffffffffffff1681565b60166020528160005260406000206020528060005260406000206000915091509054906101000a900460ff1681565b5050505050565b604d6020528060005260406000206000915090505481565b600c6020528060005260406000206000915090505481565b565b565b5050565b60196020528060005260406000206000915090505481565b50565b61272961293e565b151561273457600080fd5b600073ffffffffffffffffffffffffffffffffffffffff166000809054906101000a900473ffffffffffffffffffffffffffffffffffffffff1673ffffffffffffffffffffffffffffffffffffffff167f8be0079c531659141344cd1fd0a4f28419497f9722a3daafe3b4186f6b6457e060405160405180910390a360008060006101000a81548173ffffffffffffffffffffffffffffffffffffffff021916908373ffffffffffffffffffffffffffffffffffffffff160217905550565b600a6020528060005260406000206000915090505481565b604260159054906101000a900460ff1681565b600b6020528060005260406000206000915054906101000a900473ffffffffffffffffffffffffffffffffffffffff1681565b6000919050565b601f6020528060005260406000206000915054906101000a900460ff1681565b60496020528060005260406000206000915090505481565b604a6020528060005260406000206000915090505481565b6021602052816000526040600020818154811015156128c357fe5b906000526020600020016000915091509054906101000a900473ffffffffffffffffffffffffffffffffffffffff1681565b60295481565b565b60008060009054906101000a900473ffffffffffffffffffffffffffffffffffffffff16905090565b602f6020528060005260406000206000915090505481565b60008060009054906101000a900473ffffffffffffffffffffffffffffffffffffffff1673ffffffffffffffffffffffffffffffffffffffff163373ffffffffffffffffffffffffffffffffffffffff1614905090565b6011602052816000526040600020602052806000526040600020600091509150505481565b6008602052816000526040600020602052806000526040600020600091509150505481565b600080915091565b6040818154811015156129f657fe5b90600052602060002090600302016000915090508060000154908060010160009054906101000a900473ffffffffffffffffffffffffffffffffffffffff16908060010160149054906101000a900460ff16908060020154905084565b604160009054906101000a900473ffffffffffffffffffffffffffffffffffffffff1681565b60346020528160005260406000206020528060005260406000206000915091509054906101000a900460ff1681565b600092915050565b565b60326020528060005260406000206000915054906101000a900473ffffffffffffffffffffffffffffffffffffffff1681565b565b602d602052816000526040600020602052806000526040600020600091509150505481565b602e60205282600052604060002060205281600052604060002060205280600052604060002060009250925050505481565b565b604b602052816000526040600020602052806000526040600020600091509150505481565b6004602052816000526040600020602052806000526040600020600091509150505481565b60126020528060005260406000206000915090505481565b60076020528060005260406000206000915090505481565b6015602052816000526040600020602052806000526040600020600091509150505481565b60485481565b60275481565b60256020528060005260406000206000915054906101000a900460ff1681565b6013602052816000526040600020602052806000526040600020600091509150505481565b60386020528060005260406000206000915054906101000a900460ff1681565b602080528060005260406000206000915054906101000a900473ffffffffffffffffffffffffffffffffffffffff1681565b565b601d602052816000526040600020602052806000526040600020600091509150505481565b60285481565b60475481565b612cbd61293e565b1515612cc857600080fd5b612cd181612d15565b50565b603c6020528060005260406000206000915090505481565b600d6020528060005260406000206000915090505481565b565b603e5481565b50565b602b5481565b600073ffffffffffffffffffffffffffffffffffffffff168173ffffffffffffffffffffffffffffffffffffffff1614151515612d5157600080fd5b8073ffffffffffffffffffffffffffffffffffffffff166000809054906101000a900473ffffffffffffffffffffffffffffffffffffffff1673ffffffffffffffffffffffffffffffffffffffff167f8be0079c531659141344cd1fd0a4f28419497f9722a3daafe3b4186f6b6457e060405160405180910390a3806000806101000a81548173ffffffffffffffffffffffffffffffffffffffff021916908373ffffffffffffffffffffffffffffffffffffffff160217905550505600a165627a7a723058203f0680ed26dc33b9ecb585097122fc8d30ae94eeeb59f27b206330c0e9cdf5960029",
  "source": "pragma solidity ^0.4.24;\nimport \"./Modifiers.sol\";\n\n/**\n** Wrapper for Router Contract to interact with all the functions' signatures\n**/\n\ncontract Wrapper is Modifiers {\n\n    //ColorTeam.sol\n    function distributeCBP() external {}\n\n    //TimeTeam.sol\n    function distributeTBP() external {}\n\n    //DividendsDistributor.sol\n    function claimDividends() external {}\n    function approveClaim(uint _claimId) public {}\n\n    //GameStateController.sol\n    function pauseGame() external {}\n    function resumeGame() external {}\n\n    //Referral.sol\n    function buyRefLink(string _refLink) external payable {}\n    function getReferralsForUser(address _user) external view returns (address[]) {}\n    function getReferralData(address _user) external view returns (uint registrationTime, uint moneySpent) {}\n\n    //Roles.sol\n    function addAdmin(address _new) external {}\n    function removeAdmin(address _admin) external {}\n    function renounceAdmin() external {}\n\n    //Game.sol\n    function estimateCallPrice(uint[] _pixels, uint _color) public view returns (uint totalCallPrice) {}\n    function paint(uint[] _pixels, uint _color, string _refLink) external payable {}\n    function drawTimeBank() public {}\n\n    //ERC1538.sol\n    function updateContract(address _delegate, string _functionSignatures, string commitMessage) external {}\n\n    //GameMock.sol\n    function mock() external {}\n    function mock2() external {}\n    function mock3(uint _winnerColor) external {}\n    function mockMaxPaintsInPool() external {}\n\n    //Helpers.sol\n    function getPixelColor(uint _pixel) external view returns (uint) {}\n    function addNewColor() external {}\n\n}",
  "sourcePath": "/Users/Amir/last-pixel-contracts/contracts/Wrapper.sol",
  "compiler": {
    "name": "solc",
    "version": "0.4.25+commit.59dbf8f1.Emscripten.clang"
  },
  "schemaVersion": "2.0.2",
  "updatedAt": "2019-02-06T11:39:18.347Z"
}