{
  "contractName": "Wrapper",
  "abi": [
    {
      "constant": true,
      "inputs": [],
      "name": "isGamePaused",
      "outputs": [
        {
          "name": "",
          "type": "bool"
        }
      ],
      "payable": false,
      "stateMutability": "view",
      "type": "function"
    },
    {
      "constant": true,
      "inputs": [
        {
          "name": "",
          "type": "uint256"
        },
        {
          "name": "",
          "type": "address"
        }
      ],
      "name": "isInTBT",
      "outputs": [
        {
          "name": "",
          "type": "bool"
        }
      ],
      "payable": false,
      "stateMutability": "view",
      "type": "function"
    },
    {
      "constant": true,
      "inputs": [
        {
          "name": "",
          "type": "bytes32"
        }
      ],
      "name": "refLinkToUser",
      "outputs": [
        {
          "name": "",
          "type": "address"
        }
      ],
      "payable": false,
      "stateMutability": "view",
      "type": "function"
    },
    {
      "constant": true,
      "inputs": [
        {
          "name": "",
          "type": "uint256"
        }
      ],
      "name": "ownerOfColor",
      "outputs": [
        {
          "name": "",
          "type": "address"
        }
      ],
      "payable": false,
      "stateMutability": "view",
      "type": "function"
    },
    {
      "constant": true,
      "inputs": [
        {
          "name": "",
          "type": "uint256"
        },
        {
          "name": "",
          "type": "uint256"
        }
      ],
      "name": "colorToPaintedPixelsAmountForRound",
      "outputs": [
        {
          "name": "",
          "type": "uint256"
        }
      ],
      "payable": false,
      "stateMutability": "view",
      "type": "function"
    },
    {
      "constant": true,
      "inputs": [],
      "name": "tbIteration",
      "outputs": [
        {
          "name": "",
          "type": "uint256"
        }
      ],
      "payable": false,
      "stateMutability": "view",
      "type": "function"
    },
    {
      "constant": true,
      "inputs": [
        {
          "name": "",
          "type": "uint256"
        }
      ],
      "name": "winnerOfRound",
      "outputs": [
        {
          "name": "",
          "type": "address"
        }
      ],
      "payable": false,
      "stateMutability": "view",
      "type": "function"
    },
    {
      "constant": true,
      "inputs": [
        {
          "name": "",
          "type": "address"
        }
      ],
      "name": "hasReferrer",
      "outputs": [
        {
          "name": "",
          "type": "bool"
        }
      ],
      "payable": false,
      "stateMutability": "view",
      "type": "function"
    },
    {
      "constant": true,
      "inputs": [
        {
          "name": "",
          "type": "uint256"
        },
        {
          "name": "",
          "type": "uint256"
        }
      ],
      "name": "colorToTotalPaintsForCBIteration",
      "outputs": [
        {
          "name": "",
          "type": "uint256"
        }
      ],
      "payable": false,
      "stateMutability": "view",
      "type": "function"
    },
    {
      "constant": true,
      "inputs": [
        {
          "name": "",
          "type": "address"
        }
      ],
      "name": "isRegisteredUser",
      "outputs": [
        {
          "name": "",
          "type": "bool"
        }
      ],
      "payable": false,
      "stateMutability": "view",
      "type": "function"
    },
    {
      "constant": true,
      "inputs": [
        {
          "name": "",
          "type": "uint256"
        },
        {
          "name": "",
          "type": "address"
        }
      ],
      "name": "hasPaintDiscountForColor",
      "outputs": [
        {
          "name": "",
          "type": "bool"
        }
      ],
      "payable": false,
      "stateMutability": "view",
      "type": "function"
    },
    {
      "constant": true,
      "inputs": [],
      "name": "isTBPDistributable",
      "outputs": [
        {
          "name": "",
          "type": "bool"
        }
      ],
      "payable": false,
      "stateMutability": "view",
      "type": "function"
    },
    {
      "constant": true,
      "inputs": [
        {
          "name": "",
          "type": "address"
        }
      ],
      "name": "isAdmin",
      "outputs": [
        {
          "name": "",
          "type": "bool"
        }
      ],
      "payable": false,
      "stateMutability": "view",
      "type": "function"
    },
    {
      "constant": true,
      "inputs": [
        {
          "name": "",
          "type": "uint256"
        }
      ],
      "name": "currentPaintGenForColor",
      "outputs": [
        {
          "name": "",
          "type": "uint256"
        }
      ],
      "payable": false,
      "stateMutability": "view",
      "type": "function"
    },
    {
      "constant": true,
      "inputs": [
        {
          "name": "",
          "type": "address"
        }
      ],
      "name": "lastPlayedRound",
      "outputs": [
        {
          "name": "",
          "type": "uint256"
        }
      ],
      "payable": false,
      "stateMutability": "view",
      "type": "function"
    },
    {
      "constant": true,
      "inputs": [
        {
          "name": "",
          "type": "uint256"
        },
        {
          "name": "",
          "type": "address"
        }
      ],
      "name": "moneySpentByUserForColor",
      "outputs": [
        {
          "name": "",
          "type": "uint256"
        }
      ],
      "payable": false,
      "stateMutability": "view",
      "type": "function"
    },
    {
      "constant": true,
      "inputs": [
        {
          "name": "",
          "type": "uint256"
        },
        {
          "name": "",
          "type": "uint256"
        }
      ],
      "name": "tbTeam",
      "outputs": [
        {
          "name": "",
          "type": "address"
        }
      ],
      "payable": false,
      "stateMutability": "view",
      "type": "function"
    },
    {
      "constant": true,
      "inputs": [
        {
          "name": "",
          "type": "uint256"
        },
        {
          "name": "",
          "type": "address"
        }
      ],
      "name": "painterToTBP",
      "outputs": [
        {
          "name": "",
          "type": "uint256"
        }
      ],
      "payable": false,
      "stateMutability": "view",
      "type": "function"
    },
    {
      "constant": true,
      "inputs": [
        {
          "name": "",
          "type": "uint256"
        },
        {
          "name": "",
          "type": "uint256"
        }
      ],
      "name": "paintGenToStartTimeForColor",
      "outputs": [
        {
          "name": "",
          "type": "uint256"
        }
      ],
      "payable": false,
      "stateMutability": "view",
      "type": "function"
    },
    {
      "constant": true,
      "inputs": [
        {
          "name": "",
          "type": "uint256"
        }
      ],
      "name": "callPriceForColor",
      "outputs": [
        {
          "name": "",
          "type": "uint256"
        }
      ],
      "payable": false,
      "stateMutability": "view",
      "type": "function"
    },
    {
      "constant": true,
      "inputs": [
        {
          "name": "",
          "type": "uint256"
        },
        {
          "name": "",
          "type": "address"
        }
      ],
      "name": "painterToCBP",
      "outputs": [
        {
          "name": "",
          "type": "uint256"
        }
      ],
      "payable": false,
      "stateMutability": "view",
      "type": "function"
    },
    {
      "constant": true,
      "inputs": [
        {
          "name": "",
          "type": "uint256"
        }
      ],
      "name": "winnerBankForRound",
      "outputs": [
        {
          "name": "",
          "type": "uint256"
        }
      ],
      "payable": false,
      "stateMutability": "view",
      "type": "function"
    },
    {
      "constant": true,
      "inputs": [],
      "name": "paintsCounter",
      "outputs": [
        {
          "name": "",
          "type": "uint256"
        }
      ],
      "payable": false,
      "stateMutability": "view",
      "type": "function"
    },
    {
      "constant": true,
      "inputs": [],
      "name": "founders",
      "outputs": [
        {
          "name": "",
          "type": "address"
        }
      ],
      "payable": false,
      "stateMutability": "view",
      "type": "function"
    },
    {
      "constant": true,
      "inputs": [
        {
          "name": "",
          "type": "address"
        }
      ],
      "name": "newUserToCounter",
      "outputs": [
        {
          "name": "",
          "type": "uint256"
        }
      ],
      "payable": false,
      "stateMutability": "view",
      "type": "function"
    },
    {
      "constant": true,
      "inputs": [
        {
          "name": "",
          "type": "uint256"
        },
        {
          "name": "",
          "type": "uint256"
        }
      ],
      "name": "counterToPainterForColor",
      "outputs": [
        {
          "name": "",
          "type": "address"
        }
      ],
      "payable": false,
      "stateMutability": "view",
      "type": "function"
    },
    {
      "constant": true,
      "inputs": [
        {
          "name": "",
          "type": "uint256"
        },
        {
          "name": "",
          "type": "uint256"
        }
      ],
      "name": "pixelToOldColorForRound",
      "outputs": [
        {
          "name": "",
          "type": "uint256"
        }
      ],
      "payable": false,
      "stateMutability": "view",
      "type": "function"
    },
    {
      "constant": true,
      "inputs": [
        {
          "name": "",
          "type": "uint256"
        }
      ],
      "name": "isTBPTransfered",
      "outputs": [
        {
          "name": "",
          "type": "bool"
        }
      ],
      "payable": false,
      "stateMutability": "view",
      "type": "function"
    },
    {
      "constant": true,
      "inputs": [
        {
          "name": "",
          "type": "uint256"
        }
      ],
      "name": "timeBankForRound",
      "outputs": [
        {
          "name": "",
          "type": "uint256"
        }
      ],
      "payable": false,
      "stateMutability": "view",
      "type": "function"
    },
    {
      "constant": true,
      "inputs": [
        {
          "name": "",
          "type": "address"
        }
      ],
      "name": "userToRefLink",
      "outputs": [
        {
          "name": "",
          "type": "string"
        }
      ],
      "payable": false,
      "stateMutability": "view",
      "type": "function"
    },
    {
      "constant": true,
      "inputs": [],
      "name": "claimId",
      "outputs": [
        {
          "name": "",
          "type": "uint256"
        }
      ],
      "payable": false,
      "stateMutability": "view",
      "type": "function"
    },
    {
      "constant": true,
      "inputs": [
        {
          "name": "",
          "type": "uint256"
        },
        {
          "name": "",
          "type": "uint256"
        }
      ],
      "name": "cbTeam",
      "outputs": [
        {
          "name": "",
          "type": "address"
        }
      ],
      "payable": false,
      "stateMutability": "view",
      "type": "function"
    },
    {
      "constant": true,
      "inputs": [
        {
          "name": "",
          "type": "uint256"
        },
        {
          "name": "",
          "type": "uint256"
        }
      ],
      "name": "paintGenStartedForColor",
      "outputs": [
        {
          "name": "",
          "type": "bool"
        }
      ],
      "payable": false,
      "stateMutability": "view",
      "type": "function"
    },
    {
      "constant": true,
      "inputs": [
        {
          "name": "",
          "type": "uint256"
        }
      ],
      "name": "lastPaintedPixelForRound",
      "outputs": [
        {
          "name": "",
          "type": "uint256"
        }
      ],
      "payable": false,
      "stateMutability": "view",
      "type": "function"
    },
    {
      "constant": true,
      "inputs": [
        {
          "name": "",
          "type": "uint256"
        }
      ],
      "name": "nextCallPriceForColor",
      "outputs": [
        {
          "name": "",
          "type": "uint256"
        }
      ],
      "payable": false,
      "stateMutability": "view",
      "type": "function"
    },
    {
      "constant": false,
      "inputs": [],
      "name": "renounceOwnership",
      "outputs": [],
      "payable": false,
      "stateMutability": "nonpayable",
      "type": "function"
    },
    {
      "constant": true,
      "inputs": [
        {
          "name": "",
          "type": "uint256"
        }
      ],
      "name": "lastPaintTimeForRound",
      "outputs": [
        {
          "name": "",
          "type": "uint256"
        }
      ],
      "payable": false,
      "stateMutability": "view",
      "type": "function"
    },
    {
      "constant": true,
      "inputs": [],
      "name": "isCBPDistributable",
      "outputs": [
        {
          "name": "",
          "type": "bool"
        }
      ],
      "payable": false,
      "stateMutability": "view",
      "type": "function"
    },
    {
      "constant": true,
      "inputs": [
        {
          "name": "",
          "type": "uint256"
        }
      ],
      "name": "lastPainterForRound",
      "outputs": [
        {
          "name": "",
          "type": "address"
        }
      ],
      "payable": false,
      "stateMutability": "view",
      "type": "function"
    },
    {
      "constant": true,
      "inputs": [
        {
          "name": "",
          "type": "address"
        }
      ],
      "name": "hasRefLink",
      "outputs": [
        {
          "name": "",
          "type": "bool"
        }
      ],
      "payable": false,
      "stateMutability": "view",
      "type": "function"
    },
    {
      "constant": true,
      "inputs": [
        {
          "name": "",
          "type": "address"
        },
        {
          "name": "",
          "type": "uint256"
        }
      ],
      "name": "referrerToReferrals",
      "outputs": [
        {
          "name": "",
          "type": "address"
        }
      ],
      "payable": false,
      "stateMutability": "view",
      "type": "function"
    },
    {
      "constant": true,
      "inputs": [],
      "name": "currentRound",
      "outputs": [
        {
          "name": "",
          "type": "uint256"
        }
      ],
      "payable": false,
      "stateMutability": "view",
      "type": "function"
    },
    {
      "constant": true,
      "inputs": [],
      "name": "owner",
      "outputs": [
        {
          "name": "",
          "type": "address"
        }
      ],
      "payable": false,
      "stateMutability": "view",
      "type": "function"
    },
    {
      "constant": true,
      "inputs": [
        {
          "name": "",
          "type": "uint256"
        }
      ],
      "name": "paintsCounterForColor",
      "outputs": [
        {
          "name": "",
          "type": "uint256"
        }
      ],
      "payable": false,
      "stateMutability": "view",
      "type": "function"
    },
    {
      "constant": true,
      "inputs": [],
      "name": "isOwner",
      "outputs": [
        {
          "name": "",
          "type": "bool"
        }
      ],
      "payable": false,
      "stateMutability": "view",
      "type": "function"
    },
    {
      "constant": true,
      "inputs": [
        {
          "name": "",
          "type": "uint256"
        },
        {
          "name": "",
          "type": "uint256"
        }
      ],
      "name": "pixelToPaintTimeForRound",
      "outputs": [
        {
          "name": "",
          "type": "uint256"
        }
      ],
      "payable": false,
      "stateMutability": "view",
      "type": "function"
    },
    {
      "constant": true,
      "inputs": [
        {
          "name": "",
          "type": "uint256"
        },
        {
          "name": "",
          "type": "uint256"
        }
      ],
      "name": "colorBankToColorForRound",
      "outputs": [
        {
          "name": "",
          "type": "uint256"
        }
      ],
      "payable": false,
      "stateMutability": "view",
      "type": "function"
    },
    {
      "constant": true,
      "inputs": [
        {
          "name": "",
          "type": "uint256"
        }
      ],
      "name": "claims",
      "outputs": [
        {
          "name": "id",
          "type": "uint256"
        },
        {
          "name": "claimer",
          "type": "address"
        },
        {
          "name": "isResolved",
          "type": "bool"
        },
        {
          "name": "timestamp",
          "type": "uint256"
        }
      ],
      "payable": false,
      "stateMutability": "view",
      "type": "function"
    },
    {
      "constant": true,
      "inputs": [],
      "name": "ownerOfPixel",
      "outputs": [
        {
          "name": "",
          "type": "address"
        }
      ],
      "payable": false,
      "stateMutability": "view",
      "type": "function"
    },
    {
      "constant": true,
      "inputs": [
        {
          "name": "",
          "type": "uint256"
        },
        {
          "name": "",
          "type": "address"
        }
      ],
      "name": "isInCBT",
      "outputs": [
        {
          "name": "",
          "type": "bool"
        }
      ],
      "payable": false,
      "stateMutability": "view",
      "type": "function"
    },
    {
      "constant": true,
      "inputs": [
        {
          "name": "",
          "type": "uint256"
        }
      ],
      "name": "counterToPainter",
      "outputs": [
        {
          "name": "",
          "type": "address"
        }
      ],
      "payable": false,
      "stateMutability": "view",
      "type": "function"
    },
    {
      "constant": true,
      "inputs": [
        {
          "name": "",
          "type": "uint256"
        },
        {
          "name": "",
          "type": "address"
        }
      ],
      "name": "timeBankShare",
      "outputs": [
        {
          "name": "",
          "type": "uint256"
        }
      ],
      "payable": false,
      "stateMutability": "view",
      "type": "function"
    },
    {
      "constant": true,
      "inputs": [
        {
          "name": "",
          "type": "uint256"
        },
        {
          "name": "",
          "type": "uint256"
        },
        {
          "name": "",
          "type": "address"
        }
      ],
      "name": "colorBankShare",
      "outputs": [
        {
          "name": "",
          "type": "uint256"
        }
      ],
      "payable": false,
      "stateMutability": "view",
      "type": "function"
    },
    {
      "constant": true,
      "inputs": [
        {
          "name": "",
          "type": "uint256"
        },
        {
          "name": "",
          "type": "uint256"
        }
      ],
      "name": "pixelToColorForRound",
      "outputs": [
        {
          "name": "",
          "type": "uint256"
        }
      ],
      "payable": false,
      "stateMutability": "view",
      "type": "function"
    },
    {
      "constant": true,
      "inputs": [
        {
          "name": "",
          "type": "uint256"
        }
      ],
      "name": "totalPaintsForRound",
      "outputs": [
        {
          "name": "",
          "type": "uint256"
        }
      ],
      "payable": false,
      "stateMutability": "view",
      "type": "function"
    },
    {
      "constant": true,
      "inputs": [
        {
          "name": "",
          "type": "uint256"
        }
      ],
      "name": "colorBankForRound",
      "outputs": [
        {
          "name": "",
          "type": "uint256"
        }
      ],
      "payable": false,
      "stateMutability": "view",
      "type": "function"
    },
    {
      "constant": true,
      "inputs": [
        {
          "name": "",
          "type": "uint256"
        },
        {
          "name": "",
          "type": "uint256"
        }
      ],
      "name": "paintGenToEndTimeForColor",
      "outputs": [
        {
          "name": "",
          "type": "uint256"
        }
      ],
      "payable": false,
      "stateMutability": "view",
      "type": "function"
    },
    {
      "constant": true,
      "inputs": [],
      "name": "uniqueUsersCount",
      "outputs": [
        {
          "name": "",
          "type": "uint256"
        }
      ],
      "payable": false,
      "stateMutability": "view",
      "type": "function"
    },
    {
      "constant": true,
      "inputs": [
        {
          "name": "",
          "type": "bytes32"
        }
      ],
      "name": "refLinkExists",
      "outputs": [
        {
          "name": "",
          "type": "bool"
        }
      ],
      "payable": false,
      "stateMutability": "view",
      "type": "function"
    },
    {
      "constant": true,
      "inputs": [
        {
          "name": "",
          "type": "uint256"
        },
        {
          "name": "",
          "type": "uint256"
        }
      ],
      "name": "paintGenToAmountForColor",
      "outputs": [
        {
          "name": "",
          "type": "uint256"
        }
      ],
      "payable": false,
      "stateMutability": "view",
      "type": "function"
    },
    {
      "constant": true,
      "inputs": [
        {
          "name": "",
          "type": "uint256"
        }
      ],
      "name": "isCBPTransfered",
      "outputs": [
        {
          "name": "",
          "type": "bool"
        }
      ],
      "payable": false,
      "stateMutability": "view",
      "type": "function"
    },
    {
      "constant": true,
      "inputs": [
        {
          "name": "",
          "type": "address"
        }
      ],
      "name": "referralToReferrer",
      "outputs": [
        {
          "name": "",
          "type": "address"
        }
      ],
      "payable": false,
      "stateMutability": "view",
      "type": "function"
    },
    {
      "constant": true,
      "inputs": [
        {
          "name": "",
          "type": "uint256"
        },
        {
          "name": "",
          "type": "address"
        }
      ],
      "name": "usersPaintDiscountForColor",
      "outputs": [
        {
          "name": "",
          "type": "uint256"
        }
      ],
      "payable": false,
      "stateMutability": "view",
      "type": "function"
    },
    {
      "constant": true,
      "inputs": [],
      "name": "maxPaintsInPool",
      "outputs": [
        {
          "name": "",
          "type": "uint256"
        }
      ],
      "payable": false,
      "stateMutability": "view",
      "type": "function"
    },
    {
      "constant": false,
      "inputs": [
        {
          "name": "newOwner",
          "type": "address"
        }
      ],
      "name": "transferOwnership",
      "outputs": [],
      "payable": false,
      "stateMutability": "nonpayable",
      "type": "function"
    },
    {
      "constant": true,
      "inputs": [
        {
          "name": "",
          "type": "uint256"
        }
      ],
      "name": "winnerColorForRound",
      "outputs": [
        {
          "name": "",
          "type": "uint256"
        }
      ],
      "payable": false,
      "stateMutability": "view",
      "type": "function"
    },
    {
      "constant": true,
      "inputs": [],
      "name": "dividendsBank",
      "outputs": [
        {
          "name": "",
          "type": "uint256"
        }
      ],
      "payable": false,
      "stateMutability": "view",
      "type": "function"
    },
    {
      "constant": true,
      "inputs": [
        {
          "name": "",
          "type": "address"
        }
      ],
      "name": "withdrawalBalances",
      "outputs": [
        {
          "name": "",
          "type": "uint256"
        }
      ],
      "payable": false,
      "stateMutability": "view",
      "type": "function"
    },
    {
      "constant": true,
      "inputs": [],
      "name": "cbIteration",
      "outputs": [
        {
          "name": "",
          "type": "uint256"
        }
      ],
      "payable": false,
      "stateMutability": "view",
      "type": "function"
    },
    {
      "anonymous": false,
      "inputs": [
        {
          "indexed": true,
          "name": "round",
          "type": "uint256"
        },
        {
          "indexed": true,
          "name": "cbIteration",
          "type": "uint256"
        },
        {
          "indexed": true,
          "name": "winner",
          "type": "address"
        },
        {
          "indexed": false,
          "name": "prize",
          "type": "uint256"
        }
      ],
      "name": "CBPDistributed",
      "type": "event"
    },
    {
      "anonymous": false,
      "inputs": [
        {
          "indexed": true,
          "name": "withdrawer",
          "type": "address"
        },
        {
          "indexed": true,
          "name": "claimId",
          "type": "uint256"
        },
        {
          "indexed": true,
          "name": "amount",
          "type": "uint256"
        }
      ],
      "name": "DividendsWithdrawn",
      "type": "event"
    },
    {
      "anonymous": false,
      "inputs": [
        {
          "indexed": true,
          "name": "claimer",
          "type": "address"
        },
        {
          "indexed": true,
          "name": "claimId",
          "type": "uint256"
        },
        {
          "indexed": true,
          "name": "currentTime",
          "type": "uint256"
        }
      ],
      "name": "DividendsClaimed",
      "type": "event"
    },
    {
      "anonymous": false,
      "inputs": [
        {
          "indexed": true,
          "name": "pixelId",
          "type": "uint256"
        },
        {
          "indexed": false,
          "name": "colorId",
          "type": "uint256"
        },
        {
          "indexed": true,
          "name": "painter",
          "type": "address"
        },
        {
          "indexed": true,
          "name": "round",
          "type": "uint256"
        },
        {
          "indexed": false,
          "name": "timestamp",
          "type": "uint256"
        }
      ],
      "name": "Paint",
      "type": "event"
    },
    {
      "anonymous": false,
      "inputs": [
        {
          "indexed": false,
          "name": "winnerOfRound",
          "type": "address"
        },
        {
          "indexed": true,
          "name": "round",
          "type": "uint256"
        }
      ],
      "name": "ColorBankPlayed",
      "type": "event"
    },
    {
      "anonymous": false,
      "inputs": [
        {
          "indexed": false,
          "name": "winnerOfRound",
          "type": "address"
        },
        {
          "indexed": true,
          "name": "round",
          "type": "uint256"
        }
      ],
      "name": "TimeBankPlayed",
      "type": "event"
    },
    {
      "anonymous": false,
      "inputs": [
        {
          "indexed": true,
          "name": "newCallPrice",
          "type": "uint256"
        }
      ],
      "name": "CallPriceUpdated",
      "type": "event"
    },
    {
      "anonymous": false,
      "inputs": [
        {
          "indexed": true,
          "name": "round",
          "type": "uint256"
        },
        {
          "indexed": true,
          "name": "tbIteration",
          "type": "uint256"
        },
        {
          "indexed": true,
          "name": "winner",
          "type": "address"
        },
        {
          "indexed": false,
          "name": "prize",
          "type": "uint256"
        }
      ],
      "name": "TBPDistributed",
      "type": "event"
    },
    {
      "anonymous": false,
      "inputs": [
        {
          "indexed": true,
          "name": "previousOwner",
          "type": "address"
        },
        {
          "indexed": true,
          "name": "newOwner",
          "type": "address"
        }
      ],
      "name": "OwnershipTransferred",
      "type": "event"
    },
    {
      "constant": false,
      "inputs": [],
      "name": "distributeCBP",
      "outputs": [],
      "payable": false,
      "stateMutability": "nonpayable",
      "type": "function"
    },
    {
      "constant": false,
      "inputs": [],
      "name": "distributeTBP",
      "outputs": [],
      "payable": false,
      "stateMutability": "nonpayable",
      "type": "function"
    },
    {
      "constant": false,
      "inputs": [],
      "name": "claimDividends",
      "outputs": [],
      "payable": false,
      "stateMutability": "nonpayable",
      "type": "function"
    },
    {
      "constant": false,
      "inputs": [
        {
          "name": "_claimId",
          "type": "uint256"
        }
      ],
      "name": "approveClaim",
      "outputs": [],
      "payable": false,
      "stateMutability": "nonpayable",
      "type": "function"
    },
    {
      "constant": false,
      "inputs": [],
      "name": "pauseGame",
      "outputs": [],
      "payable": false,
      "stateMutability": "nonpayable",
      "type": "function"
    },
    {
      "constant": false,
      "inputs": [],
      "name": "resumeGame",
      "outputs": [],
      "payable": false,
      "stateMutability": "nonpayable",
      "type": "function"
    },
    {
      "constant": false,
      "inputs": [
        {
          "name": "_refLink",
          "type": "string"
        }
      ],
      "name": "buyRefLink",
      "outputs": [],
      "payable": true,
      "stateMutability": "payable",
      "type": "function"
    },
    {
      "constant": false,
      "inputs": [
        {
          "name": "_new",
          "type": "address"
        }
      ],
      "name": "addAdmin",
      "outputs": [],
      "payable": false,
      "stateMutability": "nonpayable",
      "type": "function"
    },
    {
      "constant": false,
      "inputs": [
        {
          "name": "_admin",
          "type": "address"
        }
      ],
      "name": "removeAdmin",
      "outputs": [],
      "payable": false,
      "stateMutability": "nonpayable",
      "type": "function"
    },
    {
      "constant": false,
      "inputs": [],
      "name": "renounceAdmin",
      "outputs": [],
      "payable": false,
      "stateMutability": "nonpayable",
      "type": "function"
    },
    {
      "constant": true,
      "inputs": [
        {
          "name": "_pixel",
          "type": "uint256"
        }
      ],
      "name": "getPixelColor",
      "outputs": [
        {
          "name": "",
          "type": "uint256"
        }
      ],
      "payable": false,
      "stateMutability": "view",
      "type": "function"
    },
    {
      "constant": true,
      "inputs": [
        {
          "name": "_pixels",
          "type": "uint256[]"
        },
        {
          "name": "_color",
          "type": "uint256"
        }
      ],
      "name": "estimateCallPrice",
      "outputs": [
        {
          "name": "totalCallPrice",
          "type": "uint256"
        }
      ],
      "payable": false,
      "stateMutability": "view",
      "type": "function"
    },
    {
      "constant": false,
      "inputs": [
        {
          "name": "_pixels",
          "type": "uint256[]"
        },
        {
          "name": "_color",
          "type": "uint256"
        },
        {
          "name": "_refLink",
          "type": "string"
        }
      ],
      "name": "paint",
      "outputs": [],
      "payable": true,
      "stateMutability": "payable",
      "type": "function"
    },
    {
      "constant": false,
      "inputs": [
        {
          "name": "_delegate",
          "type": "address"
        },
        {
          "name": "_functionSignatures",
          "type": "string"
        },
        {
          "name": "commitMessage",
          "type": "string"
        }
      ],
      "name": "updateContract",
      "outputs": [],
      "payable": false,
      "stateMutability": "nonpayable",
      "type": "function"
    },
    {
      "constant": false,
      "inputs": [],
      "name": "mock",
      "outputs": [],
      "payable": false,
      "stateMutability": "nonpayable",
      "type": "function"
    },
    {
      "constant": false,
      "inputs": [],
      "name": "mock2",
      "outputs": [],
      "payable": false,
      "stateMutability": "nonpayable",
      "type": "function"
    },
    {
      "constant": false,
      "inputs": [
        {
          "name": "_winnerColor",
          "type": "uint256"
        }
      ],
      "name": "mock3",
      "outputs": [],
      "payable": false,
      "stateMutability": "nonpayable",
      "type": "function"
    },
    {
      "constant": false,
      "inputs": [],
      "name": "mockMaxPaintsInPool",
      "outputs": [],
      "payable": false,
      "stateMutability": "nonpayable",
      "type": "function"
    }
  ],
  "bytecode": "0x608060405273ca35b7d915458ef540ade6068dfe2f44e8fa733c604060006101000a81548173ffffffffffffffffffffffffffffffffffffffff021916908373ffffffffffffffffffffffffffffffffffffffff160217905550733e4d187df7d8a0820eaf4174d17b160157610912604160006101000a81548173ffffffffffffffffffffffffffffffffffffffff021916908373ffffffffffffffffffffffffffffffffffffffff160217905550336000806101000a81548173ffffffffffffffffffffffffffffffffffffffff021916908373ffffffffffffffffffffffffffffffffffffffff1602179055506000809054906101000a900473ffffffffffffffffffffffffffffffffffffffff1673ffffffffffffffffffffffffffffffffffffffff16600073ffffffffffffffffffffffffffffffffffffffff167f8be0079c531659141344cd1fd0a4f28419497f9722a3daafe3b4186f6b6457e060405160405180910390a3612951806101796000396000f3006080604052600436106103f3576000357c0100000000000000000000000000000000000000000000000000000000900463ffffffff1680630422ddf3146103f857806305bdd0be1461042757806305e2387f1461048c578063099b81ce146104a35780630baaea44146105145780630cf9603f146105815780630daa4206146105cc5780630f6ed86e1461061c578063102f9713146106475780631785f53c146106b457806318452cd8146106f757806319ef6a06146107525780631f5bdf5d1461079d5780631f90c6ed146107f857806321423af81461085d57806324d7806c1461088c57806328361f57146108e757806328b290f9146109285780632c6c1c411461097f5780632c7a3dae146109e057806333f9c38814610a575780633a17350514610ab85780633c6dd01314610b035780633ca4c18314610b445780633cc4c6ce14610ba55780633d0d1a7914610bbc5780633dc3c37714610bfd578063411b007e14610c2857806341c5464e14610c7f57806342e453ec14610cd657806346e3013514610d4d578063499831f214610d7a5780634b39173d14610d915780634c438ad714610ddc5780634c78e40114610e215780635bfcdb2714610e625780635c25fd1314610f1e5780635d63ebb214610f495780635f5d554c14610fc0578063614555671461100f578063628a71a314611082578063668038e0146110c35780636a528028146110da5780636e8fa2a8146110f15780636f17eb421461111f5780637048027514611160578063715018a6146111a357806373a9ee26146111ba57806376f5d96a146111fb57806379ecf3761461122a5780637b68a8f0146112975780637e1e175c146112d857806387982ac3146113335780638a19c8bc146113c05780638bad0c0a146113eb5780638da5cb5b146114025780638e2df39c146114595780638f32d59b1461149a5780638f63b7e5146114c9578063a312072414611514578063a888c2cd1461155f578063a977e168146115e5578063ab24c7d21461163c578063abafb90e146116a1578063ad71ee2314611725578063ae55ce821461173c578063ae9fbd32146117a9578063b0ff59d2146117c0578063b1a3883c14611821578063b8232d5d1461188c578063be7d6226146118d7578063c64a2e5614611918578063c957387b14611959578063c9f8234f146119a4578063d4526e68146119cf578063d5de47c714611a18578063da68b12114611a63578063deaf0fa114611aa8578063e543804a14611b2b578063eaf1c91014611b42578063eef565da14611ba3578063f2fde38b14611bce578063f49916f514611c11578063f5f95b3b14611c52578063fb454d2914611c7d578063fbd0a27714611cd4578063fea11fe314611d01575b600080fd5b34801561040457600080fd5b5061040d611d2c565b604051808215151515815260200191505060405180910390f35b34801561043357600080fd5b5061047260048036038101908080359060200190929190803573ffffffffffffffffffffffffffffffffffffffff169060200190929190505050611d3f565b604051808215151515815260200191505060405180910390f35b34801561049857600080fd5b506104a1611d6e565b005b3480156104af57600080fd5b506104d26004803603810190808035600019169060200190929190505050611d70565b604051808273ffffffffffffffffffffffffffffffffffffffff1673ffffffffffffffffffffffffffffffffffffffff16815260200191505060405180910390f35b34801561052057600080fd5b5061053f60048036038101908080359060200190929190505050611da3565b604051808273ffffffffffffffffffffffffffffffffffffffff1673ffffffffffffffffffffffffffffffffffffffff16815260200191505060405180910390f35b34801561058d57600080fd5b506105b66004803603810190808035906020019092919080359060200190929190505050611dd6565b6040518082815260200191505060405180910390f35b61061a60048036038101908080359060200190820180359060200191909192939192939080359060200190929190803590602001908201803590602001919091929391929390505050611dfb565b005b34801561062857600080fd5b50610631611e02565b6040518082815260200191505060405180910390f35b34801561065357600080fd5b5061067260048036038101908080359060200190929190505050611e08565b604051808273ffffffffffffffffffffffffffffffffffffffff1673ffffffffffffffffffffffffffffffffffffffff16815260200191505060405180910390f35b3480156106c057600080fd5b506106f5600480360381019080803573ffffffffffffffffffffffffffffffffffffffff169060200190929190505050611e3b565b005b34801561070357600080fd5b50610738600480360381019080803573ffffffffffffffffffffffffffffffffffffffff169060200190929190505050611e3e565b604051808215151515815260200191505060405180910390f35b34801561075e57600080fd5b506107876004803603810190808035906020019092919080359060200190929190505050611e5e565b6040518082815260200191505060405180910390f35b3480156107a957600080fd5b506107de600480360381019080803573ffffffffffffffffffffffffffffffffffffffff169060200190929190505050611e83565b604051808215151515815260200191505060405180910390f35b34801561080457600080fd5b5061084360048036038101908080359060200190929190803573ffffffffffffffffffffffffffffffffffffffff169060200190929190505050611ea3565b604051808215151515815260200191505060405180910390f35b34801561086957600080fd5b50610872611ed2565b604051808215151515815260200191505060405180910390f35b34801561089857600080fd5b506108cd600480360381019080803573ffffffffffffffffffffffffffffffffffffffff169060200190929190505050611ee5565b604051808215151515815260200191505060405180910390f35b3480156108f357600080fd5b5061091260048036038101908080359060200190929190505050611f05565b6040518082815260200191505060405180910390f35b34801561093457600080fd5b50610969600480360381019080803573ffffffffffffffffffffffffffffffffffffffff169060200190929190505050611f1d565b6040518082815260200191505060405180910390f35b34801561098b57600080fd5b506109ca60048036038101908080359060200190929190803573ffffffffffffffffffffffffffffffffffffffff169060200190929190505050611f35565b6040518082815260200191505060405180910390f35b3480156109ec57600080fd5b50610a156004803603810190808035906020019092919080359060200190929190505050611f5a565b604051808273ffffffffffffffffffffffffffffffffffffffff1673ffffffffffffffffffffffffffffffffffffffff16815260200191505060405180910390f35b348015610a6357600080fd5b50610aa260048036038101908080359060200190929190803573ffffffffffffffffffffffffffffffffffffffff169060200190929190505050611fa7565b6040518082815260200191505060405180910390f35b348015610ac457600080fd5b50610aed6004803603810190808035906020019092919080359060200190929190505050611fcc565b6040518082815260200191505060405180910390f35b348015610b0f57600080fd5b50610b2e60048036038101908080359060200190929190505050611ff1565b6040518082815260200191505060405180910390f35b348015610b5057600080fd5b50610b8f60048036038101908080359060200190929190803573ffffffffffffffffffffffffffffffffffffffff169060200190929190505050612009565b6040518082815260200191505060405180910390f35b348015610bb157600080fd5b50610bba61202e565b005b348015610bc857600080fd5b50610be760048036038101908080359060200190929190505050612030565b6040518082815260200191505060405180910390f35b348015610c0957600080fd5b50610c12612048565b6040518082815260200191505060405180910390f35b348015610c3457600080fd5b50610c3d61204e565b604051808273ffffffffffffffffffffffffffffffffffffffff1673ffffffffffffffffffffffffffffffffffffffff16815260200191505060405180910390f35b348015610c8b57600080fd5b50610cc0600480360381019080803573ffffffffffffffffffffffffffffffffffffffff169060200190929190505050612074565b6040518082815260200191505060405180910390f35b348015610ce257600080fd5b50610d0b600480360381019080803590602001909291908035906020019092919050505061208c565b604051808273ffffffffffffffffffffffffffffffffffffffff1673ffffffffffffffffffffffffffffffffffffffff16815260200191505060405180910390f35b348015610d5957600080fd5b50610d78600480360381019080803590602001909291905050506120ce565b005b348015610d8657600080fd5b50610d8f6120d1565b005b348015610d9d57600080fd5b50610dc660048036038101908080359060200190929190803590602001909291905050506120d3565b6040518082815260200191505060405180910390f35b348015610de857600080fd5b50610e07600480360381019080803590602001909291905050506120f8565b604051808215151515815260200191505060405180910390f35b348015610e2d57600080fd5b50610e4c60048036038101908080359060200190929190505050612118565b6040518082815260200191505060405180910390f35b348015610e6e57600080fd5b50610ea3600480360381019080803573ffffffffffffffffffffffffffffffffffffffff169060200190929190505050612130565b6040518080602001828103825283818151815260200191508051906020019080838360005b83811015610ee3578082015181840152602081019050610ec8565b50505050905090810190601f168015610f105780820380516001836020036101000a031916815260200191505b509250505060405180910390f35b348015610f2a57600080fd5b50610f336121e0565b6040518082815260200191505060405180910390f35b348015610f5557600080fd5b50610f7e60048036038101908080359060200190929190803590602001909291905050506121e6565b604051808273ffffffffffffffffffffffffffffffffffffffff1673ffffffffffffffffffffffffffffffffffffffff16815260200191505060405180910390f35b348015610fcc57600080fd5b50610ff56004803603810190808035906020019092919080359060200190929190505050612233565b604051808215151515815260200191505060405180910390f35b34801561101b57600080fd5b50611080600480360381019080803573ffffffffffffffffffffffffffffffffffffffff169060200190929190803590602001908201803590602001919091929391929390803590602001908201803590602001919091929391929390505050612262565b005b34801561108e57600080fd5b506110ad60048036038101908080359060200190929190505050612269565b6040518082815260200191505060405180910390f35b3480156110cf57600080fd5b506110d8612281565b005b3480156110e657600080fd5b506110ef612283565b005b61111d600480360381019080803590602001908201803590602001919091929391929390505050612285565b005b34801561112b57600080fd5b5061114a60048036038101908080359060200190929190505050612289565b6040518082815260200191505060405180910390f35b34801561116c57600080fd5b506111a1600480360381019080803573ffffffffffffffffffffffffffffffffffffffff1690602001909291905050506122a1565b005b3480156111af57600080fd5b506111b86122a4565b005b3480156111c657600080fd5b506111e560048036038101908080359060200190929190505050612376565b6040518082815260200191505060405180910390f35b34801561120757600080fd5b5061121061238e565b604051808215151515815260200191505060405180910390f35b34801561123657600080fd5b50611255600480360381019080803590602001909291905050506123a1565b604051808273ffffffffffffffffffffffffffffffffffffffff1673ffffffffffffffffffffffffffffffffffffffff16815260200191505060405180910390f35b3480156112a357600080fd5b506112c2600480360381019080803590602001909291905050506123d4565b6040518082815260200191505060405180910390f35b3480156112e457600080fd5b50611319600480360381019080803573ffffffffffffffffffffffffffffffffffffffff1690602001909291905050506123db565b604051808215151515815260200191505060405180910390f35b34801561133f57600080fd5b5061137e600480360381019080803573ffffffffffffffffffffffffffffffffffffffff169060200190929190803590602001909291905050506123fb565b604051808273ffffffffffffffffffffffffffffffffffffffff1673ffffffffffffffffffffffffffffffffffffffff16815260200191505060405180910390f35b3480156113cc57600080fd5b506113d5612447565b6040518082815260200191505060405180910390f35b3480156113f757600080fd5b5061140061244d565b005b34801561140e57600080fd5b5061141761244f565b604051808273ffffffffffffffffffffffffffffffffffffffff1673ffffffffffffffffffffffffffffffffffffffff16815260200191505060405180910390f35b34801561146557600080fd5b5061148460048036038101908080359060200190929190505050612478565b6040518082815260200191505060405180910390f35b3480156114a657600080fd5b506114af612490565b604051808215151515815260200191505060405180910390f35b3480156114d557600080fd5b506114fe60048036038101908080359060200190929190803590602001909291905050506124e7565b6040518082815260200191505060405180910390f35b34801561152057600080fd5b50611549600480360381019080803590602001909291908035906020019092919050505061250c565b6040518082815260200191505060405180910390f35b34801561156b57600080fd5b5061158a60048036038101908080359060200190929190505050612531565b604051808581526020018473ffffffffffffffffffffffffffffffffffffffff1673ffffffffffffffffffffffffffffffffffffffff1681526020018315151515815260200182815260200194505050505060405180910390f35b3480156115f157600080fd5b506115fa61259d565b604051808273ffffffffffffffffffffffffffffffffffffffff1673ffffffffffffffffffffffffffffffffffffffff16815260200191505060405180910390f35b34801561164857600080fd5b5061168760048036038101908080359060200190929190803573ffffffffffffffffffffffffffffffffffffffff1690602001909291905050506125c3565b604051808215151515815260200191505060405180910390f35b3480156116ad57600080fd5b5061170f60048036038101908080359060200190820180359060200190808060200260200160405190810160405280939291908181526020018383602002808284378201915050505050509192919290803590602001909291905050506125f2565b6040518082815260200191505060405180910390f35b34801561173157600080fd5b5061173a6125fa565b005b34801561174857600080fd5b50611767600480360381019080803590602001909291905050506125fc565b604051808273ffffffffffffffffffffffffffffffffffffffff1673ffffffffffffffffffffffffffffffffffffffff16815260200191505060405180910390f35b3480156117b557600080fd5b506117be61262f565b005b3480156117cc57600080fd5b5061180b60048036038101908080359060200190929190803573ffffffffffffffffffffffffffffffffffffffff169060200190929190505050612631565b6040518082815260200191505060405180910390f35b34801561182d57600080fd5b506118766004803603810190808035906020019092919080359060200190929190803573ffffffffffffffffffffffffffffffffffffffff169060200190929190505050612656565b6040518082815260200191505060405180910390f35b34801561189857600080fd5b506118c16004803603810190808035906020019092919080359060200190929190505050612688565b6040518082815260200191505060405180910390f35b3480156118e357600080fd5b50611902600480360381019080803590602001909291905050506126ad565b6040518082815260200191505060405180910390f35b34801561192457600080fd5b50611943600480360381019080803590602001909291905050506126c5565b6040518082815260200191505060405180910390f35b34801561196557600080fd5b5061198e60048036038101908080359060200190929190803590602001909291905050506126dd565b6040518082815260200191505060405180910390f35b3480156119b057600080fd5b506119b9612702565b6040518082815260200191505060405180910390f35b3480156119db57600080fd5b506119fe6004803603810190808035600019169060200190929190505050612708565b604051808215151515815260200191505060405180910390f35b348015611a2457600080fd5b50611a4d6004803603810190808035906020019092919080359060200190929190505050612728565b6040518082815260200191505060405180910390f35b348015611a6f57600080fd5b50611a8e6004803603810190808035906020019092919050505061274d565b604051808215151515815260200191505060405180910390f35b348015611ab457600080fd5b50611ae9600480360381019080803573ffffffffffffffffffffffffffffffffffffffff16906020019092919050505061276d565b604051808273ffffffffffffffffffffffffffffffffffffffff1673ffffffffffffffffffffffffffffffffffffffff16815260200191505060405180910390f35b348015611b3757600080fd5b50611b406127a0565b005b348015611b4e57600080fd5b50611b8d60048036038101908080359060200190929190803573ffffffffffffffffffffffffffffffffffffffff1690602001909291905050506127a2565b6040518082815260200191505060405180910390f35b348015611baf57600080fd5b50611bb86127c7565b6040518082815260200191505060405180910390f35b348015611bda57600080fd5b50611c0f600480360381019080803573ffffffffffffffffffffffffffffffffffffffff1690602001909291905050506127cd565b005b348015611c1d57600080fd5b50611c3c600480360381019080803590602001909291905050506127ec565b6040518082815260200191505060405180910390f35b348015611c5e57600080fd5b50611c67612804565b6040518082815260200191505060405180910390f35b348015611c8957600080fd5b50611cbe600480360381019080803573ffffffffffffffffffffffffffffffffffffffff16906020019092919050505061280a565b6040518082815260200191505060405180910390f35b348015611ce057600080fd5b50611cff60048036038101908080359060200190929190505050612822565b005b348015611d0d57600080fd5b50611d16612825565b6040518082815260200191505060405180910390f35b604160149054906101000a900460ff1681565b60346020528160005260406000206020528060005260406000206000915091509054906101000a900460ff1681565b565b60236020528060005260406000206000915054906101000a900473ffffffffffffffffffffffffffffffffffffffff1681565b603a6020528060005260406000206000915054906101000a900473ffffffffffffffffffffffffffffffffffffffff1681565b6006602052816000526040600020602052806000526040600020600091509150505481565b5050505050565b60295481565b600f6020528060005260406000206000915054906101000a900473ffffffffffffffffffffffffffffffffffffffff1681565b50565b60216020528060005260406000206000915054906101000a900460ff1681565b600e602052816000526040600020602052806000526040600020600091509150505481565b601d6020528060005260406000206000915054906101000a900460ff1681565b601b6020528160005260406000206020528060005260406000206000915091509054906101000a900460ff1681565b604160169054906101000a900460ff1681565b60426020528060005260406000206000915054906101000a900460ff1681565b60176020528060005260406000206000915090505481565b60396020528060005260406000206000915090505481565b601a602052816000526040600020602052806000526040600020600091509150505481565b603060205281600052604060002081815481101515611f7557fe5b906000526020600020016000915091509054906101000a900473ffffffffffffffffffffffffffffffffffffffff1681565b6036602052816000526040600020602052806000526040600020600091509150505481565b6014602052816000526040600020602052806000526040600020600091509150505481565b60186020528060005260406000206000915090505481565b6035602052816000526040600020602052806000526040600020600091509150505481565b565b60106020528060005260406000206000915090505481565b602b5481565b604160009054906101000a900473ffffffffffffffffffffffffffffffffffffffff1681565b60256020528060005260406000206000915090505481565b60326020528160005260406000206020528060005260406000206000915091509054906101000a900473ffffffffffffffffffffffffffffffffffffffff1681565b50565b565b6005602052816000526040600020602052806000526040600020600091509150505481565b60386020528060005260406000206000915054906101000a900460ff1681565b60096020528060005260406000206000915090505481565b60226020528060005260406000206000915090508054600181600116156101000203166002900480601f0160208091040260200160405190810160405280929190818152602001828054600181600116156101000203166002900480156121d85780601f106121ad576101008083540402835291602001916121d8565b820191906000526020600020905b8154815290600101906020018083116121bb57829003601f168201915b505050505081565b603e5481565b602f6020528160005260406000208181548110151561220157fe5b906000526020600020016000915091509054906101000a900473ffffffffffffffffffffffffffffffffffffffff1681565b60166020528160005260406000206020528060005260406000206000915091509054906101000a900460ff1681565b5050505050565b600c6020528060005260406000206000915090505481565b565b565b5050565b60196020528060005260406000206000915090505481565b50565b6122ac612490565b15156122b757600080fd5b600073ffffffffffffffffffffffffffffffffffffffff166000809054906101000a900473ffffffffffffffffffffffffffffffffffffffff1673ffffffffffffffffffffffffffffffffffffffff167f8be0079c531659141344cd1fd0a4f28419497f9722a3daafe3b4186f6b6457e060405160405180910390a360008060006101000a81548173ffffffffffffffffffffffffffffffffffffffff021916908373ffffffffffffffffffffffffffffffffffffffff160217905550565b600a6020528060005260406000206000915090505481565b604160159054906101000a900460ff1681565b600b6020528060005260406000206000915054906101000a900473ffffffffffffffffffffffffffffffffffffffff1681565b6000919050565b601e6020528060005260406000206000915054906101000a900460ff1681565b602080528160005260406000208181548110151561241557fe5b906000526020600020016000915091509054906101000a900473ffffffffffffffffffffffffffffffffffffffff1681565b60285481565b565b60008060009054906101000a900473ffffffffffffffffffffffffffffffffffffffff16905090565b602e6020528060005260406000206000915090505481565b60008060009054906101000a900473ffffffffffffffffffffffffffffffffffffffff1673ffffffffffffffffffffffffffffffffffffffff163373ffffffffffffffffffffffffffffffffffffffff1614905090565b6011602052816000526040600020602052806000526040600020600091509150505481565b6008602052816000526040600020602052806000526040600020600091509150505481565b603f8181548110151561254057fe5b90600052602060002090600302016000915090508060000154908060010160009054906101000a900473ffffffffffffffffffffffffffffffffffffffff16908060010160149054906101000a900460ff16908060020154905084565b604060009054906101000a900473ffffffffffffffffffffffffffffffffffffffff1681565b60336020528160005260406000206020528060005260406000206000915091509054906101000a900460ff1681565b600092915050565b565b60316020528060005260406000206000915054906101000a900473ffffffffffffffffffffffffffffffffffffffff1681565b565b602c602052816000526040600020602052806000526040600020600091509150505481565b602d60205282600052604060002060205281600052604060002060205280600052604060002060009250925050505481565b6004602052816000526040600020602052806000526040600020600091509150505481565b60126020528060005260406000206000915090505481565b60076020528060005260406000206000915090505481565b6015602052816000526040600020602052806000526040600020600091509150505481565b60265481565b60246020528060005260406000206000915054906101000a900460ff1681565b6013602052816000526040600020602052806000526040600020600091509150505481565b60376020528060005260406000206000915054906101000a900460ff1681565b601f6020528060005260406000206000915054906101000a900473ffffffffffffffffffffffffffffffffffffffff1681565b565b601c602052816000526040600020602052806000526040600020600091509150505481565b60275481565b6127d5612490565b15156127e057600080fd5b6127e98161282b565b50565b600d6020528060005260406000206000915090505481565b603d5481565b603b6020528060005260406000206000915090505481565b50565b602a5481565b600073ffffffffffffffffffffffffffffffffffffffff168173ffffffffffffffffffffffffffffffffffffffff161415151561286757600080fd5b8073ffffffffffffffffffffffffffffffffffffffff166000809054906101000a900473ffffffffffffffffffffffffffffffffffffffff1673ffffffffffffffffffffffffffffffffffffffff167f8be0079c531659141344cd1fd0a4f28419497f9722a3daafe3b4186f6b6457e060405160405180910390a3806000806101000a81548173ffffffffffffffffffffffffffffffffffffffff021916908373ffffffffffffffffffffffffffffffffffffffff160217905550505600a165627a7a723058202dcd8366c6e8cc438b245ed73efebb825e75307d5fca7c4f5979abf3ba93bb0d0029",
  "source": "pragma solidity ^0.4.24;\nimport \"./Modifiers.sol\";\n\n/**\n** Wrapper for Router Contract to interact with all the functions' signatures\n**/\n\ncontract Wrapper is Modifiers {\n\n    //ColorTeam.sol\n    function distributeCBP() external {}\n\n    //TimeTeam.sol\n    function distributeTBP() external {}\n\n    //DividendsDistributor.sol\n    function claimDividends() external {}\n    function approveClaim(uint _claimId) public {}\n\n    //GameStateController.sol\n    function pauseGame() external {}\n    function resumeGame() external {}\n\n    //Referral.sol\n    function buyRefLink(string _refLink) external payable {}\n\n    //Roles.sol\n    function addAdmin(address _new) external {}\n    function removeAdmin(address _admin) external {}\n    function renounceAdmin() external {}\n\n    //Game.sol\n    function getPixelColor(uint _pixel) external view returns (uint) {}\n    function estimateCallPrice(uint[] _pixels, uint _color) public view returns (uint totalCallPrice) {}\n    function paint(uint[] _pixels, uint _color, string _refLink) external payable {}\n\n    //ERC1538.sol\n    function updateContract(address _delegate, string _functionSignatures, string commitMessage) external {}\n\n    //GameMock.sol\n    function mock() external {}\n    function mock2() external {}\n    function mock3(uint _winnerColor) external {}\n    function mockMaxPaintsInPool() external {}\n\n}",
  "sourcePath": "/Users/Amir/last-pixel-contracts/contracts/Wrapper.sol",
  "compiler": {
    "name": "solc",
    "version": "0.4.24+commit.e67f0147.Emscripten.clang"
  },
  "schemaVersion": "2.0.1",
  "updatedAt": "2019-01-16T18:20:39.765Z"
}